{
	"contracts/jarsSpinWheel/jarsSpinTheWheel.sol": {
		"BoltJarSpinVault": {
			"abi": [
				{
					"inputs": [
						{
							"internalType": "address",
							"name": "initialOwner",
							"type": "address"
						},
						{
							"internalType": "address",
							"name": "clubTokenAddress",
							"type": "address"
						}
					],
					"stateMutability": "nonpayable",
					"type": "constructor"
				},
				{
					"inputs": [],
					"name": "InsufficientClubBalance",
					"type": "error"
				},
				{
					"inputs": [],
					"name": "NFTNotWhitelisted",
					"type": "error"
				},
				{
					"inputs": [],
					"name": "NotOperator",
					"type": "error"
				},
				{
					"inputs": [
						{
							"internalType": "address",
							"name": "owner",
							"type": "address"
						}
					],
					"name": "OwnableInvalidOwner",
					"type": "error"
				},
				{
					"inputs": [
						{
							"internalType": "address",
							"name": "account",
							"type": "address"
						}
					],
					"name": "OwnableUnauthorizedAccount",
					"type": "error"
				},
				{
					"inputs": [],
					"name": "TransferFailed",
					"type": "error"
				},
				{
					"inputs": [],
					"name": "ZeroAddress",
					"type": "error"
				},
				{
					"anonymous": false,
					"inputs": [
						{
							"indexed": true,
							"internalType": "address",
							"name": "to",
							"type": "address"
						},
						{
							"indexed": false,
							"internalType": "uint256",
							"name": "amount",
							"type": "uint256"
						}
					],
					"name": "ClubWithdrawn",
					"type": "event"
				},
				{
					"anonymous": false,
					"inputs": [
						{
							"indexed": true,
							"internalType": "address",
							"name": "nft",
							"type": "address"
						},
						{
							"indexed": false,
							"internalType": "bool",
							"name": "allowed",
							"type": "bool"
						}
					],
					"name": "NFTWhitelisted",
					"type": "event"
				},
				{
					"anonymous": false,
					"inputs": [
						{
							"indexed": true,
							"internalType": "address",
							"name": "operator",
							"type": "address"
						},
						{
							"indexed": false,
							"internalType": "bool",
							"name": "allowed",
							"type": "bool"
						}
					],
					"name": "OperatorUpdated",
					"type": "event"
				},
				{
					"anonymous": false,
					"inputs": [
						{
							"indexed": true,
							"internalType": "address",
							"name": "previousOwner",
							"type": "address"
						},
						{
							"indexed": true,
							"internalType": "address",
							"name": "newOwner",
							"type": "address"
						}
					],
					"name": "OwnershipTransferred",
					"type": "event"
				},
				{
					"anonymous": false,
					"inputs": [
						{
							"indexed": true,
							"internalType": "address",
							"name": "operator",
							"type": "address"
						},
						{
							"indexed": true,
							"internalType": "address",
							"name": "winner",
							"type": "address"
						},
						{
							"indexed": false,
							"internalType": "uint256",
							"name": "amount",
							"type": "uint256"
						}
					],
					"name": "RewardPaid",
					"type": "event"
				},
				{
					"inputs": [
						{
							"internalType": "address",
							"name": "wallet",
							"type": "address"
						},
						{
							"internalType": "address",
							"name": "nft",
							"type": "address"
						}
					],
					"name": "balanceOfWhitelistedNFT",
					"outputs": [
						{
							"internalType": "uint256",
							"name": "",
							"type": "uint256"
						}
					],
					"stateMutability": "view",
					"type": "function"
				},
				{
					"inputs": [],
					"name": "clubBalance",
					"outputs": [
						{
							"internalType": "uint256",
							"name": "",
							"type": "uint256"
						}
					],
					"stateMutability": "view",
					"type": "function"
				},
				{
					"inputs": [],
					"name": "clubToken",
					"outputs": [
						{
							"internalType": "contract IERC20",
							"name": "",
							"type": "address"
						}
					],
					"stateMutability": "view",
					"type": "function"
				},
				{
					"inputs": [],
					"name": "getWhitelistedNFTs",
					"outputs": [
						{
							"internalType": "address[]",
							"name": "",
							"type": "address[]"
						}
					],
					"stateMutability": "view",
					"type": "function"
				},
				{
					"inputs": [
						{
							"internalType": "address",
							"name": "wallet",
							"type": "address"
						},
						{
							"internalType": "address",
							"name": "nft",
							"type": "address"
						}
					],
					"name": "holdsWhitelistedNFT",
					"outputs": [
						{
							"internalType": "bool",
							"name": "",
							"type": "bool"
						}
					],
					"stateMutability": "view",
					"type": "function"
				},
				{
					"inputs": [
						{
							"internalType": "address",
							"name": "",
							"type": "address"
						}
					],
					"name": "operators",
					"outputs": [
						{
							"internalType": "bool",
							"name": "",
							"type": "bool"
						}
					],
					"stateMutability": "view",
					"type": "function"
				},
				{
					"inputs": [],
					"name": "owner",
					"outputs": [
						{
							"internalType": "address",
							"name": "",
							"type": "address"
						}
					],
					"stateMutability": "view",
					"type": "function"
				},
				{
					"inputs": [
						{
							"internalType": "address",
							"name": "winner",
							"type": "address"
						},
						{
							"internalType": "uint256",
							"name": "amount",
							"type": "uint256"
						}
					],
					"name": "rewardWinner",
					"outputs": [],
					"stateMutability": "nonpayable",
					"type": "function"
				},
				{
					"inputs": [
						{
							"internalType": "address[]",
							"name": "winners",
							"type": "address[]"
						},
						{
							"internalType": "uint256[]",
							"name": "amounts",
							"type": "uint256[]"
						}
					],
					"name": "rewardWinners",
					"outputs": [],
					"stateMutability": "nonpayable",
					"type": "function"
				},
				{
					"inputs": [
						{
							"internalType": "address",
							"name": "operator",
							"type": "address"
						},
						{
							"internalType": "bool",
							"name": "allowed",
							"type": "bool"
						}
					],
					"name": "setOperator",
					"outputs": [],
					"stateMutability": "nonpayable",
					"type": "function"
				},
				{
					"inputs": [
						{
							"internalType": "address",
							"name": "nft",
							"type": "address"
						},
						{
							"internalType": "bool",
							"name": "allowed",
							"type": "bool"
						}
					],
					"name": "setWhitelistedNFT",
					"outputs": [],
					"stateMutability": "nonpayable",
					"type": "function"
				},
				{
					"inputs": [
						{
							"internalType": "address",
							"name": "wallet",
							"type": "address"
						}
					],
					"name": "totalWhitelistedNFTBalance",
					"outputs": [
						{
							"internalType": "uint256",
							"name": "total",
							"type": "uint256"
						}
					],
					"stateMutability": "view",
					"type": "function"
				},
				{
					"inputs": [
						{
							"internalType": "address",
							"name": "newOwner",
							"type": "address"
						}
					],
					"name": "transferOwnership",
					"outputs": [],
					"stateMutability": "nonpayable",
					"type": "function"
				},
				{
					"inputs": [
						{
							"internalType": "uint256",
							"name": "",
							"type": "uint256"
						}
					],
					"name": "whitelistedNFTList",
					"outputs": [
						{
							"internalType": "address",
							"name": "",
							"type": "address"
						}
					],
					"stateMutability": "view",
					"type": "function"
				},
				{
					"inputs": [
						{
							"internalType": "address",
							"name": "",
							"type": "address"
						}
					],
					"name": "whitelistedNFTs",
					"outputs": [
						{
							"internalType": "bool",
							"name": "",
							"type": "bool"
						}
					],
					"stateMutability": "view",
					"type": "function"
				},
				{
					"inputs": [],
					"name": "withdrawAllClub",
					"outputs": [],
					"stateMutability": "nonpayable",
					"type": "function"
				},
				{
					"inputs": [
						{
							"internalType": "address",
							"name": "to",
							"type": "address"
						},
						{
							"internalType": "uint256",
							"name": "amount",
							"type": "uint256"
						}
					],
					"name": "withdrawClub",
					"outputs": [],
					"stateMutability": "nonpayable",
					"type": "function"
				}
			],
			"devdoc": {
				"kind": "dev",
				"methods": {
					"rewardWinner(address,uint256)": {
						"details": "Backend/UI decides winner amount off-chain."
					},
					"totalWhitelistedNFTBalance(address)": {
						"details": "Useful if you whitelist multiple Jar collections."
					}
				},
				"version": 1
			},
			"evm": {
				"assembly": "    /* \"contracts/jarsSpinWheel/jarsSpinTheWheel.sol\":4066:9900  contract BoltJarSpinVault is Ownable {... */\n  mstore(0x40, 0xa0)\n    /* \"contracts/jarsSpinWheel/jarsSpinTheWheel.sol\":4951:5155  constructor(address initialOwner, address clubTokenAddress) Ownable(initialOwner) {... */\n  callvalue\n  dup1\n  iszero\n  tag_1\n  jumpi\n  0x00\n  dup1\n  revert\ntag_1:\n  pop\n  mload(0x40)\n  sub(codesize, bytecodeSize)\n  dup1\n  bytecodeSize\n  dup4\n  codecopy\n  dup2\n  dup2\n  add\n  0x40\n  mstore\n  dup2\n  add\n  swap1\n  tag_2\n  swap2\n  swap1\n  tag_3\n  jump\t// in\ntag_2:\n    /* \"contracts/jarsSpinWheel/jarsSpinTheWheel.sol\":5019:5031  initialOwner */\n  dup2\n    /* \"contracts/jarsSpinWheel/jarsSpinTheWheel.sol\":3458:3459  0 */\n  0x00\n    /* \"contracts/jarsSpinWheel/jarsSpinTheWheel.sol\":3434:3460  initialOwner == address(0) */\n  0xffffffffffffffffffffffffffffffffffffffff\n  and\n    /* \"contracts/jarsSpinWheel/jarsSpinTheWheel.sol\":3434:3446  initialOwner */\n  dup2\n    /* \"contracts/jarsSpinWheel/jarsSpinTheWheel.sol\":3434:3460  initialOwner == address(0) */\n  0xffffffffffffffffffffffffffffffffffffffff\n  and\n  sub\n    /* \"contracts/jarsSpinWheel/jarsSpinTheWheel.sol\":3430:3500  if (initialOwner == address(0)) revert OwnableInvalidOwner(address(0)) */\n  tag_7\n  jumpi\n    /* \"contracts/jarsSpinWheel/jarsSpinTheWheel.sol\":3497:3498  0 */\n  0x00\n    /* \"contracts/jarsSpinWheel/jarsSpinTheWheel.sol\":3469:3500  OwnableInvalidOwner(address(0)) */\n  mload(0x40)\n  0x1e4fbdf700000000000000000000000000000000000000000000000000000000\n  dup2\n  mstore\n  0x04\n  add\n  tag_8\n  swap2\n  swap1\n  tag_9\n  jump\t// in\ntag_8:\n  mload(0x40)\n  dup1\n  swap2\n  sub\n  swap1\n  revert\n    /* \"contracts/jarsSpinWheel/jarsSpinTheWheel.sol\":3430:3500  if (initialOwner == address(0)) revert OwnableInvalidOwner(address(0)) */\ntag_7:\n    /* \"contracts/jarsSpinWheel/jarsSpinTheWheel.sol\":3520:3532  initialOwner */\n  dup1\n    /* \"contracts/jarsSpinWheel/jarsSpinTheWheel.sol\":3511:3517  _owner */\n  0x00\n  dup1\n    /* \"contracts/jarsSpinWheel/jarsSpinTheWheel.sol\":3511:3532  _owner = initialOwner */\n  0x0100\n  exp\n  dup2\n  sload\n  dup2\n  0xffffffffffffffffffffffffffffffffffffffff\n  mul\n  not\n  and\n  swap1\n  dup4\n  0xffffffffffffffffffffffffffffffffffffffff\n  and\n  mul\n  or\n  swap1\n  sstore\n  pop\n    /* \"contracts/jarsSpinWheel/jarsSpinTheWheel.sol\":3581:3593  initialOwner */\n  dup1\n    /* \"contracts/jarsSpinWheel/jarsSpinTheWheel.sol\":3548:3594  OwnershipTransferred(address(0), initialOwner) */\n  0xffffffffffffffffffffffffffffffffffffffff\n  and\n    /* \"contracts/jarsSpinWheel/jarsSpinTheWheel.sol\":3577:3578  0 */\n  0x00\n    /* \"contracts/jarsSpinWheel/jarsSpinTheWheel.sol\":3548:3594  OwnershipTransferred(address(0), initialOwner) */\n  0xffffffffffffffffffffffffffffffffffffffff\n  and\n  0x8be0079c531659141344cd1fd0a4f28419497f9722a3daafe3b4186f6b6457e0\n  mload(0x40)\n  mload(0x40)\n  dup1\n  swap2\n  sub\n  swap1\n  log3\n    /* \"contracts/jarsSpinWheel/jarsSpinTheWheel.sol\":3385:3602  constructor(address initialOwner) {... */\n  pop\n    /* \"contracts/jarsSpinWheel/jarsSpinTheWheel.sol\":5076:5077  0 */\n  0x00\n    /* \"contracts/jarsSpinWheel/jarsSpinTheWheel.sol\":5048:5078  clubTokenAddress == address(0) */\n  0xffffffffffffffffffffffffffffffffffffffff\n  and\n    /* \"contracts/jarsSpinWheel/jarsSpinTheWheel.sol\":5048:5064  clubTokenAddress */\n  dup2\n    /* \"contracts/jarsSpinWheel/jarsSpinTheWheel.sol\":5048:5078  clubTokenAddress == address(0) */\n  0xffffffffffffffffffffffffffffffffffffffff\n  and\n  sub\n    /* \"contracts/jarsSpinWheel/jarsSpinTheWheel.sol\":5044:5100  if (clubTokenAddress == address(0)) revert ZeroAddress() */\n  tag_11\n  jumpi\n    /* \"contracts/jarsSpinWheel/jarsSpinTheWheel.sol\":5087:5100  ZeroAddress() */\n  mload(0x40)\n  0xd92e233d00000000000000000000000000000000000000000000000000000000\n  dup2\n  mstore\n  0x04\n  add\n  mload(0x40)\n  dup1\n  swap2\n  sub\n  swap1\n  revert\n    /* \"contracts/jarsSpinWheel/jarsSpinTheWheel.sol\":5044:5100  if (clubTokenAddress == address(0)) revert ZeroAddress() */\ntag_11:\n    /* \"contracts/jarsSpinWheel/jarsSpinTheWheel.sol\":5130:5146  clubTokenAddress */\n  dup1\n    /* \"contracts/jarsSpinWheel/jarsSpinTheWheel.sol\":5111:5147  clubToken = IERC20(clubTokenAddress) */\n  0xffffffffffffffffffffffffffffffffffffffff\n  and\n  0x80\n  dup2\n  0xffffffffffffffffffffffffffffffffffffffff\n  and\n  dup2\n  mstore\n  pop\n  pop\n    /* \"contracts/jarsSpinWheel/jarsSpinTheWheel.sol\":4951:5155  constructor(address initialOwner, address clubTokenAddress) Ownable(initialOwner) {... */\n  pop\n  pop\n    /* \"contracts/jarsSpinWheel/jarsSpinTheWheel.sol\":4066:9900  contract BoltJarSpinVault is Ownable {... */\n  jump(tag_12)\n    /* \"#utility.yul\":88:205   */\ntag_14:\n    /* \"#utility.yul\":197:198   */\n  0x00\n    /* \"#utility.yul\":194:195   */\n  dup1\n    /* \"#utility.yul\":187:199   */\n  revert\n    /* \"#utility.yul\":334:460   */\ntag_16:\n    /* \"#utility.yul\":371:378   */\n  0x00\n    /* \"#utility.yul\":411:453   */\n  0xffffffffffffffffffffffffffffffffffffffff\n    /* \"#utility.yul\":404:409   */\n  dup3\n    /* \"#utility.yul\":400:454   */\n  and\n    /* \"#utility.yul\":389:454   */\n  swap1\n  pop\n    /* \"#utility.yul\":334:460   */\n  swap2\n  swap1\n  pop\n  jump\t// out\n    /* \"#utility.yul\":466:562   */\ntag_17:\n    /* \"#utility.yul\":503:510   */\n  0x00\n    /* \"#utility.yul\":532:556   */\n  tag_27\n    /* \"#utility.yul\":550:555   */\n  dup3\n    /* \"#utility.yul\":532:556   */\n  tag_16\n  jump\t// in\ntag_27:\n    /* \"#utility.yul\":521:556   */\n  swap1\n  pop\n    /* \"#utility.yul\":466:562   */\n  swap2\n  swap1\n  pop\n  jump\t// out\n    /* \"#utility.yul\":568:690   */\ntag_18:\n    /* \"#utility.yul\":641:665   */\n  tag_29\n    /* \"#utility.yul\":659:664   */\n  dup2\n    /* \"#utility.yul\":641:665   */\n  tag_17\n  jump\t// in\ntag_29:\n    /* \"#utility.yul\":634:639   */\n  dup2\n    /* \"#utility.yul\":631:666   */\n  eq\n    /* \"#utility.yul\":621:684   */\n  tag_30\n  jumpi\n    /* \"#utility.yul\":680:681   */\n  0x00\n    /* \"#utility.yul\":677:678   */\n  dup1\n    /* \"#utility.yul\":670:682   */\n  revert\n    /* \"#utility.yul\":621:684   */\ntag_30:\n    /* \"#utility.yul\":568:690   */\n  pop\n  jump\t// out\n    /* \"#utility.yul\":696:839   */\ntag_19:\n    /* \"#utility.yul\":753:758   */\n  0x00\n    /* \"#utility.yul\":784:790   */\n  dup2\n    /* \"#utility.yul\":778:791   */\n  mload\n    /* \"#utility.yul\":769:791   */\n  swap1\n  pop\n    /* \"#utility.yul\":800:833   */\n  tag_32\n    /* \"#utility.yul\":827:832   */\n  dup2\n    /* \"#utility.yul\":800:833   */\n  tag_18\n  jump\t// in\ntag_32:\n    /* \"#utility.yul\":696:839   */\n  swap3\n  swap2\n  pop\n  pop\n  jump\t// out\n    /* \"#utility.yul\":845:1352   */\ntag_3:\n    /* \"#utility.yul\":924:930   */\n  0x00\n    /* \"#utility.yul\":932:938   */\n  dup1\n    /* \"#utility.yul\":981:983   */\n  0x40\n    /* \"#utility.yul\":969:978   */\n  dup4\n    /* \"#utility.yul\":960:967   */\n  dup6\n    /* \"#utility.yul\":956:979   */\n  sub\n    /* \"#utility.yul\":952:984   */\n  slt\n    /* \"#utility.yul\":949:1068   */\n  iszero\n  tag_34\n  jumpi\n    /* \"#utility.yul\":987:1066   */\n  tag_35\n  tag_14\n  jump\t// in\ntag_35:\n    /* \"#utility.yul\":949:1068   */\ntag_34:\n    /* \"#utility.yul\":1107:1108   */\n  0x00\n    /* \"#utility.yul\":1132:1196   */\n  tag_36\n    /* \"#utility.yul\":1188:1195   */\n  dup6\n    /* \"#utility.yul\":1179:1185   */\n  dup3\n    /* \"#utility.yul\":1168:1177   */\n  dup7\n    /* \"#utility.yul\":1164:1186   */\n  add\n    /* \"#utility.yul\":1132:1196   */\n  tag_19\n  jump\t// in\ntag_36:\n    /* \"#utility.yul\":1122:1196   */\n  swap3\n  pop\n    /* \"#utility.yul\":1078:1206   */\n  pop\n    /* \"#utility.yul\":1245:1247   */\n  0x20\n    /* \"#utility.yul\":1271:1335   */\n  tag_37\n    /* \"#utility.yul\":1327:1334   */\n  dup6\n    /* \"#utility.yul\":1318:1324   */\n  dup3\n    /* \"#utility.yul\":1307:1316   */\n  dup7\n    /* \"#utility.yul\":1303:1325   */\n  add\n    /* \"#utility.yul\":1271:1335   */\n  tag_19\n  jump\t// in\ntag_37:\n    /* \"#utility.yul\":1261:1335   */\n  swap2\n  pop\n    /* \"#utility.yul\":1216:1345   */\n  pop\n    /* \"#utility.yul\":845:1352   */\n  swap3\n  pop\n  swap3\n  swap1\n  pop\n  jump\t// out\n    /* \"#utility.yul\":1358:1476   */\ntag_20:\n    /* \"#utility.yul\":1445:1469   */\n  tag_39\n    /* \"#utility.yul\":1463:1468   */\n  dup2\n    /* \"#utility.yul\":1445:1469   */\n  tag_17\n  jump\t// in\ntag_39:\n    /* \"#utility.yul\":1440:1443   */\n  dup3\n    /* \"#utility.yul\":1433:1470   */\n  mstore\n    /* \"#utility.yul\":1358:1476   */\n  pop\n  pop\n  jump\t// out\n    /* \"#utility.yul\":1482:1704   */\ntag_9:\n    /* \"#utility.yul\":1575:1579   */\n  0x00\n    /* \"#utility.yul\":1613:1615   */\n  0x20\n    /* \"#utility.yul\":1602:1611   */\n  dup3\n    /* \"#utility.yul\":1598:1616   */\n  add\n    /* \"#utility.yul\":1590:1616   */\n  swap1\n  pop\n    /* \"#utility.yul\":1626:1697   */\n  tag_41\n    /* \"#utility.yul\":1694:1695   */\n  0x00\n    /* \"#utility.yul\":1683:1692   */\n  dup4\n    /* \"#utility.yul\":1679:1696   */\n  add\n    /* \"#utility.yul\":1670:1676   */\n  dup5\n    /* \"#utility.yul\":1626:1697   */\n  tag_20\n  jump\t// in\ntag_41:\n    /* \"#utility.yul\":1482:1704   */\n  swap3\n  swap2\n  pop\n  pop\n  jump\t// out\n    /* \"contracts/jarsSpinWheel/jarsSpinTheWheel.sol\":4066:9900  contract BoltJarSpinVault is Ownable {... */\ntag_12:\n  mload(0x80)\n  codecopy(0x00, dataOffset(sub_0), dataSize(sub_0))\n  0x00\n  assignImmutable(\"0xcfe93e00cbaaf37bad5f0b2ff3ab98072b4f3a2656e148b3bcccb553f2fa678f\")\n  return(0x00, dataSize(sub_0))\nstop\n\nsub_0: assembly {\n        /* \"contracts/jarsSpinWheel/jarsSpinTheWheel.sol\":4066:9900  contract BoltJarSpinVault is Ownable {... */\n      mstore(0x40, 0x80)\n      callvalue\n      dup1\n      iszero\n      tag_1\n      jumpi\n      0x00\n      dup1\n      revert\n    tag_1:\n      pop\n      jumpi(tag_2, lt(calldatasize, 0x04))\n      shr(0xe0, calldataload(0x00))\n      dup1\n      0x6109f2b9\n      gt\n      tag_20\n      jumpi\n      dup1\n      0xae4289c7\n      gt\n      tag_21\n      jumpi\n      dup1\n      0xae4289c7\n      eq\n      tag_15\n      jumpi\n      dup1\n      0xb91336f0\n      eq\n      tag_16\n      jumpi\n      dup1\n      0xbddf7ac1\n      eq\n      tag_17\n      jumpi\n      dup1\n      0xd76bbd52\n      eq\n      tag_18\n      jumpi\n      dup1\n      0xf2fde38b\n      eq\n      tag_19\n      jumpi\n      jump(tag_2)\n    tag_21:\n      dup1\n      0x6109f2b9\n      eq\n      tag_11\n      jumpi\n      dup1\n      0x64fbbf90\n      eq\n      tag_12\n      jumpi\n      dup1\n      0x8da5cb5b\n      eq\n      tag_13\n      jumpi\n      dup1\n      0xa59f01ba\n      eq\n      tag_14\n      jumpi\n      jump(tag_2)\n    tag_20:\n      dup1\n      0x3d65de44\n      gt\n      tag_22\n      jumpi\n      dup1\n      0x3d65de44\n      eq\n      tag_7\n      jumpi\n      dup1\n      0x3f0c188f\n      eq\n      tag_8\n      jumpi\n      dup1\n      0x558a7297\n      eq\n      tag_9\n      jumpi\n      dup1\n      0x5795027f\n      eq\n      tag_10\n      jumpi\n      jump(tag_2)\n    tag_22:\n      dup1\n      0x13e7c9d8\n      eq\n      tag_3\n      jumpi\n      dup1\n      0x170becbe\n      eq\n      tag_4\n      jumpi\n      dup1\n      0x2325101b\n      eq\n      tag_5\n      jumpi\n      dup1\n      0x36693152\n      eq\n      tag_6\n      jumpi\n    tag_2:\n      0x00\n      dup1\n      revert\n        /* \"contracts/jarsSpinWheel/jarsSpinTheWheel.sol\":4362:4403  mapping(address => bool) public operators */\n    tag_3:\n      tag_23\n      0x04\n      dup1\n      calldatasize\n      sub\n      dup2\n      add\n      swap1\n      tag_24\n      swap2\n      swap1\n      tag_25\n      jump\t// in\n    tag_24:\n      tag_26\n      jump\t// in\n    tag_23:\n      mload(0x40)\n      tag_27\n      swap2\n      swap1\n      tag_28\n      jump\t// in\n    tag_27:\n      mload(0x40)\n      dup1\n      swap2\n      sub\n      swap1\n      return\n        /* \"contracts/jarsSpinWheel/jarsSpinTheWheel.sol\":6607:7293  function rewardWinners(address[] calldata winners, uint256[] calldata amounts) external onlyOperator {... */\n    tag_4:\n      tag_29\n      0x04\n      dup1\n      calldatasize\n      sub\n      dup2\n      add\n      swap1\n      tag_30\n      swap2\n      swap1\n      tag_31\n      jump\t// in\n    tag_30:\n      tag_32\n      jump\t// in\n    tag_29:\n      stop\n        /* \"contracts/jarsSpinWheel/jarsSpinTheWheel.sol\":8724:8942  function balanceOfWhitelistedNFT(address wallet, address nft) external view returns (uint256) {... */\n    tag_5:\n      tag_33\n      0x04\n      dup1\n      calldatasize\n      sub\n      dup2\n      add\n      swap1\n      tag_34\n      swap2\n      swap1\n      tag_35\n      jump\t// in\n    tag_34:\n      tag_36\n      jump\t// in\n    tag_33:\n      mload(0x40)\n      tag_37\n      swap2\n      swap1\n      tag_38\n      jump\t// in\n    tag_37:\n      mload(0x40)\n      dup1\n      swap2\n      sub\n      swap1\n      return\n        /* \"contracts/jarsSpinWheel/jarsSpinTheWheel.sol\":4488:4523  address[] public whitelistedNFTList */\n    tag_6:\n      tag_39\n      0x04\n      dup1\n      calldatasize\n      sub\n      dup2\n      add\n      swap1\n      tag_40\n      swap2\n      swap1\n      tag_41\n      jump\t// in\n    tag_40:\n      tag_42\n      jump\t// in\n    tag_39:\n      mload(0x40)\n      tag_43\n      swap2\n      swap1\n      tag_44\n      jump\t// in\n    tag_43:\n      mload(0x40)\n      dup1\n      swap2\n      sub\n      swap1\n      return\n        /* \"contracts/jarsSpinWheel/jarsSpinTheWheel.sol\":9588:9703  function clubBalance() external view returns (uint256) {... */\n    tag_7:\n      tag_45\n      tag_46\n      jump\t// in\n    tag_45:\n      mload(0x40)\n      tag_47\n      swap2\n      swap1\n      tag_38\n      jump\t// in\n    tag_47:\n      mload(0x40)\n      dup1\n      swap2\n      sub\n      swap1\n      return\n        /* \"contracts/jarsSpinWheel/jarsSpinTheWheel.sol\":4434:4481  mapping(address => bool) public whitelistedNFTs */\n    tag_8:\n      tag_48\n      0x04\n      dup1\n      calldatasize\n      sub\n      dup2\n      add\n      swap1\n      tag_49\n      swap2\n      swap1\n      tag_25\n      jump\t// in\n    tag_49:\n      tag_50\n      jump\t// in\n    tag_48:\n      mload(0x40)\n      tag_51\n      swap2\n      swap1\n      tag_28\n      jump\t// in\n    tag_51:\n      mload(0x40)\n      dup1\n      swap2\n      sub\n      swap1\n      return\n        /* \"contracts/jarsSpinWheel/jarsSpinTheWheel.sol\":5255:5484  function setOperator(address operator, bool allowed) external onlyOwner {... */\n    tag_9:\n      tag_52\n      0x04\n      dup1\n      calldatasize\n      sub\n      dup2\n      add\n      swap1\n      tag_53\n      swap2\n      swap1\n      tag_54\n      jump\t// in\n    tag_53:\n      tag_55\n      jump\t// in\n    tag_52:\n      stop\n        /* \"contracts/jarsSpinWheel/jarsSpinTheWheel.sol\":6134:6523  function rewardWinner(address winner, uint256 amount) external onlyOperator {... */\n    tag_10:\n      tag_56\n      0x04\n      dup1\n      calldatasize\n      sub\n      dup2\n      add\n      swap1\n      tag_57\n      swap2\n      swap1\n      tag_58\n      jump\t// in\n    tag_57:\n      tag_59\n      jump\t// in\n    tag_56:\n      stop\n        /* \"contracts/jarsSpinWheel/jarsSpinTheWheel.sol\":5492:5904  function setWhitelistedNFT(address nft, bool allowed) external onlyOwner {... */\n    tag_11:\n      tag_60\n      0x04\n      dup1\n      calldatasize\n      sub\n      dup2\n      add\n      swap1\n      tag_61\n      swap2\n      swap1\n      tag_54\n      jump\t// in\n    tag_61:\n      tag_62\n      jump\t// in\n    tag_60:\n      stop\n        /* \"contracts/jarsSpinWheel/jarsSpinTheWheel.sol\":9117:9497  function totalWhitelistedNFTBalance(address wallet) external view returns (uint256 total) {... */\n    tag_12:\n      tag_63\n      0x04\n      dup1\n      calldatasize\n      sub\n      dup2\n      add\n      swap1\n      tag_64\n      swap2\n      swap1\n      tag_25\n      jump\t// in\n    tag_64:\n      tag_65\n      jump\t// in\n    tag_63:\n      mload(0x40)\n      tag_66\n      swap2\n      swap1\n      tag_38\n      jump\t// in\n    tag_66:\n      mload(0x40)\n      dup1\n      swap2\n      sub\n      swap1\n      return\n        /* \"contracts/jarsSpinWheel/jarsSpinTheWheel.sol\":3741:3820  function owner() public view returns (address) {... */\n    tag_13:\n      tag_67\n      tag_68\n      jump\t// in\n    tag_67:\n      mload(0x40)\n      tag_69\n      swap2\n      swap1\n      tag_44\n      jump\t// in\n    tag_69:\n      mload(0x40)\n      dup1\n      swap2\n      sub\n      swap1\n      return\n        /* \"contracts/jarsSpinWheel/jarsSpinTheWheel.sol\":7825:8138  function withdrawAllClub() external onlyOwner {... */\n    tag_14:\n      tag_70\n      tag_71\n      jump\t// in\n    tag_70:\n      stop\n        /* \"contracts/jarsSpinWheel/jarsSpinTheWheel.sol\":9782:9897  function getWhitelistedNFTs() external view returns (address[] memory) {... */\n    tag_15:\n      tag_72\n      tag_73\n      jump\t// in\n    tag_72:\n      mload(0x40)\n      tag_74\n      swap2\n      swap1\n      tag_75\n      jump\t// in\n    tag_74:\n      mload(0x40)\n      dup1\n      swap2\n      sub\n      swap1\n      return\n        /* \"contracts/jarsSpinWheel/jarsSpinTheWheel.sol\":8384:8599  function holdsWhitelistedNFT(address wallet, address nft) external view returns (bool) {... */\n    tag_16:\n      tag_76\n      0x04\n      dup1\n      calldatasize\n      sub\n      dup2\n      add\n      swap1\n      tag_77\n      swap2\n      swap1\n      tag_35\n      jump\t// in\n    tag_77:\n      tag_78\n      jump\t// in\n    tag_76:\n      mload(0x40)\n      tag_79\n      swap2\n      swap1\n      tag_28\n      jump\t// in\n    tag_79:\n      mload(0x40)\n      dup1\n      swap2\n      sub\n      swap1\n      return\n        /* \"contracts/jarsSpinWheel/jarsSpinTheWheel.sol\":7385:7746  function withdrawClub(address to, uint256 amount) external onlyOwner {... */\n    tag_17:\n      tag_80\n      0x04\n      dup1\n      calldatasize\n      sub\n      dup2\n      add\n      swap1\n      tag_81\n      swap2\n      swap1\n      tag_58\n      jump\t// in\n    tag_81:\n      tag_82\n      jump\t// in\n    tag_80:\n      stop\n        /* \"contracts/jarsSpinWheel/jarsSpinTheWheel.sol\":4263:4296  IERC20 public immutable clubToken */\n    tag_18:\n      tag_83\n      tag_84\n      jump\t// in\n    tag_83:\n      mload(0x40)\n      tag_85\n      swap2\n      swap1\n      tag_86\n      jump\t// in\n    tag_85:\n      mload(0x40)\n      dup1\n      swap2\n      sub\n      swap1\n      return\n        /* \"contracts/jarsSpinWheel/jarsSpinTheWheel.sol\":3828:4059  function transferOwnership(address newOwner) external onlyOwner {... */\n    tag_19:\n      tag_87\n      0x04\n      dup1\n      calldatasize\n      sub\n      dup2\n      add\n      swap1\n      tag_88\n      swap2\n      swap1\n      tag_25\n      jump\t// in\n    tag_88:\n      tag_89\n      jump\t// in\n    tag_87:\n      stop\n        /* \"contracts/jarsSpinWheel/jarsSpinTheWheel.sol\":4362:4403  mapping(address => bool) public operators */\n    tag_26:\n      mstore(0x20, 0x01)\n      dup1\n      0x00\n      mstore\n      keccak256(0x00, 0x40)\n      0x00\n      swap2\n      pop\n      sload\n      swap1\n      0x0100\n      exp\n      swap1\n      div\n      0xff\n      and\n      dup2\n      jump\t// out\n        /* \"contracts/jarsSpinWheel/jarsSpinTheWheel.sol\":6607:7293  function rewardWinners(address[] calldata winners, uint256[] calldata amounts) external onlyOperator {... */\n    tag_32:\n        /* \"contracts/jarsSpinWheel/jarsSpinTheWheel.sol\":4855:4864  operators */\n      0x01\n        /* \"contracts/jarsSpinWheel/jarsSpinTheWheel.sol\":4855:4876  operators[msg.sender] */\n      0x00\n        /* \"contracts/jarsSpinWheel/jarsSpinTheWheel.sol\":4865:4875  msg.sender */\n      caller\n        /* \"contracts/jarsSpinWheel/jarsSpinTheWheel.sol\":4855:4876  operators[msg.sender] */\n      0xffffffffffffffffffffffffffffffffffffffff\n      and\n      0xffffffffffffffffffffffffffffffffffffffff\n      and\n      dup2\n      mstore\n      0x20\n      add\n      swap1\n      dup2\n      mstore\n      0x20\n      add\n      0x00\n      keccak256\n      0x00\n      swap1\n      sload\n      swap1\n      0x0100\n      exp\n      swap1\n      div\n      0xff\n      and\n        /* \"contracts/jarsSpinWheel/jarsSpinTheWheel.sol\":4854:4876  !operators[msg.sender] */\n      iszero\n        /* \"contracts/jarsSpinWheel/jarsSpinTheWheel.sol\":4854:4901  !operators[msg.sender] && msg.sender != owner() */\n      dup1\n      iszero\n      tag_91\n      jumpi\n      pop\n        /* \"contracts/jarsSpinWheel/jarsSpinTheWheel.sol\":4894:4901  owner() */\n      tag_92\n        /* \"contracts/jarsSpinWheel/jarsSpinTheWheel.sol\":4894:4899  owner */\n      tag_68\n        /* \"contracts/jarsSpinWheel/jarsSpinTheWheel.sol\":4894:4901  owner() */\n      jump\t// in\n    tag_92:\n        /* \"contracts/jarsSpinWheel/jarsSpinTheWheel.sol\":4880:4901  msg.sender != owner() */\n      0xffffffffffffffffffffffffffffffffffffffff\n      and\n        /* \"contracts/jarsSpinWheel/jarsSpinTheWheel.sol\":4880:4890  msg.sender */\n      caller\n        /* \"contracts/jarsSpinWheel/jarsSpinTheWheel.sol\":4880:4901  msg.sender != owner() */\n      0xffffffffffffffffffffffffffffffffffffffff\n      and\n      eq\n      iszero\n        /* \"contracts/jarsSpinWheel/jarsSpinTheWheel.sol\":4854:4901  !operators[msg.sender] && msg.sender != owner() */\n    tag_91:\n        /* \"contracts/jarsSpinWheel/jarsSpinTheWheel.sol\":4850:4923  if (!operators[msg.sender] && msg.sender != owner()) revert NotOperator() */\n      iszero\n      tag_93\n      jumpi\n        /* \"contracts/jarsSpinWheel/jarsSpinTheWheel.sol\":4910:4923  NotOperator() */\n      mload(0x40)\n      0x7c214f0400000000000000000000000000000000000000000000000000000000\n      dup2\n      mstore\n      0x04\n      add\n      mload(0x40)\n      dup1\n      swap2\n      sub\n      swap1\n      revert\n        /* \"contracts/jarsSpinWheel/jarsSpinTheWheel.sol\":4850:4923  if (!operators[msg.sender] && msg.sender != owner()) revert NotOperator() */\n    tag_93:\n        /* \"contracts/jarsSpinWheel/jarsSpinTheWheel.sol\":6719:6733  uint256 length */\n      0x00\n        /* \"contracts/jarsSpinWheel/jarsSpinTheWheel.sol\":6736:6743  winners */\n      dup5\n      dup5\n        /* \"contracts/jarsSpinWheel/jarsSpinTheWheel.sol\":6736:6750  winners.length */\n      swap1\n      pop\n        /* \"contracts/jarsSpinWheel/jarsSpinTheWheel.sol\":6719:6750  uint256 length = winners.length */\n      swap1\n      pop\n        /* \"contracts/jarsSpinWheel/jarsSpinTheWheel.sol\":6779:6786  amounts */\n      dup3\n      dup3\n        /* \"contracts/jarsSpinWheel/jarsSpinTheWheel.sol\":6779:6793  amounts.length */\n      swap1\n      pop\n        /* \"contracts/jarsSpinWheel/jarsSpinTheWheel.sol\":6769:6775  length */\n      dup2\n        /* \"contracts/jarsSpinWheel/jarsSpinTheWheel.sol\":6769:6793  length == amounts.length */\n      eq\n        /* \"contracts/jarsSpinWheel/jarsSpinTheWheel.sol\":6761:6813  require(length == amounts.length, \"Length mismatch\") */\n      tag_95\n      jumpi\n      mload(0x40)\n      0x08c379a000000000000000000000000000000000000000000000000000000000\n      dup2\n      mstore\n      0x04\n      add\n      tag_96\n      swap1\n      tag_97\n      jump\t// in\n    tag_96:\n      mload(0x40)\n      dup1\n      swap2\n      sub\n      swap1\n      revert\n    tag_95:\n        /* \"contracts/jarsSpinWheel/jarsSpinTheWheel.sol\":6831:6840  uint256 i */\n      0x00\n        /* \"contracts/jarsSpinWheel/jarsSpinTheWheel.sol\":6826:7286  for (uint256 i = 0; i < length; i++) {... */\n    tag_98:\n        /* \"contracts/jarsSpinWheel/jarsSpinTheWheel.sol\":6850:6856  length */\n      dup2\n        /* \"contracts/jarsSpinWheel/jarsSpinTheWheel.sol\":6846:6847  i */\n      dup2\n        /* \"contracts/jarsSpinWheel/jarsSpinTheWheel.sol\":6846:6856  i < length */\n      lt\n        /* \"contracts/jarsSpinWheel/jarsSpinTheWheel.sol\":6826:7286  for (uint256 i = 0; i < length; i++) {... */\n      iszero\n      tag_99\n      jumpi\n        /* \"contracts/jarsSpinWheel/jarsSpinTheWheel.sol\":6878:6892  address winner */\n      0x00\n        /* \"contracts/jarsSpinWheel/jarsSpinTheWheel.sol\":6895:6902  winners */\n      dup7\n      dup7\n        /* \"contracts/jarsSpinWheel/jarsSpinTheWheel.sol\":6903:6904  i */\n      dup4\n        /* \"contracts/jarsSpinWheel/jarsSpinTheWheel.sol\":6895:6905  winners[i] */\n      dup2\n      dup2\n      lt\n      tag_101\n      jumpi\n      tag_102\n      tag_103\n      jump\t// in\n    tag_102:\n    tag_101:\n      swap1\n      pop\n      0x20\n      mul\n      add\n      0x20\n      dup2\n      add\n      swap1\n      tag_104\n      swap2\n      swap1\n      tag_25\n      jump\t// in\n    tag_104:\n        /* \"contracts/jarsSpinWheel/jarsSpinTheWheel.sol\":6878:6905  address winner = winners[i] */\n      swap1\n      pop\n        /* \"contracts/jarsSpinWheel/jarsSpinTheWheel.sol\":6920:6934  uint256 amount */\n      0x00\n        /* \"contracts/jarsSpinWheel/jarsSpinTheWheel.sol\":6937:6944  amounts */\n      dup6\n      dup6\n        /* \"contracts/jarsSpinWheel/jarsSpinTheWheel.sol\":6945:6946  i */\n      dup5\n        /* \"contracts/jarsSpinWheel/jarsSpinTheWheel.sol\":6937:6947  amounts[i] */\n      dup2\n      dup2\n      lt\n      tag_105\n      jumpi\n      tag_106\n      tag_103\n      jump\t// in\n    tag_106:\n    tag_105:\n      swap1\n      pop\n      0x20\n      mul\n      add\n      calldataload\n        /* \"contracts/jarsSpinWheel/jarsSpinTheWheel.sol\":6920:6947  uint256 amount = amounts[i] */\n      swap1\n      pop\n        /* \"contracts/jarsSpinWheel/jarsSpinTheWheel.sol\":6986:6987  0 */\n      0x00\n        /* \"contracts/jarsSpinWheel/jarsSpinTheWheel.sol\":6968:6988  winner == address(0) */\n      0xffffffffffffffffffffffffffffffffffffffff\n      and\n        /* \"contracts/jarsSpinWheel/jarsSpinTheWheel.sol\":6968:6974  winner */\n      dup3\n        /* \"contracts/jarsSpinWheel/jarsSpinTheWheel.sol\":6968:6988  winner == address(0) */\n      0xffffffffffffffffffffffffffffffffffffffff\n      and\n      sub\n        /* \"contracts/jarsSpinWheel/jarsSpinTheWheel.sol\":6964:7010  if (winner == address(0)) revert ZeroAddress() */\n      tag_107\n      jumpi\n        /* \"contracts/jarsSpinWheel/jarsSpinTheWheel.sol\":6997:7010  ZeroAddress() */\n      mload(0x40)\n      0xd92e233d00000000000000000000000000000000000000000000000000000000\n      dup2\n      mstore\n      0x04\n      add\n      mload(0x40)\n      dup1\n      swap2\n      sub\n      swap1\n      revert\n        /* \"contracts/jarsSpinWheel/jarsSpinTheWheel.sol\":6964:7010  if (winner == address(0)) revert ZeroAddress() */\n    tag_107:\n        /* \"contracts/jarsSpinWheel/jarsSpinTheWheel.sol\":7066:7072  amount */\n      dup1\n        /* \"contracts/jarsSpinWheel/jarsSpinTheWheel.sol\":7029:7038  clubToken */\n      immutable(\"0xcfe93e00cbaaf37bad5f0b2ff3ab98072b4f3a2656e148b3bcccb553f2fa678f\")\n        /* \"contracts/jarsSpinWheel/jarsSpinTheWheel.sol\":7029:7048  clubToken.balanceOf */\n      0xffffffffffffffffffffffffffffffffffffffff\n      and\n      0x70a08231\n        /* \"contracts/jarsSpinWheel/jarsSpinTheWheel.sol\":7057:7061  this */\n      address\n        /* \"contracts/jarsSpinWheel/jarsSpinTheWheel.sol\":7029:7063  clubToken.balanceOf(address(this)) */\n      mload(0x40)\n      dup3\n      0xffffffff\n      and\n      0xe0\n      shl\n      dup2\n      mstore\n      0x04\n      add\n      tag_108\n      swap2\n      swap1\n      tag_44\n      jump\t// in\n    tag_108:\n      0x20\n      mload(0x40)\n      dup1\n      dup4\n      sub\n      dup2\n      dup7\n      gas\n      staticcall\n      iszero\n      dup1\n      iszero\n      tag_110\n      jumpi\n      returndatasize\n      0x00\n      dup1\n      returndatacopy\n      revert(0x00, returndatasize)\n    tag_110:\n      pop\n      pop\n      pop\n      pop\n      mload(0x40)\n      returndatasize\n      not(0x1f)\n      0x1f\n      dup3\n      add\n      and\n      dup3\n      add\n      dup1\n      0x40\n      mstore\n      pop\n      dup2\n      add\n      swap1\n      tag_111\n      swap2\n      swap1\n      tag_112\n      jump\t// in\n    tag_111:\n        /* \"contracts/jarsSpinWheel/jarsSpinTheWheel.sol\":7029:7072  clubToken.balanceOf(address(this)) < amount */\n      lt\n        /* \"contracts/jarsSpinWheel/jarsSpinTheWheel.sol\":7025:7106  if (clubToken.balanceOf(address(this)) < amount) revert InsufficientClubBalance() */\n      iszero\n      tag_113\n      jumpi\n        /* \"contracts/jarsSpinWheel/jarsSpinTheWheel.sol\":7081:7106  InsufficientClubBalance() */\n      mload(0x40)\n      0xcd85a9b600000000000000000000000000000000000000000000000000000000\n      dup2\n      mstore\n      0x04\n      add\n      mload(0x40)\n      dup1\n      swap2\n      sub\n      swap1\n      revert\n        /* \"contracts/jarsSpinWheel/jarsSpinTheWheel.sol\":7025:7106  if (clubToken.balanceOf(address(this)) < amount) revert InsufficientClubBalance() */\n    tag_113:\n        /* \"contracts/jarsSpinWheel/jarsSpinTheWheel.sol\":7123:7130  bool ok */\n      0x00\n        /* \"contracts/jarsSpinWheel/jarsSpinTheWheel.sol\":7133:7142  clubToken */\n      immutable(\"0xcfe93e00cbaaf37bad5f0b2ff3ab98072b4f3a2656e148b3bcccb553f2fa678f\")\n        /* \"contracts/jarsSpinWheel/jarsSpinTheWheel.sol\":7133:7151  clubToken.transfer */\n      0xffffffffffffffffffffffffffffffffffffffff\n      and\n      0xa9059cbb\n        /* \"contracts/jarsSpinWheel/jarsSpinTheWheel.sol\":7152:7158  winner */\n      dup5\n        /* \"contracts/jarsSpinWheel/jarsSpinTheWheel.sol\":7160:7166  amount */\n      dup5\n        /* \"contracts/jarsSpinWheel/jarsSpinTheWheel.sol\":7133:7167  clubToken.transfer(winner, amount) */\n      mload(0x40)\n      dup4\n      0xffffffff\n      and\n      0xe0\n      shl\n      dup2\n      mstore\n      0x04\n      add\n      tag_114\n      swap3\n      swap2\n      swap1\n      tag_115\n      jump\t// in\n    tag_114:\n      0x20\n      mload(0x40)\n      dup1\n      dup4\n      sub\n      dup2\n      0x00\n      dup8\n      gas\n      call\n      iszero\n      dup1\n      iszero\n      tag_117\n      jumpi\n      returndatasize\n      0x00\n      dup1\n      returndatacopy\n      revert(0x00, returndatasize)\n    tag_117:\n      pop\n      pop\n      pop\n      pop\n      mload(0x40)\n      returndatasize\n      not(0x1f)\n      0x1f\n      dup3\n      add\n      and\n      dup3\n      add\n      dup1\n      0x40\n      mstore\n      pop\n      dup2\n      add\n      swap1\n      tag_118\n      swap2\n      swap1\n      tag_119\n      jump\t// in\n    tag_118:\n        /* \"contracts/jarsSpinWheel/jarsSpinTheWheel.sol\":7123:7167  bool ok = clubToken.transfer(winner, amount) */\n      swap1\n      pop\n        /* \"contracts/jarsSpinWheel/jarsSpinTheWheel.sol\":7187:7189  ok */\n      dup1\n        /* \"contracts/jarsSpinWheel/jarsSpinTheWheel.sol\":7182:7214  if (!ok) revert TransferFailed() */\n      tag_120\n      jumpi\n        /* \"contracts/jarsSpinWheel/jarsSpinTheWheel.sol\":7198:7214  TransferFailed() */\n      mload(0x40)\n      0x90b8ec1800000000000000000000000000000000000000000000000000000000\n      dup2\n      mstore\n      0x04\n      add\n      mload(0x40)\n      dup1\n      swap2\n      sub\n      swap1\n      revert\n        /* \"contracts/jarsSpinWheel/jarsSpinTheWheel.sol\":7182:7214  if (!ok) revert TransferFailed() */\n    tag_120:\n        /* \"contracts/jarsSpinWheel/jarsSpinTheWheel.sol\":7259:7265  winner */\n      dup3\n        /* \"contracts/jarsSpinWheel/jarsSpinTheWheel.sol\":7236:7274  RewardPaid(msg.sender, winner, amount) */\n      0xffffffffffffffffffffffffffffffffffffffff\n      and\n        /* \"contracts/jarsSpinWheel/jarsSpinTheWheel.sol\":7247:7257  msg.sender */\n      caller\n        /* \"contracts/jarsSpinWheel/jarsSpinTheWheel.sol\":7236:7274  RewardPaid(msg.sender, winner, amount) */\n      0xffffffffffffffffffffffffffffffffffffffff\n      and\n      0x540798df468d7b23d11f156fdb954cb19ad414d150722a7b6d55ba369dea792e\n        /* \"contracts/jarsSpinWheel/jarsSpinTheWheel.sol\":7267:7273  amount */\n      dup5\n        /* \"contracts/jarsSpinWheel/jarsSpinTheWheel.sol\":7236:7274  RewardPaid(msg.sender, winner, amount) */\n      mload(0x40)\n      tag_121\n      swap2\n      swap1\n      tag_38\n      jump\t// in\n    tag_121:\n      mload(0x40)\n      dup1\n      swap2\n      sub\n      swap1\n      log3\n        /* \"contracts/jarsSpinWheel/jarsSpinTheWheel.sol\":6863:7286  {... */\n      pop\n      pop\n      pop\n        /* \"contracts/jarsSpinWheel/jarsSpinTheWheel.sol\":6858:6861  i++ */\n      dup1\n      dup1\n      0x01\n      add\n      swap2\n      pop\n      pop\n        /* \"contracts/jarsSpinWheel/jarsSpinTheWheel.sol\":6826:7286  for (uint256 i = 0; i < length; i++) {... */\n      jump(tag_98)\n    tag_99:\n      pop\n        /* \"contracts/jarsSpinWheel/jarsSpinTheWheel.sol\":6708:7293  {... */\n      pop\n        /* \"contracts/jarsSpinWheel/jarsSpinTheWheel.sol\":6607:7293  function rewardWinners(address[] calldata winners, uint256[] calldata amounts) external onlyOperator {... */\n      pop\n      pop\n      pop\n      pop\n      jump\t// out\n        /* \"contracts/jarsSpinWheel/jarsSpinTheWheel.sol\":8724:8942  function balanceOfWhitelistedNFT(address wallet, address nft) external view returns (uint256) {... */\n    tag_36:\n        /* \"contracts/jarsSpinWheel/jarsSpinTheWheel.sol\":8809:8816  uint256 */\n      0x00\n        /* \"contracts/jarsSpinWheel/jarsSpinTheWheel.sol\":8834:8849  whitelistedNFTs */\n      0x02\n        /* \"contracts/jarsSpinWheel/jarsSpinTheWheel.sol\":8834:8854  whitelistedNFTs[nft] */\n      0x00\n        /* \"contracts/jarsSpinWheel/jarsSpinTheWheel.sol\":8850:8853  nft */\n      dup4\n        /* \"contracts/jarsSpinWheel/jarsSpinTheWheel.sol\":8834:8854  whitelistedNFTs[nft] */\n      0xffffffffffffffffffffffffffffffffffffffff\n      and\n      0xffffffffffffffffffffffffffffffffffffffff\n      and\n      dup2\n      mstore\n      0x20\n      add\n      swap1\n      dup2\n      mstore\n      0x20\n      add\n      0x00\n      keccak256\n      0x00\n      swap1\n      sload\n      swap1\n      0x0100\n      exp\n      swap1\n      div\n      0xff\n      and\n        /* \"contracts/jarsSpinWheel/jarsSpinTheWheel.sol\":8829:8882  if (!whitelistedNFTs[nft]) revert NFTNotWhitelisted() */\n      tag_123\n      jumpi\n        /* \"contracts/jarsSpinWheel/jarsSpinTheWheel.sol\":8863:8882  NFTNotWhitelisted() */\n      mload(0x40)\n      0xe4fad98200000000000000000000000000000000000000000000000000000000\n      dup2\n      mstore\n      0x04\n      add\n      mload(0x40)\n      dup1\n      swap2\n      sub\n      swap1\n      revert\n        /* \"contracts/jarsSpinWheel/jarsSpinTheWheel.sol\":8829:8882  if (!whitelistedNFTs[nft]) revert NFTNotWhitelisted() */\n    tag_123:\n        /* \"contracts/jarsSpinWheel/jarsSpinTheWheel.sol\":8912:8915  nft */\n      dup2\n        /* \"contracts/jarsSpinWheel/jarsSpinTheWheel.sol\":8900:8926  IERC721Like(nft).balanceOf */\n      0xffffffffffffffffffffffffffffffffffffffff\n      and\n      0x70a08231\n        /* \"contracts/jarsSpinWheel/jarsSpinTheWheel.sol\":8927:8933  wallet */\n      dup5\n        /* \"contracts/jarsSpinWheel/jarsSpinTheWheel.sol\":8900:8934  IERC721Like(nft).balanceOf(wallet) */\n      mload(0x40)\n      dup3\n      0xffffffff\n      and\n      0xe0\n      shl\n      dup2\n      mstore\n      0x04\n      add\n      tag_124\n      swap2\n      swap1\n      tag_44\n      jump\t// in\n    tag_124:\n      0x20\n      mload(0x40)\n      dup1\n      dup4\n      sub\n      dup2\n      dup7\n      gas\n      staticcall\n      iszero\n      dup1\n      iszero\n      tag_126\n      jumpi\n      returndatasize\n      0x00\n      dup1\n      returndatacopy\n      revert(0x00, returndatasize)\n    tag_126:\n      pop\n      pop\n      pop\n      pop\n      mload(0x40)\n      returndatasize\n      not(0x1f)\n      0x1f\n      dup3\n      add\n      and\n      dup3\n      add\n      dup1\n      0x40\n      mstore\n      pop\n      dup2\n      add\n      swap1\n      tag_127\n      swap2\n      swap1\n      tag_112\n      jump\t// in\n    tag_127:\n        /* \"contracts/jarsSpinWheel/jarsSpinTheWheel.sol\":8893:8934  return IERC721Like(nft).balanceOf(wallet) */\n      swap1\n      pop\n        /* \"contracts/jarsSpinWheel/jarsSpinTheWheel.sol\":8724:8942  function balanceOfWhitelistedNFT(address wallet, address nft) external view returns (uint256) {... */\n      swap3\n      swap2\n      pop\n      pop\n      jump\t// out\n        /* \"contracts/jarsSpinWheel/jarsSpinTheWheel.sol\":4488:4523  address[] public whitelistedNFTList */\n    tag_42:\n      0x03\n      dup2\n      dup2\n      sload\n      dup2\n      lt\n      tag_128\n      jumpi\n      0x00\n      dup1\n      revert\n    tag_128:\n      swap1\n      0x00\n      mstore\n      keccak256(0x00, 0x20)\n      add\n      0x00\n      swap2\n      pop\n      sload\n      swap1\n      0x0100\n      exp\n      swap1\n      div\n      0xffffffffffffffffffffffffffffffffffffffff\n      and\n      dup2\n      jump\t// out\n        /* \"contracts/jarsSpinWheel/jarsSpinTheWheel.sol\":9588:9703  function clubBalance() external view returns (uint256) {... */\n    tag_46:\n        /* \"contracts/jarsSpinWheel/jarsSpinTheWheel.sol\":9634:9641  uint256 */\n      0x00\n        /* \"contracts/jarsSpinWheel/jarsSpinTheWheel.sol\":9661:9670  clubToken */\n      immutable(\"0xcfe93e00cbaaf37bad5f0b2ff3ab98072b4f3a2656e148b3bcccb553f2fa678f\")\n        /* \"contracts/jarsSpinWheel/jarsSpinTheWheel.sol\":9661:9680  clubToken.balanceOf */\n      0xffffffffffffffffffffffffffffffffffffffff\n      and\n      0x70a08231\n        /* \"contracts/jarsSpinWheel/jarsSpinTheWheel.sol\":9689:9693  this */\n      address\n        /* \"contracts/jarsSpinWheel/jarsSpinTheWheel.sol\":9661:9695  clubToken.balanceOf(address(this)) */\n      mload(0x40)\n      dup3\n      0xffffffff\n      and\n      0xe0\n      shl\n      dup2\n      mstore\n      0x04\n      add\n      tag_131\n      swap2\n      swap1\n      tag_44\n      jump\t// in\n    tag_131:\n      0x20\n      mload(0x40)\n      dup1\n      dup4\n      sub\n      dup2\n      dup7\n      gas\n      staticcall\n      iszero\n      dup1\n      iszero\n      tag_133\n      jumpi\n      returndatasize\n      0x00\n      dup1\n      returndatacopy\n      revert(0x00, returndatasize)\n    tag_133:\n      pop\n      pop\n      pop\n      pop\n      mload(0x40)\n      returndatasize\n      not(0x1f)\n      0x1f\n      dup3\n      add\n      and\n      dup3\n      add\n      dup1\n      0x40\n      mstore\n      pop\n      dup2\n      add\n      swap1\n      tag_134\n      swap2\n      swap1\n      tag_112\n      jump\t// in\n    tag_134:\n        /* \"contracts/jarsSpinWheel/jarsSpinTheWheel.sol\":9654:9695  return clubToken.balanceOf(address(this)) */\n      swap1\n      pop\n        /* \"contracts/jarsSpinWheel/jarsSpinTheWheel.sol\":9588:9703  function clubBalance() external view returns (uint256) {... */\n      swap1\n      jump\t// out\n        /* \"contracts/jarsSpinWheel/jarsSpinTheWheel.sol\":4434:4481  mapping(address => bool) public whitelistedNFTs */\n    tag_50:\n      mstore(0x20, 0x02)\n      dup1\n      0x00\n      mstore\n      keccak256(0x00, 0x40)\n      0x00\n      swap2\n      pop\n      sload\n      swap1\n      0x0100\n      exp\n      swap1\n      div\n      0xff\n      and\n      dup2\n      jump\t// out\n        /* \"contracts/jarsSpinWheel/jarsSpinTheWheel.sol\":5255:5484  function setOperator(address operator, bool allowed) external onlyOwner {... */\n    tag_55:\n        /* \"contracts/jarsSpinWheel/jarsSpinTheWheel.sol\":3660:3666  _owner */\n      0x00\n      dup1\n      sload\n      swap1\n      0x0100\n      exp\n      swap1\n      div\n      0xffffffffffffffffffffffffffffffffffffffff\n      and\n        /* \"contracts/jarsSpinWheel/jarsSpinTheWheel.sol\":3646:3666  msg.sender != _owner */\n      0xffffffffffffffffffffffffffffffffffffffff\n      and\n        /* \"contracts/jarsSpinWheel/jarsSpinTheWheel.sol\":3646:3656  msg.sender */\n      caller\n        /* \"contracts/jarsSpinWheel/jarsSpinTheWheel.sol\":3646:3666  msg.sender != _owner */\n      0xffffffffffffffffffffffffffffffffffffffff\n      and\n      eq\n        /* \"contracts/jarsSpinWheel/jarsSpinTheWheel.sol\":3642:3713  if (msg.sender != _owner) revert OwnableUnauthorizedAccount(msg.sender) */\n      tag_136\n      jumpi\n        /* \"contracts/jarsSpinWheel/jarsSpinTheWheel.sol\":3702:3712  msg.sender */\n      caller\n        /* \"contracts/jarsSpinWheel/jarsSpinTheWheel.sol\":3675:3713  OwnableUnauthorizedAccount(msg.sender) */\n      mload(0x40)\n      0x118cdaa700000000000000000000000000000000000000000000000000000000\n      dup2\n      mstore\n      0x04\n      add\n      tag_137\n      swap2\n      swap1\n      tag_44\n      jump\t// in\n    tag_137:\n      mload(0x40)\n      dup1\n      swap2\n      sub\n      swap1\n      revert\n        /* \"contracts/jarsSpinWheel/jarsSpinTheWheel.sol\":3642:3713  if (msg.sender != _owner) revert OwnableUnauthorizedAccount(msg.sender) */\n    tag_136:\n        /* \"contracts/jarsSpinWheel/jarsSpinTheWheel.sol\":5362:5363  0 */\n      0x00\n        /* \"contracts/jarsSpinWheel/jarsSpinTheWheel.sol\":5342:5364  operator == address(0) */\n      0xffffffffffffffffffffffffffffffffffffffff\n      and\n        /* \"contracts/jarsSpinWheel/jarsSpinTheWheel.sol\":5342:5350  operator */\n      dup3\n        /* \"contracts/jarsSpinWheel/jarsSpinTheWheel.sol\":5342:5364  operator == address(0) */\n      0xffffffffffffffffffffffffffffffffffffffff\n      and\n      sub\n        /* \"contracts/jarsSpinWheel/jarsSpinTheWheel.sol\":5338:5386  if (operator == address(0)) revert ZeroAddress() */\n      tag_139\n      jumpi\n        /* \"contracts/jarsSpinWheel/jarsSpinTheWheel.sol\":5373:5386  ZeroAddress() */\n      mload(0x40)\n      0xd92e233d00000000000000000000000000000000000000000000000000000000\n      dup2\n      mstore\n      0x04\n      add\n      mload(0x40)\n      dup1\n      swap2\n      sub\n      swap1\n      revert\n        /* \"contracts/jarsSpinWheel/jarsSpinTheWheel.sol\":5338:5386  if (operator == address(0)) revert ZeroAddress() */\n    tag_139:\n        /* \"contracts/jarsSpinWheel/jarsSpinTheWheel.sol\":5419:5426  allowed */\n      dup1\n        /* \"contracts/jarsSpinWheel/jarsSpinTheWheel.sol\":5397:5406  operators */\n      0x01\n        /* \"contracts/jarsSpinWheel/jarsSpinTheWheel.sol\":5397:5416  operators[operator] */\n      0x00\n        /* \"contracts/jarsSpinWheel/jarsSpinTheWheel.sol\":5407:5415  operator */\n      dup5\n        /* \"contracts/jarsSpinWheel/jarsSpinTheWheel.sol\":5397:5416  operators[operator] */\n      0xffffffffffffffffffffffffffffffffffffffff\n      and\n      0xffffffffffffffffffffffffffffffffffffffff\n      and\n      dup2\n      mstore\n      0x20\n      add\n      swap1\n      dup2\n      mstore\n      0x20\n      add\n      0x00\n      keccak256\n      0x00\n        /* \"contracts/jarsSpinWheel/jarsSpinTheWheel.sol\":5397:5426  operators[operator] = allowed */\n      0x0100\n      exp\n      dup2\n      sload\n      dup2\n      0xff\n      mul\n      not\n      and\n      swap1\n      dup4\n      iszero\n      iszero\n      mul\n      or\n      swap1\n      sstore\n      pop\n        /* \"contracts/jarsSpinWheel/jarsSpinTheWheel.sol\":5458:5466  operator */\n      dup2\n        /* \"contracts/jarsSpinWheel/jarsSpinTheWheel.sol\":5442:5476  OperatorUpdated(operator, allowed) */\n      0xffffffffffffffffffffffffffffffffffffffff\n      and\n      0x966c160e1c4dbc7df8d69af4ace01e9297c3cf016397b7914971f2fbfa32672d\n        /* \"contracts/jarsSpinWheel/jarsSpinTheWheel.sol\":5468:5475  allowed */\n      dup3\n        /* \"contracts/jarsSpinWheel/jarsSpinTheWheel.sol\":5442:5476  OperatorUpdated(operator, allowed) */\n      mload(0x40)\n      tag_140\n      swap2\n      swap1\n      tag_28\n      jump\t// in\n    tag_140:\n      mload(0x40)\n      dup1\n      swap2\n      sub\n      swap1\n      log2\n        /* \"contracts/jarsSpinWheel/jarsSpinTheWheel.sol\":5255:5484  function setOperator(address operator, bool allowed) external onlyOwner {... */\n      pop\n      pop\n      jump\t// out\n        /* \"contracts/jarsSpinWheel/jarsSpinTheWheel.sol\":6134:6523  function rewardWinner(address winner, uint256 amount) external onlyOperator {... */\n    tag_59:\n        /* \"contracts/jarsSpinWheel/jarsSpinTheWheel.sol\":4855:4864  operators */\n      0x01\n        /* \"contracts/jarsSpinWheel/jarsSpinTheWheel.sol\":4855:4876  operators[msg.sender] */\n      0x00\n        /* \"contracts/jarsSpinWheel/jarsSpinTheWheel.sol\":4865:4875  msg.sender */\n      caller\n        /* \"contracts/jarsSpinWheel/jarsSpinTheWheel.sol\":4855:4876  operators[msg.sender] */\n      0xffffffffffffffffffffffffffffffffffffffff\n      and\n      0xffffffffffffffffffffffffffffffffffffffff\n      and\n      dup2\n      mstore\n      0x20\n      add\n      swap1\n      dup2\n      mstore\n      0x20\n      add\n      0x00\n      keccak256\n      0x00\n      swap1\n      sload\n      swap1\n      0x0100\n      exp\n      swap1\n      div\n      0xff\n      and\n        /* \"contracts/jarsSpinWheel/jarsSpinTheWheel.sol\":4854:4876  !operators[msg.sender] */\n      iszero\n        /* \"contracts/jarsSpinWheel/jarsSpinTheWheel.sol\":4854:4901  !operators[msg.sender] && msg.sender != owner() */\n      dup1\n      iszero\n      tag_142\n      jumpi\n      pop\n        /* \"contracts/jarsSpinWheel/jarsSpinTheWheel.sol\":4894:4901  owner() */\n      tag_143\n        /* \"contracts/jarsSpinWheel/jarsSpinTheWheel.sol\":4894:4899  owner */\n      tag_68\n        /* \"contracts/jarsSpinWheel/jarsSpinTheWheel.sol\":4894:4901  owner() */\n      jump\t// in\n    tag_143:\n        /* \"contracts/jarsSpinWheel/jarsSpinTheWheel.sol\":4880:4901  msg.sender != owner() */\n      0xffffffffffffffffffffffffffffffffffffffff\n      and\n        /* \"contracts/jarsSpinWheel/jarsSpinTheWheel.sol\":4880:4890  msg.sender */\n      caller\n        /* \"contracts/jarsSpinWheel/jarsSpinTheWheel.sol\":4880:4901  msg.sender != owner() */\n      0xffffffffffffffffffffffffffffffffffffffff\n      and\n      eq\n      iszero\n        /* \"contracts/jarsSpinWheel/jarsSpinTheWheel.sol\":4854:4901  !operators[msg.sender] && msg.sender != owner() */\n    tag_142:\n        /* \"contracts/jarsSpinWheel/jarsSpinTheWheel.sol\":4850:4923  if (!operators[msg.sender] && msg.sender != owner()) revert NotOperator() */\n      iszero\n      tag_144\n      jumpi\n        /* \"contracts/jarsSpinWheel/jarsSpinTheWheel.sol\":4910:4923  NotOperator() */\n      mload(0x40)\n      0x7c214f0400000000000000000000000000000000000000000000000000000000\n      dup2\n      mstore\n      0x04\n      add\n      mload(0x40)\n      dup1\n      swap2\n      sub\n      swap1\n      revert\n        /* \"contracts/jarsSpinWheel/jarsSpinTheWheel.sol\":4850:4923  if (!operators[msg.sender] && msg.sender != owner()) revert NotOperator() */\n    tag_144:\n        /* \"contracts/jarsSpinWheel/jarsSpinTheWheel.sol\":6243:6244  0 */\n      0x00\n        /* \"contracts/jarsSpinWheel/jarsSpinTheWheel.sol\":6225:6245  winner == address(0) */\n      0xffffffffffffffffffffffffffffffffffffffff\n      and\n        /* \"contracts/jarsSpinWheel/jarsSpinTheWheel.sol\":6225:6231  winner */\n      dup3\n        /* \"contracts/jarsSpinWheel/jarsSpinTheWheel.sol\":6225:6245  winner == address(0) */\n      0xffffffffffffffffffffffffffffffffffffffff\n      and\n      sub\n        /* \"contracts/jarsSpinWheel/jarsSpinTheWheel.sol\":6221:6267  if (winner == address(0)) revert ZeroAddress() */\n      tag_146\n      jumpi\n        /* \"contracts/jarsSpinWheel/jarsSpinTheWheel.sol\":6254:6267  ZeroAddress() */\n      mload(0x40)\n      0xd92e233d00000000000000000000000000000000000000000000000000000000\n      dup2\n      mstore\n      0x04\n      add\n      mload(0x40)\n      dup1\n      swap2\n      sub\n      swap1\n      revert\n        /* \"contracts/jarsSpinWheel/jarsSpinTheWheel.sol\":6221:6267  if (winner == address(0)) revert ZeroAddress() */\n    tag_146:\n        /* \"contracts/jarsSpinWheel/jarsSpinTheWheel.sol\":6319:6325  amount */\n      dup1\n        /* \"contracts/jarsSpinWheel/jarsSpinTheWheel.sol\":6282:6291  clubToken */\n      immutable(\"0xcfe93e00cbaaf37bad5f0b2ff3ab98072b4f3a2656e148b3bcccb553f2fa678f\")\n        /* \"contracts/jarsSpinWheel/jarsSpinTheWheel.sol\":6282:6301  clubToken.balanceOf */\n      0xffffffffffffffffffffffffffffffffffffffff\n      and\n      0x70a08231\n        /* \"contracts/jarsSpinWheel/jarsSpinTheWheel.sol\":6310:6314  this */\n      address\n        /* \"contracts/jarsSpinWheel/jarsSpinTheWheel.sol\":6282:6316  clubToken.balanceOf(address(this)) */\n      mload(0x40)\n      dup3\n      0xffffffff\n      and\n      0xe0\n      shl\n      dup2\n      mstore\n      0x04\n      add\n      tag_147\n      swap2\n      swap1\n      tag_44\n      jump\t// in\n    tag_147:\n      0x20\n      mload(0x40)\n      dup1\n      dup4\n      sub\n      dup2\n      dup7\n      gas\n      staticcall\n      iszero\n      dup1\n      iszero\n      tag_149\n      jumpi\n      returndatasize\n      0x00\n      dup1\n      returndatacopy\n      revert(0x00, returndatasize)\n    tag_149:\n      pop\n      pop\n      pop\n      pop\n      mload(0x40)\n      returndatasize\n      not(0x1f)\n      0x1f\n      dup3\n      add\n      and\n      dup3\n      add\n      dup1\n      0x40\n      mstore\n      pop\n      dup2\n      add\n      swap1\n      tag_150\n      swap2\n      swap1\n      tag_112\n      jump\t// in\n    tag_150:\n        /* \"contracts/jarsSpinWheel/jarsSpinTheWheel.sol\":6282:6325  clubToken.balanceOf(address(this)) < amount */\n      lt\n        /* \"contracts/jarsSpinWheel/jarsSpinTheWheel.sol\":6278:6359  if (clubToken.balanceOf(address(this)) < amount) revert InsufficientClubBalance() */\n      iszero\n      tag_151\n      jumpi\n        /* \"contracts/jarsSpinWheel/jarsSpinTheWheel.sol\":6334:6359  InsufficientClubBalance() */\n      mload(0x40)\n      0xcd85a9b600000000000000000000000000000000000000000000000000000000\n      dup2\n      mstore\n      0x04\n      add\n      mload(0x40)\n      dup1\n      swap2\n      sub\n      swap1\n      revert\n        /* \"contracts/jarsSpinWheel/jarsSpinTheWheel.sol\":6278:6359  if (clubToken.balanceOf(address(this)) < amount) revert InsufficientClubBalance() */\n    tag_151:\n        /* \"contracts/jarsSpinWheel/jarsSpinTheWheel.sol\":6372:6379  bool ok */\n      0x00\n        /* \"contracts/jarsSpinWheel/jarsSpinTheWheel.sol\":6382:6391  clubToken */\n      immutable(\"0xcfe93e00cbaaf37bad5f0b2ff3ab98072b4f3a2656e148b3bcccb553f2fa678f\")\n        /* \"contracts/jarsSpinWheel/jarsSpinTheWheel.sol\":6382:6400  clubToken.transfer */\n      0xffffffffffffffffffffffffffffffffffffffff\n      and\n      0xa9059cbb\n        /* \"contracts/jarsSpinWheel/jarsSpinTheWheel.sol\":6401:6407  winner */\n      dup5\n        /* \"contracts/jarsSpinWheel/jarsSpinTheWheel.sol\":6409:6415  amount */\n      dup5\n        /* \"contracts/jarsSpinWheel/jarsSpinTheWheel.sol\":6382:6416  clubToken.transfer(winner, amount) */\n      mload(0x40)\n      dup4\n      0xffffffff\n      and\n      0xe0\n      shl\n      dup2\n      mstore\n      0x04\n      add\n      tag_152\n      swap3\n      swap2\n      swap1\n      tag_115\n      jump\t// in\n    tag_152:\n      0x20\n      mload(0x40)\n      dup1\n      dup4\n      sub\n      dup2\n      0x00\n      dup8\n      gas\n      call\n      iszero\n      dup1\n      iszero\n      tag_154\n      jumpi\n      returndatasize\n      0x00\n      dup1\n      returndatacopy\n      revert(0x00, returndatasize)\n    tag_154:\n      pop\n      pop\n      pop\n      pop\n      mload(0x40)\n      returndatasize\n      not(0x1f)\n      0x1f\n      dup3\n      add\n      and\n      dup3\n      add\n      dup1\n      0x40\n      mstore\n      pop\n      dup2\n      add\n      swap1\n      tag_155\n      swap2\n      swap1\n      tag_119\n      jump\t// in\n    tag_155:\n        /* \"contracts/jarsSpinWheel/jarsSpinTheWheel.sol\":6372:6416  bool ok = clubToken.transfer(winner, amount) */\n      swap1\n      pop\n        /* \"contracts/jarsSpinWheel/jarsSpinTheWheel.sol\":6432:6434  ok */\n      dup1\n        /* \"contracts/jarsSpinWheel/jarsSpinTheWheel.sol\":6427:6459  if (!ok) revert TransferFailed() */\n      tag_156\n      jumpi\n        /* \"contracts/jarsSpinWheel/jarsSpinTheWheel.sol\":6443:6459  TransferFailed() */\n      mload(0x40)\n      0x90b8ec1800000000000000000000000000000000000000000000000000000000\n      dup2\n      mstore\n      0x04\n      add\n      mload(0x40)\n      dup1\n      swap2\n      sub\n      swap1\n      revert\n        /* \"contracts/jarsSpinWheel/jarsSpinTheWheel.sol\":6427:6459  if (!ok) revert TransferFailed() */\n    tag_156:\n        /* \"contracts/jarsSpinWheel/jarsSpinTheWheel.sol\":6500:6506  winner */\n      dup3\n        /* \"contracts/jarsSpinWheel/jarsSpinTheWheel.sol\":6477:6515  RewardPaid(msg.sender, winner, amount) */\n      0xffffffffffffffffffffffffffffffffffffffff\n      and\n        /* \"contracts/jarsSpinWheel/jarsSpinTheWheel.sol\":6488:6498  msg.sender */\n      caller\n        /* \"contracts/jarsSpinWheel/jarsSpinTheWheel.sol\":6477:6515  RewardPaid(msg.sender, winner, amount) */\n      0xffffffffffffffffffffffffffffffffffffffff\n      and\n      0x540798df468d7b23d11f156fdb954cb19ad414d150722a7b6d55ba369dea792e\n        /* \"contracts/jarsSpinWheel/jarsSpinTheWheel.sol\":6508:6514  amount */\n      dup5\n        /* \"contracts/jarsSpinWheel/jarsSpinTheWheel.sol\":6477:6515  RewardPaid(msg.sender, winner, amount) */\n      mload(0x40)\n      tag_157\n      swap2\n      swap1\n      tag_38\n      jump\t// in\n    tag_157:\n      mload(0x40)\n      dup1\n      swap2\n      sub\n      swap1\n      log3\n        /* \"contracts/jarsSpinWheel/jarsSpinTheWheel.sol\":6210:6523  {... */\n      pop\n        /* \"contracts/jarsSpinWheel/jarsSpinTheWheel.sol\":6134:6523  function rewardWinner(address winner, uint256 amount) external onlyOperator {... */\n      pop\n      pop\n      jump\t// out\n        /* \"contracts/jarsSpinWheel/jarsSpinTheWheel.sol\":5492:5904  function setWhitelistedNFT(address nft, bool allowed) external onlyOwner {... */\n    tag_62:\n        /* \"contracts/jarsSpinWheel/jarsSpinTheWheel.sol\":3660:3666  _owner */\n      0x00\n      dup1\n      sload\n      swap1\n      0x0100\n      exp\n      swap1\n      div\n      0xffffffffffffffffffffffffffffffffffffffff\n      and\n        /* \"contracts/jarsSpinWheel/jarsSpinTheWheel.sol\":3646:3666  msg.sender != _owner */\n      0xffffffffffffffffffffffffffffffffffffffff\n      and\n        /* \"contracts/jarsSpinWheel/jarsSpinTheWheel.sol\":3646:3656  msg.sender */\n      caller\n        /* \"contracts/jarsSpinWheel/jarsSpinTheWheel.sol\":3646:3666  msg.sender != _owner */\n      0xffffffffffffffffffffffffffffffffffffffff\n      and\n      eq\n        /* \"contracts/jarsSpinWheel/jarsSpinTheWheel.sol\":3642:3713  if (msg.sender != _owner) revert OwnableUnauthorizedAccount(msg.sender) */\n      tag_159\n      jumpi\n        /* \"contracts/jarsSpinWheel/jarsSpinTheWheel.sol\":3702:3712  msg.sender */\n      caller\n        /* \"contracts/jarsSpinWheel/jarsSpinTheWheel.sol\":3675:3713  OwnableUnauthorizedAccount(msg.sender) */\n      mload(0x40)\n      0x118cdaa700000000000000000000000000000000000000000000000000000000\n      dup2\n      mstore\n      0x04\n      add\n      tag_160\n      swap2\n      swap1\n      tag_44\n      jump\t// in\n    tag_160:\n      mload(0x40)\n      dup1\n      swap2\n      sub\n      swap1\n      revert\n        /* \"contracts/jarsSpinWheel/jarsSpinTheWheel.sol\":3642:3713  if (msg.sender != _owner) revert OwnableUnauthorizedAccount(msg.sender) */\n    tag_159:\n        /* \"contracts/jarsSpinWheel/jarsSpinTheWheel.sol\":5595:5596  0 */\n      0x00\n        /* \"contracts/jarsSpinWheel/jarsSpinTheWheel.sol\":5580:5597  nft == address(0) */\n      0xffffffffffffffffffffffffffffffffffffffff\n      and\n        /* \"contracts/jarsSpinWheel/jarsSpinTheWheel.sol\":5580:5583  nft */\n      dup3\n        /* \"contracts/jarsSpinWheel/jarsSpinTheWheel.sol\":5580:5597  nft == address(0) */\n      0xffffffffffffffffffffffffffffffffffffffff\n      and\n      sub\n        /* \"contracts/jarsSpinWheel/jarsSpinTheWheel.sol\":5576:5619  if (nft == address(0)) revert ZeroAddress() */\n      tag_162\n      jumpi\n        /* \"contracts/jarsSpinWheel/jarsSpinTheWheel.sol\":5606:5619  ZeroAddress() */\n      mload(0x40)\n      0xd92e233d00000000000000000000000000000000000000000000000000000000\n      dup2\n      mstore\n      0x04\n      add\n      mload(0x40)\n      dup1\n      swap2\n      sub\n      swap1\n      revert\n        /* \"contracts/jarsSpinWheel/jarsSpinTheWheel.sol\":5576:5619  if (nft == address(0)) revert ZeroAddress() */\n    tag_162:\n        /* \"contracts/jarsSpinWheel/jarsSpinTheWheel.sol\":5632:5644  bool already */\n      0x00\n        /* \"contracts/jarsSpinWheel/jarsSpinTheWheel.sol\":5647:5662  whitelistedNFTs */\n      0x02\n        /* \"contracts/jarsSpinWheel/jarsSpinTheWheel.sol\":5647:5667  whitelistedNFTs[nft] */\n      0x00\n        /* \"contracts/jarsSpinWheel/jarsSpinTheWheel.sol\":5663:5666  nft */\n      dup5\n        /* \"contracts/jarsSpinWheel/jarsSpinTheWheel.sol\":5647:5667  whitelistedNFTs[nft] */\n      0xffffffffffffffffffffffffffffffffffffffff\n      and\n      0xffffffffffffffffffffffffffffffffffffffff\n      and\n      dup2\n      mstore\n      0x20\n      add\n      swap1\n      dup2\n      mstore\n      0x20\n      add\n      0x00\n      keccak256\n      0x00\n      swap1\n      sload\n      swap1\n      0x0100\n      exp\n      swap1\n      div\n      0xff\n      and\n        /* \"contracts/jarsSpinWheel/jarsSpinTheWheel.sol\":5632:5667  bool already = whitelistedNFTs[nft] */\n      swap1\n      pop\n        /* \"contracts/jarsSpinWheel/jarsSpinTheWheel.sol\":5701:5708  allowed */\n      dup2\n        /* \"contracts/jarsSpinWheel/jarsSpinTheWheel.sol\":5678:5693  whitelistedNFTs */\n      0x02\n        /* \"contracts/jarsSpinWheel/jarsSpinTheWheel.sol\":5678:5698  whitelistedNFTs[nft] */\n      0x00\n        /* \"contracts/jarsSpinWheel/jarsSpinTheWheel.sol\":5694:5697  nft */\n      dup6\n        /* \"contracts/jarsSpinWheel/jarsSpinTheWheel.sol\":5678:5698  whitelistedNFTs[nft] */\n      0xffffffffffffffffffffffffffffffffffffffff\n      and\n      0xffffffffffffffffffffffffffffffffffffffff\n      and\n      dup2\n      mstore\n      0x20\n      add\n      swap1\n      dup2\n      mstore\n      0x20\n      add\n      0x00\n      keccak256\n      0x00\n        /* \"contracts/jarsSpinWheel/jarsSpinTheWheel.sol\":5678:5708  whitelistedNFTs[nft] = allowed */\n      0x0100\n      exp\n      dup2\n      sload\n      dup2\n      0xff\n      mul\n      not\n      and\n      swap1\n      dup4\n      iszero\n      iszero\n      mul\n      or\n      swap1\n      sstore\n      pop\n        /* \"contracts/jarsSpinWheel/jarsSpinTheWheel.sol\":5775:5782  allowed */\n      dup2\n        /* \"contracts/jarsSpinWheel/jarsSpinTheWheel.sol\":5775:5794  allowed && !already */\n      dup1\n      iszero\n      tag_163\n      jumpi\n      pop\n        /* \"contracts/jarsSpinWheel/jarsSpinTheWheel.sol\":5787:5794  already */\n      dup1\n        /* \"contracts/jarsSpinWheel/jarsSpinTheWheel.sol\":5786:5794  !already */\n      iszero\n        /* \"contracts/jarsSpinWheel/jarsSpinTheWheel.sol\":5775:5794  allowed && !already */\n    tag_163:\n        /* \"contracts/jarsSpinWheel/jarsSpinTheWheel.sol\":5771:5851  if (allowed && !already) {... */\n      iszero\n      tag_164\n      jumpi\n        /* \"contracts/jarsSpinWheel/jarsSpinTheWheel.sol\":5811:5829  whitelistedNFTList */\n      0x03\n        /* \"contracts/jarsSpinWheel/jarsSpinTheWheel.sol\":5835:5838  nft */\n      dup4\n        /* \"contracts/jarsSpinWheel/jarsSpinTheWheel.sol\":5811:5839  whitelistedNFTList.push(nft) */\n      swap1\n      dup1\n      0x01\n      dup2\n      sload\n      add\n      dup1\n      dup3\n      sstore\n      dup1\n      swap2\n      pop\n      pop\n      0x01\n      swap1\n      sub\n      swap1\n      0x00\n      mstore\n      keccak256(0x00, 0x20)\n      add\n      0x00\n      swap1\n      swap2\n      swap1\n      swap2\n      swap1\n      swap2\n      0x0100\n      exp\n      dup2\n      sload\n      dup2\n      0xffffffffffffffffffffffffffffffffffffffff\n      mul\n      not\n      and\n      swap1\n      dup4\n      0xffffffffffffffffffffffffffffffffffffffff\n      and\n      mul\n      or\n      swap1\n      sstore\n      pop\n        /* \"contracts/jarsSpinWheel/jarsSpinTheWheel.sol\":5771:5851  if (allowed && !already) {... */\n    tag_164:\n        /* \"contracts/jarsSpinWheel/jarsSpinTheWheel.sol\":5883:5886  nft */\n      dup3\n        /* \"contracts/jarsSpinWheel/jarsSpinTheWheel.sol\":5868:5896  NFTWhitelisted(nft, allowed) */\n      0xffffffffffffffffffffffffffffffffffffffff\n      and\n      0x2c10bc6cefab6fd0600dcb515a58acd082099f239822a057da90233e9c4f48c5\n        /* \"contracts/jarsSpinWheel/jarsSpinTheWheel.sol\":5888:5895  allowed */\n      dup4\n        /* \"contracts/jarsSpinWheel/jarsSpinTheWheel.sol\":5868:5896  NFTWhitelisted(nft, allowed) */\n      mload(0x40)\n      tag_166\n      swap2\n      swap1\n      tag_28\n      jump\t// in\n    tag_166:\n      mload(0x40)\n      dup1\n      swap2\n      sub\n      swap1\n      log2\n        /* \"contracts/jarsSpinWheel/jarsSpinTheWheel.sol\":5565:5904  {... */\n      pop\n        /* \"contracts/jarsSpinWheel/jarsSpinTheWheel.sol\":5492:5904  function setWhitelistedNFT(address nft, bool allowed) external onlyOwner {... */\n      pop\n      pop\n      jump\t// out\n        /* \"contracts/jarsSpinWheel/jarsSpinTheWheel.sol\":9117:9497  function totalWhitelistedNFTBalance(address wallet) external view returns (uint256 total) {... */\n    tag_65:\n        /* \"contracts/jarsSpinWheel/jarsSpinTheWheel.sol\":9192:9205  uint256 total */\n      0x00\n        /* \"contracts/jarsSpinWheel/jarsSpinTheWheel.sol\":9218:9232  uint256 length */\n      dup1\n        /* \"contracts/jarsSpinWheel/jarsSpinTheWheel.sol\":9235:9253  whitelistedNFTList */\n      0x03\n        /* \"contracts/jarsSpinWheel/jarsSpinTheWheel.sol\":9235:9260  whitelistedNFTList.length */\n      dup1\n      sload\n      swap1\n      pop\n        /* \"contracts/jarsSpinWheel/jarsSpinTheWheel.sol\":9218:9260  uint256 length = whitelistedNFTList.length */\n      swap1\n      pop\n        /* \"contracts/jarsSpinWheel/jarsSpinTheWheel.sol\":9278:9287  uint256 i */\n      0x00\n        /* \"contracts/jarsSpinWheel/jarsSpinTheWheel.sol\":9273:9490  for (uint256 i = 0; i < length; i++) {... */\n    tag_168:\n        /* \"contracts/jarsSpinWheel/jarsSpinTheWheel.sol\":9297:9303  length */\n      dup2\n        /* \"contracts/jarsSpinWheel/jarsSpinTheWheel.sol\":9293:9294  i */\n      dup2\n        /* \"contracts/jarsSpinWheel/jarsSpinTheWheel.sol\":9293:9303  i < length */\n      lt\n        /* \"contracts/jarsSpinWheel/jarsSpinTheWheel.sol\":9273:9490  for (uint256 i = 0; i < length; i++) {... */\n      iszero\n      tag_169\n      jumpi\n        /* \"contracts/jarsSpinWheel/jarsSpinTheWheel.sol\":9325:9336  address nft */\n      0x00\n        /* \"contracts/jarsSpinWheel/jarsSpinTheWheel.sol\":9339:9357  whitelistedNFTList */\n      0x03\n        /* \"contracts/jarsSpinWheel/jarsSpinTheWheel.sol\":9358:9359  i */\n      dup3\n        /* \"contracts/jarsSpinWheel/jarsSpinTheWheel.sol\":9339:9360  whitelistedNFTList[i] */\n      dup2\n      sload\n      dup2\n      lt\n      tag_171\n      jumpi\n      tag_172\n      tag_103\n      jump\t// in\n    tag_172:\n    tag_171:\n      swap1\n      0x00\n      mstore\n      keccak256(0x00, 0x20)\n      add\n      0x00\n      swap1\n      sload\n      swap1\n      0x0100\n      exp\n      swap1\n      div\n      0xffffffffffffffffffffffffffffffffffffffff\n      and\n        /* \"contracts/jarsSpinWheel/jarsSpinTheWheel.sol\":9325:9360  address nft = whitelistedNFTList[i] */\n      swap1\n      pop\n        /* \"contracts/jarsSpinWheel/jarsSpinTheWheel.sol\":9379:9394  whitelistedNFTs */\n      0x02\n        /* \"contracts/jarsSpinWheel/jarsSpinTheWheel.sol\":9379:9399  whitelistedNFTs[nft] */\n      0x00\n        /* \"contracts/jarsSpinWheel/jarsSpinTheWheel.sol\":9395:9398  nft */\n      dup3\n        /* \"contracts/jarsSpinWheel/jarsSpinTheWheel.sol\":9379:9399  whitelistedNFTs[nft] */\n      0xffffffffffffffffffffffffffffffffffffffff\n      and\n      0xffffffffffffffffffffffffffffffffffffffff\n      and\n      dup2\n      mstore\n      0x20\n      add\n      swap1\n      dup2\n      mstore\n      0x20\n      add\n      0x00\n      keccak256\n      0x00\n      swap1\n      sload\n      swap1\n      0x0100\n      exp\n      swap1\n      div\n      0xff\n      and\n        /* \"contracts/jarsSpinWheel/jarsSpinTheWheel.sol\":9375:9479  if (whitelistedNFTs[nft]) {... */\n      iszero\n      tag_174\n      jumpi\n        /* \"contracts/jarsSpinWheel/jarsSpinTheWheel.sol\":9441:9444  nft */\n      dup1\n        /* \"contracts/jarsSpinWheel/jarsSpinTheWheel.sol\":9429:9455  IERC721Like(nft).balanceOf */\n      0xffffffffffffffffffffffffffffffffffffffff\n      and\n      0x70a08231\n        /* \"contracts/jarsSpinWheel/jarsSpinTheWheel.sol\":9456:9462  wallet */\n      dup7\n        /* \"contracts/jarsSpinWheel/jarsSpinTheWheel.sol\":9429:9463  IERC721Like(nft).balanceOf(wallet) */\n      mload(0x40)\n      dup3\n      0xffffffff\n      and\n      0xe0\n      shl\n      dup2\n      mstore\n      0x04\n      add\n      tag_175\n      swap2\n      swap1\n      tag_44\n      jump\t// in\n    tag_175:\n      0x20\n      mload(0x40)\n      dup1\n      dup4\n      sub\n      dup2\n      dup7\n      gas\n      staticcall\n      iszero\n      dup1\n      iszero\n      tag_177\n      jumpi\n      returndatasize\n      0x00\n      dup1\n      returndatacopy\n      revert(0x00, returndatasize)\n    tag_177:\n      pop\n      pop\n      pop\n      pop\n      mload(0x40)\n      returndatasize\n      not(0x1f)\n      0x1f\n      dup3\n      add\n      and\n      dup3\n      add\n      dup1\n      0x40\n      mstore\n      pop\n      dup2\n      add\n      swap1\n      tag_178\n      swap2\n      swap1\n      tag_112\n      jump\t// in\n    tag_178:\n        /* \"contracts/jarsSpinWheel/jarsSpinTheWheel.sol\":9420:9463  total += IERC721Like(nft).balanceOf(wallet) */\n      dup5\n      tag_179\n      swap2\n      swap1\n      tag_180\n      jump\t// in\n    tag_179:\n      swap4\n      pop\n        /* \"contracts/jarsSpinWheel/jarsSpinTheWheel.sol\":9375:9479  if (whitelistedNFTs[nft]) {... */\n    tag_174:\n        /* \"contracts/jarsSpinWheel/jarsSpinTheWheel.sol\":9310:9490  {... */\n      pop\n        /* \"contracts/jarsSpinWheel/jarsSpinTheWheel.sol\":9305:9308  i++ */\n      dup1\n      dup1\n      0x01\n      add\n      swap2\n      pop\n      pop\n        /* \"contracts/jarsSpinWheel/jarsSpinTheWheel.sol\":9273:9490  for (uint256 i = 0; i < length; i++) {... */\n      jump(tag_168)\n    tag_169:\n      pop\n        /* \"contracts/jarsSpinWheel/jarsSpinTheWheel.sol\":9207:9497  {... */\n      pop\n        /* \"contracts/jarsSpinWheel/jarsSpinTheWheel.sol\":9117:9497  function totalWhitelistedNFTBalance(address wallet) external view returns (uint256 total) {... */\n      swap2\n      swap1\n      pop\n      jump\t// out\n        /* \"contracts/jarsSpinWheel/jarsSpinTheWheel.sol\":3741:3820  function owner() public view returns (address) {... */\n    tag_68:\n        /* \"contracts/jarsSpinWheel/jarsSpinTheWheel.sol\":3779:3786  address */\n      0x00\n        /* \"contracts/jarsSpinWheel/jarsSpinTheWheel.sol\":3806:3812  _owner */\n      dup1\n      0x00\n      swap1\n      sload\n      swap1\n      0x0100\n      exp\n      swap1\n      div\n      0xffffffffffffffffffffffffffffffffffffffff\n      and\n        /* \"contracts/jarsSpinWheel/jarsSpinTheWheel.sol\":3799:3812  return _owner */\n      swap1\n      pop\n        /* \"contracts/jarsSpinWheel/jarsSpinTheWheel.sol\":3741:3820  function owner() public view returns (address) {... */\n      swap1\n      jump\t// out\n        /* \"contracts/jarsSpinWheel/jarsSpinTheWheel.sol\":7825:8138  function withdrawAllClub() external onlyOwner {... */\n    tag_71:\n        /* \"contracts/jarsSpinWheel/jarsSpinTheWheel.sol\":3660:3666  _owner */\n      0x00\n      dup1\n      sload\n      swap1\n      0x0100\n      exp\n      swap1\n      div\n      0xffffffffffffffffffffffffffffffffffffffff\n      and\n        /* \"contracts/jarsSpinWheel/jarsSpinTheWheel.sol\":3646:3666  msg.sender != _owner */\n      0xffffffffffffffffffffffffffffffffffffffff\n      and\n        /* \"contracts/jarsSpinWheel/jarsSpinTheWheel.sol\":3646:3656  msg.sender */\n      caller\n        /* \"contracts/jarsSpinWheel/jarsSpinTheWheel.sol\":3646:3666  msg.sender != _owner */\n      0xffffffffffffffffffffffffffffffffffffffff\n      and\n      eq\n        /* \"contracts/jarsSpinWheel/jarsSpinTheWheel.sol\":3642:3713  if (msg.sender != _owner) revert OwnableUnauthorizedAccount(msg.sender) */\n      tag_183\n      jumpi\n        /* \"contracts/jarsSpinWheel/jarsSpinTheWheel.sol\":3702:3712  msg.sender */\n      caller\n        /* \"contracts/jarsSpinWheel/jarsSpinTheWheel.sol\":3675:3713  OwnableUnauthorizedAccount(msg.sender) */\n      mload(0x40)\n      0x118cdaa700000000000000000000000000000000000000000000000000000000\n      dup2\n      mstore\n      0x04\n      add\n      tag_184\n      swap2\n      swap1\n      tag_44\n      jump\t// in\n    tag_184:\n      mload(0x40)\n      dup1\n      swap2\n      sub\n      swap1\n      revert\n        /* \"contracts/jarsSpinWheel/jarsSpinTheWheel.sol\":3642:3713  if (msg.sender != _owner) revert OwnableUnauthorizedAccount(msg.sender) */\n    tag_183:\n        /* \"contracts/jarsSpinWheel/jarsSpinTheWheel.sol\":7882:7893  uint256 bal */\n      0x00\n        /* \"contracts/jarsSpinWheel/jarsSpinTheWheel.sol\":7896:7905  clubToken */\n      immutable(\"0xcfe93e00cbaaf37bad5f0b2ff3ab98072b4f3a2656e148b3bcccb553f2fa678f\")\n        /* \"contracts/jarsSpinWheel/jarsSpinTheWheel.sol\":7896:7915  clubToken.balanceOf */\n      0xffffffffffffffffffffffffffffffffffffffff\n      and\n      0x70a08231\n        /* \"contracts/jarsSpinWheel/jarsSpinTheWheel.sol\":7924:7928  this */\n      address\n        /* \"contracts/jarsSpinWheel/jarsSpinTheWheel.sol\":7896:7930  clubToken.balanceOf(address(this)) */\n      mload(0x40)\n      dup3\n      0xffffffff\n      and\n      0xe0\n      shl\n      dup2\n      mstore\n      0x04\n      add\n      tag_186\n      swap2\n      swap1\n      tag_44\n      jump\t// in\n    tag_186:\n      0x20\n      mload(0x40)\n      dup1\n      dup4\n      sub\n      dup2\n      dup7\n      gas\n      staticcall\n      iszero\n      dup1\n      iszero\n      tag_188\n      jumpi\n      returndatasize\n      0x00\n      dup1\n      returndatacopy\n      revert(0x00, returndatasize)\n    tag_188:\n      pop\n      pop\n      pop\n      pop\n      mload(0x40)\n      returndatasize\n      not(0x1f)\n      0x1f\n      dup3\n      add\n      and\n      dup3\n      add\n      dup1\n      0x40\n      mstore\n      pop\n      dup2\n      add\n      swap1\n      tag_189\n      swap2\n      swap1\n      tag_112\n      jump\t// in\n    tag_189:\n        /* \"contracts/jarsSpinWheel/jarsSpinTheWheel.sol\":7882:7930  uint256 bal = clubToken.balanceOf(address(this)) */\n      swap1\n      pop\n        /* \"contracts/jarsSpinWheel/jarsSpinTheWheel.sol\":7952:7953  0 */\n      0x00\n        /* \"contracts/jarsSpinWheel/jarsSpinTheWheel.sol\":7945:7948  bal */\n      dup2\n        /* \"contracts/jarsSpinWheel/jarsSpinTheWheel.sol\":7945:7953  bal == 0 */\n      sub\n        /* \"contracts/jarsSpinWheel/jarsSpinTheWheel.sol\":7941:7987  if (bal == 0) revert InsufficientClubBalance() */\n      tag_190\n      jumpi\n        /* \"contracts/jarsSpinWheel/jarsSpinTheWheel.sol\":7962:7987  InsufficientClubBalance() */\n      mload(0x40)\n      0xcd85a9b600000000000000000000000000000000000000000000000000000000\n      dup2\n      mstore\n      0x04\n      add\n      mload(0x40)\n      dup1\n      swap2\n      sub\n      swap1\n      revert\n        /* \"contracts/jarsSpinWheel/jarsSpinTheWheel.sol\":7941:7987  if (bal == 0) revert InsufficientClubBalance() */\n    tag_190:\n        /* \"contracts/jarsSpinWheel/jarsSpinTheWheel.sol\":8000:8007  bool ok */\n      0x00\n        /* \"contracts/jarsSpinWheel/jarsSpinTheWheel.sol\":8010:8019  clubToken */\n      immutable(\"0xcfe93e00cbaaf37bad5f0b2ff3ab98072b4f3a2656e148b3bcccb553f2fa678f\")\n        /* \"contracts/jarsSpinWheel/jarsSpinTheWheel.sol\":8010:8028  clubToken.transfer */\n      0xffffffffffffffffffffffffffffffffffffffff\n      and\n      0xa9059cbb\n        /* \"contracts/jarsSpinWheel/jarsSpinTheWheel.sol\":8029:8036  owner() */\n      tag_191\n        /* \"contracts/jarsSpinWheel/jarsSpinTheWheel.sol\":8029:8034  owner */\n      tag_68\n        /* \"contracts/jarsSpinWheel/jarsSpinTheWheel.sol\":8029:8036  owner() */\n      jump\t// in\n    tag_191:\n        /* \"contracts/jarsSpinWheel/jarsSpinTheWheel.sol\":8038:8041  bal */\n      dup5\n        /* \"contracts/jarsSpinWheel/jarsSpinTheWheel.sol\":8010:8042  clubToken.transfer(owner(), bal) */\n      mload(0x40)\n      dup4\n      0xffffffff\n      and\n      0xe0\n      shl\n      dup2\n      mstore\n      0x04\n      add\n      tag_192\n      swap3\n      swap2\n      swap1\n      tag_115\n      jump\t// in\n    tag_192:\n      0x20\n      mload(0x40)\n      dup1\n      dup4\n      sub\n      dup2\n      0x00\n      dup8\n      gas\n      call\n      iszero\n      dup1\n      iszero\n      tag_194\n      jumpi\n      returndatasize\n      0x00\n      dup1\n      returndatacopy\n      revert(0x00, returndatasize)\n    tag_194:\n      pop\n      pop\n      pop\n      pop\n      mload(0x40)\n      returndatasize\n      not(0x1f)\n      0x1f\n      dup3\n      add\n      and\n      dup3\n      add\n      dup1\n      0x40\n      mstore\n      pop\n      dup2\n      add\n      swap1\n      tag_195\n      swap2\n      swap1\n      tag_119\n      jump\t// in\n    tag_195:\n        /* \"contracts/jarsSpinWheel/jarsSpinTheWheel.sol\":8000:8042  bool ok = clubToken.transfer(owner(), bal) */\n      swap1\n      pop\n        /* \"contracts/jarsSpinWheel/jarsSpinTheWheel.sol\":8058:8060  ok */\n      dup1\n        /* \"contracts/jarsSpinWheel/jarsSpinTheWheel.sol\":8053:8085  if (!ok) revert TransferFailed() */\n      tag_196\n      jumpi\n        /* \"contracts/jarsSpinWheel/jarsSpinTheWheel.sol\":8069:8085  TransferFailed() */\n      mload(0x40)\n      0x90b8ec1800000000000000000000000000000000000000000000000000000000\n      dup2\n      mstore\n      0x04\n      add\n      mload(0x40)\n      dup1\n      swap2\n      sub\n      swap1\n      revert\n        /* \"contracts/jarsSpinWheel/jarsSpinTheWheel.sol\":8053:8085  if (!ok) revert TransferFailed() */\n    tag_196:\n        /* \"contracts/jarsSpinWheel/jarsSpinTheWheel.sol\":8117:8124  owner() */\n      tag_197\n        /* \"contracts/jarsSpinWheel/jarsSpinTheWheel.sol\":8117:8122  owner */\n      tag_68\n        /* \"contracts/jarsSpinWheel/jarsSpinTheWheel.sol\":8117:8124  owner() */\n      jump\t// in\n    tag_197:\n        /* \"contracts/jarsSpinWheel/jarsSpinTheWheel.sol\":8103:8130  ClubWithdrawn(owner(), bal) */\n      0xffffffffffffffffffffffffffffffffffffffff\n      and\n      0x505868a902812249ac23c1a1e6cfde9b4fd503466f8424dbb304332b9d5d8586\n        /* \"contracts/jarsSpinWheel/jarsSpinTheWheel.sol\":8126:8129  bal */\n      dup4\n        /* \"contracts/jarsSpinWheel/jarsSpinTheWheel.sol\":8103:8130  ClubWithdrawn(owner(), bal) */\n      mload(0x40)\n      tag_198\n      swap2\n      swap1\n      tag_38\n      jump\t// in\n    tag_198:\n      mload(0x40)\n      dup1\n      swap2\n      sub\n      swap1\n      log2\n        /* \"contracts/jarsSpinWheel/jarsSpinTheWheel.sol\":7871:8138  {... */\n      pop\n      pop\n        /* \"contracts/jarsSpinWheel/jarsSpinTheWheel.sol\":7825:8138  function withdrawAllClub() external onlyOwner {... */\n      jump\t// out\n        /* \"contracts/jarsSpinWheel/jarsSpinTheWheel.sol\":9782:9897  function getWhitelistedNFTs() external view returns (address[] memory) {... */\n    tag_73:\n        /* \"contracts/jarsSpinWheel/jarsSpinTheWheel.sol\":9835:9851  address[] memory */\n      0x60\n        /* \"contracts/jarsSpinWheel/jarsSpinTheWheel.sol\":9871:9889  whitelistedNFTList */\n      0x03\n        /* \"contracts/jarsSpinWheel/jarsSpinTheWheel.sol\":9864:9889  return whitelistedNFTList */\n      dup1\n      sload\n      dup1\n      0x20\n      mul\n      0x20\n      add\n      mload(0x40)\n      swap1\n      dup2\n      add\n      0x40\n      mstore\n      dup1\n      swap3\n      swap2\n      swap1\n      dup2\n      dup2\n      mstore\n      0x20\n      add\n      dup3\n      dup1\n      sload\n      dup1\n      iszero\n      tag_200\n      jumpi\n      0x20\n      mul\n      dup3\n      add\n      swap2\n      swap1\n      0x00\n      mstore\n      keccak256(0x00, 0x20)\n      swap1\n    tag_201:\n      dup2\n      0x00\n      swap1\n      sload\n      swap1\n      0x0100\n      exp\n      swap1\n      div\n      0xffffffffffffffffffffffffffffffffffffffff\n      and\n      0xffffffffffffffffffffffffffffffffffffffff\n      and\n      dup2\n      mstore\n      0x20\n      add\n      swap1\n      0x01\n      add\n      swap1\n      dup1\n      dup4\n      gt\n      tag_201\n      jumpi\n    tag_200:\n      pop\n      pop\n      pop\n      pop\n      pop\n      swap1\n      pop\n        /* \"contracts/jarsSpinWheel/jarsSpinTheWheel.sol\":9782:9897  function getWhitelistedNFTs() external view returns (address[] memory) {... */\n      swap1\n      jump\t// out\n        /* \"contracts/jarsSpinWheel/jarsSpinTheWheel.sol\":8384:8599  function holdsWhitelistedNFT(address wallet, address nft) external view returns (bool) {... */\n    tag_78:\n        /* \"contracts/jarsSpinWheel/jarsSpinTheWheel.sol\":8465:8469  bool */\n      0x00\n        /* \"contracts/jarsSpinWheel/jarsSpinTheWheel.sol\":8487:8502  whitelistedNFTs */\n      0x02\n        /* \"contracts/jarsSpinWheel/jarsSpinTheWheel.sol\":8487:8507  whitelistedNFTs[nft] */\n      0x00\n        /* \"contracts/jarsSpinWheel/jarsSpinTheWheel.sol\":8503:8506  nft */\n      dup4\n        /* \"contracts/jarsSpinWheel/jarsSpinTheWheel.sol\":8487:8507  whitelistedNFTs[nft] */\n      0xffffffffffffffffffffffffffffffffffffffff\n      and\n      0xffffffffffffffffffffffffffffffffffffffff\n      and\n      dup2\n      mstore\n      0x20\n      add\n      swap1\n      dup2\n      mstore\n      0x20\n      add\n      0x00\n      keccak256\n      0x00\n      swap1\n      sload\n      swap1\n      0x0100\n      exp\n      swap1\n      div\n      0xff\n      and\n        /* \"contracts/jarsSpinWheel/jarsSpinTheWheel.sol\":8482:8535  if (!whitelistedNFTs[nft]) revert NFTNotWhitelisted() */\n      tag_203\n      jumpi\n        /* \"contracts/jarsSpinWheel/jarsSpinTheWheel.sol\":8516:8535  NFTNotWhitelisted() */\n      mload(0x40)\n      0xe4fad98200000000000000000000000000000000000000000000000000000000\n      dup2\n      mstore\n      0x04\n      add\n      mload(0x40)\n      dup1\n      swap2\n      sub\n      swap1\n      revert\n        /* \"contracts/jarsSpinWheel/jarsSpinTheWheel.sol\":8482:8535  if (!whitelistedNFTs[nft]) revert NFTNotWhitelisted() */\n    tag_203:\n        /* \"contracts/jarsSpinWheel/jarsSpinTheWheel.sol\":8590:8591  0 */\n      0x00\n        /* \"contracts/jarsSpinWheel/jarsSpinTheWheel.sol\":8565:8568  nft */\n      dup3\n        /* \"contracts/jarsSpinWheel/jarsSpinTheWheel.sol\":8553:8579  IERC721Like(nft).balanceOf */\n      0xffffffffffffffffffffffffffffffffffffffff\n      and\n      0x70a08231\n        /* \"contracts/jarsSpinWheel/jarsSpinTheWheel.sol\":8580:8586  wallet */\n      dup6\n        /* \"contracts/jarsSpinWheel/jarsSpinTheWheel.sol\":8553:8587  IERC721Like(nft).balanceOf(wallet) */\n      mload(0x40)\n      dup3\n      0xffffffff\n      and\n      0xe0\n      shl\n      dup2\n      mstore\n      0x04\n      add\n      tag_204\n      swap2\n      swap1\n      tag_44\n      jump\t// in\n    tag_204:\n      0x20\n      mload(0x40)\n      dup1\n      dup4\n      sub\n      dup2\n      dup7\n      gas\n      staticcall\n      iszero\n      dup1\n      iszero\n      tag_206\n      jumpi\n      returndatasize\n      0x00\n      dup1\n      returndatacopy\n      revert(0x00, returndatasize)\n    tag_206:\n      pop\n      pop\n      pop\n      pop\n      mload(0x40)\n      returndatasize\n      not(0x1f)\n      0x1f\n      dup3\n      add\n      and\n      dup3\n      add\n      dup1\n      0x40\n      mstore\n      pop\n      dup2\n      add\n      swap1\n      tag_207\n      swap2\n      swap1\n      tag_112\n      jump\t// in\n    tag_207:\n        /* \"contracts/jarsSpinWheel/jarsSpinTheWheel.sol\":8553:8591  IERC721Like(nft).balanceOf(wallet) > 0 */\n      gt\n        /* \"contracts/jarsSpinWheel/jarsSpinTheWheel.sol\":8546:8591  return IERC721Like(nft).balanceOf(wallet) > 0 */\n      swap1\n      pop\n        /* \"contracts/jarsSpinWheel/jarsSpinTheWheel.sol\":8384:8599  function holdsWhitelistedNFT(address wallet, address nft) external view returns (bool) {... */\n      swap3\n      swap2\n      pop\n      pop\n      jump\t// out\n        /* \"contracts/jarsSpinWheel/jarsSpinTheWheel.sol\":7385:7746  function withdrawClub(address to, uint256 amount) external onlyOwner {... */\n    tag_82:\n        /* \"contracts/jarsSpinWheel/jarsSpinTheWheel.sol\":3660:3666  _owner */\n      0x00\n      dup1\n      sload\n      swap1\n      0x0100\n      exp\n      swap1\n      div\n      0xffffffffffffffffffffffffffffffffffffffff\n      and\n        /* \"contracts/jarsSpinWheel/jarsSpinTheWheel.sol\":3646:3666  msg.sender != _owner */\n      0xffffffffffffffffffffffffffffffffffffffff\n      and\n        /* \"contracts/jarsSpinWheel/jarsSpinTheWheel.sol\":3646:3656  msg.sender */\n      caller\n        /* \"contracts/jarsSpinWheel/jarsSpinTheWheel.sol\":3646:3666  msg.sender != _owner */\n      0xffffffffffffffffffffffffffffffffffffffff\n      and\n      eq\n        /* \"contracts/jarsSpinWheel/jarsSpinTheWheel.sol\":3642:3713  if (msg.sender != _owner) revert OwnableUnauthorizedAccount(msg.sender) */\n      tag_209\n      jumpi\n        /* \"contracts/jarsSpinWheel/jarsSpinTheWheel.sol\":3702:3712  msg.sender */\n      caller\n        /* \"contracts/jarsSpinWheel/jarsSpinTheWheel.sol\":3675:3713  OwnableUnauthorizedAccount(msg.sender) */\n      mload(0x40)\n      0x118cdaa700000000000000000000000000000000000000000000000000000000\n      dup2\n      mstore\n      0x04\n      add\n      tag_210\n      swap2\n      swap1\n      tag_44\n      jump\t// in\n    tag_210:\n      mload(0x40)\n      dup1\n      swap2\n      sub\n      swap1\n      revert\n        /* \"contracts/jarsSpinWheel/jarsSpinTheWheel.sol\":3642:3713  if (msg.sender != _owner) revert OwnableUnauthorizedAccount(msg.sender) */\n    tag_209:\n        /* \"contracts/jarsSpinWheel/jarsSpinTheWheel.sol\":7483:7484  0 */\n      0x00\n        /* \"contracts/jarsSpinWheel/jarsSpinTheWheel.sol\":7469:7485  to == address(0) */\n      0xffffffffffffffffffffffffffffffffffffffff\n      and\n        /* \"contracts/jarsSpinWheel/jarsSpinTheWheel.sol\":7469:7471  to */\n      dup3\n        /* \"contracts/jarsSpinWheel/jarsSpinTheWheel.sol\":7469:7485  to == address(0) */\n      0xffffffffffffffffffffffffffffffffffffffff\n      and\n      sub\n        /* \"contracts/jarsSpinWheel/jarsSpinTheWheel.sol\":7465:7507  if (to == address(0)) revert ZeroAddress() */\n      tag_212\n      jumpi\n        /* \"contracts/jarsSpinWheel/jarsSpinTheWheel.sol\":7494:7507  ZeroAddress() */\n      mload(0x40)\n      0xd92e233d00000000000000000000000000000000000000000000000000000000\n      dup2\n      mstore\n      0x04\n      add\n      mload(0x40)\n      dup1\n      swap2\n      sub\n      swap1\n      revert\n        /* \"contracts/jarsSpinWheel/jarsSpinTheWheel.sol\":7465:7507  if (to == address(0)) revert ZeroAddress() */\n    tag_212:\n        /* \"contracts/jarsSpinWheel/jarsSpinTheWheel.sol\":7559:7565  amount */\n      dup1\n        /* \"contracts/jarsSpinWheel/jarsSpinTheWheel.sol\":7522:7531  clubToken */\n      immutable(\"0xcfe93e00cbaaf37bad5f0b2ff3ab98072b4f3a2656e148b3bcccb553f2fa678f\")\n        /* \"contracts/jarsSpinWheel/jarsSpinTheWheel.sol\":7522:7541  clubToken.balanceOf */\n      0xffffffffffffffffffffffffffffffffffffffff\n      and\n      0x70a08231\n        /* \"contracts/jarsSpinWheel/jarsSpinTheWheel.sol\":7550:7554  this */\n      address\n        /* \"contracts/jarsSpinWheel/jarsSpinTheWheel.sol\":7522:7556  clubToken.balanceOf(address(this)) */\n      mload(0x40)\n      dup3\n      0xffffffff\n      and\n      0xe0\n      shl\n      dup2\n      mstore\n      0x04\n      add\n      tag_213\n      swap2\n      swap1\n      tag_44\n      jump\t// in\n    tag_213:\n      0x20\n      mload(0x40)\n      dup1\n      dup4\n      sub\n      dup2\n      dup7\n      gas\n      staticcall\n      iszero\n      dup1\n      iszero\n      tag_215\n      jumpi\n      returndatasize\n      0x00\n      dup1\n      returndatacopy\n      revert(0x00, returndatasize)\n    tag_215:\n      pop\n      pop\n      pop\n      pop\n      mload(0x40)\n      returndatasize\n      not(0x1f)\n      0x1f\n      dup3\n      add\n      and\n      dup3\n      add\n      dup1\n      0x40\n      mstore\n      pop\n      dup2\n      add\n      swap1\n      tag_216\n      swap2\n      swap1\n      tag_112\n      jump\t// in\n    tag_216:\n        /* \"contracts/jarsSpinWheel/jarsSpinTheWheel.sol\":7522:7565  clubToken.balanceOf(address(this)) < amount */\n      lt\n        /* \"contracts/jarsSpinWheel/jarsSpinTheWheel.sol\":7518:7599  if (clubToken.balanceOf(address(this)) < amount) revert InsufficientClubBalance() */\n      iszero\n      tag_217\n      jumpi\n        /* \"contracts/jarsSpinWheel/jarsSpinTheWheel.sol\":7574:7599  InsufficientClubBalance() */\n      mload(0x40)\n      0xcd85a9b600000000000000000000000000000000000000000000000000000000\n      dup2\n      mstore\n      0x04\n      add\n      mload(0x40)\n      dup1\n      swap2\n      sub\n      swap1\n      revert\n        /* \"contracts/jarsSpinWheel/jarsSpinTheWheel.sol\":7518:7599  if (clubToken.balanceOf(address(this)) < amount) revert InsufficientClubBalance() */\n    tag_217:\n        /* \"contracts/jarsSpinWheel/jarsSpinTheWheel.sol\":7612:7619  bool ok */\n      0x00\n        /* \"contracts/jarsSpinWheel/jarsSpinTheWheel.sol\":7622:7631  clubToken */\n      immutable(\"0xcfe93e00cbaaf37bad5f0b2ff3ab98072b4f3a2656e148b3bcccb553f2fa678f\")\n        /* \"contracts/jarsSpinWheel/jarsSpinTheWheel.sol\":7622:7640  clubToken.transfer */\n      0xffffffffffffffffffffffffffffffffffffffff\n      and\n      0xa9059cbb\n        /* \"contracts/jarsSpinWheel/jarsSpinTheWheel.sol\":7641:7643  to */\n      dup5\n        /* \"contracts/jarsSpinWheel/jarsSpinTheWheel.sol\":7645:7651  amount */\n      dup5\n        /* \"contracts/jarsSpinWheel/jarsSpinTheWheel.sol\":7622:7652  clubToken.transfer(to, amount) */\n      mload(0x40)\n      dup4\n      0xffffffff\n      and\n      0xe0\n      shl\n      dup2\n      mstore\n      0x04\n      add\n      tag_218\n      swap3\n      swap2\n      swap1\n      tag_115\n      jump\t// in\n    tag_218:\n      0x20\n      mload(0x40)\n      dup1\n      dup4\n      sub\n      dup2\n      0x00\n      dup8\n      gas\n      call\n      iszero\n      dup1\n      iszero\n      tag_220\n      jumpi\n      returndatasize\n      0x00\n      dup1\n      returndatacopy\n      revert(0x00, returndatasize)\n    tag_220:\n      pop\n      pop\n      pop\n      pop\n      mload(0x40)\n      returndatasize\n      not(0x1f)\n      0x1f\n      dup3\n      add\n      and\n      dup3\n      add\n      dup1\n      0x40\n      mstore\n      pop\n      dup2\n      add\n      swap1\n      tag_221\n      swap2\n      swap1\n      tag_119\n      jump\t// in\n    tag_221:\n        /* \"contracts/jarsSpinWheel/jarsSpinTheWheel.sol\":7612:7652  bool ok = clubToken.transfer(to, amount) */\n      swap1\n      pop\n        /* \"contracts/jarsSpinWheel/jarsSpinTheWheel.sol\":7668:7670  ok */\n      dup1\n        /* \"contracts/jarsSpinWheel/jarsSpinTheWheel.sol\":7663:7695  if (!ok) revert TransferFailed() */\n      tag_222\n      jumpi\n        /* \"contracts/jarsSpinWheel/jarsSpinTheWheel.sol\":7679:7695  TransferFailed() */\n      mload(0x40)\n      0x90b8ec1800000000000000000000000000000000000000000000000000000000\n      dup2\n      mstore\n      0x04\n      add\n      mload(0x40)\n      dup1\n      swap2\n      sub\n      swap1\n      revert\n        /* \"contracts/jarsSpinWheel/jarsSpinTheWheel.sol\":7663:7695  if (!ok) revert TransferFailed() */\n    tag_222:\n        /* \"contracts/jarsSpinWheel/jarsSpinTheWheel.sol\":7727:7729  to */\n      dup3\n        /* \"contracts/jarsSpinWheel/jarsSpinTheWheel.sol\":7713:7738  ClubWithdrawn(to, amount) */\n      0xffffffffffffffffffffffffffffffffffffffff\n      and\n      0x505868a902812249ac23c1a1e6cfde9b4fd503466f8424dbb304332b9d5d8586\n        /* \"contracts/jarsSpinWheel/jarsSpinTheWheel.sol\":7731:7737  amount */\n      dup4\n        /* \"contracts/jarsSpinWheel/jarsSpinTheWheel.sol\":7713:7738  ClubWithdrawn(to, amount) */\n      mload(0x40)\n      tag_223\n      swap2\n      swap1\n      tag_38\n      jump\t// in\n    tag_223:\n      mload(0x40)\n      dup1\n      swap2\n      sub\n      swap1\n      log2\n        /* \"contracts/jarsSpinWheel/jarsSpinTheWheel.sol\":7454:7746  {... */\n      pop\n        /* \"contracts/jarsSpinWheel/jarsSpinTheWheel.sol\":7385:7746  function withdrawClub(address to, uint256 amount) external onlyOwner {... */\n      pop\n      pop\n      jump\t// out\n        /* \"contracts/jarsSpinWheel/jarsSpinTheWheel.sol\":4263:4296  IERC20 public immutable clubToken */\n    tag_84:\n      immutable(\"0xcfe93e00cbaaf37bad5f0b2ff3ab98072b4f3a2656e148b3bcccb553f2fa678f\")\n      dup2\n      jump\t// out\n        /* \"contracts/jarsSpinWheel/jarsSpinTheWheel.sol\":3828:4059  function transferOwnership(address newOwner) external onlyOwner {... */\n    tag_89:\n        /* \"contracts/jarsSpinWheel/jarsSpinTheWheel.sol\":3660:3666  _owner */\n      0x00\n      dup1\n      sload\n      swap1\n      0x0100\n      exp\n      swap1\n      div\n      0xffffffffffffffffffffffffffffffffffffffff\n      and\n        /* \"contracts/jarsSpinWheel/jarsSpinTheWheel.sol\":3646:3666  msg.sender != _owner */\n      0xffffffffffffffffffffffffffffffffffffffff\n      and\n        /* \"contracts/jarsSpinWheel/jarsSpinTheWheel.sol\":3646:3656  msg.sender */\n      caller\n        /* \"contracts/jarsSpinWheel/jarsSpinTheWheel.sol\":3646:3666  msg.sender != _owner */\n      0xffffffffffffffffffffffffffffffffffffffff\n      and\n      eq\n        /* \"contracts/jarsSpinWheel/jarsSpinTheWheel.sol\":3642:3713  if (msg.sender != _owner) revert OwnableUnauthorizedAccount(msg.sender) */\n      tag_225\n      jumpi\n        /* \"contracts/jarsSpinWheel/jarsSpinTheWheel.sol\":3702:3712  msg.sender */\n      caller\n        /* \"contracts/jarsSpinWheel/jarsSpinTheWheel.sol\":3675:3713  OwnableUnauthorizedAccount(msg.sender) */\n      mload(0x40)\n      0x118cdaa700000000000000000000000000000000000000000000000000000000\n      dup2\n      mstore\n      0x04\n      add\n      tag_226\n      swap2\n      swap1\n      tag_44\n      jump\t// in\n    tag_226:\n      mload(0x40)\n      dup1\n      swap2\n      sub\n      swap1\n      revert\n        /* \"contracts/jarsSpinWheel/jarsSpinTheWheel.sol\":3642:3713  if (msg.sender != _owner) revert OwnableUnauthorizedAccount(msg.sender) */\n    tag_225:\n        /* \"contracts/jarsSpinWheel/jarsSpinTheWheel.sol\":3927:3928  0 */\n      0x00\n        /* \"contracts/jarsSpinWheel/jarsSpinTheWheel.sol\":3907:3929  newOwner == address(0) */\n      0xffffffffffffffffffffffffffffffffffffffff\n      and\n        /* \"contracts/jarsSpinWheel/jarsSpinTheWheel.sol\":3907:3915  newOwner */\n      dup2\n        /* \"contracts/jarsSpinWheel/jarsSpinTheWheel.sol\":3907:3929  newOwner == address(0) */\n      0xffffffffffffffffffffffffffffffffffffffff\n      and\n      sub\n        /* \"contracts/jarsSpinWheel/jarsSpinTheWheel.sol\":3903:3969  if (newOwner == address(0)) revert OwnableInvalidOwner(address(0)) */\n      tag_228\n      jumpi\n        /* \"contracts/jarsSpinWheel/jarsSpinTheWheel.sol\":3966:3967  0 */\n      0x00\n        /* \"contracts/jarsSpinWheel/jarsSpinTheWheel.sol\":3938:3969  OwnableInvalidOwner(address(0)) */\n      mload(0x40)\n      0x1e4fbdf700000000000000000000000000000000000000000000000000000000\n      dup2\n      mstore\n      0x04\n      add\n      tag_229\n      swap2\n      swap1\n      tag_44\n      jump\t// in\n    tag_229:\n      mload(0x40)\n      dup1\n      swap2\n      sub\n      swap1\n      revert\n        /* \"contracts/jarsSpinWheel/jarsSpinTheWheel.sol\":3903:3969  if (newOwner == address(0)) revert OwnableInvalidOwner(address(0)) */\n    tag_228:\n        /* \"contracts/jarsSpinWheel/jarsSpinTheWheel.sol\":4014:4022  newOwner */\n      dup1\n        /* \"contracts/jarsSpinWheel/jarsSpinTheWheel.sol\":3985:4023  OwnershipTransferred(_owner, newOwner) */\n      0xffffffffffffffffffffffffffffffffffffffff\n      and\n        /* \"contracts/jarsSpinWheel/jarsSpinTheWheel.sol\":4006:4012  _owner */\n      0x00\n      dup1\n      sload\n      swap1\n      0x0100\n      exp\n      swap1\n      div\n      0xffffffffffffffffffffffffffffffffffffffff\n      and\n        /* \"contracts/jarsSpinWheel/jarsSpinTheWheel.sol\":3985:4023  OwnershipTransferred(_owner, newOwner) */\n      0xffffffffffffffffffffffffffffffffffffffff\n      and\n      0x8be0079c531659141344cd1fd0a4f28419497f9722a3daafe3b4186f6b6457e0\n      mload(0x40)\n      mload(0x40)\n      dup1\n      swap2\n      sub\n      swap1\n      log3\n        /* \"contracts/jarsSpinWheel/jarsSpinTheWheel.sol\":4043:4051  newOwner */\n      dup1\n        /* \"contracts/jarsSpinWheel/jarsSpinTheWheel.sol\":4034:4040  _owner */\n      0x00\n      dup1\n        /* \"contracts/jarsSpinWheel/jarsSpinTheWheel.sol\":4034:4051  _owner = newOwner */\n      0x0100\n      exp\n      dup2\n      sload\n      dup2\n      0xffffffffffffffffffffffffffffffffffffffff\n      mul\n      not\n      and\n      swap1\n      dup4\n      0xffffffffffffffffffffffffffffffffffffffff\n      and\n      mul\n      or\n      swap1\n      sstore\n      pop\n        /* \"contracts/jarsSpinWheel/jarsSpinTheWheel.sol\":3828:4059  function transferOwnership(address newOwner) external onlyOwner {... */\n      pop\n      jump\t// out\n        /* \"#utility.yul\":88:205   */\n    tag_231:\n        /* \"#utility.yul\":197:198   */\n      0x00\n        /* \"#utility.yul\":194:195   */\n      dup1\n        /* \"#utility.yul\":187:199   */\n      revert\n        /* \"#utility.yul\":211:328   */\n    tag_232:\n        /* \"#utility.yul\":320:321   */\n      0x00\n        /* \"#utility.yul\":317:318   */\n      dup1\n        /* \"#utility.yul\":310:322   */\n      revert\n        /* \"#utility.yul\":334:460   */\n    tag_233:\n        /* \"#utility.yul\":371:378   */\n      0x00\n        /* \"#utility.yul\":411:453   */\n      0xffffffffffffffffffffffffffffffffffffffff\n        /* \"#utility.yul\":404:409   */\n      dup3\n        /* \"#utility.yul\":400:454   */\n      and\n        /* \"#utility.yul\":389:454   */\n      swap1\n      pop\n        /* \"#utility.yul\":334:460   */\n      swap2\n      swap1\n      pop\n      jump\t// out\n        /* \"#utility.yul\":466:562   */\n    tag_234:\n        /* \"#utility.yul\":503:510   */\n      0x00\n        /* \"#utility.yul\":532:556   */\n      tag_275\n        /* \"#utility.yul\":550:555   */\n      dup3\n        /* \"#utility.yul\":532:556   */\n      tag_233\n      jump\t// in\n    tag_275:\n        /* \"#utility.yul\":521:556   */\n      swap1\n      pop\n        /* \"#utility.yul\":466:562   */\n      swap2\n      swap1\n      pop\n      jump\t// out\n        /* \"#utility.yul\":568:690   */\n    tag_235:\n        /* \"#utility.yul\":641:665   */\n      tag_277\n        /* \"#utility.yul\":659:664   */\n      dup2\n        /* \"#utility.yul\":641:665   */\n      tag_234\n      jump\t// in\n    tag_277:\n        /* \"#utility.yul\":634:639   */\n      dup2\n        /* \"#utility.yul\":631:666   */\n      eq\n        /* \"#utility.yul\":621:684   */\n      tag_278\n      jumpi\n        /* \"#utility.yul\":680:681   */\n      0x00\n        /* \"#utility.yul\":677:678   */\n      dup1\n        /* \"#utility.yul\":670:682   */\n      revert\n        /* \"#utility.yul\":621:684   */\n    tag_278:\n        /* \"#utility.yul\":568:690   */\n      pop\n      jump\t// out\n        /* \"#utility.yul\":696:835   */\n    tag_236:\n        /* \"#utility.yul\":742:747   */\n      0x00\n        /* \"#utility.yul\":780:786   */\n      dup2\n        /* \"#utility.yul\":767:787   */\n      calldataload\n        /* \"#utility.yul\":758:787   */\n      swap1\n      pop\n        /* \"#utility.yul\":796:829   */\n      tag_280\n        /* \"#utility.yul\":823:828   */\n      dup2\n        /* \"#utility.yul\":796:829   */\n      tag_235\n      jump\t// in\n    tag_280:\n        /* \"#utility.yul\":696:835   */\n      swap3\n      swap2\n      pop\n      pop\n      jump\t// out\n        /* \"#utility.yul\":841:1170   */\n    tag_25:\n        /* \"#utility.yul\":900:906   */\n      0x00\n        /* \"#utility.yul\":949:951   */\n      0x20\n        /* \"#utility.yul\":937:946   */\n      dup3\n        /* \"#utility.yul\":928:935   */\n      dup5\n        /* \"#utility.yul\":924:947   */\n      sub\n        /* \"#utility.yul\":920:952   */\n      slt\n        /* \"#utility.yul\":917:1036   */\n      iszero\n      tag_282\n      jumpi\n        /* \"#utility.yul\":955:1034   */\n      tag_283\n      tag_231\n      jump\t// in\n    tag_283:\n        /* \"#utility.yul\":917:1036   */\n    tag_282:\n        /* \"#utility.yul\":1075:1076   */\n      0x00\n        /* \"#utility.yul\":1100:1153   */\n      tag_284\n        /* \"#utility.yul\":1145:1152   */\n      dup5\n        /* \"#utility.yul\":1136:1142   */\n      dup3\n        /* \"#utility.yul\":1125:1134   */\n      dup6\n        /* \"#utility.yul\":1121:1143   */\n      add\n        /* \"#utility.yul\":1100:1153   */\n      tag_236\n      jump\t// in\n    tag_284:\n        /* \"#utility.yul\":1090:1153   */\n      swap2\n      pop\n        /* \"#utility.yul\":1046:1163   */\n      pop\n        /* \"#utility.yul\":841:1170   */\n      swap3\n      swap2\n      pop\n      pop\n      jump\t// out\n        /* \"#utility.yul\":1176:1266   */\n    tag_237:\n        /* \"#utility.yul\":1210:1217   */\n      0x00\n        /* \"#utility.yul\":1253:1258   */\n      dup2\n        /* \"#utility.yul\":1246:1259   */\n      iszero\n        /* \"#utility.yul\":1239:1260   */\n      iszero\n        /* \"#utility.yul\":1228:1260   */\n      swap1\n      pop\n        /* \"#utility.yul\":1176:1266   */\n      swap2\n      swap1\n      pop\n      jump\t// out\n        /* \"#utility.yul\":1272:1381   */\n    tag_238:\n        /* \"#utility.yul\":1353:1374   */\n      tag_287\n        /* \"#utility.yul\":1368:1373   */\n      dup2\n        /* \"#utility.yul\":1353:1374   */\n      tag_237\n      jump\t// in\n    tag_287:\n        /* \"#utility.yul\":1348:1351   */\n      dup3\n        /* \"#utility.yul\":1341:1375   */\n      mstore\n        /* \"#utility.yul\":1272:1381   */\n      pop\n      pop\n      jump\t// out\n        /* \"#utility.yul\":1387:1597   */\n    tag_28:\n        /* \"#utility.yul\":1474:1478   */\n      0x00\n        /* \"#utility.yul\":1512:1514   */\n      0x20\n        /* \"#utility.yul\":1501:1510   */\n      dup3\n        /* \"#utility.yul\":1497:1515   */\n      add\n        /* \"#utility.yul\":1489:1515   */\n      swap1\n      pop\n        /* \"#utility.yul\":1525:1590   */\n      tag_289\n        /* \"#utility.yul\":1587:1588   */\n      0x00\n        /* \"#utility.yul\":1576:1585   */\n      dup4\n        /* \"#utility.yul\":1572:1589   */\n      add\n        /* \"#utility.yul\":1563:1569   */\n      dup5\n        /* \"#utility.yul\":1525:1590   */\n      tag_238\n      jump\t// in\n    tag_289:\n        /* \"#utility.yul\":1387:1597   */\n      swap3\n      swap2\n      pop\n      pop\n      jump\t// out\n        /* \"#utility.yul\":1603:1720   */\n    tag_239:\n        /* \"#utility.yul\":1712:1713   */\n      0x00\n        /* \"#utility.yul\":1709:1710   */\n      dup1\n        /* \"#utility.yul\":1702:1714   */\n      revert\n        /* \"#utility.yul\":1726:1843   */\n    tag_240:\n        /* \"#utility.yul\":1835:1836   */\n      0x00\n        /* \"#utility.yul\":1832:1833   */\n      dup1\n        /* \"#utility.yul\":1825:1837   */\n      revert\n        /* \"#utility.yul\":1849:1966   */\n    tag_241:\n        /* \"#utility.yul\":1958:1959   */\n      0x00\n        /* \"#utility.yul\":1955:1956   */\n      dup1\n        /* \"#utility.yul\":1948:1960   */\n      revert\n        /* \"#utility.yul\":1989:2557   */\n    tag_242:\n        /* \"#utility.yul\":2062:2070   */\n      0x00\n        /* \"#utility.yul\":2072:2078   */\n      dup1\n        /* \"#utility.yul\":2122:2125   */\n      dup4\n        /* \"#utility.yul\":2115:2119   */\n      0x1f\n        /* \"#utility.yul\":2107:2113   */\n      dup5\n        /* \"#utility.yul\":2103:2120   */\n      add\n        /* \"#utility.yul\":2099:2126   */\n      slt\n        /* \"#utility.yul\":2089:2211   */\n      tag_294\n      jumpi\n        /* \"#utility.yul\":2130:2209   */\n      tag_295\n      tag_239\n      jump\t// in\n    tag_295:\n        /* \"#utility.yul\":2089:2211   */\n    tag_294:\n        /* \"#utility.yul\":2243:2249   */\n      dup3\n        /* \"#utility.yul\":2230:2250   */\n      calldataload\n        /* \"#utility.yul\":2220:2250   */\n      swap1\n      pop\n        /* \"#utility.yul\":2273:2291   */\n      0xffffffffffffffff\n        /* \"#utility.yul\":2265:2271   */\n      dup2\n        /* \"#utility.yul\":2262:2292   */\n      gt\n        /* \"#utility.yul\":2259:2376   */\n      iszero\n      tag_296\n      jumpi\n        /* \"#utility.yul\":2295:2374   */\n      tag_297\n      tag_240\n      jump\t// in\n    tag_297:\n        /* \"#utility.yul\":2259:2376   */\n    tag_296:\n        /* \"#utility.yul\":2409:2413   */\n      0x20\n        /* \"#utility.yul\":2401:2407   */\n      dup4\n        /* \"#utility.yul\":2397:2414   */\n      add\n        /* \"#utility.yul\":2385:2414   */\n      swap2\n      pop\n        /* \"#utility.yul\":2463:2466   */\n      dup4\n        /* \"#utility.yul\":2455:2459   */\n      0x20\n        /* \"#utility.yul\":2447:2453   */\n      dup3\n        /* \"#utility.yul\":2443:2460   */\n      mul\n        /* \"#utility.yul\":2433:2441   */\n      dup4\n        /* \"#utility.yul\":2429:2461   */\n      add\n        /* \"#utility.yul\":2426:2467   */\n      gt\n        /* \"#utility.yul\":2423:2551   */\n      iszero\n      tag_298\n      jumpi\n        /* \"#utility.yul\":2470:2549   */\n      tag_299\n      tag_241\n      jump\t// in\n    tag_299:\n        /* \"#utility.yul\":2423:2551   */\n    tag_298:\n        /* \"#utility.yul\":1989:2557   */\n      swap3\n      pop\n      swap3\n      swap1\n      pop\n      jump\t// out\n        /* \"#utility.yul\":2580:3148   */\n    tag_243:\n        /* \"#utility.yul\":2653:2661   */\n      0x00\n        /* \"#utility.yul\":2663:2669   */\n      dup1\n        /* \"#utility.yul\":2713:2716   */\n      dup4\n        /* \"#utility.yul\":2706:2710   */\n      0x1f\n        /* \"#utility.yul\":2698:2704   */\n      dup5\n        /* \"#utility.yul\":2694:2711   */\n      add\n        /* \"#utility.yul\":2690:2717   */\n      slt\n        /* \"#utility.yul\":2680:2802   */\n      tag_301\n      jumpi\n        /* \"#utility.yul\":2721:2800   */\n      tag_302\n      tag_239\n      jump\t// in\n    tag_302:\n        /* \"#utility.yul\":2680:2802   */\n    tag_301:\n        /* \"#utility.yul\":2834:2840   */\n      dup3\n        /* \"#utility.yul\":2821:2841   */\n      calldataload\n        /* \"#utility.yul\":2811:2841   */\n      swap1\n      pop\n        /* \"#utility.yul\":2864:2882   */\n      0xffffffffffffffff\n        /* \"#utility.yul\":2856:2862   */\n      dup2\n        /* \"#utility.yul\":2853:2883   */\n      gt\n        /* \"#utility.yul\":2850:2967   */\n      iszero\n      tag_303\n      jumpi\n        /* \"#utility.yul\":2886:2965   */\n      tag_304\n      tag_240\n      jump\t// in\n    tag_304:\n        /* \"#utility.yul\":2850:2967   */\n    tag_303:\n        /* \"#utility.yul\":3000:3004   */\n      0x20\n        /* \"#utility.yul\":2992:2998   */\n      dup4\n        /* \"#utility.yul\":2988:3005   */\n      add\n        /* \"#utility.yul\":2976:3005   */\n      swap2\n      pop\n        /* \"#utility.yul\":3054:3057   */\n      dup4\n        /* \"#utility.yul\":3046:3050   */\n      0x20\n        /* \"#utility.yul\":3038:3044   */\n      dup3\n        /* \"#utility.yul\":3034:3051   */\n      mul\n        /* \"#utility.yul\":3024:3032   */\n      dup4\n        /* \"#utility.yul\":3020:3052   */\n      add\n        /* \"#utility.yul\":3017:3058   */\n      gt\n        /* \"#utility.yul\":3014:3142   */\n      iszero\n      tag_305\n      jumpi\n        /* \"#utility.yul\":3061:3140   */\n      tag_306\n      tag_241\n      jump\t// in\n    tag_306:\n        /* \"#utility.yul\":3014:3142   */\n    tag_305:\n        /* \"#utility.yul\":2580:3148   */\n      swap3\n      pop\n      swap3\n      swap1\n      pop\n      jump\t// out\n        /* \"#utility.yul\":3154:4088   */\n    tag_31:\n        /* \"#utility.yul\":3276:3282   */\n      0x00\n        /* \"#utility.yul\":3284:3290   */\n      dup1\n        /* \"#utility.yul\":3292:3298   */\n      0x00\n        /* \"#utility.yul\":3300:3306   */\n      dup1\n        /* \"#utility.yul\":3349:3351   */\n      0x40\n        /* \"#utility.yul\":3337:3346   */\n      dup6\n        /* \"#utility.yul\":3328:3335   */\n      dup8\n        /* \"#utility.yul\":3324:3347   */\n      sub\n        /* \"#utility.yul\":3320:3352   */\n      slt\n        /* \"#utility.yul\":3317:3436   */\n      iszero\n      tag_308\n      jumpi\n        /* \"#utility.yul\":3355:3434   */\n      tag_309\n      tag_231\n      jump\t// in\n    tag_309:\n        /* \"#utility.yul\":3317:3436   */\n    tag_308:\n        /* \"#utility.yul\":3503:3504   */\n      0x00\n        /* \"#utility.yul\":3492:3501   */\n      dup6\n        /* \"#utility.yul\":3488:3505   */\n      add\n        /* \"#utility.yul\":3475:3506   */\n      calldataload\n        /* \"#utility.yul\":3533:3551   */\n      0xffffffffffffffff\n        /* \"#utility.yul\":3525:3531   */\n      dup2\n        /* \"#utility.yul\":3522:3552   */\n      gt\n        /* \"#utility.yul\":3519:3636   */\n      iszero\n      tag_310\n      jumpi\n        /* \"#utility.yul\":3555:3634   */\n      tag_311\n      tag_232\n      jump\t// in\n    tag_311:\n        /* \"#utility.yul\":3519:3636   */\n    tag_310:\n        /* \"#utility.yul\":3668:3748   */\n      tag_312\n        /* \"#utility.yul\":3740:3747   */\n      dup8\n        /* \"#utility.yul\":3731:3737   */\n      dup3\n        /* \"#utility.yul\":3720:3729   */\n      dup9\n        /* \"#utility.yul\":3716:3738   */\n      add\n        /* \"#utility.yul\":3668:3748   */\n      tag_242\n      jump\t// in\n    tag_312:\n        /* \"#utility.yul\":3650:3748   */\n      swap5\n      pop\n      swap5\n      pop\n        /* \"#utility.yul\":3446:3758   */\n      pop\n        /* \"#utility.yul\":3825:3827   */\n      0x20\n        /* \"#utility.yul\":3814:3823   */\n      dup6\n        /* \"#utility.yul\":3810:3828   */\n      add\n        /* \"#utility.yul\":3797:3829   */\n      calldataload\n        /* \"#utility.yul\":3856:3874   */\n      0xffffffffffffffff\n        /* \"#utility.yul\":3848:3854   */\n      dup2\n        /* \"#utility.yul\":3845:3875   */\n      gt\n        /* \"#utility.yul\":3842:3959   */\n      iszero\n      tag_313\n      jumpi\n        /* \"#utility.yul\":3878:3957   */\n      tag_314\n      tag_232\n      jump\t// in\n    tag_314:\n        /* \"#utility.yul\":3842:3959   */\n    tag_313:\n        /* \"#utility.yul\":3991:4071   */\n      tag_315\n        /* \"#utility.yul\":4063:4070   */\n      dup8\n        /* \"#utility.yul\":4054:4060   */\n      dup3\n        /* \"#utility.yul\":4043:4052   */\n      dup9\n        /* \"#utility.yul\":4039:4061   */\n      add\n        /* \"#utility.yul\":3991:4071   */\n      tag_243\n      jump\t// in\n    tag_315:\n        /* \"#utility.yul\":3973:4071   */\n      swap3\n      pop\n      swap3\n      pop\n        /* \"#utility.yul\":3768:4081   */\n      pop\n        /* \"#utility.yul\":3154:4088   */\n      swap3\n      swap6\n      swap2\n      swap5\n      pop\n      swap3\n      pop\n      jump\t// out\n        /* \"#utility.yul\":4094:4568   */\n    tag_35:\n        /* \"#utility.yul\":4162:4168   */\n      0x00\n        /* \"#utility.yul\":4170:4176   */\n      dup1\n        /* \"#utility.yul\":4219:4221   */\n      0x40\n        /* \"#utility.yul\":4207:4216   */\n      dup4\n        /* \"#utility.yul\":4198:4205   */\n      dup6\n        /* \"#utility.yul\":4194:4217   */\n      sub\n        /* \"#utility.yul\":4190:4222   */\n      slt\n        /* \"#utility.yul\":4187:4306   */\n      iszero\n      tag_317\n      jumpi\n        /* \"#utility.yul\":4225:4304   */\n      tag_318\n      tag_231\n      jump\t// in\n    tag_318:\n        /* \"#utility.yul\":4187:4306   */\n    tag_317:\n        /* \"#utility.yul\":4345:4346   */\n      0x00\n        /* \"#utility.yul\":4370:4423   */\n      tag_319\n        /* \"#utility.yul\":4415:4422   */\n      dup6\n        /* \"#utility.yul\":4406:4412   */\n      dup3\n        /* \"#utility.yul\":4395:4404   */\n      dup7\n        /* \"#utility.yul\":4391:4413   */\n      add\n        /* \"#utility.yul\":4370:4423   */\n      tag_236\n      jump\t// in\n    tag_319:\n        /* \"#utility.yul\":4360:4423   */\n      swap3\n      pop\n        /* \"#utility.yul\":4316:4433   */\n      pop\n        /* \"#utility.yul\":4472:4474   */\n      0x20\n        /* \"#utility.yul\":4498:4551   */\n      tag_320\n        /* \"#utility.yul\":4543:4550   */\n      dup6\n        /* \"#utility.yul\":4534:4540   */\n      dup3\n        /* \"#utility.yul\":4523:4532   */\n      dup7\n        /* \"#utility.yul\":4519:4541   */\n      add\n        /* \"#utility.yul\":4498:4551   */\n      tag_236\n      jump\t// in\n    tag_320:\n        /* \"#utility.yul\":4488:4551   */\n      swap2\n      pop\n        /* \"#utility.yul\":4443:4561   */\n      pop\n        /* \"#utility.yul\":4094:4568   */\n      swap3\n      pop\n      swap3\n      swap1\n      pop\n      jump\t// out\n        /* \"#utility.yul\":4574:4651   */\n    tag_244:\n        /* \"#utility.yul\":4611:4618   */\n      0x00\n        /* \"#utility.yul\":4640:4645   */\n      dup2\n        /* \"#utility.yul\":4629:4645   */\n      swap1\n      pop\n        /* \"#utility.yul\":4574:4651   */\n      swap2\n      swap1\n      pop\n      jump\t// out\n        /* \"#utility.yul\":4657:4775   */\n    tag_245:\n        /* \"#utility.yul\":4744:4768   */\n      tag_323\n        /* \"#utility.yul\":4762:4767   */\n      dup2\n        /* \"#utility.yul\":4744:4768   */\n      tag_244\n      jump\t// in\n    tag_323:\n        /* \"#utility.yul\":4739:4742   */\n      dup3\n        /* \"#utility.yul\":4732:4769   */\n      mstore\n        /* \"#utility.yul\":4657:4775   */\n      pop\n      pop\n      jump\t// out\n        /* \"#utility.yul\":4781:5003   */\n    tag_38:\n        /* \"#utility.yul\":4874:4878   */\n      0x00\n        /* \"#utility.yul\":4912:4914   */\n      0x20\n        /* \"#utility.yul\":4901:4910   */\n      dup3\n        /* \"#utility.yul\":4897:4915   */\n      add\n        /* \"#utility.yul\":4889:4915   */\n      swap1\n      pop\n        /* \"#utility.yul\":4925:4996   */\n      tag_325\n        /* \"#utility.yul\":4993:4994   */\n      0x00\n        /* \"#utility.yul\":4982:4991   */\n      dup4\n        /* \"#utility.yul\":4978:4995   */\n      add\n        /* \"#utility.yul\":4969:4975   */\n      dup5\n        /* \"#utility.yul\":4925:4996   */\n      tag_245\n      jump\t// in\n    tag_325:\n        /* \"#utility.yul\":4781:5003   */\n      swap3\n      swap2\n      pop\n      pop\n      jump\t// out\n        /* \"#utility.yul\":5009:5131   */\n    tag_246:\n        /* \"#utility.yul\":5082:5106   */\n      tag_327\n        /* \"#utility.yul\":5100:5105   */\n      dup2\n        /* \"#utility.yul\":5082:5106   */\n      tag_244\n      jump\t// in\n    tag_327:\n        /* \"#utility.yul\":5075:5080   */\n      dup2\n        /* \"#utility.yul\":5072:5107   */\n      eq\n        /* \"#utility.yul\":5062:5125   */\n      tag_328\n      jumpi\n        /* \"#utility.yul\":5121:5122   */\n      0x00\n        /* \"#utility.yul\":5118:5119   */\n      dup1\n        /* \"#utility.yul\":5111:5123   */\n      revert\n        /* \"#utility.yul\":5062:5125   */\n    tag_328:\n        /* \"#utility.yul\":5009:5131   */\n      pop\n      jump\t// out\n        /* \"#utility.yul\":5137:5276   */\n    tag_247:\n        /* \"#utility.yul\":5183:5188   */\n      0x00\n        /* \"#utility.yul\":5221:5227   */\n      dup2\n        /* \"#utility.yul\":5208:5228   */\n      calldataload\n        /* \"#utility.yul\":5199:5228   */\n      swap1\n      pop\n        /* \"#utility.yul\":5237:5270   */\n      tag_330\n        /* \"#utility.yul\":5264:5269   */\n      dup2\n        /* \"#utility.yul\":5237:5270   */\n      tag_246\n      jump\t// in\n    tag_330:\n        /* \"#utility.yul\":5137:5276   */\n      swap3\n      swap2\n      pop\n      pop\n      jump\t// out\n        /* \"#utility.yul\":5282:5611   */\n    tag_41:\n        /* \"#utility.yul\":5341:5347   */\n      0x00\n        /* \"#utility.yul\":5390:5392   */\n      0x20\n        /* \"#utility.yul\":5378:5387   */\n      dup3\n        /* \"#utility.yul\":5369:5376   */\n      dup5\n        /* \"#utility.yul\":5365:5388   */\n      sub\n        /* \"#utility.yul\":5361:5393   */\n      slt\n        /* \"#utility.yul\":5358:5477   */\n      iszero\n      tag_332\n      jumpi\n        /* \"#utility.yul\":5396:5475   */\n      tag_333\n      tag_231\n      jump\t// in\n    tag_333:\n        /* \"#utility.yul\":5358:5477   */\n    tag_332:\n        /* \"#utility.yul\":5516:5517   */\n      0x00\n        /* \"#utility.yul\":5541:5594   */\n      tag_334\n        /* \"#utility.yul\":5586:5593   */\n      dup5\n        /* \"#utility.yul\":5577:5583   */\n      dup3\n        /* \"#utility.yul\":5566:5575   */\n      dup6\n        /* \"#utility.yul\":5562:5584   */\n      add\n        /* \"#utility.yul\":5541:5594   */\n      tag_247\n      jump\t// in\n    tag_334:\n        /* \"#utility.yul\":5531:5594   */\n      swap2\n      pop\n        /* \"#utility.yul\":5487:5604   */\n      pop\n        /* \"#utility.yul\":5282:5611   */\n      swap3\n      swap2\n      pop\n      pop\n      jump\t// out\n        /* \"#utility.yul\":5617:5735   */\n    tag_248:\n        /* \"#utility.yul\":5704:5728   */\n      tag_336\n        /* \"#utility.yul\":5722:5727   */\n      dup2\n        /* \"#utility.yul\":5704:5728   */\n      tag_234\n      jump\t// in\n    tag_336:\n        /* \"#utility.yul\":5699:5702   */\n      dup3\n        /* \"#utility.yul\":5692:5729   */\n      mstore\n        /* \"#utility.yul\":5617:5735   */\n      pop\n      pop\n      jump\t// out\n        /* \"#utility.yul\":5741:5963   */\n    tag_44:\n        /* \"#utility.yul\":5834:5838   */\n      0x00\n        /* \"#utility.yul\":5872:5874   */\n      0x20\n        /* \"#utility.yul\":5861:5870   */\n      dup3\n        /* \"#utility.yul\":5857:5875   */\n      add\n        /* \"#utility.yul\":5849:5875   */\n      swap1\n      pop\n        /* \"#utility.yul\":5885:5956   */\n      tag_338\n        /* \"#utility.yul\":5953:5954   */\n      0x00\n        /* \"#utility.yul\":5942:5951   */\n      dup4\n        /* \"#utility.yul\":5938:5955   */\n      add\n        /* \"#utility.yul\":5929:5935   */\n      dup5\n        /* \"#utility.yul\":5885:5956   */\n      tag_248\n      jump\t// in\n    tag_338:\n        /* \"#utility.yul\":5741:5963   */\n      swap3\n      swap2\n      pop\n      pop\n      jump\t// out\n        /* \"#utility.yul\":5969:6085   */\n    tag_249:\n        /* \"#utility.yul\":6039:6060   */\n      tag_340\n        /* \"#utility.yul\":6054:6059   */\n      dup2\n        /* \"#utility.yul\":6039:6060   */\n      tag_237\n      jump\t// in\n    tag_340:\n        /* \"#utility.yul\":6032:6037   */\n      dup2\n        /* \"#utility.yul\":6029:6061   */\n      eq\n        /* \"#utility.yul\":6019:6079   */\n      tag_341\n      jumpi\n        /* \"#utility.yul\":6075:6076   */\n      0x00\n        /* \"#utility.yul\":6072:6073   */\n      dup1\n        /* \"#utility.yul\":6065:6077   */\n      revert\n        /* \"#utility.yul\":6019:6079   */\n    tag_341:\n        /* \"#utility.yul\":5969:6085   */\n      pop\n      jump\t// out\n        /* \"#utility.yul\":6091:6224   */\n    tag_250:\n        /* \"#utility.yul\":6134:6139   */\n      0x00\n        /* \"#utility.yul\":6172:6178   */\n      dup2\n        /* \"#utility.yul\":6159:6179   */\n      calldataload\n        /* \"#utility.yul\":6150:6179   */\n      swap1\n      pop\n        /* \"#utility.yul\":6188:6218   */\n      tag_343\n        /* \"#utility.yul\":6212:6217   */\n      dup2\n        /* \"#utility.yul\":6188:6218   */\n      tag_249\n      jump\t// in\n    tag_343:\n        /* \"#utility.yul\":6091:6224   */\n      swap3\n      swap2\n      pop\n      pop\n      jump\t// out\n        /* \"#utility.yul\":6230:6698   */\n    tag_54:\n        /* \"#utility.yul\":6295:6301   */\n      0x00\n        /* \"#utility.yul\":6303:6309   */\n      dup1\n        /* \"#utility.yul\":6352:6354   */\n      0x40\n        /* \"#utility.yul\":6340:6349   */\n      dup4\n        /* \"#utility.yul\":6331:6338   */\n      dup6\n        /* \"#utility.yul\":6327:6350   */\n      sub\n        /* \"#utility.yul\":6323:6355   */\n      slt\n        /* \"#utility.yul\":6320:6439   */\n      iszero\n      tag_345\n      jumpi\n        /* \"#utility.yul\":6358:6437   */\n      tag_346\n      tag_231\n      jump\t// in\n    tag_346:\n        /* \"#utility.yul\":6320:6439   */\n    tag_345:\n        /* \"#utility.yul\":6478:6479   */\n      0x00\n        /* \"#utility.yul\":6503:6556   */\n      tag_347\n        /* \"#utility.yul\":6548:6555   */\n      dup6\n        /* \"#utility.yul\":6539:6545   */\n      dup3\n        /* \"#utility.yul\":6528:6537   */\n      dup7\n        /* \"#utility.yul\":6524:6546   */\n      add\n        /* \"#utility.yul\":6503:6556   */\n      tag_236\n      jump\t// in\n    tag_347:\n        /* \"#utility.yul\":6493:6556   */\n      swap3\n      pop\n        /* \"#utility.yul\":6449:6566   */\n      pop\n        /* \"#utility.yul\":6605:6607   */\n      0x20\n        /* \"#utility.yul\":6631:6681   */\n      tag_348\n        /* \"#utility.yul\":6673:6680   */\n      dup6\n        /* \"#utility.yul\":6664:6670   */\n      dup3\n        /* \"#utility.yul\":6653:6662   */\n      dup7\n        /* \"#utility.yul\":6649:6671   */\n      add\n        /* \"#utility.yul\":6631:6681   */\n      tag_250\n      jump\t// in\n    tag_348:\n        /* \"#utility.yul\":6621:6681   */\n      swap2\n      pop\n        /* \"#utility.yul\":6576:6691   */\n      pop\n        /* \"#utility.yul\":6230:6698   */\n      swap3\n      pop\n      swap3\n      swap1\n      pop\n      jump\t// out\n        /* \"#utility.yul\":6704:7178   */\n    tag_58:\n        /* \"#utility.yul\":6772:6778   */\n      0x00\n        /* \"#utility.yul\":6780:6786   */\n      dup1\n        /* \"#utility.yul\":6829:6831   */\n      0x40\n        /* \"#utility.yul\":6817:6826   */\n      dup4\n        /* \"#utility.yul\":6808:6815   */\n      dup6\n        /* \"#utility.yul\":6804:6827   */\n      sub\n        /* \"#utility.yul\":6800:6832   */\n      slt\n        /* \"#utility.yul\":6797:6916   */\n      iszero\n      tag_350\n      jumpi\n        /* \"#utility.yul\":6835:6914   */\n      tag_351\n      tag_231\n      jump\t// in\n    tag_351:\n        /* \"#utility.yul\":6797:6916   */\n    tag_350:\n        /* \"#utility.yul\":6955:6956   */\n      0x00\n        /* \"#utility.yul\":6980:7033   */\n      tag_352\n        /* \"#utility.yul\":7025:7032   */\n      dup6\n        /* \"#utility.yul\":7016:7022   */\n      dup3\n        /* \"#utility.yul\":7005:7014   */\n      dup7\n        /* \"#utility.yul\":7001:7023   */\n      add\n        /* \"#utility.yul\":6980:7033   */\n      tag_236\n      jump\t// in\n    tag_352:\n        /* \"#utility.yul\":6970:7033   */\n      swap3\n      pop\n        /* \"#utility.yul\":6926:7043   */\n      pop\n        /* \"#utility.yul\":7082:7084   */\n      0x20\n        /* \"#utility.yul\":7108:7161   */\n      tag_353\n        /* \"#utility.yul\":7153:7160   */\n      dup6\n        /* \"#utility.yul\":7144:7150   */\n      dup3\n        /* \"#utility.yul\":7133:7142   */\n      dup7\n        /* \"#utility.yul\":7129:7151   */\n      add\n        /* \"#utility.yul\":7108:7161   */\n      tag_247\n      jump\t// in\n    tag_353:\n        /* \"#utility.yul\":7098:7161   */\n      swap2\n      pop\n        /* \"#utility.yul\":7053:7171   */\n      pop\n        /* \"#utility.yul\":6704:7178   */\n      swap3\n      pop\n      swap3\n      swap1\n      pop\n      jump\t// out\n        /* \"#utility.yul\":7184:7298   */\n    tag_251:\n        /* \"#utility.yul\":7251:7257   */\n      0x00\n        /* \"#utility.yul\":7285:7290   */\n      dup2\n        /* \"#utility.yul\":7279:7291   */\n      mload\n        /* \"#utility.yul\":7269:7291   */\n      swap1\n      pop\n        /* \"#utility.yul\":7184:7298   */\n      swap2\n      swap1\n      pop\n      jump\t// out\n        /* \"#utility.yul\":7304:7488   */\n    tag_252:\n        /* \"#utility.yul\":7403:7414   */\n      0x00\n        /* \"#utility.yul\":7437:7443   */\n      dup3\n        /* \"#utility.yul\":7432:7435   */\n      dup3\n        /* \"#utility.yul\":7425:7444   */\n      mstore\n        /* \"#utility.yul\":7477:7481   */\n      0x20\n        /* \"#utility.yul\":7472:7475   */\n      dup3\n        /* \"#utility.yul\":7468:7482   */\n      add\n        /* \"#utility.yul\":7453:7482   */\n      swap1\n      pop\n        /* \"#utility.yul\":7304:7488   */\n      swap3\n      swap2\n      pop\n      pop\n      jump\t// out\n        /* \"#utility.yul\":7494:7626   */\n    tag_253:\n        /* \"#utility.yul\":7561:7565   */\n      0x00\n        /* \"#utility.yul\":7584:7587   */\n      dup2\n        /* \"#utility.yul\":7576:7587   */\n      swap1\n      pop\n        /* \"#utility.yul\":7614:7618   */\n      0x20\n        /* \"#utility.yul\":7609:7612   */\n      dup3\n        /* \"#utility.yul\":7605:7619   */\n      add\n        /* \"#utility.yul\":7597:7619   */\n      swap1\n      pop\n        /* \"#utility.yul\":7494:7626   */\n      swap2\n      swap1\n      pop\n      jump\t// out\n        /* \"#utility.yul\":7632:7740   */\n    tag_254:\n        /* \"#utility.yul\":7709:7733   */\n      tag_358\n        /* \"#utility.yul\":7727:7732   */\n      dup2\n        /* \"#utility.yul\":7709:7733   */\n      tag_234\n      jump\t// in\n    tag_358:\n        /* \"#utility.yul\":7704:7707   */\n      dup3\n        /* \"#utility.yul\":7697:7734   */\n      mstore\n        /* \"#utility.yul\":7632:7740   */\n      pop\n      pop\n      jump\t// out\n        /* \"#utility.yul\":7746:7925   */\n    tag_255:\n        /* \"#utility.yul\":7815:7825   */\n      0x00\n        /* \"#utility.yul\":7836:7882   */\n      tag_360\n        /* \"#utility.yul\":7878:7881   */\n      dup4\n        /* \"#utility.yul\":7870:7876   */\n      dup4\n        /* \"#utility.yul\":7836:7882   */\n      tag_254\n      jump\t// in\n    tag_360:\n        /* \"#utility.yul\":7914:7918   */\n      0x20\n        /* \"#utility.yul\":7909:7912   */\n      dup4\n        /* \"#utility.yul\":7905:7919   */\n      add\n        /* \"#utility.yul\":7891:7919   */\n      swap1\n      pop\n        /* \"#utility.yul\":7746:7925   */\n      swap3\n      swap2\n      pop\n      pop\n      jump\t// out\n        /* \"#utility.yul\":7931:8044   */\n    tag_256:\n        /* \"#utility.yul\":8001:8005   */\n      0x00\n        /* \"#utility.yul\":8033:8037   */\n      0x20\n        /* \"#utility.yul\":8028:8031   */\n      dup3\n        /* \"#utility.yul\":8024:8038   */\n      add\n        /* \"#utility.yul\":8016:8038   */\n      swap1\n      pop\n        /* \"#utility.yul\":7931:8044   */\n      swap2\n      swap1\n      pop\n      jump\t// out\n        /* \"#utility.yul\":8080:8812   */\n    tag_257:\n        /* \"#utility.yul\":8199:8202   */\n      0x00\n        /* \"#utility.yul\":8228:8282   */\n      tag_363\n        /* \"#utility.yul\":8276:8281   */\n      dup3\n        /* \"#utility.yul\":8228:8282   */\n      tag_251\n      jump\t// in\n    tag_363:\n        /* \"#utility.yul\":8298:8384   */\n      tag_364\n        /* \"#utility.yul\":8377:8383   */\n      dup2\n        /* \"#utility.yul\":8372:8375   */\n      dup6\n        /* \"#utility.yul\":8298:8384   */\n      tag_252\n      jump\t// in\n    tag_364:\n        /* \"#utility.yul\":8291:8384   */\n      swap4\n      pop\n        /* \"#utility.yul\":8408:8464   */\n      tag_365\n        /* \"#utility.yul\":8458:8463   */\n      dup4\n        /* \"#utility.yul\":8408:8464   */\n      tag_253\n      jump\t// in\n    tag_365:\n        /* \"#utility.yul\":8487:8494   */\n      dup1\n        /* \"#utility.yul\":8518:8519   */\n      0x00\n        /* \"#utility.yul\":8503:8787   */\n    tag_366:\n        /* \"#utility.yul\":8528:8534   */\n      dup4\n        /* \"#utility.yul\":8525:8526   */\n      dup2\n        /* \"#utility.yul\":8522:8535   */\n      lt\n        /* \"#utility.yul\":8503:8787   */\n      iszero\n      tag_368\n      jumpi\n        /* \"#utility.yul\":8604:8610   */\n      dup2\n        /* \"#utility.yul\":8598:8611   */\n      mload\n        /* \"#utility.yul\":8631:8694   */\n      tag_369\n        /* \"#utility.yul\":8690:8693   */\n      dup9\n        /* \"#utility.yul\":8675:8688   */\n      dup3\n        /* \"#utility.yul\":8631:8694   */\n      tag_255\n      jump\t// in\n    tag_369:\n        /* \"#utility.yul\":8624:8694   */\n      swap8\n      pop\n        /* \"#utility.yul\":8717:8777   */\n      tag_370\n        /* \"#utility.yul\":8770:8776   */\n      dup4\n        /* \"#utility.yul\":8717:8777   */\n      tag_256\n      jump\t// in\n    tag_370:\n        /* \"#utility.yul\":8707:8777   */\n      swap3\n      pop\n        /* \"#utility.yul\":8563:8787   */\n      pop\n        /* \"#utility.yul\":8550:8551   */\n      0x01\n        /* \"#utility.yul\":8547:8548   */\n      dup2\n        /* \"#utility.yul\":8543:8552   */\n      add\n        /* \"#utility.yul\":8538:8552   */\n      swap1\n      pop\n        /* \"#utility.yul\":8503:8787   */\n      jump(tag_366)\n    tag_368:\n        /* \"#utility.yul\":8507:8521   */\n      pop\n        /* \"#utility.yul\":8803:8806   */\n      dup6\n        /* \"#utility.yul\":8796:8806   */\n      swap4\n      pop\n        /* \"#utility.yul\":8204:8812   */\n      pop\n      pop\n      pop\n        /* \"#utility.yul\":8080:8812   */\n      swap3\n      swap2\n      pop\n      pop\n      jump\t// out\n        /* \"#utility.yul\":8818:9191   */\n    tag_75:\n        /* \"#utility.yul\":8961:8965   */\n      0x00\n        /* \"#utility.yul\":8999:9001   */\n      0x20\n        /* \"#utility.yul\":8988:8997   */\n      dup3\n        /* \"#utility.yul\":8984:9002   */\n      add\n        /* \"#utility.yul\":8976:9002   */\n      swap1\n      pop\n        /* \"#utility.yul\":9048:9057   */\n      dup2\n        /* \"#utility.yul\":9042:9046   */\n      dup2\n        /* \"#utility.yul\":9038:9058   */\n      sub\n        /* \"#utility.yul\":9034:9035   */\n      0x00\n        /* \"#utility.yul\":9023:9032   */\n      dup4\n        /* \"#utility.yul\":9019:9036   */\n      add\n        /* \"#utility.yul\":9012:9059   */\n      mstore\n        /* \"#utility.yul\":9076:9184   */\n      tag_372\n        /* \"#utility.yul\":9179:9183   */\n      dup2\n        /* \"#utility.yul\":9170:9176   */\n      dup5\n        /* \"#utility.yul\":9076:9184   */\n      tag_257\n      jump\t// in\n    tag_372:\n        /* \"#utility.yul\":9068:9184   */\n      swap1\n      pop\n        /* \"#utility.yul\":8818:9191   */\n      swap3\n      swap2\n      pop\n      pop\n      jump\t// out\n        /* \"#utility.yul\":9197:9257   */\n    tag_258:\n        /* \"#utility.yul\":9225:9228   */\n      0x00\n        /* \"#utility.yul\":9246:9251   */\n      dup2\n        /* \"#utility.yul\":9239:9251   */\n      swap1\n      pop\n        /* \"#utility.yul\":9197:9257   */\n      swap2\n      swap1\n      pop\n      jump\t// out\n        /* \"#utility.yul\":9263:9405   */\n    tag_259:\n        /* \"#utility.yul\":9313:9322   */\n      0x00\n        /* \"#utility.yul\":9346:9399   */\n      tag_375\n        /* \"#utility.yul\":9364:9398   */\n      tag_376\n        /* \"#utility.yul\":9373:9397   */\n      tag_377\n        /* \"#utility.yul\":9391:9396   */\n      dup5\n        /* \"#utility.yul\":9373:9397   */\n      tag_233\n      jump\t// in\n    tag_377:\n        /* \"#utility.yul\":9364:9398   */\n      tag_258\n      jump\t// in\n    tag_376:\n        /* \"#utility.yul\":9346:9399   */\n      tag_233\n      jump\t// in\n    tag_375:\n        /* \"#utility.yul\":9333:9399   */\n      swap1\n      pop\n        /* \"#utility.yul\":9263:9405   */\n      swap2\n      swap1\n      pop\n      jump\t// out\n        /* \"#utility.yul\":9411:9537   */\n    tag_260:\n        /* \"#utility.yul\":9461:9470   */\n      0x00\n        /* \"#utility.yul\":9494:9531   */\n      tag_379\n        /* \"#utility.yul\":9525:9530   */\n      dup3\n        /* \"#utility.yul\":9494:9531   */\n      tag_259\n      jump\t// in\n    tag_379:\n        /* \"#utility.yul\":9481:9531   */\n      swap1\n      pop\n        /* \"#utility.yul\":9411:9537   */\n      swap2\n      swap1\n      pop\n      jump\t// out\n        /* \"#utility.yul\":9543:9682   */\n    tag_261:\n        /* \"#utility.yul\":9606:9615   */\n      0x00\n        /* \"#utility.yul\":9639:9676   */\n      tag_381\n        /* \"#utility.yul\":9670:9675   */\n      dup3\n        /* \"#utility.yul\":9639:9676   */\n      tag_260\n      jump\t// in\n    tag_381:\n        /* \"#utility.yul\":9626:9676   */\n      swap1\n      pop\n        /* \"#utility.yul\":9543:9682   */\n      swap2\n      swap1\n      pop\n      jump\t// out\n        /* \"#utility.yul\":9688:9845   */\n    tag_262:\n        /* \"#utility.yul\":9788:9838   */\n      tag_383\n        /* \"#utility.yul\":9832:9837   */\n      dup2\n        /* \"#utility.yul\":9788:9838   */\n      tag_261\n      jump\t// in\n    tag_383:\n        /* \"#utility.yul\":9783:9786   */\n      dup3\n        /* \"#utility.yul\":9776:9839   */\n      mstore\n        /* \"#utility.yul\":9688:9845   */\n      pop\n      pop\n      jump\t// out\n        /* \"#utility.yul\":9851:10099   */\n    tag_86:\n        /* \"#utility.yul\":9957:9961   */\n      0x00\n        /* \"#utility.yul\":9995:9997   */\n      0x20\n        /* \"#utility.yul\":9984:9993   */\n      dup3\n        /* \"#utility.yul\":9980:9998   */\n      add\n        /* \"#utility.yul\":9972:9998   */\n      swap1\n      pop\n        /* \"#utility.yul\":10008:10092   */\n      tag_385\n        /* \"#utility.yul\":10089:10090   */\n      0x00\n        /* \"#utility.yul\":10078:10087   */\n      dup4\n        /* \"#utility.yul\":10074:10091   */\n      add\n        /* \"#utility.yul\":10065:10071   */\n      dup5\n        /* \"#utility.yul\":10008:10092   */\n      tag_262\n      jump\t// in\n    tag_385:\n        /* \"#utility.yul\":9851:10099   */\n      swap3\n      swap2\n      pop\n      pop\n      jump\t// out\n        /* \"#utility.yul\":10105:10274   */\n    tag_263:\n        /* \"#utility.yul\":10189:10200   */\n      0x00\n        /* \"#utility.yul\":10223:10229   */\n      dup3\n        /* \"#utility.yul\":10218:10221   */\n      dup3\n        /* \"#utility.yul\":10211:10230   */\n      mstore\n        /* \"#utility.yul\":10263:10267   */\n      0x20\n        /* \"#utility.yul\":10258:10261   */\n      dup3\n        /* \"#utility.yul\":10254:10268   */\n      add\n        /* \"#utility.yul\":10239:10268   */\n      swap1\n      pop\n        /* \"#utility.yul\":10105:10274   */\n      swap3\n      swap2\n      pop\n      pop\n      jump\t// out\n        /* \"#utility.yul\":10280:10445   */\n    tag_264:\n        /* \"#utility.yul\":10420:10437   */\n      0x4c656e677468206d69736d617463680000000000000000000000000000000000\n        /* \"#utility.yul\":10416:10417   */\n      0x00\n        /* \"#utility.yul\":10408:10414   */\n      dup3\n        /* \"#utility.yul\":10404:10418   */\n      add\n        /* \"#utility.yul\":10397:10438   */\n      mstore\n        /* \"#utility.yul\":10280:10445   */\n      pop\n      jump\t// out\n        /* \"#utility.yul\":10451:10817   */\n    tag_265:\n        /* \"#utility.yul\":10593:10596   */\n      0x00\n        /* \"#utility.yul\":10614:10681   */\n      tag_389\n        /* \"#utility.yul\":10678:10680   */\n      0x0f\n        /* \"#utility.yul\":10673:10676   */\n      dup4\n        /* \"#utility.yul\":10614:10681   */\n      tag_263\n      jump\t// in\n    tag_389:\n        /* \"#utility.yul\":10607:10681   */\n      swap2\n      pop\n        /* \"#utility.yul\":10690:10783   */\n      tag_390\n        /* \"#utility.yul\":10779:10782   */\n      dup3\n        /* \"#utility.yul\":10690:10783   */\n      tag_264\n      jump\t// in\n    tag_390:\n        /* \"#utility.yul\":10808:10810   */\n      0x20\n        /* \"#utility.yul\":10803:10806   */\n      dup3\n        /* \"#utility.yul\":10799:10811   */\n      add\n        /* \"#utility.yul\":10792:10811   */\n      swap1\n      pop\n        /* \"#utility.yul\":10451:10817   */\n      swap2\n      swap1\n      pop\n      jump\t// out\n        /* \"#utility.yul\":10823:11242   */\n    tag_97:\n        /* \"#utility.yul\":10989:10993   */\n      0x00\n        /* \"#utility.yul\":11027:11029   */\n      0x20\n        /* \"#utility.yul\":11016:11025   */\n      dup3\n        /* \"#utility.yul\":11012:11030   */\n      add\n        /* \"#utility.yul\":11004:11030   */\n      swap1\n      pop\n        /* \"#utility.yul\":11076:11085   */\n      dup2\n        /* \"#utility.yul\":11070:11074   */\n      dup2\n        /* \"#utility.yul\":11066:11086   */\n      sub\n        /* \"#utility.yul\":11062:11063   */\n      0x00\n        /* \"#utility.yul\":11051:11060   */\n      dup4\n        /* \"#utility.yul\":11047:11064   */\n      add\n        /* \"#utility.yul\":11040:11087   */\n      mstore\n        /* \"#utility.yul\":11104:11235   */\n      tag_392\n        /* \"#utility.yul\":11230:11234   */\n      dup2\n        /* \"#utility.yul\":11104:11235   */\n      tag_265\n      jump\t// in\n    tag_392:\n        /* \"#utility.yul\":11096:11235   */\n      swap1\n      pop\n        /* \"#utility.yul\":10823:11242   */\n      swap2\n      swap1\n      pop\n      jump\t// out\n        /* \"#utility.yul\":11248:11428   */\n    tag_103:\n        /* \"#utility.yul\":11296:11373   */\n      0x4e487b7100000000000000000000000000000000000000000000000000000000\n        /* \"#utility.yul\":11293:11294   */\n      0x00\n        /* \"#utility.yul\":11286:11374   */\n      mstore\n        /* \"#utility.yul\":11393:11397   */\n      0x32\n        /* \"#utility.yul\":11390:11391   */\n      0x04\n        /* \"#utility.yul\":11383:11398   */\n      mstore\n        /* \"#utility.yul\":11417:11421   */\n      0x24\n        /* \"#utility.yul\":11414:11415   */\n      0x00\n        /* \"#utility.yul\":11407:11422   */\n      revert\n        /* \"#utility.yul\":11434:11577   */\n    tag_266:\n        /* \"#utility.yul\":11491:11496   */\n      0x00\n        /* \"#utility.yul\":11522:11528   */\n      dup2\n        /* \"#utility.yul\":11516:11529   */\n      mload\n        /* \"#utility.yul\":11507:11529   */\n      swap1\n      pop\n        /* \"#utility.yul\":11538:11571   */\n      tag_395\n        /* \"#utility.yul\":11565:11570   */\n      dup2\n        /* \"#utility.yul\":11538:11571   */\n      tag_246\n      jump\t// in\n    tag_395:\n        /* \"#utility.yul\":11434:11577   */\n      swap3\n      swap2\n      pop\n      pop\n      jump\t// out\n        /* \"#utility.yul\":11583:11934   */\n    tag_112:\n        /* \"#utility.yul\":11653:11659   */\n      0x00\n        /* \"#utility.yul\":11702:11704   */\n      0x20\n        /* \"#utility.yul\":11690:11699   */\n      dup3\n        /* \"#utility.yul\":11681:11688   */\n      dup5\n        /* \"#utility.yul\":11677:11700   */\n      sub\n        /* \"#utility.yul\":11673:11705   */\n      slt\n        /* \"#utility.yul\":11670:11789   */\n      iszero\n      tag_397\n      jumpi\n        /* \"#utility.yul\":11708:11787   */\n      tag_398\n      tag_231\n      jump\t// in\n    tag_398:\n        /* \"#utility.yul\":11670:11789   */\n    tag_397:\n        /* \"#utility.yul\":11828:11829   */\n      0x00\n        /* \"#utility.yul\":11853:11917   */\n      tag_399\n        /* \"#utility.yul\":11909:11916   */\n      dup5\n        /* \"#utility.yul\":11900:11906   */\n      dup3\n        /* \"#utility.yul\":11889:11898   */\n      dup6\n        /* \"#utility.yul\":11885:11907   */\n      add\n        /* \"#utility.yul\":11853:11917   */\n      tag_266\n      jump\t// in\n    tag_399:\n        /* \"#utility.yul\":11843:11917   */\n      swap2\n      pop\n        /* \"#utility.yul\":11799:11927   */\n      pop\n        /* \"#utility.yul\":11583:11934   */\n      swap3\n      swap2\n      pop\n      pop\n      jump\t// out\n        /* \"#utility.yul\":11940:12272   */\n    tag_115:\n        /* \"#utility.yul\":12061:12065   */\n      0x00\n        /* \"#utility.yul\":12099:12101   */\n      0x40\n        /* \"#utility.yul\":12088:12097   */\n      dup3\n        /* \"#utility.yul\":12084:12102   */\n      add\n        /* \"#utility.yul\":12076:12102   */\n      swap1\n      pop\n        /* \"#utility.yul\":12112:12183   */\n      tag_401\n        /* \"#utility.yul\":12180:12181   */\n      0x00\n        /* \"#utility.yul\":12169:12178   */\n      dup4\n        /* \"#utility.yul\":12165:12182   */\n      add\n        /* \"#utility.yul\":12156:12162   */\n      dup6\n        /* \"#utility.yul\":12112:12183   */\n      tag_248\n      jump\t// in\n    tag_401:\n        /* \"#utility.yul\":12193:12265   */\n      tag_402\n        /* \"#utility.yul\":12261:12263   */\n      0x20\n        /* \"#utility.yul\":12250:12259   */\n      dup4\n        /* \"#utility.yul\":12246:12264   */\n      add\n        /* \"#utility.yul\":12237:12243   */\n      dup5\n        /* \"#utility.yul\":12193:12265   */\n      tag_245\n      jump\t// in\n    tag_402:\n        /* \"#utility.yul\":11940:12272   */\n      swap4\n      swap3\n      pop\n      pop\n      pop\n      jump\t// out\n        /* \"#utility.yul\":12278:12415   */\n    tag_267:\n        /* \"#utility.yul\":12332:12337   */\n      0x00\n        /* \"#utility.yul\":12363:12369   */\n      dup2\n        /* \"#utility.yul\":12357:12370   */\n      mload\n        /* \"#utility.yul\":12348:12370   */\n      swap1\n      pop\n        /* \"#utility.yul\":12379:12409   */\n      tag_404\n        /* \"#utility.yul\":12403:12408   */\n      dup2\n        /* \"#utility.yul\":12379:12409   */\n      tag_249\n      jump\t// in\n    tag_404:\n        /* \"#utility.yul\":12278:12415   */\n      swap3\n      swap2\n      pop\n      pop\n      jump\t// out\n        /* \"#utility.yul\":12421:12766   */\n    tag_119:\n        /* \"#utility.yul\":12488:12494   */\n      0x00\n        /* \"#utility.yul\":12537:12539   */\n      0x20\n        /* \"#utility.yul\":12525:12534   */\n      dup3\n        /* \"#utility.yul\":12516:12523   */\n      dup5\n        /* \"#utility.yul\":12512:12535   */\n      sub\n        /* \"#utility.yul\":12508:12540   */\n      slt\n        /* \"#utility.yul\":12505:12624   */\n      iszero\n      tag_406\n      jumpi\n        /* \"#utility.yul\":12543:12622   */\n      tag_407\n      tag_231\n      jump\t// in\n    tag_407:\n        /* \"#utility.yul\":12505:12624   */\n    tag_406:\n        /* \"#utility.yul\":12663:12664   */\n      0x00\n        /* \"#utility.yul\":12688:12749   */\n      tag_408\n        /* \"#utility.yul\":12741:12748   */\n      dup5\n        /* \"#utility.yul\":12732:12738   */\n      dup3\n        /* \"#utility.yul\":12721:12730   */\n      dup6\n        /* \"#utility.yul\":12717:12739   */\n      add\n        /* \"#utility.yul\":12688:12749   */\n      tag_267\n      jump\t// in\n    tag_408:\n        /* \"#utility.yul\":12678:12749   */\n      swap2\n      pop\n        /* \"#utility.yul\":12634:12759   */\n      pop\n        /* \"#utility.yul\":12421:12766   */\n      swap3\n      swap2\n      pop\n      pop\n      jump\t// out\n        /* \"#utility.yul\":12772:12952   */\n    tag_268:\n        /* \"#utility.yul\":12820:12897   */\n      0x4e487b7100000000000000000000000000000000000000000000000000000000\n        /* \"#utility.yul\":12817:12818   */\n      0x00\n        /* \"#utility.yul\":12810:12898   */\n      mstore\n        /* \"#utility.yul\":12917:12921   */\n      0x11\n        /* \"#utility.yul\":12914:12915   */\n      0x04\n        /* \"#utility.yul\":12907:12922   */\n      mstore\n        /* \"#utility.yul\":12941:12945   */\n      0x24\n        /* \"#utility.yul\":12938:12939   */\n      0x00\n        /* \"#utility.yul\":12931:12946   */\n      revert\n        /* \"#utility.yul\":12958:13149   */\n    tag_180:\n        /* \"#utility.yul\":12998:13001   */\n      0x00\n        /* \"#utility.yul\":13017:13037   */\n      tag_411\n        /* \"#utility.yul\":13035:13036   */\n      dup3\n        /* \"#utility.yul\":13017:13037   */\n      tag_244\n      jump\t// in\n    tag_411:\n        /* \"#utility.yul\":13012:13037   */\n      swap2\n      pop\n        /* \"#utility.yul\":13051:13071   */\n      tag_412\n        /* \"#utility.yul\":13069:13070   */\n      dup4\n        /* \"#utility.yul\":13051:13071   */\n      tag_244\n      jump\t// in\n    tag_412:\n        /* \"#utility.yul\":13046:13071   */\n      swap3\n      pop\n        /* \"#utility.yul\":13094:13095   */\n      dup3\n        /* \"#utility.yul\":13091:13092   */\n      dup3\n        /* \"#utility.yul\":13087:13096   */\n      add\n        /* \"#utility.yul\":13080:13096   */\n      swap1\n      pop\n        /* \"#utility.yul\":13115:13118   */\n      dup1\n        /* \"#utility.yul\":13112:13113   */\n      dup3\n        /* \"#utility.yul\":13109:13119   */\n      gt\n        /* \"#utility.yul\":13106:13142   */\n      iszero\n      tag_413\n      jumpi\n        /* \"#utility.yul\":13122:13140   */\n      tag_414\n      tag_268\n      jump\t// in\n    tag_414:\n        /* \"#utility.yul\":13106:13142   */\n    tag_413:\n        /* \"#utility.yul\":12958:13149   */\n      swap3\n      swap2\n      pop\n      pop\n      jump\t// out\n\n    auxdata: 0xa2646970667358221220a334f1ccc3e4164e3ac471b02ebdbe334947e171f3997b2bd80f6e24204a8b5864736f6c63430008180033\n}\n",
				"bytecode": {
					"linkReferences": {},
					"object": "60a06040523480156200001157600080fd5b506040516200255838038062002558833981810160405281019062000037919062000256565b81600073ffffffffffffffffffffffffffffffffffffffff168173ffffffffffffffffffffffffffffffffffffffff1603620000ad5760006040517f1e4fbdf7000000000000000000000000000000000000000000000000000000008152600401620000a49190620002ae565b60405180910390fd5b806000806101000a81548173ffffffffffffffffffffffffffffffffffffffff021916908373ffffffffffffffffffffffffffffffffffffffff1602179055508073ffffffffffffffffffffffffffffffffffffffff16600073ffffffffffffffffffffffffffffffffffffffff167f8be0079c531659141344cd1fd0a4f28419497f9722a3daafe3b4186f6b6457e060405160405180910390a350600073ffffffffffffffffffffffffffffffffffffffff168173ffffffffffffffffffffffffffffffffffffffff1603620001b0576040517fd92e233d00000000000000000000000000000000000000000000000000000000815260040160405180910390fd5b8073ffffffffffffffffffffffffffffffffffffffff1660808173ffffffffffffffffffffffffffffffffffffffff16815250505050620002cb565b600080fd5b600073ffffffffffffffffffffffffffffffffffffffff82169050919050565b60006200021e82620001f1565b9050919050565b620002308162000211565b81146200023c57600080fd5b50565b600081519050620002508162000225565b92915050565b6000806040838503121562000270576200026f620001ec565b5b600062000280858286016200023f565b925050602062000293858286016200023f565b9150509250929050565b620002a88162000211565b82525050565b6000602082019050620002c560008301846200029d565b92915050565b60805161223262000326600039600081816105490152818161061d015281816108b901528181610c4201528181610d16015281816112bf015281816113970152818161175d01528181611831015261195b01526122326000f3fe608060405234801561001057600080fd5b506004361061010b5760003560e01c80636109f2b9116100a2578063ae4289c711610071578063ae4289c7146102b6578063b91336f0146102d4578063bddf7ac114610304578063d76bbd5214610320578063f2fde38b1461033e5761010b565b80636109f2b91461024257806364fbbf901461025e5780638da5cb5b1461028e578063a59f01ba146102ac5761010b565b80633d65de44116100de5780633d65de44146101bc5780633f0c188f146101da578063558a72971461020a5780635795027f146102265761010b565b806313e7c9d814610110578063170becbe146101405780632325101b1461015c578063366931521461018c575b600080fd5b61012a60048036038101906101259190611ba4565b61035a565b6040516101379190611bec565b60405180910390f35b61015a60048036038101906101559190611cc2565b61037a565b005b61017660048036038101906101719190611d43565b61076f565b6040516101839190611d9c565b60405180910390f35b6101a660048036038101906101a19190611de3565b610876565b6040516101b39190611e1f565b60405180910390f35b6101c46108b5565b6040516101d19190611d9c565b60405180910390f35b6101f460048036038101906101ef9190611ba4565b610956565b6040516102019190611bec565b60405180910390f35b610224600480360381019061021f9190611e66565b610976565b005b610240600480360381019061023b9190611ea6565b610b15565b005b61025c60048036038101906102579190611e66565b610e55565b005b61027860048036038101906102739190611ba4565b6110ba565b6040516102859190611d9c565b60405180910390f35b610296611202565b6040516102a39190611e1f565b60405180910390f35b6102b461122b565b005b6102be6114cc565b6040516102cb9190611fa4565b60405180910390f35b6102ee60048036038101906102e99190611d43565b61155a565b6040516102fb9190611bec565b60405180910390f35b61031e60048036038101906103199190611ea6565b611664565b005b610328611959565b6040516103359190612025565b60405180910390f35b61035860048036038101906103539190611ba4565b61197d565b005b60016020528060005260406000206000915054906101000a900460ff1681565b600160003373ffffffffffffffffffffffffffffffffffffffff1673ffffffffffffffffffffffffffffffffffffffff16815260200190815260200160002060009054906101000a900460ff1615801561040757506103d7611202565b73ffffffffffffffffffffffffffffffffffffffff163373ffffffffffffffffffffffffffffffffffffffff1614155b1561043e576040517f7c214f0400000000000000000000000000000000000000000000000000000000815260040160405180910390fd5b600084849050905082829050811461048b576040517f08c379a00000000000000000000000000000000000000000000000000000000081526004016104829061209d565b60405180910390fd5b60005b818110156107675760008686838181106104ab576104aa6120bd565b5b90506020020160208101906104c09190611ba4565b905060008585848181106104d7576104d66120bd565b5b905060200201359050600073ffffffffffffffffffffffffffffffffffffffff168273ffffffffffffffffffffffffffffffffffffffff1603610546576040517fd92e233d00000000000000000000000000000000000000000000000000000000815260040160405180910390fd5b807f000000000000000000000000000000000000000000000000000000000000000073ffffffffffffffffffffffffffffffffffffffff166370a08231306040518263ffffffff1660e01b81526004016105a09190611e1f565b602060405180830381865afa1580156105bd573d6000803e3d6000fd5b505050506040513d601f19601f820116820180604052508101906105e19190612101565b1015610619576040517fcd85a9b600000000000000000000000000000000000000000000000000000000815260040160405180910390fd5b60007f000000000000000000000000000000000000000000000000000000000000000073ffffffffffffffffffffffffffffffffffffffff1663a9059cbb84846040518363ffffffff1660e01b815260040161067692919061212e565b6020604051808303816000875af1158015610695573d6000803e3d6000fd5b505050506040513d601f19601f820116820180604052508101906106b9919061216c565b9050806106f2576040517f90b8ec1800000000000000000000000000000000000000000000000000000000815260040160405180910390fd5b8273ffffffffffffffffffffffffffffffffffffffff163373ffffffffffffffffffffffffffffffffffffffff167f540798df468d7b23d11f156fdb954cb19ad414d150722a7b6d55ba369dea792e8460405161074f9190611d9c565b60405180910390a3505050808060010191505061048e565b505050505050565b6000600260008373ffffffffffffffffffffffffffffffffffffffff1673ffffffffffffffffffffffffffffffffffffffff16815260200190815260200160002060009054906101000a900460ff166107f4576040517fe4fad98200000000000000000000000000000000000000000000000000000000815260040160405180910390fd5b8173ffffffffffffffffffffffffffffffffffffffff166370a08231846040518263ffffffff1660e01b815260040161082d9190611e1f565b602060405180830381865afa15801561084a573d6000803e3d6000fd5b505050506040513d601f19601f8201168201806040525081019061086e9190612101565b905092915050565b6003818154811061088657600080fd5b906000526020600020016000915054906101000a900473ffffffffffffffffffffffffffffffffffffffff1681565b60007f000000000000000000000000000000000000000000000000000000000000000073ffffffffffffffffffffffffffffffffffffffff166370a08231306040518263ffffffff1660e01b81526004016109109190611e1f565b602060405180830381865afa15801561092d573d6000803e3d6000fd5b505050506040513d601f19601f820116820180604052508101906109519190612101565b905090565b60026020528060005260406000206000915054906101000a900460ff1681565b60008054906101000a900473ffffffffffffffffffffffffffffffffffffffff1673ffffffffffffffffffffffffffffffffffffffff163373ffffffffffffffffffffffffffffffffffffffff1614610a0657336040517f118cdaa70000000000000000000000000000000000000000000000000000000081526004016109fd9190611e1f565b60405180910390fd5b600073ffffffffffffffffffffffffffffffffffffffff168273ffffffffffffffffffffffffffffffffffffffff1603610a6c576040517fd92e233d00000000000000000000000000000000000000000000000000000000815260040160405180910390fd5b80600160008473ffffffffffffffffffffffffffffffffffffffff1673ffffffffffffffffffffffffffffffffffffffff16815260200190815260200160002060006101000a81548160ff0219169083151502179055508173ffffffffffffffffffffffffffffffffffffffff167f966c160e1c4dbc7df8d69af4ace01e9297c3cf016397b7914971f2fbfa32672d82604051610b099190611bec565b60405180910390a25050565b600160003373ffffffffffffffffffffffffffffffffffffffff1673ffffffffffffffffffffffffffffffffffffffff16815260200190815260200160002060009054906101000a900460ff16158015610ba25750610b72611202565b73ffffffffffffffffffffffffffffffffffffffff163373ffffffffffffffffffffffffffffffffffffffff1614155b15610bd9576040517f7c214f0400000000000000000000000000000000000000000000000000000000815260040160405180910390fd5b600073ffffffffffffffffffffffffffffffffffffffff168273ffffffffffffffffffffffffffffffffffffffff1603610c3f576040517fd92e233d00000000000000000000000000000000000000000000000000000000815260040160405180910390fd5b807f000000000000000000000000000000000000000000000000000000000000000073ffffffffffffffffffffffffffffffffffffffff166370a08231306040518263ffffffff1660e01b8152600401610c999190611e1f565b602060405180830381865afa158015610cb6573d6000803e3d6000fd5b505050506040513d601f19601f82011682018060405250810190610cda9190612101565b1015610d12576040517fcd85a9b600000000000000000000000000000000000000000000000000000000815260040160405180910390fd5b60007f000000000000000000000000000000000000000000000000000000000000000073ffffffffffffffffffffffffffffffffffffffff1663a9059cbb84846040518363ffffffff1660e01b8152600401610d6f92919061212e565b6020604051808303816000875af1158015610d8e573d6000803e3d6000fd5b505050506040513d601f19601f82011682018060405250810190610db2919061216c565b905080610deb576040517f90b8ec1800000000000000000000000000000000000000000000000000000000815260040160405180910390fd5b8273ffffffffffffffffffffffffffffffffffffffff163373ffffffffffffffffffffffffffffffffffffffff167f540798df468d7b23d11f156fdb954cb19ad414d150722a7b6d55ba369dea792e84604051610e489190611d9c565b60405180910390a3505050565b60008054906101000a900473ffffffffffffffffffffffffffffffffffffffff1673ffffffffffffffffffffffffffffffffffffffff163373ffffffffffffffffffffffffffffffffffffffff1614610ee557336040517f118cdaa7000000000000000000000000000000000000000000000000000000008152600401610edc9190611e1f565b60405180910390fd5b600073ffffffffffffffffffffffffffffffffffffffff168273ffffffffffffffffffffffffffffffffffffffff1603610f4b576040517fd92e233d00000000000000000000000000000000000000000000000000000000815260040160405180910390fd5b6000600260008473ffffffffffffffffffffffffffffffffffffffff1673ffffffffffffffffffffffffffffffffffffffff16815260200190815260200160002060009054906101000a900460ff16905081600260008573ffffffffffffffffffffffffffffffffffffffff1673ffffffffffffffffffffffffffffffffffffffff16815260200190815260200160002060006101000a81548160ff021916908315150217905550818015610ffe575080155b15611067576003839080600181540180825580915050600190039060005260206000200160009091909190916101000a81548173ffffffffffffffffffffffffffffffffffffffff021916908373ffffffffffffffffffffffffffffffffffffffff1602179055505b8273ffffffffffffffffffffffffffffffffffffffff167f2c10bc6cefab6fd0600dcb515a58acd082099f239822a057da90233e9c4f48c5836040516110ad9190611bec565b60405180910390a2505050565b600080600380549050905060005b818110156111fb576000600382815481106110e6576110e56120bd565b5b9060005260206000200160009054906101000a900473ffffffffffffffffffffffffffffffffffffffff169050600260008273ffffffffffffffffffffffffffffffffffffffff1673ffffffffffffffffffffffffffffffffffffffff16815260200190815260200160002060009054906101000a900460ff16156111ed578073ffffffffffffffffffffffffffffffffffffffff166370a08231866040518263ffffffff1660e01b815260040161119e9190611e1f565b602060405180830381865afa1580156111bb573d6000803e3d6000fd5b505050506040513d601f19601f820116820180604052508101906111df9190612101565b846111ea91906121c8565b93505b5080806001019150506110c8565b5050919050565b60008060009054906101000a900473ffffffffffffffffffffffffffffffffffffffff16905090565b60008054906101000a900473ffffffffffffffffffffffffffffffffffffffff1673ffffffffffffffffffffffffffffffffffffffff163373ffffffffffffffffffffffffffffffffffffffff16146112bb57336040517f118cdaa70000000000000000000000000000000000000000000000000000000081526004016112b29190611e1f565b60405180910390fd5b60007f000000000000000000000000000000000000000000000000000000000000000073ffffffffffffffffffffffffffffffffffffffff166370a08231306040518263ffffffff1660e01b81526004016113169190611e1f565b602060405180830381865afa158015611333573d6000803e3d6000fd5b505050506040513d601f19601f820116820180604052508101906113579190612101565b905060008103611393576040517fcd85a9b600000000000000000000000000000000000000000000000000000000815260040160405180910390fd5b60007f000000000000000000000000000000000000000000000000000000000000000073ffffffffffffffffffffffffffffffffffffffff1663a9059cbb6113d9611202565b846040518363ffffffff1660e01b81526004016113f792919061212e565b6020604051808303816000875af1158015611416573d6000803e3d6000fd5b505050506040513d601f19601f8201168201806040525081019061143a919061216c565b905080611473576040517f90b8ec1800000000000000000000000000000000000000000000000000000000815260040160405180910390fd5b61147b611202565b73ffffffffffffffffffffffffffffffffffffffff167f505868a902812249ac23c1a1e6cfde9b4fd503466f8424dbb304332b9d5d8586836040516114c09190611d9c565b60405180910390a25050565b6060600380548060200260200160405190810160405280929190818152602001828054801561155057602002820191906000526020600020905b8160009054906101000a900473ffffffffffffffffffffffffffffffffffffffff1673ffffffffffffffffffffffffffffffffffffffff1681526020019060010190808311611506575b5050505050905090565b6000600260008373ffffffffffffffffffffffffffffffffffffffff1673ffffffffffffffffffffffffffffffffffffffff16815260200190815260200160002060009054906101000a900460ff166115df576040517fe4fad98200000000000000000000000000000000000000000000000000000000815260040160405180910390fd5b60008273ffffffffffffffffffffffffffffffffffffffff166370a08231856040518263ffffffff1660e01b815260040161161a9190611e1f565b602060405180830381865afa158015611637573d6000803e3d6000fd5b505050506040513d601f19601f8201168201806040525081019061165b9190612101565b11905092915050565b60008054906101000a900473ffffffffffffffffffffffffffffffffffffffff1673ffffffffffffffffffffffffffffffffffffffff163373ffffffffffffffffffffffffffffffffffffffff16146116f457336040517f118cdaa70000000000000000000000000000000000000000000000000000000081526004016116eb9190611e1f565b60405180910390fd5b600073ffffffffffffffffffffffffffffffffffffffff168273ffffffffffffffffffffffffffffffffffffffff160361175a576040517fd92e233d00000000000000000000000000000000000000000000000000000000815260040160405180910390fd5b807f000000000000000000000000000000000000000000000000000000000000000073ffffffffffffffffffffffffffffffffffffffff166370a08231306040518263ffffffff1660e01b81526004016117b49190611e1f565b602060405180830381865afa1580156117d1573d6000803e3d6000fd5b505050506040513d601f19601f820116820180604052508101906117f59190612101565b101561182d576040517fcd85a9b600000000000000000000000000000000000000000000000000000000815260040160405180910390fd5b60007f000000000000000000000000000000000000000000000000000000000000000073ffffffffffffffffffffffffffffffffffffffff1663a9059cbb84846040518363ffffffff1660e01b815260040161188a92919061212e565b6020604051808303816000875af11580156118a9573d6000803e3d6000fd5b505050506040513d601f19601f820116820180604052508101906118cd919061216c565b905080611906576040517f90b8ec1800000000000000000000000000000000000000000000000000000000815260040160405180910390fd5b8273ffffffffffffffffffffffffffffffffffffffff167f505868a902812249ac23c1a1e6cfde9b4fd503466f8424dbb304332b9d5d85868360405161194c9190611d9c565b60405180910390a2505050565b7f000000000000000000000000000000000000000000000000000000000000000081565b60008054906101000a900473ffffffffffffffffffffffffffffffffffffffff1673ffffffffffffffffffffffffffffffffffffffff163373ffffffffffffffffffffffffffffffffffffffff1614611a0d57336040517f118cdaa7000000000000000000000000000000000000000000000000000000008152600401611a049190611e1f565b60405180910390fd5b600073ffffffffffffffffffffffffffffffffffffffff168173ffffffffffffffffffffffffffffffffffffffff1603611a7f5760006040517f1e4fbdf7000000000000000000000000000000000000000000000000000000008152600401611a769190611e1f565b60405180910390fd5b8073ffffffffffffffffffffffffffffffffffffffff1660008054906101000a900473ffffffffffffffffffffffffffffffffffffffff1673ffffffffffffffffffffffffffffffffffffffff167f8be0079c531659141344cd1fd0a4f28419497f9722a3daafe3b4186f6b6457e060405160405180910390a3806000806101000a81548173ffffffffffffffffffffffffffffffffffffffff021916908373ffffffffffffffffffffffffffffffffffffffff16021790555050565b600080fd5b600080fd5b600073ffffffffffffffffffffffffffffffffffffffff82169050919050565b6000611b7182611b46565b9050919050565b611b8181611b66565b8114611b8c57600080fd5b50565b600081359050611b9e81611b78565b92915050565b600060208284031215611bba57611bb9611b3c565b5b6000611bc884828501611b8f565b91505092915050565b60008115159050919050565b611be681611bd1565b82525050565b6000602082019050611c016000830184611bdd565b92915050565b600080fd5b600080fd5b600080fd5b60008083601f840112611c2c57611c2b611c07565b5b8235905067ffffffffffffffff811115611c4957611c48611c0c565b5b602083019150836020820283011115611c6557611c64611c11565b5b9250929050565b60008083601f840112611c8257611c81611c07565b5b8235905067ffffffffffffffff811115611c9f57611c9e611c0c565b5b602083019150836020820283011115611cbb57611cba611c11565b5b9250929050565b60008060008060408587031215611cdc57611cdb611b3c565b5b600085013567ffffffffffffffff811115611cfa57611cf9611b41565b5b611d0687828801611c16565b9450945050602085013567ffffffffffffffff811115611d2957611d28611b41565b5b611d3587828801611c6c565b925092505092959194509250565b60008060408385031215611d5a57611d59611b3c565b5b6000611d6885828601611b8f565b9250506020611d7985828601611b8f565b9150509250929050565b6000819050919050565b611d9681611d83565b82525050565b6000602082019050611db16000830184611d8d565b92915050565b611dc081611d83565b8114611dcb57600080fd5b50565b600081359050611ddd81611db7565b92915050565b600060208284031215611df957611df8611b3c565b5b6000611e0784828501611dce565b91505092915050565b611e1981611b66565b82525050565b6000602082019050611e346000830184611e10565b92915050565b611e4381611bd1565b8114611e4e57600080fd5b50565b600081359050611e6081611e3a565b92915050565b60008060408385031215611e7d57611e7c611b3c565b5b6000611e8b85828601611b8f565b9250506020611e9c85828601611e51565b9150509250929050565b60008060408385031215611ebd57611ebc611b3c565b5b6000611ecb85828601611b8f565b9250506020611edc85828601611dce565b9150509250929050565b600081519050919050565b600082825260208201905092915050565b6000819050602082019050919050565b611f1b81611b66565b82525050565b6000611f2d8383611f12565b60208301905092915050565b6000602082019050919050565b6000611f5182611ee6565b611f5b8185611ef1565b9350611f6683611f02565b8060005b83811015611f97578151611f7e8882611f21565b9750611f8983611f39565b925050600181019050611f6a565b5085935050505092915050565b60006020820190508181036000830152611fbe8184611f46565b905092915050565b6000819050919050565b6000611feb611fe6611fe184611b46565b611fc6565b611b46565b9050919050565b6000611ffd82611fd0565b9050919050565b600061200f82611ff2565b9050919050565b61201f81612004565b82525050565b600060208201905061203a6000830184612016565b92915050565b600082825260208201905092915050565b7f4c656e677468206d69736d617463680000000000000000000000000000000000600082015250565b6000612087600f83612040565b915061209282612051565b602082019050919050565b600060208201905081810360008301526120b68161207a565b9050919050565b7f4e487b7100000000000000000000000000000000000000000000000000000000600052603260045260246000fd5b6000815190506120fb81611db7565b92915050565b60006020828403121561211757612116611b3c565b5b6000612125848285016120ec565b91505092915050565b60006040820190506121436000830185611e10565b6121506020830184611d8d565b9392505050565b60008151905061216681611e3a565b92915050565b60006020828403121561218257612181611b3c565b5b600061219084828501612157565b91505092915050565b7f4e487b7100000000000000000000000000000000000000000000000000000000600052601160045260246000fd5b60006121d382611d83565b91506121de83611d83565b92508282019050808211156121f6576121f5612199565b5b9291505056fea2646970667358221220a334f1ccc3e4164e3ac471b02ebdbe334947e171f3997b2bd80f6e24204a8b5864736f6c63430008180033",
					"opcodes": "PUSH1 0xA0 PUSH1 0x40 MSTORE CALLVALUE DUP1 ISZERO PUSH3 0x11 JUMPI PUSH1 0x0 DUP1 REVERT JUMPDEST POP PUSH1 0x40 MLOAD PUSH3 0x2558 CODESIZE SUB DUP1 PUSH3 0x2558 DUP4 CODECOPY DUP2 DUP2 ADD PUSH1 0x40 MSTORE DUP2 ADD SWAP1 PUSH3 0x37 SWAP2 SWAP1 PUSH3 0x256 JUMP JUMPDEST DUP2 PUSH1 0x0 PUSH20 0xFFFFFFFFFFFFFFFFFFFFFFFFFFFFFFFFFFFFFFFF AND DUP2 PUSH20 0xFFFFFFFFFFFFFFFFFFFFFFFFFFFFFFFFFFFFFFFF AND SUB PUSH3 0xAD JUMPI PUSH1 0x0 PUSH1 0x40 MLOAD PUSH32 0x1E4FBDF700000000000000000000000000000000000000000000000000000000 DUP2 MSTORE PUSH1 0x4 ADD PUSH3 0xA4 SWAP2 SWAP1 PUSH3 0x2AE JUMP JUMPDEST PUSH1 0x40 MLOAD DUP1 SWAP2 SUB SWAP1 REVERT JUMPDEST DUP1 PUSH1 0x0 DUP1 PUSH2 0x100 EXP DUP2 SLOAD DUP2 PUSH20 0xFFFFFFFFFFFFFFFFFFFFFFFFFFFFFFFFFFFFFFFF MUL NOT AND SWAP1 DUP4 PUSH20 0xFFFFFFFFFFFFFFFFFFFFFFFFFFFFFFFFFFFFFFFF AND MUL OR SWAP1 SSTORE POP DUP1 PUSH20 0xFFFFFFFFFFFFFFFFFFFFFFFFFFFFFFFFFFFFFFFF AND PUSH1 0x0 PUSH20 0xFFFFFFFFFFFFFFFFFFFFFFFFFFFFFFFFFFFFFFFF AND PUSH32 0x8BE0079C531659141344CD1FD0A4F28419497F9722A3DAAFE3B4186F6B6457E0 PUSH1 0x40 MLOAD PUSH1 0x40 MLOAD DUP1 SWAP2 SUB SWAP1 LOG3 POP PUSH1 0x0 PUSH20 0xFFFFFFFFFFFFFFFFFFFFFFFFFFFFFFFFFFFFFFFF AND DUP2 PUSH20 0xFFFFFFFFFFFFFFFFFFFFFFFFFFFFFFFFFFFFFFFF AND SUB PUSH3 0x1B0 JUMPI PUSH1 0x40 MLOAD PUSH32 0xD92E233D00000000000000000000000000000000000000000000000000000000 DUP2 MSTORE PUSH1 0x4 ADD PUSH1 0x40 MLOAD DUP1 SWAP2 SUB SWAP1 REVERT JUMPDEST DUP1 PUSH20 0xFFFFFFFFFFFFFFFFFFFFFFFFFFFFFFFFFFFFFFFF AND PUSH1 0x80 DUP2 PUSH20 0xFFFFFFFFFFFFFFFFFFFFFFFFFFFFFFFFFFFFFFFF AND DUP2 MSTORE POP POP POP POP PUSH3 0x2CB JUMP JUMPDEST PUSH1 0x0 DUP1 REVERT JUMPDEST PUSH1 0x0 PUSH20 0xFFFFFFFFFFFFFFFFFFFFFFFFFFFFFFFFFFFFFFFF DUP3 AND SWAP1 POP SWAP2 SWAP1 POP JUMP JUMPDEST PUSH1 0x0 PUSH3 0x21E DUP3 PUSH3 0x1F1 JUMP JUMPDEST SWAP1 POP SWAP2 SWAP1 POP JUMP JUMPDEST PUSH3 0x230 DUP2 PUSH3 0x211 JUMP JUMPDEST DUP2 EQ PUSH3 0x23C JUMPI PUSH1 0x0 DUP1 REVERT JUMPDEST POP JUMP JUMPDEST PUSH1 0x0 DUP2 MLOAD SWAP1 POP PUSH3 0x250 DUP2 PUSH3 0x225 JUMP JUMPDEST SWAP3 SWAP2 POP POP JUMP JUMPDEST PUSH1 0x0 DUP1 PUSH1 0x40 DUP4 DUP6 SUB SLT ISZERO PUSH3 0x270 JUMPI PUSH3 0x26F PUSH3 0x1EC JUMP JUMPDEST JUMPDEST PUSH1 0x0 PUSH3 0x280 DUP6 DUP3 DUP7 ADD PUSH3 0x23F JUMP JUMPDEST SWAP3 POP POP PUSH1 0x20 PUSH3 0x293 DUP6 DUP3 DUP7 ADD PUSH3 0x23F JUMP JUMPDEST SWAP2 POP POP SWAP3 POP SWAP3 SWAP1 POP JUMP JUMPDEST PUSH3 0x2A8 DUP2 PUSH3 0x211 JUMP JUMPDEST DUP3 MSTORE POP POP JUMP JUMPDEST PUSH1 0x0 PUSH1 0x20 DUP3 ADD SWAP1 POP PUSH3 0x2C5 PUSH1 0x0 DUP4 ADD DUP5 PUSH3 0x29D JUMP JUMPDEST SWAP3 SWAP2 POP POP JUMP JUMPDEST PUSH1 0x80 MLOAD PUSH2 0x2232 PUSH3 0x326 PUSH1 0x0 CODECOPY PUSH1 0x0 DUP2 DUP2 PUSH2 0x549 ADD MSTORE DUP2 DUP2 PUSH2 0x61D ADD MSTORE DUP2 DUP2 PUSH2 0x8B9 ADD MSTORE DUP2 DUP2 PUSH2 0xC42 ADD MSTORE DUP2 DUP2 PUSH2 0xD16 ADD MSTORE DUP2 DUP2 PUSH2 0x12BF ADD MSTORE DUP2 DUP2 PUSH2 0x1397 ADD MSTORE DUP2 DUP2 PUSH2 0x175D ADD MSTORE DUP2 DUP2 PUSH2 0x1831 ADD MSTORE PUSH2 0x195B ADD MSTORE PUSH2 0x2232 PUSH1 0x0 RETURN INVALID PUSH1 0x80 PUSH1 0x40 MSTORE CALLVALUE DUP1 ISZERO PUSH2 0x10 JUMPI PUSH1 0x0 DUP1 REVERT JUMPDEST POP PUSH1 0x4 CALLDATASIZE LT PUSH2 0x10B JUMPI PUSH1 0x0 CALLDATALOAD PUSH1 0xE0 SHR DUP1 PUSH4 0x6109F2B9 GT PUSH2 0xA2 JUMPI DUP1 PUSH4 0xAE4289C7 GT PUSH2 0x71 JUMPI DUP1 PUSH4 0xAE4289C7 EQ PUSH2 0x2B6 JUMPI DUP1 PUSH4 0xB91336F0 EQ PUSH2 0x2D4 JUMPI DUP1 PUSH4 0xBDDF7AC1 EQ PUSH2 0x304 JUMPI DUP1 PUSH4 0xD76BBD52 EQ PUSH2 0x320 JUMPI DUP1 PUSH4 0xF2FDE38B EQ PUSH2 0x33E JUMPI PUSH2 0x10B JUMP JUMPDEST DUP1 PUSH4 0x6109F2B9 EQ PUSH2 0x242 JUMPI DUP1 PUSH4 0x64FBBF90 EQ PUSH2 0x25E JUMPI DUP1 PUSH4 0x8DA5CB5B EQ PUSH2 0x28E JUMPI DUP1 PUSH4 0xA59F01BA EQ PUSH2 0x2AC JUMPI PUSH2 0x10B JUMP JUMPDEST DUP1 PUSH4 0x3D65DE44 GT PUSH2 0xDE JUMPI DUP1 PUSH4 0x3D65DE44 EQ PUSH2 0x1BC JUMPI DUP1 PUSH4 0x3F0C188F EQ PUSH2 0x1DA JUMPI DUP1 PUSH4 0x558A7297 EQ PUSH2 0x20A JUMPI DUP1 PUSH4 0x5795027F EQ PUSH2 0x226 JUMPI PUSH2 0x10B JUMP JUMPDEST DUP1 PUSH4 0x13E7C9D8 EQ PUSH2 0x110 JUMPI DUP1 PUSH4 0x170BECBE EQ PUSH2 0x140 JUMPI DUP1 PUSH4 0x2325101B EQ PUSH2 0x15C JUMPI DUP1 PUSH4 0x36693152 EQ PUSH2 0x18C JUMPI JUMPDEST PUSH1 0x0 DUP1 REVERT JUMPDEST PUSH2 0x12A PUSH1 0x4 DUP1 CALLDATASIZE SUB DUP2 ADD SWAP1 PUSH2 0x125 SWAP2 SWAP1 PUSH2 0x1BA4 JUMP JUMPDEST PUSH2 0x35A JUMP JUMPDEST PUSH1 0x40 MLOAD PUSH2 0x137 SWAP2 SWAP1 PUSH2 0x1BEC JUMP JUMPDEST PUSH1 0x40 MLOAD DUP1 SWAP2 SUB SWAP1 RETURN JUMPDEST PUSH2 0x15A PUSH1 0x4 DUP1 CALLDATASIZE SUB DUP2 ADD SWAP1 PUSH2 0x155 SWAP2 SWAP1 PUSH2 0x1CC2 JUMP JUMPDEST PUSH2 0x37A JUMP JUMPDEST STOP JUMPDEST PUSH2 0x176 PUSH1 0x4 DUP1 CALLDATASIZE SUB DUP2 ADD SWAP1 PUSH2 0x171 SWAP2 SWAP1 PUSH2 0x1D43 JUMP JUMPDEST PUSH2 0x76F JUMP JUMPDEST PUSH1 0x40 MLOAD PUSH2 0x183 SWAP2 SWAP1 PUSH2 0x1D9C JUMP JUMPDEST PUSH1 0x40 MLOAD DUP1 SWAP2 SUB SWAP1 RETURN JUMPDEST PUSH2 0x1A6 PUSH1 0x4 DUP1 CALLDATASIZE SUB DUP2 ADD SWAP1 PUSH2 0x1A1 SWAP2 SWAP1 PUSH2 0x1DE3 JUMP JUMPDEST PUSH2 0x876 JUMP JUMPDEST PUSH1 0x40 MLOAD PUSH2 0x1B3 SWAP2 SWAP1 PUSH2 0x1E1F JUMP JUMPDEST PUSH1 0x40 MLOAD DUP1 SWAP2 SUB SWAP1 RETURN JUMPDEST PUSH2 0x1C4 PUSH2 0x8B5 JUMP JUMPDEST PUSH1 0x40 MLOAD PUSH2 0x1D1 SWAP2 SWAP1 PUSH2 0x1D9C JUMP JUMPDEST PUSH1 0x40 MLOAD DUP1 SWAP2 SUB SWAP1 RETURN JUMPDEST PUSH2 0x1F4 PUSH1 0x4 DUP1 CALLDATASIZE SUB DUP2 ADD SWAP1 PUSH2 0x1EF SWAP2 SWAP1 PUSH2 0x1BA4 JUMP JUMPDEST PUSH2 0x956 JUMP JUMPDEST PUSH1 0x40 MLOAD PUSH2 0x201 SWAP2 SWAP1 PUSH2 0x1BEC JUMP JUMPDEST PUSH1 0x40 MLOAD DUP1 SWAP2 SUB SWAP1 RETURN JUMPDEST PUSH2 0x224 PUSH1 0x4 DUP1 CALLDATASIZE SUB DUP2 ADD SWAP1 PUSH2 0x21F SWAP2 SWAP1 PUSH2 0x1E66 JUMP JUMPDEST PUSH2 0x976 JUMP JUMPDEST STOP JUMPDEST PUSH2 0x240 PUSH1 0x4 DUP1 CALLDATASIZE SUB DUP2 ADD SWAP1 PUSH2 0x23B SWAP2 SWAP1 PUSH2 0x1EA6 JUMP JUMPDEST PUSH2 0xB15 JUMP JUMPDEST STOP JUMPDEST PUSH2 0x25C PUSH1 0x4 DUP1 CALLDATASIZE SUB DUP2 ADD SWAP1 PUSH2 0x257 SWAP2 SWAP1 PUSH2 0x1E66 JUMP JUMPDEST PUSH2 0xE55 JUMP JUMPDEST STOP JUMPDEST PUSH2 0x278 PUSH1 0x4 DUP1 CALLDATASIZE SUB DUP2 ADD SWAP1 PUSH2 0x273 SWAP2 SWAP1 PUSH2 0x1BA4 JUMP JUMPDEST PUSH2 0x10BA JUMP JUMPDEST PUSH1 0x40 MLOAD PUSH2 0x285 SWAP2 SWAP1 PUSH2 0x1D9C JUMP JUMPDEST PUSH1 0x40 MLOAD DUP1 SWAP2 SUB SWAP1 RETURN JUMPDEST PUSH2 0x296 PUSH2 0x1202 JUMP JUMPDEST PUSH1 0x40 MLOAD PUSH2 0x2A3 SWAP2 SWAP1 PUSH2 0x1E1F JUMP JUMPDEST PUSH1 0x40 MLOAD DUP1 SWAP2 SUB SWAP1 RETURN JUMPDEST PUSH2 0x2B4 PUSH2 0x122B JUMP JUMPDEST STOP JUMPDEST PUSH2 0x2BE PUSH2 0x14CC JUMP JUMPDEST PUSH1 0x40 MLOAD PUSH2 0x2CB SWAP2 SWAP1 PUSH2 0x1FA4 JUMP JUMPDEST PUSH1 0x40 MLOAD DUP1 SWAP2 SUB SWAP1 RETURN JUMPDEST PUSH2 0x2EE PUSH1 0x4 DUP1 CALLDATASIZE SUB DUP2 ADD SWAP1 PUSH2 0x2E9 SWAP2 SWAP1 PUSH2 0x1D43 JUMP JUMPDEST PUSH2 0x155A JUMP JUMPDEST PUSH1 0x40 MLOAD PUSH2 0x2FB SWAP2 SWAP1 PUSH2 0x1BEC JUMP JUMPDEST PUSH1 0x40 MLOAD DUP1 SWAP2 SUB SWAP1 RETURN JUMPDEST PUSH2 0x31E PUSH1 0x4 DUP1 CALLDATASIZE SUB DUP2 ADD SWAP1 PUSH2 0x319 SWAP2 SWAP1 PUSH2 0x1EA6 JUMP JUMPDEST PUSH2 0x1664 JUMP JUMPDEST STOP JUMPDEST PUSH2 0x328 PUSH2 0x1959 JUMP JUMPDEST PUSH1 0x40 MLOAD PUSH2 0x335 SWAP2 SWAP1 PUSH2 0x2025 JUMP JUMPDEST PUSH1 0x40 MLOAD DUP1 SWAP2 SUB SWAP1 RETURN JUMPDEST PUSH2 0x358 PUSH1 0x4 DUP1 CALLDATASIZE SUB DUP2 ADD SWAP1 PUSH2 0x353 SWAP2 SWAP1 PUSH2 0x1BA4 JUMP JUMPDEST PUSH2 0x197D JUMP JUMPDEST STOP JUMPDEST PUSH1 0x1 PUSH1 0x20 MSTORE DUP1 PUSH1 0x0 MSTORE PUSH1 0x40 PUSH1 0x0 KECCAK256 PUSH1 0x0 SWAP2 POP SLOAD SWAP1 PUSH2 0x100 EXP SWAP1 DIV PUSH1 0xFF AND DUP2 JUMP JUMPDEST PUSH1 0x1 PUSH1 0x0 CALLER PUSH20 0xFFFFFFFFFFFFFFFFFFFFFFFFFFFFFFFFFFFFFFFF AND PUSH20 0xFFFFFFFFFFFFFFFFFFFFFFFFFFFFFFFFFFFFFFFF AND DUP2 MSTORE PUSH1 0x20 ADD SWAP1 DUP2 MSTORE PUSH1 0x20 ADD PUSH1 0x0 KECCAK256 PUSH1 0x0 SWAP1 SLOAD SWAP1 PUSH2 0x100 EXP SWAP1 DIV PUSH1 0xFF AND ISZERO DUP1 ISZERO PUSH2 0x407 JUMPI POP PUSH2 0x3D7 PUSH2 0x1202 JUMP JUMPDEST PUSH20 0xFFFFFFFFFFFFFFFFFFFFFFFFFFFFFFFFFFFFFFFF AND CALLER PUSH20 0xFFFFFFFFFFFFFFFFFFFFFFFFFFFFFFFFFFFFFFFF AND EQ ISZERO JUMPDEST ISZERO PUSH2 0x43E JUMPI PUSH1 0x40 MLOAD PUSH32 0x7C214F0400000000000000000000000000000000000000000000000000000000 DUP2 MSTORE PUSH1 0x4 ADD PUSH1 0x40 MLOAD DUP1 SWAP2 SUB SWAP1 REVERT JUMPDEST PUSH1 0x0 DUP5 DUP5 SWAP1 POP SWAP1 POP DUP3 DUP3 SWAP1 POP DUP2 EQ PUSH2 0x48B JUMPI PUSH1 0x40 MLOAD PUSH32 0x8C379A000000000000000000000000000000000000000000000000000000000 DUP2 MSTORE PUSH1 0x4 ADD PUSH2 0x482 SWAP1 PUSH2 0x209D JUMP JUMPDEST PUSH1 0x40 MLOAD DUP1 SWAP2 SUB SWAP1 REVERT JUMPDEST PUSH1 0x0 JUMPDEST DUP2 DUP2 LT ISZERO PUSH2 0x767 JUMPI PUSH1 0x0 DUP7 DUP7 DUP4 DUP2 DUP2 LT PUSH2 0x4AB JUMPI PUSH2 0x4AA PUSH2 0x20BD JUMP JUMPDEST JUMPDEST SWAP1 POP PUSH1 0x20 MUL ADD PUSH1 0x20 DUP2 ADD SWAP1 PUSH2 0x4C0 SWAP2 SWAP1 PUSH2 0x1BA4 JUMP JUMPDEST SWAP1 POP PUSH1 0x0 DUP6 DUP6 DUP5 DUP2 DUP2 LT PUSH2 0x4D7 JUMPI PUSH2 0x4D6 PUSH2 0x20BD JUMP JUMPDEST JUMPDEST SWAP1 POP PUSH1 0x20 MUL ADD CALLDATALOAD SWAP1 POP PUSH1 0x0 PUSH20 0xFFFFFFFFFFFFFFFFFFFFFFFFFFFFFFFFFFFFFFFF AND DUP3 PUSH20 0xFFFFFFFFFFFFFFFFFFFFFFFFFFFFFFFFFFFFFFFF AND SUB PUSH2 0x546 JUMPI PUSH1 0x40 MLOAD PUSH32 0xD92E233D00000000000000000000000000000000000000000000000000000000 DUP2 MSTORE PUSH1 0x4 ADD PUSH1 0x40 MLOAD DUP1 SWAP2 SUB SWAP1 REVERT JUMPDEST DUP1 PUSH32 0x0 PUSH20 0xFFFFFFFFFFFFFFFFFFFFFFFFFFFFFFFFFFFFFFFF AND PUSH4 0x70A08231 ADDRESS PUSH1 0x40 MLOAD DUP3 PUSH4 0xFFFFFFFF AND PUSH1 0xE0 SHL DUP2 MSTORE PUSH1 0x4 ADD PUSH2 0x5A0 SWAP2 SWAP1 PUSH2 0x1E1F JUMP JUMPDEST PUSH1 0x20 PUSH1 0x40 MLOAD DUP1 DUP4 SUB DUP2 DUP7 GAS STATICCALL ISZERO DUP1 ISZERO PUSH2 0x5BD JUMPI RETURNDATASIZE PUSH1 0x0 DUP1 RETURNDATACOPY RETURNDATASIZE PUSH1 0x0 REVERT JUMPDEST POP POP POP POP PUSH1 0x40 MLOAD RETURNDATASIZE PUSH1 0x1F NOT PUSH1 0x1F DUP3 ADD AND DUP3 ADD DUP1 PUSH1 0x40 MSTORE POP DUP2 ADD SWAP1 PUSH2 0x5E1 SWAP2 SWAP1 PUSH2 0x2101 JUMP JUMPDEST LT ISZERO PUSH2 0x619 JUMPI PUSH1 0x40 MLOAD PUSH32 0xCD85A9B600000000000000000000000000000000000000000000000000000000 DUP2 MSTORE PUSH1 0x4 ADD PUSH1 0x40 MLOAD DUP1 SWAP2 SUB SWAP1 REVERT JUMPDEST PUSH1 0x0 PUSH32 0x0 PUSH20 0xFFFFFFFFFFFFFFFFFFFFFFFFFFFFFFFFFFFFFFFF AND PUSH4 0xA9059CBB DUP5 DUP5 PUSH1 0x40 MLOAD DUP4 PUSH4 0xFFFFFFFF AND PUSH1 0xE0 SHL DUP2 MSTORE PUSH1 0x4 ADD PUSH2 0x676 SWAP3 SWAP2 SWAP1 PUSH2 0x212E JUMP JUMPDEST PUSH1 0x20 PUSH1 0x40 MLOAD DUP1 DUP4 SUB DUP2 PUSH1 0x0 DUP8 GAS CALL ISZERO DUP1 ISZERO PUSH2 0x695 JUMPI RETURNDATASIZE PUSH1 0x0 DUP1 RETURNDATACOPY RETURNDATASIZE PUSH1 0x0 REVERT JUMPDEST POP POP POP POP PUSH1 0x40 MLOAD RETURNDATASIZE PUSH1 0x1F NOT PUSH1 0x1F DUP3 ADD AND DUP3 ADD DUP1 PUSH1 0x40 MSTORE POP DUP2 ADD SWAP1 PUSH2 0x6B9 SWAP2 SWAP1 PUSH2 0x216C JUMP JUMPDEST SWAP1 POP DUP1 PUSH2 0x6F2 JUMPI PUSH1 0x40 MLOAD PUSH32 0x90B8EC1800000000000000000000000000000000000000000000000000000000 DUP2 MSTORE PUSH1 0x4 ADD PUSH1 0x40 MLOAD DUP1 SWAP2 SUB SWAP1 REVERT JUMPDEST DUP3 PUSH20 0xFFFFFFFFFFFFFFFFFFFFFFFFFFFFFFFFFFFFFFFF AND CALLER PUSH20 0xFFFFFFFFFFFFFFFFFFFFFFFFFFFFFFFFFFFFFFFF AND PUSH32 0x540798DF468D7B23D11F156FDB954CB19AD414D150722A7B6D55BA369DEA792E DUP5 PUSH1 0x40 MLOAD PUSH2 0x74F SWAP2 SWAP1 PUSH2 0x1D9C JUMP JUMPDEST PUSH1 0x40 MLOAD DUP1 SWAP2 SUB SWAP1 LOG3 POP POP POP DUP1 DUP1 PUSH1 0x1 ADD SWAP2 POP POP PUSH2 0x48E JUMP JUMPDEST POP POP POP POP POP POP JUMP JUMPDEST PUSH1 0x0 PUSH1 0x2 PUSH1 0x0 DUP4 PUSH20 0xFFFFFFFFFFFFFFFFFFFFFFFFFFFFFFFFFFFFFFFF AND PUSH20 0xFFFFFFFFFFFFFFFFFFFFFFFFFFFFFFFFFFFFFFFF AND DUP2 MSTORE PUSH1 0x20 ADD SWAP1 DUP2 MSTORE PUSH1 0x20 ADD PUSH1 0x0 KECCAK256 PUSH1 0x0 SWAP1 SLOAD SWAP1 PUSH2 0x100 EXP SWAP1 DIV PUSH1 0xFF AND PUSH2 0x7F4 JUMPI PUSH1 0x40 MLOAD PUSH32 0xE4FAD98200000000000000000000000000000000000000000000000000000000 DUP2 MSTORE PUSH1 0x4 ADD PUSH1 0x40 MLOAD DUP1 SWAP2 SUB SWAP1 REVERT JUMPDEST DUP2 PUSH20 0xFFFFFFFFFFFFFFFFFFFFFFFFFFFFFFFFFFFFFFFF AND PUSH4 0x70A08231 DUP5 PUSH1 0x40 MLOAD DUP3 PUSH4 0xFFFFFFFF AND PUSH1 0xE0 SHL DUP2 MSTORE PUSH1 0x4 ADD PUSH2 0x82D SWAP2 SWAP1 PUSH2 0x1E1F JUMP JUMPDEST PUSH1 0x20 PUSH1 0x40 MLOAD DUP1 DUP4 SUB DUP2 DUP7 GAS STATICCALL ISZERO DUP1 ISZERO PUSH2 0x84A JUMPI RETURNDATASIZE PUSH1 0x0 DUP1 RETURNDATACOPY RETURNDATASIZE PUSH1 0x0 REVERT JUMPDEST POP POP POP POP PUSH1 0x40 MLOAD RETURNDATASIZE PUSH1 0x1F NOT PUSH1 0x1F DUP3 ADD AND DUP3 ADD DUP1 PUSH1 0x40 MSTORE POP DUP2 ADD SWAP1 PUSH2 0x86E SWAP2 SWAP1 PUSH2 0x2101 JUMP JUMPDEST SWAP1 POP SWAP3 SWAP2 POP POP JUMP JUMPDEST PUSH1 0x3 DUP2 DUP2 SLOAD DUP2 LT PUSH2 0x886 JUMPI PUSH1 0x0 DUP1 REVERT JUMPDEST SWAP1 PUSH1 0x0 MSTORE PUSH1 0x20 PUSH1 0x0 KECCAK256 ADD PUSH1 0x0 SWAP2 POP SLOAD SWAP1 PUSH2 0x100 EXP SWAP1 DIV PUSH20 0xFFFFFFFFFFFFFFFFFFFFFFFFFFFFFFFFFFFFFFFF AND DUP2 JUMP JUMPDEST PUSH1 0x0 PUSH32 0x0 PUSH20 0xFFFFFFFFFFFFFFFFFFFFFFFFFFFFFFFFFFFFFFFF AND PUSH4 0x70A08231 ADDRESS PUSH1 0x40 MLOAD DUP3 PUSH4 0xFFFFFFFF AND PUSH1 0xE0 SHL DUP2 MSTORE PUSH1 0x4 ADD PUSH2 0x910 SWAP2 SWAP1 PUSH2 0x1E1F JUMP JUMPDEST PUSH1 0x20 PUSH1 0x40 MLOAD DUP1 DUP4 SUB DUP2 DUP7 GAS STATICCALL ISZERO DUP1 ISZERO PUSH2 0x92D JUMPI RETURNDATASIZE PUSH1 0x0 DUP1 RETURNDATACOPY RETURNDATASIZE PUSH1 0x0 REVERT JUMPDEST POP POP POP POP PUSH1 0x40 MLOAD RETURNDATASIZE PUSH1 0x1F NOT PUSH1 0x1F DUP3 ADD AND DUP3 ADD DUP1 PUSH1 0x40 MSTORE POP DUP2 ADD SWAP1 PUSH2 0x951 SWAP2 SWAP1 PUSH2 0x2101 JUMP JUMPDEST SWAP1 POP SWAP1 JUMP JUMPDEST PUSH1 0x2 PUSH1 0x20 MSTORE DUP1 PUSH1 0x0 MSTORE PUSH1 0x40 PUSH1 0x0 KECCAK256 PUSH1 0x0 SWAP2 POP SLOAD SWAP1 PUSH2 0x100 EXP SWAP1 DIV PUSH1 0xFF AND DUP2 JUMP JUMPDEST PUSH1 0x0 DUP1 SLOAD SWAP1 PUSH2 0x100 EXP SWAP1 DIV PUSH20 0xFFFFFFFFFFFFFFFFFFFFFFFFFFFFFFFFFFFFFFFF AND PUSH20 0xFFFFFFFFFFFFFFFFFFFFFFFFFFFFFFFFFFFFFFFF AND CALLER PUSH20 0xFFFFFFFFFFFFFFFFFFFFFFFFFFFFFFFFFFFFFFFF AND EQ PUSH2 0xA06 JUMPI CALLER PUSH1 0x40 MLOAD PUSH32 0x118CDAA700000000000000000000000000000000000000000000000000000000 DUP2 MSTORE PUSH1 0x4 ADD PUSH2 0x9FD SWAP2 SWAP1 PUSH2 0x1E1F JUMP JUMPDEST PUSH1 0x40 MLOAD DUP1 SWAP2 SUB SWAP1 REVERT JUMPDEST PUSH1 0x0 PUSH20 0xFFFFFFFFFFFFFFFFFFFFFFFFFFFFFFFFFFFFFFFF AND DUP3 PUSH20 0xFFFFFFFFFFFFFFFFFFFFFFFFFFFFFFFFFFFFFFFF AND SUB PUSH2 0xA6C JUMPI PUSH1 0x40 MLOAD PUSH32 0xD92E233D00000000000000000000000000000000000000000000000000000000 DUP2 MSTORE PUSH1 0x4 ADD PUSH1 0x40 MLOAD DUP1 SWAP2 SUB SWAP1 REVERT JUMPDEST DUP1 PUSH1 0x1 PUSH1 0x0 DUP5 PUSH20 0xFFFFFFFFFFFFFFFFFFFFFFFFFFFFFFFFFFFFFFFF AND PUSH20 0xFFFFFFFFFFFFFFFFFFFFFFFFFFFFFFFFFFFFFFFF AND DUP2 MSTORE PUSH1 0x20 ADD SWAP1 DUP2 MSTORE PUSH1 0x20 ADD PUSH1 0x0 KECCAK256 PUSH1 0x0 PUSH2 0x100 EXP DUP2 SLOAD DUP2 PUSH1 0xFF MUL NOT AND SWAP1 DUP4 ISZERO ISZERO MUL OR SWAP1 SSTORE POP DUP2 PUSH20 0xFFFFFFFFFFFFFFFFFFFFFFFFFFFFFFFFFFFFFFFF AND PUSH32 0x966C160E1C4DBC7DF8D69AF4ACE01E9297C3CF016397B7914971F2FBFA32672D DUP3 PUSH1 0x40 MLOAD PUSH2 0xB09 SWAP2 SWAP1 PUSH2 0x1BEC JUMP JUMPDEST PUSH1 0x40 MLOAD DUP1 SWAP2 SUB SWAP1 LOG2 POP POP JUMP JUMPDEST PUSH1 0x1 PUSH1 0x0 CALLER PUSH20 0xFFFFFFFFFFFFFFFFFFFFFFFFFFFFFFFFFFFFFFFF AND PUSH20 0xFFFFFFFFFFFFFFFFFFFFFFFFFFFFFFFFFFFFFFFF AND DUP2 MSTORE PUSH1 0x20 ADD SWAP1 DUP2 MSTORE PUSH1 0x20 ADD PUSH1 0x0 KECCAK256 PUSH1 0x0 SWAP1 SLOAD SWAP1 PUSH2 0x100 EXP SWAP1 DIV PUSH1 0xFF AND ISZERO DUP1 ISZERO PUSH2 0xBA2 JUMPI POP PUSH2 0xB72 PUSH2 0x1202 JUMP JUMPDEST PUSH20 0xFFFFFFFFFFFFFFFFFFFFFFFFFFFFFFFFFFFFFFFF AND CALLER PUSH20 0xFFFFFFFFFFFFFFFFFFFFFFFFFFFFFFFFFFFFFFFF AND EQ ISZERO JUMPDEST ISZERO PUSH2 0xBD9 JUMPI PUSH1 0x40 MLOAD PUSH32 0x7C214F0400000000000000000000000000000000000000000000000000000000 DUP2 MSTORE PUSH1 0x4 ADD PUSH1 0x40 MLOAD DUP1 SWAP2 SUB SWAP1 REVERT JUMPDEST PUSH1 0x0 PUSH20 0xFFFFFFFFFFFFFFFFFFFFFFFFFFFFFFFFFFFFFFFF AND DUP3 PUSH20 0xFFFFFFFFFFFFFFFFFFFFFFFFFFFFFFFFFFFFFFFF AND SUB PUSH2 0xC3F JUMPI PUSH1 0x40 MLOAD PUSH32 0xD92E233D00000000000000000000000000000000000000000000000000000000 DUP2 MSTORE PUSH1 0x4 ADD PUSH1 0x40 MLOAD DUP1 SWAP2 SUB SWAP1 REVERT JUMPDEST DUP1 PUSH32 0x0 PUSH20 0xFFFFFFFFFFFFFFFFFFFFFFFFFFFFFFFFFFFFFFFF AND PUSH4 0x70A08231 ADDRESS PUSH1 0x40 MLOAD DUP3 PUSH4 0xFFFFFFFF AND PUSH1 0xE0 SHL DUP2 MSTORE PUSH1 0x4 ADD PUSH2 0xC99 SWAP2 SWAP1 PUSH2 0x1E1F JUMP JUMPDEST PUSH1 0x20 PUSH1 0x40 MLOAD DUP1 DUP4 SUB DUP2 DUP7 GAS STATICCALL ISZERO DUP1 ISZERO PUSH2 0xCB6 JUMPI RETURNDATASIZE PUSH1 0x0 DUP1 RETURNDATACOPY RETURNDATASIZE PUSH1 0x0 REVERT JUMPDEST POP POP POP POP PUSH1 0x40 MLOAD RETURNDATASIZE PUSH1 0x1F NOT PUSH1 0x1F DUP3 ADD AND DUP3 ADD DUP1 PUSH1 0x40 MSTORE POP DUP2 ADD SWAP1 PUSH2 0xCDA SWAP2 SWAP1 PUSH2 0x2101 JUMP JUMPDEST LT ISZERO PUSH2 0xD12 JUMPI PUSH1 0x40 MLOAD PUSH32 0xCD85A9B600000000000000000000000000000000000000000000000000000000 DUP2 MSTORE PUSH1 0x4 ADD PUSH1 0x40 MLOAD DUP1 SWAP2 SUB SWAP1 REVERT JUMPDEST PUSH1 0x0 PUSH32 0x0 PUSH20 0xFFFFFFFFFFFFFFFFFFFFFFFFFFFFFFFFFFFFFFFF AND PUSH4 0xA9059CBB DUP5 DUP5 PUSH1 0x40 MLOAD DUP4 PUSH4 0xFFFFFFFF AND PUSH1 0xE0 SHL DUP2 MSTORE PUSH1 0x4 ADD PUSH2 0xD6F SWAP3 SWAP2 SWAP1 PUSH2 0x212E JUMP JUMPDEST PUSH1 0x20 PUSH1 0x40 MLOAD DUP1 DUP4 SUB DUP2 PUSH1 0x0 DUP8 GAS CALL ISZERO DUP1 ISZERO PUSH2 0xD8E JUMPI RETURNDATASIZE PUSH1 0x0 DUP1 RETURNDATACOPY RETURNDATASIZE PUSH1 0x0 REVERT JUMPDEST POP POP POP POP PUSH1 0x40 MLOAD RETURNDATASIZE PUSH1 0x1F NOT PUSH1 0x1F DUP3 ADD AND DUP3 ADD DUP1 PUSH1 0x40 MSTORE POP DUP2 ADD SWAP1 PUSH2 0xDB2 SWAP2 SWAP1 PUSH2 0x216C JUMP JUMPDEST SWAP1 POP DUP1 PUSH2 0xDEB JUMPI PUSH1 0x40 MLOAD PUSH32 0x90B8EC1800000000000000000000000000000000000000000000000000000000 DUP2 MSTORE PUSH1 0x4 ADD PUSH1 0x40 MLOAD DUP1 SWAP2 SUB SWAP1 REVERT JUMPDEST DUP3 PUSH20 0xFFFFFFFFFFFFFFFFFFFFFFFFFFFFFFFFFFFFFFFF AND CALLER PUSH20 0xFFFFFFFFFFFFFFFFFFFFFFFFFFFFFFFFFFFFFFFF AND PUSH32 0x540798DF468D7B23D11F156FDB954CB19AD414D150722A7B6D55BA369DEA792E DUP5 PUSH1 0x40 MLOAD PUSH2 0xE48 SWAP2 SWAP1 PUSH2 0x1D9C JUMP JUMPDEST PUSH1 0x40 MLOAD DUP1 SWAP2 SUB SWAP1 LOG3 POP POP POP JUMP JUMPDEST PUSH1 0x0 DUP1 SLOAD SWAP1 PUSH2 0x100 EXP SWAP1 DIV PUSH20 0xFFFFFFFFFFFFFFFFFFFFFFFFFFFFFFFFFFFFFFFF AND PUSH20 0xFFFFFFFFFFFFFFFFFFFFFFFFFFFFFFFFFFFFFFFF AND CALLER PUSH20 0xFFFFFFFFFFFFFFFFFFFFFFFFFFFFFFFFFFFFFFFF AND EQ PUSH2 0xEE5 JUMPI CALLER PUSH1 0x40 MLOAD PUSH32 0x118CDAA700000000000000000000000000000000000000000000000000000000 DUP2 MSTORE PUSH1 0x4 ADD PUSH2 0xEDC SWAP2 SWAP1 PUSH2 0x1E1F JUMP JUMPDEST PUSH1 0x40 MLOAD DUP1 SWAP2 SUB SWAP1 REVERT JUMPDEST PUSH1 0x0 PUSH20 0xFFFFFFFFFFFFFFFFFFFFFFFFFFFFFFFFFFFFFFFF AND DUP3 PUSH20 0xFFFFFFFFFFFFFFFFFFFFFFFFFFFFFFFFFFFFFFFF AND SUB PUSH2 0xF4B JUMPI PUSH1 0x40 MLOAD PUSH32 0xD92E233D00000000000000000000000000000000000000000000000000000000 DUP2 MSTORE PUSH1 0x4 ADD PUSH1 0x40 MLOAD DUP1 SWAP2 SUB SWAP1 REVERT JUMPDEST PUSH1 0x0 PUSH1 0x2 PUSH1 0x0 DUP5 PUSH20 0xFFFFFFFFFFFFFFFFFFFFFFFFFFFFFFFFFFFFFFFF AND PUSH20 0xFFFFFFFFFFFFFFFFFFFFFFFFFFFFFFFFFFFFFFFF AND DUP2 MSTORE PUSH1 0x20 ADD SWAP1 DUP2 MSTORE PUSH1 0x20 ADD PUSH1 0x0 KECCAK256 PUSH1 0x0 SWAP1 SLOAD SWAP1 PUSH2 0x100 EXP SWAP1 DIV PUSH1 0xFF AND SWAP1 POP DUP2 PUSH1 0x2 PUSH1 0x0 DUP6 PUSH20 0xFFFFFFFFFFFFFFFFFFFFFFFFFFFFFFFFFFFFFFFF AND PUSH20 0xFFFFFFFFFFFFFFFFFFFFFFFFFFFFFFFFFFFFFFFF AND DUP2 MSTORE PUSH1 0x20 ADD SWAP1 DUP2 MSTORE PUSH1 0x20 ADD PUSH1 0x0 KECCAK256 PUSH1 0x0 PUSH2 0x100 EXP DUP2 SLOAD DUP2 PUSH1 0xFF MUL NOT AND SWAP1 DUP4 ISZERO ISZERO MUL OR SWAP1 SSTORE POP DUP2 DUP1 ISZERO PUSH2 0xFFE JUMPI POP DUP1 ISZERO JUMPDEST ISZERO PUSH2 0x1067 JUMPI PUSH1 0x3 DUP4 SWAP1 DUP1 PUSH1 0x1 DUP2 SLOAD ADD DUP1 DUP3 SSTORE DUP1 SWAP2 POP POP PUSH1 0x1 SWAP1 SUB SWAP1 PUSH1 0x0 MSTORE PUSH1 0x20 PUSH1 0x0 KECCAK256 ADD PUSH1 0x0 SWAP1 SWAP2 SWAP1 SWAP2 SWAP1 SWAP2 PUSH2 0x100 EXP DUP2 SLOAD DUP2 PUSH20 0xFFFFFFFFFFFFFFFFFFFFFFFFFFFFFFFFFFFFFFFF MUL NOT AND SWAP1 DUP4 PUSH20 0xFFFFFFFFFFFFFFFFFFFFFFFFFFFFFFFFFFFFFFFF AND MUL OR SWAP1 SSTORE POP JUMPDEST DUP3 PUSH20 0xFFFFFFFFFFFFFFFFFFFFFFFFFFFFFFFFFFFFFFFF AND PUSH32 0x2C10BC6CEFAB6FD0600DCB515A58ACD082099F239822A057DA90233E9C4F48C5 DUP4 PUSH1 0x40 MLOAD PUSH2 0x10AD SWAP2 SWAP1 PUSH2 0x1BEC JUMP JUMPDEST PUSH1 0x40 MLOAD DUP1 SWAP2 SUB SWAP1 LOG2 POP POP POP JUMP JUMPDEST PUSH1 0x0 DUP1 PUSH1 0x3 DUP1 SLOAD SWAP1 POP SWAP1 POP PUSH1 0x0 JUMPDEST DUP2 DUP2 LT ISZERO PUSH2 0x11FB JUMPI PUSH1 0x0 PUSH1 0x3 DUP3 DUP2 SLOAD DUP2 LT PUSH2 0x10E6 JUMPI PUSH2 0x10E5 PUSH2 0x20BD JUMP JUMPDEST JUMPDEST SWAP1 PUSH1 0x0 MSTORE PUSH1 0x20 PUSH1 0x0 KECCAK256 ADD PUSH1 0x0 SWAP1 SLOAD SWAP1 PUSH2 0x100 EXP SWAP1 DIV PUSH20 0xFFFFFFFFFFFFFFFFFFFFFFFFFFFFFFFFFFFFFFFF AND SWAP1 POP PUSH1 0x2 PUSH1 0x0 DUP3 PUSH20 0xFFFFFFFFFFFFFFFFFFFFFFFFFFFFFFFFFFFFFFFF AND PUSH20 0xFFFFFFFFFFFFFFFFFFFFFFFFFFFFFFFFFFFFFFFF AND DUP2 MSTORE PUSH1 0x20 ADD SWAP1 DUP2 MSTORE PUSH1 0x20 ADD PUSH1 0x0 KECCAK256 PUSH1 0x0 SWAP1 SLOAD SWAP1 PUSH2 0x100 EXP SWAP1 DIV PUSH1 0xFF AND ISZERO PUSH2 0x11ED JUMPI DUP1 PUSH20 0xFFFFFFFFFFFFFFFFFFFFFFFFFFFFFFFFFFFFFFFF AND PUSH4 0x70A08231 DUP7 PUSH1 0x40 MLOAD DUP3 PUSH4 0xFFFFFFFF AND PUSH1 0xE0 SHL DUP2 MSTORE PUSH1 0x4 ADD PUSH2 0x119E SWAP2 SWAP1 PUSH2 0x1E1F JUMP JUMPDEST PUSH1 0x20 PUSH1 0x40 MLOAD DUP1 DUP4 SUB DUP2 DUP7 GAS STATICCALL ISZERO DUP1 ISZERO PUSH2 0x11BB JUMPI RETURNDATASIZE PUSH1 0x0 DUP1 RETURNDATACOPY RETURNDATASIZE PUSH1 0x0 REVERT JUMPDEST POP POP POP POP PUSH1 0x40 MLOAD RETURNDATASIZE PUSH1 0x1F NOT PUSH1 0x1F DUP3 ADD AND DUP3 ADD DUP1 PUSH1 0x40 MSTORE POP DUP2 ADD SWAP1 PUSH2 0x11DF SWAP2 SWAP1 PUSH2 0x2101 JUMP JUMPDEST DUP5 PUSH2 0x11EA SWAP2 SWAP1 PUSH2 0x21C8 JUMP JUMPDEST SWAP4 POP JUMPDEST POP DUP1 DUP1 PUSH1 0x1 ADD SWAP2 POP POP PUSH2 0x10C8 JUMP JUMPDEST POP POP SWAP2 SWAP1 POP JUMP JUMPDEST PUSH1 0x0 DUP1 PUSH1 0x0 SWAP1 SLOAD SWAP1 PUSH2 0x100 EXP SWAP1 DIV PUSH20 0xFFFFFFFFFFFFFFFFFFFFFFFFFFFFFFFFFFFFFFFF AND SWAP1 POP SWAP1 JUMP JUMPDEST PUSH1 0x0 DUP1 SLOAD SWAP1 PUSH2 0x100 EXP SWAP1 DIV PUSH20 0xFFFFFFFFFFFFFFFFFFFFFFFFFFFFFFFFFFFFFFFF AND PUSH20 0xFFFFFFFFFFFFFFFFFFFFFFFFFFFFFFFFFFFFFFFF AND CALLER PUSH20 0xFFFFFFFFFFFFFFFFFFFFFFFFFFFFFFFFFFFFFFFF AND EQ PUSH2 0x12BB JUMPI CALLER PUSH1 0x40 MLOAD PUSH32 0x118CDAA700000000000000000000000000000000000000000000000000000000 DUP2 MSTORE PUSH1 0x4 ADD PUSH2 0x12B2 SWAP2 SWAP1 PUSH2 0x1E1F JUMP JUMPDEST PUSH1 0x40 MLOAD DUP1 SWAP2 SUB SWAP1 REVERT JUMPDEST PUSH1 0x0 PUSH32 0x0 PUSH20 0xFFFFFFFFFFFFFFFFFFFFFFFFFFFFFFFFFFFFFFFF AND PUSH4 0x70A08231 ADDRESS PUSH1 0x40 MLOAD DUP3 PUSH4 0xFFFFFFFF AND PUSH1 0xE0 SHL DUP2 MSTORE PUSH1 0x4 ADD PUSH2 0x1316 SWAP2 SWAP1 PUSH2 0x1E1F JUMP JUMPDEST PUSH1 0x20 PUSH1 0x40 MLOAD DUP1 DUP4 SUB DUP2 DUP7 GAS STATICCALL ISZERO DUP1 ISZERO PUSH2 0x1333 JUMPI RETURNDATASIZE PUSH1 0x0 DUP1 RETURNDATACOPY RETURNDATASIZE PUSH1 0x0 REVERT JUMPDEST POP POP POP POP PUSH1 0x40 MLOAD RETURNDATASIZE PUSH1 0x1F NOT PUSH1 0x1F DUP3 ADD AND DUP3 ADD DUP1 PUSH1 0x40 MSTORE POP DUP2 ADD SWAP1 PUSH2 0x1357 SWAP2 SWAP1 PUSH2 0x2101 JUMP JUMPDEST SWAP1 POP PUSH1 0x0 DUP2 SUB PUSH2 0x1393 JUMPI PUSH1 0x40 MLOAD PUSH32 0xCD85A9B600000000000000000000000000000000000000000000000000000000 DUP2 MSTORE PUSH1 0x4 ADD PUSH1 0x40 MLOAD DUP1 SWAP2 SUB SWAP1 REVERT JUMPDEST PUSH1 0x0 PUSH32 0x0 PUSH20 0xFFFFFFFFFFFFFFFFFFFFFFFFFFFFFFFFFFFFFFFF AND PUSH4 0xA9059CBB PUSH2 0x13D9 PUSH2 0x1202 JUMP JUMPDEST DUP5 PUSH1 0x40 MLOAD DUP4 PUSH4 0xFFFFFFFF AND PUSH1 0xE0 SHL DUP2 MSTORE PUSH1 0x4 ADD PUSH2 0x13F7 SWAP3 SWAP2 SWAP1 PUSH2 0x212E JUMP JUMPDEST PUSH1 0x20 PUSH1 0x40 MLOAD DUP1 DUP4 SUB DUP2 PUSH1 0x0 DUP8 GAS CALL ISZERO DUP1 ISZERO PUSH2 0x1416 JUMPI RETURNDATASIZE PUSH1 0x0 DUP1 RETURNDATACOPY RETURNDATASIZE PUSH1 0x0 REVERT JUMPDEST POP POP POP POP PUSH1 0x40 MLOAD RETURNDATASIZE PUSH1 0x1F NOT PUSH1 0x1F DUP3 ADD AND DUP3 ADD DUP1 PUSH1 0x40 MSTORE POP DUP2 ADD SWAP1 PUSH2 0x143A SWAP2 SWAP1 PUSH2 0x216C JUMP JUMPDEST SWAP1 POP DUP1 PUSH2 0x1473 JUMPI PUSH1 0x40 MLOAD PUSH32 0x90B8EC1800000000000000000000000000000000000000000000000000000000 DUP2 MSTORE PUSH1 0x4 ADD PUSH1 0x40 MLOAD DUP1 SWAP2 SUB SWAP1 REVERT JUMPDEST PUSH2 0x147B PUSH2 0x1202 JUMP JUMPDEST PUSH20 0xFFFFFFFFFFFFFFFFFFFFFFFFFFFFFFFFFFFFFFFF AND PUSH32 0x505868A902812249AC23C1A1E6CFDE9B4FD503466F8424DBB304332B9D5D8586 DUP4 PUSH1 0x40 MLOAD PUSH2 0x14C0 SWAP2 SWAP1 PUSH2 0x1D9C JUMP JUMPDEST PUSH1 0x40 MLOAD DUP1 SWAP2 SUB SWAP1 LOG2 POP POP JUMP JUMPDEST PUSH1 0x60 PUSH1 0x3 DUP1 SLOAD DUP1 PUSH1 0x20 MUL PUSH1 0x20 ADD PUSH1 0x40 MLOAD SWAP1 DUP2 ADD PUSH1 0x40 MSTORE DUP1 SWAP3 SWAP2 SWAP1 DUP2 DUP2 MSTORE PUSH1 0x20 ADD DUP3 DUP1 SLOAD DUP1 ISZERO PUSH2 0x1550 JUMPI PUSH1 0x20 MUL DUP3 ADD SWAP2 SWAP1 PUSH1 0x0 MSTORE PUSH1 0x20 PUSH1 0x0 KECCAK256 SWAP1 JUMPDEST DUP2 PUSH1 0x0 SWAP1 SLOAD SWAP1 PUSH2 0x100 EXP SWAP1 DIV PUSH20 0xFFFFFFFFFFFFFFFFFFFFFFFFFFFFFFFFFFFFFFFF AND PUSH20 0xFFFFFFFFFFFFFFFFFFFFFFFFFFFFFFFFFFFFFFFF AND DUP2 MSTORE PUSH1 0x20 ADD SWAP1 PUSH1 0x1 ADD SWAP1 DUP1 DUP4 GT PUSH2 0x1506 JUMPI JUMPDEST POP POP POP POP POP SWAP1 POP SWAP1 JUMP JUMPDEST PUSH1 0x0 PUSH1 0x2 PUSH1 0x0 DUP4 PUSH20 0xFFFFFFFFFFFFFFFFFFFFFFFFFFFFFFFFFFFFFFFF AND PUSH20 0xFFFFFFFFFFFFFFFFFFFFFFFFFFFFFFFFFFFFFFFF AND DUP2 MSTORE PUSH1 0x20 ADD SWAP1 DUP2 MSTORE PUSH1 0x20 ADD PUSH1 0x0 KECCAK256 PUSH1 0x0 SWAP1 SLOAD SWAP1 PUSH2 0x100 EXP SWAP1 DIV PUSH1 0xFF AND PUSH2 0x15DF JUMPI PUSH1 0x40 MLOAD PUSH32 0xE4FAD98200000000000000000000000000000000000000000000000000000000 DUP2 MSTORE PUSH1 0x4 ADD PUSH1 0x40 MLOAD DUP1 SWAP2 SUB SWAP1 REVERT JUMPDEST PUSH1 0x0 DUP3 PUSH20 0xFFFFFFFFFFFFFFFFFFFFFFFFFFFFFFFFFFFFFFFF AND PUSH4 0x70A08231 DUP6 PUSH1 0x40 MLOAD DUP3 PUSH4 0xFFFFFFFF AND PUSH1 0xE0 SHL DUP2 MSTORE PUSH1 0x4 ADD PUSH2 0x161A SWAP2 SWAP1 PUSH2 0x1E1F JUMP JUMPDEST PUSH1 0x20 PUSH1 0x40 MLOAD DUP1 DUP4 SUB DUP2 DUP7 GAS STATICCALL ISZERO DUP1 ISZERO PUSH2 0x1637 JUMPI RETURNDATASIZE PUSH1 0x0 DUP1 RETURNDATACOPY RETURNDATASIZE PUSH1 0x0 REVERT JUMPDEST POP POP POP POP PUSH1 0x40 MLOAD RETURNDATASIZE PUSH1 0x1F NOT PUSH1 0x1F DUP3 ADD AND DUP3 ADD DUP1 PUSH1 0x40 MSTORE POP DUP2 ADD SWAP1 PUSH2 0x165B SWAP2 SWAP1 PUSH2 0x2101 JUMP JUMPDEST GT SWAP1 POP SWAP3 SWAP2 POP POP JUMP JUMPDEST PUSH1 0x0 DUP1 SLOAD SWAP1 PUSH2 0x100 EXP SWAP1 DIV PUSH20 0xFFFFFFFFFFFFFFFFFFFFFFFFFFFFFFFFFFFFFFFF AND PUSH20 0xFFFFFFFFFFFFFFFFFFFFFFFFFFFFFFFFFFFFFFFF AND CALLER PUSH20 0xFFFFFFFFFFFFFFFFFFFFFFFFFFFFFFFFFFFFFFFF AND EQ PUSH2 0x16F4 JUMPI CALLER PUSH1 0x40 MLOAD PUSH32 0x118CDAA700000000000000000000000000000000000000000000000000000000 DUP2 MSTORE PUSH1 0x4 ADD PUSH2 0x16EB SWAP2 SWAP1 PUSH2 0x1E1F JUMP JUMPDEST PUSH1 0x40 MLOAD DUP1 SWAP2 SUB SWAP1 REVERT JUMPDEST PUSH1 0x0 PUSH20 0xFFFFFFFFFFFFFFFFFFFFFFFFFFFFFFFFFFFFFFFF AND DUP3 PUSH20 0xFFFFFFFFFFFFFFFFFFFFFFFFFFFFFFFFFFFFFFFF AND SUB PUSH2 0x175A JUMPI PUSH1 0x40 MLOAD PUSH32 0xD92E233D00000000000000000000000000000000000000000000000000000000 DUP2 MSTORE PUSH1 0x4 ADD PUSH1 0x40 MLOAD DUP1 SWAP2 SUB SWAP1 REVERT JUMPDEST DUP1 PUSH32 0x0 PUSH20 0xFFFFFFFFFFFFFFFFFFFFFFFFFFFFFFFFFFFFFFFF AND PUSH4 0x70A08231 ADDRESS PUSH1 0x40 MLOAD DUP3 PUSH4 0xFFFFFFFF AND PUSH1 0xE0 SHL DUP2 MSTORE PUSH1 0x4 ADD PUSH2 0x17B4 SWAP2 SWAP1 PUSH2 0x1E1F JUMP JUMPDEST PUSH1 0x20 PUSH1 0x40 MLOAD DUP1 DUP4 SUB DUP2 DUP7 GAS STATICCALL ISZERO DUP1 ISZERO PUSH2 0x17D1 JUMPI RETURNDATASIZE PUSH1 0x0 DUP1 RETURNDATACOPY RETURNDATASIZE PUSH1 0x0 REVERT JUMPDEST POP POP POP POP PUSH1 0x40 MLOAD RETURNDATASIZE PUSH1 0x1F NOT PUSH1 0x1F DUP3 ADD AND DUP3 ADD DUP1 PUSH1 0x40 MSTORE POP DUP2 ADD SWAP1 PUSH2 0x17F5 SWAP2 SWAP1 PUSH2 0x2101 JUMP JUMPDEST LT ISZERO PUSH2 0x182D JUMPI PUSH1 0x40 MLOAD PUSH32 0xCD85A9B600000000000000000000000000000000000000000000000000000000 DUP2 MSTORE PUSH1 0x4 ADD PUSH1 0x40 MLOAD DUP1 SWAP2 SUB SWAP1 REVERT JUMPDEST PUSH1 0x0 PUSH32 0x0 PUSH20 0xFFFFFFFFFFFFFFFFFFFFFFFFFFFFFFFFFFFFFFFF AND PUSH4 0xA9059CBB DUP5 DUP5 PUSH1 0x40 MLOAD DUP4 PUSH4 0xFFFFFFFF AND PUSH1 0xE0 SHL DUP2 MSTORE PUSH1 0x4 ADD PUSH2 0x188A SWAP3 SWAP2 SWAP1 PUSH2 0x212E JUMP JUMPDEST PUSH1 0x20 PUSH1 0x40 MLOAD DUP1 DUP4 SUB DUP2 PUSH1 0x0 DUP8 GAS CALL ISZERO DUP1 ISZERO PUSH2 0x18A9 JUMPI RETURNDATASIZE PUSH1 0x0 DUP1 RETURNDATACOPY RETURNDATASIZE PUSH1 0x0 REVERT JUMPDEST POP POP POP POP PUSH1 0x40 MLOAD RETURNDATASIZE PUSH1 0x1F NOT PUSH1 0x1F DUP3 ADD AND DUP3 ADD DUP1 PUSH1 0x40 MSTORE POP DUP2 ADD SWAP1 PUSH2 0x18CD SWAP2 SWAP1 PUSH2 0x216C JUMP JUMPDEST SWAP1 POP DUP1 PUSH2 0x1906 JUMPI PUSH1 0x40 MLOAD PUSH32 0x90B8EC1800000000000000000000000000000000000000000000000000000000 DUP2 MSTORE PUSH1 0x4 ADD PUSH1 0x40 MLOAD DUP1 SWAP2 SUB SWAP1 REVERT JUMPDEST DUP3 PUSH20 0xFFFFFFFFFFFFFFFFFFFFFFFFFFFFFFFFFFFFFFFF AND PUSH32 0x505868A902812249AC23C1A1E6CFDE9B4FD503466F8424DBB304332B9D5D8586 DUP4 PUSH1 0x40 MLOAD PUSH2 0x194C SWAP2 SWAP1 PUSH2 0x1D9C JUMP JUMPDEST PUSH1 0x40 MLOAD DUP1 SWAP2 SUB SWAP1 LOG2 POP POP POP JUMP JUMPDEST PUSH32 0x0 DUP2 JUMP JUMPDEST PUSH1 0x0 DUP1 SLOAD SWAP1 PUSH2 0x100 EXP SWAP1 DIV PUSH20 0xFFFFFFFFFFFFFFFFFFFFFFFFFFFFFFFFFFFFFFFF AND PUSH20 0xFFFFFFFFFFFFFFFFFFFFFFFFFFFFFFFFFFFFFFFF AND CALLER PUSH20 0xFFFFFFFFFFFFFFFFFFFFFFFFFFFFFFFFFFFFFFFF AND EQ PUSH2 0x1A0D JUMPI CALLER PUSH1 0x40 MLOAD PUSH32 0x118CDAA700000000000000000000000000000000000000000000000000000000 DUP2 MSTORE PUSH1 0x4 ADD PUSH2 0x1A04 SWAP2 SWAP1 PUSH2 0x1E1F JUMP JUMPDEST PUSH1 0x40 MLOAD DUP1 SWAP2 SUB SWAP1 REVERT JUMPDEST PUSH1 0x0 PUSH20 0xFFFFFFFFFFFFFFFFFFFFFFFFFFFFFFFFFFFFFFFF AND DUP2 PUSH20 0xFFFFFFFFFFFFFFFFFFFFFFFFFFFFFFFFFFFFFFFF AND SUB PUSH2 0x1A7F JUMPI PUSH1 0x0 PUSH1 0x40 MLOAD PUSH32 0x1E4FBDF700000000000000000000000000000000000000000000000000000000 DUP2 MSTORE PUSH1 0x4 ADD PUSH2 0x1A76 SWAP2 SWAP1 PUSH2 0x1E1F JUMP JUMPDEST PUSH1 0x40 MLOAD DUP1 SWAP2 SUB SWAP1 REVERT JUMPDEST DUP1 PUSH20 0xFFFFFFFFFFFFFFFFFFFFFFFFFFFFFFFFFFFFFFFF AND PUSH1 0x0 DUP1 SLOAD SWAP1 PUSH2 0x100 EXP SWAP1 DIV PUSH20 0xFFFFFFFFFFFFFFFFFFFFFFFFFFFFFFFFFFFFFFFF AND PUSH20 0xFFFFFFFFFFFFFFFFFFFFFFFFFFFFFFFFFFFFFFFF AND PUSH32 0x8BE0079C531659141344CD1FD0A4F28419497F9722A3DAAFE3B4186F6B6457E0 PUSH1 0x40 MLOAD PUSH1 0x40 MLOAD DUP1 SWAP2 SUB SWAP1 LOG3 DUP1 PUSH1 0x0 DUP1 PUSH2 0x100 EXP DUP2 SLOAD DUP2 PUSH20 0xFFFFFFFFFFFFFFFFFFFFFFFFFFFFFFFFFFFFFFFF MUL NOT AND SWAP1 DUP4 PUSH20 0xFFFFFFFFFFFFFFFFFFFFFFFFFFFFFFFFFFFFFFFF AND MUL OR SWAP1 SSTORE POP POP JUMP JUMPDEST PUSH1 0x0 DUP1 REVERT JUMPDEST PUSH1 0x0 DUP1 REVERT JUMPDEST PUSH1 0x0 PUSH20 0xFFFFFFFFFFFFFFFFFFFFFFFFFFFFFFFFFFFFFFFF DUP3 AND SWAP1 POP SWAP2 SWAP1 POP JUMP JUMPDEST PUSH1 0x0 PUSH2 0x1B71 DUP3 PUSH2 0x1B46 JUMP JUMPDEST SWAP1 POP SWAP2 SWAP1 POP JUMP JUMPDEST PUSH2 0x1B81 DUP2 PUSH2 0x1B66 JUMP JUMPDEST DUP2 EQ PUSH2 0x1B8C JUMPI PUSH1 0x0 DUP1 REVERT JUMPDEST POP JUMP JUMPDEST PUSH1 0x0 DUP2 CALLDATALOAD SWAP1 POP PUSH2 0x1B9E DUP2 PUSH2 0x1B78 JUMP JUMPDEST SWAP3 SWAP2 POP POP JUMP JUMPDEST PUSH1 0x0 PUSH1 0x20 DUP3 DUP5 SUB SLT ISZERO PUSH2 0x1BBA JUMPI PUSH2 0x1BB9 PUSH2 0x1B3C JUMP JUMPDEST JUMPDEST PUSH1 0x0 PUSH2 0x1BC8 DUP5 DUP3 DUP6 ADD PUSH2 0x1B8F JUMP JUMPDEST SWAP2 POP POP SWAP3 SWAP2 POP POP JUMP JUMPDEST PUSH1 0x0 DUP2 ISZERO ISZERO SWAP1 POP SWAP2 SWAP1 POP JUMP JUMPDEST PUSH2 0x1BE6 DUP2 PUSH2 0x1BD1 JUMP JUMPDEST DUP3 MSTORE POP POP JUMP JUMPDEST PUSH1 0x0 PUSH1 0x20 DUP3 ADD SWAP1 POP PUSH2 0x1C01 PUSH1 0x0 DUP4 ADD DUP5 PUSH2 0x1BDD JUMP JUMPDEST SWAP3 SWAP2 POP POP JUMP JUMPDEST PUSH1 0x0 DUP1 REVERT JUMPDEST PUSH1 0x0 DUP1 REVERT JUMPDEST PUSH1 0x0 DUP1 REVERT JUMPDEST PUSH1 0x0 DUP1 DUP4 PUSH1 0x1F DUP5 ADD SLT PUSH2 0x1C2C JUMPI PUSH2 0x1C2B PUSH2 0x1C07 JUMP JUMPDEST JUMPDEST DUP3 CALLDATALOAD SWAP1 POP PUSH8 0xFFFFFFFFFFFFFFFF DUP2 GT ISZERO PUSH2 0x1C49 JUMPI PUSH2 0x1C48 PUSH2 0x1C0C JUMP JUMPDEST JUMPDEST PUSH1 0x20 DUP4 ADD SWAP2 POP DUP4 PUSH1 0x20 DUP3 MUL DUP4 ADD GT ISZERO PUSH2 0x1C65 JUMPI PUSH2 0x1C64 PUSH2 0x1C11 JUMP JUMPDEST JUMPDEST SWAP3 POP SWAP3 SWAP1 POP JUMP JUMPDEST PUSH1 0x0 DUP1 DUP4 PUSH1 0x1F DUP5 ADD SLT PUSH2 0x1C82 JUMPI PUSH2 0x1C81 PUSH2 0x1C07 JUMP JUMPDEST JUMPDEST DUP3 CALLDATALOAD SWAP1 POP PUSH8 0xFFFFFFFFFFFFFFFF DUP2 GT ISZERO PUSH2 0x1C9F JUMPI PUSH2 0x1C9E PUSH2 0x1C0C JUMP JUMPDEST JUMPDEST PUSH1 0x20 DUP4 ADD SWAP2 POP DUP4 PUSH1 0x20 DUP3 MUL DUP4 ADD GT ISZERO PUSH2 0x1CBB JUMPI PUSH2 0x1CBA PUSH2 0x1C11 JUMP JUMPDEST JUMPDEST SWAP3 POP SWAP3 SWAP1 POP JUMP JUMPDEST PUSH1 0x0 DUP1 PUSH1 0x0 DUP1 PUSH1 0x40 DUP6 DUP8 SUB SLT ISZERO PUSH2 0x1CDC JUMPI PUSH2 0x1CDB PUSH2 0x1B3C JUMP JUMPDEST JUMPDEST PUSH1 0x0 DUP6 ADD CALLDATALOAD PUSH8 0xFFFFFFFFFFFFFFFF DUP2 GT ISZERO PUSH2 0x1CFA JUMPI PUSH2 0x1CF9 PUSH2 0x1B41 JUMP JUMPDEST JUMPDEST PUSH2 0x1D06 DUP8 DUP3 DUP9 ADD PUSH2 0x1C16 JUMP JUMPDEST SWAP5 POP SWAP5 POP POP PUSH1 0x20 DUP6 ADD CALLDATALOAD PUSH8 0xFFFFFFFFFFFFFFFF DUP2 GT ISZERO PUSH2 0x1D29 JUMPI PUSH2 0x1D28 PUSH2 0x1B41 JUMP JUMPDEST JUMPDEST PUSH2 0x1D35 DUP8 DUP3 DUP9 ADD PUSH2 0x1C6C JUMP JUMPDEST SWAP3 POP SWAP3 POP POP SWAP3 SWAP6 SWAP2 SWAP5 POP SWAP3 POP JUMP JUMPDEST PUSH1 0x0 DUP1 PUSH1 0x40 DUP4 DUP6 SUB SLT ISZERO PUSH2 0x1D5A JUMPI PUSH2 0x1D59 PUSH2 0x1B3C JUMP JUMPDEST JUMPDEST PUSH1 0x0 PUSH2 0x1D68 DUP6 DUP3 DUP7 ADD PUSH2 0x1B8F JUMP JUMPDEST SWAP3 POP POP PUSH1 0x20 PUSH2 0x1D79 DUP6 DUP3 DUP7 ADD PUSH2 0x1B8F JUMP JUMPDEST SWAP2 POP POP SWAP3 POP SWAP3 SWAP1 POP JUMP JUMPDEST PUSH1 0x0 DUP2 SWAP1 POP SWAP2 SWAP1 POP JUMP JUMPDEST PUSH2 0x1D96 DUP2 PUSH2 0x1D83 JUMP JUMPDEST DUP3 MSTORE POP POP JUMP JUMPDEST PUSH1 0x0 PUSH1 0x20 DUP3 ADD SWAP1 POP PUSH2 0x1DB1 PUSH1 0x0 DUP4 ADD DUP5 PUSH2 0x1D8D JUMP JUMPDEST SWAP3 SWAP2 POP POP JUMP JUMPDEST PUSH2 0x1DC0 DUP2 PUSH2 0x1D83 JUMP JUMPDEST DUP2 EQ PUSH2 0x1DCB JUMPI PUSH1 0x0 DUP1 REVERT JUMPDEST POP JUMP JUMPDEST PUSH1 0x0 DUP2 CALLDATALOAD SWAP1 POP PUSH2 0x1DDD DUP2 PUSH2 0x1DB7 JUMP JUMPDEST SWAP3 SWAP2 POP POP JUMP JUMPDEST PUSH1 0x0 PUSH1 0x20 DUP3 DUP5 SUB SLT ISZERO PUSH2 0x1DF9 JUMPI PUSH2 0x1DF8 PUSH2 0x1B3C JUMP JUMPDEST JUMPDEST PUSH1 0x0 PUSH2 0x1E07 DUP5 DUP3 DUP6 ADD PUSH2 0x1DCE JUMP JUMPDEST SWAP2 POP POP SWAP3 SWAP2 POP POP JUMP JUMPDEST PUSH2 0x1E19 DUP2 PUSH2 0x1B66 JUMP JUMPDEST DUP3 MSTORE POP POP JUMP JUMPDEST PUSH1 0x0 PUSH1 0x20 DUP3 ADD SWAP1 POP PUSH2 0x1E34 PUSH1 0x0 DUP4 ADD DUP5 PUSH2 0x1E10 JUMP JUMPDEST SWAP3 SWAP2 POP POP JUMP JUMPDEST PUSH2 0x1E43 DUP2 PUSH2 0x1BD1 JUMP JUMPDEST DUP2 EQ PUSH2 0x1E4E JUMPI PUSH1 0x0 DUP1 REVERT JUMPDEST POP JUMP JUMPDEST PUSH1 0x0 DUP2 CALLDATALOAD SWAP1 POP PUSH2 0x1E60 DUP2 PUSH2 0x1E3A JUMP JUMPDEST SWAP3 SWAP2 POP POP JUMP JUMPDEST PUSH1 0x0 DUP1 PUSH1 0x40 DUP4 DUP6 SUB SLT ISZERO PUSH2 0x1E7D JUMPI PUSH2 0x1E7C PUSH2 0x1B3C JUMP JUMPDEST JUMPDEST PUSH1 0x0 PUSH2 0x1E8B DUP6 DUP3 DUP7 ADD PUSH2 0x1B8F JUMP JUMPDEST SWAP3 POP POP PUSH1 0x20 PUSH2 0x1E9C DUP6 DUP3 DUP7 ADD PUSH2 0x1E51 JUMP JUMPDEST SWAP2 POP POP SWAP3 POP SWAP3 SWAP1 POP JUMP JUMPDEST PUSH1 0x0 DUP1 PUSH1 0x40 DUP4 DUP6 SUB SLT ISZERO PUSH2 0x1EBD JUMPI PUSH2 0x1EBC PUSH2 0x1B3C JUMP JUMPDEST JUMPDEST PUSH1 0x0 PUSH2 0x1ECB DUP6 DUP3 DUP7 ADD PUSH2 0x1B8F JUMP JUMPDEST SWAP3 POP POP PUSH1 0x20 PUSH2 0x1EDC DUP6 DUP3 DUP7 ADD PUSH2 0x1DCE JUMP JUMPDEST SWAP2 POP POP SWAP3 POP SWAP3 SWAP1 POP JUMP JUMPDEST PUSH1 0x0 DUP2 MLOAD SWAP1 POP SWAP2 SWAP1 POP JUMP JUMPDEST PUSH1 0x0 DUP3 DUP3 MSTORE PUSH1 0x20 DUP3 ADD SWAP1 POP SWAP3 SWAP2 POP POP JUMP JUMPDEST PUSH1 0x0 DUP2 SWAP1 POP PUSH1 0x20 DUP3 ADD SWAP1 POP SWAP2 SWAP1 POP JUMP JUMPDEST PUSH2 0x1F1B DUP2 PUSH2 0x1B66 JUMP JUMPDEST DUP3 MSTORE POP POP JUMP JUMPDEST PUSH1 0x0 PUSH2 0x1F2D DUP4 DUP4 PUSH2 0x1F12 JUMP JUMPDEST PUSH1 0x20 DUP4 ADD SWAP1 POP SWAP3 SWAP2 POP POP JUMP JUMPDEST PUSH1 0x0 PUSH1 0x20 DUP3 ADD SWAP1 POP SWAP2 SWAP1 POP JUMP JUMPDEST PUSH1 0x0 PUSH2 0x1F51 DUP3 PUSH2 0x1EE6 JUMP JUMPDEST PUSH2 0x1F5B DUP2 DUP6 PUSH2 0x1EF1 JUMP JUMPDEST SWAP4 POP PUSH2 0x1F66 DUP4 PUSH2 0x1F02 JUMP JUMPDEST DUP1 PUSH1 0x0 JUMPDEST DUP4 DUP2 LT ISZERO PUSH2 0x1F97 JUMPI DUP2 MLOAD PUSH2 0x1F7E DUP9 DUP3 PUSH2 0x1F21 JUMP JUMPDEST SWAP8 POP PUSH2 0x1F89 DUP4 PUSH2 0x1F39 JUMP JUMPDEST SWAP3 POP POP PUSH1 0x1 DUP2 ADD SWAP1 POP PUSH2 0x1F6A JUMP JUMPDEST POP DUP6 SWAP4 POP POP POP POP SWAP3 SWAP2 POP POP JUMP JUMPDEST PUSH1 0x0 PUSH1 0x20 DUP3 ADD SWAP1 POP DUP2 DUP2 SUB PUSH1 0x0 DUP4 ADD MSTORE PUSH2 0x1FBE DUP2 DUP5 PUSH2 0x1F46 JUMP JUMPDEST SWAP1 POP SWAP3 SWAP2 POP POP JUMP JUMPDEST PUSH1 0x0 DUP2 SWAP1 POP SWAP2 SWAP1 POP JUMP JUMPDEST PUSH1 0x0 PUSH2 0x1FEB PUSH2 0x1FE6 PUSH2 0x1FE1 DUP5 PUSH2 0x1B46 JUMP JUMPDEST PUSH2 0x1FC6 JUMP JUMPDEST PUSH2 0x1B46 JUMP JUMPDEST SWAP1 POP SWAP2 SWAP1 POP JUMP JUMPDEST PUSH1 0x0 PUSH2 0x1FFD DUP3 PUSH2 0x1FD0 JUMP JUMPDEST SWAP1 POP SWAP2 SWAP1 POP JUMP JUMPDEST PUSH1 0x0 PUSH2 0x200F DUP3 PUSH2 0x1FF2 JUMP JUMPDEST SWAP1 POP SWAP2 SWAP1 POP JUMP JUMPDEST PUSH2 0x201F DUP2 PUSH2 0x2004 JUMP JUMPDEST DUP3 MSTORE POP POP JUMP JUMPDEST PUSH1 0x0 PUSH1 0x20 DUP3 ADD SWAP1 POP PUSH2 0x203A PUSH1 0x0 DUP4 ADD DUP5 PUSH2 0x2016 JUMP JUMPDEST SWAP3 SWAP2 POP POP JUMP JUMPDEST PUSH1 0x0 DUP3 DUP3 MSTORE PUSH1 0x20 DUP3 ADD SWAP1 POP SWAP3 SWAP2 POP POP JUMP JUMPDEST PUSH32 0x4C656E677468206D69736D617463680000000000000000000000000000000000 PUSH1 0x0 DUP3 ADD MSTORE POP JUMP JUMPDEST PUSH1 0x0 PUSH2 0x2087 PUSH1 0xF DUP4 PUSH2 0x2040 JUMP JUMPDEST SWAP2 POP PUSH2 0x2092 DUP3 PUSH2 0x2051 JUMP JUMPDEST PUSH1 0x20 DUP3 ADD SWAP1 POP SWAP2 SWAP1 POP JUMP JUMPDEST PUSH1 0x0 PUSH1 0x20 DUP3 ADD SWAP1 POP DUP2 DUP2 SUB PUSH1 0x0 DUP4 ADD MSTORE PUSH2 0x20B6 DUP2 PUSH2 0x207A JUMP JUMPDEST SWAP1 POP SWAP2 SWAP1 POP JUMP JUMPDEST PUSH32 0x4E487B7100000000000000000000000000000000000000000000000000000000 PUSH1 0x0 MSTORE PUSH1 0x32 PUSH1 0x4 MSTORE PUSH1 0x24 PUSH1 0x0 REVERT JUMPDEST PUSH1 0x0 DUP2 MLOAD SWAP1 POP PUSH2 0x20FB DUP2 PUSH2 0x1DB7 JUMP JUMPDEST SWAP3 SWAP2 POP POP JUMP JUMPDEST PUSH1 0x0 PUSH1 0x20 DUP3 DUP5 SUB SLT ISZERO PUSH2 0x2117 JUMPI PUSH2 0x2116 PUSH2 0x1B3C JUMP JUMPDEST JUMPDEST PUSH1 0x0 PUSH2 0x2125 DUP5 DUP3 DUP6 ADD PUSH2 0x20EC JUMP JUMPDEST SWAP2 POP POP SWAP3 SWAP2 POP POP JUMP JUMPDEST PUSH1 0x0 PUSH1 0x40 DUP3 ADD SWAP1 POP PUSH2 0x2143 PUSH1 0x0 DUP4 ADD DUP6 PUSH2 0x1E10 JUMP JUMPDEST PUSH2 0x2150 PUSH1 0x20 DUP4 ADD DUP5 PUSH2 0x1D8D JUMP JUMPDEST SWAP4 SWAP3 POP POP POP JUMP JUMPDEST PUSH1 0x0 DUP2 MLOAD SWAP1 POP PUSH2 0x2166 DUP2 PUSH2 0x1E3A JUMP JUMPDEST SWAP3 SWAP2 POP POP JUMP JUMPDEST PUSH1 0x0 PUSH1 0x20 DUP3 DUP5 SUB SLT ISZERO PUSH2 0x2182 JUMPI PUSH2 0x2181 PUSH2 0x1B3C JUMP JUMPDEST JUMPDEST PUSH1 0x0 PUSH2 0x2190 DUP5 DUP3 DUP6 ADD PUSH2 0x2157 JUMP JUMPDEST SWAP2 POP POP SWAP3 SWAP2 POP POP JUMP JUMPDEST PUSH32 0x4E487B7100000000000000000000000000000000000000000000000000000000 PUSH1 0x0 MSTORE PUSH1 0x11 PUSH1 0x4 MSTORE PUSH1 0x24 PUSH1 0x0 REVERT JUMPDEST PUSH1 0x0 PUSH2 0x21D3 DUP3 PUSH2 0x1D83 JUMP JUMPDEST SWAP2 POP PUSH2 0x21DE DUP4 PUSH2 0x1D83 JUMP JUMPDEST SWAP3 POP DUP3 DUP3 ADD SWAP1 POP DUP1 DUP3 GT ISZERO PUSH2 0x21F6 JUMPI PUSH2 0x21F5 PUSH2 0x2199 JUMP JUMPDEST JUMPDEST SWAP3 SWAP2 POP POP JUMP INVALID LOG2 PUSH5 0x6970667358 0x22 SLT KECCAK256 LOG3 CALLVALUE CALL 0xCC 0xC3 0xE4 AND 0x4E GASPRICE 0xC4 PUSH18 0xB02EBDBE334947E171F3997B2BD80F6E2420 BLOBBASEFEE DUP12 PC PUSH5 0x736F6C6343 STOP ADDMOD XOR STOP CALLER "
				},
				"gasEstimates": {
					"creation": {
						"codeDepositCost": "1750800",
						"executionCost": "infinite",
						"totalCost": "infinite"
					},
					"external": {
						"balanceOfWhitelistedNFT(address,address)": "infinite",
						"clubBalance()": "infinite",
						"clubToken()": "infinite",
						"getWhitelistedNFTs()": "infinite",
						"holdsWhitelistedNFT(address,address)": "infinite",
						"operators(address)": "2869",
						"owner()": "2589",
						"rewardWinner(address,uint256)": "infinite",
						"rewardWinners(address[],uint256[])": "infinite",
						"setOperator(address,bool)": "infinite",
						"setWhitelistedNFT(address,bool)": "infinite",
						"totalWhitelistedNFTBalance(address)": "infinite",
						"transferOwnership(address)": "infinite",
						"whitelistedNFTList(uint256)": "5046",
						"whitelistedNFTs(address)": "2890",
						"withdrawAllClub()": "infinite",
						"withdrawClub(address,uint256)": "infinite"
					}
				},
				"methodIdentifiers": {
					"balanceOfWhitelistedNFT(address,address)": "2325101b",
					"clubBalance()": "3d65de44",
					"clubToken()": "d76bbd52",
					"getWhitelistedNFTs()": "ae4289c7",
					"holdsWhitelistedNFT(address,address)": "b91336f0",
					"operators(address)": "13e7c9d8",
					"owner()": "8da5cb5b",
					"rewardWinner(address,uint256)": "5795027f",
					"rewardWinners(address[],uint256[])": "170becbe",
					"setOperator(address,bool)": "558a7297",
					"setWhitelistedNFT(address,bool)": "6109f2b9",
					"totalWhitelistedNFTBalance(address)": "64fbbf90",
					"transferOwnership(address)": "f2fde38b",
					"whitelistedNFTList(uint256)": "36693152",
					"whitelistedNFTs(address)": "3f0c188f",
					"withdrawAllClub()": "a59f01ba",
					"withdrawClub(address,uint256)": "bddf7ac1"
				}
			},
			"storageLayout": {
				"storage": [
					{
						"astId": 36,
						"contract": "contracts/jarsSpinWheel/jarsSpinTheWheel.sol:BoltJarSpinVault",
						"label": "_owner",
						"offset": 0,
						"slot": "0",
						"type": "t_address"
					},
					{
						"astId": 147,
						"contract": "contracts/jarsSpinWheel/jarsSpinTheWheel.sol:BoltJarSpinVault",
						"label": "operators",
						"offset": 0,
						"slot": "1",
						"type": "t_mapping(t_address,t_bool)"
					},
					{
						"astId": 151,
						"contract": "contracts/jarsSpinWheel/jarsSpinTheWheel.sol:BoltJarSpinVault",
						"label": "whitelistedNFTs",
						"offset": 0,
						"slot": "2",
						"type": "t_mapping(t_address,t_bool)"
					},
					{
						"astId": 154,
						"contract": "contracts/jarsSpinWheel/jarsSpinTheWheel.sol:BoltJarSpinVault",
						"label": "whitelistedNFTList",
						"offset": 0,
						"slot": "3",
						"type": "t_array(t_address)dyn_storage"
					}
				],
				"types": {
					"t_address": {
						"encoding": "inplace",
						"label": "address",
						"numberOfBytes": "20"
					},
					"t_array(t_address)dyn_storage": {
						"base": "t_address",
						"encoding": "dynamic_array",
						"label": "address[]",
						"numberOfBytes": "32"
					},
					"t_bool": {
						"encoding": "inplace",
						"label": "bool",
						"numberOfBytes": "1"
					},
					"t_mapping(t_address,t_bool)": {
						"encoding": "mapping",
						"key": "t_address",
						"label": "mapping(address => bool)",
						"numberOfBytes": "32",
						"value": "t_bool"
					}
				}
			},
			"userdoc": {
				"kind": "user",
				"methods": {
					"balanceOfWhitelistedNFT(address,address)": {
						"notice": "Returns how many tokens from a specific whitelisted NFT collection a wallet holds."
					},
					"clubBalance()": {
						"notice": "Returns current CLUB balance held by this vault."
					},
					"getWhitelistedNFTs()": {
						"notice": "Returns the current whitelist array."
					},
					"holdsWhitelistedNFT(address,address)": {
						"notice": "Returns true if wallet holds at least 1 token from a specific whitelisted NFT collection."
					},
					"rewardWinner(address,uint256)": {
						"notice": "Sends CLUB reward to a winner."
					},
					"rewardWinners(address[],uint256[])": {
						"notice": "Batch payout helper for multiple winners."
					},
					"totalWhitelistedNFTBalance(address)": {
						"notice": "Returns total NFTs held across all currently-whitelisted collections."
					},
					"withdrawAllClub()": {
						"notice": "Withdraw full CLUB balance to owner."
					},
					"withdrawClub(address,uint256)": {
						"notice": "Owner emergency/fallback withdraw of CLUB tokens."
					}
				},
				"version": 1
			}
		}
	}
}