{
	"contracts/EnsSubdomainService/ETNRegistry.sol": {
		"ETNRegistry": {
			"abi": [
				{
					"inputs": [],
					"stateMutability": "nonpayable",
					"type": "constructor"
				},
				{
					"anonymous": false,
					"inputs": [
						{
							"indexed": true,
							"internalType": "address",
							"name": "owner",
							"type": "address"
						},
						{
							"indexed": true,
							"internalType": "address",
							"name": "operator",
							"type": "address"
						},
						{
							"indexed": false,
							"internalType": "bool",
							"name": "approved",
							"type": "bool"
						}
					],
					"name": "ApprovalForAll",
					"type": "event"
				},
				{
					"anonymous": false,
					"inputs": [
						{
							"indexed": true,
							"internalType": "bytes32",
							"name": "node",
							"type": "bytes32"
						},
						{
							"indexed": true,
							"internalType": "bytes32",
							"name": "label",
							"type": "bytes32"
						},
						{
							"indexed": false,
							"internalType": "address",
							"name": "owner",
							"type": "address"
						}
					],
					"name": "NewOwner",
					"type": "event"
				},
				{
					"anonymous": false,
					"inputs": [
						{
							"indexed": true,
							"internalType": "bytes32",
							"name": "node",
							"type": "bytes32"
						},
						{
							"indexed": false,
							"internalType": "address",
							"name": "resolver",
							"type": "address"
						}
					],
					"name": "NewResolver",
					"type": "event"
				},
				{
					"anonymous": false,
					"inputs": [
						{
							"indexed": true,
							"internalType": "bytes32",
							"name": "node",
							"type": "bytes32"
						},
						{
							"indexed": false,
							"internalType": "uint64",
							"name": "ttl",
							"type": "uint64"
						}
					],
					"name": "NewTTL",
					"type": "event"
				},
				{
					"anonymous": false,
					"inputs": [
						{
							"indexed": true,
							"internalType": "bytes32",
							"name": "node",
							"type": "bytes32"
						},
						{
							"indexed": false,
							"internalType": "address",
							"name": "owner",
							"type": "address"
						}
					],
					"name": "Transfer",
					"type": "event"
				},
				{
					"inputs": [
						{
							"internalType": "bytes32",
							"name": "node",
							"type": "bytes32"
						},
						{
							"internalType": "address",
							"name": "operator",
							"type": "address"
						}
					],
					"name": "isApprovedForAll",
					"outputs": [
						{
							"internalType": "bool",
							"name": "",
							"type": "bool"
						}
					],
					"stateMutability": "view",
					"type": "function"
				},
				{
					"inputs": [
						{
							"internalType": "bytes32",
							"name": "node",
							"type": "bytes32"
						}
					],
					"name": "owner",
					"outputs": [
						{
							"internalType": "address",
							"name": "",
							"type": "address"
						}
					],
					"stateMutability": "view",
					"type": "function"
				},
				{
					"inputs": [
						{
							"internalType": "bytes32",
							"name": "node",
							"type": "bytes32"
						}
					],
					"name": "recordExists",
					"outputs": [
						{
							"internalType": "bool",
							"name": "",
							"type": "bool"
						}
					],
					"stateMutability": "view",
					"type": "function"
				},
				{
					"inputs": [
						{
							"internalType": "bytes32",
							"name": "node",
							"type": "bytes32"
						}
					],
					"name": "resolver",
					"outputs": [
						{
							"internalType": "address",
							"name": "",
							"type": "address"
						}
					],
					"stateMutability": "view",
					"type": "function"
				},
				{
					"inputs": [
						{
							"internalType": "bytes32",
							"name": "node",
							"type": "bytes32"
						},
						{
							"internalType": "address",
							"name": "operator",
							"type": "address"
						},
						{
							"internalType": "bool",
							"name": "approved",
							"type": "bool"
						}
					],
					"name": "setApprovalForAll",
					"outputs": [],
					"stateMutability": "nonpayable",
					"type": "function"
				},
				{
					"inputs": [
						{
							"internalType": "bytes32",
							"name": "node",
							"type": "bytes32"
						},
						{
							"internalType": "address",
							"name": "owner_",
							"type": "address"
						}
					],
					"name": "setOwner",
					"outputs": [],
					"stateMutability": "nonpayable",
					"type": "function"
				},
				{
					"inputs": [
						{
							"internalType": "bytes32",
							"name": "node",
							"type": "bytes32"
						},
						{
							"internalType": "address",
							"name": "owner_",
							"type": "address"
						},
						{
							"internalType": "address",
							"name": "resolver_",
							"type": "address"
						},
						{
							"internalType": "uint64",
							"name": "ttl_",
							"type": "uint64"
						}
					],
					"name": "setRecord",
					"outputs": [],
					"stateMutability": "nonpayable",
					"type": "function"
				},
				{
					"inputs": [
						{
							"internalType": "bytes32",
							"name": "node",
							"type": "bytes32"
						},
						{
							"internalType": "address",
							"name": "resolver_",
							"type": "address"
						}
					],
					"name": "setResolver",
					"outputs": [],
					"stateMutability": "nonpayable",
					"type": "function"
				},
				{
					"inputs": [
						{
							"internalType": "bytes32",
							"name": "node",
							"type": "bytes32"
						},
						{
							"internalType": "bytes32",
							"name": "label",
							"type": "bytes32"
						},
						{
							"internalType": "address",
							"name": "owner_",
							"type": "address"
						}
					],
					"name": "setSubnodeOwner",
					"outputs": [
						{
							"internalType": "bytes32",
							"name": "subnode",
							"type": "bytes32"
						}
					],
					"stateMutability": "nonpayable",
					"type": "function"
				},
				{
					"inputs": [
						{
							"internalType": "bytes32",
							"name": "node",
							"type": "bytes32"
						},
						{
							"internalType": "bytes32",
							"name": "label",
							"type": "bytes32"
						},
						{
							"internalType": "address",
							"name": "owner_",
							"type": "address"
						},
						{
							"internalType": "address",
							"name": "resolver_",
							"type": "address"
						},
						{
							"internalType": "uint64",
							"name": "ttl_",
							"type": "uint64"
						}
					],
					"name": "setSubnodeRecord",
					"outputs": [
						{
							"internalType": "bytes32",
							"name": "subnode",
							"type": "bytes32"
						}
					],
					"stateMutability": "nonpayable",
					"type": "function"
				},
				{
					"inputs": [
						{
							"internalType": "bytes32",
							"name": "node",
							"type": "bytes32"
						},
						{
							"internalType": "uint64",
							"name": "ttl_",
							"type": "uint64"
						}
					],
					"name": "setTTL",
					"outputs": [],
					"stateMutability": "nonpayable",
					"type": "function"
				},
				{
					"inputs": [
						{
							"internalType": "bytes32",
							"name": "node",
							"type": "bytes32"
						}
					],
					"name": "ttl",
					"outputs": [
						{
							"internalType": "uint64",
							"name": "",
							"type": "uint64"
						}
					],
					"stateMutability": "view",
					"type": "function"
				}
			],
			"devdoc": {
				"kind": "dev",
				"methods": {
					"setSubnodeOwner(bytes32,bytes32,address)": {
						"params": {
							"label": "keccak256 of the label being registered (e.g. keccak256(\"alice\"))",
							"node": "Parent node  (e.g. namehash(\"etn\"))",
							"owner_": "The new owner address"
						}
					}
				},
				"title": "ETNRegistry",
				"version": 1
			},
			"evm": {
				"assembly": "    /* \"contracts/EnsSubdomainService/ETNRegistry.sol\":311:6581  contract ETNRegistry {... */\n  mstore(0x40, 0x80)\n    /* \"contracts/EnsSubdomainService/ETNRegistry.sol\":2488:2553  constructor() {... */\n  callvalue\n  dup1\n  iszero\n  tag_1\n  jumpi\n  0x00\n  dup1\n  revert\ntag_1:\n  pop\n    /* \"contracts/EnsSubdomainService/ETNRegistry.sol\":2513:2521  _records */\n  0x00\n    /* \"contracts/EnsSubdomainService/ETNRegistry.sol\":2513:2526  _records[0x0] */\n  dup1\n  dup1\n  mstore\n  0x20\n  mstore\n  0xad3228b676f7d3cd4284a5443f17f1962b36e491b30a40b2405849e597ba5fb5\n    /* \"contracts/EnsSubdomainService/ETNRegistry.sol\":2513:2545  _records[0x0].owner = msg.sender */\n  dup1\n  sload\n  not(sub(shl(0xa0, 0x01), 0x01))\n  and\n    /* \"contracts/EnsSubdomainService/ETNRegistry.sol\":2535:2545  msg.sender */\n  caller\n    /* \"contracts/EnsSubdomainService/ETNRegistry.sol\":2513:2545  _records[0x0].owner = msg.sender */\n  or\n  swap1\n  sstore\n    /* \"contracts/EnsSubdomainService/ETNRegistry.sol\":311:6581  contract ETNRegistry {... */\n  dataSize(sub_0)\n  dup1\n  dataOffset(sub_0)\n  0x00\n  codecopy\n  0x00\n  return\nstop\n\nsub_0: assembly {\n        /* \"contracts/EnsSubdomainService/ETNRegistry.sol\":311:6581  contract ETNRegistry {... */\n      mstore(0x40, 0x80)\n      callvalue\n      dup1\n      iszero\n      tag_1\n      jumpi\n      0x00\n      dup1\n      revert\n    tag_1:\n      pop\n      jumpi(tag_2, lt(calldatasize, 0x04))\n      shr(0xe0, calldataload(0x00))\n      dup1\n      0x5b0fc9c3\n      gt\n      tag_15\n      jumpi\n      dup1\n      0x5b0fc9c3\n      eq\n      tag_9\n      jumpi\n      dup1\n      0x5ef2c7f0\n      eq\n      tag_10\n      jumpi\n      dup1\n      0xb0698628\n      eq\n      tag_11\n      jumpi\n      dup1\n      0xbc053e73\n      eq\n      tag_12\n      jumpi\n      dup1\n      0xcf408823\n      eq\n      tag_13\n      jumpi\n      dup1\n      0xf79fe538\n      eq\n      tag_14\n      jumpi\n      0x00\n      dup1\n      revert\n    tag_15:\n      dup1\n      0x0178b8bf\n      eq\n      tag_3\n      jumpi\n      dup1\n      0x02571be3\n      eq\n      tag_4\n      jumpi\n      dup1\n      0x06ab5923\n      eq\n      tag_5\n      jumpi\n      dup1\n      0x14ab9038\n      eq\n      tag_6\n      jumpi\n      dup1\n      0x16a25cbd\n      eq\n      tag_7\n      jumpi\n      dup1\n      0x1896f70a\n      eq\n      tag_8\n      jumpi\n    tag_2:\n      0x00\n      dup1\n      revert\n        /* \"contracts/EnsSubdomainService/ETNRegistry.sol\":5677:5776  function resolver(bytes32 node) external view returns (address) { return _records[node].resolver; } */\n    tag_3:\n      tag_16\n      tag_17\n      calldatasize\n      0x04\n      tag_18\n      jump\t// in\n    tag_17:\n        /* \"contracts/EnsSubdomainService/ETNRegistry.sol\":5732:5739  address */\n      0x00\n        /* \"contracts/EnsSubdomainService/ETNRegistry.sol\":5750:5764  _records[node] */\n      swap1\n      dup2\n      mstore\n      0x20\n      dup2\n      swap1\n      mstore\n      0x40\n      swap1\n      keccak256\n        /* \"contracts/EnsSubdomainService/ETNRegistry.sol\":5750:5773  _records[node].resolver */\n      0x01\n      add\n      sload\n      sub(shl(0xa0, 0x01), 0x01)\n      and\n      swap1\n        /* \"contracts/EnsSubdomainService/ETNRegistry.sol\":5677:5776  function resolver(bytes32 node) external view returns (address) { return _records[node].resolver; } */\n      jump\n    tag_16:\n      mload(0x40)\n      sub(shl(0xa0, 0x01), 0x01)\n        /* \"#utility.yul\":363:395   */\n      swap1\n      swap2\n      and\n        /* \"#utility.yul\":345:396   */\n      dup2\n      mstore\n        /* \"#utility.yul\":333:335   */\n      0x20\n        /* \"#utility.yul\":318:336   */\n      add\n        /* \"contracts/EnsSubdomainService/ETNRegistry.sol\":5677:5776  function resolver(bytes32 node) external view returns (address) { return _records[node].resolver; } */\n    tag_20:\n      mload(0x40)\n      dup1\n      swap2\n      sub\n      swap1\n      return\n        /* \"contracts/EnsSubdomainService/ETNRegistry.sol\":5575:5671  function owner   (bytes32 node) external view returns (address) { return _records[node].owner; } */\n    tag_4:\n      tag_16\n      tag_23\n      calldatasize\n      0x04\n      tag_18\n      jump\t// in\n    tag_23:\n        /* \"contracts/EnsSubdomainService/ETNRegistry.sol\":5630:5637  address */\n      0x00\n        /* \"contracts/EnsSubdomainService/ETNRegistry.sol\":5648:5662  _records[node] */\n      swap1\n      dup2\n      mstore\n      0x20\n      dup2\n      swap1\n      mstore\n      0x40\n      swap1\n      keccak256\n        /* \"contracts/EnsSubdomainService/ETNRegistry.sol\":5648:5668  _records[node].owner */\n      sload\n      sub(shl(0xa0, 0x01), 0x01)\n      and\n      swap1\n        /* \"contracts/EnsSubdomainService/ETNRegistry.sol\":5575:5671  function owner   (bytes32 node) external view returns (address) { return _records[node].owner; } */\n      jump\n        /* \"contracts/EnsSubdomainService/ETNRegistry.sol\":3166:3473  function setSubnodeOwner(... */\n    tag_5:\n      tag_26\n      tag_27\n      calldatasize\n      0x04\n      tag_28\n      jump\t// in\n    tag_27:\n      tag_29\n      jump\t// in\n    tag_26:\n      mload(0x40)\n        /* \"#utility.yul\":1058:1083   */\n      swap1\n      dup2\n      mstore\n        /* \"#utility.yul\":1046:1048   */\n      0x20\n        /* \"#utility.yul\":1031:1049   */\n      add\n        /* \"contracts/EnsSubdomainService/ETNRegistry.sol\":3166:3473  function setSubnodeOwner(... */\n      tag_20\n        /* \"#utility.yul\":912:1089   */\n      jump\n        /* \"contracts/EnsSubdomainService/ETNRegistry.sol\":4817:4964  function setTTL(bytes32 node, uint64 ttl_) external authorised(node) {... */\n    tag_6:\n      tag_32\n      tag_33\n      calldatasize\n      0x04\n      tag_34\n      jump\t// in\n    tag_33:\n      tag_35\n      jump\t// in\n    tag_32:\n      stop\n        /* \"contracts/EnsSubdomainService/ETNRegistry.sol\":5782:5876  function ttl     (bytes32 node) external view returns (uint64)  { return _records[node].ttl; } */\n    tag_7:\n      tag_36\n      tag_37\n      calldatasize\n      0x04\n      tag_18\n      jump\t// in\n    tag_37:\n        /* \"contracts/EnsSubdomainService/ETNRegistry.sol\":5837:5843  uint64 */\n      0x00\n        /* \"contracts/EnsSubdomainService/ETNRegistry.sol\":5855:5869  _records[node] */\n      swap1\n      dup2\n      mstore\n      0x20\n      dup2\n      swap1\n      mstore\n      0x40\n      swap1\n      keccak256\n        /* \"contracts/EnsSubdomainService/ETNRegistry.sol\":5855:5873  _records[node].ttl */\n      0x01\n      add\n      sload\n      shl(0xa0, 0x01)\n      swap1\n      div\n      0xffffffffffffffff\n      and\n      swap1\n        /* \"contracts/EnsSubdomainService/ETNRegistry.sol\":5782:5876  function ttl     (bytes32 node) external view returns (uint64)  { return _records[node].ttl; } */\n      jump\n    tag_36:\n      mload(0x40)\n        /* \"#utility.yul\":1701:1719   */\n      0xffffffffffffffff\n        /* \"#utility.yul\":1689:1720   */\n      swap1\n      swap2\n      and\n        /* \"#utility.yul\":1671:1721   */\n      dup2\n      mstore\n        /* \"#utility.yul\":1659:1661   */\n      0x20\n        /* \"#utility.yul\":1644:1662   */\n      add\n        /* \"contracts/EnsSubdomainService/ETNRegistry.sol\":5782:5876  function ttl     (bytes32 node) external view returns (uint64)  { return _records[node].ttl; } */\n      tag_20\n        /* \"#utility.yul\":1527:1727   */\n      jump\n        /* \"contracts/EnsSubdomainService/ETNRegistry.sol\":4631:4809  function setResolver(bytes32 node, address resolver_) external authorised(node) {... */\n    tag_8:\n      tag_32\n      tag_42\n      calldatasize\n      0x04\n      tag_43\n      jump\t// in\n    tag_42:\n      tag_44\n      jump\t// in\n        /* \"contracts/EnsSubdomainService/ETNRegistry.sol\":4469:4623  function setOwner(bytes32 node, address owner_) external authorised(node) {... */\n    tag_9:\n      tag_32\n      tag_46\n      calldatasize\n      0x04\n      tag_43\n      jump\t// in\n    tag_46:\n      tag_47\n      jump\t// in\n        /* \"contracts/EnsSubdomainService/ETNRegistry.sol\":3925:4461  function setSubnodeRecord(... */\n    tag_10:\n      tag_26\n      tag_49\n      calldatasize\n      0x04\n      tag_50\n      jump\t// in\n    tag_49:\n      tag_51\n      jump\t// in\n        /* \"contracts/EnsSubdomainService/ETNRegistry.sol\":6017:6156  function isApprovedForAll(bytes32 node, address operator) external view returns (bool) {... */\n    tag_11:\n      tag_53\n      tag_54\n      calldatasize\n      0x04\n      tag_43\n      jump\t// in\n    tag_54:\n        /* \"contracts/EnsSubdomainService/ETNRegistry.sol\":6098:6102  bool */\n      0x00\n        /* \"contracts/EnsSubdomainService/ETNRegistry.sol\":6122:6138  _operators[node] */\n      swap2\n      dup3\n      mstore\n        /* \"contracts/EnsSubdomainService/ETNRegistry.sol\":6122:6132  _operators */\n      0x01\n        /* \"contracts/EnsSubdomainService/ETNRegistry.sol\":6122:6138  _operators[node] */\n      0x20\n      swap1\n      dup2\n      mstore\n      0x40\n      dup1\n      dup5\n      keccak256\n      sub(shl(0xa0, 0x01), 0x01)\n        /* \"contracts/EnsSubdomainService/ETNRegistry.sol\":6122:6148  _operators[node][operator] */\n      swap4\n      swap1\n      swap4\n      and\n      dup5\n      mstore\n      swap2\n      swap1\n      mstore\n      swap1\n      keccak256\n      sload\n      0xff\n      and\n      swap1\n        /* \"contracts/EnsSubdomainService/ETNRegistry.sol\":6017:6156  function isApprovedForAll(bytes32 node, address operator) external view returns (bool) {... */\n      jump\n    tag_53:\n      mload(0x40)\n        /* \"#utility.yul\":2631:2645   */\n      swap1\n      iszero\n        /* \"#utility.yul\":2624:2646   */\n      iszero\n        /* \"#utility.yul\":2606:2647   */\n      dup2\n      mstore\n        /* \"#utility.yul\":2594:2596   */\n      0x20\n        /* \"#utility.yul\":2579:2597   */\n      add\n        /* \"contracts/EnsSubdomainService/ETNRegistry.sol\":6017:6156  function isApprovedForAll(bytes32 node, address operator) external view returns (bool) {... */\n      tag_20\n        /* \"#utility.yul\":2466:2653   */\n      jump\n        /* \"contracts/EnsSubdomainService/ETNRegistry.sol\":4972:5253  function setApprovalForAll(bytes32 node, address operator, bool approved) external {... */\n    tag_12:\n      tag_32\n      tag_59\n      calldatasize\n      0x04\n      tag_60\n      jump\t// in\n    tag_59:\n      tag_61\n      jump\t// in\n        /* \"contracts/EnsSubdomainService/ETNRegistry.sol\":3559:3917  function setRecord(... */\n    tag_13:\n      tag_32\n      tag_63\n      calldatasize\n      0x04\n      tag_64\n      jump\t// in\n    tag_63:\n      tag_65\n      jump\t// in\n        /* \"contracts/EnsSubdomainService/ETNRegistry.sol\":5884:6009  function recordExists(bytes32 node) external view returns (bool) {... */\n    tag_14:\n      tag_53\n      tag_67\n      calldatasize\n      0x04\n      tag_18\n      jump\t// in\n    tag_67:\n        /* \"contracts/EnsSubdomainService/ETNRegistry.sol\":5943:5947  bool */\n      0x00\n        /* \"contracts/EnsSubdomainService/ETNRegistry.sol\":5967:5981  _records[node] */\n      swap1\n      dup2\n      mstore\n      0x20\n      dup2\n      swap1\n      mstore\n      0x40\n      swap1\n      keccak256\n        /* \"contracts/EnsSubdomainService/ETNRegistry.sol\":5967:5987  _records[node].owner */\n      sload\n      sub(shl(0xa0, 0x01), 0x01)\n      and\n        /* \"contracts/EnsSubdomainService/ETNRegistry.sol\":5967:6001  _records[node].owner != address(0) */\n      iszero\n      iszero\n      swap1\n        /* \"contracts/EnsSubdomainService/ETNRegistry.sol\":5884:6009  function recordExists(bytes32 node) external view returns (bool) {... */\n      jump\n        /* \"contracts/EnsSubdomainService/ETNRegistry.sol\":3166:3473  function setSubnodeOwner(... */\n    tag_29:\n        /* \"contracts/EnsSubdomainService/ETNRegistry.sol\":3305:3320  bytes32 subnode */\n      0x00\n        /* \"contracts/EnsSubdomainService/ETNRegistry.sol\":1989:2003  _records[node] */\n      dup4\n      dup2\n      mstore\n      0x20\n      dup2\n      swap1\n      mstore\n      0x40\n      dup2\n      keccak256\n        /* \"contracts/EnsSubdomainService/ETNRegistry.sol\":1989:2009  _records[node].owner */\n      sload\n        /* \"contracts/EnsSubdomainService/ETNRegistry.sol\":3290:3294  node */\n      dup5\n      swap1\n      sub(shl(0xa0, 0x01), 0x01)\n        /* \"contracts/EnsSubdomainService/ETNRegistry.sol\":1989:2009  _records[node].owner */\n      and\n        /* \"contracts/EnsSubdomainService/ETNRegistry.sol\":2044:2054  msg.sender */\n      caller\n        /* \"contracts/EnsSubdomainService/ETNRegistry.sol\":2034:2054  _owner == msg.sender */\n      dup2\n      eq\n      dup1\n        /* \"contracts/EnsSubdomainService/ETNRegistry.sol\":2034:2086  _owner == msg.sender || _operators[node][msg.sender] */\n      tag_73\n      jumpi\n      pop\n        /* \"contracts/EnsSubdomainService/ETNRegistry.sol\":2058:2074  _operators[node] */\n      0x00\n      dup3\n      dup2\n      mstore\n        /* \"contracts/EnsSubdomainService/ETNRegistry.sol\":2058:2068  _operators */\n      0x01\n        /* \"contracts/EnsSubdomainService/ETNRegistry.sol\":2058:2074  _operators[node] */\n      0x20\n      swap1\n      dup2\n      mstore\n      0x40\n      dup1\n      dup4\n      keccak256\n        /* \"contracts/EnsSubdomainService/ETNRegistry.sol\":2075:2085  msg.sender */\n      caller\n        /* \"contracts/EnsSubdomainService/ETNRegistry.sol\":2058:2086  _operators[node][msg.sender] */\n      dup5\n      mstore\n      swap1\n      swap2\n      mstore\n      swap1\n      keccak256\n      sload\n      0xff\n      and\n        /* \"contracts/EnsSubdomainService/ETNRegistry.sol\":2034:2086  _owner == msg.sender || _operators[node][msg.sender] */\n    tag_73:\n        /* \"contracts/EnsSubdomainService/ETNRegistry.sol\":2016:2133  require(... */\n      tag_74\n      jumpi\n      mload(0x40)\n      shl(0xe5, 0x461bcd)\n      dup2\n      mstore\n      0x04\n      add\n      tag_75\n      swap1\n      tag_76\n      jump\t// in\n    tag_75:\n      mload(0x40)\n      dup1\n      swap2\n      sub\n      swap1\n      revert\n    tag_74:\n        /* \"contracts/EnsSubdomainService/ETNRegistry.sol\":3353:3382  abi.encodePacked(node, label) */\n      0x40\n      dup1\n      mload\n      0x20\n      dup2\n      add\n        /* \"#utility.yul\":3997:4016   */\n      dup9\n      swap1\n      mstore\n        /* \"#utility.yul\":4032:4044   */\n      swap1\n      dup2\n      add\n        /* \"#utility.yul\":4025:4053   */\n      dup7\n      swap1\n      mstore\n        /* \"#utility.yul\":4069:4081   */\n      0x60\n      add\n        /* \"contracts/EnsSubdomainService/ETNRegistry.sol\":3353:3382  abi.encodePacked(node, label) */\n      mload(0x40)\n      0x20\n      dup2\n      dup4\n      sub\n      sub\n      dup2\n      mstore\n      swap1\n      0x40\n      mstore\n        /* \"contracts/EnsSubdomainService/ETNRegistry.sol\":3343:3383  keccak256(abi.encodePacked(node, label)) */\n      dup1\n      mload\n      swap1\n      0x20\n      add\n      keccak256\n        /* \"contracts/EnsSubdomainService/ETNRegistry.sol\":3333:3383  subnode = keccak256(abi.encodePacked(node, label)) */\n      swap3\n      pop\n        /* \"contracts/EnsSubdomainService/ETNRegistry.sol\":3394:3420  _setOwner(subnode, owner_) */\n      tag_80\n        /* \"contracts/EnsSubdomainService/ETNRegistry.sol\":3404:3411  subnode */\n      dup4\n        /* \"contracts/EnsSubdomainService/ETNRegistry.sol\":3413:3419  owner_ */\n      dup6\n        /* \"contracts/EnsSubdomainService/ETNRegistry.sol\":3394:3403  _setOwner */\n      tag_81\n        /* \"contracts/EnsSubdomainService/ETNRegistry.sol\":3394:3420  _setOwner(subnode, owner_) */\n      jump\t// in\n    tag_80:\n        /* \"contracts/EnsSubdomainService/ETNRegistry.sol\":3436:3465  NewOwner(node, label, owner_) */\n      mload(0x40)\n      sub(shl(0xa0, 0x01), 0x01)\n        /* \"#utility.yul\":363:395   */\n      dup6\n      and\n        /* \"#utility.yul\":345:396   */\n      dup2\n      mstore\n        /* \"contracts/EnsSubdomainService/ETNRegistry.sol\":3451:3456  label */\n      dup6\n      swap1\n        /* \"contracts/EnsSubdomainService/ETNRegistry.sol\":3445:3449  node */\n      dup8\n      swap1\n        /* \"contracts/EnsSubdomainService/ETNRegistry.sol\":3436:3465  NewOwner(node, label, owner_) */\n      0xce0457fe73731f824cc272376169235128c118b49d344817417c6d108d155e82\n      swap1\n        /* \"#utility.yul\":333:335   */\n      0x20\n        /* \"#utility.yul\":318:336   */\n      add\n        /* \"contracts/EnsSubdomainService/ETNRegistry.sol\":3436:3465  NewOwner(node, label, owner_) */\n      mload(0x40)\n      dup1\n      swap2\n      sub\n      swap1\n      log3\n        /* \"contracts/EnsSubdomainService/ETNRegistry.sol\":1965:2145  {... */\n      pop\n        /* \"contracts/EnsSubdomainService/ETNRegistry.sol\":3166:3473  function setSubnodeOwner(... */\n      pop\n      swap4\n      swap3\n      pop\n      pop\n      pop\n      jump\t// out\n        /* \"contracts/EnsSubdomainService/ETNRegistry.sol\":4817:4964  function setTTL(bytes32 node, uint64 ttl_) external authorised(node) {... */\n    tag_35:\n        /* \"contracts/EnsSubdomainService/ETNRegistry.sol\":1972:1986  address _owner */\n      0x00\n        /* \"contracts/EnsSubdomainService/ETNRegistry.sol\":1989:2003  _records[node] */\n      dup3\n      dup2\n      mstore\n      0x20\n      dup2\n      swap1\n      mstore\n      0x40\n      swap1\n      keccak256\n        /* \"contracts/EnsSubdomainService/ETNRegistry.sol\":1989:2009  _records[node].owner */\n      sload\n        /* \"contracts/EnsSubdomainService/ETNRegistry.sol\":4880:4884  node */\n      dup3\n      swap1\n      sub(shl(0xa0, 0x01), 0x01)\n        /* \"contracts/EnsSubdomainService/ETNRegistry.sol\":1989:2009  _records[node].owner */\n      and\n        /* \"contracts/EnsSubdomainService/ETNRegistry.sol\":2044:2054  msg.sender */\n      caller\n        /* \"contracts/EnsSubdomainService/ETNRegistry.sol\":2034:2054  _owner == msg.sender */\n      dup2\n      eq\n      dup1\n        /* \"contracts/EnsSubdomainService/ETNRegistry.sol\":2034:2086  _owner == msg.sender || _operators[node][msg.sender] */\n      tag_84\n      jumpi\n      pop\n        /* \"contracts/EnsSubdomainService/ETNRegistry.sol\":2058:2074  _operators[node] */\n      0x00\n      dup3\n      dup2\n      mstore\n        /* \"contracts/EnsSubdomainService/ETNRegistry.sol\":2058:2068  _operators */\n      0x01\n        /* \"contracts/EnsSubdomainService/ETNRegistry.sol\":2058:2074  _operators[node] */\n      0x20\n      swap1\n      dup2\n      mstore\n      0x40\n      dup1\n      dup4\n      keccak256\n        /* \"contracts/EnsSubdomainService/ETNRegistry.sol\":2075:2085  msg.sender */\n      caller\n        /* \"contracts/EnsSubdomainService/ETNRegistry.sol\":2058:2086  _operators[node][msg.sender] */\n      dup5\n      mstore\n      swap1\n      swap2\n      mstore\n      swap1\n      keccak256\n      sload\n      0xff\n      and\n        /* \"contracts/EnsSubdomainService/ETNRegistry.sol\":2034:2086  _owner == msg.sender || _operators[node][msg.sender] */\n    tag_84:\n        /* \"contracts/EnsSubdomainService/ETNRegistry.sol\":2016:2133  require(... */\n      tag_85\n      jumpi\n      mload(0x40)\n      shl(0xe5, 0x461bcd)\n      dup2\n      mstore\n      0x04\n      add\n      tag_75\n      swap1\n      tag_76\n      jump\t// in\n    tag_85:\n        /* \"contracts/EnsSubdomainService/ETNRegistry.sol\":4897:4905  _records */\n      0x00\n        /* \"contracts/EnsSubdomainService/ETNRegistry.sol\":4897:4911  _records[node] */\n      dup5\n      dup2\n      mstore\n      0x20\n      dup2\n      dup2\n      mstore\n      0x40\n      swap2\n      dup3\n      swap1\n      keccak256\n        /* \"contracts/EnsSubdomainService/ETNRegistry.sol\":4897:4915  _records[node].ttl */\n      0x01\n      add\n        /* \"contracts/EnsSubdomainService/ETNRegistry.sol\":4897:4922  _records[node].ttl = ttl_ */\n      dup1\n      sload\n      not(shl(0xa0, 0xffffffffffffffff))\n      and\n      shl(0xa0, 0x01)\n      0xffffffffffffffff\n      dup9\n      and\n      swap1\n      dup2\n      mul\n      swap2\n      swap1\n      swap2\n      or\n      swap1\n      swap2\n      sstore\n        /* \"contracts/EnsSubdomainService/ETNRegistry.sol\":4938:4956  NewTTL(node, ttl_) */\n      swap2\n      mload\n        /* \"#utility.yul\":1671:1721   */\n      swap2\n      dup3\n      mstore\n        /* \"contracts/EnsSubdomainService/ETNRegistry.sol\":4897:4911  _records[node] */\n      dup6\n      swap2\n        /* \"contracts/EnsSubdomainService/ETNRegistry.sol\":4938:4956  NewTTL(node, ttl_) */\n      0x1d4f9bbfc9cab89d66e1a1562f2233ccbf1308cb4f63de2ead5787adddb8fa68\n      swap2\n        /* \"#utility.yul\":1644:1662   */\n      add\n        /* \"contracts/EnsSubdomainService/ETNRegistry.sol\":4938:4956  NewTTL(node, ttl_) */\n    tag_88:\n      mload(0x40)\n      dup1\n      swap2\n      sub\n      swap1\n      log2\n        /* \"contracts/EnsSubdomainService/ETNRegistry.sol\":1965:2145  {... */\n      pop\n        /* \"contracts/EnsSubdomainService/ETNRegistry.sol\":4817:4964  function setTTL(bytes32 node, uint64 ttl_) external authorised(node) {... */\n      pop\n      pop\n      pop\n      jump\t// out\n        /* \"contracts/EnsSubdomainService/ETNRegistry.sol\":4631:4809  function setResolver(bytes32 node, address resolver_) external authorised(node) {... */\n    tag_44:\n        /* \"contracts/EnsSubdomainService/ETNRegistry.sol\":1972:1986  address _owner */\n      0x00\n        /* \"contracts/EnsSubdomainService/ETNRegistry.sol\":1989:2003  _records[node] */\n      dup3\n      dup2\n      mstore\n      0x20\n      dup2\n      swap1\n      mstore\n      0x40\n      swap1\n      keccak256\n        /* \"contracts/EnsSubdomainService/ETNRegistry.sol\":1989:2009  _records[node].owner */\n      sload\n        /* \"contracts/EnsSubdomainService/ETNRegistry.sol\":4705:4709  node */\n      dup3\n      swap1\n      sub(shl(0xa0, 0x01), 0x01)\n        /* \"contracts/EnsSubdomainService/ETNRegistry.sol\":1989:2009  _records[node].owner */\n      and\n        /* \"contracts/EnsSubdomainService/ETNRegistry.sol\":2044:2054  msg.sender */\n      caller\n        /* \"contracts/EnsSubdomainService/ETNRegistry.sol\":2034:2054  _owner == msg.sender */\n      dup2\n      eq\n      dup1\n        /* \"contracts/EnsSubdomainService/ETNRegistry.sol\":2034:2086  _owner == msg.sender || _operators[node][msg.sender] */\n      tag_91\n      jumpi\n      pop\n        /* \"contracts/EnsSubdomainService/ETNRegistry.sol\":2058:2074  _operators[node] */\n      0x00\n      dup3\n      dup2\n      mstore\n        /* \"contracts/EnsSubdomainService/ETNRegistry.sol\":2058:2068  _operators */\n      0x01\n        /* \"contracts/EnsSubdomainService/ETNRegistry.sol\":2058:2074  _operators[node] */\n      0x20\n      swap1\n      dup2\n      mstore\n      0x40\n      dup1\n      dup4\n      keccak256\n        /* \"contracts/EnsSubdomainService/ETNRegistry.sol\":2075:2085  msg.sender */\n      caller\n        /* \"contracts/EnsSubdomainService/ETNRegistry.sol\":2058:2086  _operators[node][msg.sender] */\n      dup5\n      mstore\n      swap1\n      swap2\n      mstore\n      swap1\n      keccak256\n      sload\n      0xff\n      and\n        /* \"contracts/EnsSubdomainService/ETNRegistry.sol\":2034:2086  _owner == msg.sender || _operators[node][msg.sender] */\n    tag_91:\n        /* \"contracts/EnsSubdomainService/ETNRegistry.sol\":2016:2133  require(... */\n      tag_92\n      jumpi\n      mload(0x40)\n      shl(0xe5, 0x461bcd)\n      dup2\n      mstore\n      0x04\n      add\n      tag_75\n      swap1\n      tag_76\n      jump\t// in\n    tag_92:\n        /* \"contracts/EnsSubdomainService/ETNRegistry.sol\":4722:4730  _records */\n      0x00\n        /* \"contracts/EnsSubdomainService/ETNRegistry.sol\":4722:4736  _records[node] */\n      dup5\n      dup2\n      mstore\n      0x20\n      dup2\n      dup2\n      mstore\n      0x40\n      swap2\n      dup3\n      swap1\n      keccak256\n        /* \"contracts/EnsSubdomainService/ETNRegistry.sol\":4722:4745  _records[node].resolver */\n      0x01\n      add\n        /* \"contracts/EnsSubdomainService/ETNRegistry.sol\":4722:4757  _records[node].resolver = resolver_ */\n      dup1\n      sload\n      not(sub(shl(0xa0, 0x01), 0x01))\n      and\n      sub(shl(0xa0, 0x01), 0x01)\n      dup8\n      and\n      swap1\n      dup2\n      or\n      swap1\n      swap2\n      sstore\n        /* \"contracts/EnsSubdomainService/ETNRegistry.sol\":4773:4801  NewResolver(node, resolver_) */\n      swap2\n      mload\n        /* \"#utility.yul\":345:396   */\n      swap2\n      dup3\n      mstore\n        /* \"contracts/EnsSubdomainService/ETNRegistry.sol\":4722:4736  _records[node] */\n      dup6\n      swap2\n        /* \"contracts/EnsSubdomainService/ETNRegistry.sol\":4773:4801  NewResolver(node, resolver_) */\n      0x335721b01866dc23fbee8b6b2c7b1e14d6f05c28cd35a2c934239f94095602a0\n      swap2\n        /* \"#utility.yul\":318:336   */\n      add\n        /* \"contracts/EnsSubdomainService/ETNRegistry.sol\":4773:4801  NewResolver(node, resolver_) */\n      tag_88\n        /* \"#utility.yul\":199:402   */\n      jump\n        /* \"contracts/EnsSubdomainService/ETNRegistry.sol\":4469:4623  function setOwner(bytes32 node, address owner_) external authorised(node) {... */\n    tag_47:\n        /* \"contracts/EnsSubdomainService/ETNRegistry.sol\":1972:1986  address _owner */\n      0x00\n        /* \"contracts/EnsSubdomainService/ETNRegistry.sol\":1989:2003  _records[node] */\n      dup3\n      dup2\n      mstore\n      0x20\n      dup2\n      swap1\n      mstore\n      0x40\n      swap1\n      keccak256\n        /* \"contracts/EnsSubdomainService/ETNRegistry.sol\":1989:2009  _records[node].owner */\n      sload\n        /* \"contracts/EnsSubdomainService/ETNRegistry.sol\":4537:4541  node */\n      dup3\n      swap1\n      sub(shl(0xa0, 0x01), 0x01)\n        /* \"contracts/EnsSubdomainService/ETNRegistry.sol\":1989:2009  _records[node].owner */\n      and\n        /* \"contracts/EnsSubdomainService/ETNRegistry.sol\":2044:2054  msg.sender */\n      caller\n        /* \"contracts/EnsSubdomainService/ETNRegistry.sol\":2034:2054  _owner == msg.sender */\n      dup2\n      eq\n      dup1\n        /* \"contracts/EnsSubdomainService/ETNRegistry.sol\":2034:2086  _owner == msg.sender || _operators[node][msg.sender] */\n      tag_97\n      jumpi\n      pop\n        /* \"contracts/EnsSubdomainService/ETNRegistry.sol\":2058:2074  _operators[node] */\n      0x00\n      dup3\n      dup2\n      mstore\n        /* \"contracts/EnsSubdomainService/ETNRegistry.sol\":2058:2068  _operators */\n      0x01\n        /* \"contracts/EnsSubdomainService/ETNRegistry.sol\":2058:2074  _operators[node] */\n      0x20\n      swap1\n      dup2\n      mstore\n      0x40\n      dup1\n      dup4\n      keccak256\n        /* \"contracts/EnsSubdomainService/ETNRegistry.sol\":2075:2085  msg.sender */\n      caller\n        /* \"contracts/EnsSubdomainService/ETNRegistry.sol\":2058:2086  _operators[node][msg.sender] */\n      dup5\n      mstore\n      swap1\n      swap2\n      mstore\n      swap1\n      keccak256\n      sload\n      0xff\n      and\n        /* \"contracts/EnsSubdomainService/ETNRegistry.sol\":2034:2086  _owner == msg.sender || _operators[node][msg.sender] */\n    tag_97:\n        /* \"contracts/EnsSubdomainService/ETNRegistry.sol\":2016:2133  require(... */\n      tag_98\n      jumpi\n      mload(0x40)\n      shl(0xe5, 0x461bcd)\n      dup2\n      mstore\n      0x04\n      add\n      tag_75\n      swap1\n      tag_76\n      jump\t// in\n    tag_98:\n        /* \"contracts/EnsSubdomainService/ETNRegistry.sol\":4554:4577  _setOwner(node, owner_) */\n      tag_101\n        /* \"contracts/EnsSubdomainService/ETNRegistry.sol\":4564:4568  node */\n      dup5\n        /* \"contracts/EnsSubdomainService/ETNRegistry.sol\":4570:4576  owner_ */\n      dup5\n        /* \"contracts/EnsSubdomainService/ETNRegistry.sol\":4554:4563  _setOwner */\n      tag_81\n        /* \"contracts/EnsSubdomainService/ETNRegistry.sol\":4554:4577  _setOwner(node, owner_) */\n      jump\t// in\n    tag_101:\n        /* \"contracts/EnsSubdomainService/ETNRegistry.sol\":4593:4615  Transfer(node, owner_) */\n      mload(0x40)\n      sub(shl(0xa0, 0x01), 0x01)\n        /* \"#utility.yul\":363:395   */\n      dup5\n      and\n        /* \"#utility.yul\":345:396   */\n      dup2\n      mstore\n        /* \"contracts/EnsSubdomainService/ETNRegistry.sol\":4602:4606  node */\n      dup5\n      swap1\n        /* \"contracts/EnsSubdomainService/ETNRegistry.sol\":4593:4615  Transfer(node, owner_) */\n      0xd4735d920b0f87494915f556dd9b54c8f309026070caea5c737245152564d266\n      swap1\n        /* \"#utility.yul\":333:335   */\n      0x20\n        /* \"#utility.yul\":318:336   */\n      add\n        /* \"contracts/EnsSubdomainService/ETNRegistry.sol\":4593:4615  Transfer(node, owner_) */\n      tag_88\n        /* \"#utility.yul\":199:402   */\n      jump\n        /* \"contracts/EnsSubdomainService/ETNRegistry.sol\":3925:4461  function setSubnodeRecord(... */\n    tag_51:\n        /* \"contracts/EnsSubdomainService/ETNRegistry.sol\":4116:4131  bytes32 subnode */\n      0x00\n        /* \"contracts/EnsSubdomainService/ETNRegistry.sol\":1989:2003  _records[node] */\n      dup6\n      dup2\n      mstore\n      0x20\n      dup2\n      swap1\n      mstore\n      0x40\n      dup2\n      keccak256\n        /* \"contracts/EnsSubdomainService/ETNRegistry.sol\":1989:2009  _records[node].owner */\n      sload\n        /* \"contracts/EnsSubdomainService/ETNRegistry.sol\":4101:4105  node */\n      dup7\n      swap1\n      sub(shl(0xa0, 0x01), 0x01)\n        /* \"contracts/EnsSubdomainService/ETNRegistry.sol\":1989:2009  _records[node].owner */\n      and\n        /* \"contracts/EnsSubdomainService/ETNRegistry.sol\":2044:2054  msg.sender */\n      caller\n        /* \"contracts/EnsSubdomainService/ETNRegistry.sol\":2034:2054  _owner == msg.sender */\n      dup2\n      eq\n      dup1\n        /* \"contracts/EnsSubdomainService/ETNRegistry.sol\":2034:2086  _owner == msg.sender || _operators[node][msg.sender] */\n      tag_104\n      jumpi\n      pop\n        /* \"contracts/EnsSubdomainService/ETNRegistry.sol\":2058:2074  _operators[node] */\n      0x00\n      dup3\n      dup2\n      mstore\n        /* \"contracts/EnsSubdomainService/ETNRegistry.sol\":2058:2068  _operators */\n      0x01\n        /* \"contracts/EnsSubdomainService/ETNRegistry.sol\":2058:2074  _operators[node] */\n      0x20\n      swap1\n      dup2\n      mstore\n      0x40\n      dup1\n      dup4\n      keccak256\n        /* \"contracts/EnsSubdomainService/ETNRegistry.sol\":2075:2085  msg.sender */\n      caller\n        /* \"contracts/EnsSubdomainService/ETNRegistry.sol\":2058:2086  _operators[node][msg.sender] */\n      dup5\n      mstore\n      swap1\n      swap2\n      mstore\n      swap1\n      keccak256\n      sload\n      0xff\n      and\n        /* \"contracts/EnsSubdomainService/ETNRegistry.sol\":2034:2086  _owner == msg.sender || _operators[node][msg.sender] */\n    tag_104:\n        /* \"contracts/EnsSubdomainService/ETNRegistry.sol\":2016:2133  require(... */\n      tag_105\n      jumpi\n      mload(0x40)\n      shl(0xe5, 0x461bcd)\n      dup2\n      mstore\n      0x04\n      add\n      tag_75\n      swap1\n      tag_76\n      jump\t// in\n    tag_105:\n        /* \"contracts/EnsSubdomainService/ETNRegistry.sol\":4164:4193  abi.encodePacked(node, label) */\n      0x40\n      dup1\n      mload\n      0x20\n      dup2\n      add\n        /* \"#utility.yul\":3997:4016   */\n      dup11\n      swap1\n      mstore\n        /* \"#utility.yul\":4032:4044   */\n      swap1\n      dup2\n      add\n        /* \"#utility.yul\":4025:4053   */\n      dup9\n      swap1\n      mstore\n        /* \"#utility.yul\":4069:4081   */\n      0x60\n      add\n        /* \"contracts/EnsSubdomainService/ETNRegistry.sol\":4164:4193  abi.encodePacked(node, label) */\n      mload(0x40)\n      0x20\n      dup2\n      dup4\n      sub\n      sub\n      dup2\n      mstore\n      swap1\n      0x40\n      mstore\n        /* \"contracts/EnsSubdomainService/ETNRegistry.sol\":4154:4194  keccak256(abi.encodePacked(node, label)) */\n      dup1\n      mload\n      swap1\n      0x20\n      add\n      keccak256\n        /* \"contracts/EnsSubdomainService/ETNRegistry.sol\":4144:4194  subnode = keccak256(abi.encodePacked(node, label)) */\n      swap3\n      pop\n        /* \"contracts/EnsSubdomainService/ETNRegistry.sol\":4205:4231  _setOwner(subnode, owner_) */\n      tag_109\n        /* \"contracts/EnsSubdomainService/ETNRegistry.sol\":4215:4222  subnode */\n      dup4\n        /* \"contracts/EnsSubdomainService/ETNRegistry.sol\":4224:4230  owner_ */\n      dup8\n        /* \"contracts/EnsSubdomainService/ETNRegistry.sol\":4205:4214  _setOwner */\n      tag_81\n        /* \"contracts/EnsSubdomainService/ETNRegistry.sol\":4205:4231  _setOwner(subnode, owner_) */\n      jump\t// in\n    tag_109:\n        /* \"contracts/EnsSubdomainService/ETNRegistry.sol\":4242:4250  _records */\n      0x00\n        /* \"contracts/EnsSubdomainService/ETNRegistry.sol\":4242:4259  _records[subnode] */\n      dup4\n      dup2\n      mstore\n      0x20\n      dup2\n      dup2\n      mstore\n      0x40\n      swap2\n      dup3\n      swap1\n      keccak256\n        /* \"contracts/EnsSubdomainService/ETNRegistry.sol\":4242:4268  _records[subnode].resolver */\n      0x01\n      add\n        /* \"contracts/EnsSubdomainService/ETNRegistry.sol\":4242:4280  _records[subnode].resolver = resolver_ */\n      dup1\n      sload\n      sub(shl(0xa0, 0x01), 0x01)\n      dup10\n      dup2\n      and\n      not(sub(shl(0xe0, 0x01), 0x01))\n        /* \"contracts/EnsSubdomainService/ETNRegistry.sol\":4291:4324  _records[subnode].ttl      = ttl_ */\n      swap1\n      swap3\n      and\n      swap2\n      swap1\n      swap2\n      or\n      shl(0xa0, 0x01)\n      0xffffffffffffffff\n      dup11\n      and\n      mul\n      or\n      swap1\n      swap2\n      sstore\n        /* \"contracts/EnsSubdomainService/ETNRegistry.sol\":4340:4369  NewOwner(node, label, owner_) */\n      swap2\n      mload\n        /* \"#utility.yul\":363:395   */\n      swap2\n      dup9\n      and\n        /* \"#utility.yul\":345:396   */\n      dup3\n      mstore\n        /* \"contracts/EnsSubdomainService/ETNRegistry.sol\":4355:4360  label */\n      dup9\n      swap2\n        /* \"contracts/EnsSubdomainService/ETNRegistry.sol\":4349:4353  node */\n      dup11\n      swap2\n        /* \"contracts/EnsSubdomainService/ETNRegistry.sol\":4340:4369  NewOwner(node, label, owner_) */\n      0xce0457fe73731f824cc272376169235128c118b49d344817417c6d108d155e82\n      swap2\n        /* \"#utility.yul\":318:336   */\n      add\n        /* \"contracts/EnsSubdomainService/ETNRegistry.sol\":4340:4369  NewOwner(node, label, owner_) */\n      mload(0x40)\n      dup1\n      swap2\n      sub\n      swap1\n      log3\n        /* \"contracts/EnsSubdomainService/ETNRegistry.sol\":4385:4416  NewResolver(subnode, resolver_) */\n      mload(0x40)\n      sub(shl(0xa0, 0x01), 0x01)\n        /* \"#utility.yul\":363:395   */\n      dup7\n      and\n        /* \"#utility.yul\":345:396   */\n      dup2\n      mstore\n        /* \"contracts/EnsSubdomainService/ETNRegistry.sol\":4397:4404  subnode */\n      dup4\n      swap1\n        /* \"contracts/EnsSubdomainService/ETNRegistry.sol\":4385:4416  NewResolver(subnode, resolver_) */\n      0x335721b01866dc23fbee8b6b2c7b1e14d6f05c28cd35a2c934239f94095602a0\n      swap1\n        /* \"#utility.yul\":333:335   */\n      0x20\n        /* \"#utility.yul\":318:336   */\n      add\n        /* \"contracts/EnsSubdomainService/ETNRegistry.sol\":4385:4416  NewResolver(subnode, resolver_) */\n      mload(0x40)\n      dup1\n      swap2\n      sub\n      swap1\n      log2\n        /* \"contracts/EnsSubdomainService/ETNRegistry.sol\":4432:4453  NewTTL(subnode, ttl_) */\n      mload(0x40)\n        /* \"#utility.yul\":1701:1719   */\n      0xffffffffffffffff\n        /* \"#utility.yul\":1689:1720   */\n      dup6\n      and\n        /* \"#utility.yul\":1671:1721   */\n      dup2\n      mstore\n        /* \"contracts/EnsSubdomainService/ETNRegistry.sol\":4439:4446  subnode */\n      dup4\n      swap1\n        /* \"contracts/EnsSubdomainService/ETNRegistry.sol\":4432:4453  NewTTL(subnode, ttl_) */\n      0x1d4f9bbfc9cab89d66e1a1562f2233ccbf1308cb4f63de2ead5787adddb8fa68\n      swap1\n        /* \"#utility.yul\":1659:1661   */\n      0x20\n        /* \"#utility.yul\":1644:1662   */\n      add\n        /* \"contracts/EnsSubdomainService/ETNRegistry.sol\":4432:4453  NewTTL(subnode, ttl_) */\n      mload(0x40)\n      dup1\n      swap2\n      sub\n      swap1\n      log2\n        /* \"contracts/EnsSubdomainService/ETNRegistry.sol\":1965:2145  {... */\n      pop\n        /* \"contracts/EnsSubdomainService/ETNRegistry.sol\":3925:4461  function setSubnodeRecord(... */\n      pop\n      swap6\n      swap5\n      pop\n      pop\n      pop\n      pop\n      pop\n      jump\t// out\n        /* \"contracts/EnsSubdomainService/ETNRegistry.sol\":4972:5253  function setApprovalForAll(bytes32 node, address operator, bool approved) external {... */\n    tag_61:\n        /* \"contracts/EnsSubdomainService/ETNRegistry.sol\":5088:5096  _records */\n      0x00\n        /* \"contracts/EnsSubdomainService/ETNRegistry.sol\":5088:5102  _records[node] */\n      dup4\n      dup2\n      mstore\n      0x20\n      dup2\n      swap1\n      mstore\n      0x40\n      swap1\n      keccak256\n        /* \"contracts/EnsSubdomainService/ETNRegistry.sol\":5088:5108  _records[node].owner */\n      sload\n      sub(shl(0xa0, 0x01), 0x01)\n      and\n        /* \"contracts/EnsSubdomainService/ETNRegistry.sol\":5074:5084  msg.sender */\n      caller\n        /* \"contracts/EnsSubdomainService/ETNRegistry.sol\":5074:5108  msg.sender == _records[node].owner */\n      eq\n        /* \"contracts/EnsSubdomainService/ETNRegistry.sol\":5066:5135  require(msg.sender == _records[node].owner, \"ETNRegistry: not owner\") */\n      tag_115\n      jumpi\n      mload(0x40)\n      shl(0xe5, 0x461bcd)\n      dup2\n      mstore\n        /* \"#utility.yul\":4294:4296   */\n      0x20\n        /* \"contracts/EnsSubdomainService/ETNRegistry.sol\":5066:5135  require(msg.sender == _records[node].owner, \"ETNRegistry: not owner\") */\n      0x04\n      dup3\n      add\n        /* \"#utility.yul\":4276:4297   */\n      mstore\n        /* \"#utility.yul\":4333:4335   */\n      0x16\n        /* \"#utility.yul\":4313:4331   */\n      0x24\n      dup3\n      add\n        /* \"#utility.yul\":4306:4336   */\n      mstore\n      shl(0x51, 0x22aa272932b3b4b9ba393c9d103737ba1037bbb732b9)\n        /* \"#utility.yul\":4352:4370   */\n      0x44\n      dup3\n      add\n        /* \"#utility.yul\":4345:4397   */\n      mstore\n        /* \"#utility.yul\":4414:4432   */\n      0x64\n      add\n        /* \"contracts/EnsSubdomainService/ETNRegistry.sol\":5066:5135  require(msg.sender == _records[node].owner, \"ETNRegistry: not owner\") */\n      tag_75\n        /* \"#utility.yul\":4092:4438   */\n      jump\n        /* \"contracts/EnsSubdomainService/ETNRegistry.sol\":5066:5135  require(msg.sender == _records[node].owner, \"ETNRegistry: not owner\") */\n    tag_115:\n        /* \"contracts/EnsSubdomainService/ETNRegistry.sol\":5146:5162  _operators[node] */\n      0x00\n      dup4\n      dup2\n      mstore\n        /* \"contracts/EnsSubdomainService/ETNRegistry.sol\":5146:5156  _operators */\n      0x01\n        /* \"contracts/EnsSubdomainService/ETNRegistry.sol\":5146:5162  _operators[node] */\n      0x20\n      swap1\n      dup2\n      mstore\n      0x40\n      dup1\n      dup4\n      keccak256\n      sub(shl(0xa0, 0x01), 0x01)\n        /* \"contracts/EnsSubdomainService/ETNRegistry.sol\":5146:5172  _operators[node][operator] */\n      dup7\n      and\n      dup1\n      dup6\n      mstore\n      swap1\n      dup4\n      mstore\n      swap3\n      dup2\n      swap1\n      keccak256\n        /* \"contracts/EnsSubdomainService/ETNRegistry.sol\":5146:5183  _operators[node][operator] = approved */\n      dup1\n      sload\n      not(0xff)\n      and\n      dup6\n      iszero\n      iszero\n      swap1\n      dup2\n      or\n      swap1\n      swap2\n      sstore\n        /* \"contracts/EnsSubdomainService/ETNRegistry.sol\":5199:5245  ApprovalForAll(msg.sender, operator, approved) */\n      swap1\n      mload\n        /* \"#utility.yul\":2606:2647   */\n      swap1\n      dup2\n      mstore\n        /* \"contracts/EnsSubdomainService/ETNRegistry.sol\":5214:5224  msg.sender */\n      caller\n      swap2\n        /* \"contracts/EnsSubdomainService/ETNRegistry.sol\":5199:5245  ApprovalForAll(msg.sender, operator, approved) */\n      0x17307eab39ab6107e8899845ad3d59bd9653f200f220920489ca2b5937696c31\n      swap2\n        /* \"#utility.yul\":2579:2597   */\n      add\n        /* \"contracts/EnsSubdomainService/ETNRegistry.sol\":5199:5245  ApprovalForAll(msg.sender, operator, approved) */\n      mload(0x40)\n      dup1\n      swap2\n      sub\n      swap1\n      log3\n        /* \"contracts/EnsSubdomainService/ETNRegistry.sol\":4972:5253  function setApprovalForAll(bytes32 node, address operator, bool approved) external {... */\n      pop\n      pop\n      pop\n      jump\t// out\n        /* \"contracts/EnsSubdomainService/ETNRegistry.sol\":3559:3917  function setRecord(... */\n    tag_65:\n        /* \"contracts/EnsSubdomainService/ETNRegistry.sol\":1972:1986  address _owner */\n      0x00\n        /* \"contracts/EnsSubdomainService/ETNRegistry.sol\":1989:2003  _records[node] */\n      dup5\n      dup2\n      mstore\n      0x20\n      dup2\n      swap1\n      mstore\n      0x40\n      swap1\n      keccak256\n        /* \"contracts/EnsSubdomainService/ETNRegistry.sol\":1989:2009  _records[node].owner */\n      sload\n        /* \"contracts/EnsSubdomainService/ETNRegistry.sol\":3704:3708  node */\n      dup5\n      swap1\n      sub(shl(0xa0, 0x01), 0x01)\n        /* \"contracts/EnsSubdomainService/ETNRegistry.sol\":1989:2009  _records[node].owner */\n      and\n        /* \"contracts/EnsSubdomainService/ETNRegistry.sol\":2044:2054  msg.sender */\n      caller\n        /* \"contracts/EnsSubdomainService/ETNRegistry.sol\":2034:2054  _owner == msg.sender */\n      dup2\n      eq\n      dup1\n        /* \"contracts/EnsSubdomainService/ETNRegistry.sol\":2034:2086  _owner == msg.sender || _operators[node][msg.sender] */\n      tag_120\n      jumpi\n      pop\n        /* \"contracts/EnsSubdomainService/ETNRegistry.sol\":2058:2074  _operators[node] */\n      0x00\n      dup3\n      dup2\n      mstore\n        /* \"contracts/EnsSubdomainService/ETNRegistry.sol\":2058:2068  _operators */\n      0x01\n        /* \"contracts/EnsSubdomainService/ETNRegistry.sol\":2058:2074  _operators[node] */\n      0x20\n      swap1\n      dup2\n      mstore\n      0x40\n      dup1\n      dup4\n      keccak256\n        /* \"contracts/EnsSubdomainService/ETNRegistry.sol\":2075:2085  msg.sender */\n      caller\n        /* \"contracts/EnsSubdomainService/ETNRegistry.sol\":2058:2086  _operators[node][msg.sender] */\n      dup5\n      mstore\n      swap1\n      swap2\n      mstore\n      swap1\n      keccak256\n      sload\n      0xff\n      and\n        /* \"contracts/EnsSubdomainService/ETNRegistry.sol\":2034:2086  _owner == msg.sender || _operators[node][msg.sender] */\n    tag_120:\n        /* \"contracts/EnsSubdomainService/ETNRegistry.sol\":2016:2133  require(... */\n      tag_121\n      jumpi\n      mload(0x40)\n      shl(0xe5, 0x461bcd)\n      dup2\n      mstore\n      0x04\n      add\n      tag_75\n      swap1\n      tag_76\n      jump\t// in\n    tag_121:\n        /* \"contracts/EnsSubdomainService/ETNRegistry.sol\":3721:3744  _setOwner(node, owner_) */\n      tag_124\n        /* \"contracts/EnsSubdomainService/ETNRegistry.sol\":3731:3735  node */\n      dup7\n        /* \"contracts/EnsSubdomainService/ETNRegistry.sol\":3737:3743  owner_ */\n      dup7\n        /* \"contracts/EnsSubdomainService/ETNRegistry.sol\":3721:3730  _setOwner */\n      tag_81\n        /* \"contracts/EnsSubdomainService/ETNRegistry.sol\":3721:3744  _setOwner(node, owner_) */\n      jump\t// in\n    tag_124:\n        /* \"contracts/EnsSubdomainService/ETNRegistry.sol\":3755:3763  _records */\n      0x00\n        /* \"contracts/EnsSubdomainService/ETNRegistry.sol\":3755:3769  _records[node] */\n      dup7\n      dup2\n      mstore\n      0x20\n      dup2\n      dup2\n      mstore\n      0x40\n      swap2\n      dup3\n      swap1\n      keccak256\n        /* \"contracts/EnsSubdomainService/ETNRegistry.sol\":3755:3778  _records[node].resolver */\n      0x01\n      add\n        /* \"contracts/EnsSubdomainService/ETNRegistry.sol\":3755:3790  _records[node].resolver = resolver_ */\n      dup1\n      sload\n      sub(shl(0xa0, 0x01), 0x01)\n      dup9\n      and\n      not(sub(shl(0xe0, 0x01), 0x01))\n        /* \"contracts/EnsSubdomainService/ETNRegistry.sol\":3801:3831  _records[node].ttl      = ttl_ */\n      swap1\n      swap2\n      and\n      dup2\n      or\n      shl(0xa0, 0x01)\n      0xffffffffffffffff\n      dup10\n      and\n      mul\n      or\n      swap1\n      swap2\n      sstore\n        /* \"contracts/EnsSubdomainService/ETNRegistry.sol\":3847:3875  NewResolver(node, resolver_) */\n      swap2\n      mload\n        /* \"#utility.yul\":345:396   */\n      swap2\n      dup3\n      mstore\n        /* \"contracts/EnsSubdomainService/ETNRegistry.sol\":3755:3769  _records[node] */\n      dup8\n      swap2\n        /* \"contracts/EnsSubdomainService/ETNRegistry.sol\":3847:3875  NewResolver(node, resolver_) */\n      0x335721b01866dc23fbee8b6b2c7b1e14d6f05c28cd35a2c934239f94095602a0\n      swap2\n        /* \"#utility.yul\":318:336   */\n      add\n        /* \"contracts/EnsSubdomainService/ETNRegistry.sol\":3847:3875  NewResolver(node, resolver_) */\n      mload(0x40)\n      dup1\n      swap2\n      sub\n      swap1\n      log2\n        /* \"contracts/EnsSubdomainService/ETNRegistry.sol\":3891:3909  NewTTL(node, ttl_) */\n      mload(0x40)\n        /* \"#utility.yul\":1701:1719   */\n      0xffffffffffffffff\n        /* \"#utility.yul\":1689:1720   */\n      dup5\n      and\n        /* \"#utility.yul\":1671:1721   */\n      dup2\n      mstore\n        /* \"contracts/EnsSubdomainService/ETNRegistry.sol\":3898:3902  node */\n      dup7\n      swap1\n        /* \"contracts/EnsSubdomainService/ETNRegistry.sol\":3891:3909  NewTTL(node, ttl_) */\n      0x1d4f9bbfc9cab89d66e1a1562f2233ccbf1308cb4f63de2ead5787adddb8fa68\n      swap1\n        /* \"#utility.yul\":1659:1661   */\n      0x20\n        /* \"#utility.yul\":1644:1662   */\n      add\n        /* \"contracts/EnsSubdomainService/ETNRegistry.sol\":3891:3909  NewTTL(node, ttl_) */\n      mload(0x40)\n      dup1\n      swap2\n      sub\n      swap1\n      log2\n        /* \"contracts/EnsSubdomainService/ETNRegistry.sol\":1965:2145  {... */\n      pop\n        /* \"contracts/EnsSubdomainService/ETNRegistry.sol\":3559:3917  function setRecord(... */\n      pop\n      pop\n      pop\n      pop\n      pop\n      jump\t// out\n        /* \"contracts/EnsSubdomainService/ETNRegistry.sol\":6472:6578  function _setOwner(bytes32 node, address owner_) internal {... */\n    tag_81:\n        /* \"contracts/EnsSubdomainService/ETNRegistry.sol\":6541:6549  _records */\n      0x00\n        /* \"contracts/EnsSubdomainService/ETNRegistry.sol\":6541:6555  _records[node] */\n      swap2\n      dup3\n      mstore\n      0x20\n      dup3\n      swap1\n      mstore\n      0x40\n      swap1\n      swap2\n      keccak256\n        /* \"contracts/EnsSubdomainService/ETNRegistry.sol\":6541:6570  _records[node].owner = owner_ */\n      dup1\n      sload\n      not(sub(shl(0xa0, 0x01), 0x01))\n      and\n      sub(shl(0xa0, 0x01), 0x01)\n      swap1\n      swap3\n      and\n      swap2\n      swap1\n      swap2\n      or\n      swap1\n      sstore\n        /* \"contracts/EnsSubdomainService/ETNRegistry.sol\":6472:6578  function _setOwner(bytes32 node, address owner_) internal {... */\n      jump\t// out\n        /* \"#utility.yul\":14:194   */\n    tag_18:\n        /* \"#utility.yul\":73:79   */\n      0x00\n        /* \"#utility.yul\":126:128   */\n      0x20\n        /* \"#utility.yul\":114:123   */\n      dup3\n        /* \"#utility.yul\":105:112   */\n      dup5\n        /* \"#utility.yul\":101:124   */\n      sub\n        /* \"#utility.yul\":97:129   */\n      slt\n        /* \"#utility.yul\":94:146   */\n      iszero\n      tag_133\n      jumpi\n        /* \"#utility.yul\":142:143   */\n      0x00\n        /* \"#utility.yul\":139:140   */\n      dup1\n        /* \"#utility.yul\":132:144   */\n      revert\n        /* \"#utility.yul\":94:146   */\n    tag_133:\n      pop\n        /* \"#utility.yul\":165:188   */\n      calldataload\n      swap2\n        /* \"#utility.yul\":14:194   */\n      swap1\n      pop\n      jump\t// out\n        /* \"#utility.yul\":407:580   */\n    tag_129:\n        /* \"#utility.yul\":475:495   */\n      dup1\n      calldataload\n      sub(shl(0xa0, 0x01), 0x01)\n        /* \"#utility.yul\":524:555   */\n      dup2\n      and\n        /* \"#utility.yul\":514:556   */\n      dup2\n      eq\n        /* \"#utility.yul\":504:574   */\n      tag_136\n      jumpi\n        /* \"#utility.yul\":570:571   */\n      0x00\n        /* \"#utility.yul\":567:568   */\n      dup1\n        /* \"#utility.yul\":560:572   */\n      revert\n        /* \"#utility.yul\":504:574   */\n    tag_136:\n        /* \"#utility.yul\":407:580   */\n      swap2\n      swap1\n      pop\n      jump\t// out\n        /* \"#utility.yul\":585:907   */\n    tag_28:\n        /* \"#utility.yul\":662:668   */\n      0x00\n        /* \"#utility.yul\":670:676   */\n      dup1\n        /* \"#utility.yul\":678:684   */\n      0x00\n        /* \"#utility.yul\":731:733   */\n      0x60\n        /* \"#utility.yul\":719:728   */\n      dup5\n        /* \"#utility.yul\":710:717   */\n      dup7\n        /* \"#utility.yul\":706:729   */\n      sub\n        /* \"#utility.yul\":702:734   */\n      slt\n        /* \"#utility.yul\":699:751   */\n      iszero\n      tag_138\n      jumpi\n        /* \"#utility.yul\":747:748   */\n      0x00\n        /* \"#utility.yul\":744:745   */\n      dup1\n        /* \"#utility.yul\":737:749   */\n      revert\n        /* \"#utility.yul\":699:751   */\n    tag_138:\n        /* \"#utility.yul\":783:792   */\n      dup4\n        /* \"#utility.yul\":770:793   */\n      calldataload\n        /* \"#utility.yul\":760:793   */\n      swap3\n      pop\n        /* \"#utility.yul\":840:842   */\n      0x20\n        /* \"#utility.yul\":829:838   */\n      dup5\n        /* \"#utility.yul\":825:843   */\n      add\n        /* \"#utility.yul\":812:844   */\n      calldataload\n        /* \"#utility.yul\":802:844   */\n      swap2\n      pop\n        /* \"#utility.yul\":863:901   */\n      tag_139\n        /* \"#utility.yul\":897:899   */\n      0x40\n        /* \"#utility.yul\":886:895   */\n      dup6\n        /* \"#utility.yul\":882:900   */\n      add\n        /* \"#utility.yul\":863:901   */\n      tag_129\n      jump\t// in\n    tag_139:\n        /* \"#utility.yul\":853:901   */\n      swap1\n      pop\n        /* \"#utility.yul\":585:907   */\n      swap3\n      pop\n      swap3\n      pop\n      swap3\n      jump\t// out\n        /* \"#utility.yul\":1094:1265   */\n    tag_130:\n        /* \"#utility.yul\":1161:1181   */\n      dup1\n      calldataload\n        /* \"#utility.yul\":1221:1239   */\n      0xffffffffffffffff\n        /* \"#utility.yul\":1210:1240   */\n      dup2\n      and\n        /* \"#utility.yul\":1200:1241   */\n      dup2\n      eq\n        /* \"#utility.yul\":1190:1259   */\n      tag_136\n      jumpi\n        /* \"#utility.yul\":1255:1256   */\n      0x00\n        /* \"#utility.yul\":1252:1253   */\n      dup1\n        /* \"#utility.yul\":1245:1257   */\n      revert\n        /* \"#utility.yul\":1270:1522   */\n    tag_34:\n        /* \"#utility.yul\":1337:1343   */\n      0x00\n        /* \"#utility.yul\":1345:1351   */\n      dup1\n        /* \"#utility.yul\":1398:1400   */\n      0x40\n        /* \"#utility.yul\":1386:1395   */\n      dup4\n        /* \"#utility.yul\":1377:1384   */\n      dup6\n        /* \"#utility.yul\":1373:1396   */\n      sub\n        /* \"#utility.yul\":1369:1401   */\n      slt\n        /* \"#utility.yul\":1366:1418   */\n      iszero\n      tag_144\n      jumpi\n        /* \"#utility.yul\":1414:1415   */\n      0x00\n        /* \"#utility.yul\":1411:1412   */\n      dup1\n        /* \"#utility.yul\":1404:1416   */\n      revert\n        /* \"#utility.yul\":1366:1418   */\n    tag_144:\n        /* \"#utility.yul\":1450:1459   */\n      dup3\n        /* \"#utility.yul\":1437:1460   */\n      calldataload\n        /* \"#utility.yul\":1427:1460   */\n      swap2\n      pop\n        /* \"#utility.yul\":1479:1516   */\n      tag_145\n        /* \"#utility.yul\":1512:1514   */\n      0x20\n        /* \"#utility.yul\":1501:1510   */\n      dup5\n        /* \"#utility.yul\":1497:1515   */\n      add\n        /* \"#utility.yul\":1479:1516   */\n      tag_130\n      jump\t// in\n    tag_145:\n        /* \"#utility.yul\":1469:1516   */\n      swap1\n      pop\n        /* \"#utility.yul\":1270:1522   */\n      swap3\n      pop\n      swap3\n      swap1\n      pop\n      jump\t// out\n        /* \"#utility.yul\":1732:1986   */\n    tag_43:\n        /* \"#utility.yul\":1800:1806   */\n      0x00\n        /* \"#utility.yul\":1808:1814   */\n      dup1\n        /* \"#utility.yul\":1861:1863   */\n      0x40\n        /* \"#utility.yul\":1849:1858   */\n      dup4\n        /* \"#utility.yul\":1840:1847   */\n      dup6\n        /* \"#utility.yul\":1836:1859   */\n      sub\n        /* \"#utility.yul\":1832:1864   */\n      slt\n        /* \"#utility.yul\":1829:1881   */\n      iszero\n      tag_148\n      jumpi\n        /* \"#utility.yul\":1877:1878   */\n      0x00\n        /* \"#utility.yul\":1874:1875   */\n      dup1\n        /* \"#utility.yul\":1867:1879   */\n      revert\n        /* \"#utility.yul\":1829:1881   */\n    tag_148:\n        /* \"#utility.yul\":1913:1922   */\n      dup3\n        /* \"#utility.yul\":1900:1923   */\n      calldataload\n        /* \"#utility.yul\":1890:1923   */\n      swap2\n      pop\n        /* \"#utility.yul\":1942:1980   */\n      tag_145\n        /* \"#utility.yul\":1976:1978   */\n      0x20\n        /* \"#utility.yul\":1965:1974   */\n      dup5\n        /* \"#utility.yul\":1961:1979   */\n      add\n        /* \"#utility.yul\":1942:1980   */\n      tag_129\n      jump\t// in\n        /* \"#utility.yul\":1991:2461   */\n    tag_50:\n        /* \"#utility.yul\":2085:2091   */\n      0x00\n        /* \"#utility.yul\":2093:2099   */\n      dup1\n        /* \"#utility.yul\":2101:2107   */\n      0x00\n        /* \"#utility.yul\":2109:2115   */\n      dup1\n        /* \"#utility.yul\":2117:2123   */\n      0x00\n        /* \"#utility.yul\":2170:2173   */\n      0xa0\n        /* \"#utility.yul\":2158:2167   */\n      dup7\n        /* \"#utility.yul\":2149:2156   */\n      dup9\n        /* \"#utility.yul\":2145:2168   */\n      sub\n        /* \"#utility.yul\":2141:2174   */\n      slt\n        /* \"#utility.yul\":2138:2191   */\n      iszero\n      tag_151\n      jumpi\n        /* \"#utility.yul\":2187:2188   */\n      0x00\n        /* \"#utility.yul\":2184:2185   */\n      dup1\n        /* \"#utility.yul\":2177:2189   */\n      revert\n        /* \"#utility.yul\":2138:2191   */\n    tag_151:\n        /* \"#utility.yul\":2223:2232   */\n      dup6\n        /* \"#utility.yul\":2210:2233   */\n      calldataload\n        /* \"#utility.yul\":2200:2233   */\n      swap5\n      pop\n        /* \"#utility.yul\":2280:2282   */\n      0x20\n        /* \"#utility.yul\":2269:2278   */\n      dup7\n        /* \"#utility.yul\":2265:2283   */\n      add\n        /* \"#utility.yul\":2252:2284   */\n      calldataload\n        /* \"#utility.yul\":2242:2284   */\n      swap4\n      pop\n        /* \"#utility.yul\":2303:2341   */\n      tag_152\n        /* \"#utility.yul\":2337:2339   */\n      0x40\n        /* \"#utility.yul\":2326:2335   */\n      dup8\n        /* \"#utility.yul\":2322:2340   */\n      add\n        /* \"#utility.yul\":2303:2341   */\n      tag_129\n      jump\t// in\n    tag_152:\n        /* \"#utility.yul\":2293:2341   */\n      swap3\n      pop\n        /* \"#utility.yul\":2360:2398   */\n      tag_153\n        /* \"#utility.yul\":2394:2396   */\n      0x60\n        /* \"#utility.yul\":2383:2392   */\n      dup8\n        /* \"#utility.yul\":2379:2397   */\n      add\n        /* \"#utility.yul\":2360:2398   */\n      tag_129\n      jump\t// in\n    tag_153:\n        /* \"#utility.yul\":2350:2398   */\n      swap2\n      pop\n        /* \"#utility.yul\":2417:2455   */\n      tag_154\n        /* \"#utility.yul\":2450:2453   */\n      0x80\n        /* \"#utility.yul\":2439:2448   */\n      dup8\n        /* \"#utility.yul\":2435:2454   */\n      add\n        /* \"#utility.yul\":2417:2455   */\n      tag_130\n      jump\t// in\n    tag_154:\n        /* \"#utility.yul\":2407:2455   */\n      swap1\n      pop\n        /* \"#utility.yul\":1991:2461   */\n      swap3\n      swap6\n      pop\n      swap3\n      swap6\n      swap1\n      swap4\n      pop\n      jump\t// out\n        /* \"#utility.yul\":2658:3073   */\n    tag_60:\n        /* \"#utility.yul\":2732:2738   */\n      0x00\n        /* \"#utility.yul\":2740:2746   */\n      dup1\n        /* \"#utility.yul\":2748:2754   */\n      0x00\n        /* \"#utility.yul\":2801:2803   */\n      0x60\n        /* \"#utility.yul\":2789:2798   */\n      dup5\n        /* \"#utility.yul\":2780:2787   */\n      dup7\n        /* \"#utility.yul\":2776:2799   */\n      sub\n        /* \"#utility.yul\":2772:2804   */\n      slt\n        /* \"#utility.yul\":2769:2821   */\n      iszero\n      tag_157\n      jumpi\n        /* \"#utility.yul\":2817:2818   */\n      0x00\n        /* \"#utility.yul\":2814:2815   */\n      dup1\n        /* \"#utility.yul\":2807:2819   */\n      revert\n        /* \"#utility.yul\":2769:2821   */\n    tag_157:\n        /* \"#utility.yul\":2853:2862   */\n      dup4\n        /* \"#utility.yul\":2840:2863   */\n      calldataload\n        /* \"#utility.yul\":2830:2863   */\n      swap3\n      pop\n        /* \"#utility.yul\":2882:2920   */\n      tag_158\n        /* \"#utility.yul\":2916:2918   */\n      0x20\n        /* \"#utility.yul\":2905:2914   */\n      dup6\n        /* \"#utility.yul\":2901:2919   */\n      add\n        /* \"#utility.yul\":2882:2920   */\n      tag_129\n      jump\t// in\n    tag_158:\n        /* \"#utility.yul\":2872:2920   */\n      swap2\n      pop\n        /* \"#utility.yul\":2970:2972   */\n      0x40\n        /* \"#utility.yul\":2959:2968   */\n      dup5\n        /* \"#utility.yul\":2955:2973   */\n      add\n        /* \"#utility.yul\":2942:2974   */\n      calldataload\n        /* \"#utility.yul\":3017:3022   */\n      dup1\n        /* \"#utility.yul\":3010:3023   */\n      iszero\n        /* \"#utility.yul\":3003:3024   */\n      iszero\n        /* \"#utility.yul\":2996:3001   */\n      dup2\n        /* \"#utility.yul\":2993:3025   */\n      eq\n        /* \"#utility.yul\":2983:3043   */\n      tag_159\n      jumpi\n        /* \"#utility.yul\":3039:3040   */\n      0x00\n        /* \"#utility.yul\":3036:3037   */\n      dup1\n        /* \"#utility.yul\":3029:3041   */\n      revert\n        /* \"#utility.yul\":2983:3043   */\n    tag_159:\n        /* \"#utility.yul\":3062:3067   */\n      dup1\n        /* \"#utility.yul\":3052:3067   */\n      swap2\n      pop\n      pop\n        /* \"#utility.yul\":2658:3073   */\n      swap3\n      pop\n      swap3\n      pop\n      swap3\n      jump\t// out\n        /* \"#utility.yul\":3078:3479   */\n    tag_64:\n        /* \"#utility.yul\":3163:3169   */\n      0x00\n        /* \"#utility.yul\":3171:3177   */\n      dup1\n        /* \"#utility.yul\":3179:3185   */\n      0x00\n        /* \"#utility.yul\":3187:3193   */\n      dup1\n        /* \"#utility.yul\":3240:3243   */\n      0x80\n        /* \"#utility.yul\":3228:3237   */\n      dup6\n        /* \"#utility.yul\":3219:3226   */\n      dup8\n        /* \"#utility.yul\":3215:3238   */\n      sub\n        /* \"#utility.yul\":3211:3244   */\n      slt\n        /* \"#utility.yul\":3208:3261   */\n      iszero\n      tag_161\n      jumpi\n        /* \"#utility.yul\":3257:3258   */\n      0x00\n        /* \"#utility.yul\":3254:3255   */\n      dup1\n        /* \"#utility.yul\":3247:3259   */\n      revert\n        /* \"#utility.yul\":3208:3261   */\n    tag_161:\n        /* \"#utility.yul\":3293:3302   */\n      dup5\n        /* \"#utility.yul\":3280:3303   */\n      calldataload\n        /* \"#utility.yul\":3270:3303   */\n      swap4\n      pop\n        /* \"#utility.yul\":3322:3360   */\n      tag_162\n        /* \"#utility.yul\":3356:3358   */\n      0x20\n        /* \"#utility.yul\":3345:3354   */\n      dup7\n        /* \"#utility.yul\":3341:3359   */\n      add\n        /* \"#utility.yul\":3322:3360   */\n      tag_129\n      jump\t// in\n    tag_162:\n        /* \"#utility.yul\":3312:3360   */\n      swap3\n      pop\n        /* \"#utility.yul\":3379:3417   */\n      tag_163\n        /* \"#utility.yul\":3413:3415   */\n      0x40\n        /* \"#utility.yul\":3402:3411   */\n      dup7\n        /* \"#utility.yul\":3398:3416   */\n      add\n        /* \"#utility.yul\":3379:3417   */\n      tag_129\n      jump\t// in\n    tag_163:\n        /* \"#utility.yul\":3369:3417   */\n      swap2\n      pop\n        /* \"#utility.yul\":3436:3473   */\n      tag_164\n        /* \"#utility.yul\":3469:3471   */\n      0x60\n        /* \"#utility.yul\":3458:3467   */\n      dup7\n        /* \"#utility.yul\":3454:3472   */\n      add\n        /* \"#utility.yul\":3436:3473   */\n      tag_130\n      jump\t// in\n    tag_164:\n        /* \"#utility.yul\":3426:3473   */\n      swap1\n      pop\n        /* \"#utility.yul\":3078:3479   */\n      swap3\n      swap6\n      swap2\n      swap5\n      pop\n      swap3\n      pop\n      jump\t// out\n        /* \"#utility.yul\":3484:3835   */\n    tag_76:\n        /* \"#utility.yul\":3686:3688   */\n      0x20\n        /* \"#utility.yul\":3668:3689   */\n      dup1\n      dup3\n      mstore\n        /* \"#utility.yul\":3725:3727   */\n      0x1b\n        /* \"#utility.yul\":3705:3723   */\n      swap1\n      dup3\n      add\n        /* \"#utility.yul\":3698:3728   */\n      mstore\n        /* \"#utility.yul\":3764:3793   */\n      0x45544e52656769737472793a206e6f7420617574686f72697365640000000000\n        /* \"#utility.yul\":3759:3761   */\n      0x40\n        /* \"#utility.yul\":3744:3762   */\n      dup3\n      add\n        /* \"#utility.yul\":3737:3794   */\n      mstore\n        /* \"#utility.yul\":3826:3828   */\n      0x60\n        /* \"#utility.yul\":3811:3829   */\n      add\n      swap1\n        /* \"#utility.yul\":3484:3835   */\n      jump\t// out\n\n    auxdata: 0xa26469706673582212204144fffc81e4ecb6b2d9c9b83636ae9da1b1700a8eb47709c8810792b67b73a264736f6c63430008140033\n}\n",
				"bytecode": {
					"linkReferences": {},
					"object": "608060405234801561001057600080fd5b5060008080526020527fad3228b676f7d3cd4284a5443f17f1962b36e491b30a40b2405849e597ba5fb580546001600160a01b03191633179055610b6d806100596000396000f3fe608060405234801561001057600080fd5b50600436106100b45760003560e01c80635b0fc9c3116100715780635b0fc9c3146101c15780635ef2c7f0146101d4578063b0698628146101e7578063bc053e7314610230578063cf40882314610243578063f79fe5381461025657600080fd5b80630178b8bf146100b957806302571be31461010257806306ab59231461012b57806314ab90381461014c57806316a25cbd146101615780631896f70a146101ae575b600080fd5b6100e56100c7366004610946565b6000908152602081905260409020600101546001600160a01b031690565b6040516001600160a01b0390911681526020015b60405180910390f35b6100e5610110366004610946565b6000908152602081905260409020546001600160a01b031690565b61013e61013936600461097b565b610281565b6040519081526020016100f9565b61015f61015a3660046109c8565b610366565b005b61019561016f366004610946565b600090815260208190526040902060010154600160a01b900467ffffffffffffffff1690565b60405167ffffffffffffffff90911681526020016100f9565b61015f6101bc3660046109f4565b610439565b61015f6101cf3660046109f4565b6104f4565b61013e6101e2366004610a17565b610596565b6102206101f53660046109f4565b60009182526001602090815260408084206001600160a01b0393909316845291905290205460ff1690565b60405190151581526020016100f9565b61015f61023e366004610a6e565b61072c565b61015f610251366004610ab3565b6107f6565b610220610264366004610946565b6000908152602081905260409020546001600160a01b0316151590565b60008381526020819052604081205484906001600160a01b0316338114806102c25750600082815260016020908152604080832033845290915290205460ff165b6102e75760405162461bcd60e51b81526004016102de90610b00565b60405180910390fd5b604080516020810188905290810186905260600160405160208183030381529060405280519060200120925061031d8385610918565b6040516001600160a01b0385168152859087907fce0457fe73731f824cc272376169235128c118b49d344817417c6d108d155e829060200160405180910390a350509392505050565b60008281526020819052604090205482906001600160a01b0316338114806103a75750600082815260016020908152604080832033845290915290205460ff165b6103c35760405162461bcd60e51b81526004016102de90610b00565b60008481526020818152604091829020600101805467ffffffffffffffff60a01b1916600160a01b67ffffffffffffffff881690810291909117909155915191825285917f1d4f9bbfc9cab89d66e1a1562f2233ccbf1308cb4f63de2ead5787adddb8fa6891015b60405180910390a250505050565b60008281526020819052604090205482906001600160a01b03163381148061047a5750600082815260016020908152604080832033845290915290205460ff165b6104965760405162461bcd60e51b81526004016102de90610b00565b6000848152602081815260409182902060010180546001600160a01b0319166001600160a01b038716908117909155915191825285917f335721b01866dc23fbee8b6b2c7b1e14d6f05c28cd35a2c934239f94095602a0910161042b565b60008281526020819052604090205482906001600160a01b0316338114806105355750600082815260016020908152604080832033845290915290205460ff165b6105515760405162461bcd60e51b81526004016102de90610b00565b61055b8484610918565b6040516001600160a01b038416815284907fd4735d920b0f87494915f556dd9b54c8f309026070caea5c737245152564d2669060200161042b565b60008581526020819052604081205486906001600160a01b0316338114806105d75750600082815260016020908152604080832033845290915290205460ff165b6105f35760405162461bcd60e51b81526004016102de90610b00565b60408051602081018a90529081018890526060016040516020818303038152906040528051906020012092506106298387610918565b6000838152602081815260409182902060010180546001600160a01b038981166001600160e01b031990921691909117600160a01b67ffffffffffffffff8a1602179091559151918816825288918a917fce0457fe73731f824cc272376169235128c118b49d344817417c6d108d155e82910160405180910390a36040516001600160a01b038616815283907f335721b01866dc23fbee8b6b2c7b1e14d6f05c28cd35a2c934239f94095602a09060200160405180910390a260405167ffffffffffffffff8516815283907f1d4f9bbfc9cab89d66e1a1562f2233ccbf1308cb4f63de2ead5787adddb8fa689060200160405180910390a2505095945050505050565b6000838152602081905260409020546001600160a01b0316331461078b5760405162461bcd60e51b815260206004820152601660248201527522aa272932b3b4b9ba393c9d103737ba1037bbb732b960511b60448201526064016102de565b60008381526001602090815260408083206001600160a01b03861680855290835292819020805460ff1916851515908117909155905190815233917f17307eab39ab6107e8899845ad3d59bd9653f200f220920489ca2b5937696c31910160405180910390a3505050565b60008481526020819052604090205484906001600160a01b0316338114806108375750600082815260016020908152604080832033845290915290205460ff165b6108535760405162461bcd60e51b81526004016102de90610b00565b61085d8686610918565b6000868152602081815260409182902060010180546001600160a01b0388166001600160e01b03199091168117600160a01b67ffffffffffffffff89160217909155915191825287917f335721b01866dc23fbee8b6b2c7b1e14d6f05c28cd35a2c934239f94095602a0910160405180910390a260405167ffffffffffffffff8416815286907f1d4f9bbfc9cab89d66e1a1562f2233ccbf1308cb4f63de2ead5787adddb8fa689060200160405180910390a2505050505050565b60009182526020829052604090912080546001600160a01b0319166001600160a01b03909216919091179055565b60006020828403121561095857600080fd5b5035919050565b80356001600160a01b038116811461097657600080fd5b919050565b60008060006060848603121561099057600080fd5b83359250602084013591506109a76040850161095f565b90509250925092565b803567ffffffffffffffff8116811461097657600080fd5b600080604083850312156109db57600080fd5b823591506109eb602084016109b0565b90509250929050565b60008060408385031215610a0757600080fd5b823591506109eb6020840161095f565b600080600080600060a08688031215610a2f57600080fd5b8535945060208601359350610a466040870161095f565b9250610a546060870161095f565b9150610a62608087016109b0565b90509295509295909350565b600080600060608486031215610a8357600080fd5b83359250610a936020850161095f565b915060408401358015158114610aa857600080fd5b809150509250925092565b60008060008060808587031215610ac957600080fd5b84359350610ad96020860161095f565b9250610ae76040860161095f565b9150610af5606086016109b0565b905092959194509250565b6020808252601b908201527f45544e52656769737472793a206e6f7420617574686f7269736564000000000060408201526060019056fea26469706673582212204144fffc81e4ecb6b2d9c9b83636ae9da1b1700a8eb47709c8810792b67b73a264736f6c63430008140033",
					"opcodes": "PUSH1 0x80 PUSH1 0x40 MSTORE CALLVALUE DUP1 ISZERO PUSH2 0x10 JUMPI PUSH1 0x0 DUP1 REVERT JUMPDEST POP PUSH1 0x0 DUP1 DUP1 MSTORE PUSH1 0x20 MSTORE PUSH32 0xAD3228B676F7D3CD4284A5443F17F1962B36E491B30A40B2405849E597BA5FB5 DUP1 SLOAD PUSH1 0x1 PUSH1 0x1 PUSH1 0xA0 SHL SUB NOT AND CALLER OR SWAP1 SSTORE PUSH2 0xB6D DUP1 PUSH2 0x59 PUSH1 0x0 CODECOPY PUSH1 0x0 RETURN INVALID PUSH1 0x80 PUSH1 0x40 MSTORE CALLVALUE DUP1 ISZERO PUSH2 0x10 JUMPI PUSH1 0x0 DUP1 REVERT JUMPDEST POP PUSH1 0x4 CALLDATASIZE LT PUSH2 0xB4 JUMPI PUSH1 0x0 CALLDATALOAD PUSH1 0xE0 SHR DUP1 PUSH4 0x5B0FC9C3 GT PUSH2 0x71 JUMPI DUP1 PUSH4 0x5B0FC9C3 EQ PUSH2 0x1C1 JUMPI DUP1 PUSH4 0x5EF2C7F0 EQ PUSH2 0x1D4 JUMPI DUP1 PUSH4 0xB0698628 EQ PUSH2 0x1E7 JUMPI DUP1 PUSH4 0xBC053E73 EQ PUSH2 0x230 JUMPI DUP1 PUSH4 0xCF408823 EQ PUSH2 0x243 JUMPI DUP1 PUSH4 0xF79FE538 EQ PUSH2 0x256 JUMPI PUSH1 0x0 DUP1 REVERT JUMPDEST DUP1 PUSH4 0x178B8BF EQ PUSH2 0xB9 JUMPI DUP1 PUSH4 0x2571BE3 EQ PUSH2 0x102 JUMPI DUP1 PUSH4 0x6AB5923 EQ PUSH2 0x12B JUMPI DUP1 PUSH4 0x14AB9038 EQ PUSH2 0x14C JUMPI DUP1 PUSH4 0x16A25CBD EQ PUSH2 0x161 JUMPI DUP1 PUSH4 0x1896F70A EQ PUSH2 0x1AE JUMPI JUMPDEST PUSH1 0x0 DUP1 REVERT JUMPDEST PUSH2 0xE5 PUSH2 0xC7 CALLDATASIZE PUSH1 0x4 PUSH2 0x946 JUMP JUMPDEST PUSH1 0x0 SWAP1 DUP2 MSTORE PUSH1 0x20 DUP2 SWAP1 MSTORE PUSH1 0x40 SWAP1 KECCAK256 PUSH1 0x1 ADD SLOAD PUSH1 0x1 PUSH1 0x1 PUSH1 0xA0 SHL SUB AND SWAP1 JUMP JUMPDEST PUSH1 0x40 MLOAD PUSH1 0x1 PUSH1 0x1 PUSH1 0xA0 SHL SUB SWAP1 SWAP2 AND DUP2 MSTORE PUSH1 0x20 ADD JUMPDEST PUSH1 0x40 MLOAD DUP1 SWAP2 SUB SWAP1 RETURN JUMPDEST PUSH2 0xE5 PUSH2 0x110 CALLDATASIZE PUSH1 0x4 PUSH2 0x946 JUMP JUMPDEST PUSH1 0x0 SWAP1 DUP2 MSTORE PUSH1 0x20 DUP2 SWAP1 MSTORE PUSH1 0x40 SWAP1 KECCAK256 SLOAD PUSH1 0x1 PUSH1 0x1 PUSH1 0xA0 SHL SUB AND SWAP1 JUMP JUMPDEST PUSH2 0x13E PUSH2 0x139 CALLDATASIZE PUSH1 0x4 PUSH2 0x97B JUMP JUMPDEST PUSH2 0x281 JUMP JUMPDEST PUSH1 0x40 MLOAD SWAP1 DUP2 MSTORE PUSH1 0x20 ADD PUSH2 0xF9 JUMP JUMPDEST PUSH2 0x15F PUSH2 0x15A CALLDATASIZE PUSH1 0x4 PUSH2 0x9C8 JUMP JUMPDEST PUSH2 0x366 JUMP JUMPDEST STOP JUMPDEST PUSH2 0x195 PUSH2 0x16F CALLDATASIZE PUSH1 0x4 PUSH2 0x946 JUMP JUMPDEST PUSH1 0x0 SWAP1 DUP2 MSTORE PUSH1 0x20 DUP2 SWAP1 MSTORE PUSH1 0x40 SWAP1 KECCAK256 PUSH1 0x1 ADD SLOAD PUSH1 0x1 PUSH1 0xA0 SHL SWAP1 DIV PUSH8 0xFFFFFFFFFFFFFFFF AND SWAP1 JUMP JUMPDEST PUSH1 0x40 MLOAD PUSH8 0xFFFFFFFFFFFFFFFF SWAP1 SWAP2 AND DUP2 MSTORE PUSH1 0x20 ADD PUSH2 0xF9 JUMP JUMPDEST PUSH2 0x15F PUSH2 0x1BC CALLDATASIZE PUSH1 0x4 PUSH2 0x9F4 JUMP JUMPDEST PUSH2 0x439 JUMP JUMPDEST PUSH2 0x15F PUSH2 0x1CF CALLDATASIZE PUSH1 0x4 PUSH2 0x9F4 JUMP JUMPDEST PUSH2 0x4F4 JUMP JUMPDEST PUSH2 0x13E PUSH2 0x1E2 CALLDATASIZE PUSH1 0x4 PUSH2 0xA17 JUMP JUMPDEST PUSH2 0x596 JUMP JUMPDEST PUSH2 0x220 PUSH2 0x1F5 CALLDATASIZE PUSH1 0x4 PUSH2 0x9F4 JUMP JUMPDEST PUSH1 0x0 SWAP2 DUP3 MSTORE PUSH1 0x1 PUSH1 0x20 SWAP1 DUP2 MSTORE PUSH1 0x40 DUP1 DUP5 KECCAK256 PUSH1 0x1 PUSH1 0x1 PUSH1 0xA0 SHL SUB SWAP4 SWAP1 SWAP4 AND DUP5 MSTORE SWAP2 SWAP1 MSTORE SWAP1 KECCAK256 SLOAD PUSH1 0xFF AND SWAP1 JUMP JUMPDEST PUSH1 0x40 MLOAD SWAP1 ISZERO ISZERO DUP2 MSTORE PUSH1 0x20 ADD PUSH2 0xF9 JUMP JUMPDEST PUSH2 0x15F PUSH2 0x23E CALLDATASIZE PUSH1 0x4 PUSH2 0xA6E JUMP JUMPDEST PUSH2 0x72C JUMP JUMPDEST PUSH2 0x15F PUSH2 0x251 CALLDATASIZE PUSH1 0x4 PUSH2 0xAB3 JUMP JUMPDEST PUSH2 0x7F6 JUMP JUMPDEST PUSH2 0x220 PUSH2 0x264 CALLDATASIZE PUSH1 0x4 PUSH2 0x946 JUMP JUMPDEST PUSH1 0x0 SWAP1 DUP2 MSTORE PUSH1 0x20 DUP2 SWAP1 MSTORE PUSH1 0x40 SWAP1 KECCAK256 SLOAD PUSH1 0x1 PUSH1 0x1 PUSH1 0xA0 SHL SUB AND ISZERO ISZERO SWAP1 JUMP JUMPDEST PUSH1 0x0 DUP4 DUP2 MSTORE PUSH1 0x20 DUP2 SWAP1 MSTORE PUSH1 0x40 DUP2 KECCAK256 SLOAD DUP5 SWAP1 PUSH1 0x1 PUSH1 0x1 PUSH1 0xA0 SHL SUB AND CALLER DUP2 EQ DUP1 PUSH2 0x2C2 JUMPI POP PUSH1 0x0 DUP3 DUP2 MSTORE PUSH1 0x1 PUSH1 0x20 SWAP1 DUP2 MSTORE PUSH1 0x40 DUP1 DUP4 KECCAK256 CALLER DUP5 MSTORE SWAP1 SWAP2 MSTORE SWAP1 KECCAK256 SLOAD PUSH1 0xFF AND JUMPDEST PUSH2 0x2E7 JUMPI PUSH1 0x40 MLOAD PUSH3 0x461BCD PUSH1 0xE5 SHL DUP2 MSTORE PUSH1 0x4 ADD PUSH2 0x2DE SWAP1 PUSH2 0xB00 JUMP JUMPDEST PUSH1 0x40 MLOAD DUP1 SWAP2 SUB SWAP1 REVERT JUMPDEST PUSH1 0x40 DUP1 MLOAD PUSH1 0x20 DUP2 ADD DUP9 SWAP1 MSTORE SWAP1 DUP2 ADD DUP7 SWAP1 MSTORE PUSH1 0x60 ADD PUSH1 0x40 MLOAD PUSH1 0x20 DUP2 DUP4 SUB SUB DUP2 MSTORE SWAP1 PUSH1 0x40 MSTORE DUP1 MLOAD SWAP1 PUSH1 0x20 ADD KECCAK256 SWAP3 POP PUSH2 0x31D DUP4 DUP6 PUSH2 0x918 JUMP JUMPDEST PUSH1 0x40 MLOAD PUSH1 0x1 PUSH1 0x1 PUSH1 0xA0 SHL SUB DUP6 AND DUP2 MSTORE DUP6 SWAP1 DUP8 SWAP1 PUSH32 0xCE0457FE73731F824CC272376169235128C118B49D344817417C6D108D155E82 SWAP1 PUSH1 0x20 ADD PUSH1 0x40 MLOAD DUP1 SWAP2 SUB SWAP1 LOG3 POP POP SWAP4 SWAP3 POP POP POP JUMP JUMPDEST PUSH1 0x0 DUP3 DUP2 MSTORE PUSH1 0x20 DUP2 SWAP1 MSTORE PUSH1 0x40 SWAP1 KECCAK256 SLOAD DUP3 SWAP1 PUSH1 0x1 PUSH1 0x1 PUSH1 0xA0 SHL SUB AND CALLER DUP2 EQ DUP1 PUSH2 0x3A7 JUMPI POP PUSH1 0x0 DUP3 DUP2 MSTORE PUSH1 0x1 PUSH1 0x20 SWAP1 DUP2 MSTORE PUSH1 0x40 DUP1 DUP4 KECCAK256 CALLER DUP5 MSTORE SWAP1 SWAP2 MSTORE SWAP1 KECCAK256 SLOAD PUSH1 0xFF AND JUMPDEST PUSH2 0x3C3 JUMPI PUSH1 0x40 MLOAD PUSH3 0x461BCD PUSH1 0xE5 SHL DUP2 MSTORE PUSH1 0x4 ADD PUSH2 0x2DE SWAP1 PUSH2 0xB00 JUMP JUMPDEST PUSH1 0x0 DUP5 DUP2 MSTORE PUSH1 0x20 DUP2 DUP2 MSTORE PUSH1 0x40 SWAP2 DUP3 SWAP1 KECCAK256 PUSH1 0x1 ADD DUP1 SLOAD PUSH8 0xFFFFFFFFFFFFFFFF PUSH1 0xA0 SHL NOT AND PUSH1 0x1 PUSH1 0xA0 SHL PUSH8 0xFFFFFFFFFFFFFFFF DUP9 AND SWAP1 DUP2 MUL SWAP2 SWAP1 SWAP2 OR SWAP1 SWAP2 SSTORE SWAP2 MLOAD SWAP2 DUP3 MSTORE DUP6 SWAP2 PUSH32 0x1D4F9BBFC9CAB89D66E1A1562F2233CCBF1308CB4F63DE2EAD5787ADDDB8FA68 SWAP2 ADD JUMPDEST PUSH1 0x40 MLOAD DUP1 SWAP2 SUB SWAP1 LOG2 POP POP POP POP JUMP JUMPDEST PUSH1 0x0 DUP3 DUP2 MSTORE PUSH1 0x20 DUP2 SWAP1 MSTORE PUSH1 0x40 SWAP1 KECCAK256 SLOAD DUP3 SWAP1 PUSH1 0x1 PUSH1 0x1 PUSH1 0xA0 SHL SUB AND CALLER DUP2 EQ DUP1 PUSH2 0x47A JUMPI POP PUSH1 0x0 DUP3 DUP2 MSTORE PUSH1 0x1 PUSH1 0x20 SWAP1 DUP2 MSTORE PUSH1 0x40 DUP1 DUP4 KECCAK256 CALLER DUP5 MSTORE SWAP1 SWAP2 MSTORE SWAP1 KECCAK256 SLOAD PUSH1 0xFF AND JUMPDEST PUSH2 0x496 JUMPI PUSH1 0x40 MLOAD PUSH3 0x461BCD PUSH1 0xE5 SHL DUP2 MSTORE PUSH1 0x4 ADD PUSH2 0x2DE SWAP1 PUSH2 0xB00 JUMP JUMPDEST PUSH1 0x0 DUP5 DUP2 MSTORE PUSH1 0x20 DUP2 DUP2 MSTORE PUSH1 0x40 SWAP2 DUP3 SWAP1 KECCAK256 PUSH1 0x1 ADD DUP1 SLOAD PUSH1 0x1 PUSH1 0x1 PUSH1 0xA0 SHL SUB NOT AND PUSH1 0x1 PUSH1 0x1 PUSH1 0xA0 SHL SUB DUP8 AND SWAP1 DUP2 OR SWAP1 SWAP2 SSTORE SWAP2 MLOAD SWAP2 DUP3 MSTORE DUP6 SWAP2 PUSH32 0x335721B01866DC23FBEE8B6B2C7B1E14D6F05C28CD35A2C934239F94095602A0 SWAP2 ADD PUSH2 0x42B JUMP JUMPDEST PUSH1 0x0 DUP3 DUP2 MSTORE PUSH1 0x20 DUP2 SWAP1 MSTORE PUSH1 0x40 SWAP1 KECCAK256 SLOAD DUP3 SWAP1 PUSH1 0x1 PUSH1 0x1 PUSH1 0xA0 SHL SUB AND CALLER DUP2 EQ DUP1 PUSH2 0x535 JUMPI POP PUSH1 0x0 DUP3 DUP2 MSTORE PUSH1 0x1 PUSH1 0x20 SWAP1 DUP2 MSTORE PUSH1 0x40 DUP1 DUP4 KECCAK256 CALLER DUP5 MSTORE SWAP1 SWAP2 MSTORE SWAP1 KECCAK256 SLOAD PUSH1 0xFF AND JUMPDEST PUSH2 0x551 JUMPI PUSH1 0x40 MLOAD PUSH3 0x461BCD PUSH1 0xE5 SHL DUP2 MSTORE PUSH1 0x4 ADD PUSH2 0x2DE SWAP1 PUSH2 0xB00 JUMP JUMPDEST PUSH2 0x55B DUP5 DUP5 PUSH2 0x918 JUMP JUMPDEST PUSH1 0x40 MLOAD PUSH1 0x1 PUSH1 0x1 PUSH1 0xA0 SHL SUB DUP5 AND DUP2 MSTORE DUP5 SWAP1 PUSH32 0xD4735D920B0F87494915F556DD9B54C8F309026070CAEA5C737245152564D266 SWAP1 PUSH1 0x20 ADD PUSH2 0x42B JUMP JUMPDEST PUSH1 0x0 DUP6 DUP2 MSTORE PUSH1 0x20 DUP2 SWAP1 MSTORE PUSH1 0x40 DUP2 KECCAK256 SLOAD DUP7 SWAP1 PUSH1 0x1 PUSH1 0x1 PUSH1 0xA0 SHL SUB AND CALLER DUP2 EQ DUP1 PUSH2 0x5D7 JUMPI POP PUSH1 0x0 DUP3 DUP2 MSTORE PUSH1 0x1 PUSH1 0x20 SWAP1 DUP2 MSTORE PUSH1 0x40 DUP1 DUP4 KECCAK256 CALLER DUP5 MSTORE SWAP1 SWAP2 MSTORE SWAP1 KECCAK256 SLOAD PUSH1 0xFF AND JUMPDEST PUSH2 0x5F3 JUMPI PUSH1 0x40 MLOAD PUSH3 0x461BCD PUSH1 0xE5 SHL DUP2 MSTORE PUSH1 0x4 ADD PUSH2 0x2DE SWAP1 PUSH2 0xB00 JUMP JUMPDEST PUSH1 0x40 DUP1 MLOAD PUSH1 0x20 DUP2 ADD DUP11 SWAP1 MSTORE SWAP1 DUP2 ADD DUP9 SWAP1 MSTORE PUSH1 0x60 ADD PUSH1 0x40 MLOAD PUSH1 0x20 DUP2 DUP4 SUB SUB DUP2 MSTORE SWAP1 PUSH1 0x40 MSTORE DUP1 MLOAD SWAP1 PUSH1 0x20 ADD KECCAK256 SWAP3 POP PUSH2 0x629 DUP4 DUP8 PUSH2 0x918 JUMP JUMPDEST PUSH1 0x0 DUP4 DUP2 MSTORE PUSH1 0x20 DUP2 DUP2 MSTORE PUSH1 0x40 SWAP2 DUP3 SWAP1 KECCAK256 PUSH1 0x1 ADD DUP1 SLOAD PUSH1 0x1 PUSH1 0x1 PUSH1 0xA0 SHL SUB DUP10 DUP2 AND PUSH1 0x1 PUSH1 0x1 PUSH1 0xE0 SHL SUB NOT SWAP1 SWAP3 AND SWAP2 SWAP1 SWAP2 OR PUSH1 0x1 PUSH1 0xA0 SHL PUSH8 0xFFFFFFFFFFFFFFFF DUP11 AND MUL OR SWAP1 SWAP2 SSTORE SWAP2 MLOAD SWAP2 DUP9 AND DUP3 MSTORE DUP9 SWAP2 DUP11 SWAP2 PUSH32 0xCE0457FE73731F824CC272376169235128C118B49D344817417C6D108D155E82 SWAP2 ADD PUSH1 0x40 MLOAD DUP1 SWAP2 SUB SWAP1 LOG3 PUSH1 0x40 MLOAD PUSH1 0x1 PUSH1 0x1 PUSH1 0xA0 SHL SUB DUP7 AND DUP2 MSTORE DUP4 SWAP1 PUSH32 0x335721B01866DC23FBEE8B6B2C7B1E14D6F05C28CD35A2C934239F94095602A0 SWAP1 PUSH1 0x20 ADD PUSH1 0x40 MLOAD DUP1 SWAP2 SUB SWAP1 LOG2 PUSH1 0x40 MLOAD PUSH8 0xFFFFFFFFFFFFFFFF DUP6 AND DUP2 MSTORE DUP4 SWAP1 PUSH32 0x1D4F9BBFC9CAB89D66E1A1562F2233CCBF1308CB4F63DE2EAD5787ADDDB8FA68 SWAP1 PUSH1 0x20 ADD PUSH1 0x40 MLOAD DUP1 SWAP2 SUB SWAP1 LOG2 POP POP SWAP6 SWAP5 POP POP POP POP POP JUMP JUMPDEST PUSH1 0x0 DUP4 DUP2 MSTORE PUSH1 0x20 DUP2 SWAP1 MSTORE PUSH1 0x40 SWAP1 KECCAK256 SLOAD PUSH1 0x1 PUSH1 0x1 PUSH1 0xA0 SHL SUB AND CALLER EQ PUSH2 0x78B JUMPI PUSH1 0x40 MLOAD PUSH3 0x461BCD PUSH1 0xE5 SHL DUP2 MSTORE PUSH1 0x20 PUSH1 0x4 DUP3 ADD MSTORE PUSH1 0x16 PUSH1 0x24 DUP3 ADD MSTORE PUSH22 0x22AA272932B3B4B9BA393C9D103737BA1037BBB732B9 PUSH1 0x51 SHL PUSH1 0x44 DUP3 ADD MSTORE PUSH1 0x64 ADD PUSH2 0x2DE JUMP JUMPDEST PUSH1 0x0 DUP4 DUP2 MSTORE PUSH1 0x1 PUSH1 0x20 SWAP1 DUP2 MSTORE PUSH1 0x40 DUP1 DUP4 KECCAK256 PUSH1 0x1 PUSH1 0x1 PUSH1 0xA0 SHL SUB DUP7 AND DUP1 DUP6 MSTORE SWAP1 DUP4 MSTORE SWAP3 DUP2 SWAP1 KECCAK256 DUP1 SLOAD PUSH1 0xFF NOT AND DUP6 ISZERO ISZERO SWAP1 DUP2 OR SWAP1 SWAP2 SSTORE SWAP1 MLOAD SWAP1 DUP2 MSTORE CALLER SWAP2 PUSH32 0x17307EAB39AB6107E8899845AD3D59BD9653F200F220920489CA2B5937696C31 SWAP2 ADD PUSH1 0x40 MLOAD DUP1 SWAP2 SUB SWAP1 LOG3 POP POP POP JUMP JUMPDEST PUSH1 0x0 DUP5 DUP2 MSTORE PUSH1 0x20 DUP2 SWAP1 MSTORE PUSH1 0x40 SWAP1 KECCAK256 SLOAD DUP5 SWAP1 PUSH1 0x1 PUSH1 0x1 PUSH1 0xA0 SHL SUB AND CALLER DUP2 EQ DUP1 PUSH2 0x837 JUMPI POP PUSH1 0x0 DUP3 DUP2 MSTORE PUSH1 0x1 PUSH1 0x20 SWAP1 DUP2 MSTORE PUSH1 0x40 DUP1 DUP4 KECCAK256 CALLER DUP5 MSTORE SWAP1 SWAP2 MSTORE SWAP1 KECCAK256 SLOAD PUSH1 0xFF AND JUMPDEST PUSH2 0x853 JUMPI PUSH1 0x40 MLOAD PUSH3 0x461BCD PUSH1 0xE5 SHL DUP2 MSTORE PUSH1 0x4 ADD PUSH2 0x2DE SWAP1 PUSH2 0xB00 JUMP JUMPDEST PUSH2 0x85D DUP7 DUP7 PUSH2 0x918 JUMP JUMPDEST PUSH1 0x0 DUP7 DUP2 MSTORE PUSH1 0x20 DUP2 DUP2 MSTORE PUSH1 0x40 SWAP2 DUP3 SWAP1 KECCAK256 PUSH1 0x1 ADD DUP1 SLOAD PUSH1 0x1 PUSH1 0x1 PUSH1 0xA0 SHL SUB DUP9 AND PUSH1 0x1 PUSH1 0x1 PUSH1 0xE0 SHL SUB NOT SWAP1 SWAP2 AND DUP2 OR PUSH1 0x1 PUSH1 0xA0 SHL PUSH8 0xFFFFFFFFFFFFFFFF DUP10 AND MUL OR SWAP1 SWAP2 SSTORE SWAP2 MLOAD SWAP2 DUP3 MSTORE DUP8 SWAP2 PUSH32 0x335721B01866DC23FBEE8B6B2C7B1E14D6F05C28CD35A2C934239F94095602A0 SWAP2 ADD PUSH1 0x40 MLOAD DUP1 SWAP2 SUB SWAP1 LOG2 PUSH1 0x40 MLOAD PUSH8 0xFFFFFFFFFFFFFFFF DUP5 AND DUP2 MSTORE DUP7 SWAP1 PUSH32 0x1D4F9BBFC9CAB89D66E1A1562F2233CCBF1308CB4F63DE2EAD5787ADDDB8FA68 SWAP1 PUSH1 0x20 ADD PUSH1 0x40 MLOAD DUP1 SWAP2 SUB SWAP1 LOG2 POP POP POP POP POP POP JUMP JUMPDEST PUSH1 0x0 SWAP2 DUP3 MSTORE PUSH1 0x20 DUP3 SWAP1 MSTORE PUSH1 0x40 SWAP1 SWAP2 KECCAK256 DUP1 SLOAD PUSH1 0x1 PUSH1 0x1 PUSH1 0xA0 SHL SUB NOT AND PUSH1 0x1 PUSH1 0x1 PUSH1 0xA0 SHL SUB SWAP1 SWAP3 AND SWAP2 SWAP1 SWAP2 OR SWAP1 SSTORE JUMP JUMPDEST PUSH1 0x0 PUSH1 0x20 DUP3 DUP5 SUB SLT ISZERO PUSH2 0x958 JUMPI PUSH1 0x0 DUP1 REVERT JUMPDEST POP CALLDATALOAD SWAP2 SWAP1 POP JUMP JUMPDEST DUP1 CALLDATALOAD PUSH1 0x1 PUSH1 0x1 PUSH1 0xA0 SHL SUB DUP2 AND DUP2 EQ PUSH2 0x976 JUMPI PUSH1 0x0 DUP1 REVERT JUMPDEST SWAP2 SWAP1 POP JUMP JUMPDEST PUSH1 0x0 DUP1 PUSH1 0x0 PUSH1 0x60 DUP5 DUP7 SUB SLT ISZERO PUSH2 0x990 JUMPI PUSH1 0x0 DUP1 REVERT JUMPDEST DUP4 CALLDATALOAD SWAP3 POP PUSH1 0x20 DUP5 ADD CALLDATALOAD SWAP2 POP PUSH2 0x9A7 PUSH1 0x40 DUP6 ADD PUSH2 0x95F JUMP JUMPDEST SWAP1 POP SWAP3 POP SWAP3 POP SWAP3 JUMP JUMPDEST DUP1 CALLDATALOAD PUSH8 0xFFFFFFFFFFFFFFFF DUP2 AND DUP2 EQ PUSH2 0x976 JUMPI PUSH1 0x0 DUP1 REVERT JUMPDEST PUSH1 0x0 DUP1 PUSH1 0x40 DUP4 DUP6 SUB SLT ISZERO PUSH2 0x9DB JUMPI PUSH1 0x0 DUP1 REVERT JUMPDEST DUP3 CALLDATALOAD SWAP2 POP PUSH2 0x9EB PUSH1 0x20 DUP5 ADD PUSH2 0x9B0 JUMP JUMPDEST SWAP1 POP SWAP3 POP SWAP3 SWAP1 POP JUMP JUMPDEST PUSH1 0x0 DUP1 PUSH1 0x40 DUP4 DUP6 SUB SLT ISZERO PUSH2 0xA07 JUMPI PUSH1 0x0 DUP1 REVERT JUMPDEST DUP3 CALLDATALOAD SWAP2 POP PUSH2 0x9EB PUSH1 0x20 DUP5 ADD PUSH2 0x95F JUMP JUMPDEST PUSH1 0x0 DUP1 PUSH1 0x0 DUP1 PUSH1 0x0 PUSH1 0xA0 DUP7 DUP9 SUB SLT ISZERO PUSH2 0xA2F JUMPI PUSH1 0x0 DUP1 REVERT JUMPDEST DUP6 CALLDATALOAD SWAP5 POP PUSH1 0x20 DUP7 ADD CALLDATALOAD SWAP4 POP PUSH2 0xA46 PUSH1 0x40 DUP8 ADD PUSH2 0x95F JUMP JUMPDEST SWAP3 POP PUSH2 0xA54 PUSH1 0x60 DUP8 ADD PUSH2 0x95F JUMP JUMPDEST SWAP2 POP PUSH2 0xA62 PUSH1 0x80 DUP8 ADD PUSH2 0x9B0 JUMP JUMPDEST SWAP1 POP SWAP3 SWAP6 POP SWAP3 SWAP6 SWAP1 SWAP4 POP JUMP JUMPDEST PUSH1 0x0 DUP1 PUSH1 0x0 PUSH1 0x60 DUP5 DUP7 SUB SLT ISZERO PUSH2 0xA83 JUMPI PUSH1 0x0 DUP1 REVERT JUMPDEST DUP4 CALLDATALOAD SWAP3 POP PUSH2 0xA93 PUSH1 0x20 DUP6 ADD PUSH2 0x95F JUMP JUMPDEST SWAP2 POP PUSH1 0x40 DUP5 ADD CALLDATALOAD DUP1 ISZERO ISZERO DUP2 EQ PUSH2 0xAA8 JUMPI PUSH1 0x0 DUP1 REVERT JUMPDEST DUP1 SWAP2 POP POP SWAP3 POP SWAP3 POP SWAP3 JUMP JUMPDEST PUSH1 0x0 DUP1 PUSH1 0x0 DUP1 PUSH1 0x80 DUP6 DUP8 SUB SLT ISZERO PUSH2 0xAC9 JUMPI PUSH1 0x0 DUP1 REVERT JUMPDEST DUP5 CALLDATALOAD SWAP4 POP PUSH2 0xAD9 PUSH1 0x20 DUP7 ADD PUSH2 0x95F JUMP JUMPDEST SWAP3 POP PUSH2 0xAE7 PUSH1 0x40 DUP7 ADD PUSH2 0x95F JUMP JUMPDEST SWAP2 POP PUSH2 0xAF5 PUSH1 0x60 DUP7 ADD PUSH2 0x9B0 JUMP JUMPDEST SWAP1 POP SWAP3 SWAP6 SWAP2 SWAP5 POP SWAP3 POP JUMP JUMPDEST PUSH1 0x20 DUP1 DUP3 MSTORE PUSH1 0x1B SWAP1 DUP3 ADD MSTORE PUSH32 0x45544E52656769737472793A206E6F7420617574686F72697365640000000000 PUSH1 0x40 DUP3 ADD MSTORE PUSH1 0x60 ADD SWAP1 JUMP INVALID LOG2 PUSH5 0x6970667358 0x22 SLT KECCAK256 COINBASE DIFFICULTY SELFDESTRUCT 0xFC DUP2 0xE4 0xEC 0xB6 0xB2 0xD9 0xC9 0xB8 CALLDATASIZE CALLDATASIZE 0xAE SWAP14 LOG1 0xB1 PUSH17 0xA8EB47709C8810792B67B73A264736F6C PUSH4 0x43000814 STOP CALLER "
				},
				"gasEstimates": {
					"creation": {
						"codeDepositCost": "585000",
						"executionCost": "24872",
						"totalCost": "609872"
					},
					"external": {
						"isApprovedForAll(bytes32,address)": "2697",
						"owner(bytes32)": "2492",
						"recordExists(bytes32)": "2581",
						"resolver(bytes32)": "2476",
						"setApprovalForAll(bytes32,address,bool)": "28876",
						"setOwner(bytes32,address)": "30655",
						"setRecord(bytes32,address,address,uint64)": "infinite",
						"setResolver(bytes32,address)": "30721",
						"setSubnodeOwner(bytes32,bytes32,address)": "31306",
						"setSubnodeRecord(bytes32,bytes32,address,address,uint64)": "infinite",
						"setTTL(bytes32,uint64)": "30659",
						"ttl(bytes32)": "2568"
					},
					"internal": {
						"_setOwner(bytes32,address)": "24353"
					}
				},
				"methodIdentifiers": {
					"isApprovedForAll(bytes32,address)": "b0698628",
					"owner(bytes32)": "02571be3",
					"recordExists(bytes32)": "f79fe538",
					"resolver(bytes32)": "0178b8bf",
					"setApprovalForAll(bytes32,address,bool)": "bc053e73",
					"setOwner(bytes32,address)": "5b0fc9c3",
					"setRecord(bytes32,address,address,uint64)": "cf408823",
					"setResolver(bytes32,address)": "1896f70a",
					"setSubnodeOwner(bytes32,bytes32,address)": "06ab5923",
					"setSubnodeRecord(bytes32,bytes32,address,address,uint64)": "5ef2c7f0",
					"setTTL(bytes32,uint64)": "14ab9038",
					"ttl(bytes32)": "16a25cbd"
				}
			},
			"storageLayout": {
				"storage": [
					{
						"astId": 15,
						"contract": "contracts/EnsSubdomainService/ETNRegistry.sol:ETNRegistry",
						"label": "_records",
						"offset": 0,
						"slot": "0",
						"type": "t_mapping(t_bytes32,t_struct(Record)9_storage)"
					},
					{
						"astId": 22,
						"contract": "contracts/EnsSubdomainService/ETNRegistry.sol:ETNRegistry",
						"label": "_operators",
						"offset": 0,
						"slot": "1",
						"type": "t_mapping(t_bytes32,t_mapping(t_address,t_bool))"
					}
				],
				"types": {
					"t_address": {
						"encoding": "inplace",
						"label": "address",
						"numberOfBytes": "20"
					},
					"t_bool": {
						"encoding": "inplace",
						"label": "bool",
						"numberOfBytes": "1"
					},
					"t_bytes32": {
						"encoding": "inplace",
						"label": "bytes32",
						"numberOfBytes": "32"
					},
					"t_mapping(t_address,t_bool)": {
						"encoding": "mapping",
						"key": "t_address",
						"label": "mapping(address => bool)",
						"numberOfBytes": "32",
						"value": "t_bool"
					},
					"t_mapping(t_bytes32,t_mapping(t_address,t_bool))": {
						"encoding": "mapping",
						"key": "t_bytes32",
						"label": "mapping(bytes32 => mapping(address => bool))",
						"numberOfBytes": "32",
						"value": "t_mapping(t_address,t_bool)"
					},
					"t_mapping(t_bytes32,t_struct(Record)9_storage)": {
						"encoding": "mapping",
						"key": "t_bytes32",
						"label": "mapping(bytes32 => struct ETNRegistry.Record)",
						"numberOfBytes": "32",
						"value": "t_struct(Record)9_storage"
					},
					"t_struct(Record)9_storage": {
						"encoding": "inplace",
						"label": "struct ETNRegistry.Record",
						"members": [
							{
								"astId": 4,
								"contract": "contracts/EnsSubdomainService/ETNRegistry.sol:ETNRegistry",
								"label": "owner",
								"offset": 0,
								"slot": "0",
								"type": "t_address"
							},
							{
								"astId": 6,
								"contract": "contracts/EnsSubdomainService/ETNRegistry.sol:ETNRegistry",
								"label": "resolver",
								"offset": 0,
								"slot": "1",
								"type": "t_address"
							},
							{
								"astId": 8,
								"contract": "contracts/EnsSubdomainService/ETNRegistry.sol:ETNRegistry",
								"label": "ttl",
								"offset": 20,
								"slot": "1",
								"type": "t_uint64"
							}
						],
						"numberOfBytes": "64"
					},
					"t_uint64": {
						"encoding": "inplace",
						"label": "uint64",
						"numberOfBytes": "8"
					}
				}
			},
			"userdoc": {
				"kind": "user",
				"methods": {
					"setRecord(bytes32,address,address,uint64)": {
						"notice": "Set the full record for a node in one call."
					},
					"setSubnodeOwner(bytes32,bytes32,address)": {
						"notice": "Set a subnode owner. Called by the Registrar when minting a name."
					}
				},
				"notice": "Central registry for all .etn and .project.etn names.         Stores owner, resolver, and TTL for every registered node.         Architecture mirrors ENS — a pure registry with no pricing logic.",
				"version": 1
			}
		}
	}
}