{
	"contracts/ZephyrosStaking/DripFundingContract.sol": {
		"CoreDripFunderV2": {
			"abi": [
				{
					"inputs": [
						{
							"internalType": "address",
							"name": "_coreToken",
							"type": "address"
						},
						{
							"internalType": "address",
							"name": "_stakingContract",
							"type": "address"
						},
						{
							"internalType": "uint256",
							"name": "_totalToDrip",
							"type": "uint256"
						},
						{
							"internalType": "uint256",
							"name": "_endTimestamp",
							"type": "uint256"
						}
					],
					"stateMutability": "nonpayable",
					"type": "constructor"
				},
				{
					"anonymous": false,
					"inputs": [
						{
							"indexed": false,
							"internalType": "uint256",
							"name": "amount",
							"type": "uint256"
						},
						{
							"indexed": false,
							"internalType": "uint256",
							"name": "remainingToDrip",
							"type": "uint256"
						},
						{
							"indexed": false,
							"internalType": "uint256",
							"name": "dripCount",
							"type": "uint256"
						}
					],
					"name": "Dripped",
					"type": "event"
				},
				{
					"anonymous": false,
					"inputs": [
						{
							"indexed": false,
							"internalType": "address",
							"name": "token",
							"type": "address"
						},
						{
							"indexed": false,
							"internalType": "uint256",
							"name": "amount",
							"type": "uint256"
						}
					],
					"name": "EmergencyWithdraw",
					"type": "event"
				},
				{
					"inputs": [],
					"name": "DRIP_AMOUNT",
					"outputs": [
						{
							"internalType": "uint256",
							"name": "",
							"type": "uint256"
						}
					],
					"stateMutability": "view",
					"type": "function"
				},
				{
					"inputs": [],
					"name": "DRIP_INTERVAL",
					"outputs": [
						{
							"internalType": "uint256",
							"name": "",
							"type": "uint256"
						}
					],
					"stateMutability": "view",
					"type": "function"
				},
				{
					"inputs": [],
					"name": "coreToken",
					"outputs": [
						{
							"internalType": "contract ICoreToken",
							"name": "",
							"type": "address"
						}
					],
					"stateMutability": "view",
					"type": "function"
				},
				{
					"inputs": [
						{
							"internalType": "uint256",
							"name": "amount",
							"type": "uint256"
						}
					],
					"name": "deposit",
					"outputs": [],
					"stateMutability": "nonpayable",
					"type": "function"
				},
				{
					"inputs": [],
					"name": "drip",
					"outputs": [],
					"stateMutability": "nonpayable",
					"type": "function"
				},
				{
					"inputs": [
						{
							"internalType": "address",
							"name": "token",
							"type": "address"
						}
					],
					"name": "emergencyWithdraw",
					"outputs": [],
					"stateMutability": "nonpayable",
					"type": "function"
				},
				{
					"inputs": [],
					"name": "endTimestamp",
					"outputs": [
						{
							"internalType": "uint256",
							"name": "",
							"type": "uint256"
						}
					],
					"stateMutability": "view",
					"type": "function"
				},
				{
					"inputs": [],
					"name": "lastDripTime",
					"outputs": [
						{
							"internalType": "uint256",
							"name": "",
							"type": "uint256"
						}
					],
					"stateMutability": "view",
					"type": "function"
				},
				{
					"inputs": [],
					"name": "nextDripIn",
					"outputs": [
						{
							"internalType": "uint256",
							"name": "",
							"type": "uint256"
						}
					],
					"stateMutability": "view",
					"type": "function"
				},
				{
					"inputs": [],
					"name": "owner",
					"outputs": [
						{
							"internalType": "address",
							"name": "",
							"type": "address"
						}
					],
					"stateMutability": "view",
					"type": "function"
				},
				{
					"inputs": [],
					"name": "remainingDrips",
					"outputs": [
						{
							"internalType": "uint256",
							"name": "",
							"type": "uint256"
						}
					],
					"stateMutability": "view",
					"type": "function"
				},
				{
					"inputs": [],
					"name": "stakingContract",
					"outputs": [
						{
							"internalType": "contract ICoreAscensionV2",
							"name": "",
							"type": "address"
						}
					],
					"stateMutability": "view",
					"type": "function"
				},
				{
					"inputs": [],
					"name": "totalDripped",
					"outputs": [
						{
							"internalType": "uint256",
							"name": "",
							"type": "uint256"
						}
					],
					"stateMutability": "view",
					"type": "function"
				},
				{
					"inputs": [],
					"name": "totalToDrip",
					"outputs": [
						{
							"internalType": "uint256",
							"name": "",
							"type": "uint256"
						}
					],
					"stateMutability": "view",
					"type": "function"
				},
				{
					"inputs": [
						{
							"internalType": "address",
							"name": "newOwner",
							"type": "address"
						}
					],
					"name": "transferOwnership",
					"outputs": [],
					"stateMutability": "nonpayable",
					"type": "function"
				}
			],
			"devdoc": {
				"kind": "dev",
				"methods": {},
				"version": 1
			},
			"evm": {
				"assembly": "    /* \"contracts/ZephyrosStaking/DripFundingContract.sol\":525:3407  contract CoreDripFunderV2 {... */\n  mstore(0x40, 0x80)\n    /* \"contracts/ZephyrosStaking/DripFundingContract.sol\":1192:1600  constructor(... */\n  callvalue\n  dup1\n  iszero\n  tag_1\n  jumpi\n  0x00\n  dup1\n  revert\ntag_1:\n  pop\n  mload(0x40)\n  sub(codesize, bytecodeSize)\n  dup1\n  bytecodeSize\n  dup4\n  codecopy\n  dup2\n  add\n  0x40\n  dup2\n  swap1\n  mstore\n  tag_2\n  swap2\n  tag_3\n  jump\t// in\ntag_2:\n    /* \"contracts/ZephyrosStaking/DripFundingContract.sol\":1349:1354  owner */\n  0x00\n    /* \"contracts/ZephyrosStaking/DripFundingContract.sol\":1349:1367  owner = msg.sender */\n  dup1\n  sload\n  not(sub(shl(0xa0, 0x01), 0x01))\n  swap1\n  dup2\n  and\n    /* \"contracts/ZephyrosStaking/DripFundingContract.sol\":1357:1367  msg.sender */\n  caller\n    /* \"contracts/ZephyrosStaking/DripFundingContract.sol\":1349:1367  owner = msg.sender */\n  or\n  swap1\n  swap2\n  sstore\n  0x01\n    /* \"contracts/ZephyrosStaking/DripFundingContract.sol\":1378:1412  coreToken = ICoreToken(_coreToken) */\n  dup1\n  sload\n  sub(shl(0xa0, 0x01), 0x01)\n  swap7\n  dup8\n  and\n  swap1\n  dup4\n  and\n  or\n  swap1\n  sstore\n    /* \"contracts/ZephyrosStaking/DripFundingContract.sol\":1423:1438  stakingContract */\n  0x02\n    /* \"contracts/ZephyrosStaking/DripFundingContract.sol\":1423:1475  stakingContract = ICoreAscensionV2(_stakingContract) */\n  dup1\n  sload\n  swap5\n  swap1\n  swap6\n  and\n  swap4\n  and\n  swap3\n  swap1\n  swap3\n  or\n  swap1\n  swap3\n  sstore\n    /* \"contracts/ZephyrosStaking/DripFundingContract.sol\":1486:1497  totalToDrip */\n  0x05\n    /* \"contracts/ZephyrosStaking/DripFundingContract.sol\":1486:1512  totalToDrip = _totalToDrip */\n  swap2\n  swap1\n  swap2\n  sstore\n    /* \"contracts/ZephyrosStaking/DripFundingContract.sol\":1523:1535  endTimestamp */\n  0x06\n    /* \"contracts/ZephyrosStaking/DripFundingContract.sol\":1523:1551  endTimestamp = _endTimestamp */\n  sstore\n    /* \"contracts/ZephyrosStaking/DripFundingContract.sol\":1577:1592  block.timestamp */\n  timestamp\n    /* \"contracts/ZephyrosStaking/DripFundingContract.sol\":1562:1574  lastDripTime */\n  0x03\n    /* \"contracts/ZephyrosStaking/DripFundingContract.sol\":1562:1592  lastDripTime = block.timestamp */\n  sstore\n    /* \"contracts/ZephyrosStaking/DripFundingContract.sol\":525:3407  contract CoreDripFunderV2 {... */\n  jump(tag_8)\n    /* \"#utility.yul\":14:191   */\ntag_7:\n    /* \"#utility.yul\":93:106   */\n  dup1\n  mload\n  sub(shl(0xa0, 0x01), 0x01)\n    /* \"#utility.yul\":135:166   */\n  dup2\n  and\n    /* \"#utility.yul\":125:167   */\n  dup2\n  eq\n    /* \"#utility.yul\":115:185   */\n  tag_10\n  jumpi\n    /* \"#utility.yul\":181:182   */\n  0x00\n    /* \"#utility.yul\":178:179   */\n  dup1\n    /* \"#utility.yul\":171:183   */\n  revert\n    /* \"#utility.yul\":115:185   */\ntag_10:\n    /* \"#utility.yul\":14:191   */\n  swap2\n  swap1\n  pop\n  jump\t// out\n    /* \"#utility.yul\":196:612   */\ntag_3:\n    /* \"#utility.yul\":293:299   */\n  0x00\n    /* \"#utility.yul\":301:307   */\n  dup1\n    /* \"#utility.yul\":309:315   */\n  0x00\n    /* \"#utility.yul\":317:323   */\n  dup1\n    /* \"#utility.yul\":370:373   */\n  0x80\n    /* \"#utility.yul\":358:367   */\n  dup6\n    /* \"#utility.yul\":349:356   */\n  dup8\n    /* \"#utility.yul\":345:368   */\n  sub\n    /* \"#utility.yul\":341:374   */\n  slt\n    /* \"#utility.yul\":338:391   */\n  iszero\n  tag_12\n  jumpi\n    /* \"#utility.yul\":387:388   */\n  0x00\n    /* \"#utility.yul\":384:385   */\n  dup1\n    /* \"#utility.yul\":377:389   */\n  revert\n    /* \"#utility.yul\":338:391   */\ntag_12:\n    /* \"#utility.yul\":410:450   */\n  tag_13\n    /* \"#utility.yul\":440:449   */\n  dup6\n    /* \"#utility.yul\":410:450   */\n  tag_7\n  jump\t// in\ntag_13:\n    /* \"#utility.yul\":400:450   */\n  swap4\n  pop\n    /* \"#utility.yul\":469:518   */\n  tag_14\n    /* \"#utility.yul\":514:516   */\n  0x20\n    /* \"#utility.yul\":503:512   */\n  dup7\n    /* \"#utility.yul\":499:517   */\n  add\n    /* \"#utility.yul\":469:518   */\n  tag_7\n  jump\t// in\ntag_14:\n    /* \"#utility.yul\":558:560   */\n  0x40\n    /* \"#utility.yul\":543:561   */\n  dup7\n  add\n    /* \"#utility.yul\":537:562   */\n  mload\n    /* \"#utility.yul\":602:604   */\n  0x60\n    /* \"#utility.yul\":587:605   */\n  swap1\n  swap7\n  add\n    /* \"#utility.yul\":581:606   */\n  mload\n    /* \"#utility.yul\":196:612   */\n  swap5\n  swap8\n    /* \"#utility.yul\":459:518   */\n  swap1\n  swap7\n  pop\n    /* \"#utility.yul\":196:612   */\n  swap3\n  pop\n  pop\n  pop\n  jump\t// out\ntag_8:\n    /* \"contracts/ZephyrosStaking/DripFundingContract.sol\":525:3407  contract CoreDripFunderV2 {... */\n  dataSize(sub_0)\n  dup1\n  dataOffset(sub_0)\n  0x00\n  codecopy\n  0x00\n  return\nstop\n\nsub_0: assembly {\n        /* \"contracts/ZephyrosStaking/DripFundingContract.sol\":525:3407  contract CoreDripFunderV2 {... */\n      mstore(0x40, 0x80)\n      callvalue\n      dup1\n      iszero\n      tag_1\n      jumpi\n      0x00\n      dup1\n      revert\n    tag_1:\n      pop\n      jumpi(tag_2, lt(calldatasize, 0x04))\n      shr(0xe0, calldataload(0x00))\n      dup1\n      0x9f678cca\n      gt\n      tag_18\n      jumpi\n      dup1\n      0xe98890a7\n      gt\n      tag_19\n      jumpi\n      dup1\n      0xe98890a7\n      eq\n      tag_14\n      jumpi\n      dup1\n      0xee99205c\n      eq\n      tag_15\n      jumpi\n      dup1\n      0xf2fde38b\n      eq\n      tag_16\n      jumpi\n      dup1\n      0xfba1f7b0\n      eq\n      tag_17\n      jumpi\n      0x00\n      dup1\n      revert\n    tag_19:\n      dup1\n      0x9f678cca\n      eq\n      tag_10\n      jumpi\n      dup1\n      0xa85adeab\n      eq\n      tag_11\n      jumpi\n      dup1\n      0xb6b55f25\n      eq\n      tag_12\n      jumpi\n      dup1\n      0xc7274f3a\n      eq\n      tag_13\n      jumpi\n      0x00\n      dup1\n      revert\n    tag_18:\n      dup1\n      0x6ff1c9bc\n      gt\n      tag_20\n      jumpi\n      dup1\n      0x6ff1c9bc\n      eq\n      tag_6\n      jumpi\n      dup1\n      0x79497069\n      eq\n      tag_7\n      jumpi\n      dup1\n      0x8820f554\n      eq\n      tag_8\n      jumpi\n      dup1\n      0x8da5cb5b\n      eq\n      tag_9\n      jumpi\n      0x00\n      dup1\n      revert\n    tag_20:\n      dup1\n      0x0c2b72e9\n      eq\n      tag_3\n      jumpi\n      dup1\n      0x59081213\n      eq\n      tag_4\n      jumpi\n      dup1\n      0x5d8bc6b7\n      eq\n      tag_5\n      jumpi\n    tag_2:\n      0x00\n      dup1\n      revert\n        /* \"contracts/ZephyrosStaking/DripFundingContract.sol\":585:612  ICoreToken public coreToken */\n    tag_3:\n      sload(0x01)\n      tag_21\n      swap1\n      sub(shl(0xa0, 0x01), 0x01)\n      and\n      dup2\n      jump\n    tag_21:\n      mload(0x40)\n      sub(shl(0xa0, 0x01), 0x01)\n        /* \"#utility.yul\":195:227   */\n      swap1\n      swap2\n      and\n        /* \"#utility.yul\":177:228   */\n      dup2\n      mstore\n        /* \"#utility.yul\":165:167   */\n      0x20\n        /* \"#utility.yul\":150:168   */\n      add\n        /* \"contracts/ZephyrosStaking/DripFundingContract.sol\":585:612  ICoreToken public coreToken */\n    tag_23:\n      mload(0x40)\n      dup1\n      swap2\n      sub\n      swap1\n      return\n        /* \"contracts/ZephyrosStaking/DripFundingContract.sol\":2592:2790  function nextDripIn() external view returns (uint256) {... */\n    tag_4:\n      tag_25\n      tag_26\n      jump\t// in\n    tag_25:\n      mload(0x40)\n        /* \"#utility.yul\":385:410   */\n      swap1\n      dup2\n      mstore\n        /* \"#utility.yul\":373:375   */\n      0x20\n        /* \"#utility.yul\":358:376   */\n      add\n        /* \"contracts/ZephyrosStaking/DripFundingContract.sol\":2592:2790  function nextDripIn() external view returns (uint256) {... */\n      tag_23\n        /* \"#utility.yul\":239:416   */\n      jump\n        /* \"contracts/ZephyrosStaking/DripFundingContract.sol\":737:783  uint256 public constant DRIP_INTERVAL = 7 days */\n    tag_5:\n      tag_25\n        /* \"contracts/ZephyrosStaking/DripFundingContract.sol\":777:783  7 days */\n      0x093a80\n        /* \"contracts/ZephyrosStaking/DripFundingContract.sol\":737:783  uint256 public constant DRIP_INTERVAL = 7 days */\n      dup2\n      jump\n        /* \"contracts/ZephyrosStaking/DripFundingContract.sol\":2959:3239  function emergencyWithdraw(address token) external onlyOwner {... */\n    tag_6:\n      tag_32\n      tag_33\n      calldatasize\n      0x04\n      tag_34\n      jump\t// in\n    tag_33:\n      tag_35\n      jump\t// in\n    tag_32:\n      stop\n        /* \"contracts/ZephyrosStaking/DripFundingContract.sol\":860:886  uint256 public totalToDrip */\n    tag_7:\n      tag_25\n      sload(0x05)\n      dup2\n      jump\n        /* \"contracts/ZephyrosStaking/DripFundingContract.sol\":2798:2924  function remainingDrips() external view returns (uint256) {... */\n    tag_8:\n      tag_25\n      tag_40\n      jump\t// in\n        /* \"contracts/ZephyrosStaking/DripFundingContract.sol\":558:578  address public owner */\n    tag_9:\n      sload(0x00)\n      tag_21\n      swap1\n      sub(shl(0xa0, 0x01), 0x01)\n      and\n      dup2\n      jump\n        /* \"contracts/ZephyrosStaking/DripFundingContract.sol\":1768:2584  function drip() external {... */\n    tag_10:\n      tag_32\n      tag_47\n      jump\t// in\n        /* \"contracts/ZephyrosStaking/DripFundingContract.sol\":895:922  uint256 public endTimestamp */\n    tag_11:\n      tag_25\n      sload(0x06)\n      dup2\n      jump\n        /* \"contracts/ZephyrosStaking/DripFundingContract.sol\":1608:1764  function deposit(uint256 amount) external onlyOwner {... */\n    tag_12:\n      tag_32\n      tag_52\n      calldatasize\n      0x04\n      tag_53\n      jump\t// in\n    tag_52:\n      tag_54\n      jump\t// in\n        /* \"contracts/ZephyrosStaking/DripFundingContract.sol\":826:853  uint256 public totalDripped */\n    tag_13:\n      tag_25\n      sload(0x04)\n      dup2\n      jump\n        /* \"contracts/ZephyrosStaking/DripFundingContract.sol\":667:714  uint256 public constant DRIP_AMOUNT = 500 ether */\n    tag_14:\n      tag_25\n        /* \"contracts/ZephyrosStaking/DripFundingContract.sol\":705:714  500 ether */\n      0x1b1ae4d6e2ef500000\n        /* \"contracts/ZephyrosStaking/DripFundingContract.sol\":667:714  uint256 public constant DRIP_AMOUNT = 500 ether */\n      dup2\n      jump\n        /* \"contracts/ZephyrosStaking/DripFundingContract.sol\":619:658  ICoreAscensionV2 public stakingContract */\n    tag_15:\n      sload(0x02)\n      tag_21\n      swap1\n      sub(shl(0xa0, 0x01), 0x01)\n      and\n      dup2\n      jump\n        /* \"contracts/ZephyrosStaking/DripFundingContract.sol\":3247:3404  function transferOwnership(address newOwner) external onlyOwner {... */\n    tag_16:\n      tag_32\n      tag_66\n      calldatasize\n      0x04\n      tag_34\n      jump\t// in\n    tag_66:\n      tag_67\n      jump\t// in\n        /* \"contracts/ZephyrosStaking/DripFundingContract.sol\":792:819  uint256 public lastDripTime */\n    tag_17:\n      tag_25\n      sload(0x03)\n      dup2\n      jump\n        /* \"contracts/ZephyrosStaking/DripFundingContract.sol\":2592:2790  function nextDripIn() external view returns (uint256) {... */\n    tag_26:\n        /* \"contracts/ZephyrosStaking/DripFundingContract.sol\":2637:2644  uint256 */\n      0x00\n        /* \"contracts/ZephyrosStaking/DripFundingContract.sol\":777:783  7 days */\n      0x093a80\n        /* \"contracts/ZephyrosStaking/DripFundingContract.sol\":2680:2692  lastDripTime */\n      sload(0x03)\n        /* \"contracts/ZephyrosStaking/DripFundingContract.sol\":2680:2708  lastDripTime + DRIP_INTERVAL */\n      tag_72\n      swap2\n      swap1\n      tag_73\n      jump\t// in\n    tag_72:\n        /* \"contracts/ZephyrosStaking/DripFundingContract.sol\":2661:2676  block.timestamp */\n      timestamp\n        /* \"contracts/ZephyrosStaking/DripFundingContract.sol\":2661:2708  block.timestamp >= lastDripTime + DRIP_INTERVAL */\n      lt\n        /* \"contracts/ZephyrosStaking/DripFundingContract.sol\":2657:2718  if (block.timestamp >= lastDripTime + DRIP_INTERVAL) return 0 */\n      tag_74\n      jumpi\n      pop\n        /* \"contracts/ZephyrosStaking/DripFundingContract.sol\":2717:2718  0 */\n      0x00\n      swap1\n        /* \"contracts/ZephyrosStaking/DripFundingContract.sol\":2592:2790  function nextDripIn() external view returns (uint256) {... */\n      jump\t// out\n        /* \"contracts/ZephyrosStaking/DripFundingContract.sol\":2657:2718  if (block.timestamp >= lastDripTime + DRIP_INTERVAL) return 0 */\n    tag_74:\n        /* \"contracts/ZephyrosStaking/DripFundingContract.sol\":2767:2782  block.timestamp */\n      timestamp\n        /* \"contracts/ZephyrosStaking/DripFundingContract.sol\":777:783  7 days */\n      0x093a80\n        /* \"contracts/ZephyrosStaking/DripFundingContract.sol\":2736:2748  lastDripTime */\n      sload(0x03)\n        /* \"contracts/ZephyrosStaking/DripFundingContract.sol\":2736:2764  lastDripTime + DRIP_INTERVAL */\n      tag_75\n      swap2\n      swap1\n      tag_73\n      jump\t// in\n    tag_75:\n        /* \"contracts/ZephyrosStaking/DripFundingContract.sol\":2736:2782  lastDripTime + DRIP_INTERVAL - block.timestamp */\n      tag_76\n      swap2\n      swap1\n      tag_77\n      jump\t// in\n    tag_76:\n        /* \"contracts/ZephyrosStaking/DripFundingContract.sol\":2729:2782  return lastDripTime + DRIP_INTERVAL - block.timestamp */\n      swap1\n      pop\n        /* \"contracts/ZephyrosStaking/DripFundingContract.sol\":2592:2790  function nextDripIn() external view returns (uint256) {... */\n      swap1\n      jump\t// out\n        /* \"contracts/ZephyrosStaking/DripFundingContract.sol\":2959:3239  function emergencyWithdraw(address token) external onlyOwner {... */\n    tag_35:\n        /* \"contracts/ZephyrosStaking/DripFundingContract.sol\":1145:1150  owner */\n      and(sub(shl(0xa0, 0x01), 0x01), sload(0x00))\n        /* \"contracts/ZephyrosStaking/DripFundingContract.sol\":1131:1141  msg.sender */\n      caller\n        /* \"contracts/ZephyrosStaking/DripFundingContract.sol\":1131:1150  msg.sender == owner */\n      eq\n        /* \"contracts/ZephyrosStaking/DripFundingContract.sol\":1123:1164  require(msg.sender == owner, \"Not owner\") */\n      tag_79\n      jumpi\n      mload(0x40)\n      shl(0xe5, 0x461bcd)\n      dup2\n      mstore\n      0x04\n      add\n      tag_80\n      swap1\n      tag_81\n      jump\t// in\n    tag_80:\n      mload(0x40)\n      dup1\n      swap2\n      sub\n      swap1\n      revert\n    tag_79:\n        /* \"contracts/ZephyrosStaking/DripFundingContract.sol\":3045:3087  ICoreToken(token).balanceOf(address(this)) */\n      mload(0x40)\n      shl(0xe0, 0x70a08231)\n      dup2\n      mstore\n        /* \"contracts/ZephyrosStaking/DripFundingContract.sol\":3081:3085  this */\n      address\n        /* \"contracts/ZephyrosStaking/DripFundingContract.sol\":3045:3087  ICoreToken(token).balanceOf(address(this)) */\n      0x04\n      dup3\n      add\n        /* \"#utility.yul\":177:228   */\n      mstore\n        /* \"contracts/ZephyrosStaking/DripFundingContract.sol\":3031:3042  uint256 bal */\n      0x00\n      swap1\n      sub(shl(0xa0, 0x01), 0x01)\n        /* \"contracts/ZephyrosStaking/DripFundingContract.sol\":3045:3072  ICoreToken(token).balanceOf */\n      dup4\n      and\n      swap1\n      0x70a08231\n      swap1\n        /* \"#utility.yul\":150:168   */\n      0x24\n      add\n        /* \"contracts/ZephyrosStaking/DripFundingContract.sol\":3045:3087  ICoreToken(token).balanceOf(address(this)) */\n      0x20\n      mload(0x40)\n      dup1\n      dup4\n      sub\n      dup2\n      dup7\n      gas\n      staticcall\n      iszero\n      dup1\n      iszero\n      tag_85\n      jumpi\n      returndatasize\n      0x00\n      dup1\n      returndatacopy\n      revert(0x00, returndatasize)\n    tag_85:\n      pop\n      pop\n      pop\n      pop\n      mload(0x40)\n      returndatasize\n      not(0x1f)\n      0x1f\n      dup3\n      add\n      and\n      dup3\n      add\n      dup1\n      0x40\n      mstore\n      pop\n      dup2\n      add\n      swap1\n      tag_86\n      swap2\n      swap1\n      tag_87\n      jump\t// in\n    tag_86:\n        /* \"contracts/ZephyrosStaking/DripFundingContract.sol\":3031:3087  uint256 bal = ICoreToken(token).balanceOf(address(this)) */\n      swap1\n      pop\n        /* \"contracts/ZephyrosStaking/DripFundingContract.sol\":3112:3113  0 */\n      0x00\n        /* \"contracts/ZephyrosStaking/DripFundingContract.sol\":3106:3109  bal */\n      dup2\n        /* \"contracts/ZephyrosStaking/DripFundingContract.sol\":3106:3113  bal > 0 */\n      gt\n        /* \"contracts/ZephyrosStaking/DripFundingContract.sol\":3098:3137  require(bal > 0, \"Nothing to withdraw\") */\n      tag_88\n      jumpi\n      mload(0x40)\n      shl(0xe5, 0x461bcd)\n      dup2\n      mstore\n        /* \"#utility.yul\":2459:2461   */\n      0x20\n        /* \"contracts/ZephyrosStaking/DripFundingContract.sol\":3098:3137  require(bal > 0, \"Nothing to withdraw\") */\n      0x04\n      dup3\n      add\n        /* \"#utility.yul\":2441:2462   */\n      mstore\n        /* \"#utility.yul\":2498:2500   */\n      0x13\n        /* \"#utility.yul\":2478:2496   */\n      0x24\n      dup3\n      add\n        /* \"#utility.yul\":2471:2501   */\n      mstore\n      shl(0x68, 0x4e6f7468696e6720746f207769746864726177)\n        /* \"#utility.yul\":2517:2535   */\n      0x44\n      dup3\n      add\n        /* \"#utility.yul\":2510:2559   */\n      mstore\n        /* \"#utility.yul\":2576:2594   */\n      0x64\n      add\n        /* \"contracts/ZephyrosStaking/DripFundingContract.sol\":3098:3137  require(bal > 0, \"Nothing to withdraw\") */\n      tag_80\n        /* \"#utility.yul\":2257:2600   */\n      jump\n        /* \"contracts/ZephyrosStaking/DripFundingContract.sol\":3098:3137  require(bal > 0, \"Nothing to withdraw\") */\n    tag_88:\n        /* \"contracts/ZephyrosStaking/DripFundingContract.sol\":3175:3180  owner */\n      sload(0x00)\n        /* \"contracts/ZephyrosStaking/DripFundingContract.sol\":3148:3186  ICoreToken(token).transfer(owner, bal) */\n      mload(0x40)\n      shl(0xe0, 0xa9059cbb)\n      dup2\n      mstore\n      sub(shl(0xa0, 0x01), 0x01)\n        /* \"contracts/ZephyrosStaking/DripFundingContract.sol\":3175:3180  owner */\n      swap2\n      dup3\n      and\n        /* \"contracts/ZephyrosStaking/DripFundingContract.sol\":3148:3186  ICoreToken(token).transfer(owner, bal) */\n      0x04\n      dup3\n      add\n        /* \"#utility.yul\":2779:2830   */\n      mstore\n        /* \"#utility.yul\":2846:2864   */\n      0x24\n      dup2\n      add\n        /* \"#utility.yul\":2839:2873   */\n      dup4\n      swap1\n      mstore\n        /* \"contracts/ZephyrosStaking/DripFundingContract.sol\":3148:3174  ICoreToken(token).transfer */\n      swap1\n      dup4\n      and\n      swap1\n      0xa9059cbb\n      swap1\n        /* \"#utility.yul\":2752:2770   */\n      0x44\n      add\n        /* \"contracts/ZephyrosStaking/DripFundingContract.sol\":3148:3186  ICoreToken(token).transfer(owner, bal) */\n      0x20\n      mload(0x40)\n      dup1\n      dup4\n      sub\n      dup2\n      0x00\n      dup8\n      gas\n      call\n      iszero\n      dup1\n      iszero\n      tag_94\n      jumpi\n      returndatasize\n      0x00\n      dup1\n      returndatacopy\n      revert(0x00, returndatasize)\n    tag_94:\n      pop\n      pop\n      pop\n      pop\n      mload(0x40)\n      returndatasize\n      not(0x1f)\n      0x1f\n      dup3\n      add\n      and\n      dup3\n      add\n      dup1\n      0x40\n      mstore\n      pop\n      dup2\n      add\n      swap1\n      tag_95\n      swap2\n      swap1\n      tag_96\n      jump\t// in\n    tag_95:\n      pop\n        /* \"contracts/ZephyrosStaking/DripFundingContract.sol\":3202:3231  EmergencyWithdraw(token, bal) */\n      0x40\n      dup1\n      mload\n      sub(shl(0xa0, 0x01), 0x01)\n        /* \"#utility.yul\":2797:2829   */\n      dup5\n      and\n        /* \"#utility.yul\":2779:2830   */\n      dup2\n      mstore\n        /* \"#utility.yul\":2861:2863   */\n      0x20\n        /* \"#utility.yul\":2846:2864   */\n      dup2\n      add\n        /* \"#utility.yul\":2839:2873   */\n      dup4\n      swap1\n      mstore\n        /* \"contracts/ZephyrosStaking/DripFundingContract.sol\":3202:3231  EmergencyWithdraw(token, bal) */\n      0x5fafa99d0643513820be26656b45130b01e1c03062e1266bf36f88cbd3bd9695\n      swap2\n        /* \"#utility.yul\":2752:2770   */\n      add\n        /* \"contracts/ZephyrosStaking/DripFundingContract.sol\":3202:3231  EmergencyWithdraw(token, bal) */\n      mload(0x40)\n      dup1\n      swap2\n      sub\n      swap1\n      log1\n        /* \"contracts/ZephyrosStaking/DripFundingContract.sol\":3020:3239  {... */\n      pop\n        /* \"contracts/ZephyrosStaking/DripFundingContract.sol\":2959:3239  function emergencyWithdraw(address token) external onlyOwner {... */\n      pop\n      jump\t// out\n        /* \"contracts/ZephyrosStaking/DripFundingContract.sol\":2798:2924  function remainingDrips() external view returns (uint256) {... */\n    tag_40:\n        /* \"contracts/ZephyrosStaking/DripFundingContract.sol\":2847:2854  uint256 */\n      0x00\n        /* \"contracts/ZephyrosStaking/DripFundingContract.sol\":705:714  500 ether */\n      0x1b1ae4d6e2ef500000\n        /* \"contracts/ZephyrosStaking/DripFundingContract.sol\":2889:2901  totalDripped */\n      sload(0x04)\n        /* \"contracts/ZephyrosStaking/DripFundingContract.sol\":2875:2886  totalToDrip */\n      sload(0x05)\n        /* \"contracts/ZephyrosStaking/DripFundingContract.sol\":2875:2901  totalToDrip - totalDripped */\n      tag_99\n      swap2\n      swap1\n      tag_77\n      jump\t// in\n    tag_99:\n        /* \"contracts/ZephyrosStaking/DripFundingContract.sol\":2874:2916  (totalToDrip - totalDripped) / DRIP_AMOUNT */\n      tag_76\n      swap2\n      swap1\n      tag_101\n      jump\t// in\n        /* \"contracts/ZephyrosStaking/DripFundingContract.sol\":1768:2584  function drip() external {... */\n    tag_47:\n        /* \"contracts/ZephyrosStaking/DripFundingContract.sol\":777:783  7 days */\n      0x093a80\n        /* \"contracts/ZephyrosStaking/DripFundingContract.sol\":1827:1839  lastDripTime */\n      sload(0x03)\n        /* \"contracts/ZephyrosStaking/DripFundingContract.sol\":1827:1855  lastDripTime + DRIP_INTERVAL */\n      tag_103\n      swap2\n      swap1\n      tag_73\n      jump\t// in\n    tag_103:\n        /* \"contracts/ZephyrosStaking/DripFundingContract.sol\":1808:1823  block.timestamp */\n      timestamp\n        /* \"contracts/ZephyrosStaking/DripFundingContract.sol\":1808:1855  block.timestamp >= lastDripTime + DRIP_INTERVAL */\n      lt\n      iszero\n        /* \"contracts/ZephyrosStaking/DripFundingContract.sol\":1800:1868  require(block.timestamp >= lastDripTime + DRIP_INTERVAL, \"Too soon\") */\n      tag_104\n      jumpi\n      mload(0x40)\n      shl(0xe5, 0x461bcd)\n      dup2\n      mstore\n        /* \"#utility.yul\":3590:3592   */\n      0x20\n        /* \"contracts/ZephyrosStaking/DripFundingContract.sol\":1800:1868  require(block.timestamp >= lastDripTime + DRIP_INTERVAL, \"Too soon\") */\n      0x04\n      dup3\n      add\n        /* \"#utility.yul\":3572:3593   */\n      mstore\n        /* \"#utility.yul\":3629:3630   */\n      0x08\n        /* \"#utility.yul\":3609:3627   */\n      0x24\n      dup3\n      add\n        /* \"#utility.yul\":3602:3631   */\n      mstore\n      shl(0xc1, 0x2a37b79039b7b7b7)\n        /* \"#utility.yul\":3647:3665   */\n      0x44\n      dup3\n      add\n        /* \"#utility.yul\":3640:3678   */\n      mstore\n        /* \"#utility.yul\":3695:3713   */\n      0x64\n      add\n        /* \"contracts/ZephyrosStaking/DripFundingContract.sol\":1800:1868  require(block.timestamp >= lastDripTime + DRIP_INTERVAL, \"Too soon\") */\n      tag_80\n        /* \"#utility.yul\":3388:3719   */\n      jump\n        /* \"contracts/ZephyrosStaking/DripFundingContract.sol\":1800:1868  require(block.timestamp >= lastDripTime + DRIP_INTERVAL, \"Too soon\") */\n    tag_104:\n        /* \"contracts/ZephyrosStaking/DripFundingContract.sol\":1898:1909  totalToDrip */\n      sload(0x05)\n        /* \"contracts/ZephyrosStaking/DripFundingContract.sol\":1883:1895  totalDripped */\n      sload(0x04)\n        /* \"contracts/ZephyrosStaking/DripFundingContract.sol\":1883:1909  totalDripped < totalToDrip */\n      lt\n        /* \"contracts/ZephyrosStaking/DripFundingContract.sol\":1875:1925  require(totalDripped < totalToDrip, \"All dripped\") */\n      tag_107\n      jumpi\n      mload(0x40)\n      shl(0xe5, 0x461bcd)\n      dup2\n      mstore\n        /* \"#utility.yul\":3926:3928   */\n      0x20\n        /* \"contracts/ZephyrosStaking/DripFundingContract.sol\":1875:1925  require(totalDripped < totalToDrip, \"All dripped\") */\n      0x04\n      dup3\n      add\n        /* \"#utility.yul\":3908:3929   */\n      mstore\n        /* \"#utility.yul\":3965:3967   */\n      0x0b\n        /* \"#utility.yul\":3945:3963   */\n      0x24\n      dup3\n      add\n        /* \"#utility.yul\":3938:3968   */\n      mstore\n      shl(0xaa, 0x105b1b08191c9a5c1c1959)\n        /* \"#utility.yul\":3984:4002   */\n      0x44\n      dup3\n      add\n        /* \"#utility.yul\":3977:4018   */\n      mstore\n        /* \"#utility.yul\":4035:4053   */\n      0x64\n      add\n        /* \"contracts/ZephyrosStaking/DripFundingContract.sol\":1875:1925  require(totalDripped < totalToDrip, \"All dripped\") */\n      tag_80\n        /* \"#utility.yul\":3724:4059   */\n      jump\n        /* \"contracts/ZephyrosStaking/DripFundingContract.sol\":1875:1925  require(totalDripped < totalToDrip, \"All dripped\") */\n    tag_107:\n        /* \"contracts/ZephyrosStaking/DripFundingContract.sol\":1997:2008  totalToDrip */\n      sload(0x05)\n        /* \"contracts/ZephyrosStaking/DripFundingContract.sol\":1973:1985  totalDripped */\n      sload(0x04)\n        /* \"contracts/ZephyrosStaking/DripFundingContract.sol\":705:714  500 ether */\n      0x1b1ae4d6e2ef500000\n      swap2\n        /* \"contracts/ZephyrosStaking/DripFundingContract.sol\":1997:2008  totalToDrip */\n      swap1\n        /* \"contracts/ZephyrosStaking/DripFundingContract.sol\":1973:1994  totalDripped + amount */\n      tag_110\n      swap1\n        /* \"contracts/ZephyrosStaking/DripFundingContract.sol\":705:714  500 ether */\n      dup4\n      swap1\n        /* \"contracts/ZephyrosStaking/DripFundingContract.sol\":1973:1994  totalDripped + amount */\n      tag_73\n      jump\t// in\n    tag_110:\n        /* \"contracts/ZephyrosStaking/DripFundingContract.sol\":1973:2008  totalDripped + amount > totalToDrip */\n      gt\n        /* \"contracts/ZephyrosStaking/DripFundingContract.sol\":1969:2064  if (totalDripped + amount > totalToDrip) {... */\n      iszero\n      tag_111\n      jumpi\n        /* \"contracts/ZephyrosStaking/DripFundingContract.sol\":2044:2056  totalDripped */\n      sload(0x04)\n        /* \"contracts/ZephyrosStaking/DripFundingContract.sol\":2030:2041  totalToDrip */\n      sload(0x05)\n        /* \"contracts/ZephyrosStaking/DripFundingContract.sol\":2030:2056  totalToDrip - totalDripped */\n      tag_112\n      swap2\n      swap1\n      tag_77\n      jump\t// in\n    tag_112:\n        /* \"contracts/ZephyrosStaking/DripFundingContract.sol\":2021:2056  amount = totalToDrip - totalDripped */\n      swap1\n      pop\n        /* \"contracts/ZephyrosStaking/DripFundingContract.sol\":1969:2064  if (totalDripped + amount > totalToDrip) {... */\n    tag_111:\n        /* \"contracts/ZephyrosStaking/DripFundingContract.sol\":2072:2096  uint256 remainingSeconds */\n      0x00\n        /* \"contracts/ZephyrosStaking/DripFundingContract.sol\":2114:2129  block.timestamp */\n      timestamp\n        /* \"contracts/ZephyrosStaking/DripFundingContract.sol\":2099:2111  endTimestamp */\n      sload(0x06)\n        /* \"contracts/ZephyrosStaking/DripFundingContract.sol\":2099:2129  endTimestamp > block.timestamp */\n      gt\n        /* \"contracts/ZephyrosStaking/DripFundingContract.sol\":2099:2166  endTimestamp > block.timestamp ? endTimestamp - block.timestamp : 0 */\n      tag_113\n      jumpi\n        /* \"contracts/ZephyrosStaking/DripFundingContract.sol\":2165:2166  0 */\n      0x00\n        /* \"contracts/ZephyrosStaking/DripFundingContract.sol\":2099:2166  endTimestamp > block.timestamp ? endTimestamp - block.timestamp : 0 */\n      jump(tag_115)\n    tag_113:\n        /* \"contracts/ZephyrosStaking/DripFundingContract.sol\":2147:2162  block.timestamp */\n      timestamp\n        /* \"contracts/ZephyrosStaking/DripFundingContract.sol\":2132:2144  endTimestamp */\n      sload(0x06)\n        /* \"contracts/ZephyrosStaking/DripFundingContract.sol\":2132:2162  endTimestamp - block.timestamp */\n      tag_115\n      swap2\n      swap1\n      tag_77\n      jump\t// in\n    tag_115:\n        /* \"contracts/ZephyrosStaking/DripFundingContract.sol\":2072:2166  uint256 remainingSeconds = endTimestamp > block.timestamp ? endTimestamp - block.timestamp : 0 */\n      swap1\n      pop\n        /* \"contracts/ZephyrosStaking/DripFundingContract.sol\":2173:2195  uint256 durationBlocks */\n      0x00\n        /* \"contracts/ZephyrosStaking/DripFundingContract.sol\":2198:2218  remainingSeconds / 5 */\n      tag_116\n        /* \"contracts/ZephyrosStaking/DripFundingContract.sol\":2217:2218  5 */\n      0x05\n        /* \"contracts/ZephyrosStaking/DripFundingContract.sol\":2072:2166  uint256 remainingSeconds = endTimestamp > block.timestamp ? endTimestamp - block.timestamp : 0 */\n      dup4\n        /* \"contracts/ZephyrosStaking/DripFundingContract.sol\":2198:2218  remainingSeconds / 5 */\n      tag_101\n      jump\t// in\n    tag_116:\n        /* \"contracts/ZephyrosStaking/DripFundingContract.sol\":2318:2327  coreToken */\n      sload(0x01)\n        /* \"contracts/ZephyrosStaking/DripFundingContract.sol\":2344:2359  stakingContract */\n      sload(0x02)\n        /* \"contracts/ZephyrosStaking/DripFundingContract.sol\":2318:2369  coreToken.approve(address(stakingContract), amount) */\n      mload(0x40)\n      shl(0xe0, 0x095ea7b3)\n      dup2\n      mstore\n      sub(shl(0xa0, 0x01), 0x01)\n        /* \"contracts/ZephyrosStaking/DripFundingContract.sol\":2344:2359  stakingContract */\n      swap2\n      dup3\n      and\n        /* \"contracts/ZephyrosStaking/DripFundingContract.sol\":2318:2369  coreToken.approve(address(stakingContract), amount) */\n      0x04\n      dup3\n      add\n        /* \"#utility.yul\":2779:2830   */\n      mstore\n        /* \"#utility.yul\":2846:2864   */\n      0x24\n      dup2\n      add\n        /* \"#utility.yul\":2839:2873   */\n      dup8\n      swap1\n      mstore\n        /* \"contracts/ZephyrosStaking/DripFundingContract.sol\":2173:2218  uint256 durationBlocks = remainingSeconds / 5 */\n      swap3\n      swap4\n      pop\n        /* \"contracts/ZephyrosStaking/DripFundingContract.sol\":2318:2327  coreToken */\n      and\n      swap1\n        /* \"contracts/ZephyrosStaking/DripFundingContract.sol\":2318:2335  coreToken.approve */\n      0x095ea7b3\n      swap1\n        /* \"#utility.yul\":2752:2770   */\n      0x44\n      add\n        /* \"contracts/ZephyrosStaking/DripFundingContract.sol\":2318:2369  coreToken.approve(address(stakingContract), amount) */\n      0x20\n      mload(0x40)\n      dup1\n      dup4\n      sub\n      dup2\n      0x00\n      dup8\n      gas\n      call\n      iszero\n      dup1\n      iszero\n      tag_119\n      jumpi\n      returndatasize\n      0x00\n      dup1\n      returndatacopy\n      revert(0x00, returndatasize)\n    tag_119:\n      pop\n      pop\n      pop\n      pop\n      mload(0x40)\n      returndatasize\n      not(0x1f)\n      0x1f\n      dup3\n      add\n      and\n      dup3\n      add\n      dup1\n      0x40\n      mstore\n      pop\n      dup2\n      add\n      swap1\n      tag_120\n      swap2\n      swap1\n      tag_96\n      jump\t// in\n    tag_120:\n      pop\n        /* \"contracts/ZephyrosStaking/DripFundingContract.sol\":2376:2391  stakingContract */\n      sload(0x02)\n        /* \"contracts/ZephyrosStaking/DripFundingContract.sol\":2376:2427  stakingContract.fundRewards(amount, durationBlocks) */\n      mload(0x40)\n      shl(0xe0, 0x28662551)\n      dup2\n      mstore\n      0x04\n      dup2\n      add\n        /* \"#utility.yul\":4238:4263   */\n      dup6\n      swap1\n      mstore\n        /* \"#utility.yul\":4279:4297   */\n      0x24\n      dup2\n      add\n        /* \"#utility.yul\":4272:4306   */\n      dup4\n      swap1\n      mstore\n      sub(shl(0xa0, 0x01), 0x01)\n        /* \"contracts/ZephyrosStaking/DripFundingContract.sol\":2376:2391  stakingContract */\n      swap1\n      swap2\n      and\n      swap1\n        /* \"contracts/ZephyrosStaking/DripFundingContract.sol\":2376:2403  stakingContract.fundRewards */\n      0x28662551\n      swap1\n        /* \"#utility.yul\":4211:4229   */\n      0x44\n      add\n        /* \"contracts/ZephyrosStaking/DripFundingContract.sol\":2376:2427  stakingContract.fundRewards(amount, durationBlocks) */\n      0x00\n      mload(0x40)\n      dup1\n      dup4\n      sub\n      dup2\n      0x00\n      dup8\n      dup1\n      extcodesize\n      iszero\n      dup1\n      iszero\n      tag_123\n      jumpi\n      0x00\n      dup1\n      revert\n    tag_123:\n      pop\n      gas\n      call\n      iszero\n      dup1\n      iszero\n      tag_125\n      jumpi\n      returndatasize\n      0x00\n      dup1\n      returndatacopy\n      revert(0x00, returndatasize)\n    tag_125:\n      pop\n      pop\n      pop\n      pop\n        /* \"contracts/ZephyrosStaking/DripFundingContract.sol\":2451:2466  block.timestamp */\n      timestamp\n        /* \"contracts/ZephyrosStaking/DripFundingContract.sol\":2436:2448  lastDripTime */\n      0x03\n        /* \"contracts/ZephyrosStaking/DripFundingContract.sol\":2436:2466  lastDripTime = block.timestamp */\n      dup2\n      swap1\n      sstore\n      pop\n        /* \"contracts/ZephyrosStaking/DripFundingContract.sol\":2489:2495  amount */\n      dup3\n        /* \"contracts/ZephyrosStaking/DripFundingContract.sol\":2473:2485  totalDripped */\n      0x04\n      0x00\n        /* \"contracts/ZephyrosStaking/DripFundingContract.sol\":2473:2495  totalDripped += amount */\n      dup3\n      dup3\n      sload\n      tag_126\n      swap2\n      swap1\n      tag_73\n      jump\t// in\n    tag_126:\n      swap3\n      pop\n      pop\n      dup2\n      swap1\n      sstore\n      pop\n        /* \"contracts/ZephyrosStaking/DripFundingContract.sol\":2509:2580  Dripped(amount, totalToDrip - totalDripped, totalDripped / DRIP_AMOUNT) */\n      0x701abee35467fa015b02d6ce7407b79b5772054fa6f1dc5da0ad4e548751ce70\n        /* \"contracts/ZephyrosStaking/DripFundingContract.sol\":2517:2523  amount */\n      dup4\n        /* \"contracts/ZephyrosStaking/DripFundingContract.sol\":2539:2551  totalDripped */\n      sload(0x04)\n        /* \"contracts/ZephyrosStaking/DripFundingContract.sol\":2525:2536  totalToDrip */\n      sload(0x05)\n        /* \"contracts/ZephyrosStaking/DripFundingContract.sol\":2525:2551  totalToDrip - totalDripped */\n      tag_127\n      swap2\n      swap1\n      tag_77\n      jump\t// in\n    tag_127:\n        /* \"contracts/ZephyrosStaking/DripFundingContract.sol\":705:714  500 ether */\n      0x1b1ae4d6e2ef500000\n        /* \"contracts/ZephyrosStaking/DripFundingContract.sol\":2553:2565  totalDripped */\n      sload(0x04)\n        /* \"contracts/ZephyrosStaking/DripFundingContract.sol\":2553:2579  totalDripped / DRIP_AMOUNT */\n      tag_128\n      swap2\n      swap1\n      tag_101\n      jump\t// in\n    tag_128:\n        /* \"contracts/ZephyrosStaking/DripFundingContract.sol\":2509:2580  Dripped(amount, totalToDrip - totalDripped, totalDripped / DRIP_AMOUNT) */\n      0x40\n      dup1\n      mload\n        /* \"#utility.yul\":4519:4544   */\n      swap4\n      dup5\n      mstore\n        /* \"#utility.yul\":4575:4577   */\n      0x20\n        /* \"#utility.yul\":4560:4578   */\n      dup5\n      add\n        /* \"#utility.yul\":4553:4587   */\n      swap3\n      swap1\n      swap3\n      mstore\n        /* \"#utility.yul\":4603:4621   */\n      swap1\n      dup3\n      add\n        /* \"#utility.yul\":4596:4630   */\n      mstore\n        /* \"#utility.yul\":4507:4509   */\n      0x60\n        /* \"#utility.yul\":4492:4510   */\n      add\n        /* \"contracts/ZephyrosStaking/DripFundingContract.sol\":2509:2580  Dripped(amount, totalToDrip - totalDripped, totalDripped / DRIP_AMOUNT) */\n      mload(0x40)\n      dup1\n      swap2\n      sub\n      swap1\n      log1\n        /* \"contracts/ZephyrosStaking/DripFundingContract.sol\":1793:2584  {... */\n      pop\n      pop\n      pop\n        /* \"contracts/ZephyrosStaking/DripFundingContract.sol\":1768:2584  function drip() external {... */\n      jump\t// out\n        /* \"contracts/ZephyrosStaking/DripFundingContract.sol\":1608:1764  function deposit(uint256 amount) external onlyOwner {... */\n    tag_54:\n        /* \"contracts/ZephyrosStaking/DripFundingContract.sol\":1145:1150  owner */\n      and(sub(shl(0xa0, 0x01), 0x01), sload(0x00))\n        /* \"contracts/ZephyrosStaking/DripFundingContract.sol\":1131:1141  msg.sender */\n      caller\n        /* \"contracts/ZephyrosStaking/DripFundingContract.sol\":1131:1150  msg.sender == owner */\n      eq\n        /* \"contracts/ZephyrosStaking/DripFundingContract.sol\":1123:1164  require(msg.sender == owner, \"Not owner\") */\n      tag_132\n      jumpi\n      mload(0x40)\n      shl(0xe5, 0x461bcd)\n      dup2\n      mstore\n      0x04\n      add\n      tag_80\n      swap1\n      tag_81\n      jump\t// in\n    tag_132:\n        /* \"contracts/ZephyrosStaking/DripFundingContract.sol\":1679:1688  coreToken */\n      sload(0x01)\n        /* \"contracts/ZephyrosStaking/DripFundingContract.sol\":1679:1736  coreToken.transferFrom(msg.sender, address(this), amount) */\n      mload(0x40)\n      shl(0xe0, 0x23b872dd)\n      dup2\n      mstore\n        /* \"contracts/ZephyrosStaking/DripFundingContract.sol\":1702:1712  msg.sender */\n      caller\n        /* \"contracts/ZephyrosStaking/DripFundingContract.sol\":1679:1736  coreToken.transferFrom(msg.sender, address(this), amount) */\n      0x04\n      dup3\n      add\n        /* \"#utility.yul\":4881:4915   */\n      mstore\n        /* \"contracts/ZephyrosStaking/DripFundingContract.sol\":1722:1726  this */\n      address\n        /* \"#utility.yul\":4931:4949   */\n      0x24\n      dup3\n      add\n        /* \"#utility.yul\":4924:4967   */\n      mstore\n        /* \"#utility.yul\":4983:5001   */\n      0x44\n      dup2\n      add\n        /* \"#utility.yul\":4976:5010   */\n      dup4\n      swap1\n      mstore\n      sub(shl(0xa0, 0x01), 0x01)\n        /* \"contracts/ZephyrosStaking/DripFundingContract.sol\":1679:1688  coreToken */\n      swap1\n      swap2\n      and\n      swap1\n        /* \"contracts/ZephyrosStaking/DripFundingContract.sol\":1679:1701  coreToken.transferFrom */\n      0x23b872dd\n      swap1\n        /* \"#utility.yul\":4816:4834   */\n      0x64\n      add\n        /* \"contracts/ZephyrosStaking/DripFundingContract.sol\":1679:1736  coreToken.transferFrom(msg.sender, address(this), amount) */\n      0x20\n      mload(0x40)\n      dup1\n      dup4\n      sub\n      dup2\n      0x00\n      dup8\n      gas\n      call\n      iszero\n      dup1\n      iszero\n      tag_138\n      jumpi\n      returndatasize\n      0x00\n      dup1\n      returndatacopy\n      revert(0x00, returndatasize)\n    tag_138:\n      pop\n      pop\n      pop\n      pop\n      mload(0x40)\n      returndatasize\n      not(0x1f)\n      0x1f\n      dup3\n      add\n      and\n      dup3\n      add\n      dup1\n      0x40\n      mstore\n      pop\n      dup2\n      add\n      swap1\n      tag_139\n      swap2\n      swap1\n      tag_96\n      jump\t// in\n    tag_139:\n        /* \"contracts/ZephyrosStaking/DripFundingContract.sol\":1671:1756  require(coreToken.transferFrom(msg.sender, address(this), amount), \"Transfer failed\") */\n      tag_140\n      jumpi\n      mload(0x40)\n      shl(0xe5, 0x461bcd)\n      dup2\n      mstore\n        /* \"#utility.yul\":5223:5225   */\n      0x20\n        /* \"contracts/ZephyrosStaking/DripFundingContract.sol\":1671:1756  require(coreToken.transferFrom(msg.sender, address(this), amount), \"Transfer failed\") */\n      0x04\n      dup3\n      add\n        /* \"#utility.yul\":5205:5226   */\n      mstore\n        /* \"#utility.yul\":5262:5264   */\n      0x0f\n        /* \"#utility.yul\":5242:5260   */\n      0x24\n      dup3\n      add\n        /* \"#utility.yul\":5235:5265   */\n      mstore\n      shl(0x8a, 0x151c985b9cd9995c8819985a5b1959)\n        /* \"#utility.yul\":5281:5299   */\n      0x44\n      dup3\n      add\n        /* \"#utility.yul\":5274:5319   */\n      mstore\n        /* \"#utility.yul\":5336:5354   */\n      0x64\n      add\n        /* \"contracts/ZephyrosStaking/DripFundingContract.sol\":1671:1756  require(coreToken.transferFrom(msg.sender, address(this), amount), \"Transfer failed\") */\n      tag_80\n        /* \"#utility.yul\":5021:5360   */\n      jump\n        /* \"contracts/ZephyrosStaking/DripFundingContract.sol\":1671:1756  require(coreToken.transferFrom(msg.sender, address(this), amount), \"Transfer failed\") */\n    tag_140:\n        /* \"contracts/ZephyrosStaking/DripFundingContract.sol\":1608:1764  function deposit(uint256 amount) external onlyOwner {... */\n      pop\n      jump\t// out\n        /* \"contracts/ZephyrosStaking/DripFundingContract.sol\":3247:3404  function transferOwnership(address newOwner) external onlyOwner {... */\n    tag_67:\n        /* \"contracts/ZephyrosStaking/DripFundingContract.sol\":1145:1150  owner */\n      and(sub(shl(0xa0, 0x01), 0x01), sload(0x00))\n        /* \"contracts/ZephyrosStaking/DripFundingContract.sol\":1131:1141  msg.sender */\n      caller\n        /* \"contracts/ZephyrosStaking/DripFundingContract.sol\":1131:1150  msg.sender == owner */\n      eq\n        /* \"contracts/ZephyrosStaking/DripFundingContract.sol\":1123:1164  require(msg.sender == owner, \"Not owner\") */\n      tag_144\n      jumpi\n      mload(0x40)\n      shl(0xe5, 0x461bcd)\n      dup2\n      mstore\n      0x04\n      add\n      tag_80\n      swap1\n      tag_81\n      jump\t// in\n    tag_144:\n      sub(shl(0xa0, 0x01), 0x01)\n        /* \"contracts/ZephyrosStaking/DripFundingContract.sol\":3330:3352  newOwner != address(0) */\n      dup2\n      and\n        /* \"contracts/ZephyrosStaking/DripFundingContract.sol\":3322:3369  require(newOwner != address(0), \"Zero address\") */\n      tag_147\n      jumpi\n      mload(0x40)\n      shl(0xe5, 0x461bcd)\n      dup2\n      mstore\n        /* \"#utility.yul\":5567:5569   */\n      0x20\n        /* \"contracts/ZephyrosStaking/DripFundingContract.sol\":3322:3369  require(newOwner != address(0), \"Zero address\") */\n      0x04\n      dup3\n      add\n        /* \"#utility.yul\":5549:5570   */\n      mstore\n        /* \"#utility.yul\":5606:5608   */\n      0x0c\n        /* \"#utility.yul\":5586:5604   */\n      0x24\n      dup3\n      add\n        /* \"#utility.yul\":5579:5609   */\n      mstore\n      shl(0xa0, 0x5a65726f2061646472657373)\n        /* \"#utility.yul\":5625:5643   */\n      0x44\n      dup3\n      add\n        /* \"#utility.yul\":5618:5660   */\n      mstore\n        /* \"#utility.yul\":5677:5695   */\n      0x64\n      add\n        /* \"contracts/ZephyrosStaking/DripFundingContract.sol\":3322:3369  require(newOwner != address(0), \"Zero address\") */\n      tag_80\n        /* \"#utility.yul\":5365:5701   */\n      jump\n        /* \"contracts/ZephyrosStaking/DripFundingContract.sol\":3322:3369  require(newOwner != address(0), \"Zero address\") */\n    tag_147:\n        /* \"contracts/ZephyrosStaking/DripFundingContract.sol\":3380:3385  owner */\n      0x00\n        /* \"contracts/ZephyrosStaking/DripFundingContract.sol\":3380:3396  owner = newOwner */\n      dup1\n      sload\n      not(sub(shl(0xa0, 0x01), 0x01))\n      and\n      sub(shl(0xa0, 0x01), 0x01)\n      swap3\n      swap1\n      swap3\n      and\n      swap2\n      swap1\n      swap2\n      or\n      swap1\n      sstore\n        /* \"contracts/ZephyrosStaking/DripFundingContract.sol\":3247:3404  function transferOwnership(address newOwner) external onlyOwner {... */\n      jump\t// out\n        /* \"#utility.yul\":421:707   */\n    tag_34:\n        /* \"#utility.yul\":480:486   */\n      0x00\n        /* \"#utility.yul\":533:535   */\n      0x20\n        /* \"#utility.yul\":521:530   */\n      dup3\n        /* \"#utility.yul\":512:519   */\n      dup5\n        /* \"#utility.yul\":508:531   */\n      sub\n        /* \"#utility.yul\":504:536   */\n      slt\n        /* \"#utility.yul\":501:553   */\n      iszero\n      tag_155\n      jumpi\n        /* \"#utility.yul\":549:550   */\n      0x00\n        /* \"#utility.yul\":546:547   */\n      dup1\n        /* \"#utility.yul\":539:551   */\n      revert\n        /* \"#utility.yul\":501:553   */\n    tag_155:\n        /* \"#utility.yul\":575:598   */\n      dup2\n      calldataload\n      sub(shl(0xa0, 0x01), 0x01)\n        /* \"#utility.yul\":627:658   */\n      dup2\n      and\n        /* \"#utility.yul\":617:659   */\n      dup2\n      eq\n        /* \"#utility.yul\":607:677   */\n      tag_156\n      jumpi\n        /* \"#utility.yul\":673:674   */\n      0x00\n        /* \"#utility.yul\":670:671   */\n      dup1\n        /* \"#utility.yul\":663:675   */\n      revert\n        /* \"#utility.yul\":607:677   */\n    tag_156:\n        /* \"#utility.yul\":696:701   */\n      swap4\n        /* \"#utility.yul\":421:707   */\n      swap3\n      pop\n      pop\n      pop\n      jump\t// out\n        /* \"#utility.yul\":920:1100   */\n    tag_53:\n        /* \"#utility.yul\":979:985   */\n      0x00\n        /* \"#utility.yul\":1032:1034   */\n      0x20\n        /* \"#utility.yul\":1020:1029   */\n      dup3\n        /* \"#utility.yul\":1011:1018   */\n      dup5\n        /* \"#utility.yul\":1007:1030   */\n      sub\n        /* \"#utility.yul\":1003:1035   */\n      slt\n        /* \"#utility.yul\":1000:1052   */\n      iszero\n      tag_159\n      jumpi\n        /* \"#utility.yul\":1048:1049   */\n      0x00\n        /* \"#utility.yul\":1045:1046   */\n      dup1\n        /* \"#utility.yul\":1038:1050   */\n      revert\n        /* \"#utility.yul\":1000:1052   */\n    tag_159:\n      pop\n        /* \"#utility.yul\":1071:1094   */\n      calldataload\n      swap2\n        /* \"#utility.yul\":920:1100   */\n      swap1\n      pop\n      jump\t// out\n        /* \"#utility.yul\":1336:1463   */\n    tag_150:\n        /* \"#utility.yul\":1397:1407   */\n      0x4e487b71\n        /* \"#utility.yul\":1392:1395   */\n      0xe0\n        /* \"#utility.yul\":1388:1408   */\n      shl\n        /* \"#utility.yul\":1385:1386   */\n      0x00\n        /* \"#utility.yul\":1378:1409   */\n      mstore\n        /* \"#utility.yul\":1428:1432   */\n      0x11\n        /* \"#utility.yul\":1425:1426   */\n      0x04\n        /* \"#utility.yul\":1418:1433   */\n      mstore\n        /* \"#utility.yul\":1452:1456   */\n      0x24\n        /* \"#utility.yul\":1449:1450   */\n      0x00\n        /* \"#utility.yul\":1442:1457   */\n      revert\n        /* \"#utility.yul\":1468:1593   */\n    tag_73:\n        /* \"#utility.yul\":1533:1542   */\n      dup1\n      dup3\n      add\n        /* \"#utility.yul\":1554:1564   */\n      dup1\n      dup3\n      gt\n        /* \"#utility.yul\":1551:1587   */\n      iszero\n      tag_164\n      jumpi\n        /* \"#utility.yul\":1567:1585   */\n      tag_164\n      tag_150\n      jump\t// in\n    tag_164:\n        /* \"#utility.yul\":1468:1593   */\n      swap3\n      swap2\n      pop\n      pop\n      jump\t// out\n        /* \"#utility.yul\":1598:1726   */\n    tag_77:\n        /* \"#utility.yul\":1665:1674   */\n      dup2\n      dup2\n      sub\n        /* \"#utility.yul\":1686:1697   */\n      dup2\n      dup2\n      gt\n        /* \"#utility.yul\":1683:1720   */\n      iszero\n      tag_164\n      jumpi\n        /* \"#utility.yul\":1700:1718   */\n      tag_164\n      tag_150\n      jump\t// in\n        /* \"#utility.yul\":1731:2063   */\n    tag_81:\n        /* \"#utility.yul\":1933:1935   */\n      0x20\n        /* \"#utility.yul\":1915:1936   */\n      dup1\n      dup3\n      mstore\n        /* \"#utility.yul\":1972:1973   */\n      0x09\n        /* \"#utility.yul\":1952:1970   */\n      swap1\n      dup3\n      add\n        /* \"#utility.yul\":1945:1974   */\n      mstore\n      shl(0xb9, 0x2737ba1037bbb732b9)\n        /* \"#utility.yul\":2005:2007   */\n      0x40\n        /* \"#utility.yul\":1990:2008   */\n      dup3\n      add\n        /* \"#utility.yul\":1983:2022   */\n      mstore\n        /* \"#utility.yul\":2054:2056   */\n      0x60\n        /* \"#utility.yul\":2039:2057   */\n      add\n      swap1\n        /* \"#utility.yul\":1731:2063   */\n      jump\t// out\n        /* \"#utility.yul\":2068:2252   */\n    tag_87:\n        /* \"#utility.yul\":2138:2144   */\n      0x00\n        /* \"#utility.yul\":2191:2193   */\n      0x20\n        /* \"#utility.yul\":2179:2188   */\n      dup3\n        /* \"#utility.yul\":2170:2177   */\n      dup5\n        /* \"#utility.yul\":2166:2189   */\n      sub\n        /* \"#utility.yul\":2162:2194   */\n      slt\n        /* \"#utility.yul\":2159:2211   */\n      iszero\n      tag_170\n      jumpi\n        /* \"#utility.yul\":2207:2208   */\n      0x00\n        /* \"#utility.yul\":2204:2205   */\n      dup1\n        /* \"#utility.yul\":2197:2209   */\n      revert\n        /* \"#utility.yul\":2159:2211   */\n    tag_170:\n      pop\n        /* \"#utility.yul\":2230:2246   */\n      mload\n      swap2\n        /* \"#utility.yul\":2068:2252   */\n      swap1\n      pop\n      jump\t// out\n        /* \"#utility.yul\":2884:3161   */\n    tag_96:\n        /* \"#utility.yul\":2951:2957   */\n      0x00\n        /* \"#utility.yul\":3004:3006   */\n      0x20\n        /* \"#utility.yul\":2992:3001   */\n      dup3\n        /* \"#utility.yul\":2983:2990   */\n      dup5\n        /* \"#utility.yul\":2979:3002   */\n      sub\n        /* \"#utility.yul\":2975:3007   */\n      slt\n        /* \"#utility.yul\":2972:3024   */\n      iszero\n      tag_174\n      jumpi\n        /* \"#utility.yul\":3020:3021   */\n      0x00\n        /* \"#utility.yul\":3017:3018   */\n      dup1\n        /* \"#utility.yul\":3010:3022   */\n      revert\n        /* \"#utility.yul\":2972:3024   */\n    tag_174:\n        /* \"#utility.yul\":3052:3061   */\n      dup2\n        /* \"#utility.yul\":3046:3062   */\n      mload\n        /* \"#utility.yul\":3105:3110   */\n      dup1\n        /* \"#utility.yul\":3098:3111   */\n      iszero\n        /* \"#utility.yul\":3091:3112   */\n      iszero\n        /* \"#utility.yul\":3084:3089   */\n      dup2\n        /* \"#utility.yul\":3081:3113   */\n      eq\n        /* \"#utility.yul\":3071:3131   */\n      tag_156\n      jumpi\n        /* \"#utility.yul\":3127:3128   */\n      0x00\n        /* \"#utility.yul\":3124:3125   */\n      dup1\n        /* \"#utility.yul\":3117:3129   */\n      revert\n        /* \"#utility.yul\":3166:3383   */\n    tag_101:\n        /* \"#utility.yul\":3206:3207   */\n      0x00\n        /* \"#utility.yul\":3232:3233   */\n      dup3\n        /* \"#utility.yul\":3222:3354   */\n      tag_177\n      jumpi\n        /* \"#utility.yul\":3276:3286   */\n      0x4e487b71\n        /* \"#utility.yul\":3271:3274   */\n      0xe0\n        /* \"#utility.yul\":3267:3287   */\n      shl\n        /* \"#utility.yul\":3264:3265   */\n      0x00\n        /* \"#utility.yul\":3257:3288   */\n      mstore\n        /* \"#utility.yul\":3311:3315   */\n      0x12\n        /* \"#utility.yul\":3308:3309   */\n      0x04\n        /* \"#utility.yul\":3301:3316   */\n      mstore\n        /* \"#utility.yul\":3339:3343   */\n      0x24\n        /* \"#utility.yul\":3336:3337   */\n      0x00\n        /* \"#utility.yul\":3329:3344   */\n      revert\n        /* \"#utility.yul\":3222:3354   */\n    tag_177:\n      pop\n        /* \"#utility.yul\":3368:3377   */\n      div\n      swap1\n        /* \"#utility.yul\":3166:3383   */\n      jump\t// out\n\n    auxdata: 0xa264697066735822122070a9b97d79d6f6bfe0010104b9ae0942661d15744cda51922c8a5b25e869dc3764736f6c63430008140033\n}\n",
				"bytecode": {
					"linkReferences": {},
					"object": "608060405234801561001057600080fd5b506040516109f93803806109f983398101604081905261002f91610098565b600080546001600160a01b03199081163317909155600180546001600160a01b039687169083161790556002805494909516931692909217909255600591909155600655426003556100db565b80516001600160a01b038116811461009357600080fd5b919050565b600080600080608085870312156100ae57600080fd5b6100b78561007c565b93506100c56020860161007c565b6040860151606090960151949790965092505050565b61090f806100ea6000396000f3fe608060405234801561001057600080fd5b50600436106100f55760003560e01c80639f678cca11610097578063e98890a711610066578063e98890a7146101b0578063ee99205c146101c0578063f2fde38b146101d3578063fba1f7b0146101e657600080fd5b80639f678cca14610183578063a85adeab1461018b578063b6b55f2514610194578063c7274f3a146101a757600080fd5b80636ff1c9bc116100d35780636ff1c9bc1461014a578063794970691461015f5780638820f554146101685780638da5cb5b1461017057600080fd5b80630c2b72e9146100fa578063590812131461012a5780635d8bc6b714610140575b600080fd5b60015461010d906001600160a01b031681565b6040516001600160a01b0390911681526020015b60405180910390f35b6101326101ef565b604051908152602001610121565b61013262093a8081565b61015d6101583660046107ce565b61022f565b005b61013260055481565b6101326103d3565b60005461010d906001600160a01b031681565b61015d6103f9565b61013260065481565b61015d6101a23660046107fe565b610657565b61013260045481565b610132681b1ae4d6e2ef50000081565b60025461010d906001600160a01b031681565b61015d6101e13660046107ce565b61073d565b61013260035481565b600062093a80600354610202919061082d565b421061020e5750600090565b4262093a80600354610220919061082d565b61022a9190610846565b905090565b6000546001600160a01b031633146102625760405162461bcd60e51b815260040161025990610859565b60405180910390fd5b6040516370a0823160e01b81523060048201526000906001600160a01b038316906370a0823190602401602060405180830381865afa1580156102a9573d6000803e3d6000fd5b505050506040513d601f19601f820116820180604052508101906102cd919061087c565b9050600081116103155760405162461bcd60e51b81526020600482015260136024820152724e6f7468696e6720746f20776974686472617760681b6044820152606401610259565b60005460405163a9059cbb60e01b81526001600160a01b039182166004820152602481018390529083169063a9059cbb906044016020604051808303816000875af1158015610368573d6000803e3d6000fd5b505050506040513d601f19601f8201168201806040525081019061038c9190610895565b50604080516001600160a01b0384168152602081018390527f5fafa99d0643513820be26656b45130b01e1c03062e1266bf36f88cbd3bd9695910160405180910390a15050565b6000681b1ae4d6e2ef5000006004546005546103ef9190610846565b61022a91906108b7565b62093a8060035461040a919061082d565b4210156104445760405162461bcd60e51b81526020600482015260086024820152672a37b79039b7b7b760c11b6044820152606401610259565b600554600454106104855760405162461bcd60e51b815260206004820152600b60248201526a105b1b08191c9a5c1c195960aa1b6044820152606401610259565b600554600454681b1ae4d6e2ef50000091906104a290839061082d565b11156104bb576004546005546104b89190610846565b90505b600042600654116104cd5760006104db565b426006546104db9190610846565b905060006104ea6005836108b7565b60015460025460405163095ea7b360e01b81526001600160a01b03918216600482015260248101879052929350169063095ea7b3906044016020604051808303816000875af1158015610541573d6000803e3d6000fd5b505050506040513d601f19601f820116820180604052508101906105659190610895565b50600254604051632866255160e01b815260048101859052602481018390526001600160a01b0390911690632866255190604401600060405180830381600087803b1580156105b357600080fd5b505af11580156105c7573d6000803e3d6000fd5b505050504260038190555082600460008282546105e4919061082d565b925050819055507f701abee35467fa015b02d6ce7407b79b5772054fa6f1dc5da0ad4e548751ce708360045460055461061d9190610846565b681b1ae4d6e2ef50000060045461063491906108b7565b6040805193845260208401929092529082015260600160405180910390a1505050565b6000546001600160a01b031633146106815760405162461bcd60e51b815260040161025990610859565b6001546040516323b872dd60e01b8152336004820152306024820152604481018390526001600160a01b03909116906323b872dd906064016020604051808303816000875af11580156106d8573d6000803e3d6000fd5b505050506040513d601f19601f820116820180604052508101906106fc9190610895565b61073a5760405162461bcd60e51b815260206004820152600f60248201526e151c985b9cd9995c8819985a5b1959608a1b6044820152606401610259565b50565b6000546001600160a01b031633146107675760405162461bcd60e51b815260040161025990610859565b6001600160a01b0381166107ac5760405162461bcd60e51b815260206004820152600c60248201526b5a65726f206164647265737360a01b6044820152606401610259565b600080546001600160a01b0319166001600160a01b0392909216919091179055565b6000602082840312156107e057600080fd5b81356001600160a01b03811681146107f757600080fd5b9392505050565b60006020828403121561081057600080fd5b5035919050565b634e487b7160e01b600052601160045260246000fd5b8082018082111561084057610840610817565b92915050565b8181038181111561084057610840610817565b6020808252600990820152682737ba1037bbb732b960b91b604082015260600190565b60006020828403121561088e57600080fd5b5051919050565b6000602082840312156108a757600080fd5b815180151581146107f757600080fd5b6000826108d457634e487b7160e01b600052601260045260246000fd5b50049056fea264697066735822122070a9b97d79d6f6bfe0010104b9ae0942661d15744cda51922c8a5b25e869dc3764736f6c63430008140033",
					"opcodes": "PUSH1 0x80 PUSH1 0x40 MSTORE CALLVALUE DUP1 ISZERO PUSH2 0x10 JUMPI PUSH1 0x0 DUP1 REVERT JUMPDEST POP PUSH1 0x40 MLOAD PUSH2 0x9F9 CODESIZE SUB DUP1 PUSH2 0x9F9 DUP4 CODECOPY DUP2 ADD PUSH1 0x40 DUP2 SWAP1 MSTORE PUSH2 0x2F SWAP2 PUSH2 0x98 JUMP JUMPDEST PUSH1 0x0 DUP1 SLOAD PUSH1 0x1 PUSH1 0x1 PUSH1 0xA0 SHL SUB NOT SWAP1 DUP2 AND CALLER OR SWAP1 SWAP2 SSTORE PUSH1 0x1 DUP1 SLOAD PUSH1 0x1 PUSH1 0x1 PUSH1 0xA0 SHL SUB SWAP7 DUP8 AND SWAP1 DUP4 AND OR SWAP1 SSTORE PUSH1 0x2 DUP1 SLOAD SWAP5 SWAP1 SWAP6 AND SWAP4 AND SWAP3 SWAP1 SWAP3 OR SWAP1 SWAP3 SSTORE PUSH1 0x5 SWAP2 SWAP1 SWAP2 SSTORE PUSH1 0x6 SSTORE TIMESTAMP PUSH1 0x3 SSTORE PUSH2 0xDB JUMP JUMPDEST DUP1 MLOAD PUSH1 0x1 PUSH1 0x1 PUSH1 0xA0 SHL SUB DUP2 AND DUP2 EQ PUSH2 0x93 JUMPI PUSH1 0x0 DUP1 REVERT JUMPDEST SWAP2 SWAP1 POP JUMP JUMPDEST PUSH1 0x0 DUP1 PUSH1 0x0 DUP1 PUSH1 0x80 DUP6 DUP8 SUB SLT ISZERO PUSH2 0xAE JUMPI PUSH1 0x0 DUP1 REVERT JUMPDEST PUSH2 0xB7 DUP6 PUSH2 0x7C JUMP JUMPDEST SWAP4 POP PUSH2 0xC5 PUSH1 0x20 DUP7 ADD PUSH2 0x7C JUMP JUMPDEST PUSH1 0x40 DUP7 ADD MLOAD PUSH1 0x60 SWAP1 SWAP7 ADD MLOAD SWAP5 SWAP8 SWAP1 SWAP7 POP SWAP3 POP POP POP JUMP JUMPDEST PUSH2 0x90F DUP1 PUSH2 0xEA PUSH1 0x0 CODECOPY PUSH1 0x0 RETURN INVALID PUSH1 0x80 PUSH1 0x40 MSTORE CALLVALUE DUP1 ISZERO PUSH2 0x10 JUMPI PUSH1 0x0 DUP1 REVERT JUMPDEST POP PUSH1 0x4 CALLDATASIZE LT PUSH2 0xF5 JUMPI PUSH1 0x0 CALLDATALOAD PUSH1 0xE0 SHR DUP1 PUSH4 0x9F678CCA GT PUSH2 0x97 JUMPI DUP1 PUSH4 0xE98890A7 GT PUSH2 0x66 JUMPI DUP1 PUSH4 0xE98890A7 EQ PUSH2 0x1B0 JUMPI DUP1 PUSH4 0xEE99205C EQ PUSH2 0x1C0 JUMPI DUP1 PUSH4 0xF2FDE38B EQ PUSH2 0x1D3 JUMPI DUP1 PUSH4 0xFBA1F7B0 EQ PUSH2 0x1E6 JUMPI PUSH1 0x0 DUP1 REVERT JUMPDEST DUP1 PUSH4 0x9F678CCA EQ PUSH2 0x183 JUMPI DUP1 PUSH4 0xA85ADEAB EQ PUSH2 0x18B JUMPI DUP1 PUSH4 0xB6B55F25 EQ PUSH2 0x194 JUMPI DUP1 PUSH4 0xC7274F3A EQ PUSH2 0x1A7 JUMPI PUSH1 0x0 DUP1 REVERT JUMPDEST DUP1 PUSH4 0x6FF1C9BC GT PUSH2 0xD3 JUMPI DUP1 PUSH4 0x6FF1C9BC EQ PUSH2 0x14A JUMPI DUP1 PUSH4 0x79497069 EQ PUSH2 0x15F JUMPI DUP1 PUSH4 0x8820F554 EQ PUSH2 0x168 JUMPI DUP1 PUSH4 0x8DA5CB5B EQ PUSH2 0x170 JUMPI PUSH1 0x0 DUP1 REVERT JUMPDEST DUP1 PUSH4 0xC2B72E9 EQ PUSH2 0xFA JUMPI DUP1 PUSH4 0x59081213 EQ PUSH2 0x12A JUMPI DUP1 PUSH4 0x5D8BC6B7 EQ PUSH2 0x140 JUMPI JUMPDEST PUSH1 0x0 DUP1 REVERT JUMPDEST PUSH1 0x1 SLOAD PUSH2 0x10D SWAP1 PUSH1 0x1 PUSH1 0x1 PUSH1 0xA0 SHL SUB AND DUP2 JUMP JUMPDEST PUSH1 0x40 MLOAD PUSH1 0x1 PUSH1 0x1 PUSH1 0xA0 SHL SUB SWAP1 SWAP2 AND DUP2 MSTORE PUSH1 0x20 ADD JUMPDEST PUSH1 0x40 MLOAD DUP1 SWAP2 SUB SWAP1 RETURN JUMPDEST PUSH2 0x132 PUSH2 0x1EF JUMP JUMPDEST PUSH1 0x40 MLOAD SWAP1 DUP2 MSTORE PUSH1 0x20 ADD PUSH2 0x121 JUMP JUMPDEST PUSH2 0x132 PUSH3 0x93A80 DUP2 JUMP JUMPDEST PUSH2 0x15D PUSH2 0x158 CALLDATASIZE PUSH1 0x4 PUSH2 0x7CE JUMP JUMPDEST PUSH2 0x22F JUMP JUMPDEST STOP JUMPDEST PUSH2 0x132 PUSH1 0x5 SLOAD DUP2 JUMP JUMPDEST PUSH2 0x132 PUSH2 0x3D3 JUMP JUMPDEST PUSH1 0x0 SLOAD PUSH2 0x10D SWAP1 PUSH1 0x1 PUSH1 0x1 PUSH1 0xA0 SHL SUB AND DUP2 JUMP JUMPDEST PUSH2 0x15D PUSH2 0x3F9 JUMP JUMPDEST PUSH2 0x132 PUSH1 0x6 SLOAD DUP2 JUMP JUMPDEST PUSH2 0x15D PUSH2 0x1A2 CALLDATASIZE PUSH1 0x4 PUSH2 0x7FE JUMP JUMPDEST PUSH2 0x657 JUMP JUMPDEST PUSH2 0x132 PUSH1 0x4 SLOAD DUP2 JUMP JUMPDEST PUSH2 0x132 PUSH9 0x1B1AE4D6E2EF500000 DUP2 JUMP JUMPDEST PUSH1 0x2 SLOAD PUSH2 0x10D SWAP1 PUSH1 0x1 PUSH1 0x1 PUSH1 0xA0 SHL SUB AND DUP2 JUMP JUMPDEST PUSH2 0x15D PUSH2 0x1E1 CALLDATASIZE PUSH1 0x4 PUSH2 0x7CE JUMP JUMPDEST PUSH2 0x73D JUMP JUMPDEST PUSH2 0x132 PUSH1 0x3 SLOAD DUP2 JUMP JUMPDEST PUSH1 0x0 PUSH3 0x93A80 PUSH1 0x3 SLOAD PUSH2 0x202 SWAP2 SWAP1 PUSH2 0x82D JUMP JUMPDEST TIMESTAMP LT PUSH2 0x20E JUMPI POP PUSH1 0x0 SWAP1 JUMP JUMPDEST TIMESTAMP PUSH3 0x93A80 PUSH1 0x3 SLOAD PUSH2 0x220 SWAP2 SWAP1 PUSH2 0x82D JUMP JUMPDEST PUSH2 0x22A SWAP2 SWAP1 PUSH2 0x846 JUMP JUMPDEST SWAP1 POP SWAP1 JUMP JUMPDEST PUSH1 0x0 SLOAD PUSH1 0x1 PUSH1 0x1 PUSH1 0xA0 SHL SUB AND CALLER EQ PUSH2 0x262 JUMPI PUSH1 0x40 MLOAD PUSH3 0x461BCD PUSH1 0xE5 SHL DUP2 MSTORE PUSH1 0x4 ADD PUSH2 0x259 SWAP1 PUSH2 0x859 JUMP JUMPDEST PUSH1 0x40 MLOAD DUP1 SWAP2 SUB SWAP1 REVERT JUMPDEST PUSH1 0x40 MLOAD PUSH4 0x70A08231 PUSH1 0xE0 SHL DUP2 MSTORE ADDRESS PUSH1 0x4 DUP3 ADD MSTORE PUSH1 0x0 SWAP1 PUSH1 0x1 PUSH1 0x1 PUSH1 0xA0 SHL SUB DUP4 AND SWAP1 PUSH4 0x70A08231 SWAP1 PUSH1 0x24 ADD PUSH1 0x20 PUSH1 0x40 MLOAD DUP1 DUP4 SUB DUP2 DUP7 GAS STATICCALL ISZERO DUP1 ISZERO PUSH2 0x2A9 JUMPI RETURNDATASIZE PUSH1 0x0 DUP1 RETURNDATACOPY RETURNDATASIZE PUSH1 0x0 REVERT JUMPDEST POP POP POP POP PUSH1 0x40 MLOAD RETURNDATASIZE PUSH1 0x1F NOT PUSH1 0x1F DUP3 ADD AND DUP3 ADD DUP1 PUSH1 0x40 MSTORE POP DUP2 ADD SWAP1 PUSH2 0x2CD SWAP2 SWAP1 PUSH2 0x87C JUMP JUMPDEST SWAP1 POP PUSH1 0x0 DUP2 GT PUSH2 0x315 JUMPI PUSH1 0x40 MLOAD PUSH3 0x461BCD PUSH1 0xE5 SHL DUP2 MSTORE PUSH1 0x20 PUSH1 0x4 DUP3 ADD MSTORE PUSH1 0x13 PUSH1 0x24 DUP3 ADD MSTORE PUSH19 0x4E6F7468696E6720746F207769746864726177 PUSH1 0x68 SHL PUSH1 0x44 DUP3 ADD MSTORE PUSH1 0x64 ADD PUSH2 0x259 JUMP JUMPDEST PUSH1 0x0 SLOAD PUSH1 0x40 MLOAD PUSH4 0xA9059CBB PUSH1 0xE0 SHL DUP2 MSTORE PUSH1 0x1 PUSH1 0x1 PUSH1 0xA0 SHL SUB SWAP2 DUP3 AND PUSH1 0x4 DUP3 ADD MSTORE PUSH1 0x24 DUP2 ADD DUP4 SWAP1 MSTORE SWAP1 DUP4 AND SWAP1 PUSH4 0xA9059CBB SWAP1 PUSH1 0x44 ADD PUSH1 0x20 PUSH1 0x40 MLOAD DUP1 DUP4 SUB DUP2 PUSH1 0x0 DUP8 GAS CALL ISZERO DUP1 ISZERO PUSH2 0x368 JUMPI RETURNDATASIZE PUSH1 0x0 DUP1 RETURNDATACOPY RETURNDATASIZE PUSH1 0x0 REVERT JUMPDEST POP POP POP POP PUSH1 0x40 MLOAD RETURNDATASIZE PUSH1 0x1F NOT PUSH1 0x1F DUP3 ADD AND DUP3 ADD DUP1 PUSH1 0x40 MSTORE POP DUP2 ADD SWAP1 PUSH2 0x38C SWAP2 SWAP1 PUSH2 0x895 JUMP JUMPDEST POP PUSH1 0x40 DUP1 MLOAD PUSH1 0x1 PUSH1 0x1 PUSH1 0xA0 SHL SUB DUP5 AND DUP2 MSTORE PUSH1 0x20 DUP2 ADD DUP4 SWAP1 MSTORE PUSH32 0x5FAFA99D0643513820BE26656B45130B01E1C03062E1266BF36F88CBD3BD9695 SWAP2 ADD PUSH1 0x40 MLOAD DUP1 SWAP2 SUB SWAP1 LOG1 POP POP JUMP JUMPDEST PUSH1 0x0 PUSH9 0x1B1AE4D6E2EF500000 PUSH1 0x4 SLOAD PUSH1 0x5 SLOAD PUSH2 0x3EF SWAP2 SWAP1 PUSH2 0x846 JUMP JUMPDEST PUSH2 0x22A SWAP2 SWAP1 PUSH2 0x8B7 JUMP JUMPDEST PUSH3 0x93A80 PUSH1 0x3 SLOAD PUSH2 0x40A SWAP2 SWAP1 PUSH2 0x82D JUMP JUMPDEST TIMESTAMP LT ISZERO PUSH2 0x444 JUMPI PUSH1 0x40 MLOAD PUSH3 0x461BCD PUSH1 0xE5 SHL DUP2 MSTORE PUSH1 0x20 PUSH1 0x4 DUP3 ADD MSTORE PUSH1 0x8 PUSH1 0x24 DUP3 ADD MSTORE PUSH8 0x2A37B79039B7B7B7 PUSH1 0xC1 SHL PUSH1 0x44 DUP3 ADD MSTORE PUSH1 0x64 ADD PUSH2 0x259 JUMP JUMPDEST PUSH1 0x5 SLOAD PUSH1 0x4 SLOAD LT PUSH2 0x485 JUMPI PUSH1 0x40 MLOAD PUSH3 0x461BCD PUSH1 0xE5 SHL DUP2 MSTORE PUSH1 0x20 PUSH1 0x4 DUP3 ADD MSTORE PUSH1 0xB PUSH1 0x24 DUP3 ADD MSTORE PUSH11 0x105B1B08191C9A5C1C1959 PUSH1 0xAA SHL PUSH1 0x44 DUP3 ADD MSTORE PUSH1 0x64 ADD PUSH2 0x259 JUMP JUMPDEST PUSH1 0x5 SLOAD PUSH1 0x4 SLOAD PUSH9 0x1B1AE4D6E2EF500000 SWAP2 SWAP1 PUSH2 0x4A2 SWAP1 DUP4 SWAP1 PUSH2 0x82D JUMP JUMPDEST GT ISZERO PUSH2 0x4BB JUMPI PUSH1 0x4 SLOAD PUSH1 0x5 SLOAD PUSH2 0x4B8 SWAP2 SWAP1 PUSH2 0x846 JUMP JUMPDEST SWAP1 POP JUMPDEST PUSH1 0x0 TIMESTAMP PUSH1 0x6 SLOAD GT PUSH2 0x4CD JUMPI PUSH1 0x0 PUSH2 0x4DB JUMP JUMPDEST TIMESTAMP PUSH1 0x6 SLOAD PUSH2 0x4DB SWAP2 SWAP1 PUSH2 0x846 JUMP JUMPDEST SWAP1 POP PUSH1 0x0 PUSH2 0x4EA PUSH1 0x5 DUP4 PUSH2 0x8B7 JUMP JUMPDEST PUSH1 0x1 SLOAD PUSH1 0x2 SLOAD PUSH1 0x40 MLOAD PUSH4 0x95EA7B3 PUSH1 0xE0 SHL DUP2 MSTORE PUSH1 0x1 PUSH1 0x1 PUSH1 0xA0 SHL SUB SWAP2 DUP3 AND PUSH1 0x4 DUP3 ADD MSTORE PUSH1 0x24 DUP2 ADD DUP8 SWAP1 MSTORE SWAP3 SWAP4 POP AND SWAP1 PUSH4 0x95EA7B3 SWAP1 PUSH1 0x44 ADD PUSH1 0x20 PUSH1 0x40 MLOAD DUP1 DUP4 SUB DUP2 PUSH1 0x0 DUP8 GAS CALL ISZERO DUP1 ISZERO PUSH2 0x541 JUMPI RETURNDATASIZE PUSH1 0x0 DUP1 RETURNDATACOPY RETURNDATASIZE PUSH1 0x0 REVERT JUMPDEST POP POP POP POP PUSH1 0x40 MLOAD RETURNDATASIZE PUSH1 0x1F NOT PUSH1 0x1F DUP3 ADD AND DUP3 ADD DUP1 PUSH1 0x40 MSTORE POP DUP2 ADD SWAP1 PUSH2 0x565 SWAP2 SWAP1 PUSH2 0x895 JUMP JUMPDEST POP PUSH1 0x2 SLOAD PUSH1 0x40 MLOAD PUSH4 0x28662551 PUSH1 0xE0 SHL DUP2 MSTORE PUSH1 0x4 DUP2 ADD DUP6 SWAP1 MSTORE PUSH1 0x24 DUP2 ADD DUP4 SWAP1 MSTORE PUSH1 0x1 PUSH1 0x1 PUSH1 0xA0 SHL SUB SWAP1 SWAP2 AND SWAP1 PUSH4 0x28662551 SWAP1 PUSH1 0x44 ADD PUSH1 0x0 PUSH1 0x40 MLOAD DUP1 DUP4 SUB DUP2 PUSH1 0x0 DUP8 DUP1 EXTCODESIZE ISZERO DUP1 ISZERO PUSH2 0x5B3 JUMPI PUSH1 0x0 DUP1 REVERT JUMPDEST POP GAS CALL ISZERO DUP1 ISZERO PUSH2 0x5C7 JUMPI RETURNDATASIZE PUSH1 0x0 DUP1 RETURNDATACOPY RETURNDATASIZE PUSH1 0x0 REVERT JUMPDEST POP POP POP POP TIMESTAMP PUSH1 0x3 DUP2 SWAP1 SSTORE POP DUP3 PUSH1 0x4 PUSH1 0x0 DUP3 DUP3 SLOAD PUSH2 0x5E4 SWAP2 SWAP1 PUSH2 0x82D JUMP JUMPDEST SWAP3 POP POP DUP2 SWAP1 SSTORE POP PUSH32 0x701ABEE35467FA015B02D6CE7407B79B5772054FA6F1DC5DA0AD4E548751CE70 DUP4 PUSH1 0x4 SLOAD PUSH1 0x5 SLOAD PUSH2 0x61D SWAP2 SWAP1 PUSH2 0x846 JUMP JUMPDEST PUSH9 0x1B1AE4D6E2EF500000 PUSH1 0x4 SLOAD PUSH2 0x634 SWAP2 SWAP1 PUSH2 0x8B7 JUMP JUMPDEST PUSH1 0x40 DUP1 MLOAD SWAP4 DUP5 MSTORE PUSH1 0x20 DUP5 ADD SWAP3 SWAP1 SWAP3 MSTORE SWAP1 DUP3 ADD MSTORE PUSH1 0x60 ADD PUSH1 0x40 MLOAD DUP1 SWAP2 SUB SWAP1 LOG1 POP POP POP JUMP JUMPDEST PUSH1 0x0 SLOAD PUSH1 0x1 PUSH1 0x1 PUSH1 0xA0 SHL SUB AND CALLER EQ PUSH2 0x681 JUMPI PUSH1 0x40 MLOAD PUSH3 0x461BCD PUSH1 0xE5 SHL DUP2 MSTORE PUSH1 0x4 ADD PUSH2 0x259 SWAP1 PUSH2 0x859 JUMP JUMPDEST PUSH1 0x1 SLOAD PUSH1 0x40 MLOAD PUSH4 0x23B872DD PUSH1 0xE0 SHL DUP2 MSTORE CALLER PUSH1 0x4 DUP3 ADD MSTORE ADDRESS PUSH1 0x24 DUP3 ADD MSTORE PUSH1 0x44 DUP2 ADD DUP4 SWAP1 MSTORE PUSH1 0x1 PUSH1 0x1 PUSH1 0xA0 SHL SUB SWAP1 SWAP2 AND SWAP1 PUSH4 0x23B872DD SWAP1 PUSH1 0x64 ADD PUSH1 0x20 PUSH1 0x40 MLOAD DUP1 DUP4 SUB DUP2 PUSH1 0x0 DUP8 GAS CALL ISZERO DUP1 ISZERO PUSH2 0x6D8 JUMPI RETURNDATASIZE PUSH1 0x0 DUP1 RETURNDATACOPY RETURNDATASIZE PUSH1 0x0 REVERT JUMPDEST POP POP POP POP PUSH1 0x40 MLOAD RETURNDATASIZE PUSH1 0x1F NOT PUSH1 0x1F DUP3 ADD AND DUP3 ADD DUP1 PUSH1 0x40 MSTORE POP DUP2 ADD SWAP1 PUSH2 0x6FC SWAP2 SWAP1 PUSH2 0x895 JUMP JUMPDEST PUSH2 0x73A JUMPI PUSH1 0x40 MLOAD PUSH3 0x461BCD PUSH1 0xE5 SHL DUP2 MSTORE PUSH1 0x20 PUSH1 0x4 DUP3 ADD MSTORE PUSH1 0xF PUSH1 0x24 DUP3 ADD MSTORE PUSH15 0x151C985B9CD9995C8819985A5B1959 PUSH1 0x8A SHL PUSH1 0x44 DUP3 ADD MSTORE PUSH1 0x64 ADD PUSH2 0x259 JUMP JUMPDEST POP JUMP JUMPDEST PUSH1 0x0 SLOAD PUSH1 0x1 PUSH1 0x1 PUSH1 0xA0 SHL SUB AND CALLER EQ PUSH2 0x767 JUMPI PUSH1 0x40 MLOAD PUSH3 0x461BCD PUSH1 0xE5 SHL DUP2 MSTORE PUSH1 0x4 ADD PUSH2 0x259 SWAP1 PUSH2 0x859 JUMP JUMPDEST PUSH1 0x1 PUSH1 0x1 PUSH1 0xA0 SHL SUB DUP2 AND PUSH2 0x7AC JUMPI PUSH1 0x40 MLOAD PUSH3 0x461BCD PUSH1 0xE5 SHL DUP2 MSTORE PUSH1 0x20 PUSH1 0x4 DUP3 ADD MSTORE PUSH1 0xC PUSH1 0x24 DUP3 ADD MSTORE PUSH12 0x5A65726F2061646472657373 PUSH1 0xA0 SHL PUSH1 0x44 DUP3 ADD MSTORE PUSH1 0x64 ADD PUSH2 0x259 JUMP JUMPDEST PUSH1 0x0 DUP1 SLOAD PUSH1 0x1 PUSH1 0x1 PUSH1 0xA0 SHL SUB NOT AND PUSH1 0x1 PUSH1 0x1 PUSH1 0xA0 SHL SUB SWAP3 SWAP1 SWAP3 AND SWAP2 SWAP1 SWAP2 OR SWAP1 SSTORE JUMP JUMPDEST PUSH1 0x0 PUSH1 0x20 DUP3 DUP5 SUB SLT ISZERO PUSH2 0x7E0 JUMPI PUSH1 0x0 DUP1 REVERT JUMPDEST DUP2 CALLDATALOAD PUSH1 0x1 PUSH1 0x1 PUSH1 0xA0 SHL SUB DUP2 AND DUP2 EQ PUSH2 0x7F7 JUMPI PUSH1 0x0 DUP1 REVERT JUMPDEST SWAP4 SWAP3 POP POP POP JUMP JUMPDEST PUSH1 0x0 PUSH1 0x20 DUP3 DUP5 SUB SLT ISZERO PUSH2 0x810 JUMPI PUSH1 0x0 DUP1 REVERT JUMPDEST POP CALLDATALOAD SWAP2 SWAP1 POP JUMP JUMPDEST PUSH4 0x4E487B71 PUSH1 0xE0 SHL PUSH1 0x0 MSTORE PUSH1 0x11 PUSH1 0x4 MSTORE PUSH1 0x24 PUSH1 0x0 REVERT JUMPDEST DUP1 DUP3 ADD DUP1 DUP3 GT ISZERO PUSH2 0x840 JUMPI PUSH2 0x840 PUSH2 0x817 JUMP JUMPDEST SWAP3 SWAP2 POP POP JUMP JUMPDEST DUP2 DUP2 SUB DUP2 DUP2 GT ISZERO PUSH2 0x840 JUMPI PUSH2 0x840 PUSH2 0x817 JUMP JUMPDEST PUSH1 0x20 DUP1 DUP3 MSTORE PUSH1 0x9 SWAP1 DUP3 ADD MSTORE PUSH9 0x2737BA1037BBB732B9 PUSH1 0xB9 SHL PUSH1 0x40 DUP3 ADD MSTORE PUSH1 0x60 ADD SWAP1 JUMP JUMPDEST PUSH1 0x0 PUSH1 0x20 DUP3 DUP5 SUB SLT ISZERO PUSH2 0x88E JUMPI PUSH1 0x0 DUP1 REVERT JUMPDEST POP MLOAD SWAP2 SWAP1 POP JUMP JUMPDEST PUSH1 0x0 PUSH1 0x20 DUP3 DUP5 SUB SLT ISZERO PUSH2 0x8A7 JUMPI PUSH1 0x0 DUP1 REVERT JUMPDEST DUP2 MLOAD DUP1 ISZERO ISZERO DUP2 EQ PUSH2 0x7F7 JUMPI PUSH1 0x0 DUP1 REVERT JUMPDEST PUSH1 0x0 DUP3 PUSH2 0x8D4 JUMPI PUSH4 0x4E487B71 PUSH1 0xE0 SHL PUSH1 0x0 MSTORE PUSH1 0x12 PUSH1 0x4 MSTORE PUSH1 0x24 PUSH1 0x0 REVERT JUMPDEST POP DIV SWAP1 JUMP INVALID LOG2 PUSH5 0x6970667358 0x22 SLT KECCAK256 PUSH17 0xA9B97D79D6F6BFE0010104B9AE0942661D ISZERO PUSH21 0x4CDA51922C8A5B25E869DC3764736F6C6343000814 STOP CALLER "
				},
				"gasEstimates": {
					"creation": {
						"codeDepositCost": "463800",
						"executionCost": "infinite",
						"totalCost": "infinite"
					},
					"external": {
						"DRIP_AMOUNT()": "217",
						"DRIP_INTERVAL()": "263",
						"coreToken()": "2350",
						"deposit(uint256)": "infinite",
						"drip()": "infinite",
						"emergencyWithdraw(address)": "infinite",
						"endTimestamp()": "2340",
						"lastDripTime()": "2383",
						"nextDripIn()": "infinite",
						"owner()": "2415",
						"remainingDrips()": "4623",
						"stakingContract()": "2370",
						"totalDripped()": "2384",
						"totalToDrip()": "2340",
						"transferOwnership(address)": "26777"
					}
				},
				"methodIdentifiers": {
					"DRIP_AMOUNT()": "e98890a7",
					"DRIP_INTERVAL()": "5d8bc6b7",
					"coreToken()": "0c2b72e9",
					"deposit(uint256)": "b6b55f25",
					"drip()": "9f678cca",
					"emergencyWithdraw(address)": "6ff1c9bc",
					"endTimestamp()": "a85adeab",
					"lastDripTime()": "fba1f7b0",
					"nextDripIn()": "59081213",
					"owner()": "8da5cb5b",
					"remainingDrips()": "8820f554",
					"stakingContract()": "ee99205c",
					"totalDripped()": "c7274f3a",
					"totalToDrip()": "79497069",
					"transferOwnership(address)": "f2fde38b"
				}
			},
			"storageLayout": {
				"storage": [
					{
						"astId": 48,
						"contract": "contracts/ZephyrosStaking/DripFundingContract.sol:CoreDripFunderV2",
						"label": "owner",
						"offset": 0,
						"slot": "0",
						"type": "t_address"
					},
					{
						"astId": 51,
						"contract": "contracts/ZephyrosStaking/DripFundingContract.sol:CoreDripFunderV2",
						"label": "coreToken",
						"offset": 0,
						"slot": "1",
						"type": "t_contract(ICoreToken)38"
					},
					{
						"astId": 54,
						"contract": "contracts/ZephyrosStaking/DripFundingContract.sol:CoreDripFunderV2",
						"label": "stakingContract",
						"offset": 0,
						"slot": "2",
						"type": "t_contract(ICoreAscensionV2)46"
					},
					{
						"astId": 62,
						"contract": "contracts/ZephyrosStaking/DripFundingContract.sol:CoreDripFunderV2",
						"label": "lastDripTime",
						"offset": 0,
						"slot": "3",
						"type": "t_uint256"
					},
					{
						"astId": 64,
						"contract": "contracts/ZephyrosStaking/DripFundingContract.sol:CoreDripFunderV2",
						"label": "totalDripped",
						"offset": 0,
						"slot": "4",
						"type": "t_uint256"
					},
					{
						"astId": 66,
						"contract": "contracts/ZephyrosStaking/DripFundingContract.sol:CoreDripFunderV2",
						"label": "totalToDrip",
						"offset": 0,
						"slot": "5",
						"type": "t_uint256"
					},
					{
						"astId": 68,
						"contract": "contracts/ZephyrosStaking/DripFundingContract.sol:CoreDripFunderV2",
						"label": "endTimestamp",
						"offset": 0,
						"slot": "6",
						"type": "t_uint256"
					}
				],
				"types": {
					"t_address": {
						"encoding": "inplace",
						"label": "address",
						"numberOfBytes": "20"
					},
					"t_contract(ICoreAscensionV2)46": {
						"encoding": "inplace",
						"label": "contract ICoreAscensionV2",
						"numberOfBytes": "20"
					},
					"t_contract(ICoreToken)38": {
						"encoding": "inplace",
						"label": "contract ICoreToken",
						"numberOfBytes": "20"
					},
					"t_uint256": {
						"encoding": "inplace",
						"label": "uint256",
						"numberOfBytes": "32"
					}
				}
			},
			"userdoc": {
				"kind": "user",
				"methods": {},
				"version": 1
			}
		}
	}
}