{
	"contracts/ZephyrosVault/ZephyrosVault.sol": {
		"ZephyrosCoreBurnVault": {
			"abi": [
				{
					"inputs": [
						{
							"internalType": "address",
							"name": "_token0",
							"type": "address"
						},
						{
							"internalType": "address",
							"name": "_token1",
							"type": "address"
						},
						{
							"internalType": "address",
							"name": "_core",
							"type": "address"
						},
						{
							"internalType": "address",
							"name": "_rewardToken",
							"type": "address"
						},
						{
							"internalType": "address",
							"name": "_electroFarm",
							"type": "address"
						},
						{
							"internalType": "address",
							"name": "_router",
							"type": "address"
						},
						{
							"internalType": "uint256",
							"name": "_farmId",
							"type": "uint256"
						},
						{
							"internalType": "address",
							"name": "_treasury",
							"type": "address"
						}
					],
					"stateMutability": "nonpayable",
					"type": "constructor"
				},
				{
					"inputs": [
						{
							"internalType": "address",
							"name": "owner",
							"type": "address"
						}
					],
					"name": "OwnableInvalidOwner",
					"type": "error"
				},
				{
					"inputs": [
						{
							"internalType": "address",
							"name": "account",
							"type": "address"
						}
					],
					"name": "OwnableUnauthorizedAccount",
					"type": "error"
				},
				{
					"inputs": [],
					"name": "ReentrancyGuardReentrantCall",
					"type": "error"
				},
				{
					"inputs": [
						{
							"internalType": "address",
							"name": "token",
							"type": "address"
						}
					],
					"name": "SafeERC20FailedOperation",
					"type": "error"
				},
				{
					"anonymous": false,
					"inputs": [
						{
							"indexed": true,
							"internalType": "address",
							"name": "user",
							"type": "address"
						},
						{
							"indexed": false,
							"internalType": "uint256",
							"name": "amount",
							"type": "uint256"
						}
					],
					"name": "CoreRewardsClaimed",
					"type": "event"
				},
				{
					"anonymous": false,
					"inputs": [
						{
							"indexed": true,
							"internalType": "address",
							"name": "user",
							"type": "address"
						},
						{
							"indexed": false,
							"internalType": "uint256",
							"name": "amount0",
							"type": "uint256"
						},
						{
							"indexed": false,
							"internalType": "uint256",
							"name": "amount1",
							"type": "uint256"
						},
						{
							"indexed": false,
							"internalType": "uint256",
							"name": "coreLocked",
							"type": "uint256"
						},
						{
							"indexed": false,
							"internalType": "uint256",
							"name": "liquidityAdded",
							"type": "uint256"
						},
						{
							"indexed": false,
							"internalType": "uint256",
							"name": "unlockTime",
							"type": "uint256"
						}
					],
					"name": "Deposited",
					"type": "event"
				},
				{
					"anonymous": false,
					"inputs": [
						{
							"indexed": false,
							"internalType": "uint256",
							"name": "rewardAmount",
							"type": "uint256"
						},
						{
							"indexed": false,
							"internalType": "uint256",
							"name": "coreBought",
							"type": "uint256"
						},
						{
							"indexed": false,
							"internalType": "uint256",
							"name": "coreBurned",
							"type": "uint256"
						},
						{
							"indexed": false,
							"internalType": "uint256",
							"name": "coreRewards",
							"type": "uint256"
						},
						{
							"indexed": false,
							"internalType": "uint256",
							"name": "coreTreasury",
							"type": "uint256"
						}
					],
					"name": "Harvested",
					"type": "event"
				},
				{
					"anonymous": false,
					"inputs": [
						{
							"indexed": true,
							"internalType": "address",
							"name": "previousOwner",
							"type": "address"
						},
						{
							"indexed": true,
							"internalType": "address",
							"name": "newOwner",
							"type": "address"
						}
					],
					"name": "OwnershipTransferred",
					"type": "event"
				},
				{
					"anonymous": false,
					"inputs": [
						{
							"indexed": true,
							"internalType": "address",
							"name": "user",
							"type": "address"
						},
						{
							"indexed": false,
							"internalType": "uint256",
							"name": "liquidityRemoved",
							"type": "uint256"
						},
						{
							"indexed": false,
							"internalType": "uint256",
							"name": "coreUnlocked",
							"type": "uint256"
						}
					],
					"name": "Withdrawn",
					"type": "event"
				},
				{
					"inputs": [],
					"name": "BURN_ADDRESS",
					"outputs": [
						{
							"internalType": "address",
							"name": "",
							"type": "address"
						}
					],
					"stateMutability": "view",
					"type": "function"
				},
				{
					"inputs": [],
					"name": "LOCK_DURATION",
					"outputs": [
						{
							"internalType": "uint256",
							"name": "",
							"type": "uint256"
						}
					],
					"stateMutability": "view",
					"type": "function"
				},
				{
					"inputs": [],
					"name": "PRECISION",
					"outputs": [
						{
							"internalType": "uint256",
							"name": "",
							"type": "uint256"
						}
					],
					"stateMutability": "view",
					"type": "function"
				},
				{
					"inputs": [],
					"name": "accCorePerLiquidity",
					"outputs": [
						{
							"internalType": "uint256",
							"name": "",
							"type": "uint256"
						}
					],
					"stateMutability": "view",
					"type": "function"
				},
				{
					"inputs": [],
					"name": "burnBps",
					"outputs": [
						{
							"internalType": "uint256",
							"name": "",
							"type": "uint256"
						}
					],
					"stateMutability": "view",
					"type": "function"
				},
				{
					"inputs": [],
					"name": "claimCoreRewards",
					"outputs": [],
					"stateMutability": "nonpayable",
					"type": "function"
				},
				{
					"inputs": [],
					"name": "core",
					"outputs": [
						{
							"internalType": "contract IERC20",
							"name": "",
							"type": "address"
						}
					],
					"stateMutability": "view",
					"type": "function"
				},
				{
					"inputs": [],
					"name": "coreBurn",
					"outputs": [
						{
							"internalType": "contract ICoreToken",
							"name": "",
							"type": "address"
						}
					],
					"stateMutability": "view",
					"type": "function"
				},
				{
					"inputs": [
						{
							"internalType": "uint256",
							"name": "amount0",
							"type": "uint256"
						},
						{
							"internalType": "uint256",
							"name": "amount1",
							"type": "uint256"
						},
						{
							"internalType": "uint256",
							"name": "coreLockAmount",
							"type": "uint256"
						}
					],
					"name": "deposit",
					"outputs": [],
					"stateMutability": "nonpayable",
					"type": "function"
				},
				{
					"inputs": [],
					"name": "electroFarm",
					"outputs": [
						{
							"internalType": "contract IElectroFarm",
							"name": "",
							"type": "address"
						}
					],
					"stateMutability": "view",
					"type": "function"
				},
				{
					"inputs": [],
					"name": "farmId",
					"outputs": [
						{
							"internalType": "uint256",
							"name": "",
							"type": "uint256"
						}
					],
					"stateMutability": "view",
					"type": "function"
				},
				{
					"inputs": [
						{
							"internalType": "address[]",
							"name": "rewardToCorePath",
							"type": "address[]"
						},
						{
							"internalType": "uint256",
							"name": "minCoreOut",
							"type": "uint256"
						}
					],
					"name": "harvest",
					"outputs": [],
					"stateMutability": "nonpayable",
					"type": "function"
				},
				{
					"inputs": [
						{
							"internalType": "address",
							"name": "account",
							"type": "address"
						}
					],
					"name": "isCharacterEligible",
					"outputs": [
						{
							"internalType": "bool",
							"name": "",
							"type": "bool"
						}
					],
					"stateMutability": "view",
					"type": "function"
				},
				{
					"inputs": [],
					"name": "owner",
					"outputs": [
						{
							"internalType": "address",
							"name": "",
							"type": "address"
						}
					],
					"stateMutability": "view",
					"type": "function"
				},
				{
					"inputs": [
						{
							"internalType": "address",
							"name": "account",
							"type": "address"
						}
					],
					"name": "pendingCoreRewards",
					"outputs": [
						{
							"internalType": "uint256",
							"name": "",
							"type": "uint256"
						}
					],
					"stateMutability": "view",
					"type": "function"
				},
				{
					"inputs": [],
					"name": "renounceOwnership",
					"outputs": [],
					"stateMutability": "nonpayable",
					"type": "function"
				},
				{
					"inputs": [],
					"name": "rewardBps",
					"outputs": [
						{
							"internalType": "uint256",
							"name": "",
							"type": "uint256"
						}
					],
					"stateMutability": "view",
					"type": "function"
				},
				{
					"inputs": [],
					"name": "rewardToken",
					"outputs": [
						{
							"internalType": "contract IERC20",
							"name": "",
							"type": "address"
						}
					],
					"stateMutability": "view",
					"type": "function"
				},
				{
					"inputs": [],
					"name": "router",
					"outputs": [
						{
							"internalType": "contract IRouter",
							"name": "",
							"type": "address"
						}
					],
					"stateMutability": "view",
					"type": "function"
				},
				{
					"inputs": [
						{
							"internalType": "uint256",
							"name": "_burnBps",
							"type": "uint256"
						},
						{
							"internalType": "uint256",
							"name": "_rewardBps",
							"type": "uint256"
						},
						{
							"internalType": "uint256",
							"name": "_treasuryBps",
							"type": "uint256"
						}
					],
					"name": "setSplits",
					"outputs": [],
					"stateMutability": "nonpayable",
					"type": "function"
				},
				{
					"inputs": [
						{
							"internalType": "address",
							"name": "_treasury",
							"type": "address"
						}
					],
					"name": "setTreasury",
					"outputs": [],
					"stateMutability": "nonpayable",
					"type": "function"
				},
				{
					"inputs": [],
					"name": "token0",
					"outputs": [
						{
							"internalType": "contract IERC20",
							"name": "",
							"type": "address"
						}
					],
					"stateMutability": "view",
					"type": "function"
				},
				{
					"inputs": [],
					"name": "token1",
					"outputs": [
						{
							"internalType": "contract IERC20",
							"name": "",
							"type": "address"
						}
					],
					"stateMutability": "view",
					"type": "function"
				},
				{
					"inputs": [],
					"name": "totalLiquidity",
					"outputs": [
						{
							"internalType": "uint256",
							"name": "",
							"type": "uint256"
						}
					],
					"stateMutability": "view",
					"type": "function"
				},
				{
					"inputs": [
						{
							"internalType": "address",
							"name": "newOwner",
							"type": "address"
						}
					],
					"name": "transferOwnership",
					"outputs": [],
					"stateMutability": "nonpayable",
					"type": "function"
				},
				{
					"inputs": [],
					"name": "treasury",
					"outputs": [
						{
							"internalType": "address",
							"name": "",
							"type": "address"
						}
					],
					"stateMutability": "view",
					"type": "function"
				},
				{
					"inputs": [],
					"name": "treasuryBps",
					"outputs": [
						{
							"internalType": "uint256",
							"name": "",
							"type": "uint256"
						}
					],
					"stateMutability": "view",
					"type": "function"
				},
				{
					"inputs": [
						{
							"internalType": "address",
							"name": "",
							"type": "address"
						}
					],
					"name": "users",
					"outputs": [
						{
							"internalType": "uint256",
							"name": "liquidity",
							"type": "uint256"
						},
						{
							"internalType": "uint256",
							"name": "coreLocked",
							"type": "uint256"
						},
						{
							"internalType": "uint256",
							"name": "rewardDebt",
							"type": "uint256"
						},
						{
							"internalType": "uint256",
							"name": "unlockTime",
							"type": "uint256"
						},
						{
							"internalType": "bool",
							"name": "active",
							"type": "bool"
						}
					],
					"stateMutability": "view",
					"type": "function"
				},
				{
					"inputs": [
						{
							"internalType": "uint256",
							"name": "liquidityAmount",
							"type": "uint256"
						}
					],
					"name": "withdraw",
					"outputs": [],
					"stateMutability": "nonpayable",
					"type": "function"
				}
			],
			"devdoc": {
				"errors": {
					"OwnableInvalidOwner(address)": [
						{
							"details": "The owner is not a valid owner account. (eg. `address(0)`)"
						}
					],
					"OwnableUnauthorizedAccount(address)": [
						{
							"details": "The caller account is not authorized to perform an operation."
						}
					],
					"ReentrancyGuardReentrantCall()": [
						{
							"details": "Unauthorized reentrant call."
						}
					],
					"SafeERC20FailedOperation(address)": [
						{
							"details": "An operation with an ERC-20 token failed."
						}
					]
				},
				"kind": "dev",
				"methods": {
					"owner()": {
						"details": "Returns the address of the current owner."
					},
					"renounceOwnership()": {
						"details": "Leaves the contract without owner. It will not be possible to call `onlyOwner` functions. Can only be called by the current owner. NOTE: Renouncing ownership will leave the contract without an owner, thereby disabling any functionality that is only available to the owner."
					},
					"transferOwnership(address)": {
						"details": "Transfers ownership of the contract to a new account (`newOwner`). Can only be called by the current owner."
					}
				},
				"version": 1
			},
			"evm": {
				"assembly": "    /* \"contracts/ZephyrosVault/ZephyrosVault.sol\":1726:11208  contract ZephyrosCoreBurnVault is Ownable, ReentrancyGuard {... */\n  mstore(0x40, 0x0180)\n    /* \"contracts/ZephyrosVault/ZephyrosVault.sol\":1955:1959  4000 */\n  0x0fa0\n    /* \"contracts/ZephyrosVault/ZephyrosVault.sol\":1930:1959  uint256 public burnBps = 4000 */\n  0x02\n  sstore\n    /* \"contracts/ZephyrosVault/ZephyrosVault.sol\":2004:2008  4500 */\n  0x1194\n    /* \"contracts/ZephyrosVault/ZephyrosVault.sol\":1977:2008  uint256 public rewardBps = 4500 */\n  0x03\n  sstore\n    /* \"contracts/ZephyrosVault/ZephyrosVault.sol\":2053:2057  1500 */\n  0x05dc\n    /* \"contracts/ZephyrosVault/ZephyrosVault.sol\":2024:2057  uint256 public treasuryBps = 1500 */\n  0x04\n  sstore\n    /* \"contracts/ZephyrosVault/ZephyrosVault.sol\":3368:4369  constructor(... */\n  callvalue\n  dup1\n  iszero\n  tag_1\n  jumpi\n  0x00\n  dup1\n  revert\ntag_1:\n  pop\n  mload(0x40)\n  sub(codesize, bytecodeSize)\n  dup1\n  bytecodeSize\n  dup4\n  codecopy\n  dup2\n  dup2\n  add\n  0x40\n  mstore\n  dup2\n  add\n  swap1\n  tag_2\n  swap2\n  swap1\n  tag_3\n  jump\t// in\ntag_2:\n    /* \"contracts/ZephyrosVault/ZephyrosVault.sol\":3613:3623  msg.sender */\n  caller\n    /* \"https://github.com/OpenZeppelin/openzeppelin-contracts/blob/v5.4.0/contracts/access/Ownable.sol\":1297:1298  0 */\n  0x00\n    /* \"https://github.com/OpenZeppelin/openzeppelin-contracts/blob/v5.4.0/contracts/access/Ownable.sol\":1273:1299  initialOwner == address(0) */\n  0xffffffffffffffffffffffffffffffffffffffff\n  and\n    /* \"https://github.com/OpenZeppelin/openzeppelin-contracts/blob/v5.4.0/contracts/access/Ownable.sol\":1273:1285  initialOwner */\n  dup2\n    /* \"https://github.com/OpenZeppelin/openzeppelin-contracts/blob/v5.4.0/contracts/access/Ownable.sol\":1273:1299  initialOwner == address(0) */\n  0xffffffffffffffffffffffffffffffffffffffff\n  and\n  sub\n    /* \"https://github.com/OpenZeppelin/openzeppelin-contracts/blob/v5.4.0/contracts/access/Ownable.sol\":1269:1364  if (initialOwner == address(0)) {... */\n  tag_8\n  jumpi\n    /* \"https://github.com/OpenZeppelin/openzeppelin-contracts/blob/v5.4.0/contracts/access/Ownable.sol\":1350:1351  0 */\n  0x00\n    /* \"https://github.com/OpenZeppelin/openzeppelin-contracts/blob/v5.4.0/contracts/access/Ownable.sol\":1322:1353  OwnableInvalidOwner(address(0)) */\n  mload(0x40)\n  0x1e4fbdf700000000000000000000000000000000000000000000000000000000\n  dup2\n  mstore\n  0x04\n  add\n  tag_9\n  swap2\n  swap1\n  tag_10\n  jump\t// in\ntag_9:\n  mload(0x40)\n  dup1\n  swap2\n  sub\n  swap1\n  revert\n    /* \"https://github.com/OpenZeppelin/openzeppelin-contracts/blob/v5.4.0/contracts/access/Ownable.sol\":1269:1364  if (initialOwner == address(0)) {... */\ntag_8:\n    /* \"https://github.com/OpenZeppelin/openzeppelin-contracts/blob/v5.4.0/contracts/access/Ownable.sol\":1373:1405  _transferOwnership(initialOwner) */\n  tag_11\n    /* \"https://github.com/OpenZeppelin/openzeppelin-contracts/blob/v5.4.0/contracts/access/Ownable.sol\":1392:1404  initialOwner */\n  dup2\n    /* \"https://github.com/OpenZeppelin/openzeppelin-contracts/blob/v5.4.0/contracts/access/Ownable.sol\":1373:1391  _transferOwnership */\n  shl(0x20, tag_12)\n    /* \"https://github.com/OpenZeppelin/openzeppelin-contracts/blob/v5.4.0/contracts/access/Ownable.sol\":1373:1405  _transferOwnership(initialOwner) */\n  0x20\n  shr\n  jump\t// in\ntag_11:\n    /* \"https://github.com/OpenZeppelin/openzeppelin-contracts/blob/v5.4.0/contracts/access/Ownable.sol\":1225:1412  constructor(address initialOwner) {... */\n  pop\n    /* \"https://github.com/OpenZeppelin/openzeppelin-contracts/blob/v5.4.0/contracts/utils/ReentrancyGuard.sol\":1857:1858  1 */\n  0x01\n    /* \"https://github.com/OpenZeppelin/openzeppelin-contracts/blob/v5.4.0/contracts/utils/ReentrancyGuard.sol\":2061:2068  _status */\n  dup1\n    /* \"https://github.com/OpenZeppelin/openzeppelin-contracts/blob/v5.4.0/contracts/utils/ReentrancyGuard.sol\":2061:2082  _status = NOT_ENTERED */\n  dup2\n  swap1\n  sstore\n  pop\n    /* \"contracts/ZephyrosVault/ZephyrosVault.sol\":3663:3664  0 */\n  0x00\n    /* \"contracts/ZephyrosVault/ZephyrosVault.sol\":3644:3665  _token0 != address(0) */\n  0xffffffffffffffffffffffffffffffffffffffff\n  and\n    /* \"contracts/ZephyrosVault/ZephyrosVault.sol\":3644:3651  _token0 */\n  dup9\n    /* \"contracts/ZephyrosVault/ZephyrosVault.sol\":3644:3665  _token0 != address(0) */\n  0xffffffffffffffffffffffffffffffffffffffff\n  and\n  sub\n    /* \"contracts/ZephyrosVault/ZephyrosVault.sol\":3636:3681  require(_token0 != address(0), \"token0 zero\") */\n  tag_15\n  jumpi\n  mload(0x40)\n  0x08c379a000000000000000000000000000000000000000000000000000000000\n  dup2\n  mstore\n  0x04\n  add\n  tag_16\n  swap1\n  tag_17\n  jump\t// in\ntag_16:\n  mload(0x40)\n  dup1\n  swap2\n  sub\n  swap1\n  revert\ntag_15:\n    /* \"contracts/ZephyrosVault/ZephyrosVault.sol\":3719:3720  0 */\n  0x00\n    /* \"contracts/ZephyrosVault/ZephyrosVault.sol\":3700:3721  _token1 != address(0) */\n  0xffffffffffffffffffffffffffffffffffffffff\n  and\n    /* \"contracts/ZephyrosVault/ZephyrosVault.sol\":3700:3707  _token1 */\n  dup8\n    /* \"contracts/ZephyrosVault/ZephyrosVault.sol\":3700:3721  _token1 != address(0) */\n  0xffffffffffffffffffffffffffffffffffffffff\n  and\n  sub\n    /* \"contracts/ZephyrosVault/ZephyrosVault.sol\":3692:3737  require(_token1 != address(0), \"token1 zero\") */\n  tag_18\n  jumpi\n  mload(0x40)\n  0x08c379a000000000000000000000000000000000000000000000000000000000\n  dup2\n  mstore\n  0x04\n  add\n  tag_19\n  swap1\n  tag_20\n  jump\t// in\ntag_19:\n  mload(0x40)\n  dup1\n  swap2\n  sub\n  swap1\n  revert\ntag_18:\n    /* \"contracts/ZephyrosVault/ZephyrosVault.sol\":3773:3774  0 */\n  0x00\n    /* \"contracts/ZephyrosVault/ZephyrosVault.sol\":3756:3775  _core != address(0) */\n  0xffffffffffffffffffffffffffffffffffffffff\n  and\n    /* \"contracts/ZephyrosVault/ZephyrosVault.sol\":3756:3761  _core */\n  dup7\n    /* \"contracts/ZephyrosVault/ZephyrosVault.sol\":3756:3775  _core != address(0) */\n  0xffffffffffffffffffffffffffffffffffffffff\n  and\n  sub\n    /* \"contracts/ZephyrosVault/ZephyrosVault.sol\":3748:3789  require(_core != address(0), \"core zero\") */\n  tag_21\n  jumpi\n  mload(0x40)\n  0x08c379a000000000000000000000000000000000000000000000000000000000\n  dup2\n  mstore\n  0x04\n  add\n  tag_22\n  swap1\n  tag_23\n  jump\t// in\ntag_22:\n  mload(0x40)\n  dup1\n  swap2\n  sub\n  swap1\n  revert\ntag_21:\n    /* \"contracts/ZephyrosVault/ZephyrosVault.sol\":3832:3833  0 */\n  0x00\n    /* \"contracts/ZephyrosVault/ZephyrosVault.sol\":3808:3834  _rewardToken != address(0) */\n  0xffffffffffffffffffffffffffffffffffffffff\n  and\n    /* \"contracts/ZephyrosVault/ZephyrosVault.sol\":3808:3820  _rewardToken */\n  dup6\n    /* \"contracts/ZephyrosVault/ZephyrosVault.sol\":3808:3834  _rewardToken != address(0) */\n  0xffffffffffffffffffffffffffffffffffffffff\n  and\n  sub\n    /* \"contracts/ZephyrosVault/ZephyrosVault.sol\":3800:3850  require(_rewardToken != address(0), \"reward zero\") */\n  tag_24\n  jumpi\n  mload(0x40)\n  0x08c379a000000000000000000000000000000000000000000000000000000000\n  dup2\n  mstore\n  0x04\n  add\n  tag_25\n  swap1\n  tag_26\n  jump\t// in\ntag_25:\n  mload(0x40)\n  dup1\n  swap2\n  sub\n  swap1\n  revert\ntag_24:\n    /* \"contracts/ZephyrosVault/ZephyrosVault.sol\":3893:3894  0 */\n  0x00\n    /* \"contracts/ZephyrosVault/ZephyrosVault.sol\":3869:3895  _electroFarm != address(0) */\n  0xffffffffffffffffffffffffffffffffffffffff\n  and\n    /* \"contracts/ZephyrosVault/ZephyrosVault.sol\":3869:3881  _electroFarm */\n  dup5\n    /* \"contracts/ZephyrosVault/ZephyrosVault.sol\":3869:3895  _electroFarm != address(0) */\n  0xffffffffffffffffffffffffffffffffffffffff\n  and\n  sub\n    /* \"contracts/ZephyrosVault/ZephyrosVault.sol\":3861:3909  require(_electroFarm != address(0), \"farm zero\") */\n  tag_27\n  jumpi\n  mload(0x40)\n  0x08c379a000000000000000000000000000000000000000000000000000000000\n  dup2\n  mstore\n  0x04\n  add\n  tag_28\n  swap1\n  tag_29\n  jump\t// in\ntag_28:\n  mload(0x40)\n  dup1\n  swap2\n  sub\n  swap1\n  revert\ntag_27:\n    /* \"contracts/ZephyrosVault/ZephyrosVault.sol\":3947:3948  0 */\n  0x00\n    /* \"contracts/ZephyrosVault/ZephyrosVault.sol\":3928:3949  _router != address(0) */\n  0xffffffffffffffffffffffffffffffffffffffff\n  and\n    /* \"contracts/ZephyrosVault/ZephyrosVault.sol\":3928:3935  _router */\n  dup4\n    /* \"contracts/ZephyrosVault/ZephyrosVault.sol\":3928:3949  _router != address(0) */\n  0xffffffffffffffffffffffffffffffffffffffff\n  and\n  sub\n    /* \"contracts/ZephyrosVault/ZephyrosVault.sol\":3920:3965  require(_router != address(0), \"router zero\") */\n  tag_30\n  jumpi\n  mload(0x40)\n  0x08c379a000000000000000000000000000000000000000000000000000000000\n  dup2\n  mstore\n  0x04\n  add\n  tag_31\n  swap1\n  tag_32\n  jump\t// in\ntag_31:\n  mload(0x40)\n  dup1\n  swap2\n  sub\n  swap1\n  revert\ntag_30:\n    /* \"contracts/ZephyrosVault/ZephyrosVault.sol\":4005:4006  0 */\n  0x00\n    /* \"contracts/ZephyrosVault/ZephyrosVault.sol\":3984:4007  _treasury != address(0) */\n  0xffffffffffffffffffffffffffffffffffffffff\n  and\n    /* \"contracts/ZephyrosVault/ZephyrosVault.sol\":3984:3993  _treasury */\n  dup2\n    /* \"contracts/ZephyrosVault/ZephyrosVault.sol\":3984:4007  _treasury != address(0) */\n  0xffffffffffffffffffffffffffffffffffffffff\n  and\n  sub\n    /* \"contracts/ZephyrosVault/ZephyrosVault.sol\":3976:4025  require(_treasury != address(0), \"treasury zero\") */\n  tag_33\n  jumpi\n  mload(0x40)\n  0x08c379a000000000000000000000000000000000000000000000000000000000\n  dup2\n  mstore\n  0x04\n  add\n  tag_34\n  swap1\n  tag_35\n  jump\t// in\ntag_34:\n  mload(0x40)\n  dup1\n  swap2\n  sub\n  swap1\n  revert\ntag_33:\n    /* \"contracts/ZephyrosVault/ZephyrosVault.sol\":4054:4061  _token0 */\n  dup8\n    /* \"contracts/ZephyrosVault/ZephyrosVault.sol\":4038:4062  token0 = IERC20(_token0) */\n  0xffffffffffffffffffffffffffffffffffffffff\n  and\n  0x80\n  dup2\n  0xffffffffffffffffffffffffffffffffffffffff\n  and\n  dup2\n  mstore\n  pop\n  pop\n    /* \"contracts/ZephyrosVault/ZephyrosVault.sol\":4089:4096  _token1 */\n  dup7\n    /* \"contracts/ZephyrosVault/ZephyrosVault.sol\":4073:4097  token1 = IERC20(_token1) */\n  0xffffffffffffffffffffffffffffffffffffffff\n  and\n  0xa0\n  dup2\n  0xffffffffffffffffffffffffffffffffffffffff\n  and\n  dup2\n  mstore\n  pop\n  pop\n    /* \"contracts/ZephyrosVault/ZephyrosVault.sol\":4122:4127  _core */\n  dup6\n    /* \"contracts/ZephyrosVault/ZephyrosVault.sol\":4108:4128  core = IERC20(_core) */\n  0xffffffffffffffffffffffffffffffffffffffff\n  and\n  0xc0\n  dup2\n  0xffffffffffffffffffffffffffffffffffffffff\n  and\n  dup2\n  mstore\n  pop\n  pop\n    /* \"contracts/ZephyrosVault/ZephyrosVault.sol\":4161:4166  _core */\n  dup6\n    /* \"contracts/ZephyrosVault/ZephyrosVault.sol\":4139:4167  coreBurn = ICoreToken(_core) */\n  0xffffffffffffffffffffffffffffffffffffffff\n  and\n  0xe0\n  dup2\n  0xffffffffffffffffffffffffffffffffffffffff\n  and\n  dup2\n  mstore\n  pop\n  pop\n    /* \"contracts/ZephyrosVault/ZephyrosVault.sol\":4199:4211  _rewardToken */\n  dup5\n    /* \"contracts/ZephyrosVault/ZephyrosVault.sol\":4178:4212  rewardToken = IERC20(_rewardToken) */\n  0xffffffffffffffffffffffffffffffffffffffff\n  and\n  0x0100\n  dup2\n  0xffffffffffffffffffffffffffffffffffffffff\n  and\n  dup2\n  mstore\n  pop\n  pop\n    /* \"contracts/ZephyrosVault/ZephyrosVault.sol\":4252:4264  _electroFarm */\n  dup4\n    /* \"contracts/ZephyrosVault/ZephyrosVault.sol\":4225:4265  electroFarm = IElectroFarm(_electroFarm) */\n  0xffffffffffffffffffffffffffffffffffffffff\n  and\n  0x0120\n  dup2\n  0xffffffffffffffffffffffffffffffffffffffff\n  and\n  dup2\n  mstore\n  pop\n  pop\n    /* \"contracts/ZephyrosVault/ZephyrosVault.sol\":4293:4300  _router */\n  dup3\n    /* \"contracts/ZephyrosVault/ZephyrosVault.sol\":4276:4301  router = IRouter(_router) */\n  0xffffffffffffffffffffffffffffffffffffffff\n  and\n  0x0140\n  dup2\n  0xffffffffffffffffffffffffffffffffffffffff\n  and\n  dup2\n  mstore\n  pop\n  pop\n    /* \"contracts/ZephyrosVault/ZephyrosVault.sol\":4323:4330  _farmId */\n  dup2\n    /* \"contracts/ZephyrosVault/ZephyrosVault.sol\":4314:4330  farmId = _farmId */\n  0x0160\n  dup2\n  dup2\n  mstore\n  pop\n  pop\n    /* \"contracts/ZephyrosVault/ZephyrosVault.sol\":4352:4361  _treasury */\n  dup1\n    /* \"contracts/ZephyrosVault/ZephyrosVault.sol\":4341:4349  treasury */\n  0x05\n  0x00\n    /* \"contracts/ZephyrosVault/ZephyrosVault.sol\":4341:4361  treasury = _treasury */\n  0x0100\n  exp\n  dup2\n  sload\n  dup2\n  0xffffffffffffffffffffffffffffffffffffffff\n  mul\n  not\n  and\n  swap1\n  dup4\n  0xffffffffffffffffffffffffffffffffffffffff\n  and\n  mul\n  or\n  swap1\n  sstore\n  pop\n    /* \"contracts/ZephyrosVault/ZephyrosVault.sol\":3368:4369  constructor(... */\n  pop\n  pop\n  pop\n  pop\n  pop\n  pop\n  pop\n  pop\n    /* \"contracts/ZephyrosVault/ZephyrosVault.sol\":1726:11208  contract ZephyrosCoreBurnVault is Ownable, ReentrancyGuard {... */\n  jump(tag_36)\n    /* \"https://github.com/OpenZeppelin/openzeppelin-contracts/blob/v5.4.0/contracts/access/Ownable.sol\":2912:3099  function _transferOwnership(address newOwner) internal virtual {... */\ntag_12:\n    /* \"https://github.com/OpenZeppelin/openzeppelin-contracts/blob/v5.4.0/contracts/access/Ownable.sol\":2985:3001  address oldOwner */\n  0x00\n    /* \"https://github.com/OpenZeppelin/openzeppelin-contracts/blob/v5.4.0/contracts/access/Ownable.sol\":3004:3010  _owner */\n  dup1\n  0x00\n  swap1\n  sload\n  swap1\n  0x0100\n  exp\n  swap1\n  div\n  0xffffffffffffffffffffffffffffffffffffffff\n  and\n    /* \"https://github.com/OpenZeppelin/openzeppelin-contracts/blob/v5.4.0/contracts/access/Ownable.sol\":2985:3010  address oldOwner = _owner */\n  swap1\n  pop\n    /* \"https://github.com/OpenZeppelin/openzeppelin-contracts/blob/v5.4.0/contracts/access/Ownable.sol\":3029:3037  newOwner */\n  dup2\n    /* \"https://github.com/OpenZeppelin/openzeppelin-contracts/blob/v5.4.0/contracts/access/Ownable.sol\":3020:3026  _owner */\n  0x00\n  dup1\n    /* \"https://github.com/OpenZeppelin/openzeppelin-contracts/blob/v5.4.0/contracts/access/Ownable.sol\":3020:3037  _owner = newOwner */\n  0x0100\n  exp\n  dup2\n  sload\n  dup2\n  0xffffffffffffffffffffffffffffffffffffffff\n  mul\n  not\n  and\n  swap1\n  dup4\n  0xffffffffffffffffffffffffffffffffffffffff\n  and\n  mul\n  or\n  swap1\n  sstore\n  pop\n    /* \"https://github.com/OpenZeppelin/openzeppelin-contracts/blob/v5.4.0/contracts/access/Ownable.sol\":3083:3091  newOwner */\n  dup2\n    /* \"https://github.com/OpenZeppelin/openzeppelin-contracts/blob/v5.4.0/contracts/access/Ownable.sol\":3052:3092  OwnershipTransferred(oldOwner, newOwner) */\n  0xffffffffffffffffffffffffffffffffffffffff\n  and\n    /* \"https://github.com/OpenZeppelin/openzeppelin-contracts/blob/v5.4.0/contracts/access/Ownable.sol\":3073:3081  oldOwner */\n  dup2\n    /* \"https://github.com/OpenZeppelin/openzeppelin-contracts/blob/v5.4.0/contracts/access/Ownable.sol\":3052:3092  OwnershipTransferred(oldOwner, newOwner) */\n  0xffffffffffffffffffffffffffffffffffffffff\n  and\n  0x8be0079c531659141344cd1fd0a4f28419497f9722a3daafe3b4186f6b6457e0\n  mload(0x40)\n  mload(0x40)\n  dup1\n  swap2\n  sub\n  swap1\n  log3\n    /* \"https://github.com/OpenZeppelin/openzeppelin-contracts/blob/v5.4.0/contracts/access/Ownable.sol\":2975:3099  {... */\n  pop\n    /* \"https://github.com/OpenZeppelin/openzeppelin-contracts/blob/v5.4.0/contracts/access/Ownable.sol\":2912:3099  function _transferOwnership(address newOwner) internal virtual {... */\n  pop\n  jump\t// out\n    /* \"#utility.yul\":88:205   */\ntag_39:\n    /* \"#utility.yul\":197:198   */\n  0x00\n    /* \"#utility.yul\":194:195   */\n  dup1\n    /* \"#utility.yul\":187:199   */\n  revert\n    /* \"#utility.yul\":334:460   */\ntag_41:\n    /* \"#utility.yul\":371:378   */\n  0x00\n    /* \"#utility.yul\":411:453   */\n  0xffffffffffffffffffffffffffffffffffffffff\n    /* \"#utility.yul\":404:409   */\n  dup3\n    /* \"#utility.yul\":400:454   */\n  and\n    /* \"#utility.yul\":389:454   */\n  swap1\n  pop\n    /* \"#utility.yul\":334:460   */\n  swap2\n  swap1\n  pop\n  jump\t// out\n    /* \"#utility.yul\":466:562   */\ntag_42:\n    /* \"#utility.yul\":503:510   */\n  0x00\n    /* \"#utility.yul\":532:556   */\n  tag_70\n    /* \"#utility.yul\":550:555   */\n  dup3\n    /* \"#utility.yul\":532:556   */\n  tag_41\n  jump\t// in\ntag_70:\n    /* \"#utility.yul\":521:556   */\n  swap1\n  pop\n    /* \"#utility.yul\":466:562   */\n  swap2\n  swap1\n  pop\n  jump\t// out\n    /* \"#utility.yul\":568:690   */\ntag_43:\n    /* \"#utility.yul\":641:665   */\n  tag_72\n    /* \"#utility.yul\":659:664   */\n  dup2\n    /* \"#utility.yul\":641:665   */\n  tag_42\n  jump\t// in\ntag_72:\n    /* \"#utility.yul\":634:639   */\n  dup2\n    /* \"#utility.yul\":631:666   */\n  eq\n    /* \"#utility.yul\":621:684   */\n  tag_73\n  jumpi\n    /* \"#utility.yul\":680:681   */\n  0x00\n    /* \"#utility.yul\":677:678   */\n  dup1\n    /* \"#utility.yul\":670:682   */\n  revert\n    /* \"#utility.yul\":621:684   */\ntag_73:\n    /* \"#utility.yul\":568:690   */\n  pop\n  jump\t// out\n    /* \"#utility.yul\":696:839   */\ntag_44:\n    /* \"#utility.yul\":753:758   */\n  0x00\n    /* \"#utility.yul\":784:790   */\n  dup2\n    /* \"#utility.yul\":778:791   */\n  mload\n    /* \"#utility.yul\":769:791   */\n  swap1\n  pop\n    /* \"#utility.yul\":800:833   */\n  tag_75\n    /* \"#utility.yul\":827:832   */\n  dup2\n    /* \"#utility.yul\":800:833   */\n  tag_43\n  jump\t// in\ntag_75:\n    /* \"#utility.yul\":696:839   */\n  swap3\n  swap2\n  pop\n  pop\n  jump\t// out\n    /* \"#utility.yul\":845:922   */\ntag_45:\n    /* \"#utility.yul\":882:889   */\n  0x00\n    /* \"#utility.yul\":911:916   */\n  dup2\n    /* \"#utility.yul\":900:916   */\n  swap1\n  pop\n    /* \"#utility.yul\":845:922   */\n  swap2\n  swap1\n  pop\n  jump\t// out\n    /* \"#utility.yul\":928:1050   */\ntag_46:\n    /* \"#utility.yul\":1001:1025   */\n  tag_78\n    /* \"#utility.yul\":1019:1024   */\n  dup2\n    /* \"#utility.yul\":1001:1025   */\n  tag_45\n  jump\t// in\ntag_78:\n    /* \"#utility.yul\":994:999   */\n  dup2\n    /* \"#utility.yul\":991:1026   */\n  eq\n    /* \"#utility.yul\":981:1044   */\n  tag_79\n  jumpi\n    /* \"#utility.yul\":1040:1041   */\n  0x00\n    /* \"#utility.yul\":1037:1038   */\n  dup1\n    /* \"#utility.yul\":1030:1042   */\n  revert\n    /* \"#utility.yul\":981:1044   */\ntag_79:\n    /* \"#utility.yul\":928:1050   */\n  pop\n  jump\t// out\n    /* \"#utility.yul\":1056:1199   */\ntag_47:\n    /* \"#utility.yul\":1113:1118   */\n  0x00\n    /* \"#utility.yul\":1144:1150   */\n  dup2\n    /* \"#utility.yul\":1138:1151   */\n  mload\n    /* \"#utility.yul\":1129:1151   */\n  swap1\n  pop\n    /* \"#utility.yul\":1160:1193   */\n  tag_81\n    /* \"#utility.yul\":1187:1192   */\n  dup2\n    /* \"#utility.yul\":1160:1193   */\n  tag_46\n  jump\t// in\ntag_81:\n    /* \"#utility.yul\":1056:1199   */\n  swap3\n  swap2\n  pop\n  pop\n  jump\t// out\n    /* \"#utility.yul\":1205:2653   */\ntag_3:\n    /* \"#utility.yul\":1338:1344   */\n  0x00\n    /* \"#utility.yul\":1346:1352   */\n  dup1\n    /* \"#utility.yul\":1354:1360   */\n  0x00\n    /* \"#utility.yul\":1362:1368   */\n  dup1\n    /* \"#utility.yul\":1370:1376   */\n  0x00\n    /* \"#utility.yul\":1378:1384   */\n  dup1\n    /* \"#utility.yul\":1386:1392   */\n  0x00\n    /* \"#utility.yul\":1394:1400   */\n  dup1\n    /* \"#utility.yul\":1443:1446   */\n  0x0100\n    /* \"#utility.yul\":1431:1440   */\n  dup10\n    /* \"#utility.yul\":1422:1429   */\n  dup12\n    /* \"#utility.yul\":1418:1441   */\n  sub\n    /* \"#utility.yul\":1414:1447   */\n  slt\n    /* \"#utility.yul\":1411:1531   */\n  iszero\n  tag_83\n  jumpi\n    /* \"#utility.yul\":1450:1529   */\n  tag_84\n  tag_39\n  jump\t// in\ntag_84:\n    /* \"#utility.yul\":1411:1531   */\ntag_83:\n    /* \"#utility.yul\":1570:1571   */\n  0x00\n    /* \"#utility.yul\":1595:1659   */\n  tag_85\n    /* \"#utility.yul\":1651:1658   */\n  dup12\n    /* \"#utility.yul\":1642:1648   */\n  dup3\n    /* \"#utility.yul\":1631:1640   */\n  dup13\n    /* \"#utility.yul\":1627:1649   */\n  add\n    /* \"#utility.yul\":1595:1659   */\n  tag_44\n  jump\t// in\ntag_85:\n    /* \"#utility.yul\":1585:1659   */\n  swap9\n  pop\n    /* \"#utility.yul\":1541:1669   */\n  pop\n    /* \"#utility.yul\":1708:1710   */\n  0x20\n    /* \"#utility.yul\":1734:1798   */\n  tag_86\n    /* \"#utility.yul\":1790:1797   */\n  dup12\n    /* \"#utility.yul\":1781:1787   */\n  dup3\n    /* \"#utility.yul\":1770:1779   */\n  dup13\n    /* \"#utility.yul\":1766:1788   */\n  add\n    /* \"#utility.yul\":1734:1798   */\n  tag_44\n  jump\t// in\ntag_86:\n    /* \"#utility.yul\":1724:1798   */\n  swap8\n  pop\n    /* \"#utility.yul\":1679:1808   */\n  pop\n    /* \"#utility.yul\":1847:1849   */\n  0x40\n    /* \"#utility.yul\":1873:1937   */\n  tag_87\n    /* \"#utility.yul\":1929:1936   */\n  dup12\n    /* \"#utility.yul\":1920:1926   */\n  dup3\n    /* \"#utility.yul\":1909:1918   */\n  dup13\n    /* \"#utility.yul\":1905:1927   */\n  add\n    /* \"#utility.yul\":1873:1937   */\n  tag_44\n  jump\t// in\ntag_87:\n    /* \"#utility.yul\":1863:1937   */\n  swap7\n  pop\n    /* \"#utility.yul\":1818:1947   */\n  pop\n    /* \"#utility.yul\":1986:1988   */\n  0x60\n    /* \"#utility.yul\":2012:2076   */\n  tag_88\n    /* \"#utility.yul\":2068:2075   */\n  dup12\n    /* \"#utility.yul\":2059:2065   */\n  dup3\n    /* \"#utility.yul\":2048:2057   */\n  dup13\n    /* \"#utility.yul\":2044:2066   */\n  add\n    /* \"#utility.yul\":2012:2076   */\n  tag_44\n  jump\t// in\ntag_88:\n    /* \"#utility.yul\":2002:2076   */\n  swap6\n  pop\n    /* \"#utility.yul\":1957:2086   */\n  pop\n    /* \"#utility.yul\":2125:2128   */\n  0x80\n    /* \"#utility.yul\":2152:2216   */\n  tag_89\n    /* \"#utility.yul\":2208:2215   */\n  dup12\n    /* \"#utility.yul\":2199:2205   */\n  dup3\n    /* \"#utility.yul\":2188:2197   */\n  dup13\n    /* \"#utility.yul\":2184:2206   */\n  add\n    /* \"#utility.yul\":2152:2216   */\n  tag_44\n  jump\t// in\ntag_89:\n    /* \"#utility.yul\":2142:2216   */\n  swap5\n  pop\n    /* \"#utility.yul\":2096:2226   */\n  pop\n    /* \"#utility.yul\":2265:2268   */\n  0xa0\n    /* \"#utility.yul\":2292:2356   */\n  tag_90\n    /* \"#utility.yul\":2348:2355   */\n  dup12\n    /* \"#utility.yul\":2339:2345   */\n  dup3\n    /* \"#utility.yul\":2328:2337   */\n  dup13\n    /* \"#utility.yul\":2324:2346   */\n  add\n    /* \"#utility.yul\":2292:2356   */\n  tag_44\n  jump\t// in\ntag_90:\n    /* \"#utility.yul\":2282:2356   */\n  swap4\n  pop\n    /* \"#utility.yul\":2236:2366   */\n  pop\n    /* \"#utility.yul\":2405:2408   */\n  0xc0\n    /* \"#utility.yul\":2432:2496   */\n  tag_91\n    /* \"#utility.yul\":2488:2495   */\n  dup12\n    /* \"#utility.yul\":2479:2485   */\n  dup3\n    /* \"#utility.yul\":2468:2477   */\n  dup13\n    /* \"#utility.yul\":2464:2486   */\n  add\n    /* \"#utility.yul\":2432:2496   */\n  tag_47\n  jump\t// in\ntag_91:\n    /* \"#utility.yul\":2422:2496   */\n  swap3\n  pop\n    /* \"#utility.yul\":2376:2506   */\n  pop\n    /* \"#utility.yul\":2545:2548   */\n  0xe0\n    /* \"#utility.yul\":2572:2636   */\n  tag_92\n    /* \"#utility.yul\":2628:2635   */\n  dup12\n    /* \"#utility.yul\":2619:2625   */\n  dup3\n    /* \"#utility.yul\":2608:2617   */\n  dup13\n    /* \"#utility.yul\":2604:2626   */\n  add\n    /* \"#utility.yul\":2572:2636   */\n  tag_44\n  jump\t// in\ntag_92:\n    /* \"#utility.yul\":2562:2636   */\n  swap2\n  pop\n    /* \"#utility.yul\":2516:2646   */\n  pop\n    /* \"#utility.yul\":1205:2653   */\n  swap3\n  swap6\n  swap9\n  pop\n  swap3\n  swap6\n  swap9\n  swap1\n  swap4\n  swap7\n  pop\n  jump\t// out\n    /* \"#utility.yul\":2659:2777   */\ntag_48:\n    /* \"#utility.yul\":2746:2770   */\n  tag_94\n    /* \"#utility.yul\":2764:2769   */\n  dup2\n    /* \"#utility.yul\":2746:2770   */\n  tag_42\n  jump\t// in\ntag_94:\n    /* \"#utility.yul\":2741:2744   */\n  dup3\n    /* \"#utility.yul\":2734:2771   */\n  mstore\n    /* \"#utility.yul\":2659:2777   */\n  pop\n  pop\n  jump\t// out\n    /* \"#utility.yul\":2783:3005   */\ntag_10:\n    /* \"#utility.yul\":2876:2880   */\n  0x00\n    /* \"#utility.yul\":2914:2916   */\n  0x20\n    /* \"#utility.yul\":2903:2912   */\n  dup3\n    /* \"#utility.yul\":2899:2917   */\n  add\n    /* \"#utility.yul\":2891:2917   */\n  swap1\n  pop\n    /* \"#utility.yul\":2927:2998   */\n  tag_96\n    /* \"#utility.yul\":2995:2996   */\n  0x00\n    /* \"#utility.yul\":2984:2993   */\n  dup4\n    /* \"#utility.yul\":2980:2997   */\n  add\n    /* \"#utility.yul\":2971:2977   */\n  dup5\n    /* \"#utility.yul\":2927:2998   */\n  tag_48\n  jump\t// in\ntag_96:\n    /* \"#utility.yul\":2783:3005   */\n  swap3\n  swap2\n  pop\n  pop\n  jump\t// out\n    /* \"#utility.yul\":3011:3180   */\ntag_49:\n    /* \"#utility.yul\":3095:3106   */\n  0x00\n    /* \"#utility.yul\":3129:3135   */\n  dup3\n    /* \"#utility.yul\":3124:3127   */\n  dup3\n    /* \"#utility.yul\":3117:3136   */\n  mstore\n    /* \"#utility.yul\":3169:3173   */\n  0x20\n    /* \"#utility.yul\":3164:3167   */\n  dup3\n    /* \"#utility.yul\":3160:3174   */\n  add\n    /* \"#utility.yul\":3145:3174   */\n  swap1\n  pop\n    /* \"#utility.yul\":3011:3180   */\n  swap3\n  swap2\n  pop\n  pop\n  jump\t// out\n    /* \"#utility.yul\":3186:3347   */\ntag_50:\n    /* \"#utility.yul\":3326:3339   */\n  0x746f6b656e30207a65726f000000000000000000000000000000000000000000\n    /* \"#utility.yul\":3322:3323   */\n  0x00\n    /* \"#utility.yul\":3314:3320   */\n  dup3\n    /* \"#utility.yul\":3310:3324   */\n  add\n    /* \"#utility.yul\":3303:3340   */\n  mstore\n    /* \"#utility.yul\":3186:3347   */\n  pop\n  jump\t// out\n    /* \"#utility.yul\":3353:3719   */\ntag_51:\n    /* \"#utility.yul\":3495:3498   */\n  0x00\n    /* \"#utility.yul\":3516:3583   */\n  tag_100\n    /* \"#utility.yul\":3580:3582   */\n  0x0b\n    /* \"#utility.yul\":3575:3578   */\n  dup4\n    /* \"#utility.yul\":3516:3583   */\n  tag_49\n  jump\t// in\ntag_100:\n    /* \"#utility.yul\":3509:3583   */\n  swap2\n  pop\n    /* \"#utility.yul\":3592:3685   */\n  tag_101\n    /* \"#utility.yul\":3681:3684   */\n  dup3\n    /* \"#utility.yul\":3592:3685   */\n  tag_50\n  jump\t// in\ntag_101:\n    /* \"#utility.yul\":3710:3712   */\n  0x20\n    /* \"#utility.yul\":3705:3708   */\n  dup3\n    /* \"#utility.yul\":3701:3713   */\n  add\n    /* \"#utility.yul\":3694:3713   */\n  swap1\n  pop\n    /* \"#utility.yul\":3353:3719   */\n  swap2\n  swap1\n  pop\n  jump\t// out\n    /* \"#utility.yul\":3725:4144   */\ntag_17:\n    /* \"#utility.yul\":3891:3895   */\n  0x00\n    /* \"#utility.yul\":3929:3931   */\n  0x20\n    /* \"#utility.yul\":3918:3927   */\n  dup3\n    /* \"#utility.yul\":3914:3932   */\n  add\n    /* \"#utility.yul\":3906:3932   */\n  swap1\n  pop\n    /* \"#utility.yul\":3978:3987   */\n  dup2\n    /* \"#utility.yul\":3972:3976   */\n  dup2\n    /* \"#utility.yul\":3968:3988   */\n  sub\n    /* \"#utility.yul\":3964:3965   */\n  0x00\n    /* \"#utility.yul\":3953:3962   */\n  dup4\n    /* \"#utility.yul\":3949:3966   */\n  add\n    /* \"#utility.yul\":3942:3989   */\n  mstore\n    /* \"#utility.yul\":4006:4137   */\n  tag_103\n    /* \"#utility.yul\":4132:4136   */\n  dup2\n    /* \"#utility.yul\":4006:4137   */\n  tag_51\n  jump\t// in\ntag_103:\n    /* \"#utility.yul\":3998:4137   */\n  swap1\n  pop\n    /* \"#utility.yul\":3725:4144   */\n  swap2\n  swap1\n  pop\n  jump\t// out\n    /* \"#utility.yul\":4150:4311   */\ntag_52:\n    /* \"#utility.yul\":4290:4303   */\n  0x746f6b656e31207a65726f000000000000000000000000000000000000000000\n    /* \"#utility.yul\":4286:4287   */\n  0x00\n    /* \"#utility.yul\":4278:4284   */\n  dup3\n    /* \"#utility.yul\":4274:4288   */\n  add\n    /* \"#utility.yul\":4267:4304   */\n  mstore\n    /* \"#utility.yul\":4150:4311   */\n  pop\n  jump\t// out\n    /* \"#utility.yul\":4317:4683   */\ntag_53:\n    /* \"#utility.yul\":4459:4462   */\n  0x00\n    /* \"#utility.yul\":4480:4547   */\n  tag_106\n    /* \"#utility.yul\":4544:4546   */\n  0x0b\n    /* \"#utility.yul\":4539:4542   */\n  dup4\n    /* \"#utility.yul\":4480:4547   */\n  tag_49\n  jump\t// in\ntag_106:\n    /* \"#utility.yul\":4473:4547   */\n  swap2\n  pop\n    /* \"#utility.yul\":4556:4649   */\n  tag_107\n    /* \"#utility.yul\":4645:4648   */\n  dup3\n    /* \"#utility.yul\":4556:4649   */\n  tag_52\n  jump\t// in\ntag_107:\n    /* \"#utility.yul\":4674:4676   */\n  0x20\n    /* \"#utility.yul\":4669:4672   */\n  dup3\n    /* \"#utility.yul\":4665:4677   */\n  add\n    /* \"#utility.yul\":4658:4677   */\n  swap1\n  pop\n    /* \"#utility.yul\":4317:4683   */\n  swap2\n  swap1\n  pop\n  jump\t// out\n    /* \"#utility.yul\":4689:5108   */\ntag_20:\n    /* \"#utility.yul\":4855:4859   */\n  0x00\n    /* \"#utility.yul\":4893:4895   */\n  0x20\n    /* \"#utility.yul\":4882:4891   */\n  dup3\n    /* \"#utility.yul\":4878:4896   */\n  add\n    /* \"#utility.yul\":4870:4896   */\n  swap1\n  pop\n    /* \"#utility.yul\":4942:4951   */\n  dup2\n    /* \"#utility.yul\":4936:4940   */\n  dup2\n    /* \"#utility.yul\":4932:4952   */\n  sub\n    /* \"#utility.yul\":4928:4929   */\n  0x00\n    /* \"#utility.yul\":4917:4926   */\n  dup4\n    /* \"#utility.yul\":4913:4930   */\n  add\n    /* \"#utility.yul\":4906:4953   */\n  mstore\n    /* \"#utility.yul\":4970:5101   */\n  tag_109\n    /* \"#utility.yul\":5096:5100   */\n  dup2\n    /* \"#utility.yul\":4970:5101   */\n  tag_53\n  jump\t// in\ntag_109:\n    /* \"#utility.yul\":4962:5101   */\n  swap1\n  pop\n    /* \"#utility.yul\":4689:5108   */\n  swap2\n  swap1\n  pop\n  jump\t// out\n    /* \"#utility.yul\":5114:5273   */\ntag_54:\n    /* \"#utility.yul\":5254:5265   */\n  0x636f7265207a65726f0000000000000000000000000000000000000000000000\n    /* \"#utility.yul\":5250:5251   */\n  0x00\n    /* \"#utility.yul\":5242:5248   */\n  dup3\n    /* \"#utility.yul\":5238:5252   */\n  add\n    /* \"#utility.yul\":5231:5266   */\n  mstore\n    /* \"#utility.yul\":5114:5273   */\n  pop\n  jump\t// out\n    /* \"#utility.yul\":5279:5644   */\ntag_55:\n    /* \"#utility.yul\":5421:5424   */\n  0x00\n    /* \"#utility.yul\":5442:5508   */\n  tag_112\n    /* \"#utility.yul\":5506:5507   */\n  0x09\n    /* \"#utility.yul\":5501:5504   */\n  dup4\n    /* \"#utility.yul\":5442:5508   */\n  tag_49\n  jump\t// in\ntag_112:\n    /* \"#utility.yul\":5435:5508   */\n  swap2\n  pop\n    /* \"#utility.yul\":5517:5610   */\n  tag_113\n    /* \"#utility.yul\":5606:5609   */\n  dup3\n    /* \"#utility.yul\":5517:5610   */\n  tag_54\n  jump\t// in\ntag_113:\n    /* \"#utility.yul\":5635:5637   */\n  0x20\n    /* \"#utility.yul\":5630:5633   */\n  dup3\n    /* \"#utility.yul\":5626:5638   */\n  add\n    /* \"#utility.yul\":5619:5638   */\n  swap1\n  pop\n    /* \"#utility.yul\":5279:5644   */\n  swap2\n  swap1\n  pop\n  jump\t// out\n    /* \"#utility.yul\":5650:6069   */\ntag_23:\n    /* \"#utility.yul\":5816:5820   */\n  0x00\n    /* \"#utility.yul\":5854:5856   */\n  0x20\n    /* \"#utility.yul\":5843:5852   */\n  dup3\n    /* \"#utility.yul\":5839:5857   */\n  add\n    /* \"#utility.yul\":5831:5857   */\n  swap1\n  pop\n    /* \"#utility.yul\":5903:5912   */\n  dup2\n    /* \"#utility.yul\":5897:5901   */\n  dup2\n    /* \"#utility.yul\":5893:5913   */\n  sub\n    /* \"#utility.yul\":5889:5890   */\n  0x00\n    /* \"#utility.yul\":5878:5887   */\n  dup4\n    /* \"#utility.yul\":5874:5891   */\n  add\n    /* \"#utility.yul\":5867:5914   */\n  mstore\n    /* \"#utility.yul\":5931:6062   */\n  tag_115\n    /* \"#utility.yul\":6057:6061   */\n  dup2\n    /* \"#utility.yul\":5931:6062   */\n  tag_55\n  jump\t// in\ntag_115:\n    /* \"#utility.yul\":5923:6062   */\n  swap1\n  pop\n    /* \"#utility.yul\":5650:6069   */\n  swap2\n  swap1\n  pop\n  jump\t// out\n    /* \"#utility.yul\":6075:6236   */\ntag_56:\n    /* \"#utility.yul\":6215:6228   */\n  0x726577617264207a65726f000000000000000000000000000000000000000000\n    /* \"#utility.yul\":6211:6212   */\n  0x00\n    /* \"#utility.yul\":6203:6209   */\n  dup3\n    /* \"#utility.yul\":6199:6213   */\n  add\n    /* \"#utility.yul\":6192:6229   */\n  mstore\n    /* \"#utility.yul\":6075:6236   */\n  pop\n  jump\t// out\n    /* \"#utility.yul\":6242:6608   */\ntag_57:\n    /* \"#utility.yul\":6384:6387   */\n  0x00\n    /* \"#utility.yul\":6405:6472   */\n  tag_118\n    /* \"#utility.yul\":6469:6471   */\n  0x0b\n    /* \"#utility.yul\":6464:6467   */\n  dup4\n    /* \"#utility.yul\":6405:6472   */\n  tag_49\n  jump\t// in\ntag_118:\n    /* \"#utility.yul\":6398:6472   */\n  swap2\n  pop\n    /* \"#utility.yul\":6481:6574   */\n  tag_119\n    /* \"#utility.yul\":6570:6573   */\n  dup3\n    /* \"#utility.yul\":6481:6574   */\n  tag_56\n  jump\t// in\ntag_119:\n    /* \"#utility.yul\":6599:6601   */\n  0x20\n    /* \"#utility.yul\":6594:6597   */\n  dup3\n    /* \"#utility.yul\":6590:6602   */\n  add\n    /* \"#utility.yul\":6583:6602   */\n  swap1\n  pop\n    /* \"#utility.yul\":6242:6608   */\n  swap2\n  swap1\n  pop\n  jump\t// out\n    /* \"#utility.yul\":6614:7033   */\ntag_26:\n    /* \"#utility.yul\":6780:6784   */\n  0x00\n    /* \"#utility.yul\":6818:6820   */\n  0x20\n    /* \"#utility.yul\":6807:6816   */\n  dup3\n    /* \"#utility.yul\":6803:6821   */\n  add\n    /* \"#utility.yul\":6795:6821   */\n  swap1\n  pop\n    /* \"#utility.yul\":6867:6876   */\n  dup2\n    /* \"#utility.yul\":6861:6865   */\n  dup2\n    /* \"#utility.yul\":6857:6877   */\n  sub\n    /* \"#utility.yul\":6853:6854   */\n  0x00\n    /* \"#utility.yul\":6842:6851   */\n  dup4\n    /* \"#utility.yul\":6838:6855   */\n  add\n    /* \"#utility.yul\":6831:6878   */\n  mstore\n    /* \"#utility.yul\":6895:7026   */\n  tag_121\n    /* \"#utility.yul\":7021:7025   */\n  dup2\n    /* \"#utility.yul\":6895:7026   */\n  tag_57\n  jump\t// in\ntag_121:\n    /* \"#utility.yul\":6887:7026   */\n  swap1\n  pop\n    /* \"#utility.yul\":6614:7033   */\n  swap2\n  swap1\n  pop\n  jump\t// out\n    /* \"#utility.yul\":7039:7198   */\ntag_58:\n    /* \"#utility.yul\":7179:7190   */\n  0x6661726d207a65726f0000000000000000000000000000000000000000000000\n    /* \"#utility.yul\":7175:7176   */\n  0x00\n    /* \"#utility.yul\":7167:7173   */\n  dup3\n    /* \"#utility.yul\":7163:7177   */\n  add\n    /* \"#utility.yul\":7156:7191   */\n  mstore\n    /* \"#utility.yul\":7039:7198   */\n  pop\n  jump\t// out\n    /* \"#utility.yul\":7204:7569   */\ntag_59:\n    /* \"#utility.yul\":7346:7349   */\n  0x00\n    /* \"#utility.yul\":7367:7433   */\n  tag_124\n    /* \"#utility.yul\":7431:7432   */\n  0x09\n    /* \"#utility.yul\":7426:7429   */\n  dup4\n    /* \"#utility.yul\":7367:7433   */\n  tag_49\n  jump\t// in\ntag_124:\n    /* \"#utility.yul\":7360:7433   */\n  swap2\n  pop\n    /* \"#utility.yul\":7442:7535   */\n  tag_125\n    /* \"#utility.yul\":7531:7534   */\n  dup3\n    /* \"#utility.yul\":7442:7535   */\n  tag_58\n  jump\t// in\ntag_125:\n    /* \"#utility.yul\":7560:7562   */\n  0x20\n    /* \"#utility.yul\":7555:7558   */\n  dup3\n    /* \"#utility.yul\":7551:7563   */\n  add\n    /* \"#utility.yul\":7544:7563   */\n  swap1\n  pop\n    /* \"#utility.yul\":7204:7569   */\n  swap2\n  swap1\n  pop\n  jump\t// out\n    /* \"#utility.yul\":7575:7994   */\ntag_29:\n    /* \"#utility.yul\":7741:7745   */\n  0x00\n    /* \"#utility.yul\":7779:7781   */\n  0x20\n    /* \"#utility.yul\":7768:7777   */\n  dup3\n    /* \"#utility.yul\":7764:7782   */\n  add\n    /* \"#utility.yul\":7756:7782   */\n  swap1\n  pop\n    /* \"#utility.yul\":7828:7837   */\n  dup2\n    /* \"#utility.yul\":7822:7826   */\n  dup2\n    /* \"#utility.yul\":7818:7838   */\n  sub\n    /* \"#utility.yul\":7814:7815   */\n  0x00\n    /* \"#utility.yul\":7803:7812   */\n  dup4\n    /* \"#utility.yul\":7799:7816   */\n  add\n    /* \"#utility.yul\":7792:7839   */\n  mstore\n    /* \"#utility.yul\":7856:7987   */\n  tag_127\n    /* \"#utility.yul\":7982:7986   */\n  dup2\n    /* \"#utility.yul\":7856:7987   */\n  tag_59\n  jump\t// in\ntag_127:\n    /* \"#utility.yul\":7848:7987   */\n  swap1\n  pop\n    /* \"#utility.yul\":7575:7994   */\n  swap2\n  swap1\n  pop\n  jump\t// out\n    /* \"#utility.yul\":8000:8161   */\ntag_60:\n    /* \"#utility.yul\":8140:8153   */\n  0x726f75746572207a65726f000000000000000000000000000000000000000000\n    /* \"#utility.yul\":8136:8137   */\n  0x00\n    /* \"#utility.yul\":8128:8134   */\n  dup3\n    /* \"#utility.yul\":8124:8138   */\n  add\n    /* \"#utility.yul\":8117:8154   */\n  mstore\n    /* \"#utility.yul\":8000:8161   */\n  pop\n  jump\t// out\n    /* \"#utility.yul\":8167:8533   */\ntag_61:\n    /* \"#utility.yul\":8309:8312   */\n  0x00\n    /* \"#utility.yul\":8330:8397   */\n  tag_130\n    /* \"#utility.yul\":8394:8396   */\n  0x0b\n    /* \"#utility.yul\":8389:8392   */\n  dup4\n    /* \"#utility.yul\":8330:8397   */\n  tag_49\n  jump\t// in\ntag_130:\n    /* \"#utility.yul\":8323:8397   */\n  swap2\n  pop\n    /* \"#utility.yul\":8406:8499   */\n  tag_131\n    /* \"#utility.yul\":8495:8498   */\n  dup3\n    /* \"#utility.yul\":8406:8499   */\n  tag_60\n  jump\t// in\ntag_131:\n    /* \"#utility.yul\":8524:8526   */\n  0x20\n    /* \"#utility.yul\":8519:8522   */\n  dup3\n    /* \"#utility.yul\":8515:8527   */\n  add\n    /* \"#utility.yul\":8508:8527   */\n  swap1\n  pop\n    /* \"#utility.yul\":8167:8533   */\n  swap2\n  swap1\n  pop\n  jump\t// out\n    /* \"#utility.yul\":8539:8958   */\ntag_32:\n    /* \"#utility.yul\":8705:8709   */\n  0x00\n    /* \"#utility.yul\":8743:8745   */\n  0x20\n    /* \"#utility.yul\":8732:8741   */\n  dup3\n    /* \"#utility.yul\":8728:8746   */\n  add\n    /* \"#utility.yul\":8720:8746   */\n  swap1\n  pop\n    /* \"#utility.yul\":8792:8801   */\n  dup2\n    /* \"#utility.yul\":8786:8790   */\n  dup2\n    /* \"#utility.yul\":8782:8802   */\n  sub\n    /* \"#utility.yul\":8778:8779   */\n  0x00\n    /* \"#utility.yul\":8767:8776   */\n  dup4\n    /* \"#utility.yul\":8763:8780   */\n  add\n    /* \"#utility.yul\":8756:8803   */\n  mstore\n    /* \"#utility.yul\":8820:8951   */\n  tag_133\n    /* \"#utility.yul\":8946:8950   */\n  dup2\n    /* \"#utility.yul\":8820:8951   */\n  tag_61\n  jump\t// in\ntag_133:\n    /* \"#utility.yul\":8812:8951   */\n  swap1\n  pop\n    /* \"#utility.yul\":8539:8958   */\n  swap2\n  swap1\n  pop\n  jump\t// out\n    /* \"#utility.yul\":8964:9127   */\ntag_62:\n    /* \"#utility.yul\":9104:9119   */\n  0x7472656173757279207a65726f00000000000000000000000000000000000000\n    /* \"#utility.yul\":9100:9101   */\n  0x00\n    /* \"#utility.yul\":9092:9098   */\n  dup3\n    /* \"#utility.yul\":9088:9102   */\n  add\n    /* \"#utility.yul\":9081:9120   */\n  mstore\n    /* \"#utility.yul\":8964:9127   */\n  pop\n  jump\t// out\n    /* \"#utility.yul\":9133:9499   */\ntag_63:\n    /* \"#utility.yul\":9275:9278   */\n  0x00\n    /* \"#utility.yul\":9296:9363   */\n  tag_136\n    /* \"#utility.yul\":9360:9362   */\n  0x0d\n    /* \"#utility.yul\":9355:9358   */\n  dup4\n    /* \"#utility.yul\":9296:9363   */\n  tag_49\n  jump\t// in\ntag_136:\n    /* \"#utility.yul\":9289:9363   */\n  swap2\n  pop\n    /* \"#utility.yul\":9372:9465   */\n  tag_137\n    /* \"#utility.yul\":9461:9464   */\n  dup3\n    /* \"#utility.yul\":9372:9465   */\n  tag_62\n  jump\t// in\ntag_137:\n    /* \"#utility.yul\":9490:9492   */\n  0x20\n    /* \"#utility.yul\":9485:9488   */\n  dup3\n    /* \"#utility.yul\":9481:9493   */\n  add\n    /* \"#utility.yul\":9474:9493   */\n  swap1\n  pop\n    /* \"#utility.yul\":9133:9499   */\n  swap2\n  swap1\n  pop\n  jump\t// out\n    /* \"#utility.yul\":9505:9924   */\ntag_35:\n    /* \"#utility.yul\":9671:9675   */\n  0x00\n    /* \"#utility.yul\":9709:9711   */\n  0x20\n    /* \"#utility.yul\":9698:9707   */\n  dup3\n    /* \"#utility.yul\":9694:9712   */\n  add\n    /* \"#utility.yul\":9686:9712   */\n  swap1\n  pop\n    /* \"#utility.yul\":9758:9767   */\n  dup2\n    /* \"#utility.yul\":9752:9756   */\n  dup2\n    /* \"#utility.yul\":9748:9768   */\n  sub\n    /* \"#utility.yul\":9744:9745   */\n  0x00\n    /* \"#utility.yul\":9733:9742   */\n  dup4\n    /* \"#utility.yul\":9729:9746   */\n  add\n    /* \"#utility.yul\":9722:9769   */\n  mstore\n    /* \"#utility.yul\":9786:9917   */\n  tag_139\n    /* \"#utility.yul\":9912:9916   */\n  dup2\n    /* \"#utility.yul\":9786:9917   */\n  tag_63\n  jump\t// in\ntag_139:\n    /* \"#utility.yul\":9778:9917   */\n  swap1\n  pop\n    /* \"#utility.yul\":9505:9924   */\n  swap2\n  swap1\n  pop\n  jump\t// out\n    /* \"contracts/ZephyrosVault/ZephyrosVault.sol\":1726:11208  contract ZephyrosCoreBurnVault is Ownable, ReentrancyGuard {... */\ntag_36:\n  mload(0x80)\n  mload(0xa0)\n  mload(0xc0)\n  mload(0xe0)\n  mload(0x0100)\n  mload(0x0120)\n  mload(0x0140)\n  mload(0x0160)\n  codecopy(0x00, dataOffset(sub_0), dataSize(sub_0))\n  0x00\n  assignImmutable(\"0xbdf07588e6652aaee28b29156c2ae266c9ba46e253ddd99b466cce31f77c51a3\")\n  0x00\n  assignImmutable(\"0x6fadbaf86d2aa9c9e34a85df385a2c9afa9509e09756634e72bbcf94a5ceb213\")\n  0x00\n  assignImmutable(\"0x2f5ccb30fa919306cd2899a81c7670a9b1be09e8c15a0b78b0fbbc777d15e97b\")\n  0x00\n  assignImmutable(\"0x425a3d65e6c6cbbf01507814af1ac7512f93cceb8411381e1d5fb7adbfd44881\")\n  0x00\n  assignImmutable(\"0xf65e3ff0de05ca77aa8c820bd528facc139ee4b0986f7c350f3198928bd2c72b\")\n  0x00\n  assignImmutable(\"0xac09810740600c31fa69f9db79ed6fc3e3281f758a950fe1fb254a3a3ae571b6\")\n  0x00\n  assignImmutable(\"0xb9aa4ff60d3edb7fbc3b53bd780c9274ed80a5ba1a237d38b011edab2b031b4a\")\n  0x00\n  assignImmutable(\"0xc792330a4f225cb27dfcf04335b51be24e1e574b19d83989f6006ef18804cbcb\")\n  return(0x00, dataSize(sub_0))\nstop\n\nsub_0: assembly {\n        /* \"contracts/ZephyrosVault/ZephyrosVault.sol\":1726:11208  contract ZephyrosCoreBurnVault is Ownable, ReentrancyGuard {... */\n      mstore(0x40, 0x80)\n      callvalue\n      dup1\n      iszero\n      tag_1\n      jumpi\n      0x00\n      dup1\n      revert\n    tag_1:\n      pop\n      jumpi(tag_2, lt(calldatasize, 0x04))\n      shr(0xe0, calldataload(0x00))\n      dup1\n      0x700cd48e\n      gt\n      tag_32\n      jumpi\n      dup1\n      0xaaf5eb68\n      gt\n      tag_33\n      jumpi\n      dup1\n      0xf2fde38b\n      gt\n      tag_34\n      jumpi\n      dup1\n      0xf2fde38b\n      eq\n      tag_28\n      jumpi\n      dup1\n      0xf7c618c1\n      eq\n      tag_29\n      jumpi\n      dup1\n      0xf887ea40\n      eq\n      tag_30\n      jumpi\n      dup1\n      0xfccc2813\n      eq\n      tag_31\n      jumpi\n      jump(tag_2)\n    tag_34:\n      dup1\n      0xaaf5eb68\n      eq\n      tag_24\n      jumpi\n      dup1\n      0xd21220a7\n      eq\n      tag_25\n      jumpi\n      dup1\n      0xf0f44260\n      eq\n      tag_26\n      jumpi\n      dup1\n      0xf2f4eb26\n      eq\n      tag_27\n      jumpi\n      jump(tag_2)\n    tag_33:\n      dup1\n      0x8da5cb5b\n      gt\n      tag_35\n      jumpi\n      dup1\n      0x8da5cb5b\n      eq\n      tag_20\n      jumpi\n      dup1\n      0x8e3a7d84\n      eq\n      tag_21\n      jumpi\n      dup1\n      0xa372630d\n      eq\n      tag_22\n      jumpi\n      dup1\n      0xa87430ba\n      eq\n      tag_23\n      jumpi\n      jump(tag_2)\n    tag_35:\n      dup1\n      0x700cd48e\n      eq\n      tag_17\n      jumpi\n      dup1\n      0x715018a6\n      eq\n      tag_18\n      jumpi\n      dup1\n      0x82328ffc\n      eq\n      tag_19\n      jumpi\n      jump(tag_2)\n    tag_32:\n      dup1\n      0x2e1a7d4d\n      gt\n      tag_36\n      jumpi\n      dup1\n      0x53deb3d6\n      gt\n      tag_37\n      jumpi\n      dup1\n      0x53deb3d6\n      eq\n      tag_13\n      jumpi\n      dup1\n      0x54e5cf76\n      eq\n      tag_14\n      jumpi\n      dup1\n      0x61d027b3\n      eq\n      tag_15\n      jumpi\n      dup1\n      0x6b8aceb8\n      eq\n      tag_16\n      jumpi\n      jump(tag_2)\n    tag_37:\n      dup1\n      0x2e1a7d4d\n      eq\n      tag_10\n      jumpi\n      dup1\n      0x485d3834\n      eq\n      tag_11\n      jumpi\n      dup1\n      0x4dc10ea1\n      eq\n      tag_12\n      jumpi\n      jump(tag_2)\n    tag_36:\n      dup1\n      0x15770f92\n      gt\n      tag_38\n      jumpi\n      dup1\n      0x15770f92\n      eq\n      tag_6\n      jumpi\n      dup1\n      0x278de000\n      eq\n      tag_7\n      jumpi\n      dup1\n      0x27bd6e39\n      eq\n      tag_8\n      jumpi\n      dup1\n      0x2da5ff09\n      eq\n      tag_9\n      jumpi\n      jump(tag_2)\n    tag_38:\n      dup1\n      0xaeef8a\n      eq\n      tag_3\n      jumpi\n      dup1\n      0x0117f00e\n      eq\n      tag_4\n      jumpi\n      dup1\n      0x0dfe1681\n      eq\n      tag_5\n      jumpi\n    tag_2:\n      0x00\n      dup1\n      revert\n        /* \"contracts/ZephyrosVault/ZephyrosVault.sol\":4377:6397  function deposit(... */\n    tag_3:\n      tag_39\n      0x04\n      dup1\n      calldatasize\n      sub\n      dup2\n      add\n      swap1\n      tag_40\n      swap2\n      swap1\n      tag_41\n      jump\t// in\n    tag_40:\n      tag_42\n      jump\t// in\n    tag_39:\n      stop\n        /* \"contracts/ZephyrosVault/ZephyrosVault.sol\":2521:2555  uint256 public accCorePerLiquidity */\n    tag_4:\n      tag_43\n      tag_44\n      jump\t// in\n    tag_43:\n      mload(0x40)\n      tag_45\n      swap2\n      swap1\n      tag_46\n      jump\t// in\n    tag_45:\n      mload(0x40)\n      dup1\n      swap2\n      sub\n      swap1\n      return\n        /* \"contracts/ZephyrosVault/ZephyrosVault.sol\":2131:2161  IERC20 public immutable token0 */\n    tag_5:\n      tag_47\n      tag_48\n      jump\t// in\n    tag_47:\n      mload(0x40)\n      tag_49\n      swap2\n      swap1\n      tag_50\n      jump\t// in\n    tag_49:\n      mload(0x40)\n      dup1\n      swap2\n      sub\n      swap1\n      return\n        /* \"contracts/ZephyrosVault/ZephyrosVault.sol\":2485:2514  uint256 public totalLiquidity */\n    tag_6:\n      tag_51\n      tag_52\n      jump\t// in\n    tag_51:\n      mload(0x40)\n      tag_53\n      swap2\n      swap1\n      tag_46\n      jump\t// in\n    tag_53:\n      mload(0x40)\n      dup1\n      swap2\n      sub\n      swap1\n      return\n        /* \"contracts/ZephyrosVault/ZephyrosVault.sol\":2415:2446  uint256 public immutable farmId */\n    tag_7:\n      tag_54\n      tag_55\n      jump\t// in\n    tag_54:\n      mload(0x40)\n      tag_56\n      swap2\n      swap1\n      tag_46\n      jump\t// in\n    tag_56:\n      mload(0x40)\n      dup1\n      swap2\n      sub\n      swap1\n      return\n        /* \"contracts/ZephyrosVault/ZephyrosVault.sol\":9138:9475  function pendingCoreRewards(address account) public view returns (uint256) {... */\n    tag_8:\n      tag_57\n      0x04\n      dup1\n      calldatasize\n      sub\n      dup2\n      add\n      swap1\n      tag_58\n      swap2\n      swap1\n      tag_59\n      jump\t// in\n    tag_58:\n      tag_60\n      jump\t// in\n    tag_57:\n      mload(0x40)\n      tag_61\n      swap2\n      swap1\n      tag_46\n      jump\t// in\n    tag_61:\n      mload(0x40)\n      dup1\n      swap2\n      sub\n      swap1\n      return\n        /* \"contracts/ZephyrosVault/ZephyrosVault.sol\":7462:9024  function harvest(... */\n    tag_9:\n      tag_62\n      0x04\n      dup1\n      calldatasize\n      sub\n      dup2\n      add\n      swap1\n      tag_63\n      swap2\n      swap1\n      tag_64\n      jump\t// in\n    tag_63:\n      tag_65\n      jump\t// in\n    tag_62:\n      stop\n        /* \"contracts/ZephyrosVault/ZephyrosVault.sol\":6405:7454  function withdraw(uint256 liquidityAmount) external nonReentrant {... */\n    tag_10:\n      tag_66\n      0x04\n      dup1\n      calldatasize\n      sub\n      dup2\n      add\n      swap1\n      tag_67\n      swap2\n      swap1\n      tag_68\n      jump\t// in\n    tag_67:\n      tag_69\n      jump\t// in\n    tag_66:\n      stop\n        /* \"contracts/ZephyrosVault/ZephyrosVault.sol\":1874:1921  uint256 public constant LOCK_DURATION = 90 days */\n    tag_11:\n      tag_70\n      tag_71\n      jump\t// in\n    tag_70:\n      mload(0x40)\n      tag_72\n      swap2\n      swap1\n      tag_46\n      jump\t// in\n    tag_72:\n      mload(0x40)\n      dup1\n      swap2\n      sub\n      swap1\n      return\n        /* \"contracts/ZephyrosVault/ZephyrosVault.sol\":2024:2057  uint256 public treasuryBps = 1500 */\n    tag_12:\n      tag_73\n      tag_74\n      jump\t// in\n    tag_73:\n      mload(0x40)\n      tag_75\n      swap2\n      swap1\n      tag_46\n      jump\t// in\n    tag_75:\n      mload(0x40)\n      dup1\n      swap2\n      sub\n      swap1\n      return\n        /* \"contracts/ZephyrosVault/ZephyrosVault.sol\":1930:1959  uint256 public burnBps = 4000 */\n    tag_13:\n      tag_76\n      tag_77\n      jump\t// in\n    tag_76:\n      mload(0x40)\n      tag_78\n      swap2\n      swap1\n      tag_46\n      jump\t// in\n    tag_78:\n      mload(0x40)\n      dup1\n      swap2\n      sub\n      swap1\n      return\n        /* \"contracts/ZephyrosVault/ZephyrosVault.sol\":2240:2276  ICoreToken public immutable coreBurn */\n    tag_14:\n      tag_79\n      tag_80\n      jump\t// in\n    tag_79:\n      mload(0x40)\n      tag_81\n      swap2\n      swap1\n      tag_82\n      jump\t// in\n    tag_81:\n      mload(0x40)\n      dup1\n      swap2\n      sub\n      swap1\n      return\n        /* \"contracts/ZephyrosVault/ZephyrosVault.sol\":2453:2476  address public treasury */\n    tag_15:\n      tag_83\n      tag_84\n      jump\t// in\n    tag_83:\n      mload(0x40)\n      tag_85\n      swap2\n      swap1\n      tag_86\n      jump\t// in\n    tag_85:\n      mload(0x40)\n      dup1\n      swap2\n      sub\n      swap1\n      return\n        /* \"contracts/ZephyrosVault/ZephyrosVault.sol\":2327:2368  IElectroFarm public immutable electroFarm */\n    tag_16:\n      tag_87\n      tag_88\n      jump\t// in\n    tag_87:\n      mload(0x40)\n      tag_89\n      swap2\n      swap1\n      tag_90\n      jump\t// in\n    tag_89:\n      mload(0x40)\n      dup1\n      swap2\n      sub\n      swap1\n      return\n        /* \"contracts/ZephyrosVault/ZephyrosVault.sol\":10628:11039  function setSplits(... */\n    tag_17:\n      tag_91\n      0x04\n      dup1\n      calldatasize\n      sub\n      dup2\n      add\n      swap1\n      tag_92\n      swap2\n      swap1\n      tag_41\n      jump\t// in\n    tag_92:\n      tag_93\n      jump\t// in\n    tag_91:\n      stop\n        /* \"https://github.com/OpenZeppelin/openzeppelin-contracts/blob/v5.4.0/contracts/access/Ownable.sol\":2293:2394  function renounceOwnership() public virtual onlyOwner {... */\n    tag_18:\n      tag_94\n      tag_95\n      jump\t// in\n    tag_94:\n      stop\n        /* \"contracts/ZephyrosVault/ZephyrosVault.sol\":1977:2008  uint256 public rewardBps = 4500 */\n    tag_19:\n      tag_96\n      tag_97\n      jump\t// in\n    tag_96:\n      mload(0x40)\n      tag_98\n      swap2\n      swap1\n      tag_46\n      jump\t// in\n    tag_98:\n      mload(0x40)\n      dup1\n      swap2\n      sub\n      swap1\n      return\n        /* \"https://github.com/OpenZeppelin/openzeppelin-contracts/blob/v5.4.0/contracts/access/Ownable.sol\":1638:1723  function owner() public view virtual returns (address) {... */\n    tag_20:\n      tag_99\n      tag_100\n      jump\t// in\n    tag_99:\n      mload(0x40)\n      tag_101\n      swap2\n      swap1\n      tag_86\n      jump\t// in\n    tag_101:\n      mload(0x40)\n      dup1\n      swap2\n      sub\n      swap1\n      return\n        /* \"contracts/ZephyrosVault/ZephyrosVault.sol\":9483:9780  function isCharacterEligible(address account) external view returns (bool) {... */\n    tag_21:\n      tag_102\n      0x04\n      dup1\n      calldatasize\n      sub\n      dup2\n      add\n      swap1\n      tag_103\n      swap2\n      swap1\n      tag_59\n      jump\t// in\n    tag_103:\n      tag_104\n      jump\t// in\n    tag_102:\n      mload(0x40)\n      tag_105\n      swap2\n      swap1\n      tag_106\n      jump\t// in\n    tag_105:\n      mload(0x40)\n      dup1\n      swap2\n      sub\n      swap1\n      return\n        /* \"contracts/ZephyrosVault/ZephyrosVault.sol\":9032:9130  function claimCoreRewards() external nonReentrant {... */\n    tag_22:\n      tag_107\n      tag_108\n      jump\t// in\n    tag_107:\n      stop\n        /* \"contracts/ZephyrosVault/ZephyrosVault.sol\":2733:2774  mapping(address => UserInfo) public users */\n    tag_23:\n      tag_109\n      0x04\n      dup1\n      calldatasize\n      sub\n      dup2\n      add\n      swap1\n      tag_110\n      swap2\n      swap1\n      tag_59\n      jump\t// in\n    tag_110:\n      tag_111\n      jump\t// in\n    tag_109:\n      mload(0x40)\n      tag_112\n      swap6\n      swap5\n      swap4\n      swap3\n      swap2\n      swap1\n      tag_113\n      jump\t// in\n    tag_112:\n      mload(0x40)\n      dup1\n      swap2\n      sub\n      swap1\n      return\n        /* \"contracts/ZephyrosVault/ZephyrosVault.sol\":1827:1867  uint256 public constant PRECISION = 1e18 */\n    tag_24:\n      tag_114\n      tag_115\n      jump\t// in\n    tag_114:\n      mload(0x40)\n      tag_116\n      swap2\n      swap1\n      tag_46\n      jump\t// in\n    tag_116:\n      mload(0x40)\n      dup1\n      swap2\n      sub\n      swap1\n      return\n        /* \"contracts/ZephyrosVault/ZephyrosVault.sol\":2168:2198  IERC20 public immutable token1 */\n    tag_25:\n      tag_117\n      tag_118\n      jump\t// in\n    tag_117:\n      mload(0x40)\n      tag_119\n      swap2\n      swap1\n      tag_50\n      jump\t// in\n    tag_119:\n      mload(0x40)\n      dup1\n      swap2\n      sub\n      swap1\n      return\n        /* \"contracts/ZephyrosVault/ZephyrosVault.sol\":11047:11205  function setTreasury(address _treasury) external onlyOwner {... */\n    tag_26:\n      tag_120\n      0x04\n      dup1\n      calldatasize\n      sub\n      dup2\n      add\n      swap1\n      tag_121\n      swap2\n      swap1\n      tag_59\n      jump\t// in\n    tag_121:\n      tag_122\n      jump\t// in\n    tag_120:\n      stop\n        /* \"contracts/ZephyrosVault/ZephyrosVault.sol\":2205:2233  IERC20 public immutable core */\n    tag_27:\n      tag_123\n      tag_124\n      jump\t// in\n    tag_123:\n      mload(0x40)\n      tag_125\n      swap2\n      swap1\n      tag_50\n      jump\t// in\n    tag_125:\n      mload(0x40)\n      dup1\n      swap2\n      sub\n      swap1\n      return\n        /* \"https://github.com/OpenZeppelin/openzeppelin-contracts/blob/v5.4.0/contracts/access/Ownable.sol\":2543:2758  function transferOwnership(address newOwner) public virtual onlyOwner {... */\n    tag_28:\n      tag_126\n      0x04\n      dup1\n      calldatasize\n      sub\n      dup2\n      add\n      swap1\n      tag_127\n      swap2\n      swap1\n      tag_59\n      jump\t// in\n    tag_127:\n      tag_128\n      jump\t// in\n    tag_126:\n      stop\n        /* \"contracts/ZephyrosVault/ZephyrosVault.sol\":2283:2318  IERC20 public immutable rewardToken */\n    tag_29:\n      tag_129\n      tag_130\n      jump\t// in\n    tag_129:\n      mload(0x40)\n      tag_131\n      swap2\n      swap1\n      tag_50\n      jump\t// in\n    tag_131:\n      mload(0x40)\n      dup1\n      swap2\n      sub\n      swap1\n      return\n        /* \"contracts/ZephyrosVault/ZephyrosVault.sol\":2375:2406  IRouter public immutable router */\n    tag_30:\n      tag_132\n      tag_133\n      jump\t// in\n    tag_132:\n      mload(0x40)\n      tag_134\n      swap2\n      swap1\n      tag_135\n      jump\t// in\n    tag_134:\n      mload(0x40)\n      dup1\n      swap2\n      sub\n      swap1\n      return\n        /* \"contracts/ZephyrosVault/ZephyrosVault.sol\":2073:2122  address public constant BURN_ADDRESS = address(0) */\n    tag_31:\n      tag_136\n      tag_137\n      jump\t// in\n    tag_136:\n      mload(0x40)\n      tag_138\n      swap2\n      swap1\n      tag_86\n      jump\t// in\n    tag_138:\n      mload(0x40)\n      dup1\n      swap2\n      sub\n      swap1\n      return\n        /* \"contracts/ZephyrosVault/ZephyrosVault.sol\":4377:6397  function deposit(... */\n    tag_42:\n        /* \"https://github.com/OpenZeppelin/openzeppelin-contracts/blob/v5.4.0/contracts/utils/ReentrancyGuard.sol\":2500:2521  _nonReentrantBefore() */\n      tag_140\n        /* \"https://github.com/OpenZeppelin/openzeppelin-contracts/blob/v5.4.0/contracts/utils/ReentrancyGuard.sol\":2500:2519  _nonReentrantBefore */\n      tag_141\n        /* \"https://github.com/OpenZeppelin/openzeppelin-contracts/blob/v5.4.0/contracts/utils/ReentrancyGuard.sol\":2500:2521  _nonReentrantBefore() */\n      jump\t// in\n    tag_140:\n        /* \"contracts/ZephyrosVault/ZephyrosVault.sol\":4537:4538  0 */\n      0x00\n        /* \"contracts/ZephyrosVault/ZephyrosVault.sol\":4527:4534  amount0 */\n      dup4\n        /* \"contracts/ZephyrosVault/ZephyrosVault.sol\":4527:4538  amount0 > 0 */\n      gt\n        /* \"contracts/ZephyrosVault/ZephyrosVault.sol\":4527:4553  amount0 > 0 && amount1 > 0 */\n      dup1\n      iszero\n      tag_143\n      jumpi\n      pop\n        /* \"contracts/ZephyrosVault/ZephyrosVault.sol\":4552:4553  0 */\n      0x00\n        /* \"contracts/ZephyrosVault/ZephyrosVault.sol\":4542:4549  amount1 */\n      dup3\n        /* \"contracts/ZephyrosVault/ZephyrosVault.sol\":4542:4553  amount1 > 0 */\n      gt\n        /* \"contracts/ZephyrosVault/ZephyrosVault.sol\":4527:4553  amount0 > 0 && amount1 > 0 */\n    tag_143:\n        /* \"contracts/ZephyrosVault/ZephyrosVault.sol\":4519:4570  require(amount0 > 0 && amount1 > 0, \"zero deposit\") */\n      tag_144\n      jumpi\n      mload(0x40)\n      0x08c379a000000000000000000000000000000000000000000000000000000000\n      dup2\n      mstore\n      0x04\n      add\n      tag_145\n      swap1\n      tag_146\n      jump\t// in\n    tag_145:\n      mload(0x40)\n      dup1\n      swap2\n      sub\n      swap1\n      revert\n    tag_144:\n        /* \"contracts/ZephyrosVault/ZephyrosVault.sol\":4606:4607  0 */\n      0x00\n        /* \"contracts/ZephyrosVault/ZephyrosVault.sol\":4589:4603  coreLockAmount */\n      dup2\n        /* \"contracts/ZephyrosVault/ZephyrosVault.sol\":4589:4607  coreLockAmount > 0 */\n      gt\n        /* \"contracts/ZephyrosVault/ZephyrosVault.sol\":4581:4630  require(coreLockAmount > 0, \"CORE lock required\") */\n      tag_147\n      jumpi\n      mload(0x40)\n      0x08c379a000000000000000000000000000000000000000000000000000000000\n      dup2\n      mstore\n      0x04\n      add\n      tag_148\n      swap1\n      tag_149\n      jump\t// in\n    tag_148:\n      mload(0x40)\n      dup1\n      swap2\n      sub\n      swap1\n      revert\n    tag_147:\n        /* \"contracts/ZephyrosVault/ZephyrosVault.sol\":4643:4664  UserInfo storage user */\n      0x00\n        /* \"contracts/ZephyrosVault/ZephyrosVault.sol\":4667:4672  users */\n      0x08\n        /* \"contracts/ZephyrosVault/ZephyrosVault.sol\":4667:4684  users[msg.sender] */\n      0x00\n        /* \"contracts/ZephyrosVault/ZephyrosVault.sol\":4673:4683  msg.sender */\n      caller\n        /* \"contracts/ZephyrosVault/ZephyrosVault.sol\":4667:4684  users[msg.sender] */\n      0xffffffffffffffffffffffffffffffffffffffff\n      and\n      0xffffffffffffffffffffffffffffffffffffffff\n      and\n      dup2\n      mstore\n      0x20\n      add\n      swap1\n      dup2\n      mstore\n      0x20\n      add\n      0x00\n      keccak256\n        /* \"contracts/ZephyrosVault/ZephyrosVault.sol\":4643:4684  UserInfo storage user = users[msg.sender] */\n      swap1\n      pop\n        /* \"contracts/ZephyrosVault/ZephyrosVault.sol\":4697:4726  _claimCoreRewards(msg.sender) */\n      tag_150\n        /* \"contracts/ZephyrosVault/ZephyrosVault.sol\":4715:4725  msg.sender */\n      caller\n        /* \"contracts/ZephyrosVault/ZephyrosVault.sol\":4697:4714  _claimCoreRewards */\n      tag_151\n        /* \"contracts/ZephyrosVault/ZephyrosVault.sol\":4697:4726  _claimCoreRewards(msg.sender) */\n      jump\t// in\n    tag_150:\n        /* \"contracts/ZephyrosVault/ZephyrosVault.sol\":4739:4798  token0.safeTransferFrom(msg.sender, address(this), amount0) */\n      tag_152\n        /* \"contracts/ZephyrosVault/ZephyrosVault.sol\":4763:4773  msg.sender */\n      caller\n        /* \"contracts/ZephyrosVault/ZephyrosVault.sol\":4783:4787  this */\n      address\n        /* \"contracts/ZephyrosVault/ZephyrosVault.sol\":4790:4797  amount0 */\n      dup7\n        /* \"contracts/ZephyrosVault/ZephyrosVault.sol\":4739:4745  token0 */\n      immutable(\"0xc792330a4f225cb27dfcf04335b51be24e1e574b19d83989f6006ef18804cbcb\")\n        /* \"contracts/ZephyrosVault/ZephyrosVault.sol\":4739:4762  token0.safeTransferFrom */\n      0xffffffffffffffffffffffffffffffffffffffff\n      and\n      tag_153\n      swap1\n        /* \"contracts/ZephyrosVault/ZephyrosVault.sol\":4739:4798  token0.safeTransferFrom(msg.sender, address(this), amount0) */\n      swap4\n      swap3\n      swap2\n      swap1\n      0xffffffff\n      and\n      jump\t// in\n    tag_152:\n        /* \"contracts/ZephyrosVault/ZephyrosVault.sol\":4809:4868  token1.safeTransferFrom(msg.sender, address(this), amount1) */\n      tag_154\n        /* \"contracts/ZephyrosVault/ZephyrosVault.sol\":4833:4843  msg.sender */\n      caller\n        /* \"contracts/ZephyrosVault/ZephyrosVault.sol\":4853:4857  this */\n      address\n        /* \"contracts/ZephyrosVault/ZephyrosVault.sol\":4860:4867  amount1 */\n      dup6\n        /* \"contracts/ZephyrosVault/ZephyrosVault.sol\":4809:4815  token1 */\n      immutable(\"0xb9aa4ff60d3edb7fbc3b53bd780c9274ed80a5ba1a237d38b011edab2b031b4a\")\n        /* \"contracts/ZephyrosVault/ZephyrosVault.sol\":4809:4832  token1.safeTransferFrom */\n      0xffffffffffffffffffffffffffffffffffffffff\n      and\n      tag_153\n      swap1\n        /* \"contracts/ZephyrosVault/ZephyrosVault.sol\":4809:4868  token1.safeTransferFrom(msg.sender, address(this), amount1) */\n      swap4\n      swap3\n      swap2\n      swap1\n      0xffffffff\n      and\n      jump\t// in\n    tag_154:\n        /* \"contracts/ZephyrosVault/ZephyrosVault.sol\":4879:4943  core.safeTransferFrom(msg.sender, address(this), coreLockAmount) */\n      tag_155\n        /* \"contracts/ZephyrosVault/ZephyrosVault.sol\":4901:4911  msg.sender */\n      caller\n        /* \"contracts/ZephyrosVault/ZephyrosVault.sol\":4921:4925  this */\n      address\n        /* \"contracts/ZephyrosVault/ZephyrosVault.sol\":4928:4942  coreLockAmount */\n      dup5\n        /* \"contracts/ZephyrosVault/ZephyrosVault.sol\":4879:4883  core */\n      immutable(\"0xac09810740600c31fa69f9db79ed6fc3e3281f758a950fe1fb254a3a3ae571b6\")\n        /* \"contracts/ZephyrosVault/ZephyrosVault.sol\":4879:4900  core.safeTransferFrom */\n      0xffffffffffffffffffffffffffffffffffffffff\n      and\n      tag_153\n      swap1\n        /* \"contracts/ZephyrosVault/ZephyrosVault.sol\":4879:4943  core.safeTransferFrom(msg.sender, address(this), coreLockAmount) */\n      swap4\n      swap3\n      swap2\n      swap1\n      0xffffffff\n      and\n      jump\t// in\n    tag_155:\n        /* \"contracts/ZephyrosVault/ZephyrosVault.sol\":5130:5180  _isValidCoreLock(amount0, amount1, coreLockAmount) */\n      tag_156\n        /* \"contracts/ZephyrosVault/ZephyrosVault.sol\":5147:5154  amount0 */\n      dup5\n        /* \"contracts/ZephyrosVault/ZephyrosVault.sol\":5156:5163  amount1 */\n      dup5\n        /* \"contracts/ZephyrosVault/ZephyrosVault.sol\":5165:5179  coreLockAmount */\n      dup5\n        /* \"contracts/ZephyrosVault/ZephyrosVault.sol\":5130:5146  _isValidCoreLock */\n      tag_157\n        /* \"contracts/ZephyrosVault/ZephyrosVault.sol\":5130:5180  _isValidCoreLock(amount0, amount1, coreLockAmount) */\n      jump\t// in\n    tag_156:\n        /* \"contracts/ZephyrosVault/ZephyrosVault.sol\":5108:5230  require(... */\n      tag_158\n      jumpi\n      mload(0x40)\n      0x08c379a000000000000000000000000000000000000000000000000000000000\n      dup2\n      mstore\n      0x04\n      add\n      tag_159\n      swap1\n      tag_160\n      jump\t// in\n    tag_159:\n      mload(0x40)\n      dup1\n      swap2\n      sub\n      swap1\n      revert\n    tag_158:\n        /* \"contracts/ZephyrosVault/ZephyrosVault.sol\":5243:5293  token0.forceApprove(address(electroFarm), amount0) */\n      tag_161\n        /* \"contracts/ZephyrosVault/ZephyrosVault.sol\":5271:5282  electroFarm */\n      immutable(\"0x2f5ccb30fa919306cd2899a81c7670a9b1be09e8c15a0b78b0fbbc777d15e97b\")\n        /* \"contracts/ZephyrosVault/ZephyrosVault.sol\":5285:5292  amount0 */\n      dup6\n        /* \"contracts/ZephyrosVault/ZephyrosVault.sol\":5243:5249  token0 */\n      immutable(\"0xc792330a4f225cb27dfcf04335b51be24e1e574b19d83989f6006ef18804cbcb\")\n        /* \"contracts/ZephyrosVault/ZephyrosVault.sol\":5243:5262  token0.forceApprove */\n      0xffffffffffffffffffffffffffffffffffffffff\n      and\n      tag_162\n      swap1\n        /* \"contracts/ZephyrosVault/ZephyrosVault.sol\":5243:5293  token0.forceApprove(address(electroFarm), amount0) */\n      swap3\n      swap2\n      swap1\n      0xffffffff\n      and\n      jump\t// in\n    tag_161:\n        /* \"contracts/ZephyrosVault/ZephyrosVault.sol\":5304:5354  token1.forceApprove(address(electroFarm), amount1) */\n      tag_163\n        /* \"contracts/ZephyrosVault/ZephyrosVault.sol\":5332:5343  electroFarm */\n      immutable(\"0x2f5ccb30fa919306cd2899a81c7670a9b1be09e8c15a0b78b0fbbc777d15e97b\")\n        /* \"contracts/ZephyrosVault/ZephyrosVault.sol\":5346:5353  amount1 */\n      dup5\n        /* \"contracts/ZephyrosVault/ZephyrosVault.sol\":5304:5310  token1 */\n      immutable(\"0xb9aa4ff60d3edb7fbc3b53bd780c9274ed80a5ba1a237d38b011edab2b031b4a\")\n        /* \"contracts/ZephyrosVault/ZephyrosVault.sol\":5304:5323  token1.forceApprove */\n      0xffffffffffffffffffffffffffffffffffffffff\n      and\n      tag_162\n      swap1\n        /* \"contracts/ZephyrosVault/ZephyrosVault.sol\":5304:5354  token1.forceApprove(address(electroFarm), amount1) */\n      swap3\n      swap2\n      swap1\n      0xffffffff\n      and\n      jump\t// in\n    tag_163:\n        /* \"contracts/ZephyrosVault/ZephyrosVault.sol\":5367:5390  uint256 beforeLiquidity */\n      0x00\n        /* \"contracts/ZephyrosVault/ZephyrosVault.sol\":5406:5417  electroFarm */\n      immutable(\"0x2f5ccb30fa919306cd2899a81c7670a9b1be09e8c15a0b78b0fbbc777d15e97b\")\n        /* \"contracts/ZephyrosVault/ZephyrosVault.sol\":5406:5463  electroFarm... */\n      0xffffffffffffffffffffffffffffffffffffffff\n      and\n      0xae967979\n        /* \"contracts/ZephyrosVault/ZephyrosVault.sol\":5464:5470  farmId */\n      immutable(\"0xbdf07588e6652aaee28b29156c2ae266c9ba46e253ddd99b466cce31f77c51a3\")\n        /* \"contracts/ZephyrosVault/ZephyrosVault.sol\":5480:5484  this */\n      address\n        /* \"contracts/ZephyrosVault/ZephyrosVault.sol\":5406:5486  electroFarm... */\n      mload(0x40)\n      dup4\n      0xffffffff\n      and\n      0xe0\n      shl\n      dup2\n      mstore\n      0x04\n      add\n      tag_164\n      swap3\n      swap2\n      swap1\n      tag_165\n      jump\t// in\n    tag_164:\n      0x01c0\n      mload(0x40)\n      dup1\n      dup4\n      sub\n      dup2\n      dup7\n      gas\n      staticcall\n      iszero\n      dup1\n      iszero\n      tag_167\n      jumpi\n      returndatasize\n      0x00\n      dup1\n      returndatacopy\n      revert(0x00, returndatasize)\n    tag_167:\n      pop\n      pop\n      pop\n      pop\n      mload(0x40)\n      returndatasize\n      not(0x1f)\n      0x1f\n      dup3\n      add\n      and\n      dup3\n      add\n      dup1\n      0x40\n      mstore\n      pop\n      dup2\n      add\n      swap1\n      tag_168\n      swap2\n      swap1\n      tag_169\n      jump\t// in\n    tag_168:\n        /* \"contracts/ZephyrosVault/ZephyrosVault.sol\":5406:5514  electroFarm... */\n      0x20\n      add\n      mload\n        /* \"contracts/ZephyrosVault/ZephyrosVault.sol\":5367:5514  uint256 beforeLiquidity =... */\n      swap1\n      pop\n        /* \"contracts/ZephyrosVault/ZephyrosVault.sol\":5527:5538  electroFarm */\n      immutable(\"0x2f5ccb30fa919306cd2899a81c7670a9b1be09e8c15a0b78b0fbbc777d15e97b\")\n        /* \"contracts/ZephyrosVault/ZephyrosVault.sol\":5527:5546  electroFarm.deposit */\n      0xffffffffffffffffffffffffffffffffffffffff\n      and\n      0x2505c3d9\n        /* \"contracts/ZephyrosVault/ZephyrosVault.sol\":5547:5553  farmId */\n      immutable(\"0xbdf07588e6652aaee28b29156c2ae266c9ba46e253ddd99b466cce31f77c51a3\")\n        /* \"contracts/ZephyrosVault/ZephyrosVault.sol\":5555:5562  amount0 */\n      dup8\n        /* \"contracts/ZephyrosVault/ZephyrosVault.sol\":5564:5571  amount1 */\n      dup8\n        /* \"contracts/ZephyrosVault/ZephyrosVault.sol\":5573:5574  0 */\n      0x00\n        /* \"contracts/ZephyrosVault/ZephyrosVault.sol\":5527:5575  electroFarm.deposit(farmId, amount0, amount1, 0) */\n      mload(0x40)\n      dup6\n      0xffffffff\n      and\n      0xe0\n      shl\n      dup2\n      mstore\n      0x04\n      add\n      tag_170\n      swap5\n      swap4\n      swap3\n      swap2\n      swap1\n      tag_171\n      jump\t// in\n    tag_170:\n      0x00\n      mload(0x40)\n      dup1\n      dup4\n      sub\n      dup2\n      0x00\n      dup8\n      dup1\n      extcodesize\n      iszero\n      dup1\n      iszero\n      tag_172\n      jumpi\n      0x00\n      dup1\n      revert\n    tag_172:\n      pop\n      gas\n      call\n      iszero\n      dup1\n      iszero\n      tag_174\n      jumpi\n      returndatasize\n      0x00\n      dup1\n      returndatacopy\n      revert(0x00, returndatasize)\n    tag_174:\n      pop\n      pop\n      pop\n      pop\n        /* \"contracts/ZephyrosVault/ZephyrosVault.sol\":5588:5610  uint256 afterLiquidity */\n      0x00\n        /* \"contracts/ZephyrosVault/ZephyrosVault.sol\":5626:5637  electroFarm */\n      immutable(\"0x2f5ccb30fa919306cd2899a81c7670a9b1be09e8c15a0b78b0fbbc777d15e97b\")\n        /* \"contracts/ZephyrosVault/ZephyrosVault.sol\":5626:5683  electroFarm... */\n      0xffffffffffffffffffffffffffffffffffffffff\n      and\n      0xae967979\n        /* \"contracts/ZephyrosVault/ZephyrosVault.sol\":5684:5690  farmId */\n      immutable(\"0xbdf07588e6652aaee28b29156c2ae266c9ba46e253ddd99b466cce31f77c51a3\")\n        /* \"contracts/ZephyrosVault/ZephyrosVault.sol\":5700:5704  this */\n      address\n        /* \"contracts/ZephyrosVault/ZephyrosVault.sol\":5626:5706  electroFarm... */\n      mload(0x40)\n      dup4\n      0xffffffff\n      and\n      0xe0\n      shl\n      dup2\n      mstore\n      0x04\n      add\n      tag_175\n      swap3\n      swap2\n      swap1\n      tag_165\n      jump\t// in\n    tag_175:\n      0x01c0\n      mload(0x40)\n      dup1\n      dup4\n      sub\n      dup2\n      dup7\n      gas\n      staticcall\n      iszero\n      dup1\n      iszero\n      tag_177\n      jumpi\n      returndatasize\n      0x00\n      dup1\n      returndatacopy\n      revert(0x00, returndatasize)\n    tag_177:\n      pop\n      pop\n      pop\n      pop\n      mload(0x40)\n      returndatasize\n      not(0x1f)\n      0x1f\n      dup3\n      add\n      and\n      dup3\n      add\n      dup1\n      0x40\n      mstore\n      pop\n      dup2\n      add\n      swap1\n      tag_178\n      swap2\n      swap1\n      tag_169\n      jump\t// in\n    tag_178:\n        /* \"contracts/ZephyrosVault/ZephyrosVault.sol\":5626:5734  electroFarm... */\n      0x20\n      add\n      mload\n        /* \"contracts/ZephyrosVault/ZephyrosVault.sol\":5588:5734  uint256 afterLiquidity =... */\n      swap1\n      pop\n        /* \"contracts/ZephyrosVault/ZephyrosVault.sol\":5747:5769  uint256 liquidityAdded */\n      0x00\n        /* \"contracts/ZephyrosVault/ZephyrosVault.sol\":5789:5804  beforeLiquidity */\n      dup3\n        /* \"contracts/ZephyrosVault/ZephyrosVault.sol\":5772:5786  afterLiquidity */\n      dup3\n        /* \"contracts/ZephyrosVault/ZephyrosVault.sol\":5772:5804  afterLiquidity - beforeLiquidity */\n      tag_179\n      swap2\n      swap1\n      tag_180\n      jump\t// in\n    tag_179:\n        /* \"contracts/ZephyrosVault/ZephyrosVault.sol\":5747:5804  uint256 liquidityAdded = afterLiquidity - beforeLiquidity */\n      swap1\n      pop\n        /* \"contracts/ZephyrosVault/ZephyrosVault.sol\":5840:5841  0 */\n      0x00\n        /* \"contracts/ZephyrosVault/ZephyrosVault.sol\":5823:5837  liquidityAdded */\n      dup2\n        /* \"contracts/ZephyrosVault/ZephyrosVault.sol\":5823:5841  liquidityAdded > 0 */\n      gt\n        /* \"contracts/ZephyrosVault/ZephyrosVault.sol\":5815:5864  require(liquidityAdded > 0, \"no liquidity added\") */\n      tag_181\n      jumpi\n      mload(0x40)\n      0x08c379a000000000000000000000000000000000000000000000000000000000\n      dup2\n      mstore\n      0x04\n      add\n      tag_182\n      swap1\n      tag_183\n      jump\t// in\n    tag_182:\n      mload(0x40)\n      dup1\n      swap2\n      sub\n      swap1\n      revert\n    tag_181:\n        /* \"contracts/ZephyrosVault/ZephyrosVault.sol\":5895:5909  liquidityAdded */\n      dup1\n        /* \"contracts/ZephyrosVault/ZephyrosVault.sol\":5877:5881  user */\n      dup5\n        /* \"contracts/ZephyrosVault/ZephyrosVault.sol\":5877:5891  user.liquidity */\n      0x00\n      add\n      0x00\n        /* \"contracts/ZephyrosVault/ZephyrosVault.sol\":5877:5909  user.liquidity += liquidityAdded */\n      dup3\n      dup3\n      sload\n      tag_184\n      swap2\n      swap1\n      tag_185\n      jump\t// in\n    tag_184:\n      swap3\n      pop\n      pop\n      dup2\n      swap1\n      sstore\n      pop\n        /* \"contracts/ZephyrosVault/ZephyrosVault.sol\":5939:5953  coreLockAmount */\n      dup5\n        /* \"contracts/ZephyrosVault/ZephyrosVault.sol\":5920:5924  user */\n      dup5\n        /* \"contracts/ZephyrosVault/ZephyrosVault.sol\":5920:5935  user.coreLocked */\n      0x01\n      add\n      0x00\n        /* \"contracts/ZephyrosVault/ZephyrosVault.sol\":5920:5953  user.coreLocked += coreLockAmount */\n      dup3\n      dup3\n      sload\n      tag_186\n      swap2\n      swap1\n      tag_185\n      jump\t// in\n    tag_186:\n      swap3\n      pop\n      pop\n      dup2\n      swap1\n      sstore\n      pop\n        /* \"contracts/ZephyrosVault/ZephyrosVault.sol\":1914:1921  90 days */\n      0x76a700\n        /* \"contracts/ZephyrosVault/ZephyrosVault.sol\":5982:5997  block.timestamp */\n      timestamp\n        /* \"contracts/ZephyrosVault/ZephyrosVault.sol\":5982:6013  block.timestamp + LOCK_DURATION */\n      tag_187\n      swap2\n      swap1\n      tag_185\n      jump\t// in\n    tag_187:\n        /* \"contracts/ZephyrosVault/ZephyrosVault.sol\":5964:5968  user */\n      dup5\n        /* \"contracts/ZephyrosVault/ZephyrosVault.sol\":5964:5979  user.unlockTime */\n      0x03\n      add\n        /* \"contracts/ZephyrosVault/ZephyrosVault.sol\":5964:6013  user.unlockTime = block.timestamp + LOCK_DURATION */\n      dup2\n      swap1\n      sstore\n      pop\n        /* \"contracts/ZephyrosVault/ZephyrosVault.sol\":6038:6042  true */\n      0x01\n        /* \"contracts/ZephyrosVault/ZephyrosVault.sol\":6024:6028  user */\n      dup5\n        /* \"contracts/ZephyrosVault/ZephyrosVault.sol\":6024:6035  user.active */\n      0x04\n      add\n      0x00\n        /* \"contracts/ZephyrosVault/ZephyrosVault.sol\":6024:6042  user.active = true */\n      0x0100\n      exp\n      dup2\n      sload\n      dup2\n      0xff\n      mul\n      not\n      and\n      swap1\n      dup4\n      iszero\n      iszero\n      mul\n      or\n      swap1\n      sstore\n      pop\n        /* \"contracts/ZephyrosVault/ZephyrosVault.sol\":6073:6087  liquidityAdded */\n      dup1\n        /* \"contracts/ZephyrosVault/ZephyrosVault.sol\":6055:6069  totalLiquidity */\n      0x06\n      0x00\n        /* \"contracts/ZephyrosVault/ZephyrosVault.sol\":6055:6087  totalLiquidity += liquidityAdded */\n      dup3\n      dup3\n      sload\n      tag_188\n      swap2\n      swap1\n      tag_185\n      jump\t// in\n    tag_188:\n      swap3\n      pop\n      pop\n      dup2\n      swap1\n      sstore\n      pop\n        /* \"contracts/ZephyrosVault/ZephyrosVault.sol\":1863:1867  1e18 */\n      0x0de0b6b3a7640000\n        /* \"contracts/ZephyrosVault/ZephyrosVault.sol\":6149:6168  accCorePerLiquidity */\n      sload(0x07)\n        /* \"contracts/ZephyrosVault/ZephyrosVault.sol\":6132:6136  user */\n      dup6\n        /* \"contracts/ZephyrosVault/ZephyrosVault.sol\":6132:6146  user.liquidity */\n      0x00\n      add\n      sload\n        /* \"contracts/ZephyrosVault/ZephyrosVault.sol\":6132:6168  user.liquidity * accCorePerLiquidity */\n      tag_189\n      swap2\n      swap1\n      tag_190\n      jump\t// in\n    tag_189:\n        /* \"contracts/ZephyrosVault/ZephyrosVault.sol\":6131:6194  (user.liquidity * accCorePerLiquidity) /... */\n      tag_191\n      swap2\n      swap1\n      tag_192\n      jump\t// in\n    tag_191:\n        /* \"contracts/ZephyrosVault/ZephyrosVault.sol\":6100:6104  user */\n      dup5\n        /* \"contracts/ZephyrosVault/ZephyrosVault.sol\":6100:6115  user.rewardDebt */\n      0x02\n      add\n        /* \"contracts/ZephyrosVault/ZephyrosVault.sol\":6100:6194  user.rewardDebt =... */\n      dup2\n      swap1\n      sstore\n      pop\n        /* \"contracts/ZephyrosVault/ZephyrosVault.sol\":6236:6246  msg.sender */\n      caller\n        /* \"contracts/ZephyrosVault/ZephyrosVault.sol\":6212:6389  Deposited(... */\n      0xffffffffffffffffffffffffffffffffffffffff\n      and\n      0x0a5c854539f6e93fcd4a8397bfae8bdb751b4e819840f1c8681e6ad7ff19c5b5\n        /* \"contracts/ZephyrosVault/ZephyrosVault.sol\":6261:6268  amount0 */\n      dup9\n        /* \"contracts/ZephyrosVault/ZephyrosVault.sol\":6283:6290  amount1 */\n      dup9\n        /* \"contracts/ZephyrosVault/ZephyrosVault.sol\":6305:6319  coreLockAmount */\n      dup9\n        /* \"contracts/ZephyrosVault/ZephyrosVault.sol\":6334:6348  liquidityAdded */\n      dup6\n        /* \"contracts/ZephyrosVault/ZephyrosVault.sol\":6363:6367  user */\n      dup10\n        /* \"contracts/ZephyrosVault/ZephyrosVault.sol\":6363:6378  user.unlockTime */\n      0x03\n      add\n      sload\n        /* \"contracts/ZephyrosVault/ZephyrosVault.sol\":6212:6389  Deposited(... */\n      mload(0x40)\n      tag_193\n      swap6\n      swap5\n      swap4\n      swap3\n      swap2\n      swap1\n      tag_194\n      jump\t// in\n    tag_193:\n      mload(0x40)\n      dup1\n      swap2\n      sub\n      swap1\n      log2\n        /* \"contracts/ZephyrosVault/ZephyrosVault.sol\":4508:6397  {... */\n      pop\n      pop\n      pop\n      pop\n        /* \"https://github.com/OpenZeppelin/openzeppelin-contracts/blob/v5.4.0/contracts/utils/ReentrancyGuard.sol\":2542:2562  _nonReentrantAfter() */\n      tag_195\n        /* \"https://github.com/OpenZeppelin/openzeppelin-contracts/blob/v5.4.0/contracts/utils/ReentrancyGuard.sol\":2542:2560  _nonReentrantAfter */\n      tag_196\n        /* \"https://github.com/OpenZeppelin/openzeppelin-contracts/blob/v5.4.0/contracts/utils/ReentrancyGuard.sol\":2542:2562  _nonReentrantAfter() */\n      jump\t// in\n    tag_195:\n        /* \"contracts/ZephyrosVault/ZephyrosVault.sol\":4377:6397  function deposit(... */\n      pop\n      pop\n      pop\n      jump\t// out\n        /* \"contracts/ZephyrosVault/ZephyrosVault.sol\":2521:2555  uint256 public accCorePerLiquidity */\n    tag_44:\n      sload(0x07)\n      dup2\n      jump\t// out\n        /* \"contracts/ZephyrosVault/ZephyrosVault.sol\":2131:2161  IERC20 public immutable token0 */\n    tag_48:\n      immutable(\"0xc792330a4f225cb27dfcf04335b51be24e1e574b19d83989f6006ef18804cbcb\")\n      dup2\n      jump\t// out\n        /* \"contracts/ZephyrosVault/ZephyrosVault.sol\":2485:2514  uint256 public totalLiquidity */\n    tag_52:\n      sload(0x06)\n      dup2\n      jump\t// out\n        /* \"contracts/ZephyrosVault/ZephyrosVault.sol\":2415:2446  uint256 public immutable farmId */\n    tag_55:\n      immutable(\"0xbdf07588e6652aaee28b29156c2ae266c9ba46e253ddd99b466cce31f77c51a3\")\n      dup2\n      jump\t// out\n        /* \"contracts/ZephyrosVault/ZephyrosVault.sol\":9138:9475  function pendingCoreRewards(address account) public view returns (uint256) {... */\n    tag_60:\n        /* \"contracts/ZephyrosVault/ZephyrosVault.sol\":9204:9211  uint256 */\n      0x00\n        /* \"contracts/ZephyrosVault/ZephyrosVault.sol\":9224:9244  UserInfo memory user */\n      dup1\n        /* \"contracts/ZephyrosVault/ZephyrosVault.sol\":9247:9252  users */\n      0x08\n        /* \"contracts/ZephyrosVault/ZephyrosVault.sol\":9247:9261  users[account] */\n      0x00\n        /* \"contracts/ZephyrosVault/ZephyrosVault.sol\":9253:9260  account */\n      dup5\n        /* \"contracts/ZephyrosVault/ZephyrosVault.sol\":9247:9261  users[account] */\n      0xffffffffffffffffffffffffffffffffffffffff\n      and\n      0xffffffffffffffffffffffffffffffffffffffff\n      and\n      dup2\n      mstore\n      0x20\n      add\n      swap1\n      dup2\n      mstore\n      0x20\n      add\n      0x00\n      keccak256\n        /* \"contracts/ZephyrosVault/ZephyrosVault.sol\":9224:9261  UserInfo memory user = users[account] */\n      mload(0x40)\n      dup1\n      0xa0\n      add\n      0x40\n      mstore\n      swap1\n      dup2\n      0x00\n      dup3\n      add\n      sload\n      dup2\n      mstore\n      0x20\n      add\n      0x01\n      dup3\n      add\n      sload\n      dup2\n      mstore\n      0x20\n      add\n      0x02\n      dup3\n      add\n      sload\n      dup2\n      mstore\n      0x20\n      add\n      0x03\n      dup3\n      add\n      sload\n      dup2\n      mstore\n      0x20\n      add\n      0x04\n      dup3\n      add\n      0x00\n      swap1\n      sload\n      swap1\n      0x0100\n      exp\n      swap1\n      div\n      0xff\n      and\n      iszero\n      iszero\n      iszero\n      iszero\n      dup2\n      mstore\n      pop\n      pop\n      swap1\n      pop\n        /* \"contracts/ZephyrosVault/ZephyrosVault.sol\":9296:9297  0 */\n      0x00\n        /* \"contracts/ZephyrosVault/ZephyrosVault.sol\":9278:9282  user */\n      dup2\n        /* \"contracts/ZephyrosVault/ZephyrosVault.sol\":9278:9292  user.liquidity */\n      0x00\n      add\n      mload\n        /* \"contracts/ZephyrosVault/ZephyrosVault.sol\":9278:9297  user.liquidity == 0 */\n      sub\n        /* \"contracts/ZephyrosVault/ZephyrosVault.sol\":9274:9307  if (user.liquidity == 0) return 0 */\n      tag_198\n      jumpi\n        /* \"contracts/ZephyrosVault/ZephyrosVault.sol\":9306:9307  0 */\n      0x00\n        /* \"contracts/ZephyrosVault/ZephyrosVault.sol\":9299:9307  return 0 */\n      swap2\n      pop\n      pop\n      jump(tag_197)\n        /* \"contracts/ZephyrosVault/ZephyrosVault.sol\":9274:9307  if (user.liquidity == 0) return 0 */\n    tag_198:\n        /* \"contracts/ZephyrosVault/ZephyrosVault.sol\":9320:9339  uint256 accumulated */\n      0x00\n        /* \"contracts/ZephyrosVault/ZephyrosVault.sol\":1863:1867  1e18 */\n      0x0de0b6b3a7640000\n        /* \"contracts/ZephyrosVault/ZephyrosVault.sol\":9373:9392  accCorePerLiquidity */\n      sload(0x07)\n        /* \"contracts/ZephyrosVault/ZephyrosVault.sol\":9356:9360  user */\n      dup4\n        /* \"contracts/ZephyrosVault/ZephyrosVault.sol\":9356:9370  user.liquidity */\n      0x00\n      add\n      mload\n        /* \"contracts/ZephyrosVault/ZephyrosVault.sol\":9356:9392  user.liquidity * accCorePerLiquidity */\n      tag_199\n      swap2\n      swap1\n      tag_190\n      jump\t// in\n    tag_199:\n        /* \"contracts/ZephyrosVault/ZephyrosVault.sol\":9355:9418  (user.liquidity * accCorePerLiquidity) /... */\n      tag_200\n      swap2\n      swap1\n      tag_192\n      jump\t// in\n    tag_200:\n        /* \"contracts/ZephyrosVault/ZephyrosVault.sol\":9320:9418  uint256 accumulated =... */\n      swap1\n      pop\n        /* \"contracts/ZephyrosVault/ZephyrosVault.sol\":9452:9456  user */\n      dup2\n        /* \"contracts/ZephyrosVault/ZephyrosVault.sol\":9452:9467  user.rewardDebt */\n      0x40\n      add\n      mload\n        /* \"contracts/ZephyrosVault/ZephyrosVault.sol\":9438:9449  accumulated */\n      dup2\n        /* \"contracts/ZephyrosVault/ZephyrosVault.sol\":9438:9467  accumulated - user.rewardDebt */\n      tag_201\n      swap2\n      swap1\n      tag_180\n      jump\t// in\n    tag_201:\n        /* \"contracts/ZephyrosVault/ZephyrosVault.sol\":9431:9467  return accumulated - user.rewardDebt */\n      swap3\n      pop\n      pop\n      pop\n        /* \"contracts/ZephyrosVault/ZephyrosVault.sol\":9138:9475  function pendingCoreRewards(address account) public view returns (uint256) {... */\n    tag_197:\n      swap2\n      swap1\n      pop\n      jump\t// out\n        /* \"contracts/ZephyrosVault/ZephyrosVault.sol\":7462:9024  function harvest(... */\n    tag_65:\n        /* \"https://github.com/OpenZeppelin/openzeppelin-contracts/blob/v5.4.0/contracts/utils/ReentrancyGuard.sol\":2500:2521  _nonReentrantBefore() */\n      tag_203\n        /* \"https://github.com/OpenZeppelin/openzeppelin-contracts/blob/v5.4.0/contracts/utils/ReentrancyGuard.sol\":2500:2519  _nonReentrantBefore */\n      tag_141\n        /* \"https://github.com/OpenZeppelin/openzeppelin-contracts/blob/v5.4.0/contracts/utils/ReentrancyGuard.sol\":2500:2521  _nonReentrantBefore() */\n      jump\t// in\n    tag_203:\n        /* \"contracts/ZephyrosVault/ZephyrosVault.sol\":7619:7620  0 */\n      0x00\n        /* \"contracts/ZephyrosVault/ZephyrosVault.sol\":7602:7616  totalLiquidity */\n      sload(0x06)\n        /* \"contracts/ZephyrosVault/ZephyrosVault.sol\":7602:7620  totalLiquidity > 0 */\n      gt\n        /* \"contracts/ZephyrosVault/ZephyrosVault.sol\":7594:7637  require(totalLiquidity > 0, \"no liquidity\") */\n      tag_205\n      jumpi\n      mload(0x40)\n      0x08c379a000000000000000000000000000000000000000000000000000000000\n      dup2\n      mstore\n      0x04\n      add\n      tag_206\n      swap1\n      tag_207\n      jump\t// in\n    tag_206:\n      mload(0x40)\n      dup1\n      swap2\n      sub\n      swap1\n      revert\n    tag_205:\n        /* \"contracts/ZephyrosVault/ZephyrosVault.sol\":7650:7670  uint256 beforeReward */\n      0x00\n        /* \"contracts/ZephyrosVault/ZephyrosVault.sol\":7673:7684  rewardToken */\n      immutable(\"0x425a3d65e6c6cbbf01507814af1ac7512f93cceb8411381e1d5fb7adbfd44881\")\n        /* \"contracts/ZephyrosVault/ZephyrosVault.sol\":7673:7694  rewardToken.balanceOf */\n      0xffffffffffffffffffffffffffffffffffffffff\n      and\n      0x70a08231\n        /* \"contracts/ZephyrosVault/ZephyrosVault.sol\":7703:7707  this */\n      address\n        /* \"contracts/ZephyrosVault/ZephyrosVault.sol\":7673:7709  rewardToken.balanceOf(address(this)) */\n      mload(0x40)\n      dup3\n      0xffffffff\n      and\n      0xe0\n      shl\n      dup2\n      mstore\n      0x04\n      add\n      tag_208\n      swap2\n      swap1\n      tag_86\n      jump\t// in\n    tag_208:\n      0x20\n      mload(0x40)\n      dup1\n      dup4\n      sub\n      dup2\n      dup7\n      gas\n      staticcall\n      iszero\n      dup1\n      iszero\n      tag_210\n      jumpi\n      returndatasize\n      0x00\n      dup1\n      returndatacopy\n      revert(0x00, returndatasize)\n    tag_210:\n      pop\n      pop\n      pop\n      pop\n      mload(0x40)\n      returndatasize\n      not(0x1f)\n      0x1f\n      dup3\n      add\n      and\n      dup3\n      add\n      dup1\n      0x40\n      mstore\n      pop\n      dup2\n      add\n      swap1\n      tag_211\n      swap2\n      swap1\n      tag_212\n      jump\t// in\n    tag_211:\n        /* \"contracts/ZephyrosVault/ZephyrosVault.sol\":7650:7709  uint256 beforeReward = rewardToken.balanceOf(address(this)) */\n      swap1\n      pop\n        /* \"contracts/ZephyrosVault/ZephyrosVault.sol\":7797:7808  electroFarm */\n      immutable(\"0x2f5ccb30fa919306cd2899a81c7670a9b1be09e8c15a0b78b0fbbc777d15e97b\")\n        /* \"contracts/ZephyrosVault/ZephyrosVault.sol\":7797:7817  electroFarm.withdraw */\n      0xffffffffffffffffffffffffffffffffffffffff\n      and\n      0x33cfcd3b\n        /* \"contracts/ZephyrosVault/ZephyrosVault.sol\":7818:7824  farmId */\n      immutable(\"0xbdf07588e6652aaee28b29156c2ae266c9ba46e253ddd99b466cce31f77c51a3\")\n        /* \"contracts/ZephyrosVault/ZephyrosVault.sol\":7826:7827  0 */\n      0x00\n        /* \"contracts/ZephyrosVault/ZephyrosVault.sol\":7829:7834  false */\n      dup1\n        /* \"contracts/ZephyrosVault/ZephyrosVault.sol\":7797:7835  electroFarm.withdraw(farmId, 0, false) */\n      mload(0x40)\n      dup5\n      0xffffffff\n      and\n      0xe0\n      shl\n      dup2\n      mstore\n      0x04\n      add\n      tag_213\n      swap4\n      swap3\n      swap2\n      swap1\n      tag_214\n      jump\t// in\n    tag_213:\n      0x00\n      mload(0x40)\n      dup1\n      dup4\n      sub\n      dup2\n      0x00\n      dup8\n      dup1\n      extcodesize\n      iszero\n      dup1\n      iszero\n      tag_215\n      jumpi\n      0x00\n      dup1\n      revert\n    tag_215:\n      pop\n      gas\n      call\n      iszero\n      dup1\n      iszero\n      tag_217\n      jumpi\n      returndatasize\n      0x00\n      dup1\n      returndatacopy\n      revert(0x00, returndatasize)\n    tag_217:\n      pop\n      pop\n      pop\n      pop\n        /* \"contracts/ZephyrosVault/ZephyrosVault.sol\":7848:7868  uint256 rewardAmount */\n      0x00\n        /* \"contracts/ZephyrosVault/ZephyrosVault.sol\":7923:7935  beforeReward */\n      dup2\n        /* \"contracts/ZephyrosVault/ZephyrosVault.sol\":7884:7895  rewardToken */\n      immutable(\"0x425a3d65e6c6cbbf01507814af1ac7512f93cceb8411381e1d5fb7adbfd44881\")\n        /* \"contracts/ZephyrosVault/ZephyrosVault.sol\":7884:7905  rewardToken.balanceOf */\n      0xffffffffffffffffffffffffffffffffffffffff\n      and\n      0x70a08231\n        /* \"contracts/ZephyrosVault/ZephyrosVault.sol\":7914:7918  this */\n      address\n        /* \"contracts/ZephyrosVault/ZephyrosVault.sol\":7884:7920  rewardToken.balanceOf(address(this)) */\n      mload(0x40)\n      dup3\n      0xffffffff\n      and\n      0xe0\n      shl\n      dup2\n      mstore\n      0x04\n      add\n      tag_218\n      swap2\n      swap1\n      tag_86\n      jump\t// in\n    tag_218:\n      0x20\n      mload(0x40)\n      dup1\n      dup4\n      sub\n      dup2\n      dup7\n      gas\n      staticcall\n      iszero\n      dup1\n      iszero\n      tag_220\n      jumpi\n      returndatasize\n      0x00\n      dup1\n      returndatacopy\n      revert(0x00, returndatasize)\n    tag_220:\n      pop\n      pop\n      pop\n      pop\n      mload(0x40)\n      returndatasize\n      not(0x1f)\n      0x1f\n      dup3\n      add\n      and\n      dup3\n      add\n      dup1\n      0x40\n      mstore\n      pop\n      dup2\n      add\n      swap1\n      tag_221\n      swap2\n      swap1\n      tag_212\n      jump\t// in\n    tag_221:\n        /* \"contracts/ZephyrosVault/ZephyrosVault.sol\":7884:7935  rewardToken.balanceOf(address(this)) - beforeReward */\n      tag_222\n      swap2\n      swap1\n      tag_180\n      jump\t// in\n    tag_222:\n        /* \"contracts/ZephyrosVault/ZephyrosVault.sol\":7848:7935  uint256 rewardAmount =... */\n      swap1\n      pop\n        /* \"contracts/ZephyrosVault/ZephyrosVault.sol\":7971:7972  0 */\n      0x00\n        /* \"contracts/ZephyrosVault/ZephyrosVault.sol\":7956:7968  rewardAmount */\n      dup2\n        /* \"contracts/ZephyrosVault/ZephyrosVault.sol\":7956:7972  rewardAmount > 0 */\n      gt\n        /* \"contracts/ZephyrosVault/ZephyrosVault.sol\":7948:7994  require(rewardAmount > 0, \"nothing harvested\") */\n      tag_223\n      jumpi\n      mload(0x40)\n      0x08c379a000000000000000000000000000000000000000000000000000000000\n      dup2\n      mstore\n      0x04\n      add\n      tag_224\n      swap1\n      tag_225\n      jump\t// in\n    tag_224:\n      mload(0x40)\n      dup1\n      swap2\n      sub\n      swap1\n      revert\n    tag_223:\n        /* \"contracts/ZephyrosVault/ZephyrosVault.sol\":8007:8062  rewardToken.forceApprove(address(router), rewardAmount) */\n      tag_226\n        /* \"contracts/ZephyrosVault/ZephyrosVault.sol\":8040:8046  router */\n      immutable(\"0x6fadbaf86d2aa9c9e34a85df385a2c9afa9509e09756634e72bbcf94a5ceb213\")\n        /* \"contracts/ZephyrosVault/ZephyrosVault.sol\":8049:8061  rewardAmount */\n      dup3\n        /* \"contracts/ZephyrosVault/ZephyrosVault.sol\":8007:8018  rewardToken */\n      immutable(\"0x425a3d65e6c6cbbf01507814af1ac7512f93cceb8411381e1d5fb7adbfd44881\")\n        /* \"contracts/ZephyrosVault/ZephyrosVault.sol\":8007:8031  rewardToken.forceApprove */\n      0xffffffffffffffffffffffffffffffffffffffff\n      and\n      tag_162\n      swap1\n        /* \"contracts/ZephyrosVault/ZephyrosVault.sol\":8007:8062  rewardToken.forceApprove(address(router), rewardAmount) */\n      swap3\n      swap2\n      swap1\n      0xffffffff\n      and\n      jump\t// in\n    tag_226:\n        /* \"contracts/ZephyrosVault/ZephyrosVault.sol\":8075:8093  uint256 beforeCore */\n      0x00\n        /* \"contracts/ZephyrosVault/ZephyrosVault.sol\":8096:8100  core */\n      immutable(\"0xac09810740600c31fa69f9db79ed6fc3e3281f758a950fe1fb254a3a3ae571b6\")\n        /* \"contracts/ZephyrosVault/ZephyrosVault.sol\":8096:8110  core.balanceOf */\n      0xffffffffffffffffffffffffffffffffffffffff\n      and\n      0x70a08231\n        /* \"contracts/ZephyrosVault/ZephyrosVault.sol\":8119:8123  this */\n      address\n        /* \"contracts/ZephyrosVault/ZephyrosVault.sol\":8096:8125  core.balanceOf(address(this)) */\n      mload(0x40)\n      dup3\n      0xffffffff\n      and\n      0xe0\n      shl\n      dup2\n      mstore\n      0x04\n      add\n      tag_227\n      swap2\n      swap1\n      tag_86\n      jump\t// in\n    tag_227:\n      0x20\n      mload(0x40)\n      dup1\n      dup4\n      sub\n      dup2\n      dup7\n      gas\n      staticcall\n      iszero\n      dup1\n      iszero\n      tag_229\n      jumpi\n      returndatasize\n      0x00\n      dup1\n      returndatacopy\n      revert(0x00, returndatasize)\n    tag_229:\n      pop\n      pop\n      pop\n      pop\n      mload(0x40)\n      returndatasize\n      not(0x1f)\n      0x1f\n      dup3\n      add\n      and\n      dup3\n      add\n      dup1\n      0x40\n      mstore\n      pop\n      dup2\n      add\n      swap1\n      tag_230\n      swap2\n      swap1\n      tag_212\n      jump\t// in\n    tag_230:\n        /* \"contracts/ZephyrosVault/ZephyrosVault.sol\":8075:8125  uint256 beforeCore = core.balanceOf(address(this)) */\n      swap1\n      pop\n        /* \"contracts/ZephyrosVault/ZephyrosVault.sol\":8138:8144  router */\n      immutable(\"0x6fadbaf86d2aa9c9e34a85df385a2c9afa9509e09756634e72bbcf94a5ceb213\")\n        /* \"contracts/ZephyrosVault/ZephyrosVault.sol\":8138:8198  router.swapExactTokensForTokensSupportingFeeOnTransferTokens */\n      0xffffffffffffffffffffffffffffffffffffffff\n      and\n      0x5c11d795\n        /* \"contracts/ZephyrosVault/ZephyrosVault.sol\":8213:8225  rewardAmount */\n      dup4\n        /* \"contracts/ZephyrosVault/ZephyrosVault.sol\":8240:8250  minCoreOut */\n      dup7\n        /* \"contracts/ZephyrosVault/ZephyrosVault.sol\":8265:8281  rewardToCorePath */\n      dup10\n      dup10\n        /* \"contracts/ZephyrosVault/ZephyrosVault.sol\":8304:8308  this */\n      address\n        /* \"contracts/ZephyrosVault/ZephyrosVault.sol\":8324:8339  block.timestamp */\n      timestamp\n        /* \"contracts/ZephyrosVault/ZephyrosVault.sol\":8138:8350  router.swapExactTokensForTokensSupportingFeeOnTransferTokens(... */\n      mload(0x40)\n      dup8\n      0xffffffff\n      and\n      0xe0\n      shl\n      dup2\n      mstore\n      0x04\n      add\n      tag_231\n      swap7\n      swap6\n      swap5\n      swap4\n      swap3\n      swap2\n      swap1\n      tag_232\n      jump\t// in\n    tag_231:\n      0x00\n      mload(0x40)\n      dup1\n      dup4\n      sub\n      dup2\n      0x00\n      dup8\n      dup1\n      extcodesize\n      iszero\n      dup1\n      iszero\n      tag_233\n      jumpi\n      0x00\n      dup1\n      revert\n    tag_233:\n      pop\n      gas\n      call\n      iszero\n      dup1\n      iszero\n      tag_235\n      jumpi\n      returndatasize\n      0x00\n      dup1\n      returndatacopy\n      revert(0x00, returndatasize)\n    tag_235:\n      pop\n      pop\n      pop\n      pop\n        /* \"contracts/ZephyrosVault/ZephyrosVault.sol\":8363:8381  uint256 coreBought */\n      0x00\n        /* \"contracts/ZephyrosVault/ZephyrosVault.sol\":8416:8426  beforeCore */\n      dup2\n        /* \"contracts/ZephyrosVault/ZephyrosVault.sol\":8384:8388  core */\n      immutable(\"0xac09810740600c31fa69f9db79ed6fc3e3281f758a950fe1fb254a3a3ae571b6\")\n        /* \"contracts/ZephyrosVault/ZephyrosVault.sol\":8384:8398  core.balanceOf */\n      0xffffffffffffffffffffffffffffffffffffffff\n      and\n      0x70a08231\n        /* \"contracts/ZephyrosVault/ZephyrosVault.sol\":8407:8411  this */\n      address\n        /* \"contracts/ZephyrosVault/ZephyrosVault.sol\":8384:8413  core.balanceOf(address(this)) */\n      mload(0x40)\n      dup3\n      0xffffffff\n      and\n      0xe0\n      shl\n      dup2\n      mstore\n      0x04\n      add\n      tag_236\n      swap2\n      swap1\n      tag_86\n      jump\t// in\n    tag_236:\n      0x20\n      mload(0x40)\n      dup1\n      dup4\n      sub\n      dup2\n      dup7\n      gas\n      staticcall\n      iszero\n      dup1\n      iszero\n      tag_238\n      jumpi\n      returndatasize\n      0x00\n      dup1\n      returndatacopy\n      revert(0x00, returndatasize)\n    tag_238:\n      pop\n      pop\n      pop\n      pop\n      mload(0x40)\n      returndatasize\n      not(0x1f)\n      0x1f\n      dup3\n      add\n      and\n      dup3\n      add\n      dup1\n      0x40\n      mstore\n      pop\n      dup2\n      add\n      swap1\n      tag_239\n      swap2\n      swap1\n      tag_212\n      jump\t// in\n    tag_239:\n        /* \"contracts/ZephyrosVault/ZephyrosVault.sol\":8384:8426  core.balanceOf(address(this)) - beforeCore */\n      tag_240\n      swap2\n      swap1\n      tag_180\n      jump\t// in\n    tag_240:\n        /* \"contracts/ZephyrosVault/ZephyrosVault.sol\":8363:8426  uint256 coreBought = core.balanceOf(address(this)) - beforeCore */\n      swap1\n      pop\n        /* \"contracts/ZephyrosVault/ZephyrosVault.sol\":8439:8457  uint256 burnAmount */\n      0x00\n        /* \"contracts/ZephyrosVault/ZephyrosVault.sol\":8485:8491  10_000 */\n      0x2710\n        /* \"contracts/ZephyrosVault/ZephyrosVault.sol\":8474:8481  burnBps */\n      sload(0x02)\n        /* \"contracts/ZephyrosVault/ZephyrosVault.sol\":8461:8471  coreBought */\n      dup4\n        /* \"contracts/ZephyrosVault/ZephyrosVault.sol\":8461:8481  coreBought * burnBps */\n      tag_241\n      swap2\n      swap1\n      tag_190\n      jump\t// in\n    tag_241:\n        /* \"contracts/ZephyrosVault/ZephyrosVault.sol\":8460:8491  (coreBought * burnBps) / 10_000 */\n      tag_242\n      swap2\n      swap1\n      tag_192\n      jump\t// in\n    tag_242:\n        /* \"contracts/ZephyrosVault/ZephyrosVault.sol\":8439:8491  uint256 burnAmount = (coreBought * burnBps) / 10_000 */\n      swap1\n      pop\n        /* \"contracts/ZephyrosVault/ZephyrosVault.sol\":8502:8526  uint256 rewardAmountCore */\n      0x00\n        /* \"contracts/ZephyrosVault/ZephyrosVault.sol\":8556:8562  10_000 */\n      0x2710\n        /* \"contracts/ZephyrosVault/ZephyrosVault.sol\":8543:8552  rewardBps */\n      sload(0x03)\n        /* \"contracts/ZephyrosVault/ZephyrosVault.sol\":8530:8540  coreBought */\n      dup5\n        /* \"contracts/ZephyrosVault/ZephyrosVault.sol\":8530:8552  coreBought * rewardBps */\n      tag_243\n      swap2\n      swap1\n      tag_190\n      jump\t// in\n    tag_243:\n        /* \"contracts/ZephyrosVault/ZephyrosVault.sol\":8529:8562  (coreBought * rewardBps) / 10_000 */\n      tag_244\n      swap2\n      swap1\n      tag_192\n      jump\t// in\n    tag_244:\n        /* \"contracts/ZephyrosVault/ZephyrosVault.sol\":8502:8562  uint256 rewardAmountCore = (coreBought * rewardBps) / 10_000 */\n      swap1\n      pop\n        /* \"contracts/ZephyrosVault/ZephyrosVault.sol\":8573:8595  uint256 treasuryAmount */\n      0x00\n        /* \"contracts/ZephyrosVault/ZephyrosVault.sol\":8624:8640  rewardAmountCore */\n      dup2\n        /* \"contracts/ZephyrosVault/ZephyrosVault.sol\":8611:8621  burnAmount */\n      dup4\n        /* \"contracts/ZephyrosVault/ZephyrosVault.sol\":8598:8608  coreBought */\n      dup6\n        /* \"contracts/ZephyrosVault/ZephyrosVault.sol\":8598:8621  coreBought - burnAmount */\n      tag_245\n      swap2\n      swap1\n      tag_180\n      jump\t// in\n    tag_245:\n        /* \"contracts/ZephyrosVault/ZephyrosVault.sol\":8598:8640  coreBought - burnAmount - rewardAmountCore */\n      tag_246\n      swap2\n      swap1\n      tag_180\n      jump\t// in\n    tag_246:\n        /* \"contracts/ZephyrosVault/ZephyrosVault.sol\":8573:8640  uint256 treasuryAmount = coreBought - burnAmount - rewardAmountCore */\n      swap1\n      pop\n        /* \"contracts/ZephyrosVault/ZephyrosVault.sol\":8653:8661  coreBurn */\n      immutable(\"0xf65e3ff0de05ca77aa8c820bd528facc139ee4b0986f7c350f3198928bd2c72b\")\n        /* \"contracts/ZephyrosVault/ZephyrosVault.sol\":8653:8666  coreBurn.burn */\n      0xffffffffffffffffffffffffffffffffffffffff\n      and\n      0x42966c68\n        /* \"contracts/ZephyrosVault/ZephyrosVault.sol\":8667:8677  burnAmount */\n      dup5\n        /* \"contracts/ZephyrosVault/ZephyrosVault.sol\":8653:8678  coreBurn.burn(burnAmount) */\n      mload(0x40)\n      dup3\n      0xffffffff\n      and\n      0xe0\n      shl\n      dup2\n      mstore\n      0x04\n      add\n      tag_247\n      swap2\n      swap1\n      tag_46\n      jump\t// in\n    tag_247:\n      0x00\n      mload(0x40)\n      dup1\n      dup4\n      sub\n      dup2\n      0x00\n      dup8\n      dup1\n      extcodesize\n      iszero\n      dup1\n      iszero\n      tag_248\n      jumpi\n      0x00\n      dup1\n      revert\n    tag_248:\n      pop\n      gas\n      call\n      iszero\n      dup1\n      iszero\n      tag_250\n      jumpi\n      returndatasize\n      0x00\n      dup1\n      returndatacopy\n      revert(0x00, returndatasize)\n    tag_250:\n      pop\n      pop\n      pop\n      pop\n        /* \"contracts/ZephyrosVault/ZephyrosVault.sol\":8689:8732  core.safeTransfer(treasury, treasuryAmount) */\n      tag_251\n        /* \"contracts/ZephyrosVault/ZephyrosVault.sol\":8707:8715  treasury */\n      0x05\n      0x00\n      swap1\n      sload\n      swap1\n      0x0100\n      exp\n      swap1\n      div\n      0xffffffffffffffffffffffffffffffffffffffff\n      and\n        /* \"contracts/ZephyrosVault/ZephyrosVault.sol\":8717:8731  treasuryAmount */\n      dup3\n        /* \"contracts/ZephyrosVault/ZephyrosVault.sol\":8689:8693  core */\n      immutable(\"0xac09810740600c31fa69f9db79ed6fc3e3281f758a950fe1fb254a3a3ae571b6\")\n        /* \"contracts/ZephyrosVault/ZephyrosVault.sol\":8689:8706  core.safeTransfer */\n      0xffffffffffffffffffffffffffffffffffffffff\n      and\n      tag_252\n      swap1\n        /* \"contracts/ZephyrosVault/ZephyrosVault.sol\":8689:8732  core.safeTransfer(treasury, treasuryAmount) */\n      swap3\n      swap2\n      swap1\n      0xffffffff\n      and\n      jump\t// in\n    tag_251:\n        /* \"contracts/ZephyrosVault/ZephyrosVault.sol\":8827:8841  totalLiquidity */\n      sload(0x06)\n        /* \"contracts/ZephyrosVault/ZephyrosVault.sol\":1863:1867  1e18 */\n      0x0de0b6b3a7640000\n        /* \"contracts/ZephyrosVault/ZephyrosVault.sol\":8782:8798  rewardAmountCore */\n      dup4\n        /* \"contracts/ZephyrosVault/ZephyrosVault.sol\":8782:8810  rewardAmountCore * PRECISION */\n      tag_253\n      swap2\n      swap1\n      tag_190\n      jump\t// in\n    tag_253:\n        /* \"contracts/ZephyrosVault/ZephyrosVault.sol\":8781:8841  (rewardAmountCore * PRECISION) /... */\n      tag_254\n      swap2\n      swap1\n      tag_192\n      jump\t// in\n    tag_254:\n        /* \"contracts/ZephyrosVault/ZephyrosVault.sol\":8745:8764  accCorePerLiquidity */\n      0x07\n      0x00\n        /* \"contracts/ZephyrosVault/ZephyrosVault.sol\":8745:8841  accCorePerLiquidity +=... */\n      dup3\n      dup3\n      sload\n      tag_255\n      swap2\n      swap1\n      tag_185\n      jump\t// in\n    tag_255:\n      swap3\n      pop\n      pop\n      dup2\n      swap1\n      sstore\n      pop\n        /* \"contracts/ZephyrosVault/ZephyrosVault.sol\":8859:9016  Harvested(... */\n      0x3f48df85479f6c561daf949b29227cd56e69f1e817ddf5081f85a18443d9c022\n        /* \"contracts/ZephyrosVault/ZephyrosVault.sol\":8883:8895  rewardAmount */\n      dup7\n        /* \"contracts/ZephyrosVault/ZephyrosVault.sol\":8910:8920  coreBought */\n      dup6\n        /* \"contracts/ZephyrosVault/ZephyrosVault.sol\":8935:8945  burnAmount */\n      dup6\n        /* \"contracts/ZephyrosVault/ZephyrosVault.sol\":8960:8976  rewardAmountCore */\n      dup6\n        /* \"contracts/ZephyrosVault/ZephyrosVault.sol\":8991:9005  treasuryAmount */\n      dup6\n        /* \"contracts/ZephyrosVault/ZephyrosVault.sol\":8859:9016  Harvested(... */\n      mload(0x40)\n      tag_256\n      swap6\n      swap5\n      swap4\n      swap3\n      swap2\n      swap1\n      tag_194\n      jump\t// in\n    tag_256:\n      mload(0x40)\n      dup1\n      swap2\n      sub\n      swap1\n      log1\n        /* \"contracts/ZephyrosVault/ZephyrosVault.sol\":7583:9024  {... */\n      pop\n      pop\n      pop\n      pop\n      pop\n      pop\n      pop\n        /* \"https://github.com/OpenZeppelin/openzeppelin-contracts/blob/v5.4.0/contracts/utils/ReentrancyGuard.sol\":2542:2562  _nonReentrantAfter() */\n      tag_257\n        /* \"https://github.com/OpenZeppelin/openzeppelin-contracts/blob/v5.4.0/contracts/utils/ReentrancyGuard.sol\":2542:2560  _nonReentrantAfter */\n      tag_196\n        /* \"https://github.com/OpenZeppelin/openzeppelin-contracts/blob/v5.4.0/contracts/utils/ReentrancyGuard.sol\":2542:2562  _nonReentrantAfter() */\n      jump\t// in\n    tag_257:\n        /* \"contracts/ZephyrosVault/ZephyrosVault.sol\":7462:9024  function harvest(... */\n      pop\n      pop\n      pop\n      jump\t// out\n        /* \"contracts/ZephyrosVault/ZephyrosVault.sol\":6405:7454  function withdraw(uint256 liquidityAmount) external nonReentrant {... */\n    tag_69:\n        /* \"https://github.com/OpenZeppelin/openzeppelin-contracts/blob/v5.4.0/contracts/utils/ReentrancyGuard.sol\":2500:2521  _nonReentrantBefore() */\n      tag_259\n        /* \"https://github.com/OpenZeppelin/openzeppelin-contracts/blob/v5.4.0/contracts/utils/ReentrancyGuard.sol\":2500:2519  _nonReentrantBefore */\n      tag_141\n        /* \"https://github.com/OpenZeppelin/openzeppelin-contracts/blob/v5.4.0/contracts/utils/ReentrancyGuard.sol\":2500:2521  _nonReentrantBefore() */\n      jump\t// in\n    tag_259:\n        /* \"contracts/ZephyrosVault/ZephyrosVault.sol\":6481:6502  UserInfo storage user */\n      0x00\n        /* \"contracts/ZephyrosVault/ZephyrosVault.sol\":6505:6510  users */\n      0x08\n        /* \"contracts/ZephyrosVault/ZephyrosVault.sol\":6505:6522  users[msg.sender] */\n      0x00\n        /* \"contracts/ZephyrosVault/ZephyrosVault.sol\":6511:6521  msg.sender */\n      caller\n        /* \"contracts/ZephyrosVault/ZephyrosVault.sol\":6505:6522  users[msg.sender] */\n      0xffffffffffffffffffffffffffffffffffffffff\n      and\n      0xffffffffffffffffffffffffffffffffffffffff\n      and\n      dup2\n      mstore\n      0x20\n      add\n      swap1\n      dup2\n      mstore\n      0x20\n      add\n      0x00\n      keccak256\n        /* \"contracts/ZephyrosVault/ZephyrosVault.sol\":6481:6522  UserInfo storage user = users[msg.sender] */\n      swap1\n      pop\n        /* \"contracts/ZephyrosVault/ZephyrosVault.sol\":6561:6562  0 */\n      0x00\n        /* \"contracts/ZephyrosVault/ZephyrosVault.sol\":6543:6558  liquidityAmount */\n      dup3\n        /* \"contracts/ZephyrosVault/ZephyrosVault.sol\":6543:6562  liquidityAmount > 0 */\n      gt\n        /* \"contracts/ZephyrosVault/ZephyrosVault.sol\":6535:6580  require(liquidityAmount > 0, \"zero withdraw\") */\n      tag_261\n      jumpi\n      mload(0x40)\n      0x08c379a000000000000000000000000000000000000000000000000000000000\n      dup2\n      mstore\n      0x04\n      add\n      tag_262\n      swap1\n      tag_263\n      jump\t// in\n    tag_262:\n      mload(0x40)\n      dup1\n      swap2\n      sub\n      swap1\n      revert\n    tag_261:\n        /* \"contracts/ZephyrosVault/ZephyrosVault.sol\":6617:6632  liquidityAmount */\n      dup2\n        /* \"contracts/ZephyrosVault/ZephyrosVault.sol\":6599:6603  user */\n      dup2\n        /* \"contracts/ZephyrosVault/ZephyrosVault.sol\":6599:6613  user.liquidity */\n      0x00\n      add\n      sload\n        /* \"contracts/ZephyrosVault/ZephyrosVault.sol\":6599:6632  user.liquidity >= liquidityAmount */\n      lt\n      iszero\n        /* \"contracts/ZephyrosVault/ZephyrosVault.sol\":6591:6645  require(user.liquidity >= liquidityAmount, \"too much\") */\n      tag_264\n      jumpi\n      mload(0x40)\n      0x08c379a000000000000000000000000000000000000000000000000000000000\n      dup2\n      mstore\n      0x04\n      add\n      tag_265\n      swap1\n      tag_266\n      jump\t// in\n    tag_265:\n      mload(0x40)\n      dup1\n      swap2\n      sub\n      swap1\n      revert\n    tag_264:\n        /* \"contracts/ZephyrosVault/ZephyrosVault.sol\":6683:6687  user */\n      dup1\n        /* \"contracts/ZephyrosVault/ZephyrosVault.sol\":6683:6698  user.unlockTime */\n      0x03\n      add\n      sload\n        /* \"contracts/ZephyrosVault/ZephyrosVault.sol\":6664:6679  block.timestamp */\n      timestamp\n        /* \"contracts/ZephyrosVault/ZephyrosVault.sol\":6664:6698  block.timestamp >= user.unlockTime */\n      lt\n      iszero\n        /* \"contracts/ZephyrosVault/ZephyrosVault.sol\":6656:6715  require(block.timestamp >= user.unlockTime, \"still locked\") */\n      tag_267\n      jumpi\n      mload(0x40)\n      0x08c379a000000000000000000000000000000000000000000000000000000000\n      dup2\n      mstore\n      0x04\n      add\n      tag_268\n      swap1\n      tag_269\n      jump\t// in\n    tag_268:\n      mload(0x40)\n      dup1\n      swap2\n      sub\n      swap1\n      revert\n    tag_267:\n        /* \"contracts/ZephyrosVault/ZephyrosVault.sol\":6728:6757  _claimCoreRewards(msg.sender) */\n      tag_270\n        /* \"contracts/ZephyrosVault/ZephyrosVault.sol\":6746:6756  msg.sender */\n      caller\n        /* \"contracts/ZephyrosVault/ZephyrosVault.sol\":6728:6745  _claimCoreRewards */\n      tag_151\n        /* \"contracts/ZephyrosVault/ZephyrosVault.sol\":6728:6757  _claimCoreRewards(msg.sender) */\n      jump\t// in\n    tag_270:\n        /* \"contracts/ZephyrosVault/ZephyrosVault.sol\":6770:6790  uint256 coreToUnlock */\n      0x00\n        /* \"contracts/ZephyrosVault/ZephyrosVault.sol\":6857:6861  user */\n      dup2\n        /* \"contracts/ZephyrosVault/ZephyrosVault.sol\":6857:6871  user.liquidity */\n      0x00\n      add\n      sload\n        /* \"contracts/ZephyrosVault/ZephyrosVault.sol\":6825:6840  liquidityAmount */\n      dup4\n        /* \"contracts/ZephyrosVault/ZephyrosVault.sol\":6807:6811  user */\n      dup4\n        /* \"contracts/ZephyrosVault/ZephyrosVault.sol\":6807:6822  user.coreLocked */\n      0x01\n      add\n      sload\n        /* \"contracts/ZephyrosVault/ZephyrosVault.sol\":6807:6840  user.coreLocked * liquidityAmount */\n      tag_271\n      swap2\n      swap1\n      tag_190\n      jump\t// in\n    tag_271:\n        /* \"contracts/ZephyrosVault/ZephyrosVault.sol\":6806:6871  (user.coreLocked * liquidityAmount) /... */\n      tag_272\n      swap2\n      swap1\n      tag_192\n      jump\t// in\n    tag_272:\n        /* \"contracts/ZephyrosVault/ZephyrosVault.sol\":6770:6871  uint256 coreToUnlock =... */\n      swap1\n      pop\n        /* \"contracts/ZephyrosVault/ZephyrosVault.sol\":6902:6917  liquidityAmount */\n      dup3\n        /* \"contracts/ZephyrosVault/ZephyrosVault.sol\":6884:6888  user */\n      dup3\n        /* \"contracts/ZephyrosVault/ZephyrosVault.sol\":6884:6898  user.liquidity */\n      0x00\n      add\n      0x00\n        /* \"contracts/ZephyrosVault/ZephyrosVault.sol\":6884:6917  user.liquidity -= liquidityAmount */\n      dup3\n      dup3\n      sload\n      tag_273\n      swap2\n      swap1\n      tag_180\n      jump\t// in\n    tag_273:\n      swap3\n      pop\n      pop\n      dup2\n      swap1\n      sstore\n      pop\n        /* \"contracts/ZephyrosVault/ZephyrosVault.sol\":6947:6959  coreToUnlock */\n      dup1\n        /* \"contracts/ZephyrosVault/ZephyrosVault.sol\":6928:6932  user */\n      dup3\n        /* \"contracts/ZephyrosVault/ZephyrosVault.sol\":6928:6943  user.coreLocked */\n      0x01\n      add\n      0x00\n        /* \"contracts/ZephyrosVault/ZephyrosVault.sol\":6928:6959  user.coreLocked -= coreToUnlock */\n      dup3\n      dup3\n      sload\n      tag_274\n      swap2\n      swap1\n      tag_180\n      jump\t// in\n    tag_274:\n      swap3\n      pop\n      pop\n      dup2\n      swap1\n      sstore\n      pop\n        /* \"contracts/ZephyrosVault/ZephyrosVault.sol\":6988:7003  liquidityAmount */\n      dup3\n        /* \"contracts/ZephyrosVault/ZephyrosVault.sol\":6970:6984  totalLiquidity */\n      0x06\n      0x00\n        /* \"contracts/ZephyrosVault/ZephyrosVault.sol\":6970:7003  totalLiquidity -= liquidityAmount */\n      dup3\n      dup3\n      sload\n      tag_275\n      swap2\n      swap1\n      tag_180\n      jump\t// in\n    tag_275:\n      swap3\n      pop\n      pop\n      dup2\n      swap1\n      sstore\n      pop\n        /* \"contracts/ZephyrosVault/ZephyrosVault.sol\":7016:7027  electroFarm */\n      immutable(\"0x2f5ccb30fa919306cd2899a81c7670a9b1be09e8c15a0b78b0fbbc777d15e97b\")\n        /* \"contracts/ZephyrosVault/ZephyrosVault.sol\":7016:7036  electroFarm.withdraw */\n      0xffffffffffffffffffffffffffffffffffffffff\n      and\n      0x33cfcd3b\n        /* \"contracts/ZephyrosVault/ZephyrosVault.sol\":7037:7043  farmId */\n      immutable(\"0xbdf07588e6652aaee28b29156c2ae266c9ba46e253ddd99b466cce31f77c51a3\")\n        /* \"contracts/ZephyrosVault/ZephyrosVault.sol\":7045:7060  liquidityAmount */\n      dup6\n        /* \"contracts/ZephyrosVault/ZephyrosVault.sol\":7062:7067  false */\n      0x00\n        /* \"contracts/ZephyrosVault/ZephyrosVault.sol\":7016:7068  electroFarm.withdraw(farmId, liquidityAmount, false) */\n      mload(0x40)\n      dup5\n      0xffffffff\n      and\n      0xe0\n      shl\n      dup2\n      mstore\n      0x04\n      add\n      tag_276\n      swap4\n      swap3\n      swap2\n      swap1\n      tag_277\n      jump\t// in\n    tag_276:\n      0x00\n      mload(0x40)\n      dup1\n      dup4\n      sub\n      dup2\n      0x00\n      dup8\n      dup1\n      extcodesize\n      iszero\n      dup1\n      iszero\n      tag_278\n      jumpi\n      0x00\n      dup1\n      revert\n    tag_278:\n      pop\n      gas\n      call\n      iszero\n      dup1\n      iszero\n      tag_280\n      jumpi\n      returndatasize\n      0x00\n      dup1\n      returndatacopy\n      revert(0x00, returndatasize)\n    tag_280:\n      pop\n      pop\n      pop\n      pop\n        /* \"contracts/ZephyrosVault/ZephyrosVault.sol\":7103:7104  0 */\n      0x00\n        /* \"contracts/ZephyrosVault/ZephyrosVault.sol\":7085:7089  user */\n      dup3\n        /* \"contracts/ZephyrosVault/ZephyrosVault.sol\":7085:7099  user.liquidity */\n      0x00\n      add\n      sload\n        /* \"contracts/ZephyrosVault/ZephyrosVault.sol\":7085:7104  user.liquidity == 0 */\n      sub\n        /* \"contracts/ZephyrosVault/ZephyrosVault.sol\":7081:7321  if (user.liquidity == 0) {... */\n      tag_281\n      jumpi\n        /* \"contracts/ZephyrosVault/ZephyrosVault.sol\":7135:7140  false */\n      0x00\n        /* \"contracts/ZephyrosVault/ZephyrosVault.sol\":7121:7125  user */\n      dup3\n        /* \"contracts/ZephyrosVault/ZephyrosVault.sol\":7121:7132  user.active */\n      0x04\n      add\n      0x00\n        /* \"contracts/ZephyrosVault/ZephyrosVault.sol\":7121:7140  user.active = false */\n      0x0100\n      exp\n      dup2\n      sload\n      dup2\n      0xff\n      mul\n      not\n      and\n      swap1\n      dup4\n      iszero\n      iszero\n      mul\n      or\n      swap1\n      sstore\n      pop\n        /* \"contracts/ZephyrosVault/ZephyrosVault.sol\":7173:7174  0 */\n      0x00\n        /* \"contracts/ZephyrosVault/ZephyrosVault.sol\":7155:7159  user */\n      dup3\n        /* \"contracts/ZephyrosVault/ZephyrosVault.sol\":7155:7170  user.rewardDebt */\n      0x02\n      add\n        /* \"contracts/ZephyrosVault/ZephyrosVault.sol\":7155:7174  user.rewardDebt = 0 */\n      dup2\n      swap1\n      sstore\n      pop\n        /* \"contracts/ZephyrosVault/ZephyrosVault.sol\":7081:7321  if (user.liquidity == 0) {... */\n      jump(tag_282)\n    tag_281:\n        /* \"contracts/ZephyrosVault/ZephyrosVault.sol\":1863:1867  1e18 */\n      0x0de0b6b3a7640000\n        /* \"contracts/ZephyrosVault/ZephyrosVault.sol\":7260:7279  accCorePerLiquidity */\n      sload(0x07)\n        /* \"contracts/ZephyrosVault/ZephyrosVault.sol\":7243:7247  user */\n      dup4\n        /* \"contracts/ZephyrosVault/ZephyrosVault.sol\":7243:7257  user.liquidity */\n      0x00\n      add\n      sload\n        /* \"contracts/ZephyrosVault/ZephyrosVault.sol\":7243:7279  user.liquidity * accCorePerLiquidity */\n      tag_283\n      swap2\n      swap1\n      tag_190\n      jump\t// in\n    tag_283:\n        /* \"contracts/ZephyrosVault/ZephyrosVault.sol\":7242:7309  (user.liquidity * accCorePerLiquidity) /... */\n      tag_284\n      swap2\n      swap1\n      tag_192\n      jump\t// in\n    tag_284:\n        /* \"contracts/ZephyrosVault/ZephyrosVault.sol\":7207:7211  user */\n      dup3\n        /* \"contracts/ZephyrosVault/ZephyrosVault.sol\":7207:7222  user.rewardDebt */\n      0x02\n      add\n        /* \"contracts/ZephyrosVault/ZephyrosVault.sol\":7207:7309  user.rewardDebt =... */\n      dup2\n      swap1\n      sstore\n      pop\n        /* \"contracts/ZephyrosVault/ZephyrosVault.sol\":7081:7321  if (user.liquidity == 0) {... */\n    tag_282:\n        /* \"contracts/ZephyrosVault/ZephyrosVault.sol\":7333:7376  core.safeTransfer(msg.sender, coreToUnlock) */\n      tag_285\n        /* \"contracts/ZephyrosVault/ZephyrosVault.sol\":7351:7361  msg.sender */\n      caller\n        /* \"contracts/ZephyrosVault/ZephyrosVault.sol\":7363:7375  coreToUnlock */\n      dup3\n        /* \"contracts/ZephyrosVault/ZephyrosVault.sol\":7333:7337  core */\n      immutable(\"0xac09810740600c31fa69f9db79ed6fc3e3281f758a950fe1fb254a3a3ae571b6\")\n        /* \"contracts/ZephyrosVault/ZephyrosVault.sol\":7333:7350  core.safeTransfer */\n      0xffffffffffffffffffffffffffffffffffffffff\n      and\n      tag_252\n      swap1\n        /* \"contracts/ZephyrosVault/ZephyrosVault.sol\":7333:7376  core.safeTransfer(msg.sender, coreToUnlock) */\n      swap3\n      swap2\n      swap1\n      0xffffffff\n      and\n      jump\t// in\n    tag_285:\n        /* \"contracts/ZephyrosVault/ZephyrosVault.sol\":7404:7414  msg.sender */\n      caller\n        /* \"contracts/ZephyrosVault/ZephyrosVault.sol\":7394:7446  Withdrawn(msg.sender, liquidityAmount, coreToUnlock) */\n      0xffffffffffffffffffffffffffffffffffffffff\n      and\n      0x92ccf450a286a957af52509bc1c9939d1a6a481783e142e41e2499f0bb66ebc6\n        /* \"contracts/ZephyrosVault/ZephyrosVault.sol\":7416:7431  liquidityAmount */\n      dup5\n        /* \"contracts/ZephyrosVault/ZephyrosVault.sol\":7433:7445  coreToUnlock */\n      dup4\n        /* \"contracts/ZephyrosVault/ZephyrosVault.sol\":7394:7446  Withdrawn(msg.sender, liquidityAmount, coreToUnlock) */\n      mload(0x40)\n      tag_286\n      swap3\n      swap2\n      swap1\n      tag_287\n      jump\t// in\n    tag_286:\n      mload(0x40)\n      dup1\n      swap2\n      sub\n      swap1\n      log2\n        /* \"contracts/ZephyrosVault/ZephyrosVault.sol\":6470:7454  {... */\n      pop\n      pop\n        /* \"https://github.com/OpenZeppelin/openzeppelin-contracts/blob/v5.4.0/contracts/utils/ReentrancyGuard.sol\":2542:2562  _nonReentrantAfter() */\n      tag_288\n        /* \"https://github.com/OpenZeppelin/openzeppelin-contracts/blob/v5.4.0/contracts/utils/ReentrancyGuard.sol\":2542:2560  _nonReentrantAfter */\n      tag_196\n        /* \"https://github.com/OpenZeppelin/openzeppelin-contracts/blob/v5.4.0/contracts/utils/ReentrancyGuard.sol\":2542:2562  _nonReentrantAfter() */\n      jump\t// in\n    tag_288:\n        /* \"contracts/ZephyrosVault/ZephyrosVault.sol\":6405:7454  function withdraw(uint256 liquidityAmount) external nonReentrant {... */\n      pop\n      jump\t// out\n        /* \"contracts/ZephyrosVault/ZephyrosVault.sol\":1874:1921  uint256 public constant LOCK_DURATION = 90 days */\n    tag_71:\n        /* \"contracts/ZephyrosVault/ZephyrosVault.sol\":1914:1921  90 days */\n      0x76a700\n        /* \"contracts/ZephyrosVault/ZephyrosVault.sol\":1874:1921  uint256 public constant LOCK_DURATION = 90 days */\n      dup2\n      jump\t// out\n        /* \"contracts/ZephyrosVault/ZephyrosVault.sol\":2024:2057  uint256 public treasuryBps = 1500 */\n    tag_74:\n      sload(0x04)\n      dup2\n      jump\t// out\n        /* \"contracts/ZephyrosVault/ZephyrosVault.sol\":1930:1959  uint256 public burnBps = 4000 */\n    tag_77:\n      sload(0x02)\n      dup2\n      jump\t// out\n        /* \"contracts/ZephyrosVault/ZephyrosVault.sol\":2240:2276  ICoreToken public immutable coreBurn */\n    tag_80:\n      immutable(\"0xf65e3ff0de05ca77aa8c820bd528facc139ee4b0986f7c350f3198928bd2c72b\")\n      dup2\n      jump\t// out\n        /* \"contracts/ZephyrosVault/ZephyrosVault.sol\":2453:2476  address public treasury */\n    tag_84:\n      0x05\n      0x00\n      swap1\n      sload\n      swap1\n      0x0100\n      exp\n      swap1\n      div\n      0xffffffffffffffffffffffffffffffffffffffff\n      and\n      dup2\n      jump\t// out\n        /* \"contracts/ZephyrosVault/ZephyrosVault.sol\":2327:2368  IElectroFarm public immutable electroFarm */\n    tag_88:\n      immutable(\"0x2f5ccb30fa919306cd2899a81c7670a9b1be09e8c15a0b78b0fbbc777d15e97b\")\n      dup2\n      jump\t// out\n        /* \"contracts/ZephyrosVault/ZephyrosVault.sol\":10628:11039  function setSplits(... */\n    tag_93:\n        /* \"https://github.com/OpenZeppelin/openzeppelin-contracts/blob/v5.4.0/contracts/access/Ownable.sol\":1531:1544  _checkOwner() */\n      tag_290\n        /* \"https://github.com/OpenZeppelin/openzeppelin-contracts/blob/v5.4.0/contracts/access/Ownable.sol\":1531:1542  _checkOwner */\n      tag_291\n        /* \"https://github.com/OpenZeppelin/openzeppelin-contracts/blob/v5.4.0/contracts/access/Ownable.sol\":1531:1544  _checkOwner() */\n      jump\t// in\n    tag_290:\n        /* \"contracts/ZephyrosVault/ZephyrosVault.sol\":10833:10839  10_000 */\n      0x2710\n        /* \"contracts/ZephyrosVault/ZephyrosVault.sol\":10817:10829  _treasuryBps */\n      dup2\n        /* \"contracts/ZephyrosVault/ZephyrosVault.sol\":10804:10814  _rewardBps */\n      dup4\n        /* \"contracts/ZephyrosVault/ZephyrosVault.sol\":10793:10801  _burnBps */\n      dup6\n        /* \"contracts/ZephyrosVault/ZephyrosVault.sol\":10793:10814  _burnBps + _rewardBps */\n      tag_293\n      swap2\n      swap1\n      tag_185\n      jump\t// in\n    tag_293:\n        /* \"contracts/ZephyrosVault/ZephyrosVault.sol\":10793:10829  _burnBps + _rewardBps + _treasuryBps */\n      tag_294\n      swap2\n      swap1\n      tag_185\n      jump\t// in\n    tag_294:\n        /* \"contracts/ZephyrosVault/ZephyrosVault.sol\":10793:10839  _burnBps + _rewardBps + _treasuryBps == 10_000 */\n      eq\n        /* \"contracts/ZephyrosVault/ZephyrosVault.sol\":10771:10876  require(... */\n      tag_295\n      jumpi\n      mload(0x40)\n      0x08c379a000000000000000000000000000000000000000000000000000000000\n      dup2\n      mstore\n      0x04\n      add\n      tag_296\n      swap1\n      tag_297\n      jump\t// in\n    tag_296:\n      mload(0x40)\n      dup1\n      swap2\n      sub\n      swap1\n      revert\n    tag_295:\n        /* \"contracts/ZephyrosVault/ZephyrosVault.sol\":10909:10913  3000 */\n      0x0bb8\n        /* \"contracts/ZephyrosVault/ZephyrosVault.sol\":10897:10905  _burnBps */\n      dup4\n        /* \"contracts/ZephyrosVault/ZephyrosVault.sol\":10897:10913  _burnBps >= 3000 */\n      lt\n      iszero\n        /* \"contracts/ZephyrosVault/ZephyrosVault.sol\":10889:10930  require(_burnBps >= 3000, \"burn too low\") */\n      tag_298\n      jumpi\n      mload(0x40)\n      0x08c379a000000000000000000000000000000000000000000000000000000000\n      dup2\n      mstore\n      0x04\n      add\n      tag_299\n      swap1\n      tag_300\n      jump\t// in\n    tag_299:\n      mload(0x40)\n      dup1\n      swap2\n      sub\n      swap1\n      revert\n    tag_298:\n        /* \"contracts/ZephyrosVault/ZephyrosVault.sol\":10953:10961  _burnBps */\n      dup3\n        /* \"contracts/ZephyrosVault/ZephyrosVault.sol\":10943:10950  burnBps */\n      0x02\n        /* \"contracts/ZephyrosVault/ZephyrosVault.sol\":10943:10961  burnBps = _burnBps */\n      dup2\n      swap1\n      sstore\n      pop\n        /* \"contracts/ZephyrosVault/ZephyrosVault.sol\":10984:10994  _rewardBps */\n      dup2\n        /* \"contracts/ZephyrosVault/ZephyrosVault.sol\":10972:10981  rewardBps */\n      0x03\n        /* \"contracts/ZephyrosVault/ZephyrosVault.sol\":10972:10994  rewardBps = _rewardBps */\n      dup2\n      swap1\n      sstore\n      pop\n        /* \"contracts/ZephyrosVault/ZephyrosVault.sol\":11019:11031  _treasuryBps */\n      dup1\n        /* \"contracts/ZephyrosVault/ZephyrosVault.sol\":11005:11016  treasuryBps */\n      0x04\n        /* \"contracts/ZephyrosVault/ZephyrosVault.sol\":11005:11031  treasuryBps = _treasuryBps */\n      dup2\n      swap1\n      sstore\n      pop\n        /* \"contracts/ZephyrosVault/ZephyrosVault.sol\":10628:11039  function setSplits(... */\n      pop\n      pop\n      pop\n      jump\t// out\n        /* \"https://github.com/OpenZeppelin/openzeppelin-contracts/blob/v5.4.0/contracts/access/Ownable.sol\":2293:2394  function renounceOwnership() public virtual onlyOwner {... */\n    tag_95:\n        /* \"https://github.com/OpenZeppelin/openzeppelin-contracts/blob/v5.4.0/contracts/access/Ownable.sol\":1531:1544  _checkOwner() */\n      tag_302\n        /* \"https://github.com/OpenZeppelin/openzeppelin-contracts/blob/v5.4.0/contracts/access/Ownable.sol\":1531:1542  _checkOwner */\n      tag_291\n        /* \"https://github.com/OpenZeppelin/openzeppelin-contracts/blob/v5.4.0/contracts/access/Ownable.sol\":1531:1544  _checkOwner() */\n      jump\t// in\n    tag_302:\n        /* \"https://github.com/OpenZeppelin/openzeppelin-contracts/blob/v5.4.0/contracts/access/Ownable.sol\":2357:2387  _transferOwnership(address(0)) */\n      tag_304\n        /* \"https://github.com/OpenZeppelin/openzeppelin-contracts/blob/v5.4.0/contracts/access/Ownable.sol\":2384:2385  0 */\n      0x00\n        /* \"https://github.com/OpenZeppelin/openzeppelin-contracts/blob/v5.4.0/contracts/access/Ownable.sol\":2357:2375  _transferOwnership */\n      tag_305\n        /* \"https://github.com/OpenZeppelin/openzeppelin-contracts/blob/v5.4.0/contracts/access/Ownable.sol\":2357:2387  _transferOwnership(address(0)) */\n      jump\t// in\n    tag_304:\n        /* \"https://github.com/OpenZeppelin/openzeppelin-contracts/blob/v5.4.0/contracts/access/Ownable.sol\":2293:2394  function renounceOwnership() public virtual onlyOwner {... */\n      jump\t// out\n        /* \"contracts/ZephyrosVault/ZephyrosVault.sol\":1977:2008  uint256 public rewardBps = 4500 */\n    tag_97:\n      sload(0x03)\n      dup2\n      jump\t// out\n        /* \"https://github.com/OpenZeppelin/openzeppelin-contracts/blob/v5.4.0/contracts/access/Ownable.sol\":1638:1723  function owner() public view virtual returns (address) {... */\n    tag_100:\n        /* \"https://github.com/OpenZeppelin/openzeppelin-contracts/blob/v5.4.0/contracts/access/Ownable.sol\":1684:1691  address */\n      0x00\n        /* \"https://github.com/OpenZeppelin/openzeppelin-contracts/blob/v5.4.0/contracts/access/Ownable.sol\":1710:1716  _owner */\n      dup1\n      0x00\n      swap1\n      sload\n      swap1\n      0x0100\n      exp\n      swap1\n      div\n      0xffffffffffffffffffffffffffffffffffffffff\n      and\n        /* \"https://github.com/OpenZeppelin/openzeppelin-contracts/blob/v5.4.0/contracts/access/Ownable.sol\":1703:1716  return _owner */\n      swap1\n      pop\n        /* \"https://github.com/OpenZeppelin/openzeppelin-contracts/blob/v5.4.0/contracts/access/Ownable.sol\":1638:1723  function owner() public view virtual returns (address) {... */\n      swap1\n      jump\t// out\n        /* \"contracts/ZephyrosVault/ZephyrosVault.sol\":9483:9780  function isCharacterEligible(address account) external view returns (bool) {... */\n    tag_104:\n        /* \"contracts/ZephyrosVault/ZephyrosVault.sol\":9552:9556  bool */\n      0x00\n        /* \"contracts/ZephyrosVault/ZephyrosVault.sol\":9569:9589  UserInfo memory user */\n      dup1\n        /* \"contracts/ZephyrosVault/ZephyrosVault.sol\":9592:9597  users */\n      0x08\n        /* \"contracts/ZephyrosVault/ZephyrosVault.sol\":9592:9606  users[account] */\n      0x00\n        /* \"contracts/ZephyrosVault/ZephyrosVault.sol\":9598:9605  account */\n      dup5\n        /* \"contracts/ZephyrosVault/ZephyrosVault.sol\":9592:9606  users[account] */\n      0xffffffffffffffffffffffffffffffffffffffff\n      and\n      0xffffffffffffffffffffffffffffffffffffffff\n      and\n      dup2\n      mstore\n      0x20\n      add\n      swap1\n      dup2\n      mstore\n      0x20\n      add\n      0x00\n      keccak256\n        /* \"contracts/ZephyrosVault/ZephyrosVault.sol\":9569:9606  UserInfo memory user = users[account] */\n      mload(0x40)\n      dup1\n      0xa0\n      add\n      0x40\n      mstore\n      swap1\n      dup2\n      0x00\n      dup3\n      add\n      sload\n      dup2\n      mstore\n      0x20\n      add\n      0x01\n      dup3\n      add\n      sload\n      dup2\n      mstore\n      0x20\n      add\n      0x02\n      dup3\n      add\n      sload\n      dup2\n      mstore\n      0x20\n      add\n      0x03\n      dup3\n      add\n      sload\n      dup2\n      mstore\n      0x20\n      add\n      0x04\n      dup3\n      add\n      0x00\n      swap1\n      sload\n      swap1\n      0x0100\n      exp\n      swap1\n      div\n      0xff\n      and\n      iszero\n      iszero\n      iszero\n      iszero\n      dup2\n      mstore\n      pop\n      pop\n      swap1\n      pop\n        /* \"contracts/ZephyrosVault/ZephyrosVault.sol\":9639:9643  user */\n      dup1\n        /* \"contracts/ZephyrosVault/ZephyrosVault.sol\":9639:9650  user.active */\n      0x80\n      add\n      mload\n        /* \"contracts/ZephyrosVault/ZephyrosVault.sol\":9639:9685  user.active &&... */\n      dup1\n      iszero\n      tag_308\n      jumpi\n      pop\n        /* \"contracts/ZephyrosVault/ZephyrosVault.sol\":9684:9685  0 */\n      0x00\n        /* \"contracts/ZephyrosVault/ZephyrosVault.sol\":9667:9671  user */\n      dup2\n        /* \"contracts/ZephyrosVault/ZephyrosVault.sol\":9667:9681  user.liquidity */\n      0x00\n      add\n      mload\n        /* \"contracts/ZephyrosVault/ZephyrosVault.sol\":9667:9685  user.liquidity > 0 */\n      gt\n        /* \"contracts/ZephyrosVault/ZephyrosVault.sol\":9639:9685  user.active &&... */\n    tag_308:\n        /* \"contracts/ZephyrosVault/ZephyrosVault.sol\":9639:9721  user.active &&... */\n      dup1\n      iszero\n      tag_309\n      jumpi\n      pop\n        /* \"contracts/ZephyrosVault/ZephyrosVault.sol\":9720:9721  0 */\n      0x00\n        /* \"contracts/ZephyrosVault/ZephyrosVault.sol\":9702:9706  user */\n      dup2\n        /* \"contracts/ZephyrosVault/ZephyrosVault.sol\":9702:9717  user.coreLocked */\n      0x20\n      add\n      mload\n        /* \"contracts/ZephyrosVault/ZephyrosVault.sol\":9702:9721  user.coreLocked > 0 */\n      gt\n        /* \"contracts/ZephyrosVault/ZephyrosVault.sol\":9639:9721  user.active &&... */\n    tag_309:\n        /* \"contracts/ZephyrosVault/ZephyrosVault.sol\":9639:9772  user.active &&... */\n      dup1\n      iszero\n      tag_310\n      jumpi\n      pop\n        /* \"contracts/ZephyrosVault/ZephyrosVault.sol\":9757:9761  user */\n      dup1\n        /* \"contracts/ZephyrosVault/ZephyrosVault.sol\":9757:9772  user.unlockTime */\n      0x60\n      add\n      mload\n        /* \"contracts/ZephyrosVault/ZephyrosVault.sol\":9738:9753  block.timestamp */\n      timestamp\n        /* \"contracts/ZephyrosVault/ZephyrosVault.sol\":9738:9772  block.timestamp >= user.unlockTime */\n      lt\n      iszero\n        /* \"contracts/ZephyrosVault/ZephyrosVault.sol\":9639:9772  user.active &&... */\n    tag_310:\n        /* \"contracts/ZephyrosVault/ZephyrosVault.sol\":9619:9772  return... */\n      swap2\n      pop\n      pop\n        /* \"contracts/ZephyrosVault/ZephyrosVault.sol\":9483:9780  function isCharacterEligible(address account) external view returns (bool) {... */\n      swap2\n      swap1\n      pop\n      jump\t// out\n        /* \"contracts/ZephyrosVault/ZephyrosVault.sol\":9032:9130  function claimCoreRewards() external nonReentrant {... */\n    tag_108:\n        /* \"https://github.com/OpenZeppelin/openzeppelin-contracts/blob/v5.4.0/contracts/utils/ReentrancyGuard.sol\":2500:2521  _nonReentrantBefore() */\n      tag_312\n        /* \"https://github.com/OpenZeppelin/openzeppelin-contracts/blob/v5.4.0/contracts/utils/ReentrancyGuard.sol\":2500:2519  _nonReentrantBefore */\n      tag_141\n        /* \"https://github.com/OpenZeppelin/openzeppelin-contracts/blob/v5.4.0/contracts/utils/ReentrancyGuard.sol\":2500:2521  _nonReentrantBefore() */\n      jump\t// in\n    tag_312:\n        /* \"contracts/ZephyrosVault/ZephyrosVault.sol\":9093:9122  _claimCoreRewards(msg.sender) */\n      tag_314\n        /* \"contracts/ZephyrosVault/ZephyrosVault.sol\":9111:9121  msg.sender */\n      caller\n        /* \"contracts/ZephyrosVault/ZephyrosVault.sol\":9093:9110  _claimCoreRewards */\n      tag_151\n        /* \"contracts/ZephyrosVault/ZephyrosVault.sol\":9093:9122  _claimCoreRewards(msg.sender) */\n      jump\t// in\n    tag_314:\n        /* \"https://github.com/OpenZeppelin/openzeppelin-contracts/blob/v5.4.0/contracts/utils/ReentrancyGuard.sol\":2542:2562  _nonReentrantAfter() */\n      tag_315\n        /* \"https://github.com/OpenZeppelin/openzeppelin-contracts/blob/v5.4.0/contracts/utils/ReentrancyGuard.sol\":2542:2560  _nonReentrantAfter */\n      tag_196\n        /* \"https://github.com/OpenZeppelin/openzeppelin-contracts/blob/v5.4.0/contracts/utils/ReentrancyGuard.sol\":2542:2562  _nonReentrantAfter() */\n      jump\t// in\n    tag_315:\n        /* \"contracts/ZephyrosVault/ZephyrosVault.sol\":9032:9130  function claimCoreRewards() external nonReentrant {... */\n      jump\t// out\n        /* \"contracts/ZephyrosVault/ZephyrosVault.sol\":2733:2774  mapping(address => UserInfo) public users */\n    tag_111:\n      mstore(0x20, 0x08)\n      dup1\n      0x00\n      mstore\n      keccak256(0x00, 0x40)\n      0x00\n      swap2\n      pop\n      swap1\n      pop\n      dup1\n      0x00\n      add\n      sload\n      swap1\n      dup1\n      0x01\n      add\n      sload\n      swap1\n      dup1\n      0x02\n      add\n      sload\n      swap1\n      dup1\n      0x03\n      add\n      sload\n      swap1\n      dup1\n      0x04\n      add\n      0x00\n      swap1\n      sload\n      swap1\n      0x0100\n      exp\n      swap1\n      div\n      0xff\n      and\n      swap1\n      pop\n      dup6\n      jump\t// out\n        /* \"contracts/ZephyrosVault/ZephyrosVault.sol\":1827:1867  uint256 public constant PRECISION = 1e18 */\n    tag_115:\n        /* \"contracts/ZephyrosVault/ZephyrosVault.sol\":1863:1867  1e18 */\n      0x0de0b6b3a7640000\n        /* \"contracts/ZephyrosVault/ZephyrosVault.sol\":1827:1867  uint256 public constant PRECISION = 1e18 */\n      dup2\n      jump\t// out\n        /* \"contracts/ZephyrosVault/ZephyrosVault.sol\":2168:2198  IERC20 public immutable token1 */\n    tag_118:\n      immutable(\"0xb9aa4ff60d3edb7fbc3b53bd780c9274ed80a5ba1a237d38b011edab2b031b4a\")\n      dup2\n      jump\t// out\n        /* \"contracts/ZephyrosVault/ZephyrosVault.sol\":11047:11205  function setTreasury(address _treasury) external onlyOwner {... */\n    tag_122:\n        /* \"https://github.com/OpenZeppelin/openzeppelin-contracts/blob/v5.4.0/contracts/access/Ownable.sol\":1531:1544  _checkOwner() */\n      tag_317\n        /* \"https://github.com/OpenZeppelin/openzeppelin-contracts/blob/v5.4.0/contracts/access/Ownable.sol\":1531:1542  _checkOwner */\n      tag_291\n        /* \"https://github.com/OpenZeppelin/openzeppelin-contracts/blob/v5.4.0/contracts/access/Ownable.sol\":1531:1544  _checkOwner() */\n      jump\t// in\n    tag_317:\n        /* \"contracts/ZephyrosVault/ZephyrosVault.sol\":11146:11147  0 */\n      0x00\n        /* \"contracts/ZephyrosVault/ZephyrosVault.sol\":11125:11148  _treasury != address(0) */\n      0xffffffffffffffffffffffffffffffffffffffff\n      and\n        /* \"contracts/ZephyrosVault/ZephyrosVault.sol\":11125:11134  _treasury */\n      dup2\n        /* \"contracts/ZephyrosVault/ZephyrosVault.sol\":11125:11148  _treasury != address(0) */\n      0xffffffffffffffffffffffffffffffffffffffff\n      and\n      sub\n        /* \"contracts/ZephyrosVault/ZephyrosVault.sol\":11117:11166  require(_treasury != address(0), \"zero treasury\") */\n      tag_319\n      jumpi\n      mload(0x40)\n      0x08c379a000000000000000000000000000000000000000000000000000000000\n      dup2\n      mstore\n      0x04\n      add\n      tag_320\n      swap1\n      tag_321\n      jump\t// in\n    tag_320:\n      mload(0x40)\n      dup1\n      swap2\n      sub\n      swap1\n      revert\n    tag_319:\n        /* \"contracts/ZephyrosVault/ZephyrosVault.sol\":11188:11197  _treasury */\n      dup1\n        /* \"contracts/ZephyrosVault/ZephyrosVault.sol\":11177:11185  treasury */\n      0x05\n      0x00\n        /* \"contracts/ZephyrosVault/ZephyrosVault.sol\":11177:11197  treasury = _treasury */\n      0x0100\n      exp\n      dup2\n      sload\n      dup2\n      0xffffffffffffffffffffffffffffffffffffffff\n      mul\n      not\n      and\n      swap1\n      dup4\n      0xffffffffffffffffffffffffffffffffffffffff\n      and\n      mul\n      or\n      swap1\n      sstore\n      pop\n        /* \"contracts/ZephyrosVault/ZephyrosVault.sol\":11047:11205  function setTreasury(address _treasury) external onlyOwner {... */\n      pop\n      jump\t// out\n        /* \"contracts/ZephyrosVault/ZephyrosVault.sol\":2205:2233  IERC20 public immutable core */\n    tag_124:\n      immutable(\"0xac09810740600c31fa69f9db79ed6fc3e3281f758a950fe1fb254a3a3ae571b6\")\n      dup2\n      jump\t// out\n        /* \"https://github.com/OpenZeppelin/openzeppelin-contracts/blob/v5.4.0/contracts/access/Ownable.sol\":2543:2758  function transferOwnership(address newOwner) public virtual onlyOwner {... */\n    tag_128:\n        /* \"https://github.com/OpenZeppelin/openzeppelin-contracts/blob/v5.4.0/contracts/access/Ownable.sol\":1531:1544  _checkOwner() */\n      tag_323\n        /* \"https://github.com/OpenZeppelin/openzeppelin-contracts/blob/v5.4.0/contracts/access/Ownable.sol\":1531:1542  _checkOwner */\n      tag_291\n        /* \"https://github.com/OpenZeppelin/openzeppelin-contracts/blob/v5.4.0/contracts/access/Ownable.sol\":1531:1544  _checkOwner() */\n      jump\t// in\n    tag_323:\n        /* \"https://github.com/OpenZeppelin/openzeppelin-contracts/blob/v5.4.0/contracts/access/Ownable.sol\":2647:2648  0 */\n      0x00\n        /* \"https://github.com/OpenZeppelin/openzeppelin-contracts/blob/v5.4.0/contracts/access/Ownable.sol\":2627:2649  newOwner == address(0) */\n      0xffffffffffffffffffffffffffffffffffffffff\n      and\n        /* \"https://github.com/OpenZeppelin/openzeppelin-contracts/blob/v5.4.0/contracts/access/Ownable.sol\":2627:2635  newOwner */\n      dup2\n        /* \"https://github.com/OpenZeppelin/openzeppelin-contracts/blob/v5.4.0/contracts/access/Ownable.sol\":2627:2649  newOwner == address(0) */\n      0xffffffffffffffffffffffffffffffffffffffff\n      and\n      sub\n        /* \"https://github.com/OpenZeppelin/openzeppelin-contracts/blob/v5.4.0/contracts/access/Ownable.sol\":2623:2714  if (newOwner == address(0)) {... */\n      tag_325\n      jumpi\n        /* \"https://github.com/OpenZeppelin/openzeppelin-contracts/blob/v5.4.0/contracts/access/Ownable.sol\":2700:2701  0 */\n      0x00\n        /* \"https://github.com/OpenZeppelin/openzeppelin-contracts/blob/v5.4.0/contracts/access/Ownable.sol\":2672:2703  OwnableInvalidOwner(address(0)) */\n      mload(0x40)\n      0x1e4fbdf700000000000000000000000000000000000000000000000000000000\n      dup2\n      mstore\n      0x04\n      add\n      tag_326\n      swap2\n      swap1\n      tag_86\n      jump\t// in\n    tag_326:\n      mload(0x40)\n      dup1\n      swap2\n      sub\n      swap1\n      revert\n        /* \"https://github.com/OpenZeppelin/openzeppelin-contracts/blob/v5.4.0/contracts/access/Ownable.sol\":2623:2714  if (newOwner == address(0)) {... */\n    tag_325:\n        /* \"https://github.com/OpenZeppelin/openzeppelin-contracts/blob/v5.4.0/contracts/access/Ownable.sol\":2723:2751  _transferOwnership(newOwner) */\n      tag_327\n        /* \"https://github.com/OpenZeppelin/openzeppelin-contracts/blob/v5.4.0/contracts/access/Ownable.sol\":2742:2750  newOwner */\n      dup2\n        /* \"https://github.com/OpenZeppelin/openzeppelin-contracts/blob/v5.4.0/contracts/access/Ownable.sol\":2723:2741  _transferOwnership */\n      tag_305\n        /* \"https://github.com/OpenZeppelin/openzeppelin-contracts/blob/v5.4.0/contracts/access/Ownable.sol\":2723:2751  _transferOwnership(newOwner) */\n      jump\t// in\n    tag_327:\n        /* \"https://github.com/OpenZeppelin/openzeppelin-contracts/blob/v5.4.0/contracts/access/Ownable.sol\":2543:2758  function transferOwnership(address newOwner) public virtual onlyOwner {... */\n      pop\n      jump\t// out\n        /* \"contracts/ZephyrosVault/ZephyrosVault.sol\":2283:2318  IERC20 public immutable rewardToken */\n    tag_130:\n      immutable(\"0x425a3d65e6c6cbbf01507814af1ac7512f93cceb8411381e1d5fb7adbfd44881\")\n      dup2\n      jump\t// out\n        /* \"contracts/ZephyrosVault/ZephyrosVault.sol\":2375:2406  IRouter public immutable router */\n    tag_133:\n      immutable(\"0x6fadbaf86d2aa9c9e34a85df385a2c9afa9509e09756634e72bbcf94a5ceb213\")\n      dup2\n      jump\t// out\n        /* \"contracts/ZephyrosVault/ZephyrosVault.sol\":2073:2122  address public constant BURN_ADDRESS = address(0) */\n    tag_137:\n        /* \"contracts/ZephyrosVault/ZephyrosVault.sol\":2120:2121  0 */\n      0x00\n        /* \"contracts/ZephyrosVault/ZephyrosVault.sol\":2073:2122  address public constant BURN_ADDRESS = address(0) */\n      dup2\n      jump\t// out\n        /* \"https://github.com/OpenZeppelin/openzeppelin-contracts/blob/v5.4.0/contracts/utils/ReentrancyGuard.sol\":2575:2882  function _nonReentrantBefore() private {... */\n    tag_141:\n        /* \"https://github.com/OpenZeppelin/openzeppelin-contracts/blob/v5.4.0/contracts/utils/ReentrancyGuard.sol\":1899:1900  2 */\n      0x02\n        /* \"https://github.com/OpenZeppelin/openzeppelin-contracts/blob/v5.4.0/contracts/utils/ReentrancyGuard.sol\":2702:2709  _status */\n      sload(0x01)\n        /* \"https://github.com/OpenZeppelin/openzeppelin-contracts/blob/v5.4.0/contracts/utils/ReentrancyGuard.sol\":2702:2720  _status == ENTERED */\n      sub\n        /* \"https://github.com/OpenZeppelin/openzeppelin-contracts/blob/v5.4.0/contracts/utils/ReentrancyGuard.sol\":2698:2784  if (_status == ENTERED) {... */\n      tag_329\n      jumpi\n        /* \"https://github.com/OpenZeppelin/openzeppelin-contracts/blob/v5.4.0/contracts/utils/ReentrancyGuard.sol\":2743:2773  ReentrancyGuardReentrantCall() */\n      mload(0x40)\n      0x3ee5aeb500000000000000000000000000000000000000000000000000000000\n      dup2\n      mstore\n      0x04\n      add\n      mload(0x40)\n      dup1\n      swap2\n      sub\n      swap1\n      revert\n        /* \"https://github.com/OpenZeppelin/openzeppelin-contracts/blob/v5.4.0/contracts/utils/ReentrancyGuard.sol\":2698:2784  if (_status == ENTERED) {... */\n    tag_329:\n        /* \"https://github.com/OpenZeppelin/openzeppelin-contracts/blob/v5.4.0/contracts/utils/ReentrancyGuard.sol\":1899:1900  2 */\n      0x02\n        /* \"https://github.com/OpenZeppelin/openzeppelin-contracts/blob/v5.4.0/contracts/utils/ReentrancyGuard.sol\":2858:2865  _status */\n      0x01\n        /* \"https://github.com/OpenZeppelin/openzeppelin-contracts/blob/v5.4.0/contracts/utils/ReentrancyGuard.sol\":2858:2875  _status = ENTERED */\n      dup2\n      swap1\n      sstore\n      pop\n        /* \"https://github.com/OpenZeppelin/openzeppelin-contracts/blob/v5.4.0/contracts/utils/ReentrancyGuard.sol\":2575:2882  function _nonReentrantBefore() private {... */\n      jump\t// out\n        /* \"contracts/ZephyrosVault/ZephyrosVault.sol\":9788:10254  function _claimCoreRewards(address account) internal {... */\n    tag_151:\n        /* \"contracts/ZephyrosVault/ZephyrosVault.sol\":9852:9873  UserInfo storage user */\n      0x00\n        /* \"contracts/ZephyrosVault/ZephyrosVault.sol\":9876:9881  users */\n      0x08\n        /* \"contracts/ZephyrosVault/ZephyrosVault.sol\":9876:9890  users[account] */\n      0x00\n        /* \"contracts/ZephyrosVault/ZephyrosVault.sol\":9882:9889  account */\n      dup4\n        /* \"contracts/ZephyrosVault/ZephyrosVault.sol\":9876:9890  users[account] */\n      0xffffffffffffffffffffffffffffffffffffffff\n      and\n      0xffffffffffffffffffffffffffffffffffffffff\n      and\n      dup2\n      mstore\n      0x20\n      add\n      swap1\n      dup2\n      mstore\n      0x20\n      add\n      0x00\n      keccak256\n        /* \"contracts/ZephyrosVault/ZephyrosVault.sol\":9852:9890  UserInfo storage user = users[account] */\n      swap1\n      pop\n        /* \"contracts/ZephyrosVault/ZephyrosVault.sol\":9925:9926  0 */\n      0x00\n        /* \"contracts/ZephyrosVault/ZephyrosVault.sol\":9907:9911  user */\n      dup2\n        /* \"contracts/ZephyrosVault/ZephyrosVault.sol\":9907:9921  user.liquidity */\n      0x00\n      add\n      sload\n        /* \"contracts/ZephyrosVault/ZephyrosVault.sol\":9907:9926  user.liquidity == 0 */\n      sub\n        /* \"contracts/ZephyrosVault/ZephyrosVault.sol\":9903:9935  if (user.liquidity == 0) return; */\n      tag_331\n      jumpi\n        /* \"contracts/ZephyrosVault/ZephyrosVault.sol\":9928:9935  return; */\n      pop\n      jump(tag_330)\n        /* \"contracts/ZephyrosVault/ZephyrosVault.sol\":9903:9935  if (user.liquidity == 0) return; */\n    tag_331:\n        /* \"contracts/ZephyrosVault/ZephyrosVault.sol\":9947:9962  uint256 pending */\n      0x00\n        /* \"contracts/ZephyrosVault/ZephyrosVault.sol\":9965:9992  pendingCoreRewards(account) */\n      tag_332\n        /* \"contracts/ZephyrosVault/ZephyrosVault.sol\":9984:9991  account */\n      dup4\n        /* \"contracts/ZephyrosVault/ZephyrosVault.sol\":9965:9983  pendingCoreRewards */\n      tag_60\n        /* \"contracts/ZephyrosVault/ZephyrosVault.sol\":9965:9992  pendingCoreRewards(account) */\n      jump\t// in\n    tag_332:\n        /* \"contracts/ZephyrosVault/ZephyrosVault.sol\":9947:9992  uint256 pending = pendingCoreRewards(account) */\n      swap1\n      pop\n        /* \"contracts/ZephyrosVault/ZephyrosVault.sol\":10019:10020  0 */\n      0x00\n        /* \"contracts/ZephyrosVault/ZephyrosVault.sol\":10009:10016  pending */\n      dup2\n        /* \"contracts/ZephyrosVault/ZephyrosVault.sol\":10009:10020  pending > 0 */\n      gt\n        /* \"contracts/ZephyrosVault/ZephyrosVault.sol\":10005:10140  if (pending > 0) {... */\n      iszero\n      tag_333\n      jumpi\n        /* \"contracts/ZephyrosVault/ZephyrosVault.sol\":10037:10072  core.safeTransfer(account, pending) */\n      tag_334\n        /* \"contracts/ZephyrosVault/ZephyrosVault.sol\":10055:10062  account */\n      dup4\n        /* \"contracts/ZephyrosVault/ZephyrosVault.sol\":10064:10071  pending */\n      dup3\n        /* \"contracts/ZephyrosVault/ZephyrosVault.sol\":10037:10041  core */\n      immutable(\"0xac09810740600c31fa69f9db79ed6fc3e3281f758a950fe1fb254a3a3ae571b6\")\n        /* \"contracts/ZephyrosVault/ZephyrosVault.sol\":10037:10054  core.safeTransfer */\n      0xffffffffffffffffffffffffffffffffffffffff\n      and\n      tag_252\n      swap1\n        /* \"contracts/ZephyrosVault/ZephyrosVault.sol\":10037:10072  core.safeTransfer(account, pending) */\n      swap3\n      swap2\n      swap1\n      0xffffffff\n      and\n      jump\t// in\n    tag_334:\n        /* \"contracts/ZephyrosVault/ZephyrosVault.sol\":10111:10118  account */\n      dup3\n        /* \"contracts/ZephyrosVault/ZephyrosVault.sol\":10092:10128  CoreRewardsClaimed(account, pending) */\n      0xffffffffffffffffffffffffffffffffffffffff\n      and\n      0xf58bf34cd9e84356f4b001ea1f1741b2f6a029f6d211d9dc4b351bc5cc794854\n        /* \"contracts/ZephyrosVault/ZephyrosVault.sol\":10120:10127  pending */\n      dup3\n        /* \"contracts/ZephyrosVault/ZephyrosVault.sol\":10092:10128  CoreRewardsClaimed(account, pending) */\n      mload(0x40)\n      tag_335\n      swap2\n      swap1\n      tag_46\n      jump\t// in\n    tag_335:\n      mload(0x40)\n      dup1\n      swap2\n      sub\n      swap1\n      log2\n        /* \"contracts/ZephyrosVault/ZephyrosVault.sol\":10005:10140  if (pending > 0) {... */\n    tag_333:\n        /* \"contracts/ZephyrosVault/ZephyrosVault.sol\":1863:1867  1e18 */\n      0x0de0b6b3a7640000\n        /* \"contracts/ZephyrosVault/ZephyrosVault.sol\":10201:10220  accCorePerLiquidity */\n      sload(0x07)\n        /* \"contracts/ZephyrosVault/ZephyrosVault.sol\":10184:10188  user */\n      dup4\n        /* \"contracts/ZephyrosVault/ZephyrosVault.sol\":10184:10198  user.liquidity */\n      0x00\n      add\n      sload\n        /* \"contracts/ZephyrosVault/ZephyrosVault.sol\":10184:10220  user.liquidity * accCorePerLiquidity */\n      tag_336\n      swap2\n      swap1\n      tag_190\n      jump\t// in\n    tag_336:\n        /* \"contracts/ZephyrosVault/ZephyrosVault.sol\":10183:10246  (user.liquidity * accCorePerLiquidity) /... */\n      tag_337\n      swap2\n      swap1\n      tag_192\n      jump\t// in\n    tag_337:\n        /* \"contracts/ZephyrosVault/ZephyrosVault.sol\":10152:10156  user */\n      dup3\n        /* \"contracts/ZephyrosVault/ZephyrosVault.sol\":10152:10167  user.rewardDebt */\n      0x02\n      add\n        /* \"contracts/ZephyrosVault/ZephyrosVault.sol\":10152:10246  user.rewardDebt =... */\n      dup2\n      swap1\n      sstore\n      pop\n        /* \"contracts/ZephyrosVault/ZephyrosVault.sol\":9841:10254  {... */\n      pop\n      pop\n        /* \"contracts/ZephyrosVault/ZephyrosVault.sol\":9788:10254  function _claimCoreRewards(address account) internal {... */\n    tag_330:\n      pop\n      jump\t// out\n        /* \"https://github.com/OpenZeppelin/openzeppelin-contracts/blob/v5.4.0/contracts/token/ERC20/utils/SafeERC20.sol\":1618:1806  function safeTransferFrom(IERC20 token, address from, address to, uint256 value) internal {... */\n    tag_153:\n        /* \"https://github.com/OpenZeppelin/openzeppelin-contracts/blob/v5.4.0/contracts/token/ERC20/utils/SafeERC20.sol\":1718:1799  _callOptionalReturn(token, abi.encodeCall(token.transferFrom, (from, to, value))) */\n      tag_339\n        /* \"https://github.com/OpenZeppelin/openzeppelin-contracts/blob/v5.4.0/contracts/token/ERC20/utils/SafeERC20.sol\":1738:1743  token */\n      dup5\n        /* \"https://github.com/OpenZeppelin/openzeppelin-contracts/blob/v5.4.0/contracts/token/ERC20/utils/SafeERC20.sol\":1760:1765  token */\n      dup6\n        /* \"https://github.com/OpenZeppelin/openzeppelin-contracts/blob/v5.4.0/contracts/token/ERC20/utils/SafeERC20.sol\":1760:1778  token.transferFrom */\n      0xffffffffffffffffffffffffffffffffffffffff\n      and\n      0x23b872dd\n        /* \"https://github.com/OpenZeppelin/openzeppelin-contracts/blob/v5.4.0/contracts/token/ERC20/utils/SafeERC20.sol\":1781:1785  from */\n      dup7\n        /* \"https://github.com/OpenZeppelin/openzeppelin-contracts/blob/v5.4.0/contracts/token/ERC20/utils/SafeERC20.sol\":1787:1789  to */\n      dup7\n        /* \"https://github.com/OpenZeppelin/openzeppelin-contracts/blob/v5.4.0/contracts/token/ERC20/utils/SafeERC20.sol\":1791:1796  value */\n      dup7\n        /* \"https://github.com/OpenZeppelin/openzeppelin-contracts/blob/v5.4.0/contracts/token/ERC20/utils/SafeERC20.sol\":1745:1798  abi.encodeCall(token.transferFrom, (from, to, value)) */\n      add(0x24, mload(0x40))\n      tag_340\n      swap4\n      swap3\n      swap2\n      swap1\n      tag_341\n      jump\t// in\n    tag_340:\n      mload(0x40)\n      0x20\n      dup2\n      dup4\n      sub\n      sub\n      dup2\n      mstore\n      swap1\n      0x40\n      mstore\n      swap2\n      pop\n      0xe0\n      shl\n      0x20\n      dup3\n      add\n      dup1\n      mload\n      0xffffffffffffffffffffffffffffffffffffffffffffffffffffffff\n      dup4\n      dup2\n      dup4\n      and\n      or\n      dup4\n      mstore\n      pop\n      pop\n      pop\n      pop\n        /* \"https://github.com/OpenZeppelin/openzeppelin-contracts/blob/v5.4.0/contracts/token/ERC20/utils/SafeERC20.sol\":1718:1737  _callOptionalReturn */\n      tag_342\n        /* \"https://github.com/OpenZeppelin/openzeppelin-contracts/blob/v5.4.0/contracts/token/ERC20/utils/SafeERC20.sol\":1718:1799  _callOptionalReturn(token, abi.encodeCall(token.transferFrom, (from, to, value))) */\n      jump\t// in\n    tag_339:\n        /* \"https://github.com/OpenZeppelin/openzeppelin-contracts/blob/v5.4.0/contracts/token/ERC20/utils/SafeERC20.sol\":1618:1806  function safeTransferFrom(IERC20 token, address from, address to, uint256 value) internal {... */\n      pop\n      pop\n      pop\n      pop\n      jump\t// out\n        /* \"contracts/ZephyrosVault/ZephyrosVault.sol\":10262:10620  function _isValidCoreLock(... */\n    tag_157:\n        /* \"contracts/ZephyrosVault/ZephyrosVault.sol\":10403:10407  bool */\n      0x00\n        /* \"contracts/ZephyrosVault/ZephyrosVault.sol\":10611:10612  0 */\n      dup1\n        /* \"contracts/ZephyrosVault/ZephyrosVault.sol\":10594:10608  coreLockAmount */\n      dup3\n        /* \"contracts/ZephyrosVault/ZephyrosVault.sol\":10594:10612  coreLockAmount > 0 */\n      gt\n        /* \"contracts/ZephyrosVault/ZephyrosVault.sol\":10587:10612  return coreLockAmount > 0 */\n      swap1\n      pop\n        /* \"contracts/ZephyrosVault/ZephyrosVault.sol\":10262:10620  function _isValidCoreLock(... */\n      swap4\n      swap3\n      pop\n      pop\n      pop\n      jump\t// out\n        /* \"https://github.com/OpenZeppelin/openzeppelin-contracts/blob/v5.4.0/contracts/token/ERC20/utils/SafeERC20.sol\":5084:5464  function forceApprove(IERC20 token, address spender, uint256 value) internal {... */\n    tag_162:\n        /* \"https://github.com/OpenZeppelin/openzeppelin-contracts/blob/v5.4.0/contracts/token/ERC20/utils/SafeERC20.sol\":5171:5196  bytes memory approvalCall */\n      0x00\n        /* \"https://github.com/OpenZeppelin/openzeppelin-contracts/blob/v5.4.0/contracts/token/ERC20/utils/SafeERC20.sol\":5214:5219  token */\n      dup4\n        /* \"https://github.com/OpenZeppelin/openzeppelin-contracts/blob/v5.4.0/contracts/token/ERC20/utils/SafeERC20.sol\":5214:5227  token.approve */\n      0xffffffffffffffffffffffffffffffffffffffff\n      and\n      0x095ea7b3\n        /* \"https://github.com/OpenZeppelin/openzeppelin-contracts/blob/v5.4.0/contracts/token/ERC20/utils/SafeERC20.sol\":5230:5237  spender */\n      dup5\n        /* \"https://github.com/OpenZeppelin/openzeppelin-contracts/blob/v5.4.0/contracts/token/ERC20/utils/SafeERC20.sol\":5239:5244  value */\n      dup5\n        /* \"https://github.com/OpenZeppelin/openzeppelin-contracts/blob/v5.4.0/contracts/token/ERC20/utils/SafeERC20.sol\":5199:5246  abi.encodeCall(token.approve, (spender, value)) */\n      add(0x24, mload(0x40))\n      tag_345\n      swap3\n      swap2\n      swap1\n      tag_346\n      jump\t// in\n    tag_345:\n      mload(0x40)\n      0x20\n      dup2\n      dup4\n      sub\n      sub\n      dup2\n      mstore\n      swap1\n      0x40\n      mstore\n      swap2\n      pop\n      0xe0\n      shl\n      0x20\n      dup3\n      add\n      dup1\n      mload\n      0xffffffffffffffffffffffffffffffffffffffffffffffffffffffff\n      dup4\n      dup2\n      dup4\n      and\n      or\n      dup4\n      mstore\n      pop\n      pop\n      pop\n      pop\n        /* \"https://github.com/OpenZeppelin/openzeppelin-contracts/blob/v5.4.0/contracts/token/ERC20/utils/SafeERC20.sol\":5171:5246  bytes memory approvalCall = abi.encodeCall(token.approve, (spender, value)) */\n      swap1\n      pop\n        /* \"https://github.com/OpenZeppelin/openzeppelin-contracts/blob/v5.4.0/contracts/token/ERC20/utils/SafeERC20.sol\":5262:5306  _callOptionalReturnBool(token, approvalCall) */\n      tag_347\n        /* \"https://github.com/OpenZeppelin/openzeppelin-contracts/blob/v5.4.0/contracts/token/ERC20/utils/SafeERC20.sol\":5286:5291  token */\n      dup5\n        /* \"https://github.com/OpenZeppelin/openzeppelin-contracts/blob/v5.4.0/contracts/token/ERC20/utils/SafeERC20.sol\":5293:5305  approvalCall */\n      dup3\n        /* \"https://github.com/OpenZeppelin/openzeppelin-contracts/blob/v5.4.0/contracts/token/ERC20/utils/SafeERC20.sol\":5262:5285  _callOptionalReturnBool */\n      tag_348\n        /* \"https://github.com/OpenZeppelin/openzeppelin-contracts/blob/v5.4.0/contracts/token/ERC20/utils/SafeERC20.sol\":5262:5306  _callOptionalReturnBool(token, approvalCall) */\n      jump\t// in\n    tag_347:\n        /* \"https://github.com/OpenZeppelin/openzeppelin-contracts/blob/v5.4.0/contracts/token/ERC20/utils/SafeERC20.sol\":5257:5458  if (!_callOptionalReturnBool(token, approvalCall)) {... */\n      tag_349\n      jumpi\n        /* \"https://github.com/OpenZeppelin/openzeppelin-contracts/blob/v5.4.0/contracts/token/ERC20/utils/SafeERC20.sol\":5322:5393  _callOptionalReturn(token, abi.encodeCall(token.approve, (spender, 0))) */\n      tag_350\n        /* \"https://github.com/OpenZeppelin/openzeppelin-contracts/blob/v5.4.0/contracts/token/ERC20/utils/SafeERC20.sol\":5342:5347  token */\n      dup5\n        /* \"https://github.com/OpenZeppelin/openzeppelin-contracts/blob/v5.4.0/contracts/token/ERC20/utils/SafeERC20.sol\":5364:5369  token */\n      dup6\n        /* \"https://github.com/OpenZeppelin/openzeppelin-contracts/blob/v5.4.0/contracts/token/ERC20/utils/SafeERC20.sol\":5364:5377  token.approve */\n      0xffffffffffffffffffffffffffffffffffffffff\n      and\n      0x095ea7b3\n        /* \"https://github.com/OpenZeppelin/openzeppelin-contracts/blob/v5.4.0/contracts/token/ERC20/utils/SafeERC20.sol\":5380:5387  spender */\n      dup7\n        /* \"https://github.com/OpenZeppelin/openzeppelin-contracts/blob/v5.4.0/contracts/token/ERC20/utils/SafeERC20.sol\":5389:5390  0 */\n      0x00\n        /* \"https://github.com/OpenZeppelin/openzeppelin-contracts/blob/v5.4.0/contracts/token/ERC20/utils/SafeERC20.sol\":5349:5392  abi.encodeCall(token.approve, (spender, 0)) */\n      add(0x24, mload(0x40))\n      tag_351\n      swap3\n      swap2\n      swap1\n      tag_352\n      jump\t// in\n    tag_351:\n      mload(0x40)\n      0x20\n      dup2\n      dup4\n      sub\n      sub\n      dup2\n      mstore\n      swap1\n      0x40\n      mstore\n      swap2\n      pop\n      0xe0\n      shl\n      0x20\n      dup3\n      add\n      dup1\n      mload\n      0xffffffffffffffffffffffffffffffffffffffffffffffffffffffff\n      dup4\n      dup2\n      dup4\n      and\n      or\n      dup4\n      mstore\n      pop\n      pop\n      pop\n      pop\n        /* \"https://github.com/OpenZeppelin/openzeppelin-contracts/blob/v5.4.0/contracts/token/ERC20/utils/SafeERC20.sol\":5322:5341  _callOptionalReturn */\n      tag_342\n        /* \"https://github.com/OpenZeppelin/openzeppelin-contracts/blob/v5.4.0/contracts/token/ERC20/utils/SafeERC20.sol\":5322:5393  _callOptionalReturn(token, abi.encodeCall(token.approve, (spender, 0))) */\n      jump\t// in\n    tag_350:\n        /* \"https://github.com/OpenZeppelin/openzeppelin-contracts/blob/v5.4.0/contracts/token/ERC20/utils/SafeERC20.sol\":5407:5447  _callOptionalReturn(token, approvalCall) */\n      tag_353\n        /* \"https://github.com/OpenZeppelin/openzeppelin-contracts/blob/v5.4.0/contracts/token/ERC20/utils/SafeERC20.sol\":5427:5432  token */\n      dup5\n        /* \"https://github.com/OpenZeppelin/openzeppelin-contracts/blob/v5.4.0/contracts/token/ERC20/utils/SafeERC20.sol\":5434:5446  approvalCall */\n      dup3\n        /* \"https://github.com/OpenZeppelin/openzeppelin-contracts/blob/v5.4.0/contracts/token/ERC20/utils/SafeERC20.sol\":5407:5426  _callOptionalReturn */\n      tag_342\n        /* \"https://github.com/OpenZeppelin/openzeppelin-contracts/blob/v5.4.0/contracts/token/ERC20/utils/SafeERC20.sol\":5407:5447  _callOptionalReturn(token, approvalCall) */\n      jump\t// in\n    tag_353:\n        /* \"https://github.com/OpenZeppelin/openzeppelin-contracts/blob/v5.4.0/contracts/token/ERC20/utils/SafeERC20.sol\":5257:5458  if (!_callOptionalReturnBool(token, approvalCall)) {... */\n    tag_349:\n        /* \"https://github.com/OpenZeppelin/openzeppelin-contracts/blob/v5.4.0/contracts/token/ERC20/utils/SafeERC20.sol\":5161:5464  {... */\n      pop\n        /* \"https://github.com/OpenZeppelin/openzeppelin-contracts/blob/v5.4.0/contracts/token/ERC20/utils/SafeERC20.sol\":5084:5464  function forceApprove(IERC20 token, address spender, uint256 value) internal {... */\n      pop\n      pop\n      pop\n      jump\t// out\n        /* \"https://github.com/OpenZeppelin/openzeppelin-contracts/blob/v5.4.0/contracts/utils/ReentrancyGuard.sol\":2888:3096  function _nonReentrantAfter() private {... */\n    tag_196:\n        /* \"https://github.com/OpenZeppelin/openzeppelin-contracts/blob/v5.4.0/contracts/utils/ReentrancyGuard.sol\":1857:1858  1 */\n      0x01\n        /* \"https://github.com/OpenZeppelin/openzeppelin-contracts/blob/v5.4.0/contracts/utils/ReentrancyGuard.sol\":3068:3075  _status */\n      dup1\n        /* \"https://github.com/OpenZeppelin/openzeppelin-contracts/blob/v5.4.0/contracts/utils/ReentrancyGuard.sol\":3068:3089  _status = NOT_ENTERED */\n      dup2\n      swap1\n      sstore\n      pop\n        /* \"https://github.com/OpenZeppelin/openzeppelin-contracts/blob/v5.4.0/contracts/utils/ReentrancyGuard.sol\":2888:3096  function _nonReentrantAfter() private {... */\n      jump\t// out\n        /* \"https://github.com/OpenZeppelin/openzeppelin-contracts/blob/v5.4.0/contracts/token/ERC20/utils/SafeERC20.sol\":1219:1379  function safeTransfer(IERC20 token, address to, uint256 value) internal {... */\n    tag_252:\n        /* \"https://github.com/OpenZeppelin/openzeppelin-contracts/blob/v5.4.0/contracts/token/ERC20/utils/SafeERC20.sol\":1301:1372  _callOptionalReturn(token, abi.encodeCall(token.transfer, (to, value))) */\n      tag_356\n        /* \"https://github.com/OpenZeppelin/openzeppelin-contracts/blob/v5.4.0/contracts/token/ERC20/utils/SafeERC20.sol\":1321:1326  token */\n      dup4\n        /* \"https://github.com/OpenZeppelin/openzeppelin-contracts/blob/v5.4.0/contracts/token/ERC20/utils/SafeERC20.sol\":1343:1348  token */\n      dup5\n        /* \"https://github.com/OpenZeppelin/openzeppelin-contracts/blob/v5.4.0/contracts/token/ERC20/utils/SafeERC20.sol\":1343:1357  token.transfer */\n      0xffffffffffffffffffffffffffffffffffffffff\n      and\n      0xa9059cbb\n        /* \"https://github.com/OpenZeppelin/openzeppelin-contracts/blob/v5.4.0/contracts/token/ERC20/utils/SafeERC20.sol\":1360:1362  to */\n      dup6\n        /* \"https://github.com/OpenZeppelin/openzeppelin-contracts/blob/v5.4.0/contracts/token/ERC20/utils/SafeERC20.sol\":1364:1369  value */\n      dup6\n        /* \"https://github.com/OpenZeppelin/openzeppelin-contracts/blob/v5.4.0/contracts/token/ERC20/utils/SafeERC20.sol\":1328:1371  abi.encodeCall(token.transfer, (to, value)) */\n      add(0x24, mload(0x40))\n      tag_357\n      swap3\n      swap2\n      swap1\n      tag_346\n      jump\t// in\n    tag_357:\n      mload(0x40)\n      0x20\n      dup2\n      dup4\n      sub\n      sub\n      dup2\n      mstore\n      swap1\n      0x40\n      mstore\n      swap2\n      pop\n      0xe0\n      shl\n      0x20\n      dup3\n      add\n      dup1\n      mload\n      0xffffffffffffffffffffffffffffffffffffffffffffffffffffffff\n      dup4\n      dup2\n      dup4\n      and\n      or\n      dup4\n      mstore\n      pop\n      pop\n      pop\n      pop\n        /* \"https://github.com/OpenZeppelin/openzeppelin-contracts/blob/v5.4.0/contracts/token/ERC20/utils/SafeERC20.sol\":1301:1320  _callOptionalReturn */\n      tag_342\n        /* \"https://github.com/OpenZeppelin/openzeppelin-contracts/blob/v5.4.0/contracts/token/ERC20/utils/SafeERC20.sol\":1301:1372  _callOptionalReturn(token, abi.encodeCall(token.transfer, (to, value))) */\n      jump\t// in\n    tag_356:\n        /* \"https://github.com/OpenZeppelin/openzeppelin-contracts/blob/v5.4.0/contracts/token/ERC20/utils/SafeERC20.sol\":1219:1379  function safeTransfer(IERC20 token, address to, uint256 value) internal {... */\n      pop\n      pop\n      pop\n      jump\t// out\n        /* \"https://github.com/OpenZeppelin/openzeppelin-contracts/blob/v5.4.0/contracts/access/Ownable.sol\":1796:1958  function _checkOwner() internal view virtual {... */\n    tag_291:\n        /* \"https://github.com/OpenZeppelin/openzeppelin-contracts/blob/v5.4.0/contracts/access/Ownable.sol\":1866:1878  _msgSender() */\n      tag_359\n        /* \"https://github.com/OpenZeppelin/openzeppelin-contracts/blob/v5.4.0/contracts/access/Ownable.sol\":1866:1876  _msgSender */\n      tag_360\n        /* \"https://github.com/OpenZeppelin/openzeppelin-contracts/blob/v5.4.0/contracts/access/Ownable.sol\":1866:1878  _msgSender() */\n      jump\t// in\n    tag_359:\n        /* \"https://github.com/OpenZeppelin/openzeppelin-contracts/blob/v5.4.0/contracts/access/Ownable.sol\":1855:1878  owner() != _msgSender() */\n      0xffffffffffffffffffffffffffffffffffffffff\n      and\n        /* \"https://github.com/OpenZeppelin/openzeppelin-contracts/blob/v5.4.0/contracts/access/Ownable.sol\":1855:1862  owner() */\n      tag_361\n        /* \"https://github.com/OpenZeppelin/openzeppelin-contracts/blob/v5.4.0/contracts/access/Ownable.sol\":1855:1860  owner */\n      tag_100\n        /* \"https://github.com/OpenZeppelin/openzeppelin-contracts/blob/v5.4.0/contracts/access/Ownable.sol\":1855:1862  owner() */\n      jump\t// in\n    tag_361:\n        /* \"https://github.com/OpenZeppelin/openzeppelin-contracts/blob/v5.4.0/contracts/access/Ownable.sol\":1855:1878  owner() != _msgSender() */\n      0xffffffffffffffffffffffffffffffffffffffff\n      and\n      eq\n        /* \"https://github.com/OpenZeppelin/openzeppelin-contracts/blob/v5.4.0/contracts/access/Ownable.sol\":1851:1952  if (owner() != _msgSender()) {... */\n      tag_362\n      jumpi\n        /* \"https://github.com/OpenZeppelin/openzeppelin-contracts/blob/v5.4.0/contracts/access/Ownable.sol\":1928:1940  _msgSender() */\n      tag_363\n        /* \"https://github.com/OpenZeppelin/openzeppelin-contracts/blob/v5.4.0/contracts/access/Ownable.sol\":1928:1938  _msgSender */\n      tag_360\n        /* \"https://github.com/OpenZeppelin/openzeppelin-contracts/blob/v5.4.0/contracts/access/Ownable.sol\":1928:1940  _msgSender() */\n      jump\t// in\n    tag_363:\n        /* \"https://github.com/OpenZeppelin/openzeppelin-contracts/blob/v5.4.0/contracts/access/Ownable.sol\":1901:1941  OwnableUnauthorizedAccount(_msgSender()) */\n      mload(0x40)\n      0x118cdaa700000000000000000000000000000000000000000000000000000000\n      dup2\n      mstore\n      0x04\n      add\n      tag_364\n      swap2\n      swap1\n      tag_86\n      jump\t// in\n    tag_364:\n      mload(0x40)\n      dup1\n      swap2\n      sub\n      swap1\n      revert\n        /* \"https://github.com/OpenZeppelin/openzeppelin-contracts/blob/v5.4.0/contracts/access/Ownable.sol\":1851:1952  if (owner() != _msgSender()) {... */\n    tag_362:\n        /* \"https://github.com/OpenZeppelin/openzeppelin-contracts/blob/v5.4.0/contracts/access/Ownable.sol\":1796:1958  function _checkOwner() internal view virtual {... */\n      jump\t// out\n        /* \"https://github.com/OpenZeppelin/openzeppelin-contracts/blob/v5.4.0/contracts/access/Ownable.sol\":2912:3099  function _transferOwnership(address newOwner) internal virtual {... */\n    tag_305:\n        /* \"https://github.com/OpenZeppelin/openzeppelin-contracts/blob/v5.4.0/contracts/access/Ownable.sol\":2985:3001  address oldOwner */\n      0x00\n        /* \"https://github.com/OpenZeppelin/openzeppelin-contracts/blob/v5.4.0/contracts/access/Ownable.sol\":3004:3010  _owner */\n      dup1\n      0x00\n      swap1\n      sload\n      swap1\n      0x0100\n      exp\n      swap1\n      div\n      0xffffffffffffffffffffffffffffffffffffffff\n      and\n        /* \"https://github.com/OpenZeppelin/openzeppelin-contracts/blob/v5.4.0/contracts/access/Ownable.sol\":2985:3010  address oldOwner = _owner */\n      swap1\n      pop\n        /* \"https://github.com/OpenZeppelin/openzeppelin-contracts/blob/v5.4.0/contracts/access/Ownable.sol\":3029:3037  newOwner */\n      dup2\n        /* \"https://github.com/OpenZeppelin/openzeppelin-contracts/blob/v5.4.0/contracts/access/Ownable.sol\":3020:3026  _owner */\n      0x00\n      dup1\n        /* \"https://github.com/OpenZeppelin/openzeppelin-contracts/blob/v5.4.0/contracts/access/Ownable.sol\":3020:3037  _owner = newOwner */\n      0x0100\n      exp\n      dup2\n      sload\n      dup2\n      0xffffffffffffffffffffffffffffffffffffffff\n      mul\n      not\n      and\n      swap1\n      dup4\n      0xffffffffffffffffffffffffffffffffffffffff\n      and\n      mul\n      or\n      swap1\n      sstore\n      pop\n        /* \"https://github.com/OpenZeppelin/openzeppelin-contracts/blob/v5.4.0/contracts/access/Ownable.sol\":3083:3091  newOwner */\n      dup2\n        /* \"https://github.com/OpenZeppelin/openzeppelin-contracts/blob/v5.4.0/contracts/access/Ownable.sol\":3052:3092  OwnershipTransferred(oldOwner, newOwner) */\n      0xffffffffffffffffffffffffffffffffffffffff\n      and\n        /* \"https://github.com/OpenZeppelin/openzeppelin-contracts/blob/v5.4.0/contracts/access/Ownable.sol\":3073:3081  oldOwner */\n      dup2\n        /* \"https://github.com/OpenZeppelin/openzeppelin-contracts/blob/v5.4.0/contracts/access/Ownable.sol\":3052:3092  OwnershipTransferred(oldOwner, newOwner) */\n      0xffffffffffffffffffffffffffffffffffffffff\n      and\n      0x8be0079c531659141344cd1fd0a4f28419497f9722a3daafe3b4186f6b6457e0\n      mload(0x40)\n      mload(0x40)\n      dup1\n      swap2\n      sub\n      swap1\n      log3\n        /* \"https://github.com/OpenZeppelin/openzeppelin-contracts/blob/v5.4.0/contracts/access/Ownable.sol\":2975:3099  {... */\n      pop\n        /* \"https://github.com/OpenZeppelin/openzeppelin-contracts/blob/v5.4.0/contracts/access/Ownable.sol\":2912:3099  function _transferOwnership(address newOwner) internal virtual {... */\n      pop\n      jump\t// out\n        /* \"https://github.com/OpenZeppelin/openzeppelin-contracts/blob/v5.4.0/contracts/token/ERC20/utils/SafeERC20.sol\":8370:9090  function _callOptionalReturn(IERC20 token, bytes memory data) private {... */\n    tag_342:\n        /* \"https://github.com/OpenZeppelin/openzeppelin-contracts/blob/v5.4.0/contracts/token/ERC20/utils/SafeERC20.sol\":8450:8468  uint256 returnSize */\n      0x00\n        /* \"https://github.com/OpenZeppelin/openzeppelin-contracts/blob/v5.4.0/contracts/token/ERC20/utils/SafeERC20.sol\":8478:8497  uint256 returnValue */\n      dup1\n        /* \"https://github.com/OpenZeppelin/openzeppelin-contracts/blob/v5.4.0/contracts/token/ERC20/utils/SafeERC20.sol\":8616:8620  0x20 */\n      0x20\n        /* \"https://github.com/OpenZeppelin/openzeppelin-contracts/blob/v5.4.0/contracts/token/ERC20/utils/SafeERC20.sol\":8613:8614  0 */\n      0x00\n        /* \"https://github.com/OpenZeppelin/openzeppelin-contracts/blob/v5.4.0/contracts/token/ERC20/utils/SafeERC20.sol\":8606:8610  data */\n      dup5\n        /* \"https://github.com/OpenZeppelin/openzeppelin-contracts/blob/v5.4.0/contracts/token/ERC20/utils/SafeERC20.sol\":8600:8611  mload(data) */\n      mload\n        /* \"https://github.com/OpenZeppelin/openzeppelin-contracts/blob/v5.4.0/contracts/token/ERC20/utils/SafeERC20.sol\":8593:8597  0x20 */\n      0x20\n        /* \"https://github.com/OpenZeppelin/openzeppelin-contracts/blob/v5.4.0/contracts/token/ERC20/utils/SafeERC20.sol\":8587:8591  data */\n      dup7\n        /* \"https://github.com/OpenZeppelin/openzeppelin-contracts/blob/v5.4.0/contracts/token/ERC20/utils/SafeERC20.sol\":8583:8598  add(data, 0x20) */\n      add\n        /* \"https://github.com/OpenZeppelin/openzeppelin-contracts/blob/v5.4.0/contracts/token/ERC20/utils/SafeERC20.sol\":8580:8581  0 */\n      0x00\n        /* \"https://github.com/OpenZeppelin/openzeppelin-contracts/blob/v5.4.0/contracts/token/ERC20/utils/SafeERC20.sol\":8573:8578  token */\n      dup9\n        /* \"https://github.com/OpenZeppelin/openzeppelin-contracts/blob/v5.4.0/contracts/token/ERC20/utils/SafeERC20.sol\":8566:8571  gas() */\n      gas\n        /* \"https://github.com/OpenZeppelin/openzeppelin-contracts/blob/v5.4.0/contracts/token/ERC20/utils/SafeERC20.sol\":8561:8621  call(gas(), token, 0, add(data, 0x20), mload(data), 0, 0x20) */\n      call\n        /* \"https://github.com/OpenZeppelin/openzeppelin-contracts/blob/v5.4.0/contracts/token/ERC20/utils/SafeERC20.sol\":8673:8680  success */\n      dup1\n        /* \"https://github.com/OpenZeppelin/openzeppelin-contracts/blob/v5.4.0/contracts/token/ERC20/utils/SafeERC20.sol\":8663:8839  if iszero(success) {... */\n      tag_367\n      jumpi\n        /* \"https://github.com/OpenZeppelin/openzeppelin-contracts/blob/v5.4.0/contracts/token/ERC20/utils/SafeERC20.sol\":8717:8721  0x40 */\n      0x40\n        /* \"https://github.com/OpenZeppelin/openzeppelin-contracts/blob/v5.4.0/contracts/token/ERC20/utils/SafeERC20.sol\":8711:8722  mload(0x40) */\n      mload\n        /* \"https://github.com/OpenZeppelin/openzeppelin-contracts/blob/v5.4.0/contracts/token/ERC20/utils/SafeERC20.sol\":8762:8778  returndatasize() */\n      returndatasize\n        /* \"https://github.com/OpenZeppelin/openzeppelin-contracts/blob/v5.4.0/contracts/token/ERC20/utils/SafeERC20.sol\":8759:8760  0 */\n      0x00\n        /* \"https://github.com/OpenZeppelin/openzeppelin-contracts/blob/v5.4.0/contracts/token/ERC20/utils/SafeERC20.sol\":8754:8757  ptr */\n      dup3\n        /* \"https://github.com/OpenZeppelin/openzeppelin-contracts/blob/v5.4.0/contracts/token/ERC20/utils/SafeERC20.sol\":8739:8779  returndatacopy(ptr, 0, returndatasize()) */\n      returndatacopy\n        /* \"https://github.com/OpenZeppelin/openzeppelin-contracts/blob/v5.4.0/contracts/token/ERC20/utils/SafeERC20.sol\":8808:8824  returndatasize() */\n      returndatasize\n        /* \"https://github.com/OpenZeppelin/openzeppelin-contracts/blob/v5.4.0/contracts/token/ERC20/utils/SafeERC20.sol\":8803:8806  ptr */\n      dup2\n        /* \"https://github.com/OpenZeppelin/openzeppelin-contracts/blob/v5.4.0/contracts/token/ERC20/utils/SafeERC20.sol\":8796:8825  revert(ptr, returndatasize()) */\n      revert\n        /* \"https://github.com/OpenZeppelin/openzeppelin-contracts/blob/v5.4.0/contracts/token/ERC20/utils/SafeERC20.sol\":8663:8839  if iszero(success) {... */\n    tag_367:\n        /* \"https://github.com/OpenZeppelin/openzeppelin-contracts/blob/v5.4.0/contracts/token/ERC20/utils/SafeERC20.sol\":8866:8882  returndatasize() */\n      returndatasize\n        /* \"https://github.com/OpenZeppelin/openzeppelin-contracts/blob/v5.4.0/contracts/token/ERC20/utils/SafeERC20.sol\":8852:8882  returnSize := returndatasize() */\n      swap3\n      pop\n        /* \"https://github.com/OpenZeppelin/openzeppelin-contracts/blob/v5.4.0/contracts/token/ERC20/utils/SafeERC20.sol\":8916:8917  0 */\n      0x00\n        /* \"https://github.com/OpenZeppelin/openzeppelin-contracts/blob/v5.4.0/contracts/token/ERC20/utils/SafeERC20.sol\":8910:8918  mload(0) */\n      mload\n        /* \"https://github.com/OpenZeppelin/openzeppelin-contracts/blob/v5.4.0/contracts/token/ERC20/utils/SafeERC20.sol\":8895:8918  returnValue := mload(0) */\n      swap2\n      pop\n        /* \"https://github.com/OpenZeppelin/openzeppelin-contracts/blob/v5.4.0/contracts/token/ERC20/utils/SafeERC20.sol\":8532:8928  {... */\n      pop\n        /* \"https://github.com/OpenZeppelin/openzeppelin-contracts/blob/v5.4.0/contracts/token/ERC20/utils/SafeERC20.sol\":8956:8957  0 */\n      0x00\n        /* \"https://github.com/OpenZeppelin/openzeppelin-contracts/blob/v5.4.0/contracts/token/ERC20/utils/SafeERC20.sol\":8942:8952  returnSize */\n      dup3\n        /* \"https://github.com/OpenZeppelin/openzeppelin-contracts/blob/v5.4.0/contracts/token/ERC20/utils/SafeERC20.sol\":8942:8957  returnSize == 0 */\n      eq\n        /* \"https://github.com/OpenZeppelin/openzeppelin-contracts/blob/v5.4.0/contracts/token/ERC20/utils/SafeERC20.sol\":8942:9010  returnSize == 0 ? address(token).code.length == 0 : returnValue != 1 */\n      tag_368\n      jumpi\n        /* \"https://github.com/OpenZeppelin/openzeppelin-contracts/blob/v5.4.0/contracts/token/ERC20/utils/SafeERC20.sol\":9009:9010  1 */\n      0x01\n        /* \"https://github.com/OpenZeppelin/openzeppelin-contracts/blob/v5.4.0/contracts/token/ERC20/utils/SafeERC20.sol\":8994:9005  returnValue */\n      dup2\n        /* \"https://github.com/OpenZeppelin/openzeppelin-contracts/blob/v5.4.0/contracts/token/ERC20/utils/SafeERC20.sol\":8994:9010  returnValue != 1 */\n      eq\n      iszero\n        /* \"https://github.com/OpenZeppelin/openzeppelin-contracts/blob/v5.4.0/contracts/token/ERC20/utils/SafeERC20.sol\":8942:9010  returnSize == 0 ? address(token).code.length == 0 : returnValue != 1 */\n      jump(tag_369)\n    tag_368:\n        /* \"https://github.com/OpenZeppelin/openzeppelin-contracts/blob/v5.4.0/contracts/token/ERC20/utils/SafeERC20.sol\":8990:8991  0 */\n      0x00\n        /* \"https://github.com/OpenZeppelin/openzeppelin-contracts/blob/v5.4.0/contracts/token/ERC20/utils/SafeERC20.sol\":8968:8973  token */\n      dup5\n        /* \"https://github.com/OpenZeppelin/openzeppelin-contracts/blob/v5.4.0/contracts/token/ERC20/utils/SafeERC20.sol\":8960:8986  address(token).code.length */\n      0xffffffffffffffffffffffffffffffffffffffff\n      and\n      extcodesize\n        /* \"https://github.com/OpenZeppelin/openzeppelin-contracts/blob/v5.4.0/contracts/token/ERC20/utils/SafeERC20.sol\":8960:8991  address(token).code.length == 0 */\n      eq\n        /* \"https://github.com/OpenZeppelin/openzeppelin-contracts/blob/v5.4.0/contracts/token/ERC20/utils/SafeERC20.sol\":8942:9010  returnSize == 0 ? address(token).code.length == 0 : returnValue != 1 */\n    tag_369:\n        /* \"https://github.com/OpenZeppelin/openzeppelin-contracts/blob/v5.4.0/contracts/token/ERC20/utils/SafeERC20.sol\":8938:9084  if (returnSize == 0 ? address(token).code.length == 0 : returnValue != 1) {... */\n      iszero\n      tag_370\n      jumpi\n        /* \"https://github.com/OpenZeppelin/openzeppelin-contracts/blob/v5.4.0/contracts/token/ERC20/utils/SafeERC20.sol\":9066:9071  token */\n      dup4\n        /* \"https://github.com/OpenZeppelin/openzeppelin-contracts/blob/v5.4.0/contracts/token/ERC20/utils/SafeERC20.sol\":9033:9073  SafeERC20FailedOperation(address(token)) */\n      mload(0x40)\n      0x5274afe700000000000000000000000000000000000000000000000000000000\n      dup2\n      mstore\n      0x04\n      add\n      tag_371\n      swap2\n      swap1\n      tag_86\n      jump\t// in\n    tag_371:\n      mload(0x40)\n      dup1\n      swap2\n      sub\n      swap1\n      revert\n        /* \"https://github.com/OpenZeppelin/openzeppelin-contracts/blob/v5.4.0/contracts/token/ERC20/utils/SafeERC20.sol\":8938:9084  if (returnSize == 0 ? address(token).code.length == 0 : returnValue != 1) {... */\n    tag_370:\n        /* \"https://github.com/OpenZeppelin/openzeppelin-contracts/blob/v5.4.0/contracts/token/ERC20/utils/SafeERC20.sol\":8440:9090  {... */\n      pop\n      pop\n        /* \"https://github.com/OpenZeppelin/openzeppelin-contracts/blob/v5.4.0/contracts/token/ERC20/utils/SafeERC20.sol\":8370:9090  function _callOptionalReturn(IERC20 token, bytes memory data) private {... */\n      pop\n      pop\n      jump\t// out\n        /* \"https://github.com/OpenZeppelin/openzeppelin-contracts/blob/v5.4.0/contracts/token/ERC20/utils/SafeERC20.sol\":9592:10072  function _callOptionalReturnBool(IERC20 token, bytes memory data) private returns (bool) {... */\n    tag_348:\n        /* \"https://github.com/OpenZeppelin/openzeppelin-contracts/blob/v5.4.0/contracts/token/ERC20/utils/SafeERC20.sol\":9675:9679  bool */\n      0x00\n        /* \"https://github.com/OpenZeppelin/openzeppelin-contracts/blob/v5.4.0/contracts/token/ERC20/utils/SafeERC20.sol\":9691:9703  bool success */\n      dup1\n        /* \"https://github.com/OpenZeppelin/openzeppelin-contracts/blob/v5.4.0/contracts/token/ERC20/utils/SafeERC20.sol\":9713:9731  uint256 returnSize */\n      0x00\n        /* \"https://github.com/OpenZeppelin/openzeppelin-contracts/blob/v5.4.0/contracts/token/ERC20/utils/SafeERC20.sol\":9741:9760  uint256 returnValue */\n      dup1\n        /* \"https://github.com/OpenZeppelin/openzeppelin-contracts/blob/v5.4.0/contracts/token/ERC20/utils/SafeERC20.sol\":9875:9879  0x20 */\n      0x20\n        /* \"https://github.com/OpenZeppelin/openzeppelin-contracts/blob/v5.4.0/contracts/token/ERC20/utils/SafeERC20.sol\":9872:9873  0 */\n      0x00\n        /* \"https://github.com/OpenZeppelin/openzeppelin-contracts/blob/v5.4.0/contracts/token/ERC20/utils/SafeERC20.sol\":9865:9869  data */\n      dup7\n        /* \"https://github.com/OpenZeppelin/openzeppelin-contracts/blob/v5.4.0/contracts/token/ERC20/utils/SafeERC20.sol\":9859:9870  mload(data) */\n      mload\n        /* \"https://github.com/OpenZeppelin/openzeppelin-contracts/blob/v5.4.0/contracts/token/ERC20/utils/SafeERC20.sol\":9852:9856  0x20 */\n      0x20\n        /* \"https://github.com/OpenZeppelin/openzeppelin-contracts/blob/v5.4.0/contracts/token/ERC20/utils/SafeERC20.sol\":9846:9850  data */\n      dup9\n        /* \"https://github.com/OpenZeppelin/openzeppelin-contracts/blob/v5.4.0/contracts/token/ERC20/utils/SafeERC20.sol\":9842:9857  add(data, 0x20) */\n      add\n        /* \"https://github.com/OpenZeppelin/openzeppelin-contracts/blob/v5.4.0/contracts/token/ERC20/utils/SafeERC20.sol\":9839:9840  0 */\n      0x00\n        /* \"https://github.com/OpenZeppelin/openzeppelin-contracts/blob/v5.4.0/contracts/token/ERC20/utils/SafeERC20.sol\":9832:9837  token */\n      dup11\n        /* \"https://github.com/OpenZeppelin/openzeppelin-contracts/blob/v5.4.0/contracts/token/ERC20/utils/SafeERC20.sol\":9825:9830  gas() */\n      gas\n        /* \"https://github.com/OpenZeppelin/openzeppelin-contracts/blob/v5.4.0/contracts/token/ERC20/utils/SafeERC20.sol\":9820:9880  call(gas(), token, 0, add(data, 0x20), mload(data), 0, 0x20) */\n      call\n        /* \"https://github.com/OpenZeppelin/openzeppelin-contracts/blob/v5.4.0/contracts/token/ERC20/utils/SafeERC20.sol\":9809:9880  success := call(gas(), token, 0, add(data, 0x20), mload(data), 0, 0x20) */\n      swap3\n      pop\n        /* \"https://github.com/OpenZeppelin/openzeppelin-contracts/blob/v5.4.0/contracts/token/ERC20/utils/SafeERC20.sol\":9907:9923  returndatasize() */\n      returndatasize\n        /* \"https://github.com/OpenZeppelin/openzeppelin-contracts/blob/v5.4.0/contracts/token/ERC20/utils/SafeERC20.sol\":9893:9923  returnSize := returndatasize() */\n      swap2\n      pop\n        /* \"https://github.com/OpenZeppelin/openzeppelin-contracts/blob/v5.4.0/contracts/token/ERC20/utils/SafeERC20.sol\":9957:9958  0 */\n      0x00\n        /* \"https://github.com/OpenZeppelin/openzeppelin-contracts/blob/v5.4.0/contracts/token/ERC20/utils/SafeERC20.sol\":9951:9959  mload(0) */\n      mload\n        /* \"https://github.com/OpenZeppelin/openzeppelin-contracts/blob/v5.4.0/contracts/token/ERC20/utils/SafeERC20.sol\":9936:9959  returnValue := mload(0) */\n      swap1\n      pop\n        /* \"https://github.com/OpenZeppelin/openzeppelin-contracts/blob/v5.4.0/contracts/token/ERC20/utils/SafeERC20.sol\":9985:9992  success */\n      dup3\n        /* \"https://github.com/OpenZeppelin/openzeppelin-contracts/blob/v5.4.0/contracts/token/ERC20/utils/SafeERC20.sol\":9985:10065  success && (returnSize == 0 ? address(token).code.length > 0 : returnValue == 1) */\n      dup1\n      iszero\n      tag_373\n      jumpi\n      pop\n        /* \"https://github.com/OpenZeppelin/openzeppelin-contracts/blob/v5.4.0/contracts/token/ERC20/utils/SafeERC20.sol\":10011:10012  0 */\n      0x00\n        /* \"https://github.com/OpenZeppelin/openzeppelin-contracts/blob/v5.4.0/contracts/token/ERC20/utils/SafeERC20.sol\":9997:10007  returnSize */\n      dup3\n        /* \"https://github.com/OpenZeppelin/openzeppelin-contracts/blob/v5.4.0/contracts/token/ERC20/utils/SafeERC20.sol\":9997:10012  returnSize == 0 */\n      eq\n        /* \"https://github.com/OpenZeppelin/openzeppelin-contracts/blob/v5.4.0/contracts/token/ERC20/utils/SafeERC20.sol\":9997:10064  returnSize == 0 ? address(token).code.length > 0 : returnValue == 1 */\n      tag_374\n      jumpi\n        /* \"https://github.com/OpenZeppelin/openzeppelin-contracts/blob/v5.4.0/contracts/token/ERC20/utils/SafeERC20.sol\":10063:10064  1 */\n      0x01\n        /* \"https://github.com/OpenZeppelin/openzeppelin-contracts/blob/v5.4.0/contracts/token/ERC20/utils/SafeERC20.sol\":10048:10059  returnValue */\n      dup2\n        /* \"https://github.com/OpenZeppelin/openzeppelin-contracts/blob/v5.4.0/contracts/token/ERC20/utils/SafeERC20.sol\":10048:10064  returnValue == 1 */\n      eq\n        /* \"https://github.com/OpenZeppelin/openzeppelin-contracts/blob/v5.4.0/contracts/token/ERC20/utils/SafeERC20.sol\":9997:10064  returnSize == 0 ? address(token).code.length > 0 : returnValue == 1 */\n      jump(tag_375)\n    tag_374:\n        /* \"https://github.com/OpenZeppelin/openzeppelin-contracts/blob/v5.4.0/contracts/token/ERC20/utils/SafeERC20.sol\":10044:10045  0 */\n      0x00\n        /* \"https://github.com/OpenZeppelin/openzeppelin-contracts/blob/v5.4.0/contracts/token/ERC20/utils/SafeERC20.sol\":10023:10028  token */\n      dup7\n        /* \"https://github.com/OpenZeppelin/openzeppelin-contracts/blob/v5.4.0/contracts/token/ERC20/utils/SafeERC20.sol\":10015:10041  address(token).code.length */\n      0xffffffffffffffffffffffffffffffffffffffff\n      and\n      extcodesize\n        /* \"https://github.com/OpenZeppelin/openzeppelin-contracts/blob/v5.4.0/contracts/token/ERC20/utils/SafeERC20.sol\":10015:10045  address(token).code.length > 0 */\n      gt\n        /* \"https://github.com/OpenZeppelin/openzeppelin-contracts/blob/v5.4.0/contracts/token/ERC20/utils/SafeERC20.sol\":9997:10064  returnSize == 0 ? address(token).code.length > 0 : returnValue == 1 */\n    tag_375:\n        /* \"https://github.com/OpenZeppelin/openzeppelin-contracts/blob/v5.4.0/contracts/token/ERC20/utils/SafeERC20.sol\":9985:10065  success && (returnSize == 0 ? address(token).code.length > 0 : returnValue == 1) */\n    tag_373:\n        /* \"https://github.com/OpenZeppelin/openzeppelin-contracts/blob/v5.4.0/contracts/token/ERC20/utils/SafeERC20.sol\":9978:10065  return success && (returnSize == 0 ? address(token).code.length > 0 : returnValue == 1) */\n      swap4\n      pop\n      pop\n      pop\n      pop\n        /* \"https://github.com/OpenZeppelin/openzeppelin-contracts/blob/v5.4.0/contracts/token/ERC20/utils/SafeERC20.sol\":9592:10072  function _callOptionalReturnBool(IERC20 token, bytes memory data) private returns (bool) {... */\n      swap3\n      swap2\n      pop\n      pop\n      jump\t// out\n        /* \"https://github.com/OpenZeppelin/openzeppelin-contracts/blob/v5.4.0/contracts/utils/Context.sol\":656:752  function _msgSender() internal view virtual returns (address) {... */\n    tag_360:\n        /* \"https://github.com/OpenZeppelin/openzeppelin-contracts/blob/v5.4.0/contracts/utils/Context.sol\":709:716  address */\n      0x00\n        /* \"https://github.com/OpenZeppelin/openzeppelin-contracts/blob/v5.4.0/contracts/utils/Context.sol\":735:745  msg.sender */\n      caller\n        /* \"https://github.com/OpenZeppelin/openzeppelin-contracts/blob/v5.4.0/contracts/utils/Context.sol\":728:745  return msg.sender */\n      swap1\n      pop\n        /* \"https://github.com/OpenZeppelin/openzeppelin-contracts/blob/v5.4.0/contracts/utils/Context.sol\":656:752  function _msgSender() internal view virtual returns (address) {... */\n      swap1\n      jump\t// out\n        /* \"#utility.yul\":7:82   */\n    tag_377:\n        /* \"#utility.yul\":40:46   */\n      0x00\n        /* \"#utility.yul\":73:75   */\n      0x40\n        /* \"#utility.yul\":67:76   */\n      mload\n        /* \"#utility.yul\":57:76   */\n      swap1\n      pop\n        /* \"#utility.yul\":7:82   */\n      swap1\n      jump\t// out\n        /* \"#utility.yul\":88:205   */\n    tag_378:\n        /* \"#utility.yul\":197:198   */\n      0x00\n        /* \"#utility.yul\":194:195   */\n      dup1\n        /* \"#utility.yul\":187:199   */\n      revert\n        /* \"#utility.yul\":211:328   */\n    tag_379:\n        /* \"#utility.yul\":320:321   */\n      0x00\n        /* \"#utility.yul\":317:318   */\n      dup1\n        /* \"#utility.yul\":310:322   */\n      revert\n        /* \"#utility.yul\":334:411   */\n    tag_380:\n        /* \"#utility.yul\":371:378   */\n      0x00\n        /* \"#utility.yul\":400:405   */\n      dup2\n        /* \"#utility.yul\":389:405   */\n      swap1\n      pop\n        /* \"#utility.yul\":334:411   */\n      swap2\n      swap1\n      pop\n      jump\t// out\n        /* \"#utility.yul\":417:539   */\n    tag_381:\n        /* \"#utility.yul\":490:514   */\n      tag_458\n        /* \"#utility.yul\":508:513   */\n      dup2\n        /* \"#utility.yul\":490:514   */\n      tag_380\n      jump\t// in\n    tag_458:\n        /* \"#utility.yul\":483:488   */\n      dup2\n        /* \"#utility.yul\":480:515   */\n      eq\n        /* \"#utility.yul\":470:533   */\n      tag_459\n      jumpi\n        /* \"#utility.yul\":529:530   */\n      0x00\n        /* \"#utility.yul\":526:527   */\n      dup1\n        /* \"#utility.yul\":519:531   */\n      revert\n        /* \"#utility.yul\":470:533   */\n    tag_459:\n        /* \"#utility.yul\":417:539   */\n      pop\n      jump\t// out\n        /* \"#utility.yul\":545:684   */\n    tag_382:\n        /* \"#utility.yul\":591:596   */\n      0x00\n        /* \"#utility.yul\":629:635   */\n      dup2\n        /* \"#utility.yul\":616:636   */\n      calldataload\n        /* \"#utility.yul\":607:636   */\n      swap1\n      pop\n        /* \"#utility.yul\":645:678   */\n      tag_461\n        /* \"#utility.yul\":672:677   */\n      dup2\n        /* \"#utility.yul\":645:678   */\n      tag_381\n      jump\t// in\n    tag_461:\n        /* \"#utility.yul\":545:684   */\n      swap3\n      swap2\n      pop\n      pop\n      jump\t// out\n        /* \"#utility.yul\":690:1309   */\n    tag_41:\n        /* \"#utility.yul\":767:773   */\n      0x00\n        /* \"#utility.yul\":775:781   */\n      dup1\n        /* \"#utility.yul\":783:789   */\n      0x00\n        /* \"#utility.yul\":832:834   */\n      0x60\n        /* \"#utility.yul\":820:829   */\n      dup5\n        /* \"#utility.yul\":811:818   */\n      dup7\n        /* \"#utility.yul\":807:830   */\n      sub\n        /* \"#utility.yul\":803:835   */\n      slt\n        /* \"#utility.yul\":800:919   */\n      iszero\n      tag_463\n      jumpi\n        /* \"#utility.yul\":838:917   */\n      tag_464\n      tag_378\n      jump\t// in\n    tag_464:\n        /* \"#utility.yul\":800:919   */\n    tag_463:\n        /* \"#utility.yul\":958:959   */\n      0x00\n        /* \"#utility.yul\":983:1036   */\n      tag_465\n        /* \"#utility.yul\":1028:1035   */\n      dup7\n        /* \"#utility.yul\":1019:1025   */\n      dup3\n        /* \"#utility.yul\":1008:1017   */\n      dup8\n        /* \"#utility.yul\":1004:1026   */\n      add\n        /* \"#utility.yul\":983:1036   */\n      tag_382\n      jump\t// in\n    tag_465:\n        /* \"#utility.yul\":973:1036   */\n      swap4\n      pop\n        /* \"#utility.yul\":929:1046   */\n      pop\n        /* \"#utility.yul\":1085:1087   */\n      0x20\n        /* \"#utility.yul\":1111:1164   */\n      tag_466\n        /* \"#utility.yul\":1156:1163   */\n      dup7\n        /* \"#utility.yul\":1147:1153   */\n      dup3\n        /* \"#utility.yul\":1136:1145   */\n      dup8\n        /* \"#utility.yul\":1132:1154   */\n      add\n        /* \"#utility.yul\":1111:1164   */\n      tag_382\n      jump\t// in\n    tag_466:\n        /* \"#utility.yul\":1101:1164   */\n      swap3\n      pop\n        /* \"#utility.yul\":1056:1174   */\n      pop\n        /* \"#utility.yul\":1213:1215   */\n      0x40\n        /* \"#utility.yul\":1239:1292   */\n      tag_467\n        /* \"#utility.yul\":1284:1291   */\n      dup7\n        /* \"#utility.yul\":1275:1281   */\n      dup3\n        /* \"#utility.yul\":1264:1273   */\n      dup8\n        /* \"#utility.yul\":1260:1282   */\n      add\n        /* \"#utility.yul\":1239:1292   */\n      tag_382\n      jump\t// in\n    tag_467:\n        /* \"#utility.yul\":1229:1292   */\n      swap2\n      pop\n        /* \"#utility.yul\":1184:1302   */\n      pop\n        /* \"#utility.yul\":690:1309   */\n      swap3\n      pop\n      swap3\n      pop\n      swap3\n      jump\t// out\n        /* \"#utility.yul\":1315:1433   */\n    tag_383:\n        /* \"#utility.yul\":1402:1426   */\n      tag_469\n        /* \"#utility.yul\":1420:1425   */\n      dup2\n        /* \"#utility.yul\":1402:1426   */\n      tag_380\n      jump\t// in\n    tag_469:\n        /* \"#utility.yul\":1397:1400   */\n      dup3\n        /* \"#utility.yul\":1390:1427   */\n      mstore\n        /* \"#utility.yul\":1315:1433   */\n      pop\n      pop\n      jump\t// out\n        /* \"#utility.yul\":1439:1661   */\n    tag_46:\n        /* \"#utility.yul\":1532:1536   */\n      0x00\n        /* \"#utility.yul\":1570:1572   */\n      0x20\n        /* \"#utility.yul\":1559:1568   */\n      dup3\n        /* \"#utility.yul\":1555:1573   */\n      add\n        /* \"#utility.yul\":1547:1573   */\n      swap1\n      pop\n        /* \"#utility.yul\":1583:1654   */\n      tag_471\n        /* \"#utility.yul\":1651:1652   */\n      0x00\n        /* \"#utility.yul\":1640:1649   */\n      dup4\n        /* \"#utility.yul\":1636:1653   */\n      add\n        /* \"#utility.yul\":1627:1633   */\n      dup5\n        /* \"#utility.yul\":1583:1654   */\n      tag_383\n      jump\t// in\n    tag_471:\n        /* \"#utility.yul\":1439:1661   */\n      swap3\n      swap2\n      pop\n      pop\n      jump\t// out\n        /* \"#utility.yul\":1667:1793   */\n    tag_384:\n        /* \"#utility.yul\":1704:1711   */\n      0x00\n        /* \"#utility.yul\":1744:1786   */\n      0xffffffffffffffffffffffffffffffffffffffff\n        /* \"#utility.yul\":1737:1742   */\n      dup3\n        /* \"#utility.yul\":1733:1787   */\n      and\n        /* \"#utility.yul\":1722:1787   */\n      swap1\n      pop\n        /* \"#utility.yul\":1667:1793   */\n      swap2\n      swap1\n      pop\n      jump\t// out\n        /* \"#utility.yul\":1799:1859   */\n    tag_385:\n        /* \"#utility.yul\":1827:1830   */\n      0x00\n        /* \"#utility.yul\":1848:1853   */\n      dup2\n        /* \"#utility.yul\":1841:1853   */\n      swap1\n      pop\n        /* \"#utility.yul\":1799:1859   */\n      swap2\n      swap1\n      pop\n      jump\t// out\n        /* \"#utility.yul\":1865:2007   */\n    tag_386:\n        /* \"#utility.yul\":1915:1924   */\n      0x00\n        /* \"#utility.yul\":1948:2001   */\n      tag_475\n        /* \"#utility.yul\":1966:2000   */\n      tag_476\n        /* \"#utility.yul\":1975:1999   */\n      tag_477\n        /* \"#utility.yul\":1993:1998   */\n      dup5\n        /* \"#utility.yul\":1975:1999   */\n      tag_384\n      jump\t// in\n    tag_477:\n        /* \"#utility.yul\":1966:2000   */\n      tag_385\n      jump\t// in\n    tag_476:\n        /* \"#utility.yul\":1948:2001   */\n      tag_384\n      jump\t// in\n    tag_475:\n        /* \"#utility.yul\":1935:2001   */\n      swap1\n      pop\n        /* \"#utility.yul\":1865:2007   */\n      swap2\n      swap1\n      pop\n      jump\t// out\n        /* \"#utility.yul\":2013:2139   */\n    tag_387:\n        /* \"#utility.yul\":2063:2072   */\n      0x00\n        /* \"#utility.yul\":2096:2133   */\n      tag_479\n        /* \"#utility.yul\":2127:2132   */\n      dup3\n        /* \"#utility.yul\":2096:2133   */\n      tag_386\n      jump\t// in\n    tag_479:\n        /* \"#utility.yul\":2083:2133   */\n      swap1\n      pop\n        /* \"#utility.yul\":2013:2139   */\n      swap2\n      swap1\n      pop\n      jump\t// out\n        /* \"#utility.yul\":2145:2286   */\n    tag_388:\n        /* \"#utility.yul\":2210:2219   */\n      0x00\n        /* \"#utility.yul\":2243:2280   */\n      tag_481\n        /* \"#utility.yul\":2274:2279   */\n      dup3\n        /* \"#utility.yul\":2243:2280   */\n      tag_387\n      jump\t// in\n    tag_481:\n        /* \"#utility.yul\":2230:2280   */\n      swap1\n      pop\n        /* \"#utility.yul\":2145:2286   */\n      swap2\n      swap1\n      pop\n      jump\t// out\n        /* \"#utility.yul\":2292:2453   */\n    tag_389:\n        /* \"#utility.yul\":2394:2446   */\n      tag_483\n        /* \"#utility.yul\":2440:2445   */\n      dup2\n        /* \"#utility.yul\":2394:2446   */\n      tag_388\n      jump\t// in\n    tag_483:\n        /* \"#utility.yul\":2389:2392   */\n      dup3\n        /* \"#utility.yul\":2382:2447   */\n      mstore\n        /* \"#utility.yul\":2292:2453   */\n      pop\n      pop\n      jump\t// out\n        /* \"#utility.yul\":2459:2711   */\n    tag_50:\n        /* \"#utility.yul\":2567:2571   */\n      0x00\n        /* \"#utility.yul\":2605:2607   */\n      0x20\n        /* \"#utility.yul\":2594:2603   */\n      dup3\n        /* \"#utility.yul\":2590:2608   */\n      add\n        /* \"#utility.yul\":2582:2608   */\n      swap1\n      pop\n        /* \"#utility.yul\":2618:2704   */\n      tag_485\n        /* \"#utility.yul\":2701:2702   */\n      0x00\n        /* \"#utility.yul\":2690:2699   */\n      dup4\n        /* \"#utility.yul\":2686:2703   */\n      add\n        /* \"#utility.yul\":2677:2683   */\n      dup5\n        /* \"#utility.yul\":2618:2704   */\n      tag_389\n      jump\t// in\n    tag_485:\n        /* \"#utility.yul\":2459:2711   */\n      swap3\n      swap2\n      pop\n      pop\n      jump\t// out\n        /* \"#utility.yul\":2717:2813   */\n    tag_390:\n        /* \"#utility.yul\":2754:2761   */\n      0x00\n        /* \"#utility.yul\":2783:2807   */\n      tag_487\n        /* \"#utility.yul\":2801:2806   */\n      dup3\n        /* \"#utility.yul\":2783:2807   */\n      tag_384\n      jump\t// in\n    tag_487:\n        /* \"#utility.yul\":2772:2807   */\n      swap1\n      pop\n        /* \"#utility.yul\":2717:2813   */\n      swap2\n      swap1\n      pop\n      jump\t// out\n        /* \"#utility.yul\":2819:2941   */\n    tag_391:\n        /* \"#utility.yul\":2892:2916   */\n      tag_489\n        /* \"#utility.yul\":2910:2915   */\n      dup2\n        /* \"#utility.yul\":2892:2916   */\n      tag_390\n      jump\t// in\n    tag_489:\n        /* \"#utility.yul\":2885:2890   */\n      dup2\n        /* \"#utility.yul\":2882:2917   */\n      eq\n        /* \"#utility.yul\":2872:2935   */\n      tag_490\n      jumpi\n        /* \"#utility.yul\":2931:2932   */\n      0x00\n        /* \"#utility.yul\":2928:2929   */\n      dup1\n        /* \"#utility.yul\":2921:2933   */\n      revert\n        /* \"#utility.yul\":2872:2935   */\n    tag_490:\n        /* \"#utility.yul\":2819:2941   */\n      pop\n      jump\t// out\n        /* \"#utility.yul\":2947:3086   */\n    tag_392:\n        /* \"#utility.yul\":2993:2998   */\n      0x00\n        /* \"#utility.yul\":3031:3037   */\n      dup2\n        /* \"#utility.yul\":3018:3038   */\n      calldataload\n        /* \"#utility.yul\":3009:3038   */\n      swap1\n      pop\n        /* \"#utility.yul\":3047:3080   */\n      tag_492\n        /* \"#utility.yul\":3074:3079   */\n      dup2\n        /* \"#utility.yul\":3047:3080   */\n      tag_391\n      jump\t// in\n    tag_492:\n        /* \"#utility.yul\":2947:3086   */\n      swap3\n      swap2\n      pop\n      pop\n      jump\t// out\n        /* \"#utility.yul\":3092:3421   */\n    tag_59:\n        /* \"#utility.yul\":3151:3157   */\n      0x00\n        /* \"#utility.yul\":3200:3202   */\n      0x20\n        /* \"#utility.yul\":3188:3197   */\n      dup3\n        /* \"#utility.yul\":3179:3186   */\n      dup5\n        /* \"#utility.yul\":3175:3198   */\n      sub\n        /* \"#utility.yul\":3171:3203   */\n      slt\n        /* \"#utility.yul\":3168:3287   */\n      iszero\n      tag_494\n      jumpi\n        /* \"#utility.yul\":3206:3285   */\n      tag_495\n      tag_378\n      jump\t// in\n    tag_495:\n        /* \"#utility.yul\":3168:3287   */\n    tag_494:\n        /* \"#utility.yul\":3326:3327   */\n      0x00\n        /* \"#utility.yul\":3351:3404   */\n      tag_496\n        /* \"#utility.yul\":3396:3403   */\n      dup5\n        /* \"#utility.yul\":3387:3393   */\n      dup3\n        /* \"#utility.yul\":3376:3385   */\n      dup6\n        /* \"#utility.yul\":3372:3394   */\n      add\n        /* \"#utility.yul\":3351:3404   */\n      tag_392\n      jump\t// in\n    tag_496:\n        /* \"#utility.yul\":3341:3404   */\n      swap2\n      pop\n        /* \"#utility.yul\":3297:3414   */\n      pop\n        /* \"#utility.yul\":3092:3421   */\n      swap3\n      swap2\n      pop\n      pop\n      jump\t// out\n        /* \"#utility.yul\":3427:3544   */\n    tag_393:\n        /* \"#utility.yul\":3536:3537   */\n      0x00\n        /* \"#utility.yul\":3533:3534   */\n      dup1\n        /* \"#utility.yul\":3526:3538   */\n      revert\n        /* \"#utility.yul\":3550:3667   */\n    tag_394:\n        /* \"#utility.yul\":3659:3660   */\n      0x00\n        /* \"#utility.yul\":3656:3657   */\n      dup1\n        /* \"#utility.yul\":3649:3661   */\n      revert\n        /* \"#utility.yul\":3673:3790   */\n    tag_395:\n        /* \"#utility.yul\":3782:3783   */\n      0x00\n        /* \"#utility.yul\":3779:3780   */\n      dup1\n        /* \"#utility.yul\":3772:3784   */\n      revert\n        /* \"#utility.yul\":3813:4381   */\n    tag_396:\n        /* \"#utility.yul\":3886:3894   */\n      0x00\n        /* \"#utility.yul\":3896:3902   */\n      dup1\n        /* \"#utility.yul\":3946:3949   */\n      dup4\n        /* \"#utility.yul\":3939:3943   */\n      0x1f\n        /* \"#utility.yul\":3931:3937   */\n      dup5\n        /* \"#utility.yul\":3927:3944   */\n      add\n        /* \"#utility.yul\":3923:3950   */\n      slt\n        /* \"#utility.yul\":3913:4035   */\n      tag_501\n      jumpi\n        /* \"#utility.yul\":3954:4033   */\n      tag_502\n      tag_393\n      jump\t// in\n    tag_502:\n        /* \"#utility.yul\":3913:4035   */\n    tag_501:\n        /* \"#utility.yul\":4067:4073   */\n      dup3\n        /* \"#utility.yul\":4054:4074   */\n      calldataload\n        /* \"#utility.yul\":4044:4074   */\n      swap1\n      pop\n        /* \"#utility.yul\":4097:4115   */\n      0xffffffffffffffff\n        /* \"#utility.yul\":4089:4095   */\n      dup2\n        /* \"#utility.yul\":4086:4116   */\n      gt\n        /* \"#utility.yul\":4083:4200   */\n      iszero\n      tag_503\n      jumpi\n        /* \"#utility.yul\":4119:4198   */\n      tag_504\n      tag_394\n      jump\t// in\n    tag_504:\n        /* \"#utility.yul\":4083:4200   */\n    tag_503:\n        /* \"#utility.yul\":4233:4237   */\n      0x20\n        /* \"#utility.yul\":4225:4231   */\n      dup4\n        /* \"#utility.yul\":4221:4238   */\n      add\n        /* \"#utility.yul\":4209:4238   */\n      swap2\n      pop\n        /* \"#utility.yul\":4287:4290   */\n      dup4\n        /* \"#utility.yul\":4279:4283   */\n      0x20\n        /* \"#utility.yul\":4271:4277   */\n      dup3\n        /* \"#utility.yul\":4267:4284   */\n      mul\n        /* \"#utility.yul\":4257:4265   */\n      dup4\n        /* \"#utility.yul\":4253:4285   */\n      add\n        /* \"#utility.yul\":4250:4291   */\n      gt\n        /* \"#utility.yul\":4247:4375   */\n      iszero\n      tag_505\n      jumpi\n        /* \"#utility.yul\":4294:4373   */\n      tag_506\n      tag_395\n      jump\t// in\n    tag_506:\n        /* \"#utility.yul\":4247:4375   */\n    tag_505:\n        /* \"#utility.yul\":3813:4381   */\n      swap3\n      pop\n      swap3\n      swap1\n      pop\n      jump\t// out\n        /* \"#utility.yul\":4387:5091   */\n    tag_64:\n        /* \"#utility.yul\":4482:4488   */\n      0x00\n        /* \"#utility.yul\":4490:4496   */\n      dup1\n        /* \"#utility.yul\":4498:4504   */\n      0x00\n        /* \"#utility.yul\":4547:4549   */\n      0x40\n        /* \"#utility.yul\":4535:4544   */\n      dup5\n        /* \"#utility.yul\":4526:4533   */\n      dup7\n        /* \"#utility.yul\":4522:4545   */\n      sub\n        /* \"#utility.yul\":4518:4550   */\n      slt\n        /* \"#utility.yul\":4515:4634   */\n      iszero\n      tag_508\n      jumpi\n        /* \"#utility.yul\":4553:4632   */\n      tag_509\n      tag_378\n      jump\t// in\n    tag_509:\n        /* \"#utility.yul\":4515:4634   */\n    tag_508:\n        /* \"#utility.yul\":4701:4702   */\n      0x00\n        /* \"#utility.yul\":4690:4699   */\n      dup5\n        /* \"#utility.yul\":4686:4703   */\n      add\n        /* \"#utility.yul\":4673:4704   */\n      calldataload\n        /* \"#utility.yul\":4731:4749   */\n      0xffffffffffffffff\n        /* \"#utility.yul\":4723:4729   */\n      dup2\n        /* \"#utility.yul\":4720:4750   */\n      gt\n        /* \"#utility.yul\":4717:4834   */\n      iszero\n      tag_510\n      jumpi\n        /* \"#utility.yul\":4753:4832   */\n      tag_511\n      tag_379\n      jump\t// in\n    tag_511:\n        /* \"#utility.yul\":4717:4834   */\n    tag_510:\n        /* \"#utility.yul\":4866:4946   */\n      tag_512\n        /* \"#utility.yul\":4938:4945   */\n      dup7\n        /* \"#utility.yul\":4929:4935   */\n      dup3\n        /* \"#utility.yul\":4918:4927   */\n      dup8\n        /* \"#utility.yul\":4914:4936   */\n      add\n        /* \"#utility.yul\":4866:4946   */\n      tag_396\n      jump\t// in\n    tag_512:\n        /* \"#utility.yul\":4848:4946   */\n      swap4\n      pop\n      swap4\n      pop\n        /* \"#utility.yul\":4644:4956   */\n      pop\n        /* \"#utility.yul\":4995:4997   */\n      0x20\n        /* \"#utility.yul\":5021:5074   */\n      tag_513\n        /* \"#utility.yul\":5066:5073   */\n      dup7\n        /* \"#utility.yul\":5057:5063   */\n      dup3\n        /* \"#utility.yul\":5046:5055   */\n      dup8\n        /* \"#utility.yul\":5042:5064   */\n      add\n        /* \"#utility.yul\":5021:5074   */\n      tag_382\n      jump\t// in\n    tag_513:\n        /* \"#utility.yul\":5011:5074   */\n      swap2\n      pop\n        /* \"#utility.yul\":4966:5084   */\n      pop\n        /* \"#utility.yul\":4387:5091   */\n      swap3\n      pop\n      swap3\n      pop\n      swap3\n      jump\t// out\n        /* \"#utility.yul\":5097:5426   */\n    tag_68:\n        /* \"#utility.yul\":5156:5162   */\n      0x00\n        /* \"#utility.yul\":5205:5207   */\n      0x20\n        /* \"#utility.yul\":5193:5202   */\n      dup3\n        /* \"#utility.yul\":5184:5191   */\n      dup5\n        /* \"#utility.yul\":5180:5203   */\n      sub\n        /* \"#utility.yul\":5176:5208   */\n      slt\n        /* \"#utility.yul\":5173:5292   */\n      iszero\n      tag_515\n      jumpi\n        /* \"#utility.yul\":5211:5290   */\n      tag_516\n      tag_378\n      jump\t// in\n    tag_516:\n        /* \"#utility.yul\":5173:5292   */\n    tag_515:\n        /* \"#utility.yul\":5331:5332   */\n      0x00\n        /* \"#utility.yul\":5356:5409   */\n      tag_517\n        /* \"#utility.yul\":5401:5408   */\n      dup5\n        /* \"#utility.yul\":5392:5398   */\n      dup3\n        /* \"#utility.yul\":5381:5390   */\n      dup6\n        /* \"#utility.yul\":5377:5399   */\n      add\n        /* \"#utility.yul\":5356:5409   */\n      tag_382\n      jump\t// in\n    tag_517:\n        /* \"#utility.yul\":5346:5409   */\n      swap2\n      pop\n        /* \"#utility.yul\":5302:5419   */\n      pop\n        /* \"#utility.yul\":5097:5426   */\n      swap3\n      swap2\n      pop\n      pop\n      jump\t// out\n        /* \"#utility.yul\":5432:5575   */\n    tag_397:\n        /* \"#utility.yul\":5499:5508   */\n      0x00\n        /* \"#utility.yul\":5532:5569   */\n      tag_519\n        /* \"#utility.yul\":5563:5568   */\n      dup3\n        /* \"#utility.yul\":5532:5569   */\n      tag_387\n      jump\t// in\n    tag_519:\n        /* \"#utility.yul\":5519:5569   */\n      swap1\n      pop\n        /* \"#utility.yul\":5432:5575   */\n      swap2\n      swap1\n      pop\n      jump\t// out\n        /* \"#utility.yul\":5581:5746   */\n    tag_398:\n        /* \"#utility.yul\":5685:5739   */\n      tag_521\n        /* \"#utility.yul\":5733:5738   */\n      dup2\n        /* \"#utility.yul\":5685:5739   */\n      tag_397\n      jump\t// in\n    tag_521:\n        /* \"#utility.yul\":5680:5683   */\n      dup3\n        /* \"#utility.yul\":5673:5740   */\n      mstore\n        /* \"#utility.yul\":5581:5746   */\n      pop\n      pop\n      jump\t// out\n        /* \"#utility.yul\":5752:6008   */\n    tag_82:\n        /* \"#utility.yul\":5862:5866   */\n      0x00\n        /* \"#utility.yul\":5900:5902   */\n      0x20\n        /* \"#utility.yul\":5889:5898   */\n      dup3\n        /* \"#utility.yul\":5885:5903   */\n      add\n        /* \"#utility.yul\":5877:5903   */\n      swap1\n      pop\n        /* \"#utility.yul\":5913:6001   */\n      tag_523\n        /* \"#utility.yul\":5998:5999   */\n      0x00\n        /* \"#utility.yul\":5987:5996   */\n      dup4\n        /* \"#utility.yul\":5983:6000   */\n      add\n        /* \"#utility.yul\":5974:5980   */\n      dup5\n        /* \"#utility.yul\":5913:6001   */\n      tag_398\n      jump\t// in\n    tag_523:\n        /* \"#utility.yul\":5752:6008   */\n      swap3\n      swap2\n      pop\n      pop\n      jump\t// out\n        /* \"#utility.yul\":6014:6132   */\n    tag_399:\n        /* \"#utility.yul\":6101:6125   */\n      tag_525\n        /* \"#utility.yul\":6119:6124   */\n      dup2\n        /* \"#utility.yul\":6101:6125   */\n      tag_390\n      jump\t// in\n    tag_525:\n        /* \"#utility.yul\":6096:6099   */\n      dup3\n        /* \"#utility.yul\":6089:6126   */\n      mstore\n        /* \"#utility.yul\":6014:6132   */\n      pop\n      pop\n      jump\t// out\n        /* \"#utility.yul\":6138:6360   */\n    tag_86:\n        /* \"#utility.yul\":6231:6235   */\n      0x00\n        /* \"#utility.yul\":6269:6271   */\n      0x20\n        /* \"#utility.yul\":6258:6267   */\n      dup3\n        /* \"#utility.yul\":6254:6272   */\n      add\n        /* \"#utility.yul\":6246:6272   */\n      swap1\n      pop\n        /* \"#utility.yul\":6282:6353   */\n      tag_527\n        /* \"#utility.yul\":6350:6351   */\n      0x00\n        /* \"#utility.yul\":6339:6348   */\n      dup4\n        /* \"#utility.yul\":6335:6352   */\n      add\n        /* \"#utility.yul\":6326:6332   */\n      dup5\n        /* \"#utility.yul\":6282:6353   */\n      tag_399\n      jump\t// in\n    tag_527:\n        /* \"#utility.yul\":6138:6360   */\n      swap3\n      swap2\n      pop\n      pop\n      jump\t// out\n        /* \"#utility.yul\":6366:6511   */\n    tag_400:\n        /* \"#utility.yul\":6435:6444   */\n      0x00\n        /* \"#utility.yul\":6468:6505   */\n      tag_529\n        /* \"#utility.yul\":6499:6504   */\n      dup3\n        /* \"#utility.yul\":6468:6505   */\n      tag_387\n      jump\t// in\n    tag_529:\n        /* \"#utility.yul\":6455:6505   */\n      swap1\n      pop\n        /* \"#utility.yul\":6366:6511   */\n      swap2\n      swap1\n      pop\n      jump\t// out\n        /* \"#utility.yul\":6517:6686   */\n    tag_401:\n        /* \"#utility.yul\":6623:6679   */\n      tag_531\n        /* \"#utility.yul\":6673:6678   */\n      dup2\n        /* \"#utility.yul\":6623:6679   */\n      tag_400\n      jump\t// in\n    tag_531:\n        /* \"#utility.yul\":6618:6621   */\n      dup3\n        /* \"#utility.yul\":6611:6680   */\n      mstore\n        /* \"#utility.yul\":6517:6686   */\n      pop\n      pop\n      jump\t// out\n        /* \"#utility.yul\":6692:6952   */\n    tag_90:\n        /* \"#utility.yul\":6804:6808   */\n      0x00\n        /* \"#utility.yul\":6842:6844   */\n      0x20\n        /* \"#utility.yul\":6831:6840   */\n      dup3\n        /* \"#utility.yul\":6827:6845   */\n      add\n        /* \"#utility.yul\":6819:6845   */\n      swap1\n      pop\n        /* \"#utility.yul\":6855:6945   */\n      tag_533\n        /* \"#utility.yul\":6942:6943   */\n      0x00\n        /* \"#utility.yul\":6931:6940   */\n      dup4\n        /* \"#utility.yul\":6927:6944   */\n      add\n        /* \"#utility.yul\":6918:6924   */\n      dup5\n        /* \"#utility.yul\":6855:6945   */\n      tag_401\n      jump\t// in\n    tag_533:\n        /* \"#utility.yul\":6692:6952   */\n      swap3\n      swap2\n      pop\n      pop\n      jump\t// out\n        /* \"#utility.yul\":6958:7048   */\n    tag_402:\n        /* \"#utility.yul\":6992:6999   */\n      0x00\n        /* \"#utility.yul\":7035:7040   */\n      dup2\n        /* \"#utility.yul\":7028:7041   */\n      iszero\n        /* \"#utility.yul\":7021:7042   */\n      iszero\n        /* \"#utility.yul\":7010:7042   */\n      swap1\n      pop\n        /* \"#utility.yul\":6958:7048   */\n      swap2\n      swap1\n      pop\n      jump\t// out\n        /* \"#utility.yul\":7054:7163   */\n    tag_403:\n        /* \"#utility.yul\":7135:7156   */\n      tag_536\n        /* \"#utility.yul\":7150:7155   */\n      dup2\n        /* \"#utility.yul\":7135:7156   */\n      tag_402\n      jump\t// in\n    tag_536:\n        /* \"#utility.yul\":7130:7133   */\n      dup3\n        /* \"#utility.yul\":7123:7157   */\n      mstore\n        /* \"#utility.yul\":7054:7163   */\n      pop\n      pop\n      jump\t// out\n        /* \"#utility.yul\":7169:7379   */\n    tag_106:\n        /* \"#utility.yul\":7256:7260   */\n      0x00\n        /* \"#utility.yul\":7294:7296   */\n      0x20\n        /* \"#utility.yul\":7283:7292   */\n      dup3\n        /* \"#utility.yul\":7279:7297   */\n      add\n        /* \"#utility.yul\":7271:7297   */\n      swap1\n      pop\n        /* \"#utility.yul\":7307:7372   */\n      tag_538\n        /* \"#utility.yul\":7369:7370   */\n      0x00\n        /* \"#utility.yul\":7358:7367   */\n      dup4\n        /* \"#utility.yul\":7354:7371   */\n      add\n        /* \"#utility.yul\":7345:7351   */\n      dup5\n        /* \"#utility.yul\":7307:7372   */\n      tag_403\n      jump\t// in\n    tag_538:\n        /* \"#utility.yul\":7169:7379   */\n      swap3\n      swap2\n      pop\n      pop\n      jump\t// out\n        /* \"#utility.yul\":7385:8037   */\n    tag_113:\n        /* \"#utility.yul\":7584:7588   */\n      0x00\n        /* \"#utility.yul\":7622:7625   */\n      0xa0\n        /* \"#utility.yul\":7611:7620   */\n      dup3\n        /* \"#utility.yul\":7607:7626   */\n      add\n        /* \"#utility.yul\":7599:7626   */\n      swap1\n      pop\n        /* \"#utility.yul\":7636:7707   */\n      tag_540\n        /* \"#utility.yul\":7704:7705   */\n      0x00\n        /* \"#utility.yul\":7693:7702   */\n      dup4\n        /* \"#utility.yul\":7689:7706   */\n      add\n        /* \"#utility.yul\":7680:7686   */\n      dup9\n        /* \"#utility.yul\":7636:7707   */\n      tag_383\n      jump\t// in\n    tag_540:\n        /* \"#utility.yul\":7717:7789   */\n      tag_541\n        /* \"#utility.yul\":7785:7787   */\n      0x20\n        /* \"#utility.yul\":7774:7783   */\n      dup4\n        /* \"#utility.yul\":7770:7788   */\n      add\n        /* \"#utility.yul\":7761:7767   */\n      dup8\n        /* \"#utility.yul\":7717:7789   */\n      tag_383\n      jump\t// in\n    tag_541:\n        /* \"#utility.yul\":7799:7871   */\n      tag_542\n        /* \"#utility.yul\":7867:7869   */\n      0x40\n        /* \"#utility.yul\":7856:7865   */\n      dup4\n        /* \"#utility.yul\":7852:7870   */\n      add\n        /* \"#utility.yul\":7843:7849   */\n      dup7\n        /* \"#utility.yul\":7799:7871   */\n      tag_383\n      jump\t// in\n    tag_542:\n        /* \"#utility.yul\":7881:7953   */\n      tag_543\n        /* \"#utility.yul\":7949:7951   */\n      0x60\n        /* \"#utility.yul\":7938:7947   */\n      dup4\n        /* \"#utility.yul\":7934:7952   */\n      add\n        /* \"#utility.yul\":7925:7931   */\n      dup6\n        /* \"#utility.yul\":7881:7953   */\n      tag_383\n      jump\t// in\n    tag_543:\n        /* \"#utility.yul\":7963:8030   */\n      tag_544\n        /* \"#utility.yul\":8025:8028   */\n      0x80\n        /* \"#utility.yul\":8014:8023   */\n      dup4\n        /* \"#utility.yul\":8010:8029   */\n      add\n        /* \"#utility.yul\":8001:8007   */\n      dup5\n        /* \"#utility.yul\":7963:8030   */\n      tag_403\n      jump\t// in\n    tag_544:\n        /* \"#utility.yul\":7385:8037   */\n      swap7\n      swap6\n      pop\n      pop\n      pop\n      pop\n      pop\n      pop\n      jump\t// out\n        /* \"#utility.yul\":8043:8183   */\n    tag_404:\n        /* \"#utility.yul\":8107:8116   */\n      0x00\n        /* \"#utility.yul\":8140:8177   */\n      tag_546\n        /* \"#utility.yul\":8171:8176   */\n      dup3\n        /* \"#utility.yul\":8140:8177   */\n      tag_387\n      jump\t// in\n    tag_546:\n        /* \"#utility.yul\":8127:8177   */\n      swap1\n      pop\n        /* \"#utility.yul\":8043:8183   */\n      swap2\n      swap1\n      pop\n      jump\t// out\n        /* \"#utility.yul\":8189:8348   */\n    tag_405:\n        /* \"#utility.yul\":8290:8341   */\n      tag_548\n        /* \"#utility.yul\":8335:8340   */\n      dup2\n        /* \"#utility.yul\":8290:8341   */\n      tag_404\n      jump\t// in\n    tag_548:\n        /* \"#utility.yul\":8285:8288   */\n      dup3\n        /* \"#utility.yul\":8278:8342   */\n      mstore\n        /* \"#utility.yul\":8189:8348   */\n      pop\n      pop\n      jump\t// out\n        /* \"#utility.yul\":8354:8604   */\n    tag_135:\n        /* \"#utility.yul\":8461:8465   */\n      0x00\n        /* \"#utility.yul\":8499:8501   */\n      0x20\n        /* \"#utility.yul\":8488:8497   */\n      dup3\n        /* \"#utility.yul\":8484:8502   */\n      add\n        /* \"#utility.yul\":8476:8502   */\n      swap1\n      pop\n        /* \"#utility.yul\":8512:8597   */\n      tag_550\n        /* \"#utility.yul\":8594:8595   */\n      0x00\n        /* \"#utility.yul\":8583:8592   */\n      dup4\n        /* \"#utility.yul\":8579:8596   */\n      add\n        /* \"#utility.yul\":8570:8576   */\n      dup5\n        /* \"#utility.yul\":8512:8597   */\n      tag_405\n      jump\t// in\n    tag_550:\n        /* \"#utility.yul\":8354:8604   */\n      swap3\n      swap2\n      pop\n      pop\n      jump\t// out\n        /* \"#utility.yul\":8610:8779   */\n    tag_406:\n        /* \"#utility.yul\":8694:8705   */\n      0x00\n        /* \"#utility.yul\":8728:8734   */\n      dup3\n        /* \"#utility.yul\":8723:8726   */\n      dup3\n        /* \"#utility.yul\":8716:8735   */\n      mstore\n        /* \"#utility.yul\":8768:8772   */\n      0x20\n        /* \"#utility.yul\":8763:8766   */\n      dup3\n        /* \"#utility.yul\":8759:8773   */\n      add\n        /* \"#utility.yul\":8744:8773   */\n      swap1\n      pop\n        /* \"#utility.yul\":8610:8779   */\n      swap3\n      swap2\n      pop\n      pop\n      jump\t// out\n        /* \"#utility.yul\":8785:8947   */\n    tag_407:\n        /* \"#utility.yul\":8925:8939   */\n      0x7a65726f206465706f7369740000000000000000000000000000000000000000\n        /* \"#utility.yul\":8921:8922   */\n      0x00\n        /* \"#utility.yul\":8913:8919   */\n      dup3\n        /* \"#utility.yul\":8909:8923   */\n      add\n        /* \"#utility.yul\":8902:8940   */\n      mstore\n        /* \"#utility.yul\":8785:8947   */\n      pop\n      jump\t// out\n        /* \"#utility.yul\":8953:9319   */\n    tag_408:\n        /* \"#utility.yul\":9095:9098   */\n      0x00\n        /* \"#utility.yul\":9116:9183   */\n      tag_554\n        /* \"#utility.yul\":9180:9182   */\n      0x0c\n        /* \"#utility.yul\":9175:9178   */\n      dup4\n        /* \"#utility.yul\":9116:9183   */\n      tag_406\n      jump\t// in\n    tag_554:\n        /* \"#utility.yul\":9109:9183   */\n      swap2\n      pop\n        /* \"#utility.yul\":9192:9285   */\n      tag_555\n        /* \"#utility.yul\":9281:9284   */\n      dup3\n        /* \"#utility.yul\":9192:9285   */\n      tag_407\n      jump\t// in\n    tag_555:\n        /* \"#utility.yul\":9310:9312   */\n      0x20\n        /* \"#utility.yul\":9305:9308   */\n      dup3\n        /* \"#utility.yul\":9301:9313   */\n      add\n        /* \"#utility.yul\":9294:9313   */\n      swap1\n      pop\n        /* \"#utility.yul\":8953:9319   */\n      swap2\n      swap1\n      pop\n      jump\t// out\n        /* \"#utility.yul\":9325:9744   */\n    tag_146:\n        /* \"#utility.yul\":9491:9495   */\n      0x00\n        /* \"#utility.yul\":9529:9531   */\n      0x20\n        /* \"#utility.yul\":9518:9527   */\n      dup3\n        /* \"#utility.yul\":9514:9532   */\n      add\n        /* \"#utility.yul\":9506:9532   */\n      swap1\n      pop\n        /* \"#utility.yul\":9578:9587   */\n      dup2\n        /* \"#utility.yul\":9572:9576   */\n      dup2\n        /* \"#utility.yul\":9568:9588   */\n      sub\n        /* \"#utility.yul\":9564:9565   */\n      0x00\n        /* \"#utility.yul\":9553:9562   */\n      dup4\n        /* \"#utility.yul\":9549:9566   */\n      add\n        /* \"#utility.yul\":9542:9589   */\n      mstore\n        /* \"#utility.yul\":9606:9737   */\n      tag_557\n        /* \"#utility.yul\":9732:9736   */\n      dup2\n        /* \"#utility.yul\":9606:9737   */\n      tag_408\n      jump\t// in\n    tag_557:\n        /* \"#utility.yul\":9598:9737   */\n      swap1\n      pop\n        /* \"#utility.yul\":9325:9744   */\n      swap2\n      swap1\n      pop\n      jump\t// out\n        /* \"#utility.yul\":9750:9918   */\n    tag_409:\n        /* \"#utility.yul\":9890:9910   */\n      0x434f5245206c6f636b2072657175697265640000000000000000000000000000\n        /* \"#utility.yul\":9886:9887   */\n      0x00\n        /* \"#utility.yul\":9878:9884   */\n      dup3\n        /* \"#utility.yul\":9874:9888   */\n      add\n        /* \"#utility.yul\":9867:9911   */\n      mstore\n        /* \"#utility.yul\":9750:9918   */\n      pop\n      jump\t// out\n        /* \"#utility.yul\":9924:10290   */\n    tag_410:\n        /* \"#utility.yul\":10066:10069   */\n      0x00\n        /* \"#utility.yul\":10087:10154   */\n      tag_560\n        /* \"#utility.yul\":10151:10153   */\n      0x12\n        /* \"#utility.yul\":10146:10149   */\n      dup4\n        /* \"#utility.yul\":10087:10154   */\n      tag_406\n      jump\t// in\n    tag_560:\n        /* \"#utility.yul\":10080:10154   */\n      swap2\n      pop\n        /* \"#utility.yul\":10163:10256   */\n      tag_561\n        /* \"#utility.yul\":10252:10255   */\n      dup3\n        /* \"#utility.yul\":10163:10256   */\n      tag_409\n      jump\t// in\n    tag_561:\n        /* \"#utility.yul\":10281:10283   */\n      0x20\n        /* \"#utility.yul\":10276:10279   */\n      dup3\n        /* \"#utility.yul\":10272:10284   */\n      add\n        /* \"#utility.yul\":10265:10284   */\n      swap1\n      pop\n        /* \"#utility.yul\":9924:10290   */\n      swap2\n      swap1\n      pop\n      jump\t// out\n        /* \"#utility.yul\":10296:10715   */\n    tag_149:\n        /* \"#utility.yul\":10462:10466   */\n      0x00\n        /* \"#utility.yul\":10500:10502   */\n      0x20\n        /* \"#utility.yul\":10489:10498   */\n      dup3\n        /* \"#utility.yul\":10485:10503   */\n      add\n        /* \"#utility.yul\":10477:10503   */\n      swap1\n      pop\n        /* \"#utility.yul\":10549:10558   */\n      dup2\n        /* \"#utility.yul\":10543:10547   */\n      dup2\n        /* \"#utility.yul\":10539:10559   */\n      sub\n        /* \"#utility.yul\":10535:10536   */\n      0x00\n        /* \"#utility.yul\":10524:10533   */\n      dup4\n        /* \"#utility.yul\":10520:10537   */\n      add\n        /* \"#utility.yul\":10513:10560   */\n      mstore\n        /* \"#utility.yul\":10577:10708   */\n      tag_563\n        /* \"#utility.yul\":10703:10707   */\n      dup2\n        /* \"#utility.yul\":10577:10708   */\n      tag_410\n      jump\t// in\n    tag_563:\n        /* \"#utility.yul\":10569:10708   */\n      swap1\n      pop\n        /* \"#utility.yul\":10296:10715   */\n      swap2\n      swap1\n      pop\n      jump\t// out\n        /* \"#utility.yul\":10721:10893   */\n    tag_411:\n        /* \"#utility.yul\":10861:10885   */\n      0x496e73756666696369656e7420434f5245206c6f636b00000000000000000000\n        /* \"#utility.yul\":10857:10858   */\n      0x00\n        /* \"#utility.yul\":10849:10855   */\n      dup3\n        /* \"#utility.yul\":10845:10859   */\n      add\n        /* \"#utility.yul\":10838:10886   */\n      mstore\n        /* \"#utility.yul\":10721:10893   */\n      pop\n      jump\t// out\n        /* \"#utility.yul\":10899:11265   */\n    tag_412:\n        /* \"#utility.yul\":11041:11044   */\n      0x00\n        /* \"#utility.yul\":11062:11129   */\n      tag_566\n        /* \"#utility.yul\":11126:11128   */\n      0x16\n        /* \"#utility.yul\":11121:11124   */\n      dup4\n        /* \"#utility.yul\":11062:11129   */\n      tag_406\n      jump\t// in\n    tag_566:\n        /* \"#utility.yul\":11055:11129   */\n      swap2\n      pop\n        /* \"#utility.yul\":11138:11231   */\n      tag_567\n        /* \"#utility.yul\":11227:11230   */\n      dup3\n        /* \"#utility.yul\":11138:11231   */\n      tag_411\n      jump\t// in\n    tag_567:\n        /* \"#utility.yul\":11256:11258   */\n      0x20\n        /* \"#utility.yul\":11251:11254   */\n      dup3\n        /* \"#utility.yul\":11247:11259   */\n      add\n        /* \"#utility.yul\":11240:11259   */\n      swap1\n      pop\n        /* \"#utility.yul\":10899:11265   */\n      swap2\n      swap1\n      pop\n      jump\t// out\n        /* \"#utility.yul\":11271:11690   */\n    tag_160:\n        /* \"#utility.yul\":11437:11441   */\n      0x00\n        /* \"#utility.yul\":11475:11477   */\n      0x20\n        /* \"#utility.yul\":11464:11473   */\n      dup3\n        /* \"#utility.yul\":11460:11478   */\n      add\n        /* \"#utility.yul\":11452:11478   */\n      swap1\n      pop\n        /* \"#utility.yul\":11524:11533   */\n      dup2\n        /* \"#utility.yul\":11518:11522   */\n      dup2\n        /* \"#utility.yul\":11514:11534   */\n      sub\n        /* \"#utility.yul\":11510:11511   */\n      0x00\n        /* \"#utility.yul\":11499:11508   */\n      dup4\n        /* \"#utility.yul\":11495:11512   */\n      add\n        /* \"#utility.yul\":11488:11535   */\n      mstore\n        /* \"#utility.yul\":11552:11683   */\n      tag_569\n        /* \"#utility.yul\":11678:11682   */\n      dup2\n        /* \"#utility.yul\":11552:11683   */\n      tag_412\n      jump\t// in\n    tag_569:\n        /* \"#utility.yul\":11544:11683   */\n      swap1\n      pop\n        /* \"#utility.yul\":11271:11690   */\n      swap2\n      swap1\n      pop\n      jump\t// out\n        /* \"#utility.yul\":11696:12028   */\n    tag_165:\n        /* \"#utility.yul\":11817:11821   */\n      0x00\n        /* \"#utility.yul\":11855:11857   */\n      0x40\n        /* \"#utility.yul\":11844:11853   */\n      dup3\n        /* \"#utility.yul\":11840:11858   */\n      add\n        /* \"#utility.yul\":11832:11858   */\n      swap1\n      pop\n        /* \"#utility.yul\":11868:11939   */\n      tag_571\n        /* \"#utility.yul\":11936:11937   */\n      0x00\n        /* \"#utility.yul\":11925:11934   */\n      dup4\n        /* \"#utility.yul\":11921:11938   */\n      add\n        /* \"#utility.yul\":11912:11918   */\n      dup6\n        /* \"#utility.yul\":11868:11939   */\n      tag_383\n      jump\t// in\n    tag_571:\n        /* \"#utility.yul\":11949:12021   */\n      tag_572\n        /* \"#utility.yul\":12017:12019   */\n      0x20\n        /* \"#utility.yul\":12006:12015   */\n      dup4\n        /* \"#utility.yul\":12002:12020   */\n      add\n        /* \"#utility.yul\":11993:11999   */\n      dup5\n        /* \"#utility.yul\":11949:12021   */\n      tag_399\n      jump\t// in\n    tag_572:\n        /* \"#utility.yul\":11696:12028   */\n      swap4\n      swap3\n      pop\n      pop\n      pop\n      jump\t// out\n        /* \"#utility.yul\":12034:12151   */\n    tag_413:\n        /* \"#utility.yul\":12143:12144   */\n      0x00\n        /* \"#utility.yul\":12140:12141   */\n      dup1\n        /* \"#utility.yul\":12133:12145   */\n      revert\n        /* \"#utility.yul\":12157:12259   */\n    tag_414:\n        /* \"#utility.yul\":12198:12204   */\n      0x00\n        /* \"#utility.yul\":12249:12251   */\n      0x1f\n        /* \"#utility.yul\":12245:12252   */\n      not\n        /* \"#utility.yul\":12240:12242   */\n      0x1f\n        /* \"#utility.yul\":12233:12238   */\n      dup4\n        /* \"#utility.yul\":12229:12243   */\n      add\n        /* \"#utility.yul\":12225:12253   */\n      and\n        /* \"#utility.yul\":12215:12253   */\n      swap1\n      pop\n        /* \"#utility.yul\":12157:12259   */\n      swap2\n      swap1\n      pop\n      jump\t// out\n        /* \"#utility.yul\":12265:12445   */\n    tag_415:\n        /* \"#utility.yul\":12313:12390   */\n      0x4e487b7100000000000000000000000000000000000000000000000000000000\n        /* \"#utility.yul\":12310:12311   */\n      0x00\n        /* \"#utility.yul\":12303:12391   */\n      mstore\n        /* \"#utility.yul\":12410:12414   */\n      0x41\n        /* \"#utility.yul\":12407:12408   */\n      0x04\n        /* \"#utility.yul\":12400:12415   */\n      mstore\n        /* \"#utility.yul\":12434:12438   */\n      0x24\n        /* \"#utility.yul\":12431:12432   */\n      0x00\n        /* \"#utility.yul\":12424:12439   */\n      revert\n        /* \"#utility.yul\":12451:12732   */\n    tag_416:\n        /* \"#utility.yul\":12534:12561   */\n      tag_577\n        /* \"#utility.yul\":12556:12560   */\n      dup3\n        /* \"#utility.yul\":12534:12561   */\n      tag_414\n      jump\t// in\n    tag_577:\n        /* \"#utility.yul\":12526:12532   */\n      dup2\n        /* \"#utility.yul\":12522:12562   */\n      add\n        /* \"#utility.yul\":12664:12670   */\n      dup2\n        /* \"#utility.yul\":12652:12662   */\n      dup2\n        /* \"#utility.yul\":12649:12671   */\n      lt\n        /* \"#utility.yul\":12628:12646   */\n      0xffffffffffffffff\n        /* \"#utility.yul\":12616:12626   */\n      dup3\n        /* \"#utility.yul\":12613:12647   */\n      gt\n        /* \"#utility.yul\":12610:12672   */\n      or\n        /* \"#utility.yul\":12607:12695   */\n      iszero\n      tag_578\n      jumpi\n        /* \"#utility.yul\":12675:12693   */\n      tag_579\n      tag_415\n      jump\t// in\n    tag_579:\n        /* \"#utility.yul\":12607:12695   */\n    tag_578:\n        /* \"#utility.yul\":12715:12725   */\n      dup1\n        /* \"#utility.yul\":12711:12713   */\n      0x40\n        /* \"#utility.yul\":12704:12726   */\n      mstore\n        /* \"#utility.yul\":12494:12732   */\n      pop\n        /* \"#utility.yul\":12451:12732   */\n      pop\n      pop\n      jump\t// out\n        /* \"#utility.yul\":12738:12867   */\n    tag_417:\n        /* \"#utility.yul\":12772:12778   */\n      0x00\n        /* \"#utility.yul\":12799:12819   */\n      tag_581\n      tag_377\n      jump\t// in\n    tag_581:\n        /* \"#utility.yul\":12789:12819   */\n      swap1\n      pop\n        /* \"#utility.yul\":12828:12861   */\n      tag_582\n        /* \"#utility.yul\":12856:12860   */\n      dup3\n        /* \"#utility.yul\":12848:12854   */\n      dup3\n        /* \"#utility.yul\":12828:12861   */\n      tag_416\n      jump\t// in\n    tag_582:\n        /* \"#utility.yul\":12738:12867   */\n      swap2\n      swap1\n      pop\n      jump\t// out\n        /* \"#utility.yul\":12996:13139   */\n    tag_419:\n        /* \"#utility.yul\":13053:13058   */\n      0x00\n        /* \"#utility.yul\":13084:13090   */\n      dup2\n        /* \"#utility.yul\":13078:13091   */\n      mload\n        /* \"#utility.yul\":13069:13091   */\n      swap1\n      pop\n        /* \"#utility.yul\":13100:13133   */\n      tag_585\n        /* \"#utility.yul\":13127:13132   */\n      dup2\n        /* \"#utility.yul\":13100:13133   */\n      tag_391\n      jump\t// in\n    tag_585:\n        /* \"#utility.yul\":12996:13139   */\n      swap3\n      swap2\n      pop\n      pop\n      jump\t// out\n        /* \"#utility.yul\":13145:13288   */\n    tag_420:\n        /* \"#utility.yul\":13202:13207   */\n      0x00\n        /* \"#utility.yul\":13233:13239   */\n      dup2\n        /* \"#utility.yul\":13227:13240   */\n      mload\n        /* \"#utility.yul\":13218:13240   */\n      swap1\n      pop\n        /* \"#utility.yul\":13249:13282   */\n      tag_587\n        /* \"#utility.yul\":13276:13281   */\n      dup2\n        /* \"#utility.yul\":13249:13282   */\n      tag_381\n      jump\t// in\n    tag_587:\n        /* \"#utility.yul\":13145:13288   */\n      swap3\n      swap2\n      pop\n      pop\n      jump\t// out\n        /* \"#utility.yul\":13328:16119   */\n    tag_421:\n        /* \"#utility.yul\":13410:13415   */\n      0x00\n        /* \"#utility.yul\":13454:13460   */\n      0x01c0\n        /* \"#utility.yul\":13442:13451   */\n      dup3\n        /* \"#utility.yul\":13437:13440   */\n      dup5\n        /* \"#utility.yul\":13433:13452   */\n      sub\n        /* \"#utility.yul\":13429:13461   */\n      slt\n        /* \"#utility.yul\":13426:13545   */\n      iszero\n      tag_589\n      jumpi\n        /* \"#utility.yul\":13464:13543   */\n      tag_590\n      tag_413\n      jump\t// in\n    tag_590:\n        /* \"#utility.yul\":13426:13545   */\n    tag_589:\n        /* \"#utility.yul\":13563:13586   */\n      tag_591\n        /* \"#utility.yul\":13579:13585   */\n      0x01c0\n        /* \"#utility.yul\":13563:13586   */\n      tag_417\n      jump\t// in\n    tag_591:\n        /* \"#utility.yul\":13554:13586   */\n      swap1\n      pop\n        /* \"#utility.yul\":13645:13646   */\n      0x00\n        /* \"#utility.yul\":13685:13745   */\n      tag_592\n        /* \"#utility.yul\":13741:13744   */\n      dup5\n        /* \"#utility.yul\":13732:13738   */\n      dup3\n        /* \"#utility.yul\":13721:13730   */\n      dup6\n        /* \"#utility.yul\":13717:13739   */\n      add\n        /* \"#utility.yul\":13685:13745   */\n      tag_419\n      jump\t// in\n    tag_592:\n        /* \"#utility.yul\":13678:13682   */\n      0x00\n        /* \"#utility.yul\":13671:13676   */\n      dup4\n        /* \"#utility.yul\":13667:13683   */\n      add\n        /* \"#utility.yul\":13660:13746   */\n      mstore\n        /* \"#utility.yul\":13596:13757   */\n      pop\n        /* \"#utility.yul\":13821:13823   */\n      0x20\n        /* \"#utility.yul\":13862:13922   */\n      tag_593\n        /* \"#utility.yul\":13918:13921   */\n      dup5\n        /* \"#utility.yul\":13909:13915   */\n      dup3\n        /* \"#utility.yul\":13898:13907   */\n      dup6\n        /* \"#utility.yul\":13894:13916   */\n      add\n        /* \"#utility.yul\":13862:13922   */\n      tag_420\n      jump\t// in\n    tag_593:\n        /* \"#utility.yul\":13855:13859   */\n      0x20\n        /* \"#utility.yul\":13848:13853   */\n      dup4\n        /* \"#utility.yul\":13844:13860   */\n      add\n        /* \"#utility.yul\":13837:13923   */\n      mstore\n        /* \"#utility.yul\":13767:13934   */\n      pop\n        /* \"#utility.yul\":14003:14005   */\n      0x40\n        /* \"#utility.yul\":14044:14104   */\n      tag_594\n        /* \"#utility.yul\":14100:14103   */\n      dup5\n        /* \"#utility.yul\":14091:14097   */\n      dup3\n        /* \"#utility.yul\":14080:14089   */\n      dup6\n        /* \"#utility.yul\":14076:14098   */\n      add\n        /* \"#utility.yul\":14044:14104   */\n      tag_420\n      jump\t// in\n    tag_594:\n        /* \"#utility.yul\":14037:14041   */\n      0x40\n        /* \"#utility.yul\":14030:14035   */\n      dup4\n        /* \"#utility.yul\":14026:14042   */\n      add\n        /* \"#utility.yul\":14019:14105   */\n      mstore\n        /* \"#utility.yul\":13944:14116   */\n      pop\n        /* \"#utility.yul\":14184:14186   */\n      0x60\n        /* \"#utility.yul\":14225:14285   */\n      tag_595\n        /* \"#utility.yul\":14281:14284   */\n      dup5\n        /* \"#utility.yul\":14272:14278   */\n      dup3\n        /* \"#utility.yul\":14261:14270   */\n      dup6\n        /* \"#utility.yul\":14257:14279   */\n      add\n        /* \"#utility.yul\":14225:14285   */\n      tag_420\n      jump\t// in\n    tag_595:\n        /* \"#utility.yul\":14218:14222   */\n      0x60\n        /* \"#utility.yul\":14211:14216   */\n      dup4\n        /* \"#utility.yul\":14207:14223   */\n      add\n        /* \"#utility.yul\":14200:14286   */\n      mstore\n        /* \"#utility.yul\":14126:14297   */\n      pop\n        /* \"#utility.yul\":14370:14373   */\n      0x80\n        /* \"#utility.yul\":14412:14472   */\n      tag_596\n        /* \"#utility.yul\":14468:14471   */\n      dup5\n        /* \"#utility.yul\":14459:14465   */\n      dup3\n        /* \"#utility.yul\":14448:14457   */\n      dup6\n        /* \"#utility.yul\":14444:14466   */\n      add\n        /* \"#utility.yul\":14412:14472   */\n      tag_420\n      jump\t// in\n    tag_596:\n        /* \"#utility.yul\":14405:14409   */\n      0x80\n        /* \"#utility.yul\":14398:14403   */\n      dup4\n        /* \"#utility.yul\":14394:14410   */\n      add\n        /* \"#utility.yul\":14387:14473   */\n      mstore\n        /* \"#utility.yul\":14307:14484   */\n      pop\n        /* \"#utility.yul\":14552:14555   */\n      0xa0\n        /* \"#utility.yul\":14594:14654   */\n      tag_597\n        /* \"#utility.yul\":14650:14653   */\n      dup5\n        /* \"#utility.yul\":14641:14647   */\n      dup3\n        /* \"#utility.yul\":14630:14639   */\n      dup6\n        /* \"#utility.yul\":14626:14648   */\n      add\n        /* \"#utility.yul\":14594:14654   */\n      tag_420\n      jump\t// in\n    tag_597:\n        /* \"#utility.yul\":14587:14591   */\n      0xa0\n        /* \"#utility.yul\":14580:14585   */\n      dup4\n        /* \"#utility.yul\":14576:14592   */\n      add\n        /* \"#utility.yul\":14569:14655   */\n      mstore\n        /* \"#utility.yul\":14494:14666   */\n      pop\n        /* \"#utility.yul\":14728:14731   */\n      0xc0\n        /* \"#utility.yul\":14770:14830   */\n      tag_598\n        /* \"#utility.yul\":14826:14829   */\n      dup5\n        /* \"#utility.yul\":14817:14823   */\n      dup3\n        /* \"#utility.yul\":14806:14815   */\n      dup6\n        /* \"#utility.yul\":14802:14824   */\n      add\n        /* \"#utility.yul\":14770:14830   */\n      tag_420\n      jump\t// in\n    tag_598:\n        /* \"#utility.yul\":14763:14767   */\n      0xc0\n        /* \"#utility.yul\":14756:14761   */\n      dup4\n        /* \"#utility.yul\":14752:14768   */\n      add\n        /* \"#utility.yul\":14745:14831   */\n      mstore\n        /* \"#utility.yul\":14676:14842   */\n      pop\n        /* \"#utility.yul\":14907:14910   */\n      0xe0\n        /* \"#utility.yul\":14949:15009   */\n      tag_599\n        /* \"#utility.yul\":15005:15008   */\n      dup5\n        /* \"#utility.yul\":14996:15002   */\n      dup3\n        /* \"#utility.yul\":14985:14994   */\n      dup6\n        /* \"#utility.yul\":14981:15003   */\n      add\n        /* \"#utility.yul\":14949:15009   */\n      tag_420\n      jump\t// in\n    tag_599:\n        /* \"#utility.yul\":14942:14946   */\n      0xe0\n        /* \"#utility.yul\":14935:14940   */\n      dup4\n        /* \"#utility.yul\":14931:14947   */\n      add\n        /* \"#utility.yul\":14924:15010   */\n      mstore\n        /* \"#utility.yul\":14852:15021   */\n      pop\n        /* \"#utility.yul\":15093:15096   */\n      0x0100\n        /* \"#utility.yul\":15137:15197   */\n      tag_600\n        /* \"#utility.yul\":15193:15196   */\n      dup5\n        /* \"#utility.yul\":15184:15190   */\n      dup3\n        /* \"#utility.yul\":15173:15182   */\n      dup6\n        /* \"#utility.yul\":15169:15191   */\n      add\n        /* \"#utility.yul\":15137:15197   */\n      tag_420\n      jump\t// in\n    tag_600:\n        /* \"#utility.yul\":15128:15134   */\n      0x0100\n        /* \"#utility.yul\":15121:15126   */\n      dup4\n        /* \"#utility.yul\":15117:15135   */\n      add\n        /* \"#utility.yul\":15110:15198   */\n      mstore\n        /* \"#utility.yul\":15031:15209   */\n      pop\n        /* \"#utility.yul\":15284:15287   */\n      0x0120\n        /* \"#utility.yul\":15328:15388   */\n      tag_601\n        /* \"#utility.yul\":15384:15387   */\n      dup5\n        /* \"#utility.yul\":15375:15381   */\n      dup3\n        /* \"#utility.yul\":15364:15373   */\n      dup6\n        /* \"#utility.yul\":15360:15382   */\n      add\n        /* \"#utility.yul\":15328:15388   */\n      tag_420\n      jump\t// in\n    tag_601:\n        /* \"#utility.yul\":15319:15325   */\n      0x0120\n        /* \"#utility.yul\":15312:15317   */\n      dup4\n        /* \"#utility.yul\":15308:15326   */\n      add\n        /* \"#utility.yul\":15301:15389   */\n      mstore\n        /* \"#utility.yul\":15219:15400   */\n      pop\n        /* \"#utility.yul\":15460:15463   */\n      0x0140\n        /* \"#utility.yul\":15504:15564   */\n      tag_602\n        /* \"#utility.yul\":15560:15563   */\n      dup5\n        /* \"#utility.yul\":15551:15557   */\n      dup3\n        /* \"#utility.yul\":15540:15549   */\n      dup6\n        /* \"#utility.yul\":15536:15558   */\n      add\n        /* \"#utility.yul\":15504:15564   */\n      tag_420\n      jump\t// in\n    tag_602:\n        /* \"#utility.yul\":15495:15501   */\n      0x0140\n        /* \"#utility.yul\":15488:15493   */\n      dup4\n        /* \"#utility.yul\":15484:15502   */\n      add\n        /* \"#utility.yul\":15477:15565   */\n      mstore\n        /* \"#utility.yul\":15410:15576   */\n      pop\n        /* \"#utility.yul\":15640:15643   */\n      0x0160\n        /* \"#utility.yul\":15684:15744   */\n      tag_603\n        /* \"#utility.yul\":15740:15743   */\n      dup5\n        /* \"#utility.yul\":15731:15737   */\n      dup3\n        /* \"#utility.yul\":15720:15729   */\n      dup6\n        /* \"#utility.yul\":15716:15738   */\n      add\n        /* \"#utility.yul\":15684:15744   */\n      tag_420\n      jump\t// in\n    tag_603:\n        /* \"#utility.yul\":15675:15681   */\n      0x0160\n        /* \"#utility.yul\":15668:15673   */\n      dup4\n        /* \"#utility.yul\":15664:15682   */\n      add\n        /* \"#utility.yul\":15657:15745   */\n      mstore\n        /* \"#utility.yul\":15586:15756   */\n      pop\n        /* \"#utility.yul\":15816:15819   */\n      0x0180\n        /* \"#utility.yul\":15860:15920   */\n      tag_604\n        /* \"#utility.yul\":15916:15919   */\n      dup5\n        /* \"#utility.yul\":15907:15913   */\n      dup3\n        /* \"#utility.yul\":15896:15905   */\n      dup6\n        /* \"#utility.yul\":15892:15914   */\n      add\n        /* \"#utility.yul\":15860:15920   */\n      tag_420\n      jump\t// in\n    tag_604:\n        /* \"#utility.yul\":15851:15857   */\n      0x0180\n        /* \"#utility.yul\":15844:15849   */\n      dup4\n        /* \"#utility.yul\":15840:15858   */\n      add\n        /* \"#utility.yul\":15833:15921   */\n      mstore\n        /* \"#utility.yul\":15766:15932   */\n      pop\n        /* \"#utility.yul\":15996:15999   */\n      0x01a0\n        /* \"#utility.yul\":16040:16100   */\n      tag_605\n        /* \"#utility.yul\":16096:16099   */\n      dup5\n        /* \"#utility.yul\":16087:16093   */\n      dup3\n        /* \"#utility.yul\":16076:16085   */\n      dup6\n        /* \"#utility.yul\":16072:16094   */\n      add\n        /* \"#utility.yul\":16040:16100   */\n      tag_420\n      jump\t// in\n    tag_605:\n        /* \"#utility.yul\":16031:16037   */\n      0x01a0\n        /* \"#utility.yul\":16024:16029   */\n      dup4\n        /* \"#utility.yul\":16020:16038   */\n      add\n        /* \"#utility.yul\":16013:16101   */\n      mstore\n        /* \"#utility.yul\":15942:16112   */\n      pop\n        /* \"#utility.yul\":13328:16119   */\n      swap3\n      swap2\n      pop\n      pop\n      jump\t// out\n        /* \"#utility.yul\":16125:16521   */\n    tag_169:\n        /* \"#utility.yul\":16217:16223   */\n      0x00\n        /* \"#utility.yul\":16266:16269   */\n      0x01c0\n        /* \"#utility.yul\":16254:16263   */\n      dup3\n        /* \"#utility.yul\":16245:16252   */\n      dup5\n        /* \"#utility.yul\":16241:16264   */\n      sub\n        /* \"#utility.yul\":16237:16270   */\n      slt\n        /* \"#utility.yul\":16234:16354   */\n      iszero\n      tag_607\n      jumpi\n        /* \"#utility.yul\":16273:16352   */\n      tag_608\n      tag_378\n      jump\t// in\n    tag_608:\n        /* \"#utility.yul\":16234:16354   */\n    tag_607:\n        /* \"#utility.yul\":16393:16394   */\n      0x00\n        /* \"#utility.yul\":16418:16504   */\n      tag_609\n        /* \"#utility.yul\":16496:16503   */\n      dup5\n        /* \"#utility.yul\":16487:16493   */\n      dup3\n        /* \"#utility.yul\":16476:16485   */\n      dup6\n        /* \"#utility.yul\":16472:16494   */\n      add\n        /* \"#utility.yul\":16418:16504   */\n      tag_421\n      jump\t// in\n    tag_609:\n        /* \"#utility.yul\":16408:16504   */\n      swap2\n      pop\n        /* \"#utility.yul\":16364:16514   */\n      pop\n        /* \"#utility.yul\":16125:16521   */\n      swap3\n      swap2\n      pop\n      pop\n      jump\t// out\n        /* \"#utility.yul\":16527:16612   */\n    tag_422:\n        /* \"#utility.yul\":16572:16579   */\n      0x00\n        /* \"#utility.yul\":16601:16606   */\n      dup2\n        /* \"#utility.yul\":16590:16606   */\n      swap1\n      pop\n        /* \"#utility.yul\":16527:16612   */\n      swap2\n      swap1\n      pop\n      jump\t// out\n        /* \"#utility.yul\":16618:16776   */\n    tag_423:\n        /* \"#utility.yul\":16676:16685   */\n      0x00\n        /* \"#utility.yul\":16709:16770   */\n      tag_612\n        /* \"#utility.yul\":16727:16769   */\n      tag_613\n        /* \"#utility.yul\":16736:16768   */\n      tag_614\n        /* \"#utility.yul\":16762:16767   */\n      dup5\n        /* \"#utility.yul\":16736:16768   */\n      tag_422\n      jump\t// in\n    tag_614:\n        /* \"#utility.yul\":16727:16769   */\n      tag_385\n      jump\t// in\n    tag_613:\n        /* \"#utility.yul\":16709:16770   */\n      tag_380\n      jump\t// in\n    tag_612:\n        /* \"#utility.yul\":16696:16770   */\n      swap1\n      pop\n        /* \"#utility.yul\":16618:16776   */\n      swap2\n      swap1\n      pop\n      jump\t// out\n        /* \"#utility.yul\":16782:16929   */\n    tag_424:\n        /* \"#utility.yul\":16877:16922   */\n      tag_616\n        /* \"#utility.yul\":16916:16921   */\n      dup2\n        /* \"#utility.yul\":16877:16922   */\n      tag_423\n      jump\t// in\n    tag_616:\n        /* \"#utility.yul\":16872:16875   */\n      dup3\n        /* \"#utility.yul\":16865:16923   */\n      mstore\n        /* \"#utility.yul\":16782:16929   */\n      pop\n      pop\n      jump\t// out\n        /* \"#utility.yul\":16935:17504   */\n    tag_171:\n        /* \"#utility.yul\":17120:17124   */\n      0x00\n        /* \"#utility.yul\":17158:17161   */\n      0x80\n        /* \"#utility.yul\":17147:17156   */\n      dup3\n        /* \"#utility.yul\":17143:17162   */\n      add\n        /* \"#utility.yul\":17135:17162   */\n      swap1\n      pop\n        /* \"#utility.yul\":17172:17243   */\n      tag_618\n        /* \"#utility.yul\":17240:17241   */\n      0x00\n        /* \"#utility.yul\":17229:17238   */\n      dup4\n        /* \"#utility.yul\":17225:17242   */\n      add\n        /* \"#utility.yul\":17216:17222   */\n      dup8\n        /* \"#utility.yul\":17172:17243   */\n      tag_383\n      jump\t// in\n    tag_618:\n        /* \"#utility.yul\":17253:17325   */\n      tag_619\n        /* \"#utility.yul\":17321:17323   */\n      0x20\n        /* \"#utility.yul\":17310:17319   */\n      dup4\n        /* \"#utility.yul\":17306:17324   */\n      add\n        /* \"#utility.yul\":17297:17303   */\n      dup7\n        /* \"#utility.yul\":17253:17325   */\n      tag_383\n      jump\t// in\n    tag_619:\n        /* \"#utility.yul\":17335:17407   */\n      tag_620\n        /* \"#utility.yul\":17403:17405   */\n      0x40\n        /* \"#utility.yul\":17392:17401   */\n      dup4\n        /* \"#utility.yul\":17388:17406   */\n      add\n        /* \"#utility.yul\":17379:17385   */\n      dup6\n        /* \"#utility.yul\":17335:17407   */\n      tag_383\n      jump\t// in\n    tag_620:\n        /* \"#utility.yul\":17417:17497   */\n      tag_621\n        /* \"#utility.yul\":17493:17495   */\n      0x60\n        /* \"#utility.yul\":17482:17491   */\n      dup4\n        /* \"#utility.yul\":17478:17496   */\n      add\n        /* \"#utility.yul\":17469:17475   */\n      dup5\n        /* \"#utility.yul\":17417:17497   */\n      tag_424\n      jump\t// in\n    tag_621:\n        /* \"#utility.yul\":16935:17504   */\n      swap6\n      swap5\n      pop\n      pop\n      pop\n      pop\n      pop\n      jump\t// out\n        /* \"#utility.yul\":17510:17690   */\n    tag_425:\n        /* \"#utility.yul\":17558:17635   */\n      0x4e487b7100000000000000000000000000000000000000000000000000000000\n        /* \"#utility.yul\":17555:17556   */\n      0x00\n        /* \"#utility.yul\":17548:17636   */\n      mstore\n        /* \"#utility.yul\":17655:17659   */\n      0x11\n        /* \"#utility.yul\":17652:17653   */\n      0x04\n        /* \"#utility.yul\":17645:17660   */\n      mstore\n        /* \"#utility.yul\":17679:17683   */\n      0x24\n        /* \"#utility.yul\":17676:17677   */\n      0x00\n        /* \"#utility.yul\":17669:17684   */\n      revert\n        /* \"#utility.yul\":17696:17890   */\n    tag_180:\n        /* \"#utility.yul\":17736:17740   */\n      0x00\n        /* \"#utility.yul\":17756:17776   */\n      tag_624\n        /* \"#utility.yul\":17774:17775   */\n      dup3\n        /* \"#utility.yul\":17756:17776   */\n      tag_380\n      jump\t// in\n    tag_624:\n        /* \"#utility.yul\":17751:17776   */\n      swap2\n      pop\n        /* \"#utility.yul\":17790:17810   */\n      tag_625\n        /* \"#utility.yul\":17808:17809   */\n      dup4\n        /* \"#utility.yul\":17790:17810   */\n      tag_380\n      jump\t// in\n    tag_625:\n        /* \"#utility.yul\":17785:17810   */\n      swap3\n      pop\n        /* \"#utility.yul\":17834:17835   */\n      dup3\n        /* \"#utility.yul\":17831:17832   */\n      dup3\n        /* \"#utility.yul\":17827:17836   */\n      sub\n        /* \"#utility.yul\":17819:17836   */\n      swap1\n      pop\n        /* \"#utility.yul\":17858:17859   */\n      dup2\n        /* \"#utility.yul\":17852:17856   */\n      dup2\n        /* \"#utility.yul\":17849:17860   */\n      gt\n        /* \"#utility.yul\":17846:17883   */\n      iszero\n      tag_626\n      jumpi\n        /* \"#utility.yul\":17863:17881   */\n      tag_627\n      tag_425\n      jump\t// in\n    tag_627:\n        /* \"#utility.yul\":17846:17883   */\n    tag_626:\n        /* \"#utility.yul\":17696:17890   */\n      swap3\n      swap2\n      pop\n      pop\n      jump\t// out\n        /* \"#utility.yul\":17896:18064   */\n    tag_426:\n        /* \"#utility.yul\":18036:18056   */\n      0x6e6f206c69717569646974792061646465640000000000000000000000000000\n        /* \"#utility.yul\":18032:18033   */\n      0x00\n        /* \"#utility.yul\":18024:18030   */\n      dup3\n        /* \"#utility.yul\":18020:18034   */\n      add\n        /* \"#utility.yul\":18013:18057   */\n      mstore\n        /* \"#utility.yul\":17896:18064   */\n      pop\n      jump\t// out\n        /* \"#utility.yul\":18070:18436   */\n    tag_427:\n        /* \"#utility.yul\":18212:18215   */\n      0x00\n        /* \"#utility.yul\":18233:18300   */\n      tag_630\n        /* \"#utility.yul\":18297:18299   */\n      0x12\n        /* \"#utility.yul\":18292:18295   */\n      dup4\n        /* \"#utility.yul\":18233:18300   */\n      tag_406\n      jump\t// in\n    tag_630:\n        /* \"#utility.yul\":18226:18300   */\n      swap2\n      pop\n        /* \"#utility.yul\":18309:18402   */\n      tag_631\n        /* \"#utility.yul\":18398:18401   */\n      dup3\n        /* \"#utility.yul\":18309:18402   */\n      tag_426\n      jump\t// in\n    tag_631:\n        /* \"#utility.yul\":18427:18429   */\n      0x20\n        /* \"#utility.yul\":18422:18425   */\n      dup3\n        /* \"#utility.yul\":18418:18430   */\n      add\n        /* \"#utility.yul\":18411:18430   */\n      swap1\n      pop\n        /* \"#utility.yul\":18070:18436   */\n      swap2\n      swap1\n      pop\n      jump\t// out\n        /* \"#utility.yul\":18442:18861   */\n    tag_183:\n        /* \"#utility.yul\":18608:18612   */\n      0x00\n        /* \"#utility.yul\":18646:18648   */\n      0x20\n        /* \"#utility.yul\":18635:18644   */\n      dup3\n        /* \"#utility.yul\":18631:18649   */\n      add\n        /* \"#utility.yul\":18623:18649   */\n      swap1\n      pop\n        /* \"#utility.yul\":18695:18704   */\n      dup2\n        /* \"#utility.yul\":18689:18693   */\n      dup2\n        /* \"#utility.yul\":18685:18705   */\n      sub\n        /* \"#utility.yul\":18681:18682   */\n      0x00\n        /* \"#utility.yul\":18670:18679   */\n      dup4\n        /* \"#utility.yul\":18666:18683   */\n      add\n        /* \"#utility.yul\":18659:18706   */\n      mstore\n        /* \"#utility.yul\":18723:18854   */\n      tag_633\n        /* \"#utility.yul\":18849:18853   */\n      dup2\n        /* \"#utility.yul\":18723:18854   */\n      tag_427\n      jump\t// in\n    tag_633:\n        /* \"#utility.yul\":18715:18854   */\n      swap1\n      pop\n        /* \"#utility.yul\":18442:18861   */\n      swap2\n      swap1\n      pop\n      jump\t// out\n        /* \"#utility.yul\":18867:19058   */\n    tag_185:\n        /* \"#utility.yul\":18907:18910   */\n      0x00\n        /* \"#utility.yul\":18926:18946   */\n      tag_635\n        /* \"#utility.yul\":18944:18945   */\n      dup3\n        /* \"#utility.yul\":18926:18946   */\n      tag_380\n      jump\t// in\n    tag_635:\n        /* \"#utility.yul\":18921:18946   */\n      swap2\n      pop\n        /* \"#utility.yul\":18960:18980   */\n      tag_636\n        /* \"#utility.yul\":18978:18979   */\n      dup4\n        /* \"#utility.yul\":18960:18980   */\n      tag_380\n      jump\t// in\n    tag_636:\n        /* \"#utility.yul\":18955:18980   */\n      swap3\n      pop\n        /* \"#utility.yul\":19003:19004   */\n      dup3\n        /* \"#utility.yul\":19000:19001   */\n      dup3\n        /* \"#utility.yul\":18996:19005   */\n      add\n        /* \"#utility.yul\":18989:19005   */\n      swap1\n      pop\n        /* \"#utility.yul\":19024:19027   */\n      dup1\n        /* \"#utility.yul\":19021:19022   */\n      dup3\n        /* \"#utility.yul\":19018:19028   */\n      gt\n        /* \"#utility.yul\":19015:19051   */\n      iszero\n      tag_637\n      jumpi\n        /* \"#utility.yul\":19031:19049   */\n      tag_638\n      tag_425\n      jump\t// in\n    tag_638:\n        /* \"#utility.yul\":19015:19051   */\n    tag_637:\n        /* \"#utility.yul\":18867:19058   */\n      swap3\n      swap2\n      pop\n      pop\n      jump\t// out\n        /* \"#utility.yul\":19064:19474   */\n    tag_190:\n        /* \"#utility.yul\":19104:19111   */\n      0x00\n        /* \"#utility.yul\":19127:19147   */\n      tag_640\n        /* \"#utility.yul\":19145:19146   */\n      dup3\n        /* \"#utility.yul\":19127:19147   */\n      tag_380\n      jump\t// in\n    tag_640:\n        /* \"#utility.yul\":19122:19147   */\n      swap2\n      pop\n        /* \"#utility.yul\":19161:19181   */\n      tag_641\n        /* \"#utility.yul\":19179:19180   */\n      dup4\n        /* \"#utility.yul\":19161:19181   */\n      tag_380\n      jump\t// in\n    tag_641:\n        /* \"#utility.yul\":19156:19181   */\n      swap3\n      pop\n        /* \"#utility.yul\":19216:19217   */\n      dup3\n        /* \"#utility.yul\":19213:19214   */\n      dup3\n        /* \"#utility.yul\":19209:19218   */\n      mul\n        /* \"#utility.yul\":19238:19268   */\n      tag_642\n        /* \"#utility.yul\":19256:19267   */\n      dup2\n        /* \"#utility.yul\":19238:19268   */\n      tag_380\n      jump\t// in\n    tag_642:\n        /* \"#utility.yul\":19227:19268   */\n      swap2\n      pop\n        /* \"#utility.yul\":19417:19418   */\n      dup3\n        /* \"#utility.yul\":19408:19415   */\n      dup3\n        /* \"#utility.yul\":19404:19419   */\n      div\n        /* \"#utility.yul\":19401:19402   */\n      dup5\n        /* \"#utility.yul\":19398:19420   */\n      eq\n        /* \"#utility.yul\":19378:19379   */\n      dup4\n        /* \"#utility.yul\":19371:19380   */\n      iszero\n        /* \"#utility.yul\":19351:19434   */\n      or\n        /* \"#utility.yul\":19328:19467   */\n      tag_643\n      jumpi\n        /* \"#utility.yul\":19447:19465   */\n      tag_644\n      tag_425\n      jump\t// in\n    tag_644:\n        /* \"#utility.yul\":19328:19467   */\n    tag_643:\n        /* \"#utility.yul\":19112:19474   */\n      pop\n        /* \"#utility.yul\":19064:19474   */\n      swap3\n      swap2\n      pop\n      pop\n      jump\t// out\n        /* \"#utility.yul\":19480:19660   */\n    tag_428:\n        /* \"#utility.yul\":19528:19605   */\n      0x4e487b7100000000000000000000000000000000000000000000000000000000\n        /* \"#utility.yul\":19525:19526   */\n      0x00\n        /* \"#utility.yul\":19518:19606   */\n      mstore\n        /* \"#utility.yul\":19625:19629   */\n      0x12\n        /* \"#utility.yul\":19622:19623   */\n      0x04\n        /* \"#utility.yul\":19615:19630   */\n      mstore\n        /* \"#utility.yul\":19649:19653   */\n      0x24\n        /* \"#utility.yul\":19646:19647   */\n      0x00\n        /* \"#utility.yul\":19639:19654   */\n      revert\n        /* \"#utility.yul\":19666:19851   */\n    tag_192:\n        /* \"#utility.yul\":19706:19707   */\n      0x00\n        /* \"#utility.yul\":19723:19743   */\n      tag_647\n        /* \"#utility.yul\":19741:19742   */\n      dup3\n        /* \"#utility.yul\":19723:19743   */\n      tag_380\n      jump\t// in\n    tag_647:\n        /* \"#utility.yul\":19718:19743   */\n      swap2\n      pop\n        /* \"#utility.yul\":19757:19777   */\n      tag_648\n        /* \"#utility.yul\":19775:19776   */\n      dup4\n        /* \"#utility.yul\":19757:19777   */\n      tag_380\n      jump\t// in\n    tag_648:\n        /* \"#utility.yul\":19752:19777   */\n      swap3\n      pop\n        /* \"#utility.yul\":19796:19797   */\n      dup3\n        /* \"#utility.yul\":19786:19821   */\n      tag_649\n      jumpi\n        /* \"#utility.yul\":19801:19819   */\n      tag_650\n      tag_428\n      jump\t// in\n    tag_650:\n        /* \"#utility.yul\":19786:19821   */\n    tag_649:\n        /* \"#utility.yul\":19843:19844   */\n      dup3\n        /* \"#utility.yul\":19840:19841   */\n      dup3\n        /* \"#utility.yul\":19836:19845   */\n      div\n        /* \"#utility.yul\":19831:19845   */\n      swap1\n      pop\n        /* \"#utility.yul\":19666:19851   */\n      swap3\n      swap2\n      pop\n      pop\n      jump\t// out\n        /* \"#utility.yul\":19857:20521   */\n    tag_194:\n        /* \"#utility.yul\":20062:20066   */\n      0x00\n        /* \"#utility.yul\":20100:20103   */\n      0xa0\n        /* \"#utility.yul\":20089:20098   */\n      dup3\n        /* \"#utility.yul\":20085:20104   */\n      add\n        /* \"#utility.yul\":20077:20104   */\n      swap1\n      pop\n        /* \"#utility.yul\":20114:20185   */\n      tag_652\n        /* \"#utility.yul\":20182:20183   */\n      0x00\n        /* \"#utility.yul\":20171:20180   */\n      dup4\n        /* \"#utility.yul\":20167:20184   */\n      add\n        /* \"#utility.yul\":20158:20164   */\n      dup9\n        /* \"#utility.yul\":20114:20185   */\n      tag_383\n      jump\t// in\n    tag_652:\n        /* \"#utility.yul\":20195:20267   */\n      tag_653\n        /* \"#utility.yul\":20263:20265   */\n      0x20\n        /* \"#utility.yul\":20252:20261   */\n      dup4\n        /* \"#utility.yul\":20248:20266   */\n      add\n        /* \"#utility.yul\":20239:20245   */\n      dup8\n        /* \"#utility.yul\":20195:20267   */\n      tag_383\n      jump\t// in\n    tag_653:\n        /* \"#utility.yul\":20277:20349   */\n      tag_654\n        /* \"#utility.yul\":20345:20347   */\n      0x40\n        /* \"#utility.yul\":20334:20343   */\n      dup4\n        /* \"#utility.yul\":20330:20348   */\n      add\n        /* \"#utility.yul\":20321:20327   */\n      dup7\n        /* \"#utility.yul\":20277:20349   */\n      tag_383\n      jump\t// in\n    tag_654:\n        /* \"#utility.yul\":20359:20431   */\n      tag_655\n        /* \"#utility.yul\":20427:20429   */\n      0x60\n        /* \"#utility.yul\":20416:20425   */\n      dup4\n        /* \"#utility.yul\":20412:20430   */\n      add\n        /* \"#utility.yul\":20403:20409   */\n      dup6\n        /* \"#utility.yul\":20359:20431   */\n      tag_383\n      jump\t// in\n    tag_655:\n        /* \"#utility.yul\":20441:20514   */\n      tag_656\n        /* \"#utility.yul\":20509:20512   */\n      0x80\n        /* \"#utility.yul\":20498:20507   */\n      dup4\n        /* \"#utility.yul\":20494:20513   */\n      add\n        /* \"#utility.yul\":20485:20491   */\n      dup5\n        /* \"#utility.yul\":20441:20514   */\n      tag_383\n      jump\t// in\n    tag_656:\n        /* \"#utility.yul\":19857:20521   */\n      swap7\n      swap6\n      pop\n      pop\n      pop\n      pop\n      pop\n      pop\n      jump\t// out\n        /* \"#utility.yul\":20527:20689   */\n    tag_429:\n        /* \"#utility.yul\":20667:20681   */\n      0x6e6f206c69717569646974790000000000000000000000000000000000000000\n        /* \"#utility.yul\":20663:20664   */\n      0x00\n        /* \"#utility.yul\":20655:20661   */\n      dup3\n        /* \"#utility.yul\":20651:20665   */\n      add\n        /* \"#utility.yul\":20644:20682   */\n      mstore\n        /* \"#utility.yul\":20527:20689   */\n      pop\n      jump\t// out\n        /* \"#utility.yul\":20695:21061   */\n    tag_430:\n        /* \"#utility.yul\":20837:20840   */\n      0x00\n        /* \"#utility.yul\":20858:20925   */\n      tag_659\n        /* \"#utility.yul\":20922:20924   */\n      0x0c\n        /* \"#utility.yul\":20917:20920   */\n      dup4\n        /* \"#utility.yul\":20858:20925   */\n      tag_406\n      jump\t// in\n    tag_659:\n        /* \"#utility.yul\":20851:20925   */\n      swap2\n      pop\n        /* \"#utility.yul\":20934:21027   */\n      tag_660\n        /* \"#utility.yul\":21023:21026   */\n      dup3\n        /* \"#utility.yul\":20934:21027   */\n      tag_429\n      jump\t// in\n    tag_660:\n        /* \"#utility.yul\":21052:21054   */\n      0x20\n        /* \"#utility.yul\":21047:21050   */\n      dup3\n        /* \"#utility.yul\":21043:21055   */\n      add\n        /* \"#utility.yul\":21036:21055   */\n      swap1\n      pop\n        /* \"#utility.yul\":20695:21061   */\n      swap2\n      swap1\n      pop\n      jump\t// out\n        /* \"#utility.yul\":21067:21486   */\n    tag_207:\n        /* \"#utility.yul\":21233:21237   */\n      0x00\n        /* \"#utility.yul\":21271:21273   */\n      0x20\n        /* \"#utility.yul\":21260:21269   */\n      dup3\n        /* \"#utility.yul\":21256:21274   */\n      add\n        /* \"#utility.yul\":21248:21274   */\n      swap1\n      pop\n        /* \"#utility.yul\":21320:21329   */\n      dup2\n        /* \"#utility.yul\":21314:21318   */\n      dup2\n        /* \"#utility.yul\":21310:21330   */\n      sub\n        /* \"#utility.yul\":21306:21307   */\n      0x00\n        /* \"#utility.yul\":21295:21304   */\n      dup4\n        /* \"#utility.yul\":21291:21308   */\n      add\n        /* \"#utility.yul\":21284:21331   */\n      mstore\n        /* \"#utility.yul\":21348:21479   */\n      tag_662\n        /* \"#utility.yul\":21474:21478   */\n      dup2\n        /* \"#utility.yul\":21348:21479   */\n      tag_430\n      jump\t// in\n    tag_662:\n        /* \"#utility.yul\":21340:21479   */\n      swap1\n      pop\n        /* \"#utility.yul\":21067:21486   */\n      swap2\n      swap1\n      pop\n      jump\t// out\n        /* \"#utility.yul\":21492:21843   */\n    tag_212:\n        /* \"#utility.yul\":21562:21568   */\n      0x00\n        /* \"#utility.yul\":21611:21613   */\n      0x20\n        /* \"#utility.yul\":21599:21608   */\n      dup3\n        /* \"#utility.yul\":21590:21597   */\n      dup5\n        /* \"#utility.yul\":21586:21609   */\n      sub\n        /* \"#utility.yul\":21582:21614   */\n      slt\n        /* \"#utility.yul\":21579:21698   */\n      iszero\n      tag_664\n      jumpi\n        /* \"#utility.yul\":21617:21696   */\n      tag_665\n      tag_378\n      jump\t// in\n    tag_665:\n        /* \"#utility.yul\":21579:21698   */\n    tag_664:\n        /* \"#utility.yul\":21737:21738   */\n      0x00\n        /* \"#utility.yul\":21762:21826   */\n      tag_666\n        /* \"#utility.yul\":21818:21825   */\n      dup5\n        /* \"#utility.yul\":21809:21815   */\n      dup3\n        /* \"#utility.yul\":21798:21807   */\n      dup6\n        /* \"#utility.yul\":21794:21816   */\n      add\n        /* \"#utility.yul\":21762:21826   */\n      tag_420\n      jump\t// in\n    tag_666:\n        /* \"#utility.yul\":21752:21826   */\n      swap2\n      pop\n        /* \"#utility.yul\":21708:21836   */\n      pop\n        /* \"#utility.yul\":21492:21843   */\n      swap3\n      swap2\n      pop\n      pop\n      jump\t// out\n        /* \"#utility.yul\":21849:22295   */\n    tag_214:\n        /* \"#utility.yul\":22000:22004   */\n      0x00\n        /* \"#utility.yul\":22038:22040   */\n      0x60\n        /* \"#utility.yul\":22027:22036   */\n      dup3\n        /* \"#utility.yul\":22023:22041   */\n      add\n        /* \"#utility.yul\":22015:22041   */\n      swap1\n      pop\n        /* \"#utility.yul\":22051:22122   */\n      tag_668\n        /* \"#utility.yul\":22119:22120   */\n      0x00\n        /* \"#utility.yul\":22108:22117   */\n      dup4\n        /* \"#utility.yul\":22104:22121   */\n      add\n        /* \"#utility.yul\":22095:22101   */\n      dup7\n        /* \"#utility.yul\":22051:22122   */\n      tag_383\n      jump\t// in\n    tag_668:\n        /* \"#utility.yul\":22132:22212   */\n      tag_669\n        /* \"#utility.yul\":22208:22210   */\n      0x20\n        /* \"#utility.yul\":22197:22206   */\n      dup4\n        /* \"#utility.yul\":22193:22211   */\n      add\n        /* \"#utility.yul\":22184:22190   */\n      dup6\n        /* \"#utility.yul\":22132:22212   */\n      tag_424\n      jump\t// in\n    tag_669:\n        /* \"#utility.yul\":22222:22288   */\n      tag_670\n        /* \"#utility.yul\":22284:22286   */\n      0x40\n        /* \"#utility.yul\":22273:22282   */\n      dup4\n        /* \"#utility.yul\":22269:22287   */\n      add\n        /* \"#utility.yul\":22260:22266   */\n      dup5\n        /* \"#utility.yul\":22222:22288   */\n      tag_403\n      jump\t// in\n    tag_670:\n        /* \"#utility.yul\":21849:22295   */\n      swap5\n      swap4\n      pop\n      pop\n      pop\n      pop\n      jump\t// out\n        /* \"#utility.yul\":22301:22468   */\n    tag_431:\n        /* \"#utility.yul\":22441:22460   */\n      0x6e6f7468696e6720686172766573746564000000000000000000000000000000\n        /* \"#utility.yul\":22437:22438   */\n      0x00\n        /* \"#utility.yul\":22429:22435   */\n      dup3\n        /* \"#utility.yul\":22425:22439   */\n      add\n        /* \"#utility.yul\":22418:22461   */\n      mstore\n        /* \"#utility.yul\":22301:22468   */\n      pop\n      jump\t// out\n        /* \"#utility.yul\":22474:22840   */\n    tag_432:\n        /* \"#utility.yul\":22616:22619   */\n      0x00\n        /* \"#utility.yul\":22637:22704   */\n      tag_673\n        /* \"#utility.yul\":22701:22703   */\n      0x11\n        /* \"#utility.yul\":22696:22699   */\n      dup4\n        /* \"#utility.yul\":22637:22704   */\n      tag_406\n      jump\t// in\n    tag_673:\n        /* \"#utility.yul\":22630:22704   */\n      swap2\n      pop\n        /* \"#utility.yul\":22713:22806   */\n      tag_674\n        /* \"#utility.yul\":22802:22805   */\n      dup3\n        /* \"#utility.yul\":22713:22806   */\n      tag_431\n      jump\t// in\n    tag_674:\n        /* \"#utility.yul\":22831:22833   */\n      0x20\n        /* \"#utility.yul\":22826:22829   */\n      dup3\n        /* \"#utility.yul\":22822:22834   */\n      add\n        /* \"#utility.yul\":22815:22834   */\n      swap1\n      pop\n        /* \"#utility.yul\":22474:22840   */\n      swap2\n      swap1\n      pop\n      jump\t// out\n        /* \"#utility.yul\":22846:23265   */\n    tag_225:\n        /* \"#utility.yul\":23012:23016   */\n      0x00\n        /* \"#utility.yul\":23050:23052   */\n      0x20\n        /* \"#utility.yul\":23039:23048   */\n      dup3\n        /* \"#utility.yul\":23035:23053   */\n      add\n        /* \"#utility.yul\":23027:23053   */\n      swap1\n      pop\n        /* \"#utility.yul\":23099:23108   */\n      dup2\n        /* \"#utility.yul\":23093:23097   */\n      dup2\n        /* \"#utility.yul\":23089:23109   */\n      sub\n        /* \"#utility.yul\":23085:23086   */\n      0x00\n        /* \"#utility.yul\":23074:23083   */\n      dup4\n        /* \"#utility.yul\":23070:23087   */\n      add\n        /* \"#utility.yul\":23063:23110   */\n      mstore\n        /* \"#utility.yul\":23127:23258   */\n      tag_676\n        /* \"#utility.yul\":23253:23257   */\n      dup2\n        /* \"#utility.yul\":23127:23258   */\n      tag_432\n      jump\t// in\n    tag_676:\n        /* \"#utility.yul\":23119:23258   */\n      swap1\n      pop\n        /* \"#utility.yul\":22846:23265   */\n      swap2\n      swap1\n      pop\n      jump\t// out\n        /* \"#utility.yul\":23271:23455   */\n    tag_433:\n        /* \"#utility.yul\":23370:23381   */\n      0x00\n        /* \"#utility.yul\":23404:23410   */\n      dup3\n        /* \"#utility.yul\":23399:23402   */\n      dup3\n        /* \"#utility.yul\":23392:23411   */\n      mstore\n        /* \"#utility.yul\":23444:23448   */\n      0x20\n        /* \"#utility.yul\":23439:23442   */\n      dup3\n        /* \"#utility.yul\":23435:23449   */\n      add\n        /* \"#utility.yul\":23420:23449   */\n      swap1\n      pop\n        /* \"#utility.yul\":23271:23455   */\n      swap3\n      swap2\n      pop\n      pop\n      jump\t// out\n        /* \"#utility.yul\":23461:23563   */\n    tag_434:\n        /* \"#utility.yul\":23530:23534   */\n      0x00\n        /* \"#utility.yul\":23553:23556   */\n      dup2\n        /* \"#utility.yul\":23545:23556   */\n      swap1\n      pop\n        /* \"#utility.yul\":23461:23563   */\n      swap2\n      swap1\n      pop\n      jump\t// out\n        /* \"#utility.yul\":23569:23677   */\n    tag_435:\n        /* \"#utility.yul\":23646:23670   */\n      tag_680\n        /* \"#utility.yul\":23664:23669   */\n      dup2\n        /* \"#utility.yul\":23646:23670   */\n      tag_390\n      jump\t// in\n    tag_680:\n        /* \"#utility.yul\":23641:23644   */\n      dup3\n        /* \"#utility.yul\":23634:23671   */\n      mstore\n        /* \"#utility.yul\":23569:23677   */\n      pop\n      pop\n      jump\t// out\n        /* \"#utility.yul\":23683:23862   */\n    tag_436:\n        /* \"#utility.yul\":23752:23762   */\n      0x00\n        /* \"#utility.yul\":23773:23819   */\n      tag_682\n        /* \"#utility.yul\":23815:23818   */\n      dup4\n        /* \"#utility.yul\":23807:23813   */\n      dup4\n        /* \"#utility.yul\":23773:23819   */\n      tag_435\n      jump\t// in\n    tag_682:\n        /* \"#utility.yul\":23851:23855   */\n      0x20\n        /* \"#utility.yul\":23846:23849   */\n      dup4\n        /* \"#utility.yul\":23842:23856   */\n      add\n        /* \"#utility.yul\":23828:23856   */\n      swap1\n      pop\n        /* \"#utility.yul\":23683:23862   */\n      swap3\n      swap2\n      pop\n      pop\n      jump\t// out\n        /* \"#utility.yul\":23868:23990   */\n    tag_437:\n        /* \"#utility.yul\":23920:23925   */\n      0x00\n        /* \"#utility.yul\":23945:23984   */\n      tag_684\n        /* \"#utility.yul\":23980:23982   */\n      0x20\n        /* \"#utility.yul\":23975:23978   */\n      dup5\n        /* \"#utility.yul\":23971:23983   */\n      add\n        /* \"#utility.yul\":23966:23969   */\n      dup5\n        /* \"#utility.yul\":23945:23984   */\n      tag_392\n      jump\t// in\n    tag_684:\n        /* \"#utility.yul\":23936:23984   */\n      swap1\n      pop\n        /* \"#utility.yul\":23868:23990   */\n      swap3\n      swap2\n      pop\n      pop\n      jump\t// out\n        /* \"#utility.yul\":23996:24111   */\n    tag_438:\n        /* \"#utility.yul\":24068:24072   */\n      0x00\n        /* \"#utility.yul\":24100:24104   */\n      0x20\n        /* \"#utility.yul\":24095:24098   */\n      dup3\n        /* \"#utility.yul\":24091:24105   */\n      add\n        /* \"#utility.yul\":24083:24105   */\n      swap1\n      pop\n        /* \"#utility.yul\":23996:24111   */\n      swap2\n      swap1\n      pop\n      jump\t// out\n        /* \"#utility.yul\":24147:24846   */\n    tag_439:\n        /* \"#utility.yul\":24276:24279   */\n      0x00\n        /* \"#utility.yul\":24299:24385   */\n      tag_687\n        /* \"#utility.yul\":24378:24384   */\n      dup4\n        /* \"#utility.yul\":24373:24376   */\n      dup6\n        /* \"#utility.yul\":24299:24385   */\n      tag_433\n      jump\t// in\n    tag_687:\n        /* \"#utility.yul\":24292:24385   */\n      swap4\n      pop\n        /* \"#utility.yul\":24409:24467   */\n      tag_688\n        /* \"#utility.yul\":24461:24466   */\n      dup3\n        /* \"#utility.yul\":24409:24467   */\n      tag_434\n      jump\t// in\n    tag_688:\n        /* \"#utility.yul\":24490:24497   */\n      dup1\n        /* \"#utility.yul\":24521:24522   */\n      0x00\n        /* \"#utility.yul\":24506:24821   */\n    tag_689:\n        /* \"#utility.yul\":24531:24537   */\n      dup6\n        /* \"#utility.yul\":24528:24529   */\n      dup2\n        /* \"#utility.yul\":24525:24538   */\n      lt\n        /* \"#utility.yul\":24506:24821   */\n      iszero\n      tag_691\n      jumpi\n        /* \"#utility.yul\":24601:24643   */\n      tag_692\n        /* \"#utility.yul\":24636:24642   */\n      dup3\n        /* \"#utility.yul\":24627:24634   */\n      dup5\n        /* \"#utility.yul\":24601:24643   */\n      tag_437\n      jump\t// in\n    tag_692:\n        /* \"#utility.yul\":24663:24726   */\n      tag_693\n        /* \"#utility.yul\":24722:24725   */\n      dup9\n        /* \"#utility.yul\":24707:24720   */\n      dup3\n        /* \"#utility.yul\":24663:24726   */\n      tag_436\n      jump\t// in\n    tag_693:\n        /* \"#utility.yul\":24656:24726   */\n      swap8\n      pop\n        /* \"#utility.yul\":24749:24811   */\n      tag_694\n        /* \"#utility.yul\":24804:24810   */\n      dup4\n        /* \"#utility.yul\":24749:24811   */\n      tag_438\n      jump\t// in\n    tag_694:\n        /* \"#utility.yul\":24739:24811   */\n      swap3\n      pop\n        /* \"#utility.yul\":24566:24821   */\n      pop\n        /* \"#utility.yul\":24553:24554   */\n      0x01\n        /* \"#utility.yul\":24550:24551   */\n      dup2\n        /* \"#utility.yul\":24546:24555   */\n      add\n        /* \"#utility.yul\":24541:24555   */\n      swap1\n      pop\n        /* \"#utility.yul\":24506:24821   */\n      jump(tag_689)\n    tag_691:\n        /* \"#utility.yul\":24510:24524   */\n      pop\n        /* \"#utility.yul\":24837:24840   */\n      dup6\n        /* \"#utility.yul\":24830:24840   */\n      swap3\n      pop\n        /* \"#utility.yul\":24281:24846   */\n      pop\n      pop\n        /* \"#utility.yul\":24147:24846   */\n      swap4\n      swap3\n      pop\n      pop\n      pop\n      jump\t// out\n        /* \"#utility.yul\":24852:25687   */\n    tag_232:\n        /* \"#utility.yul\":25117:25121   */\n      0x00\n        /* \"#utility.yul\":25155:25158   */\n      0xa0\n        /* \"#utility.yul\":25144:25153   */\n      dup3\n        /* \"#utility.yul\":25140:25159   */\n      add\n        /* \"#utility.yul\":25132:25159   */\n      swap1\n      pop\n        /* \"#utility.yul\":25169:25240   */\n      tag_696\n        /* \"#utility.yul\":25237:25238   */\n      0x00\n        /* \"#utility.yul\":25226:25235   */\n      dup4\n        /* \"#utility.yul\":25222:25239   */\n      add\n        /* \"#utility.yul\":25213:25219   */\n      dup10\n        /* \"#utility.yul\":25169:25240   */\n      tag_383\n      jump\t// in\n    tag_696:\n        /* \"#utility.yul\":25250:25322   */\n      tag_697\n        /* \"#utility.yul\":25318:25320   */\n      0x20\n        /* \"#utility.yul\":25307:25316   */\n      dup4\n        /* \"#utility.yul\":25303:25321   */\n      add\n        /* \"#utility.yul\":25294:25300   */\n      dup9\n        /* \"#utility.yul\":25250:25322   */\n      tag_383\n      jump\t// in\n    tag_697:\n        /* \"#utility.yul\":25369:25378   */\n      dup2\n        /* \"#utility.yul\":25363:25367   */\n      dup2\n        /* \"#utility.yul\":25359:25379   */\n      sub\n        /* \"#utility.yul\":25354:25356   */\n      0x40\n        /* \"#utility.yul\":25343:25352   */\n      dup4\n        /* \"#utility.yul\":25339:25357   */\n      add\n        /* \"#utility.yul\":25332:25380   */\n      mstore\n        /* \"#utility.yul\":25397:25515   */\n      tag_698\n        /* \"#utility.yul\":25510:25514   */\n      dup2\n        /* \"#utility.yul\":25501:25507   */\n      dup7\n        /* \"#utility.yul\":25493:25499   */\n      dup9\n        /* \"#utility.yul\":25397:25515   */\n      tag_439\n      jump\t// in\n    tag_698:\n        /* \"#utility.yul\":25389:25515   */\n      swap1\n      pop\n        /* \"#utility.yul\":25525:25597   */\n      tag_699\n        /* \"#utility.yul\":25593:25595   */\n      0x60\n        /* \"#utility.yul\":25582:25591   */\n      dup4\n        /* \"#utility.yul\":25578:25596   */\n      add\n        /* \"#utility.yul\":25569:25575   */\n      dup6\n        /* \"#utility.yul\":25525:25597   */\n      tag_399\n      jump\t// in\n    tag_699:\n        /* \"#utility.yul\":25607:25680   */\n      tag_700\n        /* \"#utility.yul\":25675:25678   */\n      0x80\n        /* \"#utility.yul\":25664:25673   */\n      dup4\n        /* \"#utility.yul\":25660:25679   */\n      add\n        /* \"#utility.yul\":25651:25657   */\n      dup5\n        /* \"#utility.yul\":25607:25680   */\n      tag_383\n      jump\t// in\n    tag_700:\n        /* \"#utility.yul\":24852:25687   */\n      swap8\n      swap7\n      pop\n      pop\n      pop\n      pop\n      pop\n      pop\n      pop\n      jump\t// out\n        /* \"#utility.yul\":25693:25856   */\n    tag_440:\n        /* \"#utility.yul\":25833:25848   */\n      0x7a65726f20776974686472617700000000000000000000000000000000000000\n        /* \"#utility.yul\":25829:25830   */\n      0x00\n        /* \"#utility.yul\":25821:25827   */\n      dup3\n        /* \"#utility.yul\":25817:25831   */\n      add\n        /* \"#utility.yul\":25810:25849   */\n      mstore\n        /* \"#utility.yul\":25693:25856   */\n      pop\n      jump\t// out\n        /* \"#utility.yul\":25862:26228   */\n    tag_441:\n        /* \"#utility.yul\":26004:26007   */\n      0x00\n        /* \"#utility.yul\":26025:26092   */\n      tag_703\n        /* \"#utility.yul\":26089:26091   */\n      0x0d\n        /* \"#utility.yul\":26084:26087   */\n      dup4\n        /* \"#utility.yul\":26025:26092   */\n      tag_406\n      jump\t// in\n    tag_703:\n        /* \"#utility.yul\":26018:26092   */\n      swap2\n      pop\n        /* \"#utility.yul\":26101:26194   */\n      tag_704\n        /* \"#utility.yul\":26190:26193   */\n      dup3\n        /* \"#utility.yul\":26101:26194   */\n      tag_440\n      jump\t// in\n    tag_704:\n        /* \"#utility.yul\":26219:26221   */\n      0x20\n        /* \"#utility.yul\":26214:26217   */\n      dup3\n        /* \"#utility.yul\":26210:26222   */\n      add\n        /* \"#utility.yul\":26203:26222   */\n      swap1\n      pop\n        /* \"#utility.yul\":25862:26228   */\n      swap2\n      swap1\n      pop\n      jump\t// out\n        /* \"#utility.yul\":26234:26653   */\n    tag_263:\n        /* \"#utility.yul\":26400:26404   */\n      0x00\n        /* \"#utility.yul\":26438:26440   */\n      0x20\n        /* \"#utility.yul\":26427:26436   */\n      dup3\n        /* \"#utility.yul\":26423:26441   */\n      add\n        /* \"#utility.yul\":26415:26441   */\n      swap1\n      pop\n        /* \"#utility.yul\":26487:26496   */\n      dup2\n        /* \"#utility.yul\":26481:26485   */\n      dup2\n        /* \"#utility.yul\":26477:26497   */\n      sub\n        /* \"#utility.yul\":26473:26474   */\n      0x00\n        /* \"#utility.yul\":26462:26471   */\n      dup4\n        /* \"#utility.yul\":26458:26475   */\n      add\n        /* \"#utility.yul\":26451:26498   */\n      mstore\n        /* \"#utility.yul\":26515:26646   */\n      tag_706\n        /* \"#utility.yul\":26641:26645   */\n      dup2\n        /* \"#utility.yul\":26515:26646   */\n      tag_441\n      jump\t// in\n    tag_706:\n        /* \"#utility.yul\":26507:26646   */\n      swap1\n      pop\n        /* \"#utility.yul\":26234:26653   */\n      swap2\n      swap1\n      pop\n      jump\t// out\n        /* \"#utility.yul\":26659:26817   */\n    tag_442:\n        /* \"#utility.yul\":26799:26809   */\n      0x746f6f206d756368000000000000000000000000000000000000000000000000\n        /* \"#utility.yul\":26795:26796   */\n      0x00\n        /* \"#utility.yul\":26787:26793   */\n      dup3\n        /* \"#utility.yul\":26783:26797   */\n      add\n        /* \"#utility.yul\":26776:26810   */\n      mstore\n        /* \"#utility.yul\":26659:26817   */\n      pop\n      jump\t// out\n        /* \"#utility.yul\":26823:27188   */\n    tag_443:\n        /* \"#utility.yul\":26965:26968   */\n      0x00\n        /* \"#utility.yul\":26986:27052   */\n      tag_709\n        /* \"#utility.yul\":27050:27051   */\n      0x08\n        /* \"#utility.yul\":27045:27048   */\n      dup4\n        /* \"#utility.yul\":26986:27052   */\n      tag_406\n      jump\t// in\n    tag_709:\n        /* \"#utility.yul\":26979:27052   */\n      swap2\n      pop\n        /* \"#utility.yul\":27061:27154   */\n      tag_710\n        /* \"#utility.yul\":27150:27153   */\n      dup3\n        /* \"#utility.yul\":27061:27154   */\n      tag_442\n      jump\t// in\n    tag_710:\n        /* \"#utility.yul\":27179:27181   */\n      0x20\n        /* \"#utility.yul\":27174:27177   */\n      dup3\n        /* \"#utility.yul\":27170:27182   */\n      add\n        /* \"#utility.yul\":27163:27182   */\n      swap1\n      pop\n        /* \"#utility.yul\":26823:27188   */\n      swap2\n      swap1\n      pop\n      jump\t// out\n        /* \"#utility.yul\":27194:27613   */\n    tag_266:\n        /* \"#utility.yul\":27360:27364   */\n      0x00\n        /* \"#utility.yul\":27398:27400   */\n      0x20\n        /* \"#utility.yul\":27387:27396   */\n      dup3\n        /* \"#utility.yul\":27383:27401   */\n      add\n        /* \"#utility.yul\":27375:27401   */\n      swap1\n      pop\n        /* \"#utility.yul\":27447:27456   */\n      dup2\n        /* \"#utility.yul\":27441:27445   */\n      dup2\n        /* \"#utility.yul\":27437:27457   */\n      sub\n        /* \"#utility.yul\":27433:27434   */\n      0x00\n        /* \"#utility.yul\":27422:27431   */\n      dup4\n        /* \"#utility.yul\":27418:27435   */\n      add\n        /* \"#utility.yul\":27411:27458   */\n      mstore\n        /* \"#utility.yul\":27475:27606   */\n      tag_712\n        /* \"#utility.yul\":27601:27605   */\n      dup2\n        /* \"#utility.yul\":27475:27606   */\n      tag_443\n      jump\t// in\n    tag_712:\n        /* \"#utility.yul\":27467:27606   */\n      swap1\n      pop\n        /* \"#utility.yul\":27194:27613   */\n      swap2\n      swap1\n      pop\n      jump\t// out\n        /* \"#utility.yul\":27619:27781   */\n    tag_444:\n        /* \"#utility.yul\":27759:27773   */\n      0x7374696c6c206c6f636b65640000000000000000000000000000000000000000\n        /* \"#utility.yul\":27755:27756   */\n      0x00\n        /* \"#utility.yul\":27747:27753   */\n      dup3\n        /* \"#utility.yul\":27743:27757   */\n      add\n        /* \"#utility.yul\":27736:27774   */\n      mstore\n        /* \"#utility.yul\":27619:27781   */\n      pop\n      jump\t// out\n        /* \"#utility.yul\":27787:28153   */\n    tag_445:\n        /* \"#utility.yul\":27929:27932   */\n      0x00\n        /* \"#utility.yul\":27950:28017   */\n      tag_715\n        /* \"#utility.yul\":28014:28016   */\n      0x0c\n        /* \"#utility.yul\":28009:28012   */\n      dup4\n        /* \"#utility.yul\":27950:28017   */\n      tag_406\n      jump\t// in\n    tag_715:\n        /* \"#utility.yul\":27943:28017   */\n      swap2\n      pop\n        /* \"#utility.yul\":28026:28119   */\n      tag_716\n        /* \"#utility.yul\":28115:28118   */\n      dup3\n        /* \"#utility.yul\":28026:28119   */\n      tag_444\n      jump\t// in\n    tag_716:\n        /* \"#utility.yul\":28144:28146   */\n      0x20\n        /* \"#utility.yul\":28139:28142   */\n      dup3\n        /* \"#utility.yul\":28135:28147   */\n      add\n        /* \"#utility.yul\":28128:28147   */\n      swap1\n      pop\n        /* \"#utility.yul\":27787:28153   */\n      swap2\n      swap1\n      pop\n      jump\t// out\n        /* \"#utility.yul\":28159:28578   */\n    tag_269:\n        /* \"#utility.yul\":28325:28329   */\n      0x00\n        /* \"#utility.yul\":28363:28365   */\n      0x20\n        /* \"#utility.yul\":28352:28361   */\n      dup3\n        /* \"#utility.yul\":28348:28366   */\n      add\n        /* \"#utility.yul\":28340:28366   */\n      swap1\n      pop\n        /* \"#utility.yul\":28412:28421   */\n      dup2\n        /* \"#utility.yul\":28406:28410   */\n      dup2\n        /* \"#utility.yul\":28402:28422   */\n      sub\n        /* \"#utility.yul\":28398:28399   */\n      0x00\n        /* \"#utility.yul\":28387:28396   */\n      dup4\n        /* \"#utility.yul\":28383:28400   */\n      add\n        /* \"#utility.yul\":28376:28423   */\n      mstore\n        /* \"#utility.yul\":28440:28571   */\n      tag_718\n        /* \"#utility.yul\":28566:28570   */\n      dup2\n        /* \"#utility.yul\":28440:28571   */\n      tag_445\n      jump\t// in\n    tag_718:\n        /* \"#utility.yul\":28432:28571   */\n      swap1\n      pop\n        /* \"#utility.yul\":28159:28578   */\n      swap2\n      swap1\n      pop\n      jump\t// out\n        /* \"#utility.yul\":28584:29014   */\n    tag_277:\n        /* \"#utility.yul\":28727:28731   */\n      0x00\n        /* \"#utility.yul\":28765:28767   */\n      0x60\n        /* \"#utility.yul\":28754:28763   */\n      dup3\n        /* \"#utility.yul\":28750:28768   */\n      add\n        /* \"#utility.yul\":28742:28768   */\n      swap1\n      pop\n        /* \"#utility.yul\":28778:28849   */\n      tag_720\n        /* \"#utility.yul\":28846:28847   */\n      0x00\n        /* \"#utility.yul\":28835:28844   */\n      dup4\n        /* \"#utility.yul\":28831:28848   */\n      add\n        /* \"#utility.yul\":28822:28828   */\n      dup7\n        /* \"#utility.yul\":28778:28849   */\n      tag_383\n      jump\t// in\n    tag_720:\n        /* \"#utility.yul\":28859:28931   */\n      tag_721\n        /* \"#utility.yul\":28927:28929   */\n      0x20\n        /* \"#utility.yul\":28916:28925   */\n      dup4\n        /* \"#utility.yul\":28912:28930   */\n      add\n        /* \"#utility.yul\":28903:28909   */\n      dup6\n        /* \"#utility.yul\":28859:28931   */\n      tag_383\n      jump\t// in\n    tag_721:\n        /* \"#utility.yul\":28941:29007   */\n      tag_722\n        /* \"#utility.yul\":29003:29005   */\n      0x40\n        /* \"#utility.yul\":28992:29001   */\n      dup4\n        /* \"#utility.yul\":28988:29006   */\n      add\n        /* \"#utility.yul\":28979:28985   */\n      dup5\n        /* \"#utility.yul\":28941:29007   */\n      tag_403\n      jump\t// in\n    tag_722:\n        /* \"#utility.yul\":28584:29014   */\n      swap5\n      swap4\n      pop\n      pop\n      pop\n      pop\n      jump\t// out\n        /* \"#utility.yul\":29020:29352   */\n    tag_287:\n        /* \"#utility.yul\":29141:29145   */\n      0x00\n        /* \"#utility.yul\":29179:29181   */\n      0x40\n        /* \"#utility.yul\":29168:29177   */\n      dup3\n        /* \"#utility.yul\":29164:29182   */\n      add\n        /* \"#utility.yul\":29156:29182   */\n      swap1\n      pop\n        /* \"#utility.yul\":29192:29263   */\n      tag_724\n        /* \"#utility.yul\":29260:29261   */\n      0x00\n        /* \"#utility.yul\":29249:29258   */\n      dup4\n        /* \"#utility.yul\":29245:29262   */\n      add\n        /* \"#utility.yul\":29236:29242   */\n      dup6\n        /* \"#utility.yul\":29192:29263   */\n      tag_383\n      jump\t// in\n    tag_724:\n        /* \"#utility.yul\":29273:29345   */\n      tag_725\n        /* \"#utility.yul\":29341:29343   */\n      0x20\n        /* \"#utility.yul\":29330:29339   */\n      dup4\n        /* \"#utility.yul\":29326:29344   */\n      add\n        /* \"#utility.yul\":29317:29323   */\n      dup5\n        /* \"#utility.yul\":29273:29345   */\n      tag_383\n      jump\t// in\n    tag_725:\n        /* \"#utility.yul\":29020:29352   */\n      swap4\n      swap3\n      pop\n      pop\n      pop\n      jump\t// out\n        /* \"#utility.yul\":29358:29517   */\n    tag_446:\n        /* \"#utility.yul\":29498:29509   */\n      0x6261642073706c69740000000000000000000000000000000000000000000000\n        /* \"#utility.yul\":29494:29495   */\n      0x00\n        /* \"#utility.yul\":29486:29492   */\n      dup3\n        /* \"#utility.yul\":29482:29496   */\n      add\n        /* \"#utility.yul\":29475:29510   */\n      mstore\n        /* \"#utility.yul\":29358:29517   */\n      pop\n      jump\t// out\n        /* \"#utility.yul\":29523:29888   */\n    tag_447:\n        /* \"#utility.yul\":29665:29668   */\n      0x00\n        /* \"#utility.yul\":29686:29752   */\n      tag_728\n        /* \"#utility.yul\":29750:29751   */\n      0x09\n        /* \"#utility.yul\":29745:29748   */\n      dup4\n        /* \"#utility.yul\":29686:29752   */\n      tag_406\n      jump\t// in\n    tag_728:\n        /* \"#utility.yul\":29679:29752   */\n      swap2\n      pop\n        /* \"#utility.yul\":29761:29854   */\n      tag_729\n        /* \"#utility.yul\":29850:29853   */\n      dup3\n        /* \"#utility.yul\":29761:29854   */\n      tag_446\n      jump\t// in\n    tag_729:\n        /* \"#utility.yul\":29879:29881   */\n      0x20\n        /* \"#utility.yul\":29874:29877   */\n      dup3\n        /* \"#utility.yul\":29870:29882   */\n      add\n        /* \"#utility.yul\":29863:29882   */\n      swap1\n      pop\n        /* \"#utility.yul\":29523:29888   */\n      swap2\n      swap1\n      pop\n      jump\t// out\n        /* \"#utility.yul\":29894:30313   */\n    tag_297:\n        /* \"#utility.yul\":30060:30064   */\n      0x00\n        /* \"#utility.yul\":30098:30100   */\n      0x20\n        /* \"#utility.yul\":30087:30096   */\n      dup3\n        /* \"#utility.yul\":30083:30101   */\n      add\n        /* \"#utility.yul\":30075:30101   */\n      swap1\n      pop\n        /* \"#utility.yul\":30147:30156   */\n      dup2\n        /* \"#utility.yul\":30141:30145   */\n      dup2\n        /* \"#utility.yul\":30137:30157   */\n      sub\n        /* \"#utility.yul\":30133:30134   */\n      0x00\n        /* \"#utility.yul\":30122:30131   */\n      dup4\n        /* \"#utility.yul\":30118:30135   */\n      add\n        /* \"#utility.yul\":30111:30158   */\n      mstore\n        /* \"#utility.yul\":30175:30306   */\n      tag_731\n        /* \"#utility.yul\":30301:30305   */\n      dup2\n        /* \"#utility.yul\":30175:30306   */\n      tag_447\n      jump\t// in\n    tag_731:\n        /* \"#utility.yul\":30167:30306   */\n      swap1\n      pop\n        /* \"#utility.yul\":29894:30313   */\n      swap2\n      swap1\n      pop\n      jump\t// out\n        /* \"#utility.yul\":30319:30481   */\n    tag_448:\n        /* \"#utility.yul\":30459:30473   */\n      0x6275726e20746f6f206c6f770000000000000000000000000000000000000000\n        /* \"#utility.yul\":30455:30456   */\n      0x00\n        /* \"#utility.yul\":30447:30453   */\n      dup3\n        /* \"#utility.yul\":30443:30457   */\n      add\n        /* \"#utility.yul\":30436:30474   */\n      mstore\n        /* \"#utility.yul\":30319:30481   */\n      pop\n      jump\t// out\n        /* \"#utility.yul\":30487:30853   */\n    tag_449:\n        /* \"#utility.yul\":30629:30632   */\n      0x00\n        /* \"#utility.yul\":30650:30717   */\n      tag_734\n        /* \"#utility.yul\":30714:30716   */\n      0x0c\n        /* \"#utility.yul\":30709:30712   */\n      dup4\n        /* \"#utility.yul\":30650:30717   */\n      tag_406\n      jump\t// in\n    tag_734:\n        /* \"#utility.yul\":30643:30717   */\n      swap2\n      pop\n        /* \"#utility.yul\":30726:30819   */\n      tag_735\n        /* \"#utility.yul\":30815:30818   */\n      dup3\n        /* \"#utility.yul\":30726:30819   */\n      tag_448\n      jump\t// in\n    tag_735:\n        /* \"#utility.yul\":30844:30846   */\n      0x20\n        /* \"#utility.yul\":30839:30842   */\n      dup3\n        /* \"#utility.yul\":30835:30847   */\n      add\n        /* \"#utility.yul\":30828:30847   */\n      swap1\n      pop\n        /* \"#utility.yul\":30487:30853   */\n      swap2\n      swap1\n      pop\n      jump\t// out\n        /* \"#utility.yul\":30859:31278   */\n    tag_300:\n        /* \"#utility.yul\":31025:31029   */\n      0x00\n        /* \"#utility.yul\":31063:31065   */\n      0x20\n        /* \"#utility.yul\":31052:31061   */\n      dup3\n        /* \"#utility.yul\":31048:31066   */\n      add\n        /* \"#utility.yul\":31040:31066   */\n      swap1\n      pop\n        /* \"#utility.yul\":31112:31121   */\n      dup2\n        /* \"#utility.yul\":31106:31110   */\n      dup2\n        /* \"#utility.yul\":31102:31122   */\n      sub\n        /* \"#utility.yul\":31098:31099   */\n      0x00\n        /* \"#utility.yul\":31087:31096   */\n      dup4\n        /* \"#utility.yul\":31083:31100   */\n      add\n        /* \"#utility.yul\":31076:31123   */\n      mstore\n        /* \"#utility.yul\":31140:31271   */\n      tag_737\n        /* \"#utility.yul\":31266:31270   */\n      dup2\n        /* \"#utility.yul\":31140:31271   */\n      tag_449\n      jump\t// in\n    tag_737:\n        /* \"#utility.yul\":31132:31271   */\n      swap1\n      pop\n        /* \"#utility.yul\":30859:31278   */\n      swap2\n      swap1\n      pop\n      jump\t// out\n        /* \"#utility.yul\":31284:31447   */\n    tag_450:\n        /* \"#utility.yul\":31424:31439   */\n      0x7a65726f20747265617375727900000000000000000000000000000000000000\n        /* \"#utility.yul\":31420:31421   */\n      0x00\n        /* \"#utility.yul\":31412:31418   */\n      dup3\n        /* \"#utility.yul\":31408:31422   */\n      add\n        /* \"#utility.yul\":31401:31440   */\n      mstore\n        /* \"#utility.yul\":31284:31447   */\n      pop\n      jump\t// out\n        /* \"#utility.yul\":31453:31819   */\n    tag_451:\n        /* \"#utility.yul\":31595:31598   */\n      0x00\n        /* \"#utility.yul\":31616:31683   */\n      tag_740\n        /* \"#utility.yul\":31680:31682   */\n      0x0d\n        /* \"#utility.yul\":31675:31678   */\n      dup4\n        /* \"#utility.yul\":31616:31683   */\n      tag_406\n      jump\t// in\n    tag_740:\n        /* \"#utility.yul\":31609:31683   */\n      swap2\n      pop\n        /* \"#utility.yul\":31692:31785   */\n      tag_741\n        /* \"#utility.yul\":31781:31784   */\n      dup3\n        /* \"#utility.yul\":31692:31785   */\n      tag_450\n      jump\t// in\n    tag_741:\n        /* \"#utility.yul\":31810:31812   */\n      0x20\n        /* \"#utility.yul\":31805:31808   */\n      dup3\n        /* \"#utility.yul\":31801:31813   */\n      add\n        /* \"#utility.yul\":31794:31813   */\n      swap1\n      pop\n        /* \"#utility.yul\":31453:31819   */\n      swap2\n      swap1\n      pop\n      jump\t// out\n        /* \"#utility.yul\":31825:32244   */\n    tag_321:\n        /* \"#utility.yul\":31991:31995   */\n      0x00\n        /* \"#utility.yul\":32029:32031   */\n      0x20\n        /* \"#utility.yul\":32018:32027   */\n      dup3\n        /* \"#utility.yul\":32014:32032   */\n      add\n        /* \"#utility.yul\":32006:32032   */\n      swap1\n      pop\n        /* \"#utility.yul\":32078:32087   */\n      dup2\n        /* \"#utility.yul\":32072:32076   */\n      dup2\n        /* \"#utility.yul\":32068:32088   */\n      sub\n        /* \"#utility.yul\":32064:32065   */\n      0x00\n        /* \"#utility.yul\":32053:32062   */\n      dup4\n        /* \"#utility.yul\":32049:32066   */\n      add\n        /* \"#utility.yul\":32042:32089   */\n      mstore\n        /* \"#utility.yul\":32106:32237   */\n      tag_743\n        /* \"#utility.yul\":32232:32236   */\n      dup2\n        /* \"#utility.yul\":32106:32237   */\n      tag_451\n      jump\t// in\n    tag_743:\n        /* \"#utility.yul\":32098:32237   */\n      swap1\n      pop\n        /* \"#utility.yul\":31825:32244   */\n      swap2\n      swap1\n      pop\n      jump\t// out\n        /* \"#utility.yul\":32250:32692   */\n    tag_341:\n        /* \"#utility.yul\":32399:32403   */\n      0x00\n        /* \"#utility.yul\":32437:32439   */\n      0x60\n        /* \"#utility.yul\":32426:32435   */\n      dup3\n        /* \"#utility.yul\":32422:32440   */\n      add\n        /* \"#utility.yul\":32414:32440   */\n      swap1\n      pop\n        /* \"#utility.yul\":32450:32521   */\n      tag_745\n        /* \"#utility.yul\":32518:32519   */\n      0x00\n        /* \"#utility.yul\":32507:32516   */\n      dup4\n        /* \"#utility.yul\":32503:32520   */\n      add\n        /* \"#utility.yul\":32494:32500   */\n      dup7\n        /* \"#utility.yul\":32450:32521   */\n      tag_399\n      jump\t// in\n    tag_745:\n        /* \"#utility.yul\":32531:32603   */\n      tag_746\n        /* \"#utility.yul\":32599:32601   */\n      0x20\n        /* \"#utility.yul\":32588:32597   */\n      dup4\n        /* \"#utility.yul\":32584:32602   */\n      add\n        /* \"#utility.yul\":32575:32581   */\n      dup6\n        /* \"#utility.yul\":32531:32603   */\n      tag_399\n      jump\t// in\n    tag_746:\n        /* \"#utility.yul\":32613:32685   */\n      tag_747\n        /* \"#utility.yul\":32681:32683   */\n      0x40\n        /* \"#utility.yul\":32670:32679   */\n      dup4\n        /* \"#utility.yul\":32666:32684   */\n      add\n        /* \"#utility.yul\":32657:32663   */\n      dup5\n        /* \"#utility.yul\":32613:32685   */\n      tag_383\n      jump\t// in\n    tag_747:\n        /* \"#utility.yul\":32250:32692   */\n      swap5\n      swap4\n      pop\n      pop\n      pop\n      pop\n      jump\t// out\n        /* \"#utility.yul\":32698:33030   */\n    tag_346:\n        /* \"#utility.yul\":32819:32823   */\n      0x00\n        /* \"#utility.yul\":32857:32859   */\n      0x40\n        /* \"#utility.yul\":32846:32855   */\n      dup3\n        /* \"#utility.yul\":32842:32860   */\n      add\n        /* \"#utility.yul\":32834:32860   */\n      swap1\n      pop\n        /* \"#utility.yul\":32870:32941   */\n      tag_749\n        /* \"#utility.yul\":32938:32939   */\n      0x00\n        /* \"#utility.yul\":32927:32936   */\n      dup4\n        /* \"#utility.yul\":32923:32940   */\n      add\n        /* \"#utility.yul\":32914:32920   */\n      dup6\n        /* \"#utility.yul\":32870:32941   */\n      tag_399\n      jump\t// in\n    tag_749:\n        /* \"#utility.yul\":32951:33023   */\n      tag_750\n        /* \"#utility.yul\":33019:33021   */\n      0x20\n        /* \"#utility.yul\":33008:33017   */\n      dup4\n        /* \"#utility.yul\":33004:33022   */\n      add\n        /* \"#utility.yul\":32995:33001   */\n      dup5\n        /* \"#utility.yul\":32951:33023   */\n      tag_383\n      jump\t// in\n    tag_750:\n        /* \"#utility.yul\":32698:33030   */\n      swap4\n      swap3\n      pop\n      pop\n      pop\n      jump\t// out\n        /* \"#utility.yul\":33036:33384   */\n    tag_352:\n        /* \"#utility.yul\":33165:33169   */\n      0x00\n        /* \"#utility.yul\":33203:33205   */\n      0x40\n        /* \"#utility.yul\":33192:33201   */\n      dup3\n        /* \"#utility.yul\":33188:33206   */\n      add\n        /* \"#utility.yul\":33180:33206   */\n      swap1\n      pop\n        /* \"#utility.yul\":33216:33287   */\n      tag_752\n        /* \"#utility.yul\":33284:33285   */\n      0x00\n        /* \"#utility.yul\":33273:33282   */\n      dup4\n        /* \"#utility.yul\":33269:33286   */\n      add\n        /* \"#utility.yul\":33260:33266   */\n      dup6\n        /* \"#utility.yul\":33216:33287   */\n      tag_399\n      jump\t// in\n    tag_752:\n        /* \"#utility.yul\":33297:33377   */\n      tag_753\n        /* \"#utility.yul\":33373:33375   */\n      0x20\n        /* \"#utility.yul\":33362:33371   */\n      dup4\n        /* \"#utility.yul\":33358:33376   */\n      add\n        /* \"#utility.yul\":33349:33355   */\n      dup5\n        /* \"#utility.yul\":33297:33377   */\n      tag_424\n      jump\t// in\n    tag_753:\n        /* \"#utility.yul\":33036:33384   */\n      swap4\n      swap3\n      pop\n      pop\n      pop\n      jump\t// out\n\n    auxdata: 0xa26469706673582212209b1427ef174c846713f3938160df5401850344f47b88b9377c0b2078ba61b1ad64736f6c63430008180033\n}\n",
				"bytecode": {
					"linkReferences": {},
					"object": "610180604052610fa06002556111946003556105dc6004553480156200002457600080fd5b5060405162003e6e38038062003e6e83398181016040528101906200004a919062000727565b33600073ffffffffffffffffffffffffffffffffffffffff168173ffffffffffffffffffffffffffffffffffffffff1603620000c05760006040517f1e4fbdf7000000000000000000000000000000000000000000000000000000008152600401620000b7919062000801565b60405180910390fd5b620000d181620005be60201b60201c565b5060018081905550600073ffffffffffffffffffffffffffffffffffffffff168873ffffffffffffffffffffffffffffffffffffffff16036200014b576040517f08c379a000000000000000000000000000000000000000000000000000000000815260040162000142906200087f565b60405180910390fd5b600073ffffffffffffffffffffffffffffffffffffffff168773ffffffffffffffffffffffffffffffffffffffff1603620001bd576040517f08c379a0000000000000000000000000000000000000000000000000000000008152600401620001b490620008f1565b60405180910390fd5b600073ffffffffffffffffffffffffffffffffffffffff168673ffffffffffffffffffffffffffffffffffffffff16036200022f576040517f08c379a0000000000000000000000000000000000000000000000000000000008152600401620002269062000963565b60405180910390fd5b600073ffffffffffffffffffffffffffffffffffffffff168573ffffffffffffffffffffffffffffffffffffffff1603620002a1576040517f08c379a00000000000000000000000000000000000000000000000000000000081526004016200029890620009d5565b60405180910390fd5b600073ffffffffffffffffffffffffffffffffffffffff168473ffffffffffffffffffffffffffffffffffffffff160362000313576040517f08c379a00000000000000000000000000000000000000000000000000000000081526004016200030a9062000a47565b60405180910390fd5b600073ffffffffffffffffffffffffffffffffffffffff168373ffffffffffffffffffffffffffffffffffffffff160362000385576040517f08c379a00000000000000000000000000000000000000000000000000000000081526004016200037c9062000ab9565b60405180910390fd5b600073ffffffffffffffffffffffffffffffffffffffff168173ffffffffffffffffffffffffffffffffffffffff1603620003f7576040517f08c379a0000000000000000000000000000000000000000000000000000000008152600401620003ee9062000b2b565b60405180910390fd5b8773ffffffffffffffffffffffffffffffffffffffff1660808173ffffffffffffffffffffffffffffffffffffffff16815250508673ffffffffffffffffffffffffffffffffffffffff1660a08173ffffffffffffffffffffffffffffffffffffffff16815250508573ffffffffffffffffffffffffffffffffffffffff1660c08173ffffffffffffffffffffffffffffffffffffffff16815250508573ffffffffffffffffffffffffffffffffffffffff1660e08173ffffffffffffffffffffffffffffffffffffffff16815250508473ffffffffffffffffffffffffffffffffffffffff166101008173ffffffffffffffffffffffffffffffffffffffff16815250508373ffffffffffffffffffffffffffffffffffffffff166101208173ffffffffffffffffffffffffffffffffffffffff16815250508273ffffffffffffffffffffffffffffffffffffffff166101408173ffffffffffffffffffffffffffffffffffffffff168152505081610160818152505080600560006101000a81548173ffffffffffffffffffffffffffffffffffffffff021916908373ffffffffffffffffffffffffffffffffffffffff160217905550505050505050505062000b4d565b60008060009054906101000a900473ffffffffffffffffffffffffffffffffffffffff169050816000806101000a81548173ffffffffffffffffffffffffffffffffffffffff021916908373ffffffffffffffffffffffffffffffffffffffff1602179055508173ffffffffffffffffffffffffffffffffffffffff168173ffffffffffffffffffffffffffffffffffffffff167f8be0079c531659141344cd1fd0a4f28419497f9722a3daafe3b4186f6b6457e060405160405180910390a35050565b600080fd5b600073ffffffffffffffffffffffffffffffffffffffff82169050919050565b6000620006b48262000687565b9050919050565b620006c681620006a7565b8114620006d257600080fd5b50565b600081519050620006e681620006bb565b92915050565b6000819050919050565b6200070181620006ec565b81146200070d57600080fd5b50565b6000815190506200072181620006f6565b92915050565b600080600080600080600080610100898b0312156200074b576200074a62000682565b5b60006200075b8b828c01620006d5565b98505060206200076e8b828c01620006d5565b9750506040620007818b828c01620006d5565b9650506060620007948b828c01620006d5565b9550506080620007a78b828c01620006d5565b94505060a0620007ba8b828c01620006d5565b93505060c0620007cd8b828c0162000710565b92505060e0620007e08b828c01620006d5565b9150509295985092959890939650565b620007fb81620006a7565b82525050565b6000602082019050620008186000830184620007f0565b92915050565b600082825260208201905092915050565b7f746f6b656e30207a65726f000000000000000000000000000000000000000000600082015250565b600062000867600b836200081e565b915062000874826200082f565b602082019050919050565b600060208201905081810360008301526200089a8162000858565b9050919050565b7f746f6b656e31207a65726f000000000000000000000000000000000000000000600082015250565b6000620008d9600b836200081e565b9150620008e682620008a1565b602082019050919050565b600060208201905081810360008301526200090c81620008ca565b9050919050565b7f636f7265207a65726f0000000000000000000000000000000000000000000000600082015250565b60006200094b6009836200081e565b9150620009588262000913565b602082019050919050565b600060208201905081810360008301526200097e816200093c565b9050919050565b7f726577617264207a65726f000000000000000000000000000000000000000000600082015250565b6000620009bd600b836200081e565b9150620009ca8262000985565b602082019050919050565b60006020820190508181036000830152620009f081620009ae565b9050919050565b7f6661726d207a65726f0000000000000000000000000000000000000000000000600082015250565b600062000a2f6009836200081e565b915062000a3c82620009f7565b602082019050919050565b6000602082019050818103600083015262000a628162000a20565b9050919050565b7f726f75746572207a65726f000000000000000000000000000000000000000000600082015250565b600062000aa1600b836200081e565b915062000aae8262000a69565b602082019050919050565b6000602082019050818103600083015262000ad48162000a92565b9050919050565b7f7472656173757279207a65726f00000000000000000000000000000000000000600082015250565b600062000b13600d836200081e565b915062000b208262000adb565b602082019050919050565b6000602082019050818103600083015262000b468162000b04565b9050919050565b60805160a05160c05160e051610100516101205161014051610160516131f762000c776000396000818161086c0152818161092f015281816109e301528181610c0801528181610e3e0152611595015260008181610fa1015281816110a70152611b8201526000818161075b015281816107c601528181610830015281816108f3015281816109a701528181610e02015281816115590152611774015260008181610d6601528181610eb501528181610fc30152611b5e01526000818161123e015261172a0152600081816106c70152818161100b0152818161113f015281816112f00152818161167401528181611ab40152611c6101526000818161067a015281816107e801526119d501526000818161062d0152818161077d0152610bde01526131f76000f3fe608060405234801561001057600080fd5b50600436106101ce5760003560e01c8063700cd48e11610104578063aaf5eb68116100a2578063f2fde38b11610071578063f2fde38b146104c9578063f7c618c1146104e5578063f887ea4014610503578063fccc281314610521576101ce565b8063aaf5eb6814610453578063d21220a714610471578063f0f442601461048f578063f2f4eb26146104ab576101ce565b80638da5cb5b116100de5780638da5cb5b146103c75780638e3a7d84146103e5578063a372630d14610415578063a87430ba1461041f576101ce565b8063700cd48e14610383578063715018a61461039f57806382328ffc146103a9576101ce565b80632e1a7d4d1161017157806353deb3d61161014b57806353deb3d61461030b57806354e5cf761461032957806361d027b3146103475780636b8aceb814610365576101ce565b80632e1a7d4d146102b3578063485d3834146102cf5780634dc10ea1146102ed576101ce565b806315770f92116101ad57806315770f921461022b578063278de0001461024957806327bd6e39146102675780632da5ff0914610297576101ce565b8062aeef8a146101d35780630117f00e146101ef5780630dfe16811461020d575b600080fd5b6101ed60048036038101906101e891906121ed565b61053f565b005b6101f7610bd6565b604051610204919061224f565b60405180910390f35b610215610bdc565b60405161022291906122e9565b60405180910390f35b610233610c00565b604051610240919061224f565b60405180910390f35b610251610c06565b60405161025e919061224f565b60405180910390f35b610281600480360381019061027c9190612342565b610c2a565b60405161028e919061224f565b60405180910390f35b6102b160048036038101906102ac91906123d4565b610d15565b005b6102cd60048036038101906102c89190612434565b6113c0565b005b6102d7611715565b6040516102e4919061224f565b60405180910390f35b6102f561171c565b604051610302919061224f565b60405180910390f35b610313611722565b604051610320919061224f565b60405180910390f35b610331611728565b60405161033e9190612482565b60405180910390f35b61034f61174c565b60405161035c91906124ac565b60405180910390f35b61036d611772565b60405161037a91906124e8565b60405180910390f35b61039d600480360381019061039891906121ed565b611796565b005b6103a7611857565b005b6103b161186b565b6040516103be919061224f565b60405180910390f35b6103cf611871565b6040516103dc91906124ac565b60405180910390f35b6103ff60048036038101906103fa9190612342565b61189a565b60405161040c919061251e565b60405180910390f35b61041d611969565b005b61043960048036038101906104349190612342565b611984565b60405161044a959493929190612539565b60405180910390f35b61045b6119c7565b604051610468919061224f565b60405180910390f35b6104796119d3565b60405161048691906122e9565b60405180910390f35b6104a960048036038101906104a49190612342565b6119f7565b005b6104b3611ab2565b6040516104c091906122e9565b60405180910390f35b6104e360048036038101906104de9190612342565b611ad6565b005b6104ed611b5c565b6040516104fa91906122e9565b60405180910390f35b61050b611b80565b60405161051891906125ad565b60405180910390f35b610529611ba4565b60405161053691906124ac565b60405180910390f35b610547611ba9565b6000831180156105575750600082115b610596576040517f08c379a000000000000000000000000000000000000000000000000000000000815260040161058d90612625565b60405180910390fd5b600081116105d9576040517f08c379a00000000000000000000000000000000000000000000000000000000081526004016105d090612691565b60405180910390fd5b6000600860003373ffffffffffffffffffffffffffffffffffffffff1673ffffffffffffffffffffffffffffffffffffffff168152602001908152602001600020905061062533611bef565b6106723330867f000000000000000000000000000000000000000000000000000000000000000073ffffffffffffffffffffffffffffffffffffffff16611d27909392919063ffffffff16565b6106bf3330857f000000000000000000000000000000000000000000000000000000000000000073ffffffffffffffffffffffffffffffffffffffff16611d27909392919063ffffffff16565b61070c3330847f000000000000000000000000000000000000000000000000000000000000000073ffffffffffffffffffffffffffffffffffffffff16611d27909392919063ffffffff16565b610717848484611da9565b610756576040517f08c379a000000000000000000000000000000000000000000000000000000000815260040161074d906126fd565b60405180910390fd5b6107c17f0000000000000000000000000000000000000000000000000000000000000000857f000000000000000000000000000000000000000000000000000000000000000073ffffffffffffffffffffffffffffffffffffffff16611db79092919063ffffffff16565b61082c7f0000000000000000000000000000000000000000000000000000000000000000847f000000000000000000000000000000000000000000000000000000000000000073ffffffffffffffffffffffffffffffffffffffff16611db79092919063ffffffff16565b60007f000000000000000000000000000000000000000000000000000000000000000073ffffffffffffffffffffffffffffffffffffffff1663ae9679797f0000000000000000000000000000000000000000000000000000000000000000306040518363ffffffff1660e01b81526004016108a992919061271d565b6101c060405180830381865afa1580156108c7573d6000803e3d6000fd5b505050506040513d601f19601f820116820180604052508101906108eb919061294f565b6020015190507f000000000000000000000000000000000000000000000000000000000000000073ffffffffffffffffffffffffffffffffffffffff16632505c3d97f0000000000000000000000000000000000000000000000000000000000000000878760006040518563ffffffff1660e01b815260040161097194939291906129b8565b600060405180830381600087803b15801561098b57600080fd5b505af115801561099f573d6000803e3d6000fd5b5050505060007f000000000000000000000000000000000000000000000000000000000000000073ffffffffffffffffffffffffffffffffffffffff1663ae9679797f0000000000000000000000000000000000000000000000000000000000000000306040518363ffffffff1660e01b8152600401610a2092919061271d565b6101c060405180830381865afa158015610a3e573d6000803e3d6000fd5b505050506040513d601f19601f82011682018060405250810190610a62919061294f565b60200151905060008282610a769190612a2c565b905060008111610abb576040517f08c379a0000000000000000000000000000000000000000000000000000000008152600401610ab290612aac565b60405180910390fd5b80846000016000828254610acf9190612acc565b9250508190555084846001016000828254610aea9190612acc565b925050819055506276a70042610b009190612acc565b846003018190555060018460040160006101000a81548160ff0219169083151502179055508060066000828254610b379190612acc565b92505081905550670de0b6b3a76400006007548560000154610b599190612b00565b610b639190612b71565b84600201819055503373ffffffffffffffffffffffffffffffffffffffff167f0a5c854539f6e93fcd4a8397bfae8bdb751b4e819840f1c8681e6ad7ff19c5b5888888858960030154604051610bbd959493929190612ba2565b60405180910390a250505050610bd1611ec6565b505050565b60075481565b7f000000000000000000000000000000000000000000000000000000000000000081565b60065481565b7f000000000000000000000000000000000000000000000000000000000000000081565b600080600860008473ffffffffffffffffffffffffffffffffffffffff1673ffffffffffffffffffffffffffffffffffffffff1681526020019081526020016000206040518060a0016040529081600082015481526020016001820154815260200160028201548152602001600382015481526020016004820160009054906101000a900460ff16151515158152505090506000816000015103610cd2576000915050610d10565b6000670de0b6b3a76400006007548360000151610cef9190612b00565b610cf99190612b71565b9050816040015181610d0b9190612a2c565b925050505b919050565b610d1d611ba9565b600060065411610d62576040517f08c379a0000000000000000000000000000000000000000000000000000000008152600401610d5990612c41565b60405180910390fd5b60007f000000000000000000000000000000000000000000000000000000000000000073ffffffffffffffffffffffffffffffffffffffff166370a08231306040518263ffffffff1660e01b8152600401610dbd91906124ac565b602060405180830381865afa158015610dda573d6000803e3d6000fd5b505050506040513d601f19601f82011682018060405250810190610dfe9190612c61565b90507f000000000000000000000000000000000000000000000000000000000000000073ffffffffffffffffffffffffffffffffffffffff166333cfcd3b7f00000000000000000000000000000000000000000000000000000000000000006000806040518463ffffffff1660e01b8152600401610e7e93929190612c8e565b600060405180830381600087803b158015610e9857600080fd5b505af1158015610eac573d6000803e3d6000fd5b505050506000817f000000000000000000000000000000000000000000000000000000000000000073ffffffffffffffffffffffffffffffffffffffff166370a08231306040518263ffffffff1660e01b8152600401610f0c91906124ac565b602060405180830381865afa158015610f29573d6000803e3d6000fd5b505050506040513d601f19601f82011682018060405250810190610f4d9190612c61565b610f579190612a2c565b905060008111610f9c576040517f08c379a0000000000000000000000000000000000000000000000000000000008152600401610f9390612d11565b60405180910390fd5b6110077f0000000000000000000000000000000000000000000000000000000000000000827f000000000000000000000000000000000000000000000000000000000000000073ffffffffffffffffffffffffffffffffffffffff16611db79092919063ffffffff16565b60007f000000000000000000000000000000000000000000000000000000000000000073ffffffffffffffffffffffffffffffffffffffff166370a08231306040518263ffffffff1660e01b815260040161106291906124ac565b602060405180830381865afa15801561107f573d6000803e3d6000fd5b505050506040513d601f19601f820116820180604052508101906110a39190612c61565b90507f000000000000000000000000000000000000000000000000000000000000000073ffffffffffffffffffffffffffffffffffffffff16635c11d7958386898930426040518763ffffffff1660e01b815260040161110896959493929190612df4565b600060405180830381600087803b15801561112257600080fd5b505af1158015611136573d6000803e3d6000fd5b505050506000817f000000000000000000000000000000000000000000000000000000000000000073ffffffffffffffffffffffffffffffffffffffff166370a08231306040518263ffffffff1660e01b815260040161119691906124ac565b602060405180830381865afa1580156111b3573d6000803e3d6000fd5b505050506040513d601f19601f820116820180604052508101906111d79190612c61565b6111e19190612a2c565b90506000612710600254836111f69190612b00565b6112009190612b71565b90506000612710600354846112159190612b00565b61121f9190612b71565b905060008183856112309190612a2c565b61123a9190612a2c565b90507f000000000000000000000000000000000000000000000000000000000000000073ffffffffffffffffffffffffffffffffffffffff166342966c68846040518263ffffffff1660e01b8152600401611295919061224f565b600060405180830381600087803b1580156112af57600080fd5b505af11580156112c3573d6000803e3d6000fd5b50505050611334600560009054906101000a900473ffffffffffffffffffffffffffffffffffffffff16827f000000000000000000000000000000000000000000000000000000000000000073ffffffffffffffffffffffffffffffffffffffff16611ecf9092919063ffffffff16565b600654670de0b6b3a76400008361134b9190612b00565b6113559190612b71565b600760008282546113669190612acc565b925050819055507f3f48df85479f6c561daf949b29227cd56e69f1e817ddf5081f85a18443d9c02286858585856040516113a4959493929190612ba2565b60405180910390a1505050505050506113bb611ec6565b505050565b6113c8611ba9565b6000600860003373ffffffffffffffffffffffffffffffffffffffff1673ffffffffffffffffffffffffffffffffffffffff16815260200190815260200160002090506000821161144e576040517f08c379a000000000000000000000000000000000000000000000000000000000815260040161144590612e9c565b60405180910390fd5b8181600001541015611495576040517f08c379a000000000000000000000000000000000000000000000000000000000815260040161148c90612f08565b60405180910390fd5b80600301544210156114dc576040517f08c379a00000000000000000000000000000000000000000000000000000000081526004016114d390612f74565b60405180910390fd5b6114e533611bef565b600081600001548383600101546114fc9190612b00565b6115069190612b71565b90508282600001600082825461151c9190612a2c565b92505081905550808260010160008282546115379190612a2c565b9250508190555082600660008282546115509190612a2c565b925050819055507f000000000000000000000000000000000000000000000000000000000000000073ffffffffffffffffffffffffffffffffffffffff166333cfcd3b7f00000000000000000000000000000000000000000000000000000000000000008560006040518463ffffffff1660e01b81526004016115d593929190612f94565b600060405180830381600087803b1580156115ef57600080fd5b505af1158015611603573d6000803e3d6000fd5b50505050600082600001540361163f5760008260040160006101000a81548160ff0219169083151502179055506000826002018190555061166d565b670de0b6b3a7640000600754836000015461165a9190612b00565b6116649190612b71565b82600201819055505b6116b833827f000000000000000000000000000000000000000000000000000000000000000073ffffffffffffffffffffffffffffffffffffffff16611ecf9092919063ffffffff16565b3373ffffffffffffffffffffffffffffffffffffffff167f92ccf450a286a957af52509bc1c9939d1a6a481783e142e41e2499f0bb66ebc68483604051611700929190612fcb565b60405180910390a25050611712611ec6565b50565b6276a70081565b60045481565b60025481565b7f000000000000000000000000000000000000000000000000000000000000000081565b600560009054906101000a900473ffffffffffffffffffffffffffffffffffffffff1681565b7f000000000000000000000000000000000000000000000000000000000000000081565b61179e611f4e565b6127108183856117ae9190612acc565b6117b89190612acc565b146117f8576040517f08c379a00000000000000000000000000000000000000000000000000000000081526004016117ef90613040565b60405180910390fd5b610bb883101561183d576040517f08c379a0000000000000000000000000000000000000000000000000000000008152600401611834906130ac565b60405180910390fd5b826002819055508160038190555080600481905550505050565b61185f611f4e565b6118696000611fd5565b565b60035481565b60008060009054906101000a900473ffffffffffffffffffffffffffffffffffffffff16905090565b600080600860008473ffffffffffffffffffffffffffffffffffffffff1673ffffffffffffffffffffffffffffffffffffffff1681526020019081526020016000206040518060a0016040529081600082015481526020016001820154815260200160028201548152602001600382015481526020016004820160009054906101000a900460ff161515151581525050905080608001518015611941575060008160000151115b8015611951575060008160200151115b8015611961575080606001514210155b915050919050565b611971611ba9565b61197a33611bef565b611982611ec6565b565b60086020528060005260406000206000915090508060000154908060010154908060020154908060030154908060040160009054906101000a900460ff16905085565b670de0b6b3a764000081565b7f000000000000000000000000000000000000000000000000000000000000000081565b6119ff611f4e565b600073ffffffffffffffffffffffffffffffffffffffff168173ffffffffffffffffffffffffffffffffffffffff1603611a6e576040517f08c379a0000000000000000000000000000000000000000000000000000000008152600401611a6590613118565b60405180910390fd5b80600560006101000a81548173ffffffffffffffffffffffffffffffffffffffff021916908373ffffffffffffffffffffffffffffffffffffffff16021790555050565b7f000000000000000000000000000000000000000000000000000000000000000081565b611ade611f4e565b600073ffffffffffffffffffffffffffffffffffffffff168173ffffffffffffffffffffffffffffffffffffffff1603611b505760006040517f1e4fbdf7000000000000000000000000000000000000000000000000000000008152600401611b4791906124ac565b60405180910390fd5b611b5981611fd5565b50565b7f000000000000000000000000000000000000000000000000000000000000000081565b7f000000000000000000000000000000000000000000000000000000000000000081565b600081565b600260015403611be5576040517f3ee5aeb500000000000000000000000000000000000000000000000000000000815260040160405180910390fd5b6002600181905550565b6000600860008373ffffffffffffffffffffffffffffffffffffffff1673ffffffffffffffffffffffffffffffffffffffff16815260200190815260200160002090506000816000015403611c445750611d24565b6000611c4f83610c2a565b90506000811115611cf457611ca583827f000000000000000000000000000000000000000000000000000000000000000073ffffffffffffffffffffffffffffffffffffffff16611ecf9092919063ffffffff16565b8273ffffffffffffffffffffffffffffffffffffffff167ff58bf34cd9e84356f4b001ea1f1741b2f6a029f6d211d9dc4b351bc5cc79485482604051611ceb919061224f565b60405180910390a25b670de0b6b3a76400006007548360000154611d0f9190612b00565b611d199190612b71565b826002018190555050505b50565b611da3848573ffffffffffffffffffffffffffffffffffffffff166323b872dd868686604051602401611d5c93929190613138565b604051602081830303815290604052915060e01b6020820180517bffffffffffffffffffffffffffffffffffffffffffffffffffffffff8381831617835250505050612099565b50505050565b600080821190509392505050565b60008373ffffffffffffffffffffffffffffffffffffffff1663095ea7b38484604051602401611de892919061316f565b604051602081830303815290604052915060e01b6020820180517bffffffffffffffffffffffffffffffffffffffffffffffffffffffff83818316178352505050509050611e36848261213b565b611ec057611eb5848573ffffffffffffffffffffffffffffffffffffffff1663095ea7b3866000604051602401611e6e929190613198565b604051602081830303815290604052915060e01b6020820180517bffffffffffffffffffffffffffffffffffffffffffffffffffffffff8381831617835250505050612099565b611ebf8482612099565b5b50505050565b60018081905550565b611f49838473ffffffffffffffffffffffffffffffffffffffff1663a9059cbb8585604051602401611f0292919061316f565b604051602081830303815290604052915060e01b6020820180517bffffffffffffffffffffffffffffffffffffffffffffffffffffffff8381831617835250505050612099565b505050565b611f5661219b565b73ffffffffffffffffffffffffffffffffffffffff16611f74611871565b73ffffffffffffffffffffffffffffffffffffffff1614611fd357611f9761219b565b6040517f118cdaa7000000000000000000000000000000000000000000000000000000008152600401611fca91906124ac565b60405180910390fd5b565b60008060009054906101000a900473ffffffffffffffffffffffffffffffffffffffff169050816000806101000a81548173ffffffffffffffffffffffffffffffffffffffff021916908373ffffffffffffffffffffffffffffffffffffffff1602179055508173ffffffffffffffffffffffffffffffffffffffff168173ffffffffffffffffffffffffffffffffffffffff167f8be0079c531659141344cd1fd0a4f28419497f9722a3daafe3b4186f6b6457e060405160405180910390a35050565b600080602060008451602086016000885af1806120bc576040513d6000823e3d81fd5b3d9250600051915050600082146120d75760018114156120f3565b60008473ffffffffffffffffffffffffffffffffffffffff163b145b1561213557836040517f5274afe700000000000000000000000000000000000000000000000000000000815260040161212c91906124ac565b60405180910390fd5b50505050565b6000806000806020600086516020880160008a5af192503d91506000519050828015612190575060008214612173576001811461218f565b60008673ffffffffffffffffffffffffffffffffffffffff163b115b5b935050505092915050565b600033905090565b6000604051905090565b600080fd5b600080fd5b6000819050919050565b6121ca816121b7565b81146121d557600080fd5b50565b6000813590506121e7816121c1565b92915050565b600080600060608486031215612206576122056121ad565b5b6000612214868287016121d8565b9350506020612225868287016121d8565b9250506040612236868287016121d8565b9150509250925092565b612249816121b7565b82525050565b60006020820190506122646000830184612240565b92915050565b600073ffffffffffffffffffffffffffffffffffffffff82169050919050565b6000819050919050565b60006122af6122aa6122a58461226a565b61228a565b61226a565b9050919050565b60006122c182612294565b9050919050565b60006122d3826122b6565b9050919050565b6122e3816122c8565b82525050565b60006020820190506122fe60008301846122da565b92915050565b600061230f8261226a565b9050919050565b61231f81612304565b811461232a57600080fd5b50565b60008135905061233c81612316565b92915050565b600060208284031215612358576123576121ad565b5b60006123668482850161232d565b91505092915050565b600080fd5b600080fd5b600080fd5b60008083601f8401126123945761239361236f565b5b8235905067ffffffffffffffff8111156123b1576123b0612374565b5b6020830191508360208202830111156123cd576123cc612379565b5b9250929050565b6000806000604084860312156123ed576123ec6121ad565b5b600084013567ffffffffffffffff81111561240b5761240a6121b2565b5b6124178682870161237e565b9350935050602061242a868287016121d8565b9150509250925092565b60006020828403121561244a576124496121ad565b5b6000612458848285016121d8565b91505092915050565b600061246c826122b6565b9050919050565b61247c81612461565b82525050565b60006020820190506124976000830184612473565b92915050565b6124a681612304565b82525050565b60006020820190506124c1600083018461249d565b92915050565b60006124d2826122b6565b9050919050565b6124e2816124c7565b82525050565b60006020820190506124fd60008301846124d9565b92915050565b60008115159050919050565b61251881612503565b82525050565b6000602082019050612533600083018461250f565b92915050565b600060a08201905061254e6000830188612240565b61255b6020830187612240565b6125686040830186612240565b6125756060830185612240565b612582608083018461250f565b9695505050505050565b6000612597826122b6565b9050919050565b6125a78161258c565b82525050565b60006020820190506125c2600083018461259e565b92915050565b600082825260208201905092915050565b7f7a65726f206465706f7369740000000000000000000000000000000000000000600082015250565b600061260f600c836125c8565b915061261a826125d9565b602082019050919050565b6000602082019050818103600083015261263e81612602565b9050919050565b7f434f5245206c6f636b2072657175697265640000000000000000000000000000600082015250565b600061267b6012836125c8565b915061268682612645565b602082019050919050565b600060208201905081810360008301526126aa8161266e565b9050919050565b7f496e73756666696369656e7420434f5245206c6f636b00000000000000000000600082015250565b60006126e76016836125c8565b91506126f2826126b1565b602082019050919050565b60006020820190508181036000830152612716816126da565b9050919050565b60006040820190506127326000830185612240565b61273f602083018461249d565b9392505050565b600080fd5b6000601f19601f8301169050919050565b7f4e487b7100000000000000000000000000000000000000000000000000000000600052604160045260246000fd5b6127948261274b565b810181811067ffffffffffffffff821117156127b3576127b261275c565b5b80604052505050565b60006127c66121a3565b90506127d2828261278b565b919050565b6000815190506127e681612316565b92915050565b6000815190506127fb816121c1565b92915050565b60006101c0828403121561281857612817612746565b5b6128236101c06127bc565b90506000612833848285016127d7565b6000830152506020612847848285016127ec565b602083015250604061285b848285016127ec565b604083015250606061286f848285016127ec565b6060830152506080612883848285016127ec565b60808301525060a0612897848285016127ec565b60a08301525060c06128ab848285016127ec565b60c08301525060e06128bf848285016127ec565b60e0830152506101006128d4848285016127ec565b610100830152506101206128ea848285016127ec565b61012083015250610140612900848285016127ec565b61014083015250610160612916848285016127ec565b6101608301525061018061292c848285016127ec565b610180830152506101a0612942848285016127ec565b6101a08301525092915050565b60006101c08284031215612966576129656121ad565b5b600061297484828501612801565b91505092915050565b6000819050919050565b60006129a261299d6129988461297d565b61228a565b6121b7565b9050919050565b6129b281612987565b82525050565b60006080820190506129cd6000830187612240565b6129da6020830186612240565b6129e76040830185612240565b6129f460608301846129a9565b95945050505050565b7f4e487b7100000000000000000000000000000000000000000000000000000000600052601160045260246000fd5b6000612a37826121b7565b9150612a42836121b7565b9250828203905081811115612a5a57612a596129fd565b5b92915050565b7f6e6f206c69717569646974792061646465640000000000000000000000000000600082015250565b6000612a966012836125c8565b9150612aa182612a60565b602082019050919050565b60006020820190508181036000830152612ac581612a89565b9050919050565b6000612ad7826121b7565b9150612ae2836121b7565b9250828201905080821115612afa57612af96129fd565b5b92915050565b6000612b0b826121b7565b9150612b16836121b7565b9250828202612b24816121b7565b91508282048414831517612b3b57612b3a6129fd565b5b5092915050565b7f4e487b7100000000000000000000000000000000000000000000000000000000600052601260045260246000fd5b6000612b7c826121b7565b9150612b87836121b7565b925082612b9757612b96612b42565b5b828204905092915050565b600060a082019050612bb76000830188612240565b612bc46020830187612240565b612bd16040830186612240565b612bde6060830185612240565b612beb6080830184612240565b9695505050505050565b7f6e6f206c69717569646974790000000000000000000000000000000000000000600082015250565b6000612c2b600c836125c8565b9150612c3682612bf5565b602082019050919050565b60006020820190508181036000830152612c5a81612c1e565b9050919050565b600060208284031215612c7757612c766121ad565b5b6000612c85848285016127ec565b91505092915050565b6000606082019050612ca36000830186612240565b612cb060208301856129a9565b612cbd604083018461250f565b949350505050565b7f6e6f7468696e6720686172766573746564000000000000000000000000000000600082015250565b6000612cfb6011836125c8565b9150612d0682612cc5565b602082019050919050565b60006020820190508181036000830152612d2a81612cee565b9050919050565b600082825260208201905092915050565b6000819050919050565b612d5581612304565b82525050565b6000612d678383612d4c565b60208301905092915050565b6000612d82602084018461232d565b905092915050565b6000602082019050919050565b6000612da38385612d31565b9350612dae82612d42565b8060005b85811015612de757612dc48284612d73565b612dce8882612d5b565b9750612dd983612d8a565b925050600181019050612db2565b5085925050509392505050565b600060a082019050612e096000830189612240565b612e166020830188612240565b8181036040830152612e29818688612d97565b9050612e38606083018561249d565b612e456080830184612240565b979650505050505050565b7f7a65726f20776974686472617700000000000000000000000000000000000000600082015250565b6000612e86600d836125c8565b9150612e9182612e50565b602082019050919050565b60006020820190508181036000830152612eb581612e79565b9050919050565b7f746f6f206d756368000000000000000000000000000000000000000000000000600082015250565b6000612ef26008836125c8565b9150612efd82612ebc565b602082019050919050565b60006020820190508181036000830152612f2181612ee5565b9050919050565b7f7374696c6c206c6f636b65640000000000000000000000000000000000000000600082015250565b6000612f5e600c836125c8565b9150612f6982612f28565b602082019050919050565b60006020820190508181036000830152612f8d81612f51565b9050919050565b6000606082019050612fa96000830186612240565b612fb66020830185612240565b612fc3604083018461250f565b949350505050565b6000604082019050612fe06000830185612240565b612fed6020830184612240565b9392505050565b7f6261642073706c69740000000000000000000000000000000000000000000000600082015250565b600061302a6009836125c8565b915061303582612ff4565b602082019050919050565b600060208201905081810360008301526130598161301d565b9050919050565b7f6275726e20746f6f206c6f770000000000000000000000000000000000000000600082015250565b6000613096600c836125c8565b91506130a182613060565b602082019050919050565b600060208201905081810360008301526130c581613089565b9050919050565b7f7a65726f20747265617375727900000000000000000000000000000000000000600082015250565b6000613102600d836125c8565b915061310d826130cc565b602082019050919050565b60006020820190508181036000830152613131816130f5565b9050919050565b600060608201905061314d600083018661249d565b61315a602083018561249d565b6131676040830184612240565b949350505050565b6000604082019050613184600083018561249d565b6131916020830184612240565b9392505050565b60006040820190506131ad600083018561249d565b6131ba60208301846129a9565b939250505056fea26469706673582212209b1427ef174c846713f3938160df5401850344f47b88b9377c0b2078ba61b1ad64736f6c63430008180033",
					"opcodes": "PUSH2 0x180 PUSH1 0x40 MSTORE PUSH2 0xFA0 PUSH1 0x2 SSTORE PUSH2 0x1194 PUSH1 0x3 SSTORE PUSH2 0x5DC PUSH1 0x4 SSTORE CALLVALUE DUP1 ISZERO PUSH3 0x24 JUMPI PUSH1 0x0 DUP1 REVERT JUMPDEST POP PUSH1 0x40 MLOAD PUSH3 0x3E6E CODESIZE SUB DUP1 PUSH3 0x3E6E DUP4 CODECOPY DUP2 DUP2 ADD PUSH1 0x40 MSTORE DUP2 ADD SWAP1 PUSH3 0x4A SWAP2 SWAP1 PUSH3 0x727 JUMP JUMPDEST CALLER PUSH1 0x0 PUSH20 0xFFFFFFFFFFFFFFFFFFFFFFFFFFFFFFFFFFFFFFFF AND DUP2 PUSH20 0xFFFFFFFFFFFFFFFFFFFFFFFFFFFFFFFFFFFFFFFF AND SUB PUSH3 0xC0 JUMPI PUSH1 0x0 PUSH1 0x40 MLOAD PUSH32 0x1E4FBDF700000000000000000000000000000000000000000000000000000000 DUP2 MSTORE PUSH1 0x4 ADD PUSH3 0xB7 SWAP2 SWAP1 PUSH3 0x801 JUMP JUMPDEST PUSH1 0x40 MLOAD DUP1 SWAP2 SUB SWAP1 REVERT JUMPDEST PUSH3 0xD1 DUP2 PUSH3 0x5BE PUSH1 0x20 SHL PUSH1 0x20 SHR JUMP JUMPDEST POP PUSH1 0x1 DUP1 DUP2 SWAP1 SSTORE POP PUSH1 0x0 PUSH20 0xFFFFFFFFFFFFFFFFFFFFFFFFFFFFFFFFFFFFFFFF AND DUP9 PUSH20 0xFFFFFFFFFFFFFFFFFFFFFFFFFFFFFFFFFFFFFFFF AND SUB PUSH3 0x14B JUMPI PUSH1 0x40 MLOAD PUSH32 0x8C379A000000000000000000000000000000000000000000000000000000000 DUP2 MSTORE PUSH1 0x4 ADD PUSH3 0x142 SWAP1 PUSH3 0x87F JUMP JUMPDEST PUSH1 0x40 MLOAD DUP1 SWAP2 SUB SWAP1 REVERT JUMPDEST PUSH1 0x0 PUSH20 0xFFFFFFFFFFFFFFFFFFFFFFFFFFFFFFFFFFFFFFFF AND DUP8 PUSH20 0xFFFFFFFFFFFFFFFFFFFFFFFFFFFFFFFFFFFFFFFF AND SUB PUSH3 0x1BD JUMPI PUSH1 0x40 MLOAD PUSH32 0x8C379A000000000000000000000000000000000000000000000000000000000 DUP2 MSTORE PUSH1 0x4 ADD PUSH3 0x1B4 SWAP1 PUSH3 0x8F1 JUMP JUMPDEST PUSH1 0x40 MLOAD DUP1 SWAP2 SUB SWAP1 REVERT JUMPDEST PUSH1 0x0 PUSH20 0xFFFFFFFFFFFFFFFFFFFFFFFFFFFFFFFFFFFFFFFF AND DUP7 PUSH20 0xFFFFFFFFFFFFFFFFFFFFFFFFFFFFFFFFFFFFFFFF AND SUB PUSH3 0x22F JUMPI PUSH1 0x40 MLOAD PUSH32 0x8C379A000000000000000000000000000000000000000000000000000000000 DUP2 MSTORE PUSH1 0x4 ADD PUSH3 0x226 SWAP1 PUSH3 0x963 JUMP JUMPDEST PUSH1 0x40 MLOAD DUP1 SWAP2 SUB SWAP1 REVERT JUMPDEST PUSH1 0x0 PUSH20 0xFFFFFFFFFFFFFFFFFFFFFFFFFFFFFFFFFFFFFFFF AND DUP6 PUSH20 0xFFFFFFFFFFFFFFFFFFFFFFFFFFFFFFFFFFFFFFFF AND SUB PUSH3 0x2A1 JUMPI PUSH1 0x40 MLOAD PUSH32 0x8C379A000000000000000000000000000000000000000000000000000000000 DUP2 MSTORE PUSH1 0x4 ADD PUSH3 0x298 SWAP1 PUSH3 0x9D5 JUMP JUMPDEST PUSH1 0x40 MLOAD DUP1 SWAP2 SUB SWAP1 REVERT JUMPDEST PUSH1 0x0 PUSH20 0xFFFFFFFFFFFFFFFFFFFFFFFFFFFFFFFFFFFFFFFF AND DUP5 PUSH20 0xFFFFFFFFFFFFFFFFFFFFFFFFFFFFFFFFFFFFFFFF AND SUB PUSH3 0x313 JUMPI PUSH1 0x40 MLOAD PUSH32 0x8C379A000000000000000000000000000000000000000000000000000000000 DUP2 MSTORE PUSH1 0x4 ADD PUSH3 0x30A SWAP1 PUSH3 0xA47 JUMP JUMPDEST PUSH1 0x40 MLOAD DUP1 SWAP2 SUB SWAP1 REVERT JUMPDEST PUSH1 0x0 PUSH20 0xFFFFFFFFFFFFFFFFFFFFFFFFFFFFFFFFFFFFFFFF AND DUP4 PUSH20 0xFFFFFFFFFFFFFFFFFFFFFFFFFFFFFFFFFFFFFFFF AND SUB PUSH3 0x385 JUMPI PUSH1 0x40 MLOAD PUSH32 0x8C379A000000000000000000000000000000000000000000000000000000000 DUP2 MSTORE PUSH1 0x4 ADD PUSH3 0x37C SWAP1 PUSH3 0xAB9 JUMP JUMPDEST PUSH1 0x40 MLOAD DUP1 SWAP2 SUB SWAP1 REVERT JUMPDEST PUSH1 0x0 PUSH20 0xFFFFFFFFFFFFFFFFFFFFFFFFFFFFFFFFFFFFFFFF AND DUP2 PUSH20 0xFFFFFFFFFFFFFFFFFFFFFFFFFFFFFFFFFFFFFFFF AND SUB PUSH3 0x3F7 JUMPI PUSH1 0x40 MLOAD PUSH32 0x8C379A000000000000000000000000000000000000000000000000000000000 DUP2 MSTORE PUSH1 0x4 ADD PUSH3 0x3EE SWAP1 PUSH3 0xB2B JUMP JUMPDEST PUSH1 0x40 MLOAD DUP1 SWAP2 SUB SWAP1 REVERT JUMPDEST DUP8 PUSH20 0xFFFFFFFFFFFFFFFFFFFFFFFFFFFFFFFFFFFFFFFF AND PUSH1 0x80 DUP2 PUSH20 0xFFFFFFFFFFFFFFFFFFFFFFFFFFFFFFFFFFFFFFFF AND DUP2 MSTORE POP POP DUP7 PUSH20 0xFFFFFFFFFFFFFFFFFFFFFFFFFFFFFFFFFFFFFFFF AND PUSH1 0xA0 DUP2 PUSH20 0xFFFFFFFFFFFFFFFFFFFFFFFFFFFFFFFFFFFFFFFF AND DUP2 MSTORE POP POP DUP6 PUSH20 0xFFFFFFFFFFFFFFFFFFFFFFFFFFFFFFFFFFFFFFFF AND PUSH1 0xC0 DUP2 PUSH20 0xFFFFFFFFFFFFFFFFFFFFFFFFFFFFFFFFFFFFFFFF AND DUP2 MSTORE POP POP DUP6 PUSH20 0xFFFFFFFFFFFFFFFFFFFFFFFFFFFFFFFFFFFFFFFF AND PUSH1 0xE0 DUP2 PUSH20 0xFFFFFFFFFFFFFFFFFFFFFFFFFFFFFFFFFFFFFFFF AND DUP2 MSTORE POP POP DUP5 PUSH20 0xFFFFFFFFFFFFFFFFFFFFFFFFFFFFFFFFFFFFFFFF AND PUSH2 0x100 DUP2 PUSH20 0xFFFFFFFFFFFFFFFFFFFFFFFFFFFFFFFFFFFFFFFF AND DUP2 MSTORE POP POP DUP4 PUSH20 0xFFFFFFFFFFFFFFFFFFFFFFFFFFFFFFFFFFFFFFFF AND PUSH2 0x120 DUP2 PUSH20 0xFFFFFFFFFFFFFFFFFFFFFFFFFFFFFFFFFFFFFFFF AND DUP2 MSTORE POP POP DUP3 PUSH20 0xFFFFFFFFFFFFFFFFFFFFFFFFFFFFFFFFFFFFFFFF AND PUSH2 0x140 DUP2 PUSH20 0xFFFFFFFFFFFFFFFFFFFFFFFFFFFFFFFFFFFFFFFF AND DUP2 MSTORE POP POP DUP2 PUSH2 0x160 DUP2 DUP2 MSTORE POP POP DUP1 PUSH1 0x5 PUSH1 0x0 PUSH2 0x100 EXP DUP2 SLOAD DUP2 PUSH20 0xFFFFFFFFFFFFFFFFFFFFFFFFFFFFFFFFFFFFFFFF MUL NOT AND SWAP1 DUP4 PUSH20 0xFFFFFFFFFFFFFFFFFFFFFFFFFFFFFFFFFFFFFFFF AND MUL OR SWAP1 SSTORE POP POP POP POP POP POP POP POP POP PUSH3 0xB4D JUMP JUMPDEST PUSH1 0x0 DUP1 PUSH1 0x0 SWAP1 SLOAD SWAP1 PUSH2 0x100 EXP SWAP1 DIV PUSH20 0xFFFFFFFFFFFFFFFFFFFFFFFFFFFFFFFFFFFFFFFF AND SWAP1 POP DUP2 PUSH1 0x0 DUP1 PUSH2 0x100 EXP DUP2 SLOAD DUP2 PUSH20 0xFFFFFFFFFFFFFFFFFFFFFFFFFFFFFFFFFFFFFFFF MUL NOT AND SWAP1 DUP4 PUSH20 0xFFFFFFFFFFFFFFFFFFFFFFFFFFFFFFFFFFFFFFFF AND MUL OR SWAP1 SSTORE POP DUP2 PUSH20 0xFFFFFFFFFFFFFFFFFFFFFFFFFFFFFFFFFFFFFFFF AND DUP2 PUSH20 0xFFFFFFFFFFFFFFFFFFFFFFFFFFFFFFFFFFFFFFFF AND PUSH32 0x8BE0079C531659141344CD1FD0A4F28419497F9722A3DAAFE3B4186F6B6457E0 PUSH1 0x40 MLOAD PUSH1 0x40 MLOAD DUP1 SWAP2 SUB SWAP1 LOG3 POP POP JUMP JUMPDEST PUSH1 0x0 DUP1 REVERT JUMPDEST PUSH1 0x0 PUSH20 0xFFFFFFFFFFFFFFFFFFFFFFFFFFFFFFFFFFFFFFFF DUP3 AND SWAP1 POP SWAP2 SWAP1 POP JUMP JUMPDEST PUSH1 0x0 PUSH3 0x6B4 DUP3 PUSH3 0x687 JUMP JUMPDEST SWAP1 POP SWAP2 SWAP1 POP JUMP JUMPDEST PUSH3 0x6C6 DUP2 PUSH3 0x6A7 JUMP JUMPDEST DUP2 EQ PUSH3 0x6D2 JUMPI PUSH1 0x0 DUP1 REVERT JUMPDEST POP JUMP JUMPDEST PUSH1 0x0 DUP2 MLOAD SWAP1 POP PUSH3 0x6E6 DUP2 PUSH3 0x6BB JUMP JUMPDEST SWAP3 SWAP2 POP POP JUMP JUMPDEST PUSH1 0x0 DUP2 SWAP1 POP SWAP2 SWAP1 POP JUMP JUMPDEST PUSH3 0x701 DUP2 PUSH3 0x6EC JUMP JUMPDEST DUP2 EQ PUSH3 0x70D JUMPI PUSH1 0x0 DUP1 REVERT JUMPDEST POP JUMP JUMPDEST PUSH1 0x0 DUP2 MLOAD SWAP1 POP PUSH3 0x721 DUP2 PUSH3 0x6F6 JUMP JUMPDEST SWAP3 SWAP2 POP POP JUMP JUMPDEST PUSH1 0x0 DUP1 PUSH1 0x0 DUP1 PUSH1 0x0 DUP1 PUSH1 0x0 DUP1 PUSH2 0x100 DUP10 DUP12 SUB SLT ISZERO PUSH3 0x74B JUMPI PUSH3 0x74A PUSH3 0x682 JUMP JUMPDEST JUMPDEST PUSH1 0x0 PUSH3 0x75B DUP12 DUP3 DUP13 ADD PUSH3 0x6D5 JUMP JUMPDEST SWAP9 POP POP PUSH1 0x20 PUSH3 0x76E DUP12 DUP3 DUP13 ADD PUSH3 0x6D5 JUMP JUMPDEST SWAP8 POP POP PUSH1 0x40 PUSH3 0x781 DUP12 DUP3 DUP13 ADD PUSH3 0x6D5 JUMP JUMPDEST SWAP7 POP POP PUSH1 0x60 PUSH3 0x794 DUP12 DUP3 DUP13 ADD PUSH3 0x6D5 JUMP JUMPDEST SWAP6 POP POP PUSH1 0x80 PUSH3 0x7A7 DUP12 DUP3 DUP13 ADD PUSH3 0x6D5 JUMP JUMPDEST SWAP5 POP POP PUSH1 0xA0 PUSH3 0x7BA DUP12 DUP3 DUP13 ADD PUSH3 0x6D5 JUMP JUMPDEST SWAP4 POP POP PUSH1 0xC0 PUSH3 0x7CD DUP12 DUP3 DUP13 ADD PUSH3 0x710 JUMP JUMPDEST SWAP3 POP POP PUSH1 0xE0 PUSH3 0x7E0 DUP12 DUP3 DUP13 ADD PUSH3 0x6D5 JUMP JUMPDEST SWAP2 POP POP SWAP3 SWAP6 SWAP9 POP SWAP3 SWAP6 SWAP9 SWAP1 SWAP4 SWAP7 POP JUMP JUMPDEST PUSH3 0x7FB DUP2 PUSH3 0x6A7 JUMP JUMPDEST DUP3 MSTORE POP POP JUMP JUMPDEST PUSH1 0x0 PUSH1 0x20 DUP3 ADD SWAP1 POP PUSH3 0x818 PUSH1 0x0 DUP4 ADD DUP5 PUSH3 0x7F0 JUMP JUMPDEST SWAP3 SWAP2 POP POP JUMP JUMPDEST PUSH1 0x0 DUP3 DUP3 MSTORE PUSH1 0x20 DUP3 ADD SWAP1 POP SWAP3 SWAP2 POP POP JUMP JUMPDEST PUSH32 0x746F6B656E30207A65726F000000000000000000000000000000000000000000 PUSH1 0x0 DUP3 ADD MSTORE POP JUMP JUMPDEST PUSH1 0x0 PUSH3 0x867 PUSH1 0xB DUP4 PUSH3 0x81E JUMP JUMPDEST SWAP2 POP PUSH3 0x874 DUP3 PUSH3 0x82F JUMP JUMPDEST PUSH1 0x20 DUP3 ADD SWAP1 POP SWAP2 SWAP1 POP JUMP JUMPDEST PUSH1 0x0 PUSH1 0x20 DUP3 ADD SWAP1 POP DUP2 DUP2 SUB PUSH1 0x0 DUP4 ADD MSTORE PUSH3 0x89A DUP2 PUSH3 0x858 JUMP JUMPDEST SWAP1 POP SWAP2 SWAP1 POP JUMP JUMPDEST PUSH32 0x746F6B656E31207A65726F000000000000000000000000000000000000000000 PUSH1 0x0 DUP3 ADD MSTORE POP JUMP JUMPDEST PUSH1 0x0 PUSH3 0x8D9 PUSH1 0xB DUP4 PUSH3 0x81E JUMP JUMPDEST SWAP2 POP PUSH3 0x8E6 DUP3 PUSH3 0x8A1 JUMP JUMPDEST PUSH1 0x20 DUP3 ADD SWAP1 POP SWAP2 SWAP1 POP JUMP JUMPDEST PUSH1 0x0 PUSH1 0x20 DUP3 ADD SWAP1 POP DUP2 DUP2 SUB PUSH1 0x0 DUP4 ADD MSTORE PUSH3 0x90C DUP2 PUSH3 0x8CA JUMP JUMPDEST SWAP1 POP SWAP2 SWAP1 POP JUMP JUMPDEST PUSH32 0x636F7265207A65726F0000000000000000000000000000000000000000000000 PUSH1 0x0 DUP3 ADD MSTORE POP JUMP JUMPDEST PUSH1 0x0 PUSH3 0x94B PUSH1 0x9 DUP4 PUSH3 0x81E JUMP JUMPDEST SWAP2 POP PUSH3 0x958 DUP3 PUSH3 0x913 JUMP JUMPDEST PUSH1 0x20 DUP3 ADD SWAP1 POP SWAP2 SWAP1 POP JUMP JUMPDEST PUSH1 0x0 PUSH1 0x20 DUP3 ADD SWAP1 POP DUP2 DUP2 SUB PUSH1 0x0 DUP4 ADD MSTORE PUSH3 0x97E DUP2 PUSH3 0x93C JUMP JUMPDEST SWAP1 POP SWAP2 SWAP1 POP JUMP JUMPDEST PUSH32 0x726577617264207A65726F000000000000000000000000000000000000000000 PUSH1 0x0 DUP3 ADD MSTORE POP JUMP JUMPDEST PUSH1 0x0 PUSH3 0x9BD PUSH1 0xB DUP4 PUSH3 0x81E JUMP JUMPDEST SWAP2 POP PUSH3 0x9CA DUP3 PUSH3 0x985 JUMP JUMPDEST PUSH1 0x20 DUP3 ADD SWAP1 POP SWAP2 SWAP1 POP JUMP JUMPDEST PUSH1 0x0 PUSH1 0x20 DUP3 ADD SWAP1 POP DUP2 DUP2 SUB PUSH1 0x0 DUP4 ADD MSTORE PUSH3 0x9F0 DUP2 PUSH3 0x9AE JUMP JUMPDEST SWAP1 POP SWAP2 SWAP1 POP JUMP JUMPDEST PUSH32 0x6661726D207A65726F0000000000000000000000000000000000000000000000 PUSH1 0x0 DUP3 ADD MSTORE POP JUMP JUMPDEST PUSH1 0x0 PUSH3 0xA2F PUSH1 0x9 DUP4 PUSH3 0x81E JUMP JUMPDEST SWAP2 POP PUSH3 0xA3C DUP3 PUSH3 0x9F7 JUMP JUMPDEST PUSH1 0x20 DUP3 ADD SWAP1 POP SWAP2 SWAP1 POP JUMP JUMPDEST PUSH1 0x0 PUSH1 0x20 DUP3 ADD SWAP1 POP DUP2 DUP2 SUB PUSH1 0x0 DUP4 ADD MSTORE PUSH3 0xA62 DUP2 PUSH3 0xA20 JUMP JUMPDEST SWAP1 POP SWAP2 SWAP1 POP JUMP JUMPDEST PUSH32 0x726F75746572207A65726F000000000000000000000000000000000000000000 PUSH1 0x0 DUP3 ADD MSTORE POP JUMP JUMPDEST PUSH1 0x0 PUSH3 0xAA1 PUSH1 0xB DUP4 PUSH3 0x81E JUMP JUMPDEST SWAP2 POP PUSH3 0xAAE DUP3 PUSH3 0xA69 JUMP JUMPDEST PUSH1 0x20 DUP3 ADD SWAP1 POP SWAP2 SWAP1 POP JUMP JUMPDEST PUSH1 0x0 PUSH1 0x20 DUP3 ADD SWAP1 POP DUP2 DUP2 SUB PUSH1 0x0 DUP4 ADD MSTORE PUSH3 0xAD4 DUP2 PUSH3 0xA92 JUMP JUMPDEST SWAP1 POP SWAP2 SWAP1 POP JUMP JUMPDEST PUSH32 0x7472656173757279207A65726F00000000000000000000000000000000000000 PUSH1 0x0 DUP3 ADD MSTORE POP JUMP JUMPDEST PUSH1 0x0 PUSH3 0xB13 PUSH1 0xD DUP4 PUSH3 0x81E JUMP JUMPDEST SWAP2 POP PUSH3 0xB20 DUP3 PUSH3 0xADB JUMP JUMPDEST PUSH1 0x20 DUP3 ADD SWAP1 POP SWAP2 SWAP1 POP JUMP JUMPDEST PUSH1 0x0 PUSH1 0x20 DUP3 ADD SWAP1 POP DUP2 DUP2 SUB PUSH1 0x0 DUP4 ADD MSTORE PUSH3 0xB46 DUP2 PUSH3 0xB04 JUMP JUMPDEST SWAP1 POP SWAP2 SWAP1 POP JUMP JUMPDEST PUSH1 0x80 MLOAD PUSH1 0xA0 MLOAD PUSH1 0xC0 MLOAD PUSH1 0xE0 MLOAD PUSH2 0x100 MLOAD PUSH2 0x120 MLOAD PUSH2 0x140 MLOAD PUSH2 0x160 MLOAD PUSH2 0x31F7 PUSH3 0xC77 PUSH1 0x0 CODECOPY PUSH1 0x0 DUP2 DUP2 PUSH2 0x86C ADD MSTORE DUP2 DUP2 PUSH2 0x92F ADD MSTORE DUP2 DUP2 PUSH2 0x9E3 ADD MSTORE DUP2 DUP2 PUSH2 0xC08 ADD MSTORE DUP2 DUP2 PUSH2 0xE3E ADD MSTORE PUSH2 0x1595 ADD MSTORE PUSH1 0x0 DUP2 DUP2 PUSH2 0xFA1 ADD MSTORE DUP2 DUP2 PUSH2 0x10A7 ADD MSTORE PUSH2 0x1B82 ADD MSTORE PUSH1 0x0 DUP2 DUP2 PUSH2 0x75B ADD MSTORE DUP2 DUP2 PUSH2 0x7C6 ADD MSTORE DUP2 DUP2 PUSH2 0x830 ADD MSTORE DUP2 DUP2 PUSH2 0x8F3 ADD MSTORE DUP2 DUP2 PUSH2 0x9A7 ADD MSTORE DUP2 DUP2 PUSH2 0xE02 ADD MSTORE DUP2 DUP2 PUSH2 0x1559 ADD MSTORE PUSH2 0x1774 ADD MSTORE PUSH1 0x0 DUP2 DUP2 PUSH2 0xD66 ADD MSTORE DUP2 DUP2 PUSH2 0xEB5 ADD MSTORE DUP2 DUP2 PUSH2 0xFC3 ADD MSTORE PUSH2 0x1B5E ADD MSTORE PUSH1 0x0 DUP2 DUP2 PUSH2 0x123E ADD MSTORE PUSH2 0x172A ADD MSTORE PUSH1 0x0 DUP2 DUP2 PUSH2 0x6C7 ADD MSTORE DUP2 DUP2 PUSH2 0x100B ADD MSTORE DUP2 DUP2 PUSH2 0x113F ADD MSTORE DUP2 DUP2 PUSH2 0x12F0 ADD MSTORE DUP2 DUP2 PUSH2 0x1674 ADD MSTORE DUP2 DUP2 PUSH2 0x1AB4 ADD MSTORE PUSH2 0x1C61 ADD MSTORE PUSH1 0x0 DUP2 DUP2 PUSH2 0x67A ADD MSTORE DUP2 DUP2 PUSH2 0x7E8 ADD MSTORE PUSH2 0x19D5 ADD MSTORE PUSH1 0x0 DUP2 DUP2 PUSH2 0x62D ADD MSTORE DUP2 DUP2 PUSH2 0x77D ADD MSTORE PUSH2 0xBDE ADD MSTORE PUSH2 0x31F7 PUSH1 0x0 RETURN INVALID PUSH1 0x80 PUSH1 0x40 MSTORE CALLVALUE DUP1 ISZERO PUSH2 0x10 JUMPI PUSH1 0x0 DUP1 REVERT JUMPDEST POP PUSH1 0x4 CALLDATASIZE LT PUSH2 0x1CE JUMPI PUSH1 0x0 CALLDATALOAD PUSH1 0xE0 SHR DUP1 PUSH4 0x700CD48E GT PUSH2 0x104 JUMPI DUP1 PUSH4 0xAAF5EB68 GT PUSH2 0xA2 JUMPI DUP1 PUSH4 0xF2FDE38B GT PUSH2 0x71 JUMPI DUP1 PUSH4 0xF2FDE38B EQ PUSH2 0x4C9 JUMPI DUP1 PUSH4 0xF7C618C1 EQ PUSH2 0x4E5 JUMPI DUP1 PUSH4 0xF887EA40 EQ PUSH2 0x503 JUMPI DUP1 PUSH4 0xFCCC2813 EQ PUSH2 0x521 JUMPI PUSH2 0x1CE JUMP JUMPDEST DUP1 PUSH4 0xAAF5EB68 EQ PUSH2 0x453 JUMPI DUP1 PUSH4 0xD21220A7 EQ PUSH2 0x471 JUMPI DUP1 PUSH4 0xF0F44260 EQ PUSH2 0x48F JUMPI DUP1 PUSH4 0xF2F4EB26 EQ PUSH2 0x4AB JUMPI PUSH2 0x1CE JUMP JUMPDEST DUP1 PUSH4 0x8DA5CB5B GT PUSH2 0xDE JUMPI DUP1 PUSH4 0x8DA5CB5B EQ PUSH2 0x3C7 JUMPI DUP1 PUSH4 0x8E3A7D84 EQ PUSH2 0x3E5 JUMPI DUP1 PUSH4 0xA372630D EQ PUSH2 0x415 JUMPI DUP1 PUSH4 0xA87430BA EQ PUSH2 0x41F JUMPI PUSH2 0x1CE JUMP JUMPDEST DUP1 PUSH4 0x700CD48E EQ PUSH2 0x383 JUMPI DUP1 PUSH4 0x715018A6 EQ PUSH2 0x39F JUMPI DUP1 PUSH4 0x82328FFC EQ PUSH2 0x3A9 JUMPI PUSH2 0x1CE JUMP JUMPDEST DUP1 PUSH4 0x2E1A7D4D GT PUSH2 0x171 JUMPI DUP1 PUSH4 0x53DEB3D6 GT PUSH2 0x14B JUMPI DUP1 PUSH4 0x53DEB3D6 EQ PUSH2 0x30B JUMPI DUP1 PUSH4 0x54E5CF76 EQ PUSH2 0x329 JUMPI DUP1 PUSH4 0x61D027B3 EQ PUSH2 0x347 JUMPI DUP1 PUSH4 0x6B8ACEB8 EQ PUSH2 0x365 JUMPI PUSH2 0x1CE JUMP JUMPDEST DUP1 PUSH4 0x2E1A7D4D EQ PUSH2 0x2B3 JUMPI DUP1 PUSH4 0x485D3834 EQ PUSH2 0x2CF JUMPI DUP1 PUSH4 0x4DC10EA1 EQ PUSH2 0x2ED JUMPI PUSH2 0x1CE JUMP JUMPDEST DUP1 PUSH4 0x15770F92 GT PUSH2 0x1AD JUMPI DUP1 PUSH4 0x15770F92 EQ PUSH2 0x22B JUMPI DUP1 PUSH4 0x278DE000 EQ PUSH2 0x249 JUMPI DUP1 PUSH4 0x27BD6E39 EQ PUSH2 0x267 JUMPI DUP1 PUSH4 0x2DA5FF09 EQ PUSH2 0x297 JUMPI PUSH2 0x1CE JUMP JUMPDEST DUP1 PUSH3 0xAEEF8A EQ PUSH2 0x1D3 JUMPI DUP1 PUSH4 0x117F00E EQ PUSH2 0x1EF JUMPI DUP1 PUSH4 0xDFE1681 EQ PUSH2 0x20D JUMPI JUMPDEST PUSH1 0x0 DUP1 REVERT JUMPDEST PUSH2 0x1ED PUSH1 0x4 DUP1 CALLDATASIZE SUB DUP2 ADD SWAP1 PUSH2 0x1E8 SWAP2 SWAP1 PUSH2 0x21ED JUMP JUMPDEST PUSH2 0x53F JUMP JUMPDEST STOP JUMPDEST PUSH2 0x1F7 PUSH2 0xBD6 JUMP JUMPDEST PUSH1 0x40 MLOAD PUSH2 0x204 SWAP2 SWAP1 PUSH2 0x224F JUMP JUMPDEST PUSH1 0x40 MLOAD DUP1 SWAP2 SUB SWAP1 RETURN JUMPDEST PUSH2 0x215 PUSH2 0xBDC JUMP JUMPDEST PUSH1 0x40 MLOAD PUSH2 0x222 SWAP2 SWAP1 PUSH2 0x22E9 JUMP JUMPDEST PUSH1 0x40 MLOAD DUP1 SWAP2 SUB SWAP1 RETURN JUMPDEST PUSH2 0x233 PUSH2 0xC00 JUMP JUMPDEST PUSH1 0x40 MLOAD PUSH2 0x240 SWAP2 SWAP1 PUSH2 0x224F JUMP JUMPDEST PUSH1 0x40 MLOAD DUP1 SWAP2 SUB SWAP1 RETURN JUMPDEST PUSH2 0x251 PUSH2 0xC06 JUMP JUMPDEST PUSH1 0x40 MLOAD PUSH2 0x25E SWAP2 SWAP1 PUSH2 0x224F JUMP JUMPDEST PUSH1 0x40 MLOAD DUP1 SWAP2 SUB SWAP1 RETURN JUMPDEST PUSH2 0x281 PUSH1 0x4 DUP1 CALLDATASIZE SUB DUP2 ADD SWAP1 PUSH2 0x27C SWAP2 SWAP1 PUSH2 0x2342 JUMP JUMPDEST PUSH2 0xC2A JUMP JUMPDEST PUSH1 0x40 MLOAD PUSH2 0x28E SWAP2 SWAP1 PUSH2 0x224F JUMP JUMPDEST PUSH1 0x40 MLOAD DUP1 SWAP2 SUB SWAP1 RETURN JUMPDEST PUSH2 0x2B1 PUSH1 0x4 DUP1 CALLDATASIZE SUB DUP2 ADD SWAP1 PUSH2 0x2AC SWAP2 SWAP1 PUSH2 0x23D4 JUMP JUMPDEST PUSH2 0xD15 JUMP JUMPDEST STOP JUMPDEST PUSH2 0x2CD PUSH1 0x4 DUP1 CALLDATASIZE SUB DUP2 ADD SWAP1 PUSH2 0x2C8 SWAP2 SWAP1 PUSH2 0x2434 JUMP JUMPDEST PUSH2 0x13C0 JUMP JUMPDEST STOP JUMPDEST PUSH2 0x2D7 PUSH2 0x1715 JUMP JUMPDEST PUSH1 0x40 MLOAD PUSH2 0x2E4 SWAP2 SWAP1 PUSH2 0x224F JUMP JUMPDEST PUSH1 0x40 MLOAD DUP1 SWAP2 SUB SWAP1 RETURN JUMPDEST PUSH2 0x2F5 PUSH2 0x171C JUMP JUMPDEST PUSH1 0x40 MLOAD PUSH2 0x302 SWAP2 SWAP1 PUSH2 0x224F JUMP JUMPDEST PUSH1 0x40 MLOAD DUP1 SWAP2 SUB SWAP1 RETURN JUMPDEST PUSH2 0x313 PUSH2 0x1722 JUMP JUMPDEST PUSH1 0x40 MLOAD PUSH2 0x320 SWAP2 SWAP1 PUSH2 0x224F JUMP JUMPDEST PUSH1 0x40 MLOAD DUP1 SWAP2 SUB SWAP1 RETURN JUMPDEST PUSH2 0x331 PUSH2 0x1728 JUMP JUMPDEST PUSH1 0x40 MLOAD PUSH2 0x33E SWAP2 SWAP1 PUSH2 0x2482 JUMP JUMPDEST PUSH1 0x40 MLOAD DUP1 SWAP2 SUB SWAP1 RETURN JUMPDEST PUSH2 0x34F PUSH2 0x174C JUMP JUMPDEST PUSH1 0x40 MLOAD PUSH2 0x35C SWAP2 SWAP1 PUSH2 0x24AC JUMP JUMPDEST PUSH1 0x40 MLOAD DUP1 SWAP2 SUB SWAP1 RETURN JUMPDEST PUSH2 0x36D PUSH2 0x1772 JUMP JUMPDEST PUSH1 0x40 MLOAD PUSH2 0x37A SWAP2 SWAP1 PUSH2 0x24E8 JUMP JUMPDEST PUSH1 0x40 MLOAD DUP1 SWAP2 SUB SWAP1 RETURN JUMPDEST PUSH2 0x39D PUSH1 0x4 DUP1 CALLDATASIZE SUB DUP2 ADD SWAP1 PUSH2 0x398 SWAP2 SWAP1 PUSH2 0x21ED JUMP JUMPDEST PUSH2 0x1796 JUMP JUMPDEST STOP JUMPDEST PUSH2 0x3A7 PUSH2 0x1857 JUMP JUMPDEST STOP JUMPDEST PUSH2 0x3B1 PUSH2 0x186B JUMP JUMPDEST PUSH1 0x40 MLOAD PUSH2 0x3BE SWAP2 SWAP1 PUSH2 0x224F JUMP JUMPDEST PUSH1 0x40 MLOAD DUP1 SWAP2 SUB SWAP1 RETURN JUMPDEST PUSH2 0x3CF PUSH2 0x1871 JUMP JUMPDEST PUSH1 0x40 MLOAD PUSH2 0x3DC SWAP2 SWAP1 PUSH2 0x24AC JUMP JUMPDEST PUSH1 0x40 MLOAD DUP1 SWAP2 SUB SWAP1 RETURN JUMPDEST PUSH2 0x3FF PUSH1 0x4 DUP1 CALLDATASIZE SUB DUP2 ADD SWAP1 PUSH2 0x3FA SWAP2 SWAP1 PUSH2 0x2342 JUMP JUMPDEST PUSH2 0x189A JUMP JUMPDEST PUSH1 0x40 MLOAD PUSH2 0x40C SWAP2 SWAP1 PUSH2 0x251E JUMP JUMPDEST PUSH1 0x40 MLOAD DUP1 SWAP2 SUB SWAP1 RETURN JUMPDEST PUSH2 0x41D PUSH2 0x1969 JUMP JUMPDEST STOP JUMPDEST PUSH2 0x439 PUSH1 0x4 DUP1 CALLDATASIZE SUB DUP2 ADD SWAP1 PUSH2 0x434 SWAP2 SWAP1 PUSH2 0x2342 JUMP JUMPDEST PUSH2 0x1984 JUMP JUMPDEST PUSH1 0x40 MLOAD PUSH2 0x44A SWAP6 SWAP5 SWAP4 SWAP3 SWAP2 SWAP1 PUSH2 0x2539 JUMP JUMPDEST PUSH1 0x40 MLOAD DUP1 SWAP2 SUB SWAP1 RETURN JUMPDEST PUSH2 0x45B PUSH2 0x19C7 JUMP JUMPDEST PUSH1 0x40 MLOAD PUSH2 0x468 SWAP2 SWAP1 PUSH2 0x224F JUMP JUMPDEST PUSH1 0x40 MLOAD DUP1 SWAP2 SUB SWAP1 RETURN JUMPDEST PUSH2 0x479 PUSH2 0x19D3 JUMP JUMPDEST PUSH1 0x40 MLOAD PUSH2 0x486 SWAP2 SWAP1 PUSH2 0x22E9 JUMP JUMPDEST PUSH1 0x40 MLOAD DUP1 SWAP2 SUB SWAP1 RETURN JUMPDEST PUSH2 0x4A9 PUSH1 0x4 DUP1 CALLDATASIZE SUB DUP2 ADD SWAP1 PUSH2 0x4A4 SWAP2 SWAP1 PUSH2 0x2342 JUMP JUMPDEST PUSH2 0x19F7 JUMP JUMPDEST STOP JUMPDEST PUSH2 0x4B3 PUSH2 0x1AB2 JUMP JUMPDEST PUSH1 0x40 MLOAD PUSH2 0x4C0 SWAP2 SWAP1 PUSH2 0x22E9 JUMP JUMPDEST PUSH1 0x40 MLOAD DUP1 SWAP2 SUB SWAP1 RETURN JUMPDEST PUSH2 0x4E3 PUSH1 0x4 DUP1 CALLDATASIZE SUB DUP2 ADD SWAP1 PUSH2 0x4DE SWAP2 SWAP1 PUSH2 0x2342 JUMP JUMPDEST PUSH2 0x1AD6 JUMP JUMPDEST STOP JUMPDEST PUSH2 0x4ED PUSH2 0x1B5C JUMP JUMPDEST PUSH1 0x40 MLOAD PUSH2 0x4FA SWAP2 SWAP1 PUSH2 0x22E9 JUMP JUMPDEST PUSH1 0x40 MLOAD DUP1 SWAP2 SUB SWAP1 RETURN JUMPDEST PUSH2 0x50B PUSH2 0x1B80 JUMP JUMPDEST PUSH1 0x40 MLOAD PUSH2 0x518 SWAP2 SWAP1 PUSH2 0x25AD JUMP JUMPDEST PUSH1 0x40 MLOAD DUP1 SWAP2 SUB SWAP1 RETURN JUMPDEST PUSH2 0x529 PUSH2 0x1BA4 JUMP JUMPDEST PUSH1 0x40 MLOAD PUSH2 0x536 SWAP2 SWAP1 PUSH2 0x24AC JUMP JUMPDEST PUSH1 0x40 MLOAD DUP1 SWAP2 SUB SWAP1 RETURN JUMPDEST PUSH2 0x547 PUSH2 0x1BA9 JUMP JUMPDEST PUSH1 0x0 DUP4 GT DUP1 ISZERO PUSH2 0x557 JUMPI POP PUSH1 0x0 DUP3 GT JUMPDEST PUSH2 0x596 JUMPI PUSH1 0x40 MLOAD PUSH32 0x8C379A000000000000000000000000000000000000000000000000000000000 DUP2 MSTORE PUSH1 0x4 ADD PUSH2 0x58D SWAP1 PUSH2 0x2625 JUMP JUMPDEST PUSH1 0x40 MLOAD DUP1 SWAP2 SUB SWAP1 REVERT JUMPDEST PUSH1 0x0 DUP2 GT PUSH2 0x5D9 JUMPI PUSH1 0x40 MLOAD PUSH32 0x8C379A000000000000000000000000000000000000000000000000000000000 DUP2 MSTORE PUSH1 0x4 ADD PUSH2 0x5D0 SWAP1 PUSH2 0x2691 JUMP JUMPDEST PUSH1 0x40 MLOAD DUP1 SWAP2 SUB SWAP1 REVERT JUMPDEST PUSH1 0x0 PUSH1 0x8 PUSH1 0x0 CALLER PUSH20 0xFFFFFFFFFFFFFFFFFFFFFFFFFFFFFFFFFFFFFFFF AND PUSH20 0xFFFFFFFFFFFFFFFFFFFFFFFFFFFFFFFFFFFFFFFF AND DUP2 MSTORE PUSH1 0x20 ADD SWAP1 DUP2 MSTORE PUSH1 0x20 ADD PUSH1 0x0 KECCAK256 SWAP1 POP PUSH2 0x625 CALLER PUSH2 0x1BEF JUMP JUMPDEST PUSH2 0x672 CALLER ADDRESS DUP7 PUSH32 0x0 PUSH20 0xFFFFFFFFFFFFFFFFFFFFFFFFFFFFFFFFFFFFFFFF AND PUSH2 0x1D27 SWAP1 SWAP4 SWAP3 SWAP2 SWAP1 PUSH4 0xFFFFFFFF AND JUMP JUMPDEST PUSH2 0x6BF CALLER ADDRESS DUP6 PUSH32 0x0 PUSH20 0xFFFFFFFFFFFFFFFFFFFFFFFFFFFFFFFFFFFFFFFF AND PUSH2 0x1D27 SWAP1 SWAP4 SWAP3 SWAP2 SWAP1 PUSH4 0xFFFFFFFF AND JUMP JUMPDEST PUSH2 0x70C CALLER ADDRESS DUP5 PUSH32 0x0 PUSH20 0xFFFFFFFFFFFFFFFFFFFFFFFFFFFFFFFFFFFFFFFF AND PUSH2 0x1D27 SWAP1 SWAP4 SWAP3 SWAP2 SWAP1 PUSH4 0xFFFFFFFF AND JUMP JUMPDEST PUSH2 0x717 DUP5 DUP5 DUP5 PUSH2 0x1DA9 JUMP JUMPDEST PUSH2 0x756 JUMPI PUSH1 0x40 MLOAD PUSH32 0x8C379A000000000000000000000000000000000000000000000000000000000 DUP2 MSTORE PUSH1 0x4 ADD PUSH2 0x74D SWAP1 PUSH2 0x26FD JUMP JUMPDEST PUSH1 0x40 MLOAD DUP1 SWAP2 SUB SWAP1 REVERT JUMPDEST PUSH2 0x7C1 PUSH32 0x0 DUP6 PUSH32 0x0 PUSH20 0xFFFFFFFFFFFFFFFFFFFFFFFFFFFFFFFFFFFFFFFF AND PUSH2 0x1DB7 SWAP1 SWAP3 SWAP2 SWAP1 PUSH4 0xFFFFFFFF AND JUMP JUMPDEST PUSH2 0x82C PUSH32 0x0 DUP5 PUSH32 0x0 PUSH20 0xFFFFFFFFFFFFFFFFFFFFFFFFFFFFFFFFFFFFFFFF AND PUSH2 0x1DB7 SWAP1 SWAP3 SWAP2 SWAP1 PUSH4 0xFFFFFFFF AND JUMP JUMPDEST PUSH1 0x0 PUSH32 0x0 PUSH20 0xFFFFFFFFFFFFFFFFFFFFFFFFFFFFFFFFFFFFFFFF AND PUSH4 0xAE967979 PUSH32 0x0 ADDRESS PUSH1 0x40 MLOAD DUP4 PUSH4 0xFFFFFFFF AND PUSH1 0xE0 SHL DUP2 MSTORE PUSH1 0x4 ADD PUSH2 0x8A9 SWAP3 SWAP2 SWAP1 PUSH2 0x271D JUMP JUMPDEST PUSH2 0x1C0 PUSH1 0x40 MLOAD DUP1 DUP4 SUB DUP2 DUP7 GAS STATICCALL ISZERO DUP1 ISZERO PUSH2 0x8C7 JUMPI RETURNDATASIZE PUSH1 0x0 DUP1 RETURNDATACOPY RETURNDATASIZE PUSH1 0x0 REVERT JUMPDEST POP POP POP POP PUSH1 0x40 MLOAD RETURNDATASIZE PUSH1 0x1F NOT PUSH1 0x1F DUP3 ADD AND DUP3 ADD DUP1 PUSH1 0x40 MSTORE POP DUP2 ADD SWAP1 PUSH2 0x8EB SWAP2 SWAP1 PUSH2 0x294F JUMP JUMPDEST PUSH1 0x20 ADD MLOAD SWAP1 POP PUSH32 0x0 PUSH20 0xFFFFFFFFFFFFFFFFFFFFFFFFFFFFFFFFFFFFFFFF AND PUSH4 0x2505C3D9 PUSH32 0x0 DUP8 DUP8 PUSH1 0x0 PUSH1 0x40 MLOAD DUP6 PUSH4 0xFFFFFFFF AND PUSH1 0xE0 SHL DUP2 MSTORE PUSH1 0x4 ADD PUSH2 0x971 SWAP5 SWAP4 SWAP3 SWAP2 SWAP1 PUSH2 0x29B8 JUMP JUMPDEST PUSH1 0x0 PUSH1 0x40 MLOAD DUP1 DUP4 SUB DUP2 PUSH1 0x0 DUP8 DUP1 EXTCODESIZE ISZERO DUP1 ISZERO PUSH2 0x98B JUMPI PUSH1 0x0 DUP1 REVERT JUMPDEST POP GAS CALL ISZERO DUP1 ISZERO PUSH2 0x99F JUMPI RETURNDATASIZE PUSH1 0x0 DUP1 RETURNDATACOPY RETURNDATASIZE PUSH1 0x0 REVERT JUMPDEST POP POP POP POP PUSH1 0x0 PUSH32 0x0 PUSH20 0xFFFFFFFFFFFFFFFFFFFFFFFFFFFFFFFFFFFFFFFF AND PUSH4 0xAE967979 PUSH32 0x0 ADDRESS PUSH1 0x40 MLOAD DUP4 PUSH4 0xFFFFFFFF AND PUSH1 0xE0 SHL DUP2 MSTORE PUSH1 0x4 ADD PUSH2 0xA20 SWAP3 SWAP2 SWAP1 PUSH2 0x271D JUMP JUMPDEST PUSH2 0x1C0 PUSH1 0x40 MLOAD DUP1 DUP4 SUB DUP2 DUP7 GAS STATICCALL ISZERO DUP1 ISZERO PUSH2 0xA3E JUMPI RETURNDATASIZE PUSH1 0x0 DUP1 RETURNDATACOPY RETURNDATASIZE PUSH1 0x0 REVERT JUMPDEST POP POP POP POP PUSH1 0x40 MLOAD RETURNDATASIZE PUSH1 0x1F NOT PUSH1 0x1F DUP3 ADD AND DUP3 ADD DUP1 PUSH1 0x40 MSTORE POP DUP2 ADD SWAP1 PUSH2 0xA62 SWAP2 SWAP1 PUSH2 0x294F JUMP JUMPDEST PUSH1 0x20 ADD MLOAD SWAP1 POP PUSH1 0x0 DUP3 DUP3 PUSH2 0xA76 SWAP2 SWAP1 PUSH2 0x2A2C JUMP JUMPDEST SWAP1 POP PUSH1 0x0 DUP2 GT PUSH2 0xABB JUMPI PUSH1 0x40 MLOAD PUSH32 0x8C379A000000000000000000000000000000000000000000000000000000000 DUP2 MSTORE PUSH1 0x4 ADD PUSH2 0xAB2 SWAP1 PUSH2 0x2AAC JUMP JUMPDEST PUSH1 0x40 MLOAD DUP1 SWAP2 SUB SWAP1 REVERT JUMPDEST DUP1 DUP5 PUSH1 0x0 ADD PUSH1 0x0 DUP3 DUP3 SLOAD PUSH2 0xACF SWAP2 SWAP1 PUSH2 0x2ACC JUMP JUMPDEST SWAP3 POP POP DUP2 SWAP1 SSTORE POP DUP5 DUP5 PUSH1 0x1 ADD PUSH1 0x0 DUP3 DUP3 SLOAD PUSH2 0xAEA SWAP2 SWAP1 PUSH2 0x2ACC JUMP JUMPDEST SWAP3 POP POP DUP2 SWAP1 SSTORE POP PUSH3 0x76A700 TIMESTAMP PUSH2 0xB00 SWAP2 SWAP1 PUSH2 0x2ACC JUMP JUMPDEST DUP5 PUSH1 0x3 ADD DUP2 SWAP1 SSTORE POP PUSH1 0x1 DUP5 PUSH1 0x4 ADD PUSH1 0x0 PUSH2 0x100 EXP DUP2 SLOAD DUP2 PUSH1 0xFF MUL NOT AND SWAP1 DUP4 ISZERO ISZERO MUL OR SWAP1 SSTORE POP DUP1 PUSH1 0x6 PUSH1 0x0 DUP3 DUP3 SLOAD PUSH2 0xB37 SWAP2 SWAP1 PUSH2 0x2ACC JUMP JUMPDEST SWAP3 POP POP DUP2 SWAP1 SSTORE POP PUSH8 0xDE0B6B3A7640000 PUSH1 0x7 SLOAD DUP6 PUSH1 0x0 ADD SLOAD PUSH2 0xB59 SWAP2 SWAP1 PUSH2 0x2B00 JUMP JUMPDEST PUSH2 0xB63 SWAP2 SWAP1 PUSH2 0x2B71 JUMP JUMPDEST DUP5 PUSH1 0x2 ADD DUP2 SWAP1 SSTORE POP CALLER PUSH20 0xFFFFFFFFFFFFFFFFFFFFFFFFFFFFFFFFFFFFFFFF AND PUSH32 0xA5C854539F6E93FCD4A8397BFAE8BDB751B4E819840F1C8681E6AD7FF19C5B5 DUP9 DUP9 DUP9 DUP6 DUP10 PUSH1 0x3 ADD SLOAD PUSH1 0x40 MLOAD PUSH2 0xBBD SWAP6 SWAP5 SWAP4 SWAP3 SWAP2 SWAP1 PUSH2 0x2BA2 JUMP JUMPDEST PUSH1 0x40 MLOAD DUP1 SWAP2 SUB SWAP1 LOG2 POP POP POP POP PUSH2 0xBD1 PUSH2 0x1EC6 JUMP JUMPDEST POP POP POP JUMP JUMPDEST PUSH1 0x7 SLOAD DUP2 JUMP JUMPDEST PUSH32 0x0 DUP2 JUMP JUMPDEST PUSH1 0x6 SLOAD DUP2 JUMP JUMPDEST PUSH32 0x0 DUP2 JUMP JUMPDEST PUSH1 0x0 DUP1 PUSH1 0x8 PUSH1 0x0 DUP5 PUSH20 0xFFFFFFFFFFFFFFFFFFFFFFFFFFFFFFFFFFFFFFFF AND PUSH20 0xFFFFFFFFFFFFFFFFFFFFFFFFFFFFFFFFFFFFFFFF AND DUP2 MSTORE PUSH1 0x20 ADD SWAP1 DUP2 MSTORE PUSH1 0x20 ADD PUSH1 0x0 KECCAK256 PUSH1 0x40 MLOAD DUP1 PUSH1 0xA0 ADD PUSH1 0x40 MSTORE SWAP1 DUP2 PUSH1 0x0 DUP3 ADD SLOAD DUP2 MSTORE PUSH1 0x20 ADD PUSH1 0x1 DUP3 ADD SLOAD DUP2 MSTORE PUSH1 0x20 ADD PUSH1 0x2 DUP3 ADD SLOAD DUP2 MSTORE PUSH1 0x20 ADD PUSH1 0x3 DUP3 ADD SLOAD DUP2 MSTORE PUSH1 0x20 ADD PUSH1 0x4 DUP3 ADD PUSH1 0x0 SWAP1 SLOAD SWAP1 PUSH2 0x100 EXP SWAP1 DIV PUSH1 0xFF AND ISZERO ISZERO ISZERO ISZERO DUP2 MSTORE POP POP SWAP1 POP PUSH1 0x0 DUP2 PUSH1 0x0 ADD MLOAD SUB PUSH2 0xCD2 JUMPI PUSH1 0x0 SWAP2 POP POP PUSH2 0xD10 JUMP JUMPDEST PUSH1 0x0 PUSH8 0xDE0B6B3A7640000 PUSH1 0x7 SLOAD DUP4 PUSH1 0x0 ADD MLOAD PUSH2 0xCEF SWAP2 SWAP1 PUSH2 0x2B00 JUMP JUMPDEST PUSH2 0xCF9 SWAP2 SWAP1 PUSH2 0x2B71 JUMP JUMPDEST SWAP1 POP DUP2 PUSH1 0x40 ADD MLOAD DUP2 PUSH2 0xD0B SWAP2 SWAP1 PUSH2 0x2A2C JUMP JUMPDEST SWAP3 POP POP POP JUMPDEST SWAP2 SWAP1 POP JUMP JUMPDEST PUSH2 0xD1D PUSH2 0x1BA9 JUMP JUMPDEST PUSH1 0x0 PUSH1 0x6 SLOAD GT PUSH2 0xD62 JUMPI PUSH1 0x40 MLOAD PUSH32 0x8C379A000000000000000000000000000000000000000000000000000000000 DUP2 MSTORE PUSH1 0x4 ADD PUSH2 0xD59 SWAP1 PUSH2 0x2C41 JUMP JUMPDEST PUSH1 0x40 MLOAD DUP1 SWAP2 SUB SWAP1 REVERT JUMPDEST PUSH1 0x0 PUSH32 0x0 PUSH20 0xFFFFFFFFFFFFFFFFFFFFFFFFFFFFFFFFFFFFFFFF AND PUSH4 0x70A08231 ADDRESS PUSH1 0x40 MLOAD DUP3 PUSH4 0xFFFFFFFF AND PUSH1 0xE0 SHL DUP2 MSTORE PUSH1 0x4 ADD PUSH2 0xDBD SWAP2 SWAP1 PUSH2 0x24AC JUMP JUMPDEST PUSH1 0x20 PUSH1 0x40 MLOAD DUP1 DUP4 SUB DUP2 DUP7 GAS STATICCALL ISZERO DUP1 ISZERO PUSH2 0xDDA JUMPI RETURNDATASIZE PUSH1 0x0 DUP1 RETURNDATACOPY RETURNDATASIZE PUSH1 0x0 REVERT JUMPDEST POP POP POP POP PUSH1 0x40 MLOAD RETURNDATASIZE PUSH1 0x1F NOT PUSH1 0x1F DUP3 ADD AND DUP3 ADD DUP1 PUSH1 0x40 MSTORE POP DUP2 ADD SWAP1 PUSH2 0xDFE SWAP2 SWAP1 PUSH2 0x2C61 JUMP JUMPDEST SWAP1 POP PUSH32 0x0 PUSH20 0xFFFFFFFFFFFFFFFFFFFFFFFFFFFFFFFFFFFFFFFF AND PUSH4 0x33CFCD3B PUSH32 0x0 PUSH1 0x0 DUP1 PUSH1 0x40 MLOAD DUP5 PUSH4 0xFFFFFFFF AND PUSH1 0xE0 SHL DUP2 MSTORE PUSH1 0x4 ADD PUSH2 0xE7E SWAP4 SWAP3 SWAP2 SWAP1 PUSH2 0x2C8E JUMP JUMPDEST PUSH1 0x0 PUSH1 0x40 MLOAD DUP1 DUP4 SUB DUP2 PUSH1 0x0 DUP8 DUP1 EXTCODESIZE ISZERO DUP1 ISZERO PUSH2 0xE98 JUMPI PUSH1 0x0 DUP1 REVERT JUMPDEST POP GAS CALL ISZERO DUP1 ISZERO PUSH2 0xEAC JUMPI RETURNDATASIZE PUSH1 0x0 DUP1 RETURNDATACOPY RETURNDATASIZE PUSH1 0x0 REVERT JUMPDEST POP POP POP POP PUSH1 0x0 DUP2 PUSH32 0x0 PUSH20 0xFFFFFFFFFFFFFFFFFFFFFFFFFFFFFFFFFFFFFFFF AND PUSH4 0x70A08231 ADDRESS PUSH1 0x40 MLOAD DUP3 PUSH4 0xFFFFFFFF AND PUSH1 0xE0 SHL DUP2 MSTORE PUSH1 0x4 ADD PUSH2 0xF0C SWAP2 SWAP1 PUSH2 0x24AC JUMP JUMPDEST PUSH1 0x20 PUSH1 0x40 MLOAD DUP1 DUP4 SUB DUP2 DUP7 GAS STATICCALL ISZERO DUP1 ISZERO PUSH2 0xF29 JUMPI RETURNDATASIZE PUSH1 0x0 DUP1 RETURNDATACOPY RETURNDATASIZE PUSH1 0x0 REVERT JUMPDEST POP POP POP POP PUSH1 0x40 MLOAD RETURNDATASIZE PUSH1 0x1F NOT PUSH1 0x1F DUP3 ADD AND DUP3 ADD DUP1 PUSH1 0x40 MSTORE POP DUP2 ADD SWAP1 PUSH2 0xF4D SWAP2 SWAP1 PUSH2 0x2C61 JUMP JUMPDEST PUSH2 0xF57 SWAP2 SWAP1 PUSH2 0x2A2C JUMP JUMPDEST SWAP1 POP PUSH1 0x0 DUP2 GT PUSH2 0xF9C JUMPI PUSH1 0x40 MLOAD PUSH32 0x8C379A000000000000000000000000000000000000000000000000000000000 DUP2 MSTORE PUSH1 0x4 ADD PUSH2 0xF93 SWAP1 PUSH2 0x2D11 JUMP JUMPDEST PUSH1 0x40 MLOAD DUP1 SWAP2 SUB SWAP1 REVERT JUMPDEST PUSH2 0x1007 PUSH32 0x0 DUP3 PUSH32 0x0 PUSH20 0xFFFFFFFFFFFFFFFFFFFFFFFFFFFFFFFFFFFFFFFF AND PUSH2 0x1DB7 SWAP1 SWAP3 SWAP2 SWAP1 PUSH4 0xFFFFFFFF AND JUMP JUMPDEST PUSH1 0x0 PUSH32 0x0 PUSH20 0xFFFFFFFFFFFFFFFFFFFFFFFFFFFFFFFFFFFFFFFF AND PUSH4 0x70A08231 ADDRESS PUSH1 0x40 MLOAD DUP3 PUSH4 0xFFFFFFFF AND PUSH1 0xE0 SHL DUP2 MSTORE PUSH1 0x4 ADD PUSH2 0x1062 SWAP2 SWAP1 PUSH2 0x24AC JUMP JUMPDEST PUSH1 0x20 PUSH1 0x40 MLOAD DUP1 DUP4 SUB DUP2 DUP7 GAS STATICCALL ISZERO DUP1 ISZERO PUSH2 0x107F JUMPI RETURNDATASIZE PUSH1 0x0 DUP1 RETURNDATACOPY RETURNDATASIZE PUSH1 0x0 REVERT JUMPDEST POP POP POP POP PUSH1 0x40 MLOAD RETURNDATASIZE PUSH1 0x1F NOT PUSH1 0x1F DUP3 ADD AND DUP3 ADD DUP1 PUSH1 0x40 MSTORE POP DUP2 ADD SWAP1 PUSH2 0x10A3 SWAP2 SWAP1 PUSH2 0x2C61 JUMP JUMPDEST SWAP1 POP PUSH32 0x0 PUSH20 0xFFFFFFFFFFFFFFFFFFFFFFFFFFFFFFFFFFFFFFFF AND PUSH4 0x5C11D795 DUP4 DUP7 DUP10 DUP10 ADDRESS TIMESTAMP PUSH1 0x40 MLOAD DUP8 PUSH4 0xFFFFFFFF AND PUSH1 0xE0 SHL DUP2 MSTORE PUSH1 0x4 ADD PUSH2 0x1108 SWAP7 SWAP6 SWAP5 SWAP4 SWAP3 SWAP2 SWAP1 PUSH2 0x2DF4 JUMP JUMPDEST PUSH1 0x0 PUSH1 0x40 MLOAD DUP1 DUP4 SUB DUP2 PUSH1 0x0 DUP8 DUP1 EXTCODESIZE ISZERO DUP1 ISZERO PUSH2 0x1122 JUMPI PUSH1 0x0 DUP1 REVERT JUMPDEST POP GAS CALL ISZERO DUP1 ISZERO PUSH2 0x1136 JUMPI RETURNDATASIZE PUSH1 0x0 DUP1 RETURNDATACOPY RETURNDATASIZE PUSH1 0x0 REVERT JUMPDEST POP POP POP POP PUSH1 0x0 DUP2 PUSH32 0x0 PUSH20 0xFFFFFFFFFFFFFFFFFFFFFFFFFFFFFFFFFFFFFFFF AND PUSH4 0x70A08231 ADDRESS PUSH1 0x40 MLOAD DUP3 PUSH4 0xFFFFFFFF AND PUSH1 0xE0 SHL DUP2 MSTORE PUSH1 0x4 ADD PUSH2 0x1196 SWAP2 SWAP1 PUSH2 0x24AC JUMP JUMPDEST PUSH1 0x20 PUSH1 0x40 MLOAD DUP1 DUP4 SUB DUP2 DUP7 GAS STATICCALL ISZERO DUP1 ISZERO PUSH2 0x11B3 JUMPI RETURNDATASIZE PUSH1 0x0 DUP1 RETURNDATACOPY RETURNDATASIZE PUSH1 0x0 REVERT JUMPDEST POP POP POP POP PUSH1 0x40 MLOAD RETURNDATASIZE PUSH1 0x1F NOT PUSH1 0x1F DUP3 ADD AND DUP3 ADD DUP1 PUSH1 0x40 MSTORE POP DUP2 ADD SWAP1 PUSH2 0x11D7 SWAP2 SWAP1 PUSH2 0x2C61 JUMP JUMPDEST PUSH2 0x11E1 SWAP2 SWAP1 PUSH2 0x2A2C JUMP JUMPDEST SWAP1 POP PUSH1 0x0 PUSH2 0x2710 PUSH1 0x2 SLOAD DUP4 PUSH2 0x11F6 SWAP2 SWAP1 PUSH2 0x2B00 JUMP JUMPDEST PUSH2 0x1200 SWAP2 SWAP1 PUSH2 0x2B71 JUMP JUMPDEST SWAP1 POP PUSH1 0x0 PUSH2 0x2710 PUSH1 0x3 SLOAD DUP5 PUSH2 0x1215 SWAP2 SWAP1 PUSH2 0x2B00 JUMP JUMPDEST PUSH2 0x121F SWAP2 SWAP1 PUSH2 0x2B71 JUMP JUMPDEST SWAP1 POP PUSH1 0x0 DUP2 DUP4 DUP6 PUSH2 0x1230 SWAP2 SWAP1 PUSH2 0x2A2C JUMP JUMPDEST PUSH2 0x123A SWAP2 SWAP1 PUSH2 0x2A2C JUMP JUMPDEST SWAP1 POP PUSH32 0x0 PUSH20 0xFFFFFFFFFFFFFFFFFFFFFFFFFFFFFFFFFFFFFFFF AND PUSH4 0x42966C68 DUP5 PUSH1 0x40 MLOAD DUP3 PUSH4 0xFFFFFFFF AND PUSH1 0xE0 SHL DUP2 MSTORE PUSH1 0x4 ADD PUSH2 0x1295 SWAP2 SWAP1 PUSH2 0x224F JUMP JUMPDEST PUSH1 0x0 PUSH1 0x40 MLOAD DUP1 DUP4 SUB DUP2 PUSH1 0x0 DUP8 DUP1 EXTCODESIZE ISZERO DUP1 ISZERO PUSH2 0x12AF JUMPI PUSH1 0x0 DUP1 REVERT JUMPDEST POP GAS CALL ISZERO DUP1 ISZERO PUSH2 0x12C3 JUMPI RETURNDATASIZE PUSH1 0x0 DUP1 RETURNDATACOPY RETURNDATASIZE PUSH1 0x0 REVERT JUMPDEST POP POP POP POP PUSH2 0x1334 PUSH1 0x5 PUSH1 0x0 SWAP1 SLOAD SWAP1 PUSH2 0x100 EXP SWAP1 DIV PUSH20 0xFFFFFFFFFFFFFFFFFFFFFFFFFFFFFFFFFFFFFFFF AND DUP3 PUSH32 0x0 PUSH20 0xFFFFFFFFFFFFFFFFFFFFFFFFFFFFFFFFFFFFFFFF AND PUSH2 0x1ECF SWAP1 SWAP3 SWAP2 SWAP1 PUSH4 0xFFFFFFFF AND JUMP JUMPDEST PUSH1 0x6 SLOAD PUSH8 0xDE0B6B3A7640000 DUP4 PUSH2 0x134B SWAP2 SWAP1 PUSH2 0x2B00 JUMP JUMPDEST PUSH2 0x1355 SWAP2 SWAP1 PUSH2 0x2B71 JUMP JUMPDEST PUSH1 0x7 PUSH1 0x0 DUP3 DUP3 SLOAD PUSH2 0x1366 SWAP2 SWAP1 PUSH2 0x2ACC JUMP JUMPDEST SWAP3 POP POP DUP2 SWAP1 SSTORE POP PUSH32 0x3F48DF85479F6C561DAF949B29227CD56E69F1E817DDF5081F85A18443D9C022 DUP7 DUP6 DUP6 DUP6 DUP6 PUSH1 0x40 MLOAD PUSH2 0x13A4 SWAP6 SWAP5 SWAP4 SWAP3 SWAP2 SWAP1 PUSH2 0x2BA2 JUMP JUMPDEST PUSH1 0x40 MLOAD DUP1 SWAP2 SUB SWAP1 LOG1 POP POP POP POP POP POP POP PUSH2 0x13BB PUSH2 0x1EC6 JUMP JUMPDEST POP POP POP JUMP JUMPDEST PUSH2 0x13C8 PUSH2 0x1BA9 JUMP JUMPDEST PUSH1 0x0 PUSH1 0x8 PUSH1 0x0 CALLER PUSH20 0xFFFFFFFFFFFFFFFFFFFFFFFFFFFFFFFFFFFFFFFF AND PUSH20 0xFFFFFFFFFFFFFFFFFFFFFFFFFFFFFFFFFFFFFFFF AND DUP2 MSTORE PUSH1 0x20 ADD SWAP1 DUP2 MSTORE PUSH1 0x20 ADD PUSH1 0x0 KECCAK256 SWAP1 POP PUSH1 0x0 DUP3 GT PUSH2 0x144E JUMPI PUSH1 0x40 MLOAD PUSH32 0x8C379A000000000000000000000000000000000000000000000000000000000 DUP2 MSTORE PUSH1 0x4 ADD PUSH2 0x1445 SWAP1 PUSH2 0x2E9C JUMP JUMPDEST PUSH1 0x40 MLOAD DUP1 SWAP2 SUB SWAP1 REVERT JUMPDEST DUP2 DUP2 PUSH1 0x0 ADD SLOAD LT ISZERO PUSH2 0x1495 JUMPI PUSH1 0x40 MLOAD PUSH32 0x8C379A000000000000000000000000000000000000000000000000000000000 DUP2 MSTORE PUSH1 0x4 ADD PUSH2 0x148C SWAP1 PUSH2 0x2F08 JUMP JUMPDEST PUSH1 0x40 MLOAD DUP1 SWAP2 SUB SWAP1 REVERT JUMPDEST DUP1 PUSH1 0x3 ADD SLOAD TIMESTAMP LT ISZERO PUSH2 0x14DC JUMPI PUSH1 0x40 MLOAD PUSH32 0x8C379A000000000000000000000000000000000000000000000000000000000 DUP2 MSTORE PUSH1 0x4 ADD PUSH2 0x14D3 SWAP1 PUSH2 0x2F74 JUMP JUMPDEST PUSH1 0x40 MLOAD DUP1 SWAP2 SUB SWAP1 REVERT JUMPDEST PUSH2 0x14E5 CALLER PUSH2 0x1BEF JUMP JUMPDEST PUSH1 0x0 DUP2 PUSH1 0x0 ADD SLOAD DUP4 DUP4 PUSH1 0x1 ADD SLOAD PUSH2 0x14FC SWAP2 SWAP1 PUSH2 0x2B00 JUMP JUMPDEST PUSH2 0x1506 SWAP2 SWAP1 PUSH2 0x2B71 JUMP JUMPDEST SWAP1 POP DUP3 DUP3 PUSH1 0x0 ADD PUSH1 0x0 DUP3 DUP3 SLOAD PUSH2 0x151C SWAP2 SWAP1 PUSH2 0x2A2C JUMP JUMPDEST SWAP3 POP POP DUP2 SWAP1 SSTORE POP DUP1 DUP3 PUSH1 0x1 ADD PUSH1 0x0 DUP3 DUP3 SLOAD PUSH2 0x1537 SWAP2 SWAP1 PUSH2 0x2A2C JUMP JUMPDEST SWAP3 POP POP DUP2 SWAP1 SSTORE POP DUP3 PUSH1 0x6 PUSH1 0x0 DUP3 DUP3 SLOAD PUSH2 0x1550 SWAP2 SWAP1 PUSH2 0x2A2C JUMP JUMPDEST SWAP3 POP POP DUP2 SWAP1 SSTORE POP PUSH32 0x0 PUSH20 0xFFFFFFFFFFFFFFFFFFFFFFFFFFFFFFFFFFFFFFFF AND PUSH4 0x33CFCD3B PUSH32 0x0 DUP6 PUSH1 0x0 PUSH1 0x40 MLOAD DUP5 PUSH4 0xFFFFFFFF AND PUSH1 0xE0 SHL DUP2 MSTORE PUSH1 0x4 ADD PUSH2 0x15D5 SWAP4 SWAP3 SWAP2 SWAP1 PUSH2 0x2F94 JUMP JUMPDEST PUSH1 0x0 PUSH1 0x40 MLOAD DUP1 DUP4 SUB DUP2 PUSH1 0x0 DUP8 DUP1 EXTCODESIZE ISZERO DUP1 ISZERO PUSH2 0x15EF JUMPI PUSH1 0x0 DUP1 REVERT JUMPDEST POP GAS CALL ISZERO DUP1 ISZERO PUSH2 0x1603 JUMPI RETURNDATASIZE PUSH1 0x0 DUP1 RETURNDATACOPY RETURNDATASIZE PUSH1 0x0 REVERT JUMPDEST POP POP POP POP PUSH1 0x0 DUP3 PUSH1 0x0 ADD SLOAD SUB PUSH2 0x163F JUMPI PUSH1 0x0 DUP3 PUSH1 0x4 ADD PUSH1 0x0 PUSH2 0x100 EXP DUP2 SLOAD DUP2 PUSH1 0xFF MUL NOT AND SWAP1 DUP4 ISZERO ISZERO MUL OR SWAP1 SSTORE POP PUSH1 0x0 DUP3 PUSH1 0x2 ADD DUP2 SWAP1 SSTORE POP PUSH2 0x166D JUMP JUMPDEST PUSH8 0xDE0B6B3A7640000 PUSH1 0x7 SLOAD DUP4 PUSH1 0x0 ADD SLOAD PUSH2 0x165A SWAP2 SWAP1 PUSH2 0x2B00 JUMP JUMPDEST PUSH2 0x1664 SWAP2 SWAP1 PUSH2 0x2B71 JUMP JUMPDEST DUP3 PUSH1 0x2 ADD DUP2 SWAP1 SSTORE POP JUMPDEST PUSH2 0x16B8 CALLER DUP3 PUSH32 0x0 PUSH20 0xFFFFFFFFFFFFFFFFFFFFFFFFFFFFFFFFFFFFFFFF AND PUSH2 0x1ECF SWAP1 SWAP3 SWAP2 SWAP1 PUSH4 0xFFFFFFFF AND JUMP JUMPDEST CALLER PUSH20 0xFFFFFFFFFFFFFFFFFFFFFFFFFFFFFFFFFFFFFFFF AND PUSH32 0x92CCF450A286A957AF52509BC1C9939D1A6A481783E142E41E2499F0BB66EBC6 DUP5 DUP4 PUSH1 0x40 MLOAD PUSH2 0x1700 SWAP3 SWAP2 SWAP1 PUSH2 0x2FCB JUMP JUMPDEST PUSH1 0x40 MLOAD DUP1 SWAP2 SUB SWAP1 LOG2 POP POP PUSH2 0x1712 PUSH2 0x1EC6 JUMP JUMPDEST POP JUMP JUMPDEST PUSH3 0x76A700 DUP2 JUMP JUMPDEST PUSH1 0x4 SLOAD DUP2 JUMP JUMPDEST PUSH1 0x2 SLOAD DUP2 JUMP JUMPDEST PUSH32 0x0 DUP2 JUMP JUMPDEST PUSH1 0x5 PUSH1 0x0 SWAP1 SLOAD SWAP1 PUSH2 0x100 EXP SWAP1 DIV PUSH20 0xFFFFFFFFFFFFFFFFFFFFFFFFFFFFFFFFFFFFFFFF AND DUP2 JUMP JUMPDEST PUSH32 0x0 DUP2 JUMP JUMPDEST PUSH2 0x179E PUSH2 0x1F4E JUMP JUMPDEST PUSH2 0x2710 DUP2 DUP4 DUP6 PUSH2 0x17AE SWAP2 SWAP1 PUSH2 0x2ACC JUMP JUMPDEST PUSH2 0x17B8 SWAP2 SWAP1 PUSH2 0x2ACC JUMP JUMPDEST EQ PUSH2 0x17F8 JUMPI PUSH1 0x40 MLOAD PUSH32 0x8C379A000000000000000000000000000000000000000000000000000000000 DUP2 MSTORE PUSH1 0x4 ADD PUSH2 0x17EF SWAP1 PUSH2 0x3040 JUMP JUMPDEST PUSH1 0x40 MLOAD DUP1 SWAP2 SUB SWAP1 REVERT JUMPDEST PUSH2 0xBB8 DUP4 LT ISZERO PUSH2 0x183D JUMPI PUSH1 0x40 MLOAD PUSH32 0x8C379A000000000000000000000000000000000000000000000000000000000 DUP2 MSTORE PUSH1 0x4 ADD PUSH2 0x1834 SWAP1 PUSH2 0x30AC JUMP JUMPDEST PUSH1 0x40 MLOAD DUP1 SWAP2 SUB SWAP1 REVERT JUMPDEST DUP3 PUSH1 0x2 DUP2 SWAP1 SSTORE POP DUP2 PUSH1 0x3 DUP2 SWAP1 SSTORE POP DUP1 PUSH1 0x4 DUP2 SWAP1 SSTORE POP POP POP POP JUMP JUMPDEST PUSH2 0x185F PUSH2 0x1F4E JUMP JUMPDEST PUSH2 0x1869 PUSH1 0x0 PUSH2 0x1FD5 JUMP JUMPDEST JUMP JUMPDEST PUSH1 0x3 SLOAD DUP2 JUMP JUMPDEST PUSH1 0x0 DUP1 PUSH1 0x0 SWAP1 SLOAD SWAP1 PUSH2 0x100 EXP SWAP1 DIV PUSH20 0xFFFFFFFFFFFFFFFFFFFFFFFFFFFFFFFFFFFFFFFF AND SWAP1 POP SWAP1 JUMP JUMPDEST PUSH1 0x0 DUP1 PUSH1 0x8 PUSH1 0x0 DUP5 PUSH20 0xFFFFFFFFFFFFFFFFFFFFFFFFFFFFFFFFFFFFFFFF AND PUSH20 0xFFFFFFFFFFFFFFFFFFFFFFFFFFFFFFFFFFFFFFFF AND DUP2 MSTORE PUSH1 0x20 ADD SWAP1 DUP2 MSTORE PUSH1 0x20 ADD PUSH1 0x0 KECCAK256 PUSH1 0x40 MLOAD DUP1 PUSH1 0xA0 ADD PUSH1 0x40 MSTORE SWAP1 DUP2 PUSH1 0x0 DUP3 ADD SLOAD DUP2 MSTORE PUSH1 0x20 ADD PUSH1 0x1 DUP3 ADD SLOAD DUP2 MSTORE PUSH1 0x20 ADD PUSH1 0x2 DUP3 ADD SLOAD DUP2 MSTORE PUSH1 0x20 ADD PUSH1 0x3 DUP3 ADD SLOAD DUP2 MSTORE PUSH1 0x20 ADD PUSH1 0x4 DUP3 ADD PUSH1 0x0 SWAP1 SLOAD SWAP1 PUSH2 0x100 EXP SWAP1 DIV PUSH1 0xFF AND ISZERO ISZERO ISZERO ISZERO DUP2 MSTORE POP POP SWAP1 POP DUP1 PUSH1 0x80 ADD MLOAD DUP1 ISZERO PUSH2 0x1941 JUMPI POP PUSH1 0x0 DUP2 PUSH1 0x0 ADD MLOAD GT JUMPDEST DUP1 ISZERO PUSH2 0x1951 JUMPI POP PUSH1 0x0 DUP2 PUSH1 0x20 ADD MLOAD GT JUMPDEST DUP1 ISZERO PUSH2 0x1961 JUMPI POP DUP1 PUSH1 0x60 ADD MLOAD TIMESTAMP LT ISZERO JUMPDEST SWAP2 POP POP SWAP2 SWAP1 POP JUMP JUMPDEST PUSH2 0x1971 PUSH2 0x1BA9 JUMP JUMPDEST PUSH2 0x197A CALLER PUSH2 0x1BEF JUMP JUMPDEST PUSH2 0x1982 PUSH2 0x1EC6 JUMP JUMPDEST JUMP JUMPDEST PUSH1 0x8 PUSH1 0x20 MSTORE DUP1 PUSH1 0x0 MSTORE PUSH1 0x40 PUSH1 0x0 KECCAK256 PUSH1 0x0 SWAP2 POP SWAP1 POP DUP1 PUSH1 0x0 ADD SLOAD SWAP1 DUP1 PUSH1 0x1 ADD SLOAD SWAP1 DUP1 PUSH1 0x2 ADD SLOAD SWAP1 DUP1 PUSH1 0x3 ADD SLOAD SWAP1 DUP1 PUSH1 0x4 ADD PUSH1 0x0 SWAP1 SLOAD SWAP1 PUSH2 0x100 EXP SWAP1 DIV PUSH1 0xFF AND SWAP1 POP DUP6 JUMP JUMPDEST PUSH8 0xDE0B6B3A7640000 DUP2 JUMP JUMPDEST PUSH32 0x0 DUP2 JUMP JUMPDEST PUSH2 0x19FF PUSH2 0x1F4E JUMP JUMPDEST PUSH1 0x0 PUSH20 0xFFFFFFFFFFFFFFFFFFFFFFFFFFFFFFFFFFFFFFFF AND DUP2 PUSH20 0xFFFFFFFFFFFFFFFFFFFFFFFFFFFFFFFFFFFFFFFF AND SUB PUSH2 0x1A6E JUMPI PUSH1 0x40 MLOAD PUSH32 0x8C379A000000000000000000000000000000000000000000000000000000000 DUP2 MSTORE PUSH1 0x4 ADD PUSH2 0x1A65 SWAP1 PUSH2 0x3118 JUMP JUMPDEST PUSH1 0x40 MLOAD DUP1 SWAP2 SUB SWAP1 REVERT JUMPDEST DUP1 PUSH1 0x5 PUSH1 0x0 PUSH2 0x100 EXP DUP2 SLOAD DUP2 PUSH20 0xFFFFFFFFFFFFFFFFFFFFFFFFFFFFFFFFFFFFFFFF MUL NOT AND SWAP1 DUP4 PUSH20 0xFFFFFFFFFFFFFFFFFFFFFFFFFFFFFFFFFFFFFFFF AND MUL OR SWAP1 SSTORE POP POP JUMP JUMPDEST PUSH32 0x0 DUP2 JUMP JUMPDEST PUSH2 0x1ADE PUSH2 0x1F4E JUMP JUMPDEST PUSH1 0x0 PUSH20 0xFFFFFFFFFFFFFFFFFFFFFFFFFFFFFFFFFFFFFFFF AND DUP2 PUSH20 0xFFFFFFFFFFFFFFFFFFFFFFFFFFFFFFFFFFFFFFFF AND SUB PUSH2 0x1B50 JUMPI PUSH1 0x0 PUSH1 0x40 MLOAD PUSH32 0x1E4FBDF700000000000000000000000000000000000000000000000000000000 DUP2 MSTORE PUSH1 0x4 ADD PUSH2 0x1B47 SWAP2 SWAP1 PUSH2 0x24AC JUMP JUMPDEST PUSH1 0x40 MLOAD DUP1 SWAP2 SUB SWAP1 REVERT JUMPDEST PUSH2 0x1B59 DUP2 PUSH2 0x1FD5 JUMP JUMPDEST POP JUMP JUMPDEST PUSH32 0x0 DUP2 JUMP JUMPDEST PUSH32 0x0 DUP2 JUMP JUMPDEST PUSH1 0x0 DUP2 JUMP JUMPDEST PUSH1 0x2 PUSH1 0x1 SLOAD SUB PUSH2 0x1BE5 JUMPI PUSH1 0x40 MLOAD PUSH32 0x3EE5AEB500000000000000000000000000000000000000000000000000000000 DUP2 MSTORE PUSH1 0x4 ADD PUSH1 0x40 MLOAD DUP1 SWAP2 SUB SWAP1 REVERT JUMPDEST PUSH1 0x2 PUSH1 0x1 DUP2 SWAP1 SSTORE POP JUMP JUMPDEST PUSH1 0x0 PUSH1 0x8 PUSH1 0x0 DUP4 PUSH20 0xFFFFFFFFFFFFFFFFFFFFFFFFFFFFFFFFFFFFFFFF AND PUSH20 0xFFFFFFFFFFFFFFFFFFFFFFFFFFFFFFFFFFFFFFFF AND DUP2 MSTORE PUSH1 0x20 ADD SWAP1 DUP2 MSTORE PUSH1 0x20 ADD PUSH1 0x0 KECCAK256 SWAP1 POP PUSH1 0x0 DUP2 PUSH1 0x0 ADD SLOAD SUB PUSH2 0x1C44 JUMPI POP PUSH2 0x1D24 JUMP JUMPDEST PUSH1 0x0 PUSH2 0x1C4F DUP4 PUSH2 0xC2A JUMP JUMPDEST SWAP1 POP PUSH1 0x0 DUP2 GT ISZERO PUSH2 0x1CF4 JUMPI PUSH2 0x1CA5 DUP4 DUP3 PUSH32 0x0 PUSH20 0xFFFFFFFFFFFFFFFFFFFFFFFFFFFFFFFFFFFFFFFF AND PUSH2 0x1ECF SWAP1 SWAP3 SWAP2 SWAP1 PUSH4 0xFFFFFFFF AND JUMP JUMPDEST DUP3 PUSH20 0xFFFFFFFFFFFFFFFFFFFFFFFFFFFFFFFFFFFFFFFF AND PUSH32 0xF58BF34CD9E84356F4B001EA1F1741B2F6A029F6D211D9DC4B351BC5CC794854 DUP3 PUSH1 0x40 MLOAD PUSH2 0x1CEB SWAP2 SWAP1 PUSH2 0x224F JUMP JUMPDEST PUSH1 0x40 MLOAD DUP1 SWAP2 SUB SWAP1 LOG2 JUMPDEST PUSH8 0xDE0B6B3A7640000 PUSH1 0x7 SLOAD DUP4 PUSH1 0x0 ADD SLOAD PUSH2 0x1D0F SWAP2 SWAP1 PUSH2 0x2B00 JUMP JUMPDEST PUSH2 0x1D19 SWAP2 SWAP1 PUSH2 0x2B71 JUMP JUMPDEST DUP3 PUSH1 0x2 ADD DUP2 SWAP1 SSTORE POP POP POP JUMPDEST POP JUMP JUMPDEST PUSH2 0x1DA3 DUP5 DUP6 PUSH20 0xFFFFFFFFFFFFFFFFFFFFFFFFFFFFFFFFFFFFFFFF AND PUSH4 0x23B872DD DUP7 DUP7 DUP7 PUSH1 0x40 MLOAD PUSH1 0x24 ADD PUSH2 0x1D5C SWAP4 SWAP3 SWAP2 SWAP1 PUSH2 0x3138 JUMP JUMPDEST PUSH1 0x40 MLOAD PUSH1 0x20 DUP2 DUP4 SUB SUB DUP2 MSTORE SWAP1 PUSH1 0x40 MSTORE SWAP2 POP PUSH1 0xE0 SHL PUSH1 0x20 DUP3 ADD DUP1 MLOAD PUSH28 0xFFFFFFFFFFFFFFFFFFFFFFFFFFFFFFFFFFFFFFFFFFFFFFFFFFFFFFFF DUP4 DUP2 DUP4 AND OR DUP4 MSTORE POP POP POP POP PUSH2 0x2099 JUMP JUMPDEST POP POP POP POP JUMP JUMPDEST PUSH1 0x0 DUP1 DUP3 GT SWAP1 POP SWAP4 SWAP3 POP POP POP JUMP JUMPDEST PUSH1 0x0 DUP4 PUSH20 0xFFFFFFFFFFFFFFFFFFFFFFFFFFFFFFFFFFFFFFFF AND PUSH4 0x95EA7B3 DUP5 DUP5 PUSH1 0x40 MLOAD PUSH1 0x24 ADD PUSH2 0x1DE8 SWAP3 SWAP2 SWAP1 PUSH2 0x316F JUMP JUMPDEST PUSH1 0x40 MLOAD PUSH1 0x20 DUP2 DUP4 SUB SUB DUP2 MSTORE SWAP1 PUSH1 0x40 MSTORE SWAP2 POP PUSH1 0xE0 SHL PUSH1 0x20 DUP3 ADD DUP1 MLOAD PUSH28 0xFFFFFFFFFFFFFFFFFFFFFFFFFFFFFFFFFFFFFFFFFFFFFFFFFFFFFFFF DUP4 DUP2 DUP4 AND OR DUP4 MSTORE POP POP POP POP SWAP1 POP PUSH2 0x1E36 DUP5 DUP3 PUSH2 0x213B JUMP JUMPDEST PUSH2 0x1EC0 JUMPI PUSH2 0x1EB5 DUP5 DUP6 PUSH20 0xFFFFFFFFFFFFFFFFFFFFFFFFFFFFFFFFFFFFFFFF AND PUSH4 0x95EA7B3 DUP7 PUSH1 0x0 PUSH1 0x40 MLOAD PUSH1 0x24 ADD PUSH2 0x1E6E SWAP3 SWAP2 SWAP1 PUSH2 0x3198 JUMP JUMPDEST PUSH1 0x40 MLOAD PUSH1 0x20 DUP2 DUP4 SUB SUB DUP2 MSTORE SWAP1 PUSH1 0x40 MSTORE SWAP2 POP PUSH1 0xE0 SHL PUSH1 0x20 DUP3 ADD DUP1 MLOAD PUSH28 0xFFFFFFFFFFFFFFFFFFFFFFFFFFFFFFFFFFFFFFFFFFFFFFFFFFFFFFFF DUP4 DUP2 DUP4 AND OR DUP4 MSTORE POP POP POP POP PUSH2 0x2099 JUMP JUMPDEST PUSH2 0x1EBF DUP5 DUP3 PUSH2 0x2099 JUMP JUMPDEST JUMPDEST POP POP POP POP JUMP JUMPDEST PUSH1 0x1 DUP1 DUP2 SWAP1 SSTORE POP JUMP JUMPDEST PUSH2 0x1F49 DUP4 DUP5 PUSH20 0xFFFFFFFFFFFFFFFFFFFFFFFFFFFFFFFFFFFFFFFF AND PUSH4 0xA9059CBB DUP6 DUP6 PUSH1 0x40 MLOAD PUSH1 0x24 ADD PUSH2 0x1F02 SWAP3 SWAP2 SWAP1 PUSH2 0x316F JUMP JUMPDEST PUSH1 0x40 MLOAD PUSH1 0x20 DUP2 DUP4 SUB SUB DUP2 MSTORE SWAP1 PUSH1 0x40 MSTORE SWAP2 POP PUSH1 0xE0 SHL PUSH1 0x20 DUP3 ADD DUP1 MLOAD PUSH28 0xFFFFFFFFFFFFFFFFFFFFFFFFFFFFFFFFFFFFFFFFFFFFFFFFFFFFFFFF DUP4 DUP2 DUP4 AND OR DUP4 MSTORE POP POP POP POP PUSH2 0x2099 JUMP JUMPDEST POP POP POP JUMP JUMPDEST PUSH2 0x1F56 PUSH2 0x219B JUMP JUMPDEST PUSH20 0xFFFFFFFFFFFFFFFFFFFFFFFFFFFFFFFFFFFFFFFF AND PUSH2 0x1F74 PUSH2 0x1871 JUMP JUMPDEST PUSH20 0xFFFFFFFFFFFFFFFFFFFFFFFFFFFFFFFFFFFFFFFF AND EQ PUSH2 0x1FD3 JUMPI PUSH2 0x1F97 PUSH2 0x219B JUMP JUMPDEST PUSH1 0x40 MLOAD PUSH32 0x118CDAA700000000000000000000000000000000000000000000000000000000 DUP2 MSTORE PUSH1 0x4 ADD PUSH2 0x1FCA SWAP2 SWAP1 PUSH2 0x24AC JUMP JUMPDEST PUSH1 0x40 MLOAD DUP1 SWAP2 SUB SWAP1 REVERT JUMPDEST JUMP JUMPDEST PUSH1 0x0 DUP1 PUSH1 0x0 SWAP1 SLOAD SWAP1 PUSH2 0x100 EXP SWAP1 DIV PUSH20 0xFFFFFFFFFFFFFFFFFFFFFFFFFFFFFFFFFFFFFFFF AND SWAP1 POP DUP2 PUSH1 0x0 DUP1 PUSH2 0x100 EXP DUP2 SLOAD DUP2 PUSH20 0xFFFFFFFFFFFFFFFFFFFFFFFFFFFFFFFFFFFFFFFF MUL NOT AND SWAP1 DUP4 PUSH20 0xFFFFFFFFFFFFFFFFFFFFFFFFFFFFFFFFFFFFFFFF AND MUL OR SWAP1 SSTORE POP DUP2 PUSH20 0xFFFFFFFFFFFFFFFFFFFFFFFFFFFFFFFFFFFFFFFF AND DUP2 PUSH20 0xFFFFFFFFFFFFFFFFFFFFFFFFFFFFFFFFFFFFFFFF AND PUSH32 0x8BE0079C531659141344CD1FD0A4F28419497F9722A3DAAFE3B4186F6B6457E0 PUSH1 0x40 MLOAD PUSH1 0x40 MLOAD DUP1 SWAP2 SUB SWAP1 LOG3 POP POP JUMP JUMPDEST PUSH1 0x0 DUP1 PUSH1 0x20 PUSH1 0x0 DUP5 MLOAD PUSH1 0x20 DUP7 ADD PUSH1 0x0 DUP9 GAS CALL DUP1 PUSH2 0x20BC JUMPI PUSH1 0x40 MLOAD RETURNDATASIZE PUSH1 0x0 DUP3 RETURNDATACOPY RETURNDATASIZE DUP2 REVERT JUMPDEST RETURNDATASIZE SWAP3 POP PUSH1 0x0 MLOAD SWAP2 POP POP PUSH1 0x0 DUP3 EQ PUSH2 0x20D7 JUMPI PUSH1 0x1 DUP2 EQ ISZERO PUSH2 0x20F3 JUMP JUMPDEST PUSH1 0x0 DUP5 PUSH20 0xFFFFFFFFFFFFFFFFFFFFFFFFFFFFFFFFFFFFFFFF AND EXTCODESIZE EQ JUMPDEST ISZERO PUSH2 0x2135 JUMPI DUP4 PUSH1 0x40 MLOAD PUSH32 0x5274AFE700000000000000000000000000000000000000000000000000000000 DUP2 MSTORE PUSH1 0x4 ADD PUSH2 0x212C SWAP2 SWAP1 PUSH2 0x24AC JUMP JUMPDEST PUSH1 0x40 MLOAD DUP1 SWAP2 SUB SWAP1 REVERT JUMPDEST POP POP POP POP JUMP JUMPDEST PUSH1 0x0 DUP1 PUSH1 0x0 DUP1 PUSH1 0x20 PUSH1 0x0 DUP7 MLOAD PUSH1 0x20 DUP9 ADD PUSH1 0x0 DUP11 GAS CALL SWAP3 POP RETURNDATASIZE SWAP2 POP PUSH1 0x0 MLOAD SWAP1 POP DUP3 DUP1 ISZERO PUSH2 0x2190 JUMPI POP PUSH1 0x0 DUP3 EQ PUSH2 0x2173 JUMPI PUSH1 0x1 DUP2 EQ PUSH2 0x218F JUMP JUMPDEST PUSH1 0x0 DUP7 PUSH20 0xFFFFFFFFFFFFFFFFFFFFFFFFFFFFFFFFFFFFFFFF AND EXTCODESIZE GT JUMPDEST JUMPDEST SWAP4 POP POP POP POP SWAP3 SWAP2 POP POP JUMP JUMPDEST PUSH1 0x0 CALLER SWAP1 POP SWAP1 JUMP JUMPDEST PUSH1 0x0 PUSH1 0x40 MLOAD SWAP1 POP SWAP1 JUMP JUMPDEST PUSH1 0x0 DUP1 REVERT JUMPDEST PUSH1 0x0 DUP1 REVERT JUMPDEST PUSH1 0x0 DUP2 SWAP1 POP SWAP2 SWAP1 POP JUMP JUMPDEST PUSH2 0x21CA DUP2 PUSH2 0x21B7 JUMP JUMPDEST DUP2 EQ PUSH2 0x21D5 JUMPI PUSH1 0x0 DUP1 REVERT JUMPDEST POP JUMP JUMPDEST PUSH1 0x0 DUP2 CALLDATALOAD SWAP1 POP PUSH2 0x21E7 DUP2 PUSH2 0x21C1 JUMP JUMPDEST SWAP3 SWAP2 POP POP JUMP JUMPDEST PUSH1 0x0 DUP1 PUSH1 0x0 PUSH1 0x60 DUP5 DUP7 SUB SLT ISZERO PUSH2 0x2206 JUMPI PUSH2 0x2205 PUSH2 0x21AD JUMP JUMPDEST JUMPDEST PUSH1 0x0 PUSH2 0x2214 DUP7 DUP3 DUP8 ADD PUSH2 0x21D8 JUMP JUMPDEST SWAP4 POP POP PUSH1 0x20 PUSH2 0x2225 DUP7 DUP3 DUP8 ADD PUSH2 0x21D8 JUMP JUMPDEST SWAP3 POP POP PUSH1 0x40 PUSH2 0x2236 DUP7 DUP3 DUP8 ADD PUSH2 0x21D8 JUMP JUMPDEST SWAP2 POP POP SWAP3 POP SWAP3 POP SWAP3 JUMP JUMPDEST PUSH2 0x2249 DUP2 PUSH2 0x21B7 JUMP JUMPDEST DUP3 MSTORE POP POP JUMP JUMPDEST PUSH1 0x0 PUSH1 0x20 DUP3 ADD SWAP1 POP PUSH2 0x2264 PUSH1 0x0 DUP4 ADD DUP5 PUSH2 0x2240 JUMP JUMPDEST SWAP3 SWAP2 POP POP JUMP JUMPDEST PUSH1 0x0 PUSH20 0xFFFFFFFFFFFFFFFFFFFFFFFFFFFFFFFFFFFFFFFF DUP3 AND SWAP1 POP SWAP2 SWAP1 POP JUMP JUMPDEST PUSH1 0x0 DUP2 SWAP1 POP SWAP2 SWAP1 POP JUMP JUMPDEST PUSH1 0x0 PUSH2 0x22AF PUSH2 0x22AA PUSH2 0x22A5 DUP5 PUSH2 0x226A JUMP JUMPDEST PUSH2 0x228A JUMP JUMPDEST PUSH2 0x226A JUMP JUMPDEST SWAP1 POP SWAP2 SWAP1 POP JUMP JUMPDEST PUSH1 0x0 PUSH2 0x22C1 DUP3 PUSH2 0x2294 JUMP JUMPDEST SWAP1 POP SWAP2 SWAP1 POP JUMP JUMPDEST PUSH1 0x0 PUSH2 0x22D3 DUP3 PUSH2 0x22B6 JUMP JUMPDEST SWAP1 POP SWAP2 SWAP1 POP JUMP JUMPDEST PUSH2 0x22E3 DUP2 PUSH2 0x22C8 JUMP JUMPDEST DUP3 MSTORE POP POP JUMP JUMPDEST PUSH1 0x0 PUSH1 0x20 DUP3 ADD SWAP1 POP PUSH2 0x22FE PUSH1 0x0 DUP4 ADD DUP5 PUSH2 0x22DA JUMP JUMPDEST SWAP3 SWAP2 POP POP JUMP JUMPDEST PUSH1 0x0 PUSH2 0x230F DUP3 PUSH2 0x226A JUMP JUMPDEST SWAP1 POP SWAP2 SWAP1 POP JUMP JUMPDEST PUSH2 0x231F DUP2 PUSH2 0x2304 JUMP JUMPDEST DUP2 EQ PUSH2 0x232A JUMPI PUSH1 0x0 DUP1 REVERT JUMPDEST POP JUMP JUMPDEST PUSH1 0x0 DUP2 CALLDATALOAD SWAP1 POP PUSH2 0x233C DUP2 PUSH2 0x2316 JUMP JUMPDEST SWAP3 SWAP2 POP POP JUMP JUMPDEST PUSH1 0x0 PUSH1 0x20 DUP3 DUP5 SUB SLT ISZERO PUSH2 0x2358 JUMPI PUSH2 0x2357 PUSH2 0x21AD JUMP JUMPDEST JUMPDEST PUSH1 0x0 PUSH2 0x2366 DUP5 DUP3 DUP6 ADD PUSH2 0x232D JUMP JUMPDEST SWAP2 POP POP SWAP3 SWAP2 POP POP JUMP JUMPDEST PUSH1 0x0 DUP1 REVERT JUMPDEST PUSH1 0x0 DUP1 REVERT JUMPDEST PUSH1 0x0 DUP1 REVERT JUMPDEST PUSH1 0x0 DUP1 DUP4 PUSH1 0x1F DUP5 ADD SLT PUSH2 0x2394 JUMPI PUSH2 0x2393 PUSH2 0x236F JUMP JUMPDEST JUMPDEST DUP3 CALLDATALOAD SWAP1 POP PUSH8 0xFFFFFFFFFFFFFFFF DUP2 GT ISZERO PUSH2 0x23B1 JUMPI PUSH2 0x23B0 PUSH2 0x2374 JUMP JUMPDEST JUMPDEST PUSH1 0x20 DUP4 ADD SWAP2 POP DUP4 PUSH1 0x20 DUP3 MUL DUP4 ADD GT ISZERO PUSH2 0x23CD JUMPI PUSH2 0x23CC PUSH2 0x2379 JUMP JUMPDEST JUMPDEST SWAP3 POP SWAP3 SWAP1 POP JUMP JUMPDEST PUSH1 0x0 DUP1 PUSH1 0x0 PUSH1 0x40 DUP5 DUP7 SUB SLT ISZERO PUSH2 0x23ED JUMPI PUSH2 0x23EC PUSH2 0x21AD JUMP JUMPDEST JUMPDEST PUSH1 0x0 DUP5 ADD CALLDATALOAD PUSH8 0xFFFFFFFFFFFFFFFF DUP2 GT ISZERO PUSH2 0x240B JUMPI PUSH2 0x240A PUSH2 0x21B2 JUMP JUMPDEST JUMPDEST PUSH2 0x2417 DUP7 DUP3 DUP8 ADD PUSH2 0x237E JUMP JUMPDEST SWAP4 POP SWAP4 POP POP PUSH1 0x20 PUSH2 0x242A DUP7 DUP3 DUP8 ADD PUSH2 0x21D8 JUMP JUMPDEST SWAP2 POP POP SWAP3 POP SWAP3 POP SWAP3 JUMP JUMPDEST PUSH1 0x0 PUSH1 0x20 DUP3 DUP5 SUB SLT ISZERO PUSH2 0x244A JUMPI PUSH2 0x2449 PUSH2 0x21AD JUMP JUMPDEST JUMPDEST PUSH1 0x0 PUSH2 0x2458 DUP5 DUP3 DUP6 ADD PUSH2 0x21D8 JUMP JUMPDEST SWAP2 POP POP SWAP3 SWAP2 POP POP JUMP JUMPDEST PUSH1 0x0 PUSH2 0x246C DUP3 PUSH2 0x22B6 JUMP JUMPDEST SWAP1 POP SWAP2 SWAP1 POP JUMP JUMPDEST PUSH2 0x247C DUP2 PUSH2 0x2461 JUMP JUMPDEST DUP3 MSTORE POP POP JUMP JUMPDEST PUSH1 0x0 PUSH1 0x20 DUP3 ADD SWAP1 POP PUSH2 0x2497 PUSH1 0x0 DUP4 ADD DUP5 PUSH2 0x2473 JUMP JUMPDEST SWAP3 SWAP2 POP POP JUMP JUMPDEST PUSH2 0x24A6 DUP2 PUSH2 0x2304 JUMP JUMPDEST DUP3 MSTORE POP POP JUMP JUMPDEST PUSH1 0x0 PUSH1 0x20 DUP3 ADD SWAP1 POP PUSH2 0x24C1 PUSH1 0x0 DUP4 ADD DUP5 PUSH2 0x249D JUMP JUMPDEST SWAP3 SWAP2 POP POP JUMP JUMPDEST PUSH1 0x0 PUSH2 0x24D2 DUP3 PUSH2 0x22B6 JUMP JUMPDEST SWAP1 POP SWAP2 SWAP1 POP JUMP JUMPDEST PUSH2 0x24E2 DUP2 PUSH2 0x24C7 JUMP JUMPDEST DUP3 MSTORE POP POP JUMP JUMPDEST PUSH1 0x0 PUSH1 0x20 DUP3 ADD SWAP1 POP PUSH2 0x24FD PUSH1 0x0 DUP4 ADD DUP5 PUSH2 0x24D9 JUMP JUMPDEST SWAP3 SWAP2 POP POP JUMP JUMPDEST PUSH1 0x0 DUP2 ISZERO ISZERO SWAP1 POP SWAP2 SWAP1 POP JUMP JUMPDEST PUSH2 0x2518 DUP2 PUSH2 0x2503 JUMP JUMPDEST DUP3 MSTORE POP POP JUMP JUMPDEST PUSH1 0x0 PUSH1 0x20 DUP3 ADD SWAP1 POP PUSH2 0x2533 PUSH1 0x0 DUP4 ADD DUP5 PUSH2 0x250F JUMP JUMPDEST SWAP3 SWAP2 POP POP JUMP JUMPDEST PUSH1 0x0 PUSH1 0xA0 DUP3 ADD SWAP1 POP PUSH2 0x254E PUSH1 0x0 DUP4 ADD DUP9 PUSH2 0x2240 JUMP JUMPDEST PUSH2 0x255B PUSH1 0x20 DUP4 ADD DUP8 PUSH2 0x2240 JUMP JUMPDEST PUSH2 0x2568 PUSH1 0x40 DUP4 ADD DUP7 PUSH2 0x2240 JUMP JUMPDEST PUSH2 0x2575 PUSH1 0x60 DUP4 ADD DUP6 PUSH2 0x2240 JUMP JUMPDEST PUSH2 0x2582 PUSH1 0x80 DUP4 ADD DUP5 PUSH2 0x250F JUMP JUMPDEST SWAP7 SWAP6 POP POP POP POP POP POP JUMP JUMPDEST PUSH1 0x0 PUSH2 0x2597 DUP3 PUSH2 0x22B6 JUMP JUMPDEST SWAP1 POP SWAP2 SWAP1 POP JUMP JUMPDEST PUSH2 0x25A7 DUP2 PUSH2 0x258C JUMP JUMPDEST DUP3 MSTORE POP POP JUMP JUMPDEST PUSH1 0x0 PUSH1 0x20 DUP3 ADD SWAP1 POP PUSH2 0x25C2 PUSH1 0x0 DUP4 ADD DUP5 PUSH2 0x259E JUMP JUMPDEST SWAP3 SWAP2 POP POP JUMP JUMPDEST PUSH1 0x0 DUP3 DUP3 MSTORE PUSH1 0x20 DUP3 ADD SWAP1 POP SWAP3 SWAP2 POP POP JUMP JUMPDEST PUSH32 0x7A65726F206465706F7369740000000000000000000000000000000000000000 PUSH1 0x0 DUP3 ADD MSTORE POP JUMP JUMPDEST PUSH1 0x0 PUSH2 0x260F PUSH1 0xC DUP4 PUSH2 0x25C8 JUMP JUMPDEST SWAP2 POP PUSH2 0x261A DUP3 PUSH2 0x25D9 JUMP JUMPDEST PUSH1 0x20 DUP3 ADD SWAP1 POP SWAP2 SWAP1 POP JUMP JUMPDEST PUSH1 0x0 PUSH1 0x20 DUP3 ADD SWAP1 POP DUP2 DUP2 SUB PUSH1 0x0 DUP4 ADD MSTORE PUSH2 0x263E DUP2 PUSH2 0x2602 JUMP JUMPDEST SWAP1 POP SWAP2 SWAP1 POP JUMP JUMPDEST PUSH32 0x434F5245206C6F636B2072657175697265640000000000000000000000000000 PUSH1 0x0 DUP3 ADD MSTORE POP JUMP JUMPDEST PUSH1 0x0 PUSH2 0x267B PUSH1 0x12 DUP4 PUSH2 0x25C8 JUMP JUMPDEST SWAP2 POP PUSH2 0x2686 DUP3 PUSH2 0x2645 JUMP JUMPDEST PUSH1 0x20 DUP3 ADD SWAP1 POP SWAP2 SWAP1 POP JUMP JUMPDEST PUSH1 0x0 PUSH1 0x20 DUP3 ADD SWAP1 POP DUP2 DUP2 SUB PUSH1 0x0 DUP4 ADD MSTORE PUSH2 0x26AA DUP2 PUSH2 0x266E JUMP JUMPDEST SWAP1 POP SWAP2 SWAP1 POP JUMP JUMPDEST PUSH32 0x496E73756666696369656E7420434F5245206C6F636B00000000000000000000 PUSH1 0x0 DUP3 ADD MSTORE POP JUMP JUMPDEST PUSH1 0x0 PUSH2 0x26E7 PUSH1 0x16 DUP4 PUSH2 0x25C8 JUMP JUMPDEST SWAP2 POP PUSH2 0x26F2 DUP3 PUSH2 0x26B1 JUMP JUMPDEST PUSH1 0x20 DUP3 ADD SWAP1 POP SWAP2 SWAP1 POP JUMP JUMPDEST PUSH1 0x0 PUSH1 0x20 DUP3 ADD SWAP1 POP DUP2 DUP2 SUB PUSH1 0x0 DUP4 ADD MSTORE PUSH2 0x2716 DUP2 PUSH2 0x26DA JUMP JUMPDEST SWAP1 POP SWAP2 SWAP1 POP JUMP JUMPDEST PUSH1 0x0 PUSH1 0x40 DUP3 ADD SWAP1 POP PUSH2 0x2732 PUSH1 0x0 DUP4 ADD DUP6 PUSH2 0x2240 JUMP JUMPDEST PUSH2 0x273F PUSH1 0x20 DUP4 ADD DUP5 PUSH2 0x249D JUMP JUMPDEST SWAP4 SWAP3 POP POP POP JUMP JUMPDEST PUSH1 0x0 DUP1 REVERT JUMPDEST PUSH1 0x0 PUSH1 0x1F NOT PUSH1 0x1F DUP4 ADD AND SWAP1 POP SWAP2 SWAP1 POP JUMP JUMPDEST PUSH32 0x4E487B7100000000000000000000000000000000000000000000000000000000 PUSH1 0x0 MSTORE PUSH1 0x41 PUSH1 0x4 MSTORE PUSH1 0x24 PUSH1 0x0 REVERT JUMPDEST PUSH2 0x2794 DUP3 PUSH2 0x274B JUMP JUMPDEST DUP2 ADD DUP2 DUP2 LT PUSH8 0xFFFFFFFFFFFFFFFF DUP3 GT OR ISZERO PUSH2 0x27B3 JUMPI PUSH2 0x27B2 PUSH2 0x275C JUMP JUMPDEST JUMPDEST DUP1 PUSH1 0x40 MSTORE POP POP POP JUMP JUMPDEST PUSH1 0x0 PUSH2 0x27C6 PUSH2 0x21A3 JUMP JUMPDEST SWAP1 POP PUSH2 0x27D2 DUP3 DUP3 PUSH2 0x278B JUMP JUMPDEST SWAP2 SWAP1 POP JUMP JUMPDEST PUSH1 0x0 DUP2 MLOAD SWAP1 POP PUSH2 0x27E6 DUP2 PUSH2 0x2316 JUMP JUMPDEST SWAP3 SWAP2 POP POP JUMP JUMPDEST PUSH1 0x0 DUP2 MLOAD SWAP1 POP PUSH2 0x27FB DUP2 PUSH2 0x21C1 JUMP JUMPDEST SWAP3 SWAP2 POP POP JUMP JUMPDEST PUSH1 0x0 PUSH2 0x1C0 DUP3 DUP5 SUB SLT ISZERO PUSH2 0x2818 JUMPI PUSH2 0x2817 PUSH2 0x2746 JUMP JUMPDEST JUMPDEST PUSH2 0x2823 PUSH2 0x1C0 PUSH2 0x27BC JUMP JUMPDEST SWAP1 POP PUSH1 0x0 PUSH2 0x2833 DUP5 DUP3 DUP6 ADD PUSH2 0x27D7 JUMP JUMPDEST PUSH1 0x0 DUP4 ADD MSTORE POP PUSH1 0x20 PUSH2 0x2847 DUP5 DUP3 DUP6 ADD PUSH2 0x27EC JUMP JUMPDEST PUSH1 0x20 DUP4 ADD MSTORE POP PUSH1 0x40 PUSH2 0x285B DUP5 DUP3 DUP6 ADD PUSH2 0x27EC JUMP JUMPDEST PUSH1 0x40 DUP4 ADD MSTORE POP PUSH1 0x60 PUSH2 0x286F DUP5 DUP3 DUP6 ADD PUSH2 0x27EC JUMP JUMPDEST PUSH1 0x60 DUP4 ADD MSTORE POP PUSH1 0x80 PUSH2 0x2883 DUP5 DUP3 DUP6 ADD PUSH2 0x27EC JUMP JUMPDEST PUSH1 0x80 DUP4 ADD MSTORE POP PUSH1 0xA0 PUSH2 0x2897 DUP5 DUP3 DUP6 ADD PUSH2 0x27EC JUMP JUMPDEST PUSH1 0xA0 DUP4 ADD MSTORE POP PUSH1 0xC0 PUSH2 0x28AB DUP5 DUP3 DUP6 ADD PUSH2 0x27EC JUMP JUMPDEST PUSH1 0xC0 DUP4 ADD MSTORE POP PUSH1 0xE0 PUSH2 0x28BF DUP5 DUP3 DUP6 ADD PUSH2 0x27EC JUMP JUMPDEST PUSH1 0xE0 DUP4 ADD MSTORE POP PUSH2 0x100 PUSH2 0x28D4 DUP5 DUP3 DUP6 ADD PUSH2 0x27EC JUMP JUMPDEST PUSH2 0x100 DUP4 ADD MSTORE POP PUSH2 0x120 PUSH2 0x28EA DUP5 DUP3 DUP6 ADD PUSH2 0x27EC JUMP JUMPDEST PUSH2 0x120 DUP4 ADD MSTORE POP PUSH2 0x140 PUSH2 0x2900 DUP5 DUP3 DUP6 ADD PUSH2 0x27EC JUMP JUMPDEST PUSH2 0x140 DUP4 ADD MSTORE POP PUSH2 0x160 PUSH2 0x2916 DUP5 DUP3 DUP6 ADD PUSH2 0x27EC JUMP JUMPDEST PUSH2 0x160 DUP4 ADD MSTORE POP PUSH2 0x180 PUSH2 0x292C DUP5 DUP3 DUP6 ADD PUSH2 0x27EC JUMP JUMPDEST PUSH2 0x180 DUP4 ADD MSTORE POP PUSH2 0x1A0 PUSH2 0x2942 DUP5 DUP3 DUP6 ADD PUSH2 0x27EC JUMP JUMPDEST PUSH2 0x1A0 DUP4 ADD MSTORE POP SWAP3 SWAP2 POP POP JUMP JUMPDEST PUSH1 0x0 PUSH2 0x1C0 DUP3 DUP5 SUB SLT ISZERO PUSH2 0x2966 JUMPI PUSH2 0x2965 PUSH2 0x21AD JUMP JUMPDEST JUMPDEST PUSH1 0x0 PUSH2 0x2974 DUP5 DUP3 DUP6 ADD PUSH2 0x2801 JUMP JUMPDEST SWAP2 POP POP SWAP3 SWAP2 POP POP JUMP JUMPDEST PUSH1 0x0 DUP2 SWAP1 POP SWAP2 SWAP1 POP JUMP JUMPDEST PUSH1 0x0 PUSH2 0x29A2 PUSH2 0x299D PUSH2 0x2998 DUP5 PUSH2 0x297D JUMP JUMPDEST PUSH2 0x228A JUMP JUMPDEST PUSH2 0x21B7 JUMP JUMPDEST SWAP1 POP SWAP2 SWAP1 POP JUMP JUMPDEST PUSH2 0x29B2 DUP2 PUSH2 0x2987 JUMP JUMPDEST DUP3 MSTORE POP POP JUMP JUMPDEST PUSH1 0x0 PUSH1 0x80 DUP3 ADD SWAP1 POP PUSH2 0x29CD PUSH1 0x0 DUP4 ADD DUP8 PUSH2 0x2240 JUMP JUMPDEST PUSH2 0x29DA PUSH1 0x20 DUP4 ADD DUP7 PUSH2 0x2240 JUMP JUMPDEST PUSH2 0x29E7 PUSH1 0x40 DUP4 ADD DUP6 PUSH2 0x2240 JUMP JUMPDEST PUSH2 0x29F4 PUSH1 0x60 DUP4 ADD DUP5 PUSH2 0x29A9 JUMP JUMPDEST SWAP6 SWAP5 POP POP POP POP POP JUMP JUMPDEST PUSH32 0x4E487B7100000000000000000000000000000000000000000000000000000000 PUSH1 0x0 MSTORE PUSH1 0x11 PUSH1 0x4 MSTORE PUSH1 0x24 PUSH1 0x0 REVERT JUMPDEST PUSH1 0x0 PUSH2 0x2A37 DUP3 PUSH2 0x21B7 JUMP JUMPDEST SWAP2 POP PUSH2 0x2A42 DUP4 PUSH2 0x21B7 JUMP JUMPDEST SWAP3 POP DUP3 DUP3 SUB SWAP1 POP DUP2 DUP2 GT ISZERO PUSH2 0x2A5A JUMPI PUSH2 0x2A59 PUSH2 0x29FD JUMP JUMPDEST JUMPDEST SWAP3 SWAP2 POP POP JUMP JUMPDEST PUSH32 0x6E6F206C69717569646974792061646465640000000000000000000000000000 PUSH1 0x0 DUP3 ADD MSTORE POP JUMP JUMPDEST PUSH1 0x0 PUSH2 0x2A96 PUSH1 0x12 DUP4 PUSH2 0x25C8 JUMP JUMPDEST SWAP2 POP PUSH2 0x2AA1 DUP3 PUSH2 0x2A60 JUMP JUMPDEST PUSH1 0x20 DUP3 ADD SWAP1 POP SWAP2 SWAP1 POP JUMP JUMPDEST PUSH1 0x0 PUSH1 0x20 DUP3 ADD SWAP1 POP DUP2 DUP2 SUB PUSH1 0x0 DUP4 ADD MSTORE PUSH2 0x2AC5 DUP2 PUSH2 0x2A89 JUMP JUMPDEST SWAP1 POP SWAP2 SWAP1 POP JUMP JUMPDEST PUSH1 0x0 PUSH2 0x2AD7 DUP3 PUSH2 0x21B7 JUMP JUMPDEST SWAP2 POP PUSH2 0x2AE2 DUP4 PUSH2 0x21B7 JUMP JUMPDEST SWAP3 POP DUP3 DUP3 ADD SWAP1 POP DUP1 DUP3 GT ISZERO PUSH2 0x2AFA JUMPI PUSH2 0x2AF9 PUSH2 0x29FD JUMP JUMPDEST JUMPDEST SWAP3 SWAP2 POP POP JUMP JUMPDEST PUSH1 0x0 PUSH2 0x2B0B DUP3 PUSH2 0x21B7 JUMP JUMPDEST SWAP2 POP PUSH2 0x2B16 DUP4 PUSH2 0x21B7 JUMP JUMPDEST SWAP3 POP DUP3 DUP3 MUL PUSH2 0x2B24 DUP2 PUSH2 0x21B7 JUMP JUMPDEST SWAP2 POP DUP3 DUP3 DIV DUP5 EQ DUP4 ISZERO OR PUSH2 0x2B3B JUMPI PUSH2 0x2B3A PUSH2 0x29FD JUMP JUMPDEST JUMPDEST POP SWAP3 SWAP2 POP POP JUMP JUMPDEST PUSH32 0x4E487B7100000000000000000000000000000000000000000000000000000000 PUSH1 0x0 MSTORE PUSH1 0x12 PUSH1 0x4 MSTORE PUSH1 0x24 PUSH1 0x0 REVERT JUMPDEST PUSH1 0x0 PUSH2 0x2B7C DUP3 PUSH2 0x21B7 JUMP JUMPDEST SWAP2 POP PUSH2 0x2B87 DUP4 PUSH2 0x21B7 JUMP JUMPDEST SWAP3 POP DUP3 PUSH2 0x2B97 JUMPI PUSH2 0x2B96 PUSH2 0x2B42 JUMP JUMPDEST JUMPDEST DUP3 DUP3 DIV SWAP1 POP SWAP3 SWAP2 POP POP JUMP JUMPDEST PUSH1 0x0 PUSH1 0xA0 DUP3 ADD SWAP1 POP PUSH2 0x2BB7 PUSH1 0x0 DUP4 ADD DUP9 PUSH2 0x2240 JUMP JUMPDEST PUSH2 0x2BC4 PUSH1 0x20 DUP4 ADD DUP8 PUSH2 0x2240 JUMP JUMPDEST PUSH2 0x2BD1 PUSH1 0x40 DUP4 ADD DUP7 PUSH2 0x2240 JUMP JUMPDEST PUSH2 0x2BDE PUSH1 0x60 DUP4 ADD DUP6 PUSH2 0x2240 JUMP JUMPDEST PUSH2 0x2BEB PUSH1 0x80 DUP4 ADD DUP5 PUSH2 0x2240 JUMP JUMPDEST SWAP7 SWAP6 POP POP POP POP POP POP JUMP JUMPDEST PUSH32 0x6E6F206C69717569646974790000000000000000000000000000000000000000 PUSH1 0x0 DUP3 ADD MSTORE POP JUMP JUMPDEST PUSH1 0x0 PUSH2 0x2C2B PUSH1 0xC DUP4 PUSH2 0x25C8 JUMP JUMPDEST SWAP2 POP PUSH2 0x2C36 DUP3 PUSH2 0x2BF5 JUMP JUMPDEST PUSH1 0x20 DUP3 ADD SWAP1 POP SWAP2 SWAP1 POP JUMP JUMPDEST PUSH1 0x0 PUSH1 0x20 DUP3 ADD SWAP1 POP DUP2 DUP2 SUB PUSH1 0x0 DUP4 ADD MSTORE PUSH2 0x2C5A DUP2 PUSH2 0x2C1E JUMP JUMPDEST SWAP1 POP SWAP2 SWAP1 POP JUMP JUMPDEST PUSH1 0x0 PUSH1 0x20 DUP3 DUP5 SUB SLT ISZERO PUSH2 0x2C77 JUMPI PUSH2 0x2C76 PUSH2 0x21AD JUMP JUMPDEST JUMPDEST PUSH1 0x0 PUSH2 0x2C85 DUP5 DUP3 DUP6 ADD PUSH2 0x27EC JUMP JUMPDEST SWAP2 POP POP SWAP3 SWAP2 POP POP JUMP JUMPDEST PUSH1 0x0 PUSH1 0x60 DUP3 ADD SWAP1 POP PUSH2 0x2CA3 PUSH1 0x0 DUP4 ADD DUP7 PUSH2 0x2240 JUMP JUMPDEST PUSH2 0x2CB0 PUSH1 0x20 DUP4 ADD DUP6 PUSH2 0x29A9 JUMP JUMPDEST PUSH2 0x2CBD PUSH1 0x40 DUP4 ADD DUP5 PUSH2 0x250F JUMP JUMPDEST SWAP5 SWAP4 POP POP POP POP JUMP JUMPDEST PUSH32 0x6E6F7468696E6720686172766573746564000000000000000000000000000000 PUSH1 0x0 DUP3 ADD MSTORE POP JUMP JUMPDEST PUSH1 0x0 PUSH2 0x2CFB PUSH1 0x11 DUP4 PUSH2 0x25C8 JUMP JUMPDEST SWAP2 POP PUSH2 0x2D06 DUP3 PUSH2 0x2CC5 JUMP JUMPDEST PUSH1 0x20 DUP3 ADD SWAP1 POP SWAP2 SWAP1 POP JUMP JUMPDEST PUSH1 0x0 PUSH1 0x20 DUP3 ADD SWAP1 POP DUP2 DUP2 SUB PUSH1 0x0 DUP4 ADD MSTORE PUSH2 0x2D2A DUP2 PUSH2 0x2CEE JUMP JUMPDEST SWAP1 POP SWAP2 SWAP1 POP JUMP JUMPDEST PUSH1 0x0 DUP3 DUP3 MSTORE PUSH1 0x20 DUP3 ADD SWAP1 POP SWAP3 SWAP2 POP POP JUMP JUMPDEST PUSH1 0x0 DUP2 SWAP1 POP SWAP2 SWAP1 POP JUMP JUMPDEST PUSH2 0x2D55 DUP2 PUSH2 0x2304 JUMP JUMPDEST DUP3 MSTORE POP POP JUMP JUMPDEST PUSH1 0x0 PUSH2 0x2D67 DUP4 DUP4 PUSH2 0x2D4C JUMP JUMPDEST PUSH1 0x20 DUP4 ADD SWAP1 POP SWAP3 SWAP2 POP POP JUMP JUMPDEST PUSH1 0x0 PUSH2 0x2D82 PUSH1 0x20 DUP5 ADD DUP5 PUSH2 0x232D JUMP JUMPDEST SWAP1 POP SWAP3 SWAP2 POP POP JUMP JUMPDEST PUSH1 0x0 PUSH1 0x20 DUP3 ADD SWAP1 POP SWAP2 SWAP1 POP JUMP JUMPDEST PUSH1 0x0 PUSH2 0x2DA3 DUP4 DUP6 PUSH2 0x2D31 JUMP JUMPDEST SWAP4 POP PUSH2 0x2DAE DUP3 PUSH2 0x2D42 JUMP JUMPDEST DUP1 PUSH1 0x0 JUMPDEST DUP6 DUP2 LT ISZERO PUSH2 0x2DE7 JUMPI PUSH2 0x2DC4 DUP3 DUP5 PUSH2 0x2D73 JUMP JUMPDEST PUSH2 0x2DCE DUP9 DUP3 PUSH2 0x2D5B JUMP JUMPDEST SWAP8 POP PUSH2 0x2DD9 DUP4 PUSH2 0x2D8A JUMP JUMPDEST SWAP3 POP POP PUSH1 0x1 DUP2 ADD SWAP1 POP PUSH2 0x2DB2 JUMP JUMPDEST POP DUP6 SWAP3 POP POP POP SWAP4 SWAP3 POP POP POP JUMP JUMPDEST PUSH1 0x0 PUSH1 0xA0 DUP3 ADD SWAP1 POP PUSH2 0x2E09 PUSH1 0x0 DUP4 ADD DUP10 PUSH2 0x2240 JUMP JUMPDEST PUSH2 0x2E16 PUSH1 0x20 DUP4 ADD DUP9 PUSH2 0x2240 JUMP JUMPDEST DUP2 DUP2 SUB PUSH1 0x40 DUP4 ADD MSTORE PUSH2 0x2E29 DUP2 DUP7 DUP9 PUSH2 0x2D97 JUMP JUMPDEST SWAP1 POP PUSH2 0x2E38 PUSH1 0x60 DUP4 ADD DUP6 PUSH2 0x249D JUMP JUMPDEST PUSH2 0x2E45 PUSH1 0x80 DUP4 ADD DUP5 PUSH2 0x2240 JUMP JUMPDEST SWAP8 SWAP7 POP POP POP POP POP POP POP JUMP JUMPDEST PUSH32 0x7A65726F20776974686472617700000000000000000000000000000000000000 PUSH1 0x0 DUP3 ADD MSTORE POP JUMP JUMPDEST PUSH1 0x0 PUSH2 0x2E86 PUSH1 0xD DUP4 PUSH2 0x25C8 JUMP JUMPDEST SWAP2 POP PUSH2 0x2E91 DUP3 PUSH2 0x2E50 JUMP JUMPDEST PUSH1 0x20 DUP3 ADD SWAP1 POP SWAP2 SWAP1 POP JUMP JUMPDEST PUSH1 0x0 PUSH1 0x20 DUP3 ADD SWAP1 POP DUP2 DUP2 SUB PUSH1 0x0 DUP4 ADD MSTORE PUSH2 0x2EB5 DUP2 PUSH2 0x2E79 JUMP JUMPDEST SWAP1 POP SWAP2 SWAP1 POP JUMP JUMPDEST PUSH32 0x746F6F206D756368000000000000000000000000000000000000000000000000 PUSH1 0x0 DUP3 ADD MSTORE POP JUMP JUMPDEST PUSH1 0x0 PUSH2 0x2EF2 PUSH1 0x8 DUP4 PUSH2 0x25C8 JUMP JUMPDEST SWAP2 POP PUSH2 0x2EFD DUP3 PUSH2 0x2EBC JUMP JUMPDEST PUSH1 0x20 DUP3 ADD SWAP1 POP SWAP2 SWAP1 POP JUMP JUMPDEST PUSH1 0x0 PUSH1 0x20 DUP3 ADD SWAP1 POP DUP2 DUP2 SUB PUSH1 0x0 DUP4 ADD MSTORE PUSH2 0x2F21 DUP2 PUSH2 0x2EE5 JUMP JUMPDEST SWAP1 POP SWAP2 SWAP1 POP JUMP JUMPDEST PUSH32 0x7374696C6C206C6F636B65640000000000000000000000000000000000000000 PUSH1 0x0 DUP3 ADD MSTORE POP JUMP JUMPDEST PUSH1 0x0 PUSH2 0x2F5E PUSH1 0xC DUP4 PUSH2 0x25C8 JUMP JUMPDEST SWAP2 POP PUSH2 0x2F69 DUP3 PUSH2 0x2F28 JUMP JUMPDEST PUSH1 0x20 DUP3 ADD SWAP1 POP SWAP2 SWAP1 POP JUMP JUMPDEST PUSH1 0x0 PUSH1 0x20 DUP3 ADD SWAP1 POP DUP2 DUP2 SUB PUSH1 0x0 DUP4 ADD MSTORE PUSH2 0x2F8D DUP2 PUSH2 0x2F51 JUMP JUMPDEST SWAP1 POP SWAP2 SWAP1 POP JUMP JUMPDEST PUSH1 0x0 PUSH1 0x60 DUP3 ADD SWAP1 POP PUSH2 0x2FA9 PUSH1 0x0 DUP4 ADD DUP7 PUSH2 0x2240 JUMP JUMPDEST PUSH2 0x2FB6 PUSH1 0x20 DUP4 ADD DUP6 PUSH2 0x2240 JUMP JUMPDEST PUSH2 0x2FC3 PUSH1 0x40 DUP4 ADD DUP5 PUSH2 0x250F JUMP JUMPDEST SWAP5 SWAP4 POP POP POP POP JUMP JUMPDEST PUSH1 0x0 PUSH1 0x40 DUP3 ADD SWAP1 POP PUSH2 0x2FE0 PUSH1 0x0 DUP4 ADD DUP6 PUSH2 0x2240 JUMP JUMPDEST PUSH2 0x2FED PUSH1 0x20 DUP4 ADD DUP5 PUSH2 0x2240 JUMP JUMPDEST SWAP4 SWAP3 POP POP POP JUMP JUMPDEST PUSH32 0x6261642073706C69740000000000000000000000000000000000000000000000 PUSH1 0x0 DUP3 ADD MSTORE POP JUMP JUMPDEST PUSH1 0x0 PUSH2 0x302A PUSH1 0x9 DUP4 PUSH2 0x25C8 JUMP JUMPDEST SWAP2 POP PUSH2 0x3035 DUP3 PUSH2 0x2FF4 JUMP JUMPDEST PUSH1 0x20 DUP3 ADD SWAP1 POP SWAP2 SWAP1 POP JUMP JUMPDEST PUSH1 0x0 PUSH1 0x20 DUP3 ADD SWAP1 POP DUP2 DUP2 SUB PUSH1 0x0 DUP4 ADD MSTORE PUSH2 0x3059 DUP2 PUSH2 0x301D JUMP JUMPDEST SWAP1 POP SWAP2 SWAP1 POP JUMP JUMPDEST PUSH32 0x6275726E20746F6F206C6F770000000000000000000000000000000000000000 PUSH1 0x0 DUP3 ADD MSTORE POP JUMP JUMPDEST PUSH1 0x0 PUSH2 0x3096 PUSH1 0xC DUP4 PUSH2 0x25C8 JUMP JUMPDEST SWAP2 POP PUSH2 0x30A1 DUP3 PUSH2 0x3060 JUMP JUMPDEST PUSH1 0x20 DUP3 ADD SWAP1 POP SWAP2 SWAP1 POP JUMP JUMPDEST PUSH1 0x0 PUSH1 0x20 DUP3 ADD SWAP1 POP DUP2 DUP2 SUB PUSH1 0x0 DUP4 ADD MSTORE PUSH2 0x30C5 DUP2 PUSH2 0x3089 JUMP JUMPDEST SWAP1 POP SWAP2 SWAP1 POP JUMP JUMPDEST PUSH32 0x7A65726F20747265617375727900000000000000000000000000000000000000 PUSH1 0x0 DUP3 ADD MSTORE POP JUMP JUMPDEST PUSH1 0x0 PUSH2 0x3102 PUSH1 0xD DUP4 PUSH2 0x25C8 JUMP JUMPDEST SWAP2 POP PUSH2 0x310D DUP3 PUSH2 0x30CC JUMP JUMPDEST PUSH1 0x20 DUP3 ADD SWAP1 POP SWAP2 SWAP1 POP JUMP JUMPDEST PUSH1 0x0 PUSH1 0x20 DUP3 ADD SWAP1 POP DUP2 DUP2 SUB PUSH1 0x0 DUP4 ADD MSTORE PUSH2 0x3131 DUP2 PUSH2 0x30F5 JUMP JUMPDEST SWAP1 POP SWAP2 SWAP1 POP JUMP JUMPDEST PUSH1 0x0 PUSH1 0x60 DUP3 ADD SWAP1 POP PUSH2 0x314D PUSH1 0x0 DUP4 ADD DUP7 PUSH2 0x249D JUMP JUMPDEST PUSH2 0x315A PUSH1 0x20 DUP4 ADD DUP6 PUSH2 0x249D JUMP JUMPDEST PUSH2 0x3167 PUSH1 0x40 DUP4 ADD DUP5 PUSH2 0x2240 JUMP JUMPDEST SWAP5 SWAP4 POP POP POP POP JUMP JUMPDEST PUSH1 0x0 PUSH1 0x40 DUP3 ADD SWAP1 POP PUSH2 0x3184 PUSH1 0x0 DUP4 ADD DUP6 PUSH2 0x249D JUMP JUMPDEST PUSH2 0x3191 PUSH1 0x20 DUP4 ADD DUP5 PUSH2 0x2240 JUMP JUMPDEST SWAP4 SWAP3 POP POP POP JUMP JUMPDEST PUSH1 0x0 PUSH1 0x40 DUP3 ADD SWAP1 POP PUSH2 0x31AD PUSH1 0x0 DUP4 ADD DUP6 PUSH2 0x249D JUMP JUMPDEST PUSH2 0x31BA PUSH1 0x20 DUP4 ADD DUP5 PUSH2 0x29A9 JUMP JUMPDEST SWAP4 SWAP3 POP POP POP JUMP INVALID LOG2 PUSH5 0x6970667358 0x22 SLT KECCAK256 SWAP12 EQ 0x27 0xEF OR 0x4C DUP5 PUSH8 0x13F3938160DF5401 DUP6 SUB DIFFICULTY DELEGATECALL PUSH28 0x88B9377C0B2078BA61B1AD64736F6C63430008180033000000000000 "
				},
				"gasEstimates": {
					"creation": {
						"codeDepositCost": "2558200",
						"executionCost": "infinite",
						"totalCost": "infinite"
					},
					"external": {
						"BURN_ADDRESS()": "488",
						"LOCK_DURATION()": "397",
						"PRECISION()": "374",
						"accCorePerLiquidity()": "2498",
						"burnBps()": "2474",
						"claimCoreRewards()": "infinite",
						"core()": "infinite",
						"coreBurn()": "infinite",
						"deposit(uint256,uint256,uint256)": "infinite",
						"electroFarm()": "infinite",
						"farmId()": "infinite",
						"harvest(address[],uint256)": "infinite",
						"isCharacterEligible(address)": "11651",
						"owner()": "2567",
						"pendingCoreRewards(address)": "infinite",
						"renounceOwnership()": "infinite",
						"rewardBps()": "2519",
						"rewardToken()": "infinite",
						"router()": "infinite",
						"setSplits(uint256,uint256,uint256)": "infinite",
						"setTreasury(address)": "infinite",
						"token0()": "infinite",
						"token1()": "infinite",
						"totalLiquidity()": "2475",
						"transferOwnership(address)": "infinite",
						"treasury()": "2603",
						"treasuryBps()": "2519",
						"users(address)": "infinite",
						"withdraw(uint256)": "infinite"
					},
					"internal": {
						"_claimCoreRewards(address)": "infinite",
						"_isValidCoreLock(uint256,uint256,uint256)": "38"
					}
				},
				"methodIdentifiers": {
					"BURN_ADDRESS()": "fccc2813",
					"LOCK_DURATION()": "485d3834",
					"PRECISION()": "aaf5eb68",
					"accCorePerLiquidity()": "0117f00e",
					"burnBps()": "53deb3d6",
					"claimCoreRewards()": "a372630d",
					"core()": "f2f4eb26",
					"coreBurn()": "54e5cf76",
					"deposit(uint256,uint256,uint256)": "00aeef8a",
					"electroFarm()": "6b8aceb8",
					"farmId()": "278de000",
					"harvest(address[],uint256)": "2da5ff09",
					"isCharacterEligible(address)": "8e3a7d84",
					"owner()": "8da5cb5b",
					"pendingCoreRewards(address)": "27bd6e39",
					"renounceOwnership()": "715018a6",
					"rewardBps()": "82328ffc",
					"rewardToken()": "f7c618c1",
					"router()": "f887ea40",
					"setSplits(uint256,uint256,uint256)": "700cd48e",
					"setTreasury(address)": "f0f44260",
					"token0()": "0dfe1681",
					"token1()": "d21220a7",
					"totalLiquidity()": "15770f92",
					"transferOwnership(address)": "f2fde38b",
					"treasury()": "61d027b3",
					"treasuryBps()": "4dc10ea1",
					"users(address)": "a87430ba",
					"withdraw(uint256)": "2e1a7d4d"
				}
			},
			"storageLayout": {
				"storage": [
					{
						"astId": 1065,
						"contract": "contracts/ZephyrosVault/ZephyrosVault.sol:ZephyrosCoreBurnVault",
						"label": "_owner",
						"offset": 0,
						"slot": "0",
						"type": "t_address"
					},
					{
						"astId": 1877,
						"contract": "contracts/ZephyrosVault/ZephyrosVault.sol:ZephyrosCoreBurnVault",
						"label": "_status",
						"offset": 0,
						"slot": "1",
						"type": "t_uint256"
					},
					{
						"astId": 103,
						"contract": "contracts/ZephyrosVault/ZephyrosVault.sol:ZephyrosCoreBurnVault",
						"label": "burnBps",
						"offset": 0,
						"slot": "2",
						"type": "t_uint256"
					},
					{
						"astId": 106,
						"contract": "contracts/ZephyrosVault/ZephyrosVault.sol:ZephyrosCoreBurnVault",
						"label": "rewardBps",
						"offset": 0,
						"slot": "3",
						"type": "t_uint256"
					},
					{
						"astId": 109,
						"contract": "contracts/ZephyrosVault/ZephyrosVault.sol:ZephyrosCoreBurnVault",
						"label": "treasuryBps",
						"offset": 0,
						"slot": "4",
						"type": "t_uint256"
					},
					{
						"astId": 140,
						"contract": "contracts/ZephyrosVault/ZephyrosVault.sol:ZephyrosCoreBurnVault",
						"label": "treasury",
						"offset": 0,
						"slot": "5",
						"type": "t_address"
					},
					{
						"astId": 142,
						"contract": "contracts/ZephyrosVault/ZephyrosVault.sol:ZephyrosCoreBurnVault",
						"label": "totalLiquidity",
						"offset": 0,
						"slot": "6",
						"type": "t_uint256"
					},
					{
						"astId": 144,
						"contract": "contracts/ZephyrosVault/ZephyrosVault.sol:ZephyrosCoreBurnVault",
						"label": "accCorePerLiquidity",
						"offset": 0,
						"slot": "7",
						"type": "t_uint256"
					},
					{
						"astId": 160,
						"contract": "contracts/ZephyrosVault/ZephyrosVault.sol:ZephyrosCoreBurnVault",
						"label": "users",
						"offset": 0,
						"slot": "8",
						"type": "t_mapping(t_address,t_struct(UserInfo)155_storage)"
					}
				],
				"types": {
					"t_address": {
						"encoding": "inplace",
						"label": "address",
						"numberOfBytes": "20"
					},
					"t_bool": {
						"encoding": "inplace",
						"label": "bool",
						"numberOfBytes": "1"
					},
					"t_mapping(t_address,t_struct(UserInfo)155_storage)": {
						"encoding": "mapping",
						"key": "t_address",
						"label": "mapping(address => struct ZephyrosCoreBurnVault.UserInfo)",
						"numberOfBytes": "32",
						"value": "t_struct(UserInfo)155_storage"
					},
					"t_struct(UserInfo)155_storage": {
						"encoding": "inplace",
						"label": "struct ZephyrosCoreBurnVault.UserInfo",
						"members": [
							{
								"astId": 146,
								"contract": "contracts/ZephyrosVault/ZephyrosVault.sol:ZephyrosCoreBurnVault",
								"label": "liquidity",
								"offset": 0,
								"slot": "0",
								"type": "t_uint256"
							},
							{
								"astId": 148,
								"contract": "contracts/ZephyrosVault/ZephyrosVault.sol:ZephyrosCoreBurnVault",
								"label": "coreLocked",
								"offset": 0,
								"slot": "1",
								"type": "t_uint256"
							},
							{
								"astId": 150,
								"contract": "contracts/ZephyrosVault/ZephyrosVault.sol:ZephyrosCoreBurnVault",
								"label": "rewardDebt",
								"offset": 0,
								"slot": "2",
								"type": "t_uint256"
							},
							{
								"astId": 152,
								"contract": "contracts/ZephyrosVault/ZephyrosVault.sol:ZephyrosCoreBurnVault",
								"label": "unlockTime",
								"offset": 0,
								"slot": "3",
								"type": "t_uint256"
							},
							{
								"astId": 154,
								"contract": "contracts/ZephyrosVault/ZephyrosVault.sol:ZephyrosCoreBurnVault",
								"label": "active",
								"offset": 0,
								"slot": "4",
								"type": "t_bool"
							}
						],
						"numberOfBytes": "160"
					},
					"t_uint256": {
						"encoding": "inplace",
						"label": "uint256",
						"numberOfBytes": "32"
					}
				}
			},
			"userdoc": {
				"kind": "user",
				"methods": {},
				"version": 1
			}
		}
	}
}