{
	"contracts/EnsSubdomainService/ETNPublicResolver.sol": {
		"ETNPublicResolver": {
			"abi": [
				{
					"inputs": [
						{
							"internalType": "address",
							"name": "_registry",
							"type": "address"
						}
					],
					"stateMutability": "nonpayable",
					"type": "constructor"
				},
				{
					"anonymous": false,
					"inputs": [
						{
							"indexed": true,
							"internalType": "bytes32",
							"name": "node",
							"type": "bytes32"
						},
						{
							"indexed": false,
							"internalType": "address",
							"name": "addr",
							"type": "address"
						}
					],
					"name": "AddrChanged",
					"type": "event"
				},
				{
					"anonymous": false,
					"inputs": [
						{
							"indexed": true,
							"internalType": "bytes32",
							"name": "node",
							"type": "bytes32"
						},
						{
							"indexed": false,
							"internalType": "uint256",
							"name": "coinType",
							"type": "uint256"
						},
						{
							"indexed": false,
							"internalType": "bytes",
							"name": "newAddress",
							"type": "bytes"
						}
					],
					"name": "AddressChanged",
					"type": "event"
				},
				{
					"anonymous": false,
					"inputs": [
						{
							"indexed": true,
							"internalType": "bytes32",
							"name": "node",
							"type": "bytes32"
						},
						{
							"indexed": false,
							"internalType": "bytes",
							"name": "hash",
							"type": "bytes"
						}
					],
					"name": "ContenthashChanged",
					"type": "event"
				},
				{
					"anonymous": false,
					"inputs": [
						{
							"indexed": true,
							"internalType": "bytes32",
							"name": "node",
							"type": "bytes32"
						},
						{
							"indexed": false,
							"internalType": "string",
							"name": "name",
							"type": "string"
						}
					],
					"name": "NameChanged",
					"type": "event"
				},
				{
					"anonymous": false,
					"inputs": [
						{
							"indexed": true,
							"internalType": "bytes32",
							"name": "node",
							"type": "bytes32"
						},
						{
							"indexed": true,
							"internalType": "string",
							"name": "key",
							"type": "string"
						},
						{
							"indexed": false,
							"internalType": "string",
							"name": "value",
							"type": "string"
						}
					],
					"name": "TextChanged",
					"type": "event"
				},
				{
					"inputs": [
						{
							"internalType": "bytes32",
							"name": "node",
							"type": "bytes32"
						}
					],
					"name": "addr",
					"outputs": [
						{
							"internalType": "address",
							"name": "",
							"type": "address"
						}
					],
					"stateMutability": "view",
					"type": "function"
				},
				{
					"inputs": [
						{
							"internalType": "bytes32",
							"name": "node",
							"type": "bytes32"
						},
						{
							"internalType": "uint256",
							"name": "coinType",
							"type": "uint256"
						}
					],
					"name": "addr",
					"outputs": [
						{
							"internalType": "bytes",
							"name": "",
							"type": "bytes"
						}
					],
					"stateMutability": "view",
					"type": "function"
				},
				{
					"inputs": [
						{
							"internalType": "bytes32",
							"name": "node",
							"type": "bytes32"
						}
					],
					"name": "contenthash",
					"outputs": [
						{
							"internalType": "bytes",
							"name": "",
							"type": "bytes"
						}
					],
					"stateMutability": "view",
					"type": "function"
				},
				{
					"inputs": [
						{
							"internalType": "bytes32",
							"name": "node",
							"type": "bytes32"
						}
					],
					"name": "name",
					"outputs": [
						{
							"internalType": "string",
							"name": "",
							"type": "string"
						}
					],
					"stateMutability": "view",
					"type": "function"
				},
				{
					"inputs": [],
					"name": "registry",
					"outputs": [
						{
							"internalType": "contract ETNRegistry",
							"name": "",
							"type": "address"
						}
					],
					"stateMutability": "view",
					"type": "function"
				},
				{
					"inputs": [
						{
							"internalType": "bytes32",
							"name": "node",
							"type": "bytes32"
						},
						{
							"internalType": "uint256",
							"name": "coinType",
							"type": "uint256"
						},
						{
							"internalType": "bytes",
							"name": "a",
							"type": "bytes"
						}
					],
					"name": "setAddr",
					"outputs": [],
					"stateMutability": "nonpayable",
					"type": "function"
				},
				{
					"inputs": [
						{
							"internalType": "bytes32",
							"name": "node",
							"type": "bytes32"
						},
						{
							"internalType": "address",
							"name": "_addr",
							"type": "address"
						}
					],
					"name": "setAddr",
					"outputs": [],
					"stateMutability": "nonpayable",
					"type": "function"
				},
				{
					"inputs": [
						{
							"internalType": "bytes32",
							"name": "node",
							"type": "bytes32"
						},
						{
							"internalType": "bytes",
							"name": "hash",
							"type": "bytes"
						}
					],
					"name": "setContenthash",
					"outputs": [],
					"stateMutability": "nonpayable",
					"type": "function"
				},
				{
					"inputs": [
						{
							"internalType": "bytes32",
							"name": "node",
							"type": "bytes32"
						},
						{
							"internalType": "string",
							"name": "_name",
							"type": "string"
						}
					],
					"name": "setName",
					"outputs": [],
					"stateMutability": "nonpayable",
					"type": "function"
				},
				{
					"inputs": [
						{
							"internalType": "bytes32",
							"name": "node",
							"type": "bytes32"
						},
						{
							"internalType": "string",
							"name": "key",
							"type": "string"
						},
						{
							"internalType": "string",
							"name": "value",
							"type": "string"
						}
					],
					"name": "setText",
					"outputs": [],
					"stateMutability": "nonpayable",
					"type": "function"
				},
				{
					"inputs": [
						{
							"internalType": "bytes4",
							"name": "interfaceID",
							"type": "bytes4"
						}
					],
					"name": "supportsInterface",
					"outputs": [
						{
							"internalType": "bool",
							"name": "",
							"type": "bool"
						}
					],
					"stateMutability": "pure",
					"type": "function"
				},
				{
					"inputs": [
						{
							"internalType": "bytes32",
							"name": "node",
							"type": "bytes32"
						},
						{
							"internalType": "string",
							"name": "key",
							"type": "string"
						}
					],
					"name": "text",
					"outputs": [
						{
							"internalType": "string",
							"name": "",
							"type": "string"
						}
					],
					"stateMutability": "view",
					"type": "function"
				}
			],
			"devdoc": {
				"kind": "dev",
				"methods": {},
				"title": "ETNPublicResolver",
				"version": 1
			},
			"evm": {
				"assembly": "    /* \"contracts/EnsSubdomainService/ETNPublicResolver.sol\":673:6875  contract ETNPublicResolver {... */\n  mstore(0x40, 0xa0)\n    /* \"contracts/EnsSubdomainService/ETNPublicResolver.sol\":3129:3212  constructor(address _registry) {... */\n  callvalue\n  dup1\n  iszero\n  tag_1\n  jumpi\n  0x00\n  dup1\n  revert\ntag_1:\n  pop\n  mload(0x40)\n  sub(codesize, bytecodeSize)\n  dup1\n  bytecodeSize\n  dup4\n  codecopy\n  dup2\n  add\n  0x40\n  dup2\n  swap1\n  mstore\n  tag_2\n  swap2\n  tag_3\n  jump\t// in\ntag_2:\n  sub(shl(0xa0, 0x01), 0x01)\n    /* \"contracts/EnsSubdomainService/ETNPublicResolver.sol\":3171:3204  registry = ETNRegistry(_registry) */\n  and\n  0x80\n  mstore\n    /* \"contracts/EnsSubdomainService/ETNPublicResolver.sol\":673:6875  contract ETNPublicResolver {... */\n  jump(tag_7)\n    /* \"#utility.yul\":14:304   */\ntag_3:\n    /* \"#utility.yul\":84:90   */\n  0x00\n    /* \"#utility.yul\":137:139   */\n  0x20\n    /* \"#utility.yul\":125:134   */\n  dup3\n    /* \"#utility.yul\":116:123   */\n  dup5\n    /* \"#utility.yul\":112:135   */\n  sub\n    /* \"#utility.yul\":108:140   */\n  slt\n    /* \"#utility.yul\":105:157   */\n  iszero\n  tag_9\n  jumpi\n    /* \"#utility.yul\":153:154   */\n  0x00\n    /* \"#utility.yul\":150:151   */\n  dup1\n    /* \"#utility.yul\":143:155   */\n  revert\n    /* \"#utility.yul\":105:157   */\ntag_9:\n    /* \"#utility.yul\":179:195   */\n  dup2\n  mload\n  sub(shl(0xa0, 0x01), 0x01)\n    /* \"#utility.yul\":224:255   */\n  dup2\n  and\n    /* \"#utility.yul\":214:256   */\n  dup2\n  eq\n    /* \"#utility.yul\":204:274   */\n  tag_10\n  jumpi\n    /* \"#utility.yul\":270:271   */\n  0x00\n    /* \"#utility.yul\":267:268   */\n  dup1\n    /* \"#utility.yul\":260:272   */\n  revert\n    /* \"#utility.yul\":204:274   */\ntag_10:\n    /* \"#utility.yul\":293:298   */\n  swap4\n    /* \"#utility.yul\":14:304   */\n  swap3\n  pop\n  pop\n  pop\n  jump\t// out\ntag_7:\n    /* \"contracts/EnsSubdomainService/ETNPublicResolver.sol\":673:6875  contract ETNPublicResolver {... */\n  mload(0x80)\n  codecopy(0x00, dataOffset(sub_0), dataSize(sub_0))\n  0x00\n  assignImmutable(\"0xe455bf8ea6e7463a1046a0b52804526e119b4bf5136279614e0b1e8e296a4e2d\")\n  return(0x00, dataSize(sub_0))\nstop\n\nsub_0: assembly {\n        /* \"contracts/EnsSubdomainService/ETNPublicResolver.sol\":673:6875  contract ETNPublicResolver {... */\n      mstore(0x40, 0x80)\n      callvalue\n      dup1\n      iszero\n      tag_1\n      jumpi\n      0x00\n      dup1\n      revert\n    tag_1:\n      pop\n      jumpi(tag_2, lt(calldatasize, 0x04))\n      shr(0xe0, calldataload(0x00))\n      dup1\n      0x77372213\n      gt\n      tag_15\n      jumpi\n      dup1\n      0x77372213\n      eq\n      tag_9\n      jumpi\n      dup1\n      0x7b103999\n      eq\n      tag_10\n      jumpi\n      dup1\n      0x8b95dd71\n      eq\n      tag_11\n      jumpi\n      dup1\n      0xbc1c58d1\n      eq\n      tag_12\n      jumpi\n      dup1\n      0xd5fa2b00\n      eq\n      tag_13\n      jumpi\n      dup1\n      0xf1cb7e06\n      eq\n      tag_14\n      jumpi\n      0x00\n      dup1\n      revert\n    tag_15:\n      dup1\n      0x01ffc9a7\n      eq\n      tag_3\n      jumpi\n      dup1\n      0x10f13a8c\n      eq\n      tag_4\n      jumpi\n      dup1\n      0x304e6ade\n      eq\n      tag_5\n      jumpi\n      dup1\n      0x3b3b57de\n      eq\n      tag_6\n      jumpi\n      dup1\n      0x59d1d43c\n      eq\n      tag_7\n      jumpi\n      dup1\n      0x691f3431\n      eq\n      tag_8\n      jumpi\n    tag_2:\n      0x00\n      dup1\n      revert\n        /* \"contracts/EnsSubdomainService/ETNPublicResolver.sol\":6436:6872  function supportsInterface(bytes4 interfaceID) external pure returns (bool) {... */\n    tag_3:\n      tag_16\n      tag_17\n      calldatasize\n      0x04\n      tag_18\n      jump\t// in\n    tag_17:\n      tag_19\n      jump\t// in\n    tag_16:\n      mload(0x40)\n        /* \"#utility.yul\":470:484   */\n      swap1\n      iszero\n        /* \"#utility.yul\":463:485   */\n      iszero\n        /* \"#utility.yul\":445:486   */\n      dup2\n      mstore\n        /* \"#utility.yul\":433:435   */\n      0x20\n        /* \"#utility.yul\":418:436   */\n      add\n        /* \"contracts/EnsSubdomainService/ETNPublicResolver.sol\":6436:6872  function supportsInterface(bytes4 interfaceID) external pure returns (bool) {... */\n    tag_20:\n      mload(0x40)\n      dup1\n      swap2\n      sub\n      swap1\n      return\n        /* \"contracts/EnsSubdomainService/ETNPublicResolver.sol\":4482:4686  function setText(bytes32 node, string calldata key, string calldata value)... */\n    tag_4:\n      tag_22\n      tag_23\n      calldatasize\n      0x04\n      tag_24\n      jump\t// in\n    tag_23:\n      tag_25\n      jump\t// in\n    tag_22:\n      stop\n        /* \"contracts/EnsSubdomainService/ETNPublicResolver.sol\":5158:5349  function setContenthash(bytes32 node, bytes calldata hash)... */\n    tag_5:\n      tag_22\n      tag_27\n      calldatasize\n      0x04\n      tag_28\n      jump\t// in\n    tag_27:\n      tag_29\n      jump\t// in\n        /* \"contracts/EnsSubdomainService/ETNPublicResolver.sol\":3682:3784  function addr(bytes32 node) external view returns (address) {... */\n    tag_6:\n      tag_30\n      tag_31\n      calldatasize\n      0x04\n      tag_32\n      jump\t// in\n    tag_31:\n        /* \"contracts/EnsSubdomainService/ETNPublicResolver.sol\":3733:3740  address */\n      0x00\n        /* \"contracts/EnsSubdomainService/ETNPublicResolver.sol\":3760:3776  _addresses[node] */\n      swap1\n      dup2\n      mstore\n      0x20\n      dup2\n      swap1\n      mstore\n      0x40\n      swap1\n      keccak256\n      sload\n      sub(shl(0xa0, 0x01), 0x01)\n      and\n      swap1\n        /* \"contracts/EnsSubdomainService/ETNPublicResolver.sol\":3682:3784  function addr(bytes32 node) external view returns (address) {... */\n      jump\n    tag_30:\n      mload(0x40)\n      sub(shl(0xa0, 0x01), 0x01)\n        /* \"#utility.yul\":2476:2508   */\n      swap1\n      swap2\n      and\n        /* \"#utility.yul\":2458:2509   */\n      dup2\n      mstore\n        /* \"#utility.yul\":2446:2448   */\n      0x20\n        /* \"#utility.yul\":2431:2449   */\n      add\n        /* \"contracts/EnsSubdomainService/ETNPublicResolver.sol\":3682:3784  function addr(bytes32 node) external view returns (address) {... */\n      tag_20\n        /* \"#utility.yul\":2312:2515   */\n      jump\n        /* \"contracts/EnsSubdomainService/ETNPublicResolver.sol\":4694:4838  function text(bytes32 node, string calldata key)... */\n    tag_7:\n      tag_36\n      tag_37\n      calldatasize\n      0x04\n      tag_28\n      jump\t// in\n    tag_37:\n      tag_39\n      jump\t// in\n    tag_36:\n      mload(0x40)\n      tag_20\n      swap2\n      swap1\n      tag_41\n      jump\t// in\n        /* \"contracts/EnsSubdomainService/ETNPublicResolver.sol\":5999:6103  function name(bytes32 node) external view returns (string memory) {... */\n    tag_8:\n      tag_36\n      tag_43\n      calldatasize\n      0x04\n      tag_32\n      jump\t// in\n    tag_43:\n      tag_44\n      jump\t// in\n        /* \"contracts/EnsSubdomainService/ETNPublicResolver.sol\":5818:5991  function setName(bytes32 node, string calldata _name)... */\n    tag_9:\n      tag_22\n      tag_47\n      calldatasize\n      0x04\n      tag_28\n      jump\t// in\n    tag_47:\n      tag_48\n      jump\t// in\n        /* \"contracts/EnsSubdomainService/ETNPublicResolver.sol\":1014:1051  ETNRegistry public immutable registry */\n    tag_10:\n      tag_30\n      immutable(\"0xe455bf8ea6e7463a1046a0b52804526e119b4bf5136279614e0b1e8e296a4e2d\")\n      dup2\n      jump\n        /* \"contracts/EnsSubdomainService/ETNPublicResolver.sol\":3792:4001  function setAddr(bytes32 node, uint256 coinType, bytes calldata a)... */\n    tag_11:\n      tag_22\n      tag_54\n      calldatasize\n      0x04\n      tag_55\n      jump\t// in\n    tag_54:\n      tag_56\n      jump\t// in\n        /* \"contracts/EnsSubdomainService/ETNPublicResolver.sol\":5357:5475  function contenthash(bytes32 node) external view returns (bytes memory) {... */\n    tag_12:\n      tag_36\n      tag_58\n      calldatasize\n      0x04\n      tag_32\n      jump\t// in\n    tag_58:\n      tag_59\n      jump\t// in\n        /* \"contracts/EnsSubdomainService/ETNPublicResolver.sol\":3531:3674  function setAddr(bytes32 node, address _addr) external authorised(node) {... */\n    tag_13:\n      tag_22\n      tag_63\n      calldatasize\n      0x04\n      tag_64\n      jump\t// in\n    tag_63:\n      tag_65\n      jump\t// in\n        /* \"contracts/EnsSubdomainService/ETNPublicResolver.sol\":4009:4162  function addr(bytes32 node, uint256 coinType)... */\n    tag_14:\n      tag_36\n      tag_67\n      calldatasize\n      0x04\n      tag_68\n      jump\t// in\n    tag_67:\n      tag_69\n      jump\t// in\n        /* \"contracts/EnsSubdomainService/ETNPublicResolver.sol\":6436:6872  function supportsInterface(bytes4 interfaceID) external pure returns (bool) {... */\n    tag_19:\n        /* \"contracts/EnsSubdomainService/ETNPublicResolver.sol\":6506:6510  bool */\n      0x00\n      shl(0xe0, 0x01ffc9a7)\n      not(sub(shl(0xe0, 0x01), 0x01))\n        /* \"contracts/EnsSubdomainService/ETNPublicResolver.sol\":6543:6568  interfaceID == 0x01ffc9a7 */\n      dup4\n      and\n      eq\n      dup1\n        /* \"contracts/EnsSubdomainService/ETNPublicResolver.sol\":6543:6621  interfaceID == 0x01ffc9a7 || // ERC-165... */\n      tag_72\n      jumpi\n      pop\n      shl(0xe1, 0x1d9dabef)\n      not(sub(shl(0xe0, 0x01), 0x01))\n        /* \"contracts/EnsSubdomainService/ETNPublicResolver.sol\":6596:6621  interfaceID == 0x3b3b57de */\n      dup4\n      and\n      eq\n        /* \"contracts/EnsSubdomainService/ETNPublicResolver.sol\":6543:6621  interfaceID == 0x01ffc9a7 || // ERC-165... */\n    tag_72:\n        /* \"contracts/EnsSubdomainService/ETNPublicResolver.sol\":6543:6680  interfaceID == 0x01ffc9a7 || // ERC-165... */\n      dup1\n      tag_73\n      jumpi\n      pop\n      shl(0xe1, 0x78e5bf03)\n      not(sub(shl(0xe0, 0x01), 0x01))\n        /* \"contracts/EnsSubdomainService/ETNPublicResolver.sol\":6655:6680  interfaceID == 0xf1cb7e06 */\n      dup4\n      and\n      eq\n        /* \"contracts/EnsSubdomainService/ETNPublicResolver.sol\":6543:6680  interfaceID == 0x01ffc9a7 || // ERC-165... */\n    tag_73:\n        /* \"contracts/EnsSubdomainService/ETNPublicResolver.sol\":6543:6747  interfaceID == 0x01ffc9a7 || // ERC-165... */\n      dup1\n      tag_74\n      jumpi\n      pop\n      shl(0xe2, 0x1674750f)\n      not(sub(shl(0xe0, 0x01), 0x01))\n        /* \"contracts/EnsSubdomainService/ETNPublicResolver.sol\":6722:6747  interfaceID == 0x59d1d43c */\n      dup4\n      and\n      eq\n        /* \"contracts/EnsSubdomainService/ETNPublicResolver.sol\":6543:6747  interfaceID == 0x01ffc9a7 || // ERC-165... */\n    tag_74:\n        /* \"contracts/EnsSubdomainService/ETNPublicResolver.sol\":6543:6797  interfaceID == 0x01ffc9a7 || // ERC-165... */\n      dup1\n      tag_75\n      jumpi\n      pop\n      shl(0xe0, 0xbc1c58d1)\n      not(sub(shl(0xe0, 0x01), 0x01))\n        /* \"contracts/EnsSubdomainService/ETNPublicResolver.sol\":6772:6797  interfaceID == 0xbc1c58d1 */\n      dup4\n      and\n      eq\n        /* \"contracts/EnsSubdomainService/ETNPublicResolver.sol\":6543:6797  interfaceID == 0x01ffc9a7 || // ERC-165... */\n    tag_75:\n        /* \"contracts/EnsSubdomainService/ETNPublicResolver.sol\":6543:6854  interfaceID == 0x01ffc9a7 || // ERC-165... */\n      dup1\n      tag_76\n      jumpi\n      pop\n      shl(0xe0, 0x691f3431)\n      not(sub(shl(0xe0, 0x01), 0x01))\n        /* \"contracts/EnsSubdomainService/ETNPublicResolver.sol\":6829:6854  interfaceID == 0x691f3431 */\n      dup4\n      and\n      eq\n        /* \"contracts/EnsSubdomainService/ETNPublicResolver.sol\":6543:6854  interfaceID == 0x01ffc9a7 || // ERC-165... */\n    tag_76:\n        /* \"contracts/EnsSubdomainService/ETNPublicResolver.sol\":6523:6854  return... */\n      swap3\n        /* \"contracts/EnsSubdomainService/ETNPublicResolver.sol\":6436:6872  function supportsInterface(bytes4 interfaceID) external pure returns (bool) {... */\n      swap2\n      pop\n      pop\n      jump\t// out\n        /* \"contracts/EnsSubdomainService/ETNPublicResolver.sol\":4482:4686  function setText(bytes32 node, string calldata key, string calldata value)... */\n    tag_25:\n        /* \"contracts/EnsSubdomainService/ETNPublicResolver.sol\":2599:2619  registry.owner(node) */\n      mload(0x40)\n      shl(0xe0, 0x02571be3)\n      dup2\n      mstore\n      0x04\n      dup2\n      add\n        /* \"#utility.yul\":5513:5538   */\n      dup7\n      swap1\n      mstore\n        /* \"contracts/EnsSubdomainService/ETNPublicResolver.sol\":4586:4590  node */\n      dup6\n      swap1\n        /* \"contracts/EnsSubdomainService/ETNPublicResolver.sol\":2579:2596  address nodeOwner */\n      0x00\n      swap1\n      sub(shl(0xa0, 0x01), 0x01)\n        /* \"contracts/EnsSubdomainService/ETNPublicResolver.sol\":2599:2607  registry */\n      immutable(\"0xe455bf8ea6e7463a1046a0b52804526e119b4bf5136279614e0b1e8e296a4e2d\")\n        /* \"contracts/EnsSubdomainService/ETNPublicResolver.sol\":2599:2613  registry.owner */\n      and\n      swap1\n      0x02571be3\n      swap1\n        /* \"#utility.yul\":5486:5504   */\n      0x24\n      add\n        /* \"contracts/EnsSubdomainService/ETNPublicResolver.sol\":2599:2619  registry.owner(node) */\n      0x20\n      mload(0x40)\n      dup1\n      dup4\n      sub\n      dup2\n      dup7\n      gas\n      staticcall\n      iszero\n      dup1\n      iszero\n      tag_81\n      jumpi\n      returndatasize\n      0x00\n      dup1\n      returndatacopy\n      revert(0x00, returndatasize)\n    tag_81:\n      pop\n      pop\n      pop\n      pop\n      mload(0x40)\n      returndatasize\n      not(0x1f)\n      0x1f\n      dup3\n      add\n      and\n      dup3\n      add\n      dup1\n      0x40\n      mstore\n      pop\n      dup2\n      add\n      swap1\n      tag_82\n      swap2\n      swap1\n      tag_83\n      jump\t// in\n    tag_82:\n        /* \"contracts/EnsSubdomainService/ETNPublicResolver.sol\":2579:2619  address nodeOwner = registry.owner(node) */\n      swap1\n      pop\n      sub(shl(0xa0, 0x01), 0x01)\n        /* \"contracts/EnsSubdomainService/ETNPublicResolver.sol\":2652:2675  nodeOwner == msg.sender */\n      dup2\n      and\n        /* \"contracts/EnsSubdomainService/ETNPublicResolver.sol\":2665:2675  msg.sender */\n      caller\n        /* \"contracts/EnsSubdomainService/ETNPublicResolver.sol\":2652:2675  nodeOwner == msg.sender */\n      eq\n      dup1\n        /* \"contracts/EnsSubdomainService/ETNPublicResolver.sol\":2652:2735  nodeOwner == msg.sender ||... */\n      tag_89\n      jumpi\n      pop\n        /* \"contracts/EnsSubdomainService/ETNPublicResolver.sol\":2692:2735  registry.isApprovedForAll(node, msg.sender) */\n      mload(0x40)\n      shl(0xe3, 0x160d30c5)\n      dup2\n      mstore\n      0x04\n      dup2\n      add\n        /* \"#utility.yul\":5979:6004   */\n      dup4\n      swap1\n      mstore\n        /* \"contracts/EnsSubdomainService/ETNPublicResolver.sol\":2724:2734  msg.sender */\n      caller\n        /* \"#utility.yul\":6020:6038   */\n      0x24\n      dup3\n      add\n        /* \"#utility.yul\":6013:6073   */\n      mstore\n        /* \"contracts/EnsSubdomainService/ETNPublicResolver.sol\":2692:2700  registry */\n      immutable(\"0xe455bf8ea6e7463a1046a0b52804526e119b4bf5136279614e0b1e8e296a4e2d\")\n      sub(shl(0xa0, 0x01), 0x01)\n        /* \"contracts/EnsSubdomainService/ETNPublicResolver.sol\":2692:2717  registry.isApprovedForAll */\n      and\n      swap1\n      0xb0698628\n      swap1\n        /* \"#utility.yul\":5952:5970   */\n      0x44\n      add\n        /* \"contracts/EnsSubdomainService/ETNPublicResolver.sol\":2692:2735  registry.isApprovedForAll(node, msg.sender) */\n      0x20\n      mload(0x40)\n      dup1\n      dup4\n      sub\n      dup2\n      dup7\n      gas\n      staticcall\n      iszero\n      dup1\n      iszero\n      tag_88\n      jumpi\n      returndatasize\n      0x00\n      dup1\n      returndatacopy\n      revert(0x00, returndatasize)\n    tag_88:\n      pop\n      pop\n      pop\n      pop\n      mload(0x40)\n      returndatasize\n      not(0x1f)\n      0x1f\n      dup3\n      add\n      and\n      dup3\n      add\n      dup1\n      0x40\n      mstore\n      pop\n      dup2\n      add\n      swap1\n      tag_89\n      swap2\n      swap1\n      tag_90\n      jump\t// in\n    tag_89:\n        /* \"contracts/EnsSubdomainService/ETNPublicResolver.sol\":2630:2790  require(... */\n      tag_91\n      jumpi\n      mload(0x40)\n      shl(0xe5, 0x461bcd)\n      dup2\n      mstore\n      0x04\n      add\n      tag_92\n      swap1\n      tag_93\n      jump\t// in\n    tag_92:\n      mload(0x40)\n      dup1\n      swap2\n      sub\n      swap1\n      revert\n    tag_91:\n        /* \"contracts/EnsSubdomainService/ETNPublicResolver.sol\":4628:4633  value */\n      dup4\n      dup4\n        /* \"contracts/EnsSubdomainService/ETNPublicResolver.sol\":4608:4614  _texts */\n      0x02\n        /* \"contracts/EnsSubdomainService/ETNPublicResolver.sol\":4608:4620  _texts[node] */\n      0x00\n        /* \"contracts/EnsSubdomainService/ETNPublicResolver.sol\":4615:4619  node */\n      dup11\n        /* \"contracts/EnsSubdomainService/ETNPublicResolver.sol\":4608:4620  _texts[node] */\n      dup2\n      mstore\n      0x20\n      add\n      swap1\n      dup2\n      mstore\n      0x20\n      add\n      0x00\n      keccak256\n        /* \"contracts/EnsSubdomainService/ETNPublicResolver.sol\":4621:4624  key */\n      dup9\n      dup9\n        /* \"contracts/EnsSubdomainService/ETNPublicResolver.sol\":4608:4625  _texts[node][key] */\n      mload(0x40)\n      tag_95\n      swap3\n      swap2\n      swap1\n      tag_96\n      jump\t// in\n    tag_95:\n      swap1\n      dup2\n      mstore\n      0x20\n      add\n      mload(0x40)\n      dup1\n      swap2\n      sub\n      swap1\n      keccak256\n        /* \"contracts/EnsSubdomainService/ETNPublicResolver.sol\":4608:4633  _texts[node][key] = value */\n      swap2\n      dup3\n      tag_97\n      swap3\n      swap2\n      swap1\n      tag_98\n      jump\t// in\n    tag_97:\n      pop\n        /* \"contracts/EnsSubdomainService/ETNPublicResolver.sol\":4667:4670  key */\n      dup6\n      dup6\n        /* \"contracts/EnsSubdomainService/ETNPublicResolver.sol\":4649:4678  TextChanged(node, key, value) */\n      mload(0x40)\n      tag_99\n      swap3\n      swap2\n      swap1\n      tag_96\n      jump\t// in\n    tag_99:\n      mload(0x40)\n      dup1\n      swap2\n      sub\n      swap1\n      keccak256\n        /* \"contracts/EnsSubdomainService/ETNPublicResolver.sol\":4661:4665  node */\n      dup8\n        /* \"contracts/EnsSubdomainService/ETNPublicResolver.sol\":4649:4678  TextChanged(node, key, value) */\n      0xd8c9334b1a9c2f9da342a0a2b32629c1a229b6445dad78947f674b44444a7550\n        /* \"contracts/EnsSubdomainService/ETNPublicResolver.sol\":4672:4677  value */\n      dup7\n      dup7\n        /* \"contracts/EnsSubdomainService/ETNPublicResolver.sol\":4649:4678  TextChanged(node, key, value) */\n      mload(0x40)\n      tag_100\n      swap3\n      swap2\n      swap1\n      tag_101\n      jump\t// in\n    tag_100:\n      mload(0x40)\n      dup1\n      swap2\n      sub\n      swap1\n      log3\n        /* \"contracts/EnsSubdomainService/ETNPublicResolver.sol\":2568:2810  {... */\n      pop\n        /* \"contracts/EnsSubdomainService/ETNPublicResolver.sol\":4482:4686  function setText(bytes32 node, string calldata key, string calldata value)... */\n      pop\n      pop\n      pop\n      pop\n      pop\n      pop\n      jump\t// out\n        /* \"contracts/EnsSubdomainService/ETNPublicResolver.sol\":5158:5349  function setContenthash(bytes32 node, bytes calldata hash)... */\n    tag_29:\n        /* \"contracts/EnsSubdomainService/ETNPublicResolver.sol\":2599:2619  registry.owner(node) */\n      mload(0x40)\n      shl(0xe0, 0x02571be3)\n      dup2\n      mstore\n      0x04\n      dup2\n      add\n        /* \"#utility.yul\":5513:5538   */\n      dup5\n      swap1\n      mstore\n        /* \"contracts/EnsSubdomainService/ETNPublicResolver.sol\":5246:5250  node */\n      dup4\n      swap1\n        /* \"contracts/EnsSubdomainService/ETNPublicResolver.sol\":2579:2596  address nodeOwner */\n      0x00\n      swap1\n      sub(shl(0xa0, 0x01), 0x01)\n        /* \"contracts/EnsSubdomainService/ETNPublicResolver.sol\":2599:2607  registry */\n      immutable(\"0xe455bf8ea6e7463a1046a0b52804526e119b4bf5136279614e0b1e8e296a4e2d\")\n        /* \"contracts/EnsSubdomainService/ETNPublicResolver.sol\":2599:2613  registry.owner */\n      and\n      swap1\n      0x02571be3\n      swap1\n        /* \"#utility.yul\":5486:5504   */\n      0x24\n      add\n        /* \"contracts/EnsSubdomainService/ETNPublicResolver.sol\":2599:2619  registry.owner(node) */\n      0x20\n      mload(0x40)\n      dup1\n      dup4\n      sub\n      dup2\n      dup7\n      gas\n      staticcall\n      iszero\n      dup1\n      iszero\n      tag_105\n      jumpi\n      returndatasize\n      0x00\n      dup1\n      returndatacopy\n      revert(0x00, returndatasize)\n    tag_105:\n      pop\n      pop\n      pop\n      pop\n      mload(0x40)\n      returndatasize\n      not(0x1f)\n      0x1f\n      dup3\n      add\n      and\n      dup3\n      add\n      dup1\n      0x40\n      mstore\n      pop\n      dup2\n      add\n      swap1\n      tag_106\n      swap2\n      swap1\n      tag_83\n      jump\t// in\n    tag_106:\n        /* \"contracts/EnsSubdomainService/ETNPublicResolver.sol\":2579:2619  address nodeOwner = registry.owner(node) */\n      swap1\n      pop\n      sub(shl(0xa0, 0x01), 0x01)\n        /* \"contracts/EnsSubdomainService/ETNPublicResolver.sol\":2652:2675  nodeOwner == msg.sender */\n      dup2\n      and\n        /* \"contracts/EnsSubdomainService/ETNPublicResolver.sol\":2665:2675  msg.sender */\n      caller\n        /* \"contracts/EnsSubdomainService/ETNPublicResolver.sol\":2652:2675  nodeOwner == msg.sender */\n      eq\n      dup1\n        /* \"contracts/EnsSubdomainService/ETNPublicResolver.sol\":2652:2735  nodeOwner == msg.sender ||... */\n      tag_111\n      jumpi\n      pop\n        /* \"contracts/EnsSubdomainService/ETNPublicResolver.sol\":2692:2735  registry.isApprovedForAll(node, msg.sender) */\n      mload(0x40)\n      shl(0xe3, 0x160d30c5)\n      dup2\n      mstore\n      0x04\n      dup2\n      add\n        /* \"#utility.yul\":5979:6004   */\n      dup4\n      swap1\n      mstore\n        /* \"contracts/EnsSubdomainService/ETNPublicResolver.sol\":2724:2734  msg.sender */\n      caller\n        /* \"#utility.yul\":6020:6038   */\n      0x24\n      dup3\n      add\n        /* \"#utility.yul\":6013:6073   */\n      mstore\n        /* \"contracts/EnsSubdomainService/ETNPublicResolver.sol\":2692:2700  registry */\n      immutable(\"0xe455bf8ea6e7463a1046a0b52804526e119b4bf5136279614e0b1e8e296a4e2d\")\n      sub(shl(0xa0, 0x01), 0x01)\n        /* \"contracts/EnsSubdomainService/ETNPublicResolver.sol\":2692:2717  registry.isApprovedForAll */\n      and\n      swap1\n      0xb0698628\n      swap1\n        /* \"#utility.yul\":5952:5970   */\n      0x44\n      add\n        /* \"contracts/EnsSubdomainService/ETNPublicResolver.sol\":2692:2735  registry.isApprovedForAll(node, msg.sender) */\n      0x20\n      mload(0x40)\n      dup1\n      dup4\n      sub\n      dup2\n      dup7\n      gas\n      staticcall\n      iszero\n      dup1\n      iszero\n      tag_110\n      jumpi\n      returndatasize\n      0x00\n      dup1\n      returndatacopy\n      revert(0x00, returndatasize)\n    tag_110:\n      pop\n      pop\n      pop\n      pop\n      mload(0x40)\n      returndatasize\n      not(0x1f)\n      0x1f\n      dup3\n      add\n      and\n      dup3\n      add\n      dup1\n      0x40\n      mstore\n      pop\n      dup2\n      add\n      swap1\n      tag_111\n      swap2\n      swap1\n      tag_90\n      jump\t// in\n    tag_111:\n        /* \"contracts/EnsSubdomainService/ETNPublicResolver.sol\":2630:2790  require(... */\n      tag_112\n      jumpi\n      mload(0x40)\n      shl(0xe5, 0x461bcd)\n      dup2\n      mstore\n      0x04\n      add\n      tag_92\n      swap1\n      tag_93\n      jump\t// in\n    tag_112:\n        /* \"contracts/EnsSubdomainService/ETNPublicResolver.sol\":5268:5288  _contentHashes[node] */\n      0x00\n      dup6\n      dup2\n      mstore\n        /* \"contracts/EnsSubdomainService/ETNPublicResolver.sol\":5268:5282  _contentHashes */\n      0x03\n        /* \"contracts/EnsSubdomainService/ETNPublicResolver.sol\":5268:5288  _contentHashes[node] */\n      0x20\n      mstore\n      0x40\n      swap1\n      keccak256\n        /* \"contracts/EnsSubdomainService/ETNPublicResolver.sol\":5268:5295  _contentHashes[node] = hash */\n      tag_115\n        /* \"contracts/EnsSubdomainService/ETNPublicResolver.sol\":5291:5295  hash */\n      dup5\n      dup7\n        /* \"contracts/EnsSubdomainService/ETNPublicResolver.sol\":5268:5288  _contentHashes[node] */\n      dup4\n        /* \"contracts/EnsSubdomainService/ETNPublicResolver.sol\":5268:5295  _contentHashes[node] = hash */\n      tag_98\n      jump\t// in\n    tag_115:\n      pop\n        /* \"contracts/EnsSubdomainService/ETNPublicResolver.sol\":5330:5334  node */\n      dup5\n        /* \"contracts/EnsSubdomainService/ETNPublicResolver.sol\":5311:5341  ContenthashChanged(node, hash) */\n      0xe379c1624ed7e714cc0937528a32359d69d5281337765313dba4e081b72d7578\n        /* \"contracts/EnsSubdomainService/ETNPublicResolver.sol\":5336:5340  hash */\n      dup6\n      dup6\n        /* \"contracts/EnsSubdomainService/ETNPublicResolver.sol\":5311:5341  ContenthashChanged(node, hash) */\n      mload(0x40)\n      tag_117\n      swap3\n      swap2\n      swap1\n      tag_101\n      jump\t// in\n    tag_117:\n      mload(0x40)\n      dup1\n      swap2\n      sub\n      swap1\n      log2\n        /* \"contracts/EnsSubdomainService/ETNPublicResolver.sol\":2568:2810  {... */\n      pop\n        /* \"contracts/EnsSubdomainService/ETNPublicResolver.sol\":5158:5349  function setContenthash(bytes32 node, bytes calldata hash)... */\n      pop\n      pop\n      pop\n      pop\n      jump\t// out\n        /* \"contracts/EnsSubdomainService/ETNPublicResolver.sol\":4694:4838  function text(bytes32 node, string calldata key)... */\n    tag_39:\n        /* \"contracts/EnsSubdomainService/ETNPublicResolver.sol\":4775:4788  string memory */\n      0x60\n        /* \"contracts/EnsSubdomainService/ETNPublicResolver.sol\":4813:4819  _texts */\n      0x02\n        /* \"contracts/EnsSubdomainService/ETNPublicResolver.sol\":4813:4825  _texts[node] */\n      0x00\n        /* \"contracts/EnsSubdomainService/ETNPublicResolver.sol\":4820:4824  node */\n      dup6\n        /* \"contracts/EnsSubdomainService/ETNPublicResolver.sol\":4813:4825  _texts[node] */\n      dup2\n      mstore\n      0x20\n      add\n      swap1\n      dup2\n      mstore\n      0x20\n      add\n      0x00\n      keccak256\n        /* \"contracts/EnsSubdomainService/ETNPublicResolver.sol\":4826:4829  key */\n      dup4\n      dup4\n        /* \"contracts/EnsSubdomainService/ETNPublicResolver.sol\":4813:4830  _texts[node][key] */\n      mload(0x40)\n      tag_121\n      swap3\n      swap2\n      swap1\n      tag_96\n      jump\t// in\n    tag_121:\n      swap1\n      dup2\n      mstore\n      0x20\n      add\n      mload(0x40)\n      dup1\n      swap2\n      sub\n      swap1\n      keccak256\n        /* \"contracts/EnsSubdomainService/ETNPublicResolver.sol\":4806:4830  return _texts[node][key] */\n      dup1\n      sload\n      tag_122\n      swap1\n      tag_123\n      jump\t// in\n    tag_122:\n      dup1\n      0x1f\n      add\n      0x20\n      dup1\n      swap2\n      div\n      mul\n      0x20\n      add\n      mload(0x40)\n      swap1\n      dup2\n      add\n      0x40\n      mstore\n      dup1\n      swap3\n      swap2\n      swap1\n      dup2\n      dup2\n      mstore\n      0x20\n      add\n      dup3\n      dup1\n      sload\n      tag_124\n      swap1\n      tag_123\n      jump\t// in\n    tag_124:\n      dup1\n      iszero\n      tag_125\n      jumpi\n      dup1\n      0x1f\n      lt\n      tag_126\n      jumpi\n      0x0100\n      dup1\n      dup4\n      sload\n      div\n      mul\n      dup4\n      mstore\n      swap2\n      0x20\n      add\n      swap2\n      jump(tag_125)\n    tag_126:\n      dup3\n      add\n      swap2\n      swap1\n      0x00\n      mstore\n      keccak256(0x00, 0x20)\n      swap1\n    tag_127:\n      dup2\n      sload\n      dup2\n      mstore\n      swap1\n      0x01\n      add\n      swap1\n      0x20\n      add\n      dup1\n      dup4\n      gt\n      tag_127\n      jumpi\n      dup3\n      swap1\n      sub\n      0x1f\n      and\n      dup3\n      add\n      swap2\n    tag_125:\n      pop\n      pop\n      pop\n      pop\n      pop\n      swap1\n      pop\n        /* \"contracts/EnsSubdomainService/ETNPublicResolver.sol\":4694:4838  function text(bytes32 node, string calldata key)... */\n      swap4\n      swap3\n      pop\n      pop\n      pop\n      jump\t// out\n        /* \"contracts/EnsSubdomainService/ETNPublicResolver.sol\":5999:6103  function name(bytes32 node) external view returns (string memory) {... */\n    tag_44:\n        /* \"contracts/EnsSubdomainService/ETNPublicResolver.sol\":6083:6095  _names[node] */\n      0x00\n      dup2\n      dup2\n      mstore\n        /* \"contracts/EnsSubdomainService/ETNPublicResolver.sol\":6083:6089  _names */\n      0x04\n        /* \"contracts/EnsSubdomainService/ETNPublicResolver.sol\":6083:6095  _names[node] */\n      0x20\n      mstore\n      0x40\n      swap1\n      keccak256\n        /* \"contracts/EnsSubdomainService/ETNPublicResolver.sol\":6076:6095  return _names[node] */\n      dup1\n      sload\n        /* \"contracts/EnsSubdomainService/ETNPublicResolver.sol\":6050:6063  string memory */\n      0x60\n      swap2\n        /* \"contracts/EnsSubdomainService/ETNPublicResolver.sol\":6083:6095  _names[node] */\n      swap1\n        /* \"contracts/EnsSubdomainService/ETNPublicResolver.sol\":6076:6095  return _names[node] */\n      tag_129\n      swap1\n      tag_123\n      jump\t// in\n    tag_129:\n      dup1\n      0x1f\n      add\n      0x20\n      dup1\n      swap2\n      div\n      mul\n      0x20\n      add\n      mload(0x40)\n      swap1\n      dup2\n      add\n      0x40\n      mstore\n      dup1\n      swap3\n      swap2\n      swap1\n      dup2\n      dup2\n      mstore\n      0x20\n      add\n      dup3\n      dup1\n      sload\n      tag_130\n      swap1\n      tag_123\n      jump\t// in\n    tag_130:\n      dup1\n      iszero\n      tag_131\n      jumpi\n      dup1\n      0x1f\n      lt\n      tag_132\n      jumpi\n      0x0100\n      dup1\n      dup4\n      sload\n      div\n      mul\n      dup4\n      mstore\n      swap2\n      0x20\n      add\n      swap2\n      jump(tag_131)\n    tag_132:\n      dup3\n      add\n      swap2\n      swap1\n      0x00\n      mstore\n      keccak256(0x00, 0x20)\n      swap1\n    tag_133:\n      dup2\n      sload\n      dup2\n      mstore\n      swap1\n      0x01\n      add\n      swap1\n      0x20\n      add\n      dup1\n      dup4\n      gt\n      tag_133\n      jumpi\n      dup3\n      swap1\n      sub\n      0x1f\n      and\n      dup3\n      add\n      swap2\n    tag_131:\n      pop\n      pop\n      pop\n      pop\n      pop\n      swap1\n      pop\n        /* \"contracts/EnsSubdomainService/ETNPublicResolver.sol\":5999:6103  function name(bytes32 node) external view returns (string memory) {... */\n      swap2\n      swap1\n      pop\n      jump\t// out\n        /* \"contracts/EnsSubdomainService/ETNPublicResolver.sol\":5818:5991  function setName(bytes32 node, string calldata _name)... */\n    tag_48:\n        /* \"contracts/EnsSubdomainService/ETNPublicResolver.sol\":2599:2619  registry.owner(node) */\n      mload(0x40)\n      shl(0xe0, 0x02571be3)\n      dup2\n      mstore\n      0x04\n      dup2\n      add\n        /* \"#utility.yul\":5513:5538   */\n      dup5\n      swap1\n      mstore\n        /* \"contracts/EnsSubdomainService/ETNPublicResolver.sol\":5901:5905  node */\n      dup4\n      swap1\n        /* \"contracts/EnsSubdomainService/ETNPublicResolver.sol\":2579:2596  address nodeOwner */\n      0x00\n      swap1\n      sub(shl(0xa0, 0x01), 0x01)\n        /* \"contracts/EnsSubdomainService/ETNPublicResolver.sol\":2599:2607  registry */\n      immutable(\"0xe455bf8ea6e7463a1046a0b52804526e119b4bf5136279614e0b1e8e296a4e2d\")\n        /* \"contracts/EnsSubdomainService/ETNPublicResolver.sol\":2599:2613  registry.owner */\n      and\n      swap1\n      0x02571be3\n      swap1\n        /* \"#utility.yul\":5486:5504   */\n      0x24\n      add\n        /* \"contracts/EnsSubdomainService/ETNPublicResolver.sol\":2599:2619  registry.owner(node) */\n      0x20\n      mload(0x40)\n      dup1\n      dup4\n      sub\n      dup2\n      dup7\n      gas\n      staticcall\n      iszero\n      dup1\n      iszero\n      tag_137\n      jumpi\n      returndatasize\n      0x00\n      dup1\n      returndatacopy\n      revert(0x00, returndatasize)\n    tag_137:\n      pop\n      pop\n      pop\n      pop\n      mload(0x40)\n      returndatasize\n      not(0x1f)\n      0x1f\n      dup3\n      add\n      and\n      dup3\n      add\n      dup1\n      0x40\n      mstore\n      pop\n      dup2\n      add\n      swap1\n      tag_138\n      swap2\n      swap1\n      tag_83\n      jump\t// in\n    tag_138:\n        /* \"contracts/EnsSubdomainService/ETNPublicResolver.sol\":2579:2619  address nodeOwner = registry.owner(node) */\n      swap1\n      pop\n      sub(shl(0xa0, 0x01), 0x01)\n        /* \"contracts/EnsSubdomainService/ETNPublicResolver.sol\":2652:2675  nodeOwner == msg.sender */\n      dup2\n      and\n        /* \"contracts/EnsSubdomainService/ETNPublicResolver.sol\":2665:2675  msg.sender */\n      caller\n        /* \"contracts/EnsSubdomainService/ETNPublicResolver.sol\":2652:2675  nodeOwner == msg.sender */\n      eq\n      dup1\n        /* \"contracts/EnsSubdomainService/ETNPublicResolver.sol\":2652:2735  nodeOwner == msg.sender ||... */\n      tag_143\n      jumpi\n      pop\n        /* \"contracts/EnsSubdomainService/ETNPublicResolver.sol\":2692:2735  registry.isApprovedForAll(node, msg.sender) */\n      mload(0x40)\n      shl(0xe3, 0x160d30c5)\n      dup2\n      mstore\n      0x04\n      dup2\n      add\n        /* \"#utility.yul\":5979:6004   */\n      dup4\n      swap1\n      mstore\n        /* \"contracts/EnsSubdomainService/ETNPublicResolver.sol\":2724:2734  msg.sender */\n      caller\n        /* \"#utility.yul\":6020:6038   */\n      0x24\n      dup3\n      add\n        /* \"#utility.yul\":6013:6073   */\n      mstore\n        /* \"contracts/EnsSubdomainService/ETNPublicResolver.sol\":2692:2700  registry */\n      immutable(\"0xe455bf8ea6e7463a1046a0b52804526e119b4bf5136279614e0b1e8e296a4e2d\")\n      sub(shl(0xa0, 0x01), 0x01)\n        /* \"contracts/EnsSubdomainService/ETNPublicResolver.sol\":2692:2717  registry.isApprovedForAll */\n      and\n      swap1\n      0xb0698628\n      swap1\n        /* \"#utility.yul\":5952:5970   */\n      0x44\n      add\n        /* \"contracts/EnsSubdomainService/ETNPublicResolver.sol\":2692:2735  registry.isApprovedForAll(node, msg.sender) */\n      0x20\n      mload(0x40)\n      dup1\n      dup4\n      sub\n      dup2\n      dup7\n      gas\n      staticcall\n      iszero\n      dup1\n      iszero\n      tag_142\n      jumpi\n      returndatasize\n      0x00\n      dup1\n      returndatacopy\n      revert(0x00, returndatasize)\n    tag_142:\n      pop\n      pop\n      pop\n      pop\n      mload(0x40)\n      returndatasize\n      not(0x1f)\n      0x1f\n      dup3\n      add\n      and\n      dup3\n      add\n      dup1\n      0x40\n      mstore\n      pop\n      dup2\n      add\n      swap1\n      tag_143\n      swap2\n      swap1\n      tag_90\n      jump\t// in\n    tag_143:\n        /* \"contracts/EnsSubdomainService/ETNPublicResolver.sol\":2630:2790  require(... */\n      tag_144\n      jumpi\n      mload(0x40)\n      shl(0xe5, 0x461bcd)\n      dup2\n      mstore\n      0x04\n      add\n      tag_92\n      swap1\n      tag_93\n      jump\t// in\n    tag_144:\n        /* \"contracts/EnsSubdomainService/ETNPublicResolver.sol\":5923:5935  _names[node] */\n      0x00\n      dup6\n      dup2\n      mstore\n        /* \"contracts/EnsSubdomainService/ETNPublicResolver.sol\":5923:5929  _names */\n      0x04\n        /* \"contracts/EnsSubdomainService/ETNPublicResolver.sol\":5923:5935  _names[node] */\n      0x20\n      mstore\n      0x40\n      swap1\n      keccak256\n        /* \"contracts/EnsSubdomainService/ETNPublicResolver.sol\":5923:5943  _names[node] = _name */\n      tag_147\n        /* \"contracts/EnsSubdomainService/ETNPublicResolver.sol\":5938:5943  _name */\n      dup5\n      dup7\n        /* \"contracts/EnsSubdomainService/ETNPublicResolver.sol\":5923:5935  _names[node] */\n      dup4\n        /* \"contracts/EnsSubdomainService/ETNPublicResolver.sol\":5923:5943  _names[node] = _name */\n      tag_98\n      jump\t// in\n    tag_147:\n      pop\n        /* \"contracts/EnsSubdomainService/ETNPublicResolver.sol\":5971:5975  node */\n      dup5\n        /* \"contracts/EnsSubdomainService/ETNPublicResolver.sol\":5959:5983  NameChanged(node, _name) */\n      0xb7d29e911041e8d9b843369e890bcb72c9388692ba48b65ac54e7214c4c348f7\n        /* \"contracts/EnsSubdomainService/ETNPublicResolver.sol\":5977:5982  _name */\n      dup6\n      dup6\n        /* \"contracts/EnsSubdomainService/ETNPublicResolver.sol\":5959:5983  NameChanged(node, _name) */\n      mload(0x40)\n      tag_117\n      swap3\n      swap2\n      swap1\n      tag_101\n      jump\t// in\n        /* \"contracts/EnsSubdomainService/ETNPublicResolver.sol\":3792:4001  function setAddr(bytes32 node, uint256 coinType, bytes calldata a)... */\n    tag_56:\n        /* \"contracts/EnsSubdomainService/ETNPublicResolver.sol\":2599:2619  registry.owner(node) */\n      mload(0x40)\n      shl(0xe0, 0x02571be3)\n      dup2\n      mstore\n      0x04\n      dup2\n      add\n        /* \"#utility.yul\":5513:5538   */\n      dup6\n      swap1\n      mstore\n        /* \"contracts/EnsSubdomainService/ETNPublicResolver.sol\":3888:3892  node */\n      dup5\n      swap1\n        /* \"contracts/EnsSubdomainService/ETNPublicResolver.sol\":2579:2596  address nodeOwner */\n      0x00\n      swap1\n      sub(shl(0xa0, 0x01), 0x01)\n        /* \"contracts/EnsSubdomainService/ETNPublicResolver.sol\":2599:2607  registry */\n      immutable(\"0xe455bf8ea6e7463a1046a0b52804526e119b4bf5136279614e0b1e8e296a4e2d\")\n        /* \"contracts/EnsSubdomainService/ETNPublicResolver.sol\":2599:2613  registry.owner */\n      and\n      swap1\n      0x02571be3\n      swap1\n        /* \"#utility.yul\":5486:5504   */\n      0x24\n      add\n        /* \"contracts/EnsSubdomainService/ETNPublicResolver.sol\":2599:2619  registry.owner(node) */\n      0x20\n      mload(0x40)\n      dup1\n      dup4\n      sub\n      dup2\n      dup7\n      gas\n      staticcall\n      iszero\n      dup1\n      iszero\n      tag_152\n      jumpi\n      returndatasize\n      0x00\n      dup1\n      returndatacopy\n      revert(0x00, returndatasize)\n    tag_152:\n      pop\n      pop\n      pop\n      pop\n      mload(0x40)\n      returndatasize\n      not(0x1f)\n      0x1f\n      dup3\n      add\n      and\n      dup3\n      add\n      dup1\n      0x40\n      mstore\n      pop\n      dup2\n      add\n      swap1\n      tag_153\n      swap2\n      swap1\n      tag_83\n      jump\t// in\n    tag_153:\n        /* \"contracts/EnsSubdomainService/ETNPublicResolver.sol\":2579:2619  address nodeOwner = registry.owner(node) */\n      swap1\n      pop\n      sub(shl(0xa0, 0x01), 0x01)\n        /* \"contracts/EnsSubdomainService/ETNPublicResolver.sol\":2652:2675  nodeOwner == msg.sender */\n      dup2\n      and\n        /* \"contracts/EnsSubdomainService/ETNPublicResolver.sol\":2665:2675  msg.sender */\n      caller\n        /* \"contracts/EnsSubdomainService/ETNPublicResolver.sol\":2652:2675  nodeOwner == msg.sender */\n      eq\n      dup1\n        /* \"contracts/EnsSubdomainService/ETNPublicResolver.sol\":2652:2735  nodeOwner == msg.sender ||... */\n      tag_158\n      jumpi\n      pop\n        /* \"contracts/EnsSubdomainService/ETNPublicResolver.sol\":2692:2735  registry.isApprovedForAll(node, msg.sender) */\n      mload(0x40)\n      shl(0xe3, 0x160d30c5)\n      dup2\n      mstore\n      0x04\n      dup2\n      add\n        /* \"#utility.yul\":5979:6004   */\n      dup4\n      swap1\n      mstore\n        /* \"contracts/EnsSubdomainService/ETNPublicResolver.sol\":2724:2734  msg.sender */\n      caller\n        /* \"#utility.yul\":6020:6038   */\n      0x24\n      dup3\n      add\n        /* \"#utility.yul\":6013:6073   */\n      mstore\n        /* \"contracts/EnsSubdomainService/ETNPublicResolver.sol\":2692:2700  registry */\n      immutable(\"0xe455bf8ea6e7463a1046a0b52804526e119b4bf5136279614e0b1e8e296a4e2d\")\n      sub(shl(0xa0, 0x01), 0x01)\n        /* \"contracts/EnsSubdomainService/ETNPublicResolver.sol\":2692:2717  registry.isApprovedForAll */\n      and\n      swap1\n      0xb0698628\n      swap1\n        /* \"#utility.yul\":5952:5970   */\n      0x44\n      add\n        /* \"contracts/EnsSubdomainService/ETNPublicResolver.sol\":2692:2735  registry.isApprovedForAll(node, msg.sender) */\n      0x20\n      mload(0x40)\n      dup1\n      dup4\n      sub\n      dup2\n      dup7\n      gas\n      staticcall\n      iszero\n      dup1\n      iszero\n      tag_157\n      jumpi\n      returndatasize\n      0x00\n      dup1\n      returndatacopy\n      revert(0x00, returndatasize)\n    tag_157:\n      pop\n      pop\n      pop\n      pop\n      mload(0x40)\n      returndatasize\n      not(0x1f)\n      0x1f\n      dup3\n      add\n      and\n      dup3\n      add\n      dup1\n      0x40\n      mstore\n      pop\n      dup2\n      add\n      swap1\n      tag_158\n      swap2\n      swap1\n      tag_90\n      jump\t// in\n    tag_158:\n        /* \"contracts/EnsSubdomainService/ETNPublicResolver.sol\":2630:2790  require(... */\n      tag_159\n      jumpi\n      mload(0x40)\n      shl(0xe5, 0x461bcd)\n      dup2\n      mstore\n      0x04\n      add\n      tag_92\n      swap1\n      tag_93\n      jump\t// in\n    tag_159:\n        /* \"contracts/EnsSubdomainService/ETNPublicResolver.sol\":3910:3930  _coinAddresses[node] */\n      0x00\n      dup7\n      dup2\n      mstore\n        /* \"contracts/EnsSubdomainService/ETNPublicResolver.sol\":3910:3924  _coinAddresses */\n      0x01\n        /* \"contracts/EnsSubdomainService/ETNPublicResolver.sol\":3910:3930  _coinAddresses[node] */\n      0x20\n      swap1\n      dup2\n      mstore\n      0x40\n      dup1\n      dup4\n      keccak256\n        /* \"contracts/EnsSubdomainService/ETNPublicResolver.sol\":3910:3940  _coinAddresses[node][coinType] */\n      dup9\n      dup5\n      mstore\n      swap1\n      swap2\n      mstore\n      swap1\n      keccak256\n        /* \"contracts/EnsSubdomainService/ETNPublicResolver.sol\":3910:3944  _coinAddresses[node][coinType] = a */\n      tag_162\n        /* \"contracts/EnsSubdomainService/ETNPublicResolver.sol\":3943:3944  a */\n      dup5\n      dup7\n        /* \"contracts/EnsSubdomainService/ETNPublicResolver.sol\":3910:3940  _coinAddresses[node][coinType] */\n      dup4\n        /* \"contracts/EnsSubdomainService/ETNPublicResolver.sol\":3910:3944  _coinAddresses[node][coinType] = a */\n      tag_98\n      jump\t// in\n    tag_162:\n      pop\n        /* \"contracts/EnsSubdomainService/ETNPublicResolver.sol\":3975:3979  node */\n      dup6\n        /* \"contracts/EnsSubdomainService/ETNPublicResolver.sol\":3960:3993  AddressChanged(node, coinType, a) */\n      0x65412581168e88a1e60c6459d7f44ae83ad0832e670826c05a4e2476b57af752\n        /* \"contracts/EnsSubdomainService/ETNPublicResolver.sol\":3981:3989  coinType */\n      dup7\n        /* \"contracts/EnsSubdomainService/ETNPublicResolver.sol\":3991:3992  a */\n      dup7\n      dup7\n        /* \"contracts/EnsSubdomainService/ETNPublicResolver.sol\":3960:3993  AddressChanged(node, coinType, a) */\n      mload(0x40)\n      tag_163\n      swap4\n      swap3\n      swap2\n      swap1\n      tag_164\n      jump\t// in\n    tag_163:\n      mload(0x40)\n      dup1\n      swap2\n      sub\n      swap1\n      log2\n        /* \"contracts/EnsSubdomainService/ETNPublicResolver.sol\":2568:2810  {... */\n      pop\n        /* \"contracts/EnsSubdomainService/ETNPublicResolver.sol\":3792:4001  function setAddr(bytes32 node, uint256 coinType, bytes calldata a)... */\n      pop\n      pop\n      pop\n      pop\n      pop\n      jump\t// out\n        /* \"contracts/EnsSubdomainService/ETNPublicResolver.sol\":5357:5475  function contenthash(bytes32 node) external view returns (bytes memory) {... */\n    tag_59:\n        /* \"contracts/EnsSubdomainService/ETNPublicResolver.sol\":5447:5467  _contentHashes[node] */\n      0x00\n      dup2\n      dup2\n      mstore\n        /* \"contracts/EnsSubdomainService/ETNPublicResolver.sol\":5447:5461  _contentHashes */\n      0x03\n        /* \"contracts/EnsSubdomainService/ETNPublicResolver.sol\":5447:5467  _contentHashes[node] */\n      0x20\n      mstore\n      0x40\n      swap1\n      keccak256\n        /* \"contracts/EnsSubdomainService/ETNPublicResolver.sol\":5440:5467  return _contentHashes[node] */\n      dup1\n      sload\n        /* \"contracts/EnsSubdomainService/ETNPublicResolver.sol\":5415:5427  bytes memory */\n      0x60\n      swap2\n        /* \"contracts/EnsSubdomainService/ETNPublicResolver.sol\":5447:5467  _contentHashes[node] */\n      swap1\n        /* \"contracts/EnsSubdomainService/ETNPublicResolver.sol\":5440:5467  return _contentHashes[node] */\n      tag_129\n      swap1\n      tag_123\n      jump\t// in\n        /* \"contracts/EnsSubdomainService/ETNPublicResolver.sol\":3531:3674  function setAddr(bytes32 node, address _addr) external authorised(node) {... */\n    tag_65:\n        /* \"contracts/EnsSubdomainService/ETNPublicResolver.sol\":2599:2619  registry.owner(node) */\n      mload(0x40)\n      shl(0xe0, 0x02571be3)\n      dup2\n      mstore\n      0x04\n      dup2\n      add\n        /* \"#utility.yul\":5513:5538   */\n      dup4\n      swap1\n      mstore\n        /* \"contracts/EnsSubdomainService/ETNPublicResolver.sol\":3597:3601  node */\n      dup3\n      swap1\n        /* \"contracts/EnsSubdomainService/ETNPublicResolver.sol\":2579:2596  address nodeOwner */\n      0x00\n      swap1\n      sub(shl(0xa0, 0x01), 0x01)\n        /* \"contracts/EnsSubdomainService/ETNPublicResolver.sol\":2599:2607  registry */\n      immutable(\"0xe455bf8ea6e7463a1046a0b52804526e119b4bf5136279614e0b1e8e296a4e2d\")\n        /* \"contracts/EnsSubdomainService/ETNPublicResolver.sol\":2599:2613  registry.owner */\n      and\n      swap1\n      0x02571be3\n      swap1\n        /* \"#utility.yul\":5486:5504   */\n      0x24\n      add\n        /* \"contracts/EnsSubdomainService/ETNPublicResolver.sol\":2599:2619  registry.owner(node) */\n      0x20\n      mload(0x40)\n      dup1\n      dup4\n      sub\n      dup2\n      dup7\n      gas\n      staticcall\n      iszero\n      dup1\n      iszero\n      tag_174\n      jumpi\n      returndatasize\n      0x00\n      dup1\n      returndatacopy\n      revert(0x00, returndatasize)\n    tag_174:\n      pop\n      pop\n      pop\n      pop\n      mload(0x40)\n      returndatasize\n      not(0x1f)\n      0x1f\n      dup3\n      add\n      and\n      dup3\n      add\n      dup1\n      0x40\n      mstore\n      pop\n      dup2\n      add\n      swap1\n      tag_175\n      swap2\n      swap1\n      tag_83\n      jump\t// in\n    tag_175:\n        /* \"contracts/EnsSubdomainService/ETNPublicResolver.sol\":2579:2619  address nodeOwner = registry.owner(node) */\n      swap1\n      pop\n      sub(shl(0xa0, 0x01), 0x01)\n        /* \"contracts/EnsSubdomainService/ETNPublicResolver.sol\":2652:2675  nodeOwner == msg.sender */\n      dup2\n      and\n        /* \"contracts/EnsSubdomainService/ETNPublicResolver.sol\":2665:2675  msg.sender */\n      caller\n        /* \"contracts/EnsSubdomainService/ETNPublicResolver.sol\":2652:2675  nodeOwner == msg.sender */\n      eq\n      dup1\n        /* \"contracts/EnsSubdomainService/ETNPublicResolver.sol\":2652:2735  nodeOwner == msg.sender ||... */\n      tag_180\n      jumpi\n      pop\n        /* \"contracts/EnsSubdomainService/ETNPublicResolver.sol\":2692:2735  registry.isApprovedForAll(node, msg.sender) */\n      mload(0x40)\n      shl(0xe3, 0x160d30c5)\n      dup2\n      mstore\n      0x04\n      dup2\n      add\n        /* \"#utility.yul\":5979:6004   */\n      dup4\n      swap1\n      mstore\n        /* \"contracts/EnsSubdomainService/ETNPublicResolver.sol\":2724:2734  msg.sender */\n      caller\n        /* \"#utility.yul\":6020:6038   */\n      0x24\n      dup3\n      add\n        /* \"#utility.yul\":6013:6073   */\n      mstore\n        /* \"contracts/EnsSubdomainService/ETNPublicResolver.sol\":2692:2700  registry */\n      immutable(\"0xe455bf8ea6e7463a1046a0b52804526e119b4bf5136279614e0b1e8e296a4e2d\")\n      sub(shl(0xa0, 0x01), 0x01)\n        /* \"contracts/EnsSubdomainService/ETNPublicResolver.sol\":2692:2717  registry.isApprovedForAll */\n      and\n      swap1\n      0xb0698628\n      swap1\n        /* \"#utility.yul\":5952:5970   */\n      0x44\n      add\n        /* \"contracts/EnsSubdomainService/ETNPublicResolver.sol\":2692:2735  registry.isApprovedForAll(node, msg.sender) */\n      0x20\n      mload(0x40)\n      dup1\n      dup4\n      sub\n      dup2\n      dup7\n      gas\n      staticcall\n      iszero\n      dup1\n      iszero\n      tag_179\n      jumpi\n      returndatasize\n      0x00\n      dup1\n      returndatacopy\n      revert(0x00, returndatasize)\n    tag_179:\n      pop\n      pop\n      pop\n      pop\n      mload(0x40)\n      returndatasize\n      not(0x1f)\n      0x1f\n      dup3\n      add\n      and\n      dup3\n      add\n      dup1\n      0x40\n      mstore\n      pop\n      dup2\n      add\n      swap1\n      tag_180\n      swap2\n      swap1\n      tag_90\n      jump\t// in\n    tag_180:\n        /* \"contracts/EnsSubdomainService/ETNPublicResolver.sol\":2630:2790  require(... */\n      tag_181\n      jumpi\n      mload(0x40)\n      shl(0xe5, 0x461bcd)\n      dup2\n      mstore\n      0x04\n      add\n      tag_92\n      swap1\n      tag_93\n      jump\t// in\n    tag_181:\n        /* \"contracts/EnsSubdomainService/ETNPublicResolver.sol\":3610:3620  _addresses */\n      0x00\n        /* \"contracts/EnsSubdomainService/ETNPublicResolver.sol\":3610:3626  _addresses[node] */\n      dup5\n      dup2\n      mstore\n      0x20\n      dup2\n      dup2\n      mstore\n      0x40\n      swap2\n      dup3\n      swap1\n      keccak256\n        /* \"contracts/EnsSubdomainService/ETNPublicResolver.sol\":3610:3634  _addresses[node] = _addr */\n      dup1\n      sload\n      not(sub(shl(0xa0, 0x01), 0x01))\n      and\n      sub(shl(0xa0, 0x01), 0x01)\n      dup8\n      and\n      swap1\n      dup2\n      or\n      swap1\n      swap2\n      sstore\n        /* \"contracts/EnsSubdomainService/ETNPublicResolver.sol\":3646:3670  AddrChanged(node, _addr) */\n      swap2\n      mload\n        /* \"#utility.yul\":2458:2509   */\n      swap2\n      dup3\n      mstore\n        /* \"contracts/EnsSubdomainService/ETNPublicResolver.sol\":3610:3626  _addresses[node] */\n      dup6\n      swap2\n        /* \"contracts/EnsSubdomainService/ETNPublicResolver.sol\":3646:3670  AddrChanged(node, _addr) */\n      0x52d7d861f09ab3d26239d492e8968629f95e9e318cf0b73bfddc441522a15fd2\n      swap2\n        /* \"#utility.yul\":2431:2449   */\n      add\n        /* \"contracts/EnsSubdomainService/ETNPublicResolver.sol\":3646:3670  AddrChanged(node, _addr) */\n      mload(0x40)\n      dup1\n      swap2\n      sub\n      swap1\n      log2\n        /* \"contracts/EnsSubdomainService/ETNPublicResolver.sol\":2568:2810  {... */\n      pop\n        /* \"contracts/EnsSubdomainService/ETNPublicResolver.sol\":3531:3674  function setAddr(bytes32 node, address _addr) external authorised(node) {... */\n      pop\n      pop\n      pop\n      jump\t// out\n        /* \"contracts/EnsSubdomainService/ETNPublicResolver.sol\":4009:4162  function addr(bytes32 node, uint256 coinType)... */\n    tag_69:\n        /* \"contracts/EnsSubdomainService/ETNPublicResolver.sol\":4124:4144  _coinAddresses[node] */\n      0x00\n      dup3\n      dup2\n      mstore\n        /* \"contracts/EnsSubdomainService/ETNPublicResolver.sol\":4124:4138  _coinAddresses */\n      0x01\n        /* \"contracts/EnsSubdomainService/ETNPublicResolver.sol\":4124:4144  _coinAddresses[node] */\n      0x20\n      swap1\n      dup2\n      mstore\n      0x40\n      dup1\n      dup4\n      keccak256\n        /* \"contracts/EnsSubdomainService/ETNPublicResolver.sol\":4124:4154  _coinAddresses[node][coinType] */\n      dup5\n      dup5\n      mstore\n      swap1\n      swap2\n      mstore\n      swap1\n      keccak256\n        /* \"contracts/EnsSubdomainService/ETNPublicResolver.sol\":4117:4154  return _coinAddresses[node][coinType] */\n      dup1\n      sload\n        /* \"contracts/EnsSubdomainService/ETNPublicResolver.sol\":4087:4099  bytes memory */\n      0x60\n      swap2\n        /* \"contracts/EnsSubdomainService/ETNPublicResolver.sol\":4124:4154  _coinAddresses[node][coinType] */\n      swap1\n        /* \"contracts/EnsSubdomainService/ETNPublicResolver.sol\":4117:4154  return _coinAddresses[node][coinType] */\n      tag_186\n      swap1\n      tag_123\n      jump\t// in\n    tag_186:\n      dup1\n      0x1f\n      add\n      0x20\n      dup1\n      swap2\n      div\n      mul\n      0x20\n      add\n      mload(0x40)\n      swap1\n      dup2\n      add\n      0x40\n      mstore\n      dup1\n      swap3\n      swap2\n      swap1\n      dup2\n      dup2\n      mstore\n      0x20\n      add\n      dup3\n      dup1\n      sload\n      tag_187\n      swap1\n      tag_123\n      jump\t// in\n    tag_187:\n      dup1\n      iszero\n      tag_188\n      jumpi\n      dup1\n      0x1f\n      lt\n      tag_189\n      jumpi\n      0x0100\n      dup1\n      dup4\n      sload\n      div\n      mul\n      dup4\n      mstore\n      swap2\n      0x20\n      add\n      swap2\n      jump(tag_188)\n    tag_189:\n      dup3\n      add\n      swap2\n      swap1\n      0x00\n      mstore\n      keccak256(0x00, 0x20)\n      swap1\n    tag_190:\n      dup2\n      sload\n      dup2\n      mstore\n      swap1\n      0x01\n      add\n      swap1\n      0x20\n      add\n      dup1\n      dup4\n      gt\n      tag_190\n      jumpi\n      dup3\n      swap1\n      sub\n      0x1f\n      and\n      dup3\n      add\n      swap2\n    tag_188:\n      pop\n      pop\n      pop\n      pop\n      pop\n      swap1\n      pop\n        /* \"contracts/EnsSubdomainService/ETNPublicResolver.sol\":4009:4162  function addr(bytes32 node, uint256 coinType)... */\n      swap3\n      swap2\n      pop\n      pop\n      jump\t// out\n        /* \"#utility.yul\":14:300   */\n    tag_18:\n        /* \"#utility.yul\":72:78   */\n      0x00\n        /* \"#utility.yul\":125:127   */\n      0x20\n        /* \"#utility.yul\":113:122   */\n      dup3\n        /* \"#utility.yul\":104:111   */\n      dup5\n        /* \"#utility.yul\":100:123   */\n      sub\n        /* \"#utility.yul\":96:128   */\n      slt\n        /* \"#utility.yul\":93:145   */\n      iszero\n      tag_201\n      jumpi\n        /* \"#utility.yul\":141:142   */\n      0x00\n        /* \"#utility.yul\":138:139   */\n      dup1\n        /* \"#utility.yul\":131:143   */\n      revert\n        /* \"#utility.yul\":93:145   */\n    tag_201:\n        /* \"#utility.yul\":167:190   */\n      dup2\n      calldataload\n      not(sub(shl(0xe0, 0x01), 0x01))\n        /* \"#utility.yul\":219:251   */\n      dup2\n      and\n        /* \"#utility.yul\":209:252   */\n      dup2\n      eq\n        /* \"#utility.yul\":199:270   */\n      tag_202\n      jumpi\n        /* \"#utility.yul\":266:267   */\n      0x00\n        /* \"#utility.yul\":263:264   */\n      dup1\n        /* \"#utility.yul\":256:268   */\n      revert\n        /* \"#utility.yul\":199:270   */\n    tag_202:\n        /* \"#utility.yul\":289:294   */\n      swap4\n        /* \"#utility.yul\":14:300   */\n      swap3\n      pop\n      pop\n      pop\n      jump\t// out\n        /* \"#utility.yul\":497:845   */\n    tag_191:\n        /* \"#utility.yul\":549:557   */\n      0x00\n        /* \"#utility.yul\":559:565   */\n      dup1\n        /* \"#utility.yul\":613:616   */\n      dup4\n        /* \"#utility.yul\":606:610   */\n      0x1f\n        /* \"#utility.yul\":598:604   */\n      dup5\n        /* \"#utility.yul\":594:611   */\n      add\n        /* \"#utility.yul\":590:617   */\n      slt\n        /* \"#utility.yul\":580:635   */\n      tag_205\n      jumpi\n        /* \"#utility.yul\":631:632   */\n      0x00\n        /* \"#utility.yul\":628:629   */\n      dup1\n        /* \"#utility.yul\":621:633   */\n      revert\n        /* \"#utility.yul\":580:635   */\n    tag_205:\n      pop\n        /* \"#utility.yul\":654:674   */\n      dup2\n      calldataload\n        /* \"#utility.yul\":697:715   */\n      0xffffffffffffffff\n        /* \"#utility.yul\":686:716   */\n      dup2\n      gt\n        /* \"#utility.yul\":683:733   */\n      iszero\n      tag_206\n      jumpi\n        /* \"#utility.yul\":729:730   */\n      0x00\n        /* \"#utility.yul\":726:727   */\n      dup1\n        /* \"#utility.yul\":719:731   */\n      revert\n        /* \"#utility.yul\":683:733   */\n    tag_206:\n        /* \"#utility.yul\":766:770   */\n      0x20\n        /* \"#utility.yul\":758:764   */\n      dup4\n        /* \"#utility.yul\":754:771   */\n      add\n        /* \"#utility.yul\":742:771   */\n      swap2\n      pop\n        /* \"#utility.yul\":818:821   */\n      dup4\n        /* \"#utility.yul\":811:815   */\n      0x20\n        /* \"#utility.yul\":802:808   */\n      dup3\n        /* \"#utility.yul\":794:800   */\n      dup6\n        /* \"#utility.yul\":790:809   */\n      add\n        /* \"#utility.yul\":786:816   */\n      add\n        /* \"#utility.yul\":783:822   */\n      gt\n        /* \"#utility.yul\":780:839   */\n      iszero\n      tag_207\n      jumpi\n        /* \"#utility.yul\":835:836   */\n      0x00\n        /* \"#utility.yul\":832:833   */\n      dup1\n        /* \"#utility.yul\":825:837   */\n      revert\n        /* \"#utility.yul\":780:839   */\n    tag_207:\n        /* \"#utility.yul\":497:845   */\n      swap3\n      pop\n      swap3\n      swap1\n      pop\n      jump\t// out\n        /* \"#utility.yul\":850:1639   */\n    tag_24:\n        /* \"#utility.yul\":951:957   */\n      0x00\n        /* \"#utility.yul\":959:965   */\n      dup1\n        /* \"#utility.yul\":967:973   */\n      0x00\n        /* \"#utility.yul\":975:981   */\n      dup1\n        /* \"#utility.yul\":983:989   */\n      0x00\n        /* \"#utility.yul\":1036:1038   */\n      0x60\n        /* \"#utility.yul\":1024:1033   */\n      dup7\n        /* \"#utility.yul\":1015:1022   */\n      dup9\n        /* \"#utility.yul\":1011:1034   */\n      sub\n        /* \"#utility.yul\":1007:1039   */\n      slt\n        /* \"#utility.yul\":1004:1056   */\n      iszero\n      tag_209\n      jumpi\n        /* \"#utility.yul\":1052:1053   */\n      0x00\n        /* \"#utility.yul\":1049:1050   */\n      dup1\n        /* \"#utility.yul\":1042:1054   */\n      revert\n        /* \"#utility.yul\":1004:1056   */\n    tag_209:\n        /* \"#utility.yul\":1088:1097   */\n      dup6\n        /* \"#utility.yul\":1075:1098   */\n      calldataload\n        /* \"#utility.yul\":1065:1098   */\n      swap5\n      pop\n        /* \"#utility.yul\":1149:1151   */\n      0x20\n        /* \"#utility.yul\":1138:1147   */\n      dup7\n        /* \"#utility.yul\":1134:1152   */\n      add\n        /* \"#utility.yul\":1121:1153   */\n      calldataload\n        /* \"#utility.yul\":1172:1190   */\n      0xffffffffffffffff\n        /* \"#utility.yul\":1213:1215   */\n      dup1\n        /* \"#utility.yul\":1205:1211   */\n      dup3\n        /* \"#utility.yul\":1202:1216   */\n      gt\n        /* \"#utility.yul\":1199:1233   */\n      iszero\n      tag_210\n      jumpi\n        /* \"#utility.yul\":1229:1230   */\n      0x00\n        /* \"#utility.yul\":1226:1227   */\n      dup1\n        /* \"#utility.yul\":1219:1231   */\n      revert\n        /* \"#utility.yul\":1199:1233   */\n    tag_210:\n        /* \"#utility.yul\":1268:1327   */\n      tag_211\n        /* \"#utility.yul\":1319:1326   */\n      dup10\n        /* \"#utility.yul\":1310:1316   */\n      dup4\n        /* \"#utility.yul\":1299:1308   */\n      dup11\n        /* \"#utility.yul\":1295:1317   */\n      add\n        /* \"#utility.yul\":1268:1327   */\n      tag_191\n      jump\t// in\n    tag_211:\n        /* \"#utility.yul\":1346:1354   */\n      swap1\n      swap7\n      pop\n        /* \"#utility.yul\":1242:1327   */\n      swap5\n      pop\n        /* \"#utility.yul\":1434:1436   */\n      0x40\n        /* \"#utility.yul\":1419:1437   */\n      dup9\n      add\n        /* \"#utility.yul\":1406:1438   */\n      calldataload\n      swap2\n      pop\n        /* \"#utility.yul\":1450:1466   */\n      dup1\n      dup3\n      gt\n        /* \"#utility.yul\":1447:1483   */\n      iszero\n      tag_212\n      jumpi\n        /* \"#utility.yul\":1479:1480   */\n      0x00\n        /* \"#utility.yul\":1476:1477   */\n      dup1\n        /* \"#utility.yul\":1469:1481   */\n      revert\n        /* \"#utility.yul\":1447:1483   */\n    tag_212:\n      pop\n        /* \"#utility.yul\":1518:1579   */\n      tag_213\n        /* \"#utility.yul\":1571:1578   */\n      dup9\n        /* \"#utility.yul\":1560:1568   */\n      dup3\n        /* \"#utility.yul\":1549:1558   */\n      dup10\n        /* \"#utility.yul\":1545:1569   */\n      add\n        /* \"#utility.yul\":1518:1579   */\n      tag_191\n      jump\t// in\n    tag_213:\n        /* \"#utility.yul\":850:1639   */\n      swap7\n      swap10\n      swap6\n      swap9\n      pop\n      swap4\n      swap7\n      pop\n        /* \"#utility.yul\":1598:1606   */\n      swap3\n      swap5\n        /* \"#utility.yul\":1492:1579   */\n      swap4\n        /* \"#utility.yul\":850:1639   */\n      swap3\n      pop\n      pop\n      pop\n      jump\t// out\n        /* \"#utility.yul\":1644:2122   */\n    tag_28:\n        /* \"#utility.yul\":1723:1729   */\n      0x00\n        /* \"#utility.yul\":1731:1737   */\n      dup1\n        /* \"#utility.yul\":1739:1745   */\n      0x00\n        /* \"#utility.yul\":1792:1794   */\n      0x40\n        /* \"#utility.yul\":1780:1789   */\n      dup5\n        /* \"#utility.yul\":1771:1778   */\n      dup7\n        /* \"#utility.yul\":1767:1790   */\n      sub\n        /* \"#utility.yul\":1763:1795   */\n      slt\n        /* \"#utility.yul\":1760:1812   */\n      iszero\n      tag_215\n      jumpi\n        /* \"#utility.yul\":1808:1809   */\n      0x00\n        /* \"#utility.yul\":1805:1806   */\n      dup1\n        /* \"#utility.yul\":1798:1810   */\n      revert\n        /* \"#utility.yul\":1760:1812   */\n    tag_215:\n        /* \"#utility.yul\":1844:1853   */\n      dup4\n        /* \"#utility.yul\":1831:1854   */\n      calldataload\n        /* \"#utility.yul\":1821:1854   */\n      swap3\n      pop\n        /* \"#utility.yul\":1905:1907   */\n      0x20\n        /* \"#utility.yul\":1894:1903   */\n      dup5\n        /* \"#utility.yul\":1890:1908   */\n      add\n        /* \"#utility.yul\":1877:1909   */\n      calldataload\n        /* \"#utility.yul\":1932:1950   */\n      0xffffffffffffffff\n        /* \"#utility.yul\":1924:1930   */\n      dup2\n        /* \"#utility.yul\":1921:1951   */\n      gt\n        /* \"#utility.yul\":1918:1968   */\n      iszero\n      tag_216\n      jumpi\n        /* \"#utility.yul\":1964:1965   */\n      0x00\n        /* \"#utility.yul\":1961:1962   */\n      dup1\n        /* \"#utility.yul\":1954:1966   */\n      revert\n        /* \"#utility.yul\":1918:1968   */\n    tag_216:\n        /* \"#utility.yul\":2003:2062   */\n      tag_217\n        /* \"#utility.yul\":2054:2061   */\n      dup7\n        /* \"#utility.yul\":2045:2051   */\n      dup3\n        /* \"#utility.yul\":2034:2043   */\n      dup8\n        /* \"#utility.yul\":2030:2052   */\n      add\n        /* \"#utility.yul\":2003:2062   */\n      tag_191\n      jump\t// in\n    tag_217:\n        /* \"#utility.yul\":1644:2122   */\n      swap5\n      swap8\n        /* \"#utility.yul\":2081:2089   */\n      swap1\n      swap7\n      pop\n        /* \"#utility.yul\":1977:2062   */\n      swap4\n      swap5\n      pop\n      pop\n      pop\n      pop\n        /* \"#utility.yul\":1644:2122   */\n      jump\t// out\n        /* \"#utility.yul\":2127:2307   */\n    tag_32:\n        /* \"#utility.yul\":2186:2192   */\n      0x00\n        /* \"#utility.yul\":2239:2241   */\n      0x20\n        /* \"#utility.yul\":2227:2236   */\n      dup3\n        /* \"#utility.yul\":2218:2225   */\n      dup5\n        /* \"#utility.yul\":2214:2237   */\n      sub\n        /* \"#utility.yul\":2210:2242   */\n      slt\n        /* \"#utility.yul\":2207:2259   */\n      iszero\n      tag_219\n      jumpi\n        /* \"#utility.yul\":2255:2256   */\n      0x00\n        /* \"#utility.yul\":2252:2253   */\n      dup1\n        /* \"#utility.yul\":2245:2257   */\n      revert\n        /* \"#utility.yul\":2207:2259   */\n    tag_219:\n      pop\n        /* \"#utility.yul\":2278:2301   */\n      calldataload\n      swap2\n        /* \"#utility.yul\":2127:2307   */\n      swap1\n      pop\n      jump\t// out\n        /* \"#utility.yul\":3004:3427   */\n    tag_192:\n        /* \"#utility.yul\":3046:3049   */\n      0x00\n        /* \"#utility.yul\":3084:3089   */\n      dup2\n        /* \"#utility.yul\":3078:3090   */\n      mload\n        /* \"#utility.yul\":3111:3117   */\n      dup1\n        /* \"#utility.yul\":3106:3109   */\n      dup5\n        /* \"#utility.yul\":3099:3118   */\n      mstore\n        /* \"#utility.yul\":3136:3137   */\n      0x00\n        /* \"#utility.yul\":3146:3308   */\n    tag_226:\n        /* \"#utility.yul\":3160:3166   */\n      dup2\n        /* \"#utility.yul\":3157:3158   */\n      dup2\n        /* \"#utility.yul\":3154:3167   */\n      lt\n        /* \"#utility.yul\":3146:3308   */\n      iszero\n      tag_228\n      jumpi\n        /* \"#utility.yul\":3222:3226   */\n      0x20\n        /* \"#utility.yul\":3278:3291   */\n      dup2\n      dup6\n      add\n        /* \"#utility.yul\":3274:3296   */\n      dup2\n      add\n        /* \"#utility.yul\":3268:3297   */\n      mload\n        /* \"#utility.yul\":3250:3261   */\n      dup7\n      dup4\n      add\n        /* \"#utility.yul\":3246:3266   */\n      dup3\n      add\n        /* \"#utility.yul\":3239:3298   */\n      mstore\n        /* \"#utility.yul\":3175:3187   */\n      add\n        /* \"#utility.yul\":3146:3308   */\n      jump(tag_226)\n    tag_228:\n        /* \"#utility.yul\":3150:3153   */\n      pop\n        /* \"#utility.yul\":3353:3354   */\n      0x00\n        /* \"#utility.yul\":3346:3350   */\n      0x20\n        /* \"#utility.yul\":3337:3343   */\n      dup3\n        /* \"#utility.yul\":3332:3335   */\n      dup7\n        /* \"#utility.yul\":3328:3344   */\n      add\n        /* \"#utility.yul\":3324:3351   */\n      add\n        /* \"#utility.yul\":3317:3355   */\n      mstore\n        /* \"#utility.yul\":3416:3420   */\n      0x20\n        /* \"#utility.yul\":3409:3411   */\n      0x1f\n        /* \"#utility.yul\":3405:3412   */\n      not\n        /* \"#utility.yul\":3400:3402   */\n      0x1f\n        /* \"#utility.yul\":3392:3398   */\n      dup4\n        /* \"#utility.yul\":3388:3403   */\n      add\n        /* \"#utility.yul\":3384:3413   */\n      and\n        /* \"#utility.yul\":3379:3382   */\n      dup6\n        /* \"#utility.yul\":3375:3414   */\n      add\n        /* \"#utility.yul\":3371:3421   */\n      add\n        /* \"#utility.yul\":3364:3421   */\n      swap2\n      pop\n      pop\n        /* \"#utility.yul\":3004:3427   */\n      swap3\n      swap2\n      pop\n      pop\n      jump\t// out\n        /* \"#utility.yul\":3432:3652   */\n    tag_41:\n        /* \"#utility.yul\":3581:3583   */\n      0x20\n        /* \"#utility.yul\":3570:3579   */\n      dup2\n        /* \"#utility.yul\":3563:3584   */\n      mstore\n        /* \"#utility.yul\":3544:3548   */\n      0x00\n        /* \"#utility.yul\":3601:3646   */\n      tag_202\n        /* \"#utility.yul\":3642:3644   */\n      0x20\n        /* \"#utility.yul\":3631:3640   */\n      dup4\n        /* \"#utility.yul\":3627:3645   */\n      add\n        /* \"#utility.yul\":3619:3625   */\n      dup5\n        /* \"#utility.yul\":3601:3646   */\n      tag_192\n      jump\t// in\n        /* \"#utility.yul\":3884:4430   */\n    tag_55:\n        /* \"#utility.yul\":3972:3978   */\n      0x00\n        /* \"#utility.yul\":3980:3986   */\n      dup1\n        /* \"#utility.yul\":3988:3994   */\n      0x00\n        /* \"#utility.yul\":3996:4002   */\n      dup1\n        /* \"#utility.yul\":4049:4051   */\n      0x60\n        /* \"#utility.yul\":4037:4046   */\n      dup6\n        /* \"#utility.yul\":4028:4035   */\n      dup8\n        /* \"#utility.yul\":4024:4047   */\n      sub\n        /* \"#utility.yul\":4020:4052   */\n      slt\n        /* \"#utility.yul\":4017:4069   */\n      iszero\n      tag_233\n      jumpi\n        /* \"#utility.yul\":4065:4066   */\n      0x00\n        /* \"#utility.yul\":4062:4063   */\n      dup1\n        /* \"#utility.yul\":4055:4067   */\n      revert\n        /* \"#utility.yul\":4017:4069   */\n    tag_233:\n        /* \"#utility.yul\":4101:4110   */\n      dup5\n        /* \"#utility.yul\":4088:4111   */\n      calldataload\n        /* \"#utility.yul\":4078:4111   */\n      swap4\n      pop\n        /* \"#utility.yul\":4158:4160   */\n      0x20\n        /* \"#utility.yul\":4147:4156   */\n      dup6\n        /* \"#utility.yul\":4143:4161   */\n      add\n        /* \"#utility.yul\":4130:4162   */\n      calldataload\n        /* \"#utility.yul\":4120:4162   */\n      swap3\n      pop\n        /* \"#utility.yul\":4213:4215   */\n      0x40\n        /* \"#utility.yul\":4202:4211   */\n      dup6\n        /* \"#utility.yul\":4198:4216   */\n      add\n        /* \"#utility.yul\":4185:4217   */\n      calldataload\n        /* \"#utility.yul\":4240:4258   */\n      0xffffffffffffffff\n        /* \"#utility.yul\":4232:4238   */\n      dup2\n        /* \"#utility.yul\":4229:4259   */\n      gt\n        /* \"#utility.yul\":4226:4276   */\n      iszero\n      tag_234\n      jumpi\n        /* \"#utility.yul\":4272:4273   */\n      0x00\n        /* \"#utility.yul\":4269:4270   */\n      dup1\n        /* \"#utility.yul\":4262:4274   */\n      revert\n        /* \"#utility.yul\":4226:4276   */\n    tag_234:\n        /* \"#utility.yul\":4311:4370   */\n      tag_235\n        /* \"#utility.yul\":4362:4369   */\n      dup8\n        /* \"#utility.yul\":4353:4359   */\n      dup3\n        /* \"#utility.yul\":4342:4351   */\n      dup9\n        /* \"#utility.yul\":4338:4360   */\n      add\n        /* \"#utility.yul\":4311:4370   */\n      tag_191\n      jump\t// in\n    tag_235:\n        /* \"#utility.yul\":3884:4430   */\n      swap6\n      swap9\n      swap5\n      swap8\n      pop\n        /* \"#utility.yul\":4389:4397   */\n      swap6\n      pop\n      pop\n      pop\n      pop\n        /* \"#utility.yul\":3884:4430   */\n      jump\t// out\n        /* \"#utility.yul\":4658:4789   */\n    tag_193:\n      sub(shl(0xa0, 0x01), 0x01)\n        /* \"#utility.yul\":4733:4764   */\n      dup2\n      and\n        /* \"#utility.yul\":4723:4765   */\n      dup2\n      eq\n        /* \"#utility.yul\":4713:4783   */\n      tag_239\n      jumpi\n        /* \"#utility.yul\":4779:4780   */\n      0x00\n        /* \"#utility.yul\":4776:4777   */\n      dup1\n        /* \"#utility.yul\":4769:4781   */\n      revert\n        /* \"#utility.yul\":4713:4783   */\n    tag_239:\n        /* \"#utility.yul\":4658:4789   */\n      pop\n      jump\t// out\n        /* \"#utility.yul\":4794:5109   */\n    tag_64:\n        /* \"#utility.yul\":4862:4868   */\n      0x00\n        /* \"#utility.yul\":4870:4876   */\n      dup1\n        /* \"#utility.yul\":4923:4925   */\n      0x40\n        /* \"#utility.yul\":4911:4920   */\n      dup4\n        /* \"#utility.yul\":4902:4909   */\n      dup6\n        /* \"#utility.yul\":4898:4921   */\n      sub\n        /* \"#utility.yul\":4894:4926   */\n      slt\n        /* \"#utility.yul\":4891:4943   */\n      iszero\n      tag_241\n      jumpi\n        /* \"#utility.yul\":4939:4940   */\n      0x00\n        /* \"#utility.yul\":4936:4937   */\n      dup1\n        /* \"#utility.yul\":4929:4941   */\n      revert\n        /* \"#utility.yul\":4891:4943   */\n    tag_241:\n        /* \"#utility.yul\":4975:4984   */\n      dup3\n        /* \"#utility.yul\":4962:4985   */\n      calldataload\n        /* \"#utility.yul\":4952:4985   */\n      swap2\n      pop\n        /* \"#utility.yul\":5035:5037   */\n      0x20\n        /* \"#utility.yul\":5024:5033   */\n      dup4\n        /* \"#utility.yul\":5020:5038   */\n      add\n        /* \"#utility.yul\":5007:5039   */\n      calldataload\n        /* \"#utility.yul\":5048:5079   */\n      tag_242\n        /* \"#utility.yul\":5073:5078   */\n      dup2\n        /* \"#utility.yul\":5048:5079   */\n      tag_193\n      jump\t// in\n    tag_242:\n        /* \"#utility.yul\":5098:5103   */\n      dup1\n        /* \"#utility.yul\":5088:5103   */\n      swap2\n      pop\n      pop\n        /* \"#utility.yul\":4794:5109   */\n      swap3\n      pop\n      swap3\n      swap1\n      pop\n      jump\t// out\n        /* \"#utility.yul\":5114:5362   */\n    tag_68:\n        /* \"#utility.yul\":5182:5188   */\n      0x00\n        /* \"#utility.yul\":5190:5196   */\n      dup1\n        /* \"#utility.yul\":5243:5245   */\n      0x40\n        /* \"#utility.yul\":5231:5240   */\n      dup4\n        /* \"#utility.yul\":5222:5229   */\n      dup6\n        /* \"#utility.yul\":5218:5241   */\n      sub\n        /* \"#utility.yul\":5214:5246   */\n      slt\n        /* \"#utility.yul\":5211:5263   */\n      iszero\n      tag_244\n      jumpi\n        /* \"#utility.yul\":5259:5260   */\n      0x00\n        /* \"#utility.yul\":5256:5257   */\n      dup1\n        /* \"#utility.yul\":5249:5261   */\n      revert\n        /* \"#utility.yul\":5211:5263   */\n    tag_244:\n      pop\n      pop\n        /* \"#utility.yul\":5282:5305   */\n      dup1\n      calldataload\n      swap3\n        /* \"#utility.yul\":5352:5354   */\n      0x20\n        /* \"#utility.yul\":5337:5355   */\n      swap1\n      swap2\n      add\n        /* \"#utility.yul\":5324:5356   */\n      calldataload\n      swap2\n      pop\n        /* \"#utility.yul\":5114:5362   */\n      jump\t// out\n        /* \"#utility.yul\":5549:5800   */\n    tag_83:\n        /* \"#utility.yul\":5619:5625   */\n      0x00\n        /* \"#utility.yul\":5672:5674   */\n      0x20\n        /* \"#utility.yul\":5660:5669   */\n      dup3\n        /* \"#utility.yul\":5651:5658   */\n      dup5\n        /* \"#utility.yul\":5647:5670   */\n      sub\n        /* \"#utility.yul\":5643:5675   */\n      slt\n        /* \"#utility.yul\":5640:5692   */\n      iszero\n      tag_247\n      jumpi\n        /* \"#utility.yul\":5688:5689   */\n      0x00\n        /* \"#utility.yul\":5685:5686   */\n      dup1\n        /* \"#utility.yul\":5678:5690   */\n      revert\n        /* \"#utility.yul\":5640:5692   */\n    tag_247:\n        /* \"#utility.yul\":5720:5729   */\n      dup2\n        /* \"#utility.yul\":5714:5730   */\n      mload\n        /* \"#utility.yul\":5739:5770   */\n      tag_202\n        /* \"#utility.yul\":5764:5769   */\n      dup2\n        /* \"#utility.yul\":5739:5770   */\n      tag_193\n      jump\t// in\n        /* \"#utility.yul\":6084:6361   */\n    tag_90:\n        /* \"#utility.yul\":6151:6157   */\n      0x00\n        /* \"#utility.yul\":6204:6206   */\n      0x20\n        /* \"#utility.yul\":6192:6201   */\n      dup3\n        /* \"#utility.yul\":6183:6190   */\n      dup5\n        /* \"#utility.yul\":6179:6202   */\n      sub\n        /* \"#utility.yul\":6175:6207   */\n      slt\n        /* \"#utility.yul\":6172:6224   */\n      iszero\n      tag_251\n      jumpi\n        /* \"#utility.yul\":6220:6221   */\n      0x00\n        /* \"#utility.yul\":6217:6218   */\n      dup1\n        /* \"#utility.yul\":6210:6222   */\n      revert\n        /* \"#utility.yul\":6172:6224   */\n    tag_251:\n        /* \"#utility.yul\":6252:6261   */\n      dup2\n        /* \"#utility.yul\":6246:6262   */\n      mload\n        /* \"#utility.yul\":6305:6310   */\n      dup1\n        /* \"#utility.yul\":6298:6311   */\n      iszero\n        /* \"#utility.yul\":6291:6312   */\n      iszero\n        /* \"#utility.yul\":6284:6289   */\n      dup2\n        /* \"#utility.yul\":6281:6313   */\n      eq\n        /* \"#utility.yul\":6271:6331   */\n      tag_202\n      jumpi\n        /* \"#utility.yul\":6327:6328   */\n      0x00\n        /* \"#utility.yul\":6324:6325   */\n      dup1\n        /* \"#utility.yul\":6317:6329   */\n      revert\n        /* \"#utility.yul\":6366:6717   */\n    tag_93:\n        /* \"#utility.yul\":6568:6570   */\n      0x20\n        /* \"#utility.yul\":6550:6571   */\n      dup1\n      dup3\n      mstore\n        /* \"#utility.yul\":6607:6609   */\n      0x1b\n        /* \"#utility.yul\":6587:6605   */\n      swap1\n      dup3\n      add\n        /* \"#utility.yul\":6580:6610   */\n      mstore\n        /* \"#utility.yul\":6646:6675   */\n      0x45544e5265736f6c7665723a206e6f7420617574686f72697365640000000000\n        /* \"#utility.yul\":6641:6643   */\n      0x40\n        /* \"#utility.yul\":6626:6644   */\n      dup3\n      add\n        /* \"#utility.yul\":6619:6676   */\n      mstore\n        /* \"#utility.yul\":6708:6710   */\n      0x60\n        /* \"#utility.yul\":6693:6711   */\n      add\n      swap1\n        /* \"#utility.yul\":6366:6717   */\n      jump\t// out\n        /* \"#utility.yul\":6722:6995   */\n    tag_96:\n        /* \"#utility.yul\":6907:6913   */\n      dup2\n        /* \"#utility.yul\":6899:6905   */\n      dup4\n        /* \"#utility.yul\":6894:6897   */\n      dup3\n        /* \"#utility.yul\":6881:6914   */\n      calldatacopy\n        /* \"#utility.yul\":6863:6866   */\n      0x00\n        /* \"#utility.yul\":6933:6949   */\n      swap2\n      add\n        /* \"#utility.yul\":6958:6971   */\n      swap1\n      dup2\n      mstore\n        /* \"#utility.yul\":6933:6949   */\n      swap2\n        /* \"#utility.yul\":6722:6995   */\n      swap1\n      pop\n      jump\t// out\n        /* \"#utility.yul\":7000:7127   */\n    tag_194:\n        /* \"#utility.yul\":7061:7071   */\n      0x4e487b71\n        /* \"#utility.yul\":7056:7059   */\n      0xe0\n        /* \"#utility.yul\":7052:7072   */\n      shl\n        /* \"#utility.yul\":7049:7050   */\n      0x00\n        /* \"#utility.yul\":7042:7073   */\n      mstore\n        /* \"#utility.yul\":7092:7096   */\n      0x41\n        /* \"#utility.yul\":7089:7090   */\n      0x04\n        /* \"#utility.yul\":7082:7097   */\n      mstore\n        /* \"#utility.yul\":7116:7120   */\n      0x24\n        /* \"#utility.yul\":7113:7114   */\n      0x00\n        /* \"#utility.yul\":7106:7121   */\n      revert\n        /* \"#utility.yul\":7132:7512   */\n    tag_123:\n        /* \"#utility.yul\":7211:7212   */\n      0x01\n        /* \"#utility.yul\":7207:7219   */\n      dup2\n      dup2\n      shr\n      swap1\n        /* \"#utility.yul\":7254:7266   */\n      dup3\n      and\n      dup1\n        /* \"#utility.yul\":7275:7336   */\n      tag_257\n      jumpi\n        /* \"#utility.yul\":7329:7333   */\n      0x7f\n        /* \"#utility.yul\":7321:7327   */\n      dup3\n        /* \"#utility.yul\":7317:7334   */\n      and\n        /* \"#utility.yul\":7307:7334   */\n      swap2\n      pop\n        /* \"#utility.yul\":7275:7336   */\n    tag_257:\n        /* \"#utility.yul\":7382:7384   */\n      0x20\n        /* \"#utility.yul\":7374:7380   */\n      dup3\n        /* \"#utility.yul\":7371:7385   */\n      lt\n        /* \"#utility.yul\":7351:7369   */\n      dup2\n        /* \"#utility.yul\":7348:7386   */\n      sub\n        /* \"#utility.yul\":7345:7506   */\n      tag_258\n      jumpi\n        /* \"#utility.yul\":7428:7438   */\n      0x4e487b71\n        /* \"#utility.yul\":7423:7426   */\n      0xe0\n        /* \"#utility.yul\":7419:7439   */\n      shl\n        /* \"#utility.yul\":7416:7417   */\n      0x00\n        /* \"#utility.yul\":7409:7440   */\n      mstore\n        /* \"#utility.yul\":7463:7467   */\n      0x22\n        /* \"#utility.yul\":7460:7461   */\n      0x04\n        /* \"#utility.yul\":7453:7468   */\n      mstore\n        /* \"#utility.yul\":7491:7495   */\n      0x24\n        /* \"#utility.yul\":7488:7489   */\n      0x00\n        /* \"#utility.yul\":7481:7496   */\n      revert\n        /* \"#utility.yul\":7345:7506   */\n    tag_258:\n      pop\n        /* \"#utility.yul\":7132:7512   */\n      swap2\n      swap1\n      pop\n      jump\t// out\n        /* \"#utility.yul\":7643:8188   */\n    tag_196:\n        /* \"#utility.yul\":7745:7747   */\n      0x1f\n        /* \"#utility.yul\":7740:7743   */\n      dup3\n        /* \"#utility.yul\":7737:7748   */\n      gt\n        /* \"#utility.yul\":7734:8182   */\n      iszero\n      tag_261\n      jumpi\n        /* \"#utility.yul\":7781:7782   */\n      0x00\n        /* \"#utility.yul\":7806:7811   */\n      dup2\n        /* \"#utility.yul\":7802:7804   */\n      dup2\n        /* \"#utility.yul\":7795:7812   */\n      mstore\n        /* \"#utility.yul\":7851:7855   */\n      0x20\n        /* \"#utility.yul\":7847:7849   */\n      dup2\n        /* \"#utility.yul\":7837:7856   */\n      keccak256\n        /* \"#utility.yul\":7921:7923   */\n      0x1f\n        /* \"#utility.yul\":7909:7919   */\n      dup6\n        /* \"#utility.yul\":7905:7924   */\n      add\n        /* \"#utility.yul\":7902:7903   */\n      0x05\n        /* \"#utility.yul\":7898:7925   */\n      shr\n        /* \"#utility.yul\":7892:7896   */\n      dup2\n        /* \"#utility.yul\":7888:7926   */\n      add\n        /* \"#utility.yul\":7957:7961   */\n      0x20\n        /* \"#utility.yul\":7945:7955   */\n      dup7\n        /* \"#utility.yul\":7942:7962   */\n      lt\n        /* \"#utility.yul\":7939:7986   */\n      iszero\n      tag_262\n      jumpi\n      pop\n        /* \"#utility.yul\":7980:7984   */\n      dup1\n        /* \"#utility.yul\":7939:7986   */\n    tag_262:\n        /* \"#utility.yul\":8035:8037   */\n      0x1f\n        /* \"#utility.yul\":8030:8033   */\n      dup6\n        /* \"#utility.yul\":8026:8038   */\n      add\n        /* \"#utility.yul\":8023:8024   */\n      0x05\n        /* \"#utility.yul\":8019:8039   */\n      shr\n        /* \"#utility.yul\":8013:8017   */\n      dup3\n        /* \"#utility.yul\":8009:8040   */\n      add\n        /* \"#utility.yul\":7999:8040   */\n      swap2\n      pop\n        /* \"#utility.yul\":8090:8172   */\n    tag_263:\n        /* \"#utility.yul\":8108:8110   */\n      dup2\n        /* \"#utility.yul\":8101:8106   */\n      dup2\n        /* \"#utility.yul\":8098:8111   */\n      lt\n        /* \"#utility.yul\":8090:8172   */\n      iszero\n      tag_265\n      jumpi\n        /* \"#utility.yul\":8153:8170   */\n      dup3\n      dup2\n      sstore\n        /* \"#utility.yul\":8134:8135   */\n      0x01\n        /* \"#utility.yul\":8123:8136   */\n      add\n        /* \"#utility.yul\":8090:8172   */\n      jump(tag_263)\n    tag_265:\n        /* \"#utility.yul\":8094:8097   */\n      pop\n      pop\n      pop\n        /* \"#utility.yul\":7734:8182   */\n    tag_261:\n        /* \"#utility.yul\":7643:8188   */\n      pop\n      pop\n      pop\n      jump\t// out\n        /* \"#utility.yul\":8364:9570   */\n    tag_98:\n        /* \"#utility.yul\":8488:8506   */\n      0xffffffffffffffff\n        /* \"#utility.yul\":8483:8486   */\n      dup4\n        /* \"#utility.yul\":8480:8507   */\n      gt\n        /* \"#utility.yul\":8477:8530   */\n      iszero\n      tag_269\n      jumpi\n        /* \"#utility.yul\":8510:8528   */\n      tag_269\n      tag_194\n      jump\t// in\n    tag_269:\n        /* \"#utility.yul\":8539:8633   */\n      tag_270\n        /* \"#utility.yul\":8629:8632   */\n      dup4\n        /* \"#utility.yul\":8589:8627   */\n      tag_271\n        /* \"#utility.yul\":8621:8625   */\n      dup4\n        /* \"#utility.yul\":8615:8626   */\n      sload\n        /* \"#utility.yul\":8589:8627   */\n      tag_123\n      jump\t// in\n    tag_271:\n        /* \"#utility.yul\":8583:8587   */\n      dup4\n        /* \"#utility.yul\":8539:8633   */\n      tag_196\n      jump\t// in\n    tag_270:\n        /* \"#utility.yul\":8659:8660   */\n      0x00\n        /* \"#utility.yul\":8684:8686   */\n      0x1f\n        /* \"#utility.yul\":8679:8682   */\n      dup5\n        /* \"#utility.yul\":8676:8687   */\n      gt\n        /* \"#utility.yul\":8701:8702   */\n      0x01\n        /* \"#utility.yul\":8696:9312   */\n      dup2\n      eq\n      tag_273\n      jumpi\n        /* \"#utility.yul\":9356:9357   */\n      0x00\n        /* \"#utility.yul\":9373:9376   */\n      dup6\n        /* \"#utility.yul\":9370:9463   */\n      iszero\n      tag_274\n      jumpi\n      pop\n        /* \"#utility.yul\":9429:9448   */\n      dup4\n      dup3\n      add\n        /* \"#utility.yul\":9416:9449   */\n      calldataload\n        /* \"#utility.yul\":9370:9463   */\n    tag_274:\n      not(0x00)\n        /* \"#utility.yul\":8321:8322   */\n      0x03\n        /* \"#utility.yul\":8317:8328   */\n      dup8\n      swap1\n      shl\n        /* \"#utility.yul\":8313:8337   */\n      shr\n        /* \"#utility.yul\":8309:8338   */\n      not\n        /* \"#utility.yul\":8299:8339   */\n      and\n        /* \"#utility.yul\":8345:8346   */\n      0x01\n        /* \"#utility.yul\":8341:8352   */\n      dup7\n      swap1\n      shl\n        /* \"#utility.yul\":8296:8353   */\n      or\n        /* \"#utility.yul\":9476:9554   */\n      dup4\n      sstore\n        /* \"#utility.yul\":8669:9564   */\n      jump(tag_272)\n        /* \"#utility.yul\":8696:9312   */\n    tag_273:\n        /* \"#utility.yul\":7590:7591   */\n      0x00\n        /* \"#utility.yul\":7583:7597   */\n      dup4\n      dup2\n      mstore\n        /* \"#utility.yul\":7627:7631   */\n      0x20\n        /* \"#utility.yul\":7614:7632   */\n      swap1\n      keccak256\n      not(0x1f)\n        /* \"#utility.yul\":8732:8749   */\n      dup7\n      and\n      swap1\n        /* \"#utility.yul\":8833:8842   */\n      dup4\n        /* \"#utility.yul\":8855:9084   */\n    tag_277:\n        /* \"#utility.yul\":8869:8876   */\n      dup3\n        /* \"#utility.yul\":8866:8867   */\n      dup2\n        /* \"#utility.yul\":8863:8877   */\n      lt\n        /* \"#utility.yul\":8855:9084   */\n      iszero\n      tag_279\n      jumpi\n        /* \"#utility.yul\":8958:8977   */\n      dup7\n      dup6\n      add\n        /* \"#utility.yul\":8945:8978   */\n      calldataload\n        /* \"#utility.yul\":8930:8979   */\n      dup3\n      sstore\n        /* \"#utility.yul\":9065:9069   */\n      0x20\n        /* \"#utility.yul\":9050:9070   */\n      swap5\n      dup6\n      add\n      swap5\n        /* \"#utility.yul\":9018:9019   */\n      0x01\n        /* \"#utility.yul\":9006:9020   */\n      swap1\n      swap3\n      add\n      swap2\n        /* \"#utility.yul\":8885:8897   */\n      add\n        /* \"#utility.yul\":8855:9084   */\n      jump(tag_277)\n    tag_279:\n        /* \"#utility.yul\":8859:8862   */\n      pop\n        /* \"#utility.yul\":9112:9115   */\n      dup7\n        /* \"#utility.yul\":9103:9110   */\n      dup3\n        /* \"#utility.yul\":9100:9116   */\n      lt\n        /* \"#utility.yul\":9097:9256   */\n      iszero\n      tag_280\n      jumpi\n        /* \"#utility.yul\":9236:9237   */\n      0x00\n        /* \"#utility.yul\":9232:9238   */\n      not\n        /* \"#utility.yul\":9226:9229   */\n      0xf8\n        /* \"#utility.yul\":9220:9223   */\n      dup9\n        /* \"#utility.yul\":9217:9218   */\n      0x03\n        /* \"#utility.yul\":9213:9224   */\n      shl\n        /* \"#utility.yul\":9209:9230   */\n      and\n        /* \"#utility.yul\":9205:9239   */\n      shr\n        /* \"#utility.yul\":9201:9240   */\n      not\n        /* \"#utility.yul\":9188:9197   */\n      dup5\n        /* \"#utility.yul\":9183:9186   */\n      dup8\n        /* \"#utility.yul\":9179:9198   */\n      add\n        /* \"#utility.yul\":9166:9199   */\n      calldataload\n        /* \"#utility.yul\":9162:9241   */\n      and\n        /* \"#utility.yul\":9154:9160   */\n      dup2\n        /* \"#utility.yul\":9147:9242   */\n      sstore\n        /* \"#utility.yul\":9097:9256   */\n    tag_280:\n      pop\n      pop\n        /* \"#utility.yul\":9299:9300   */\n      0x01\n        /* \"#utility.yul\":9293:9296   */\n      dup6\n        /* \"#utility.yul\":9290:9291   */\n      0x01\n        /* \"#utility.yul\":9286:9297   */\n      shl\n        /* \"#utility.yul\":9282:9301   */\n      add\n        /* \"#utility.yul\":9276:9280   */\n      dup4\n        /* \"#utility.yul\":9269:9302   */\n      sstore\n        /* \"#utility.yul\":8669:9564   */\n    tag_272:\n      pop\n      pop\n        /* \"#utility.yul\":8364:9570   */\n      pop\n      pop\n      pop\n      jump\t// out\n        /* \"#utility.yul\":9575:9842   */\n    tag_198:\n        /* \"#utility.yul\":9664:9670   */\n      dup2\n        /* \"#utility.yul\":9659:9662   */\n      dup4\n        /* \"#utility.yul\":9652:9671   */\n      mstore\n        /* \"#utility.yul\":9716:9722   */\n      dup2\n        /* \"#utility.yul\":9709:9714   */\n      dup2\n        /* \"#utility.yul\":9702:9706   */\n      0x20\n        /* \"#utility.yul\":9697:9700   */\n      dup6\n        /* \"#utility.yul\":9693:9707   */\n      add\n        /* \"#utility.yul\":9680:9723   */\n      calldatacopy\n      pop\n        /* \"#utility.yul\":9768:9769   */\n      0x00\n        /* \"#utility.yul\":9743:9759   */\n      dup3\n      dup3\n      add\n        /* \"#utility.yul\":9761:9765   */\n      0x20\n        /* \"#utility.yul\":9739:9766   */\n      swap1\n      dup2\n      add\n        /* \"#utility.yul\":9732:9770   */\n      swap2\n      swap1\n      swap2\n      mstore\n        /* \"#utility.yul\":9824:9826   */\n      0x1f\n        /* \"#utility.yul\":9803:9818   */\n      swap1\n      swap2\n      add\n      not(0x1f)\n        /* \"#utility.yul\":9799:9828   */\n      and\n        /* \"#utility.yul\":9790:9829   */\n      swap1\n      swap2\n      add\n        /* \"#utility.yul\":9786:9836   */\n      add\n      swap1\n        /* \"#utility.yul\":9575:9842   */\n      jump\t// out\n        /* \"#utility.yul\":9847:10094   */\n    tag_101:\n        /* \"#utility.yul\":10006:10008   */\n      0x20\n        /* \"#utility.yul\":9995:10004   */\n      dup2\n        /* \"#utility.yul\":9988:10009   */\n      mstore\n        /* \"#utility.yul\":9969:9973   */\n      0x00\n        /* \"#utility.yul\":10026:10088   */\n      tag_283\n        /* \"#utility.yul\":10084:10086   */\n      0x20\n        /* \"#utility.yul\":10073:10082   */\n      dup4\n        /* \"#utility.yul\":10069:10087   */\n      add\n        /* \"#utility.yul\":10061:10067   */\n      dup5\n        /* \"#utility.yul\":10053:10059   */\n      dup7\n        /* \"#utility.yul\":10026:10088   */\n      tag_198\n      jump\t// in\n    tag_283:\n        /* \"#utility.yul\":10018:10088   */\n      swap5\n        /* \"#utility.yul\":9847:10094   */\n      swap4\n      pop\n      pop\n      pop\n      pop\n      jump\t// out\n        /* \"#utility.yul\":11558:11874   */\n    tag_164:\n        /* \"#utility.yul\":11743:11749   */\n      dup4\n        /* \"#utility.yul\":11732:11741   */\n      dup2\n        /* \"#utility.yul\":11725:11750   */\n      mstore\n        /* \"#utility.yul\":11786:11788   */\n      0x40\n        /* \"#utility.yul\":11781:11783   */\n      0x20\n        /* \"#utility.yul\":11770:11779   */\n      dup3\n        /* \"#utility.yul\":11766:11784   */\n      add\n        /* \"#utility.yul\":11759:11789   */\n      mstore\n        /* \"#utility.yul\":11706:11710   */\n      0x00\n        /* \"#utility.yul\":11806:11868   */\n      tag_301\n        /* \"#utility.yul\":11864:11866   */\n      0x40\n        /* \"#utility.yul\":11853:11862   */\n      dup4\n        /* \"#utility.yul\":11849:11867   */\n      add\n        /* \"#utility.yul\":11841:11847   */\n      dup5\n        /* \"#utility.yul\":11833:11839   */\n      dup7\n        /* \"#utility.yul\":11806:11868   */\n      tag_198\n      jump\t// in\n    tag_301:\n        /* \"#utility.yul\":11798:11868   */\n      swap6\n        /* \"#utility.yul\":11558:11874   */\n      swap5\n      pop\n      pop\n      pop\n      pop\n      pop\n      jump\t// out\n\n    auxdata: 0xa26469706673582212201588c57607e3e5d760cd31e24bb43db320ff6784637ae512fef70f4d6662754564736f6c63430008140033\n}\n",
				"bytecode": {
					"linkReferences": {},
					"object": "60a060405234801561001057600080fd5b5060405161133638038061133683398101604081905261002f91610040565b6001600160a01b0316608052610070565b60006020828403121561005257600080fd5b81516001600160a01b038116811461006957600080fd5b9392505050565b6080516112656100d160003960008181610195015281816102c901528181610364015281816104bb01528181610556015281816107ca0152818161086501528181610963015281816109fe01528181610b360152610bd101526112656000f3fe608060405234801561001057600080fd5b50600436106100b45760003560e01c80637737221311610071578063773722131461017d5780637b103999146101905780638b95dd71146101b7578063bc1c58d1146101ca578063d5fa2b00146101dd578063f1cb7e06146101f057600080fd5b806301ffc9a7146100b957806310f13a8c146100e1578063304e6ade146100f65780633b3b57de1461010957806359d1d43c1461014a578063691f34311461016a575b600080fd5b6100cc6100c7366004610d72565b610203565b60405190151581526020015b60405180910390f35b6100f46100ef366004610dec565b6102a6565b005b6100f4610104366004610e66565b610498565b610132610117366004610eb2565b6000908152602081905260409020546001600160a01b031690565b6040516001600160a01b0390911681526020016100d8565b61015d610158366004610e66565b610640565b6040516100d89190610f11565b61015d610178366004610eb2565b610705565b6100f461018b366004610e66565b6107a7565b6101327f000000000000000000000000000000000000000000000000000000000000000081565b6100f46101c5366004610f24565b610940565b61015d6101d8366004610eb2565b610af6565b6100f46101eb366004610f8f565b610b13565b61015d6101fe366004610fbf565b610cc4565b60006301ffc9a760e01b6001600160e01b0319831614806102345750631d9dabef60e11b6001600160e01b03198316145b8061024f57506378e5bf0360e11b6001600160e01b03198316145b8061026a5750631674750f60e21b6001600160e01b03198316145b80610285575063bc1c58d160e01b6001600160e01b03198316145b806102a0575063691f343160e01b6001600160e01b03198316145b92915050565b6040516302571be360e01b81526004810186905285906000906001600160a01b037f000000000000000000000000000000000000000000000000000000000000000016906302571be390602401602060405180830381865afa158015610310573d6000803e3d6000fd5b505050506040513d601f19601f820116820180604052508101906103349190610fe1565b90506001600160a01b0381163314806103d7575060405163160d30c560e31b8152600481018390523360248201527f00000000000000000000000000000000000000000000000000000000000000006001600160a01b03169063b069862890604401602060405180830381865afa1580156103b3573d6000803e3d6000fd5b505050506040513d601f19601f820116820180604052508101906103d79190610ffe565b6103fc5760405162461bcd60e51b81526004016103f390611020565b60405180910390fd5b8383600260008a81526020019081526020016000208888604051610421929190611057565b9081526020016040518091039020918261043c929190611106565b50858560405161044d929190611057565b6040518091039020877fd8c9334b1a9c2f9da342a0a2b32629c1a229b6445dad78947f674b44444a755086866040516104879291906111f0565b60405180910390a350505050505050565b6040516302571be360e01b81526004810184905283906000906001600160a01b037f000000000000000000000000000000000000000000000000000000000000000016906302571be390602401602060405180830381865afa158015610502573d6000803e3d6000fd5b505050506040513d601f19601f820116820180604052508101906105269190610fe1565b90506001600160a01b0381163314806105c9575060405163160d30c560e31b8152600481018390523360248201527f00000000000000000000000000000000000000000000000000000000000000006001600160a01b03169063b069862890604401602060405180830381865afa1580156105a5573d6000803e3d6000fd5b505050506040513d601f19601f820116820180604052508101906105c99190610ffe565b6105e55760405162461bcd60e51b81526004016103f390611020565b60008581526003602052604090206105fe848683611106565b50847fe379c1624ed7e714cc0937528a32359d69d5281337765313dba4e081b72d757885856040516106319291906111f0565b60405180910390a25050505050565b6060600260008581526020019081526020016000208383604051610665929190611057565b9081526020016040518091039020805461067e9061107d565b80601f01602080910402602001604051908101604052809291908181526020018280546106aa9061107d565b80156106f75780601f106106cc576101008083540402835291602001916106f7565b820191906000526020600020905b8154815290600101906020018083116106da57829003601f168201915b505050505090509392505050565b60008181526004602052604090208054606091906107229061107d565b80601f016020809104026020016040519081016040528092919081815260200182805461074e9061107d565b801561079b5780601f106107705761010080835404028352916020019161079b565b820191906000526020600020905b81548152906001019060200180831161077e57829003601f168201915b50505050509050919050565b6040516302571be360e01b81526004810184905283906000906001600160a01b037f000000000000000000000000000000000000000000000000000000000000000016906302571be390602401602060405180830381865afa158015610811573d6000803e3d6000fd5b505050506040513d601f19601f820116820180604052508101906108359190610fe1565b90506001600160a01b0381163314806108d8575060405163160d30c560e31b8152600481018390523360248201527f00000000000000000000000000000000000000000000000000000000000000006001600160a01b03169063b069862890604401602060405180830381865afa1580156108b4573d6000803e3d6000fd5b505050506040513d601f19601f820116820180604052508101906108d89190610ffe565b6108f45760405162461bcd60e51b81526004016103f390611020565b600085815260046020526040902061090d848683611106565b50847fb7d29e911041e8d9b843369e890bcb72c9388692ba48b65ac54e7214c4c348f785856040516106319291906111f0565b6040516302571be360e01b81526004810185905284906000906001600160a01b037f000000000000000000000000000000000000000000000000000000000000000016906302571be390602401602060405180830381865afa1580156109aa573d6000803e3d6000fd5b505050506040513d601f19601f820116820180604052508101906109ce9190610fe1565b90506001600160a01b038116331480610a71575060405163160d30c560e31b8152600481018390523360248201527f00000000000000000000000000000000000000000000000000000000000000006001600160a01b03169063b069862890604401602060405180830381865afa158015610a4d573d6000803e3d6000fd5b505050506040513d601f19601f82011682018060405250810190610a719190610ffe565b610a8d5760405162461bcd60e51b81526004016103f390611020565b60008681526001602090815260408083208884529091529020610ab1848683611106565b50857f65412581168e88a1e60c6459d7f44ae83ad0832e670826c05a4e2476b57af752868686604051610ae69392919061120c565b60405180910390a2505050505050565b60008181526003602052604090208054606091906107229061107d565b6040516302571be360e01b81526004810183905282906000906001600160a01b037f000000000000000000000000000000000000000000000000000000000000000016906302571be390602401602060405180830381865afa158015610b7d573d6000803e3d6000fd5b505050506040513d601f19601f82011682018060405250810190610ba19190610fe1565b90506001600160a01b038116331480610c44575060405163160d30c560e31b8152600481018390523360248201527f00000000000000000000000000000000000000000000000000000000000000006001600160a01b03169063b069862890604401602060405180830381865afa158015610c20573d6000803e3d6000fd5b505050506040513d601f19601f82011682018060405250810190610c449190610ffe565b610c605760405162461bcd60e51b81526004016103f390611020565b6000848152602081815260409182902080546001600160a01b0319166001600160a01b038716908117909155915191825285917f52d7d861f09ab3d26239d492e8968629f95e9e318cf0b73bfddc441522a15fd2910160405180910390a250505050565b60008281526001602090815260408083208484529091529020805460609190610cec9061107d565b80601f0160208091040260200160405190810160405280929190818152602001828054610d189061107d565b8015610d655780601f10610d3a57610100808354040283529160200191610d65565b820191906000526020600020905b815481529060010190602001808311610d4857829003601f168201915b5050505050905092915050565b600060208284031215610d8457600080fd5b81356001600160e01b031981168114610d9c57600080fd5b9392505050565b60008083601f840112610db557600080fd5b50813567ffffffffffffffff811115610dcd57600080fd5b602083019150836020828501011115610de557600080fd5b9250929050565b600080600080600060608688031215610e0457600080fd5b85359450602086013567ffffffffffffffff80821115610e2357600080fd5b610e2f89838a01610da3565b90965094506040880135915080821115610e4857600080fd5b50610e5588828901610da3565b969995985093965092949392505050565b600080600060408486031215610e7b57600080fd5b83359250602084013567ffffffffffffffff811115610e9957600080fd5b610ea586828701610da3565b9497909650939450505050565b600060208284031215610ec457600080fd5b5035919050565b6000815180845260005b81811015610ef157602081850181015186830182015201610ed5565b506000602082860101526020601f19601f83011685010191505092915050565b602081526000610d9c6020830184610ecb565b60008060008060608587031215610f3a57600080fd5b8435935060208501359250604085013567ffffffffffffffff811115610f5f57600080fd5b610f6b87828801610da3565b95989497509550505050565b6001600160a01b0381168114610f8c57600080fd5b50565b60008060408385031215610fa257600080fd5b823591506020830135610fb481610f77565b809150509250929050565b60008060408385031215610fd257600080fd5b50508035926020909101359150565b600060208284031215610ff357600080fd5b8151610d9c81610f77565b60006020828403121561101057600080fd5b81518015158114610d9c57600080fd5b6020808252601b908201527f45544e5265736f6c7665723a206e6f7420617574686f72697365640000000000604082015260600190565b8183823760009101908152919050565b634e487b7160e01b600052604160045260246000fd5b600181811c9082168061109157607f821691505b6020821081036110b157634e487b7160e01b600052602260045260246000fd5b50919050565b601f82111561110157600081815260208120601f850160051c810160208610156110de5750805b601f850160051c820191505b818110156110fd578281556001016110ea565b5050505b505050565b67ffffffffffffffff83111561111e5761111e611067565b6111328361112c835461107d565b836110b7565b6000601f841160018114611166576000851561114e5750838201355b600019600387901b1c1916600186901b1783556111c0565b600083815260209020601f19861690835b828110156111975786850135825560209485019460019092019101611177565b50868210156111b45760001960f88860031b161c19848701351681555b505060018560011b0183555b5050505050565b81835281816020850137506000828201602090810191909152601f909101601f19169091010190565b6020815260006112046020830184866111c7565b949350505050565b8381526040602082015260006112266040830184866111c7565b9594505050505056fea26469706673582212201588c57607e3e5d760cd31e24bb43db320ff6784637ae512fef70f4d6662754564736f6c63430008140033",
					"opcodes": "PUSH1 0xA0 PUSH1 0x40 MSTORE CALLVALUE DUP1 ISZERO PUSH2 0x10 JUMPI PUSH1 0x0 DUP1 REVERT JUMPDEST POP PUSH1 0x40 MLOAD PUSH2 0x1336 CODESIZE SUB DUP1 PUSH2 0x1336 DUP4 CODECOPY DUP2 ADD PUSH1 0x40 DUP2 SWAP1 MSTORE PUSH2 0x2F SWAP2 PUSH2 0x40 JUMP JUMPDEST PUSH1 0x1 PUSH1 0x1 PUSH1 0xA0 SHL SUB AND PUSH1 0x80 MSTORE PUSH2 0x70 JUMP JUMPDEST PUSH1 0x0 PUSH1 0x20 DUP3 DUP5 SUB SLT ISZERO PUSH2 0x52 JUMPI PUSH1 0x0 DUP1 REVERT JUMPDEST DUP2 MLOAD PUSH1 0x1 PUSH1 0x1 PUSH1 0xA0 SHL SUB DUP2 AND DUP2 EQ PUSH2 0x69 JUMPI PUSH1 0x0 DUP1 REVERT JUMPDEST SWAP4 SWAP3 POP POP POP JUMP JUMPDEST PUSH1 0x80 MLOAD PUSH2 0x1265 PUSH2 0xD1 PUSH1 0x0 CODECOPY PUSH1 0x0 DUP2 DUP2 PUSH2 0x195 ADD MSTORE DUP2 DUP2 PUSH2 0x2C9 ADD MSTORE DUP2 DUP2 PUSH2 0x364 ADD MSTORE DUP2 DUP2 PUSH2 0x4BB ADD MSTORE DUP2 DUP2 PUSH2 0x556 ADD MSTORE DUP2 DUP2 PUSH2 0x7CA ADD MSTORE DUP2 DUP2 PUSH2 0x865 ADD MSTORE DUP2 DUP2 PUSH2 0x963 ADD MSTORE DUP2 DUP2 PUSH2 0x9FE ADD MSTORE DUP2 DUP2 PUSH2 0xB36 ADD MSTORE PUSH2 0xBD1 ADD MSTORE PUSH2 0x1265 PUSH1 0x0 RETURN INVALID PUSH1 0x80 PUSH1 0x40 MSTORE CALLVALUE DUP1 ISZERO PUSH2 0x10 JUMPI PUSH1 0x0 DUP1 REVERT JUMPDEST POP PUSH1 0x4 CALLDATASIZE LT PUSH2 0xB4 JUMPI PUSH1 0x0 CALLDATALOAD PUSH1 0xE0 SHR DUP1 PUSH4 0x77372213 GT PUSH2 0x71 JUMPI DUP1 PUSH4 0x77372213 EQ PUSH2 0x17D JUMPI DUP1 PUSH4 0x7B103999 EQ PUSH2 0x190 JUMPI DUP1 PUSH4 0x8B95DD71 EQ PUSH2 0x1B7 JUMPI DUP1 PUSH4 0xBC1C58D1 EQ PUSH2 0x1CA JUMPI DUP1 PUSH4 0xD5FA2B00 EQ PUSH2 0x1DD JUMPI DUP1 PUSH4 0xF1CB7E06 EQ PUSH2 0x1F0 JUMPI PUSH1 0x0 DUP1 REVERT JUMPDEST DUP1 PUSH4 0x1FFC9A7 EQ PUSH2 0xB9 JUMPI DUP1 PUSH4 0x10F13A8C EQ PUSH2 0xE1 JUMPI DUP1 PUSH4 0x304E6ADE EQ PUSH2 0xF6 JUMPI DUP1 PUSH4 0x3B3B57DE EQ PUSH2 0x109 JUMPI DUP1 PUSH4 0x59D1D43C EQ PUSH2 0x14A JUMPI DUP1 PUSH4 0x691F3431 EQ PUSH2 0x16A JUMPI JUMPDEST PUSH1 0x0 DUP1 REVERT JUMPDEST PUSH2 0xCC PUSH2 0xC7 CALLDATASIZE PUSH1 0x4 PUSH2 0xD72 JUMP JUMPDEST PUSH2 0x203 JUMP JUMPDEST PUSH1 0x40 MLOAD SWAP1 ISZERO ISZERO DUP2 MSTORE PUSH1 0x20 ADD JUMPDEST PUSH1 0x40 MLOAD DUP1 SWAP2 SUB SWAP1 RETURN JUMPDEST PUSH2 0xF4 PUSH2 0xEF CALLDATASIZE PUSH1 0x4 PUSH2 0xDEC JUMP JUMPDEST PUSH2 0x2A6 JUMP JUMPDEST STOP JUMPDEST PUSH2 0xF4 PUSH2 0x104 CALLDATASIZE PUSH1 0x4 PUSH2 0xE66 JUMP JUMPDEST PUSH2 0x498 JUMP JUMPDEST PUSH2 0x132 PUSH2 0x117 CALLDATASIZE PUSH1 0x4 PUSH2 0xEB2 JUMP JUMPDEST PUSH1 0x0 SWAP1 DUP2 MSTORE PUSH1 0x20 DUP2 SWAP1 MSTORE PUSH1 0x40 SWAP1 KECCAK256 SLOAD PUSH1 0x1 PUSH1 0x1 PUSH1 0xA0 SHL SUB AND SWAP1 JUMP JUMPDEST PUSH1 0x40 MLOAD PUSH1 0x1 PUSH1 0x1 PUSH1 0xA0 SHL SUB SWAP1 SWAP2 AND DUP2 MSTORE PUSH1 0x20 ADD PUSH2 0xD8 JUMP JUMPDEST PUSH2 0x15D PUSH2 0x158 CALLDATASIZE PUSH1 0x4 PUSH2 0xE66 JUMP JUMPDEST PUSH2 0x640 JUMP JUMPDEST PUSH1 0x40 MLOAD PUSH2 0xD8 SWAP2 SWAP1 PUSH2 0xF11 JUMP JUMPDEST PUSH2 0x15D PUSH2 0x178 CALLDATASIZE PUSH1 0x4 PUSH2 0xEB2 JUMP JUMPDEST PUSH2 0x705 JUMP JUMPDEST PUSH2 0xF4 PUSH2 0x18B CALLDATASIZE PUSH1 0x4 PUSH2 0xE66 JUMP JUMPDEST PUSH2 0x7A7 JUMP JUMPDEST PUSH2 0x132 PUSH32 0x0 DUP2 JUMP JUMPDEST PUSH2 0xF4 PUSH2 0x1C5 CALLDATASIZE PUSH1 0x4 PUSH2 0xF24 JUMP JUMPDEST PUSH2 0x940 JUMP JUMPDEST PUSH2 0x15D PUSH2 0x1D8 CALLDATASIZE PUSH1 0x4 PUSH2 0xEB2 JUMP JUMPDEST PUSH2 0xAF6 JUMP JUMPDEST PUSH2 0xF4 PUSH2 0x1EB CALLDATASIZE PUSH1 0x4 PUSH2 0xF8F JUMP JUMPDEST PUSH2 0xB13 JUMP JUMPDEST PUSH2 0x15D PUSH2 0x1FE CALLDATASIZE PUSH1 0x4 PUSH2 0xFBF JUMP JUMPDEST PUSH2 0xCC4 JUMP JUMPDEST PUSH1 0x0 PUSH4 0x1FFC9A7 PUSH1 0xE0 SHL PUSH1 0x1 PUSH1 0x1 PUSH1 0xE0 SHL SUB NOT DUP4 AND EQ DUP1 PUSH2 0x234 JUMPI POP PUSH4 0x1D9DABEF PUSH1 0xE1 SHL PUSH1 0x1 PUSH1 0x1 PUSH1 0xE0 SHL SUB NOT DUP4 AND EQ JUMPDEST DUP1 PUSH2 0x24F JUMPI POP PUSH4 0x78E5BF03 PUSH1 0xE1 SHL PUSH1 0x1 PUSH1 0x1 PUSH1 0xE0 SHL SUB NOT DUP4 AND EQ JUMPDEST DUP1 PUSH2 0x26A JUMPI POP PUSH4 0x1674750F PUSH1 0xE2 SHL PUSH1 0x1 PUSH1 0x1 PUSH1 0xE0 SHL SUB NOT DUP4 AND EQ JUMPDEST DUP1 PUSH2 0x285 JUMPI POP PUSH4 0xBC1C58D1 PUSH1 0xE0 SHL PUSH1 0x1 PUSH1 0x1 PUSH1 0xE0 SHL SUB NOT DUP4 AND EQ JUMPDEST DUP1 PUSH2 0x2A0 JUMPI POP PUSH4 0x691F3431 PUSH1 0xE0 SHL PUSH1 0x1 PUSH1 0x1 PUSH1 0xE0 SHL SUB NOT DUP4 AND EQ JUMPDEST SWAP3 SWAP2 POP POP JUMP JUMPDEST PUSH1 0x40 MLOAD PUSH4 0x2571BE3 PUSH1 0xE0 SHL DUP2 MSTORE PUSH1 0x4 DUP2 ADD DUP7 SWAP1 MSTORE DUP6 SWAP1 PUSH1 0x0 SWAP1 PUSH1 0x1 PUSH1 0x1 PUSH1 0xA0 SHL SUB PUSH32 0x0 AND SWAP1 PUSH4 0x2571BE3 SWAP1 PUSH1 0x24 ADD PUSH1 0x20 PUSH1 0x40 MLOAD DUP1 DUP4 SUB DUP2 DUP7 GAS STATICCALL ISZERO DUP1 ISZERO PUSH2 0x310 JUMPI RETURNDATASIZE PUSH1 0x0 DUP1 RETURNDATACOPY RETURNDATASIZE PUSH1 0x0 REVERT JUMPDEST POP POP POP POP PUSH1 0x40 MLOAD RETURNDATASIZE PUSH1 0x1F NOT PUSH1 0x1F DUP3 ADD AND DUP3 ADD DUP1 PUSH1 0x40 MSTORE POP DUP2 ADD SWAP1 PUSH2 0x334 SWAP2 SWAP1 PUSH2 0xFE1 JUMP JUMPDEST SWAP1 POP PUSH1 0x1 PUSH1 0x1 PUSH1 0xA0 SHL SUB DUP2 AND CALLER EQ DUP1 PUSH2 0x3D7 JUMPI POP PUSH1 0x40 MLOAD PUSH4 0x160D30C5 PUSH1 0xE3 SHL DUP2 MSTORE PUSH1 0x4 DUP2 ADD DUP4 SWAP1 MSTORE CALLER PUSH1 0x24 DUP3 ADD MSTORE PUSH32 0x0 PUSH1 0x1 PUSH1 0x1 PUSH1 0xA0 SHL SUB AND SWAP1 PUSH4 0xB0698628 SWAP1 PUSH1 0x44 ADD PUSH1 0x20 PUSH1 0x40 MLOAD DUP1 DUP4 SUB DUP2 DUP7 GAS STATICCALL ISZERO DUP1 ISZERO PUSH2 0x3B3 JUMPI RETURNDATASIZE PUSH1 0x0 DUP1 RETURNDATACOPY RETURNDATASIZE PUSH1 0x0 REVERT JUMPDEST POP POP POP POP PUSH1 0x40 MLOAD RETURNDATASIZE PUSH1 0x1F NOT PUSH1 0x1F DUP3 ADD AND DUP3 ADD DUP1 PUSH1 0x40 MSTORE POP DUP2 ADD SWAP1 PUSH2 0x3D7 SWAP2 SWAP1 PUSH2 0xFFE JUMP JUMPDEST PUSH2 0x3FC JUMPI PUSH1 0x40 MLOAD PUSH3 0x461BCD PUSH1 0xE5 SHL DUP2 MSTORE PUSH1 0x4 ADD PUSH2 0x3F3 SWAP1 PUSH2 0x1020 JUMP JUMPDEST PUSH1 0x40 MLOAD DUP1 SWAP2 SUB SWAP1 REVERT JUMPDEST DUP4 DUP4 PUSH1 0x2 PUSH1 0x0 DUP11 DUP2 MSTORE PUSH1 0x20 ADD SWAP1 DUP2 MSTORE PUSH1 0x20 ADD PUSH1 0x0 KECCAK256 DUP9 DUP9 PUSH1 0x40 MLOAD PUSH2 0x421 SWAP3 SWAP2 SWAP1 PUSH2 0x1057 JUMP JUMPDEST SWAP1 DUP2 MSTORE PUSH1 0x20 ADD PUSH1 0x40 MLOAD DUP1 SWAP2 SUB SWAP1 KECCAK256 SWAP2 DUP3 PUSH2 0x43C SWAP3 SWAP2 SWAP1 PUSH2 0x1106 JUMP JUMPDEST POP DUP6 DUP6 PUSH1 0x40 MLOAD PUSH2 0x44D SWAP3 SWAP2 SWAP1 PUSH2 0x1057 JUMP JUMPDEST PUSH1 0x40 MLOAD DUP1 SWAP2 SUB SWAP1 KECCAK256 DUP8 PUSH32 0xD8C9334B1A9C2F9DA342A0A2B32629C1A229B6445DAD78947F674B44444A7550 DUP7 DUP7 PUSH1 0x40 MLOAD PUSH2 0x487 SWAP3 SWAP2 SWAP1 PUSH2 0x11F0 JUMP JUMPDEST PUSH1 0x40 MLOAD DUP1 SWAP2 SUB SWAP1 LOG3 POP POP POP POP POP POP POP JUMP JUMPDEST PUSH1 0x40 MLOAD PUSH4 0x2571BE3 PUSH1 0xE0 SHL DUP2 MSTORE PUSH1 0x4 DUP2 ADD DUP5 SWAP1 MSTORE DUP4 SWAP1 PUSH1 0x0 SWAP1 PUSH1 0x1 PUSH1 0x1 PUSH1 0xA0 SHL SUB PUSH32 0x0 AND SWAP1 PUSH4 0x2571BE3 SWAP1 PUSH1 0x24 ADD PUSH1 0x20 PUSH1 0x40 MLOAD DUP1 DUP4 SUB DUP2 DUP7 GAS STATICCALL ISZERO DUP1 ISZERO PUSH2 0x502 JUMPI RETURNDATASIZE PUSH1 0x0 DUP1 RETURNDATACOPY RETURNDATASIZE PUSH1 0x0 REVERT JUMPDEST POP POP POP POP PUSH1 0x40 MLOAD RETURNDATASIZE PUSH1 0x1F NOT PUSH1 0x1F DUP3 ADD AND DUP3 ADD DUP1 PUSH1 0x40 MSTORE POP DUP2 ADD SWAP1 PUSH2 0x526 SWAP2 SWAP1 PUSH2 0xFE1 JUMP JUMPDEST SWAP1 POP PUSH1 0x1 PUSH1 0x1 PUSH1 0xA0 SHL SUB DUP2 AND CALLER EQ DUP1 PUSH2 0x5C9 JUMPI POP PUSH1 0x40 MLOAD PUSH4 0x160D30C5 PUSH1 0xE3 SHL DUP2 MSTORE PUSH1 0x4 DUP2 ADD DUP4 SWAP1 MSTORE CALLER PUSH1 0x24 DUP3 ADD MSTORE PUSH32 0x0 PUSH1 0x1 PUSH1 0x1 PUSH1 0xA0 SHL SUB AND SWAP1 PUSH4 0xB0698628 SWAP1 PUSH1 0x44 ADD PUSH1 0x20 PUSH1 0x40 MLOAD DUP1 DUP4 SUB DUP2 DUP7 GAS STATICCALL ISZERO DUP1 ISZERO PUSH2 0x5A5 JUMPI RETURNDATASIZE PUSH1 0x0 DUP1 RETURNDATACOPY RETURNDATASIZE PUSH1 0x0 REVERT JUMPDEST POP POP POP POP PUSH1 0x40 MLOAD RETURNDATASIZE PUSH1 0x1F NOT PUSH1 0x1F DUP3 ADD AND DUP3 ADD DUP1 PUSH1 0x40 MSTORE POP DUP2 ADD SWAP1 PUSH2 0x5C9 SWAP2 SWAP1 PUSH2 0xFFE JUMP JUMPDEST PUSH2 0x5E5 JUMPI PUSH1 0x40 MLOAD PUSH3 0x461BCD PUSH1 0xE5 SHL DUP2 MSTORE PUSH1 0x4 ADD PUSH2 0x3F3 SWAP1 PUSH2 0x1020 JUMP JUMPDEST PUSH1 0x0 DUP6 DUP2 MSTORE PUSH1 0x3 PUSH1 0x20 MSTORE PUSH1 0x40 SWAP1 KECCAK256 PUSH2 0x5FE DUP5 DUP7 DUP4 PUSH2 0x1106 JUMP JUMPDEST POP DUP5 PUSH32 0xE379C1624ED7E714CC0937528A32359D69D5281337765313DBA4E081B72D7578 DUP6 DUP6 PUSH1 0x40 MLOAD PUSH2 0x631 SWAP3 SWAP2 SWAP1 PUSH2 0x11F0 JUMP JUMPDEST PUSH1 0x40 MLOAD DUP1 SWAP2 SUB SWAP1 LOG2 POP POP POP POP POP JUMP JUMPDEST PUSH1 0x60 PUSH1 0x2 PUSH1 0x0 DUP6 DUP2 MSTORE PUSH1 0x20 ADD SWAP1 DUP2 MSTORE PUSH1 0x20 ADD PUSH1 0x0 KECCAK256 DUP4 DUP4 PUSH1 0x40 MLOAD PUSH2 0x665 SWAP3 SWAP2 SWAP1 PUSH2 0x1057 JUMP JUMPDEST SWAP1 DUP2 MSTORE PUSH1 0x20 ADD PUSH1 0x40 MLOAD DUP1 SWAP2 SUB SWAP1 KECCAK256 DUP1 SLOAD PUSH2 0x67E SWAP1 PUSH2 0x107D JUMP JUMPDEST DUP1 PUSH1 0x1F ADD PUSH1 0x20 DUP1 SWAP2 DIV MUL PUSH1 0x20 ADD PUSH1 0x40 MLOAD SWAP1 DUP2 ADD PUSH1 0x40 MSTORE DUP1 SWAP3 SWAP2 SWAP1 DUP2 DUP2 MSTORE PUSH1 0x20 ADD DUP3 DUP1 SLOAD PUSH2 0x6AA SWAP1 PUSH2 0x107D JUMP JUMPDEST DUP1 ISZERO PUSH2 0x6F7 JUMPI DUP1 PUSH1 0x1F LT PUSH2 0x6CC JUMPI PUSH2 0x100 DUP1 DUP4 SLOAD DIV MUL DUP4 MSTORE SWAP2 PUSH1 0x20 ADD SWAP2 PUSH2 0x6F7 JUMP JUMPDEST DUP3 ADD SWAP2 SWAP1 PUSH1 0x0 MSTORE PUSH1 0x20 PUSH1 0x0 KECCAK256 SWAP1 JUMPDEST DUP2 SLOAD DUP2 MSTORE SWAP1 PUSH1 0x1 ADD SWAP1 PUSH1 0x20 ADD DUP1 DUP4 GT PUSH2 0x6DA JUMPI DUP3 SWAP1 SUB PUSH1 0x1F AND DUP3 ADD SWAP2 JUMPDEST POP POP POP POP POP SWAP1 POP SWAP4 SWAP3 POP POP POP JUMP JUMPDEST PUSH1 0x0 DUP2 DUP2 MSTORE PUSH1 0x4 PUSH1 0x20 MSTORE PUSH1 0x40 SWAP1 KECCAK256 DUP1 SLOAD PUSH1 0x60 SWAP2 SWAP1 PUSH2 0x722 SWAP1 PUSH2 0x107D JUMP JUMPDEST DUP1 PUSH1 0x1F ADD PUSH1 0x20 DUP1 SWAP2 DIV MUL PUSH1 0x20 ADD PUSH1 0x40 MLOAD SWAP1 DUP2 ADD PUSH1 0x40 MSTORE DUP1 SWAP3 SWAP2 SWAP1 DUP2 DUP2 MSTORE PUSH1 0x20 ADD DUP3 DUP1 SLOAD PUSH2 0x74E SWAP1 PUSH2 0x107D JUMP JUMPDEST DUP1 ISZERO PUSH2 0x79B JUMPI DUP1 PUSH1 0x1F LT PUSH2 0x770 JUMPI PUSH2 0x100 DUP1 DUP4 SLOAD DIV MUL DUP4 MSTORE SWAP2 PUSH1 0x20 ADD SWAP2 PUSH2 0x79B JUMP JUMPDEST DUP3 ADD SWAP2 SWAP1 PUSH1 0x0 MSTORE PUSH1 0x20 PUSH1 0x0 KECCAK256 SWAP1 JUMPDEST DUP2 SLOAD DUP2 MSTORE SWAP1 PUSH1 0x1 ADD SWAP1 PUSH1 0x20 ADD DUP1 DUP4 GT PUSH2 0x77E JUMPI DUP3 SWAP1 SUB PUSH1 0x1F AND DUP3 ADD SWAP2 JUMPDEST POP POP POP POP POP SWAP1 POP SWAP2 SWAP1 POP JUMP JUMPDEST PUSH1 0x40 MLOAD PUSH4 0x2571BE3 PUSH1 0xE0 SHL DUP2 MSTORE PUSH1 0x4 DUP2 ADD DUP5 SWAP1 MSTORE DUP4 SWAP1 PUSH1 0x0 SWAP1 PUSH1 0x1 PUSH1 0x1 PUSH1 0xA0 SHL SUB PUSH32 0x0 AND SWAP1 PUSH4 0x2571BE3 SWAP1 PUSH1 0x24 ADD PUSH1 0x20 PUSH1 0x40 MLOAD DUP1 DUP4 SUB DUP2 DUP7 GAS STATICCALL ISZERO DUP1 ISZERO PUSH2 0x811 JUMPI RETURNDATASIZE PUSH1 0x0 DUP1 RETURNDATACOPY RETURNDATASIZE PUSH1 0x0 REVERT JUMPDEST POP POP POP POP PUSH1 0x40 MLOAD RETURNDATASIZE PUSH1 0x1F NOT PUSH1 0x1F DUP3 ADD AND DUP3 ADD DUP1 PUSH1 0x40 MSTORE POP DUP2 ADD SWAP1 PUSH2 0x835 SWAP2 SWAP1 PUSH2 0xFE1 JUMP JUMPDEST SWAP1 POP PUSH1 0x1 PUSH1 0x1 PUSH1 0xA0 SHL SUB DUP2 AND CALLER EQ DUP1 PUSH2 0x8D8 JUMPI POP PUSH1 0x40 MLOAD PUSH4 0x160D30C5 PUSH1 0xE3 SHL DUP2 MSTORE PUSH1 0x4 DUP2 ADD DUP4 SWAP1 MSTORE CALLER PUSH1 0x24 DUP3 ADD MSTORE PUSH32 0x0 PUSH1 0x1 PUSH1 0x1 PUSH1 0xA0 SHL SUB AND SWAP1 PUSH4 0xB0698628 SWAP1 PUSH1 0x44 ADD PUSH1 0x20 PUSH1 0x40 MLOAD DUP1 DUP4 SUB DUP2 DUP7 GAS STATICCALL ISZERO DUP1 ISZERO PUSH2 0x8B4 JUMPI RETURNDATASIZE PUSH1 0x0 DUP1 RETURNDATACOPY RETURNDATASIZE PUSH1 0x0 REVERT JUMPDEST POP POP POP POP PUSH1 0x40 MLOAD RETURNDATASIZE PUSH1 0x1F NOT PUSH1 0x1F DUP3 ADD AND DUP3 ADD DUP1 PUSH1 0x40 MSTORE POP DUP2 ADD SWAP1 PUSH2 0x8D8 SWAP2 SWAP1 PUSH2 0xFFE JUMP JUMPDEST PUSH2 0x8F4 JUMPI PUSH1 0x40 MLOAD PUSH3 0x461BCD PUSH1 0xE5 SHL DUP2 MSTORE PUSH1 0x4 ADD PUSH2 0x3F3 SWAP1 PUSH2 0x1020 JUMP JUMPDEST PUSH1 0x0 DUP6 DUP2 MSTORE PUSH1 0x4 PUSH1 0x20 MSTORE PUSH1 0x40 SWAP1 KECCAK256 PUSH2 0x90D DUP5 DUP7 DUP4 PUSH2 0x1106 JUMP JUMPDEST POP DUP5 PUSH32 0xB7D29E911041E8D9B843369E890BCB72C9388692BA48B65AC54E7214C4C348F7 DUP6 DUP6 PUSH1 0x40 MLOAD PUSH2 0x631 SWAP3 SWAP2 SWAP1 PUSH2 0x11F0 JUMP JUMPDEST PUSH1 0x40 MLOAD PUSH4 0x2571BE3 PUSH1 0xE0 SHL DUP2 MSTORE PUSH1 0x4 DUP2 ADD DUP6 SWAP1 MSTORE DUP5 SWAP1 PUSH1 0x0 SWAP1 PUSH1 0x1 PUSH1 0x1 PUSH1 0xA0 SHL SUB PUSH32 0x0 AND SWAP1 PUSH4 0x2571BE3 SWAP1 PUSH1 0x24 ADD PUSH1 0x20 PUSH1 0x40 MLOAD DUP1 DUP4 SUB DUP2 DUP7 GAS STATICCALL ISZERO DUP1 ISZERO PUSH2 0x9AA JUMPI RETURNDATASIZE PUSH1 0x0 DUP1 RETURNDATACOPY RETURNDATASIZE PUSH1 0x0 REVERT JUMPDEST POP POP POP POP PUSH1 0x40 MLOAD RETURNDATASIZE PUSH1 0x1F NOT PUSH1 0x1F DUP3 ADD AND DUP3 ADD DUP1 PUSH1 0x40 MSTORE POP DUP2 ADD SWAP1 PUSH2 0x9CE SWAP2 SWAP1 PUSH2 0xFE1 JUMP JUMPDEST SWAP1 POP PUSH1 0x1 PUSH1 0x1 PUSH1 0xA0 SHL SUB DUP2 AND CALLER EQ DUP1 PUSH2 0xA71 JUMPI POP PUSH1 0x40 MLOAD PUSH4 0x160D30C5 PUSH1 0xE3 SHL DUP2 MSTORE PUSH1 0x4 DUP2 ADD DUP4 SWAP1 MSTORE CALLER PUSH1 0x24 DUP3 ADD MSTORE PUSH32 0x0 PUSH1 0x1 PUSH1 0x1 PUSH1 0xA0 SHL SUB AND SWAP1 PUSH4 0xB0698628 SWAP1 PUSH1 0x44 ADD PUSH1 0x20 PUSH1 0x40 MLOAD DUP1 DUP4 SUB DUP2 DUP7 GAS STATICCALL ISZERO DUP1 ISZERO PUSH2 0xA4D JUMPI RETURNDATASIZE PUSH1 0x0 DUP1 RETURNDATACOPY RETURNDATASIZE PUSH1 0x0 REVERT JUMPDEST POP POP POP POP PUSH1 0x40 MLOAD RETURNDATASIZE PUSH1 0x1F NOT PUSH1 0x1F DUP3 ADD AND DUP3 ADD DUP1 PUSH1 0x40 MSTORE POP DUP2 ADD SWAP1 PUSH2 0xA71 SWAP2 SWAP1 PUSH2 0xFFE JUMP JUMPDEST PUSH2 0xA8D JUMPI PUSH1 0x40 MLOAD PUSH3 0x461BCD PUSH1 0xE5 SHL DUP2 MSTORE PUSH1 0x4 ADD PUSH2 0x3F3 SWAP1 PUSH2 0x1020 JUMP JUMPDEST PUSH1 0x0 DUP7 DUP2 MSTORE PUSH1 0x1 PUSH1 0x20 SWAP1 DUP2 MSTORE PUSH1 0x40 DUP1 DUP4 KECCAK256 DUP9 DUP5 MSTORE SWAP1 SWAP2 MSTORE SWAP1 KECCAK256 PUSH2 0xAB1 DUP5 DUP7 DUP4 PUSH2 0x1106 JUMP JUMPDEST POP DUP6 PUSH32 0x65412581168E88A1E60C6459D7F44AE83AD0832E670826C05A4E2476B57AF752 DUP7 DUP7 DUP7 PUSH1 0x40 MLOAD PUSH2 0xAE6 SWAP4 SWAP3 SWAP2 SWAP1 PUSH2 0x120C JUMP JUMPDEST PUSH1 0x40 MLOAD DUP1 SWAP2 SUB SWAP1 LOG2 POP POP POP POP POP POP JUMP JUMPDEST PUSH1 0x0 DUP2 DUP2 MSTORE PUSH1 0x3 PUSH1 0x20 MSTORE PUSH1 0x40 SWAP1 KECCAK256 DUP1 SLOAD PUSH1 0x60 SWAP2 SWAP1 PUSH2 0x722 SWAP1 PUSH2 0x107D JUMP JUMPDEST PUSH1 0x40 MLOAD PUSH4 0x2571BE3 PUSH1 0xE0 SHL DUP2 MSTORE PUSH1 0x4 DUP2 ADD DUP4 SWAP1 MSTORE DUP3 SWAP1 PUSH1 0x0 SWAP1 PUSH1 0x1 PUSH1 0x1 PUSH1 0xA0 SHL SUB PUSH32 0x0 AND SWAP1 PUSH4 0x2571BE3 SWAP1 PUSH1 0x24 ADD PUSH1 0x20 PUSH1 0x40 MLOAD DUP1 DUP4 SUB DUP2 DUP7 GAS STATICCALL ISZERO DUP1 ISZERO PUSH2 0xB7D JUMPI RETURNDATASIZE PUSH1 0x0 DUP1 RETURNDATACOPY RETURNDATASIZE PUSH1 0x0 REVERT JUMPDEST POP POP POP POP PUSH1 0x40 MLOAD RETURNDATASIZE PUSH1 0x1F NOT PUSH1 0x1F DUP3 ADD AND DUP3 ADD DUP1 PUSH1 0x40 MSTORE POP DUP2 ADD SWAP1 PUSH2 0xBA1 SWAP2 SWAP1 PUSH2 0xFE1 JUMP JUMPDEST SWAP1 POP PUSH1 0x1 PUSH1 0x1 PUSH1 0xA0 SHL SUB DUP2 AND CALLER EQ DUP1 PUSH2 0xC44 JUMPI POP PUSH1 0x40 MLOAD PUSH4 0x160D30C5 PUSH1 0xE3 SHL DUP2 MSTORE PUSH1 0x4 DUP2 ADD DUP4 SWAP1 MSTORE CALLER PUSH1 0x24 DUP3 ADD MSTORE PUSH32 0x0 PUSH1 0x1 PUSH1 0x1 PUSH1 0xA0 SHL SUB AND SWAP1 PUSH4 0xB0698628 SWAP1 PUSH1 0x44 ADD PUSH1 0x20 PUSH1 0x40 MLOAD DUP1 DUP4 SUB DUP2 DUP7 GAS STATICCALL ISZERO DUP1 ISZERO PUSH2 0xC20 JUMPI RETURNDATASIZE PUSH1 0x0 DUP1 RETURNDATACOPY RETURNDATASIZE PUSH1 0x0 REVERT JUMPDEST POP POP POP POP PUSH1 0x40 MLOAD RETURNDATASIZE PUSH1 0x1F NOT PUSH1 0x1F DUP3 ADD AND DUP3 ADD DUP1 PUSH1 0x40 MSTORE POP DUP2 ADD SWAP1 PUSH2 0xC44 SWAP2 SWAP1 PUSH2 0xFFE JUMP JUMPDEST PUSH2 0xC60 JUMPI PUSH1 0x40 MLOAD PUSH3 0x461BCD PUSH1 0xE5 SHL DUP2 MSTORE PUSH1 0x4 ADD PUSH2 0x3F3 SWAP1 PUSH2 0x1020 JUMP JUMPDEST PUSH1 0x0 DUP5 DUP2 MSTORE PUSH1 0x20 DUP2 DUP2 MSTORE PUSH1 0x40 SWAP2 DUP3 SWAP1 KECCAK256 DUP1 SLOAD PUSH1 0x1 PUSH1 0x1 PUSH1 0xA0 SHL SUB NOT AND PUSH1 0x1 PUSH1 0x1 PUSH1 0xA0 SHL SUB DUP8 AND SWAP1 DUP2 OR SWAP1 SWAP2 SSTORE SWAP2 MLOAD SWAP2 DUP3 MSTORE DUP6 SWAP2 PUSH32 0x52D7D861F09AB3D26239D492E8968629F95E9E318CF0B73BFDDC441522A15FD2 SWAP2 ADD PUSH1 0x40 MLOAD DUP1 SWAP2 SUB SWAP1 LOG2 POP POP POP POP JUMP JUMPDEST PUSH1 0x0 DUP3 DUP2 MSTORE PUSH1 0x1 PUSH1 0x20 SWAP1 DUP2 MSTORE PUSH1 0x40 DUP1 DUP4 KECCAK256 DUP5 DUP5 MSTORE SWAP1 SWAP2 MSTORE SWAP1 KECCAK256 DUP1 SLOAD PUSH1 0x60 SWAP2 SWAP1 PUSH2 0xCEC SWAP1 PUSH2 0x107D JUMP JUMPDEST DUP1 PUSH1 0x1F ADD PUSH1 0x20 DUP1 SWAP2 DIV MUL PUSH1 0x20 ADD PUSH1 0x40 MLOAD SWAP1 DUP2 ADD PUSH1 0x40 MSTORE DUP1 SWAP3 SWAP2 SWAP1 DUP2 DUP2 MSTORE PUSH1 0x20 ADD DUP3 DUP1 SLOAD PUSH2 0xD18 SWAP1 PUSH2 0x107D JUMP JUMPDEST DUP1 ISZERO PUSH2 0xD65 JUMPI DUP1 PUSH1 0x1F LT PUSH2 0xD3A JUMPI PUSH2 0x100 DUP1 DUP4 SLOAD DIV MUL DUP4 MSTORE SWAP2 PUSH1 0x20 ADD SWAP2 PUSH2 0xD65 JUMP JUMPDEST DUP3 ADD SWAP2 SWAP1 PUSH1 0x0 MSTORE PUSH1 0x20 PUSH1 0x0 KECCAK256 SWAP1 JUMPDEST DUP2 SLOAD DUP2 MSTORE SWAP1 PUSH1 0x1 ADD SWAP1 PUSH1 0x20 ADD DUP1 DUP4 GT PUSH2 0xD48 JUMPI DUP3 SWAP1 SUB PUSH1 0x1F AND DUP3 ADD SWAP2 JUMPDEST POP POP POP POP POP SWAP1 POP SWAP3 SWAP2 POP POP JUMP JUMPDEST PUSH1 0x0 PUSH1 0x20 DUP3 DUP5 SUB SLT ISZERO PUSH2 0xD84 JUMPI PUSH1 0x0 DUP1 REVERT JUMPDEST DUP2 CALLDATALOAD PUSH1 0x1 PUSH1 0x1 PUSH1 0xE0 SHL SUB NOT DUP2 AND DUP2 EQ PUSH2 0xD9C JUMPI PUSH1 0x0 DUP1 REVERT JUMPDEST SWAP4 SWAP3 POP POP POP JUMP JUMPDEST PUSH1 0x0 DUP1 DUP4 PUSH1 0x1F DUP5 ADD SLT PUSH2 0xDB5 JUMPI PUSH1 0x0 DUP1 REVERT JUMPDEST POP DUP2 CALLDATALOAD PUSH8 0xFFFFFFFFFFFFFFFF DUP2 GT ISZERO PUSH2 0xDCD JUMPI PUSH1 0x0 DUP1 REVERT JUMPDEST PUSH1 0x20 DUP4 ADD SWAP2 POP DUP4 PUSH1 0x20 DUP3 DUP6 ADD ADD GT ISZERO PUSH2 0xDE5 JUMPI PUSH1 0x0 DUP1 REVERT JUMPDEST SWAP3 POP SWAP3 SWAP1 POP JUMP JUMPDEST PUSH1 0x0 DUP1 PUSH1 0x0 DUP1 PUSH1 0x0 PUSH1 0x60 DUP7 DUP9 SUB SLT ISZERO PUSH2 0xE04 JUMPI PUSH1 0x0 DUP1 REVERT JUMPDEST DUP6 CALLDATALOAD SWAP5 POP PUSH1 0x20 DUP7 ADD CALLDATALOAD PUSH8 0xFFFFFFFFFFFFFFFF DUP1 DUP3 GT ISZERO PUSH2 0xE23 JUMPI PUSH1 0x0 DUP1 REVERT JUMPDEST PUSH2 0xE2F DUP10 DUP4 DUP11 ADD PUSH2 0xDA3 JUMP JUMPDEST SWAP1 SWAP7 POP SWAP5 POP PUSH1 0x40 DUP9 ADD CALLDATALOAD SWAP2 POP DUP1 DUP3 GT ISZERO PUSH2 0xE48 JUMPI PUSH1 0x0 DUP1 REVERT JUMPDEST POP PUSH2 0xE55 DUP9 DUP3 DUP10 ADD PUSH2 0xDA3 JUMP JUMPDEST SWAP7 SWAP10 SWAP6 SWAP9 POP SWAP4 SWAP7 POP SWAP3 SWAP5 SWAP4 SWAP3 POP POP POP JUMP JUMPDEST PUSH1 0x0 DUP1 PUSH1 0x0 PUSH1 0x40 DUP5 DUP7 SUB SLT ISZERO PUSH2 0xE7B JUMPI PUSH1 0x0 DUP1 REVERT JUMPDEST DUP4 CALLDATALOAD SWAP3 POP PUSH1 0x20 DUP5 ADD CALLDATALOAD PUSH8 0xFFFFFFFFFFFFFFFF DUP2 GT ISZERO PUSH2 0xE99 JUMPI PUSH1 0x0 DUP1 REVERT JUMPDEST PUSH2 0xEA5 DUP7 DUP3 DUP8 ADD PUSH2 0xDA3 JUMP JUMPDEST SWAP5 SWAP8 SWAP1 SWAP7 POP SWAP4 SWAP5 POP POP POP POP JUMP JUMPDEST PUSH1 0x0 PUSH1 0x20 DUP3 DUP5 SUB SLT ISZERO PUSH2 0xEC4 JUMPI PUSH1 0x0 DUP1 REVERT JUMPDEST POP CALLDATALOAD SWAP2 SWAP1 POP JUMP JUMPDEST PUSH1 0x0 DUP2 MLOAD DUP1 DUP5 MSTORE PUSH1 0x0 JUMPDEST DUP2 DUP2 LT ISZERO PUSH2 0xEF1 JUMPI PUSH1 0x20 DUP2 DUP6 ADD DUP2 ADD MLOAD DUP7 DUP4 ADD DUP3 ADD MSTORE ADD PUSH2 0xED5 JUMP JUMPDEST POP PUSH1 0x0 PUSH1 0x20 DUP3 DUP7 ADD ADD MSTORE PUSH1 0x20 PUSH1 0x1F NOT PUSH1 0x1F DUP4 ADD AND DUP6 ADD ADD SWAP2 POP POP SWAP3 SWAP2 POP POP JUMP JUMPDEST PUSH1 0x20 DUP2 MSTORE PUSH1 0x0 PUSH2 0xD9C PUSH1 0x20 DUP4 ADD DUP5 PUSH2 0xECB JUMP JUMPDEST PUSH1 0x0 DUP1 PUSH1 0x0 DUP1 PUSH1 0x60 DUP6 DUP8 SUB SLT ISZERO PUSH2 0xF3A JUMPI PUSH1 0x0 DUP1 REVERT JUMPDEST DUP5 CALLDATALOAD SWAP4 POP PUSH1 0x20 DUP6 ADD CALLDATALOAD SWAP3 POP PUSH1 0x40 DUP6 ADD CALLDATALOAD PUSH8 0xFFFFFFFFFFFFFFFF DUP2 GT ISZERO PUSH2 0xF5F JUMPI PUSH1 0x0 DUP1 REVERT JUMPDEST PUSH2 0xF6B DUP8 DUP3 DUP9 ADD PUSH2 0xDA3 JUMP JUMPDEST SWAP6 SWAP9 SWAP5 SWAP8 POP SWAP6 POP POP POP POP JUMP JUMPDEST PUSH1 0x1 PUSH1 0x1 PUSH1 0xA0 SHL SUB DUP2 AND DUP2 EQ PUSH2 0xF8C JUMPI PUSH1 0x0 DUP1 REVERT JUMPDEST POP JUMP JUMPDEST PUSH1 0x0 DUP1 PUSH1 0x40 DUP4 DUP6 SUB SLT ISZERO PUSH2 0xFA2 JUMPI PUSH1 0x0 DUP1 REVERT JUMPDEST DUP3 CALLDATALOAD SWAP2 POP PUSH1 0x20 DUP4 ADD CALLDATALOAD PUSH2 0xFB4 DUP2 PUSH2 0xF77 JUMP JUMPDEST DUP1 SWAP2 POP POP SWAP3 POP SWAP3 SWAP1 POP JUMP JUMPDEST PUSH1 0x0 DUP1 PUSH1 0x40 DUP4 DUP6 SUB SLT ISZERO PUSH2 0xFD2 JUMPI PUSH1 0x0 DUP1 REVERT JUMPDEST POP POP DUP1 CALLDATALOAD SWAP3 PUSH1 0x20 SWAP1 SWAP2 ADD CALLDATALOAD SWAP2 POP JUMP JUMPDEST PUSH1 0x0 PUSH1 0x20 DUP3 DUP5 SUB SLT ISZERO PUSH2 0xFF3 JUMPI PUSH1 0x0 DUP1 REVERT JUMPDEST DUP2 MLOAD PUSH2 0xD9C DUP2 PUSH2 0xF77 JUMP JUMPDEST PUSH1 0x0 PUSH1 0x20 DUP3 DUP5 SUB SLT ISZERO PUSH2 0x1010 JUMPI PUSH1 0x0 DUP1 REVERT JUMPDEST DUP2 MLOAD DUP1 ISZERO ISZERO DUP2 EQ PUSH2 0xD9C JUMPI PUSH1 0x0 DUP1 REVERT JUMPDEST PUSH1 0x20 DUP1 DUP3 MSTORE PUSH1 0x1B SWAP1 DUP3 ADD MSTORE PUSH32 0x45544E5265736F6C7665723A206E6F7420617574686F72697365640000000000 PUSH1 0x40 DUP3 ADD MSTORE PUSH1 0x60 ADD SWAP1 JUMP JUMPDEST DUP2 DUP4 DUP3 CALLDATACOPY PUSH1 0x0 SWAP2 ADD SWAP1 DUP2 MSTORE SWAP2 SWAP1 POP JUMP JUMPDEST PUSH4 0x4E487B71 PUSH1 0xE0 SHL PUSH1 0x0 MSTORE PUSH1 0x41 PUSH1 0x4 MSTORE PUSH1 0x24 PUSH1 0x0 REVERT JUMPDEST PUSH1 0x1 DUP2 DUP2 SHR SWAP1 DUP3 AND DUP1 PUSH2 0x1091 JUMPI PUSH1 0x7F DUP3 AND SWAP2 POP JUMPDEST PUSH1 0x20 DUP3 LT DUP2 SUB PUSH2 0x10B1 JUMPI PUSH4 0x4E487B71 PUSH1 0xE0 SHL PUSH1 0x0 MSTORE PUSH1 0x22 PUSH1 0x4 MSTORE PUSH1 0x24 PUSH1 0x0 REVERT JUMPDEST POP SWAP2 SWAP1 POP JUMP JUMPDEST PUSH1 0x1F DUP3 GT ISZERO PUSH2 0x1101 JUMPI PUSH1 0x0 DUP2 DUP2 MSTORE PUSH1 0x20 DUP2 KECCAK256 PUSH1 0x1F DUP6 ADD PUSH1 0x5 SHR DUP2 ADD PUSH1 0x20 DUP7 LT ISZERO PUSH2 0x10DE JUMPI POP DUP1 JUMPDEST PUSH1 0x1F DUP6 ADD PUSH1 0x5 SHR DUP3 ADD SWAP2 POP JUMPDEST DUP2 DUP2 LT ISZERO PUSH2 0x10FD JUMPI DUP3 DUP2 SSTORE PUSH1 0x1 ADD PUSH2 0x10EA JUMP JUMPDEST POP POP POP JUMPDEST POP POP POP JUMP JUMPDEST PUSH8 0xFFFFFFFFFFFFFFFF DUP4 GT ISZERO PUSH2 0x111E JUMPI PUSH2 0x111E PUSH2 0x1067 JUMP JUMPDEST PUSH2 0x1132 DUP4 PUSH2 0x112C DUP4 SLOAD PUSH2 0x107D JUMP JUMPDEST DUP4 PUSH2 0x10B7 JUMP JUMPDEST PUSH1 0x0 PUSH1 0x1F DUP5 GT PUSH1 0x1 DUP2 EQ PUSH2 0x1166 JUMPI PUSH1 0x0 DUP6 ISZERO PUSH2 0x114E JUMPI POP DUP4 DUP3 ADD CALLDATALOAD JUMPDEST PUSH1 0x0 NOT PUSH1 0x3 DUP8 SWAP1 SHL SHR NOT AND PUSH1 0x1 DUP7 SWAP1 SHL OR DUP4 SSTORE PUSH2 0x11C0 JUMP JUMPDEST PUSH1 0x0 DUP4 DUP2 MSTORE PUSH1 0x20 SWAP1 KECCAK256 PUSH1 0x1F NOT DUP7 AND SWAP1 DUP4 JUMPDEST DUP3 DUP2 LT ISZERO PUSH2 0x1197 JUMPI DUP7 DUP6 ADD CALLDATALOAD DUP3 SSTORE PUSH1 0x20 SWAP5 DUP6 ADD SWAP5 PUSH1 0x1 SWAP1 SWAP3 ADD SWAP2 ADD PUSH2 0x1177 JUMP JUMPDEST POP DUP7 DUP3 LT ISZERO PUSH2 0x11B4 JUMPI PUSH1 0x0 NOT PUSH1 0xF8 DUP9 PUSH1 0x3 SHL AND SHR NOT DUP5 DUP8 ADD CALLDATALOAD AND DUP2 SSTORE JUMPDEST POP POP PUSH1 0x1 DUP6 PUSH1 0x1 SHL ADD DUP4 SSTORE JUMPDEST POP POP POP POP POP JUMP JUMPDEST DUP2 DUP4 MSTORE DUP2 DUP2 PUSH1 0x20 DUP6 ADD CALLDATACOPY POP PUSH1 0x0 DUP3 DUP3 ADD PUSH1 0x20 SWAP1 DUP2 ADD SWAP2 SWAP1 SWAP2 MSTORE PUSH1 0x1F SWAP1 SWAP2 ADD PUSH1 0x1F NOT AND SWAP1 SWAP2 ADD ADD SWAP1 JUMP JUMPDEST PUSH1 0x20 DUP2 MSTORE PUSH1 0x0 PUSH2 0x1204 PUSH1 0x20 DUP4 ADD DUP5 DUP7 PUSH2 0x11C7 JUMP JUMPDEST SWAP5 SWAP4 POP POP POP POP JUMP JUMPDEST DUP4 DUP2 MSTORE PUSH1 0x40 PUSH1 0x20 DUP3 ADD MSTORE PUSH1 0x0 PUSH2 0x1226 PUSH1 0x40 DUP4 ADD DUP5 DUP7 PUSH2 0x11C7 JUMP JUMPDEST SWAP6 SWAP5 POP POP POP POP POP JUMP INVALID LOG2 PUSH5 0x6970667358 0x22 SLT KECCAK256 ISZERO DUP9 0xC5 PUSH23 0x7E3E5D760CD31E24BB43DB320FF6784637AE512FEF70F 0x4D PUSH7 0x62754564736F6C PUSH4 0x43000814 STOP CALLER "
				},
				"gasEstimates": {
					"creation": {
						"codeDepositCost": "941800",
						"executionCost": "infinite",
						"totalCost": "infinite"
					},
					"external": {
						"addr(bytes32)": "2547",
						"addr(bytes32,uint256)": "infinite",
						"contenthash(bytes32)": "infinite",
						"name(bytes32)": "infinite",
						"registry()": "infinite",
						"setAddr(bytes32,address)": "infinite",
						"setAddr(bytes32,uint256,bytes)": "infinite",
						"setContenthash(bytes32,bytes)": "infinite",
						"setName(bytes32,string)": "infinite",
						"setText(bytes32,string,string)": "infinite",
						"supportsInterface(bytes4)": "647",
						"text(bytes32,string)": "infinite"
					}
				},
				"methodIdentifiers": {
					"addr(bytes32)": "3b3b57de",
					"addr(bytes32,uint256)": "f1cb7e06",
					"contenthash(bytes32)": "bc1c58d1",
					"name(bytes32)": "691f3431",
					"registry()": "7b103999",
					"setAddr(bytes32,address)": "d5fa2b00",
					"setAddr(bytes32,uint256,bytes)": "8b95dd71",
					"setContenthash(bytes32,bytes)": "304e6ade",
					"setName(bytes32,string)": "77372213",
					"setText(bytes32,string,string)": "10f13a8c",
					"supportsInterface(bytes4)": "01ffc9a7",
					"text(bytes32,string)": "59d1d43c"
				}
			},
			"storageLayout": {
				"storage": [
					{
						"astId": 11,
						"contract": "contracts/EnsSubdomainService/ETNPublicResolver.sol:ETNPublicResolver",
						"label": "_addresses",
						"offset": 0,
						"slot": "0",
						"type": "t_mapping(t_bytes32,t_address)"
					},
					{
						"astId": 18,
						"contract": "contracts/EnsSubdomainService/ETNPublicResolver.sol:ETNPublicResolver",
						"label": "_coinAddresses",
						"offset": 0,
						"slot": "1",
						"type": "t_mapping(t_bytes32,t_mapping(t_uint256,t_bytes_storage))"
					},
					{
						"astId": 25,
						"contract": "contracts/EnsSubdomainService/ETNPublicResolver.sol:ETNPublicResolver",
						"label": "_texts",
						"offset": 0,
						"slot": "2",
						"type": "t_mapping(t_bytes32,t_mapping(t_string_memory_ptr,t_string_storage))"
					},
					{
						"astId": 30,
						"contract": "contracts/EnsSubdomainService/ETNPublicResolver.sol:ETNPublicResolver",
						"label": "_contentHashes",
						"offset": 0,
						"slot": "3",
						"type": "t_mapping(t_bytes32,t_bytes_storage)"
					},
					{
						"astId": 35,
						"contract": "contracts/EnsSubdomainService/ETNPublicResolver.sol:ETNPublicResolver",
						"label": "_names",
						"offset": 0,
						"slot": "4",
						"type": "t_mapping(t_bytes32,t_string_storage)"
					}
				],
				"types": {
					"t_address": {
						"encoding": "inplace",
						"label": "address",
						"numberOfBytes": "20"
					},
					"t_bytes32": {
						"encoding": "inplace",
						"label": "bytes32",
						"numberOfBytes": "32"
					},
					"t_bytes_storage": {
						"encoding": "bytes",
						"label": "bytes",
						"numberOfBytes": "32"
					},
					"t_mapping(t_bytes32,t_address)": {
						"encoding": "mapping",
						"key": "t_bytes32",
						"label": "mapping(bytes32 => address)",
						"numberOfBytes": "32",
						"value": "t_address"
					},
					"t_mapping(t_bytes32,t_bytes_storage)": {
						"encoding": "mapping",
						"key": "t_bytes32",
						"label": "mapping(bytes32 => bytes)",
						"numberOfBytes": "32",
						"value": "t_bytes_storage"
					},
					"t_mapping(t_bytes32,t_mapping(t_string_memory_ptr,t_string_storage))": {
						"encoding": "mapping",
						"key": "t_bytes32",
						"label": "mapping(bytes32 => mapping(string => string))",
						"numberOfBytes": "32",
						"value": "t_mapping(t_string_memory_ptr,t_string_storage)"
					},
					"t_mapping(t_bytes32,t_mapping(t_uint256,t_bytes_storage))": {
						"encoding": "mapping",
						"key": "t_bytes32",
						"label": "mapping(bytes32 => mapping(uint256 => bytes))",
						"numberOfBytes": "32",
						"value": "t_mapping(t_uint256,t_bytes_storage)"
					},
					"t_mapping(t_bytes32,t_string_storage)": {
						"encoding": "mapping",
						"key": "t_bytes32",
						"label": "mapping(bytes32 => string)",
						"numberOfBytes": "32",
						"value": "t_string_storage"
					},
					"t_mapping(t_string_memory_ptr,t_string_storage)": {
						"encoding": "mapping",
						"key": "t_string_memory_ptr",
						"label": "mapping(string => string)",
						"numberOfBytes": "32",
						"value": "t_string_storage"
					},
					"t_mapping(t_uint256,t_bytes_storage)": {
						"encoding": "mapping",
						"key": "t_uint256",
						"label": "mapping(uint256 => bytes)",
						"numberOfBytes": "32",
						"value": "t_bytes_storage"
					},
					"t_string_memory_ptr": {
						"encoding": "bytes",
						"label": "string",
						"numberOfBytes": "32"
					},
					"t_string_storage": {
						"encoding": "bytes",
						"label": "string",
						"numberOfBytes": "32"
					},
					"t_uint256": {
						"encoding": "inplace",
						"label": "uint256",
						"numberOfBytes": "32"
					}
				}
			},
			"userdoc": {
				"kind": "user",
				"methods": {},
				"notice": "Stores address, text, and content-hash records for .etn names.         Mirrors the ENS PublicResolver interface so existing tooling works. Supported record types:   addr(node)              — EVM address (chain 52014 by default)   addr(node, coinType)    — multi-coin addresses (SLIP-0044)   text(node, key)         — arbitrary key/value (avatar, url, email, …)   contenthash(node)       — IPFS / Arweave / Swarm content hash   name(node)              — canonical name (reverse records)",
				"version": 1
			}
		}
	}
}