{
	"contracts/ZephyrosStaking/ZephyrosStaking.sol": {
		"CoreAscensionV2": {
			"abi": [
				{
					"inputs": [
						{
							"internalType": "address",
							"name": "coreToken",
							"type": "address"
						}
					],
					"stateMutability": "nonpayable",
					"type": "constructor"
				},
				{
					"inputs": [
						{
							"internalType": "address",
							"name": "target",
							"type": "address"
						}
					],
					"name": "AddressEmptyCode",
					"type": "error"
				},
				{
					"inputs": [
						{
							"internalType": "address",
							"name": "account",
							"type": "address"
						}
					],
					"name": "AddressInsufficientBalance",
					"type": "error"
				},
				{
					"inputs": [],
					"name": "FailedInnerCall",
					"type": "error"
				},
				{
					"inputs": [
						{
							"internalType": "address",
							"name": "owner",
							"type": "address"
						}
					],
					"name": "OwnableInvalidOwner",
					"type": "error"
				},
				{
					"inputs": [
						{
							"internalType": "address",
							"name": "account",
							"type": "address"
						}
					],
					"name": "OwnableUnauthorizedAccount",
					"type": "error"
				},
				{
					"inputs": [],
					"name": "ReentrancyGuardReentrantCall",
					"type": "error"
				},
				{
					"inputs": [
						{
							"internalType": "address",
							"name": "token",
							"type": "address"
						}
					],
					"name": "SafeERC20FailedOperation",
					"type": "error"
				},
				{
					"anonymous": false,
					"inputs": [
						{
							"indexed": true,
							"internalType": "address",
							"name": "admin",
							"type": "address"
						}
					],
					"name": "AdminAdded",
					"type": "event"
				},
				{
					"anonymous": false,
					"inputs": [
						{
							"indexed": true,
							"internalType": "address",
							"name": "admin",
							"type": "address"
						}
					],
					"name": "AdminRemoved",
					"type": "event"
				},
				{
					"anonymous": false,
					"inputs": [
						{
							"indexed": false,
							"internalType": "string",
							"name": "background",
							"type": "string"
						},
						{
							"indexed": false,
							"internalType": "bool",
							"name": "allowed",
							"type": "bool"
						}
					],
					"name": "BackgroundWhitelistSet",
					"type": "event"
				},
				{
					"anonymous": false,
					"inputs": [
						{
							"indexed": true,
							"internalType": "address",
							"name": "collection",
							"type": "address"
						},
						{
							"indexed": false,
							"internalType": "bool",
							"name": "whitelisted",
							"type": "bool"
						},
						{
							"indexed": false,
							"internalType": "enum CoreAscensionV2.EligibilityMode",
							"name": "mode",
							"type": "uint8"
						}
					],
					"name": "CollectionConfigured",
					"type": "event"
				},
				{
					"anonymous": false,
					"inputs": [
						{
							"indexed": true,
							"internalType": "address",
							"name": "user",
							"type": "address"
						},
						{
							"indexed": false,
							"internalType": "uint256",
							"name": "amount",
							"type": "uint256"
						}
					],
					"name": "CoreStaked",
					"type": "event"
				},
				{
					"anonymous": false,
					"inputs": [
						{
							"indexed": true,
							"internalType": "address",
							"name": "user",
							"type": "address"
						},
						{
							"indexed": false,
							"internalType": "uint256",
							"name": "requestedAmount",
							"type": "uint256"
						},
						{
							"indexed": false,
							"internalType": "uint256",
							"name": "returnedAmount",
							"type": "uint256"
						},
						{
							"indexed": false,
							"internalType": "uint256",
							"name": "penaltyToPool",
							"type": "uint256"
						},
						{
							"indexed": false,
							"internalType": "uint256",
							"name": "penaltyBurned",
							"type": "uint256"
						}
					],
					"name": "CoreWithdrawn",
					"type": "event"
				},
				{
					"anonymous": false,
					"inputs": [
						{
							"indexed": true,
							"internalType": "address",
							"name": "user",
							"type": "address"
						}
					],
					"name": "Exited",
					"type": "event"
				},
				{
					"anonymous": false,
					"inputs": [
						{
							"indexed": true,
							"internalType": "address",
							"name": "user",
							"type": "address"
						},
						{
							"indexed": true,
							"internalType": "address",
							"name": "collection",
							"type": "address"
						},
						{
							"indexed": true,
							"internalType": "uint256",
							"name": "tokenId",
							"type": "uint256"
						}
					],
					"name": "NFTStaked",
					"type": "event"
				},
				{
					"anonymous": false,
					"inputs": [
						{
							"indexed": true,
							"internalType": "address",
							"name": "user",
							"type": "address"
						},
						{
							"indexed": true,
							"internalType": "address",
							"name": "collection",
							"type": "address"
						},
						{
							"indexed": true,
							"internalType": "uint256",
							"name": "tokenId",
							"type": "uint256"
						}
					],
					"name": "NFTWithdrawn",
					"type": "event"
				},
				{
					"anonymous": false,
					"inputs": [
						{
							"indexed": true,
							"internalType": "address",
							"name": "previousOwner",
							"type": "address"
						},
						{
							"indexed": true,
							"internalType": "address",
							"name": "newOwner",
							"type": "address"
						}
					],
					"name": "OwnershipTransferred",
					"type": "event"
				},
				{
					"anonymous": false,
					"inputs": [
						{
							"indexed": false,
							"internalType": "uint256",
							"name": "amount",
							"type": "uint256"
						},
						{
							"indexed": false,
							"internalType": "bool",
							"name": "queued",
							"type": "bool"
						}
					],
					"name": "PenaltyAddedToRewards",
					"type": "event"
				},
				{
					"anonymous": false,
					"inputs": [
						{
							"indexed": true,
							"internalType": "address",
							"name": "user",
							"type": "address"
						},
						{
							"indexed": false,
							"internalType": "uint256",
							"name": "paidAmount",
							"type": "uint256"
						},
						{
							"indexed": false,
							"internalType": "uint256",
							"name": "slashedAmount",
							"type": "uint256"
						}
					],
					"name": "RewardPaid",
					"type": "event"
				},
				{
					"anonymous": false,
					"inputs": [
						{
							"indexed": true,
							"internalType": "address",
							"name": "funder",
							"type": "address"
						},
						{
							"indexed": false,
							"internalType": "uint256",
							"name": "amount",
							"type": "uint256"
						},
						{
							"indexed": false,
							"internalType": "uint256",
							"name": "queuedRewardsUsed",
							"type": "uint256"
						},
						{
							"indexed": false,
							"internalType": "uint256",
							"name": "durationBlocks",
							"type": "uint256"
						},
						{
							"indexed": false,
							"internalType": "uint256",
							"name": "rewardPerBlock",
							"type": "uint256"
						},
						{
							"indexed": false,
							"internalType": "uint256",
							"name": "endBlock",
							"type": "uint256"
						}
					],
					"name": "RewardsFunded",
					"type": "event"
				},
				{
					"anonymous": false,
					"inputs": [
						{
							"indexed": true,
							"internalType": "address",
							"name": "collection",
							"type": "address"
						},
						{
							"indexed": true,
							"internalType": "uint256",
							"name": "tokenId",
							"type": "uint256"
						},
						{
							"indexed": false,
							"internalType": "bool",
							"name": "eligible",
							"type": "bool"
						}
					],
					"name": "TokenEligibilitySet",
					"type": "event"
				},
				{
					"inputs": [],
					"name": "BLOCKS_PER_YEAR_ESTIMATE",
					"outputs": [
						{
							"internalType": "uint256",
							"name": "",
							"type": "uint256"
						}
					],
					"stateMutability": "view",
					"type": "function"
				},
				{
					"inputs": [],
					"name": "MAX_CORE_STAKE",
					"outputs": [
						{
							"internalType": "uint256",
							"name": "",
							"type": "uint256"
						}
					],
					"stateMutability": "view",
					"type": "function"
				},
				{
					"inputs": [],
					"name": "MAX_NFTS_PER_USER",
					"outputs": [
						{
							"internalType": "uint256",
							"name": "",
							"type": "uint256"
						}
					],
					"stateMutability": "view",
					"type": "function"
				},
				{
					"inputs": [],
					"name": "MIN_STAKE_TIME",
					"outputs": [
						{
							"internalType": "uint256",
							"name": "",
							"type": "uint256"
						}
					],
					"stateMutability": "view",
					"type": "function"
				},
				{
					"inputs": [],
					"name": "accRewardPerWeight",
					"outputs": [
						{
							"internalType": "uint256",
							"name": "",
							"type": "uint256"
						}
					],
					"stateMutability": "view",
					"type": "function"
				},
				{
					"inputs": [
						{
							"internalType": "address",
							"name": "newAdmin",
							"type": "address"
						}
					],
					"name": "addAdmin",
					"outputs": [],
					"stateMutability": "nonpayable",
					"type": "function"
				},
				{
					"inputs": [
						{
							"internalType": "address",
							"name": "",
							"type": "address"
						},
						{
							"internalType": "uint256",
							"name": "",
							"type": "uint256"
						}
					],
					"name": "approvedTokenId",
					"outputs": [
						{
							"internalType": "bool",
							"name": "",
							"type": "bool"
						}
					],
					"stateMutability": "view",
					"type": "function"
				},
				{
					"inputs": [
						{
							"internalType": "address",
							"name": "collection",
							"type": "address"
						},
						{
							"internalType": "uint256[]",
							"name": "tokenIds",
							"type": "uint256[]"
						},
						{
							"internalType": "bool",
							"name": "eligible",
							"type": "bool"
						}
					],
					"name": "batchSetApprovedTokenIds",
					"outputs": [],
					"stateMutability": "nonpayable",
					"type": "function"
				},
				{
					"inputs": [],
					"name": "claim",
					"outputs": [],
					"stateMutability": "nonpayable",
					"type": "function"
				},
				{
					"inputs": [
						{
							"internalType": "address",
							"name": "",
							"type": "address"
						}
					],
					"name": "collections",
					"outputs": [
						{
							"internalType": "bool",
							"name": "whitelisted",
							"type": "bool"
						},
						{
							"internalType": "enum CoreAscensionV2.EligibilityMode",
							"name": "mode",
							"type": "uint8"
						}
					],
					"stateMutability": "view",
					"type": "function"
				},
				{
					"inputs": [
						{
							"internalType": "address",
							"name": "collection",
							"type": "address"
						},
						{
							"internalType": "bool",
							"name": "whitelisted",
							"type": "bool"
						},
						{
							"internalType": "enum CoreAscensionV2.EligibilityMode",
							"name": "mode",
							"type": "uint8"
						}
					],
					"name": "configureCollection",
					"outputs": [],
					"stateMutability": "nonpayable",
					"type": "function"
				},
				{
					"inputs": [],
					"name": "core",
					"outputs": [
						{
							"internalType": "contract ICoreToken",
							"name": "",
							"type": "address"
						}
					],
					"stateMutability": "view",
					"type": "function"
				},
				{
					"inputs": [
						{
							"internalType": "address",
							"name": "account",
							"type": "address"
						}
					],
					"name": "earned",
					"outputs": [
						{
							"internalType": "uint256",
							"name": "",
							"type": "uint256"
						}
					],
					"stateMutability": "view",
					"type": "function"
				},
				{
					"inputs": [],
					"name": "endBlock",
					"outputs": [
						{
							"internalType": "uint256",
							"name": "",
							"type": "uint256"
						}
					],
					"stateMutability": "view",
					"type": "function"
				},
				{
					"inputs": [],
					"name": "exit",
					"outputs": [],
					"stateMutability": "nonpayable",
					"type": "function"
				},
				{
					"inputs": [
						{
							"internalType": "uint256",
							"name": "amount",
							"type": "uint256"
						},
						{
							"internalType": "uint256",
							"name": "durationBlocks",
							"type": "uint256"
						}
					],
					"name": "fundRewards",
					"outputs": [],
					"stateMutability": "nonpayable",
					"type": "function"
				},
				{
					"inputs": [
						{
							"internalType": "address",
							"name": "account",
							"type": "address"
						}
					],
					"name": "getUser",
					"outputs": [
						{
							"internalType": "uint256",
							"name": "coreStaked",
							"type": "uint256"
						},
						{
							"internalType": "uint256",
							"name": "nftCount",
							"type": "uint256"
						},
						{
							"internalType": "uint256",
							"name": "rewardWeight",
							"type": "uint256"
						},
						{
							"internalType": "uint256",
							"name": "entryTime",
							"type": "uint256"
						},
						{
							"internalType": "uint256",
							"name": "pendingRewards",
							"type": "uint256"
						},
						{
							"internalType": "bool",
							"name": "currentlyEarly",
							"type": "bool"
						},
						{
							"internalType": "uint256",
							"name": "boostBps",
							"type": "uint256"
						}
					],
					"stateMutability": "view",
					"type": "function"
				},
				{
					"inputs": [
						{
							"internalType": "address",
							"name": "",
							"type": "address"
						}
					],
					"name": "isAdmin",
					"outputs": [
						{
							"internalType": "bool",
							"name": "",
							"type": "bool"
						}
					],
					"stateMutability": "view",
					"type": "function"
				},
				{
					"inputs": [
						{
							"internalType": "string",
							"name": "background",
							"type": "string"
						}
					],
					"name": "isBackgroundWhitelisted",
					"outputs": [
						{
							"internalType": "bool",
							"name": "",
							"type": "bool"
						}
					],
					"stateMutability": "view",
					"type": "function"
				},
				{
					"inputs": [
						{
							"internalType": "address",
							"name": "collection",
							"type": "address"
						},
						{
							"internalType": "uint256",
							"name": "tokenId",
							"type": "uint256"
						}
					],
					"name": "isNFTEligible",
					"outputs": [
						{
							"internalType": "bool",
							"name": "",
							"type": "bool"
						}
					],
					"stateMutability": "view",
					"type": "function"
				},
				{
					"inputs": [],
					"name": "lastRewardBlock",
					"outputs": [
						{
							"internalType": "uint256",
							"name": "",
							"type": "uint256"
						}
					],
					"stateMutability": "view",
					"type": "function"
				},
				{
					"inputs": [],
					"name": "lastRewardBlockApplicable",
					"outputs": [
						{
							"internalType": "uint256",
							"name": "",
							"type": "uint256"
						}
					],
					"stateMutability": "view",
					"type": "function"
				},
				{
					"inputs": [
						{
							"internalType": "address",
							"name": "",
							"type": "address"
						},
						{
							"internalType": "uint256",
							"name": "",
							"type": "uint256"
						}
					],
					"name": "nftStaker",
					"outputs": [
						{
							"internalType": "address",
							"name": "",
							"type": "address"
						}
					],
					"stateMutability": "view",
					"type": "function"
				},
				{
					"inputs": [
						{
							"internalType": "address",
							"name": "",
							"type": "address"
						},
						{
							"internalType": "address",
							"name": "",
							"type": "address"
						},
						{
							"internalType": "uint256",
							"name": "",
							"type": "uint256"
						},
						{
							"internalType": "bytes",
							"name": "",
							"type": "bytes"
						}
					],
					"name": "onERC721Received",
					"outputs": [
						{
							"internalType": "bytes4",
							"name": "",
							"type": "bytes4"
						}
					],
					"stateMutability": "pure",
					"type": "function"
				},
				{
					"inputs": [],
					"name": "owner",
					"outputs": [
						{
							"internalType": "address",
							"name": "",
							"type": "address"
						}
					],
					"stateMutability": "view",
					"type": "function"
				},
				{
					"inputs": [],
					"name": "queuedRewards",
					"outputs": [
						{
							"internalType": "uint256",
							"name": "",
							"type": "uint256"
						}
					],
					"stateMutability": "view",
					"type": "function"
				},
				{
					"inputs": [
						{
							"internalType": "address",
							"name": "token",
							"type": "address"
						},
						{
							"internalType": "address",
							"name": "to",
							"type": "address"
						},
						{
							"internalType": "uint256",
							"name": "amount",
							"type": "uint256"
						}
					],
					"name": "recoverERC20",
					"outputs": [],
					"stateMutability": "nonpayable",
					"type": "function"
				},
				{
					"inputs": [
						{
							"internalType": "address",
							"name": "admin",
							"type": "address"
						}
					],
					"name": "removeAdmin",
					"outputs": [],
					"stateMutability": "nonpayable",
					"type": "function"
				},
				{
					"inputs": [],
					"name": "renounceOwnership",
					"outputs": [],
					"stateMutability": "nonpayable",
					"type": "function"
				},
				{
					"inputs": [
						{
							"internalType": "address",
							"name": "collection",
							"type": "address"
						},
						{
							"internalType": "uint256",
							"name": "tokenId",
							"type": "uint256"
						},
						{
							"internalType": "address",
							"name": "to",
							"type": "address"
						}
					],
					"name": "rescueUnstakedNFT",
					"outputs": [],
					"stateMutability": "nonpayable",
					"type": "function"
				},
				{
					"inputs": [],
					"name": "rewardPerBlock",
					"outputs": [
						{
							"internalType": "uint256",
							"name": "",
							"type": "uint256"
						}
					],
					"stateMutability": "view",
					"type": "function"
				},
				{
					"inputs": [
						{
							"internalType": "address",
							"name": "collection",
							"type": "address"
						},
						{
							"internalType": "uint256",
							"name": "tokenId",
							"type": "uint256"
						},
						{
							"internalType": "bool",
							"name": "eligible",
							"type": "bool"
						}
					],
					"name": "setApprovedTokenId",
					"outputs": [],
					"stateMutability": "nonpayable",
					"type": "function"
				},
				{
					"inputs": [
						{
							"internalType": "string",
							"name": "background",
							"type": "string"
						},
						{
							"internalType": "bool",
							"name": "allowed",
							"type": "bool"
						}
					],
					"name": "setWhitelistedBackground",
					"outputs": [],
					"stateMutability": "nonpayable",
					"type": "function"
				},
				{
					"inputs": [
						{
							"internalType": "uint256",
							"name": "amount",
							"type": "uint256"
						}
					],
					"name": "stakeCore",
					"outputs": [],
					"stateMutability": "nonpayable",
					"type": "function"
				},
				{
					"inputs": [
						{
							"internalType": "address",
							"name": "collection",
							"type": "address"
						},
						{
							"internalType": "uint256",
							"name": "tokenId",
							"type": "uint256"
						}
					],
					"name": "stakeNFT",
					"outputs": [],
					"stateMutability": "nonpayable",
					"type": "function"
				},
				{
					"inputs": [],
					"name": "totalCoreBurned",
					"outputs": [
						{
							"internalType": "uint256",
							"name": "",
							"type": "uint256"
						}
					],
					"stateMutability": "view",
					"type": "function"
				},
				{
					"inputs": [],
					"name": "totalCorePenaltyToPool",
					"outputs": [
						{
							"internalType": "uint256",
							"name": "",
							"type": "uint256"
						}
					],
					"stateMutability": "view",
					"type": "function"
				},
				{
					"inputs": [],
					"name": "totalCoreStaked",
					"outputs": [
						{
							"internalType": "uint256",
							"name": "",
							"type": "uint256"
						}
					],
					"stateMutability": "view",
					"type": "function"
				},
				{
					"inputs": [],
					"name": "totalRewardWeight",
					"outputs": [
						{
							"internalType": "uint256",
							"name": "",
							"type": "uint256"
						}
					],
					"stateMutability": "view",
					"type": "function"
				},
				{
					"inputs": [],
					"name": "totalRewardsFunded",
					"outputs": [
						{
							"internalType": "uint256",
							"name": "",
							"type": "uint256"
						}
					],
					"stateMutability": "view",
					"type": "function"
				},
				{
					"inputs": [],
					"name": "totalRewardsPaid",
					"outputs": [
						{
							"internalType": "uint256",
							"name": "",
							"type": "uint256"
						}
					],
					"stateMutability": "view",
					"type": "function"
				},
				{
					"inputs": [],
					"name": "totalRewardsSlashedToPool",
					"outputs": [
						{
							"internalType": "uint256",
							"name": "",
							"type": "uint256"
						}
					],
					"stateMutability": "view",
					"type": "function"
				},
				{
					"inputs": [
						{
							"internalType": "address",
							"name": "newOwner",
							"type": "address"
						}
					],
					"name": "transferOwnership",
					"outputs": [],
					"stateMutability": "nonpayable",
					"type": "function"
				},
				{
					"inputs": [
						{
							"internalType": "bytes32",
							"name": "",
							"type": "bytes32"
						}
					],
					"name": "whitelistedBackgroundHash",
					"outputs": [
						{
							"internalType": "bool",
							"name": "",
							"type": "bool"
						}
					],
					"stateMutability": "view",
					"type": "function"
				},
				{
					"inputs": [
						{
							"internalType": "uint256",
							"name": "amount",
							"type": "uint256"
						}
					],
					"name": "withdrawCore",
					"outputs": [],
					"stateMutability": "nonpayable",
					"type": "function"
				},
				{
					"inputs": [
						{
							"internalType": "address",
							"name": "collection",
							"type": "address"
						},
						{
							"internalType": "uint256",
							"name": "tokenId",
							"type": "uint256"
						}
					],
					"name": "withdrawNFT",
					"outputs": [],
					"stateMutability": "nonpayable",
					"type": "function"
				}
			],
			"devdoc": {
				"errors": {
					"AddressEmptyCode(address)": [
						{
							"details": "There's no code at `target` (it is not a contract)."
						}
					],
					"AddressInsufficientBalance(address)": [
						{
							"details": "The ETH balance of the account is not enough to perform the operation."
						}
					],
					"FailedInnerCall()": [
						{
							"details": "A call to an address target failed. The target may have reverted."
						}
					],
					"OwnableInvalidOwner(address)": [
						{
							"details": "The owner is not a valid owner account. (eg. `address(0)`)"
						}
					],
					"OwnableUnauthorizedAccount(address)": [
						{
							"details": "The caller account is not authorized to perform an operation."
						}
					],
					"ReentrancyGuardReentrantCall()": [
						{
							"details": "Unauthorized reentrant call."
						}
					],
					"SafeERC20FailedOperation(address)": [
						{
							"details": "An operation with an ERC20 token failed."
						}
					]
				},
				"kind": "dev",
				"methods": {
					"owner()": {
						"details": "Returns the address of the current owner."
					},
					"renounceOwnership()": {
						"details": "Leaves the contract without owner. It will not be possible to call `onlyOwner` functions. Can only be called by the current owner. NOTE: Renouncing ownership will leave the contract without an owner, thereby disabling any functionality that is only available to the owner."
					},
					"transferOwnership(address)": {
						"details": "Transfers ownership of the contract to a new account (`newOwner`). Can only be called by the current owner."
					}
				},
				"version": 1
			},
			"evm": {
				"assembly": "    /* \"contracts/ZephyrosStaking/ZephyrosStaking.sol\":833:20669  contract CoreAscensionV2 is Ownable, ReentrancyGuard, IERC721Receiver {... */\n  mstore(0x40, 0xa0)\n    /* \"contracts/ZephyrosStaking/ZephyrosStaking.sol\":4483:4740  constructor(address coreToken) Ownable(msg.sender) {... */\n  callvalue\n  dup1\n  iszero\n  tag_1\n  jumpi\n  0x00\n  dup1\n  revert\ntag_1:\n  pop\n  mload(0x40)\n  sub(codesize, bytecodeSize)\n  dup1\n  bytecodeSize\n  dup4\n  codecopy\n  dup2\n  add\n  0x40\n  dup2\n  swap1\n  mstore\n  tag_2\n  swap2\n  tag_3\n  jump\t// in\ntag_2:\n    /* \"contracts/ZephyrosStaking/ZephyrosStaking.sol\":4522:4532  msg.sender */\n  caller\n  dup1\n    /* \"https://github.com/OpenZeppelin/openzeppelin-contracts/blob/v5.0.2/contracts/access/Ownable.sol\":1269:1364  if (initialOwner == address(0)) {... */\n  tag_8\n  jumpi\n    /* \"https://github.com/OpenZeppelin/openzeppelin-contracts/blob/v5.0.2/contracts/access/Ownable.sol\":1322:1353  OwnableInvalidOwner(address(0)) */\n  mload(0x40)\n  shl(0xe0, 0x1e4fbdf7)\n  dup2\n  mstore\n    /* \"https://github.com/OpenZeppelin/openzeppelin-contracts/blob/v5.0.2/contracts/access/Ownable.sol\":1350:1351  0 */\n  0x00\n    /* \"https://github.com/OpenZeppelin/openzeppelin-contracts/blob/v5.0.2/contracts/access/Ownable.sol\":1322:1353  OwnableInvalidOwner(address(0)) */\n  0x04\n  dup3\n  add\n    /* \"#utility.yul\":455:506   */\n  mstore\n    /* \"#utility.yul\":428:446   */\n  0x24\n  add\n    /* \"https://github.com/OpenZeppelin/openzeppelin-contracts/blob/v5.0.2/contracts/access/Ownable.sol\":1322:1353  OwnableInvalidOwner(address(0)) */\ntag_9:\n  mload(0x40)\n  dup1\n  swap2\n  sub\n  swap1\n  revert\n    /* \"https://github.com/OpenZeppelin/openzeppelin-contracts/blob/v5.0.2/contracts/access/Ownable.sol\":1269:1364  if (initialOwner == address(0)) {... */\ntag_8:\n    /* \"https://github.com/OpenZeppelin/openzeppelin-contracts/blob/v5.0.2/contracts/access/Ownable.sol\":1373:1405  _transferOwnership(initialOwner) */\n  tag_11\n    /* \"https://github.com/OpenZeppelin/openzeppelin-contracts/blob/v5.0.2/contracts/access/Ownable.sol\":1392:1404  initialOwner */\n  dup2\n    /* \"https://github.com/OpenZeppelin/openzeppelin-contracts/blob/v5.0.2/contracts/access/Ownable.sol\":1373:1391  _transferOwnership */\n  tag_12\n    /* \"https://github.com/OpenZeppelin/openzeppelin-contracts/blob/v5.0.2/contracts/access/Ownable.sol\":1373:1405  _transferOwnership(initialOwner) */\n  jump\t// in\ntag_11:\n  pop\n    /* \"https://github.com/OpenZeppelin/openzeppelin-contracts/blob/v5.0.2/contracts/utils/ReentrancyGuard.sol\":1713:1714  1 */\n  0x01\n    /* \"https://github.com/OpenZeppelin/openzeppelin-contracts/blob/v5.0.2/contracts/utils/ReentrancyGuard.sol\":1917:1938  _status = NOT_ENTERED */\n  dup1\n  sstore\n  sub(shl(0xa0, 0x01), 0x01)\n    /* \"contracts/ZephyrosStaking/ZephyrosStaking.sol\":4553:4576  coreToken != address(0) */\n  dup2\n  and\n    /* \"contracts/ZephyrosStaking/ZephyrosStaking.sol\":4545:4586  require(coreToken != address(0), \"CORE0\") */\n  tag_15\n  jumpi\n  mload(0x40)\n  shl(0xe5, 0x461bcd)\n  dup2\n  mstore\n    /* \"#utility.yul\":719:721   */\n  0x20\n    /* \"contracts/ZephyrosStaking/ZephyrosStaking.sol\":4545:4586  require(coreToken != address(0), \"CORE0\") */\n  0x04\n  dup3\n  add\n    /* \"#utility.yul\":701:722   */\n  mstore\n    /* \"#utility.yul\":758:759   */\n  0x05\n    /* \"#utility.yul\":738:756   */\n  0x24\n  dup3\n  add\n    /* \"#utility.yul\":731:760   */\n  mstore\n  shl(0xdc, 0x0434f52453)\n    /* \"#utility.yul\":776:794   */\n  0x44\n  dup3\n  add\n    /* \"#utility.yul\":769:804   */\n  mstore\n    /* \"#utility.yul\":821:839   */\n  0x64\n  add\n    /* \"contracts/ZephyrosStaking/ZephyrosStaking.sol\":4545:4586  require(coreToken != address(0), \"CORE0\") */\n  tag_9\n    /* \"#utility.yul\":517:845   */\n  jump\n    /* \"contracts/ZephyrosStaking/ZephyrosStaking.sol\":4545:4586  require(coreToken != address(0), \"CORE0\") */\ntag_15:\n  sub(shl(0xa0, 0x01), 0x01)\n    /* \"contracts/ZephyrosStaking/ZephyrosStaking.sol\":4597:4625  core = ICoreToken(coreToken) */\n  and\n  0x80\n  mstore\n    /* \"contracts/ZephyrosStaking/ZephyrosStaking.sol\":4654:4666  block.number */\n  number\n    /* \"contracts/ZephyrosStaking/ZephyrosStaking.sol\":4636:4651  lastRewardBlock */\n  0x0b\n    /* \"contracts/ZephyrosStaking/ZephyrosStaking.sol\":4636:4666  lastRewardBlock = block.number */\n  sstore\n    /* \"contracts/ZephyrosStaking/ZephyrosStaking.sol\":4685:4695  msg.sender */\n  caller\n    /* \"contracts/ZephyrosStaking/ZephyrosStaking.sol\":4677:4696  isAdmin[msg.sender] */\n  0x00\n  swap1\n  dup2\n  mstore\n    /* \"contracts/ZephyrosStaking/ZephyrosStaking.sol\":4677:4684  isAdmin */\n  0x02\n    /* \"contracts/ZephyrosStaking/ZephyrosStaking.sol\":4677:4696  isAdmin[msg.sender] */\n  0x20\n  mstore\n  0x40\n  swap1\n  keccak256\n    /* \"contracts/ZephyrosStaking/ZephyrosStaking.sol\":4677:4703  isAdmin[msg.sender] = true */\n  dup1\n  sload\n  not(0xff)\n  and\n    /* \"contracts/ZephyrosStaking/ZephyrosStaking.sol\":4699:4703  true */\n  0x01\n    /* \"contracts/ZephyrosStaking/ZephyrosStaking.sol\":4677:4703  isAdmin[msg.sender] = true */\n  or\n  swap1\n  sstore\n    /* \"contracts/ZephyrosStaking/ZephyrosStaking.sol\":833:20669  contract CoreAscensionV2 is Ownable, ReentrancyGuard, IERC721Receiver {... */\n  jump(tag_20)\n    /* \"https://github.com/OpenZeppelin/openzeppelin-contracts/blob/v5.0.2/contracts/access/Ownable.sol\":2912:3099  function _transferOwnership(address newOwner) internal virtual {... */\ntag_12:\n    /* \"https://github.com/OpenZeppelin/openzeppelin-contracts/blob/v5.0.2/contracts/access/Ownable.sol\":2985:3001  address oldOwner */\n  0x00\n    /* \"https://github.com/OpenZeppelin/openzeppelin-contracts/blob/v5.0.2/contracts/access/Ownable.sol\":3004:3010  _owner */\n  dup1\n  sload\n  sub(shl(0xa0, 0x01), 0x01)\n    /* \"https://github.com/OpenZeppelin/openzeppelin-contracts/blob/v5.0.2/contracts/access/Ownable.sol\":3020:3037  _owner = newOwner */\n  dup4\n  dup2\n  and\n  not(sub(shl(0xa0, 0x01), 0x01))\n  dup4\n  and\n  dup2\n  or\n  dup5\n  sstore\n    /* \"https://github.com/OpenZeppelin/openzeppelin-contracts/blob/v5.0.2/contracts/access/Ownable.sol\":3052:3092  OwnershipTransferred(oldOwner, newOwner) */\n  mload(0x40)\n    /* \"https://github.com/OpenZeppelin/openzeppelin-contracts/blob/v5.0.2/contracts/access/Ownable.sol\":3004:3010  _owner */\n  swap2\n  swap1\n  swap3\n  and\n  swap3\n  dup4\n  swap2\n    /* \"https://github.com/OpenZeppelin/openzeppelin-contracts/blob/v5.0.2/contracts/access/Ownable.sol\":3052:3092  OwnershipTransferred(oldOwner, newOwner) */\n  0x8be0079c531659141344cd1fd0a4f28419497f9722a3daafe3b4186f6b6457e0\n  swap2\n    /* \"https://github.com/OpenZeppelin/openzeppelin-contracts/blob/v5.0.2/contracts/access/Ownable.sol\":2985:3001  address oldOwner */\n  swap1\n    /* \"https://github.com/OpenZeppelin/openzeppelin-contracts/blob/v5.0.2/contracts/access/Ownable.sol\":3052:3092  OwnershipTransferred(oldOwner, newOwner) */\n  log3\n    /* \"https://github.com/OpenZeppelin/openzeppelin-contracts/blob/v5.0.2/contracts/access/Ownable.sol\":2975:3099  {... */\n  pop\n    /* \"https://github.com/OpenZeppelin/openzeppelin-contracts/blob/v5.0.2/contracts/access/Ownable.sol\":2912:3099  function _transferOwnership(address newOwner) internal virtual {... */\n  pop\n  jump\t// out\n    /* \"#utility.yul\":14:304   */\ntag_3:\n    /* \"#utility.yul\":84:90   */\n  0x00\n    /* \"#utility.yul\":137:139   */\n  0x20\n    /* \"#utility.yul\":125:134   */\n  dup3\n    /* \"#utility.yul\":116:123   */\n  dup5\n    /* \"#utility.yul\":112:135   */\n  sub\n    /* \"#utility.yul\":108:140   */\n  slt\n    /* \"#utility.yul\":105:157   */\n  iszero\n  tag_22\n  jumpi\n    /* \"#utility.yul\":153:154   */\n  0x00\n    /* \"#utility.yul\":150:151   */\n  dup1\n    /* \"#utility.yul\":143:155   */\n  revert\n    /* \"#utility.yul\":105:157   */\ntag_22:\n    /* \"#utility.yul\":179:195   */\n  dup2\n  mload\n  sub(shl(0xa0, 0x01), 0x01)\n    /* \"#utility.yul\":224:255   */\n  dup2\n  and\n    /* \"#utility.yul\":214:256   */\n  dup2\n  eq\n    /* \"#utility.yul\":204:274   */\n  tag_23\n  jumpi\n    /* \"#utility.yul\":270:271   */\n  0x00\n    /* \"#utility.yul\":267:268   */\n  dup1\n    /* \"#utility.yul\":260:272   */\n  revert\n    /* \"#utility.yul\":204:274   */\ntag_23:\n    /* \"#utility.yul\":293:298   */\n  swap4\n    /* \"#utility.yul\":14:304   */\n  swap3\n  pop\n  pop\n  pop\n  jump\t// out\n    /* \"#utility.yul\":517:845   */\ntag_20:\n    /* \"contracts/ZephyrosStaking/ZephyrosStaking.sol\":833:20669  contract CoreAscensionV2 is Ownable, ReentrancyGuard, IERC721Receiver {... */\n  mload(0x80)\n  codecopy(0x00, dataOffset(sub_0), dataSize(sub_0))\n  0x00\n  assignImmutable(\"0x8b953cbb84328003779eb1ef176ef07f7dd0ae3d4a8e408de53d15a36466c86e\")\n  return(0x00, dataSize(sub_0))\nstop\n\nsub_0: assembly {\n        /* \"contracts/ZephyrosStaking/ZephyrosStaking.sol\":833:20669  contract CoreAscensionV2 is Ownable, ReentrancyGuard, IERC721Receiver {... */\n      mstore(0x40, 0x80)\n      callvalue\n      dup1\n      iszero\n      tag_1\n      jumpi\n      0x00\n      dup1\n      revert\n    tag_1:\n      pop\n      jumpi(tag_2, lt(calldatasize, 0x04))\n      shr(0xe0, calldataload(0x00))\n      dup1\n      0x70480275\n      gt\n      tag_49\n      jumpi\n      dup1\n      0xad9e180c\n      gt\n      tag_50\n      jumpi\n      dup1\n      0xe9fad8ee\n      gt\n      tag_51\n      jumpi\n      dup1\n      0xe9fad8ee\n      eq\n      tag_43\n      jumpi\n      dup1\n      0xf2f4eb26\n      eq\n      tag_44\n      jumpi\n      dup1\n      0xf2fde38b\n      eq\n      tag_45\n      jumpi\n      dup1\n      0xf413496a\n      eq\n      tag_46\n      jumpi\n      dup1\n      0xf9b5b664\n      eq\n      tag_47\n      jumpi\n      dup1\n      0xfa0c7f3d\n      eq\n      tag_48\n      jumpi\n      0x00\n      dup1\n      revert\n    tag_51:\n      dup1\n      0xad9e180c\n      eq\n      tag_37\n      jumpi\n      dup1\n      0xb13270d5\n      eq\n      tag_38\n      jumpi\n      dup1\n      0xb2fa49bf\n      eq\n      tag_39\n      jumpi\n      dup1\n      0xd6316991\n      eq\n      tag_40\n      jumpi\n      dup1\n      0xd64b84b5\n      eq\n      tag_41\n      jumpi\n      dup1\n      0xdfd456aa\n      eq\n      tag_42\n      jumpi\n      0x00\n      dup1\n      revert\n    tag_50:\n      dup1\n      0x8da5cb5b\n      gt\n      tag_52\n      jumpi\n      dup1\n      0x8da5cb5b\n      eq\n      tag_31\n      jumpi\n      dup1\n      0x91596e1e\n      eq\n      tag_32\n      jumpi\n      dup1\n      0x955541f1\n      eq\n      tag_33\n      jumpi\n      dup1\n      0xa1a89efe\n      eq\n      tag_34\n      jumpi\n      dup1\n      0xa9f8d181\n      eq\n      tag_35\n      jumpi\n      dup1\n      0xaa6bb09a\n      eq\n      tag_36\n      jumpi\n      0x00\n      dup1\n      revert\n    tag_52:\n      dup1\n      0x70480275\n      eq\n      tag_26\n      jumpi\n      dup1\n      0x715018a6\n      eq\n      tag_27\n      jumpi\n      dup1\n      0x74958e35\n      eq\n      tag_28\n      jumpi\n      dup1\n      0x77aa93ab\n      eq\n      tag_29\n      jumpi\n      dup1\n      0x8ae39cac\n      eq\n      tag_30\n      jumpi\n      0x00\n      dup1\n      revert\n    tag_49:\n      dup1\n      0x39087664\n      gt\n      tag_53\n      jumpi\n      dup1\n      0x591c6f25\n      gt\n      tag_54\n      jumpi\n      dup1\n      0x591c6f25\n      eq\n      tag_20\n      jumpi\n      dup1\n      0x5d2ed556\n      eq\n      tag_21\n      jumpi\n      dup1\n      0x6088e93a\n      eq\n      tag_22\n      jumpi\n      dup1\n      0x639f8994\n      eq\n      tag_23\n      jumpi\n      dup1\n      0x63d38c3b\n      eq\n      tag_24\n      jumpi\n      dup1\n      0x6f77926b\n      eq\n      tag_25\n      jumpi\n      0x00\n      dup1\n      revert\n    tag_54:\n      dup1\n      0x39087664\n      eq\n      tag_14\n      jumpi\n      dup1\n      0x43add2e6\n      eq\n      tag_15\n      jumpi\n      dup1\n      0x4ccc76ae\n      eq\n      tag_16\n      jumpi\n      dup1\n      0x4e71d92d\n      eq\n      tag_17\n      jumpi\n      dup1\n      0x4ff0da48\n      eq\n      tag_18\n      jumpi\n      dup1\n      0x58f3d6d0\n      eq\n      tag_19\n      jumpi\n      0x00\n      dup1\n      revert\n    tag_53:\n      dup1\n      0x1785f53c\n      gt\n      tag_55\n      jumpi\n      dup1\n      0x1785f53c\n      eq\n      tag_8\n      jumpi\n      dup1\n      0x24d7806c\n      eq\n      tag_9\n      jumpi\n      dup1\n      0x28662551\n      eq\n      tag_10\n      jumpi\n      dup1\n      0x2b6838b3\n      eq\n      tag_11\n      jumpi\n      dup1\n      0x2d60a36d\n      eq\n      tag_12\n      jumpi\n      dup1\n      0x31c2bb51\n      eq\n      tag_13\n      jumpi\n      0x00\n      dup1\n      revert\n    tag_55:\n      dup1\n      0x8cc262\n      eq\n      tag_3\n      jumpi\n      dup1\n      0x083c6323\n      eq\n      tag_4\n      jumpi\n      dup1\n      0x0ab9f75f\n      eq\n      tag_5\n      jumpi\n      dup1\n      0x1171bda9\n      eq\n      tag_6\n      jumpi\n      dup1\n      0x150b7a02\n      eq\n      tag_7\n      jumpi\n    tag_2:\n      0x00\n      dup1\n      revert\n        /* \"contracts/ZephyrosStaking/ZephyrosStaking.sol\":15334:15666  function earned(address account) public view returns (uint256) {... */\n    tag_3:\n      tag_56\n      tag_57\n      calldatasize\n      0x04\n      tag_58\n      jump\t// in\n    tag_57:\n      tag_59\n      jump\t// in\n    tag_56:\n      mload(0x40)\n        /* \"#utility.yul\":529:554   */\n      swap1\n      dup2\n      mstore\n        /* \"#utility.yul\":517:519   */\n      0x20\n        /* \"#utility.yul\":502:520   */\n      add\n        /* \"contracts/ZephyrosStaking/ZephyrosStaking.sol\":15334:15666  function earned(address account) public view returns (uint256) {... */\n    tag_60:\n      mload(0x40)\n      dup1\n      swap2\n      sub\n      swap1\n      return\n        /* \"contracts/ZephyrosStaking/ZephyrosStaking.sol\":3076:3099  uint256 public endBlock */\n    tag_4:\n      tag_56\n      sload(0x0d)\n      dup2\n      jump\n        /* \"contracts/ZephyrosStaking/ZephyrosStaking.sol\":3221:3261  uint256 public totalRewardsSlashedToPool */\n    tag_5:\n      tag_56\n      sload(0x11)\n      dup2\n      jump\n        /* \"contracts/ZephyrosStaking/ZephyrosStaking.sol\":8038:8272  function recoverERC20(address token, address to, uint256 amount) external onlyAdmin {... */\n    tag_6:\n      tag_68\n      tag_69\n      calldatasize\n      0x04\n      tag_70\n      jump\t// in\n    tag_69:\n      tag_71\n      jump\t// in\n    tag_68:\n      stop\n        /* \"contracts/ZephyrosStaking/ZephyrosStaking.sol\":20474:20666  function onERC721Received(... */\n    tag_7:\n      tag_72\n      tag_73\n      calldatasize\n      0x04\n      tag_74\n      jump\t// in\n    tag_73:\n      shl(0xe1, 0x0a85bd01)\n      swap6\n      swap5\n      pop\n      pop\n      pop\n      pop\n      pop\n      jump\n    tag_72:\n      mload(0x40)\n      not(sub(shl(0xe0, 0x01), 0x01))\n        /* \"#utility.yul\":2043:2076   */\n      swap1\n      swap2\n      and\n        /* \"#utility.yul\":2025:2077   */\n      dup2\n      mstore\n        /* \"#utility.yul\":2013:2015   */\n      0x20\n        /* \"#utility.yul\":1998:2016   */\n      add\n        /* \"contracts/ZephyrosStaking/ZephyrosStaking.sol\":20474:20666  function onERC721Received(... */\n      tag_60\n        /* \"#utility.yul\":1881:2083   */\n      jump\n        /* \"contracts/ZephyrosStaking/ZephyrosStaking.sol\":5288:5466  function removeAdmin(address admin) external onlyOwner {... */\n    tag_8:\n      tag_68\n      tag_79\n      calldatasize\n      0x04\n      tag_58\n      jump\t// in\n    tag_79:\n      tag_80\n      jump\t// in\n        /* \"contracts/ZephyrosStaking/ZephyrosStaking.sol\":2447:2486  mapping(address => bool) public isAdmin */\n    tag_9:\n      tag_81\n      tag_82\n      calldatasize\n      0x04\n      tag_58\n      jump\t// in\n    tag_82:\n      mstore(0x20, 0x02)\n      0x00\n      swap1\n      dup2\n      mstore\n      0x40\n      swap1\n      keccak256\n      sload\n      0xff\n      and\n      dup2\n      jump\n    tag_81:\n      mload(0x40)\n        /* \"#utility.yul\":2253:2267   */\n      swap1\n      iszero\n        /* \"#utility.yul\":2246:2268   */\n      iszero\n        /* \"#utility.yul\":2228:2269   */\n      dup2\n      mstore\n        /* \"#utility.yul\":2216:2218   */\n      0x20\n        /* \"#utility.yul\":2201:2219   */\n      add\n        /* \"contracts/ZephyrosStaking/ZephyrosStaking.sol\":2447:2486  mapping(address => bool) public isAdmin */\n      tag_60\n        /* \"#utility.yul\":2088:2275   */\n      jump\n        /* \"contracts/ZephyrosStaking/ZephyrosStaking.sol\":7004:8030  function fundRewards(uint256 amount, uint256 durationBlocks) external onlyAdmin nonReentrant updateReward(address(0)) {... */\n    tag_10:\n      tag_68\n      tag_87\n      calldatasize\n      0x04\n      tag_88\n      jump\t// in\n    tag_87:\n      tag_89\n      jump\t// in\n        /* \"contracts/ZephyrosStaking/ZephyrosStaking.sol\":1572:1617  uint256 public constant MAX_NFTS_PER_USER = 4 */\n    tag_11:\n      tag_56\n        /* \"contracts/ZephyrosStaking/ZephyrosStaking.sol\":1616:1617  4 */\n      0x04\n        /* \"contracts/ZephyrosStaking/ZephyrosStaking.sol\":1572:1617  uint256 public constant MAX_NFTS_PER_USER = 4 */\n      dup2\n      jump\n        /* \"contracts/ZephyrosStaking/ZephyrosStaking.sol\":1067:1120  uint256 public constant MAX_CORE_STAKE = 10_000 ether */\n    tag_12:\n      tag_56\n        /* \"contracts/ZephyrosStaking/ZephyrosStaking.sol\":1108:1120  10_000 ether */\n      0x021e19e0c9bab2400000\n        /* \"contracts/ZephyrosStaking/ZephyrosStaking.sol\":1067:1120  uint256 public constant MAX_CORE_STAKE = 10_000 ether */\n      dup2\n      jump\n        /* \"contracts/ZephyrosStaking/ZephyrosStaking.sol\":2623:2690  mapping(address => mapping(uint256 => bool)) public approvedTokenId */\n    tag_13:\n      tag_81\n      tag_97\n      calldatasize\n      0x04\n      tag_98\n      jump\t// in\n    tag_97:\n      0x04\n      0x20\n      swap1\n      dup2\n      mstore\n      0x00\n      swap3\n      dup4\n      mstore\n      0x40\n      dup1\n      dup5\n      keccak256\n      swap1\n      swap2\n      mstore\n      swap1\n      dup3\n      mstore\n      swap1\n      keccak256\n      sload\n      0xff\n      and\n      dup2\n      jump\n        /* \"contracts/ZephyrosStaking/ZephyrosStaking.sol\":6728:6996  function setWhitelistedBackground(string calldata background, bool allowed) external onlyAdmin {... */\n    tag_14:\n      tag_68\n      tag_102\n      calldatasize\n      0x04\n      tag_103\n      jump\t// in\n    tag_102:\n      tag_104\n      jump\t// in\n        /* \"contracts/ZephyrosStaking/ZephyrosStaking.sol\":2561:2616  mapping(address => CollectionConfig) public collections */\n    tag_15:\n      tag_105\n      tag_106\n      calldatasize\n      0x04\n      tag_58\n      jump\t// in\n    tag_106:\n      mstore(0x20, 0x03)\n      0x00\n      swap1\n      dup2\n      mstore\n      0x40\n      swap1\n      keccak256\n      sload\n      0xff\n      dup1\n      dup3\n      and\n      swap2\n      0x0100\n      swap1\n      div\n      and\n      dup3\n      jump\n    tag_105:\n      mload(0x40)\n      tag_60\n      swap3\n      swap2\n      swap1\n      tag_109\n      jump\t// in\n        /* \"contracts/ZephyrosStaking/ZephyrosStaking.sol\":15853:15995  function lastRewardBlockApplicable() public view returns (uint256) {... */\n    tag_16:\n      tag_56\n      tag_111\n      jump\t// in\n        /* \"contracts/ZephyrosStaking/ZephyrosStaking.sol\":10106:10207  function claim() external nonReentrant updateReward(msg.sender) {... */\n    tag_17:\n      tag_68\n      tag_114\n      jump\t// in\n        /* \"contracts/ZephyrosStaking/ZephyrosStaking.sol\":9513:10098  function stakeCore(uint256 amount) external nonReentrant updateReward(msg.sender) {... */\n    tag_18:\n      tag_68\n      tag_116\n      calldatasize\n      0x04\n      tag_117\n      jump\t// in\n    tag_116:\n      tag_118\n      jump\t// in\n        /* \"contracts/ZephyrosStaking/ZephyrosStaking.sol\":1250:1310  uint256 public constant BLOCKS_PER_YEAR_ESTIMATE = 6_307_200 */\n    tag_19:\n      tag_56\n        /* \"contracts/ZephyrosStaking/ZephyrosStaking.sol\":1301:1310  6_307_200 */\n      0x603d80\n        /* \"contracts/ZephyrosStaking/ZephyrosStaking.sol\":1250:1310  uint256 public constant BLOCKS_PER_YEAR_ESTIMATE = 6_307_200 */\n      dup2\n      jump\n        /* \"contracts/ZephyrosStaking/ZephyrosStaking.sol\":3143:3176  uint256 public totalRewardsFunded */\n    tag_20:\n      tag_56\n      sload(0x0f)\n      dup2\n      jump\n        /* \"contracts/ZephyrosStaking/ZephyrosStaking.sol\":1127:1175  uint256 public constant MIN_STAKE_TIME = 60 days */\n    tag_21:\n      tag_56\n        /* \"contracts/ZephyrosStaking/ZephyrosStaking.sol\":1168:1175  60 days */\n      0x4f1a00\n        /* \"contracts/ZephyrosStaking/ZephyrosStaking.sol\":1127:1175  uint256 public constant MIN_STAKE_TIME = 60 days */\n      dup2\n      jump\n        /* \"contracts/ZephyrosStaking/ZephyrosStaking.sol\":11558:12200  function withdrawNFT(address collection, uint256 tokenId) external nonReentrant updateReward(msg.sender) {... */\n    tag_22:\n      tag_68\n      tag_129\n      calldatasize\n      0x04\n      tag_98\n      jump\t// in\n    tag_129:\n      tag_130\n      jump\t// in\n        /* \"contracts/ZephyrosStaking/ZephyrosStaking.sol\":5640:6002  function configureCollection(... */\n    tag_23:\n      tag_68\n      tag_132\n      calldatasize\n      0x04\n      tag_133\n      jump\t// in\n    tag_132:\n      tag_134\n      jump\t// in\n        /* \"contracts/ZephyrosStaking/ZephyrosStaking.sol\":3108:3136  uint256 public queuedRewards */\n    tag_24:\n      tag_56\n      sload(0x0e)\n      dup2\n      jump\n        /* \"contracts/ZephyrosStaking/ZephyrosStaking.sol\":14704:15326  function getUser(address account) external view returns (... */\n    tag_25:\n      tag_138\n      tag_139\n      calldatasize\n      0x04\n      tag_58\n      jump\t// in\n    tag_139:\n      tag_140\n      jump\t// in\n    tag_138:\n      0x40\n      dup1\n      mload\n        /* \"#utility.yul\":5005:5030   */\n      swap8\n      dup9\n      mstore\n        /* \"#utility.yul\":5061:5063   */\n      0x20\n        /* \"#utility.yul\":5046:5064   */\n      dup9\n      add\n        /* \"#utility.yul\":5039:5073   */\n      swap7\n      swap1\n      swap7\n      mstore\n        /* \"#utility.yul\":5089:5107   */\n      swap5\n      dup7\n      add\n        /* \"#utility.yul\":5082:5116   */\n      swap4\n      swap1\n      swap4\n      mstore\n        /* \"#utility.yul\":5147:5149   */\n      0x60\n        /* \"#utility.yul\":5132:5150   */\n      dup6\n      add\n        /* \"#utility.yul\":5125:5159   */\n      swap2\n      swap1\n      swap2\n      mstore\n        /* \"#utility.yul\":5190:5193   */\n      0x80\n        /* \"#utility.yul\":5175:5194   */\n      dup5\n      add\n        /* \"#utility.yul\":5168:5203   */\n      mstore\n        /* \"#utility.yul\":5247:5261   */\n      iszero\n        /* \"#utility.yul\":5240:5262   */\n      iszero\n        /* \"#utility.yul\":5234:5237   */\n      0xa0\n        /* \"#utility.yul\":5219:5238   */\n      dup4\n      add\n        /* \"#utility.yul\":5212:5263   */\n      mstore\n        /* \"#utility.yul\":5294:5297   */\n      0xc0\n        /* \"#utility.yul\":5279:5298   */\n      dup3\n      add\n        /* \"#utility.yul\":5272:5307   */\n      mstore\n        /* \"#utility.yul\":4992:4995   */\n      0xe0\n        /* \"#utility.yul\":4977:4996   */\n      add\n        /* \"contracts/ZephyrosStaking/ZephyrosStaking.sol\":14704:15326  function getUser(address account) external view returns (... */\n      tag_60\n        /* \"#utility.yul\":4696:5313   */\n      jump\n        /* \"contracts/ZephyrosStaking/ZephyrosStaking.sol\":5041:5280  function addAdmin(address newAdmin) external onlyOwner {... */\n    tag_26:\n      tag_68\n      tag_144\n      calldatasize\n      0x04\n      tag_58\n      jump\t// in\n    tag_144:\n      tag_145\n      jump\t// in\n        /* \"https://github.com/OpenZeppelin/openzeppelin-contracts/blob/v5.0.2/contracts/access/Ownable.sol\":2293:2394  function renounceOwnership() public virtual onlyOwner {... */\n    tag_27:\n      tag_68\n      tag_147\n      jump\t// in\n        /* \"contracts/ZephyrosStaking/ZephyrosStaking.sol\":3183:3214  uint256 public totalRewardsPaid */\n    tag_28:\n      tag_56\n      sload(0x10)\n      dup2\n      jump\n        /* \"contracts/ZephyrosStaking/ZephyrosStaking.sol\":2812:2876  mapping(address => mapping(uint256 => address)) public nftStaker */\n    tag_29:\n      tag_151\n      tag_152\n      calldatasize\n      0x04\n      tag_98\n      jump\t// in\n    tag_152:\n      0x07\n      0x20\n      swap1\n      dup2\n      mstore\n      0x00\n      swap3\n      dup4\n      mstore\n      0x40\n      dup1\n      dup5\n      keccak256\n      swap1\n      swap2\n      mstore\n      swap1\n      dup3\n      mstore\n      swap1\n      keccak256\n      sload\n      sub(shl(0xa0, 0x01), 0x01)\n      and\n      dup2\n      jump\n    tag_151:\n      mload(0x40)\n      sub(shl(0xa0, 0x01), 0x01)\n        /* \"#utility.yul\":5482:5514   */\n      swap1\n      swap2\n      and\n        /* \"#utility.yul\":5464:5515   */\n      dup2\n      mstore\n        /* \"#utility.yul\":5452:5454   */\n      0x20\n        /* \"#utility.yul\":5437:5455   */\n      add\n        /* \"contracts/ZephyrosStaking/ZephyrosStaking.sol\":2812:2876  mapping(address => mapping(uint256 => address)) public nftStaker */\n      tag_60\n        /* \"#utility.yul\":5318:5521   */\n      jump\n        /* \"contracts/ZephyrosStaking/ZephyrosStaking.sol\":3040:3069  uint256 public rewardPerBlock */\n    tag_30:\n      tag_56\n      sload(0x0c)\n      dup2\n      jump\n        /* \"https://github.com/OpenZeppelin/openzeppelin-contracts/blob/v5.0.2/contracts/access/Ownable.sol\":1638:1723  function owner() public view virtual returns (address) {... */\n    tag_31:\n        /* \"https://github.com/OpenZeppelin/openzeppelin-contracts/blob/v5.0.2/contracts/access/Ownable.sol\":1684:1691  address */\n      0x00\n        /* \"https://github.com/OpenZeppelin/openzeppelin-contracts/blob/v5.0.2/contracts/access/Ownable.sol\":1710:1716  _owner */\n      sload\n      sub(shl(0xa0, 0x01), 0x01)\n      and\n        /* \"https://github.com/OpenZeppelin/openzeppelin-contracts/blob/v5.0.2/contracts/access/Ownable.sol\":1638:1723  function owner() public view virtual returns (address) {... */\n      jump(tag_151)\n        /* \"contracts/ZephyrosStaking/ZephyrosStaking.sol\":10215:11550  function withdrawCore(uint256 amount) external nonReentrant updateReward(msg.sender) {... */\n    tag_32:\n      tag_68\n      tag_163\n      calldatasize\n      0x04\n      tag_117\n      jump\t// in\n    tag_163:\n      tag_164\n      jump\t// in\n        /* \"contracts/ZephyrosStaking/ZephyrosStaking.sol\":2697:2754  mapping(bytes32 => bool) public whitelistedBackgroundHash */\n    tag_33:\n      tag_81\n      tag_166\n      calldatasize\n      0x04\n      tag_117\n      jump\t// in\n    tag_166:\n      mstore(0x20, 0x05)\n      0x00\n      swap1\n      dup2\n      mstore\n      0x40\n      swap1\n      keccak256\n      sload\n      0xff\n      and\n      dup2\n      jump\n        /* \"contracts/ZephyrosStaking/ZephyrosStaking.sol\":3268:3305  uint256 public totalCorePenaltyToPool */\n    tag_34:\n      tag_56\n      sload(0x12)\n      dup2\n      jump\n        /* \"contracts/ZephyrosStaking/ZephyrosStaking.sol\":3003:3033  uint256 public lastRewardBlock */\n    tag_35:\n      tag_56\n      sload(0x0b)\n      dup2\n      jump\n        /* \"contracts/ZephyrosStaking/ZephyrosStaking.sol\":2963:2996  uint256 public accRewardPerWeight */\n    tag_36:\n      tag_56\n      sload(0x0a)\n      dup2\n      jump\n        /* \"contracts/ZephyrosStaking/ZephyrosStaking.sol\":3312:3342  uint256 public totalCoreBurned */\n    tag_37:\n      tag_56\n      sload(0x13)\n      dup2\n      jump\n        /* \"contracts/ZephyrosStaking/ZephyrosStaking.sol\":8813:9505  function stakeNFT(address collection, uint256 tokenId) external nonReentrant updateReward(msg.sender) {... */\n    tag_38:\n      tag_68\n      tag_183\n      calldatasize\n      0x04\n      tag_98\n      jump\t// in\n    tag_183:\n      tag_184\n      jump\t// in\n        /* \"contracts/ZephyrosStaking/ZephyrosStaking.sol\":14357:14696  function isNFTEligible(address collection, uint256 tokenId) public view returns (bool) {... */\n    tag_39:\n      tag_81\n      tag_186\n      calldatasize\n      0x04\n      tag_98\n      jump\t// in\n    tag_186:\n      tag_187\n      jump\t// in\n        /* \"contracts/ZephyrosStaking/ZephyrosStaking.sol\":6301:6720  function batchSetApprovedTokenIds(... */\n    tag_40:\n      tag_68\n      tag_190\n      calldatasize\n      0x04\n      tag_191\n      jump\t// in\n    tag_190:\n      tag_192\n      jump\t// in\n        /* \"contracts/ZephyrosStaking/ZephyrosStaking.sol\":2922:2954  uint256 public totalRewardWeight */\n    tag_41:\n      tag_56\n      sload(0x09)\n      dup2\n      jump\n        /* \"contracts/ZephyrosStaking/ZephyrosStaking.sol\":2885:2915  uint256 public totalCoreStaked */\n    tag_42:\n      tag_56\n      sload(0x08)\n      dup2\n      jump\n        /* \"contracts/ZephyrosStaking/ZephyrosStaking.sol\":12208:14193  function exit() external nonReentrant updateReward(msg.sender) {... */\n    tag_43:\n      tag_68\n      tag_200\n      jump\t// in\n        /* \"contracts/ZephyrosStaking/ZephyrosStaking.sol\":982:1014  ICoreToken public immutable core */\n    tag_44:\n      tag_151\n      immutable(\"0x8b953cbb84328003779eb1ef176ef07f7dd0ae3d4a8e408de53d15a36466c86e\")\n      dup2\n      jump\n        /* \"https://github.com/OpenZeppelin/openzeppelin-contracts/blob/v5.0.2/contracts/access/Ownable.sol\":2543:2758  function transferOwnership(address newOwner) public virtual onlyOwner {... */\n    tag_45:\n      tag_68\n      tag_206\n      calldatasize\n      0x04\n      tag_58\n      jump\t// in\n    tag_206:\n      tag_207\n      jump\t// in\n        /* \"contracts/ZephyrosStaking/ZephyrosStaking.sol\":15674:15845  function isBackgroundWhitelisted(string calldata background) external view returns (bool) {... */\n    tag_46:\n      tag_81\n      tag_209\n      calldatasize\n      0x04\n      tag_210\n      jump\t// in\n    tag_209:\n      tag_211\n      jump\t// in\n        /* \"contracts/ZephyrosStaking/ZephyrosStaking.sol\":8280:8640  function rescueUnstakedNFT(address collection, uint256 tokenId, address to) external onlyAdmin nonReentrant {... */\n    tag_47:\n      tag_68\n      tag_214\n      calldatasize\n      0x04\n      tag_215\n      jump\t// in\n    tag_214:\n      tag_216\n      jump\t// in\n        /* \"contracts/ZephyrosStaking/ZephyrosStaking.sol\":6010:6293  function setApprovedTokenId(address collection, uint256 tokenId, bool eligible) external onlyAdmin {... */\n    tag_48:\n      tag_68\n      tag_218\n      calldatasize\n      0x04\n      tag_219\n      jump\t// in\n    tag_218:\n      tag_220\n      jump\t// in\n        /* \"contracts/ZephyrosStaking/ZephyrosStaking.sol\":15334:15666  function earned(address account) public view returns (uint256) {... */\n    tag_59:\n      sub(shl(0xa0, 0x01), 0x01)\n        /* \"contracts/ZephyrosStaking/ZephyrosStaking.sol\":15432:15446  users[account] */\n      dup2\n      and\n        /* \"contracts/ZephyrosStaking/ZephyrosStaking.sol\":15388:15395  uint256 */\n      0x00\n        /* \"contracts/ZephyrosStaking/ZephyrosStaking.sol\":15432:15446  users[account] */\n      swap1\n      dup2\n      mstore\n        /* \"contracts/ZephyrosStaking/ZephyrosStaking.sol\":15432:15437  users */\n      0x06\n        /* \"contracts/ZephyrosStaking/ZephyrosStaking.sol\":15432:15446  users[account] */\n      0x20\n      mstore\n      0x40\n      dup2\n      keccak256\n        /* \"contracts/ZephyrosStaking/ZephyrosStaking.sol\":15388:15395  uint256 */\n      dup2\n        /* \"contracts/ZephyrosStaking/ZephyrosStaking.sol\":15478:15506  _currentAccRewardPerWeight() */\n      tag_222\n        /* \"contracts/ZephyrosStaking/ZephyrosStaking.sol\":15478:15504  _currentAccRewardPerWeight */\n      tag_223\n        /* \"contracts/ZephyrosStaking/ZephyrosStaking.sol\":15478:15506  _currentAccRewardPerWeight() */\n      jump\t// in\n    tag_222:\n        /* \"contracts/ZephyrosStaking/ZephyrosStaking.sol\":15457:15506  uint256 currentAcc = _currentAccRewardPerWeight() */\n      swap1\n      pop\n        /* \"contracts/ZephyrosStaking/ZephyrosStaking.sol\":15517:15536  uint256 accumulated */\n      0x00\n        /* \"contracts/ZephyrosStaking/ZephyrosStaking.sol\":1877:1881  1e24 */\n      0xd3c21bcecceda1000000\n        /* \"contracts/ZephyrosStaking/ZephyrosStaking.sol\":15560:15570  currentAcc */\n      dup3\n        /* \"contracts/ZephyrosStaking/ZephyrosStaking.sol\":15540:15544  user */\n      dup5\n        /* \"contracts/ZephyrosStaking/ZephyrosStaking.sol\":15540:15557  user.rewardWeight */\n      0x01\n      add\n      sload\n        /* \"contracts/ZephyrosStaking/ZephyrosStaking.sol\":15540:15570  user.rewardWeight * currentAcc */\n      tag_224\n      swap2\n      swap1\n      tag_225\n      jump\t// in\n    tag_224:\n        /* \"contracts/ZephyrosStaking/ZephyrosStaking.sol\":15539:15587  (user.rewardWeight * currentAcc) / ACC_PRECISION */\n      tag_226\n      swap2\n      swap1\n      tag_227\n      jump\t// in\n    tag_226:\n        /* \"contracts/ZephyrosStaking/ZephyrosStaking.sol\":15517:15587  uint256 accumulated = (user.rewardWeight * currentAcc) / ACC_PRECISION */\n      swap1\n      pop\n        /* \"contracts/ZephyrosStaking/ZephyrosStaking.sol\":15643:15647  user */\n      dup3\n        /* \"contracts/ZephyrosStaking/ZephyrosStaking.sol\":15643:15658  user.rewardDebt */\n      0x02\n      add\n      sload\n        /* \"contracts/ZephyrosStaking/ZephyrosStaking.sol\":15629:15640  accumulated */\n      dup2\n        /* \"contracts/ZephyrosStaking/ZephyrosStaking.sol\":15605:15609  user */\n      dup5\n        /* \"contracts/ZephyrosStaking/ZephyrosStaking.sol\":15605:15626  user.unclaimedRewards */\n      0x03\n      add\n      sload\n        /* \"contracts/ZephyrosStaking/ZephyrosStaking.sol\":15605:15640  user.unclaimedRewards + accumulated */\n      tag_228\n      swap2\n      swap1\n      tag_229\n      jump\t// in\n    tag_228:\n        /* \"contracts/ZephyrosStaking/ZephyrosStaking.sol\":15605:15658  user.unclaimedRewards + accumulated - user.rewardDebt */\n      tag_230\n      swap2\n      swap1\n      tag_231\n      jump\t// in\n    tag_230:\n        /* \"contracts/ZephyrosStaking/ZephyrosStaking.sol\":15598:15658  return user.unclaimedRewards + accumulated - user.rewardDebt */\n      swap6\n        /* \"contracts/ZephyrosStaking/ZephyrosStaking.sol\":15334:15666  function earned(address account) public view returns (uint256) {... */\n      swap5\n      pop\n      pop\n      pop\n      pop\n      pop\n      jump\t// out\n        /* \"contracts/ZephyrosStaking/ZephyrosStaking.sol\":8038:8272  function recoverERC20(address token, address to, uint256 amount) external onlyAdmin {... */\n    tag_71:\n        /* \"contracts/ZephyrosStaking/ZephyrosStaking.sol\":4963:4973  msg.sender */\n      caller\n        /* \"contracts/ZephyrosStaking/ZephyrosStaking.sol\":4955:4974  isAdmin[msg.sender] */\n      0x00\n      swap1\n      dup2\n      mstore\n        /* \"contracts/ZephyrosStaking/ZephyrosStaking.sol\":4955:4962  isAdmin */\n      0x02\n        /* \"contracts/ZephyrosStaking/ZephyrosStaking.sol\":4955:4974  isAdmin[msg.sender] */\n      0x20\n      mstore\n      0x40\n      swap1\n      keccak256\n      sload\n      0xff\n      and\n      dup1\n        /* \"contracts/ZephyrosStaking/ZephyrosStaking.sol\":4955:4999  isAdmin[msg.sender] || msg.sender == owner() */\n      tag_233\n      jumpi\n      pop\n        /* \"https://github.com/OpenZeppelin/openzeppelin-contracts/blob/v5.0.2/contracts/access/Ownable.sol\":1684:1691  address */\n      0x00\n        /* \"https://github.com/OpenZeppelin/openzeppelin-contracts/blob/v5.0.2/contracts/access/Ownable.sol\":1710:1716  _owner */\n      sload\n      sub(shl(0xa0, 0x01), 0x01)\n      and\n        /* \"contracts/ZephyrosStaking/ZephyrosStaking.sol\":4978:4988  msg.sender */\n      caller\n        /* \"contracts/ZephyrosStaking/ZephyrosStaking.sol\":4978:4999  msg.sender == owner() */\n      eq\n        /* \"contracts/ZephyrosStaking/ZephyrosStaking.sol\":4955:4999  isAdmin[msg.sender] || msg.sender == owner() */\n    tag_233:\n        /* \"contracts/ZephyrosStaking/ZephyrosStaking.sol\":4947:5013  require(isAdmin[msg.sender] || msg.sender == owner(), \"Not admin\") */\n      tag_235\n      jumpi\n      mload(0x40)\n      shl(0xe5, 0x461bcd)\n      dup2\n      mstore\n      0x04\n      add\n      tag_236\n      swap1\n      tag_237\n      jump\t// in\n    tag_236:\n      mload(0x40)\n      dup1\n      swap2\n      sub\n      swap1\n      revert\n    tag_235:\n        /* \"contracts/ZephyrosStaking/ZephyrosStaking.sol\":8158:8162  core */\n      immutable(\"0x8b953cbb84328003779eb1ef176ef07f7dd0ae3d4a8e408de53d15a36466c86e\")\n      sub(shl(0xa0, 0x01), 0x01)\n        /* \"contracts/ZephyrosStaking/ZephyrosStaking.sol\":8141:8163  token != address(core) */\n      and\n        /* \"contracts/ZephyrosStaking/ZephyrosStaking.sol\":8141:8146  token */\n      dup4\n      sub(shl(0xa0, 0x01), 0x01)\n        /* \"contracts/ZephyrosStaking/ZephyrosStaking.sol\":8141:8163  token != address(core) */\n      and\n      sub\n        /* \"contracts/ZephyrosStaking/ZephyrosStaking.sol\":8133:8172  require(token != address(core), \"CORE\") */\n      tag_239\n      jumpi\n      mload(0x40)\n      shl(0xe5, 0x461bcd)\n      dup2\n      mstore\n      0x04\n      add\n      tag_236\n      swap1\n        /* \"#utility.yul\":9224:9226   */\n      0x20\n        /* \"#utility.yul\":9206:9227   */\n      dup1\n      dup3\n      mstore\n        /* \"#utility.yul\":9263:9264   */\n      0x04\n        /* \"#utility.yul\":9243:9261   */\n      swap1\n      dup3\n      add\n        /* \"#utility.yul\":9236:9265   */\n      mstore\n      shl(0xe0, 0x434f5245)\n        /* \"#utility.yul\":9296:9298   */\n      0x40\n        /* \"#utility.yul\":9281:9299   */\n      dup3\n      add\n        /* \"#utility.yul\":9274:9308   */\n      mstore\n        /* \"#utility.yul\":9340:9342   */\n      0x60\n        /* \"#utility.yul\":9325:9343   */\n      add\n      swap1\n        /* \"#utility.yul\":9022:9349   */\n      jump\n        /* \"contracts/ZephyrosStaking/ZephyrosStaking.sol\":8133:8172  require(token != address(core), \"CORE\") */\n    tag_239:\n      sub(shl(0xa0, 0x01), 0x01)\n        /* \"contracts/ZephyrosStaking/ZephyrosStaking.sol\":8191:8207  to != address(0) */\n      dup3\n      and\n        /* \"contracts/ZephyrosStaking/ZephyrosStaking.sol\":8183:8215  require(to != address(0), \"TO0\") */\n      tag_242\n      jumpi\n      mload(0x40)\n      shl(0xe5, 0x461bcd)\n      dup2\n      mstore\n        /* \"#utility.yul\":9556:9558   */\n      0x20\n        /* \"contracts/ZephyrosStaking/ZephyrosStaking.sol\":8183:8215  require(to != address(0), \"TO0\") */\n      0x04\n      dup3\n      add\n        /* \"#utility.yul\":9538:9559   */\n      mstore\n        /* \"#utility.yul\":9595:9596   */\n      0x03\n        /* \"#utility.yul\":9575:9593   */\n      0x24\n      dup3\n      add\n        /* \"#utility.yul\":9568:9597   */\n      mstore\n      shl(0xec, 0x0544f3)\n        /* \"#utility.yul\":9613:9631   */\n      0x44\n      dup3\n      add\n        /* \"#utility.yul\":9606:9639   */\n      mstore\n        /* \"#utility.yul\":9656:9674   */\n      0x64\n      add\n        /* \"contracts/ZephyrosStaking/ZephyrosStaking.sol\":8183:8215  require(to != address(0), \"TO0\") */\n      tag_236\n        /* \"#utility.yul\":9354:9680   */\n      jump\n        /* \"contracts/ZephyrosStaking/ZephyrosStaking.sol\":8183:8215  require(to != address(0), \"TO0\") */\n    tag_242:\n        /* \"contracts/ZephyrosStaking/ZephyrosStaking.sol\":8226:8264  IERC20(token).safeTransfer(to, amount) */\n      tag_245\n      sub(shl(0xa0, 0x01), 0x01)\n        /* \"contracts/ZephyrosStaking/ZephyrosStaking.sol\":8226:8252  IERC20(token).safeTransfer */\n      dup5\n      and\n        /* \"contracts/ZephyrosStaking/ZephyrosStaking.sol\":8253:8255  to */\n      dup4\n        /* \"contracts/ZephyrosStaking/ZephyrosStaking.sol\":8257:8263  amount */\n      dup4\n        /* \"contracts/ZephyrosStaking/ZephyrosStaking.sol\":8226:8252  IERC20(token).safeTransfer */\n      tag_246\n        /* \"contracts/ZephyrosStaking/ZephyrosStaking.sol\":8226:8264  IERC20(token).safeTransfer(to, amount) */\n      jump\t// in\n    tag_245:\n        /* \"contracts/ZephyrosStaking/ZephyrosStaking.sol\":8038:8272  function recoverERC20(address token, address to, uint256 amount) external onlyAdmin {... */\n      pop\n      pop\n      pop\n      jump\t// out\n        /* \"contracts/ZephyrosStaking/ZephyrosStaking.sol\":5288:5466  function removeAdmin(address admin) external onlyOwner {... */\n    tag_80:\n        /* \"https://github.com/OpenZeppelin/openzeppelin-contracts/blob/v5.0.2/contracts/access/Ownable.sol\":1531:1544  _checkOwner() */\n      tag_249\n        /* \"https://github.com/OpenZeppelin/openzeppelin-contracts/blob/v5.0.2/contracts/access/Ownable.sol\":1531:1542  _checkOwner */\n      tag_250\n        /* \"https://github.com/OpenZeppelin/openzeppelin-contracts/blob/v5.0.2/contracts/access/Ownable.sol\":1531:1544  _checkOwner() */\n      jump\t// in\n    tag_249:\n      sub(shl(0xa0, 0x01), 0x01)\n        /* \"contracts/ZephyrosStaking/ZephyrosStaking.sol\":5362:5376  isAdmin[admin] */\n      dup2\n      and\n      0x00\n      swap1\n      dup2\n      mstore\n        /* \"contracts/ZephyrosStaking/ZephyrosStaking.sol\":5362:5369  isAdmin */\n      0x02\n        /* \"contracts/ZephyrosStaking/ZephyrosStaking.sol\":5362:5376  isAdmin[admin] */\n      0x20\n      mstore\n      0x40\n      swap1\n      keccak256\n      sload\n      0xff\n      and\n        /* \"contracts/ZephyrosStaking/ZephyrosStaking.sol\":5354:5390  require(isAdmin[admin], \"NOT_ADMIN\") */\n      tag_252\n      jumpi\n      mload(0x40)\n      shl(0xe5, 0x461bcd)\n      dup2\n      mstore\n        /* \"#utility.yul\":9887:9889   */\n      0x20\n        /* \"contracts/ZephyrosStaking/ZephyrosStaking.sol\":5354:5390  require(isAdmin[admin], \"NOT_ADMIN\") */\n      0x04\n      dup3\n      add\n        /* \"#utility.yul\":9869:9890   */\n      mstore\n        /* \"#utility.yul\":9926:9927   */\n      0x09\n        /* \"#utility.yul\":9906:9924   */\n      0x24\n      dup3\n      add\n        /* \"#utility.yul\":9899:9928   */\n      mstore\n      shl(0xb9, 0x2727aa2fa0a226a4a7)\n        /* \"#utility.yul\":9944:9962   */\n      0x44\n      dup3\n      add\n        /* \"#utility.yul\":9937:9976   */\n      mstore\n        /* \"#utility.yul\":9993:10011   */\n      0x64\n      add\n        /* \"contracts/ZephyrosStaking/ZephyrosStaking.sol\":5354:5390  require(isAdmin[admin], \"NOT_ADMIN\") */\n      tag_236\n        /* \"#utility.yul\":9685:10017   */\n      jump\n        /* \"contracts/ZephyrosStaking/ZephyrosStaking.sol\":5354:5390  require(isAdmin[admin], \"NOT_ADMIN\") */\n    tag_252:\n      sub(shl(0xa0, 0x01), 0x01)\n        /* \"contracts/ZephyrosStaking/ZephyrosStaking.sol\":5401:5415  isAdmin[admin] */\n      dup2\n      and\n        /* \"contracts/ZephyrosStaking/ZephyrosStaking.sol\":5418:5423  false */\n      0x00\n        /* \"contracts/ZephyrosStaking/ZephyrosStaking.sol\":5401:5415  isAdmin[admin] */\n      dup2\n      dup2\n      mstore\n        /* \"contracts/ZephyrosStaking/ZephyrosStaking.sol\":5401:5408  isAdmin */\n      0x02\n        /* \"contracts/ZephyrosStaking/ZephyrosStaking.sol\":5401:5415  isAdmin[admin] */\n      0x20\n      mstore\n      0x40\n      dup1\n      dup3\n      keccak256\n        /* \"contracts/ZephyrosStaking/ZephyrosStaking.sol\":5401:5423  isAdmin[admin] = false */\n      dup1\n      sload\n      not(0xff)\n      and\n      swap1\n      sstore\n        /* \"contracts/ZephyrosStaking/ZephyrosStaking.sol\":5439:5458  AdminRemoved(admin) */\n      mload\n      0xa3b62bc36326052d97ea62d63c3d60308ed4c3ea8ac079dd8499f1e9c4f80c0f\n      swap2\n        /* \"contracts/ZephyrosStaking/ZephyrosStaking.sol\":5418:5423  false */\n      swap1\n        /* \"contracts/ZephyrosStaking/ZephyrosStaking.sol\":5439:5458  AdminRemoved(admin) */\n      log2\n        /* \"contracts/ZephyrosStaking/ZephyrosStaking.sol\":5288:5466  function removeAdmin(address admin) external onlyOwner {... */\n      pop\n      jump\t// out\n        /* \"contracts/ZephyrosStaking/ZephyrosStaking.sol\":7004:8030  function fundRewards(uint256 amount, uint256 durationBlocks) external onlyAdmin nonReentrant updateReward(address(0)) {... */\n    tag_89:\n        /* \"contracts/ZephyrosStaking/ZephyrosStaking.sol\":4963:4973  msg.sender */\n      caller\n        /* \"contracts/ZephyrosStaking/ZephyrosStaking.sol\":4955:4974  isAdmin[msg.sender] */\n      0x00\n      swap1\n      dup2\n      mstore\n        /* \"contracts/ZephyrosStaking/ZephyrosStaking.sol\":4955:4962  isAdmin */\n      0x02\n        /* \"contracts/ZephyrosStaking/ZephyrosStaking.sol\":4955:4974  isAdmin[msg.sender] */\n      0x20\n      mstore\n      0x40\n      swap1\n      keccak256\n      sload\n      0xff\n      and\n      dup1\n        /* \"contracts/ZephyrosStaking/ZephyrosStaking.sol\":4955:4999  isAdmin[msg.sender] || msg.sender == owner() */\n      tag_256\n      jumpi\n      pop\n        /* \"https://github.com/OpenZeppelin/openzeppelin-contracts/blob/v5.0.2/contracts/access/Ownable.sol\":1684:1691  address */\n      0x00\n        /* \"https://github.com/OpenZeppelin/openzeppelin-contracts/blob/v5.0.2/contracts/access/Ownable.sol\":1710:1716  _owner */\n      sload\n      sub(shl(0xa0, 0x01), 0x01)\n      and\n        /* \"contracts/ZephyrosStaking/ZephyrosStaking.sol\":4978:4988  msg.sender */\n      caller\n        /* \"contracts/ZephyrosStaking/ZephyrosStaking.sol\":4978:4999  msg.sender == owner() */\n      eq\n        /* \"contracts/ZephyrosStaking/ZephyrosStaking.sol\":4955:4999  isAdmin[msg.sender] || msg.sender == owner() */\n    tag_256:\n        /* \"contracts/ZephyrosStaking/ZephyrosStaking.sol\":4947:5013  require(isAdmin[msg.sender] || msg.sender == owner(), \"Not admin\") */\n      tag_258\n      jumpi\n      mload(0x40)\n      shl(0xe5, 0x461bcd)\n      dup2\n      mstore\n      0x04\n      add\n      tag_236\n      swap1\n      tag_237\n      jump\t// in\n    tag_258:\n        /* \"https://github.com/OpenZeppelin/openzeppelin-contracts/blob/v5.0.2/contracts/utils/ReentrancyGuard.sol\":2356:2377  _nonReentrantBefore() */\n      tag_261\n        /* \"https://github.com/OpenZeppelin/openzeppelin-contracts/blob/v5.0.2/contracts/utils/ReentrancyGuard.sol\":2356:2375  _nonReentrantBefore */\n      tag_262\n        /* \"https://github.com/OpenZeppelin/openzeppelin-contracts/blob/v5.0.2/contracts/utils/ReentrancyGuard.sol\":2356:2377  _nonReentrantBefore() */\n      jump\t// in\n    tag_261:\n        /* \"contracts/ZephyrosStaking/ZephyrosStaking.sol\":7118:7119  0 */\n      0x00\n        /* \"contracts/ZephyrosStaking/ZephyrosStaking.sol\":16243:16271  _currentAccRewardPerWeight() */\n      tag_264\n        /* \"contracts/ZephyrosStaking/ZephyrosStaking.sol\":16243:16269  _currentAccRewardPerWeight */\n      tag_223\n        /* \"contracts/ZephyrosStaking/ZephyrosStaking.sol\":16243:16271  _currentAccRewardPerWeight() */\n      jump\t// in\n    tag_264:\n        /* \"contracts/ZephyrosStaking/ZephyrosStaking.sol\":16222:16240  accRewardPerWeight */\n      0x0a\n        /* \"contracts/ZephyrosStaking/ZephyrosStaking.sol\":16222:16271  accRewardPerWeight = _currentAccRewardPerWeight() */\n      sstore\n        /* \"contracts/ZephyrosStaking/ZephyrosStaking.sol\":16300:16327  lastRewardBlockApplicable() */\n      tag_265\n        /* \"contracts/ZephyrosStaking/ZephyrosStaking.sol\":16300:16325  lastRewardBlockApplicable */\n      tag_111\n        /* \"contracts/ZephyrosStaking/ZephyrosStaking.sol\":16300:16327  lastRewardBlockApplicable() */\n      jump\t// in\n    tag_265:\n        /* \"contracts/ZephyrosStaking/ZephyrosStaking.sol\":16282:16297  lastRewardBlock */\n      0x0b\n        /* \"contracts/ZephyrosStaking/ZephyrosStaking.sol\":16282:16327  lastRewardBlock = lastRewardBlockApplicable() */\n      sstore\n      sub(shl(0xa0, 0x01), 0x01)\n        /* \"contracts/ZephyrosStaking/ZephyrosStaking.sol\":16344:16365  account != address(0) */\n      dup2\n      and\n      iszero\n        /* \"contracts/ZephyrosStaking/ZephyrosStaking.sol\":16340:16683  if (account != address(0)) {... */\n      tag_266\n      jumpi\n      sub(shl(0xa0, 0x01), 0x01)\n        /* \"contracts/ZephyrosStaking/ZephyrosStaking.sol\":16406:16420  users[account] */\n      dup2\n      and\n        /* \"contracts/ZephyrosStaking/ZephyrosStaking.sol\":16382:16403  UserInfo storage user */\n      0x00\n        /* \"contracts/ZephyrosStaking/ZephyrosStaking.sol\":16406:16420  users[account] */\n      swap1\n      dup2\n      mstore\n        /* \"contracts/ZephyrosStaking/ZephyrosStaking.sol\":16406:16411  users */\n      0x06\n        /* \"contracts/ZephyrosStaking/ZephyrosStaking.sol\":16406:16420  users[account] */\n      0x20\n      mstore\n      0x40\n      dup2\n      keccak256\n        /* \"contracts/ZephyrosStaking/ZephyrosStaking.sol\":16478:16496  accRewardPerWeight */\n      sload(0x0a)\n        /* \"contracts/ZephyrosStaking/ZephyrosStaking.sol\":16458:16475  user.rewardWeight */\n      0x01\n      dup3\n      add\n      sload\n        /* \"contracts/ZephyrosStaking/ZephyrosStaking.sol\":16406:16420  users[account] */\n      swap2\n      swap3\n        /* \"contracts/ZephyrosStaking/ZephyrosStaking.sol\":16382:16403  UserInfo storage user */\n      swap2\n        /* \"contracts/ZephyrosStaking/ZephyrosStaking.sol\":1877:1881  1e24 */\n      0xd3c21bcecceda1000000\n      swap2\n        /* \"contracts/ZephyrosStaking/ZephyrosStaking.sol\":16458:16496  user.rewardWeight * accRewardPerWeight */\n      tag_267\n      swap2\n      tag_225\n      jump\t// in\n    tag_267:\n        /* \"contracts/ZephyrosStaking/ZephyrosStaking.sol\":16457:16513  (user.rewardWeight * accRewardPerWeight) / ACC_PRECISION */\n      tag_268\n      swap2\n      swap1\n      tag_227\n      jump\t// in\n    tag_268:\n        /* \"contracts/ZephyrosStaking/ZephyrosStaking.sol\":16435:16513  uint256 accumulated = (user.rewardWeight * accRewardPerWeight) / ACC_PRECISION */\n      swap1\n      pop\n        /* \"contracts/ZephyrosStaking/ZephyrosStaking.sol\":16567:16571  user */\n      dup2\n        /* \"contracts/ZephyrosStaking/ZephyrosStaking.sol\":16567:16582  user.rewardDebt */\n      0x02\n      add\n      sload\n        /* \"contracts/ZephyrosStaking/ZephyrosStaking.sol\":16553:16564  accumulated */\n      dup2\n        /* \"contracts/ZephyrosStaking/ZephyrosStaking.sol\":16553:16582  accumulated - user.rewardDebt */\n      tag_269\n      swap2\n      swap1\n      tag_231\n      jump\t// in\n    tag_269:\n        /* \"contracts/ZephyrosStaking/ZephyrosStaking.sol\":16528:16532  user */\n      dup3\n        /* \"contracts/ZephyrosStaking/ZephyrosStaking.sol\":16528:16549  user.unclaimedRewards */\n      0x03\n      add\n      0x00\n        /* \"contracts/ZephyrosStaking/ZephyrosStaking.sol\":16528:16582  user.unclaimedRewards += accumulated - user.rewardDebt */\n      dup3\n      dup3\n      sload\n      tag_270\n      swap2\n      swap1\n      tag_229\n      jump\t// in\n    tag_270:\n      swap1\n      swap2\n      sstore\n      pop\n      pop\n        /* \"contracts/ZephyrosStaking/ZephyrosStaking.sol\":16636:16654  accRewardPerWeight */\n      sload(0x0a)\n        /* \"contracts/ZephyrosStaking/ZephyrosStaking.sol\":16616:16633  user.rewardWeight */\n      0x01\n      dup4\n      add\n      sload\n        /* \"contracts/ZephyrosStaking/ZephyrosStaking.sol\":1877:1881  1e24 */\n      0xd3c21bcecceda1000000\n      swap2\n        /* \"contracts/ZephyrosStaking/ZephyrosStaking.sol\":16616:16654  user.rewardWeight * accRewardPerWeight */\n      tag_271\n      swap2\n      tag_225\n      jump\t// in\n    tag_271:\n        /* \"contracts/ZephyrosStaking/ZephyrosStaking.sol\":16615:16671  (user.rewardWeight * accRewardPerWeight) / ACC_PRECISION */\n      tag_272\n      swap2\n      swap1\n      tag_227\n      jump\t// in\n    tag_272:\n        /* \"contracts/ZephyrosStaking/ZephyrosStaking.sol\":16597:16601  user */\n      dup3\n        /* \"contracts/ZephyrosStaking/ZephyrosStaking.sol\":16597:16612  user.rewardDebt */\n      0x02\n      add\n        /* \"contracts/ZephyrosStaking/ZephyrosStaking.sol\":16597:16671  user.rewardDebt = (user.rewardWeight * accRewardPerWeight) / ACC_PRECISION */\n      dup2\n      swap1\n      sstore\n      pop\n        /* \"contracts/ZephyrosStaking/ZephyrosStaking.sol\":16367:16683  {... */\n      pop\n      pop\n        /* \"contracts/ZephyrosStaking/ZephyrosStaking.sol\":16340:16683  if (account != address(0)) {... */\n    tag_266:\n        /* \"contracts/ZephyrosStaking/ZephyrosStaking.sol\":7150:7151  0 */\n      0x00\n        /* \"contracts/ZephyrosStaking/ZephyrosStaking.sol\":7141:7147  amount */\n      dup4\n        /* \"contracts/ZephyrosStaking/ZephyrosStaking.sol\":7141:7151  amount > 0 */\n      gt\n        /* \"contracts/ZephyrosStaking/ZephyrosStaking.sol\":7141:7172  amount > 0 || queuedRewards > 0 */\n      dup1\n      tag_274\n      jumpi\n      pop\n        /* \"contracts/ZephyrosStaking/ZephyrosStaking.sol\":7171:7172  0 */\n      0x00\n        /* \"contracts/ZephyrosStaking/ZephyrosStaking.sol\":7155:7168  queuedRewards */\n      sload(0x0e)\n        /* \"contracts/ZephyrosStaking/ZephyrosStaking.sol\":7155:7172  queuedRewards > 0 */\n      gt\n        /* \"contracts/ZephyrosStaking/ZephyrosStaking.sol\":7141:7172  amount > 0 || queuedRewards > 0 */\n    tag_274:\n        /* \"contracts/ZephyrosStaking/ZephyrosStaking.sol\":7133:7182  require(amount > 0 || queuedRewards > 0, \"NOREW\") */\n      tag_275\n      jumpi\n      mload(0x40)\n      shl(0xe5, 0x461bcd)\n      dup2\n      mstore\n        /* \"#utility.yul\":10224:10226   */\n      0x20\n        /* \"contracts/ZephyrosStaking/ZephyrosStaking.sol\":7133:7182  require(amount > 0 || queuedRewards > 0, \"NOREW\") */\n      0x04\n      dup3\n      add\n        /* \"#utility.yul\":10206:10227   */\n      mstore\n        /* \"#utility.yul\":10263:10264   */\n      0x05\n        /* \"#utility.yul\":10243:10261   */\n      0x24\n      dup3\n      add\n        /* \"#utility.yul\":10236:10265   */\n      mstore\n      shl(0xd8, 0x4e4f524557)\n        /* \"#utility.yul\":10281:10299   */\n      0x44\n      dup3\n      add\n        /* \"#utility.yul\":10274:10309   */\n      mstore\n        /* \"#utility.yul\":10326:10344   */\n      0x64\n      add\n        /* \"contracts/ZephyrosStaking/ZephyrosStaking.sol\":7133:7182  require(amount > 0 || queuedRewards > 0, \"NOREW\") */\n      tag_236\n        /* \"#utility.yul\":10022:10350   */\n      jump\n        /* \"contracts/ZephyrosStaking/ZephyrosStaking.sol\":7133:7182  require(amount > 0 || queuedRewards > 0, \"NOREW\") */\n    tag_275:\n        /* \"contracts/ZephyrosStaking/ZephyrosStaking.sol\":7218:7219  0 */\n      0x00\n        /* \"contracts/ZephyrosStaking/ZephyrosStaking.sol\":7201:7215  durationBlocks */\n      dup3\n        /* \"contracts/ZephyrosStaking/ZephyrosStaking.sol\":7201:7219  durationBlocks > 0 */\n      gt\n        /* \"contracts/ZephyrosStaking/ZephyrosStaking.sol\":7193:7228  require(durationBlocks > 0, \"DUR0\") */\n      tag_278\n      jumpi\n      mload(0x40)\n      shl(0xe5, 0x461bcd)\n      dup2\n      mstore\n      0x04\n      add\n      tag_236\n      swap1\n        /* \"#utility.yul\":10557:10559   */\n      0x20\n        /* \"#utility.yul\":10539:10560   */\n      dup1\n      dup3\n      mstore\n        /* \"#utility.yul\":10596:10597   */\n      0x04\n        /* \"#utility.yul\":10576:10594   */\n      swap1\n      dup3\n      add\n        /* \"#utility.yul\":10569:10598   */\n      mstore\n      shl(0xe4, 0x04455523)\n        /* \"#utility.yul\":10629:10631   */\n      0x40\n        /* \"#utility.yul\":10614:10632   */\n      dup3\n      add\n        /* \"#utility.yul\":10607:10641   */\n      mstore\n        /* \"#utility.yul\":10673:10675   */\n      0x60\n        /* \"#utility.yul\":10658:10676   */\n      add\n      swap1\n        /* \"#utility.yul\":10355:10682   */\n      jump\n        /* \"contracts/ZephyrosStaking/ZephyrosStaking.sol\":7193:7228  require(durationBlocks > 0, \"DUR0\") */\n    tag_278:\n        /* \"contracts/ZephyrosStaking/ZephyrosStaking.sol\":7245:7255  amount > 0 */\n      dup3\n      iszero\n        /* \"contracts/ZephyrosStaking/ZephyrosStaking.sol\":7241:7383  if (amount > 0) {... */\n      tag_281\n      jumpi\n        /* \"contracts/ZephyrosStaking/ZephyrosStaking.sol\":7272:7328  core.safeTransferFrom(msg.sender, address(this), amount) */\n      tag_282\n      sub(shl(0xa0, 0x01), 0x01)\n        /* \"contracts/ZephyrosStaking/ZephyrosStaking.sol\":7272:7276  core */\n      immutable(\"0x8b953cbb84328003779eb1ef176ef07f7dd0ae3d4a8e408de53d15a36466c86e\")\n        /* \"contracts/ZephyrosStaking/ZephyrosStaking.sol\":7272:7293  core.safeTransferFrom */\n      and\n        /* \"contracts/ZephyrosStaking/ZephyrosStaking.sol\":7294:7304  msg.sender */\n      caller\n        /* \"contracts/ZephyrosStaking/ZephyrosStaking.sol\":7314:7318  this */\n      address\n        /* \"contracts/ZephyrosStaking/ZephyrosStaking.sol\":7321:7327  amount */\n      dup7\n        /* \"contracts/ZephyrosStaking/ZephyrosStaking.sol\":7272:7293  core.safeTransferFrom */\n      tag_283\n        /* \"contracts/ZephyrosStaking/ZephyrosStaking.sol\":7272:7328  core.safeTransferFrom(msg.sender, address(this), amount) */\n      jump\t// in\n    tag_282:\n        /* \"contracts/ZephyrosStaking/ZephyrosStaking.sol\":7365:7371  amount */\n      dup3\n        /* \"contracts/ZephyrosStaking/ZephyrosStaking.sol\":7343:7361  totalRewardsFunded */\n      0x0f\n      0x00\n        /* \"contracts/ZephyrosStaking/ZephyrosStaking.sol\":7343:7371  totalRewardsFunded += amount */\n      dup3\n      dup3\n      sload\n      tag_284\n      swap2\n      swap1\n      tag_229\n      jump\t// in\n    tag_284:\n      swap1\n      swap2\n      sstore\n      pop\n      pop\n        /* \"contracts/ZephyrosStaking/ZephyrosStaking.sol\":7241:7383  if (amount > 0) {... */\n    tag_281:\n        /* \"contracts/ZephyrosStaking/ZephyrosStaking.sol\":7395:7419  uint256 remainingRewards */\n      0x00\n        /* \"contracts/ZephyrosStaking/ZephyrosStaking.sol\":7453:7461  endBlock */\n      sload(0x0d)\n        /* \"contracts/ZephyrosStaking/ZephyrosStaking.sol\":7438:7450  block.number */\n      number\n        /* \"contracts/ZephyrosStaking/ZephyrosStaking.sol\":7438:7461  block.number < endBlock */\n      lt\n        /* \"contracts/ZephyrosStaking/ZephyrosStaking.sol\":7434:7551  if (block.number < endBlock) {... */\n      iszero\n      tag_285\n      jumpi\n        /* \"contracts/ZephyrosStaking/ZephyrosStaking.sol\":7525:7539  rewardPerBlock */\n      sload(0x0c)\n        /* \"contracts/ZephyrosStaking/ZephyrosStaking.sol\":7509:7521  block.number */\n      number\n        /* \"contracts/ZephyrosStaking/ZephyrosStaking.sol\":7498:7506  endBlock */\n      sload(0x0d)\n        /* \"contracts/ZephyrosStaking/ZephyrosStaking.sol\":7498:7521  endBlock - block.number */\n      tag_286\n      swap2\n      swap1\n      tag_231\n      jump\t// in\n    tag_286:\n        /* \"contracts/ZephyrosStaking/ZephyrosStaking.sol\":7497:7539  (endBlock - block.number) * rewardPerBlock */\n      tag_287\n      swap2\n      swap1\n      tag_225\n      jump\t// in\n    tag_287:\n        /* \"contracts/ZephyrosStaking/ZephyrosStaking.sol\":7478:7539  remainingRewards = (endBlock - block.number) * rewardPerBlock */\n      swap1\n      pop\n        /* \"contracts/ZephyrosStaking/ZephyrosStaking.sol\":7434:7551  if (block.number < endBlock) {... */\n    tag_285:\n        /* \"contracts/ZephyrosStaking/ZephyrosStaking.sol\":7563:7588  uint256 rewardsToSchedule */\n      0x00\n        /* \"contracts/ZephyrosStaking/ZephyrosStaking.sol\":7616:7632  remainingRewards */\n      dup2\n        /* \"contracts/ZephyrosStaking/ZephyrosStaking.sol\":7600:7613  queuedRewards */\n      sload(0x0e)\n        /* \"contracts/ZephyrosStaking/ZephyrosStaking.sol\":7591:7597  amount */\n      dup7\n        /* \"contracts/ZephyrosStaking/ZephyrosStaking.sol\":7591:7613  amount + queuedRewards */\n      tag_288\n      swap2\n      swap1\n      tag_229\n      jump\t// in\n    tag_288:\n        /* \"contracts/ZephyrosStaking/ZephyrosStaking.sol\":7591:7632  amount + queuedRewards + remainingRewards */\n      tag_289\n      swap2\n      swap1\n      tag_229\n      jump\t// in\n    tag_289:\n        /* \"contracts/ZephyrosStaking/ZephyrosStaking.sol\":7563:7632  uint256 rewardsToSchedule = amount + queuedRewards + remainingRewards */\n      swap1\n      pop\n        /* \"contracts/ZephyrosStaking/ZephyrosStaking.sol\":7671:7672  0 */\n      0x00\n        /* \"contracts/ZephyrosStaking/ZephyrosStaking.sol\":7651:7668  rewardsToSchedule */\n      dup2\n        /* \"contracts/ZephyrosStaking/ZephyrosStaking.sol\":7651:7672  rewardsToSchedule > 0 */\n      gt\n        /* \"contracts/ZephyrosStaking/ZephyrosStaking.sol\":7643:7682  require(rewardsToSchedule > 0, \"NOSCH\") */\n      tag_290\n      jumpi\n      mload(0x40)\n      shl(0xe5, 0x461bcd)\n      dup2\n      mstore\n        /* \"#utility.yul\":10889:10891   */\n      0x20\n        /* \"contracts/ZephyrosStaking/ZephyrosStaking.sol\":7643:7682  require(rewardsToSchedule > 0, \"NOSCH\") */\n      0x04\n      dup3\n      add\n        /* \"#utility.yul\":10871:10892   */\n      mstore\n        /* \"#utility.yul\":10928:10929   */\n      0x05\n        /* \"#utility.yul\":10908:10926   */\n      0x24\n      dup3\n      add\n        /* \"#utility.yul\":10901:10930   */\n      mstore\n      shl(0xdb, 0x09c9ea6869)\n        /* \"#utility.yul\":10946:10964   */\n      0x44\n      dup3\n      add\n        /* \"#utility.yul\":10939:10974   */\n      mstore\n        /* \"#utility.yul\":10991:11009   */\n      0x64\n      add\n        /* \"contracts/ZephyrosStaking/ZephyrosStaking.sol\":7643:7682  require(rewardsToSchedule > 0, \"NOSCH\") */\n      tag_236\n        /* \"#utility.yul\":10687:11015   */\n      jump\n        /* \"contracts/ZephyrosStaking/ZephyrosStaking.sol\":7643:7682  require(rewardsToSchedule > 0, \"NOSCH\") */\n    tag_290:\n        /* \"contracts/ZephyrosStaking/ZephyrosStaking.sol\":7712:7746  rewardsToSchedule / durationBlocks */\n      tag_293\n        /* \"contracts/ZephyrosStaking/ZephyrosStaking.sol\":7732:7746  durationBlocks */\n      dup5\n        /* \"contracts/ZephyrosStaking/ZephyrosStaking.sol\":7712:7729  rewardsToSchedule */\n      dup3\n        /* \"contracts/ZephyrosStaking/ZephyrosStaking.sol\":7712:7746  rewardsToSchedule / durationBlocks */\n      tag_227\n      jump\t// in\n    tag_293:\n        /* \"contracts/ZephyrosStaking/ZephyrosStaking.sol\":7695:7709  rewardPerBlock */\n      0x0c\n        /* \"contracts/ZephyrosStaking/ZephyrosStaking.sol\":7695:7746  rewardPerBlock = rewardsToSchedule / durationBlocks */\n      dup2\n      swap1\n      sstore\n        /* \"contracts/ZephyrosStaking/ZephyrosStaking.sol\":7757:7792  require(rewardPerBlock > 0, \"RPB0\") */\n      tag_294\n      jumpi\n      mload(0x40)\n      shl(0xe5, 0x461bcd)\n      dup2\n      mstore\n      0x04\n      add\n      tag_236\n      swap1\n        /* \"#utility.yul\":11222:11224   */\n      0x20\n        /* \"#utility.yul\":11204:11225   */\n      dup1\n      dup3\n      mstore\n        /* \"#utility.yul\":11261:11262   */\n      0x04\n        /* \"#utility.yul\":11241:11259   */\n      swap1\n      dup3\n      add\n        /* \"#utility.yul\":11234:11263   */\n      mstore\n      shl(0xe4, 0x05250423)\n        /* \"#utility.yul\":11294:11296   */\n      0x40\n        /* \"#utility.yul\":11279:11297   */\n      dup3\n      add\n        /* \"#utility.yul\":11272:11306   */\n      mstore\n        /* \"#utility.yul\":11338:11340   */\n      0x60\n        /* \"#utility.yul\":11323:11341   */\n      add\n      swap1\n        /* \"#utility.yul\":11020:11347   */\n      jump\n        /* \"contracts/ZephyrosStaking/ZephyrosStaking.sol\":7757:7792  require(rewardPerBlock > 0, \"RPB0\") */\n    tag_294:\n        /* \"contracts/ZephyrosStaking/ZephyrosStaking.sol\":7821:7822  0 */\n      0x00\n        /* \"contracts/ZephyrosStaking/ZephyrosStaking.sol\":7805:7818  queuedRewards */\n      0x0e\n        /* \"contracts/ZephyrosStaking/ZephyrosStaking.sol\":7805:7822  queuedRewards = 0 */\n      sstore\n        /* \"contracts/ZephyrosStaking/ZephyrosStaking.sol\":7851:7863  block.number */\n      number\n        /* \"contracts/ZephyrosStaking/ZephyrosStaking.sol\":7833:7848  lastRewardBlock */\n      0x0b\n        /* \"contracts/ZephyrosStaking/ZephyrosStaking.sol\":7833:7863  lastRewardBlock = block.number */\n      dup2\n      swap1\n      sstore\n        /* \"contracts/ZephyrosStaking/ZephyrosStaking.sol\":7885:7914  block.number + durationBlocks */\n      tag_297\n      swap1\n        /* \"contracts/ZephyrosStaking/ZephyrosStaking.sol\":7900:7914  durationBlocks */\n      dup6\n      swap1\n        /* \"contracts/ZephyrosStaking/ZephyrosStaking.sol\":7885:7914  block.number + durationBlocks */\n      tag_229\n      jump\t// in\n    tag_297:\n        /* \"contracts/ZephyrosStaking/ZephyrosStaking.sol\":7874:7882  endBlock */\n      0x0d\n        /* \"contracts/ZephyrosStaking/ZephyrosStaking.sol\":7874:7914  endBlock = block.number + durationBlocks */\n      dup2\n      swap1\n      sstore\n        /* \"contracts/ZephyrosStaking/ZephyrosStaking.sol\":7966:7979  queuedRewards */\n      sload(0x0e)\n        /* \"contracts/ZephyrosStaking/ZephyrosStaking.sol\":7997:8011  rewardPerBlock */\n      sload(0x0c)\n        /* \"contracts/ZephyrosStaking/ZephyrosStaking.sol\":7932:8022  RewardsFunded(msg.sender, amount, queuedRewards, durationBlocks, rewardPerBlock, endBlock) */\n      0x40\n      dup1\n      mload\n        /* \"#utility.yul\":11611:11636   */\n      dup10\n      dup2\n      mstore\n        /* \"#utility.yul\":11667:11669   */\n      0x20\n        /* \"#utility.yul\":11652:11670   */\n      dup2\n      add\n        /* \"#utility.yul\":11645:11679   */\n      swap4\n      swap1\n      swap4\n      mstore\n        /* \"#utility.yul\":11695:11713   */\n      dup3\n      add\n        /* \"#utility.yul\":11688:11722   */\n      dup8\n      swap1\n      mstore\n        /* \"#utility.yul\":11753:11755   */\n      0x60\n        /* \"#utility.yul\":11738:11756   */\n      dup3\n      add\n        /* \"#utility.yul\":11731:11765   */\n      mstore\n        /* \"#utility.yul\":11796:11799   */\n      0x80\n        /* \"#utility.yul\":11781:11800   */\n      dup2\n      add\n        /* \"#utility.yul\":11774:11809   */\n      swap2\n      swap1\n      swap2\n      mstore\n        /* \"contracts/ZephyrosStaking/ZephyrosStaking.sol\":7946:7956  msg.sender */\n      caller\n      swap1\n        /* \"contracts/ZephyrosStaking/ZephyrosStaking.sol\":7932:8022  RewardsFunded(msg.sender, amount, queuedRewards, durationBlocks, rewardPerBlock, endBlock) */\n      0x6bed4a021812b8a263610260560ff7c218c042029458224275fe81c573f4cc03\n      swap1\n        /* \"#utility.yul\":11598:11601   */\n      0xa0\n        /* \"#utility.yul\":11583:11602   */\n      add\n        /* \"contracts/ZephyrosStaking/ZephyrosStaking.sol\":7932:8022  RewardsFunded(msg.sender, amount, queuedRewards, durationBlocks, rewardPerBlock, endBlock) */\n      mload(0x40)\n      dup1\n      swap2\n      sub\n      swap1\n      log2\n        /* \"contracts/ZephyrosStaking/ZephyrosStaking.sol\":7122:8030  {... */\n      pop\n      pop\n        /* \"https://github.com/OpenZeppelin/openzeppelin-contracts/blob/v5.0.2/contracts/utils/ReentrancyGuard.sol\":2387:2388  _ */\n      pop\n        /* \"https://github.com/OpenZeppelin/openzeppelin-contracts/blob/v5.0.2/contracts/utils/ReentrancyGuard.sol\":2398:2418  _nonReentrantAfter() */\n      tag_300\n        /* \"https://github.com/OpenZeppelin/openzeppelin-contracts/blob/v5.0.2/contracts/utils/ReentrancyGuard.sol\":1713:1714  1 */\n      0x01\n        /* \"https://github.com/OpenZeppelin/openzeppelin-contracts/blob/v5.0.2/contracts/utils/ReentrancyGuard.sol\":2924:2945  _status = NOT_ENTERED */\n      dup1\n      sstore\n        /* \"https://github.com/OpenZeppelin/openzeppelin-contracts/blob/v5.0.2/contracts/utils/ReentrancyGuard.sol\":2744:2952  function _nonReentrantAfter() private {... */\n      jump\n        /* \"https://github.com/OpenZeppelin/openzeppelin-contracts/blob/v5.0.2/contracts/utils/ReentrancyGuard.sol\":2398:2418  _nonReentrantAfter() */\n    tag_300:\n        /* \"contracts/ZephyrosStaking/ZephyrosStaking.sol\":7004:8030  function fundRewards(uint256 amount, uint256 durationBlocks) external onlyAdmin nonReentrant updateReward(address(0)) {... */\n      pop\n      pop\n      jump\t// out\n        /* \"contracts/ZephyrosStaking/ZephyrosStaking.sol\":6728:6996  function setWhitelistedBackground(string calldata background, bool allowed) external onlyAdmin {... */\n    tag_104:\n        /* \"contracts/ZephyrosStaking/ZephyrosStaking.sol\":4963:4973  msg.sender */\n      caller\n        /* \"contracts/ZephyrosStaking/ZephyrosStaking.sol\":4955:4974  isAdmin[msg.sender] */\n      0x00\n      swap1\n      dup2\n      mstore\n        /* \"contracts/ZephyrosStaking/ZephyrosStaking.sol\":4955:4962  isAdmin */\n      0x02\n        /* \"contracts/ZephyrosStaking/ZephyrosStaking.sol\":4955:4974  isAdmin[msg.sender] */\n      0x20\n      mstore\n      0x40\n      swap1\n      keccak256\n      sload\n      0xff\n      and\n      dup1\n        /* \"contracts/ZephyrosStaking/ZephyrosStaking.sol\":4955:4999  isAdmin[msg.sender] || msg.sender == owner() */\n      tag_303\n      jumpi\n      pop\n        /* \"https://github.com/OpenZeppelin/openzeppelin-contracts/blob/v5.0.2/contracts/access/Ownable.sol\":1684:1691  address */\n      0x00\n        /* \"https://github.com/OpenZeppelin/openzeppelin-contracts/blob/v5.0.2/contracts/access/Ownable.sol\":1710:1716  _owner */\n      sload\n      sub(shl(0xa0, 0x01), 0x01)\n      and\n        /* \"contracts/ZephyrosStaking/ZephyrosStaking.sol\":4978:4988  msg.sender */\n      caller\n        /* \"contracts/ZephyrosStaking/ZephyrosStaking.sol\":4978:4999  msg.sender == owner() */\n      eq\n        /* \"contracts/ZephyrosStaking/ZephyrosStaking.sol\":4955:4999  isAdmin[msg.sender] || msg.sender == owner() */\n    tag_303:\n        /* \"contracts/ZephyrosStaking/ZephyrosStaking.sol\":4947:5013  require(isAdmin[msg.sender] || msg.sender == owner(), \"Not admin\") */\n      tag_305\n      jumpi\n      mload(0x40)\n      shl(0xe5, 0x461bcd)\n      dup2\n      mstore\n      0x04\n      add\n      tag_236\n      swap1\n      tag_237\n      jump\t// in\n    tag_305:\n        /* \"contracts/ZephyrosStaking/ZephyrosStaking.sol\":6834:6846  bytes32 hash */\n      0x00\n        /* \"contracts/ZephyrosStaking/ZephyrosStaking.sol\":6865:6875  background */\n      dup4\n      dup4\n        /* \"contracts/ZephyrosStaking/ZephyrosStaking.sol\":6849:6877  keccak256(bytes(background)) */\n      mload(0x40)\n      tag_308\n      swap3\n      swap2\n      swap1\n      tag_309\n      jump\t// in\n    tag_308:\n      0x40\n      dup1\n      mload\n      swap2\n      dup3\n      swap1\n      sub\n      dup3\n      keccak256\n        /* \"contracts/ZephyrosStaking/ZephyrosStaking.sol\":6888:6919  whitelistedBackgroundHash[hash] */\n      0x00\n      dup2\n      dup2\n      mstore\n        /* \"contracts/ZephyrosStaking/ZephyrosStaking.sol\":6888:6913  whitelistedBackgroundHash */\n      0x05\n        /* \"contracts/ZephyrosStaking/ZephyrosStaking.sol\":6888:6919  whitelistedBackgroundHash[hash] */\n      0x20\n      mstore\n      swap2\n      swap1\n      swap2\n      keccak256\n        /* \"contracts/ZephyrosStaking/ZephyrosStaking.sol\":6888:6929  whitelistedBackgroundHash[hash] = allowed */\n      dup1\n      sload\n      not(0xff)\n      and\n      dup6\n      iszero\n      iszero\n      or\n      swap1\n      sstore\n        /* \"contracts/ZephyrosStaking/ZephyrosStaking.sol\":6849:6877  keccak256(bytes(background)) */\n      swap2\n      pop\n        /* \"contracts/ZephyrosStaking/ZephyrosStaking.sol\":6945:6988  BackgroundWhitelistSet(background, allowed) */\n      0x36363b339b00adcc7a4533e32d4cc7ca00ee5fc3569c6925927302ff1dc5e9a5\n      swap1\n      tag_310\n      swap1\n        /* \"contracts/ZephyrosStaking/ZephyrosStaking.sol\":6968:6978  background */\n      dup7\n      swap1\n      dup7\n      swap1\n        /* \"contracts/ZephyrosStaking/ZephyrosStaking.sol\":6888:6929  whitelistedBackgroundHash[hash] = allowed */\n      dup7\n      swap1\n        /* \"contracts/ZephyrosStaking/ZephyrosStaking.sol\":6945:6988  BackgroundWhitelistSet(background, allowed) */\n      tag_311\n      jump\t// in\n    tag_310:\n      mload(0x40)\n      dup1\n      swap2\n      sub\n      swap1\n      log1\n        /* \"contracts/ZephyrosStaking/ZephyrosStaking.sol\":6823:6996  {... */\n      pop\n        /* \"contracts/ZephyrosStaking/ZephyrosStaking.sol\":6728:6996  function setWhitelistedBackground(string calldata background, bool allowed) external onlyAdmin {... */\n      pop\n      pop\n      pop\n      jump\t// out\n        /* \"contracts/ZephyrosStaking/ZephyrosStaking.sol\":15853:15995  function lastRewardBlockApplicable() public view returns (uint256) {... */\n    tag_111:\n        /* \"contracts/ZephyrosStaking/ZephyrosStaking.sol\":15911:15918  uint256 */\n      0x00\n        /* \"contracts/ZephyrosStaking/ZephyrosStaking.sol\":15953:15961  endBlock */\n      sload(0x0d)\n        /* \"contracts/ZephyrosStaking/ZephyrosStaking.sol\":15938:15950  block.number */\n      number\n        /* \"contracts/ZephyrosStaking/ZephyrosStaking.sol\":15938:15961  block.number < endBlock */\n      lt\n        /* \"contracts/ZephyrosStaking/ZephyrosStaking.sol\":15938:15987  block.number < endBlock ? block.number : endBlock */\n      tag_313\n      jumpi\n      pop\n        /* \"contracts/ZephyrosStaking/ZephyrosStaking.sol\":15979:15987  endBlock */\n      sload(0x0d)\n      swap1\n        /* \"contracts/ZephyrosStaking/ZephyrosStaking.sol\":15853:15995  function lastRewardBlockApplicable() public view returns (uint256) {... */\n      jump\t// out\n        /* \"contracts/ZephyrosStaking/ZephyrosStaking.sol\":15938:15987  block.number < endBlock ? block.number : endBlock */\n    tag_313:\n      pop\n        /* \"contracts/ZephyrosStaking/ZephyrosStaking.sol\":15964:15976  block.number */\n      number\n      swap1\n        /* \"contracts/ZephyrosStaking/ZephyrosStaking.sol\":15853:15995  function lastRewardBlockApplicable() public view returns (uint256) {... */\n      jump\t// out\n        /* \"contracts/ZephyrosStaking/ZephyrosStaking.sol\":10106:10207  function claim() external nonReentrant updateReward(msg.sender) {... */\n    tag_114:\n        /* \"https://github.com/OpenZeppelin/openzeppelin-contracts/blob/v5.0.2/contracts/utils/ReentrancyGuard.sol\":2356:2377  _nonReentrantBefore() */\n      tag_316\n        /* \"https://github.com/OpenZeppelin/openzeppelin-contracts/blob/v5.0.2/contracts/utils/ReentrancyGuard.sol\":2356:2375  _nonReentrantBefore */\n      tag_262\n        /* \"https://github.com/OpenZeppelin/openzeppelin-contracts/blob/v5.0.2/contracts/utils/ReentrancyGuard.sol\":2356:2377  _nonReentrantBefore() */\n      jump\t// in\n    tag_316:\n        /* \"contracts/ZephyrosStaking/ZephyrosStaking.sol\":10158:10168  msg.sender */\n      caller\n        /* \"contracts/ZephyrosStaking/ZephyrosStaking.sol\":16243:16271  _currentAccRewardPerWeight() */\n      tag_318\n        /* \"contracts/ZephyrosStaking/ZephyrosStaking.sol\":16243:16269  _currentAccRewardPerWeight */\n      tag_223\n        /* \"contracts/ZephyrosStaking/ZephyrosStaking.sol\":16243:16271  _currentAccRewardPerWeight() */\n      jump\t// in\n    tag_318:\n        /* \"contracts/ZephyrosStaking/ZephyrosStaking.sol\":16222:16240  accRewardPerWeight */\n      0x0a\n        /* \"contracts/ZephyrosStaking/ZephyrosStaking.sol\":16222:16271  accRewardPerWeight = _currentAccRewardPerWeight() */\n      sstore\n        /* \"contracts/ZephyrosStaking/ZephyrosStaking.sol\":16300:16327  lastRewardBlockApplicable() */\n      tag_319\n        /* \"contracts/ZephyrosStaking/ZephyrosStaking.sol\":16300:16325  lastRewardBlockApplicable */\n      tag_111\n        /* \"contracts/ZephyrosStaking/ZephyrosStaking.sol\":16300:16327  lastRewardBlockApplicable() */\n      jump\t// in\n    tag_319:\n        /* \"contracts/ZephyrosStaking/ZephyrosStaking.sol\":16282:16297  lastRewardBlock */\n      0x0b\n        /* \"contracts/ZephyrosStaking/ZephyrosStaking.sol\":16282:16327  lastRewardBlock = lastRewardBlockApplicable() */\n      sstore\n      sub(shl(0xa0, 0x01), 0x01)\n        /* \"contracts/ZephyrosStaking/ZephyrosStaking.sol\":16344:16365  account != address(0) */\n      dup2\n      and\n      iszero\n        /* \"contracts/ZephyrosStaking/ZephyrosStaking.sol\":16340:16683  if (account != address(0)) {... */\n      tag_320\n      jumpi\n      sub(shl(0xa0, 0x01), 0x01)\n        /* \"contracts/ZephyrosStaking/ZephyrosStaking.sol\":16406:16420  users[account] */\n      dup2\n      and\n        /* \"contracts/ZephyrosStaking/ZephyrosStaking.sol\":16382:16403  UserInfo storage user */\n      0x00\n        /* \"contracts/ZephyrosStaking/ZephyrosStaking.sol\":16406:16420  users[account] */\n      swap1\n      dup2\n      mstore\n        /* \"contracts/ZephyrosStaking/ZephyrosStaking.sol\":16406:16411  users */\n      0x06\n        /* \"contracts/ZephyrosStaking/ZephyrosStaking.sol\":16406:16420  users[account] */\n      0x20\n      mstore\n      0x40\n      dup2\n      keccak256\n        /* \"contracts/ZephyrosStaking/ZephyrosStaking.sol\":16478:16496  accRewardPerWeight */\n      sload(0x0a)\n        /* \"contracts/ZephyrosStaking/ZephyrosStaking.sol\":16458:16475  user.rewardWeight */\n      0x01\n      dup3\n      add\n      sload\n        /* \"contracts/ZephyrosStaking/ZephyrosStaking.sol\":16406:16420  users[account] */\n      swap2\n      swap3\n        /* \"contracts/ZephyrosStaking/ZephyrosStaking.sol\":16382:16403  UserInfo storage user */\n      swap2\n        /* \"contracts/ZephyrosStaking/ZephyrosStaking.sol\":1877:1881  1e24 */\n      0xd3c21bcecceda1000000\n      swap2\n        /* \"contracts/ZephyrosStaking/ZephyrosStaking.sol\":16458:16496  user.rewardWeight * accRewardPerWeight */\n      tag_321\n      swap2\n      tag_225\n      jump\t// in\n    tag_321:\n        /* \"contracts/ZephyrosStaking/ZephyrosStaking.sol\":16457:16513  (user.rewardWeight * accRewardPerWeight) / ACC_PRECISION */\n      tag_322\n      swap2\n      swap1\n      tag_227\n      jump\t// in\n    tag_322:\n        /* \"contracts/ZephyrosStaking/ZephyrosStaking.sol\":16435:16513  uint256 accumulated = (user.rewardWeight * accRewardPerWeight) / ACC_PRECISION */\n      swap1\n      pop\n        /* \"contracts/ZephyrosStaking/ZephyrosStaking.sol\":16567:16571  user */\n      dup2\n        /* \"contracts/ZephyrosStaking/ZephyrosStaking.sol\":16567:16582  user.rewardDebt */\n      0x02\n      add\n      sload\n        /* \"contracts/ZephyrosStaking/ZephyrosStaking.sol\":16553:16564  accumulated */\n      dup2\n        /* \"contracts/ZephyrosStaking/ZephyrosStaking.sol\":16553:16582  accumulated - user.rewardDebt */\n      tag_323\n      swap2\n      swap1\n      tag_231\n      jump\t// in\n    tag_323:\n        /* \"contracts/ZephyrosStaking/ZephyrosStaking.sol\":16528:16532  user */\n      dup3\n        /* \"contracts/ZephyrosStaking/ZephyrosStaking.sol\":16528:16549  user.unclaimedRewards */\n      0x03\n      add\n      0x00\n        /* \"contracts/ZephyrosStaking/ZephyrosStaking.sol\":16528:16582  user.unclaimedRewards += accumulated - user.rewardDebt */\n      dup3\n      dup3\n      sload\n      tag_324\n      swap2\n      swap1\n      tag_229\n      jump\t// in\n    tag_324:\n      swap1\n      swap2\n      sstore\n      pop\n      pop\n        /* \"contracts/ZephyrosStaking/ZephyrosStaking.sol\":16636:16654  accRewardPerWeight */\n      sload(0x0a)\n        /* \"contracts/ZephyrosStaking/ZephyrosStaking.sol\":16616:16633  user.rewardWeight */\n      0x01\n      dup4\n      add\n      sload\n        /* \"contracts/ZephyrosStaking/ZephyrosStaking.sol\":1877:1881  1e24 */\n      0xd3c21bcecceda1000000\n      swap2\n        /* \"contracts/ZephyrosStaking/ZephyrosStaking.sol\":16616:16654  user.rewardWeight * accRewardPerWeight */\n      tag_325\n      swap2\n      tag_225\n      jump\t// in\n    tag_325:\n        /* \"contracts/ZephyrosStaking/ZephyrosStaking.sol\":16615:16671  (user.rewardWeight * accRewardPerWeight) / ACC_PRECISION */\n      tag_326\n      swap2\n      swap1\n      tag_227\n      jump\t// in\n    tag_326:\n        /* \"contracts/ZephyrosStaking/ZephyrosStaking.sol\":16597:16601  user */\n      dup3\n        /* \"contracts/ZephyrosStaking/ZephyrosStaking.sol\":16597:16612  user.rewardDebt */\n      0x02\n      add\n        /* \"contracts/ZephyrosStaking/ZephyrosStaking.sol\":16597:16671  user.rewardDebt = (user.rewardWeight * accRewardPerWeight) / ACC_PRECISION */\n      dup2\n      swap1\n      sstore\n      pop\n        /* \"contracts/ZephyrosStaking/ZephyrosStaking.sol\":16367:16683  {... */\n      pop\n      pop\n        /* \"contracts/ZephyrosStaking/ZephyrosStaking.sol\":16340:16683  if (account != address(0)) {... */\n    tag_320:\n        /* \"contracts/ZephyrosStaking/ZephyrosStaking.sol\":10181:10199  _claim(msg.sender) */\n      tag_328\n        /* \"contracts/ZephyrosStaking/ZephyrosStaking.sol\":10188:10198  msg.sender */\n      caller\n        /* \"contracts/ZephyrosStaking/ZephyrosStaking.sol\":10181:10187  _claim */\n      tag_329\n        /* \"contracts/ZephyrosStaking/ZephyrosStaking.sol\":10181:10199  _claim(msg.sender) */\n      jump\t// in\n    tag_328:\n        /* \"https://github.com/OpenZeppelin/openzeppelin-contracts/blob/v5.0.2/contracts/utils/ReentrancyGuard.sol\":2387:2388  _ */\n      pop\n        /* \"https://github.com/OpenZeppelin/openzeppelin-contracts/blob/v5.0.2/contracts/utils/ReentrancyGuard.sol\":2398:2418  _nonReentrantAfter() */\n      tag_330\n        /* \"https://github.com/OpenZeppelin/openzeppelin-contracts/blob/v5.0.2/contracts/utils/ReentrancyGuard.sol\":1713:1714  1 */\n      0x01\n        /* \"https://github.com/OpenZeppelin/openzeppelin-contracts/blob/v5.0.2/contracts/utils/ReentrancyGuard.sol\":2924:2945  _status = NOT_ENTERED */\n      dup1\n      sstore\n        /* \"https://github.com/OpenZeppelin/openzeppelin-contracts/blob/v5.0.2/contracts/utils/ReentrancyGuard.sol\":2744:2952  function _nonReentrantAfter() private {... */\n      jump\n        /* \"https://github.com/OpenZeppelin/openzeppelin-contracts/blob/v5.0.2/contracts/utils/ReentrancyGuard.sol\":2398:2418  _nonReentrantAfter() */\n    tag_330:\n        /* \"contracts/ZephyrosStaking/ZephyrosStaking.sol\":10106:10207  function claim() external nonReentrant updateReward(msg.sender) {... */\n      jump\t// out\n        /* \"contracts/ZephyrosStaking/ZephyrosStaking.sol\":9513:10098  function stakeCore(uint256 amount) external nonReentrant updateReward(msg.sender) {... */\n    tag_118:\n        /* \"https://github.com/OpenZeppelin/openzeppelin-contracts/blob/v5.0.2/contracts/utils/ReentrancyGuard.sol\":2356:2377  _nonReentrantBefore() */\n      tag_332\n        /* \"https://github.com/OpenZeppelin/openzeppelin-contracts/blob/v5.0.2/contracts/utils/ReentrancyGuard.sol\":2356:2375  _nonReentrantBefore */\n      tag_262\n        /* \"https://github.com/OpenZeppelin/openzeppelin-contracts/blob/v5.0.2/contracts/utils/ReentrancyGuard.sol\":2356:2377  _nonReentrantBefore() */\n      jump\t// in\n    tag_332:\n        /* \"contracts/ZephyrosStaking/ZephyrosStaking.sol\":9583:9593  msg.sender */\n      caller\n        /* \"contracts/ZephyrosStaking/ZephyrosStaking.sol\":16243:16271  _currentAccRewardPerWeight() */\n      tag_334\n        /* \"contracts/ZephyrosStaking/ZephyrosStaking.sol\":16243:16269  _currentAccRewardPerWeight */\n      tag_223\n        /* \"contracts/ZephyrosStaking/ZephyrosStaking.sol\":16243:16271  _currentAccRewardPerWeight() */\n      jump\t// in\n    tag_334:\n        /* \"contracts/ZephyrosStaking/ZephyrosStaking.sol\":16222:16240  accRewardPerWeight */\n      0x0a\n        /* \"contracts/ZephyrosStaking/ZephyrosStaking.sol\":16222:16271  accRewardPerWeight = _currentAccRewardPerWeight() */\n      sstore\n        /* \"contracts/ZephyrosStaking/ZephyrosStaking.sol\":16300:16327  lastRewardBlockApplicable() */\n      tag_335\n        /* \"contracts/ZephyrosStaking/ZephyrosStaking.sol\":16300:16325  lastRewardBlockApplicable */\n      tag_111\n        /* \"contracts/ZephyrosStaking/ZephyrosStaking.sol\":16300:16327  lastRewardBlockApplicable() */\n      jump\t// in\n    tag_335:\n        /* \"contracts/ZephyrosStaking/ZephyrosStaking.sol\":16282:16297  lastRewardBlock */\n      0x0b\n        /* \"contracts/ZephyrosStaking/ZephyrosStaking.sol\":16282:16327  lastRewardBlock = lastRewardBlockApplicable() */\n      sstore\n      sub(shl(0xa0, 0x01), 0x01)\n        /* \"contracts/ZephyrosStaking/ZephyrosStaking.sol\":16344:16365  account != address(0) */\n      dup2\n      and\n      iszero\n        /* \"contracts/ZephyrosStaking/ZephyrosStaking.sol\":16340:16683  if (account != address(0)) {... */\n      tag_336\n      jumpi\n      sub(shl(0xa0, 0x01), 0x01)\n        /* \"contracts/ZephyrosStaking/ZephyrosStaking.sol\":16406:16420  users[account] */\n      dup2\n      and\n        /* \"contracts/ZephyrosStaking/ZephyrosStaking.sol\":16382:16403  UserInfo storage user */\n      0x00\n        /* \"contracts/ZephyrosStaking/ZephyrosStaking.sol\":16406:16420  users[account] */\n      swap1\n      dup2\n      mstore\n        /* \"contracts/ZephyrosStaking/ZephyrosStaking.sol\":16406:16411  users */\n      0x06\n        /* \"contracts/ZephyrosStaking/ZephyrosStaking.sol\":16406:16420  users[account] */\n      0x20\n      mstore\n      0x40\n      dup2\n      keccak256\n        /* \"contracts/ZephyrosStaking/ZephyrosStaking.sol\":16478:16496  accRewardPerWeight */\n      sload(0x0a)\n        /* \"contracts/ZephyrosStaking/ZephyrosStaking.sol\":16458:16475  user.rewardWeight */\n      0x01\n      dup3\n      add\n      sload\n        /* \"contracts/ZephyrosStaking/ZephyrosStaking.sol\":16406:16420  users[account] */\n      swap2\n      swap3\n        /* \"contracts/ZephyrosStaking/ZephyrosStaking.sol\":16382:16403  UserInfo storage user */\n      swap2\n        /* \"contracts/ZephyrosStaking/ZephyrosStaking.sol\":1877:1881  1e24 */\n      0xd3c21bcecceda1000000\n      swap2\n        /* \"contracts/ZephyrosStaking/ZephyrosStaking.sol\":16458:16496  user.rewardWeight * accRewardPerWeight */\n      tag_337\n      swap2\n      tag_225\n      jump\t// in\n    tag_337:\n        /* \"contracts/ZephyrosStaking/ZephyrosStaking.sol\":16457:16513  (user.rewardWeight * accRewardPerWeight) / ACC_PRECISION */\n      tag_338\n      swap2\n      swap1\n      tag_227\n      jump\t// in\n    tag_338:\n        /* \"contracts/ZephyrosStaking/ZephyrosStaking.sol\":16435:16513  uint256 accumulated = (user.rewardWeight * accRewardPerWeight) / ACC_PRECISION */\n      swap1\n      pop\n        /* \"contracts/ZephyrosStaking/ZephyrosStaking.sol\":16567:16571  user */\n      dup2\n        /* \"contracts/ZephyrosStaking/ZephyrosStaking.sol\":16567:16582  user.rewardDebt */\n      0x02\n      add\n      sload\n        /* \"contracts/ZephyrosStaking/ZephyrosStaking.sol\":16553:16564  accumulated */\n      dup2\n        /* \"contracts/ZephyrosStaking/ZephyrosStaking.sol\":16553:16582  accumulated - user.rewardDebt */\n      tag_339\n      swap2\n      swap1\n      tag_231\n      jump\t// in\n    tag_339:\n        /* \"contracts/ZephyrosStaking/ZephyrosStaking.sol\":16528:16532  user */\n      dup3\n        /* \"contracts/ZephyrosStaking/ZephyrosStaking.sol\":16528:16549  user.unclaimedRewards */\n      0x03\n      add\n      0x00\n        /* \"contracts/ZephyrosStaking/ZephyrosStaking.sol\":16528:16582  user.unclaimedRewards += accumulated - user.rewardDebt */\n      dup3\n      dup3\n      sload\n      tag_340\n      swap2\n      swap1\n      tag_229\n      jump\t// in\n    tag_340:\n      swap1\n      swap2\n      sstore\n      pop\n      pop\n        /* \"contracts/ZephyrosStaking/ZephyrosStaking.sol\":16636:16654  accRewardPerWeight */\n      sload(0x0a)\n        /* \"contracts/ZephyrosStaking/ZephyrosStaking.sol\":16616:16633  user.rewardWeight */\n      0x01\n      dup4\n      add\n      sload\n        /* \"contracts/ZephyrosStaking/ZephyrosStaking.sol\":1877:1881  1e24 */\n      0xd3c21bcecceda1000000\n      swap2\n        /* \"contracts/ZephyrosStaking/ZephyrosStaking.sol\":16616:16654  user.rewardWeight * accRewardPerWeight */\n      tag_341\n      swap2\n      tag_225\n      jump\t// in\n    tag_341:\n        /* \"contracts/ZephyrosStaking/ZephyrosStaking.sol\":16615:16671  (user.rewardWeight * accRewardPerWeight) / ACC_PRECISION */\n      tag_342\n      swap2\n      swap1\n      tag_227\n      jump\t// in\n    tag_342:\n        /* \"contracts/ZephyrosStaking/ZephyrosStaking.sol\":16597:16601  user */\n      dup3\n        /* \"contracts/ZephyrosStaking/ZephyrosStaking.sol\":16597:16612  user.rewardDebt */\n      0x02\n      add\n        /* \"contracts/ZephyrosStaking/ZephyrosStaking.sol\":16597:16671  user.rewardDebt = (user.rewardWeight * accRewardPerWeight) / ACC_PRECISION */\n      dup2\n      swap1\n      sstore\n      pop\n        /* \"contracts/ZephyrosStaking/ZephyrosStaking.sol\":16367:16683  {... */\n      pop\n      pop\n        /* \"contracts/ZephyrosStaking/ZephyrosStaking.sol\":16340:16683  if (account != address(0)) {... */\n    tag_336:\n        /* \"contracts/ZephyrosStaking/ZephyrosStaking.sol\":9623:9624  0 */\n      0x00\n        /* \"contracts/ZephyrosStaking/ZephyrosStaking.sol\":9614:9620  amount */\n      dup3\n        /* \"contracts/ZephyrosStaking/ZephyrosStaking.sol\":9614:9624  amount > 0 */\n      gt\n        /* \"contracts/ZephyrosStaking/ZephyrosStaking.sol\":9606:9633  require(amount > 0, \"AMT0\") */\n      tag_344\n      jumpi\n      mload(0x40)\n      shl(0xe5, 0x461bcd)\n      dup2\n      mstore\n      0x04\n      add\n      tag_236\n      swap1\n        /* \"#utility.yul\":12776:12778   */\n      0x20\n        /* \"#utility.yul\":12758:12779   */\n      dup1\n      dup3\n      mstore\n        /* \"#utility.yul\":12815:12816   */\n      0x04\n        /* \"#utility.yul\":12795:12813   */\n      swap1\n      dup3\n      add\n        /* \"#utility.yul\":12788:12817   */\n      mstore\n      shl(0xe4, 0x0414d543)\n        /* \"#utility.yul\":12848:12850   */\n      0x40\n        /* \"#utility.yul\":12833:12851   */\n      dup3\n      add\n        /* \"#utility.yul\":12826:12860   */\n      mstore\n        /* \"#utility.yul\":12892:12894   */\n      0x60\n        /* \"#utility.yul\":12877:12895   */\n      add\n      swap1\n        /* \"#utility.yul\":12574:12901   */\n      jump\n        /* \"contracts/ZephyrosStaking/ZephyrosStaking.sol\":9606:9633  require(amount > 0, \"AMT0\") */\n    tag_344:\n        /* \"contracts/ZephyrosStaking/ZephyrosStaking.sol\":9676:9686  msg.sender */\n      caller\n        /* \"contracts/ZephyrosStaking/ZephyrosStaking.sol\":9646:9667  UserInfo storage user */\n      0x00\n        /* \"contracts/ZephyrosStaking/ZephyrosStaking.sol\":9670:9687  users[msg.sender] */\n      swap1\n      dup2\n      mstore\n        /* \"contracts/ZephyrosStaking/ZephyrosStaking.sol\":9670:9675  users */\n      0x06\n        /* \"contracts/ZephyrosStaking/ZephyrosStaking.sol\":9670:9687  users[msg.sender] */\n      0x20\n      mstore\n      0x40\n      swap1\n      keccak256\n        /* \"contracts/ZephyrosStaking/ZephyrosStaking.sol\":9706:9715  user.nfts */\n      0x05\n      dup2\n      add\n        /* \"contracts/ZephyrosStaking/ZephyrosStaking.sol\":9706:9722  user.nfts.length */\n      sload\n        /* \"contracts/ZephyrosStaking/ZephyrosStaking.sol\":9726:9727  1 */\n      0x01\n      gt\n        /* \"contracts/ZephyrosStaking/ZephyrosStaking.sol\":9706:9727  user.nfts.length >= 1 */\n      iszero\n        /* \"contracts/ZephyrosStaking/ZephyrosStaking.sol\":9698:9738  require(user.nfts.length >= 1, \"NFTREQ\") */\n      tag_347\n      jumpi\n      mload(0x40)\n      shl(0xe5, 0x461bcd)\n      dup2\n      mstore\n        /* \"#utility.yul\":13108:13110   */\n      0x20\n        /* \"contracts/ZephyrosStaking/ZephyrosStaking.sol\":9698:9738  require(user.nfts.length >= 1, \"NFTREQ\") */\n      0x04\n      dup3\n      add\n        /* \"#utility.yul\":13090:13111   */\n      mstore\n        /* \"#utility.yul\":13147:13148   */\n      0x06\n        /* \"#utility.yul\":13127:13145   */\n      0x24\n      dup3\n      add\n        /* \"#utility.yul\":13120:13149   */\n      mstore\n      shl(0xd0, 0x4e4654524551)\n        /* \"#utility.yul\":13165:13183   */\n      0x44\n      dup3\n      add\n        /* \"#utility.yul\":13158:13194   */\n      mstore\n        /* \"#utility.yul\":13211:13229   */\n      0x64\n      add\n        /* \"contracts/ZephyrosStaking/ZephyrosStaking.sol\":9698:9738  require(user.nfts.length >= 1, \"NFTREQ\") */\n      tag_236\n        /* \"#utility.yul\":12906:13235   */\n      jump\n        /* \"contracts/ZephyrosStaking/ZephyrosStaking.sol\":9698:9738  require(user.nfts.length >= 1, \"NFTREQ\") */\n    tag_347:\n        /* \"contracts/ZephyrosStaking/ZephyrosStaking.sol\":9757:9772  user.coreStaked */\n      dup1\n      sload\n        /* \"contracts/ZephyrosStaking/ZephyrosStaking.sol\":1108:1120  10_000 ether */\n      0x021e19e0c9bab2400000\n      swap1\n        /* \"contracts/ZephyrosStaking/ZephyrosStaking.sol\":9757:9781  user.coreStaked + amount */\n      tag_350\n      swap1\n        /* \"contracts/ZephyrosStaking/ZephyrosStaking.sol\":9775:9781  amount */\n      dup6\n      swap1\n        /* \"contracts/ZephyrosStaking/ZephyrosStaking.sol\":9757:9781  user.coreStaked + amount */\n      tag_229\n      jump\t// in\n    tag_350:\n        /* \"contracts/ZephyrosStaking/ZephyrosStaking.sol\":9757:9799  user.coreStaked + amount <= MAX_CORE_STAKE */\n      gt\n      iszero\n        /* \"contracts/ZephyrosStaking/ZephyrosStaking.sol\":9749:9811  require(user.coreStaked + amount <= MAX_CORE_STAKE, \"MAXCORE\") */\n      tag_351\n      jumpi\n      mload(0x40)\n      shl(0xe5, 0x461bcd)\n      dup2\n      mstore\n        /* \"#utility.yul\":13442:13444   */\n      0x20\n        /* \"contracts/ZephyrosStaking/ZephyrosStaking.sol\":9749:9811  require(user.coreStaked + amount <= MAX_CORE_STAKE, \"MAXCORE\") */\n      0x04\n      dup3\n      add\n        /* \"#utility.yul\":13424:13445   */\n      mstore\n        /* \"#utility.yul\":13481:13482   */\n      0x07\n        /* \"#utility.yul\":13461:13479   */\n      0x24\n      dup3\n      add\n        /* \"#utility.yul\":13454:13483   */\n      mstore\n      shl(0xc8, 0x4d4158434f5245)\n        /* \"#utility.yul\":13499:13517   */\n      0x44\n      dup3\n      add\n        /* \"#utility.yul\":13492:13529   */\n      mstore\n        /* \"#utility.yul\":13546:13564   */\n      0x64\n      add\n        /* \"contracts/ZephyrosStaking/ZephyrosStaking.sol\":9749:9811  require(user.coreStaked + amount <= MAX_CORE_STAKE, \"MAXCORE\") */\n      tag_236\n        /* \"#utility.yul\":13240:13570   */\n      jump\n        /* \"contracts/ZephyrosStaking/ZephyrosStaking.sol\":9749:9811  require(user.coreStaked + amount <= MAX_CORE_STAKE, \"MAXCORE\") */\n    tag_351:\n        /* \"contracts/ZephyrosStaking/ZephyrosStaking.sol\":9841:9856  block.timestamp */\n      timestamp\n        /* \"contracts/ZephyrosStaking/ZephyrosStaking.sol\":9824:9838  user.entryTime */\n      0x04\n      dup3\n      add\n        /* \"contracts/ZephyrosStaking/ZephyrosStaking.sol\":9824:9856  user.entryTime = block.timestamp */\n      sstore\n        /* \"contracts/ZephyrosStaking/ZephyrosStaking.sol\":9869:9894  user.coreStaked += amount */\n      dup1\n      sload\n        /* \"contracts/ZephyrosStaking/ZephyrosStaking.sol\":9888:9894  amount */\n      dup4\n      swap1\n        /* \"contracts/ZephyrosStaking/ZephyrosStaking.sol\":9824:9828  user */\n      dup3\n      swap1\n        /* \"contracts/ZephyrosStaking/ZephyrosStaking.sol\":9869:9884  user.coreStaked */\n      0x00\n      swap1\n        /* \"contracts/ZephyrosStaking/ZephyrosStaking.sol\":9869:9894  user.coreStaked += amount */\n      tag_354\n      swap1\n        /* \"contracts/ZephyrosStaking/ZephyrosStaking.sol\":9888:9894  amount */\n      dup5\n      swap1\n        /* \"contracts/ZephyrosStaking/ZephyrosStaking.sol\":9869:9894  user.coreStaked += amount */\n      tag_229\n      jump\t// in\n    tag_354:\n      swap3\n      pop\n      pop\n      dup2\n      swap1\n      sstore\n      pop\n        /* \"contracts/ZephyrosStaking/ZephyrosStaking.sol\":9924:9930  amount */\n      dup3\n        /* \"contracts/ZephyrosStaking/ZephyrosStaking.sol\":9905:9920  totalCoreStaked */\n      0x08\n      0x00\n        /* \"contracts/ZephyrosStaking/ZephyrosStaking.sol\":9905:9930  totalCoreStaked += amount */\n      dup3\n      dup3\n      sload\n      tag_355\n      swap2\n      swap1\n      tag_229\n      jump\t// in\n    tag_355:\n      swap1\n      swap2\n      sstore\n      pop\n        /* \"contracts/ZephyrosStaking/ZephyrosStaking.sol\":9943:9999  core.safeTransferFrom(msg.sender, address(this), amount) */\n      tag_356\n      swap1\n      pop\n      sub(shl(0xa0, 0x01), 0x01)\n        /* \"contracts/ZephyrosStaking/ZephyrosStaking.sol\":9943:9947  core */\n      immutable(\"0x8b953cbb84328003779eb1ef176ef07f7dd0ae3d4a8e408de53d15a36466c86e\")\n        /* \"contracts/ZephyrosStaking/ZephyrosStaking.sol\":9943:9964  core.safeTransferFrom */\n      and\n        /* \"contracts/ZephyrosStaking/ZephyrosStaking.sol\":9965:9975  msg.sender */\n      caller\n        /* \"contracts/ZephyrosStaking/ZephyrosStaking.sol\":9985:9989  this */\n      address\n        /* \"contracts/ZephyrosStaking/ZephyrosStaking.sol\":9992:9998  amount */\n      dup7\n        /* \"contracts/ZephyrosStaking/ZephyrosStaking.sol\":9943:9964  core.safeTransferFrom */\n      tag_283\n        /* \"contracts/ZephyrosStaking/ZephyrosStaking.sol\":9943:9999  core.safeTransferFrom(msg.sender, address(this), amount) */\n      jump\t// in\n    tag_356:\n        /* \"contracts/ZephyrosStaking/ZephyrosStaking.sol\":10012:10042  _refreshUserWeight(msg.sender) */\n      tag_357\n        /* \"contracts/ZephyrosStaking/ZephyrosStaking.sol\":10031:10041  msg.sender */\n      caller\n        /* \"contracts/ZephyrosStaking/ZephyrosStaking.sol\":10012:10030  _refreshUserWeight */\n      tag_358\n        /* \"contracts/ZephyrosStaking/ZephyrosStaking.sol\":10012:10042  _refreshUserWeight(msg.sender) */\n      jump\t// in\n    tag_357:\n        /* \"contracts/ZephyrosStaking/ZephyrosStaking.sol\":10060:10090  CoreStaked(msg.sender, amount) */\n      mload(0x40)\n        /* \"#utility.yul\":529:554   */\n      dup4\n      dup2\n      mstore\n        /* \"contracts/ZephyrosStaking/ZephyrosStaking.sol\":10071:10081  msg.sender */\n      caller\n      swap1\n        /* \"contracts/ZephyrosStaking/ZephyrosStaking.sol\":10060:10090  CoreStaked(msg.sender, amount) */\n      0xab4795c0dfe38375b777fbe077bd9c6877c2ddaf9e3acfb83d5e5277a40322ed\n      swap1\n        /* \"#utility.yul\":517:519   */\n      0x20\n        /* \"#utility.yul\":502:520   */\n      add\n        /* \"contracts/ZephyrosStaking/ZephyrosStaking.sol\":10060:10090  CoreStaked(msg.sender, amount) */\n      mload(0x40)\n      dup1\n      swap2\n      sub\n      swap1\n      log2\n        /* \"contracts/ZephyrosStaking/ZephyrosStaking.sol\":9595:10098  {... */\n      pop\n        /* \"https://github.com/OpenZeppelin/openzeppelin-contracts/blob/v5.0.2/contracts/utils/ReentrancyGuard.sol\":2387:2388  _ */\n      pop\n        /* \"https://github.com/OpenZeppelin/openzeppelin-contracts/blob/v5.0.2/contracts/utils/ReentrancyGuard.sol\":2398:2418  _nonReentrantAfter() */\n      tag_360\n        /* \"https://github.com/OpenZeppelin/openzeppelin-contracts/blob/v5.0.2/contracts/utils/ReentrancyGuard.sol\":1713:1714  1 */\n      0x01\n        /* \"https://github.com/OpenZeppelin/openzeppelin-contracts/blob/v5.0.2/contracts/utils/ReentrancyGuard.sol\":2924:2945  _status = NOT_ENTERED */\n      dup1\n      sstore\n        /* \"https://github.com/OpenZeppelin/openzeppelin-contracts/blob/v5.0.2/contracts/utils/ReentrancyGuard.sol\":2744:2952  function _nonReentrantAfter() private {... */\n      jump\n        /* \"https://github.com/OpenZeppelin/openzeppelin-contracts/blob/v5.0.2/contracts/utils/ReentrancyGuard.sol\":2398:2418  _nonReentrantAfter() */\n    tag_360:\n        /* \"contracts/ZephyrosStaking/ZephyrosStaking.sol\":9513:10098  function stakeCore(uint256 amount) external nonReentrant updateReward(msg.sender) {... */\n      pop\n      jump\t// out\n        /* \"contracts/ZephyrosStaking/ZephyrosStaking.sol\":11558:12200  function withdrawNFT(address collection, uint256 tokenId) external nonReentrant updateReward(msg.sender) {... */\n    tag_130:\n        /* \"https://github.com/OpenZeppelin/openzeppelin-contracts/blob/v5.0.2/contracts/utils/ReentrancyGuard.sol\":2356:2377  _nonReentrantBefore() */\n      tag_362\n        /* \"https://github.com/OpenZeppelin/openzeppelin-contracts/blob/v5.0.2/contracts/utils/ReentrancyGuard.sol\":2356:2375  _nonReentrantBefore */\n      tag_262\n        /* \"https://github.com/OpenZeppelin/openzeppelin-contracts/blob/v5.0.2/contracts/utils/ReentrancyGuard.sol\":2356:2377  _nonReentrantBefore() */\n      jump\t// in\n    tag_362:\n        /* \"contracts/ZephyrosStaking/ZephyrosStaking.sol\":11651:11661  msg.sender */\n      caller\n        /* \"contracts/ZephyrosStaking/ZephyrosStaking.sol\":16243:16271  _currentAccRewardPerWeight() */\n      tag_364\n        /* \"contracts/ZephyrosStaking/ZephyrosStaking.sol\":16243:16269  _currentAccRewardPerWeight */\n      tag_223\n        /* \"contracts/ZephyrosStaking/ZephyrosStaking.sol\":16243:16271  _currentAccRewardPerWeight() */\n      jump\t// in\n    tag_364:\n        /* \"contracts/ZephyrosStaking/ZephyrosStaking.sol\":16222:16240  accRewardPerWeight */\n      0x0a\n        /* \"contracts/ZephyrosStaking/ZephyrosStaking.sol\":16222:16271  accRewardPerWeight = _currentAccRewardPerWeight() */\n      sstore\n        /* \"contracts/ZephyrosStaking/ZephyrosStaking.sol\":16300:16327  lastRewardBlockApplicable() */\n      tag_365\n        /* \"contracts/ZephyrosStaking/ZephyrosStaking.sol\":16300:16325  lastRewardBlockApplicable */\n      tag_111\n        /* \"contracts/ZephyrosStaking/ZephyrosStaking.sol\":16300:16327  lastRewardBlockApplicable() */\n      jump\t// in\n    tag_365:\n        /* \"contracts/ZephyrosStaking/ZephyrosStaking.sol\":16282:16297  lastRewardBlock */\n      0x0b\n        /* \"contracts/ZephyrosStaking/ZephyrosStaking.sol\":16282:16327  lastRewardBlock = lastRewardBlockApplicable() */\n      sstore\n      sub(shl(0xa0, 0x01), 0x01)\n        /* \"contracts/ZephyrosStaking/ZephyrosStaking.sol\":16344:16365  account != address(0) */\n      dup2\n      and\n      iszero\n        /* \"contracts/ZephyrosStaking/ZephyrosStaking.sol\":16340:16683  if (account != address(0)) {... */\n      tag_366\n      jumpi\n      sub(shl(0xa0, 0x01), 0x01)\n        /* \"contracts/ZephyrosStaking/ZephyrosStaking.sol\":16406:16420  users[account] */\n      dup2\n      and\n        /* \"contracts/ZephyrosStaking/ZephyrosStaking.sol\":16382:16403  UserInfo storage user */\n      0x00\n        /* \"contracts/ZephyrosStaking/ZephyrosStaking.sol\":16406:16420  users[account] */\n      swap1\n      dup2\n      mstore\n        /* \"contracts/ZephyrosStaking/ZephyrosStaking.sol\":16406:16411  users */\n      0x06\n        /* \"contracts/ZephyrosStaking/ZephyrosStaking.sol\":16406:16420  users[account] */\n      0x20\n      mstore\n      0x40\n      dup2\n      keccak256\n        /* \"contracts/ZephyrosStaking/ZephyrosStaking.sol\":16478:16496  accRewardPerWeight */\n      sload(0x0a)\n        /* \"contracts/ZephyrosStaking/ZephyrosStaking.sol\":16458:16475  user.rewardWeight */\n      0x01\n      dup3\n      add\n      sload\n        /* \"contracts/ZephyrosStaking/ZephyrosStaking.sol\":16406:16420  users[account] */\n      swap2\n      swap3\n        /* \"contracts/ZephyrosStaking/ZephyrosStaking.sol\":16382:16403  UserInfo storage user */\n      swap2\n        /* \"contracts/ZephyrosStaking/ZephyrosStaking.sol\":1877:1881  1e24 */\n      0xd3c21bcecceda1000000\n      swap2\n        /* \"contracts/ZephyrosStaking/ZephyrosStaking.sol\":16458:16496  user.rewardWeight * accRewardPerWeight */\n      tag_367\n      swap2\n      tag_225\n      jump\t// in\n    tag_367:\n        /* \"contracts/ZephyrosStaking/ZephyrosStaking.sol\":16457:16513  (user.rewardWeight * accRewardPerWeight) / ACC_PRECISION */\n      tag_368\n      swap2\n      swap1\n      tag_227\n      jump\t// in\n    tag_368:\n        /* \"contracts/ZephyrosStaking/ZephyrosStaking.sol\":16435:16513  uint256 accumulated = (user.rewardWeight * accRewardPerWeight) / ACC_PRECISION */\n      swap1\n      pop\n        /* \"contracts/ZephyrosStaking/ZephyrosStaking.sol\":16567:16571  user */\n      dup2\n        /* \"contracts/ZephyrosStaking/ZephyrosStaking.sol\":16567:16582  user.rewardDebt */\n      0x02\n      add\n      sload\n        /* \"contracts/ZephyrosStaking/ZephyrosStaking.sol\":16553:16564  accumulated */\n      dup2\n        /* \"contracts/ZephyrosStaking/ZephyrosStaking.sol\":16553:16582  accumulated - user.rewardDebt */\n      tag_369\n      swap2\n      swap1\n      tag_231\n      jump\t// in\n    tag_369:\n        /* \"contracts/ZephyrosStaking/ZephyrosStaking.sol\":16528:16532  user */\n      dup3\n        /* \"contracts/ZephyrosStaking/ZephyrosStaking.sol\":16528:16549  user.unclaimedRewards */\n      0x03\n      add\n      0x00\n        /* \"contracts/ZephyrosStaking/ZephyrosStaking.sol\":16528:16582  user.unclaimedRewards += accumulated - user.rewardDebt */\n      dup3\n      dup3\n      sload\n      tag_370\n      swap2\n      swap1\n      tag_229\n      jump\t// in\n    tag_370:\n      swap1\n      swap2\n      sstore\n      pop\n      pop\n        /* \"contracts/ZephyrosStaking/ZephyrosStaking.sol\":16636:16654  accRewardPerWeight */\n      sload(0x0a)\n        /* \"contracts/ZephyrosStaking/ZephyrosStaking.sol\":16616:16633  user.rewardWeight */\n      0x01\n      dup4\n      add\n      sload\n        /* \"contracts/ZephyrosStaking/ZephyrosStaking.sol\":1877:1881  1e24 */\n      0xd3c21bcecceda1000000\n      swap2\n        /* \"contracts/ZephyrosStaking/ZephyrosStaking.sol\":16616:16654  user.rewardWeight * accRewardPerWeight */\n      tag_371\n      swap2\n      tag_225\n      jump\t// in\n    tag_371:\n        /* \"contracts/ZephyrosStaking/ZephyrosStaking.sol\":16615:16671  (user.rewardWeight * accRewardPerWeight) / ACC_PRECISION */\n      tag_372\n      swap2\n      swap1\n      tag_227\n      jump\t// in\n    tag_372:\n        /* \"contracts/ZephyrosStaking/ZephyrosStaking.sol\":16597:16601  user */\n      dup3\n        /* \"contracts/ZephyrosStaking/ZephyrosStaking.sol\":16597:16612  user.rewardDebt */\n      0x02\n      add\n        /* \"contracts/ZephyrosStaking/ZephyrosStaking.sol\":16597:16671  user.rewardDebt = (user.rewardWeight * accRewardPerWeight) / ACC_PRECISION */\n      dup2\n      swap1\n      sstore\n      pop\n        /* \"contracts/ZephyrosStaking/ZephyrosStaking.sol\":16367:16683  {... */\n      pop\n      pop\n        /* \"contracts/ZephyrosStaking/ZephyrosStaking.sol\":16340:16683  if (account != address(0)) {... */\n    tag_366:\n        /* \"contracts/ZephyrosStaking/ZephyrosStaking.sol\":11704:11714  msg.sender */\n      caller\n        /* \"contracts/ZephyrosStaking/ZephyrosStaking.sol\":11674:11695  UserInfo storage user */\n      0x00\n        /* \"contracts/ZephyrosStaking/ZephyrosStaking.sol\":11698:11715  users[msg.sender] */\n      dup2\n      dup2\n      mstore\n        /* \"contracts/ZephyrosStaking/ZephyrosStaking.sol\":11698:11703  users */\n      0x06\n        /* \"contracts/ZephyrosStaking/ZephyrosStaking.sol\":11698:11715  users[msg.sender] */\n      0x20\n      swap1\n      dup2\n      mstore\n      0x40\n      dup1\n      dup4\n      keccak256\n      sub(shl(0xa0, 0x01), 0x01)\n        /* \"contracts/ZephyrosStaking/ZephyrosStaking.sol\":11734:11755  nftStaker[collection] */\n      dup9\n      dup2\n      and\n      dup6\n      mstore\n        /* \"contracts/ZephyrosStaking/ZephyrosStaking.sol\":11734:11743  nftStaker */\n      0x07\n        /* \"contracts/ZephyrosStaking/ZephyrosStaking.sol\":11734:11755  nftStaker[collection] */\n      dup5\n      mstore\n      dup3\n      dup6\n      keccak256\n        /* \"contracts/ZephyrosStaking/ZephyrosStaking.sol\":11734:11764  nftStaker[collection][tokenId] */\n      dup9\n      dup7\n      mstore\n      swap1\n      swap4\n      mstore\n      swap3\n      keccak256\n      sload\n        /* \"contracts/ZephyrosStaking/ZephyrosStaking.sol\":11698:11715  users[msg.sender] */\n      swap2\n      swap3\n        /* \"contracts/ZephyrosStaking/ZephyrosStaking.sol\":11734:11764  nftStaker[collection][tokenId] */\n      swap2\n      and\n        /* \"contracts/ZephyrosStaking/ZephyrosStaking.sol\":11734:11778  nftStaker[collection][tokenId] == msg.sender */\n      eq\n        /* \"contracts/ZephyrosStaking/ZephyrosStaking.sol\":11726:11789  require(nftStaker[collection][tokenId] == msg.sender, \"NOTNFT\") */\n      tag_374\n      jumpi\n      mload(0x40)\n      shl(0xe5, 0x461bcd)\n      dup2\n      mstore\n        /* \"#utility.yul\":13777:13779   */\n      0x20\n        /* \"contracts/ZephyrosStaking/ZephyrosStaking.sol\":11726:11789  require(nftStaker[collection][tokenId] == msg.sender, \"NOTNFT\") */\n      0x04\n      dup3\n      add\n        /* \"#utility.yul\":13759:13780   */\n      mstore\n        /* \"#utility.yul\":13816:13817   */\n      0x06\n        /* \"#utility.yul\":13796:13814   */\n      0x24\n      dup3\n      add\n        /* \"#utility.yul\":13789:13818   */\n      mstore\n      shl(0xd2, 0x1393d5139195)\n        /* \"#utility.yul\":13834:13852   */\n      0x44\n      dup3\n      add\n        /* \"#utility.yul\":13827:13863   */\n      mstore\n        /* \"#utility.yul\":13880:13898   */\n      0x64\n      add\n        /* \"contracts/ZephyrosStaking/ZephyrosStaking.sol\":11726:11789  require(nftStaker[collection][tokenId] == msg.sender, \"NOTNFT\") */\n      tag_236\n        /* \"#utility.yul\":13575:13904   */\n      jump\n        /* \"contracts/ZephyrosStaking/ZephyrosStaking.sol\":11726:11789  require(nftStaker[collection][tokenId] == msg.sender, \"NOTNFT\") */\n    tag_374:\n        /* \"contracts/ZephyrosStaking/ZephyrosStaking.sol\":11806:11821  user.coreStaked */\n      dup1\n      sload\n        /* \"contracts/ZephyrosStaking/ZephyrosStaking.sol\":11806:11825  user.coreStaked > 0 */\n      iszero\n        /* \"contracts/ZephyrosStaking/ZephyrosStaking.sol\":11802:11894  if (user.coreStaked > 0) {... */\n      tag_378\n      jumpi\n        /* \"contracts/ZephyrosStaking/ZephyrosStaking.sol\":11850:11859  user.nfts */\n      0x05\n      dup2\n      add\n        /* \"contracts/ZephyrosStaking/ZephyrosStaking.sol\":11850:11866  user.nfts.length */\n      sload\n        /* \"contracts/ZephyrosStaking/ZephyrosStaking.sol\":11869:11870  1 */\n      0x01\n      lt\n        /* \"contracts/ZephyrosStaking/ZephyrosStaking.sol\":11842:11882  require(user.nfts.length > 1, \"KEEPNFT\") */\n      tag_378\n      jumpi\n      mload(0x40)\n      shl(0xe5, 0x461bcd)\n      dup2\n      mstore\n        /* \"#utility.yul\":14111:14113   */\n      0x20\n        /* \"contracts/ZephyrosStaking/ZephyrosStaking.sol\":11842:11882  require(user.nfts.length > 1, \"KEEPNFT\") */\n      0x04\n      dup3\n      add\n        /* \"#utility.yul\":14093:14114   */\n      mstore\n        /* \"#utility.yul\":14150:14151   */\n      0x07\n        /* \"#utility.yul\":14130:14148   */\n      0x24\n      dup3\n      add\n        /* \"#utility.yul\":14123:14152   */\n      mstore\n      shl(0xca, 0x12d15154139195)\n        /* \"#utility.yul\":14168:14186   */\n      0x44\n      dup3\n      add\n        /* \"#utility.yul\":14161:14198   */\n      mstore\n        /* \"#utility.yul\":14215:14233   */\n      0x64\n      add\n        /* \"contracts/ZephyrosStaking/ZephyrosStaking.sol\":11842:11882  require(user.nfts.length > 1, \"KEEPNFT\") */\n      tag_236\n        /* \"#utility.yul\":13909:14239   */\n      jump\n        /* \"contracts/ZephyrosStaking/ZephyrosStaking.sol\":11842:11882  require(user.nfts.length > 1, \"KEEPNFT\") */\n    tag_378:\n        /* \"contracts/ZephyrosStaking/ZephyrosStaking.sol\":11906:11947  _removeUserNFT(user, collection, tokenId) */\n      tag_381\n        /* \"contracts/ZephyrosStaking/ZephyrosStaking.sol\":11921:11925  user */\n      dup2\n        /* \"contracts/ZephyrosStaking/ZephyrosStaking.sol\":11927:11937  collection */\n      dup6\n        /* \"contracts/ZephyrosStaking/ZephyrosStaking.sol\":11939:11946  tokenId */\n      dup6\n        /* \"contracts/ZephyrosStaking/ZephyrosStaking.sol\":11906:11920  _removeUserNFT */\n      tag_382\n        /* \"contracts/ZephyrosStaking/ZephyrosStaking.sol\":11906:11947  _removeUserNFT(user, collection, tokenId) */\n      jump\t// in\n    tag_381:\n      sub(shl(0xa0, 0x01), 0x01)\n        /* \"contracts/ZephyrosStaking/ZephyrosStaking.sol\":11958:11979  nftStaker[collection] */\n      dup5\n      and\n        /* \"contracts/ZephyrosStaking/ZephyrosStaking.sol\":11999:12000  0 */\n      0x00\n        /* \"contracts/ZephyrosStaking/ZephyrosStaking.sol\":11958:11979  nftStaker[collection] */\n      swap1\n      dup2\n      mstore\n        /* \"contracts/ZephyrosStaking/ZephyrosStaking.sol\":11958:11967  nftStaker */\n      0x07\n        /* \"contracts/ZephyrosStaking/ZephyrosStaking.sol\":11958:11979  nftStaker[collection] */\n      0x20\n      swap1\n      dup2\n      mstore\n      0x40\n      dup1\n      dup4\n      keccak256\n        /* \"contracts/ZephyrosStaking/ZephyrosStaking.sol\":11958:11988  nftStaker[collection][tokenId] */\n      dup7\n      dup5\n      mstore\n      swap1\n      swap2\n      mstore\n      swap1\n      keccak256\n        /* \"contracts/ZephyrosStaking/ZephyrosStaking.sol\":11958:12001  nftStaker[collection][tokenId] = address(0) */\n      dup1\n      sload\n      not(sub(shl(0xa0, 0x01), 0x01))\n      and\n      swap1\n      sstore\n        /* \"contracts/ZephyrosStaking/ZephyrosStaking.sol\":12014:12044  _refreshUserWeight(msg.sender) */\n      tag_383\n        /* \"contracts/ZephyrosStaking/ZephyrosStaking.sol\":12033:12043  msg.sender */\n      caller\n        /* \"contracts/ZephyrosStaking/ZephyrosStaking.sol\":12014:12032  _refreshUserWeight */\n      tag_358\n        /* \"contracts/ZephyrosStaking/ZephyrosStaking.sol\":12014:12044  _refreshUserWeight(msg.sender) */\n      jump\t// in\n    tag_383:\n        /* \"contracts/ZephyrosStaking/ZephyrosStaking.sol\":12057:12129  IERC721(collection).safeTransferFrom(address(this), msg.sender, tokenId) */\n      mload(0x40)\n      shl(0xe1, 0x21421707)\n      dup2\n      mstore\n      sub(shl(0xa0, 0x01), 0x01)\n        /* \"contracts/ZephyrosStaking/ZephyrosStaking.sol\":12057:12093  IERC721(collection).safeTransferFrom */\n      dup6\n      and\n      swap1\n      0x42842e0e\n      swap1\n        /* \"contracts/ZephyrosStaking/ZephyrosStaking.sol\":12057:12129  IERC721(collection).safeTransferFrom(address(this), msg.sender, tokenId) */\n      tag_384\n      swap1\n        /* \"contracts/ZephyrosStaking/ZephyrosStaking.sol\":12102:12106  this */\n      address\n      swap1\n        /* \"contracts/ZephyrosStaking/ZephyrosStaking.sol\":12109:12119  msg.sender */\n      caller\n      swap1\n        /* \"contracts/ZephyrosStaking/ZephyrosStaking.sol\":12121:12128  tokenId */\n      dup9\n      swap1\n        /* \"contracts/ZephyrosStaking/ZephyrosStaking.sol\":12057:12129  IERC721(collection).safeTransferFrom(address(this), msg.sender, tokenId) */\n      0x04\n      add\n      tag_385\n      jump\t// in\n    tag_384:\n      0x00\n      mload(0x40)\n      dup1\n      dup4\n      sub\n      dup2\n      0x00\n      dup8\n      dup1\n      extcodesize\n      iszero\n      dup1\n      iszero\n      tag_386\n      jumpi\n      0x00\n      dup1\n      revert\n    tag_386:\n      pop\n      gas\n      call\n      iszero\n      dup1\n      iszero\n      tag_388\n      jumpi\n      returndatasize\n      0x00\n      dup1\n      returndatacopy\n      revert(0x00, returndatasize)\n    tag_388:\n      pop\n      pop\n        /* \"contracts/ZephyrosStaking/ZephyrosStaking.sol\":12147:12192  NFTWithdrawn(msg.sender, collection, tokenId) */\n      mload(0x40)\n        /* \"contracts/ZephyrosStaking/ZephyrosStaking.sol\":12184:12191  tokenId */\n      dup6\n      swap3\n      pop\n      sub(shl(0xa0, 0x01), 0x01)\n        /* \"contracts/ZephyrosStaking/ZephyrosStaking.sol\":12147:12192  NFTWithdrawn(msg.sender, collection, tokenId) */\n      dup8\n      and\n      swap2\n      pop\n        /* \"contracts/ZephyrosStaking/ZephyrosStaking.sol\":12160:12170  msg.sender */\n      caller\n      swap1\n        /* \"contracts/ZephyrosStaking/ZephyrosStaking.sol\":12147:12192  NFTWithdrawn(msg.sender, collection, tokenId) */\n      0xbbde41973f9ce4890f7ad9762c23d8191f261fd643bdf13ed8bbc10549b49fcb\n      swap1\n      0x00\n      swap1\n      log4\n        /* \"contracts/ZephyrosStaking/ZephyrosStaking.sol\":11663:12200  {... */\n      pop\n        /* \"https://github.com/OpenZeppelin/openzeppelin-contracts/blob/v5.0.2/contracts/utils/ReentrancyGuard.sol\":2387:2388  _ */\n      pop\n        /* \"https://github.com/OpenZeppelin/openzeppelin-contracts/blob/v5.0.2/contracts/utils/ReentrancyGuard.sol\":2398:2418  _nonReentrantAfter() */\n      tag_300\n        /* \"https://github.com/OpenZeppelin/openzeppelin-contracts/blob/v5.0.2/contracts/utils/ReentrancyGuard.sol\":1713:1714  1 */\n      0x01\n        /* \"https://github.com/OpenZeppelin/openzeppelin-contracts/blob/v5.0.2/contracts/utils/ReentrancyGuard.sol\":2924:2945  _status = NOT_ENTERED */\n      dup1\n      sstore\n        /* \"https://github.com/OpenZeppelin/openzeppelin-contracts/blob/v5.0.2/contracts/utils/ReentrancyGuard.sol\":2744:2952  function _nonReentrantAfter() private {... */\n      jump\n        /* \"contracts/ZephyrosStaking/ZephyrosStaking.sol\":5640:6002  function configureCollection(... */\n    tag_134:\n        /* \"contracts/ZephyrosStaking/ZephyrosStaking.sol\":4963:4973  msg.sender */\n      caller\n        /* \"contracts/ZephyrosStaking/ZephyrosStaking.sol\":4955:4974  isAdmin[msg.sender] */\n      0x00\n      swap1\n      dup2\n      mstore\n        /* \"contracts/ZephyrosStaking/ZephyrosStaking.sol\":4955:4962  isAdmin */\n      0x02\n        /* \"contracts/ZephyrosStaking/ZephyrosStaking.sol\":4955:4974  isAdmin[msg.sender] */\n      0x20\n      mstore\n      0x40\n      swap1\n      keccak256\n      sload\n      0xff\n      and\n      dup1\n        /* \"contracts/ZephyrosStaking/ZephyrosStaking.sol\":4955:4999  isAdmin[msg.sender] || msg.sender == owner() */\n      tag_391\n      jumpi\n      pop\n        /* \"https://github.com/OpenZeppelin/openzeppelin-contracts/blob/v5.0.2/contracts/access/Ownable.sol\":1684:1691  address */\n      0x00\n        /* \"https://github.com/OpenZeppelin/openzeppelin-contracts/blob/v5.0.2/contracts/access/Ownable.sol\":1710:1716  _owner */\n      sload\n      sub(shl(0xa0, 0x01), 0x01)\n      and\n        /* \"contracts/ZephyrosStaking/ZephyrosStaking.sol\":4978:4988  msg.sender */\n      caller\n        /* \"contracts/ZephyrosStaking/ZephyrosStaking.sol\":4978:4999  msg.sender == owner() */\n      eq\n        /* \"contracts/ZephyrosStaking/ZephyrosStaking.sol\":4955:4999  isAdmin[msg.sender] || msg.sender == owner() */\n    tag_391:\n        /* \"contracts/ZephyrosStaking/ZephyrosStaking.sol\":4947:5013  require(isAdmin[msg.sender] || msg.sender == owner(), \"Not admin\") */\n      tag_393\n      jumpi\n      mload(0x40)\n      shl(0xe5, 0x461bcd)\n      dup2\n      mstore\n      0x04\n      add\n      tag_236\n      swap1\n      tag_237\n      jump\t// in\n    tag_393:\n      sub(shl(0xa0, 0x01), 0x01)\n        /* \"contracts/ZephyrosStaking/ZephyrosStaking.sol\":5801:5825  collection != address(0) */\n      dup4\n      and\n        /* \"contracts/ZephyrosStaking/ZephyrosStaking.sol\":5793:5834  require(collection != address(0), \"COL0\") */\n      tag_396\n      jumpi\n      mload(0x40)\n      shl(0xe5, 0x461bcd)\n      dup2\n      mstore\n      0x04\n      add\n      tag_236\n      swap1\n      tag_398\n      jump\t// in\n    tag_396:\n        /* \"contracts/ZephyrosStaking/ZephyrosStaking.sol\":5871:5927  CollectionConfig({whitelisted: whitelisted, mode: mode}) */\n      mload(0x40)\n      dup1\n      0x40\n      add\n      0x40\n      mstore\n      dup1\n        /* \"contracts/ZephyrosStaking/ZephyrosStaking.sol\":5902:5913  whitelisted */\n      dup4\n        /* \"contracts/ZephyrosStaking/ZephyrosStaking.sol\":5871:5927  CollectionConfig({whitelisted: whitelisted, mode: mode}) */\n      iszero\n      iszero\n      dup2\n      mstore\n      0x20\n      add\n        /* \"contracts/ZephyrosStaking/ZephyrosStaking.sol\":5921:5925  mode */\n      dup3\n        /* \"contracts/ZephyrosStaking/ZephyrosStaking.sol\":5871:5927  CollectionConfig({whitelisted: whitelisted, mode: mode}) */\n      0x01\n      dup2\n      gt\n      iszero\n      tag_400\n      jumpi\n      tag_400\n      tag_401\n      jump\t// in\n    tag_400:\n      swap1\n      mstore\n      sub(shl(0xa0, 0x01), 0x01)\n        /* \"contracts/ZephyrosStaking/ZephyrosStaking.sol\":5845:5868  collections[collection] */\n      dup5\n      and\n      0x00\n      swap1\n      dup2\n      mstore\n        /* \"contracts/ZephyrosStaking/ZephyrosStaking.sol\":5845:5856  collections */\n      0x03\n        /* \"contracts/ZephyrosStaking/ZephyrosStaking.sol\":5845:5868  collections[collection] */\n      0x20\n      swap1\n      dup2\n      mstore\n      0x40\n      swap1\n      swap2\n      keccak256\n        /* \"contracts/ZephyrosStaking/ZephyrosStaking.sol\":5845:5927  collections[collection] = CollectionConfig({whitelisted: whitelisted, mode: mode}) */\n      dup3\n      mload\n      dup2\n      sload\n      swap1\n      iszero\n      iszero\n      not(0xff)\n      dup3\n      and\n      dup2\n      or\n      dup4\n      sstore\n      swap3\n      dup5\n      add\n      mload\n        /* \"contracts/ZephyrosStaking/ZephyrosStaking.sol\":5845:5868  collections[collection] */\n      swap2\n      swap3\n      dup4\n      swap2\n      not(0xff00)\n        /* \"contracts/ZephyrosStaking/ZephyrosStaking.sol\":5845:5927  collections[collection] = CollectionConfig({whitelisted: whitelisted, mode: mode}) */\n      swap1\n      swap2\n      and\n      not(0xffff)\n      swap1\n      swap2\n      and\n      or\n      0x0100\n      dup4\n      0x01\n      dup2\n      gt\n      iszero\n      tag_403\n      jumpi\n      tag_403\n      tag_401\n      jump\t// in\n    tag_403:\n      mul\n      or\n      swap1\n      sstore\n      pop\n      swap1\n      pop\n      pop\n        /* \"contracts/ZephyrosStaking/ZephyrosStaking.sol\":5964:5974  collection */\n      dup3\n      sub(shl(0xa0, 0x01), 0x01)\n        /* \"contracts/ZephyrosStaking/ZephyrosStaking.sol\":5943:5994  CollectionConfigured(collection, whitelisted, mode) */\n      and\n      0xc97a41867696f26be26c3fad9209e751411c759d0d344dc7ebd1a164ffecacc2\n        /* \"contracts/ZephyrosStaking/ZephyrosStaking.sol\":5976:5987  whitelisted */\n      dup4\n        /* \"contracts/ZephyrosStaking/ZephyrosStaking.sol\":5989:5993  mode */\n      dup4\n        /* \"contracts/ZephyrosStaking/ZephyrosStaking.sol\":5943:5994  CollectionConfigured(collection, whitelisted, mode) */\n      mload(0x40)\n      tag_404\n      swap3\n      swap2\n      swap1\n      tag_109\n      jump\t// in\n    tag_404:\n      mload(0x40)\n      dup1\n      swap2\n      sub\n      swap1\n      log2\n        /* \"contracts/ZephyrosStaking/ZephyrosStaking.sol\":5640:6002  function configureCollection(... */\n      pop\n      pop\n      pop\n      jump\t// out\n        /* \"contracts/ZephyrosStaking/ZephyrosStaking.sol\":14704:15326  function getUser(address account) external view returns (... */\n    tag_140:\n      sub(shl(0xa0, 0x01), 0x01)\n        /* \"contracts/ZephyrosStaking/ZephyrosStaking.sol\":15008:15022  users[account] */\n      dup2\n      and\n        /* \"contracts/ZephyrosStaking/ZephyrosStaking.sol\":14771:14789  uint256 coreStaked */\n      0x00\n        /* \"contracts/ZephyrosStaking/ZephyrosStaking.sol\":15008:15022  users[account] */\n      swap1\n      dup2\n      mstore\n        /* \"contracts/ZephyrosStaking/ZephyrosStaking.sol\":15008:15013  users */\n      0x06\n        /* \"contracts/ZephyrosStaking/ZephyrosStaking.sol\":15008:15022  users[account] */\n      0x20\n      mstore\n      0x40\n      dup2\n      keccak256\n        /* \"contracts/ZephyrosStaking/ZephyrosStaking.sol\":15046:15061  user.coreStaked */\n      dup1\n      sload\n        /* \"contracts/ZephyrosStaking/ZephyrosStaking.sol\":15083:15092  user.nfts */\n      0x05\n      dup3\n      add\n        /* \"contracts/ZephyrosStaking/ZephyrosStaking.sol\":15083:15099  user.nfts.length */\n      sload\n        /* \"contracts/ZephyrosStaking/ZephyrosStaking.sol\":15125:15142  user.rewardWeight */\n      0x01\n      dup4\n      add\n      sload\n        /* \"contracts/ZephyrosStaking/ZephyrosStaking.sol\":15165:15179  user.entryTime */\n      0x04\n      dup5\n      add\n      sload\n        /* \"contracts/ZephyrosStaking/ZephyrosStaking.sol\":15046:15061  user.coreStaked */\n      swap3\n      swap5\n        /* \"contracts/ZephyrosStaking/ZephyrosStaking.sol\":15083:15099  user.nfts.length */\n      swap2\n      swap4\n        /* \"contracts/ZephyrosStaking/ZephyrosStaking.sol\":15125:15142  user.rewardWeight */\n      swap1\n      swap3\n        /* \"contracts/ZephyrosStaking/ZephyrosStaking.sol\":15165:15179  user.entryTime */\n      swap2\n        /* \"contracts/ZephyrosStaking/ZephyrosStaking.sol\":14771:14789  uint256 coreStaked */\n      swap1\n      dup2\n      swap1\n      dup2\n      swap1\n        /* \"contracts/ZephyrosStaking/ZephyrosStaking.sol\":15207:15222  earned(account) */\n      tag_406\n        /* \"contracts/ZephyrosStaking/ZephyrosStaking.sol\":15014:15021  account */\n      dup10\n        /* \"contracts/ZephyrosStaking/ZephyrosStaking.sol\":15207:15213  earned */\n      tag_59\n        /* \"contracts/ZephyrosStaking/ZephyrosStaking.sol\":15207:15222  earned(account) */\n      jump\t// in\n    tag_406:\n        /* \"contracts/ZephyrosStaking/ZephyrosStaking.sol\":15190:15222  pendingRewards = earned(account) */\n      swap4\n      pop\n        /* \"contracts/ZephyrosStaking/ZephyrosStaking.sol\":15250:15269  _isEarly(entryTime) */\n      tag_407\n        /* \"contracts/ZephyrosStaking/ZephyrosStaking.sol\":15259:15268  entryTime */\n      dup6\n        /* \"contracts/ZephyrosStaking/ZephyrosStaking.sol\":15250:15258  _isEarly */\n      tag_408\n        /* \"contracts/ZephyrosStaking/ZephyrosStaking.sol\":15250:15269  _isEarly(entryTime) */\n      jump\t// in\n    tag_407:\n        /* \"contracts/ZephyrosStaking/ZephyrosStaking.sol\":15233:15269  currentlyEarly = _isEarly(entryTime) */\n      swap3\n      pop\n        /* \"contracts/ZephyrosStaking/ZephyrosStaking.sol\":15291:15318  _boostForNFTCount(nftCount) */\n      tag_409\n        /* \"contracts/ZephyrosStaking/ZephyrosStaking.sol\":15309:15317  nftCount */\n      dup8\n        /* \"contracts/ZephyrosStaking/ZephyrosStaking.sol\":15291:15308  _boostForNFTCount */\n      tag_410\n        /* \"contracts/ZephyrosStaking/ZephyrosStaking.sol\":15291:15318  _boostForNFTCount(nftCount) */\n      jump\t// in\n    tag_409:\n        /* \"contracts/ZephyrosStaking/ZephyrosStaking.sol\":15280:15318  boostBps = _boostForNFTCount(nftCount) */\n      swap2\n      pop\n        /* \"contracts/ZephyrosStaking/ZephyrosStaking.sol\":14973:15326  {... */\n      pop\n        /* \"contracts/ZephyrosStaking/ZephyrosStaking.sol\":14704:15326  function getUser(address account) external view returns (... */\n      swap2\n      swap4\n      swap6\n      swap8\n      swap1\n      swap3\n      swap5\n      swap7\n      pop\n      jump\t// out\n        /* \"contracts/ZephyrosStaking/ZephyrosStaking.sol\":5041:5280  function addAdmin(address newAdmin) external onlyOwner {... */\n    tag_145:\n        /* \"https://github.com/OpenZeppelin/openzeppelin-contracts/blob/v5.0.2/contracts/access/Ownable.sol\":1531:1544  _checkOwner() */\n      tag_412\n        /* \"https://github.com/OpenZeppelin/openzeppelin-contracts/blob/v5.0.2/contracts/access/Ownable.sol\":1531:1542  _checkOwner */\n      tag_250\n        /* \"https://github.com/OpenZeppelin/openzeppelin-contracts/blob/v5.0.2/contracts/access/Ownable.sol\":1531:1544  _checkOwner() */\n      jump\t// in\n    tag_412:\n      sub(shl(0xa0, 0x01), 0x01)\n        /* \"contracts/ZephyrosStaking/ZephyrosStaking.sol\":5115:5137  newAdmin != address(0) */\n      dup2\n      and\n        /* \"contracts/ZephyrosStaking/ZephyrosStaking.sol\":5107:5146  require(newAdmin != address(0), \"ZERO\") */\n      tag_414\n      jumpi\n      mload(0x40)\n      shl(0xe5, 0x461bcd)\n      dup2\n      mstore\n      0x04\n      add\n      tag_236\n      swap1\n        /* \"#utility.yul\":15158:15160   */\n      0x20\n        /* \"#utility.yul\":15140:15161   */\n      dup1\n      dup3\n      mstore\n        /* \"#utility.yul\":15197:15198   */\n      0x04\n        /* \"#utility.yul\":15177:15195   */\n      swap1\n      dup3\n      add\n        /* \"#utility.yul\":15170:15199   */\n      mstore\n      shl(0xe0, 0x5a45524f)\n        /* \"#utility.yul\":15230:15232   */\n      0x40\n        /* \"#utility.yul\":15215:15233   */\n      dup3\n      add\n        /* \"#utility.yul\":15208:15242   */\n      mstore\n        /* \"#utility.yul\":15274:15276   */\n      0x60\n        /* \"#utility.yul\":15259:15277   */\n      add\n      swap1\n        /* \"#utility.yul\":14956:15283   */\n      jump\n        /* \"contracts/ZephyrosStaking/ZephyrosStaking.sol\":5107:5146  require(newAdmin != address(0), \"ZERO\") */\n    tag_414:\n      sub(shl(0xa0, 0x01), 0x01)\n        /* \"contracts/ZephyrosStaking/ZephyrosStaking.sol\":5166:5183  isAdmin[newAdmin] */\n      dup2\n      and\n      0x00\n      swap1\n      dup2\n      mstore\n        /* \"contracts/ZephyrosStaking/ZephyrosStaking.sol\":5166:5173  isAdmin */\n      0x02\n        /* \"contracts/ZephyrosStaking/ZephyrosStaking.sol\":5166:5183  isAdmin[newAdmin] */\n      0x20\n      mstore\n      0x40\n      swap1\n      keccak256\n      sload\n      0xff\n      and\n        /* \"contracts/ZephyrosStaking/ZephyrosStaking.sol\":5165:5183  !isAdmin[newAdmin] */\n      iszero\n        /* \"contracts/ZephyrosStaking/ZephyrosStaking.sol\":5157:5201  require(!isAdmin[newAdmin], \"ALREADY_ADMIN\") */\n      tag_417\n      jumpi\n      mload(0x40)\n      shl(0xe5, 0x461bcd)\n      dup2\n      mstore\n        /* \"#utility.yul\":15490:15492   */\n      0x20\n        /* \"contracts/ZephyrosStaking/ZephyrosStaking.sol\":5157:5201  require(!isAdmin[newAdmin], \"ALREADY_ADMIN\") */\n      0x04\n      dup3\n      add\n        /* \"#utility.yul\":15472:15493   */\n      mstore\n        /* \"#utility.yul\":15529:15531   */\n      0x0d\n        /* \"#utility.yul\":15509:15527   */\n      0x24\n      dup3\n      add\n        /* \"#utility.yul\":15502:15532   */\n      mstore\n      shl(0x99, 0x20a62922a0a22cafa0a226a4a7)\n        /* \"#utility.yul\":15548:15566   */\n      0x44\n      dup3\n      add\n        /* \"#utility.yul\":15541:15584   */\n      mstore\n        /* \"#utility.yul\":15601:15619   */\n      0x64\n      add\n        /* \"contracts/ZephyrosStaking/ZephyrosStaking.sol\":5157:5201  require(!isAdmin[newAdmin], \"ALREADY_ADMIN\") */\n      tag_236\n        /* \"#utility.yul\":15288:15625   */\n      jump\n        /* \"contracts/ZephyrosStaking/ZephyrosStaking.sol\":5157:5201  require(!isAdmin[newAdmin], \"ALREADY_ADMIN\") */\n    tag_417:\n      sub(shl(0xa0, 0x01), 0x01)\n        /* \"contracts/ZephyrosStaking/ZephyrosStaking.sol\":5212:5229  isAdmin[newAdmin] */\n      dup2\n      and\n      0x00\n      dup2\n      dup2\n      mstore\n        /* \"contracts/ZephyrosStaking/ZephyrosStaking.sol\":5212:5219  isAdmin */\n      0x02\n        /* \"contracts/ZephyrosStaking/ZephyrosStaking.sol\":5212:5229  isAdmin[newAdmin] */\n      0x20\n      mstore\n      0x40\n      dup1\n      dup3\n      keccak256\n        /* \"contracts/ZephyrosStaking/ZephyrosStaking.sol\":5212:5236  isAdmin[newAdmin] = true */\n      dup1\n      sload\n      not(0xff)\n      and\n        /* \"contracts/ZephyrosStaking/ZephyrosStaking.sol\":5232:5236  true */\n      0x01\n        /* \"contracts/ZephyrosStaking/ZephyrosStaking.sol\":5212:5236  isAdmin[newAdmin] = true */\n      or\n      swap1\n      sstore\n        /* \"contracts/ZephyrosStaking/ZephyrosStaking.sol\":5252:5272  AdminAdded(newAdmin) */\n      mload\n      0x44d6d25963f097ad14f29f06854a01f575648a1ef82f30e562ccd3889717e339\n      swap2\n        /* \"contracts/ZephyrosStaking/ZephyrosStaking.sol\":5212:5229  isAdmin[newAdmin] */\n      swap1\n        /* \"contracts/ZephyrosStaking/ZephyrosStaking.sol\":5252:5272  AdminAdded(newAdmin) */\n      log2\n        /* \"contracts/ZephyrosStaking/ZephyrosStaking.sol\":5041:5280  function addAdmin(address newAdmin) external onlyOwner {... */\n      pop\n      jump\t// out\n        /* \"https://github.com/OpenZeppelin/openzeppelin-contracts/blob/v5.0.2/contracts/access/Ownable.sol\":2293:2394  function renounceOwnership() public virtual onlyOwner {... */\n    tag_147:\n        /* \"https://github.com/OpenZeppelin/openzeppelin-contracts/blob/v5.0.2/contracts/access/Ownable.sol\":1531:1544  _checkOwner() */\n      tag_421\n        /* \"https://github.com/OpenZeppelin/openzeppelin-contracts/blob/v5.0.2/contracts/access/Ownable.sol\":1531:1542  _checkOwner */\n      tag_250\n        /* \"https://github.com/OpenZeppelin/openzeppelin-contracts/blob/v5.0.2/contracts/access/Ownable.sol\":1531:1544  _checkOwner() */\n      jump\t// in\n    tag_421:\n        /* \"https://github.com/OpenZeppelin/openzeppelin-contracts/blob/v5.0.2/contracts/access/Ownable.sol\":2357:2387  _transferOwnership(address(0)) */\n      tag_330\n        /* \"https://github.com/OpenZeppelin/openzeppelin-contracts/blob/v5.0.2/contracts/access/Ownable.sol\":2384:2385  0 */\n      0x00\n        /* \"https://github.com/OpenZeppelin/openzeppelin-contracts/blob/v5.0.2/contracts/access/Ownable.sol\":2357:2375  _transferOwnership */\n      tag_424\n        /* \"https://github.com/OpenZeppelin/openzeppelin-contracts/blob/v5.0.2/contracts/access/Ownable.sol\":2357:2387  _transferOwnership(address(0)) */\n      jump\t// in\n        /* \"contracts/ZephyrosStaking/ZephyrosStaking.sol\":10215:11550  function withdrawCore(uint256 amount) external nonReentrant updateReward(msg.sender) {... */\n    tag_164:\n        /* \"https://github.com/OpenZeppelin/openzeppelin-contracts/blob/v5.0.2/contracts/utils/ReentrancyGuard.sol\":2356:2377  _nonReentrantBefore() */\n      tag_427\n        /* \"https://github.com/OpenZeppelin/openzeppelin-contracts/blob/v5.0.2/contracts/utils/ReentrancyGuard.sol\":2356:2375  _nonReentrantBefore */\n      tag_262\n        /* \"https://github.com/OpenZeppelin/openzeppelin-contracts/blob/v5.0.2/contracts/utils/ReentrancyGuard.sol\":2356:2377  _nonReentrantBefore() */\n      jump\t// in\n    tag_427:\n        /* \"contracts/ZephyrosStaking/ZephyrosStaking.sol\":10288:10298  msg.sender */\n      caller\n        /* \"contracts/ZephyrosStaking/ZephyrosStaking.sol\":16243:16271  _currentAccRewardPerWeight() */\n      tag_429\n        /* \"contracts/ZephyrosStaking/ZephyrosStaking.sol\":16243:16269  _currentAccRewardPerWeight */\n      tag_223\n        /* \"contracts/ZephyrosStaking/ZephyrosStaking.sol\":16243:16271  _currentAccRewardPerWeight() */\n      jump\t// in\n    tag_429:\n        /* \"contracts/ZephyrosStaking/ZephyrosStaking.sol\":16222:16240  accRewardPerWeight */\n      0x0a\n        /* \"contracts/ZephyrosStaking/ZephyrosStaking.sol\":16222:16271  accRewardPerWeight = _currentAccRewardPerWeight() */\n      sstore\n        /* \"contracts/ZephyrosStaking/ZephyrosStaking.sol\":16300:16327  lastRewardBlockApplicable() */\n      tag_430\n        /* \"contracts/ZephyrosStaking/ZephyrosStaking.sol\":16300:16325  lastRewardBlockApplicable */\n      tag_111\n        /* \"contracts/ZephyrosStaking/ZephyrosStaking.sol\":16300:16327  lastRewardBlockApplicable() */\n      jump\t// in\n    tag_430:\n        /* \"contracts/ZephyrosStaking/ZephyrosStaking.sol\":16282:16297  lastRewardBlock */\n      0x0b\n        /* \"contracts/ZephyrosStaking/ZephyrosStaking.sol\":16282:16327  lastRewardBlock = lastRewardBlockApplicable() */\n      sstore\n      sub(shl(0xa0, 0x01), 0x01)\n        /* \"contracts/ZephyrosStaking/ZephyrosStaking.sol\":16344:16365  account != address(0) */\n      dup2\n      and\n      iszero\n        /* \"contracts/ZephyrosStaking/ZephyrosStaking.sol\":16340:16683  if (account != address(0)) {... */\n      tag_431\n      jumpi\n      sub(shl(0xa0, 0x01), 0x01)\n        /* \"contracts/ZephyrosStaking/ZephyrosStaking.sol\":16406:16420  users[account] */\n      dup2\n      and\n        /* \"contracts/ZephyrosStaking/ZephyrosStaking.sol\":16382:16403  UserInfo storage user */\n      0x00\n        /* \"contracts/ZephyrosStaking/ZephyrosStaking.sol\":16406:16420  users[account] */\n      swap1\n      dup2\n      mstore\n        /* \"contracts/ZephyrosStaking/ZephyrosStaking.sol\":16406:16411  users */\n      0x06\n        /* \"contracts/ZephyrosStaking/ZephyrosStaking.sol\":16406:16420  users[account] */\n      0x20\n      mstore\n      0x40\n      dup2\n      keccak256\n        /* \"contracts/ZephyrosStaking/ZephyrosStaking.sol\":16478:16496  accRewardPerWeight */\n      sload(0x0a)\n        /* \"contracts/ZephyrosStaking/ZephyrosStaking.sol\":16458:16475  user.rewardWeight */\n      0x01\n      dup3\n      add\n      sload\n        /* \"contracts/ZephyrosStaking/ZephyrosStaking.sol\":16406:16420  users[account] */\n      swap2\n      swap3\n        /* \"contracts/ZephyrosStaking/ZephyrosStaking.sol\":16382:16403  UserInfo storage user */\n      swap2\n        /* \"contracts/ZephyrosStaking/ZephyrosStaking.sol\":1877:1881  1e24 */\n      0xd3c21bcecceda1000000\n      swap2\n        /* \"contracts/ZephyrosStaking/ZephyrosStaking.sol\":16458:16496  user.rewardWeight * accRewardPerWeight */\n      tag_432\n      swap2\n      tag_225\n      jump\t// in\n    tag_432:\n        /* \"contracts/ZephyrosStaking/ZephyrosStaking.sol\":16457:16513  (user.rewardWeight * accRewardPerWeight) / ACC_PRECISION */\n      tag_433\n      swap2\n      swap1\n      tag_227\n      jump\t// in\n    tag_433:\n        /* \"contracts/ZephyrosStaking/ZephyrosStaking.sol\":16435:16513  uint256 accumulated = (user.rewardWeight * accRewardPerWeight) / ACC_PRECISION */\n      swap1\n      pop\n        /* \"contracts/ZephyrosStaking/ZephyrosStaking.sol\":16567:16571  user */\n      dup2\n        /* \"contracts/ZephyrosStaking/ZephyrosStaking.sol\":16567:16582  user.rewardDebt */\n      0x02\n      add\n      sload\n        /* \"contracts/ZephyrosStaking/ZephyrosStaking.sol\":16553:16564  accumulated */\n      dup2\n        /* \"contracts/ZephyrosStaking/ZephyrosStaking.sol\":16553:16582  accumulated - user.rewardDebt */\n      tag_434\n      swap2\n      swap1\n      tag_231\n      jump\t// in\n    tag_434:\n        /* \"contracts/ZephyrosStaking/ZephyrosStaking.sol\":16528:16532  user */\n      dup3\n        /* \"contracts/ZephyrosStaking/ZephyrosStaking.sol\":16528:16549  user.unclaimedRewards */\n      0x03\n      add\n      0x00\n        /* \"contracts/ZephyrosStaking/ZephyrosStaking.sol\":16528:16582  user.unclaimedRewards += accumulated - user.rewardDebt */\n      dup3\n      dup3\n      sload\n      tag_435\n      swap2\n      swap1\n      tag_229\n      jump\t// in\n    tag_435:\n      swap1\n      swap2\n      sstore\n      pop\n      pop\n        /* \"contracts/ZephyrosStaking/ZephyrosStaking.sol\":16636:16654  accRewardPerWeight */\n      sload(0x0a)\n        /* \"contracts/ZephyrosStaking/ZephyrosStaking.sol\":16616:16633  user.rewardWeight */\n      0x01\n      dup4\n      add\n      sload\n        /* \"contracts/ZephyrosStaking/ZephyrosStaking.sol\":1877:1881  1e24 */\n      0xd3c21bcecceda1000000\n      swap2\n        /* \"contracts/ZephyrosStaking/ZephyrosStaking.sol\":16616:16654  user.rewardWeight * accRewardPerWeight */\n      tag_436\n      swap2\n      tag_225\n      jump\t// in\n    tag_436:\n        /* \"contracts/ZephyrosStaking/ZephyrosStaking.sol\":16615:16671  (user.rewardWeight * accRewardPerWeight) / ACC_PRECISION */\n      tag_437\n      swap2\n      swap1\n      tag_227\n      jump\t// in\n    tag_437:\n        /* \"contracts/ZephyrosStaking/ZephyrosStaking.sol\":16597:16601  user */\n      dup3\n        /* \"contracts/ZephyrosStaking/ZephyrosStaking.sol\":16597:16612  user.rewardDebt */\n      0x02\n      add\n        /* \"contracts/ZephyrosStaking/ZephyrosStaking.sol\":16597:16671  user.rewardDebt = (user.rewardWeight * accRewardPerWeight) / ACC_PRECISION */\n      dup2\n      swap1\n      sstore\n      pop\n        /* \"contracts/ZephyrosStaking/ZephyrosStaking.sol\":16367:16683  {... */\n      pop\n      pop\n        /* \"contracts/ZephyrosStaking/ZephyrosStaking.sol\":16340:16683  if (account != address(0)) {... */\n    tag_431:\n        /* \"contracts/ZephyrosStaking/ZephyrosStaking.sol\":10341:10351  msg.sender */\n      caller\n        /* \"contracts/ZephyrosStaking/ZephyrosStaking.sol\":10311:10332  UserInfo storage user */\n      0x00\n        /* \"contracts/ZephyrosStaking/ZephyrosStaking.sol\":10335:10352  users[msg.sender] */\n      swap1\n      dup2\n      mstore\n        /* \"contracts/ZephyrosStaking/ZephyrosStaking.sol\":10335:10340  users */\n      0x06\n        /* \"contracts/ZephyrosStaking/ZephyrosStaking.sol\":10335:10352  users[msg.sender] */\n      0x20\n      mstore\n      0x40\n      swap1\n      keccak256\n        /* \"contracts/ZephyrosStaking/ZephyrosStaking.sol\":10371:10381  amount > 0 */\n      dup3\n        /* \"contracts/ZephyrosStaking/ZephyrosStaking.sol\":10363:10390  require(amount > 0, \"AMT0\") */\n      tag_439\n      jumpi\n      mload(0x40)\n      shl(0xe5, 0x461bcd)\n      dup2\n      mstore\n      0x04\n      add\n      tag_236\n      swap1\n        /* \"#utility.yul\":12776:12778   */\n      0x20\n        /* \"#utility.yul\":12758:12779   */\n      dup1\n      dup3\n      mstore\n        /* \"#utility.yul\":12815:12816   */\n      0x04\n        /* \"#utility.yul\":12795:12813   */\n      swap1\n      dup3\n      add\n        /* \"#utility.yul\":12788:12817   */\n      mstore\n      shl(0xe4, 0x0414d543)\n        /* \"#utility.yul\":12848:12850   */\n      0x40\n        /* \"#utility.yul\":12833:12851   */\n      dup3\n      add\n        /* \"#utility.yul\":12826:12860   */\n      mstore\n        /* \"#utility.yul\":12892:12894   */\n      0x60\n        /* \"#utility.yul\":12877:12895   */\n      add\n      swap1\n        /* \"#utility.yul\":12574:12901   */\n      jump\n        /* \"contracts/ZephyrosStaking/ZephyrosStaking.sol\":10363:10390  require(amount > 0, \"AMT0\") */\n    tag_439:\n        /* \"contracts/ZephyrosStaking/ZephyrosStaking.sol\":10419:10434  user.coreStaked */\n      dup1\n      sload\n        /* \"contracts/ZephyrosStaking/ZephyrosStaking.sol\":10409:10434  amount <= user.coreStaked */\n      dup4\n      gt\n      iszero\n        /* \"contracts/ZephyrosStaking/ZephyrosStaking.sol\":10401:10444  require(amount <= user.coreStaked, \"STAKE\") */\n      tag_441\n      jumpi\n      mload(0x40)\n      shl(0xe5, 0x461bcd)\n      dup2\n      mstore\n        /* \"#utility.yul\":15832:15834   */\n      0x20\n        /* \"contracts/ZephyrosStaking/ZephyrosStaking.sol\":10401:10444  require(amount <= user.coreStaked, \"STAKE\") */\n      0x04\n      dup3\n      add\n        /* \"#utility.yul\":15814:15835   */\n      mstore\n        /* \"#utility.yul\":15871:15872   */\n      0x05\n        /* \"#utility.yul\":15851:15869   */\n      0x24\n      dup3\n      add\n        /* \"#utility.yul\":15844:15873   */\n      mstore\n      shl(0xd8, 0x5354414b45)\n        /* \"#utility.yul\":15889:15907   */\n      0x44\n      dup3\n      add\n        /* \"#utility.yul\":15882:15917   */\n      mstore\n        /* \"#utility.yul\":15934:15952   */\n      0x64\n      add\n        /* \"contracts/ZephyrosStaking/ZephyrosStaking.sol\":10401:10444  require(amount <= user.coreStaked, \"STAKE\") */\n      tag_236\n        /* \"#utility.yul\":15630:15958   */\n      jump\n        /* \"contracts/ZephyrosStaking/ZephyrosStaking.sol\":10401:10444  require(amount <= user.coreStaked, \"STAKE\") */\n    tag_441:\n        /* \"contracts/ZephyrosStaking/ZephyrosStaking.sol\":10463:10472  user.nfts */\n      0x05\n      dup2\n      add\n        /* \"contracts/ZephyrosStaking/ZephyrosStaking.sol\":10463:10479  user.nfts.length */\n      sload\n        /* \"contracts/ZephyrosStaking/ZephyrosStaking.sol\":10483:10484  1 */\n      0x01\n      gt\n        /* \"contracts/ZephyrosStaking/ZephyrosStaking.sol\":10463:10484  user.nfts.length >= 1 */\n      iszero\n        /* \"contracts/ZephyrosStaking/ZephyrosStaking.sol\":10455:10495  require(user.nfts.length >= 1, \"NFTREQ\") */\n      tag_444\n      jumpi\n      mload(0x40)\n      shl(0xe5, 0x461bcd)\n      dup2\n      mstore\n        /* \"#utility.yul\":13108:13110   */\n      0x20\n        /* \"contracts/ZephyrosStaking/ZephyrosStaking.sol\":10455:10495  require(user.nfts.length >= 1, \"NFTREQ\") */\n      0x04\n      dup3\n      add\n        /* \"#utility.yul\":13090:13111   */\n      mstore\n        /* \"#utility.yul\":13147:13148   */\n      0x06\n        /* \"#utility.yul\":13127:13145   */\n      0x24\n      dup3\n      add\n        /* \"#utility.yul\":13120:13149   */\n      mstore\n      shl(0xd0, 0x4e4654524551)\n        /* \"#utility.yul\":13165:13183   */\n      0x44\n      dup3\n      add\n        /* \"#utility.yul\":13158:13194   */\n      mstore\n        /* \"#utility.yul\":13211:13229   */\n      0x64\n      add\n        /* \"contracts/ZephyrosStaking/ZephyrosStaking.sol\":10455:10495  require(user.nfts.length >= 1, \"NFTREQ\") */\n      tag_236\n        /* \"#utility.yul\":12906:13235   */\n      jump\n        /* \"contracts/ZephyrosStaking/ZephyrosStaking.sol\":10455:10495  require(user.nfts.length >= 1, \"NFTREQ\") */\n    tag_444:\n        /* \"contracts/ZephyrosStaking/ZephyrosStaking.sol\":10508:10526  _claim(msg.sender) */\n      tag_446\n        /* \"contracts/ZephyrosStaking/ZephyrosStaking.sol\":10515:10525  msg.sender */\n      caller\n        /* \"contracts/ZephyrosStaking/ZephyrosStaking.sol\":10508:10514  _claim */\n      tag_329\n        /* \"contracts/ZephyrosStaking/ZephyrosStaking.sol\":10508:10526  _claim(msg.sender) */\n      jump\t// in\n    tag_446:\n        /* \"contracts/ZephyrosStaking/ZephyrosStaking.sol\":10558:10564  amount */\n      dup3\n        /* \"contracts/ZephyrosStaking/ZephyrosStaking.sol\":10539:10543  user */\n      dup2\n        /* \"contracts/ZephyrosStaking/ZephyrosStaking.sol\":10539:10554  user.coreStaked */\n      0x00\n      add\n      0x00\n        /* \"contracts/ZephyrosStaking/ZephyrosStaking.sol\":10539:10564  user.coreStaked -= amount */\n      dup3\n      dup3\n      sload\n      tag_447\n      swap2\n      swap1\n      tag_231\n      jump\t// in\n    tag_447:\n      swap3\n      pop\n      pop\n      dup2\n      swap1\n      sstore\n      pop\n        /* \"contracts/ZephyrosStaking/ZephyrosStaking.sol\":10594:10600  amount */\n      dup3\n        /* \"contracts/ZephyrosStaking/ZephyrosStaking.sol\":10575:10590  totalCoreStaked */\n      0x08\n      0x00\n        /* \"contracts/ZephyrosStaking/ZephyrosStaking.sol\":10575:10600  totalCoreStaked -= amount */\n      dup3\n      dup3\n      sload\n      tag_448\n      swap2\n      swap1\n      tag_231\n      jump\t// in\n    tag_448:\n      swap1\n      swap2\n      sstore\n      pop\n      pop\n        /* \"contracts/ZephyrosStaking/ZephyrosStaking.sol\":10742:10756  user.entryTime */\n      0x04\n      dup2\n      add\n      sload\n        /* \"contracts/ZephyrosStaking/ZephyrosStaking.sol\":10638:10644  amount */\n      dup4\n      swap1\n        /* \"contracts/ZephyrosStaking/ZephyrosStaking.sol\":10613:10635  uint256 returnedAmount */\n      0x00\n      swap1\n      dup2\n      swap1\n        /* \"contracts/ZephyrosStaking/ZephyrosStaking.sol\":10733:10757  _isEarly(user.entryTime) */\n      tag_449\n      swap1\n        /* \"contracts/ZephyrosStaking/ZephyrosStaking.sol\":10733:10741  _isEarly */\n      tag_408\n        /* \"contracts/ZephyrosStaking/ZephyrosStaking.sol\":10733:10757  _isEarly(user.entryTime) */\n      jump\t// in\n    tag_449:\n        /* \"contracts/ZephyrosStaking/ZephyrosStaking.sol\":10729:11290  if (_isEarly(user.entryTime)) {... */\n      iszero\n      tag_450\n      jumpi\n        /* \"contracts/ZephyrosStaking/ZephyrosStaking.sol\":10774:10794  uint256 totalPenalty */\n      0x00\n        /* \"contracts/ZephyrosStaking/ZephyrosStaking.sol\":1054:1060  10_000 */\n      0x2710\n        /* \"contracts/ZephyrosStaking/ZephyrosStaking.sol\":10798:10830  amount * EARLY_STAKE_PENALTY_BPS */\n      tag_451\n        /* \"contracts/ZephyrosStaking/ZephyrosStaking.sol\":1439:1444  1_500 */\n      0x05dc\n        /* \"contracts/ZephyrosStaking/ZephyrosStaking.sol\":10798:10804  amount */\n      dup10\n        /* \"contracts/ZephyrosStaking/ZephyrosStaking.sol\":10798:10830  amount * EARLY_STAKE_PENALTY_BPS */\n      tag_225\n      jump\t// in\n    tag_451:\n        /* \"contracts/ZephyrosStaking/ZephyrosStaking.sol\":10797:10837  (amount * EARLY_STAKE_PENALTY_BPS) / BPS */\n      tag_452\n      swap2\n      swap1\n      tag_227\n      jump\t// in\n    tag_452:\n        /* \"contracts/ZephyrosStaking/ZephyrosStaking.sol\":10774:10837  uint256 totalPenalty = (amount * EARLY_STAKE_PENALTY_BPS) / BPS */\n      swap1\n      pop\n        /* \"contracts/ZephyrosStaking/ZephyrosStaking.sol\":1562:1563  3 */\n      0x03\n        /* \"contracts/ZephyrosStaking/ZephyrosStaking.sol\":10869:10903  totalPenalty * PENALTY_TO_POOL_NUM */\n      tag_453\n        /* \"contracts/ZephyrosStaking/ZephyrosStaking.sol\":1507:1508  2 */\n      0x02\n        /* \"contracts/ZephyrosStaking/ZephyrosStaking.sol\":10774:10837  uint256 totalPenalty = (amount * EARLY_STAKE_PENALTY_BPS) / BPS */\n      dup4\n        /* \"contracts/ZephyrosStaking/ZephyrosStaking.sol\":10869:10903  totalPenalty * PENALTY_TO_POOL_NUM */\n      tag_225\n      jump\t// in\n    tag_453:\n        /* \"contracts/ZephyrosStaking/ZephyrosStaking.sol\":10868:10926  (totalPenalty * PENALTY_TO_POOL_NUM) / PENALTY_TO_POOL_DEN */\n      tag_454\n      swap2\n      swap1\n      tag_227\n      jump\t// in\n    tag_454:\n        /* \"contracts/ZephyrosStaking/ZephyrosStaking.sol\":10852:10926  penaltyToPool = (totalPenalty * PENALTY_TO_POOL_NUM) / PENALTY_TO_POOL_DEN */\n      swap3\n      pop\n        /* \"contracts/ZephyrosStaking/ZephyrosStaking.sol\":10957:10985  totalPenalty - penaltyToPool */\n      tag_455\n        /* \"contracts/ZephyrosStaking/ZephyrosStaking.sol\":10852:10926  penaltyToPool = (totalPenalty * PENALTY_TO_POOL_NUM) / PENALTY_TO_POOL_DEN */\n      dup4\n        /* \"contracts/ZephyrosStaking/ZephyrosStaking.sol\":10957:10969  totalPenalty */\n      dup3\n        /* \"contracts/ZephyrosStaking/ZephyrosStaking.sol\":10957:10985  totalPenalty - penaltyToPool */\n      tag_231\n      jump\t// in\n    tag_455:\n        /* \"contracts/ZephyrosStaking/ZephyrosStaking.sol\":10941:10985  penaltyBurned = totalPenalty - penaltyToPool */\n      swap2\n      pop\n        /* \"contracts/ZephyrosStaking/ZephyrosStaking.sol\":11017:11038  amount - totalPenalty */\n      tag_456\n        /* \"contracts/ZephyrosStaking/ZephyrosStaking.sol\":11026:11038  totalPenalty */\n      dup2\n        /* \"contracts/ZephyrosStaking/ZephyrosStaking.sol\":11017:11023  amount */\n      dup9\n        /* \"contracts/ZephyrosStaking/ZephyrosStaking.sol\":11017:11038  amount - totalPenalty */\n      tag_231\n      jump\t// in\n    tag_456:\n        /* \"contracts/ZephyrosStaking/ZephyrosStaking.sol\":11000:11038  returnedAmount = amount - totalPenalty */\n      swap4\n      pop\n        /* \"contracts/ZephyrosStaking/ZephyrosStaking.sol\":11081:11094  penaltyToPool */\n      dup3\n        /* \"contracts/ZephyrosStaking/ZephyrosStaking.sol\":11055:11077  totalCorePenaltyToPool */\n      0x12\n      0x00\n        /* \"contracts/ZephyrosStaking/ZephyrosStaking.sol\":11055:11094  totalCorePenaltyToPool += penaltyToPool */\n      dup3\n      dup3\n      sload\n      tag_457\n      swap2\n      swap1\n      tag_229\n      jump\t// in\n    tag_457:\n      swap3\n      pop\n      pop\n      dup2\n      swap1\n      sstore\n      pop\n        /* \"contracts/ZephyrosStaking/ZephyrosStaking.sol\":11128:11141  penaltyBurned */\n      dup2\n        /* \"contracts/ZephyrosStaking/ZephyrosStaking.sol\":11109:11124  totalCoreBurned */\n      0x13\n      0x00\n        /* \"contracts/ZephyrosStaking/ZephyrosStaking.sol\":11109:11141  totalCoreBurned += penaltyBurned */\n      dup3\n      dup3\n      sload\n      tag_458\n      swap2\n      swap1\n      tag_229\n      jump\t// in\n    tag_458:\n      swap1\n      swap2\n      sstore\n      pop\n      pop\n        /* \"contracts/ZephyrosStaking/ZephyrosStaking.sol\":11162:11179  penaltyToPool > 0 */\n      dup3\n      iszero\n        /* \"contracts/ZephyrosStaking/ZephyrosStaking.sol\":11158:11216  if (penaltyToPool > 0) _addPenaltyToRewards(penaltyToPool) */\n      tag_460\n      jumpi\n        /* \"contracts/ZephyrosStaking/ZephyrosStaking.sol\":11181:11216  _addPenaltyToRewards(penaltyToPool) */\n      tag_460\n        /* \"contracts/ZephyrosStaking/ZephyrosStaking.sol\":11202:11215  penaltyToPool */\n      dup4\n        /* \"contracts/ZephyrosStaking/ZephyrosStaking.sol\":11181:11201  _addPenaltyToRewards */\n      tag_461\n        /* \"contracts/ZephyrosStaking/ZephyrosStaking.sol\":11181:11216  _addPenaltyToRewards(penaltyToPool) */\n      jump\t// in\n    tag_460:\n        /* \"contracts/ZephyrosStaking/ZephyrosStaking.sol\":11235:11252  penaltyBurned > 0 */\n      dup2\n      iszero\n        /* \"contracts/ZephyrosStaking/ZephyrosStaking.sol\":11231:11278  if (penaltyBurned > 0) core.burn(penaltyBurned) */\n      tag_462\n      jumpi\n        /* \"contracts/ZephyrosStaking/ZephyrosStaking.sol\":11254:11278  core.burn(penaltyBurned) */\n      mload(0x40)\n      shl(0xe3, 0x0852cd8d)\n      dup2\n      mstore\n      0x04\n      dup2\n      add\n        /* \"#utility.yul\":529:554   */\n      dup4\n      swap1\n      mstore\n        /* \"contracts/ZephyrosStaking/ZephyrosStaking.sol\":11254:11258  core */\n      immutable(\"0x8b953cbb84328003779eb1ef176ef07f7dd0ae3d4a8e408de53d15a36466c86e\")\n      sub(shl(0xa0, 0x01), 0x01)\n        /* \"contracts/ZephyrosStaking/ZephyrosStaking.sol\":11254:11263  core.burn */\n      and\n      swap1\n      0x42966c68\n      swap1\n        /* \"#utility.yul\":502:520   */\n      0x24\n      add\n        /* \"contracts/ZephyrosStaking/ZephyrosStaking.sol\":11254:11278  core.burn(penaltyBurned) */\n      0x00\n      mload(0x40)\n      dup1\n      dup4\n      sub\n      dup2\n      0x00\n      dup8\n      dup1\n      extcodesize\n      iszero\n      dup1\n      iszero\n      tag_464\n      jumpi\n      0x00\n      dup1\n      revert\n    tag_464:\n      pop\n      gas\n      call\n      iszero\n      dup1\n      iszero\n      tag_466\n      jumpi\n      returndatasize\n      0x00\n      dup1\n      returndatacopy\n      revert(0x00, returndatasize)\n    tag_466:\n      pop\n      pop\n      pop\n      pop\n        /* \"contracts/ZephyrosStaking/ZephyrosStaking.sol\":11231:11278  if (penaltyBurned > 0) core.burn(penaltyBurned) */\n    tag_462:\n        /* \"contracts/ZephyrosStaking/ZephyrosStaking.sol\":10759:11290  {... */\n      pop\n        /* \"contracts/ZephyrosStaking/ZephyrosStaking.sol\":10729:11290  if (_isEarly(user.entryTime)) {... */\n    tag_450:\n        /* \"contracts/ZephyrosStaking/ZephyrosStaking.sol\":11306:11321  user.coreStaked */\n      dup4\n      sload\n      0x00\n        /* \"contracts/ZephyrosStaking/ZephyrosStaking.sol\":11306:11326  user.coreStaked == 0 */\n      sub\n        /* \"contracts/ZephyrosStaking/ZephyrosStaking.sol\":11302:11346  if (user.coreStaked == 0) user.entryTime = 0 */\n      tag_467\n      jumpi\n        /* \"contracts/ZephyrosStaking/ZephyrosStaking.sol\":11345:11346  0 */\n      0x00\n        /* \"contracts/ZephyrosStaking/ZephyrosStaking.sol\":11328:11342  user.entryTime */\n      0x04\n      dup6\n      add\n        /* \"contracts/ZephyrosStaking/ZephyrosStaking.sol\":11328:11346  user.entryTime = 0 */\n      sstore\n        /* \"contracts/ZephyrosStaking/ZephyrosStaking.sol\":11302:11346  if (user.coreStaked == 0) user.entryTime = 0 */\n    tag_467:\n        /* \"contracts/ZephyrosStaking/ZephyrosStaking.sol\":11359:11389  _refreshUserWeight(msg.sender) */\n      tag_468\n        /* \"contracts/ZephyrosStaking/ZephyrosStaking.sol\":11378:11388  msg.sender */\n      caller\n        /* \"contracts/ZephyrosStaking/ZephyrosStaking.sol\":11359:11377  _refreshUserWeight */\n      tag_358\n        /* \"contracts/ZephyrosStaking/ZephyrosStaking.sol\":11359:11389  _refreshUserWeight(msg.sender) */\n      jump\t// in\n    tag_468:\n        /* \"contracts/ZephyrosStaking/ZephyrosStaking.sol\":11400:11445  core.safeTransfer(msg.sender, returnedAmount) */\n      tag_469\n      sub(shl(0xa0, 0x01), 0x01)\n        /* \"contracts/ZephyrosStaking/ZephyrosStaking.sol\":11400:11404  core */\n      immutable(\"0x8b953cbb84328003779eb1ef176ef07f7dd0ae3d4a8e408de53d15a36466c86e\")\n        /* \"contracts/ZephyrosStaking/ZephyrosStaking.sol\":11400:11417  core.safeTransfer */\n      and\n        /* \"contracts/ZephyrosStaking/ZephyrosStaking.sol\":11418:11428  msg.sender */\n      caller\n        /* \"contracts/ZephyrosStaking/ZephyrosStaking.sol\":11430:11444  returnedAmount */\n      dup6\n        /* \"contracts/ZephyrosStaking/ZephyrosStaking.sol\":11400:11417  core.safeTransfer */\n      tag_246\n        /* \"contracts/ZephyrosStaking/ZephyrosStaking.sol\":11400:11445  core.safeTransfer(msg.sender, returnedAmount) */\n      jump\t// in\n    tag_469:\n        /* \"contracts/ZephyrosStaking/ZephyrosStaking.sol\":11463:11542  CoreWithdrawn(msg.sender, amount, returnedAmount, penaltyToPool, penaltyBurned) */\n      0x40\n      dup1\n      mload\n        /* \"#utility.yul\":16194:16219   */\n      dup8\n      dup2\n      mstore\n        /* \"#utility.yul\":16250:16252   */\n      0x20\n        /* \"#utility.yul\":16235:16253   */\n      dup2\n      add\n        /* \"#utility.yul\":16228:16262   */\n      dup6\n      swap1\n      mstore\n        /* \"#utility.yul\":16278:16296   */\n      swap1\n      dup2\n      add\n        /* \"#utility.yul\":16271:16305   */\n      dup4\n      swap1\n      mstore\n        /* \"#utility.yul\":16336:16338   */\n      0x60\n        /* \"#utility.yul\":16321:16339   */\n      dup2\n      add\n        /* \"#utility.yul\":16314:16348   */\n      dup3\n      swap1\n      mstore\n        /* \"contracts/ZephyrosStaking/ZephyrosStaking.sol\":11477:11487  msg.sender */\n      caller\n      swap1\n        /* \"contracts/ZephyrosStaking/ZephyrosStaking.sol\":11463:11542  CoreWithdrawn(msg.sender, amount, returnedAmount, penaltyToPool, penaltyBurned) */\n      0xed51a34abf73431aee998f69ff67cbc5bae47a2768cc3e2efaf79e7ba0b65f15\n      swap1\n        /* \"#utility.yul\":16181:16184   */\n      0x80\n        /* \"#utility.yul\":16166:16185   */\n      add\n        /* \"contracts/ZephyrosStaking/ZephyrosStaking.sol\":11463:11542  CoreWithdrawn(msg.sender, amount, returnedAmount, penaltyToPool, penaltyBurned) */\n      mload(0x40)\n      dup1\n      swap2\n      sub\n      swap1\n      log2\n        /* \"contracts/ZephyrosStaking/ZephyrosStaking.sol\":10300:11550  {... */\n      pop\n      pop\n      pop\n      pop\n        /* \"https://github.com/OpenZeppelin/openzeppelin-contracts/blob/v5.0.2/contracts/utils/ReentrancyGuard.sol\":2387:2388  _ */\n      pop\n        /* \"https://github.com/OpenZeppelin/openzeppelin-contracts/blob/v5.0.2/contracts/utils/ReentrancyGuard.sol\":2398:2418  _nonReentrantAfter() */\n      tag_360\n        /* \"https://github.com/OpenZeppelin/openzeppelin-contracts/blob/v5.0.2/contracts/utils/ReentrancyGuard.sol\":1713:1714  1 */\n      0x01\n        /* \"https://github.com/OpenZeppelin/openzeppelin-contracts/blob/v5.0.2/contracts/utils/ReentrancyGuard.sol\":2924:2945  _status = NOT_ENTERED */\n      dup1\n      sstore\n        /* \"https://github.com/OpenZeppelin/openzeppelin-contracts/blob/v5.0.2/contracts/utils/ReentrancyGuard.sol\":2744:2952  function _nonReentrantAfter() private {... */\n      jump\n        /* \"contracts/ZephyrosStaking/ZephyrosStaking.sol\":8813:9505  function stakeNFT(address collection, uint256 tokenId) external nonReentrant updateReward(msg.sender) {... */\n    tag_184:\n        /* \"https://github.com/OpenZeppelin/openzeppelin-contracts/blob/v5.0.2/contracts/utils/ReentrancyGuard.sol\":2356:2377  _nonReentrantBefore() */\n      tag_474\n        /* \"https://github.com/OpenZeppelin/openzeppelin-contracts/blob/v5.0.2/contracts/utils/ReentrancyGuard.sol\":2356:2375  _nonReentrantBefore */\n      tag_262\n        /* \"https://github.com/OpenZeppelin/openzeppelin-contracts/blob/v5.0.2/contracts/utils/ReentrancyGuard.sol\":2356:2377  _nonReentrantBefore() */\n      jump\t// in\n    tag_474:\n        /* \"contracts/ZephyrosStaking/ZephyrosStaking.sol\":8903:8913  msg.sender */\n      caller\n        /* \"contracts/ZephyrosStaking/ZephyrosStaking.sol\":16243:16271  _currentAccRewardPerWeight() */\n      tag_476\n        /* \"contracts/ZephyrosStaking/ZephyrosStaking.sol\":16243:16269  _currentAccRewardPerWeight */\n      tag_223\n        /* \"contracts/ZephyrosStaking/ZephyrosStaking.sol\":16243:16271  _currentAccRewardPerWeight() */\n      jump\t// in\n    tag_476:\n        /* \"contracts/ZephyrosStaking/ZephyrosStaking.sol\":16222:16240  accRewardPerWeight */\n      0x0a\n        /* \"contracts/ZephyrosStaking/ZephyrosStaking.sol\":16222:16271  accRewardPerWeight = _currentAccRewardPerWeight() */\n      sstore\n        /* \"contracts/ZephyrosStaking/ZephyrosStaking.sol\":16300:16327  lastRewardBlockApplicable() */\n      tag_477\n        /* \"contracts/ZephyrosStaking/ZephyrosStaking.sol\":16300:16325  lastRewardBlockApplicable */\n      tag_111\n        /* \"contracts/ZephyrosStaking/ZephyrosStaking.sol\":16300:16327  lastRewardBlockApplicable() */\n      jump\t// in\n    tag_477:\n        /* \"contracts/ZephyrosStaking/ZephyrosStaking.sol\":16282:16297  lastRewardBlock */\n      0x0b\n        /* \"contracts/ZephyrosStaking/ZephyrosStaking.sol\":16282:16327  lastRewardBlock = lastRewardBlockApplicable() */\n      sstore\n      sub(shl(0xa0, 0x01), 0x01)\n        /* \"contracts/ZephyrosStaking/ZephyrosStaking.sol\":16344:16365  account != address(0) */\n      dup2\n      and\n      iszero\n        /* \"contracts/ZephyrosStaking/ZephyrosStaking.sol\":16340:16683  if (account != address(0)) {... */\n      tag_478\n      jumpi\n      sub(shl(0xa0, 0x01), 0x01)\n        /* \"contracts/ZephyrosStaking/ZephyrosStaking.sol\":16406:16420  users[account] */\n      dup2\n      and\n        /* \"contracts/ZephyrosStaking/ZephyrosStaking.sol\":16382:16403  UserInfo storage user */\n      0x00\n        /* \"contracts/ZephyrosStaking/ZephyrosStaking.sol\":16406:16420  users[account] */\n      swap1\n      dup2\n      mstore\n        /* \"contracts/ZephyrosStaking/ZephyrosStaking.sol\":16406:16411  users */\n      0x06\n        /* \"contracts/ZephyrosStaking/ZephyrosStaking.sol\":16406:16420  users[account] */\n      0x20\n      mstore\n      0x40\n      dup2\n      keccak256\n        /* \"contracts/ZephyrosStaking/ZephyrosStaking.sol\":16478:16496  accRewardPerWeight */\n      sload(0x0a)\n        /* \"contracts/ZephyrosStaking/ZephyrosStaking.sol\":16458:16475  user.rewardWeight */\n      0x01\n      dup3\n      add\n      sload\n        /* \"contracts/ZephyrosStaking/ZephyrosStaking.sol\":16406:16420  users[account] */\n      swap2\n      swap3\n        /* \"contracts/ZephyrosStaking/ZephyrosStaking.sol\":16382:16403  UserInfo storage user */\n      swap2\n        /* \"contracts/ZephyrosStaking/ZephyrosStaking.sol\":1877:1881  1e24 */\n      0xd3c21bcecceda1000000\n      swap2\n        /* \"contracts/ZephyrosStaking/ZephyrosStaking.sol\":16458:16496  user.rewardWeight * accRewardPerWeight */\n      tag_479\n      swap2\n      tag_225\n      jump\t// in\n    tag_479:\n        /* \"contracts/ZephyrosStaking/ZephyrosStaking.sol\":16457:16513  (user.rewardWeight * accRewardPerWeight) / ACC_PRECISION */\n      tag_480\n      swap2\n      swap1\n      tag_227\n      jump\t// in\n    tag_480:\n        /* \"contracts/ZephyrosStaking/ZephyrosStaking.sol\":16435:16513  uint256 accumulated = (user.rewardWeight * accRewardPerWeight) / ACC_PRECISION */\n      swap1\n      pop\n        /* \"contracts/ZephyrosStaking/ZephyrosStaking.sol\":16567:16571  user */\n      dup2\n        /* \"contracts/ZephyrosStaking/ZephyrosStaking.sol\":16567:16582  user.rewardDebt */\n      0x02\n      add\n      sload\n        /* \"contracts/ZephyrosStaking/ZephyrosStaking.sol\":16553:16564  accumulated */\n      dup2\n        /* \"contracts/ZephyrosStaking/ZephyrosStaking.sol\":16553:16582  accumulated - user.rewardDebt */\n      tag_481\n      swap2\n      swap1\n      tag_231\n      jump\t// in\n    tag_481:\n        /* \"contracts/ZephyrosStaking/ZephyrosStaking.sol\":16528:16532  user */\n      dup3\n        /* \"contracts/ZephyrosStaking/ZephyrosStaking.sol\":16528:16549  user.unclaimedRewards */\n      0x03\n      add\n      0x00\n        /* \"contracts/ZephyrosStaking/ZephyrosStaking.sol\":16528:16582  user.unclaimedRewards += accumulated - user.rewardDebt */\n      dup3\n      dup3\n      sload\n      tag_482\n      swap2\n      swap1\n      tag_229\n      jump\t// in\n    tag_482:\n      swap1\n      swap2\n      sstore\n      pop\n      pop\n        /* \"contracts/ZephyrosStaking/ZephyrosStaking.sol\":16636:16654  accRewardPerWeight */\n      sload(0x0a)\n        /* \"contracts/ZephyrosStaking/ZephyrosStaking.sol\":16616:16633  user.rewardWeight */\n      0x01\n      dup4\n      add\n      sload\n        /* \"contracts/ZephyrosStaking/ZephyrosStaking.sol\":1877:1881  1e24 */\n      0xd3c21bcecceda1000000\n      swap2\n        /* \"contracts/ZephyrosStaking/ZephyrosStaking.sol\":16616:16654  user.rewardWeight * accRewardPerWeight */\n      tag_483\n      swap2\n      tag_225\n      jump\t// in\n    tag_483:\n        /* \"contracts/ZephyrosStaking/ZephyrosStaking.sol\":16615:16671  (user.rewardWeight * accRewardPerWeight) / ACC_PRECISION */\n      tag_484\n      swap2\n      swap1\n      tag_227\n      jump\t// in\n    tag_484:\n        /* \"contracts/ZephyrosStaking/ZephyrosStaking.sol\":16597:16601  user */\n      dup3\n        /* \"contracts/ZephyrosStaking/ZephyrosStaking.sol\":16597:16612  user.rewardDebt */\n      0x02\n      add\n        /* \"contracts/ZephyrosStaking/ZephyrosStaking.sol\":16597:16671  user.rewardDebt = (user.rewardWeight * accRewardPerWeight) / ACC_PRECISION */\n      dup2\n      swap1\n      sstore\n      pop\n        /* \"contracts/ZephyrosStaking/ZephyrosStaking.sol\":16367:16683  {... */\n      pop\n      pop\n        /* \"contracts/ZephyrosStaking/ZephyrosStaking.sol\":16340:16683  if (account != address(0)) {... */\n    tag_478:\n        /* \"contracts/ZephyrosStaking/ZephyrosStaking.sol\":8934:8968  isNFTEligible(collection, tokenId) */\n      tag_486\n        /* \"contracts/ZephyrosStaking/ZephyrosStaking.sol\":8948:8958  collection */\n      dup4\n        /* \"contracts/ZephyrosStaking/ZephyrosStaking.sol\":8960:8967  tokenId */\n      dup4\n        /* \"contracts/ZephyrosStaking/ZephyrosStaking.sol\":8934:8947  isNFTEligible */\n      tag_187\n        /* \"contracts/ZephyrosStaking/ZephyrosStaking.sol\":8934:8968  isNFTEligible(collection, tokenId) */\n      jump\t// in\n    tag_486:\n        /* \"contracts/ZephyrosStaking/ZephyrosStaking.sol\":8926:8979  require(isNFTEligible(collection, tokenId), \"BADNFT\") */\n      tag_487\n      jumpi\n      mload(0x40)\n      shl(0xe5, 0x461bcd)\n      dup2\n      mstore\n        /* \"#utility.yul\":16561:16563   */\n      0x20\n        /* \"contracts/ZephyrosStaking/ZephyrosStaking.sol\":8926:8979  require(isNFTEligible(collection, tokenId), \"BADNFT\") */\n      0x04\n      dup3\n      add\n        /* \"#utility.yul\":16543:16564   */\n      mstore\n        /* \"#utility.yul\":16600:16601   */\n      0x06\n        /* \"#utility.yul\":16580:16598   */\n      0x24\n      dup3\n      add\n        /* \"#utility.yul\":16573:16602   */\n      mstore\n      shl(0xd2, 0x109051139195)\n        /* \"#utility.yul\":16618:16636   */\n      0x44\n      dup3\n      add\n        /* \"#utility.yul\":16611:16647   */\n      mstore\n        /* \"#utility.yul\":16664:16682   */\n      0x64\n      add\n        /* \"contracts/ZephyrosStaking/ZephyrosStaking.sol\":8926:8979  require(isNFTEligible(collection, tokenId), \"BADNFT\") */\n      tag_236\n        /* \"#utility.yul\":16359:16688   */\n      jump\n        /* \"contracts/ZephyrosStaking/ZephyrosStaking.sol\":8926:8979  require(isNFTEligible(collection, tokenId), \"BADNFT\") */\n    tag_487:\n        /* \"contracts/ZephyrosStaking/ZephyrosStaking.sol\":9022:9032  msg.sender */\n      caller\n        /* \"contracts/ZephyrosStaking/ZephyrosStaking.sol\":8992:9013  UserInfo storage user */\n      0x00\n        /* \"contracts/ZephyrosStaking/ZephyrosStaking.sol\":9016:9033  users[msg.sender] */\n      swap1\n      dup2\n      mstore\n        /* \"contracts/ZephyrosStaking/ZephyrosStaking.sol\":9016:9021  users */\n      0x06\n        /* \"contracts/ZephyrosStaking/ZephyrosStaking.sol\":9016:9033  users[msg.sender] */\n      0x20\n      mstore\n      0x40\n      swap1\n      keccak256\n        /* \"contracts/ZephyrosStaking/ZephyrosStaking.sol\":9052:9061  user.nfts */\n      0x05\n      dup2\n      add\n        /* \"contracts/ZephyrosStaking/ZephyrosStaking.sol\":9052:9068  user.nfts.length */\n      sload\n        /* \"contracts/ZephyrosStaking/ZephyrosStaking.sol\":1616:1617  4 */\n      0x04\n      gt\n        /* \"contracts/ZephyrosStaking/ZephyrosStaking.sol\":9044:9099  require(user.nfts.length < MAX_NFTS_PER_USER, \"MAXNFT\") */\n      tag_490\n      jumpi\n      mload(0x40)\n      shl(0xe5, 0x461bcd)\n      dup2\n      mstore\n        /* \"#utility.yul\":16895:16897   */\n      0x20\n        /* \"contracts/ZephyrosStaking/ZephyrosStaking.sol\":9044:9099  require(user.nfts.length < MAX_NFTS_PER_USER, \"MAXNFT\") */\n      0x04\n      dup3\n      add\n        /* \"#utility.yul\":16877:16898   */\n      mstore\n        /* \"#utility.yul\":16934:16935   */\n      0x06\n        /* \"#utility.yul\":16914:16932   */\n      0x24\n      dup3\n      add\n        /* \"#utility.yul\":16907:16936   */\n      mstore\n      shl(0xd2, 0x135056139195)\n        /* \"#utility.yul\":16952:16970   */\n      0x44\n      dup3\n      add\n        /* \"#utility.yul\":16945:16981   */\n      mstore\n        /* \"#utility.yul\":16998:17016   */\n      0x64\n      add\n        /* \"contracts/ZephyrosStaking/ZephyrosStaking.sol\":9044:9099  require(user.nfts.length < MAX_NFTS_PER_USER, \"MAXNFT\") */\n      tag_236\n        /* \"#utility.yul\":16693:17022   */\n      jump\n        /* \"contracts/ZephyrosStaking/ZephyrosStaking.sol\":9044:9099  require(user.nfts.length < MAX_NFTS_PER_USER, \"MAXNFT\") */\n    tag_490:\n      sub(shl(0xa0, 0x01), 0x01)\n        /* \"contracts/ZephyrosStaking/ZephyrosStaking.sol\":9118:9139  nftStaker[collection] */\n      dup5\n      dup2\n      and\n        /* \"contracts/ZephyrosStaking/ZephyrosStaking.sol\":9160:9161  0 */\n      0x00\n        /* \"contracts/ZephyrosStaking/ZephyrosStaking.sol\":9118:9139  nftStaker[collection] */\n      swap1\n      dup2\n      mstore\n        /* \"contracts/ZephyrosStaking/ZephyrosStaking.sol\":9118:9127  nftStaker */\n      0x07\n        /* \"contracts/ZephyrosStaking/ZephyrosStaking.sol\":9118:9139  nftStaker[collection] */\n      0x20\n      swap1\n      dup2\n      mstore\n      0x40\n      dup1\n      dup4\n      keccak256\n        /* \"contracts/ZephyrosStaking/ZephyrosStaking.sol\":9118:9148  nftStaker[collection][tokenId] */\n      dup8\n      dup5\n      mstore\n      swap1\n      swap2\n      mstore\n      swap1\n      keccak256\n      sload\n      and\n        /* \"contracts/ZephyrosStaking/ZephyrosStaking.sol\":9118:9162  nftStaker[collection][tokenId] == address(0) */\n      iszero\n        /* \"contracts/ZephyrosStaking/ZephyrosStaking.sol\":9110:9173  require(nftStaker[collection][tokenId] == address(0), \"DUPNFT\") */\n      tag_493\n      jumpi\n      mload(0x40)\n      shl(0xe5, 0x461bcd)\n      dup2\n      mstore\n        /* \"#utility.yul\":17229:17231   */\n      0x20\n        /* \"contracts/ZephyrosStaking/ZephyrosStaking.sol\":9110:9173  require(nftStaker[collection][tokenId] == address(0), \"DUPNFT\") */\n      0x04\n      dup3\n      add\n        /* \"#utility.yul\":17211:17232   */\n      mstore\n        /* \"#utility.yul\":17268:17269   */\n      0x06\n        /* \"#utility.yul\":17248:17266   */\n      0x24\n      dup3\n      add\n        /* \"#utility.yul\":17241:17270   */\n      mstore\n      shl(0xd2, 0x111554139195)\n        /* \"#utility.yul\":17286:17304   */\n      0x44\n      dup3\n      add\n        /* \"#utility.yul\":17279:17315   */\n      mstore\n        /* \"#utility.yul\":17332:17350   */\n      0x64\n      add\n        /* \"contracts/ZephyrosStaking/ZephyrosStaking.sol\":9110:9173  require(nftStaker[collection][tokenId] == address(0), \"DUPNFT\") */\n      tag_236\n        /* \"#utility.yul\":17027:17356   */\n      jump\n        /* \"contracts/ZephyrosStaking/ZephyrosStaking.sol\":9110:9173  require(nftStaker[collection][tokenId] == address(0), \"DUPNFT\") */\n    tag_493:\n        /* \"contracts/ZephyrosStaking/ZephyrosStaking.sol\":9186:9258  IERC721(collection).safeTransferFrom(msg.sender, address(this), tokenId) */\n      mload(0x40)\n      shl(0xe1, 0x21421707)\n      dup2\n      mstore\n      sub(shl(0xa0, 0x01), 0x01)\n        /* \"contracts/ZephyrosStaking/ZephyrosStaking.sol\":9186:9222  IERC721(collection).safeTransferFrom */\n      dup6\n      and\n      swap1\n      0x42842e0e\n      swap1\n        /* \"contracts/ZephyrosStaking/ZephyrosStaking.sol\":9186:9258  IERC721(collection).safeTransferFrom(msg.sender, address(this), tokenId) */\n      tag_496\n      swap1\n        /* \"contracts/ZephyrosStaking/ZephyrosStaking.sol\":9223:9233  msg.sender */\n      caller\n      swap1\n        /* \"contracts/ZephyrosStaking/ZephyrosStaking.sol\":9243:9247  this */\n      address\n      swap1\n        /* \"contracts/ZephyrosStaking/ZephyrosStaking.sol\":9250:9257  tokenId */\n      dup9\n      swap1\n        /* \"contracts/ZephyrosStaking/ZephyrosStaking.sol\":9186:9258  IERC721(collection).safeTransferFrom(msg.sender, address(this), tokenId) */\n      0x04\n      add\n      tag_385\n      jump\t// in\n    tag_496:\n      0x00\n      mload(0x40)\n      dup1\n      dup4\n      sub\n      dup2\n      0x00\n      dup8\n      dup1\n      extcodesize\n      iszero\n      dup1\n      iszero\n      tag_497\n      jumpi\n      0x00\n      dup1\n      revert\n    tag_497:\n      pop\n      gas\n      call\n      iszero\n      dup1\n      iszero\n      tag_499\n      jumpi\n      returndatasize\n      0x00\n      dup1\n      returndatacopy\n      revert(0x00, returndatasize)\n    tag_499:\n      pop\n      pop\n      pop\n      pop\n      sub(shl(0xa0, 0x01), 0x01)\n        /* \"contracts/ZephyrosStaking/ZephyrosStaking.sol\":9271:9292  nftStaker[collection] */\n      dup5\n      dup2\n      and\n      0x00\n      dup2\n      dup2\n      mstore\n        /* \"contracts/ZephyrosStaking/ZephyrosStaking.sol\":9271:9280  nftStaker */\n      0x07\n        /* \"contracts/ZephyrosStaking/ZephyrosStaking.sol\":9271:9292  nftStaker[collection] */\n      0x20\n      swap1\n      dup2\n      mstore\n      0x40\n      dup1\n      dup4\n      keccak256\n        /* \"contracts/ZephyrosStaking/ZephyrosStaking.sol\":9271:9301  nftStaker[collection][tokenId] */\n      dup9\n      dup5\n      mstore\n      dup3\n      mstore\n      dup1\n      dup4\n      keccak256\n        /* \"contracts/ZephyrosStaking/ZephyrosStaking.sol\":9271:9314  nftStaker[collection][tokenId] = msg.sender */\n      dup1\n      sload\n        /* \"contracts/ZephyrosStaking/ZephyrosStaking.sol\":9304:9314  msg.sender */\n      caller\n      not(sub(shl(0xa0, 0x01), 0x01))\n        /* \"contracts/ZephyrosStaking/ZephyrosStaking.sol\":9271:9314  nftStaker[collection][tokenId] = msg.sender */\n      swap2\n      dup3\n      and\n      dup2\n      or\n      swap1\n      swap3\n      sstore\n        /* \"contracts/ZephyrosStaking/ZephyrosStaking.sol\":9340:9393  StakedNFT({collection: collection, tokenId: tokenId}) */\n      dup3\n      mload\n      dup1\n      dup5\n      add\n      swap1\n      swap4\n      mstore\n      swap5\n      dup3\n      mstore\n      dup2\n      dup4\n      add\n      dup10\n      dup2\n      mstore\n        /* \"contracts/ZephyrosStaking/ZephyrosStaking.sol\":9325:9334  user.nfts */\n      0x05\n      dup9\n      add\n        /* \"contracts/ZephyrosStaking/ZephyrosStaking.sol\":9325:9394  user.nfts.push(StakedNFT({collection: collection, tokenId: tokenId})) */\n      dup1\n      sload\n      0x01\n      dup2\n      dup2\n      add\n      dup4\n      sstore\n      swap2\n      dup8\n      mstore\n      swap5\n      swap1\n      swap6\n      keccak256\n      swap3\n      mload\n      0x02\n      swap1\n      swap5\n      mul\n      swap1\n      swap3\n      add\n      dup1\n      sload\n      swap1\n      swap6\n      and\n      swap3\n      swap1\n      swap6\n      and\n      swap2\n      swap1\n      swap2\n      or\n      dup4\n      sstore\n      mload\n      swap2\n      add\n      sstore\n        /* \"contracts/ZephyrosStaking/ZephyrosStaking.sol\":9407:9437  _refreshUserWeight(msg.sender) */\n      tag_501\n      swap1\n        /* \"contracts/ZephyrosStaking/ZephyrosStaking.sol\":9407:9425  _refreshUserWeight */\n      tag_358\n        /* \"contracts/ZephyrosStaking/ZephyrosStaking.sol\":9407:9437  _refreshUserWeight(msg.sender) */\n      jump\t// in\n    tag_501:\n        /* \"contracts/ZephyrosStaking/ZephyrosStaking.sol\":9455:9497  NFTStaked(msg.sender, collection, tokenId) */\n      mload(0x40)\n        /* \"contracts/ZephyrosStaking/ZephyrosStaking.sol\":9489:9496  tokenId */\n      dup4\n      swap1\n      sub(shl(0xa0, 0x01), 0x01)\n        /* \"contracts/ZephyrosStaking/ZephyrosStaking.sol\":9455:9497  NFTStaked(msg.sender, collection, tokenId) */\n      dup7\n      and\n      swap1\n        /* \"contracts/ZephyrosStaking/ZephyrosStaking.sol\":9465:9475  msg.sender */\n      caller\n      swap1\n        /* \"contracts/ZephyrosStaking/ZephyrosStaking.sol\":9455:9497  NFTStaked(msg.sender, collection, tokenId) */\n      0x45a0b747ada8575b65125b2144e0de1ff692ff4510bb94a2f9695fcaf1d2bdf3\n      swap1\n      0x00\n      swap1\n      log4\n        /* \"contracts/ZephyrosStaking/ZephyrosStaking.sol\":8915:9505  {... */\n      pop\n        /* \"https://github.com/OpenZeppelin/openzeppelin-contracts/blob/v5.0.2/contracts/utils/ReentrancyGuard.sol\":2387:2388  _ */\n      pop\n        /* \"https://github.com/OpenZeppelin/openzeppelin-contracts/blob/v5.0.2/contracts/utils/ReentrancyGuard.sol\":2398:2418  _nonReentrantAfter() */\n      tag_300\n        /* \"https://github.com/OpenZeppelin/openzeppelin-contracts/blob/v5.0.2/contracts/utils/ReentrancyGuard.sol\":1713:1714  1 */\n      0x01\n        /* \"https://github.com/OpenZeppelin/openzeppelin-contracts/blob/v5.0.2/contracts/utils/ReentrancyGuard.sol\":2924:2945  _status = NOT_ENTERED */\n      dup1\n      sstore\n        /* \"https://github.com/OpenZeppelin/openzeppelin-contracts/blob/v5.0.2/contracts/utils/ReentrancyGuard.sol\":2744:2952  function _nonReentrantAfter() private {... */\n      jump\n        /* \"contracts/ZephyrosStaking/ZephyrosStaking.sol\":14357:14696  function isNFTEligible(address collection, uint256 tokenId) public view returns (bool) {... */\n    tag_187:\n      sub(shl(0xa0, 0x01), 0x01)\n        /* \"contracts/ZephyrosStaking/ZephyrosStaking.sol\":14488:14511  collections[collection] */\n      dup3\n      and\n        /* \"contracts/ZephyrosStaking/ZephyrosStaking.sol\":14438:14442  bool */\n      0x00\n        /* \"contracts/ZephyrosStaking/ZephyrosStaking.sol\":14488:14511  collections[collection] */\n      swap1\n      dup2\n      mstore\n        /* \"contracts/ZephyrosStaking/ZephyrosStaking.sol\":14488:14499  collections */\n      0x03\n        /* \"contracts/ZephyrosStaking/ZephyrosStaking.sol\":14488:14511  collections[collection] */\n      0x20\n      swap1\n      dup2\n      mstore\n      0x40\n      dup1\n      dup4\n      keccak256\n        /* \"contracts/ZephyrosStaking/ZephyrosStaking.sol\":14455:14511  CollectionConfig memory config = collections[collection] */\n      dup2\n      mload\n      dup1\n      dup4\n      add\n      swap1\n      swap3\n      mstore\n      dup1\n      sload\n      0xff\n      dup1\n      dup3\n      and\n      iszero\n      iszero\n      dup5\n      mstore\n        /* \"contracts/ZephyrosStaking/ZephyrosStaking.sol\":14438:14442  bool */\n      dup6\n      swap5\n        /* \"contracts/ZephyrosStaking/ZephyrosStaking.sol\":14455:14511  CollectionConfig memory config = collections[collection] */\n      dup5\n      add\n      swap2\n      0x0100\n      swap1\n      div\n      and\n      0x01\n      dup2\n      gt\n      iszero\n      tag_505\n      jumpi\n      tag_505\n      tag_401\n      jump\t// in\n    tag_505:\n      0x01\n      dup2\n      gt\n      iszero\n      tag_507\n      jumpi\n      tag_507\n      tag_401\n      jump\t// in\n    tag_507:\n      swap1\n      mstore\n      pop\n        /* \"contracts/ZephyrosStaking/ZephyrosStaking.sol\":14527:14545  config.whitelisted */\n      dup1\n      mload\n        /* \"contracts/ZephyrosStaking/ZephyrosStaking.sol\":14455:14511  CollectionConfig memory config = collections[collection] */\n      swap1\n      swap2\n      pop\n        /* \"contracts/ZephyrosStaking/ZephyrosStaking.sol\":14522:14559  if (!config.whitelisted) return false */\n      tag_508\n      jumpi\n        /* \"contracts/ZephyrosStaking/ZephyrosStaking.sol\":14554:14559  false */\n      0x00\n        /* \"contracts/ZephyrosStaking/ZephyrosStaking.sol\":14547:14559  return false */\n      swap2\n      pop\n      pop\n      jump(tag_503)\n        /* \"contracts/ZephyrosStaking/ZephyrosStaking.sol\":14522:14559  if (!config.whitelisted) return false */\n    tag_508:\n        /* \"contracts/ZephyrosStaking/ZephyrosStaking.sol\":14589:14621  EligibilityMode.AllTokensAllowed */\n      0x00\n        /* \"contracts/ZephyrosStaking/ZephyrosStaking.sol\":14574:14580  config */\n      dup2\n        /* \"contracts/ZephyrosStaking/ZephyrosStaking.sol\":14574:14585  config.mode */\n      0x20\n      add\n      mload\n        /* \"contracts/ZephyrosStaking/ZephyrosStaking.sol\":14574:14621  config.mode == EligibilityMode.AllTokensAllowed */\n      0x01\n      dup2\n      gt\n      iszero\n      tag_512\n      jumpi\n      tag_512\n      tag_401\n      jump\t// in\n    tag_512:\n      sub\n        /* \"contracts/ZephyrosStaking/ZephyrosStaking.sol\":14570:14634  if (config.mode == EligibilityMode.AllTokensAllowed) return true */\n      tag_513\n      jumpi\n        /* \"contracts/ZephyrosStaking/ZephyrosStaking.sol\":14630:14634  true */\n      0x01\n        /* \"contracts/ZephyrosStaking/ZephyrosStaking.sol\":14623:14634  return true */\n      swap2\n      pop\n      pop\n      jump(tag_503)\n        /* \"contracts/ZephyrosStaking/ZephyrosStaking.sol\":14570:14634  if (config.mode == EligibilityMode.AllTokensAllowed) return true */\n    tag_513:\n      pop\n      pop\n      sub(shl(0xa0, 0x01), 0x01)\n        /* \"contracts/ZephyrosStaking/ZephyrosStaking.sol\":14652:14679  approvedTokenId[collection] */\n      dup3\n      and\n      0x00\n      swap1\n      dup2\n      mstore\n        /* \"contracts/ZephyrosStaking/ZephyrosStaking.sol\":14652:14667  approvedTokenId */\n      0x04\n        /* \"contracts/ZephyrosStaking/ZephyrosStaking.sol\":14652:14679  approvedTokenId[collection] */\n      0x20\n      swap1\n      dup2\n      mstore\n      0x40\n      dup1\n      dup4\n      keccak256\n        /* \"contracts/ZephyrosStaking/ZephyrosStaking.sol\":14652:14688  approvedTokenId[collection][tokenId] */\n      dup5\n      dup5\n      mstore\n      swap1\n      swap2\n      mstore\n      swap1\n      keccak256\n      sload\n      0xff\n      and\n        /* \"contracts/ZephyrosStaking/ZephyrosStaking.sol\":14357:14696  function isNFTEligible(address collection, uint256 tokenId) public view returns (bool) {... */\n    tag_503:\n      swap3\n      swap2\n      pop\n      pop\n      jump\t// out\n        /* \"contracts/ZephyrosStaking/ZephyrosStaking.sol\":6301:6720  function batchSetApprovedTokenIds(... */\n    tag_192:\n        /* \"contracts/ZephyrosStaking/ZephyrosStaking.sol\":4963:4973  msg.sender */\n      caller\n        /* \"contracts/ZephyrosStaking/ZephyrosStaking.sol\":4955:4974  isAdmin[msg.sender] */\n      0x00\n      swap1\n      dup2\n      mstore\n        /* \"contracts/ZephyrosStaking/ZephyrosStaking.sol\":4955:4962  isAdmin */\n      0x02\n        /* \"contracts/ZephyrosStaking/ZephyrosStaking.sol\":4955:4974  isAdmin[msg.sender] */\n      0x20\n      mstore\n      0x40\n      swap1\n      keccak256\n      sload\n      0xff\n      and\n      dup1\n        /* \"contracts/ZephyrosStaking/ZephyrosStaking.sol\":4955:4999  isAdmin[msg.sender] || msg.sender == owner() */\n      tag_515\n      jumpi\n      pop\n        /* \"https://github.com/OpenZeppelin/openzeppelin-contracts/blob/v5.0.2/contracts/access/Ownable.sol\":1684:1691  address */\n      0x00\n        /* \"https://github.com/OpenZeppelin/openzeppelin-contracts/blob/v5.0.2/contracts/access/Ownable.sol\":1710:1716  _owner */\n      sload\n      sub(shl(0xa0, 0x01), 0x01)\n      and\n        /* \"contracts/ZephyrosStaking/ZephyrosStaking.sol\":4978:4988  msg.sender */\n      caller\n        /* \"contracts/ZephyrosStaking/ZephyrosStaking.sol\":4978:4999  msg.sender == owner() */\n      eq\n        /* \"contracts/ZephyrosStaking/ZephyrosStaking.sol\":4955:4999  isAdmin[msg.sender] || msg.sender == owner() */\n    tag_515:\n        /* \"contracts/ZephyrosStaking/ZephyrosStaking.sol\":4947:5013  require(isAdmin[msg.sender] || msg.sender == owner(), \"Not admin\") */\n      tag_517\n      jumpi\n      mload(0x40)\n      shl(0xe5, 0x461bcd)\n      dup2\n      mstore\n      0x04\n      add\n      tag_236\n      swap1\n      tag_237\n      jump\t// in\n    tag_517:\n      sub(shl(0xa0, 0x01), 0x01)\n        /* \"contracts/ZephyrosStaking/ZephyrosStaking.sol\":6471:6495  collection != address(0) */\n      dup5\n      and\n        /* \"contracts/ZephyrosStaking/ZephyrosStaking.sol\":6463:6504  require(collection != address(0), \"COL0\") */\n      tag_520\n      jumpi\n      mload(0x40)\n      shl(0xe5, 0x461bcd)\n      dup2\n      mstore\n      0x04\n      add\n      tag_236\n      swap1\n      tag_398\n      jump\t// in\n    tag_520:\n        /* \"contracts/ZephyrosStaking/ZephyrosStaking.sol\":6520:6529  uint256 i */\n      0x00\n        /* \"contracts/ZephyrosStaking/ZephyrosStaking.sol\":6515:6713  for (uint256 i = 0; i < tokenIds.length; i++) {... */\n    tag_522:\n        /* \"contracts/ZephyrosStaking/ZephyrosStaking.sol\":6535:6554  i < tokenIds.length */\n      dup3\n      dup2\n      lt\n        /* \"contracts/ZephyrosStaking/ZephyrosStaking.sol\":6515:6713  for (uint256 i = 0; i < tokenIds.length; i++) {... */\n      iszero\n      tag_523\n      jumpi\n      sub(shl(0xa0, 0x01), 0x01)\n        /* \"contracts/ZephyrosStaking/ZephyrosStaking.sol\":6576:6603  approvedTokenId[collection] */\n      dup6\n      and\n      0x00\n      swap1\n      dup2\n      mstore\n        /* \"contracts/ZephyrosStaking/ZephyrosStaking.sol\":6576:6591  approvedTokenId */\n      0x04\n        /* \"contracts/ZephyrosStaking/ZephyrosStaking.sol\":6576:6603  approvedTokenId[collection] */\n      0x20\n      mstore\n      0x40\n      dup2\n      keccak256\n        /* \"contracts/ZephyrosStaking/ZephyrosStaking.sol\":6619:6627  eligible */\n      dup4\n      swap2\n        /* \"contracts/ZephyrosStaking/ZephyrosStaking.sol\":6604:6612  tokenIds */\n      dup7\n      dup7\n        /* \"contracts/ZephyrosStaking/ZephyrosStaking.sol\":6613:6614  i */\n      dup6\n        /* \"contracts/ZephyrosStaking/ZephyrosStaking.sol\":6604:6615  tokenIds[i] */\n      dup2\n      dup2\n      lt\n      tag_526\n      jumpi\n      tag_526\n      tag_527\n      jump\t// in\n    tag_526:\n      swap1\n      pop\n      0x20\n      mul\n      add\n      calldataload\n        /* \"contracts/ZephyrosStaking/ZephyrosStaking.sol\":6576:6616  approvedTokenId[collection][tokenIds[i]] */\n      dup2\n      mstore\n      0x20\n      add\n      swap1\n      dup2\n      mstore\n      0x20\n      add\n      0x00\n      keccak256\n      0x00\n        /* \"contracts/ZephyrosStaking/ZephyrosStaking.sol\":6576:6627  approvedTokenId[collection][tokenIds[i]] = eligible */\n      0x0100\n      exp\n      dup2\n      sload\n      dup2\n      0xff\n      mul\n      not\n      and\n      swap1\n      dup4\n      iszero\n      iszero\n      mul\n      or\n      swap1\n      sstore\n      pop\n        /* \"contracts/ZephyrosStaking/ZephyrosStaking.sol\":6679:6687  tokenIds */\n      dup4\n      dup4\n        /* \"contracts/ZephyrosStaking/ZephyrosStaking.sol\":6688:6689  i */\n      dup3\n        /* \"contracts/ZephyrosStaking/ZephyrosStaking.sol\":6679:6690  tokenIds[i] */\n      dup2\n      dup2\n      lt\n      tag_529\n      jumpi\n      tag_529\n      tag_527\n      jump\t// in\n    tag_529:\n      swap1\n      pop\n      0x20\n      mul\n      add\n      calldataload\n        /* \"contracts/ZephyrosStaking/ZephyrosStaking.sol\":6667:6677  collection */\n      dup6\n      sub(shl(0xa0, 0x01), 0x01)\n        /* \"contracts/ZephyrosStaking/ZephyrosStaking.sol\":6647:6701  TokenEligibilitySet(collection, tokenIds[i], eligible) */\n      and\n      0x03929b99f1d41b1602615acbac6af6c29ae6687db3d6586d252bf82074486e31\n        /* \"contracts/ZephyrosStaking/ZephyrosStaking.sol\":6692:6700  eligible */\n      dup5\n        /* \"contracts/ZephyrosStaking/ZephyrosStaking.sol\":6647:6701  TokenEligibilitySet(collection, tokenIds[i], eligible) */\n      mload(0x40)\n      tag_530\n      swap2\n        /* \"#utility.yul\":2253:2267   */\n      iszero\n        /* \"#utility.yul\":2246:2268   */\n      iszero\n        /* \"#utility.yul\":2228:2269   */\n      dup2\n      mstore\n        /* \"#utility.yul\":2216:2218   */\n      0x20\n        /* \"#utility.yul\":2201:2219   */\n      add\n      swap1\n        /* \"#utility.yul\":2088:2275   */\n      jump\n        /* \"contracts/ZephyrosStaking/ZephyrosStaking.sol\":6647:6701  TokenEligibilitySet(collection, tokenIds[i], eligible) */\n    tag_530:\n      mload(0x40)\n      dup1\n      swap2\n      sub\n      swap1\n      log3\n        /* \"contracts/ZephyrosStaking/ZephyrosStaking.sol\":6556:6559  i++ */\n      dup1\n      tag_531\n      dup2\n      tag_532\n      jump\t// in\n    tag_531:\n      swap2\n      pop\n      pop\n        /* \"contracts/ZephyrosStaking/ZephyrosStaking.sol\":6515:6713  for (uint256 i = 0; i < tokenIds.length; i++) {... */\n      jump(tag_522)\n    tag_523:\n      pop\n        /* \"contracts/ZephyrosStaking/ZephyrosStaking.sol\":6301:6720  function batchSetApprovedTokenIds(... */\n      pop\n      pop\n      pop\n      pop\n      jump\t// out\n        /* \"contracts/ZephyrosStaking/ZephyrosStaking.sol\":12208:14193  function exit() external nonReentrant updateReward(msg.sender) {... */\n    tag_200:\n        /* \"https://github.com/OpenZeppelin/openzeppelin-contracts/blob/v5.0.2/contracts/utils/ReentrancyGuard.sol\":2356:2377  _nonReentrantBefore() */\n      tag_534\n        /* \"https://github.com/OpenZeppelin/openzeppelin-contracts/blob/v5.0.2/contracts/utils/ReentrancyGuard.sol\":2356:2375  _nonReentrantBefore */\n      tag_262\n        /* \"https://github.com/OpenZeppelin/openzeppelin-contracts/blob/v5.0.2/contracts/utils/ReentrancyGuard.sol\":2356:2377  _nonReentrantBefore() */\n      jump\t// in\n    tag_534:\n        /* \"contracts/ZephyrosStaking/ZephyrosStaking.sol\":12259:12269  msg.sender */\n      caller\n        /* \"contracts/ZephyrosStaking/ZephyrosStaking.sol\":16243:16271  _currentAccRewardPerWeight() */\n      tag_536\n        /* \"contracts/ZephyrosStaking/ZephyrosStaking.sol\":16243:16269  _currentAccRewardPerWeight */\n      tag_223\n        /* \"contracts/ZephyrosStaking/ZephyrosStaking.sol\":16243:16271  _currentAccRewardPerWeight() */\n      jump\t// in\n    tag_536:\n        /* \"contracts/ZephyrosStaking/ZephyrosStaking.sol\":16222:16240  accRewardPerWeight */\n      0x0a\n        /* \"contracts/ZephyrosStaking/ZephyrosStaking.sol\":16222:16271  accRewardPerWeight = _currentAccRewardPerWeight() */\n      sstore\n        /* \"contracts/ZephyrosStaking/ZephyrosStaking.sol\":16300:16327  lastRewardBlockApplicable() */\n      tag_537\n        /* \"contracts/ZephyrosStaking/ZephyrosStaking.sol\":16300:16325  lastRewardBlockApplicable */\n      tag_111\n        /* \"contracts/ZephyrosStaking/ZephyrosStaking.sol\":16300:16327  lastRewardBlockApplicable() */\n      jump\t// in\n    tag_537:\n        /* \"contracts/ZephyrosStaking/ZephyrosStaking.sol\":16282:16297  lastRewardBlock */\n      0x0b\n        /* \"contracts/ZephyrosStaking/ZephyrosStaking.sol\":16282:16327  lastRewardBlock = lastRewardBlockApplicable() */\n      sstore\n      sub(shl(0xa0, 0x01), 0x01)\n        /* \"contracts/ZephyrosStaking/ZephyrosStaking.sol\":16344:16365  account != address(0) */\n      dup2\n      and\n      iszero\n        /* \"contracts/ZephyrosStaking/ZephyrosStaking.sol\":16340:16683  if (account != address(0)) {... */\n      tag_538\n      jumpi\n      sub(shl(0xa0, 0x01), 0x01)\n        /* \"contracts/ZephyrosStaking/ZephyrosStaking.sol\":16406:16420  users[account] */\n      dup2\n      and\n        /* \"contracts/ZephyrosStaking/ZephyrosStaking.sol\":16382:16403  UserInfo storage user */\n      0x00\n        /* \"contracts/ZephyrosStaking/ZephyrosStaking.sol\":16406:16420  users[account] */\n      swap1\n      dup2\n      mstore\n        /* \"contracts/ZephyrosStaking/ZephyrosStaking.sol\":16406:16411  users */\n      0x06\n        /* \"contracts/ZephyrosStaking/ZephyrosStaking.sol\":16406:16420  users[account] */\n      0x20\n      mstore\n      0x40\n      dup2\n      keccak256\n        /* \"contracts/ZephyrosStaking/ZephyrosStaking.sol\":16478:16496  accRewardPerWeight */\n      sload(0x0a)\n        /* \"contracts/ZephyrosStaking/ZephyrosStaking.sol\":16458:16475  user.rewardWeight */\n      0x01\n      dup3\n      add\n      sload\n        /* \"contracts/ZephyrosStaking/ZephyrosStaking.sol\":16406:16420  users[account] */\n      swap2\n      swap3\n        /* \"contracts/ZephyrosStaking/ZephyrosStaking.sol\":16382:16403  UserInfo storage user */\n      swap2\n        /* \"contracts/ZephyrosStaking/ZephyrosStaking.sol\":1877:1881  1e24 */\n      0xd3c21bcecceda1000000\n      swap2\n        /* \"contracts/ZephyrosStaking/ZephyrosStaking.sol\":16458:16496  user.rewardWeight * accRewardPerWeight */\n      tag_539\n      swap2\n      tag_225\n      jump\t// in\n    tag_539:\n        /* \"contracts/ZephyrosStaking/ZephyrosStaking.sol\":16457:16513  (user.rewardWeight * accRewardPerWeight) / ACC_PRECISION */\n      tag_540\n      swap2\n      swap1\n      tag_227\n      jump\t// in\n    tag_540:\n        /* \"contracts/ZephyrosStaking/ZephyrosStaking.sol\":16435:16513  uint256 accumulated = (user.rewardWeight * accRewardPerWeight) / ACC_PRECISION */\n      swap1\n      pop\n        /* \"contracts/ZephyrosStaking/ZephyrosStaking.sol\":16567:16571  user */\n      dup2\n        /* \"contracts/ZephyrosStaking/ZephyrosStaking.sol\":16567:16582  user.rewardDebt */\n      0x02\n      add\n      sload\n        /* \"contracts/ZephyrosStaking/ZephyrosStaking.sol\":16553:16564  accumulated */\n      dup2\n        /* \"contracts/ZephyrosStaking/ZephyrosStaking.sol\":16553:16582  accumulated - user.rewardDebt */\n      tag_541\n      swap2\n      swap1\n      tag_231\n      jump\t// in\n    tag_541:\n        /* \"contracts/ZephyrosStaking/ZephyrosStaking.sol\":16528:16532  user */\n      dup3\n        /* \"contracts/ZephyrosStaking/ZephyrosStaking.sol\":16528:16549  user.unclaimedRewards */\n      0x03\n      add\n      0x00\n        /* \"contracts/ZephyrosStaking/ZephyrosStaking.sol\":16528:16582  user.unclaimedRewards += accumulated - user.rewardDebt */\n      dup3\n      dup3\n      sload\n      tag_542\n      swap2\n      swap1\n      tag_229\n      jump\t// in\n    tag_542:\n      swap1\n      swap2\n      sstore\n      pop\n      pop\n        /* \"contracts/ZephyrosStaking/ZephyrosStaking.sol\":16636:16654  accRewardPerWeight */\n      sload(0x0a)\n        /* \"contracts/ZephyrosStaking/ZephyrosStaking.sol\":16616:16633  user.rewardWeight */\n      0x01\n      dup4\n      add\n      sload\n        /* \"contracts/ZephyrosStaking/ZephyrosStaking.sol\":1877:1881  1e24 */\n      0xd3c21bcecceda1000000\n      swap2\n        /* \"contracts/ZephyrosStaking/ZephyrosStaking.sol\":16616:16654  user.rewardWeight * accRewardPerWeight */\n      tag_543\n      swap2\n      tag_225\n      jump\t// in\n    tag_543:\n        /* \"contracts/ZephyrosStaking/ZephyrosStaking.sol\":16615:16671  (user.rewardWeight * accRewardPerWeight) / ACC_PRECISION */\n      tag_544\n      swap2\n      swap1\n      tag_227\n      jump\t// in\n    tag_544:\n        /* \"contracts/ZephyrosStaking/ZephyrosStaking.sol\":16597:16601  user */\n      dup3\n        /* \"contracts/ZephyrosStaking/ZephyrosStaking.sol\":16597:16612  user.rewardDebt */\n      0x02\n      add\n        /* \"contracts/ZephyrosStaking/ZephyrosStaking.sol\":16597:16671  user.rewardDebt = (user.rewardWeight * accRewardPerWeight) / ACC_PRECISION */\n      dup2\n      swap1\n      sstore\n      pop\n        /* \"contracts/ZephyrosStaking/ZephyrosStaking.sol\":16367:16683  {... */\n      pop\n      pop\n        /* \"contracts/ZephyrosStaking/ZephyrosStaking.sol\":16340:16683  if (account != address(0)) {... */\n    tag_538:\n        /* \"contracts/ZephyrosStaking/ZephyrosStaking.sol\":12312:12322  msg.sender */\n      caller\n        /* \"contracts/ZephyrosStaking/ZephyrosStaking.sol\":12282:12303  UserInfo storage user */\n      0x00\n        /* \"contracts/ZephyrosStaking/ZephyrosStaking.sol\":12306:12323  users[msg.sender] */\n      swap1\n      dup2\n      mstore\n        /* \"contracts/ZephyrosStaking/ZephyrosStaking.sol\":12306:12311  users */\n      0x06\n        /* \"contracts/ZephyrosStaking/ZephyrosStaking.sol\":12306:12323  users[msg.sender] */\n      0x20\n      mstore\n      0x40\n      swap1\n      keccak256\n        /* \"contracts/ZephyrosStaking/ZephyrosStaking.sol\":12342:12357  user.coreStaked */\n      dup1\n      sload\n        /* \"contracts/ZephyrosStaking/ZephyrosStaking.sol\":12342:12361  user.coreStaked > 0 */\n      iszero\n      iszero\n      dup1\n        /* \"contracts/ZephyrosStaking/ZephyrosStaking.sol\":12342:12385  user.coreStaked > 0 || user.nfts.length > 0 */\n      tag_546\n      jumpi\n      pop\n        /* \"contracts/ZephyrosStaking/ZephyrosStaking.sol\":12365:12374  user.nfts */\n      0x05\n      dup2\n      add\n        /* \"contracts/ZephyrosStaking/ZephyrosStaking.sol\":12365:12381  user.nfts.length */\n      sload\n        /* \"contracts/ZephyrosStaking/ZephyrosStaking.sol\":12365:12385  user.nfts.length > 0 */\n      iszero\n      iszero\n        /* \"contracts/ZephyrosStaking/ZephyrosStaking.sol\":12342:12385  user.coreStaked > 0 || user.nfts.length > 0 */\n    tag_546:\n        /* \"contracts/ZephyrosStaking/ZephyrosStaking.sol\":12334:12395  require(user.coreStaked > 0 || user.nfts.length > 0, \"NOPOS\") */\n      tag_547\n      jumpi\n      mload(0x40)\n      shl(0xe5, 0x461bcd)\n      dup2\n      mstore\n        /* \"#utility.yul\":17835:17837   */\n      0x20\n        /* \"contracts/ZephyrosStaking/ZephyrosStaking.sol\":12334:12395  require(user.coreStaked > 0 || user.nfts.length > 0, \"NOPOS\") */\n      0x04\n      dup3\n      add\n        /* \"#utility.yul\":17817:17838   */\n      mstore\n        /* \"#utility.yul\":17874:17875   */\n      0x05\n        /* \"#utility.yul\":17854:17872   */\n      0x24\n      dup3\n      add\n        /* \"#utility.yul\":17847:17876   */\n      mstore\n      shl(0xd8, 0x4e4f504f53)\n        /* \"#utility.yul\":17892:17910   */\n      0x44\n      dup3\n      add\n        /* \"#utility.yul\":17885:17920   */\n      mstore\n        /* \"#utility.yul\":17937:17955   */\n      0x64\n      add\n        /* \"contracts/ZephyrosStaking/ZephyrosStaking.sol\":12334:12395  require(user.coreStaked > 0 || user.nfts.length > 0, \"NOPOS\") */\n      tag_236\n        /* \"#utility.yul\":17633:17961   */\n      jump\n        /* \"contracts/ZephyrosStaking/ZephyrosStaking.sol\":12334:12395  require(user.coreStaked > 0 || user.nfts.length > 0, \"NOPOS\") */\n    tag_547:\n        /* \"contracts/ZephyrosStaking/ZephyrosStaking.sol\":12408:12426  _claim(msg.sender) */\n      tag_550\n        /* \"contracts/ZephyrosStaking/ZephyrosStaking.sol\":12415:12425  msg.sender */\n      caller\n        /* \"contracts/ZephyrosStaking/ZephyrosStaking.sol\":12408:12414  _claim */\n      tag_329\n        /* \"contracts/ZephyrosStaking/ZephyrosStaking.sol\":12408:12426  _claim(msg.sender) */\n      jump\t// in\n    tag_550:\n        /* \"contracts/ZephyrosStaking/ZephyrosStaking.sol\":12456:12471  user.coreStaked */\n      dup1\n      sload\n      dup1\n        /* \"contracts/ZephyrosStaking/ZephyrosStaking.sol\":12439:12453  uint256 amount */\n      0x00\n      dup1\n        /* \"contracts/ZephyrosStaking/ZephyrosStaking.sol\":12602:12612  amount > 0 */\n      dup3\n      iszero\n        /* \"contracts/ZephyrosStaking/ZephyrosStaking.sol\":12598:13313  if (amount > 0) {... */\n      tag_554\n      jumpi\n        /* \"contracts/ZephyrosStaking/ZephyrosStaking.sol\":12647:12648  0 */\n      0x00\n        /* \"contracts/ZephyrosStaking/ZephyrosStaking.sol\":12629:12648  user.coreStaked = 0 */\n      dup1\n      dup7\n      sstore\n        /* \"contracts/ZephyrosStaking/ZephyrosStaking.sol\":12663:12678  totalCoreStaked */\n      0x08\n        /* \"contracts/ZephyrosStaking/ZephyrosStaking.sol\":12663:12688  totalCoreStaked -= amount */\n      dup1\n      sload\n        /* \"contracts/ZephyrosStaking/ZephyrosStaking.sol\":12682:12688  amount */\n      dup7\n      swap3\n        /* \"contracts/ZephyrosStaking/ZephyrosStaking.sol\":12647:12648  0 */\n      swap1\n        /* \"contracts/ZephyrosStaking/ZephyrosStaking.sol\":12663:12688  totalCoreStaked -= amount */\n      tag_552\n      swap1\n        /* \"contracts/ZephyrosStaking/ZephyrosStaking.sol\":12682:12688  amount */\n      dup5\n      swap1\n        /* \"contracts/ZephyrosStaking/ZephyrosStaking.sol\":12663:12688  totalCoreStaked -= amount */\n      tag_231\n      jump\t// in\n    tag_552:\n      swap1\n      swap2\n      sstore\n      pop\n      pop\n        /* \"contracts/ZephyrosStaking/ZephyrosStaking.sol\":12718:12732  user.entryTime */\n      0x04\n      dup6\n      add\n      sload\n        /* \"contracts/ZephyrosStaking/ZephyrosStaking.sol\":12709:12733  _isEarly(user.entryTime) */\n      tag_553\n      swap1\n        /* \"contracts/ZephyrosStaking/ZephyrosStaking.sol\":12709:12717  _isEarly */\n      tag_408\n        /* \"contracts/ZephyrosStaking/ZephyrosStaking.sol\":12709:12733  _isEarly(user.entryTime) */\n      jump\t// in\n    tag_553:\n        /* \"contracts/ZephyrosStaking/ZephyrosStaking.sol\":12705:13302  if (_isEarly(user.entryTime)) {... */\n      iszero\n      tag_554\n      jumpi\n        /* \"contracts/ZephyrosStaking/ZephyrosStaking.sol\":12754:12774  uint256 totalPenalty */\n      0x00\n        /* \"contracts/ZephyrosStaking/ZephyrosStaking.sol\":1054:1060  10_000 */\n      0x2710\n        /* \"contracts/ZephyrosStaking/ZephyrosStaking.sol\":12778:12810  amount * EARLY_STAKE_PENALTY_BPS */\n      tag_555\n        /* \"contracts/ZephyrosStaking/ZephyrosStaking.sol\":1439:1444  1_500 */\n      0x05dc\n        /* \"contracts/ZephyrosStaking/ZephyrosStaking.sol\":12778:12784  amount */\n      dup8\n        /* \"contracts/ZephyrosStaking/ZephyrosStaking.sol\":12778:12810  amount * EARLY_STAKE_PENALTY_BPS */\n      tag_225\n      jump\t// in\n    tag_555:\n        /* \"contracts/ZephyrosStaking/ZephyrosStaking.sol\":12777:12817  (amount * EARLY_STAKE_PENALTY_BPS) / BPS */\n      tag_556\n      swap2\n      swap1\n      tag_227\n      jump\t// in\n    tag_556:\n        /* \"contracts/ZephyrosStaking/ZephyrosStaking.sol\":12754:12817  uint256 totalPenalty = (amount * EARLY_STAKE_PENALTY_BPS) / BPS */\n      swap1\n      pop\n        /* \"contracts/ZephyrosStaking/ZephyrosStaking.sol\":1562:1563  3 */\n      0x03\n        /* \"contracts/ZephyrosStaking/ZephyrosStaking.sol\":12853:12887  totalPenalty * PENALTY_TO_POOL_NUM */\n      tag_557\n        /* \"contracts/ZephyrosStaking/ZephyrosStaking.sol\":1507:1508  2 */\n      0x02\n        /* \"contracts/ZephyrosStaking/ZephyrosStaking.sol\":12754:12817  uint256 totalPenalty = (amount * EARLY_STAKE_PENALTY_BPS) / BPS */\n      dup4\n        /* \"contracts/ZephyrosStaking/ZephyrosStaking.sol\":12853:12887  totalPenalty * PENALTY_TO_POOL_NUM */\n      tag_225\n      jump\t// in\n    tag_557:\n        /* \"contracts/ZephyrosStaking/ZephyrosStaking.sol\":12852:12910  (totalPenalty * PENALTY_TO_POOL_NUM) / PENALTY_TO_POOL_DEN */\n      tag_558\n      swap2\n      swap1\n      tag_227\n      jump\t// in\n    tag_558:\n        /* \"contracts/ZephyrosStaking/ZephyrosStaking.sol\":12836:12910  penaltyToPool = (totalPenalty * PENALTY_TO_POOL_NUM) / PENALTY_TO_POOL_DEN */\n      swap3\n      pop\n        /* \"contracts/ZephyrosStaking/ZephyrosStaking.sol\":12945:12973  totalPenalty - penaltyToPool */\n      tag_559\n        /* \"contracts/ZephyrosStaking/ZephyrosStaking.sol\":12836:12910  penaltyToPool = (totalPenalty * PENALTY_TO_POOL_NUM) / PENALTY_TO_POOL_DEN */\n      dup4\n        /* \"contracts/ZephyrosStaking/ZephyrosStaking.sol\":12945:12957  totalPenalty */\n      dup3\n        /* \"contracts/ZephyrosStaking/ZephyrosStaking.sol\":12945:12973  totalPenalty - penaltyToPool */\n      tag_231\n      jump\t// in\n    tag_559:\n        /* \"contracts/ZephyrosStaking/ZephyrosStaking.sol\":12929:12973  penaltyBurned = totalPenalty - penaltyToPool */\n      swap2\n      pop\n        /* \"contracts/ZephyrosStaking/ZephyrosStaking.sol\":13009:13030  amount - totalPenalty */\n      tag_560\n        /* \"contracts/ZephyrosStaking/ZephyrosStaking.sol\":13018:13030  totalPenalty */\n      dup2\n        /* \"contracts/ZephyrosStaking/ZephyrosStaking.sol\":13009:13015  amount */\n      dup7\n        /* \"contracts/ZephyrosStaking/ZephyrosStaking.sol\":13009:13030  amount - totalPenalty */\n      tag_231\n      jump\t// in\n    tag_560:\n        /* \"contracts/ZephyrosStaking/ZephyrosStaking.sol\":12992:13030  returnedAmount = amount - totalPenalty */\n      swap4\n      pop\n        /* \"contracts/ZephyrosStaking/ZephyrosStaking.sol\":13077:13090  penaltyToPool */\n      dup3\n        /* \"contracts/ZephyrosStaking/ZephyrosStaking.sol\":13051:13073  totalCorePenaltyToPool */\n      0x12\n      0x00\n        /* \"contracts/ZephyrosStaking/ZephyrosStaking.sol\":13051:13090  totalCorePenaltyToPool += penaltyToPool */\n      dup3\n      dup3\n      sload\n      tag_561\n      swap2\n      swap1\n      tag_229\n      jump\t// in\n    tag_561:\n      swap3\n      pop\n      pop\n      dup2\n      swap1\n      sstore\n      pop\n        /* \"contracts/ZephyrosStaking/ZephyrosStaking.sol\":13128:13141  penaltyBurned */\n      dup2\n        /* \"contracts/ZephyrosStaking/ZephyrosStaking.sol\":13109:13124  totalCoreBurned */\n      0x13\n      0x00\n        /* \"contracts/ZephyrosStaking/ZephyrosStaking.sol\":13109:13141  totalCoreBurned += penaltyBurned */\n      dup3\n      dup3\n      sload\n      tag_562\n      swap2\n      swap1\n      tag_229\n      jump\t// in\n    tag_562:\n      swap1\n      swap2\n      sstore\n      pop\n      pop\n        /* \"contracts/ZephyrosStaking/ZephyrosStaking.sol\":13166:13183  penaltyToPool > 0 */\n      dup3\n      iszero\n        /* \"contracts/ZephyrosStaking/ZephyrosStaking.sol\":13162:13220  if (penaltyToPool > 0) _addPenaltyToRewards(penaltyToPool) */\n      tag_564\n      jumpi\n        /* \"contracts/ZephyrosStaking/ZephyrosStaking.sol\":13185:13220  _addPenaltyToRewards(penaltyToPool) */\n      tag_564\n        /* \"contracts/ZephyrosStaking/ZephyrosStaking.sol\":13206:13219  penaltyToPool */\n      dup4\n        /* \"contracts/ZephyrosStaking/ZephyrosStaking.sol\":13185:13205  _addPenaltyToRewards */\n      tag_461\n        /* \"contracts/ZephyrosStaking/ZephyrosStaking.sol\":13185:13220  _addPenaltyToRewards(penaltyToPool) */\n      jump\t// in\n    tag_564:\n        /* \"contracts/ZephyrosStaking/ZephyrosStaking.sol\":13243:13260  penaltyBurned > 0 */\n      dup2\n      iszero\n        /* \"contracts/ZephyrosStaking/ZephyrosStaking.sol\":13239:13286  if (penaltyBurned > 0) core.burn(penaltyBurned) */\n      tag_565\n      jumpi\n        /* \"contracts/ZephyrosStaking/ZephyrosStaking.sol\":13262:13286  core.burn(penaltyBurned) */\n      mload(0x40)\n      shl(0xe3, 0x0852cd8d)\n      dup2\n      mstore\n      0x04\n      dup2\n      add\n        /* \"#utility.yul\":529:554   */\n      dup4\n      swap1\n      mstore\n        /* \"contracts/ZephyrosStaking/ZephyrosStaking.sol\":13262:13266  core */\n      immutable(\"0x8b953cbb84328003779eb1ef176ef07f7dd0ae3d4a8e408de53d15a36466c86e\")\n      sub(shl(0xa0, 0x01), 0x01)\n        /* \"contracts/ZephyrosStaking/ZephyrosStaking.sol\":13262:13271  core.burn */\n      and\n      swap1\n      0x42966c68\n      swap1\n        /* \"#utility.yul\":502:520   */\n      0x24\n      add\n        /* \"contracts/ZephyrosStaking/ZephyrosStaking.sol\":13262:13286  core.burn(penaltyBurned) */\n      0x00\n      mload(0x40)\n      dup1\n      dup4\n      sub\n      dup2\n      0x00\n      dup8\n      dup1\n      extcodesize\n      iszero\n      dup1\n      iszero\n      tag_567\n      jumpi\n      0x00\n      dup1\n      revert\n    tag_567:\n      pop\n      gas\n      call\n      iszero\n      dup1\n      iszero\n      tag_569\n      jumpi\n      returndatasize\n      0x00\n      dup1\n      returndatacopy\n      revert(0x00, returndatasize)\n    tag_569:\n      pop\n      pop\n      pop\n      pop\n        /* \"contracts/ZephyrosStaking/ZephyrosStaking.sol\":13239:13286  if (penaltyBurned > 0) core.burn(penaltyBurned) */\n    tag_565:\n        /* \"contracts/ZephyrosStaking/ZephyrosStaking.sol\":12735:13302  {... */\n      pop\n        /* \"contracts/ZephyrosStaking/ZephyrosStaking.sol\":12705:13302  if (_isEarly(user.entryTime)) {... */\n    tag_554:\n        /* \"contracts/ZephyrosStaking/ZephyrosStaking.sol\":13344:13353  user.nfts */\n      0x05\n      dup6\n      add\n        /* \"contracts/ZephyrosStaking/ZephyrosStaking.sol\":13344:13360  user.nfts.length */\n      sload\n        /* \"contracts/ZephyrosStaking/ZephyrosStaking.sol\":13325:13341  uint256 nftCount */\n      0x00\n        /* \"contracts/ZephyrosStaking/ZephyrosStaking.sol\":13344:13360  user.nfts.length */\n      dup2\n        /* \"contracts/ZephyrosStaking/ZephyrosStaking.sol\":13400:13425  new StakedNFT[](nftCount) */\n      0xffffffffffffffff\n      dup2\n      gt\n      iszero\n      tag_571\n      jumpi\n      tag_571\n      tag_572\n      jump\t// in\n    tag_571:\n      mload(0x40)\n      swap1\n      dup1\n      dup3\n      mstore\n      dup1\n      0x20\n      mul\n      0x20\n      add\n      dup3\n      add\n      0x40\n      mstore\n      dup1\n      iszero\n      tag_573\n      jumpi\n      dup2\n      0x20\n      add\n    tag_574:\n      0x40\n      dup1\n      mload\n      dup1\n      dup3\n      add\n      swap1\n      swap2\n      mstore\n      0x00\n      dup1\n      dup3\n      mstore\n      0x20\n      dup3\n      add\n      mstore\n      dup2\n      mstore\n      0x20\n      add\n      swap1\n      0x01\n      swap1\n      sub\n      swap1\n      dup2\n      tag_574\n      jumpi\n      swap1\n      pop\n    tag_573:\n      pop\n        /* \"contracts/ZephyrosStaking/ZephyrosStaking.sol\":13371:13425  StakedNFT[] memory nftList = new StakedNFT[](nftCount) */\n      swap1\n      pop\n        /* \"contracts/ZephyrosStaking/ZephyrosStaking.sol\":13441:13450  uint256 i */\n      0x00\n        /* \"contracts/ZephyrosStaking/ZephyrosStaking.sol\":13436:13607  for (uint256 i = 0; i < nftCount; i++) {... */\n    tag_577:\n        /* \"contracts/ZephyrosStaking/ZephyrosStaking.sol\":13460:13468  nftCount */\n      dup3\n        /* \"contracts/ZephyrosStaking/ZephyrosStaking.sol\":13456:13457  i */\n      dup2\n        /* \"contracts/ZephyrosStaking/ZephyrosStaking.sol\":13456:13468  i < nftCount */\n      lt\n        /* \"contracts/ZephyrosStaking/ZephyrosStaking.sol\":13436:13607  for (uint256 i = 0; i < nftCount; i++) {... */\n      iszero\n      tag_578\n      jumpi\n        /* \"contracts/ZephyrosStaking/ZephyrosStaking.sol\":13503:13507  user */\n      dup8\n        /* \"contracts/ZephyrosStaking/ZephyrosStaking.sol\":13503:13512  user.nfts */\n      0x05\n      add\n        /* \"contracts/ZephyrosStaking/ZephyrosStaking.sol\":13513:13514  i */\n      dup2\n        /* \"contracts/ZephyrosStaking/ZephyrosStaking.sol\":13503:13515  user.nfts[i] */\n      dup2\n      sload\n      dup2\n      lt\n      tag_581\n      jumpi\n      tag_581\n      tag_527\n      jump\t// in\n    tag_581:\n      0x00\n      swap2\n      dup3\n      mstore\n      0x20\n      swap2\n      dup3\n      swap1\n      keccak256\n        /* \"contracts/ZephyrosStaking/ZephyrosStaking.sol\":13490:13515  nftList[i] = user.nfts[i] */\n      0x40\n      dup1\n      mload\n      dup1\n      dup3\n      add\n      swap1\n      swap2\n      mstore\n        /* \"contracts/ZephyrosStaking/ZephyrosStaking.sol\":13503:13515  user.nfts[i] */\n      0x02\n      swap1\n      swap3\n      mul\n      add\n        /* \"contracts/ZephyrosStaking/ZephyrosStaking.sol\":13490:13515  nftList[i] = user.nfts[i] */\n      dup1\n      sload\n      sub(shl(0xa0, 0x01), 0x01)\n      and\n      dup3\n      mstore\n      0x01\n      add\n      sload\n      swap2\n      dup2\n      add\n      swap2\n      swap1\n      swap2\n      mstore\n        /* \"contracts/ZephyrosStaking/ZephyrosStaking.sol\":13490:13500  nftList[i] */\n      dup3\n      mload\n        /* \"contracts/ZephyrosStaking/ZephyrosStaking.sol\":13490:13497  nftList */\n      dup4\n      swap1\n        /* \"contracts/ZephyrosStaking/ZephyrosStaking.sol\":13498:13499  i */\n      dup4\n      swap1\n        /* \"contracts/ZephyrosStaking/ZephyrosStaking.sol\":13490:13500  nftList[i] */\n      dup2\n      lt\n      tag_584\n      jumpi\n      tag_584\n      tag_527\n      jump\t// in\n    tag_584:\n      0x20\n      mul\n      0x20\n      add\n      add\n        /* \"contracts/ZephyrosStaking/ZephyrosStaking.sol\":13490:13515  nftList[i] = user.nfts[i] */\n      dup2\n      swap1\n      mstore\n      pop\n        /* \"contracts/ZephyrosStaking/ZephyrosStaking.sol\":13593:13594  0 */\n      0x00\n        /* \"contracts/ZephyrosStaking/ZephyrosStaking.sol\":13530:13539  nftStaker */\n      0x07\n        /* \"contracts/ZephyrosStaking/ZephyrosStaking.sol\":13530:13562  nftStaker[nftList[i].collection] */\n      0x00\n        /* \"contracts/ZephyrosStaking/ZephyrosStaking.sol\":13540:13547  nftList */\n      dup5\n        /* \"contracts/ZephyrosStaking/ZephyrosStaking.sol\":13548:13549  i */\n      dup5\n        /* \"contracts/ZephyrosStaking/ZephyrosStaking.sol\":13540:13550  nftList[i] */\n      dup2\n      mload\n      dup2\n      lt\n      tag_586\n      jumpi\n      tag_586\n      tag_527\n      jump\t// in\n    tag_586:\n      0x20\n      mul\n      0x20\n      add\n      add\n      mload\n        /* \"contracts/ZephyrosStaking/ZephyrosStaking.sol\":13540:13561  nftList[i].collection */\n      0x00\n      add\n      mload\n      sub(shl(0xa0, 0x01), 0x01)\n        /* \"contracts/ZephyrosStaking/ZephyrosStaking.sol\":13530:13562  nftStaker[nftList[i].collection] */\n      and\n      sub(shl(0xa0, 0x01), 0x01)\n      and\n      dup2\n      mstore\n      0x20\n      add\n      swap1\n      dup2\n      mstore\n      0x20\n      add\n      0x00\n      keccak256\n        /* \"contracts/ZephyrosStaking/ZephyrosStaking.sol\":13530:13582  nftStaker[nftList[i].collection][nftList[i].tokenId] */\n      0x00\n        /* \"contracts/ZephyrosStaking/ZephyrosStaking.sol\":13563:13570  nftList */\n      dup5\n        /* \"contracts/ZephyrosStaking/ZephyrosStaking.sol\":13571:13572  i */\n      dup5\n        /* \"contracts/ZephyrosStaking/ZephyrosStaking.sol\":13563:13573  nftList[i] */\n      dup2\n      mload\n      dup2\n      lt\n      tag_588\n      jumpi\n      tag_588\n      tag_527\n      jump\t// in\n    tag_588:\n      0x20\n      mul\n      0x20\n      add\n      add\n      mload\n        /* \"contracts/ZephyrosStaking/ZephyrosStaking.sol\":13563:13581  nftList[i].tokenId */\n      0x20\n      add\n      mload\n        /* \"contracts/ZephyrosStaking/ZephyrosStaking.sol\":13530:13582  nftStaker[nftList[i].collection][nftList[i].tokenId] */\n      dup2\n      mstore\n      0x20\n      add\n      swap1\n      dup2\n      mstore\n      0x20\n      add\n      0x00\n      keccak256\n      0x00\n        /* \"contracts/ZephyrosStaking/ZephyrosStaking.sol\":13530:13595  nftStaker[nftList[i].collection][nftList[i].tokenId] = address(0) */\n      0x0100\n      exp\n      dup2\n      sload\n      dup2\n      sub(shl(0xa0, 0x01), 0x01)\n      mul\n      not\n      and\n      swap1\n      dup4\n      sub(shl(0xa0, 0x01), 0x01)\n      and\n      mul\n      or\n      swap1\n      sstore\n      pop\n        /* \"contracts/ZephyrosStaking/ZephyrosStaking.sol\":13470:13473  i++ */\n      dup1\n      dup1\n      tag_589\n      swap1\n      tag_532\n      jump\t// in\n    tag_589:\n      swap2\n      pop\n      pop\n        /* \"contracts/ZephyrosStaking/ZephyrosStaking.sol\":13436:13607  for (uint256 i = 0; i < nftCount; i++) {... */\n      jump(tag_577)\n    tag_578:\n      pop\n        /* \"contracts/ZephyrosStaking/ZephyrosStaking.sol\":13619:13635  delete user.nfts */\n      tag_590\n        /* \"contracts/ZephyrosStaking/ZephyrosStaking.sol\":13626:13635  user.nfts */\n      0x05\n      dup9\n      add\n      0x00\n        /* \"contracts/ZephyrosStaking/ZephyrosStaking.sol\":13619:13635  delete user.nfts */\n      tag_591\n      jump\t// in\n    tag_590:\n        /* \"contracts/ZephyrosStaking/ZephyrosStaking.sol\":13663:13664  0 */\n      0x00\n        /* \"contracts/ZephyrosStaking/ZephyrosStaking.sol\":13646:13660  user.entryTime */\n      0x04\n      dup9\n      add\n        /* \"contracts/ZephyrosStaking/ZephyrosStaking.sol\":13646:13664  user.entryTime = 0 */\n      sstore\n        /* \"contracts/ZephyrosStaking/ZephyrosStaking.sol\":13677:13707  _refreshUserWeight(msg.sender) */\n      tag_592\n        /* \"contracts/ZephyrosStaking/ZephyrosStaking.sol\":13696:13706  msg.sender */\n      caller\n        /* \"contracts/ZephyrosStaking/ZephyrosStaking.sol\":13677:13695  _refreshUserWeight */\n      tag_358\n        /* \"contracts/ZephyrosStaking/ZephyrosStaking.sol\":13677:13707  _refreshUserWeight(msg.sender) */\n      jump\t// in\n    tag_592:\n        /* \"contracts/ZephyrosStaking/ZephyrosStaking.sol\":13724:13742  returnedAmount > 0 */\n      dup5\n      iszero\n        /* \"contracts/ZephyrosStaking/ZephyrosStaking.sol\":13720:13789  if (returnedAmount > 0) core.safeTransfer(msg.sender, returnedAmount) */\n      tag_594\n      jumpi\n        /* \"contracts/ZephyrosStaking/ZephyrosStaking.sol\":13744:13789  core.safeTransfer(msg.sender, returnedAmount) */\n      tag_594\n      sub(shl(0xa0, 0x01), 0x01)\n        /* \"contracts/ZephyrosStaking/ZephyrosStaking.sol\":13744:13748  core */\n      immutable(\"0x8b953cbb84328003779eb1ef176ef07f7dd0ae3d4a8e408de53d15a36466c86e\")\n        /* \"contracts/ZephyrosStaking/ZephyrosStaking.sol\":13744:13761  core.safeTransfer */\n      and\n        /* \"contracts/ZephyrosStaking/ZephyrosStaking.sol\":13762:13772  msg.sender */\n      caller\n        /* \"contracts/ZephyrosStaking/ZephyrosStaking.sol\":13774:13788  returnedAmount */\n      dup8\n        /* \"contracts/ZephyrosStaking/ZephyrosStaking.sol\":13744:13761  core.safeTransfer */\n      tag_246\n        /* \"contracts/ZephyrosStaking/ZephyrosStaking.sol\":13744:13789  core.safeTransfer(msg.sender, returnedAmount) */\n      jump\t// in\n    tag_594:\n        /* \"contracts/ZephyrosStaking/ZephyrosStaking.sol\":13807:13816  uint256 i */\n      0x00\n        /* \"contracts/ZephyrosStaking/ZephyrosStaking.sol\":13802:14055  for (uint256 i = 0; i < nftList.length; i++) {... */\n    tag_595:\n        /* \"contracts/ZephyrosStaking/ZephyrosStaking.sol\":13826:13833  nftList */\n      dup2\n        /* \"contracts/ZephyrosStaking/ZephyrosStaking.sol\":13826:13840  nftList.length */\n      mload\n        /* \"contracts/ZephyrosStaking/ZephyrosStaking.sol\":13822:13823  i */\n      dup2\n        /* \"contracts/ZephyrosStaking/ZephyrosStaking.sol\":13822:13840  i < nftList.length */\n      lt\n        /* \"contracts/ZephyrosStaking/ZephyrosStaking.sol\":13802:14055  for (uint256 i = 0; i < nftList.length; i++) {... */\n      iszero\n      tag_596\n      jumpi\n        /* \"contracts/ZephyrosStaking/ZephyrosStaking.sol\":13870:13877  nftList */\n      dup2\n        /* \"contracts/ZephyrosStaking/ZephyrosStaking.sol\":13878:13879  i */\n      dup2\n        /* \"contracts/ZephyrosStaking/ZephyrosStaking.sol\":13870:13880  nftList[i] */\n      dup2\n      mload\n      dup2\n      lt\n      tag_599\n      jumpi\n      tag_599\n      tag_527\n      jump\t// in\n    tag_599:\n      0x20\n      mul\n      0x20\n      add\n      add\n      mload\n        /* \"contracts/ZephyrosStaking/ZephyrosStaking.sol\":13870:13891  nftList[i].collection */\n      0x00\n      add\n      mload\n      sub(shl(0xa0, 0x01), 0x01)\n        /* \"contracts/ZephyrosStaking/ZephyrosStaking.sol\":13862:13909  IERC721(nftList[i].collection).safeTransferFrom */\n      and\n      0x42842e0e\n        /* \"contracts/ZephyrosStaking/ZephyrosStaking.sol\":13918:13922  this */\n      address\n        /* \"contracts/ZephyrosStaking/ZephyrosStaking.sol\":13925:13935  msg.sender */\n      caller\n        /* \"contracts/ZephyrosStaking/ZephyrosStaking.sol\":13937:13944  nftList */\n      dup6\n        /* \"contracts/ZephyrosStaking/ZephyrosStaking.sol\":13945:13946  i */\n      dup6\n        /* \"contracts/ZephyrosStaking/ZephyrosStaking.sol\":13937:13947  nftList[i] */\n      dup2\n      mload\n      dup2\n      lt\n      tag_601\n      jumpi\n      tag_601\n      tag_527\n      jump\t// in\n    tag_601:\n      0x20\n      mul\n      0x20\n      add\n      add\n      mload\n        /* \"contracts/ZephyrosStaking/ZephyrosStaking.sol\":13937:13955  nftList[i].tokenId */\n      0x20\n      add\n      mload\n        /* \"contracts/ZephyrosStaking/ZephyrosStaking.sol\":13862:13956  IERC721(nftList[i].collection).safeTransferFrom(address(this), msg.sender, nftList[i].tokenId) */\n      mload(0x40)\n      dup5\n      0xffffffff\n      and\n      0xe0\n      shl\n      dup2\n      mstore\n      0x04\n      add\n      tag_602\n      swap4\n      swap3\n      swap2\n      swap1\n      tag_385\n      jump\t// in\n    tag_602:\n      0x00\n      mload(0x40)\n      dup1\n      dup4\n      sub\n      dup2\n      0x00\n      dup8\n      dup1\n      extcodesize\n      iszero\n      dup1\n      iszero\n      tag_603\n      jumpi\n      0x00\n      dup1\n      revert\n    tag_603:\n      pop\n      gas\n      call\n      iszero\n      dup1\n      iszero\n      tag_605\n      jumpi\n      returndatasize\n      0x00\n      dup1\n      returndatacopy\n      revert(0x00, returndatasize)\n    tag_605:\n      pop\n      pop\n      pop\n      pop\n        /* \"contracts/ZephyrosStaking/ZephyrosStaking.sol\":14024:14031  nftList */\n      dup2\n        /* \"contracts/ZephyrosStaking/ZephyrosStaking.sol\":14032:14033  i */\n      dup2\n        /* \"contracts/ZephyrosStaking/ZephyrosStaking.sol\":14024:14034  nftList[i] */\n      dup2\n      mload\n      dup2\n      lt\n      tag_607\n      jumpi\n      tag_607\n      tag_527\n      jump\t// in\n    tag_607:\n      0x20\n      mul\n      0x20\n      add\n      add\n      mload\n        /* \"contracts/ZephyrosStaking/ZephyrosStaking.sol\":14024:14042  nftList[i].tokenId */\n      0x20\n      add\n      mload\n        /* \"contracts/ZephyrosStaking/ZephyrosStaking.sol\":14001:14008  nftList */\n      dup3\n        /* \"contracts/ZephyrosStaking/ZephyrosStaking.sol\":14009:14010  i */\n      dup3\n        /* \"contracts/ZephyrosStaking/ZephyrosStaking.sol\":14001:14011  nftList[i] */\n      dup2\n      mload\n      dup2\n      lt\n      tag_609\n      jumpi\n      tag_609\n      tag_527\n      jump\t// in\n    tag_609:\n      0x20\n      mul\n      0x20\n      add\n      add\n      mload\n        /* \"contracts/ZephyrosStaking/ZephyrosStaking.sol\":14001:14022  nftList[i].collection */\n      0x00\n      add\n      mload\n      sub(shl(0xa0, 0x01), 0x01)\n        /* \"contracts/ZephyrosStaking/ZephyrosStaking.sol\":13976:14043  NFTWithdrawn(msg.sender, nftList[i].collection, nftList[i].tokenId) */\n      and\n        /* \"contracts/ZephyrosStaking/ZephyrosStaking.sol\":13989:13999  msg.sender */\n      caller\n      sub(shl(0xa0, 0x01), 0x01)\n        /* \"contracts/ZephyrosStaking/ZephyrosStaking.sol\":13976:14043  NFTWithdrawn(msg.sender, nftList[i].collection, nftList[i].tokenId) */\n      and\n      0xbbde41973f9ce4890f7ad9762c23d8191f261fd643bdf13ed8bbc10549b49fcb\n      mload(0x40)\n      mload(0x40)\n      dup1\n      swap2\n      sub\n      swap1\n      log4\n        /* \"contracts/ZephyrosStaking/ZephyrosStaking.sol\":13842:13845  i++ */\n      dup1\n      tag_610\n      dup2\n      tag_532\n      jump\t// in\n    tag_610:\n      swap2\n      pop\n      pop\n        /* \"contracts/ZephyrosStaking/ZephyrosStaking.sol\":13802:14055  for (uint256 i = 0; i < nftList.length; i++) {... */\n      jump(tag_595)\n    tag_596:\n      pop\n        /* \"contracts/ZephyrosStaking/ZephyrosStaking.sol\":14072:14151  CoreWithdrawn(msg.sender, amount, returnedAmount, penaltyToPool, penaltyBurned) */\n      0x40\n      dup1\n      mload\n        /* \"#utility.yul\":16194:16219   */\n      dup8\n      dup2\n      mstore\n        /* \"#utility.yul\":16250:16252   */\n      0x20\n        /* \"#utility.yul\":16235:16253   */\n      dup2\n      add\n        /* \"#utility.yul\":16228:16262   */\n      dup8\n      swap1\n      mstore\n        /* \"#utility.yul\":16278:16296   */\n      swap1\n      dup2\n      add\n        /* \"#utility.yul\":16271:16305   */\n      dup6\n      swap1\n      mstore\n        /* \"#utility.yul\":16336:16338   */\n      0x60\n        /* \"#utility.yul\":16321:16339   */\n      dup2\n      add\n        /* \"#utility.yul\":16314:16348   */\n      dup5\n      swap1\n      mstore\n        /* \"contracts/ZephyrosStaking/ZephyrosStaking.sol\":14086:14096  msg.sender */\n      caller\n      swap1\n        /* \"contracts/ZephyrosStaking/ZephyrosStaking.sol\":14072:14151  CoreWithdrawn(msg.sender, amount, returnedAmount, penaltyToPool, penaltyBurned) */\n      0xed51a34abf73431aee998f69ff67cbc5bae47a2768cc3e2efaf79e7ba0b65f15\n      swap1\n        /* \"#utility.yul\":16181:16184   */\n      0x80\n        /* \"#utility.yul\":16166:16185   */\n      add\n        /* \"contracts/ZephyrosStaking/ZephyrosStaking.sol\":14072:14151  CoreWithdrawn(msg.sender, amount, returnedAmount, penaltyToPool, penaltyBurned) */\n      mload(0x40)\n      dup1\n      swap2\n      sub\n      swap1\n      log2\n        /* \"contracts/ZephyrosStaking/ZephyrosStaking.sol\":14167:14185  Exited(msg.sender) */\n      mload(0x40)\n        /* \"contracts/ZephyrosStaking/ZephyrosStaking.sol\":14174:14184  msg.sender */\n      caller\n      swap1\n        /* \"contracts/ZephyrosStaking/ZephyrosStaking.sol\":14167:14185  Exited(msg.sender) */\n      0xaa5cfc974bd759f818e3e18a4afc9d79daaa0722158497792100a1fddd13e193\n      swap1\n      0x00\n      swap1\n      log2\n        /* \"contracts/ZephyrosStaking/ZephyrosStaking.sol\":12271:14193  {... */\n      pop\n      pop\n      pop\n      pop\n      pop\n      pop\n      pop\n        /* \"https://github.com/OpenZeppelin/openzeppelin-contracts/blob/v5.0.2/contracts/utils/ReentrancyGuard.sol\":2387:2388  _ */\n      pop\n        /* \"https://github.com/OpenZeppelin/openzeppelin-contracts/blob/v5.0.2/contracts/utils/ReentrancyGuard.sol\":2398:2418  _nonReentrantAfter() */\n      tag_330\n        /* \"https://github.com/OpenZeppelin/openzeppelin-contracts/blob/v5.0.2/contracts/utils/ReentrancyGuard.sol\":1713:1714  1 */\n      0x01\n        /* \"https://github.com/OpenZeppelin/openzeppelin-contracts/blob/v5.0.2/contracts/utils/ReentrancyGuard.sol\":2924:2945  _status = NOT_ENTERED */\n      dup1\n      sstore\n        /* \"https://github.com/OpenZeppelin/openzeppelin-contracts/blob/v5.0.2/contracts/utils/ReentrancyGuard.sol\":2744:2952  function _nonReentrantAfter() private {... */\n      jump\n        /* \"https://github.com/OpenZeppelin/openzeppelin-contracts/blob/v5.0.2/contracts/access/Ownable.sol\":2543:2758  function transferOwnership(address newOwner) public virtual onlyOwner {... */\n    tag_207:\n        /* \"https://github.com/OpenZeppelin/openzeppelin-contracts/blob/v5.0.2/contracts/access/Ownable.sol\":1531:1544  _checkOwner() */\n      tag_614\n        /* \"https://github.com/OpenZeppelin/openzeppelin-contracts/blob/v5.0.2/contracts/access/Ownable.sol\":1531:1542  _checkOwner */\n      tag_250\n        /* \"https://github.com/OpenZeppelin/openzeppelin-contracts/blob/v5.0.2/contracts/access/Ownable.sol\":1531:1544  _checkOwner() */\n      jump\t// in\n    tag_614:\n      sub(shl(0xa0, 0x01), 0x01)\n        /* \"https://github.com/OpenZeppelin/openzeppelin-contracts/blob/v5.0.2/contracts/access/Ownable.sol\":2627:2649  newOwner == address(0) */\n      dup2\n      and\n        /* \"https://github.com/OpenZeppelin/openzeppelin-contracts/blob/v5.0.2/contracts/access/Ownable.sol\":2623:2714  if (newOwner == address(0)) {... */\n      tag_616\n      jumpi\n        /* \"https://github.com/OpenZeppelin/openzeppelin-contracts/blob/v5.0.2/contracts/access/Ownable.sol\":2672:2703  OwnableInvalidOwner(address(0)) */\n      mload(0x40)\n      shl(0xe0, 0x1e4fbdf7)\n      dup2\n      mstore\n        /* \"https://github.com/OpenZeppelin/openzeppelin-contracts/blob/v5.0.2/contracts/access/Ownable.sol\":2700:2701  0 */\n      0x00\n        /* \"https://github.com/OpenZeppelin/openzeppelin-contracts/blob/v5.0.2/contracts/access/Ownable.sol\":2672:2703  OwnableInvalidOwner(address(0)) */\n      0x04\n      dup3\n      add\n        /* \"#utility.yul\":5464:5515   */\n      mstore\n        /* \"#utility.yul\":5437:5455   */\n      0x24\n      add\n        /* \"https://github.com/OpenZeppelin/openzeppelin-contracts/blob/v5.0.2/contracts/access/Ownable.sol\":2672:2703  OwnableInvalidOwner(address(0)) */\n      tag_236\n        /* \"#utility.yul\":5318:5521   */\n      jump\n        /* \"https://github.com/OpenZeppelin/openzeppelin-contracts/blob/v5.0.2/contracts/access/Ownable.sol\":2623:2714  if (newOwner == address(0)) {... */\n    tag_616:\n        /* \"https://github.com/OpenZeppelin/openzeppelin-contracts/blob/v5.0.2/contracts/access/Ownable.sol\":2723:2751  _transferOwnership(newOwner) */\n      tag_360\n        /* \"https://github.com/OpenZeppelin/openzeppelin-contracts/blob/v5.0.2/contracts/access/Ownable.sol\":2742:2750  newOwner */\n      dup2\n        /* \"https://github.com/OpenZeppelin/openzeppelin-contracts/blob/v5.0.2/contracts/access/Ownable.sol\":2723:2741  _transferOwnership */\n      tag_424\n        /* \"https://github.com/OpenZeppelin/openzeppelin-contracts/blob/v5.0.2/contracts/access/Ownable.sol\":2723:2751  _transferOwnership(newOwner) */\n      jump\t// in\n        /* \"contracts/ZephyrosStaking/ZephyrosStaking.sol\":15674:15845  function isBackgroundWhitelisted(string calldata background) external view returns (bool) {... */\n    tag_211:\n        /* \"contracts/ZephyrosStaking/ZephyrosStaking.sol\":15758:15762  bool */\n      0x00\n        /* \"contracts/ZephyrosStaking/ZephyrosStaking.sol\":15782:15807  whitelistedBackgroundHash */\n      0x05\n        /* \"contracts/ZephyrosStaking/ZephyrosStaking.sol\":15782:15837  whitelistedBackgroundHash[keccak256(bytes(background))] */\n      0x00\n        /* \"contracts/ZephyrosStaking/ZephyrosStaking.sol\":15824:15834  background */\n      dup5\n      dup5\n        /* \"contracts/ZephyrosStaking/ZephyrosStaking.sol\":15808:15836  keccak256(bytes(background)) */\n      mload(0x40)\n      tag_620\n      swap3\n      swap2\n      swap1\n      tag_309\n      jump\t// in\n    tag_620:\n      0x40\n      dup1\n      mload\n      swap2\n      dup3\n      swap1\n      sub\n      swap1\n      swap2\n      keccak256\n        /* \"contracts/ZephyrosStaking/ZephyrosStaking.sol\":15782:15837  whitelistedBackgroundHash[keccak256(bytes(background))] */\n      dup3\n      mstore\n      0x20\n      dup3\n      add\n      swap3\n      swap1\n      swap3\n      mstore\n      add\n      0x00\n      keccak256\n      sload\n      0xff\n      and\n      swap4\n        /* \"contracts/ZephyrosStaking/ZephyrosStaking.sol\":15674:15845  function isBackgroundWhitelisted(string calldata background) external view returns (bool) {... */\n      swap3\n      pop\n      pop\n      pop\n      jump\t// out\n        /* \"contracts/ZephyrosStaking/ZephyrosStaking.sol\":8280:8640  function rescueUnstakedNFT(address collection, uint256 tokenId, address to) external onlyAdmin nonReentrant {... */\n    tag_216:\n        /* \"contracts/ZephyrosStaking/ZephyrosStaking.sol\":4963:4973  msg.sender */\n      caller\n        /* \"contracts/ZephyrosStaking/ZephyrosStaking.sol\":4955:4974  isAdmin[msg.sender] */\n      0x00\n      swap1\n      dup2\n      mstore\n        /* \"contracts/ZephyrosStaking/ZephyrosStaking.sol\":4955:4962  isAdmin */\n      0x02\n        /* \"contracts/ZephyrosStaking/ZephyrosStaking.sol\":4955:4974  isAdmin[msg.sender] */\n      0x20\n      mstore\n      0x40\n      swap1\n      keccak256\n      sload\n      0xff\n      and\n      dup1\n        /* \"contracts/ZephyrosStaking/ZephyrosStaking.sol\":4955:4999  isAdmin[msg.sender] || msg.sender == owner() */\n      tag_622\n      jumpi\n      pop\n        /* \"https://github.com/OpenZeppelin/openzeppelin-contracts/blob/v5.0.2/contracts/access/Ownable.sol\":1684:1691  address */\n      0x00\n        /* \"https://github.com/OpenZeppelin/openzeppelin-contracts/blob/v5.0.2/contracts/access/Ownable.sol\":1710:1716  _owner */\n      sload\n      sub(shl(0xa0, 0x01), 0x01)\n      and\n        /* \"contracts/ZephyrosStaking/ZephyrosStaking.sol\":4978:4988  msg.sender */\n      caller\n        /* \"contracts/ZephyrosStaking/ZephyrosStaking.sol\":4978:4999  msg.sender == owner() */\n      eq\n        /* \"contracts/ZephyrosStaking/ZephyrosStaking.sol\":4955:4999  isAdmin[msg.sender] || msg.sender == owner() */\n    tag_622:\n        /* \"contracts/ZephyrosStaking/ZephyrosStaking.sol\":4947:5013  require(isAdmin[msg.sender] || msg.sender == owner(), \"Not admin\") */\n      tag_624\n      jumpi\n      mload(0x40)\n      shl(0xe5, 0x461bcd)\n      dup2\n      mstore\n      0x04\n      add\n      tag_236\n      swap1\n      tag_237\n      jump\t// in\n    tag_624:\n        /* \"https://github.com/OpenZeppelin/openzeppelin-contracts/blob/v5.0.2/contracts/utils/ReentrancyGuard.sol\":2356:2377  _nonReentrantBefore() */\n      tag_627\n        /* \"https://github.com/OpenZeppelin/openzeppelin-contracts/blob/v5.0.2/contracts/utils/ReentrancyGuard.sol\":2356:2375  _nonReentrantBefore */\n      tag_262\n        /* \"https://github.com/OpenZeppelin/openzeppelin-contracts/blob/v5.0.2/contracts/utils/ReentrancyGuard.sol\":2356:2377  _nonReentrantBefore() */\n      jump\t// in\n    tag_627:\n      sub(shl(0xa0, 0x01), 0x01)\n        /* \"contracts/ZephyrosStaking/ZephyrosStaking.sol\":8407:8431  collection != address(0) */\n      dup4\n      and\n        /* \"contracts/ZephyrosStaking/ZephyrosStaking.sol\":8399:8440  require(collection != address(0), \"COL0\") */\n      tag_629\n      jumpi\n      mload(0x40)\n      shl(0xe5, 0x461bcd)\n      dup2\n      mstore\n      0x04\n      add\n      tag_236\n      swap1\n      tag_398\n      jump\t// in\n    tag_629:\n      sub(shl(0xa0, 0x01), 0x01)\n        /* \"contracts/ZephyrosStaking/ZephyrosStaking.sol\":8459:8475  to != address(0) */\n      dup2\n      and\n        /* \"contracts/ZephyrosStaking/ZephyrosStaking.sol\":8451:8483  require(to != address(0), \"TO0\") */\n      tag_631\n      jumpi\n      mload(0x40)\n      shl(0xe5, 0x461bcd)\n      dup2\n      mstore\n        /* \"#utility.yul\":9556:9558   */\n      0x20\n        /* \"contracts/ZephyrosStaking/ZephyrosStaking.sol\":8451:8483  require(to != address(0), \"TO0\") */\n      0x04\n      dup3\n      add\n        /* \"#utility.yul\":9538:9559   */\n      mstore\n        /* \"#utility.yul\":9595:9596   */\n      0x03\n        /* \"#utility.yul\":9575:9593   */\n      0x24\n      dup3\n      add\n        /* \"#utility.yul\":9568:9597   */\n      mstore\n      shl(0xec, 0x0544f3)\n        /* \"#utility.yul\":9613:9631   */\n      0x44\n      dup3\n      add\n        /* \"#utility.yul\":9606:9639   */\n      mstore\n        /* \"#utility.yul\":9656:9674   */\n      0x64\n      add\n        /* \"contracts/ZephyrosStaking/ZephyrosStaking.sol\":8451:8483  require(to != address(0), \"TO0\") */\n      tag_236\n        /* \"#utility.yul\":9354:9680   */\n      jump\n        /* \"contracts/ZephyrosStaking/ZephyrosStaking.sol\":8451:8483  require(to != address(0), \"TO0\") */\n    tag_631:\n      sub(shl(0xa0, 0x01), 0x01)\n        /* \"contracts/ZephyrosStaking/ZephyrosStaking.sol\":8502:8523  nftStaker[collection] */\n      dup4\n      dup2\n      and\n        /* \"contracts/ZephyrosStaking/ZephyrosStaking.sol\":8544:8545  0 */\n      0x00\n        /* \"contracts/ZephyrosStaking/ZephyrosStaking.sol\":8502:8523  nftStaker[collection] */\n      swap1\n      dup2\n      mstore\n        /* \"contracts/ZephyrosStaking/ZephyrosStaking.sol\":8502:8511  nftStaker */\n      0x07\n        /* \"contracts/ZephyrosStaking/ZephyrosStaking.sol\":8502:8523  nftStaker[collection] */\n      0x20\n      swap1\n      dup2\n      mstore\n      0x40\n      dup1\n      dup4\n      keccak256\n        /* \"contracts/ZephyrosStaking/ZephyrosStaking.sol\":8502:8532  nftStaker[collection][tokenId] */\n      dup7\n      dup5\n      mstore\n      swap1\n      swap2\n      mstore\n      swap1\n      keccak256\n      sload\n      and\n        /* \"contracts/ZephyrosStaking/ZephyrosStaking.sol\":8502:8546  nftStaker[collection][tokenId] == address(0) */\n      iszero\n        /* \"contracts/ZephyrosStaking/ZephyrosStaking.sol\":8494:8557  require(nftStaker[collection][tokenId] == address(0), \"STAKED\") */\n      tag_633\n      jumpi\n      mload(0x40)\n      shl(0xe5, 0x461bcd)\n      dup2\n      mstore\n        /* \"#utility.yul\":18300:18302   */\n      0x20\n        /* \"contracts/ZephyrosStaking/ZephyrosStaking.sol\":8494:8557  require(nftStaker[collection][tokenId] == address(0), \"STAKED\") */\n      0x04\n      dup3\n      add\n        /* \"#utility.yul\":18282:18303   */\n      mstore\n        /* \"#utility.yul\":18339:18340   */\n      0x06\n        /* \"#utility.yul\":18319:18337   */\n      0x24\n      dup3\n      add\n        /* \"#utility.yul\":18312:18341   */\n      mstore\n      shl(0xd2, 0x14d51052d151)\n        /* \"#utility.yul\":18357:18375   */\n      0x44\n      dup3\n      add\n        /* \"#utility.yul\":18350:18386   */\n      mstore\n        /* \"#utility.yul\":18403:18421   */\n      0x64\n      add\n        /* \"contracts/ZephyrosStaking/ZephyrosStaking.sol\":8494:8557  require(nftStaker[collection][tokenId] == address(0), \"STAKED\") */\n      tag_236\n        /* \"#utility.yul\":18098:18427   */\n      jump\n        /* \"contracts/ZephyrosStaking/ZephyrosStaking.sol\":8494:8557  require(nftStaker[collection][tokenId] == address(0), \"STAKED\") */\n    tag_633:\n        /* \"contracts/ZephyrosStaking/ZephyrosStaking.sol\":8568:8632  IERC721(collection).safeTransferFrom(address(this), to, tokenId) */\n      mload(0x40)\n      shl(0xe1, 0x21421707)\n      dup2\n      mstore\n      sub(shl(0xa0, 0x01), 0x01)\n        /* \"contracts/ZephyrosStaking/ZephyrosStaking.sol\":8568:8604  IERC721(collection).safeTransferFrom */\n      dup5\n      and\n      swap1\n      0x42842e0e\n      swap1\n        /* \"contracts/ZephyrosStaking/ZephyrosStaking.sol\":8568:8632  IERC721(collection).safeTransferFrom(address(this), to, tokenId) */\n      tag_636\n      swap1\n        /* \"contracts/ZephyrosStaking/ZephyrosStaking.sol\":8613:8617  this */\n      address\n      swap1\n        /* \"contracts/ZephyrosStaking/ZephyrosStaking.sol\":8620:8622  to */\n      dup6\n      swap1\n        /* \"contracts/ZephyrosStaking/ZephyrosStaking.sol\":8624:8631  tokenId */\n      dup8\n      swap1\n        /* \"contracts/ZephyrosStaking/ZephyrosStaking.sol\":8568:8632  IERC721(collection).safeTransferFrom(address(this), to, tokenId) */\n      0x04\n      add\n      tag_385\n      jump\t// in\n    tag_636:\n      0x00\n      mload(0x40)\n      dup1\n      dup4\n      sub\n      dup2\n      0x00\n      dup8\n      dup1\n      extcodesize\n      iszero\n      dup1\n      iszero\n      tag_637\n      jumpi\n      0x00\n      dup1\n      revert\n    tag_637:\n      pop\n      gas\n      call\n      iszero\n      dup1\n      iszero\n      tag_639\n      jumpi\n      returndatasize\n      0x00\n      dup1\n      returndatacopy\n      revert(0x00, returndatasize)\n    tag_639:\n      pop\n      pop\n      pop\n      pop\n        /* \"https://github.com/OpenZeppelin/openzeppelin-contracts/blob/v5.0.2/contracts/utils/ReentrancyGuard.sol\":2398:2418  _nonReentrantAfter() */\n      tag_245\n        /* \"https://github.com/OpenZeppelin/openzeppelin-contracts/blob/v5.0.2/contracts/utils/ReentrancyGuard.sol\":1713:1714  1 */\n      0x01\n        /* \"https://github.com/OpenZeppelin/openzeppelin-contracts/blob/v5.0.2/contracts/utils/ReentrancyGuard.sol\":2924:2945  _status = NOT_ENTERED */\n      dup1\n      sstore\n        /* \"https://github.com/OpenZeppelin/openzeppelin-contracts/blob/v5.0.2/contracts/utils/ReentrancyGuard.sol\":2744:2952  function _nonReentrantAfter() private {... */\n      jump\n        /* \"contracts/ZephyrosStaking/ZephyrosStaking.sol\":6010:6293  function setApprovedTokenId(address collection, uint256 tokenId, bool eligible) external onlyAdmin {... */\n    tag_220:\n        /* \"contracts/ZephyrosStaking/ZephyrosStaking.sol\":4963:4973  msg.sender */\n      caller\n        /* \"contracts/ZephyrosStaking/ZephyrosStaking.sol\":4955:4974  isAdmin[msg.sender] */\n      0x00\n      swap1\n      dup2\n      mstore\n        /* \"contracts/ZephyrosStaking/ZephyrosStaking.sol\":4955:4962  isAdmin */\n      0x02\n        /* \"contracts/ZephyrosStaking/ZephyrosStaking.sol\":4955:4974  isAdmin[msg.sender] */\n      0x20\n      mstore\n      0x40\n      swap1\n      keccak256\n      sload\n      0xff\n      and\n      dup1\n        /* \"contracts/ZephyrosStaking/ZephyrosStaking.sol\":4955:4999  isAdmin[msg.sender] || msg.sender == owner() */\n      tag_642\n      jumpi\n      pop\n        /* \"https://github.com/OpenZeppelin/openzeppelin-contracts/blob/v5.0.2/contracts/access/Ownable.sol\":1684:1691  address */\n      0x00\n        /* \"https://github.com/OpenZeppelin/openzeppelin-contracts/blob/v5.0.2/contracts/access/Ownable.sol\":1710:1716  _owner */\n      sload\n      sub(shl(0xa0, 0x01), 0x01)\n      and\n        /* \"contracts/ZephyrosStaking/ZephyrosStaking.sol\":4978:4988  msg.sender */\n      caller\n        /* \"contracts/ZephyrosStaking/ZephyrosStaking.sol\":4978:4999  msg.sender == owner() */\n      eq\n        /* \"contracts/ZephyrosStaking/ZephyrosStaking.sol\":4955:4999  isAdmin[msg.sender] || msg.sender == owner() */\n    tag_642:\n        /* \"contracts/ZephyrosStaking/ZephyrosStaking.sol\":4947:5013  require(isAdmin[msg.sender] || msg.sender == owner(), \"Not admin\") */\n      tag_644\n      jumpi\n      mload(0x40)\n      shl(0xe5, 0x461bcd)\n      dup2\n      mstore\n      0x04\n      add\n      tag_236\n      swap1\n      tag_237\n      jump\t// in\n    tag_644:\n      sub(shl(0xa0, 0x01), 0x01)\n        /* \"contracts/ZephyrosStaking/ZephyrosStaking.sol\":6128:6152  collection != address(0) */\n      dup4\n      and\n        /* \"contracts/ZephyrosStaking/ZephyrosStaking.sol\":6120:6161  require(collection != address(0), \"COL0\") */\n      tag_647\n      jumpi\n      mload(0x40)\n      shl(0xe5, 0x461bcd)\n      dup2\n      mstore\n      0x04\n      add\n      tag_236\n      swap1\n      tag_398\n      jump\t// in\n    tag_647:\n      sub(shl(0xa0, 0x01), 0x01)\n        /* \"contracts/ZephyrosStaking/ZephyrosStaking.sol\":6172:6199  approvedTokenId[collection] */\n      dup4\n      and\n      0x00\n      dup2\n      dup2\n      mstore\n        /* \"contracts/ZephyrosStaking/ZephyrosStaking.sol\":6172:6187  approvedTokenId */\n      0x04\n        /* \"contracts/ZephyrosStaking/ZephyrosStaking.sol\":6172:6199  approvedTokenId[collection] */\n      0x20\n      swap1\n      dup2\n      mstore\n      0x40\n      dup1\n      dup4\n      keccak256\n        /* \"contracts/ZephyrosStaking/ZephyrosStaking.sol\":6172:6208  approvedTokenId[collection][tokenId] */\n      dup7\n      dup5\n      mstore\n      dup3\n      mstore\n      swap2\n      dup3\n      swap1\n      keccak256\n        /* \"contracts/ZephyrosStaking/ZephyrosStaking.sol\":6172:6219  approvedTokenId[collection][tokenId] = eligible */\n      dup1\n      sload\n      not(0xff)\n      and\n      dup6\n      iszero\n      iszero\n      swap1\n      dup2\n      or\n      swap1\n      swap2\n      sstore\n        /* \"contracts/ZephyrosStaking/ZephyrosStaking.sol\":6235:6285  TokenEligibilitySet(collection, tokenId, eligible) */\n      swap2\n      mload\n        /* \"#utility.yul\":2228:2269   */\n      swap2\n      dup3\n      mstore\n        /* \"contracts/ZephyrosStaking/ZephyrosStaking.sol\":6172:6208  approvedTokenId[collection][tokenId] */\n      dup5\n      swap3\n        /* \"contracts/ZephyrosStaking/ZephyrosStaking.sol\":6172:6199  approvedTokenId[collection] */\n      swap2\n        /* \"contracts/ZephyrosStaking/ZephyrosStaking.sol\":6235:6285  TokenEligibilitySet(collection, tokenId, eligible) */\n      0x03929b99f1d41b1602615acbac6af6c29ae6687db3d6586d252bf82074486e31\n      swap2\n        /* \"#utility.yul\":2201:2219   */\n      add\n        /* \"contracts/ZephyrosStaking/ZephyrosStaking.sol\":6235:6285  TokenEligibilitySet(collection, tokenId, eligible) */\n      mload(0x40)\n      dup1\n      swap2\n      sub\n      swap1\n      log3\n        /* \"contracts/ZephyrosStaking/ZephyrosStaking.sol\":6010:6293  function setApprovedTokenId(address collection, uint256 tokenId, bool eligible) external onlyAdmin {... */\n      pop\n      pop\n      pop\n      jump\t// out\n        /* \"contracts/ZephyrosStaking/ZephyrosStaking.sol\":16710:17209  function _currentAccRewardPerWeight() internal view returns (uint256) {... */\n    tag_223:\n        /* \"contracts/ZephyrosStaking/ZephyrosStaking.sol\":16771:16778  uint256 */\n      0x00\n        /* \"contracts/ZephyrosStaking/ZephyrosStaking.sol\":16795:16812  totalRewardWeight */\n      sload(0x09)\n        /* \"contracts/ZephyrosStaking/ZephyrosStaking.sol\":16816:16817  0 */\n      0x00\n        /* \"contracts/ZephyrosStaking/ZephyrosStaking.sol\":16795:16817  totalRewardWeight == 0 */\n      sub\n        /* \"contracts/ZephyrosStaking/ZephyrosStaking.sol\":16791:16844  if (totalRewardWeight == 0) return accRewardPerWeight */\n      tag_651\n      jumpi\n      pop\n        /* \"contracts/ZephyrosStaking/ZephyrosStaking.sol\":16826:16844  accRewardPerWeight */\n      sload(0x0a)\n      swap1\n        /* \"contracts/ZephyrosStaking/ZephyrosStaking.sol\":16710:17209  function _currentAccRewardPerWeight() internal view returns (uint256) {... */\n      jump\t// out\n        /* \"contracts/ZephyrosStaking/ZephyrosStaking.sol\":16791:16844  if (totalRewardWeight == 0) return accRewardPerWeight */\n    tag_651:\n        /* \"contracts/ZephyrosStaking/ZephyrosStaking.sol\":16857:16880  uint256 applicableBlock */\n      0x00\n        /* \"contracts/ZephyrosStaking/ZephyrosStaking.sol\":16883:16910  lastRewardBlockApplicable() */\n      tag_652\n        /* \"contracts/ZephyrosStaking/ZephyrosStaking.sol\":16883:16908  lastRewardBlockApplicable */\n      tag_111\n        /* \"contracts/ZephyrosStaking/ZephyrosStaking.sol\":16883:16910  lastRewardBlockApplicable() */\n      jump\t// in\n    tag_652:\n        /* \"contracts/ZephyrosStaking/ZephyrosStaking.sol\":16857:16910  uint256 applicableBlock = lastRewardBlockApplicable() */\n      swap1\n      pop\n        /* \"contracts/ZephyrosStaking/ZephyrosStaking.sol\":16944:16959  lastRewardBlock */\n      sload(0x0b)\n        /* \"contracts/ZephyrosStaking/ZephyrosStaking.sol\":16925:16940  applicableBlock */\n      dup2\n        /* \"contracts/ZephyrosStaking/ZephyrosStaking.sol\":16925:16959  applicableBlock <= lastRewardBlock */\n      gt\n        /* \"contracts/ZephyrosStaking/ZephyrosStaking.sol\":16921:16986  if (applicableBlock <= lastRewardBlock) return accRewardPerWeight */\n      tag_653\n      jumpi\n      pop\n      pop\n        /* \"contracts/ZephyrosStaking/ZephyrosStaking.sol\":16968:16986  accRewardPerWeight */\n      sload(0x0a)\n      swap1\n        /* \"contracts/ZephyrosStaking/ZephyrosStaking.sol\":16710:17209  function _currentAccRewardPerWeight() internal view returns (uint256) {... */\n      jump\t// out\n        /* \"contracts/ZephyrosStaking/ZephyrosStaking.sol\":16921:16986  if (applicableBlock <= lastRewardBlock) return accRewardPerWeight */\n    tag_653:\n        /* \"contracts/ZephyrosStaking/ZephyrosStaking.sol\":16999:17020  uint256 blocksElapsed */\n      0x00\n        /* \"contracts/ZephyrosStaking/ZephyrosStaking.sol\":17041:17056  lastRewardBlock */\n      sload(0x0b)\n        /* \"contracts/ZephyrosStaking/ZephyrosStaking.sol\":17023:17038  applicableBlock */\n      dup3\n        /* \"contracts/ZephyrosStaking/ZephyrosStaking.sol\":17023:17056  applicableBlock - lastRewardBlock */\n      tag_654\n      swap2\n      swap1\n      tag_231\n      jump\t// in\n    tag_654:\n        /* \"contracts/ZephyrosStaking/ZephyrosStaking.sol\":16999:17056  uint256 blocksElapsed = applicableBlock - lastRewardBlock */\n      swap1\n      pop\n        /* \"contracts/ZephyrosStaking/ZephyrosStaking.sol\":17067:17081  uint256 reward */\n      0x00\n        /* \"contracts/ZephyrosStaking/ZephyrosStaking.sol\":17100:17114  rewardPerBlock */\n      sload(0x0c)\n        /* \"contracts/ZephyrosStaking/ZephyrosStaking.sol\":17084:17097  blocksElapsed */\n      dup3\n        /* \"contracts/ZephyrosStaking/ZephyrosStaking.sol\":17084:17114  blocksElapsed * rewardPerBlock */\n      tag_655\n      swap2\n      swap1\n      tag_225\n      jump\t// in\n    tag_655:\n        /* \"contracts/ZephyrosStaking/ZephyrosStaking.sol\":17183:17200  totalRewardWeight */\n      sload(0x09)\n        /* \"contracts/ZephyrosStaking/ZephyrosStaking.sol\":17067:17114  uint256 reward = blocksElapsed * rewardPerBlock */\n      swap1\n      swap2\n      pop\n        /* \"contracts/ZephyrosStaking/ZephyrosStaking.sol\":17157:17179  reward * ACC_PRECISION */\n      tag_656\n        /* \"contracts/ZephyrosStaking/ZephyrosStaking.sol\":1877:1881  1e24 */\n      0xd3c21bcecceda1000000\n        /* \"contracts/ZephyrosStaking/ZephyrosStaking.sol\":17067:17114  uint256 reward = blocksElapsed * rewardPerBlock */\n      dup4\n        /* \"contracts/ZephyrosStaking/ZephyrosStaking.sol\":17157:17179  reward * ACC_PRECISION */\n      tag_225\n      jump\t// in\n    tag_656:\n        /* \"contracts/ZephyrosStaking/ZephyrosStaking.sol\":17156:17200  (reward * ACC_PRECISION) / totalRewardWeight */\n      tag_657\n      swap2\n      swap1\n      tag_227\n      jump\t// in\n    tag_657:\n        /* \"contracts/ZephyrosStaking/ZephyrosStaking.sol\":17134:17152  accRewardPerWeight */\n      sload(0x0a)\n        /* \"contracts/ZephyrosStaking/ZephyrosStaking.sol\":17134:17201  accRewardPerWeight + ((reward * ACC_PRECISION) / totalRewardWeight) */\n      tag_658\n      swap2\n      swap1\n      tag_229\n      jump\t// in\n    tag_658:\n        /* \"contracts/ZephyrosStaking/ZephyrosStaking.sol\":17127:17201  return accRewardPerWeight + ((reward * ACC_PRECISION) / totalRewardWeight) */\n      swap4\n      pop\n      pop\n      pop\n      pop\n        /* \"contracts/ZephyrosStaking/ZephyrosStaking.sol\":16710:17209  function _currentAccRewardPerWeight() internal view returns (uint256) {... */\n      swap1\n      jump\t// out\n        /* \"https://github.com/OpenZeppelin/openzeppelin-contracts/blob/v5.0.2/contracts/token/ERC20/utils/SafeERC20.sol\":1303:1463  function safeTransfer(IERC20 token, address to, uint256 value) internal {... */\n    tag_246:\n        /* \"https://github.com/OpenZeppelin/openzeppelin-contracts/blob/v5.0.2/contracts/token/ERC20/utils/SafeERC20.sol\":1412:1455  abi.encodeCall(token.transfer, (to, value)) */\n      mload(0x40)\n      sub(shl(0xa0, 0x01), 0x01)\n        /* \"#utility.yul\":18624:18656   */\n      dup4\n      dup2\n      and\n        /* \"https://github.com/OpenZeppelin/openzeppelin-contracts/blob/v5.0.2/contracts/token/ERC20/utils/SafeERC20.sol\":1412:1455  abi.encodeCall(token.transfer, (to, value)) */\n      0x24\n      dup4\n      add\n        /* \"#utility.yul\":18606:18657   */\n      mstore\n        /* \"#utility.yul\":18673:18691   */\n      0x44\n      dup3\n      add\n        /* \"#utility.yul\":18666:18700   */\n      dup4\n      swap1\n      mstore\n        /* \"https://github.com/OpenZeppelin/openzeppelin-contracts/blob/v5.0.2/contracts/token/ERC20/utils/SafeERC20.sol\":1385:1456  _callOptionalReturn(token, abi.encodeCall(token.transfer, (to, value))) */\n      tag_245\n      swap2\n        /* \"https://github.com/OpenZeppelin/openzeppelin-contracts/blob/v5.0.2/contracts/token/ERC20/utils/SafeERC20.sol\":1405:1410  token */\n      dup6\n      swap2\n        /* \"https://github.com/OpenZeppelin/openzeppelin-contracts/blob/v5.0.2/contracts/token/ERC20/utils/SafeERC20.sol\":1427:1441  token.transfer */\n      dup3\n      and\n      swap1\n      0xa9059cbb\n      swap1\n        /* \"#utility.yul\":18579:18597   */\n      0x64\n      add\n        /* \"https://github.com/OpenZeppelin/openzeppelin-contracts/blob/v5.0.2/contracts/token/ERC20/utils/SafeERC20.sol\":1412:1455  abi.encodeCall(token.transfer, (to, value)) */\n    tag_661:\n      mload(0x40)\n      0x20\n      dup2\n      dup4\n      sub\n      sub\n      dup2\n      mstore\n      swap1\n      0x40\n      mstore\n      swap2\n      pop\n      0xe0\n      shl\n      0x20\n      dup3\n      add\n      dup1\n      mload\n      sub(shl(0xe0, 0x01), 0x01)\n      dup4\n      dup2\n      dup4\n      and\n      or\n      dup4\n      mstore\n      pop\n      pop\n      pop\n      pop\n        /* \"https://github.com/OpenZeppelin/openzeppelin-contracts/blob/v5.0.2/contracts/token/ERC20/utils/SafeERC20.sol\":1385:1404  _callOptionalReturn */\n      tag_663\n        /* \"https://github.com/OpenZeppelin/openzeppelin-contracts/blob/v5.0.2/contracts/token/ERC20/utils/SafeERC20.sol\":1385:1456  _callOptionalReturn(token, abi.encodeCall(token.transfer, (to, value))) */\n      jump\t// in\n        /* \"https://github.com/OpenZeppelin/openzeppelin-contracts/blob/v5.0.2/contracts/access/Ownable.sol\":1796:1958  function _checkOwner() internal view virtual {... */\n    tag_250:\n        /* \"https://github.com/OpenZeppelin/openzeppelin-contracts/blob/v5.0.2/contracts/access/Ownable.sol\":1684:1691  address */\n      0x00\n        /* \"https://github.com/OpenZeppelin/openzeppelin-contracts/blob/v5.0.2/contracts/access/Ownable.sol\":1710:1716  _owner */\n      sload\n      sub(shl(0xa0, 0x01), 0x01)\n      and\n        /* \"https://github.com/OpenZeppelin/openzeppelin-contracts/blob/v5.0.2/contracts/utils/Context.sol\":735:745  msg.sender */\n      caller\n        /* \"https://github.com/OpenZeppelin/openzeppelin-contracts/blob/v5.0.2/contracts/access/Ownable.sol\":1855:1878  owner() != _msgSender() */\n      eq\n        /* \"https://github.com/OpenZeppelin/openzeppelin-contracts/blob/v5.0.2/contracts/access/Ownable.sol\":1851:1952  if (owner() != _msgSender()) {... */\n      tag_330\n      jumpi\n        /* \"https://github.com/OpenZeppelin/openzeppelin-contracts/blob/v5.0.2/contracts/access/Ownable.sol\":1901:1941  OwnableUnauthorizedAccount(_msgSender()) */\n      mload(0x40)\n      shl(0xe0, 0x118cdaa7)\n      dup2\n      mstore\n        /* \"https://github.com/OpenZeppelin/openzeppelin-contracts/blob/v5.0.2/contracts/utils/Context.sol\":735:745  msg.sender */\n      caller\n        /* \"https://github.com/OpenZeppelin/openzeppelin-contracts/blob/v5.0.2/contracts/access/Ownable.sol\":1901:1941  OwnableUnauthorizedAccount(_msgSender()) */\n      0x04\n      dup3\n      add\n        /* \"#utility.yul\":5464:5515   */\n      mstore\n        /* \"#utility.yul\":5437:5455   */\n      0x24\n      add\n        /* \"https://github.com/OpenZeppelin/openzeppelin-contracts/blob/v5.0.2/contracts/access/Ownable.sol\":1901:1941  OwnableUnauthorizedAccount(_msgSender()) */\n      tag_236\n        /* \"#utility.yul\":5318:5521   */\n      jump\n        /* \"https://github.com/OpenZeppelin/openzeppelin-contracts/blob/v5.0.2/contracts/utils/ReentrancyGuard.sol\":2431:2738  function _nonReentrantBefore() private {... */\n    tag_262:\n        /* \"https://github.com/OpenZeppelin/openzeppelin-contracts/blob/v5.0.2/contracts/utils/ReentrancyGuard.sol\":1755:1756  2 */\n      0x02\n        /* \"https://github.com/OpenZeppelin/openzeppelin-contracts/blob/v5.0.2/contracts/utils/ReentrancyGuard.sol\":2558:2565  _status */\n      sload(0x01)\n        /* \"https://github.com/OpenZeppelin/openzeppelin-contracts/blob/v5.0.2/contracts/utils/ReentrancyGuard.sol\":2558:2576  _status == ENTERED */\n      sub\n        /* \"https://github.com/OpenZeppelin/openzeppelin-contracts/blob/v5.0.2/contracts/utils/ReentrancyGuard.sol\":2554:2640  if (_status == ENTERED) {... */\n      tag_672\n      jumpi\n        /* \"https://github.com/OpenZeppelin/openzeppelin-contracts/blob/v5.0.2/contracts/utils/ReentrancyGuard.sol\":2599:2629  ReentrancyGuardReentrantCall() */\n      mload(0x40)\n      shl(0xe0, 0x3ee5aeb5)\n      dup2\n      mstore\n      0x04\n      add\n      mload(0x40)\n      dup1\n      swap2\n      sub\n      swap1\n      revert\n        /* \"https://github.com/OpenZeppelin/openzeppelin-contracts/blob/v5.0.2/contracts/utils/ReentrancyGuard.sol\":2554:2640  if (_status == ENTERED) {... */\n    tag_672:\n        /* \"https://github.com/OpenZeppelin/openzeppelin-contracts/blob/v5.0.2/contracts/utils/ReentrancyGuard.sol\":1755:1756  2 */\n      0x02\n        /* \"https://github.com/OpenZeppelin/openzeppelin-contracts/blob/v5.0.2/contracts/utils/ReentrancyGuard.sol\":2714:2721  _status */\n      0x01\n        /* \"https://github.com/OpenZeppelin/openzeppelin-contracts/blob/v5.0.2/contracts/utils/ReentrancyGuard.sol\":2714:2731  _status = ENTERED */\n      sstore\n        /* \"https://github.com/OpenZeppelin/openzeppelin-contracts/blob/v5.0.2/contracts/utils/ReentrancyGuard.sol\":2431:2738  function _nonReentrantBefore() private {... */\n      jump\t// out\n        /* \"https://github.com/OpenZeppelin/openzeppelin-contracts/blob/v5.0.2/contracts/token/ERC20/utils/SafeERC20.sol\":1702:1890  function safeTransferFrom(IERC20 token, address from, address to, uint256 value) internal {... */\n    tag_283:\n        /* \"https://github.com/OpenZeppelin/openzeppelin-contracts/blob/v5.0.2/contracts/token/ERC20/utils/SafeERC20.sol\":1802:1883  _callOptionalReturn(token, abi.encodeCall(token.transferFrom, (from, to, value))) */\n      tag_674\n        /* \"https://github.com/OpenZeppelin/openzeppelin-contracts/blob/v5.0.2/contracts/token/ERC20/utils/SafeERC20.sol\":1822:1827  token */\n      dup5\n        /* \"https://github.com/OpenZeppelin/openzeppelin-contracts/blob/v5.0.2/contracts/token/ERC20/utils/SafeERC20.sol\":1844:1849  token */\n      dup6\n      sub(shl(0xa0, 0x01), 0x01)\n        /* \"https://github.com/OpenZeppelin/openzeppelin-contracts/blob/v5.0.2/contracts/token/ERC20/utils/SafeERC20.sol\":1844:1862  token.transferFrom */\n      and\n      0x23b872dd\n        /* \"https://github.com/OpenZeppelin/openzeppelin-contracts/blob/v5.0.2/contracts/token/ERC20/utils/SafeERC20.sol\":1865:1869  from */\n      dup7\n        /* \"https://github.com/OpenZeppelin/openzeppelin-contracts/blob/v5.0.2/contracts/token/ERC20/utils/SafeERC20.sol\":1871:1873  to */\n      dup7\n        /* \"https://github.com/OpenZeppelin/openzeppelin-contracts/blob/v5.0.2/contracts/token/ERC20/utils/SafeERC20.sol\":1875:1880  value */\n      dup7\n        /* \"https://github.com/OpenZeppelin/openzeppelin-contracts/blob/v5.0.2/contracts/token/ERC20/utils/SafeERC20.sol\":1829:1882  abi.encodeCall(token.transferFrom, (from, to, value)) */\n      add(0x24, mload(0x40))\n      tag_661\n      swap4\n      swap3\n      swap2\n      swap1\n      tag_385\n      jump\t// in\n        /* \"https://github.com/OpenZeppelin/openzeppelin-contracts/blob/v5.0.2/contracts/token/ERC20/utils/SafeERC20.sol\":1802:1883  _callOptionalReturn(token, abi.encodeCall(token.transferFrom, (from, to, value))) */\n    tag_674:\n        /* \"https://github.com/OpenZeppelin/openzeppelin-contracts/blob/v5.0.2/contracts/token/ERC20/utils/SafeERC20.sol\":1702:1890  function safeTransferFrom(IERC20 token, address from, address to, uint256 value) internal {... */\n      pop\n      pop\n      pop\n      pop\n      jump\t// out\n        /* \"contracts/ZephyrosStaking/ZephyrosStaking.sol\":17217:18130  function _claim(address account) internal {... */\n    tag_329:\n      sub(shl(0xa0, 0x01), 0x01)\n        /* \"contracts/ZephyrosStaking/ZephyrosStaking.sol\":17294:17308  users[account] */\n      dup2\n      and\n        /* \"contracts/ZephyrosStaking/ZephyrosStaking.sol\":17270:17291  UserInfo storage user */\n      0x00\n        /* \"contracts/ZephyrosStaking/ZephyrosStaking.sol\":17294:17308  users[account] */\n      swap1\n      dup2\n      mstore\n        /* \"contracts/ZephyrosStaking/ZephyrosStaking.sol\":17294:17299  users */\n      0x06\n        /* \"contracts/ZephyrosStaking/ZephyrosStaking.sol\":17294:17308  users[account] */\n      0x20\n      mstore\n      0x40\n      dup2\n      keccak256\n        /* \"contracts/ZephyrosStaking/ZephyrosStaking.sol\":17336:17357  user.unclaimedRewards */\n      0x03\n      dup2\n      add\n      sload\n        /* \"contracts/ZephyrosStaking/ZephyrosStaking.sol\":17294:17308  users[account] */\n      swap1\n      swap2\n        /* \"contracts/ZephyrosStaking/ZephyrosStaking.sol\":17372:17383  reward == 0 */\n      dup2\n      swap1\n      sub\n        /* \"contracts/ZephyrosStaking/ZephyrosStaking.sol\":17368:17392  if (reward == 0) return; */\n      tag_678\n      jumpi\n        /* \"contracts/ZephyrosStaking/ZephyrosStaking.sol\":17385:17392  return; */\n      pop\n      pop\n        /* \"contracts/ZephyrosStaking/ZephyrosStaking.sol\":17217:18130  function _claim(address account) internal {... */\n      pop\n      jump\t// out\n        /* \"contracts/ZephyrosStaking/ZephyrosStaking.sol\":17368:17392  if (reward == 0) return; */\n    tag_678:\n        /* \"contracts/ZephyrosStaking/ZephyrosStaking.sol\":17428:17429  0 */\n      0x00\n        /* \"contracts/ZephyrosStaking/ZephyrosStaking.sol\":17404:17425  user.unclaimedRewards */\n      0x03\n      dup4\n      add\n        /* \"contracts/ZephyrosStaking/ZephyrosStaking.sol\":17404:17429  user.unclaimedRewards = 0 */\n      dup2\n      swap1\n      sstore\n        /* \"contracts/ZephyrosStaking/ZephyrosStaking.sol\":17528:17542  user.entryTime */\n      0x04\n      dup4\n      add\n      sload\n        /* \"contracts/ZephyrosStaking/ZephyrosStaking.sol\":17496:17502  reward */\n      dup3\n      swap1\n        /* \"contracts/ZephyrosStaking/ZephyrosStaking.sol\":17519:17543  _isEarly(user.entryTime) */\n      tag_679\n      swap1\n        /* \"contracts/ZephyrosStaking/ZephyrosStaking.sol\":17519:17527  _isEarly */\n      tag_408\n        /* \"contracts/ZephyrosStaking/ZephyrosStaking.sol\":17519:17543  _isEarly(user.entryTime) */\n      jump\t// in\n    tag_679:\n        /* \"contracts/ZephyrosStaking/ZephyrosStaking.sol\":17515:17836  if (_isEarly(user.entryTime)) {... */\n      iszero\n      tag_686\n      jumpi\n        /* \"contracts/ZephyrosStaking/ZephyrosStaking.sol\":1054:1060  10_000 */\n      0x2710\n        /* \"contracts/ZephyrosStaking/ZephyrosStaking.sol\":17575:17606  reward * EARLY_REWARD_SLASH_BPS */\n      tag_681\n        /* \"contracts/ZephyrosStaking/ZephyrosStaking.sol\":1369:1374  5_000 */\n      0x1388\n        /* \"contracts/ZephyrosStaking/ZephyrosStaking.sol\":17575:17581  reward */\n      dup6\n        /* \"contracts/ZephyrosStaking/ZephyrosStaking.sol\":17575:17606  reward * EARLY_REWARD_SLASH_BPS */\n      tag_225\n      jump\t// in\n    tag_681:\n        /* \"contracts/ZephyrosStaking/ZephyrosStaking.sol\":17574:17613  (reward * EARLY_REWARD_SLASH_BPS) / BPS */\n      tag_682\n      swap2\n      swap1\n      tag_227\n      jump\t// in\n    tag_682:\n        /* \"contracts/ZephyrosStaking/ZephyrosStaking.sol\":17560:17613  slashAmount = (reward * EARLY_REWARD_SLASH_BPS) / BPS */\n      swap2\n      pop\n        /* \"contracts/ZephyrosStaking/ZephyrosStaking.sol\":17640:17660  reward - slashAmount */\n      tag_683\n        /* \"contracts/ZephyrosStaking/ZephyrosStaking.sol\":17560:17613  slashAmount = (reward * EARLY_REWARD_SLASH_BPS) / BPS */\n      dup3\n        /* \"contracts/ZephyrosStaking/ZephyrosStaking.sol\":17640:17646  reward */\n      dup5\n        /* \"contracts/ZephyrosStaking/ZephyrosStaking.sol\":17640:17660  reward - slashAmount */\n      tag_231\n      jump\t// in\n    tag_683:\n        /* \"contracts/ZephyrosStaking/ZephyrosStaking.sol\":17628:17660  payAmount = reward - slashAmount */\n      swap1\n      pop\n        /* \"contracts/ZephyrosStaking/ZephyrosStaking.sol\":17681:17696  slashAmount > 0 */\n      dup2\n      iszero\n        /* \"contracts/ZephyrosStaking/ZephyrosStaking.sol\":17677:17825  if (slashAmount > 0) {... */\n      tag_686\n      jumpi\n        /* \"contracts/ZephyrosStaking/ZephyrosStaking.sol\":17746:17757  slashAmount */\n      dup2\n        /* \"contracts/ZephyrosStaking/ZephyrosStaking.sol\":17717:17742  totalRewardsSlashedToPool */\n      0x11\n      0x00\n        /* \"contracts/ZephyrosStaking/ZephyrosStaking.sol\":17717:17757  totalRewardsSlashedToPool += slashAmount */\n      dup3\n      dup3\n      sload\n      tag_685\n      swap2\n      swap1\n      tag_229\n      jump\t// in\n    tag_685:\n      swap1\n      swap2\n      sstore\n      pop\n        /* \"contracts/ZephyrosStaking/ZephyrosStaking.sol\":17776:17809  _addPenaltyToRewards(slashAmount) */\n      tag_686\n      swap1\n      pop\n        /* \"contracts/ZephyrosStaking/ZephyrosStaking.sol\":17797:17808  slashAmount */\n      dup3\n        /* \"contracts/ZephyrosStaking/ZephyrosStaking.sol\":17776:17796  _addPenaltyToRewards */\n      tag_461\n        /* \"contracts/ZephyrosStaking/ZephyrosStaking.sol\":17776:17809  _addPenaltyToRewards(slashAmount) */\n      jump\t// in\n    tag_686:\n        /* \"contracts/ZephyrosStaking/ZephyrosStaking.sol\":17852:17865  payAmount > 0 */\n      dup1\n      iszero\n        /* \"contracts/ZephyrosStaking/ZephyrosStaking.sol\":17848:17975  if (payAmount > 0) {... */\n      tag_689\n      jumpi\n        /* \"contracts/ZephyrosStaking/ZephyrosStaking.sol\":17902:17911  payAmount */\n      dup1\n        /* \"contracts/ZephyrosStaking/ZephyrosStaking.sol\":17882:17898  totalRewardsPaid */\n      0x10\n      0x00\n        /* \"contracts/ZephyrosStaking/ZephyrosStaking.sol\":17882:17911  totalRewardsPaid += payAmount */\n      dup3\n      dup3\n      sload\n      tag_688\n      swap2\n      swap1\n      tag_229\n      jump\t// in\n    tag_688:\n      swap1\n      swap2\n      sstore\n      pop\n        /* \"contracts/ZephyrosStaking/ZephyrosStaking.sol\":17926:17963  core.safeTransfer(account, payAmount) */\n      tag_689\n      swap1\n      pop\n      sub(shl(0xa0, 0x01), 0x01)\n        /* \"contracts/ZephyrosStaking/ZephyrosStaking.sol\":17926:17930  core */\n      immutable(\"0x8b953cbb84328003779eb1ef176ef07f7dd0ae3d4a8e408de53d15a36466c86e\")\n        /* \"contracts/ZephyrosStaking/ZephyrosStaking.sol\":17926:17943  core.safeTransfer */\n      and\n        /* \"contracts/ZephyrosStaking/ZephyrosStaking.sol\":17944:17951  account */\n      dup7\n        /* \"contracts/ZephyrosStaking/ZephyrosStaking.sol\":17953:17962  payAmount */\n      dup4\n        /* \"contracts/ZephyrosStaking/ZephyrosStaking.sol\":17926:17943  core.safeTransfer */\n      tag_246\n        /* \"contracts/ZephyrosStaking/ZephyrosStaking.sol\":17926:17963  core.safeTransfer(account, payAmount) */\n      jump\t// in\n    tag_689:\n        /* \"contracts/ZephyrosStaking/ZephyrosStaking.sol\":1877:1881  1e24 */\n      0xd3c21bcecceda1000000\n        /* \"contracts/ZephyrosStaking/ZephyrosStaking.sol\":18026:18044  accRewardPerWeight */\n      sload(0x0a)\n        /* \"contracts/ZephyrosStaking/ZephyrosStaking.sol\":18006:18010  user */\n      dup6\n        /* \"contracts/ZephyrosStaking/ZephyrosStaking.sol\":18006:18023  user.rewardWeight */\n      0x01\n      add\n      sload\n        /* \"contracts/ZephyrosStaking/ZephyrosStaking.sol\":18006:18044  user.rewardWeight * accRewardPerWeight */\n      tag_690\n      swap2\n      swap1\n      tag_225\n      jump\t// in\n    tag_690:\n        /* \"contracts/ZephyrosStaking/ZephyrosStaking.sol\":18005:18061  (user.rewardWeight * accRewardPerWeight) / ACC_PRECISION */\n      tag_691\n      swap2\n      swap1\n      tag_227\n      jump\t// in\n    tag_691:\n        /* \"contracts/ZephyrosStaking/ZephyrosStaking.sol\":17987:18002  user.rewardDebt */\n      0x02\n      dup6\n      add\n        /* \"contracts/ZephyrosStaking/ZephyrosStaking.sol\":17987:18061  user.rewardDebt = (user.rewardWeight * accRewardPerWeight) / ACC_PRECISION */\n      sstore\n        /* \"contracts/ZephyrosStaking/ZephyrosStaking.sol\":18079:18122  RewardPaid(account, payAmount, slashAmount) */\n      0x40\n      dup1\n      mload\n        /* \"#utility.yul\":18885:18910   */\n      dup3\n      dup2\n      mstore\n        /* \"#utility.yul\":18941:18943   */\n      0x20\n        /* \"#utility.yul\":18926:18944   */\n      dup2\n      add\n        /* \"#utility.yul\":18919:18953   */\n      dup5\n      swap1\n      mstore\n      sub(shl(0xa0, 0x01), 0x01)\n        /* \"contracts/ZephyrosStaking/ZephyrosStaking.sol\":18079:18122  RewardPaid(account, payAmount, slashAmount) */\n      dup8\n      and\n      swap2\n      0xd6f2c8500df5b44f11e9e48b91ff9f1b9d81bc496d55570c2b1b75bf65243f51\n      swap2\n        /* \"#utility.yul\":18858:18876   */\n      add\n        /* \"contracts/ZephyrosStaking/ZephyrosStaking.sol\":18079:18122  RewardPaid(account, payAmount, slashAmount) */\n      mload(0x40)\n      dup1\n      swap2\n      sub\n      swap1\n      log2\n        /* \"contracts/ZephyrosStaking/ZephyrosStaking.sol\":17259:18130  {... */\n      pop\n      pop\n      pop\n      pop\n        /* \"contracts/ZephyrosStaking/ZephyrosStaking.sol\":17217:18130  function _claim(address account) internal {... */\n      pop\n      jump\t// out\n        /* \"contracts/ZephyrosStaking/ZephyrosStaking.sol\":18138:18820  function _refreshUserWeight(address account) internal {... */\n    tag_358:\n      sub(shl(0xa0, 0x01), 0x01)\n        /* \"contracts/ZephyrosStaking/ZephyrosStaking.sol\":18227:18241  users[account] */\n      dup2\n      and\n        /* \"contracts/ZephyrosStaking/ZephyrosStaking.sol\":18203:18224  UserInfo storage user */\n      0x00\n        /* \"contracts/ZephyrosStaking/ZephyrosStaking.sol\":18227:18241  users[account] */\n      swap1\n      dup2\n      mstore\n        /* \"contracts/ZephyrosStaking/ZephyrosStaking.sol\":18227:18232  users */\n      0x06\n        /* \"contracts/ZephyrosStaking/ZephyrosStaking.sol\":18227:18241  users[account] */\n      0x20\n      mstore\n      0x40\n      dup2\n      keccak256\n        /* \"contracts/ZephyrosStaking/ZephyrosStaking.sol\":18272:18289  user.rewardWeight */\n      0x01\n      dup2\n      add\n      sload\n        /* \"contracts/ZephyrosStaking/ZephyrosStaking.sol\":18338:18353  user.coreStaked */\n      dup2\n      sload\n        /* \"contracts/ZephyrosStaking/ZephyrosStaking.sol\":18227:18241  users[account] */\n      swap2\n      swap3\n        /* \"contracts/ZephyrosStaking/ZephyrosStaking.sol\":18272:18289  user.rewardWeight */\n      swap1\n      swap2\n        /* \"contracts/ZephyrosStaking/ZephyrosStaking.sol\":18338:18357  user.coreStaked > 0 */\n      iszero\n      dup1\n      iszero\n      swap1\n        /* \"contracts/ZephyrosStaking/ZephyrosStaking.sol\":18338:18382  user.coreStaked > 0 && user.nfts.length >= 1 */\n      tag_695\n      jumpi\n      pop\n        /* \"contracts/ZephyrosStaking/ZephyrosStaking.sol\":18361:18370  user.nfts */\n      0x05\n      dup4\n      add\n        /* \"contracts/ZephyrosStaking/ZephyrosStaking.sol\":18361:18377  user.nfts.length */\n      sload\n        /* \"contracts/ZephyrosStaking/ZephyrosStaking.sol\":18381:18382  1 */\n      0x01\n      gt\n        /* \"contracts/ZephyrosStaking/ZephyrosStaking.sol\":18361:18382  user.nfts.length >= 1 */\n      iszero\n        /* \"contracts/ZephyrosStaking/ZephyrosStaking.sol\":18338:18382  user.coreStaked > 0 && user.nfts.length >= 1 */\n    tag_695:\n        /* \"contracts/ZephyrosStaking/ZephyrosStaking.sol\":18334:18484  if (user.coreStaked > 0 && user.nfts.length >= 1) {... */\n      iszero\n      tag_696\n      jumpi\n        /* \"contracts/ZephyrosStaking/ZephyrosStaking.sol\":18448:18457  user.nfts */\n      0x05\n      dup4\n      add\n        /* \"contracts/ZephyrosStaking/ZephyrosStaking.sol\":18448:18464  user.nfts.length */\n      sload\n        /* \"contracts/ZephyrosStaking/ZephyrosStaking.sol\":1054:1060  10_000 */\n      0x2710\n      swap1\n        /* \"contracts/ZephyrosStaking/ZephyrosStaking.sol\":18430:18465  _boostForNFTCount(user.nfts.length) */\n      tag_697\n      swap1\n        /* \"contracts/ZephyrosStaking/ZephyrosStaking.sol\":18430:18447  _boostForNFTCount */\n      tag_410\n        /* \"contracts/ZephyrosStaking/ZephyrosStaking.sol\":18430:18465  _boostForNFTCount(user.nfts.length) */\n      jump\t// in\n    tag_697:\n        /* \"contracts/ZephyrosStaking/ZephyrosStaking.sol\":18412:18427  user.coreStaked */\n      dup5\n      sload\n        /* \"contracts/ZephyrosStaking/ZephyrosStaking.sol\":18412:18465  user.coreStaked * _boostForNFTCount(user.nfts.length) */\n      tag_698\n      swap2\n      swap1\n      tag_225\n      jump\t// in\n    tag_698:\n        /* \"contracts/ZephyrosStaking/ZephyrosStaking.sol\":18411:18472  (user.coreStaked * _boostForNFTCount(user.nfts.length)) / BPS */\n      tag_699\n      swap2\n      swap1\n      tag_227\n      jump\t// in\n    tag_699:\n        /* \"contracts/ZephyrosStaking/ZephyrosStaking.sol\":18399:18472  newWeight = (user.coreStaked * _boostForNFTCount(user.nfts.length)) / BPS */\n      swap1\n      pop\n        /* \"contracts/ZephyrosStaking/ZephyrosStaking.sol\":18334:18484  if (user.coreStaked > 0 && user.nfts.length >= 1) {... */\n    tag_696:\n        /* \"contracts/ZephyrosStaking/ZephyrosStaking.sol\":18512:18521  oldWeight */\n      dup2\n        /* \"contracts/ZephyrosStaking/ZephyrosStaking.sol\":18500:18509  newWeight */\n      dup2\n        /* \"contracts/ZephyrosStaking/ZephyrosStaking.sol\":18500:18521  newWeight > oldWeight */\n      gt\n        /* \"contracts/ZephyrosStaking/ZephyrosStaking.sol\":18496:18694  if (newWeight > oldWeight) {... */\n      iszero\n      tag_700\n      jumpi\n        /* \"contracts/ZephyrosStaking/ZephyrosStaking.sol\":18559:18580  newWeight - oldWeight */\n      tag_701\n        /* \"contracts/ZephyrosStaking/ZephyrosStaking.sol\":18571:18580  oldWeight */\n      dup3\n        /* \"contracts/ZephyrosStaking/ZephyrosStaking.sol\":18559:18568  newWeight */\n      dup3\n        /* \"contracts/ZephyrosStaking/ZephyrosStaking.sol\":18559:18580  newWeight - oldWeight */\n      tag_231\n      jump\t// in\n    tag_701:\n        /* \"contracts/ZephyrosStaking/ZephyrosStaking.sol\":18538:18555  totalRewardWeight */\n      0x09\n      0x00\n        /* \"contracts/ZephyrosStaking/ZephyrosStaking.sol\":18538:18580  totalRewardWeight += newWeight - oldWeight */\n      dup3\n      dup3\n      sload\n      tag_702\n      swap2\n      swap1\n      tag_229\n      jump\t// in\n    tag_702:\n      swap1\n      swap2\n      sstore\n      pop\n        /* \"contracts/ZephyrosStaking/ZephyrosStaking.sol\":18496:18694  if (newWeight > oldWeight) {... */\n      tag_704\n      swap1\n      pop\n      jump\n    tag_700:\n        /* \"contracts/ZephyrosStaking/ZephyrosStaking.sol\":18614:18623  newWeight */\n      dup1\n        /* \"contracts/ZephyrosStaking/ZephyrosStaking.sol\":18602:18611  oldWeight */\n      dup3\n        /* \"contracts/ZephyrosStaking/ZephyrosStaking.sol\":18602:18623  oldWeight > newWeight */\n      gt\n        /* \"contracts/ZephyrosStaking/ZephyrosStaking.sol\":18598:18694  if (oldWeight > newWeight) {... */\n      iszero\n      tag_704\n      jumpi\n        /* \"contracts/ZephyrosStaking/ZephyrosStaking.sol\":18661:18682  oldWeight - newWeight */\n      tag_705\n        /* \"contracts/ZephyrosStaking/ZephyrosStaking.sol\":18673:18682  newWeight */\n      dup2\n        /* \"contracts/ZephyrosStaking/ZephyrosStaking.sol\":18661:18670  oldWeight */\n      dup4\n        /* \"contracts/ZephyrosStaking/ZephyrosStaking.sol\":18661:18682  oldWeight - newWeight */\n      tag_231\n      jump\t// in\n    tag_705:\n        /* \"contracts/ZephyrosStaking/ZephyrosStaking.sol\":18640:18657  totalRewardWeight */\n      0x09\n      0x00\n        /* \"contracts/ZephyrosStaking/ZephyrosStaking.sol\":18640:18682  totalRewardWeight -= oldWeight - newWeight */\n      dup3\n      dup3\n      sload\n      tag_706\n      swap2\n      swap1\n      tag_231\n      jump\t// in\n    tag_706:\n      swap1\n      swap2\n      sstore\n      pop\n      pop\n        /* \"contracts/ZephyrosStaking/ZephyrosStaking.sol\":18598:18694  if (oldWeight > newWeight) {... */\n    tag_704:\n        /* \"contracts/ZephyrosStaking/ZephyrosStaking.sol\":18706:18723  user.rewardWeight */\n      0x01\n      dup4\n      add\n        /* \"contracts/ZephyrosStaking/ZephyrosStaking.sol\":18706:18735  user.rewardWeight = newWeight */\n      dup2\n      swap1\n      sstore\n        /* \"contracts/ZephyrosStaking/ZephyrosStaking.sol\":18777:18795  accRewardPerWeight */\n      sload(0x0a)\n        /* \"contracts/ZephyrosStaking/ZephyrosStaking.sol\":1877:1881  1e24 */\n      0xd3c21bcecceda1000000\n      swap1\n        /* \"contracts/ZephyrosStaking/ZephyrosStaking.sol\":18765:18795  newWeight * accRewardPerWeight */\n      tag_707\n      swap1\n        /* \"contracts/ZephyrosStaking/ZephyrosStaking.sol\":18726:18735  newWeight */\n      dup4\n        /* \"contracts/ZephyrosStaking/ZephyrosStaking.sol\":18765:18795  newWeight * accRewardPerWeight */\n      tag_225\n      jump\t// in\n    tag_707:\n        /* \"contracts/ZephyrosStaking/ZephyrosStaking.sol\":18764:18812  (newWeight * accRewardPerWeight) / ACC_PRECISION */\n      tag_708\n      swap2\n      swap1\n      tag_227\n      jump\t// in\n    tag_708:\n        /* \"contracts/ZephyrosStaking/ZephyrosStaking.sol\":18746:18750  user */\n      dup4\n        /* \"contracts/ZephyrosStaking/ZephyrosStaking.sol\":18746:18761  user.rewardDebt */\n      0x02\n      add\n        /* \"contracts/ZephyrosStaking/ZephyrosStaking.sol\":18746:18812  user.rewardDebt = (newWeight * accRewardPerWeight) / ACC_PRECISION */\n      dup2\n      swap1\n      sstore\n      pop\n        /* \"contracts/ZephyrosStaking/ZephyrosStaking.sol\":18192:18820  {... */\n      pop\n      pop\n      pop\n        /* \"contracts/ZephyrosStaking/ZephyrosStaking.sol\":18138:18820  function _refreshUserWeight(address account) internal {... */\n      pop\n      jump\t// out\n        /* \"contracts/ZephyrosStaking/ZephyrosStaking.sol\":20013:20466  function _removeUserNFT(UserInfo storage user, address collection, uint256 tokenId) internal {... */\n    tag_382:\n        /* \"contracts/ZephyrosStaking/ZephyrosStaking.sol\":20134:20143  user.nfts */\n      0x05\n      dup4\n      add\n        /* \"contracts/ZephyrosStaking/ZephyrosStaking.sol\":20134:20150  user.nfts.length */\n      sload\n        /* \"contracts/ZephyrosStaking/ZephyrosStaking.sol\":20117:20131  uint256 length */\n      0x00\n        /* \"contracts/ZephyrosStaking/ZephyrosStaking.sol\":20161:20432  for (uint256 i = 0; i < length; i++) {... */\n    tag_710:\n        /* \"contracts/ZephyrosStaking/ZephyrosStaking.sol\":20185:20191  length */\n      dup2\n        /* \"contracts/ZephyrosStaking/ZephyrosStaking.sol\":20181:20182  i */\n      dup2\n        /* \"contracts/ZephyrosStaking/ZephyrosStaking.sol\":20181:20191  i < length */\n      lt\n        /* \"contracts/ZephyrosStaking/ZephyrosStaking.sol\":20161:20432  for (uint256 i = 0; i < length; i++) {... */\n      iszero\n      tag_711\n      jumpi\n        /* \"contracts/ZephyrosStaking/ZephyrosStaking.sol\":20244:20254  collection */\n      dup4\n      sub(shl(0xa0, 0x01), 0x01)\n        /* \"contracts/ZephyrosStaking/ZephyrosStaking.sol\":20217:20254  user.nfts[i].collection == collection */\n      and\n        /* \"contracts/ZephyrosStaking/ZephyrosStaking.sol\":20217:20221  user */\n      dup6\n        /* \"contracts/ZephyrosStaking/ZephyrosStaking.sol\":20217:20226  user.nfts */\n      0x05\n      add\n        /* \"contracts/ZephyrosStaking/ZephyrosStaking.sol\":20227:20228  i */\n      dup3\n        /* \"contracts/ZephyrosStaking/ZephyrosStaking.sol\":20217:20229  user.nfts[i] */\n      dup2\n      sload\n      dup2\n      lt\n      tag_714\n      jumpi\n      tag_714\n      tag_527\n      jump\t// in\n    tag_714:\n      0x00\n      swap2\n      dup3\n      mstore\n      0x20\n      swap1\n      swap2\n      keccak256\n      0x02\n      swap1\n      swap2\n      mul\n      add\n        /* \"contracts/ZephyrosStaking/ZephyrosStaking.sol\":20217:20240  user.nfts[i].collection */\n      sload\n      sub(shl(0xa0, 0x01), 0x01)\n      and\n        /* \"contracts/ZephyrosStaking/ZephyrosStaking.sol\":20217:20254  user.nfts[i].collection == collection */\n      eq\n        /* \"contracts/ZephyrosStaking/ZephyrosStaking.sol\":20217:20289  user.nfts[i].collection == collection && user.nfts[i].tokenId == tokenId */\n      dup1\n      iszero\n      tag_716\n      jumpi\n      pop\n        /* \"contracts/ZephyrosStaking/ZephyrosStaking.sol\":20282:20289  tokenId */\n      dup3\n        /* \"contracts/ZephyrosStaking/ZephyrosStaking.sol\":20258:20262  user */\n      dup6\n        /* \"contracts/ZephyrosStaking/ZephyrosStaking.sol\":20258:20267  user.nfts */\n      0x05\n      add\n        /* \"contracts/ZephyrosStaking/ZephyrosStaking.sol\":20268:20269  i */\n      dup3\n        /* \"contracts/ZephyrosStaking/ZephyrosStaking.sol\":20258:20270  user.nfts[i] */\n      dup2\n      sload\n      dup2\n      lt\n      tag_718\n      jumpi\n      tag_718\n      tag_527\n      jump\t// in\n    tag_718:\n      swap1\n      0x00\n      mstore\n      keccak256(0x00, 0x20)\n      swap1\n      0x02\n      mul\n      add\n        /* \"contracts/ZephyrosStaking/ZephyrosStaking.sol\":20258:20278  user.nfts[i].tokenId */\n      0x01\n      add\n      sload\n        /* \"contracts/ZephyrosStaking/ZephyrosStaking.sol\":20258:20289  user.nfts[i].tokenId == tokenId */\n      eq\n        /* \"contracts/ZephyrosStaking/ZephyrosStaking.sol\":20217:20289  user.nfts[i].collection == collection && user.nfts[i].tokenId == tokenId */\n    tag_716:\n        /* \"contracts/ZephyrosStaking/ZephyrosStaking.sol\":20213:20421  if (user.nfts[i].collection == collection && user.nfts[i].tokenId == tokenId) {... */\n      iszero\n      tag_720\n      jumpi\n        /* \"contracts/ZephyrosStaking/ZephyrosStaking.sol\":20325:20334  user.nfts */\n      0x05\n      dup6\n      add\n        /* \"contracts/ZephyrosStaking/ZephyrosStaking.sol\":20335:20345  length - 1 */\n      tag_721\n        /* \"contracts/ZephyrosStaking/ZephyrosStaking.sol\":20344:20345  1 */\n      0x01\n        /* \"contracts/ZephyrosStaking/ZephyrosStaking.sol\":20335:20341  length */\n      dup5\n        /* \"contracts/ZephyrosStaking/ZephyrosStaking.sol\":20335:20345  length - 1 */\n      tag_231\n      jump\t// in\n    tag_721:\n        /* \"contracts/ZephyrosStaking/ZephyrosStaking.sol\":20325:20346  user.nfts[length - 1] */\n      dup2\n      sload\n      dup2\n      lt\n      tag_723\n      jumpi\n      tag_723\n      tag_527\n      jump\t// in\n    tag_723:\n      swap1\n      0x00\n      mstore\n      keccak256(0x00, 0x20)\n      swap1\n      0x02\n      mul\n      add\n        /* \"contracts/ZephyrosStaking/ZephyrosStaking.sol\":20310:20314  user */\n      dup6\n        /* \"contracts/ZephyrosStaking/ZephyrosStaking.sol\":20310:20319  user.nfts */\n      0x05\n      add\n        /* \"contracts/ZephyrosStaking/ZephyrosStaking.sol\":20320:20321  i */\n      dup3\n        /* \"contracts/ZephyrosStaking/ZephyrosStaking.sol\":20310:20322  user.nfts[i] */\n      dup2\n      sload\n      dup2\n      lt\n      tag_726\n      jumpi\n      tag_726\n      tag_527\n      jump\t// in\n    tag_726:\n      0x00\n      swap2\n      dup3\n      mstore\n      0x20\n      swap1\n      swap2\n      keccak256\n        /* \"contracts/ZephyrosStaking/ZephyrosStaking.sol\":20310:20346  user.nfts[i] = user.nfts[length - 1] */\n      dup3\n      sload\n        /* \"contracts/ZephyrosStaking/ZephyrosStaking.sol\":20310:20322  user.nfts[i] */\n      0x02\n      swap1\n      swap3\n      mul\n      add\n        /* \"contracts/ZephyrosStaking/ZephyrosStaking.sol\":20310:20346  user.nfts[i] = user.nfts[length - 1] */\n      dup1\n      sload\n      not(sub(shl(0xa0, 0x01), 0x01))\n      and\n      sub(shl(0xa0, 0x01), 0x01)\n      swap1\n      swap3\n      and\n      swap2\n      swap1\n      swap2\n      or\n      dup2\n      sstore\n      0x01\n      swap2\n      dup3\n      add\n      sload\n      swap2\n      add\n      sstore\n        /* \"contracts/ZephyrosStaking/ZephyrosStaking.sol\":20365:20374  user.nfts */\n      0x05\n      dup6\n      add\n        /* \"contracts/ZephyrosStaking/ZephyrosStaking.sol\":20365:20380  user.nfts.pop() */\n      dup1\n      sload\n      dup1\n      tag_729\n      jumpi\n      tag_729\n      tag_730\n      jump\t// in\n    tag_729:\n      0x00\n      dup3\n      dup2\n      mstore\n      0x20\n      dup2\n      keccak256\n      0x02\n      not(0x00)\n      swap1\n      swap4\n      add\n      swap3\n      dup4\n      mul\n      add\n      dup1\n      sload\n      not(sub(shl(0xa0, 0x01), 0x01))\n      and\n      dup2\n      sstore\n      0x01\n      add\n      sstore\n      swap1\n      sstore\n      pop\n      pop\n      pop\n      pop\n      pop\n        /* \"contracts/ZephyrosStaking/ZephyrosStaking.sol\":20013:20466  function _removeUserNFT(UserInfo storage user, address collection, uint256 tokenId) internal {... */\n      jump\t// out\n        /* \"contracts/ZephyrosStaking/ZephyrosStaking.sol\":20213:20421  if (user.nfts[i].collection == collection && user.nfts[i].tokenId == tokenId) {... */\n    tag_720:\n        /* \"contracts/ZephyrosStaking/ZephyrosStaking.sol\":20193:20196  i++ */\n      dup1\n      tag_732\n      dup2\n      tag_532\n      jump\t// in\n    tag_732:\n      swap2\n      pop\n      pop\n        /* \"contracts/ZephyrosStaking/ZephyrosStaking.sol\":20161:20432  for (uint256 i = 0; i < length; i++) {... */\n      jump(tag_710)\n    tag_711:\n      pop\n        /* \"contracts/ZephyrosStaking/ZephyrosStaking.sol\":20442:20458  revert(\"NO_NFT\") */\n      mload(0x40)\n      shl(0xe5, 0x461bcd)\n      dup2\n      mstore\n        /* \"#utility.yul\":19298:19300   */\n      0x20\n        /* \"contracts/ZephyrosStaking/ZephyrosStaking.sol\":20442:20458  revert(\"NO_NFT\") */\n      0x04\n      dup3\n      add\n        /* \"#utility.yul\":19280:19301   */\n      mstore\n        /* \"#utility.yul\":19337:19338   */\n      0x06\n        /* \"#utility.yul\":19317:19335   */\n      0x24\n      dup3\n      add\n        /* \"#utility.yul\":19310:19339   */\n      mstore\n      shl(0xd2, 0x1393d7d39195)\n        /* \"#utility.yul\":19355:19373   */\n      0x44\n      dup3\n      add\n        /* \"#utility.yul\":19348:19384   */\n      mstore\n        /* \"#utility.yul\":19401:19419   */\n      0x64\n      add\n        /* \"contracts/ZephyrosStaking/ZephyrosStaking.sol\":20442:20458  revert(\"NO_NFT\") */\n      tag_236\n        /* \"#utility.yul\":19096:19425   */\n      jump\n        /* \"contracts/ZephyrosStaking/ZephyrosStaking.sol\":19851:20005  function _isEarly(uint256 entryTime) internal view returns (bool) {... */\n    tag_408:\n        /* \"contracts/ZephyrosStaking/ZephyrosStaking.sol\":19911:19915  bool */\n      0x00\n        /* \"contracts/ZephyrosStaking/ZephyrosStaking.sol\":19935:19949  entryTime != 0 */\n      dup2\n      iszero\n      dup1\n      iszero\n      swap1\n        /* \"contracts/ZephyrosStaking/ZephyrosStaking.sol\":19935:19997  entryTime != 0 && block.timestamp < entryTime + MIN_STAKE_TIME */\n      tag_503\n      jumpi\n      pop\n        /* \"contracts/ZephyrosStaking/ZephyrosStaking.sol\":19971:19997  entryTime + MIN_STAKE_TIME */\n      tag_737\n        /* \"contracts/ZephyrosStaking/ZephyrosStaking.sol\":1168:1175  60 days */\n      0x4f1a00\n        /* \"contracts/ZephyrosStaking/ZephyrosStaking.sol\":19971:19980  entryTime */\n      dup4\n        /* \"contracts/ZephyrosStaking/ZephyrosStaking.sol\":19971:19997  entryTime + MIN_STAKE_TIME */\n      tag_229\n      jump\t// in\n    tag_737:\n        /* \"contracts/ZephyrosStaking/ZephyrosStaking.sol\":19953:19968  block.timestamp */\n      timestamp\n        /* \"contracts/ZephyrosStaking/ZephyrosStaking.sol\":19953:19997  block.timestamp < entryTime + MIN_STAKE_TIME */\n      lt\n        /* \"contracts/ZephyrosStaking/ZephyrosStaking.sol\":19928:19997  return entryTime != 0 && block.timestamp < entryTime + MIN_STAKE_TIME */\n      swap3\n        /* \"contracts/ZephyrosStaking/ZephyrosStaking.sol\":19851:20005  function _isEarly(uint256 entryTime) internal view returns (bool) {... */\n      swap2\n      pop\n      pop\n      jump\t// out\n        /* \"contracts/ZephyrosStaking/ZephyrosStaking.sol\":19547:19843  function _boostForNFTCount(uint256 nftCount) internal pure returns (uint256) {... */\n    tag_410:\n        /* \"contracts/ZephyrosStaking/ZephyrosStaking.sol\":19615:19622  uint256 */\n      0x00\n        /* \"contracts/ZephyrosStaking/ZephyrosStaking.sol\":19639:19647  nftCount */\n      dup2\n        /* \"contracts/ZephyrosStaking/ZephyrosStaking.sol\":19651:19652  1 */\n      0x01\n        /* \"contracts/ZephyrosStaking/ZephyrosStaking.sol\":19639:19652  nftCount == 1 */\n      sub\n        /* \"contracts/ZephyrosStaking/ZephyrosStaking.sol\":19635:19672  if (nftCount == 1) return BOOST_1_NFT */\n      tag_739\n      jumpi\n      pop\n        /* \"contracts/ZephyrosStaking/ZephyrosStaking.sol\":1665:1671  10_000 */\n      0x2710\n      swap2\n        /* \"contracts/ZephyrosStaking/ZephyrosStaking.sol\":19547:19843  function _boostForNFTCount(uint256 nftCount) internal pure returns (uint256) {... */\n      swap1\n      pop\n      jump\t// out\n        /* \"contracts/ZephyrosStaking/ZephyrosStaking.sol\":19635:19672  if (nftCount == 1) return BOOST_1_NFT */\n    tag_739:\n        /* \"contracts/ZephyrosStaking/ZephyrosStaking.sol\":19687:19695  nftCount */\n      dup2\n        /* \"contracts/ZephyrosStaking/ZephyrosStaking.sol\":19699:19700  2 */\n      0x02\n        /* \"contracts/ZephyrosStaking/ZephyrosStaking.sol\":19687:19700  nftCount == 2 */\n      sub\n        /* \"contracts/ZephyrosStaking/ZephyrosStaking.sol\":19683:19720  if (nftCount == 2) return BOOST_2_NFT */\n      tag_740\n      jumpi\n      pop\n        /* \"contracts/ZephyrosStaking/ZephyrosStaking.sol\":1717:1723  11_000 */\n      0x2af8\n      swap2\n        /* \"contracts/ZephyrosStaking/ZephyrosStaking.sol\":19547:19843  function _boostForNFTCount(uint256 nftCount) internal pure returns (uint256) {... */\n      swap1\n      pop\n      jump\t// out\n        /* \"contracts/ZephyrosStaking/ZephyrosStaking.sol\":19683:19720  if (nftCount == 2) return BOOST_2_NFT */\n    tag_740:\n        /* \"contracts/ZephyrosStaking/ZephyrosStaking.sol\":19735:19743  nftCount */\n      dup2\n        /* \"contracts/ZephyrosStaking/ZephyrosStaking.sol\":19747:19748  3 */\n      0x03\n        /* \"contracts/ZephyrosStaking/ZephyrosStaking.sol\":19735:19748  nftCount == 3 */\n      sub\n        /* \"contracts/ZephyrosStaking/ZephyrosStaking.sol\":19731:19768  if (nftCount == 3) return BOOST_3_NFT */\n      tag_741\n      jumpi\n      pop\n        /* \"contracts/ZephyrosStaking/ZephyrosStaking.sol\":1769:1775  12_000 */\n      0x2ee0\n      swap2\n        /* \"contracts/ZephyrosStaking/ZephyrosStaking.sol\":19547:19843  function _boostForNFTCount(uint256 nftCount) internal pure returns (uint256) {... */\n      swap1\n      pop\n      jump\t// out\n        /* \"contracts/ZephyrosStaking/ZephyrosStaking.sol\":19731:19768  if (nftCount == 3) return BOOST_3_NFT */\n    tag_741:\n        /* \"contracts/ZephyrosStaking/ZephyrosStaking.sol\":19783:19791  nftCount */\n      dup2\n        /* \"contracts/ZephyrosStaking/ZephyrosStaking.sol\":19795:19796  4 */\n      0x04\n        /* \"contracts/ZephyrosStaking/ZephyrosStaking.sol\":19783:19796  nftCount == 4 */\n      sub\n        /* \"contracts/ZephyrosStaking/ZephyrosStaking.sol\":19779:19816  if (nftCount == 4) return BOOST_4_NFT */\n      tag_742\n      jumpi\n      pop\n        /* \"contracts/ZephyrosStaking/ZephyrosStaking.sol\":1821:1827  13_000 */\n      0x32c8\n      swap2\n        /* \"contracts/ZephyrosStaking/ZephyrosStaking.sol\":19547:19843  function _boostForNFTCount(uint256 nftCount) internal pure returns (uint256) {... */\n      swap1\n      pop\n      jump\t// out\n        /* \"contracts/ZephyrosStaking/ZephyrosStaking.sol\":19779:19816  if (nftCount == 4) return BOOST_4_NFT */\n    tag_742:\n      pop\n        /* \"contracts/ZephyrosStaking/ZephyrosStaking.sol\":19834:19835  0 */\n      0x00\n      swap2\n        /* \"contracts/ZephyrosStaking/ZephyrosStaking.sol\":19547:19843  function _boostForNFTCount(uint256 nftCount) internal pure returns (uint256) {... */\n      swap1\n      pop\n      jump\t// out\n        /* \"https://github.com/OpenZeppelin/openzeppelin-contracts/blob/v5.0.2/contracts/access/Ownable.sol\":2912:3099  function _transferOwnership(address newOwner) internal virtual {... */\n    tag_424:\n        /* \"https://github.com/OpenZeppelin/openzeppelin-contracts/blob/v5.0.2/contracts/access/Ownable.sol\":2985:3001  address oldOwner */\n      0x00\n        /* \"https://github.com/OpenZeppelin/openzeppelin-contracts/blob/v5.0.2/contracts/access/Ownable.sol\":3004:3010  _owner */\n      dup1\n      sload\n      sub(shl(0xa0, 0x01), 0x01)\n        /* \"https://github.com/OpenZeppelin/openzeppelin-contracts/blob/v5.0.2/contracts/access/Ownable.sol\":3020:3037  _owner = newOwner */\n      dup4\n      dup2\n      and\n      not(sub(shl(0xa0, 0x01), 0x01))\n      dup4\n      and\n      dup2\n      or\n      dup5\n      sstore\n        /* \"https://github.com/OpenZeppelin/openzeppelin-contracts/blob/v5.0.2/contracts/access/Ownable.sol\":3052:3092  OwnershipTransferred(oldOwner, newOwner) */\n      mload(0x40)\n        /* \"https://github.com/OpenZeppelin/openzeppelin-contracts/blob/v5.0.2/contracts/access/Ownable.sol\":3004:3010  _owner */\n      swap2\n      swap1\n      swap3\n      and\n      swap3\n      dup4\n      swap2\n        /* \"https://github.com/OpenZeppelin/openzeppelin-contracts/blob/v5.0.2/contracts/access/Ownable.sol\":3052:3092  OwnershipTransferred(oldOwner, newOwner) */\n      0x8be0079c531659141344cd1fd0a4f28419497f9722a3daafe3b4186f6b6457e0\n      swap2\n        /* \"https://github.com/OpenZeppelin/openzeppelin-contracts/blob/v5.0.2/contracts/access/Ownable.sol\":2985:3001  address oldOwner */\n      swap1\n        /* \"https://github.com/OpenZeppelin/openzeppelin-contracts/blob/v5.0.2/contracts/access/Ownable.sol\":3052:3092  OwnershipTransferred(oldOwner, newOwner) */\n      log3\n        /* \"https://github.com/OpenZeppelin/openzeppelin-contracts/blob/v5.0.2/contracts/access/Ownable.sol\":2975:3099  {... */\n      pop\n        /* \"https://github.com/OpenZeppelin/openzeppelin-contracts/blob/v5.0.2/contracts/access/Ownable.sol\":2912:3099  function _transferOwnership(address newOwner) internal virtual {... */\n      pop\n      jump\t// out\n        /* \"contracts/ZephyrosStaking/ZephyrosStaking.sol\":18828:19539  function _addPenaltyToRewards(uint256 amount) internal {... */\n    tag_461:\n        /* \"contracts/ZephyrosStaking/ZephyrosStaking.sol\":18898:18904  amount */\n      dup1\n        /* \"contracts/ZephyrosStaking/ZephyrosStaking.sol\":18908:18909  0 */\n      0x00\n        /* \"contracts/ZephyrosStaking/ZephyrosStaking.sol\":18898:18909  amount == 0 */\n      sub\n        /* \"contracts/ZephyrosStaking/ZephyrosStaking.sol\":18894:18918  if (amount == 0) return; */\n      tag_745\n      jumpi\n        /* \"contracts/ZephyrosStaking/ZephyrosStaking.sol\":18828:19539  function _addPenaltyToRewards(uint256 amount) internal {... */\n      pop\n      jump\t// out\n        /* \"contracts/ZephyrosStaking/ZephyrosStaking.sol\":18894:18918  if (amount == 0) return; */\n    tag_745:\n        /* \"contracts/ZephyrosStaking/ZephyrosStaking.sol\":18950:18958  endBlock */\n      sload(0x0d)\n        /* \"contracts/ZephyrosStaking/ZephyrosStaking.sol\":18934:18946  block.number */\n      number\n        /* \"contracts/ZephyrosStaking/ZephyrosStaking.sol\":18934:18958  block.number >= endBlock */\n      lt\n      iszero\n        /* \"contracts/ZephyrosStaking/ZephyrosStaking.sol\":18934:18981  block.number >= endBlock || rewardPerBlock == 0 */\n      dup1\n      tag_746\n      jumpi\n      pop\n        /* \"contracts/ZephyrosStaking/ZephyrosStaking.sol\":18962:18976  rewardPerBlock */\n      sload(0x0c)\n        /* \"contracts/ZephyrosStaking/ZephyrosStaking.sol\":18962:18981  rewardPerBlock == 0 */\n      iszero\n        /* \"contracts/ZephyrosStaking/ZephyrosStaking.sol\":18934:18981  block.number >= endBlock || rewardPerBlock == 0 */\n    tag_746:\n        /* \"contracts/ZephyrosStaking/ZephyrosStaking.sol\":18930:19109  if (block.number >= endBlock || rewardPerBlock == 0) {... */\n      iszero\n      tag_747\n      jumpi\n        /* \"contracts/ZephyrosStaking/ZephyrosStaking.sol\":19015:19021  amount */\n      dup1\n        /* \"contracts/ZephyrosStaking/ZephyrosStaking.sol\":18998:19011  queuedRewards */\n      0x0e\n      0x00\n        /* \"contracts/ZephyrosStaking/ZephyrosStaking.sol\":18998:19021  queuedRewards += amount */\n      dup3\n      dup3\n      sload\n      tag_748\n      swap2\n      swap1\n      tag_229\n      jump\t// in\n    tag_748:\n      swap1\n      swap2\n      sstore\n      pop\n      pop\n        /* \"contracts/ZephyrosStaking/ZephyrosStaking.sol\":19041:19076  PenaltyAddedToRewards(amount, true) */\n      0x40\n      dup1\n      mload\n        /* \"#utility.yul\":19598:19623   */\n      dup3\n      dup2\n      mstore\n        /* \"contracts/ZephyrosStaking/ZephyrosStaking.sol\":19071:19075  true */\n      0x01\n        /* \"#utility.yul\":19654:19656   */\n      0x20\n        /* \"#utility.yul\":19639:19657   */\n      dup3\n      add\n        /* \"#utility.yul\":19632:19682   */\n      mstore\n        /* \"contracts/ZephyrosStaking/ZephyrosStaking.sol\":19041:19076  PenaltyAddedToRewards(amount, true) */\n      0xb83b89c23226baf08ab339fff4525164d413e7d9f816d2e208b4f37a8b11d9a5\n      swap2\n        /* \"#utility.yul\":19571:19589   */\n      add\n        /* \"contracts/ZephyrosStaking/ZephyrosStaking.sol\":19041:19076  PenaltyAddedToRewards(amount, true) */\n      mload(0x40)\n      dup1\n      swap2\n      sub\n      swap1\n      log1\n        /* \"contracts/ZephyrosStaking/ZephyrosStaking.sol\":18828:19539  function _addPenaltyToRewards(uint256 amount) internal {... */\n      pop\n      jump\t// out\n        /* \"contracts/ZephyrosStaking/ZephyrosStaking.sol\":18930:19109  if (block.number >= endBlock || rewardPerBlock == 0) {... */\n    tag_747:\n        /* \"contracts/ZephyrosStaking/ZephyrosStaking.sol\":19121:19144  uint256 remainingBlocks */\n      0x00\n        /* \"contracts/ZephyrosStaking/ZephyrosStaking.sol\":19158:19170  block.number */\n      number\n        /* \"contracts/ZephyrosStaking/ZephyrosStaking.sol\":19147:19155  endBlock */\n      sload(0x0d)\n        /* \"contracts/ZephyrosStaking/ZephyrosStaking.sol\":19147:19170  endBlock - block.number */\n      tag_751\n      swap2\n      swap1\n      tag_231\n      jump\t// in\n    tag_751:\n        /* \"contracts/ZephyrosStaking/ZephyrosStaking.sol\":19121:19170  uint256 remainingBlocks = endBlock - block.number */\n      swap1\n      pop\n        /* \"contracts/ZephyrosStaking/ZephyrosStaking.sol\":19185:19200  remainingBlocks */\n      dup1\n        /* \"contracts/ZephyrosStaking/ZephyrosStaking.sol\":19204:19205  0 */\n      0x00\n        /* \"contracts/ZephyrosStaking/ZephyrosStaking.sol\":19185:19205  remainingBlocks == 0 */\n      sub\n        /* \"contracts/ZephyrosStaking/ZephyrosStaking.sol\":19181:19333  if (remainingBlocks == 0) {... */\n      tag_752\n      jumpi\n        /* \"contracts/ZephyrosStaking/ZephyrosStaking.sol\":19239:19245  amount */\n      dup2\n        /* \"contracts/ZephyrosStaking/ZephyrosStaking.sol\":19222:19235  queuedRewards */\n      0x0e\n      0x00\n        /* \"contracts/ZephyrosStaking/ZephyrosStaking.sol\":19222:19245  queuedRewards += amount */\n      dup3\n      dup3\n      sload\n      tag_753\n      swap2\n      swap1\n      tag_229\n      jump\t// in\n    tag_753:\n      swap1\n      swap2\n      sstore\n      pop\n      pop\n        /* \"contracts/ZephyrosStaking/ZephyrosStaking.sol\":19265:19300  PenaltyAddedToRewards(amount, true) */\n      0x40\n      dup1\n      mload\n        /* \"#utility.yul\":19598:19623   */\n      dup4\n      dup2\n      mstore\n        /* \"contracts/ZephyrosStaking/ZephyrosStaking.sol\":19295:19299  true */\n      0x01\n        /* \"#utility.yul\":19654:19656   */\n      0x20\n        /* \"#utility.yul\":19639:19657   */\n      dup3\n      add\n        /* \"#utility.yul\":19632:19682   */\n      mstore\n        /* \"contracts/ZephyrosStaking/ZephyrosStaking.sol\":19265:19300  PenaltyAddedToRewards(amount, true) */\n      0xb83b89c23226baf08ab339fff4525164d413e7d9f816d2e208b4f37a8b11d9a5\n      swap2\n        /* \"#utility.yul\":19571:19589   */\n      add\n        /* \"contracts/ZephyrosStaking/ZephyrosStaking.sol\":19265:19300  PenaltyAddedToRewards(amount, true) */\n      mload(0x40)\n      dup1\n      swap2\n      sub\n      swap1\n      log1\n        /* \"contracts/ZephyrosStaking/ZephyrosStaking.sol\":19315:19322  return; */\n      pop\n        /* \"contracts/ZephyrosStaking/ZephyrosStaking.sol\":18828:19539  function _addPenaltyToRewards(uint256 amount) internal {... */\n      pop\n      jump\t// out\n        /* \"contracts/ZephyrosStaking/ZephyrosStaking.sol\":19181:19333  if (remainingBlocks == 0) {... */\n    tag_752:\n        /* \"contracts/ZephyrosStaking/ZephyrosStaking.sol\":19345:19369  uint256 remainingRewards */\n      0x00\n        /* \"contracts/ZephyrosStaking/ZephyrosStaking.sol\":19390:19404  rewardPerBlock */\n      sload(0x0c)\n        /* \"contracts/ZephyrosStaking/ZephyrosStaking.sol\":19372:19387  remainingBlocks */\n      dup3\n        /* \"contracts/ZephyrosStaking/ZephyrosStaking.sol\":19372:19404  remainingBlocks * rewardPerBlock */\n      tag_755\n      swap2\n      swap1\n      tag_225\n      jump\t// in\n    tag_755:\n        /* \"contracts/ZephyrosStaking/ZephyrosStaking.sol\":19345:19404  uint256 remainingRewards = remainingBlocks * rewardPerBlock */\n      swap1\n      pop\n        /* \"contracts/ZephyrosStaking/ZephyrosStaking.sol\":19462:19477  remainingBlocks */\n      dup2\n        /* \"contracts/ZephyrosStaking/ZephyrosStaking.sol\":19433:19458  remainingRewards + amount */\n      tag_756\n        /* \"contracts/ZephyrosStaking/ZephyrosStaking.sol\":19452:19458  amount */\n      dup5\n        /* \"contracts/ZephyrosStaking/ZephyrosStaking.sol\":19345:19404  uint256 remainingRewards = remainingBlocks * rewardPerBlock */\n      dup4\n        /* \"contracts/ZephyrosStaking/ZephyrosStaking.sol\":19433:19458  remainingRewards + amount */\n      tag_229\n      jump\t// in\n    tag_756:\n        /* \"contracts/ZephyrosStaking/ZephyrosStaking.sol\":19432:19477  (remainingRewards + amount) / remainingBlocks */\n      tag_757\n      swap2\n      swap1\n      tag_227\n      jump\t// in\n    tag_757:\n        /* \"contracts/ZephyrosStaking/ZephyrosStaking.sol\":19415:19429  rewardPerBlock */\n      0x0c\n        /* \"contracts/ZephyrosStaking/ZephyrosStaking.sol\":19415:19477  rewardPerBlock = (remainingRewards + amount) / remainingBlocks */\n      sstore\n        /* \"contracts/ZephyrosStaking/ZephyrosStaking.sol\":19495:19531  PenaltyAddedToRewards(amount, false) */\n      0x40\n      dup1\n      mload\n        /* \"#utility.yul\":19598:19623   */\n      dup5\n      dup2\n      mstore\n        /* \"contracts/ZephyrosStaking/ZephyrosStaking.sol\":19525:19530  false */\n      0x00\n        /* \"#utility.yul\":19654:19656   */\n      0x20\n        /* \"#utility.yul\":19639:19657   */\n      dup3\n      add\n        /* \"#utility.yul\":19632:19682   */\n      mstore\n        /* \"contracts/ZephyrosStaking/ZephyrosStaking.sol\":19495:19531  PenaltyAddedToRewards(amount, false) */\n      0xb83b89c23226baf08ab339fff4525164d413e7d9f816d2e208b4f37a8b11d9a5\n      swap2\n        /* \"#utility.yul\":19571:19589   */\n      add\n        /* \"contracts/ZephyrosStaking/ZephyrosStaking.sol\":19495:19531  PenaltyAddedToRewards(amount, false) */\n      mload(0x40)\n      dup1\n      swap2\n      sub\n      swap1\n      log1\n        /* \"contracts/ZephyrosStaking/ZephyrosStaking.sol\":18883:19539  {... */\n      pop\n      pop\n        /* \"contracts/ZephyrosStaking/ZephyrosStaking.sol\":18828:19539  function _addPenaltyToRewards(uint256 amount) internal {... */\n      pop\n      jump\t// out\n        /* \"https://github.com/OpenZeppelin/openzeppelin-contracts/blob/v5.0.2/contracts/token/ERC20/utils/SafeERC20.sol\":4059:4688  function _callOptionalReturn(IERC20 token, bytes memory data) private {... */\n    tag_663:\n        /* \"https://github.com/OpenZeppelin/openzeppelin-contracts/blob/v5.0.2/contracts/token/ERC20/utils/SafeERC20.sol\":4478:4501  bytes memory returndata */\n      0x00\n        /* \"https://github.com/OpenZeppelin/openzeppelin-contracts/blob/v5.0.2/contracts/token/ERC20/utils/SafeERC20.sol\":4504:4537  address(token).functionCall(data) */\n      tag_760\n      sub(shl(0xa0, 0x01), 0x01)\n        /* \"https://github.com/OpenZeppelin/openzeppelin-contracts/blob/v5.0.2/contracts/token/ERC20/utils/SafeERC20.sol\":4504:4531  address(token).functionCall */\n      dup5\n      and\n        /* \"https://github.com/OpenZeppelin/openzeppelin-contracts/blob/v5.0.2/contracts/token/ERC20/utils/SafeERC20.sol\":4532:4536  data */\n      dup4\n        /* \"https://github.com/OpenZeppelin/openzeppelin-contracts/blob/v5.0.2/contracts/token/ERC20/utils/SafeERC20.sol\":4504:4531  address(token).functionCall */\n      tag_761\n        /* \"https://github.com/OpenZeppelin/openzeppelin-contracts/blob/v5.0.2/contracts/token/ERC20/utils/SafeERC20.sol\":4504:4537  address(token).functionCall(data) */\n      jump\t// in\n    tag_760:\n        /* \"https://github.com/OpenZeppelin/openzeppelin-contracts/blob/v5.0.2/contracts/token/ERC20/utils/SafeERC20.sol\":4478:4537  bytes memory returndata = address(token).functionCall(data) */\n      swap1\n      pop\n        /* \"https://github.com/OpenZeppelin/openzeppelin-contracts/blob/v5.0.2/contracts/token/ERC20/utils/SafeERC20.sol\":4551:4561  returndata */\n      dup1\n        /* \"https://github.com/OpenZeppelin/openzeppelin-contracts/blob/v5.0.2/contracts/token/ERC20/utils/SafeERC20.sol\":4551:4568  returndata.length */\n      mload\n        /* \"https://github.com/OpenZeppelin/openzeppelin-contracts/blob/v5.0.2/contracts/token/ERC20/utils/SafeERC20.sol\":4572:4573  0 */\n      0x00\n        /* \"https://github.com/OpenZeppelin/openzeppelin-contracts/blob/v5.0.2/contracts/token/ERC20/utils/SafeERC20.sol\":4551:4573  returndata.length != 0 */\n      eq\n      iszero\n        /* \"https://github.com/OpenZeppelin/openzeppelin-contracts/blob/v5.0.2/contracts/token/ERC20/utils/SafeERC20.sol\":4551:4608  returndata.length != 0 && !abi.decode(returndata, (bool)) */\n      dup1\n      iszero\n      tag_762\n      jumpi\n      pop\n        /* \"https://github.com/OpenZeppelin/openzeppelin-contracts/blob/v5.0.2/contracts/token/ERC20/utils/SafeERC20.sol\":4589:4599  returndata */\n      dup1\n        /* \"https://github.com/OpenZeppelin/openzeppelin-contracts/blob/v5.0.2/contracts/token/ERC20/utils/SafeERC20.sol\":4578:4608  abi.decode(returndata, (bool)) */\n      dup1\n      0x20\n      add\n      swap1\n      mload\n      dup2\n      add\n      swap1\n      tag_763\n      swap2\n      swap1\n      tag_764\n      jump\t// in\n    tag_763:\n        /* \"https://github.com/OpenZeppelin/openzeppelin-contracts/blob/v5.0.2/contracts/token/ERC20/utils/SafeERC20.sol\":4577:4608  !abi.decode(returndata, (bool)) */\n      iszero\n        /* \"https://github.com/OpenZeppelin/openzeppelin-contracts/blob/v5.0.2/contracts/token/ERC20/utils/SafeERC20.sol\":4551:4608  returndata.length != 0 && !abi.decode(returndata, (bool)) */\n    tag_762:\n        /* \"https://github.com/OpenZeppelin/openzeppelin-contracts/blob/v5.0.2/contracts/token/ERC20/utils/SafeERC20.sol\":4547:4682  if (returndata.length != 0 && !abi.decode(returndata, (bool))) {... */\n      iszero\n      tag_245\n      jumpi\n        /* \"https://github.com/OpenZeppelin/openzeppelin-contracts/blob/v5.0.2/contracts/token/ERC20/utils/SafeERC20.sol\":4631:4671  SafeERC20FailedOperation(address(token)) */\n      mload(0x40)\n      shl(0xe0, 0x5274afe7)\n      dup2\n      mstore\n      sub(shl(0xa0, 0x01), 0x01)\n        /* \"#utility.yul\":5482:5514   */\n      dup5\n      and\n        /* \"https://github.com/OpenZeppelin/openzeppelin-contracts/blob/v5.0.2/contracts/token/ERC20/utils/SafeERC20.sol\":4631:4671  SafeERC20FailedOperation(address(token)) */\n      0x04\n      dup3\n      add\n        /* \"#utility.yul\":5464:5515   */\n      mstore\n        /* \"#utility.yul\":5437:5455   */\n      0x24\n      add\n        /* \"https://github.com/OpenZeppelin/openzeppelin-contracts/blob/v5.0.2/contracts/token/ERC20/utils/SafeERC20.sol\":4631:4671  SafeERC20FailedOperation(address(token)) */\n      tag_236\n        /* \"#utility.yul\":5318:5521   */\n      jump\n        /* \"https://github.com/OpenZeppelin/openzeppelin-contracts/blob/v5.0.2/contracts/utils/Address.sol\":2705:2856  function functionCall(address target, bytes memory data) internal returns (bytes memory) {... */\n    tag_761:\n        /* \"https://github.com/OpenZeppelin/openzeppelin-contracts/blob/v5.0.2/contracts/utils/Address.sol\":2780:2792  bytes memory */\n      0x60\n        /* \"https://github.com/OpenZeppelin/openzeppelin-contracts/blob/v5.0.2/contracts/utils/Address.sol\":2811:2849  functionCallWithValue(target, data, 0) */\n      tag_769\n        /* \"https://github.com/OpenZeppelin/openzeppelin-contracts/blob/v5.0.2/contracts/utils/Address.sol\":2833:2839  target */\n      dup4\n        /* \"https://github.com/OpenZeppelin/openzeppelin-contracts/blob/v5.0.2/contracts/utils/Address.sol\":2841:2845  data */\n      dup4\n        /* \"https://github.com/OpenZeppelin/openzeppelin-contracts/blob/v5.0.2/contracts/utils/Address.sol\":2847:2848  0 */\n      0x00\n        /* \"https://github.com/OpenZeppelin/openzeppelin-contracts/blob/v5.0.2/contracts/utils/Address.sol\":2811:2832  functionCallWithValue */\n      tag_770\n        /* \"https://github.com/OpenZeppelin/openzeppelin-contracts/blob/v5.0.2/contracts/utils/Address.sol\":2811:2849  functionCallWithValue(target, data, 0) */\n      jump\t// in\n    tag_769:\n        /* \"https://github.com/OpenZeppelin/openzeppelin-contracts/blob/v5.0.2/contracts/utils/Address.sol\":2804:2849  return functionCallWithValue(target, data, 0) */\n      swap4\n        /* \"https://github.com/OpenZeppelin/openzeppelin-contracts/blob/v5.0.2/contracts/utils/Address.sol\":2705:2856  function functionCall(address target, bytes memory data) internal returns (bytes memory) {... */\n      swap3\n      pop\n      pop\n      pop\n      jump\t// out\n        /* \"https://github.com/OpenZeppelin/openzeppelin-contracts/blob/v5.0.2/contracts/utils/Address.sol\":3180:3572  function functionCallWithValue(address target, bytes memory data, uint256 value) internal returns (bytes memory) {... */\n    tag_770:\n        /* \"https://github.com/OpenZeppelin/openzeppelin-contracts/blob/v5.0.2/contracts/utils/Address.sol\":3279:3291  bytes memory */\n      0x60\n        /* \"https://github.com/OpenZeppelin/openzeppelin-contracts/blob/v5.0.2/contracts/utils/Address.sol\":3331:3336  value */\n      dup2\n        /* \"https://github.com/OpenZeppelin/openzeppelin-contracts/blob/v5.0.2/contracts/utils/Address.sol\":3307:3328  address(this).balance */\n      selfbalance\n        /* \"https://github.com/OpenZeppelin/openzeppelin-contracts/blob/v5.0.2/contracts/utils/Address.sol\":3307:3336  address(this).balance < value */\n      lt\n        /* \"https://github.com/OpenZeppelin/openzeppelin-contracts/blob/v5.0.2/contracts/utils/Address.sol\":3303:3411  if (address(this).balance < value) {... */\n      iszero\n      tag_772\n      jumpi\n        /* \"https://github.com/OpenZeppelin/openzeppelin-contracts/blob/v5.0.2/contracts/utils/Address.sol\":3359:3400  AddressInsufficientBalance(address(this)) */\n      mload(0x40)\n      shl(0xe0, 0xcd786059)\n      dup2\n      mstore\n        /* \"https://github.com/OpenZeppelin/openzeppelin-contracts/blob/v5.0.2/contracts/utils/Address.sol\":3394:3398  this */\n      address\n        /* \"https://github.com/OpenZeppelin/openzeppelin-contracts/blob/v5.0.2/contracts/utils/Address.sol\":3359:3400  AddressInsufficientBalance(address(this)) */\n      0x04\n      dup3\n      add\n        /* \"#utility.yul\":5464:5515   */\n      mstore\n        /* \"#utility.yul\":5437:5455   */\n      0x24\n      add\n        /* \"https://github.com/OpenZeppelin/openzeppelin-contracts/blob/v5.0.2/contracts/utils/Address.sol\":3359:3400  AddressInsufficientBalance(address(this)) */\n      tag_236\n        /* \"#utility.yul\":5318:5521   */\n      jump\n        /* \"https://github.com/OpenZeppelin/openzeppelin-contracts/blob/v5.0.2/contracts/utils/Address.sol\":3303:3411  if (address(this).balance < value) {... */\n    tag_772:\n        /* \"https://github.com/OpenZeppelin/openzeppelin-contracts/blob/v5.0.2/contracts/utils/Address.sol\":3421:3433  bool success */\n      0x00\n        /* \"https://github.com/OpenZeppelin/openzeppelin-contracts/blob/v5.0.2/contracts/utils/Address.sol\":3435:3458  bytes memory returndata */\n      dup1\n        /* \"https://github.com/OpenZeppelin/openzeppelin-contracts/blob/v5.0.2/contracts/utils/Address.sol\":3462:3468  target */\n      dup6\n      sub(shl(0xa0, 0x01), 0x01)\n        /* \"https://github.com/OpenZeppelin/openzeppelin-contracts/blob/v5.0.2/contracts/utils/Address.sol\":3462:3473  target.call */\n      and\n        /* \"https://github.com/OpenZeppelin/openzeppelin-contracts/blob/v5.0.2/contracts/utils/Address.sol\":3481:3486  value */\n      dup5\n        /* \"https://github.com/OpenZeppelin/openzeppelin-contracts/blob/v5.0.2/contracts/utils/Address.sol\":3488:3492  data */\n      dup7\n        /* \"https://github.com/OpenZeppelin/openzeppelin-contracts/blob/v5.0.2/contracts/utils/Address.sol\":3462:3493  target.call{value: value}(data) */\n      mload(0x40)\n      tag_774\n      swap2\n      swap1\n      tag_775\n      jump\t// in\n    tag_774:\n      0x00\n      mload(0x40)\n      dup1\n      dup4\n      sub\n      dup2\n      dup6\n      dup8\n      gas\n      call\n      swap3\n      pop\n      pop\n      pop\n      returndatasize\n      dup1\n      0x00\n      dup2\n      eq\n      tag_778\n      jumpi\n      mload(0x40)\n      swap2\n      pop\n      and(add(returndatasize, 0x3f), not(0x1f))\n      dup3\n      add\n      0x40\n      mstore\n      returndatasize\n      dup3\n      mstore\n      returndatasize\n      0x00\n      0x20\n      dup5\n      add\n      returndatacopy\n      jump(tag_777)\n    tag_778:\n      0x60\n      swap2\n      pop\n    tag_777:\n      pop\n        /* \"https://github.com/OpenZeppelin/openzeppelin-contracts/blob/v5.0.2/contracts/utils/Address.sol\":3420:3493  (bool success, bytes memory returndata) = target.call{value: value}(data) */\n      swap2\n      pop\n      swap2\n      pop\n        /* \"https://github.com/OpenZeppelin/openzeppelin-contracts/blob/v5.0.2/contracts/utils/Address.sol\":3510:3565  verifyCallResultFromTarget(target, success, returndata) */\n      tag_779\n        /* \"https://github.com/OpenZeppelin/openzeppelin-contracts/blob/v5.0.2/contracts/utils/Address.sol\":3537:3543  target */\n      dup7\n        /* \"https://github.com/OpenZeppelin/openzeppelin-contracts/blob/v5.0.2/contracts/utils/Address.sol\":3545:3552  success */\n      dup4\n        /* \"https://github.com/OpenZeppelin/openzeppelin-contracts/blob/v5.0.2/contracts/utils/Address.sol\":3554:3564  returndata */\n      dup4\n        /* \"https://github.com/OpenZeppelin/openzeppelin-contracts/blob/v5.0.2/contracts/utils/Address.sol\":3510:3536  verifyCallResultFromTarget */\n      tag_780\n        /* \"https://github.com/OpenZeppelin/openzeppelin-contracts/blob/v5.0.2/contracts/utils/Address.sol\":3510:3565  verifyCallResultFromTarget(target, success, returndata) */\n      jump\t// in\n    tag_779:\n        /* \"https://github.com/OpenZeppelin/openzeppelin-contracts/blob/v5.0.2/contracts/utils/Address.sol\":3503:3565  return verifyCallResultFromTarget(target, success, returndata) */\n      swap7\n        /* \"https://github.com/OpenZeppelin/openzeppelin-contracts/blob/v5.0.2/contracts/utils/Address.sol\":3180:3572  function functionCallWithValue(address target, bytes memory data, uint256 value) internal returns (bytes memory) {... */\n      swap6\n      pop\n      pop\n      pop\n      pop\n      pop\n      pop\n      jump\t// out\n        /* \"https://github.com/OpenZeppelin/openzeppelin-contracts/blob/v5.0.2/contracts/utils/Address.sol\":4625:5207  function verifyCallResultFromTarget(... */\n    tag_780:\n        /* \"https://github.com/OpenZeppelin/openzeppelin-contracts/blob/v5.0.2/contracts/utils/Address.sol\":4769:4781  bytes memory */\n      0x60\n        /* \"https://github.com/OpenZeppelin/openzeppelin-contracts/blob/v5.0.2/contracts/utils/Address.sol\":4798:4805  success */\n      dup3\n        /* \"https://github.com/OpenZeppelin/openzeppelin-contracts/blob/v5.0.2/contracts/utils/Address.sol\":4793:5201  if (!success) {... */\n      tag_782\n      jumpi\n        /* \"https://github.com/OpenZeppelin/openzeppelin-contracts/blob/v5.0.2/contracts/utils/Address.sol\":4821:4840  _revert(returndata) */\n      tag_783\n        /* \"https://github.com/OpenZeppelin/openzeppelin-contracts/blob/v5.0.2/contracts/utils/Address.sol\":4829:4839  returndata */\n      dup3\n        /* \"https://github.com/OpenZeppelin/openzeppelin-contracts/blob/v5.0.2/contracts/utils/Address.sol\":4821:4828  _revert */\n      tag_784\n        /* \"https://github.com/OpenZeppelin/openzeppelin-contracts/blob/v5.0.2/contracts/utils/Address.sol\":4821:4840  _revert(returndata) */\n      jump\t// in\n    tag_783:\n        /* \"https://github.com/OpenZeppelin/openzeppelin-contracts/blob/v5.0.2/contracts/utils/Address.sol\":4793:5201  if (!success) {... */\n      jump(tag_769)\n    tag_782:\n        /* \"https://github.com/OpenZeppelin/openzeppelin-contracts/blob/v5.0.2/contracts/utils/Address.sol\":5045:5062  returndata.length */\n      dup2\n      mload\n        /* \"https://github.com/OpenZeppelin/openzeppelin-contracts/blob/v5.0.2/contracts/utils/Address.sol\":5045:5067  returndata.length == 0 */\n      iszero\n        /* \"https://github.com/OpenZeppelin/openzeppelin-contracts/blob/v5.0.2/contracts/utils/Address.sol\":5045:5094  returndata.length == 0 && target.code.length == 0 */\n      dup1\n      iszero\n      tag_786\n      jumpi\n      pop\n      sub(shl(0xa0, 0x01), 0x01)\n        /* \"https://github.com/OpenZeppelin/openzeppelin-contracts/blob/v5.0.2/contracts/utils/Address.sol\":5071:5089  target.code.length */\n      dup5\n      and\n      extcodesize\n        /* \"https://github.com/OpenZeppelin/openzeppelin-contracts/blob/v5.0.2/contracts/utils/Address.sol\":5071:5094  target.code.length == 0 */\n      iszero\n        /* \"https://github.com/OpenZeppelin/openzeppelin-contracts/blob/v5.0.2/contracts/utils/Address.sol\":5045:5094  returndata.length == 0 && target.code.length == 0 */\n    tag_786:\n        /* \"https://github.com/OpenZeppelin/openzeppelin-contracts/blob/v5.0.2/contracts/utils/Address.sol\":5041:5160  if (returndata.length == 0 && target.code.length == 0) {... */\n      iszero\n      tag_787\n      jumpi\n        /* \"https://github.com/OpenZeppelin/openzeppelin-contracts/blob/v5.0.2/contracts/utils/Address.sol\":5121:5145  AddressEmptyCode(target) */\n      mload(0x40)\n      shl(0xe0, 0x9996b315)\n      dup2\n      mstore\n      sub(shl(0xa0, 0x01), 0x01)\n        /* \"#utility.yul\":5482:5514   */\n      dup6\n      and\n        /* \"https://github.com/OpenZeppelin/openzeppelin-contracts/blob/v5.0.2/contracts/utils/Address.sol\":5121:5145  AddressEmptyCode(target) */\n      0x04\n      dup3\n      add\n        /* \"#utility.yul\":5464:5515   */\n      mstore\n        /* \"#utility.yul\":5437:5455   */\n      0x24\n      add\n        /* \"https://github.com/OpenZeppelin/openzeppelin-contracts/blob/v5.0.2/contracts/utils/Address.sol\":5121:5145  AddressEmptyCode(target) */\n      tag_236\n        /* \"#utility.yul\":5318:5521   */\n      jump\n        /* \"https://github.com/OpenZeppelin/openzeppelin-contracts/blob/v5.0.2/contracts/utils/Address.sol\":5041:5160  if (returndata.length == 0 && target.code.length == 0) {... */\n    tag_787:\n      pop\n        /* \"https://github.com/OpenZeppelin/openzeppelin-contracts/blob/v5.0.2/contracts/utils/Address.sol\":5180:5190  returndata */\n      dup1\n        /* \"https://github.com/OpenZeppelin/openzeppelin-contracts/blob/v5.0.2/contracts/utils/Address.sol\":5173:5190  return returndata */\n      jump(tag_769)\n        /* \"https://github.com/OpenZeppelin/openzeppelin-contracts/blob/v5.0.2/contracts/utils/Address.sol\":5743:6259  function _revert(bytes memory returndata) private pure {... */\n    tag_784:\n        /* \"https://github.com/OpenZeppelin/openzeppelin-contracts/blob/v5.0.2/contracts/utils/Address.sol\":5874:5891  returndata.length */\n      dup1\n      mload\n        /* \"https://github.com/OpenZeppelin/openzeppelin-contracts/blob/v5.0.2/contracts/utils/Address.sol\":5874:5895  returndata.length > 0 */\n      iszero\n        /* \"https://github.com/OpenZeppelin/openzeppelin-contracts/blob/v5.0.2/contracts/utils/Address.sol\":5870:6253  if (returndata.length > 0) {... */\n      tag_790\n      jumpi\n        /* \"https://github.com/OpenZeppelin/openzeppelin-contracts/blob/v5.0.2/contracts/utils/Address.sol\":6102:6112  returndata */\n      dup1\n        /* \"https://github.com/OpenZeppelin/openzeppelin-contracts/blob/v5.0.2/contracts/utils/Address.sol\":6096:6113  mload(returndata) */\n      mload\n        /* \"https://github.com/OpenZeppelin/openzeppelin-contracts/blob/v5.0.2/contracts/utils/Address.sol\":6158:6173  returndata_size */\n      dup1\n        /* \"https://github.com/OpenZeppelin/openzeppelin-contracts/blob/v5.0.2/contracts/utils/Address.sol\":6145:6155  returndata */\n      dup3\n        /* \"https://github.com/OpenZeppelin/openzeppelin-contracts/blob/v5.0.2/contracts/utils/Address.sol\":6141:6143  32 */\n      0x20\n        /* \"https://github.com/OpenZeppelin/openzeppelin-contracts/blob/v5.0.2/contracts/utils/Address.sol\":6137:6156  add(32, returndata) */\n      add\n        /* \"https://github.com/OpenZeppelin/openzeppelin-contracts/blob/v5.0.2/contracts/utils/Address.sol\":6130:6174  revert(add(32, returndata), returndata_size) */\n      revert\n        /* \"https://github.com/OpenZeppelin/openzeppelin-contracts/blob/v5.0.2/contracts/utils/Address.sol\":5870:6253  if (returndata.length > 0) {... */\n    tag_790:\n        /* \"https://github.com/OpenZeppelin/openzeppelin-contracts/blob/v5.0.2/contracts/utils/Address.sol\":6225:6242  FailedInnerCall() */\n      mload(0x40)\n      shl(0xe1, 0x0a12f521)\n      dup2\n      mstore\n      0x04\n      add\n      mload(0x40)\n      dup1\n      swap2\n      sub\n      swap1\n      revert\n    tag_591:\n      pop\n      dup1\n      sload\n      0x00\n      dup3\n      sstore\n      0x02\n      mul\n      swap1\n      0x00\n      mstore\n      keccak256(0x00, 0x20)\n      swap1\n      dup2\n      add\n      swap1\n      tag_360\n      swap2\n      swap1\n    tag_795:\n      dup1\n      dup3\n      gt\n      iszero\n      tag_796\n      jumpi\n      dup1\n      sload\n      not(sub(shl(0xa0, 0x01), 0x01))\n      and\n      dup2\n      sstore\n      0x00\n      0x01\n      dup3\n      add\n      sstore\n      0x02\n      add\n      jump(tag_795)\n    tag_796:\n      pop\n      swap1\n      jump\t// out\n        /* \"#utility.yul\":14:187   */\n    tag_797:\n        /* \"#utility.yul\":82:102   */\n      dup1\n      calldataload\n      sub(shl(0xa0, 0x01), 0x01)\n        /* \"#utility.yul\":131:162   */\n      dup2\n      and\n        /* \"#utility.yul\":121:163   */\n      dup2\n      eq\n        /* \"#utility.yul\":111:181   */\n      tag_803\n      jumpi\n        /* \"#utility.yul\":177:178   */\n      0x00\n        /* \"#utility.yul\":174:175   */\n      dup1\n        /* \"#utility.yul\":167:179   */\n      revert\n        /* \"#utility.yul\":111:181   */\n    tag_803:\n        /* \"#utility.yul\":14:187   */\n      swap2\n      swap1\n      pop\n      jump\t// out\n        /* \"#utility.yul\":192:378   */\n    tag_58:\n        /* \"#utility.yul\":251:257   */\n      0x00\n        /* \"#utility.yul\":304:306   */\n      0x20\n        /* \"#utility.yul\":292:301   */\n      dup3\n        /* \"#utility.yul\":283:290   */\n      dup5\n        /* \"#utility.yul\":279:302   */\n      sub\n        /* \"#utility.yul\":275:307   */\n      slt\n        /* \"#utility.yul\":272:324   */\n      iszero\n      tag_805\n      jumpi\n        /* \"#utility.yul\":320:321   */\n      0x00\n        /* \"#utility.yul\":317:318   */\n      dup1\n        /* \"#utility.yul\":310:322   */\n      revert\n        /* \"#utility.yul\":272:324   */\n    tag_805:\n        /* \"#utility.yul\":343:372   */\n      tag_769\n        /* \"#utility.yul\":362:371   */\n      dup3\n        /* \"#utility.yul\":343:372   */\n      tag_797\n      jump\t// in\n        /* \"#utility.yul\":565:893   */\n    tag_70:\n        /* \"#utility.yul\":642:648   */\n      0x00\n        /* \"#utility.yul\":650:656   */\n      dup1\n        /* \"#utility.yul\":658:664   */\n      0x00\n        /* \"#utility.yul\":711:713   */\n      0x60\n        /* \"#utility.yul\":699:708   */\n      dup5\n        /* \"#utility.yul\":690:697   */\n      dup7\n        /* \"#utility.yul\":686:709   */\n      sub\n        /* \"#utility.yul\":682:714   */\n      slt\n        /* \"#utility.yul\":679:731   */\n      iszero\n      tag_809\n      jumpi\n        /* \"#utility.yul\":727:728   */\n      0x00\n        /* \"#utility.yul\":724:725   */\n      dup1\n        /* \"#utility.yul\":717:729   */\n      revert\n        /* \"#utility.yul\":679:731   */\n    tag_809:\n        /* \"#utility.yul\":750:779   */\n      tag_810\n        /* \"#utility.yul\":769:778   */\n      dup5\n        /* \"#utility.yul\":750:779   */\n      tag_797\n      jump\t// in\n    tag_810:\n        /* \"#utility.yul\":740:779   */\n      swap3\n      pop\n        /* \"#utility.yul\":798:836   */\n      tag_811\n        /* \"#utility.yul\":832:834   */\n      0x20\n        /* \"#utility.yul\":821:830   */\n      dup6\n        /* \"#utility.yul\":817:835   */\n      add\n        /* \"#utility.yul\":798:836   */\n      tag_797\n      jump\t// in\n    tag_811:\n        /* \"#utility.yul\":788:836   */\n      swap2\n      pop\n        /* \"#utility.yul\":883:885   */\n      0x40\n        /* \"#utility.yul\":872:881   */\n      dup5\n        /* \"#utility.yul\":868:886   */\n      add\n        /* \"#utility.yul\":855:887   */\n      calldataload\n        /* \"#utility.yul\":845:887   */\n      swap1\n      pop\n        /* \"#utility.yul\":565:893   */\n      swap3\n      pop\n      swap3\n      pop\n      swap3\n      jump\t// out\n        /* \"#utility.yul\":898:1245   */\n    tag_798:\n        /* \"#utility.yul\":949:957   */\n      0x00\n        /* \"#utility.yul\":959:965   */\n      dup1\n        /* \"#utility.yul\":1013:1016   */\n      dup4\n        /* \"#utility.yul\":1006:1010   */\n      0x1f\n        /* \"#utility.yul\":998:1004   */\n      dup5\n        /* \"#utility.yul\":994:1011   */\n      add\n        /* \"#utility.yul\":990:1017   */\n      slt\n        /* \"#utility.yul\":980:1035   */\n      tag_813\n      jumpi\n        /* \"#utility.yul\":1031:1032   */\n      0x00\n        /* \"#utility.yul\":1028:1029   */\n      dup1\n        /* \"#utility.yul\":1021:1033   */\n      revert\n        /* \"#utility.yul\":980:1035   */\n    tag_813:\n      pop\n        /* \"#utility.yul\":1054:1074   */\n      dup2\n      calldataload\n        /* \"#utility.yul\":1097:1115   */\n      0xffffffffffffffff\n        /* \"#utility.yul\":1086:1116   */\n      dup2\n      gt\n        /* \"#utility.yul\":1083:1133   */\n      iszero\n      tag_814\n      jumpi\n        /* \"#utility.yul\":1129:1130   */\n      0x00\n        /* \"#utility.yul\":1126:1127   */\n      dup1\n        /* \"#utility.yul\":1119:1131   */\n      revert\n        /* \"#utility.yul\":1083:1133   */\n    tag_814:\n        /* \"#utility.yul\":1166:1170   */\n      0x20\n        /* \"#utility.yul\":1158:1164   */\n      dup4\n        /* \"#utility.yul\":1154:1171   */\n      add\n        /* \"#utility.yul\":1142:1171   */\n      swap2\n      pop\n        /* \"#utility.yul\":1218:1221   */\n      dup4\n        /* \"#utility.yul\":1211:1215   */\n      0x20\n        /* \"#utility.yul\":1202:1208   */\n      dup3\n        /* \"#utility.yul\":1194:1200   */\n      dup6\n        /* \"#utility.yul\":1190:1209   */\n      add\n        /* \"#utility.yul\":1186:1216   */\n      add\n        /* \"#utility.yul\":1183:1222   */\n      gt\n        /* \"#utility.yul\":1180:1239   */\n      iszero\n      tag_815\n      jumpi\n        /* \"#utility.yul\":1235:1236   */\n      0x00\n        /* \"#utility.yul\":1232:1233   */\n      dup1\n        /* \"#utility.yul\":1225:1237   */\n      revert\n        /* \"#utility.yul\":1180:1239   */\n    tag_815:\n        /* \"#utility.yul\":898:1245   */\n      swap3\n      pop\n      swap3\n      swap1\n      pop\n      jump\t// out\n        /* \"#utility.yul\":1250:1876   */\n    tag_74:\n        /* \"#utility.yul\":1347:1353   */\n      0x00\n        /* \"#utility.yul\":1355:1361   */\n      dup1\n        /* \"#utility.yul\":1363:1369   */\n      0x00\n        /* \"#utility.yul\":1371:1377   */\n      dup1\n        /* \"#utility.yul\":1379:1385   */\n      0x00\n        /* \"#utility.yul\":1432:1435   */\n      0x80\n        /* \"#utility.yul\":1420:1429   */\n      dup7\n        /* \"#utility.yul\":1411:1418   */\n      dup9\n        /* \"#utility.yul\":1407:1430   */\n      sub\n        /* \"#utility.yul\":1403:1436   */\n      slt\n        /* \"#utility.yul\":1400:1453   */\n      iszero\n      tag_817\n      jumpi\n        /* \"#utility.yul\":1449:1450   */\n      0x00\n        /* \"#utility.yul\":1446:1447   */\n      dup1\n        /* \"#utility.yul\":1439:1451   */\n      revert\n        /* \"#utility.yul\":1400:1453   */\n    tag_817:\n        /* \"#utility.yul\":1472:1501   */\n      tag_818\n        /* \"#utility.yul\":1491:1500   */\n      dup7\n        /* \"#utility.yul\":1472:1501   */\n      tag_797\n      jump\t// in\n    tag_818:\n        /* \"#utility.yul\":1462:1501   */\n      swap5\n      pop\n        /* \"#utility.yul\":1520:1558   */\n      tag_819\n        /* \"#utility.yul\":1554:1556   */\n      0x20\n        /* \"#utility.yul\":1543:1552   */\n      dup8\n        /* \"#utility.yul\":1539:1557   */\n      add\n        /* \"#utility.yul\":1520:1558   */\n      tag_797\n      jump\t// in\n    tag_819:\n        /* \"#utility.yul\":1510:1558   */\n      swap4\n      pop\n        /* \"#utility.yul\":1605:1607   */\n      0x40\n        /* \"#utility.yul\":1594:1603   */\n      dup7\n        /* \"#utility.yul\":1590:1608   */\n      add\n        /* \"#utility.yul\":1577:1609   */\n      calldataload\n        /* \"#utility.yul\":1567:1609   */\n      swap3\n      pop\n        /* \"#utility.yul\":1660:1662   */\n      0x60\n        /* \"#utility.yul\":1649:1658   */\n      dup7\n        /* \"#utility.yul\":1645:1663   */\n      add\n        /* \"#utility.yul\":1632:1664   */\n      calldataload\n        /* \"#utility.yul\":1687:1705   */\n      0xffffffffffffffff\n        /* \"#utility.yul\":1679:1685   */\n      dup2\n        /* \"#utility.yul\":1676:1706   */\n      gt\n        /* \"#utility.yul\":1673:1723   */\n      iszero\n      tag_820\n      jumpi\n        /* \"#utility.yul\":1719:1720   */\n      0x00\n        /* \"#utility.yul\":1716:1717   */\n      dup1\n        /* \"#utility.yul\":1709:1721   */\n      revert\n        /* \"#utility.yul\":1673:1723   */\n    tag_820:\n        /* \"#utility.yul\":1758:1816   */\n      tag_821\n        /* \"#utility.yul\":1808:1815   */\n      dup9\n        /* \"#utility.yul\":1799:1805   */\n      dup3\n        /* \"#utility.yul\":1788:1797   */\n      dup10\n        /* \"#utility.yul\":1784:1806   */\n      add\n        /* \"#utility.yul\":1758:1816   */\n      tag_798\n      jump\t// in\n    tag_821:\n        /* \"#utility.yul\":1250:1876   */\n      swap7\n      swap10\n      swap6\n      swap9\n      pop\n      swap4\n      swap7\n      pop\n        /* \"#utility.yul\":1835:1843   */\n      swap3\n      swap5\n        /* \"#utility.yul\":1732:1816   */\n      swap4\n        /* \"#utility.yul\":1250:1876   */\n      swap3\n      pop\n      pop\n      pop\n      jump\t// out\n        /* \"#utility.yul\":2280:2528   */\n    tag_88:\n        /* \"#utility.yul\":2348:2354   */\n      0x00\n        /* \"#utility.yul\":2356:2362   */\n      dup1\n        /* \"#utility.yul\":2409:2411   */\n      0x40\n        /* \"#utility.yul\":2397:2406   */\n      dup4\n        /* \"#utility.yul\":2388:2395   */\n      dup6\n        /* \"#utility.yul\":2384:2407   */\n      sub\n        /* \"#utility.yul\":2380:2412   */\n      slt\n        /* \"#utility.yul\":2377:2429   */\n      iszero\n      tag_825\n      jumpi\n        /* \"#utility.yul\":2425:2426   */\n      0x00\n        /* \"#utility.yul\":2422:2423   */\n      dup1\n        /* \"#utility.yul\":2415:2427   */\n      revert\n        /* \"#utility.yul\":2377:2429   */\n    tag_825:\n      pop\n      pop\n        /* \"#utility.yul\":2448:2471   */\n      dup1\n      calldataload\n      swap3\n        /* \"#utility.yul\":2518:2520   */\n      0x20\n        /* \"#utility.yul\":2503:2521   */\n      swap1\n      swap2\n      add\n        /* \"#utility.yul\":2490:2522   */\n      calldataload\n      swap2\n      pop\n        /* \"#utility.yul\":2280:2528   */\n      jump\t// out\n        /* \"#utility.yul\":2533:2787   */\n    tag_98:\n        /* \"#utility.yul\":2601:2607   */\n      0x00\n        /* \"#utility.yul\":2609:2615   */\n      dup1\n        /* \"#utility.yul\":2662:2664   */\n      0x40\n        /* \"#utility.yul\":2650:2659   */\n      dup4\n        /* \"#utility.yul\":2641:2648   */\n      dup6\n        /* \"#utility.yul\":2637:2660   */\n      sub\n        /* \"#utility.yul\":2633:2665   */\n      slt\n        /* \"#utility.yul\":2630:2682   */\n      iszero\n      tag_827\n      jumpi\n        /* \"#utility.yul\":2678:2679   */\n      0x00\n        /* \"#utility.yul\":2675:2676   */\n      dup1\n        /* \"#utility.yul\":2668:2680   */\n      revert\n        /* \"#utility.yul\":2630:2682   */\n    tag_827:\n        /* \"#utility.yul\":2701:2730   */\n      tag_828\n        /* \"#utility.yul\":2720:2729   */\n      dup4\n        /* \"#utility.yul\":2701:2730   */\n      tag_797\n      jump\t// in\n    tag_828:\n        /* \"#utility.yul\":2691:2730   */\n      swap5\n        /* \"#utility.yul\":2777:2779   */\n      0x20\n        /* \"#utility.yul\":2762:2780   */\n      swap4\n      swap1\n      swap4\n      add\n        /* \"#utility.yul\":2749:2781   */\n      calldataload\n      swap4\n      pop\n      pop\n      pop\n        /* \"#utility.yul\":2533:2787   */\n      jump\t// out\n        /* \"#utility.yul\":2792:2910   */\n    tag_799:\n        /* \"#utility.yul\":2878:2883   */\n      dup1\n        /* \"#utility.yul\":2871:2884   */\n      iszero\n        /* \"#utility.yul\":2864:2885   */\n      iszero\n        /* \"#utility.yul\":2857:2862   */\n      dup2\n        /* \"#utility.yul\":2854:2886   */\n      eq\n        /* \"#utility.yul\":2844:2904   */\n      tag_360\n      jumpi\n        /* \"#utility.yul\":2900:2901   */\n      0x00\n        /* \"#utility.yul\":2897:2898   */\n      dup1\n        /* \"#utility.yul\":2890:2902   */\n      revert\n        /* \"#utility.yul\":2915:3454   */\n    tag_103:\n        /* \"#utility.yul\":2992:2998   */\n      0x00\n        /* \"#utility.yul\":3000:3006   */\n      dup1\n        /* \"#utility.yul\":3008:3014   */\n      0x00\n        /* \"#utility.yul\":3061:3063   */\n      0x40\n        /* \"#utility.yul\":3049:3058   */\n      dup5\n        /* \"#utility.yul\":3040:3047   */\n      dup7\n        /* \"#utility.yul\":3036:3059   */\n      sub\n        /* \"#utility.yul\":3032:3064   */\n      slt\n        /* \"#utility.yul\":3029:3081   */\n      iszero\n      tag_832\n      jumpi\n        /* \"#utility.yul\":3077:3078   */\n      0x00\n        /* \"#utility.yul\":3074:3075   */\n      dup1\n        /* \"#utility.yul\":3067:3079   */\n      revert\n        /* \"#utility.yul\":3029:3081   */\n    tag_832:\n        /* \"#utility.yul\":3117:3126   */\n      dup4\n        /* \"#utility.yul\":3104:3127   */\n      calldataload\n        /* \"#utility.yul\":3150:3168   */\n      0xffffffffffffffff\n        /* \"#utility.yul\":3142:3148   */\n      dup2\n        /* \"#utility.yul\":3139:3169   */\n      gt\n        /* \"#utility.yul\":3136:3186   */\n      iszero\n      tag_833\n      jumpi\n        /* \"#utility.yul\":3182:3183   */\n      0x00\n        /* \"#utility.yul\":3179:3180   */\n      dup1\n        /* \"#utility.yul\":3172:3184   */\n      revert\n        /* \"#utility.yul\":3136:3186   */\n    tag_833:\n        /* \"#utility.yul\":3221:3279   */\n      tag_834\n        /* \"#utility.yul\":3271:3278   */\n      dup7\n        /* \"#utility.yul\":3262:3268   */\n      dup3\n        /* \"#utility.yul\":3251:3260   */\n      dup8\n        /* \"#utility.yul\":3247:3269   */\n      add\n        /* \"#utility.yul\":3221:3279   */\n      tag_798\n      jump\t// in\n    tag_834:\n        /* \"#utility.yul\":3298:3306   */\n      swap1\n      swap5\n      pop\n        /* \"#utility.yul\":3195:3279   */\n      swap3\n      pop\n      pop\n        /* \"#utility.yul\":3383:3385   */\n      0x20\n        /* \"#utility.yul\":3368:3386   */\n      dup5\n      add\n        /* \"#utility.yul\":3355:3387   */\n      calldataload\n        /* \"#utility.yul\":3396:3424   */\n      tag_835\n        /* \"#utility.yul\":3355:3387   */\n      dup2\n        /* \"#utility.yul\":3396:3424   */\n      tag_799\n      jump\t// in\n    tag_835:\n        /* \"#utility.yul\":3443:3448   */\n      dup1\n        /* \"#utility.yul\":3433:3448   */\n      swap2\n      pop\n      pop\n        /* \"#utility.yul\":2915:3454   */\n      swap3\n      pop\n      swap3\n      pop\n      swap3\n      jump\t// out\n        /* \"#utility.yul\":3459:3586   */\n    tag_401:\n        /* \"#utility.yul\":3520:3530   */\n      0x4e487b71\n        /* \"#utility.yul\":3515:3518   */\n      0xe0\n        /* \"#utility.yul\":3511:3531   */\n      shl\n        /* \"#utility.yul\":3508:3509   */\n      0x00\n        /* \"#utility.yul\":3501:3532   */\n      mstore\n        /* \"#utility.yul\":3551:3555   */\n      0x21\n        /* \"#utility.yul\":3548:3549   */\n      0x04\n        /* \"#utility.yul\":3541:3556   */\n      mstore\n        /* \"#utility.yul\":3575:3579   */\n      0x24\n        /* \"#utility.yul\":3572:3573   */\n      0x00\n        /* \"#utility.yul\":3565:3580   */\n      revert\n        /* \"#utility.yul\":3591:4018   */\n    tag_109:\n        /* \"#utility.yul\":3800:3814   */\n      dup3\n      iszero\n        /* \"#utility.yul\":3793:3815   */\n      iszero\n        /* \"#utility.yul\":3775:3816   */\n      dup2\n      mstore\n        /* \"#utility.yul\":3763:3765   */\n      0x40\n        /* \"#utility.yul\":3748:3766   */\n      dup2\n      add\n        /* \"#utility.yul\":3846:3847   */\n      0x02\n        /* \"#utility.yul\":3835:3848   */\n      dup4\n      lt\n        /* \"#utility.yul\":3825:3969   */\n      tag_838\n      jumpi\n        /* \"#utility.yul\":3891:3901   */\n      0x4e487b71\n        /* \"#utility.yul\":3886:3889   */\n      0xe0\n        /* \"#utility.yul\":3882:3902   */\n      shl\n        /* \"#utility.yul\":3879:3880   */\n      0x00\n        /* \"#utility.yul\":3872:3903   */\n      mstore\n        /* \"#utility.yul\":3926:3930   */\n      0x21\n        /* \"#utility.yul\":3923:3924   */\n      0x04\n        /* \"#utility.yul\":3916:3931   */\n      mstore\n        /* \"#utility.yul\":3954:3958   */\n      0x24\n        /* \"#utility.yul\":3951:3952   */\n      0x00\n        /* \"#utility.yul\":3944:3959   */\n      revert\n        /* \"#utility.yul\":3825:3969   */\n    tag_838:\n        /* \"#utility.yul\":4005:4011   */\n      dup3\n        /* \"#utility.yul\":4000:4002   */\n      0x20\n        /* \"#utility.yul\":3989:3998   */\n      dup4\n        /* \"#utility.yul\":3985:4003   */\n      add\n        /* \"#utility.yul\":3978:4012   */\n      mstore\n        /* \"#utility.yul\":3591:4018   */\n      swap4\n      swap3\n      pop\n      pop\n      pop\n      jump\t// out\n        /* \"#utility.yul\":4023:4203   */\n    tag_117:\n        /* \"#utility.yul\":4082:4088   */\n      0x00\n        /* \"#utility.yul\":4135:4137   */\n      0x20\n        /* \"#utility.yul\":4123:4132   */\n      dup3\n        /* \"#utility.yul\":4114:4121   */\n      dup5\n        /* \"#utility.yul\":4110:4133   */\n      sub\n        /* \"#utility.yul\":4106:4138   */\n      slt\n        /* \"#utility.yul\":4103:4155   */\n      iszero\n      tag_840\n      jumpi\n        /* \"#utility.yul\":4151:4152   */\n      0x00\n        /* \"#utility.yul\":4148:4149   */\n      dup1\n        /* \"#utility.yul\":4141:4153   */\n      revert\n        /* \"#utility.yul\":4103:4155   */\n    tag_840:\n      pop\n        /* \"#utility.yul\":4174:4197   */\n      calldataload\n      swap2\n        /* \"#utility.yul\":4023:4203   */\n      swap1\n      pop\n      jump\t// out\n        /* \"#utility.yul\":4208:4691   */\n    tag_133:\n        /* \"#utility.yul\":4300:4306   */\n      0x00\n        /* \"#utility.yul\":4308:4314   */\n      dup1\n        /* \"#utility.yul\":4316:4322   */\n      0x00\n        /* \"#utility.yul\":4369:4371   */\n      0x60\n        /* \"#utility.yul\":4357:4366   */\n      dup5\n        /* \"#utility.yul\":4348:4355   */\n      dup7\n        /* \"#utility.yul\":4344:4367   */\n      sub\n        /* \"#utility.yul\":4340:4372   */\n      slt\n        /* \"#utility.yul\":4337:4389   */\n      iszero\n      tag_842\n      jumpi\n        /* \"#utility.yul\":4385:4386   */\n      0x00\n        /* \"#utility.yul\":4382:4383   */\n      dup1\n        /* \"#utility.yul\":4375:4387   */\n      revert\n        /* \"#utility.yul\":4337:4389   */\n    tag_842:\n        /* \"#utility.yul\":4408:4437   */\n      tag_843\n        /* \"#utility.yul\":4427:4436   */\n      dup5\n        /* \"#utility.yul\":4408:4437   */\n      tag_797\n      jump\t// in\n    tag_843:\n        /* \"#utility.yul\":4398:4437   */\n      swap3\n      pop\n        /* \"#utility.yul\":4487:4489   */\n      0x20\n        /* \"#utility.yul\":4476:4485   */\n      dup5\n        /* \"#utility.yul\":4472:4490   */\n      add\n        /* \"#utility.yul\":4459:4491   */\n      calldataload\n        /* \"#utility.yul\":4500:4528   */\n      tag_844\n        /* \"#utility.yul\":4522:4527   */\n      dup2\n        /* \"#utility.yul\":4500:4528   */\n      tag_799\n      jump\t// in\n    tag_844:\n        /* \"#utility.yul\":4547:4552   */\n      swap2\n      pop\n        /* \"#utility.yul\":4604:4606   */\n      0x40\n        /* \"#utility.yul\":4589:4607   */\n      dup5\n      add\n        /* \"#utility.yul\":4576:4608   */\n      calldataload\n        /* \"#utility.yul\":4639:4640   */\n      0x02\n        /* \"#utility.yul\":4627:4641   */\n      dup2\n      lt\n        /* \"#utility.yul\":4617:4659   */\n      tag_835\n      jumpi\n        /* \"#utility.yul\":4655:4656   */\n      0x00\n        /* \"#utility.yul\":4652:4653   */\n      dup1\n        /* \"#utility.yul\":4645:4657   */\n      revert\n        /* \"#utility.yul\":5711:6529   */\n    tag_191:\n        /* \"#utility.yul\":5812:5818   */\n      0x00\n        /* \"#utility.yul\":5820:5826   */\n      dup1\n        /* \"#utility.yul\":5828:5834   */\n      0x00\n        /* \"#utility.yul\":5836:5842   */\n      dup1\n        /* \"#utility.yul\":5889:5891   */\n      0x60\n        /* \"#utility.yul\":5877:5886   */\n      dup6\n        /* \"#utility.yul\":5868:5875   */\n      dup8\n        /* \"#utility.yul\":5864:5887   */\n      sub\n        /* \"#utility.yul\":5860:5892   */\n      slt\n        /* \"#utility.yul\":5857:5909   */\n      iszero\n      tag_851\n      jumpi\n        /* \"#utility.yul\":5905:5906   */\n      0x00\n        /* \"#utility.yul\":5902:5903   */\n      dup1\n        /* \"#utility.yul\":5895:5907   */\n      revert\n        /* \"#utility.yul\":5857:5909   */\n    tag_851:\n        /* \"#utility.yul\":5928:5957   */\n      tag_852\n        /* \"#utility.yul\":5947:5956   */\n      dup6\n        /* \"#utility.yul\":5928:5957   */\n      tag_797\n      jump\t// in\n    tag_852:\n        /* \"#utility.yul\":5918:5957   */\n      swap4\n      pop\n        /* \"#utility.yul\":6008:6010   */\n      0x20\n        /* \"#utility.yul\":5997:6006   */\n      dup6\n        /* \"#utility.yul\":5993:6011   */\n      add\n        /* \"#utility.yul\":5980:6012   */\n      calldataload\n        /* \"#utility.yul\":6031:6049   */\n      0xffffffffffffffff\n        /* \"#utility.yul\":6072:6074   */\n      dup1\n        /* \"#utility.yul\":6064:6070   */\n      dup3\n        /* \"#utility.yul\":6061:6075   */\n      gt\n        /* \"#utility.yul\":6058:6092   */\n      iszero\n      tag_853\n      jumpi\n        /* \"#utility.yul\":6088:6089   */\n      0x00\n        /* \"#utility.yul\":6085:6086   */\n      dup1\n        /* \"#utility.yul\":6078:6090   */\n      revert\n        /* \"#utility.yul\":6058:6092   */\n    tag_853:\n        /* \"#utility.yul\":6126:6132   */\n      dup2\n        /* \"#utility.yul\":6115:6124   */\n      dup8\n        /* \"#utility.yul\":6111:6133   */\n      add\n        /* \"#utility.yul\":6101:6133   */\n      swap2\n      pop\n        /* \"#utility.yul\":6171:6178   */\n      dup8\n        /* \"#utility.yul\":6164:6168   */\n      0x1f\n        /* \"#utility.yul\":6160:6162   */\n      dup4\n        /* \"#utility.yul\":6156:6169   */\n      add\n        /* \"#utility.yul\":6152:6179   */\n      slt\n        /* \"#utility.yul\":6142:6197   */\n      tag_854\n      jumpi\n        /* \"#utility.yul\":6193:6194   */\n      0x00\n        /* \"#utility.yul\":6190:6191   */\n      dup1\n        /* \"#utility.yul\":6183:6195   */\n      revert\n        /* \"#utility.yul\":6142:6197   */\n    tag_854:\n        /* \"#utility.yul\":6233:6235   */\n      dup2\n        /* \"#utility.yul\":6220:6236   */\n      calldataload\n        /* \"#utility.yul\":6259:6261   */\n      dup2\n        /* \"#utility.yul\":6251:6257   */\n      dup2\n        /* \"#utility.yul\":6248:6262   */\n      gt\n        /* \"#utility.yul\":6245:6279   */\n      iszero\n      tag_855\n      jumpi\n        /* \"#utility.yul\":6275:6276   */\n      0x00\n        /* \"#utility.yul\":6272:6273   */\n      dup1\n        /* \"#utility.yul\":6265:6277   */\n      revert\n        /* \"#utility.yul\":6245:6279   */\n    tag_855:\n        /* \"#utility.yul\":6328:6335   */\n      dup9\n        /* \"#utility.yul\":6323:6325   */\n      0x20\n        /* \"#utility.yul\":6313:6319   */\n      dup3\n        /* \"#utility.yul\":6310:6311   */\n      0x05\n        /* \"#utility.yul\":6306:6320   */\n      shl\n        /* \"#utility.yul\":6302:6304   */\n      dup6\n        /* \"#utility.yul\":6298:6321   */\n      add\n        /* \"#utility.yul\":6294:6326   */\n      add\n        /* \"#utility.yul\":6291:6336   */\n      gt\n        /* \"#utility.yul\":6288:6353   */\n      iszero\n      tag_856\n      jumpi\n        /* \"#utility.yul\":6349:6350   */\n      0x00\n        /* \"#utility.yul\":6346:6347   */\n      dup1\n        /* \"#utility.yul\":6339:6351   */\n      revert\n        /* \"#utility.yul\":6288:6353   */\n    tag_856:\n        /* \"#utility.yul\":6380:6382   */\n      0x20\n        /* \"#utility.yul\":6376:6378   */\n      dup4\n        /* \"#utility.yul\":6372:6383   */\n      add\n        /* \"#utility.yul\":6362:6383   */\n      swap6\n      pop\n        /* \"#utility.yul\":6402:6408   */\n      dup1\n        /* \"#utility.yul\":6392:6408   */\n      swap5\n      pop\n      pop\n      pop\n      pop\n        /* \"#utility.yul\":6458:6460   */\n      0x40\n        /* \"#utility.yul\":6447:6456   */\n      dup6\n        /* \"#utility.yul\":6443:6461   */\n      add\n        /* \"#utility.yul\":6430:6462   */\n      calldataload\n        /* \"#utility.yul\":6471:6499   */\n      tag_857\n        /* \"#utility.yul\":6493:6498   */\n      dup2\n        /* \"#utility.yul\":6471:6499   */\n      tag_799\n      jump\t// in\n    tag_857:\n        /* \"#utility.yul\":5711:6529   */\n      swap4\n      swap7\n      swap3\n      swap6\n      pop\n      swap1\n      swap4\n      pop\n      pop\n      jump\t// out\n        /* \"#utility.yul\":6759:7169   */\n    tag_210:\n        /* \"#utility.yul\":6830:6836   */\n      0x00\n        /* \"#utility.yul\":6838:6844   */\n      dup1\n        /* \"#utility.yul\":6891:6893   */\n      0x20\n        /* \"#utility.yul\":6879:6888   */\n      dup4\n        /* \"#utility.yul\":6870:6877   */\n      dup6\n        /* \"#utility.yul\":6866:6889   */\n      sub\n        /* \"#utility.yul\":6862:6894   */\n      slt\n        /* \"#utility.yul\":6859:6911   */\n      iszero\n      tag_860\n      jumpi\n        /* \"#utility.yul\":6907:6908   */\n      0x00\n        /* \"#utility.yul\":6904:6905   */\n      dup1\n        /* \"#utility.yul\":6897:6909   */\n      revert\n        /* \"#utility.yul\":6859:6911   */\n    tag_860:\n        /* \"#utility.yul\":6947:6956   */\n      dup3\n        /* \"#utility.yul\":6934:6957   */\n      calldataload\n        /* \"#utility.yul\":6980:6998   */\n      0xffffffffffffffff\n        /* \"#utility.yul\":6972:6978   */\n      dup2\n        /* \"#utility.yul\":6969:6999   */\n      gt\n        /* \"#utility.yul\":6966:7016   */\n      iszero\n      tag_861\n      jumpi\n        /* \"#utility.yul\":7012:7013   */\n      0x00\n        /* \"#utility.yul\":7009:7010   */\n      dup1\n        /* \"#utility.yul\":7002:7014   */\n      revert\n        /* \"#utility.yul\":6966:7016   */\n    tag_861:\n        /* \"#utility.yul\":7051:7109   */\n      tag_862\n        /* \"#utility.yul\":7101:7108   */\n      dup6\n        /* \"#utility.yul\":7092:7098   */\n      dup3\n        /* \"#utility.yul\":7081:7090   */\n      dup7\n        /* \"#utility.yul\":7077:7099   */\n      add\n        /* \"#utility.yul\":7051:7109   */\n      tag_798\n      jump\t// in\n    tag_862:\n        /* \"#utility.yul\":7128:7136   */\n      swap1\n      swap7\n        /* \"#utility.yul\":7025:7109   */\n      swap1\n      swap6\n      pop\n        /* \"#utility.yul\":6759:7169   */\n      swap4\n      pop\n      pop\n      pop\n      pop\n      jump\t// out\n        /* \"#utility.yul\":7174:7502   */\n    tag_215:\n        /* \"#utility.yul\":7251:7257   */\n      0x00\n        /* \"#utility.yul\":7259:7265   */\n      dup1\n        /* \"#utility.yul\":7267:7273   */\n      0x00\n        /* \"#utility.yul\":7320:7322   */\n      0x60\n        /* \"#utility.yul\":7308:7317   */\n      dup5\n        /* \"#utility.yul\":7299:7306   */\n      dup7\n        /* \"#utility.yul\":7295:7318   */\n      sub\n        /* \"#utility.yul\":7291:7323   */\n      slt\n        /* \"#utility.yul\":7288:7340   */\n      iszero\n      tag_864\n      jumpi\n        /* \"#utility.yul\":7336:7337   */\n      0x00\n        /* \"#utility.yul\":7333:7334   */\n      dup1\n        /* \"#utility.yul\":7326:7338   */\n      revert\n        /* \"#utility.yul\":7288:7340   */\n    tag_864:\n        /* \"#utility.yul\":7359:7388   */\n      tag_865\n        /* \"#utility.yul\":7378:7387   */\n      dup5\n        /* \"#utility.yul\":7359:7388   */\n      tag_797\n      jump\t// in\n    tag_865:\n        /* \"#utility.yul\":7349:7388   */\n      swap3\n      pop\n        /* \"#utility.yul\":7435:7437   */\n      0x20\n        /* \"#utility.yul\":7424:7433   */\n      dup5\n        /* \"#utility.yul\":7420:7438   */\n      add\n        /* \"#utility.yul\":7407:7439   */\n      calldataload\n        /* \"#utility.yul\":7397:7439   */\n      swap2\n      pop\n        /* \"#utility.yul\":7458:7496   */\n      tag_866\n        /* \"#utility.yul\":7492:7494   */\n      0x40\n        /* \"#utility.yul\":7481:7490   */\n      dup6\n        /* \"#utility.yul\":7477:7495   */\n      add\n        /* \"#utility.yul\":7458:7496   */\n      tag_797\n      jump\t// in\n    tag_866:\n        /* \"#utility.yul\":7448:7496   */\n      swap1\n      pop\n        /* \"#utility.yul\":7174:7502   */\n      swap3\n      pop\n      swap3\n      pop\n      swap3\n      jump\t// out\n        /* \"#utility.yul\":7507:7890   */\n    tag_219:\n        /* \"#utility.yul\":7581:7587   */\n      0x00\n        /* \"#utility.yul\":7589:7595   */\n      dup1\n        /* \"#utility.yul\":7597:7603   */\n      0x00\n        /* \"#utility.yul\":7650:7652   */\n      0x60\n        /* \"#utility.yul\":7638:7647   */\n      dup5\n        /* \"#utility.yul\":7629:7636   */\n      dup7\n        /* \"#utility.yul\":7625:7648   */\n      sub\n        /* \"#utility.yul\":7621:7653   */\n      slt\n        /* \"#utility.yul\":7618:7670   */\n      iszero\n      tag_868\n      jumpi\n        /* \"#utility.yul\":7666:7667   */\n      0x00\n        /* \"#utility.yul\":7663:7664   */\n      dup1\n        /* \"#utility.yul\":7656:7668   */\n      revert\n        /* \"#utility.yul\":7618:7670   */\n    tag_868:\n        /* \"#utility.yul\":7689:7718   */\n      tag_869\n        /* \"#utility.yul\":7708:7717   */\n      dup5\n        /* \"#utility.yul\":7689:7718   */\n      tag_797\n      jump\t// in\n    tag_869:\n        /* \"#utility.yul\":7679:7718   */\n      swap3\n      pop\n        /* \"#utility.yul\":7765:7767   */\n      0x20\n        /* \"#utility.yul\":7754:7763   */\n      dup5\n        /* \"#utility.yul\":7750:7768   */\n      add\n        /* \"#utility.yul\":7737:7769   */\n      calldataload\n        /* \"#utility.yul\":7727:7769   */\n      swap2\n      pop\n        /* \"#utility.yul\":7819:7821   */\n      0x40\n        /* \"#utility.yul\":7808:7817   */\n      dup5\n        /* \"#utility.yul\":7804:7822   */\n      add\n        /* \"#utility.yul\":7791:7823   */\n      calldataload\n        /* \"#utility.yul\":7832:7860   */\n      tag_835\n        /* \"#utility.yul\":7854:7859   */\n      dup2\n        /* \"#utility.yul\":7832:7860   */\n      tag_799\n      jump\t// in\n        /* \"#utility.yul\":7895:8022   */\n    tag_800:\n        /* \"#utility.yul\":7956:7966   */\n      0x4e487b71\n        /* \"#utility.yul\":7951:7954   */\n      0xe0\n        /* \"#utility.yul\":7947:7967   */\n      shl\n        /* \"#utility.yul\":7944:7945   */\n      0x00\n        /* \"#utility.yul\":7937:7968   */\n      mstore\n        /* \"#utility.yul\":7987:7991   */\n      0x11\n        /* \"#utility.yul\":7984:7985   */\n      0x04\n        /* \"#utility.yul\":7977:7992   */\n      mstore\n        /* \"#utility.yul\":8011:8015   */\n      0x24\n        /* \"#utility.yul\":8008:8009   */\n      0x00\n        /* \"#utility.yul\":8001:8016   */\n      revert\n        /* \"#utility.yul\":8027:8195   */\n    tag_225:\n        /* \"#utility.yul\":8100:8109   */\n      dup1\n      dup3\n      mul\n        /* \"#utility.yul\":8131:8140   */\n      dup2\n      iszero\n        /* \"#utility.yul\":8148:8163   */\n      dup3\n      dup3\n      div\n        /* \"#utility.yul\":8142:8164   */\n      dup5\n      eq\n        /* \"#utility.yul\":8128:8165   */\n      or\n        /* \"#utility.yul\":8118:8189   */\n      tag_503\n      jumpi\n        /* \"#utility.yul\":8169:8187   */\n      tag_503\n      tag_800\n      jump\t// in\n        /* \"#utility.yul\":8200:8417   */\n    tag_227:\n        /* \"#utility.yul\":8240:8241   */\n      0x00\n        /* \"#utility.yul\":8266:8267   */\n      dup3\n        /* \"#utility.yul\":8256:8388   */\n      tag_876\n      jumpi\n        /* \"#utility.yul\":8310:8320   */\n      0x4e487b71\n        /* \"#utility.yul\":8305:8308   */\n      0xe0\n        /* \"#utility.yul\":8301:8321   */\n      shl\n        /* \"#utility.yul\":8298:8299   */\n      0x00\n        /* \"#utility.yul\":8291:8322   */\n      mstore\n        /* \"#utility.yul\":8345:8349   */\n      0x12\n        /* \"#utility.yul\":8342:8343   */\n      0x04\n        /* \"#utility.yul\":8335:8350   */\n      mstore\n        /* \"#utility.yul\":8373:8377   */\n      0x24\n        /* \"#utility.yul\":8370:8371   */\n      0x00\n        /* \"#utility.yul\":8363:8378   */\n      revert\n        /* \"#utility.yul\":8256:8388   */\n    tag_876:\n      pop\n        /* \"#utility.yul\":8402:8411   */\n      div\n      swap1\n        /* \"#utility.yul\":8200:8417   */\n      jump\t// out\n        /* \"#utility.yul\":8422:8547   */\n    tag_229:\n        /* \"#utility.yul\":8487:8496   */\n      dup1\n      dup3\n      add\n        /* \"#utility.yul\":8508:8518   */\n      dup1\n      dup3\n      gt\n        /* \"#utility.yul\":8505:8541   */\n      iszero\n      tag_503\n      jumpi\n        /* \"#utility.yul\":8521:8539   */\n      tag_503\n      tag_800\n      jump\t// in\n        /* \"#utility.yul\":8552:8680   */\n    tag_231:\n        /* \"#utility.yul\":8619:8628   */\n      dup2\n      dup2\n      sub\n        /* \"#utility.yul\":8640:8651   */\n      dup2\n      dup2\n      gt\n        /* \"#utility.yul\":8637:8674   */\n      iszero\n      tag_503\n      jumpi\n        /* \"#utility.yul\":8654:8672   */\n      tag_503\n      tag_800\n      jump\t// in\n        /* \"#utility.yul\":8685:9017   */\n    tag_237:\n        /* \"#utility.yul\":8887:8889   */\n      0x20\n        /* \"#utility.yul\":8869:8890   */\n      dup1\n      dup3\n      mstore\n        /* \"#utility.yul\":8926:8927   */\n      0x09\n        /* \"#utility.yul\":8906:8924   */\n      swap1\n      dup3\n      add\n        /* \"#utility.yul\":8899:8928   */\n      mstore\n      shl(0xb9, 0x2737ba1030b236b4b7)\n        /* \"#utility.yul\":8959:8961   */\n      0x40\n        /* \"#utility.yul\":8944:8962   */\n      dup3\n      add\n        /* \"#utility.yul\":8937:8976   */\n      mstore\n        /* \"#utility.yul\":9008:9010   */\n      0x60\n        /* \"#utility.yul\":8993:9011   */\n      add\n      swap1\n        /* \"#utility.yul\":8685:9017   */\n      jump\t// out\n        /* \"#utility.yul\":11820:12091   */\n    tag_309:\n        /* \"#utility.yul\":12003:12009   */\n      dup2\n        /* \"#utility.yul\":11995:12001   */\n      dup4\n        /* \"#utility.yul\":11990:11993   */\n      dup3\n        /* \"#utility.yul\":11977:12010   */\n      calldatacopy\n        /* \"#utility.yul\":11959:11962   */\n      0x00\n        /* \"#utility.yul\":12029:12045   */\n      swap2\n      add\n        /* \"#utility.yul\":12054:12067   */\n      swap1\n      dup2\n      mstore\n        /* \"#utility.yul\":12029:12045   */\n      swap2\n        /* \"#utility.yul\":11820:12091   */\n      swap1\n      pop\n      jump\t// out\n        /* \"#utility.yul\":12096:12569   */\n    tag_311:\n        /* \"#utility.yul\":12277:12279   */\n      0x40\n        /* \"#utility.yul\":12266:12275   */\n      dup2\n        /* \"#utility.yul\":12259:12280   */\n      mstore\n        /* \"#utility.yul\":12316:12322   */\n      dup3\n        /* \"#utility.yul\":12311:12313   */\n      0x40\n        /* \"#utility.yul\":12300:12309   */\n      dup3\n        /* \"#utility.yul\":12296:12314   */\n      add\n        /* \"#utility.yul\":12289:12323   */\n      mstore\n        /* \"#utility.yul\":12373:12379   */\n      dup3\n        /* \"#utility.yul\":12365:12371   */\n      dup5\n        /* \"#utility.yul\":12360:12362   */\n      0x60\n        /* \"#utility.yul\":12349:12358   */\n      dup4\n        /* \"#utility.yul\":12345:12363   */\n      add\n        /* \"#utility.yul\":12332:12380   */\n      calldatacopy\n        /* \"#utility.yul\":12429:12430   */\n      0x00\n        /* \"#utility.yul\":12424:12426   */\n      0x60\n        /* \"#utility.yul\":12400:12422   */\n      dup5\n      dup4\n      add\n        /* \"#utility.yul\":12396:12427   */\n      dup2\n      add\n        /* \"#utility.yul\":12389:12431   */\n      swap2\n      swap1\n      swap2\n      mstore\n        /* \"#utility.yul\":12547:12561   */\n      swap2\n      iszero\n        /* \"#utility.yul\":12540:12562   */\n      iszero\n        /* \"#utility.yul\":12533:12537   */\n      0x20\n        /* \"#utility.yul\":12518:12538   */\n      dup3\n      add\n        /* \"#utility.yul\":12511:12563   */\n      mstore\n        /* \"#utility.yul\":12492:12494   */\n      0x1f\n        /* \"#utility.yul\":12471:12486   */\n      swap1\n      swap3\n      add\n      not(0x1f)\n        /* \"#utility.yul\":12467:12496   */\n      and\n        /* \"#utility.yul\":12452:12497   */\n      swap1\n      swap2\n      add\n        /* \"#utility.yul\":12448:12502   */\n      add\n      swap2\n      swap1\n      pop\n        /* \"#utility.yul\":12096:12569   */\n      jump\t// out\n        /* \"#utility.yul\":14244:14619   */\n    tag_385:\n      sub(shl(0xa0, 0x01), 0x01)\n        /* \"#utility.yul\":14502:14517   */\n      swap4\n      dup5\n      and\n        /* \"#utility.yul\":14484:14518   */\n      dup2\n      mstore\n        /* \"#utility.yul\":14554:14569   */\n      swap2\n      swap1\n      swap3\n      and\n        /* \"#utility.yul\":14549:14551   */\n      0x20\n        /* \"#utility.yul\":14534:14552   */\n      dup3\n      add\n        /* \"#utility.yul\":14527:14570   */\n      mstore\n        /* \"#utility.yul\":14601:14603   */\n      0x40\n        /* \"#utility.yul\":14586:14604   */\n      dup2\n      add\n        /* \"#utility.yul\":14579:14613   */\n      swap2\n      swap1\n      swap2\n      mstore\n        /* \"#utility.yul\":14434:14436   */\n      0x60\n        /* \"#utility.yul\":14419:14437   */\n      add\n      swap1\n        /* \"#utility.yul\":14244:14619   */\n      jump\t// out\n        /* \"#utility.yul\":14624:14951   */\n    tag_398:\n        /* \"#utility.yul\":14826:14828   */\n      0x20\n        /* \"#utility.yul\":14808:14829   */\n      dup1\n      dup3\n      mstore\n        /* \"#utility.yul\":14865:14866   */\n      0x04\n        /* \"#utility.yul\":14845:14863   */\n      swap1\n      dup3\n      add\n        /* \"#utility.yul\":14838:14867   */\n      mstore\n      shl(0xe4, 0x0434f4c3)\n        /* \"#utility.yul\":14898:14900   */\n      0x40\n        /* \"#utility.yul\":14883:14901   */\n      dup3\n      add\n        /* \"#utility.yul\":14876:14910   */\n      mstore\n        /* \"#utility.yul\":14942:14944   */\n      0x60\n        /* \"#utility.yul\":14927:14945   */\n      add\n      swap1\n        /* \"#utility.yul\":14624:14951   */\n      jump\t// out\n        /* \"#utility.yul\":17361:17488   */\n    tag_527:\n        /* \"#utility.yul\":17422:17432   */\n      0x4e487b71\n        /* \"#utility.yul\":17417:17420   */\n      0xe0\n        /* \"#utility.yul\":17413:17433   */\n      shl\n        /* \"#utility.yul\":17410:17411   */\n      0x00\n        /* \"#utility.yul\":17403:17434   */\n      mstore\n        /* \"#utility.yul\":17453:17457   */\n      0x32\n        /* \"#utility.yul\":17450:17451   */\n      0x04\n        /* \"#utility.yul\":17443:17458   */\n      mstore\n        /* \"#utility.yul\":17477:17481   */\n      0x24\n        /* \"#utility.yul\":17474:17475   */\n      0x00\n        /* \"#utility.yul\":17467:17482   */\n      revert\n        /* \"#utility.yul\":17493:17628   */\n    tag_532:\n        /* \"#utility.yul\":17532:17535   */\n      0x00\n        /* \"#utility.yul\":17553:17570   */\n      0x01\n      dup3\n      add\n        /* \"#utility.yul\":17550:17593   */\n      tag_911\n      jumpi\n        /* \"#utility.yul\":17573:17591   */\n      tag_911\n      tag_800\n      jump\t// in\n    tag_911:\n      pop\n        /* \"#utility.yul\":17620:17621   */\n      0x01\n        /* \"#utility.yul\":17609:17622   */\n      add\n      swap1\n        /* \"#utility.yul\":17493:17628   */\n      jump\t// out\n        /* \"#utility.yul\":17966:18093   */\n    tag_572:\n        /* \"#utility.yul\":18027:18037   */\n      0x4e487b71\n        /* \"#utility.yul\":18022:18025   */\n      0xe0\n        /* \"#utility.yul\":18018:18038   */\n      shl\n        /* \"#utility.yul\":18015:18016   */\n      0x00\n        /* \"#utility.yul\":18008:18039   */\n      mstore\n        /* \"#utility.yul\":18058:18062   */\n      0x41\n        /* \"#utility.yul\":18055:18056   */\n      0x04\n        /* \"#utility.yul\":18048:18063   */\n      mstore\n        /* \"#utility.yul\":18082:18086   */\n      0x24\n        /* \"#utility.yul\":18079:18080   */\n      0x00\n        /* \"#utility.yul\":18072:18087   */\n      revert\n        /* \"#utility.yul\":18964:19091   */\n    tag_730:\n        /* \"#utility.yul\":19025:19035   */\n      0x4e487b71\n        /* \"#utility.yul\":19020:19023   */\n      0xe0\n        /* \"#utility.yul\":19016:19036   */\n      shl\n        /* \"#utility.yul\":19013:19014   */\n      0x00\n        /* \"#utility.yul\":19006:19037   */\n      mstore\n        /* \"#utility.yul\":19056:19060   */\n      0x31\n        /* \"#utility.yul\":19053:19054   */\n      0x04\n        /* \"#utility.yul\":19046:19061   */\n      mstore\n        /* \"#utility.yul\":19080:19084   */\n      0x24\n        /* \"#utility.yul\":19077:19078   */\n      0x00\n        /* \"#utility.yul\":19070:19085   */\n      revert\n        /* \"#utility.yul\":19693:19938   */\n    tag_764:\n        /* \"#utility.yul\":19760:19766   */\n      0x00\n        /* \"#utility.yul\":19813:19815   */\n      0x20\n        /* \"#utility.yul\":19801:19810   */\n      dup3\n        /* \"#utility.yul\":19792:19799   */\n      dup5\n        /* \"#utility.yul\":19788:19811   */\n      sub\n        /* \"#utility.yul\":19784:19816   */\n      slt\n        /* \"#utility.yul\":19781:19833   */\n      iszero\n      tag_921\n      jumpi\n        /* \"#utility.yul\":19829:19830   */\n      0x00\n        /* \"#utility.yul\":19826:19827   */\n      dup1\n        /* \"#utility.yul\":19819:19831   */\n      revert\n        /* \"#utility.yul\":19781:19833   */\n    tag_921:\n        /* \"#utility.yul\":19861:19870   */\n      dup2\n        /* \"#utility.yul\":19855:19871   */\n      mload\n        /* \"#utility.yul\":19880:19908   */\n      tag_769\n        /* \"#utility.yul\":19902:19907   */\n      dup2\n        /* \"#utility.yul\":19880:19908   */\n      tag_799\n      jump\t// in\n        /* \"#utility.yul\":19943:20355   */\n    tag_775:\n        /* \"#utility.yul\":20072:20075   */\n      0x00\n        /* \"#utility.yul\":20110:20116   */\n      dup3\n        /* \"#utility.yul\":20104:20117   */\n      mload\n        /* \"#utility.yul\":20135:20136   */\n      0x00\n        /* \"#utility.yul\":20145:20274   */\n    tag_924:\n        /* \"#utility.yul\":20159:20165   */\n      dup2\n        /* \"#utility.yul\":20156:20157   */\n      dup2\n        /* \"#utility.yul\":20153:20166   */\n      lt\n        /* \"#utility.yul\":20145:20274   */\n      iszero\n      tag_926\n      jumpi\n        /* \"#utility.yul\":20257:20261   */\n      0x20\n        /* \"#utility.yul\":20241:20255   */\n      dup2\n      dup7\n      add\n        /* \"#utility.yul\":20237:20262   */\n      dup2\n      add\n        /* \"#utility.yul\":20231:20263   */\n      mload\n        /* \"#utility.yul\":20218:20229   */\n      dup6\n      dup4\n      add\n        /* \"#utility.yul\":20211:20264   */\n      mstore\n        /* \"#utility.yul\":20174:20186   */\n      add\n        /* \"#utility.yul\":20145:20274   */\n      jump(tag_924)\n    tag_926:\n      pop\n        /* \"#utility.yul\":20329:20330   */\n      0x00\n        /* \"#utility.yul\":20293:20309   */\n      swap3\n      add\n        /* \"#utility.yul\":20318:20331   */\n      swap2\n      dup3\n      mstore\n      pop\n        /* \"#utility.yul\":20293:20309   */\n      swap2\n        /* \"#utility.yul\":19943:20355   */\n      swap1\n      pop\n      jump\t// out\n\n    auxdata: 0xa264697066735822122079b7ee87f48f4f66ead9b1522222d9f72f84199a99ba6f63b608f770044ea19364736f6c63430008140033\n}\n",
				"bytecode": {
					"linkReferences": {},
					"object": "60a06040523480156200001157600080fd5b50604051620036ac380380620036ac83398101604081905262000034916200012c565b33806200005c57604051631e4fbdf760e01b8152600060048201526024015b60405180910390fd5b6200006781620000dc565b50600180556001600160a01b038116620000ac5760405162461bcd60e51b81526020600482015260056024820152640434f5245360dc1b604482015260640162000053565b6001600160a01b031660805243600b55336000908152600260205260409020805460ff191660011790556200015e565b600080546001600160a01b038381166001600160a01b0319831681178455604051919092169283917f8be0079c531659141344cd1fd0a4f28419497f9722a3daafe3b4186f6b6457e09190a35050565b6000602082840312156200013f57600080fd5b81516001600160a01b03811681146200015757600080fd5b9392505050565b6080516134fa620001b2600039600081816105f50152818161072601528181610a2a01528181610f4a01528181611740015281816117ce01528181611f420152818161215e015261283101526134fa6000f3fe608060405234801561001057600080fd5b50600436106102895760003560e01c8063704802751161015c578063ad9e180c116100ce578063e9fad8ee11610087578063e9fad8ee146105e8578063f2f4eb26146105f0578063f2fde38b14610617578063f413496a1461062a578063f9b5b6641461063d578063fa0c7f3d1461065057600080fd5b8063ad9e180c14610594578063b13270d51461059d578063b2fa49bf146105b0578063d6316991146105c3578063d64b84b5146105d6578063dfd456aa146105df57600080fd5b80638da5cb5b116101205780638da5cb5b1461053257806391596e1e14610543578063955541f114610556578063a1a89efe14610579578063a9f8d18114610582578063aa6bb09a1461058b57600080fd5b806370480275146104b9578063715018a6146104cc57806374958e35146104d457806377aa93ab146104dd5780638ae39cac1461052957600080fd5b80633908766411610200578063591c6f25116101b9578063591c6f251461042d5780635d2ed556146104365780636088e93a14610440578063639f89941461045357806363d38c3b146104665780636f77926b1461046f57600080fd5b806339087664146103b357806343add2e6146103c65780634ccc76ae146104005780634e71d92d146104085780634ff0da481461041057806358f3d6d01461042357600080fd5b80631785f53c116102525780631785f53c1461031357806324d7806c1461032657806328662551146103595780632b6838b31461036c5780632d60a36d1461037457806331c2bb511461038557600080fd5b80628cc2621461028e578063083c6323146102b45780630ab9f75f146102bd5780631171bda9146102c6578063150b7a02146102db575b600080fd5b6102a161029c366004612f4a565b610663565b6040519081526020015b60405180910390f35b6102a1600d5481565b6102a160115481565b6102d96102d4366004612f65565b6106d7565b005b6102fa6102e9366004612fea565b630a85bd0160e11b95945050505050565b6040516001600160e01b031990911681526020016102ab565b6102d9610321366004612f4a565b6107e3565b610349610334366004612f4a565b60026020526000908152604090205460ff1681565b60405190151581526020016102ab565b6102d9610367366004613059565b610888565b6102a1600481565b6102a169021e19e0c9bab240000081565b61034961039336600461307b565b600460209081526000928352604080842090915290825290205460ff1681565b6102d96103c13660046130b3565b610bae565b6103f26103d4366004612f4a565b60036020526000908152604090205460ff8082169161010090041682565b6040516102ab929190613120565b6102a1610c69565b6102d9610c80565b6102d961041e366004613154565b610d61565b6102a162603d8081565b6102a1600f5481565b6102a1624f1a0081565b6102d961044e36600461307b565b610fbe565b6102d961046136600461316d565b611222565b6102a1600e5481565b61048261047d366004612f4a565b61135a565b6040805197885260208801969096529486019390935260608501919091526080840152151560a083015260c082015260e0016102ab565b6102d96104c7366004612f4a565b6113bc565b6102d96114a8565b6102a160105481565b6105116104eb36600461307b565b60076020908152600092835260408084209091529082529020546001600160a01b031681565b6040516001600160a01b0390911681526020016102ab565b6102a1600c5481565b6000546001600160a01b0316610511565b6102d9610551366004613154565b6114ba565b610349610564366004613154565b60056020526000908152604090205460ff1681565b6102a160125481565b6102a1600b5481565b6102a1600a5481565b6102a160135481565b6102d96105ab36600461307b565b61184d565b6103496105be36600461307b565b611b28565b6102d96105d13660046131af565b611bf0565b6102a160095481565b6102a160085481565b6102d9611d34565b6105117f000000000000000000000000000000000000000000000000000000000000000081565b6102d9610625366004612f4a565b612341565b610349610638366004613248565b61237c565b6102d961064b36600461328a565b6123b6565b6102d961065e3660046132c6565b61252b565b6001600160a01b038116600090815260066020526040812081610684612600565b9050600069d3c21bcecceda10000008284600101546106a39190613311565b6106ad9190613328565b905082600201548184600301546106c4919061334a565b6106ce919061335d565b95945050505050565b3360009081526002602052604090205460ff16806106ff57506000546001600160a01b031633145b6107245760405162461bcd60e51b815260040161071b90613370565b60405180910390fd5b7f00000000000000000000000000000000000000000000000000000000000000006001600160a01b0316836001600160a01b03160361078e5760405162461bcd60e51b815260040161071b90602080825260049082015263434f524560e01b604082015260600190565b6001600160a01b0382166107ca5760405162461bcd60e51b81526020600482015260036024820152620544f360ec1b604482015260640161071b565b6107de6001600160a01b038416838361268b565b505050565b6107eb6126ea565b6001600160a01b03811660009081526002602052604090205460ff1661083f5760405162461bcd60e51b81526020600482015260096024820152682727aa2fa0a226a4a760b91b604482015260640161071b565b6001600160a01b038116600081815260026020526040808220805460ff19169055517fa3b62bc36326052d97ea62d63c3d60308ed4c3ea8ac079dd8499f1e9c4f80c0f9190a250565b3360009081526002602052604090205460ff16806108b057506000546001600160a01b031633145b6108cc5760405162461bcd60e51b815260040161071b90613370565b6108d4612717565b60006108de612600565b600a556108e9610c69565b600b556001600160a01b03811615610999576001600160a01b0381166000908152600660205260408120600a54600182015491929169d3c21bcecceda10000009161093391613311565b61093d9190613328565b905081600201548161094f919061335d565b826003016000828254610962919061334a565b9091555050600a54600183015469d3c21bcecceda10000009161098491613311565b61098e9190613328565b826002018190555050505b60008311806109aa57506000600e54115b6109de5760405162461bcd60e51b81526020600482015260056024820152644e4f52455760d81b604482015260640161071b565b60008211610a175760405162461bcd60e51b815260040161071b906020808252600490820152630445552360e41b604082015260600190565b8215610a6a57610a526001600160a01b037f000000000000000000000000000000000000000000000000000000000000000016333086612741565b82600f6000828254610a64919061334a565b90915550505b6000600d54431015610a9457600c5443600d54610a87919061335d565b610a919190613311565b90505b600081600e5486610aa5919061334a565b610aaf919061334a565b905060008111610ae95760405162461bcd60e51b815260206004820152600560248201526409c9ea686960db1b604482015260640161071b565b610af38482613328565b600c819055610b2d5760405162461bcd60e51b815260040161071b906020808252600490820152630525042360e41b604082015260600190565b6000600e5543600b819055610b4390859061334a565b600d819055600e54600c5460408051898152602081019390935282018790526060820152608081019190915233907f6bed4a021812b8a263610260560ff7c218c042029458224275fe81c573f4cc039060a00160405180910390a2505050610baa60018055565b5050565b3360009081526002602052604090205460ff1680610bd657506000546001600160a01b031633145b610bf25760405162461bcd60e51b815260040161071b90613370565b60008383604051610c04929190613393565b604080519182900382206000818152600560205291909120805460ff191685151517905591507f36363b339b00adcc7a4533e32d4cc7ca00ee5fc3569c6925927302ff1dc5e9a590610c5b908690869086906133a3565b60405180910390a150505050565b6000600d544310610c7b5750600d5490565b504390565b610c88612717565b33610c91612600565b600a55610c9c610c69565b600b556001600160a01b03811615610d4c576001600160a01b0381166000908152600660205260408120600a54600182015491929169d3c21bcecceda100000091610ce691613311565b610cf09190613328565b9050816002015481610d02919061335d565b826003016000828254610d15919061334a565b9091555050600a54600183015469d3c21bcecceda100000091610d3791613311565b610d419190613328565b826002018190555050505b610d553361276f565b50610d5f60018055565b565b610d69612717565b33610d72612600565b600a55610d7d610c69565b600b556001600160a01b03811615610e2d576001600160a01b0381166000908152600660205260408120600a54600182015491929169d3c21bcecceda100000091610dc791613311565b610dd19190613328565b9050816002015481610de3919061335d565b826003016000828254610df6919061334a565b9091555050600a54600183015469d3c21bcecceda100000091610e1891613311565b610e229190613328565b826002018190555050505b60008211610e665760405162461bcd60e51b815260040161071b906020808252600490820152630414d54360e41b604082015260600190565b336000908152600660205260409020600581015460011115610eb35760405162461bcd60e51b81526020600482015260066024820152654e465452455160d01b604482015260640161071b565b805469021e19e0c9bab240000090610ecc90859061334a565b1115610f045760405162461bcd60e51b81526020600482015260076024820152664d4158434f524560c81b604482015260640161071b565b426004820155805483908290600090610f1e90849061334a565b925050819055508260086000828254610f37919061334a565b90915550610f7290506001600160a01b037f000000000000000000000000000000000000000000000000000000000000000016333086612741565b610f7b336128cf565b60405183815233907fab4795c0dfe38375b777fbe077bd9c6877c2ddaf9e3acfb83d5e5277a40322ed9060200160405180910390a25050610fbb60018055565b50565b610fc6612717565b33610fcf612600565b600a55610fda610c69565b600b556001600160a01b0381161561108a576001600160a01b0381166000908152600660205260408120600a54600182015491929169d3c21bcecceda10000009161102491613311565b61102e9190613328565b9050816002015481611040919061335d565b826003016000828254611053919061334a565b9091555050600a54600183015469d3c21bcecceda10000009161107591613311565b61107f9190613328565b826002018190555050505b3360008181526006602090815260408083206001600160a01b0388811685526007845282852088865290935292205491929116146110f35760405162461bcd60e51b81526020600482015260066024820152651393d513919560d21b604482015260640161071b565b8054156111385760058101546001106111385760405162461bcd60e51b815260206004820152600760248201526612d1515413919560ca1b604482015260640161071b565b6111438185856129c4565b6001600160a01b0384166000908152600760209081526040808320868452909152902080546001600160a01b031916905561117d336128cf565b604051632142170760e11b81526001600160a01b038516906342842e0e906111ad903090339088906004016133db565b600060405180830381600087803b1580156111c757600080fd5b505af11580156111db573d6000803e3d6000fd5b50506040518592506001600160a01b038716915033907fbbde41973f9ce4890f7ad9762c23d8191f261fd643bdf13ed8bbc10549b49fcb90600090a45050610baa60018055565b3360009081526002602052604090205460ff168061124a57506000546001600160a01b031633145b6112665760405162461bcd60e51b815260040161071b90613370565b6001600160a01b03831661128c5760405162461bcd60e51b815260040161071b906133ff565b604051806040016040528083151581526020018260018111156112b1576112b161310a565b90526001600160a01b03841660009081526003602090815260409091208251815490151560ff19821681178355928401519192839161ff001990911661ffff199091161761010083600181111561130a5761130a61310a565b0217905550905050826001600160a01b03167fc97a41867696f26be26c3fad9209e751411c759d0d344dc7ebd1a164ffecacc2838360405161134d929190613120565b60405180910390a2505050565b6001600160a01b0381166000908152600660205260408120805460058201546001830154600484015492949193909291908190819061139889610663565b93506113a385612b45565b92506113ae87612b66565b915050919395979092949650565b6113c46126ea565b6001600160a01b0381166114035760405162461bcd60e51b815260040161071b906020808252600490820152635a45524f60e01b604082015260600190565b6001600160a01b03811660009081526002602052604090205460ff161561145c5760405162461bcd60e51b815260206004820152600d60248201526c20a62922a0a22cafa0a226a4a760991b604482015260640161071b565b6001600160a01b038116600081815260026020526040808220805460ff19166001179055517f44d6d25963f097ad14f29f06854a01f575648a1ef82f30e562ccd3889717e3399190a250565b6114b06126ea565b610d5f6000612bb4565b6114c2612717565b336114cb612600565b600a556114d6610c69565b600b556001600160a01b03811615611586576001600160a01b0381166000908152600660205260408120600a54600182015491929169d3c21bcecceda10000009161152091613311565b61152a9190613328565b905081600201548161153c919061335d565b82600301600082825461154f919061334a565b9091555050600a54600183015469d3c21bcecceda10000009161157191613311565b61157b9190613328565b826002018190555050505b336000908152600660205260409020826115cb5760405162461bcd60e51b815260040161071b906020808252600490820152630414d54360e41b604082015260600190565b80548311156116045760405162461bcd60e51b81526020600482015260056024820152645354414b4560d81b604482015260640161071b565b6005810154600111156116425760405162461bcd60e51b81526020600482015260066024820152654e465452455160d01b604482015260640161071b565b61164b3361276f565b8281600001600082825461165f919061335d565b925050819055508260086000828254611678919061335d565b909155505060048101548390600090819061169290612b45565b156117a75760006127106116a86105dc89613311565b6116b29190613328565b905060036116c1600283613311565b6116cb9190613328565b92506116d7838261335d565b91506116e3818861335d565b935082601260008282546116f7919061334a565b925050819055508160136000828254611710919061334a565b909155505082156117245761172483612c04565b81156117a557604051630852cd8d60e31b8152600481018390527f00000000000000000000000000000000000000000000000000000000000000006001600160a01b0316906342966c6890602401600060405180830381600087803b15801561178c57600080fd5b505af11580156117a0573d6000803e3d6000fd5b505050505b505b83546000036117b857600060048501555b6117c1336128cf565b6117f56001600160a01b037f000000000000000000000000000000000000000000000000000000000000000016338561268b565b60408051878152602081018590529081018390526060810182905233907fed51a34abf73431aee998f69ff67cbc5bae47a2768cc3e2efaf79e7ba0b65f159060800160405180910390a25050505050610fbb60018055565b611855612717565b3361185e612600565b600a55611869610c69565b600b556001600160a01b03811615611919576001600160a01b0381166000908152600660205260408120600a54600182015491929169d3c21bcecceda1000000916118b391613311565b6118bd9190613328565b90508160020154816118cf919061335d565b8260030160008282546118e2919061334a565b9091555050600a54600183015469d3c21bcecceda10000009161190491613311565b61190e9190613328565b826002018190555050505b6119238383611b28565b6119585760405162461bcd60e51b815260206004820152600660248201526510905113919560d21b604482015260640161071b565b33600090815260066020526040902060058101546004116119a45760405162461bcd60e51b815260206004820152600660248201526513505613919560d21b604482015260640161071b565b6001600160a01b0384811660009081526007602090815260408083208784529091529020541615611a005760405162461bcd60e51b815260206004820152600660248201526511155413919560d21b604482015260640161071b565b604051632142170760e11b81526001600160a01b038516906342842e0e90611a30903390309088906004016133db565b600060405180830381600087803b158015611a4a57600080fd5b505af1158015611a5e573d6000803e3d6000fd5b505050506001600160a01b03848116600081815260076020908152604080832088845282528083208054336001600160a01b03199182168117909255825180840190935294825281830189815260058801805460018181018355918752949095209251600290940290920180549095169290951691909117835551910155611ae5906128cf565b60405183906001600160a01b0386169033907f45a0b747ada8575b65125b2144e0de1ff692ff4510bb94a2f9695fcaf1d2bdf390600090a45050610baa60018055565b6001600160a01b03821660009081526003602090815260408083208151808301909252805460ff8082161515845285948401916101009004166001811115611b7257611b7261310a565b6001811115611b8357611b8361310a565b9052508051909150611b99576000915050611bea565b600081602001516001811115611bb157611bb161310a565b03611bc0576001915050611bea565b50506001600160a01b038216600090815260046020908152604080832084845290915290205460ff165b92915050565b3360009081526002602052604090205460ff1680611c1857506000546001600160a01b031633145b611c345760405162461bcd60e51b815260040161071b90613370565b6001600160a01b038416611c5a5760405162461bcd60e51b815260040161071b906133ff565b60005b82811015611d2d576001600160a01b03851660009081526004602052604081208391868685818110611c9157611c9161341d565b90506020020135815260200190815260200160002060006101000a81548160ff021916908315150217905550838382818110611ccf57611ccf61341d565b90506020020135856001600160a01b03167f03929b99f1d41b1602615acbac6af6c29ae6687db3d6586d252bf82074486e3184604051611d13911515815260200190565b60405180910390a380611d2581613433565b915050611c5d565b5050505050565b611d3c612717565b33611d45612600565b600a55611d50610c69565b600b556001600160a01b03811615611e00576001600160a01b0381166000908152600660205260408120600a54600182015491929169d3c21bcecceda100000091611d9a91613311565b611da49190613328565b9050816002015481611db6919061335d565b826003016000828254611dc9919061334a565b9091555050600a54600183015469d3c21bcecceda100000091611deb91613311565b611df59190613328565b826002018190555050505b3360009081526006602052604090208054151580611e215750600581015415155b611e555760405162461bcd60e51b81526020600482015260056024820152644e4f504f5360d81b604482015260640161071b565b611e5e3361276f565b8054806000808215611fa957600080865560088054869290611e8190849061335d565b90915550506004850154611e9490612b45565b15611fa9576000612710611eaa6105dc87613311565b611eb49190613328565b90506003611ec3600283613311565b611ecd9190613328565b9250611ed9838261335d565b9150611ee5818661335d565b93508260126000828254611ef9919061334a565b925050819055508160136000828254611f12919061334a565b90915550508215611f2657611f2683612c04565b8115611fa757604051630852cd8d60e31b8152600481018390527f00000000000000000000000000000000000000000000000000000000000000006001600160a01b0316906342966c6890602401600060405180830381600087803b158015611f8e57600080fd5b505af1158015611fa2573d6000803e3d6000fd5b505050505b505b600585015460008167ffffffffffffffff811115611fc957611fc961344c565b60405190808252806020026020018201604052801561200e57816020015b6040805180820190915260008082526020820152815260200190600190039081611fe75790505b50905060005b8281101561212c578760050181815481106120315761203161341d565b60009182526020918290206040805180820190915260029092020180546001600160a01b03168252600101549181019190915282518390839081106120785761207861341d565b602002602001018190525060006007600084848151811061209b5761209b61341d565b6020026020010151600001516001600160a01b03166001600160a01b0316815260200190815260200160002060008484815181106120db576120db61341d565b602002602001015160200151815260200190815260200160002060006101000a8154816001600160a01b0302191690836001600160a01b03160217905550808061212490613433565b915050612014565b5061213b600588016000612ee8565b6000600488015561214b336128cf565b8415612185576121856001600160a01b037f000000000000000000000000000000000000000000000000000000000000000016338761268b565b60005b81518110156122ba578181815181106121a3576121a361341d565b6020026020010151600001516001600160a01b03166342842e0e30338585815181106121d1576121d161341d565b6020026020010151602001516040518463ffffffff1660e01b81526004016121fb939291906133db565b600060405180830381600087803b15801561221557600080fd5b505af1158015612229573d6000803e3d6000fd5b5050505081818151811061223f5761223f61341d565b60200260200101516020015182828151811061225d5761225d61341d565b6020026020010151600001516001600160a01b0316336001600160a01b03167fbbde41973f9ce4890f7ad9762c23d8191f261fd643bdf13ed8bbc10549b49fcb60405160405180910390a4806122b281613433565b915050612188565b5060408051878152602081018790529081018590526060810184905233907fed51a34abf73431aee998f69ff67cbc5bae47a2768cc3e2efaf79e7ba0b65f159060800160405180910390a260405133907faa5cfc974bd759f818e3e18a4afc9d79daaa0722158497792100a1fddd13e19390600090a25050505050505050610d5f60018055565b6123496126ea565b6001600160a01b03811661237357604051631e4fbdf760e01b81526000600482015260240161071b565b610fbb81612bb4565b6000600560008484604051612392929190613393565b604080519182900390912082526020820192909252016000205460ff169392505050565b3360009081526002602052604090205460ff16806123de57506000546001600160a01b031633145b6123fa5760405162461bcd60e51b815260040161071b90613370565b612402612717565b6001600160a01b0383166124285760405162461bcd60e51b815260040161071b906133ff565b6001600160a01b0381166124645760405162461bcd60e51b81526020600482015260036024820152620544f360ec1b604482015260640161071b565b6001600160a01b03838116600090815260076020908152604080832086845290915290205416156124c05760405162461bcd60e51b815260206004820152600660248201526514d51052d15160d21b604482015260640161071b565b604051632142170760e11b81526001600160a01b038416906342842e0e906124f0903090859087906004016133db565b600060405180830381600087803b15801561250a57600080fd5b505af115801561251e573d6000803e3d6000fd5b505050506107de60018055565b3360009081526002602052604090205460ff168061255357506000546001600160a01b031633145b61256f5760405162461bcd60e51b815260040161071b90613370565b6001600160a01b0383166125955760405162461bcd60e51b815260040161071b906133ff565b6001600160a01b0383166000818152600460209081526040808320868452825291829020805460ff191685151590811790915591519182528492917f03929b99f1d41b1602615acbac6af6c29ae6687db3d6586d252bf82074486e31910160405180910390a3505050565b60006009546000036126135750600a5490565b600061261d610c69565b9050600b548111612630575050600a5490565b6000600b5482612640919061335d565b90506000600c54826126529190613311565b60095490915061266c69d3c21bcecceda100000083613311565b6126769190613328565b600a54612683919061334a565b935050505090565b6040516001600160a01b038381166024830152604482018390526107de91859182169063a9059cbb906064015b604051602081830303815290604052915060e01b6020820180516001600160e01b038381831617835250505050612d4e565b6000546001600160a01b03163314610d5f5760405163118cdaa760e01b815233600482015260240161071b565b60026001540361273a57604051633ee5aeb560e01b815260040160405180910390fd5b6002600155565b61276984856001600160a01b03166323b872dd8686866040516024016126b8939291906133db565b50505050565b6001600160a01b03811660009081526006602052604081206003810154909181900361279a57505050565b600060038301819055600483015482906127b390612b45565b15612806576127106127c761138885613311565b6127d19190613328565b91506127dd828461335d565b905081156128065781601160008282546127f7919061334a565b90915550612806905082612c04565b801561285857806010600082825461281e919061334a565b9091555061285890506001600160a01b037f000000000000000000000000000000000000000000000000000000000000000016868361268b565b69d3c21bcecceda1000000600a5485600101546128759190613311565b61287f9190613328565b600285015560408051828152602081018490526001600160a01b038716917fd6f2c8500df5b44f11e9e48b91ff9f1b9d81bc496d55570c2b1b75bf65243f51910160405180910390a25050505050565b6001600160a01b038116600090815260066020526040812060018101548154919290911580159061290557506005830154600111155b156129355760058301546127109061291c90612b66565b84546129289190613311565b6129329190613328565b90505b8181111561296357612947828261335d565b60096000828254612958919061334a565b9091555061298c9050565b8082111561298c57612975818361335d565b60096000828254612986919061335d565b90915550505b60018301819055600a5469d3c21bcecceda1000000906129ac9083613311565b6129b69190613328565b836002018190555050505050565b600583015460005b81811015612b1357836001600160a01b03168560050182815481106129f3576129f361341d565b60009182526020909120600290910201546001600160a01b0316148015612a3f575082856005018281548110612a2b57612a2b61341d565b906000526020600020906002020160010154145b15612b015760058501612a5360018461335d565b81548110612a6357612a6361341d565b9060005260206000209060020201856005018281548110612a8657612a8661341d565b60009182526020909120825460029092020180546001600160a01b0319166001600160a01b0390921691909117815560019182015491015560058501805480612ad157612ad1613462565b60008281526020812060026000199093019283020180546001600160a01b03191681556001015590555050505050565b80612b0b81613433565b9150506129cc565b5060405162461bcd60e51b81526020600482015260066024820152651393d7d3919560d21b604482015260640161071b565b60008115801590611bea5750612b5e624f1a008361334a565b421092915050565b600081600103612b795750612710919050565b81600203612b8a5750612af8919050565b81600303612b9b5750612ee0919050565b81600403612bac57506132c8919050565b506000919050565b600080546001600160a01b038381166001600160a01b0319831681178455604051919092169283917f8be0079c531659141344cd1fd0a4f28419497f9722a3daafe3b4186f6b6457e09190a35050565b80600003612c0f5750565b600d5443101580612c205750600c54155b15612c785780600e6000828254612c37919061334a565b909155505060408051828152600160208201527fb83b89c23226baf08ab339fff4525164d413e7d9f816d2e208b4f37a8b11d9a5910160405180910390a150565b600043600d54612c88919061335d565b905080600003612ce65781600e6000828254612ca4919061334a565b909155505060408051838152600160208201527fb83b89c23226baf08ab339fff4525164d413e7d9f816d2e208b4f37a8b11d9a5910160405180910390a15050565b6000600c5482612cf69190613311565b905081612d03848361334a565b612d0d9190613328565b600c5560408051848152600060208201527fb83b89c23226baf08ab339fff4525164d413e7d9f816d2e208b4f37a8b11d9a5910160405180910390a1505050565b6000612d636001600160a01b03841683612db1565b90508051600014158015612d88575080806020019051810190612d869190613478565b155b156107de57604051635274afe760e01b81526001600160a01b038416600482015260240161071b565b6060612dbf83836000612dc6565b9392505050565b606081471015612deb5760405163cd78605960e01b815230600482015260240161071b565b600080856001600160a01b03168486604051612e079190613495565b60006040518083038185875af1925050503d8060008114612e44576040519150601f19603f3d011682016040523d82523d6000602084013e612e49565b606091505b5091509150612e59868383612e63565b9695505050505050565b606082612e7857612e7382612ebf565b612dbf565b8151158015612e8f57506001600160a01b0384163b155b15612eb857604051639996b31560e01b81526001600160a01b038516600482015260240161071b565b5080612dbf565b805115612ecf5780518082602001fd5b604051630a12f52160e11b815260040160405180910390fd5b5080546000825560020290600052602060002090810190610fbb91905b80821115612f2a5780546001600160a01b031916815560006001820155600201612f05565b5090565b80356001600160a01b0381168114612f4557600080fd5b919050565b600060208284031215612f5c57600080fd5b612dbf82612f2e565b600080600060608486031215612f7a57600080fd5b612f8384612f2e565b9250612f9160208501612f2e565b9150604084013590509250925092565b60008083601f840112612fb357600080fd5b50813567ffffffffffffffff811115612fcb57600080fd5b602083019150836020828501011115612fe357600080fd5b9250929050565b60008060008060006080868803121561300257600080fd5b61300b86612f2e565b945061301960208701612f2e565b935060408601359250606086013567ffffffffffffffff81111561303c57600080fd5b61304888828901612fa1565b969995985093965092949392505050565b6000806040838503121561306c57600080fd5b50508035926020909101359150565b6000806040838503121561308e57600080fd5b61309783612f2e565b946020939093013593505050565b8015158114610fbb57600080fd5b6000806000604084860312156130c857600080fd5b833567ffffffffffffffff8111156130df57600080fd5b6130eb86828701612fa1565b90945092505060208401356130ff816130a5565b809150509250925092565b634e487b7160e01b600052602160045260246000fd5b8215158152604081016002831061314757634e487b7160e01b600052602160045260246000fd5b8260208301529392505050565b60006020828403121561316657600080fd5b5035919050565b60008060006060848603121561318257600080fd5b61318b84612f2e565b9250602084013561319b816130a5565b91506040840135600281106130ff57600080fd5b600080600080606085870312156131c557600080fd5b6131ce85612f2e565b9350602085013567ffffffffffffffff808211156131eb57600080fd5b818701915087601f8301126131ff57600080fd5b81358181111561320e57600080fd5b8860208260051b850101111561322357600080fd5b602083019550809450505050604085013561323d816130a5565b939692955090935050565b6000806020838503121561325b57600080fd5b823567ffffffffffffffff81111561327257600080fd5b61327e85828601612fa1565b90969095509350505050565b60008060006060848603121561329f57600080fd5b6132a884612f2e565b9250602084013591506132bd60408501612f2e565b90509250925092565b6000806000606084860312156132db57600080fd5b6132e484612f2e565b92506020840135915060408401356130ff816130a5565b634e487b7160e01b600052601160045260246000fd5b8082028115828204841417611bea57611bea6132fb565b60008261334557634e487b7160e01b600052601260045260246000fd5b500490565b80820180821115611bea57611bea6132fb565b81810381811115611bea57611bea6132fb565b6020808252600990820152682737ba1030b236b4b760b91b604082015260600190565b8183823760009101908152919050565b6040815282604082015282846060830137600060608483018101919091529115156020820152601f909201601f191690910101919050565b6001600160a01b039384168152919092166020820152604081019190915260600190565b6020808252600490820152630434f4c360e41b604082015260600190565b634e487b7160e01b600052603260045260246000fd5b600060018201613445576134456132fb565b5060010190565b634e487b7160e01b600052604160045260246000fd5b634e487b7160e01b600052603160045260246000fd5b60006020828403121561348a57600080fd5b8151612dbf816130a5565b6000825160005b818110156134b6576020818601810151858301520161349c565b50600092019182525091905056fea264697066735822122079b7ee87f48f4f66ead9b1522222d9f72f84199a99ba6f63b608f770044ea19364736f6c63430008140033",
					"opcodes": "PUSH1 0xA0 PUSH1 0x40 MSTORE CALLVALUE DUP1 ISZERO PUSH3 0x11 JUMPI PUSH1 0x0 DUP1 REVERT JUMPDEST POP PUSH1 0x40 MLOAD PUSH3 0x36AC CODESIZE SUB DUP1 PUSH3 0x36AC DUP4 CODECOPY DUP2 ADD PUSH1 0x40 DUP2 SWAP1 MSTORE PUSH3 0x34 SWAP2 PUSH3 0x12C JUMP JUMPDEST CALLER DUP1 PUSH3 0x5C JUMPI PUSH1 0x40 MLOAD PUSH4 0x1E4FBDF7 PUSH1 0xE0 SHL DUP2 MSTORE PUSH1 0x0 PUSH1 0x4 DUP3 ADD MSTORE PUSH1 0x24 ADD JUMPDEST PUSH1 0x40 MLOAD DUP1 SWAP2 SUB SWAP1 REVERT JUMPDEST PUSH3 0x67 DUP2 PUSH3 0xDC JUMP JUMPDEST POP PUSH1 0x1 DUP1 SSTORE PUSH1 0x1 PUSH1 0x1 PUSH1 0xA0 SHL SUB DUP2 AND PUSH3 0xAC JUMPI PUSH1 0x40 MLOAD PUSH3 0x461BCD PUSH1 0xE5 SHL DUP2 MSTORE PUSH1 0x20 PUSH1 0x4 DUP3 ADD MSTORE PUSH1 0x5 PUSH1 0x24 DUP3 ADD MSTORE PUSH5 0x434F52453 PUSH1 0xDC SHL PUSH1 0x44 DUP3 ADD MSTORE PUSH1 0x64 ADD PUSH3 0x53 JUMP JUMPDEST PUSH1 0x1 PUSH1 0x1 PUSH1 0xA0 SHL SUB AND PUSH1 0x80 MSTORE NUMBER PUSH1 0xB SSTORE CALLER PUSH1 0x0 SWAP1 DUP2 MSTORE PUSH1 0x2 PUSH1 0x20 MSTORE PUSH1 0x40 SWAP1 KECCAK256 DUP1 SLOAD PUSH1 0xFF NOT AND PUSH1 0x1 OR SWAP1 SSTORE PUSH3 0x15E JUMP JUMPDEST PUSH1 0x0 DUP1 SLOAD PUSH1 0x1 PUSH1 0x1 PUSH1 0xA0 SHL SUB DUP4 DUP2 AND PUSH1 0x1 PUSH1 0x1 PUSH1 0xA0 SHL SUB NOT DUP4 AND DUP2 OR DUP5 SSTORE PUSH1 0x40 MLOAD SWAP2 SWAP1 SWAP3 AND SWAP3 DUP4 SWAP2 PUSH32 0x8BE0079C531659141344CD1FD0A4F28419497F9722A3DAAFE3B4186F6B6457E0 SWAP2 SWAP1 LOG3 POP POP JUMP JUMPDEST PUSH1 0x0 PUSH1 0x20 DUP3 DUP5 SUB SLT ISZERO PUSH3 0x13F JUMPI PUSH1 0x0 DUP1 REVERT JUMPDEST DUP2 MLOAD PUSH1 0x1 PUSH1 0x1 PUSH1 0xA0 SHL SUB DUP2 AND DUP2 EQ PUSH3 0x157 JUMPI PUSH1 0x0 DUP1 REVERT JUMPDEST SWAP4 SWAP3 POP POP POP JUMP JUMPDEST PUSH1 0x80 MLOAD PUSH2 0x34FA PUSH3 0x1B2 PUSH1 0x0 CODECOPY PUSH1 0x0 DUP2 DUP2 PUSH2 0x5F5 ADD MSTORE DUP2 DUP2 PUSH2 0x726 ADD MSTORE DUP2 DUP2 PUSH2 0xA2A ADD MSTORE DUP2 DUP2 PUSH2 0xF4A ADD MSTORE DUP2 DUP2 PUSH2 0x1740 ADD MSTORE DUP2 DUP2 PUSH2 0x17CE ADD MSTORE DUP2 DUP2 PUSH2 0x1F42 ADD MSTORE DUP2 DUP2 PUSH2 0x215E ADD MSTORE PUSH2 0x2831 ADD MSTORE PUSH2 0x34FA PUSH1 0x0 RETURN INVALID PUSH1 0x80 PUSH1 0x40 MSTORE CALLVALUE DUP1 ISZERO PUSH2 0x10 JUMPI PUSH1 0x0 DUP1 REVERT JUMPDEST POP PUSH1 0x4 CALLDATASIZE LT PUSH2 0x289 JUMPI PUSH1 0x0 CALLDATALOAD PUSH1 0xE0 SHR DUP1 PUSH4 0x70480275 GT PUSH2 0x15C JUMPI DUP1 PUSH4 0xAD9E180C GT PUSH2 0xCE JUMPI DUP1 PUSH4 0xE9FAD8EE GT PUSH2 0x87 JUMPI DUP1 PUSH4 0xE9FAD8EE EQ PUSH2 0x5E8 JUMPI DUP1 PUSH4 0xF2F4EB26 EQ PUSH2 0x5F0 JUMPI DUP1 PUSH4 0xF2FDE38B EQ PUSH2 0x617 JUMPI DUP1 PUSH4 0xF413496A EQ PUSH2 0x62A JUMPI DUP1 PUSH4 0xF9B5B664 EQ PUSH2 0x63D JUMPI DUP1 PUSH4 0xFA0C7F3D EQ PUSH2 0x650 JUMPI PUSH1 0x0 DUP1 REVERT JUMPDEST DUP1 PUSH4 0xAD9E180C EQ PUSH2 0x594 JUMPI DUP1 PUSH4 0xB13270D5 EQ PUSH2 0x59D JUMPI DUP1 PUSH4 0xB2FA49BF EQ PUSH2 0x5B0 JUMPI DUP1 PUSH4 0xD6316991 EQ PUSH2 0x5C3 JUMPI DUP1 PUSH4 0xD64B84B5 EQ PUSH2 0x5D6 JUMPI DUP1 PUSH4 0xDFD456AA EQ PUSH2 0x5DF JUMPI PUSH1 0x0 DUP1 REVERT JUMPDEST DUP1 PUSH4 0x8DA5CB5B GT PUSH2 0x120 JUMPI DUP1 PUSH4 0x8DA5CB5B EQ PUSH2 0x532 JUMPI DUP1 PUSH4 0x91596E1E EQ PUSH2 0x543 JUMPI DUP1 PUSH4 0x955541F1 EQ PUSH2 0x556 JUMPI DUP1 PUSH4 0xA1A89EFE EQ PUSH2 0x579 JUMPI DUP1 PUSH4 0xA9F8D181 EQ PUSH2 0x582 JUMPI DUP1 PUSH4 0xAA6BB09A EQ PUSH2 0x58B JUMPI PUSH1 0x0 DUP1 REVERT JUMPDEST DUP1 PUSH4 0x70480275 EQ PUSH2 0x4B9 JUMPI DUP1 PUSH4 0x715018A6 EQ PUSH2 0x4CC JUMPI DUP1 PUSH4 0x74958E35 EQ PUSH2 0x4D4 JUMPI DUP1 PUSH4 0x77AA93AB EQ PUSH2 0x4DD JUMPI DUP1 PUSH4 0x8AE39CAC EQ PUSH2 0x529 JUMPI PUSH1 0x0 DUP1 REVERT JUMPDEST DUP1 PUSH4 0x39087664 GT PUSH2 0x200 JUMPI DUP1 PUSH4 0x591C6F25 GT PUSH2 0x1B9 JUMPI DUP1 PUSH4 0x591C6F25 EQ PUSH2 0x42D JUMPI DUP1 PUSH4 0x5D2ED556 EQ PUSH2 0x436 JUMPI DUP1 PUSH4 0x6088E93A EQ PUSH2 0x440 JUMPI DUP1 PUSH4 0x639F8994 EQ PUSH2 0x453 JUMPI DUP1 PUSH4 0x63D38C3B EQ PUSH2 0x466 JUMPI DUP1 PUSH4 0x6F77926B EQ PUSH2 0x46F JUMPI PUSH1 0x0 DUP1 REVERT JUMPDEST DUP1 PUSH4 0x39087664 EQ PUSH2 0x3B3 JUMPI DUP1 PUSH4 0x43ADD2E6 EQ PUSH2 0x3C6 JUMPI DUP1 PUSH4 0x4CCC76AE EQ PUSH2 0x400 JUMPI DUP1 PUSH4 0x4E71D92D EQ PUSH2 0x408 JUMPI DUP1 PUSH4 0x4FF0DA48 EQ PUSH2 0x410 JUMPI DUP1 PUSH4 0x58F3D6D0 EQ PUSH2 0x423 JUMPI PUSH1 0x0 DUP1 REVERT JUMPDEST DUP1 PUSH4 0x1785F53C GT PUSH2 0x252 JUMPI DUP1 PUSH4 0x1785F53C EQ PUSH2 0x313 JUMPI DUP1 PUSH4 0x24D7806C EQ PUSH2 0x326 JUMPI DUP1 PUSH4 0x28662551 EQ PUSH2 0x359 JUMPI DUP1 PUSH4 0x2B6838B3 EQ PUSH2 0x36C JUMPI DUP1 PUSH4 0x2D60A36D EQ PUSH2 0x374 JUMPI DUP1 PUSH4 0x31C2BB51 EQ PUSH2 0x385 JUMPI PUSH1 0x0 DUP1 REVERT JUMPDEST DUP1 PUSH3 0x8CC262 EQ PUSH2 0x28E JUMPI DUP1 PUSH4 0x83C6323 EQ PUSH2 0x2B4 JUMPI DUP1 PUSH4 0xAB9F75F EQ PUSH2 0x2BD JUMPI DUP1 PUSH4 0x1171BDA9 EQ PUSH2 0x2C6 JUMPI DUP1 PUSH4 0x150B7A02 EQ PUSH2 0x2DB JUMPI JUMPDEST PUSH1 0x0 DUP1 REVERT JUMPDEST PUSH2 0x2A1 PUSH2 0x29C CALLDATASIZE PUSH1 0x4 PUSH2 0x2F4A JUMP JUMPDEST PUSH2 0x663 JUMP JUMPDEST PUSH1 0x40 MLOAD SWAP1 DUP2 MSTORE PUSH1 0x20 ADD JUMPDEST PUSH1 0x40 MLOAD DUP1 SWAP2 SUB SWAP1 RETURN JUMPDEST PUSH2 0x2A1 PUSH1 0xD SLOAD DUP2 JUMP JUMPDEST PUSH2 0x2A1 PUSH1 0x11 SLOAD DUP2 JUMP JUMPDEST PUSH2 0x2D9 PUSH2 0x2D4 CALLDATASIZE PUSH1 0x4 PUSH2 0x2F65 JUMP JUMPDEST PUSH2 0x6D7 JUMP JUMPDEST STOP JUMPDEST PUSH2 0x2FA PUSH2 0x2E9 CALLDATASIZE PUSH1 0x4 PUSH2 0x2FEA JUMP JUMPDEST PUSH4 0xA85BD01 PUSH1 0xE1 SHL SWAP6 SWAP5 POP POP POP POP POP JUMP JUMPDEST PUSH1 0x40 MLOAD PUSH1 0x1 PUSH1 0x1 PUSH1 0xE0 SHL SUB NOT SWAP1 SWAP2 AND DUP2 MSTORE PUSH1 0x20 ADD PUSH2 0x2AB JUMP JUMPDEST PUSH2 0x2D9 PUSH2 0x321 CALLDATASIZE PUSH1 0x4 PUSH2 0x2F4A JUMP JUMPDEST PUSH2 0x7E3 JUMP JUMPDEST PUSH2 0x349 PUSH2 0x334 CALLDATASIZE PUSH1 0x4 PUSH2 0x2F4A JUMP JUMPDEST PUSH1 0x2 PUSH1 0x20 MSTORE PUSH1 0x0 SWAP1 DUP2 MSTORE PUSH1 0x40 SWAP1 KECCAK256 SLOAD PUSH1 0xFF AND DUP2 JUMP JUMPDEST PUSH1 0x40 MLOAD SWAP1 ISZERO ISZERO DUP2 MSTORE PUSH1 0x20 ADD PUSH2 0x2AB JUMP JUMPDEST PUSH2 0x2D9 PUSH2 0x367 CALLDATASIZE PUSH1 0x4 PUSH2 0x3059 JUMP JUMPDEST PUSH2 0x888 JUMP JUMPDEST PUSH2 0x2A1 PUSH1 0x4 DUP2 JUMP JUMPDEST PUSH2 0x2A1 PUSH10 0x21E19E0C9BAB2400000 DUP2 JUMP JUMPDEST PUSH2 0x349 PUSH2 0x393 CALLDATASIZE PUSH1 0x4 PUSH2 0x307B JUMP JUMPDEST PUSH1 0x4 PUSH1 0x20 SWAP1 DUP2 MSTORE PUSH1 0x0 SWAP3 DUP4 MSTORE PUSH1 0x40 DUP1 DUP5 KECCAK256 SWAP1 SWAP2 MSTORE SWAP1 DUP3 MSTORE SWAP1 KECCAK256 SLOAD PUSH1 0xFF AND DUP2 JUMP JUMPDEST PUSH2 0x2D9 PUSH2 0x3C1 CALLDATASIZE PUSH1 0x4 PUSH2 0x30B3 JUMP JUMPDEST PUSH2 0xBAE JUMP JUMPDEST PUSH2 0x3F2 PUSH2 0x3D4 CALLDATASIZE PUSH1 0x4 PUSH2 0x2F4A JUMP JUMPDEST PUSH1 0x3 PUSH1 0x20 MSTORE PUSH1 0x0 SWAP1 DUP2 MSTORE PUSH1 0x40 SWAP1 KECCAK256 SLOAD PUSH1 0xFF DUP1 DUP3 AND SWAP2 PUSH2 0x100 SWAP1 DIV AND DUP3 JUMP JUMPDEST PUSH1 0x40 MLOAD PUSH2 0x2AB SWAP3 SWAP2 SWAP1 PUSH2 0x3120 JUMP JUMPDEST PUSH2 0x2A1 PUSH2 0xC69 JUMP JUMPDEST PUSH2 0x2D9 PUSH2 0xC80 JUMP JUMPDEST PUSH2 0x2D9 PUSH2 0x41E CALLDATASIZE PUSH1 0x4 PUSH2 0x3154 JUMP JUMPDEST PUSH2 0xD61 JUMP JUMPDEST PUSH2 0x2A1 PUSH3 0x603D80 DUP2 JUMP JUMPDEST PUSH2 0x2A1 PUSH1 0xF SLOAD DUP2 JUMP JUMPDEST PUSH2 0x2A1 PUSH3 0x4F1A00 DUP2 JUMP JUMPDEST PUSH2 0x2D9 PUSH2 0x44E CALLDATASIZE PUSH1 0x4 PUSH2 0x307B JUMP JUMPDEST PUSH2 0xFBE JUMP JUMPDEST PUSH2 0x2D9 PUSH2 0x461 CALLDATASIZE PUSH1 0x4 PUSH2 0x316D JUMP JUMPDEST PUSH2 0x1222 JUMP JUMPDEST PUSH2 0x2A1 PUSH1 0xE SLOAD DUP2 JUMP JUMPDEST PUSH2 0x482 PUSH2 0x47D CALLDATASIZE PUSH1 0x4 PUSH2 0x2F4A JUMP JUMPDEST PUSH2 0x135A JUMP JUMPDEST PUSH1 0x40 DUP1 MLOAD SWAP8 DUP9 MSTORE PUSH1 0x20 DUP9 ADD SWAP7 SWAP1 SWAP7 MSTORE SWAP5 DUP7 ADD SWAP4 SWAP1 SWAP4 MSTORE PUSH1 0x60 DUP6 ADD SWAP2 SWAP1 SWAP2 MSTORE PUSH1 0x80 DUP5 ADD MSTORE ISZERO ISZERO PUSH1 0xA0 DUP4 ADD MSTORE PUSH1 0xC0 DUP3 ADD MSTORE PUSH1 0xE0 ADD PUSH2 0x2AB JUMP JUMPDEST PUSH2 0x2D9 PUSH2 0x4C7 CALLDATASIZE PUSH1 0x4 PUSH2 0x2F4A JUMP JUMPDEST PUSH2 0x13BC JUMP JUMPDEST PUSH2 0x2D9 PUSH2 0x14A8 JUMP JUMPDEST PUSH2 0x2A1 PUSH1 0x10 SLOAD DUP2 JUMP JUMPDEST PUSH2 0x511 PUSH2 0x4EB CALLDATASIZE PUSH1 0x4 PUSH2 0x307B JUMP JUMPDEST PUSH1 0x7 PUSH1 0x20 SWAP1 DUP2 MSTORE PUSH1 0x0 SWAP3 DUP4 MSTORE PUSH1 0x40 DUP1 DUP5 KECCAK256 SWAP1 SWAP2 MSTORE SWAP1 DUP3 MSTORE SWAP1 KECCAK256 SLOAD PUSH1 0x1 PUSH1 0x1 PUSH1 0xA0 SHL SUB AND DUP2 JUMP JUMPDEST PUSH1 0x40 MLOAD PUSH1 0x1 PUSH1 0x1 PUSH1 0xA0 SHL SUB SWAP1 SWAP2 AND DUP2 MSTORE PUSH1 0x20 ADD PUSH2 0x2AB JUMP JUMPDEST PUSH2 0x2A1 PUSH1 0xC SLOAD DUP2 JUMP JUMPDEST PUSH1 0x0 SLOAD PUSH1 0x1 PUSH1 0x1 PUSH1 0xA0 SHL SUB AND PUSH2 0x511 JUMP JUMPDEST PUSH2 0x2D9 PUSH2 0x551 CALLDATASIZE PUSH1 0x4 PUSH2 0x3154 JUMP JUMPDEST PUSH2 0x14BA JUMP JUMPDEST PUSH2 0x349 PUSH2 0x564 CALLDATASIZE PUSH1 0x4 PUSH2 0x3154 JUMP JUMPDEST PUSH1 0x5 PUSH1 0x20 MSTORE PUSH1 0x0 SWAP1 DUP2 MSTORE PUSH1 0x40 SWAP1 KECCAK256 SLOAD PUSH1 0xFF AND DUP2 JUMP JUMPDEST PUSH2 0x2A1 PUSH1 0x12 SLOAD DUP2 JUMP JUMPDEST PUSH2 0x2A1 PUSH1 0xB SLOAD DUP2 JUMP JUMPDEST PUSH2 0x2A1 PUSH1 0xA SLOAD DUP2 JUMP JUMPDEST PUSH2 0x2A1 PUSH1 0x13 SLOAD DUP2 JUMP JUMPDEST PUSH2 0x2D9 PUSH2 0x5AB CALLDATASIZE PUSH1 0x4 PUSH2 0x307B JUMP JUMPDEST PUSH2 0x184D JUMP JUMPDEST PUSH2 0x349 PUSH2 0x5BE CALLDATASIZE PUSH1 0x4 PUSH2 0x307B JUMP JUMPDEST PUSH2 0x1B28 JUMP JUMPDEST PUSH2 0x2D9 PUSH2 0x5D1 CALLDATASIZE PUSH1 0x4 PUSH2 0x31AF JUMP JUMPDEST PUSH2 0x1BF0 JUMP JUMPDEST PUSH2 0x2A1 PUSH1 0x9 SLOAD DUP2 JUMP JUMPDEST PUSH2 0x2A1 PUSH1 0x8 SLOAD DUP2 JUMP JUMPDEST PUSH2 0x2D9 PUSH2 0x1D34 JUMP JUMPDEST PUSH2 0x511 PUSH32 0x0 DUP2 JUMP JUMPDEST PUSH2 0x2D9 PUSH2 0x625 CALLDATASIZE PUSH1 0x4 PUSH2 0x2F4A JUMP JUMPDEST PUSH2 0x2341 JUMP JUMPDEST PUSH2 0x349 PUSH2 0x638 CALLDATASIZE PUSH1 0x4 PUSH2 0x3248 JUMP JUMPDEST PUSH2 0x237C JUMP JUMPDEST PUSH2 0x2D9 PUSH2 0x64B CALLDATASIZE PUSH1 0x4 PUSH2 0x328A JUMP JUMPDEST PUSH2 0x23B6 JUMP JUMPDEST PUSH2 0x2D9 PUSH2 0x65E CALLDATASIZE PUSH1 0x4 PUSH2 0x32C6 JUMP JUMPDEST PUSH2 0x252B JUMP JUMPDEST PUSH1 0x1 PUSH1 0x1 PUSH1 0xA0 SHL SUB DUP2 AND PUSH1 0x0 SWAP1 DUP2 MSTORE PUSH1 0x6 PUSH1 0x20 MSTORE PUSH1 0x40 DUP2 KECCAK256 DUP2 PUSH2 0x684 PUSH2 0x2600 JUMP JUMPDEST SWAP1 POP PUSH1 0x0 PUSH10 0xD3C21BCECCEDA1000000 DUP3 DUP5 PUSH1 0x1 ADD SLOAD PUSH2 0x6A3 SWAP2 SWAP1 PUSH2 0x3311 JUMP JUMPDEST PUSH2 0x6AD SWAP2 SWAP1 PUSH2 0x3328 JUMP JUMPDEST SWAP1 POP DUP3 PUSH1 0x2 ADD SLOAD DUP2 DUP5 PUSH1 0x3 ADD SLOAD PUSH2 0x6C4 SWAP2 SWAP1 PUSH2 0x334A JUMP JUMPDEST PUSH2 0x6CE SWAP2 SWAP1 PUSH2 0x335D JUMP JUMPDEST SWAP6 SWAP5 POP POP POP POP POP JUMP JUMPDEST CALLER PUSH1 0x0 SWAP1 DUP2 MSTORE PUSH1 0x2 PUSH1 0x20 MSTORE PUSH1 0x40 SWAP1 KECCAK256 SLOAD PUSH1 0xFF AND DUP1 PUSH2 0x6FF JUMPI POP PUSH1 0x0 SLOAD PUSH1 0x1 PUSH1 0x1 PUSH1 0xA0 SHL SUB AND CALLER EQ JUMPDEST PUSH2 0x724 JUMPI PUSH1 0x40 MLOAD PUSH3 0x461BCD PUSH1 0xE5 SHL DUP2 MSTORE PUSH1 0x4 ADD PUSH2 0x71B SWAP1 PUSH2 0x3370 JUMP JUMPDEST PUSH1 0x40 MLOAD DUP1 SWAP2 SUB SWAP1 REVERT JUMPDEST PUSH32 0x0 PUSH1 0x1 PUSH1 0x1 PUSH1 0xA0 SHL SUB AND DUP4 PUSH1 0x1 PUSH1 0x1 PUSH1 0xA0 SHL SUB AND SUB PUSH2 0x78E JUMPI PUSH1 0x40 MLOAD PUSH3 0x461BCD PUSH1 0xE5 SHL DUP2 MSTORE PUSH1 0x4 ADD PUSH2 0x71B SWAP1 PUSH1 0x20 DUP1 DUP3 MSTORE PUSH1 0x4 SWAP1 DUP3 ADD MSTORE PUSH4 0x434F5245 PUSH1 0xE0 SHL PUSH1 0x40 DUP3 ADD MSTORE PUSH1 0x60 ADD SWAP1 JUMP JUMPDEST PUSH1 0x1 PUSH1 0x1 PUSH1 0xA0 SHL SUB DUP3 AND PUSH2 0x7CA JUMPI PUSH1 0x40 MLOAD PUSH3 0x461BCD PUSH1 0xE5 SHL DUP2 MSTORE PUSH1 0x20 PUSH1 0x4 DUP3 ADD MSTORE PUSH1 0x3 PUSH1 0x24 DUP3 ADD MSTORE PUSH3 0x544F3 PUSH1 0xEC SHL PUSH1 0x44 DUP3 ADD MSTORE PUSH1 0x64 ADD PUSH2 0x71B JUMP JUMPDEST PUSH2 0x7DE PUSH1 0x1 PUSH1 0x1 PUSH1 0xA0 SHL SUB DUP5 AND DUP4 DUP4 PUSH2 0x268B JUMP JUMPDEST POP POP POP JUMP JUMPDEST PUSH2 0x7EB PUSH2 0x26EA JUMP JUMPDEST PUSH1 0x1 PUSH1 0x1 PUSH1 0xA0 SHL SUB DUP2 AND PUSH1 0x0 SWAP1 DUP2 MSTORE PUSH1 0x2 PUSH1 0x20 MSTORE PUSH1 0x40 SWAP1 KECCAK256 SLOAD PUSH1 0xFF AND PUSH2 0x83F JUMPI PUSH1 0x40 MLOAD PUSH3 0x461BCD PUSH1 0xE5 SHL DUP2 MSTORE PUSH1 0x20 PUSH1 0x4 DUP3 ADD MSTORE PUSH1 0x9 PUSH1 0x24 DUP3 ADD MSTORE PUSH9 0x2727AA2FA0A226A4A7 PUSH1 0xB9 SHL PUSH1 0x44 DUP3 ADD MSTORE PUSH1 0x64 ADD PUSH2 0x71B JUMP JUMPDEST PUSH1 0x1 PUSH1 0x1 PUSH1 0xA0 SHL SUB DUP2 AND PUSH1 0x0 DUP2 DUP2 MSTORE PUSH1 0x2 PUSH1 0x20 MSTORE PUSH1 0x40 DUP1 DUP3 KECCAK256 DUP1 SLOAD PUSH1 0xFF NOT AND SWAP1 SSTORE MLOAD PUSH32 0xA3B62BC36326052D97EA62D63C3D60308ED4C3EA8AC079DD8499F1E9C4F80C0F SWAP2 SWAP1 LOG2 POP JUMP JUMPDEST CALLER PUSH1 0x0 SWAP1 DUP2 MSTORE PUSH1 0x2 PUSH1 0x20 MSTORE PUSH1 0x40 SWAP1 KECCAK256 SLOAD PUSH1 0xFF AND DUP1 PUSH2 0x8B0 JUMPI POP PUSH1 0x0 SLOAD PUSH1 0x1 PUSH1 0x1 PUSH1 0xA0 SHL SUB AND CALLER EQ JUMPDEST PUSH2 0x8CC JUMPI PUSH1 0x40 MLOAD PUSH3 0x461BCD PUSH1 0xE5 SHL DUP2 MSTORE PUSH1 0x4 ADD PUSH2 0x71B SWAP1 PUSH2 0x3370 JUMP JUMPDEST PUSH2 0x8D4 PUSH2 0x2717 JUMP JUMPDEST PUSH1 0x0 PUSH2 0x8DE PUSH2 0x2600 JUMP JUMPDEST PUSH1 0xA SSTORE PUSH2 0x8E9 PUSH2 0xC69 JUMP JUMPDEST PUSH1 0xB SSTORE PUSH1 0x1 PUSH1 0x1 PUSH1 0xA0 SHL SUB DUP2 AND ISZERO PUSH2 0x999 JUMPI PUSH1 0x1 PUSH1 0x1 PUSH1 0xA0 SHL SUB DUP2 AND PUSH1 0x0 SWAP1 DUP2 MSTORE PUSH1 0x6 PUSH1 0x20 MSTORE PUSH1 0x40 DUP2 KECCAK256 PUSH1 0xA SLOAD PUSH1 0x1 DUP3 ADD SLOAD SWAP2 SWAP3 SWAP2 PUSH10 0xD3C21BCECCEDA1000000 SWAP2 PUSH2 0x933 SWAP2 PUSH2 0x3311 JUMP JUMPDEST PUSH2 0x93D SWAP2 SWAP1 PUSH2 0x3328 JUMP JUMPDEST SWAP1 POP DUP2 PUSH1 0x2 ADD SLOAD DUP2 PUSH2 0x94F SWAP2 SWAP1 PUSH2 0x335D JUMP JUMPDEST DUP3 PUSH1 0x3 ADD PUSH1 0x0 DUP3 DUP3 SLOAD PUSH2 0x962 SWAP2 SWAP1 PUSH2 0x334A JUMP JUMPDEST SWAP1 SWAP2 SSTORE POP POP PUSH1 0xA SLOAD PUSH1 0x1 DUP4 ADD SLOAD PUSH10 0xD3C21BCECCEDA1000000 SWAP2 PUSH2 0x984 SWAP2 PUSH2 0x3311 JUMP JUMPDEST PUSH2 0x98E SWAP2 SWAP1 PUSH2 0x3328 JUMP JUMPDEST DUP3 PUSH1 0x2 ADD DUP2 SWAP1 SSTORE POP POP POP JUMPDEST PUSH1 0x0 DUP4 GT DUP1 PUSH2 0x9AA JUMPI POP PUSH1 0x0 PUSH1 0xE SLOAD GT JUMPDEST PUSH2 0x9DE JUMPI PUSH1 0x40 MLOAD PUSH3 0x461BCD PUSH1 0xE5 SHL DUP2 MSTORE PUSH1 0x20 PUSH1 0x4 DUP3 ADD MSTORE PUSH1 0x5 PUSH1 0x24 DUP3 ADD MSTORE PUSH5 0x4E4F524557 PUSH1 0xD8 SHL PUSH1 0x44 DUP3 ADD MSTORE PUSH1 0x64 ADD PUSH2 0x71B JUMP JUMPDEST PUSH1 0x0 DUP3 GT PUSH2 0xA17 JUMPI PUSH1 0x40 MLOAD PUSH3 0x461BCD PUSH1 0xE5 SHL DUP2 MSTORE PUSH1 0x4 ADD PUSH2 0x71B SWAP1 PUSH1 0x20 DUP1 DUP3 MSTORE PUSH1 0x4 SWAP1 DUP3 ADD MSTORE PUSH4 0x4455523 PUSH1 0xE4 SHL PUSH1 0x40 DUP3 ADD MSTORE PUSH1 0x60 ADD SWAP1 JUMP JUMPDEST DUP3 ISZERO PUSH2 0xA6A JUMPI PUSH2 0xA52 PUSH1 0x1 PUSH1 0x1 PUSH1 0xA0 SHL SUB PUSH32 0x0 AND CALLER ADDRESS DUP7 PUSH2 0x2741 JUMP JUMPDEST DUP3 PUSH1 0xF PUSH1 0x0 DUP3 DUP3 SLOAD PUSH2 0xA64 SWAP2 SWAP1 PUSH2 0x334A JUMP JUMPDEST SWAP1 SWAP2 SSTORE POP POP JUMPDEST PUSH1 0x0 PUSH1 0xD SLOAD NUMBER LT ISZERO PUSH2 0xA94 JUMPI PUSH1 0xC SLOAD NUMBER PUSH1 0xD SLOAD PUSH2 0xA87 SWAP2 SWAP1 PUSH2 0x335D JUMP JUMPDEST PUSH2 0xA91 SWAP2 SWAP1 PUSH2 0x3311 JUMP JUMPDEST SWAP1 POP JUMPDEST PUSH1 0x0 DUP2 PUSH1 0xE SLOAD DUP7 PUSH2 0xAA5 SWAP2 SWAP1 PUSH2 0x334A JUMP JUMPDEST PUSH2 0xAAF SWAP2 SWAP1 PUSH2 0x334A JUMP JUMPDEST SWAP1 POP PUSH1 0x0 DUP2 GT PUSH2 0xAE9 JUMPI PUSH1 0x40 MLOAD PUSH3 0x461BCD PUSH1 0xE5 SHL DUP2 MSTORE PUSH1 0x20 PUSH1 0x4 DUP3 ADD MSTORE PUSH1 0x5 PUSH1 0x24 DUP3 ADD MSTORE PUSH5 0x9C9EA6869 PUSH1 0xDB SHL PUSH1 0x44 DUP3 ADD MSTORE PUSH1 0x64 ADD PUSH2 0x71B JUMP JUMPDEST PUSH2 0xAF3 DUP5 DUP3 PUSH2 0x3328 JUMP JUMPDEST PUSH1 0xC DUP2 SWAP1 SSTORE PUSH2 0xB2D JUMPI PUSH1 0x40 MLOAD PUSH3 0x461BCD PUSH1 0xE5 SHL DUP2 MSTORE PUSH1 0x4 ADD PUSH2 0x71B SWAP1 PUSH1 0x20 DUP1 DUP3 MSTORE PUSH1 0x4 SWAP1 DUP3 ADD MSTORE PUSH4 0x5250423 PUSH1 0xE4 SHL PUSH1 0x40 DUP3 ADD MSTORE PUSH1 0x60 ADD SWAP1 JUMP JUMPDEST PUSH1 0x0 PUSH1 0xE SSTORE NUMBER PUSH1 0xB DUP2 SWAP1 SSTORE PUSH2 0xB43 SWAP1 DUP6 SWAP1 PUSH2 0x334A JUMP JUMPDEST PUSH1 0xD DUP2 SWAP1 SSTORE PUSH1 0xE SLOAD PUSH1 0xC SLOAD PUSH1 0x40 DUP1 MLOAD DUP10 DUP2 MSTORE PUSH1 0x20 DUP2 ADD SWAP4 SWAP1 SWAP4 MSTORE DUP3 ADD DUP8 SWAP1 MSTORE PUSH1 0x60 DUP3 ADD MSTORE PUSH1 0x80 DUP2 ADD SWAP2 SWAP1 SWAP2 MSTORE CALLER SWAP1 PUSH32 0x6BED4A021812B8A263610260560FF7C218C042029458224275FE81C573F4CC03 SWAP1 PUSH1 0xA0 ADD PUSH1 0x40 MLOAD DUP1 SWAP2 SUB SWAP1 LOG2 POP POP POP PUSH2 0xBAA PUSH1 0x1 DUP1 SSTORE JUMP JUMPDEST POP POP JUMP JUMPDEST CALLER PUSH1 0x0 SWAP1 DUP2 MSTORE PUSH1 0x2 PUSH1 0x20 MSTORE PUSH1 0x40 SWAP1 KECCAK256 SLOAD PUSH1 0xFF AND DUP1 PUSH2 0xBD6 JUMPI POP PUSH1 0x0 SLOAD PUSH1 0x1 PUSH1 0x1 PUSH1 0xA0 SHL SUB AND CALLER EQ JUMPDEST PUSH2 0xBF2 JUMPI PUSH1 0x40 MLOAD PUSH3 0x461BCD PUSH1 0xE5 SHL DUP2 MSTORE PUSH1 0x4 ADD PUSH2 0x71B SWAP1 PUSH2 0x3370 JUMP JUMPDEST PUSH1 0x0 DUP4 DUP4 PUSH1 0x40 MLOAD PUSH2 0xC04 SWAP3 SWAP2 SWAP1 PUSH2 0x3393 JUMP JUMPDEST PUSH1 0x40 DUP1 MLOAD SWAP2 DUP3 SWAP1 SUB DUP3 KECCAK256 PUSH1 0x0 DUP2 DUP2 MSTORE PUSH1 0x5 PUSH1 0x20 MSTORE SWAP2 SWAP1 SWAP2 KECCAK256 DUP1 SLOAD PUSH1 0xFF NOT AND DUP6 ISZERO ISZERO OR SWAP1 SSTORE SWAP2 POP PUSH32 0x36363B339B00ADCC7A4533E32D4CC7CA00EE5FC3569C6925927302FF1DC5E9A5 SWAP1 PUSH2 0xC5B SWAP1 DUP7 SWAP1 DUP7 SWAP1 DUP7 SWAP1 PUSH2 0x33A3 JUMP JUMPDEST PUSH1 0x40 MLOAD DUP1 SWAP2 SUB SWAP1 LOG1 POP POP POP POP JUMP JUMPDEST PUSH1 0x0 PUSH1 0xD SLOAD NUMBER LT PUSH2 0xC7B JUMPI POP PUSH1 0xD SLOAD SWAP1 JUMP JUMPDEST POP NUMBER SWAP1 JUMP JUMPDEST PUSH2 0xC88 PUSH2 0x2717 JUMP JUMPDEST CALLER PUSH2 0xC91 PUSH2 0x2600 JUMP JUMPDEST PUSH1 0xA SSTORE PUSH2 0xC9C PUSH2 0xC69 JUMP JUMPDEST PUSH1 0xB SSTORE PUSH1 0x1 PUSH1 0x1 PUSH1 0xA0 SHL SUB DUP2 AND ISZERO PUSH2 0xD4C JUMPI PUSH1 0x1 PUSH1 0x1 PUSH1 0xA0 SHL SUB DUP2 AND PUSH1 0x0 SWAP1 DUP2 MSTORE PUSH1 0x6 PUSH1 0x20 MSTORE PUSH1 0x40 DUP2 KECCAK256 PUSH1 0xA SLOAD PUSH1 0x1 DUP3 ADD SLOAD SWAP2 SWAP3 SWAP2 PUSH10 0xD3C21BCECCEDA1000000 SWAP2 PUSH2 0xCE6 SWAP2 PUSH2 0x3311 JUMP JUMPDEST PUSH2 0xCF0 SWAP2 SWAP1 PUSH2 0x3328 JUMP JUMPDEST SWAP1 POP DUP2 PUSH1 0x2 ADD SLOAD DUP2 PUSH2 0xD02 SWAP2 SWAP1 PUSH2 0x335D JUMP JUMPDEST DUP3 PUSH1 0x3 ADD PUSH1 0x0 DUP3 DUP3 SLOAD PUSH2 0xD15 SWAP2 SWAP1 PUSH2 0x334A JUMP JUMPDEST SWAP1 SWAP2 SSTORE POP POP PUSH1 0xA SLOAD PUSH1 0x1 DUP4 ADD SLOAD PUSH10 0xD3C21BCECCEDA1000000 SWAP2 PUSH2 0xD37 SWAP2 PUSH2 0x3311 JUMP JUMPDEST PUSH2 0xD41 SWAP2 SWAP1 PUSH2 0x3328 JUMP JUMPDEST DUP3 PUSH1 0x2 ADD DUP2 SWAP1 SSTORE POP POP POP JUMPDEST PUSH2 0xD55 CALLER PUSH2 0x276F JUMP JUMPDEST POP PUSH2 0xD5F PUSH1 0x1 DUP1 SSTORE JUMP JUMPDEST JUMP JUMPDEST PUSH2 0xD69 PUSH2 0x2717 JUMP JUMPDEST CALLER PUSH2 0xD72 PUSH2 0x2600 JUMP JUMPDEST PUSH1 0xA SSTORE PUSH2 0xD7D PUSH2 0xC69 JUMP JUMPDEST PUSH1 0xB SSTORE PUSH1 0x1 PUSH1 0x1 PUSH1 0xA0 SHL SUB DUP2 AND ISZERO PUSH2 0xE2D JUMPI PUSH1 0x1 PUSH1 0x1 PUSH1 0xA0 SHL SUB DUP2 AND PUSH1 0x0 SWAP1 DUP2 MSTORE PUSH1 0x6 PUSH1 0x20 MSTORE PUSH1 0x40 DUP2 KECCAK256 PUSH1 0xA SLOAD PUSH1 0x1 DUP3 ADD SLOAD SWAP2 SWAP3 SWAP2 PUSH10 0xD3C21BCECCEDA1000000 SWAP2 PUSH2 0xDC7 SWAP2 PUSH2 0x3311 JUMP JUMPDEST PUSH2 0xDD1 SWAP2 SWAP1 PUSH2 0x3328 JUMP JUMPDEST SWAP1 POP DUP2 PUSH1 0x2 ADD SLOAD DUP2 PUSH2 0xDE3 SWAP2 SWAP1 PUSH2 0x335D JUMP JUMPDEST DUP3 PUSH1 0x3 ADD PUSH1 0x0 DUP3 DUP3 SLOAD PUSH2 0xDF6 SWAP2 SWAP1 PUSH2 0x334A JUMP JUMPDEST SWAP1 SWAP2 SSTORE POP POP PUSH1 0xA SLOAD PUSH1 0x1 DUP4 ADD SLOAD PUSH10 0xD3C21BCECCEDA1000000 SWAP2 PUSH2 0xE18 SWAP2 PUSH2 0x3311 JUMP JUMPDEST PUSH2 0xE22 SWAP2 SWAP1 PUSH2 0x3328 JUMP JUMPDEST DUP3 PUSH1 0x2 ADD DUP2 SWAP1 SSTORE POP POP POP JUMPDEST PUSH1 0x0 DUP3 GT PUSH2 0xE66 JUMPI PUSH1 0x40 MLOAD PUSH3 0x461BCD PUSH1 0xE5 SHL DUP2 MSTORE PUSH1 0x4 ADD PUSH2 0x71B SWAP1 PUSH1 0x20 DUP1 DUP3 MSTORE PUSH1 0x4 SWAP1 DUP3 ADD MSTORE PUSH4 0x414D543 PUSH1 0xE4 SHL PUSH1 0x40 DUP3 ADD MSTORE PUSH1 0x60 ADD SWAP1 JUMP JUMPDEST CALLER PUSH1 0x0 SWAP1 DUP2 MSTORE PUSH1 0x6 PUSH1 0x20 MSTORE PUSH1 0x40 SWAP1 KECCAK256 PUSH1 0x5 DUP2 ADD SLOAD PUSH1 0x1 GT ISZERO PUSH2 0xEB3 JUMPI PUSH1 0x40 MLOAD PUSH3 0x461BCD PUSH1 0xE5 SHL DUP2 MSTORE PUSH1 0x20 PUSH1 0x4 DUP3 ADD MSTORE PUSH1 0x6 PUSH1 0x24 DUP3 ADD MSTORE PUSH6 0x4E4654524551 PUSH1 0xD0 SHL PUSH1 0x44 DUP3 ADD MSTORE PUSH1 0x64 ADD PUSH2 0x71B JUMP JUMPDEST DUP1 SLOAD PUSH10 0x21E19E0C9BAB2400000 SWAP1 PUSH2 0xECC SWAP1 DUP6 SWAP1 PUSH2 0x334A JUMP JUMPDEST GT ISZERO PUSH2 0xF04 JUMPI PUSH1 0x40 MLOAD PUSH3 0x461BCD PUSH1 0xE5 SHL DUP2 MSTORE PUSH1 0x20 PUSH1 0x4 DUP3 ADD MSTORE PUSH1 0x7 PUSH1 0x24 DUP3 ADD MSTORE PUSH7 0x4D4158434F5245 PUSH1 0xC8 SHL PUSH1 0x44 DUP3 ADD MSTORE PUSH1 0x64 ADD PUSH2 0x71B JUMP JUMPDEST TIMESTAMP PUSH1 0x4 DUP3 ADD SSTORE DUP1 SLOAD DUP4 SWAP1 DUP3 SWAP1 PUSH1 0x0 SWAP1 PUSH2 0xF1E SWAP1 DUP5 SWAP1 PUSH2 0x334A JUMP JUMPDEST SWAP3 POP POP DUP2 SWAP1 SSTORE POP DUP3 PUSH1 0x8 PUSH1 0x0 DUP3 DUP3 SLOAD PUSH2 0xF37 SWAP2 SWAP1 PUSH2 0x334A JUMP JUMPDEST SWAP1 SWAP2 SSTORE POP PUSH2 0xF72 SWAP1 POP PUSH1 0x1 PUSH1 0x1 PUSH1 0xA0 SHL SUB PUSH32 0x0 AND CALLER ADDRESS DUP7 PUSH2 0x2741 JUMP JUMPDEST PUSH2 0xF7B CALLER PUSH2 0x28CF JUMP JUMPDEST PUSH1 0x40 MLOAD DUP4 DUP2 MSTORE CALLER SWAP1 PUSH32 0xAB4795C0DFE38375B777FBE077BD9C6877C2DDAF9E3ACFB83D5E5277A40322ED SWAP1 PUSH1 0x20 ADD PUSH1 0x40 MLOAD DUP1 SWAP2 SUB SWAP1 LOG2 POP POP PUSH2 0xFBB PUSH1 0x1 DUP1 SSTORE JUMP JUMPDEST POP JUMP JUMPDEST PUSH2 0xFC6 PUSH2 0x2717 JUMP JUMPDEST CALLER PUSH2 0xFCF PUSH2 0x2600 JUMP JUMPDEST PUSH1 0xA SSTORE PUSH2 0xFDA PUSH2 0xC69 JUMP JUMPDEST PUSH1 0xB SSTORE PUSH1 0x1 PUSH1 0x1 PUSH1 0xA0 SHL SUB DUP2 AND ISZERO PUSH2 0x108A JUMPI PUSH1 0x1 PUSH1 0x1 PUSH1 0xA0 SHL SUB DUP2 AND PUSH1 0x0 SWAP1 DUP2 MSTORE PUSH1 0x6 PUSH1 0x20 MSTORE PUSH1 0x40 DUP2 KECCAK256 PUSH1 0xA SLOAD PUSH1 0x1 DUP3 ADD SLOAD SWAP2 SWAP3 SWAP2 PUSH10 0xD3C21BCECCEDA1000000 SWAP2 PUSH2 0x1024 SWAP2 PUSH2 0x3311 JUMP JUMPDEST PUSH2 0x102E SWAP2 SWAP1 PUSH2 0x3328 JUMP JUMPDEST SWAP1 POP DUP2 PUSH1 0x2 ADD SLOAD DUP2 PUSH2 0x1040 SWAP2 SWAP1 PUSH2 0x335D JUMP JUMPDEST DUP3 PUSH1 0x3 ADD PUSH1 0x0 DUP3 DUP3 SLOAD PUSH2 0x1053 SWAP2 SWAP1 PUSH2 0x334A JUMP JUMPDEST SWAP1 SWAP2 SSTORE POP POP PUSH1 0xA SLOAD PUSH1 0x1 DUP4 ADD SLOAD PUSH10 0xD3C21BCECCEDA1000000 SWAP2 PUSH2 0x1075 SWAP2 PUSH2 0x3311 JUMP JUMPDEST PUSH2 0x107F SWAP2 SWAP1 PUSH2 0x3328 JUMP JUMPDEST DUP3 PUSH1 0x2 ADD DUP2 SWAP1 SSTORE POP POP POP JUMPDEST CALLER PUSH1 0x0 DUP2 DUP2 MSTORE PUSH1 0x6 PUSH1 0x20 SWAP1 DUP2 MSTORE PUSH1 0x40 DUP1 DUP4 KECCAK256 PUSH1 0x1 PUSH1 0x1 PUSH1 0xA0 SHL SUB DUP9 DUP2 AND DUP6 MSTORE PUSH1 0x7 DUP5 MSTORE DUP3 DUP6 KECCAK256 DUP9 DUP7 MSTORE SWAP1 SWAP4 MSTORE SWAP3 KECCAK256 SLOAD SWAP2 SWAP3 SWAP2 AND EQ PUSH2 0x10F3 JUMPI PUSH1 0x40 MLOAD PUSH3 0x461BCD PUSH1 0xE5 SHL DUP2 MSTORE PUSH1 0x20 PUSH1 0x4 DUP3 ADD MSTORE PUSH1 0x6 PUSH1 0x24 DUP3 ADD MSTORE PUSH6 0x1393D5139195 PUSH1 0xD2 SHL PUSH1 0x44 DUP3 ADD MSTORE PUSH1 0x64 ADD PUSH2 0x71B JUMP JUMPDEST DUP1 SLOAD ISZERO PUSH2 0x1138 JUMPI PUSH1 0x5 DUP2 ADD SLOAD PUSH1 0x1 LT PUSH2 0x1138 JUMPI PUSH1 0x40 MLOAD PUSH3 0x461BCD PUSH1 0xE5 SHL DUP2 MSTORE PUSH1 0x20 PUSH1 0x4 DUP3 ADD MSTORE PUSH1 0x7 PUSH1 0x24 DUP3 ADD MSTORE PUSH7 0x12D15154139195 PUSH1 0xCA SHL PUSH1 0x44 DUP3 ADD MSTORE PUSH1 0x64 ADD PUSH2 0x71B JUMP JUMPDEST PUSH2 0x1143 DUP2 DUP6 DUP6 PUSH2 0x29C4 JUMP JUMPDEST PUSH1 0x1 PUSH1 0x1 PUSH1 0xA0 SHL SUB DUP5 AND PUSH1 0x0 SWAP1 DUP2 MSTORE PUSH1 0x7 PUSH1 0x20 SWAP1 DUP2 MSTORE PUSH1 0x40 DUP1 DUP4 KECCAK256 DUP7 DUP5 MSTORE SWAP1 SWAP2 MSTORE SWAP1 KECCAK256 DUP1 SLOAD PUSH1 0x1 PUSH1 0x1 PUSH1 0xA0 SHL SUB NOT AND SWAP1 SSTORE PUSH2 0x117D CALLER PUSH2 0x28CF JUMP JUMPDEST PUSH1 0x40 MLOAD PUSH4 0x21421707 PUSH1 0xE1 SHL DUP2 MSTORE PUSH1 0x1 PUSH1 0x1 PUSH1 0xA0 SHL SUB DUP6 AND SWAP1 PUSH4 0x42842E0E SWAP1 PUSH2 0x11AD SWAP1 ADDRESS SWAP1 CALLER SWAP1 DUP9 SWAP1 PUSH1 0x4 ADD PUSH2 0x33DB JUMP JUMPDEST PUSH1 0x0 PUSH1 0x40 MLOAD DUP1 DUP4 SUB DUP2 PUSH1 0x0 DUP8 DUP1 EXTCODESIZE ISZERO DUP1 ISZERO PUSH2 0x11C7 JUMPI PUSH1 0x0 DUP1 REVERT JUMPDEST POP GAS CALL ISZERO DUP1 ISZERO PUSH2 0x11DB JUMPI RETURNDATASIZE PUSH1 0x0 DUP1 RETURNDATACOPY RETURNDATASIZE PUSH1 0x0 REVERT JUMPDEST POP POP PUSH1 0x40 MLOAD DUP6 SWAP3 POP PUSH1 0x1 PUSH1 0x1 PUSH1 0xA0 SHL SUB DUP8 AND SWAP2 POP CALLER SWAP1 PUSH32 0xBBDE41973F9CE4890F7AD9762C23D8191F261FD643BDF13ED8BBC10549B49FCB SWAP1 PUSH1 0x0 SWAP1 LOG4 POP POP PUSH2 0xBAA PUSH1 0x1 DUP1 SSTORE JUMP JUMPDEST CALLER PUSH1 0x0 SWAP1 DUP2 MSTORE PUSH1 0x2 PUSH1 0x20 MSTORE PUSH1 0x40 SWAP1 KECCAK256 SLOAD PUSH1 0xFF AND DUP1 PUSH2 0x124A JUMPI POP PUSH1 0x0 SLOAD PUSH1 0x1 PUSH1 0x1 PUSH1 0xA0 SHL SUB AND CALLER EQ JUMPDEST PUSH2 0x1266 JUMPI PUSH1 0x40 MLOAD PUSH3 0x461BCD PUSH1 0xE5 SHL DUP2 MSTORE PUSH1 0x4 ADD PUSH2 0x71B SWAP1 PUSH2 0x3370 JUMP JUMPDEST PUSH1 0x1 PUSH1 0x1 PUSH1 0xA0 SHL SUB DUP4 AND PUSH2 0x128C JUMPI PUSH1 0x40 MLOAD PUSH3 0x461BCD PUSH1 0xE5 SHL DUP2 MSTORE PUSH1 0x4 ADD PUSH2 0x71B SWAP1 PUSH2 0x33FF JUMP JUMPDEST PUSH1 0x40 MLOAD DUP1 PUSH1 0x40 ADD PUSH1 0x40 MSTORE DUP1 DUP4 ISZERO ISZERO DUP2 MSTORE PUSH1 0x20 ADD DUP3 PUSH1 0x1 DUP2 GT ISZERO PUSH2 0x12B1 JUMPI PUSH2 0x12B1 PUSH2 0x310A JUMP JUMPDEST SWAP1 MSTORE PUSH1 0x1 PUSH1 0x1 PUSH1 0xA0 SHL SUB DUP5 AND PUSH1 0x0 SWAP1 DUP2 MSTORE PUSH1 0x3 PUSH1 0x20 SWAP1 DUP2 MSTORE PUSH1 0x40 SWAP1 SWAP2 KECCAK256 DUP3 MLOAD DUP2 SLOAD SWAP1 ISZERO ISZERO PUSH1 0xFF NOT DUP3 AND DUP2 OR DUP4 SSTORE SWAP3 DUP5 ADD MLOAD SWAP2 SWAP3 DUP4 SWAP2 PUSH2 0xFF00 NOT SWAP1 SWAP2 AND PUSH2 0xFFFF NOT SWAP1 SWAP2 AND OR PUSH2 0x100 DUP4 PUSH1 0x1 DUP2 GT ISZERO PUSH2 0x130A JUMPI PUSH2 0x130A PUSH2 0x310A JUMP JUMPDEST MUL OR SWAP1 SSTORE POP SWAP1 POP POP DUP3 PUSH1 0x1 PUSH1 0x1 PUSH1 0xA0 SHL SUB AND PUSH32 0xC97A41867696F26BE26C3FAD9209E751411C759D0D344DC7EBD1A164FFECACC2 DUP4 DUP4 PUSH1 0x40 MLOAD PUSH2 0x134D SWAP3 SWAP2 SWAP1 PUSH2 0x3120 JUMP JUMPDEST PUSH1 0x40 MLOAD DUP1 SWAP2 SUB SWAP1 LOG2 POP POP POP JUMP JUMPDEST PUSH1 0x1 PUSH1 0x1 PUSH1 0xA0 SHL SUB DUP2 AND PUSH1 0x0 SWAP1 DUP2 MSTORE PUSH1 0x6 PUSH1 0x20 MSTORE PUSH1 0x40 DUP2 KECCAK256 DUP1 SLOAD PUSH1 0x5 DUP3 ADD SLOAD PUSH1 0x1 DUP4 ADD SLOAD PUSH1 0x4 DUP5 ADD SLOAD SWAP3 SWAP5 SWAP2 SWAP4 SWAP1 SWAP3 SWAP2 SWAP1 DUP2 SWAP1 DUP2 SWAP1 PUSH2 0x1398 DUP10 PUSH2 0x663 JUMP JUMPDEST SWAP4 POP PUSH2 0x13A3 DUP6 PUSH2 0x2B45 JUMP JUMPDEST SWAP3 POP PUSH2 0x13AE DUP8 PUSH2 0x2B66 JUMP JUMPDEST SWAP2 POP POP SWAP2 SWAP4 SWAP6 SWAP8 SWAP1 SWAP3 SWAP5 SWAP7 POP JUMP JUMPDEST PUSH2 0x13C4 PUSH2 0x26EA JUMP JUMPDEST PUSH1 0x1 PUSH1 0x1 PUSH1 0xA0 SHL SUB DUP2 AND PUSH2 0x1403 JUMPI PUSH1 0x40 MLOAD PUSH3 0x461BCD PUSH1 0xE5 SHL DUP2 MSTORE PUSH1 0x4 ADD PUSH2 0x71B SWAP1 PUSH1 0x20 DUP1 DUP3 MSTORE PUSH1 0x4 SWAP1 DUP3 ADD MSTORE PUSH4 0x5A45524F PUSH1 0xE0 SHL PUSH1 0x40 DUP3 ADD MSTORE PUSH1 0x60 ADD SWAP1 JUMP JUMPDEST PUSH1 0x1 PUSH1 0x1 PUSH1 0xA0 SHL SUB DUP2 AND PUSH1 0x0 SWAP1 DUP2 MSTORE PUSH1 0x2 PUSH1 0x20 MSTORE PUSH1 0x40 SWAP1 KECCAK256 SLOAD PUSH1 0xFF AND ISZERO PUSH2 0x145C JUMPI PUSH1 0x40 MLOAD PUSH3 0x461BCD PUSH1 0xE5 SHL DUP2 MSTORE PUSH1 0x20 PUSH1 0x4 DUP3 ADD MSTORE PUSH1 0xD PUSH1 0x24 DUP3 ADD MSTORE PUSH13 0x20A62922A0A22CAFA0A226A4A7 PUSH1 0x99 SHL PUSH1 0x44 DUP3 ADD MSTORE PUSH1 0x64 ADD PUSH2 0x71B JUMP JUMPDEST PUSH1 0x1 PUSH1 0x1 PUSH1 0xA0 SHL SUB DUP2 AND PUSH1 0x0 DUP2 DUP2 MSTORE PUSH1 0x2 PUSH1 0x20 MSTORE PUSH1 0x40 DUP1 DUP3 KECCAK256 DUP1 SLOAD PUSH1 0xFF NOT AND PUSH1 0x1 OR SWAP1 SSTORE MLOAD PUSH32 0x44D6D25963F097AD14F29F06854A01F575648A1EF82F30E562CCD3889717E339 SWAP2 SWAP1 LOG2 POP JUMP JUMPDEST PUSH2 0x14B0 PUSH2 0x26EA JUMP JUMPDEST PUSH2 0xD5F PUSH1 0x0 PUSH2 0x2BB4 JUMP JUMPDEST PUSH2 0x14C2 PUSH2 0x2717 JUMP JUMPDEST CALLER PUSH2 0x14CB PUSH2 0x2600 JUMP JUMPDEST PUSH1 0xA SSTORE PUSH2 0x14D6 PUSH2 0xC69 JUMP JUMPDEST PUSH1 0xB SSTORE PUSH1 0x1 PUSH1 0x1 PUSH1 0xA0 SHL SUB DUP2 AND ISZERO PUSH2 0x1586 JUMPI PUSH1 0x1 PUSH1 0x1 PUSH1 0xA0 SHL SUB DUP2 AND PUSH1 0x0 SWAP1 DUP2 MSTORE PUSH1 0x6 PUSH1 0x20 MSTORE PUSH1 0x40 DUP2 KECCAK256 PUSH1 0xA SLOAD PUSH1 0x1 DUP3 ADD SLOAD SWAP2 SWAP3 SWAP2 PUSH10 0xD3C21BCECCEDA1000000 SWAP2 PUSH2 0x1520 SWAP2 PUSH2 0x3311 JUMP JUMPDEST PUSH2 0x152A SWAP2 SWAP1 PUSH2 0x3328 JUMP JUMPDEST SWAP1 POP DUP2 PUSH1 0x2 ADD SLOAD DUP2 PUSH2 0x153C SWAP2 SWAP1 PUSH2 0x335D JUMP JUMPDEST DUP3 PUSH1 0x3 ADD PUSH1 0x0 DUP3 DUP3 SLOAD PUSH2 0x154F SWAP2 SWAP1 PUSH2 0x334A JUMP JUMPDEST SWAP1 SWAP2 SSTORE POP POP PUSH1 0xA SLOAD PUSH1 0x1 DUP4 ADD SLOAD PUSH10 0xD3C21BCECCEDA1000000 SWAP2 PUSH2 0x1571 SWAP2 PUSH2 0x3311 JUMP JUMPDEST PUSH2 0x157B SWAP2 SWAP1 PUSH2 0x3328 JUMP JUMPDEST DUP3 PUSH1 0x2 ADD DUP2 SWAP1 SSTORE POP POP POP JUMPDEST CALLER PUSH1 0x0 SWAP1 DUP2 MSTORE PUSH1 0x6 PUSH1 0x20 MSTORE PUSH1 0x40 SWAP1 KECCAK256 DUP3 PUSH2 0x15CB JUMPI PUSH1 0x40 MLOAD PUSH3 0x461BCD PUSH1 0xE5 SHL DUP2 MSTORE PUSH1 0x4 ADD PUSH2 0x71B SWAP1 PUSH1 0x20 DUP1 DUP3 MSTORE PUSH1 0x4 SWAP1 DUP3 ADD MSTORE PUSH4 0x414D543 PUSH1 0xE4 SHL PUSH1 0x40 DUP3 ADD MSTORE PUSH1 0x60 ADD SWAP1 JUMP JUMPDEST DUP1 SLOAD DUP4 GT ISZERO PUSH2 0x1604 JUMPI PUSH1 0x40 MLOAD PUSH3 0x461BCD PUSH1 0xE5 SHL DUP2 MSTORE PUSH1 0x20 PUSH1 0x4 DUP3 ADD MSTORE PUSH1 0x5 PUSH1 0x24 DUP3 ADD MSTORE PUSH5 0x5354414B45 PUSH1 0xD8 SHL PUSH1 0x44 DUP3 ADD MSTORE PUSH1 0x64 ADD PUSH2 0x71B JUMP JUMPDEST PUSH1 0x5 DUP2 ADD SLOAD PUSH1 0x1 GT ISZERO PUSH2 0x1642 JUMPI PUSH1 0x40 MLOAD PUSH3 0x461BCD PUSH1 0xE5 SHL DUP2 MSTORE PUSH1 0x20 PUSH1 0x4 DUP3 ADD MSTORE PUSH1 0x6 PUSH1 0x24 DUP3 ADD MSTORE PUSH6 0x4E4654524551 PUSH1 0xD0 SHL PUSH1 0x44 DUP3 ADD MSTORE PUSH1 0x64 ADD PUSH2 0x71B JUMP JUMPDEST PUSH2 0x164B CALLER PUSH2 0x276F JUMP JUMPDEST DUP3 DUP2 PUSH1 0x0 ADD PUSH1 0x0 DUP3 DUP3 SLOAD PUSH2 0x165F SWAP2 SWAP1 PUSH2 0x335D JUMP JUMPDEST SWAP3 POP POP DUP2 SWAP1 SSTORE POP DUP3 PUSH1 0x8 PUSH1 0x0 DUP3 DUP3 SLOAD PUSH2 0x1678 SWAP2 SWAP1 PUSH2 0x335D JUMP JUMPDEST SWAP1 SWAP2 SSTORE POP POP PUSH1 0x4 DUP2 ADD SLOAD DUP4 SWAP1 PUSH1 0x0 SWAP1 DUP2 SWAP1 PUSH2 0x1692 SWAP1 PUSH2 0x2B45 JUMP JUMPDEST ISZERO PUSH2 0x17A7 JUMPI PUSH1 0x0 PUSH2 0x2710 PUSH2 0x16A8 PUSH2 0x5DC DUP10 PUSH2 0x3311 JUMP JUMPDEST PUSH2 0x16B2 SWAP2 SWAP1 PUSH2 0x3328 JUMP JUMPDEST SWAP1 POP PUSH1 0x3 PUSH2 0x16C1 PUSH1 0x2 DUP4 PUSH2 0x3311 JUMP JUMPDEST PUSH2 0x16CB SWAP2 SWAP1 PUSH2 0x3328 JUMP JUMPDEST SWAP3 POP PUSH2 0x16D7 DUP4 DUP3 PUSH2 0x335D JUMP JUMPDEST SWAP2 POP PUSH2 0x16E3 DUP2 DUP9 PUSH2 0x335D JUMP JUMPDEST SWAP4 POP DUP3 PUSH1 0x12 PUSH1 0x0 DUP3 DUP3 SLOAD PUSH2 0x16F7 SWAP2 SWAP1 PUSH2 0x334A JUMP JUMPDEST SWAP3 POP POP DUP2 SWAP1 SSTORE POP DUP2 PUSH1 0x13 PUSH1 0x0 DUP3 DUP3 SLOAD PUSH2 0x1710 SWAP2 SWAP1 PUSH2 0x334A JUMP JUMPDEST SWAP1 SWAP2 SSTORE POP POP DUP3 ISZERO PUSH2 0x1724 JUMPI PUSH2 0x1724 DUP4 PUSH2 0x2C04 JUMP JUMPDEST DUP2 ISZERO PUSH2 0x17A5 JUMPI PUSH1 0x40 MLOAD PUSH4 0x852CD8D PUSH1 0xE3 SHL DUP2 MSTORE PUSH1 0x4 DUP2 ADD DUP4 SWAP1 MSTORE PUSH32 0x0 PUSH1 0x1 PUSH1 0x1 PUSH1 0xA0 SHL SUB AND SWAP1 PUSH4 0x42966C68 SWAP1 PUSH1 0x24 ADD PUSH1 0x0 PUSH1 0x40 MLOAD DUP1 DUP4 SUB DUP2 PUSH1 0x0 DUP8 DUP1 EXTCODESIZE ISZERO DUP1 ISZERO PUSH2 0x178C JUMPI PUSH1 0x0 DUP1 REVERT JUMPDEST POP GAS CALL ISZERO DUP1 ISZERO PUSH2 0x17A0 JUMPI RETURNDATASIZE PUSH1 0x0 DUP1 RETURNDATACOPY RETURNDATASIZE PUSH1 0x0 REVERT JUMPDEST POP POP POP POP JUMPDEST POP JUMPDEST DUP4 SLOAD PUSH1 0x0 SUB PUSH2 0x17B8 JUMPI PUSH1 0x0 PUSH1 0x4 DUP6 ADD SSTORE JUMPDEST PUSH2 0x17C1 CALLER PUSH2 0x28CF JUMP JUMPDEST PUSH2 0x17F5 PUSH1 0x1 PUSH1 0x1 PUSH1 0xA0 SHL SUB PUSH32 0x0 AND CALLER DUP6 PUSH2 0x268B JUMP JUMPDEST PUSH1 0x40 DUP1 MLOAD DUP8 DUP2 MSTORE PUSH1 0x20 DUP2 ADD DUP6 SWAP1 MSTORE SWAP1 DUP2 ADD DUP4 SWAP1 MSTORE PUSH1 0x60 DUP2 ADD DUP3 SWAP1 MSTORE CALLER SWAP1 PUSH32 0xED51A34ABF73431AEE998F69FF67CBC5BAE47A2768CC3E2EFAF79E7BA0B65F15 SWAP1 PUSH1 0x80 ADD PUSH1 0x40 MLOAD DUP1 SWAP2 SUB SWAP1 LOG2 POP POP POP POP POP PUSH2 0xFBB PUSH1 0x1 DUP1 SSTORE JUMP JUMPDEST PUSH2 0x1855 PUSH2 0x2717 JUMP JUMPDEST CALLER PUSH2 0x185E PUSH2 0x2600 JUMP JUMPDEST PUSH1 0xA SSTORE PUSH2 0x1869 PUSH2 0xC69 JUMP JUMPDEST PUSH1 0xB SSTORE PUSH1 0x1 PUSH1 0x1 PUSH1 0xA0 SHL SUB DUP2 AND ISZERO PUSH2 0x1919 JUMPI PUSH1 0x1 PUSH1 0x1 PUSH1 0xA0 SHL SUB DUP2 AND PUSH1 0x0 SWAP1 DUP2 MSTORE PUSH1 0x6 PUSH1 0x20 MSTORE PUSH1 0x40 DUP2 KECCAK256 PUSH1 0xA SLOAD PUSH1 0x1 DUP3 ADD SLOAD SWAP2 SWAP3 SWAP2 PUSH10 0xD3C21BCECCEDA1000000 SWAP2 PUSH2 0x18B3 SWAP2 PUSH2 0x3311 JUMP JUMPDEST PUSH2 0x18BD SWAP2 SWAP1 PUSH2 0x3328 JUMP JUMPDEST SWAP1 POP DUP2 PUSH1 0x2 ADD SLOAD DUP2 PUSH2 0x18CF SWAP2 SWAP1 PUSH2 0x335D JUMP JUMPDEST DUP3 PUSH1 0x3 ADD PUSH1 0x0 DUP3 DUP3 SLOAD PUSH2 0x18E2 SWAP2 SWAP1 PUSH2 0x334A JUMP JUMPDEST SWAP1 SWAP2 SSTORE POP POP PUSH1 0xA SLOAD PUSH1 0x1 DUP4 ADD SLOAD PUSH10 0xD3C21BCECCEDA1000000 SWAP2 PUSH2 0x1904 SWAP2 PUSH2 0x3311 JUMP JUMPDEST PUSH2 0x190E SWAP2 SWAP1 PUSH2 0x3328 JUMP JUMPDEST DUP3 PUSH1 0x2 ADD DUP2 SWAP1 SSTORE POP POP POP JUMPDEST PUSH2 0x1923 DUP4 DUP4 PUSH2 0x1B28 JUMP JUMPDEST PUSH2 0x1958 JUMPI PUSH1 0x40 MLOAD PUSH3 0x461BCD PUSH1 0xE5 SHL DUP2 MSTORE PUSH1 0x20 PUSH1 0x4 DUP3 ADD MSTORE PUSH1 0x6 PUSH1 0x24 DUP3 ADD MSTORE PUSH6 0x109051139195 PUSH1 0xD2 SHL PUSH1 0x44 DUP3 ADD MSTORE PUSH1 0x64 ADD PUSH2 0x71B JUMP JUMPDEST CALLER PUSH1 0x0 SWAP1 DUP2 MSTORE PUSH1 0x6 PUSH1 0x20 MSTORE PUSH1 0x40 SWAP1 KECCAK256 PUSH1 0x5 DUP2 ADD SLOAD PUSH1 0x4 GT PUSH2 0x19A4 JUMPI PUSH1 0x40 MLOAD PUSH3 0x461BCD PUSH1 0xE5 SHL DUP2 MSTORE PUSH1 0x20 PUSH1 0x4 DUP3 ADD MSTORE PUSH1 0x6 PUSH1 0x24 DUP3 ADD MSTORE PUSH6 0x135056139195 PUSH1 0xD2 SHL PUSH1 0x44 DUP3 ADD MSTORE PUSH1 0x64 ADD PUSH2 0x71B JUMP JUMPDEST PUSH1 0x1 PUSH1 0x1 PUSH1 0xA0 SHL SUB DUP5 DUP2 AND PUSH1 0x0 SWAP1 DUP2 MSTORE PUSH1 0x7 PUSH1 0x20 SWAP1 DUP2 MSTORE PUSH1 0x40 DUP1 DUP4 KECCAK256 DUP8 DUP5 MSTORE SWAP1 SWAP2 MSTORE SWAP1 KECCAK256 SLOAD AND ISZERO PUSH2 0x1A00 JUMPI PUSH1 0x40 MLOAD PUSH3 0x461BCD PUSH1 0xE5 SHL DUP2 MSTORE PUSH1 0x20 PUSH1 0x4 DUP3 ADD MSTORE PUSH1 0x6 PUSH1 0x24 DUP3 ADD MSTORE PUSH6 0x111554139195 PUSH1 0xD2 SHL PUSH1 0x44 DUP3 ADD MSTORE PUSH1 0x64 ADD PUSH2 0x71B JUMP JUMPDEST PUSH1 0x40 MLOAD PUSH4 0x21421707 PUSH1 0xE1 SHL DUP2 MSTORE PUSH1 0x1 PUSH1 0x1 PUSH1 0xA0 SHL SUB DUP6 AND SWAP1 PUSH4 0x42842E0E SWAP1 PUSH2 0x1A30 SWAP1 CALLER SWAP1 ADDRESS SWAP1 DUP9 SWAP1 PUSH1 0x4 ADD PUSH2 0x33DB JUMP JUMPDEST PUSH1 0x0 PUSH1 0x40 MLOAD DUP1 DUP4 SUB DUP2 PUSH1 0x0 DUP8 DUP1 EXTCODESIZE ISZERO DUP1 ISZERO PUSH2 0x1A4A JUMPI PUSH1 0x0 DUP1 REVERT JUMPDEST POP GAS CALL ISZERO DUP1 ISZERO PUSH2 0x1A5E JUMPI RETURNDATASIZE PUSH1 0x0 DUP1 RETURNDATACOPY RETURNDATASIZE PUSH1 0x0 REVERT JUMPDEST POP POP POP POP PUSH1 0x1 PUSH1 0x1 PUSH1 0xA0 SHL SUB DUP5 DUP2 AND PUSH1 0x0 DUP2 DUP2 MSTORE PUSH1 0x7 PUSH1 0x20 SWAP1 DUP2 MSTORE PUSH1 0x40 DUP1 DUP4 KECCAK256 DUP9 DUP5 MSTORE DUP3 MSTORE DUP1 DUP4 KECCAK256 DUP1 SLOAD CALLER PUSH1 0x1 PUSH1 0x1 PUSH1 0xA0 SHL SUB NOT SWAP2 DUP3 AND DUP2 OR SWAP1 SWAP3 SSTORE DUP3 MLOAD DUP1 DUP5 ADD SWAP1 SWAP4 MSTORE SWAP5 DUP3 MSTORE DUP2 DUP4 ADD DUP10 DUP2 MSTORE PUSH1 0x5 DUP9 ADD DUP1 SLOAD PUSH1 0x1 DUP2 DUP2 ADD DUP4 SSTORE SWAP2 DUP8 MSTORE SWAP5 SWAP1 SWAP6 KECCAK256 SWAP3 MLOAD PUSH1 0x2 SWAP1 SWAP5 MUL SWAP1 SWAP3 ADD DUP1 SLOAD SWAP1 SWAP6 AND SWAP3 SWAP1 SWAP6 AND SWAP2 SWAP1 SWAP2 OR DUP4 SSTORE MLOAD SWAP2 ADD SSTORE PUSH2 0x1AE5 SWAP1 PUSH2 0x28CF JUMP JUMPDEST PUSH1 0x40 MLOAD DUP4 SWAP1 PUSH1 0x1 PUSH1 0x1 PUSH1 0xA0 SHL SUB DUP7 AND SWAP1 CALLER SWAP1 PUSH32 0x45A0B747ADA8575B65125B2144E0DE1FF692FF4510BB94A2F9695FCAF1D2BDF3 SWAP1 PUSH1 0x0 SWAP1 LOG4 POP POP PUSH2 0xBAA PUSH1 0x1 DUP1 SSTORE JUMP JUMPDEST PUSH1 0x1 PUSH1 0x1 PUSH1 0xA0 SHL SUB DUP3 AND PUSH1 0x0 SWAP1 DUP2 MSTORE PUSH1 0x3 PUSH1 0x20 SWAP1 DUP2 MSTORE PUSH1 0x40 DUP1 DUP4 KECCAK256 DUP2 MLOAD DUP1 DUP4 ADD SWAP1 SWAP3 MSTORE DUP1 SLOAD PUSH1 0xFF DUP1 DUP3 AND ISZERO ISZERO DUP5 MSTORE DUP6 SWAP5 DUP5 ADD SWAP2 PUSH2 0x100 SWAP1 DIV AND PUSH1 0x1 DUP2 GT ISZERO PUSH2 0x1B72 JUMPI PUSH2 0x1B72 PUSH2 0x310A JUMP JUMPDEST PUSH1 0x1 DUP2 GT ISZERO PUSH2 0x1B83 JUMPI PUSH2 0x1B83 PUSH2 0x310A JUMP JUMPDEST SWAP1 MSTORE POP DUP1 MLOAD SWAP1 SWAP2 POP PUSH2 0x1B99 JUMPI PUSH1 0x0 SWAP2 POP POP PUSH2 0x1BEA JUMP JUMPDEST PUSH1 0x0 DUP2 PUSH1 0x20 ADD MLOAD PUSH1 0x1 DUP2 GT ISZERO PUSH2 0x1BB1 JUMPI PUSH2 0x1BB1 PUSH2 0x310A JUMP JUMPDEST SUB PUSH2 0x1BC0 JUMPI PUSH1 0x1 SWAP2 POP POP PUSH2 0x1BEA JUMP JUMPDEST POP POP PUSH1 0x1 PUSH1 0x1 PUSH1 0xA0 SHL SUB DUP3 AND PUSH1 0x0 SWAP1 DUP2 MSTORE PUSH1 0x4 PUSH1 0x20 SWAP1 DUP2 MSTORE PUSH1 0x40 DUP1 DUP4 KECCAK256 DUP5 DUP5 MSTORE SWAP1 SWAP2 MSTORE SWAP1 KECCAK256 SLOAD PUSH1 0xFF AND JUMPDEST SWAP3 SWAP2 POP POP JUMP JUMPDEST CALLER PUSH1 0x0 SWAP1 DUP2 MSTORE PUSH1 0x2 PUSH1 0x20 MSTORE PUSH1 0x40 SWAP1 KECCAK256 SLOAD PUSH1 0xFF AND DUP1 PUSH2 0x1C18 JUMPI POP PUSH1 0x0 SLOAD PUSH1 0x1 PUSH1 0x1 PUSH1 0xA0 SHL SUB AND CALLER EQ JUMPDEST PUSH2 0x1C34 JUMPI PUSH1 0x40 MLOAD PUSH3 0x461BCD PUSH1 0xE5 SHL DUP2 MSTORE PUSH1 0x4 ADD PUSH2 0x71B SWAP1 PUSH2 0x3370 JUMP JUMPDEST PUSH1 0x1 PUSH1 0x1 PUSH1 0xA0 SHL SUB DUP5 AND PUSH2 0x1C5A JUMPI PUSH1 0x40 MLOAD PUSH3 0x461BCD PUSH1 0xE5 SHL DUP2 MSTORE PUSH1 0x4 ADD PUSH2 0x71B SWAP1 PUSH2 0x33FF JUMP JUMPDEST PUSH1 0x0 JUMPDEST DUP3 DUP2 LT ISZERO PUSH2 0x1D2D JUMPI PUSH1 0x1 PUSH1 0x1 PUSH1 0xA0 SHL SUB DUP6 AND PUSH1 0x0 SWAP1 DUP2 MSTORE PUSH1 0x4 PUSH1 0x20 MSTORE PUSH1 0x40 DUP2 KECCAK256 DUP4 SWAP2 DUP7 DUP7 DUP6 DUP2 DUP2 LT PUSH2 0x1C91 JUMPI PUSH2 0x1C91 PUSH2 0x341D JUMP JUMPDEST SWAP1 POP PUSH1 0x20 MUL ADD CALLDATALOAD DUP2 MSTORE PUSH1 0x20 ADD SWAP1 DUP2 MSTORE PUSH1 0x20 ADD PUSH1 0x0 KECCAK256 PUSH1 0x0 PUSH2 0x100 EXP DUP2 SLOAD DUP2 PUSH1 0xFF MUL NOT AND SWAP1 DUP4 ISZERO ISZERO MUL OR SWAP1 SSTORE POP DUP4 DUP4 DUP3 DUP2 DUP2 LT PUSH2 0x1CCF JUMPI PUSH2 0x1CCF PUSH2 0x341D JUMP JUMPDEST SWAP1 POP PUSH1 0x20 MUL ADD CALLDATALOAD DUP6 PUSH1 0x1 PUSH1 0x1 PUSH1 0xA0 SHL SUB AND PUSH32 0x3929B99F1D41B1602615ACBAC6AF6C29AE6687DB3D6586D252BF82074486E31 DUP5 PUSH1 0x40 MLOAD PUSH2 0x1D13 SWAP2 ISZERO ISZERO DUP2 MSTORE PUSH1 0x20 ADD SWAP1 JUMP JUMPDEST PUSH1 0x40 MLOAD DUP1 SWAP2 SUB SWAP1 LOG3 DUP1 PUSH2 0x1D25 DUP2 PUSH2 0x3433 JUMP JUMPDEST SWAP2 POP POP PUSH2 0x1C5D JUMP JUMPDEST POP POP POP POP POP JUMP JUMPDEST PUSH2 0x1D3C PUSH2 0x2717 JUMP JUMPDEST CALLER PUSH2 0x1D45 PUSH2 0x2600 JUMP JUMPDEST PUSH1 0xA SSTORE PUSH2 0x1D50 PUSH2 0xC69 JUMP JUMPDEST PUSH1 0xB SSTORE PUSH1 0x1 PUSH1 0x1 PUSH1 0xA0 SHL SUB DUP2 AND ISZERO PUSH2 0x1E00 JUMPI PUSH1 0x1 PUSH1 0x1 PUSH1 0xA0 SHL SUB DUP2 AND PUSH1 0x0 SWAP1 DUP2 MSTORE PUSH1 0x6 PUSH1 0x20 MSTORE PUSH1 0x40 DUP2 KECCAK256 PUSH1 0xA SLOAD PUSH1 0x1 DUP3 ADD SLOAD SWAP2 SWAP3 SWAP2 PUSH10 0xD3C21BCECCEDA1000000 SWAP2 PUSH2 0x1D9A SWAP2 PUSH2 0x3311 JUMP JUMPDEST PUSH2 0x1DA4 SWAP2 SWAP1 PUSH2 0x3328 JUMP JUMPDEST SWAP1 POP DUP2 PUSH1 0x2 ADD SLOAD DUP2 PUSH2 0x1DB6 SWAP2 SWAP1 PUSH2 0x335D JUMP JUMPDEST DUP3 PUSH1 0x3 ADD PUSH1 0x0 DUP3 DUP3 SLOAD PUSH2 0x1DC9 SWAP2 SWAP1 PUSH2 0x334A JUMP JUMPDEST SWAP1 SWAP2 SSTORE POP POP PUSH1 0xA SLOAD PUSH1 0x1 DUP4 ADD SLOAD PUSH10 0xD3C21BCECCEDA1000000 SWAP2 PUSH2 0x1DEB SWAP2 PUSH2 0x3311 JUMP JUMPDEST PUSH2 0x1DF5 SWAP2 SWAP1 PUSH2 0x3328 JUMP JUMPDEST DUP3 PUSH1 0x2 ADD DUP2 SWAP1 SSTORE POP POP POP JUMPDEST CALLER PUSH1 0x0 SWAP1 DUP2 MSTORE PUSH1 0x6 PUSH1 0x20 MSTORE PUSH1 0x40 SWAP1 KECCAK256 DUP1 SLOAD ISZERO ISZERO DUP1 PUSH2 0x1E21 JUMPI POP PUSH1 0x5 DUP2 ADD SLOAD ISZERO ISZERO JUMPDEST PUSH2 0x1E55 JUMPI PUSH1 0x40 MLOAD PUSH3 0x461BCD PUSH1 0xE5 SHL DUP2 MSTORE PUSH1 0x20 PUSH1 0x4 DUP3 ADD MSTORE PUSH1 0x5 PUSH1 0x24 DUP3 ADD MSTORE PUSH5 0x4E4F504F53 PUSH1 0xD8 SHL PUSH1 0x44 DUP3 ADD MSTORE PUSH1 0x64 ADD PUSH2 0x71B JUMP JUMPDEST PUSH2 0x1E5E CALLER PUSH2 0x276F JUMP JUMPDEST DUP1 SLOAD DUP1 PUSH1 0x0 DUP1 DUP3 ISZERO PUSH2 0x1FA9 JUMPI PUSH1 0x0 DUP1 DUP7 SSTORE PUSH1 0x8 DUP1 SLOAD DUP7 SWAP3 SWAP1 PUSH2 0x1E81 SWAP1 DUP5 SWAP1 PUSH2 0x335D JUMP JUMPDEST SWAP1 SWAP2 SSTORE POP POP PUSH1 0x4 DUP6 ADD SLOAD PUSH2 0x1E94 SWAP1 PUSH2 0x2B45 JUMP JUMPDEST ISZERO PUSH2 0x1FA9 JUMPI PUSH1 0x0 PUSH2 0x2710 PUSH2 0x1EAA PUSH2 0x5DC DUP8 PUSH2 0x3311 JUMP JUMPDEST PUSH2 0x1EB4 SWAP2 SWAP1 PUSH2 0x3328 JUMP JUMPDEST SWAP1 POP PUSH1 0x3 PUSH2 0x1EC3 PUSH1 0x2 DUP4 PUSH2 0x3311 JUMP JUMPDEST PUSH2 0x1ECD SWAP2 SWAP1 PUSH2 0x3328 JUMP JUMPDEST SWAP3 POP PUSH2 0x1ED9 DUP4 DUP3 PUSH2 0x335D JUMP JUMPDEST SWAP2 POP PUSH2 0x1EE5 DUP2 DUP7 PUSH2 0x335D JUMP JUMPDEST SWAP4 POP DUP3 PUSH1 0x12 PUSH1 0x0 DUP3 DUP3 SLOAD PUSH2 0x1EF9 SWAP2 SWAP1 PUSH2 0x334A JUMP JUMPDEST SWAP3 POP POP DUP2 SWAP1 SSTORE POP DUP2 PUSH1 0x13 PUSH1 0x0 DUP3 DUP3 SLOAD PUSH2 0x1F12 SWAP2 SWAP1 PUSH2 0x334A JUMP JUMPDEST SWAP1 SWAP2 SSTORE POP POP DUP3 ISZERO PUSH2 0x1F26 JUMPI PUSH2 0x1F26 DUP4 PUSH2 0x2C04 JUMP JUMPDEST DUP2 ISZERO PUSH2 0x1FA7 JUMPI PUSH1 0x40 MLOAD PUSH4 0x852CD8D PUSH1 0xE3 SHL DUP2 MSTORE PUSH1 0x4 DUP2 ADD DUP4 SWAP1 MSTORE PUSH32 0x0 PUSH1 0x1 PUSH1 0x1 PUSH1 0xA0 SHL SUB AND SWAP1 PUSH4 0x42966C68 SWAP1 PUSH1 0x24 ADD PUSH1 0x0 PUSH1 0x40 MLOAD DUP1 DUP4 SUB DUP2 PUSH1 0x0 DUP8 DUP1 EXTCODESIZE ISZERO DUP1 ISZERO PUSH2 0x1F8E JUMPI PUSH1 0x0 DUP1 REVERT JUMPDEST POP GAS CALL ISZERO DUP1 ISZERO PUSH2 0x1FA2 JUMPI RETURNDATASIZE PUSH1 0x0 DUP1 RETURNDATACOPY RETURNDATASIZE PUSH1 0x0 REVERT JUMPDEST POP POP POP POP JUMPDEST POP JUMPDEST PUSH1 0x5 DUP6 ADD SLOAD PUSH1 0x0 DUP2 PUSH8 0xFFFFFFFFFFFFFFFF DUP2 GT ISZERO PUSH2 0x1FC9 JUMPI PUSH2 0x1FC9 PUSH2 0x344C JUMP JUMPDEST PUSH1 0x40 MLOAD SWAP1 DUP1 DUP3 MSTORE DUP1 PUSH1 0x20 MUL PUSH1 0x20 ADD DUP3 ADD PUSH1 0x40 MSTORE DUP1 ISZERO PUSH2 0x200E JUMPI DUP2 PUSH1 0x20 ADD JUMPDEST PUSH1 0x40 DUP1 MLOAD DUP1 DUP3 ADD SWAP1 SWAP2 MSTORE PUSH1 0x0 DUP1 DUP3 MSTORE PUSH1 0x20 DUP3 ADD MSTORE DUP2 MSTORE PUSH1 0x20 ADD SWAP1 PUSH1 0x1 SWAP1 SUB SWAP1 DUP2 PUSH2 0x1FE7 JUMPI SWAP1 POP JUMPDEST POP SWAP1 POP PUSH1 0x0 JUMPDEST DUP3 DUP2 LT ISZERO PUSH2 0x212C JUMPI DUP8 PUSH1 0x5 ADD DUP2 DUP2 SLOAD DUP2 LT PUSH2 0x2031 JUMPI PUSH2 0x2031 PUSH2 0x341D JUMP JUMPDEST PUSH1 0x0 SWAP2 DUP3 MSTORE PUSH1 0x20 SWAP2 DUP3 SWAP1 KECCAK256 PUSH1 0x40 DUP1 MLOAD DUP1 DUP3 ADD SWAP1 SWAP2 MSTORE PUSH1 0x2 SWAP1 SWAP3 MUL ADD DUP1 SLOAD PUSH1 0x1 PUSH1 0x1 PUSH1 0xA0 SHL SUB AND DUP3 MSTORE PUSH1 0x1 ADD SLOAD SWAP2 DUP2 ADD SWAP2 SWAP1 SWAP2 MSTORE DUP3 MLOAD DUP4 SWAP1 DUP4 SWAP1 DUP2 LT PUSH2 0x2078 JUMPI PUSH2 0x2078 PUSH2 0x341D JUMP JUMPDEST PUSH1 0x20 MUL PUSH1 0x20 ADD ADD DUP2 SWAP1 MSTORE POP PUSH1 0x0 PUSH1 0x7 PUSH1 0x0 DUP5 DUP5 DUP2 MLOAD DUP2 LT PUSH2 0x209B JUMPI PUSH2 0x209B PUSH2 0x341D JUMP JUMPDEST PUSH1 0x20 MUL PUSH1 0x20 ADD ADD MLOAD PUSH1 0x0 ADD MLOAD PUSH1 0x1 PUSH1 0x1 PUSH1 0xA0 SHL SUB AND PUSH1 0x1 PUSH1 0x1 PUSH1 0xA0 SHL SUB AND DUP2 MSTORE PUSH1 0x20 ADD SWAP1 DUP2 MSTORE PUSH1 0x20 ADD PUSH1 0x0 KECCAK256 PUSH1 0x0 DUP5 DUP5 DUP2 MLOAD DUP2 LT PUSH2 0x20DB JUMPI PUSH2 0x20DB PUSH2 0x341D JUMP JUMPDEST PUSH1 0x20 MUL PUSH1 0x20 ADD ADD MLOAD PUSH1 0x20 ADD MLOAD DUP2 MSTORE PUSH1 0x20 ADD SWAP1 DUP2 MSTORE PUSH1 0x20 ADD PUSH1 0x0 KECCAK256 PUSH1 0x0 PUSH2 0x100 EXP DUP2 SLOAD DUP2 PUSH1 0x1 PUSH1 0x1 PUSH1 0xA0 SHL SUB MUL NOT AND SWAP1 DUP4 PUSH1 0x1 PUSH1 0x1 PUSH1 0xA0 SHL SUB AND MUL OR SWAP1 SSTORE POP DUP1 DUP1 PUSH2 0x2124 SWAP1 PUSH2 0x3433 JUMP JUMPDEST SWAP2 POP POP PUSH2 0x2014 JUMP JUMPDEST POP PUSH2 0x213B PUSH1 0x5 DUP9 ADD PUSH1 0x0 PUSH2 0x2EE8 JUMP JUMPDEST PUSH1 0x0 PUSH1 0x4 DUP9 ADD SSTORE PUSH2 0x214B CALLER PUSH2 0x28CF JUMP JUMPDEST DUP5 ISZERO PUSH2 0x2185 JUMPI PUSH2 0x2185 PUSH1 0x1 PUSH1 0x1 PUSH1 0xA0 SHL SUB PUSH32 0x0 AND CALLER DUP8 PUSH2 0x268B JUMP JUMPDEST PUSH1 0x0 JUMPDEST DUP2 MLOAD DUP2 LT ISZERO PUSH2 0x22BA JUMPI DUP2 DUP2 DUP2 MLOAD DUP2 LT PUSH2 0x21A3 JUMPI PUSH2 0x21A3 PUSH2 0x341D JUMP JUMPDEST PUSH1 0x20 MUL PUSH1 0x20 ADD ADD MLOAD PUSH1 0x0 ADD MLOAD PUSH1 0x1 PUSH1 0x1 PUSH1 0xA0 SHL SUB AND PUSH4 0x42842E0E ADDRESS CALLER DUP6 DUP6 DUP2 MLOAD DUP2 LT PUSH2 0x21D1 JUMPI PUSH2 0x21D1 PUSH2 0x341D JUMP JUMPDEST PUSH1 0x20 MUL PUSH1 0x20 ADD ADD MLOAD PUSH1 0x20 ADD MLOAD PUSH1 0x40 MLOAD DUP5 PUSH4 0xFFFFFFFF AND PUSH1 0xE0 SHL DUP2 MSTORE PUSH1 0x4 ADD PUSH2 0x21FB SWAP4 SWAP3 SWAP2 SWAP1 PUSH2 0x33DB JUMP JUMPDEST PUSH1 0x0 PUSH1 0x40 MLOAD DUP1 DUP4 SUB DUP2 PUSH1 0x0 DUP8 DUP1 EXTCODESIZE ISZERO DUP1 ISZERO PUSH2 0x2215 JUMPI PUSH1 0x0 DUP1 REVERT JUMPDEST POP GAS CALL ISZERO DUP1 ISZERO PUSH2 0x2229 JUMPI RETURNDATASIZE PUSH1 0x0 DUP1 RETURNDATACOPY RETURNDATASIZE PUSH1 0x0 REVERT JUMPDEST POP POP POP POP DUP2 DUP2 DUP2 MLOAD DUP2 LT PUSH2 0x223F JUMPI PUSH2 0x223F PUSH2 0x341D JUMP JUMPDEST PUSH1 0x20 MUL PUSH1 0x20 ADD ADD MLOAD PUSH1 0x20 ADD MLOAD DUP3 DUP3 DUP2 MLOAD DUP2 LT PUSH2 0x225D JUMPI PUSH2 0x225D PUSH2 0x341D JUMP JUMPDEST PUSH1 0x20 MUL PUSH1 0x20 ADD ADD MLOAD PUSH1 0x0 ADD MLOAD PUSH1 0x1 PUSH1 0x1 PUSH1 0xA0 SHL SUB AND CALLER PUSH1 0x1 PUSH1 0x1 PUSH1 0xA0 SHL SUB AND PUSH32 0xBBDE41973F9CE4890F7AD9762C23D8191F261FD643BDF13ED8BBC10549B49FCB PUSH1 0x40 MLOAD PUSH1 0x40 MLOAD DUP1 SWAP2 SUB SWAP1 LOG4 DUP1 PUSH2 0x22B2 DUP2 PUSH2 0x3433 JUMP JUMPDEST SWAP2 POP POP PUSH2 0x2188 JUMP JUMPDEST POP PUSH1 0x40 DUP1 MLOAD DUP8 DUP2 MSTORE PUSH1 0x20 DUP2 ADD DUP8 SWAP1 MSTORE SWAP1 DUP2 ADD DUP6 SWAP1 MSTORE PUSH1 0x60 DUP2 ADD DUP5 SWAP1 MSTORE CALLER SWAP1 PUSH32 0xED51A34ABF73431AEE998F69FF67CBC5BAE47A2768CC3E2EFAF79E7BA0B65F15 SWAP1 PUSH1 0x80 ADD PUSH1 0x40 MLOAD DUP1 SWAP2 SUB SWAP1 LOG2 PUSH1 0x40 MLOAD CALLER SWAP1 PUSH32 0xAA5CFC974BD759F818E3E18A4AFC9D79DAAA0722158497792100A1FDDD13E193 SWAP1 PUSH1 0x0 SWAP1 LOG2 POP POP POP POP POP POP POP POP PUSH2 0xD5F PUSH1 0x1 DUP1 SSTORE JUMP JUMPDEST PUSH2 0x2349 PUSH2 0x26EA JUMP JUMPDEST PUSH1 0x1 PUSH1 0x1 PUSH1 0xA0 SHL SUB DUP2 AND PUSH2 0x2373 JUMPI PUSH1 0x40 MLOAD PUSH4 0x1E4FBDF7 PUSH1 0xE0 SHL DUP2 MSTORE PUSH1 0x0 PUSH1 0x4 DUP3 ADD MSTORE PUSH1 0x24 ADD PUSH2 0x71B JUMP JUMPDEST PUSH2 0xFBB DUP2 PUSH2 0x2BB4 JUMP JUMPDEST PUSH1 0x0 PUSH1 0x5 PUSH1 0x0 DUP5 DUP5 PUSH1 0x40 MLOAD PUSH2 0x2392 SWAP3 SWAP2 SWAP1 PUSH2 0x3393 JUMP JUMPDEST PUSH1 0x40 DUP1 MLOAD SWAP2 DUP3 SWAP1 SUB SWAP1 SWAP2 KECCAK256 DUP3 MSTORE PUSH1 0x20 DUP3 ADD SWAP3 SWAP1 SWAP3 MSTORE ADD PUSH1 0x0 KECCAK256 SLOAD PUSH1 0xFF AND SWAP4 SWAP3 POP POP POP JUMP JUMPDEST CALLER PUSH1 0x0 SWAP1 DUP2 MSTORE PUSH1 0x2 PUSH1 0x20 MSTORE PUSH1 0x40 SWAP1 KECCAK256 SLOAD PUSH1 0xFF AND DUP1 PUSH2 0x23DE JUMPI POP PUSH1 0x0 SLOAD PUSH1 0x1 PUSH1 0x1 PUSH1 0xA0 SHL SUB AND CALLER EQ JUMPDEST PUSH2 0x23FA JUMPI PUSH1 0x40 MLOAD PUSH3 0x461BCD PUSH1 0xE5 SHL DUP2 MSTORE PUSH1 0x4 ADD PUSH2 0x71B SWAP1 PUSH2 0x3370 JUMP JUMPDEST PUSH2 0x2402 PUSH2 0x2717 JUMP JUMPDEST PUSH1 0x1 PUSH1 0x1 PUSH1 0xA0 SHL SUB DUP4 AND PUSH2 0x2428 JUMPI PUSH1 0x40 MLOAD PUSH3 0x461BCD PUSH1 0xE5 SHL DUP2 MSTORE PUSH1 0x4 ADD PUSH2 0x71B SWAP1 PUSH2 0x33FF JUMP JUMPDEST PUSH1 0x1 PUSH1 0x1 PUSH1 0xA0 SHL SUB DUP2 AND PUSH2 0x2464 JUMPI PUSH1 0x40 MLOAD PUSH3 0x461BCD PUSH1 0xE5 SHL DUP2 MSTORE PUSH1 0x20 PUSH1 0x4 DUP3 ADD MSTORE PUSH1 0x3 PUSH1 0x24 DUP3 ADD MSTORE PUSH3 0x544F3 PUSH1 0xEC SHL PUSH1 0x44 DUP3 ADD MSTORE PUSH1 0x64 ADD PUSH2 0x71B JUMP JUMPDEST PUSH1 0x1 PUSH1 0x1 PUSH1 0xA0 SHL SUB DUP4 DUP2 AND PUSH1 0x0 SWAP1 DUP2 MSTORE PUSH1 0x7 PUSH1 0x20 SWAP1 DUP2 MSTORE PUSH1 0x40 DUP1 DUP4 KECCAK256 DUP7 DUP5 MSTORE SWAP1 SWAP2 MSTORE SWAP1 KECCAK256 SLOAD AND ISZERO PUSH2 0x24C0 JUMPI PUSH1 0x40 MLOAD PUSH3 0x461BCD PUSH1 0xE5 SHL DUP2 MSTORE PUSH1 0x20 PUSH1 0x4 DUP3 ADD MSTORE PUSH1 0x6 PUSH1 0x24 DUP3 ADD MSTORE PUSH6 0x14D51052D151 PUSH1 0xD2 SHL PUSH1 0x44 DUP3 ADD MSTORE PUSH1 0x64 ADD PUSH2 0x71B JUMP JUMPDEST PUSH1 0x40 MLOAD PUSH4 0x21421707 PUSH1 0xE1 SHL DUP2 MSTORE PUSH1 0x1 PUSH1 0x1 PUSH1 0xA0 SHL SUB DUP5 AND SWAP1 PUSH4 0x42842E0E SWAP1 PUSH2 0x24F0 SWAP1 ADDRESS SWAP1 DUP6 SWAP1 DUP8 SWAP1 PUSH1 0x4 ADD PUSH2 0x33DB JUMP JUMPDEST PUSH1 0x0 PUSH1 0x40 MLOAD DUP1 DUP4 SUB DUP2 PUSH1 0x0 DUP8 DUP1 EXTCODESIZE ISZERO DUP1 ISZERO PUSH2 0x250A JUMPI PUSH1 0x0 DUP1 REVERT JUMPDEST POP GAS CALL ISZERO DUP1 ISZERO PUSH2 0x251E JUMPI RETURNDATASIZE PUSH1 0x0 DUP1 RETURNDATACOPY RETURNDATASIZE PUSH1 0x0 REVERT JUMPDEST POP POP POP POP PUSH2 0x7DE PUSH1 0x1 DUP1 SSTORE JUMP JUMPDEST CALLER PUSH1 0x0 SWAP1 DUP2 MSTORE PUSH1 0x2 PUSH1 0x20 MSTORE PUSH1 0x40 SWAP1 KECCAK256 SLOAD PUSH1 0xFF AND DUP1 PUSH2 0x2553 JUMPI POP PUSH1 0x0 SLOAD PUSH1 0x1 PUSH1 0x1 PUSH1 0xA0 SHL SUB AND CALLER EQ JUMPDEST PUSH2 0x256F JUMPI PUSH1 0x40 MLOAD PUSH3 0x461BCD PUSH1 0xE5 SHL DUP2 MSTORE PUSH1 0x4 ADD PUSH2 0x71B SWAP1 PUSH2 0x3370 JUMP JUMPDEST PUSH1 0x1 PUSH1 0x1 PUSH1 0xA0 SHL SUB DUP4 AND PUSH2 0x2595 JUMPI PUSH1 0x40 MLOAD PUSH3 0x461BCD PUSH1 0xE5 SHL DUP2 MSTORE PUSH1 0x4 ADD PUSH2 0x71B SWAP1 PUSH2 0x33FF JUMP JUMPDEST PUSH1 0x1 PUSH1 0x1 PUSH1 0xA0 SHL SUB DUP4 AND PUSH1 0x0 DUP2 DUP2 MSTORE PUSH1 0x4 PUSH1 0x20 SWAP1 DUP2 MSTORE PUSH1 0x40 DUP1 DUP4 KECCAK256 DUP7 DUP5 MSTORE DUP3 MSTORE SWAP2 DUP3 SWAP1 KECCAK256 DUP1 SLOAD PUSH1 0xFF NOT AND DUP6 ISZERO ISZERO SWAP1 DUP2 OR SWAP1 SWAP2 SSTORE SWAP2 MLOAD SWAP2 DUP3 MSTORE DUP5 SWAP3 SWAP2 PUSH32 0x3929B99F1D41B1602615ACBAC6AF6C29AE6687DB3D6586D252BF82074486E31 SWAP2 ADD PUSH1 0x40 MLOAD DUP1 SWAP2 SUB SWAP1 LOG3 POP POP POP JUMP JUMPDEST PUSH1 0x0 PUSH1 0x9 SLOAD PUSH1 0x0 SUB PUSH2 0x2613 JUMPI POP PUSH1 0xA SLOAD SWAP1 JUMP JUMPDEST PUSH1 0x0 PUSH2 0x261D PUSH2 0xC69 JUMP JUMPDEST SWAP1 POP PUSH1 0xB SLOAD DUP2 GT PUSH2 0x2630 JUMPI POP POP PUSH1 0xA SLOAD SWAP1 JUMP JUMPDEST PUSH1 0x0 PUSH1 0xB SLOAD DUP3 PUSH2 0x2640 SWAP2 SWAP1 PUSH2 0x335D JUMP JUMPDEST SWAP1 POP PUSH1 0x0 PUSH1 0xC SLOAD DUP3 PUSH2 0x2652 SWAP2 SWAP1 PUSH2 0x3311 JUMP JUMPDEST PUSH1 0x9 SLOAD SWAP1 SWAP2 POP PUSH2 0x266C PUSH10 0xD3C21BCECCEDA1000000 DUP4 PUSH2 0x3311 JUMP JUMPDEST PUSH2 0x2676 SWAP2 SWAP1 PUSH2 0x3328 JUMP JUMPDEST PUSH1 0xA SLOAD PUSH2 0x2683 SWAP2 SWAP1 PUSH2 0x334A JUMP JUMPDEST SWAP4 POP POP POP POP SWAP1 JUMP JUMPDEST PUSH1 0x40 MLOAD PUSH1 0x1 PUSH1 0x1 PUSH1 0xA0 SHL SUB DUP4 DUP2 AND PUSH1 0x24 DUP4 ADD MSTORE PUSH1 0x44 DUP3 ADD DUP4 SWAP1 MSTORE PUSH2 0x7DE SWAP2 DUP6 SWAP2 DUP3 AND SWAP1 PUSH4 0xA9059CBB SWAP1 PUSH1 0x64 ADD JUMPDEST PUSH1 0x40 MLOAD PUSH1 0x20 DUP2 DUP4 SUB SUB DUP2 MSTORE SWAP1 PUSH1 0x40 MSTORE SWAP2 POP PUSH1 0xE0 SHL PUSH1 0x20 DUP3 ADD DUP1 MLOAD PUSH1 0x1 PUSH1 0x1 PUSH1 0xE0 SHL SUB DUP4 DUP2 DUP4 AND OR DUP4 MSTORE POP POP POP POP PUSH2 0x2D4E JUMP JUMPDEST PUSH1 0x0 SLOAD PUSH1 0x1 PUSH1 0x1 PUSH1 0xA0 SHL SUB AND CALLER EQ PUSH2 0xD5F JUMPI PUSH1 0x40 MLOAD PUSH4 0x118CDAA7 PUSH1 0xE0 SHL DUP2 MSTORE CALLER PUSH1 0x4 DUP3 ADD MSTORE PUSH1 0x24 ADD PUSH2 0x71B JUMP JUMPDEST PUSH1 0x2 PUSH1 0x1 SLOAD SUB PUSH2 0x273A JUMPI PUSH1 0x40 MLOAD PUSH4 0x3EE5AEB5 PUSH1 0xE0 SHL DUP2 MSTORE PUSH1 0x4 ADD PUSH1 0x40 MLOAD DUP1 SWAP2 SUB SWAP1 REVERT JUMPDEST PUSH1 0x2 PUSH1 0x1 SSTORE JUMP JUMPDEST PUSH2 0x2769 DUP5 DUP6 PUSH1 0x1 PUSH1 0x1 PUSH1 0xA0 SHL SUB AND PUSH4 0x23B872DD DUP7 DUP7 DUP7 PUSH1 0x40 MLOAD PUSH1 0x24 ADD PUSH2 0x26B8 SWAP4 SWAP3 SWAP2 SWAP1 PUSH2 0x33DB JUMP JUMPDEST POP POP POP POP JUMP JUMPDEST PUSH1 0x1 PUSH1 0x1 PUSH1 0xA0 SHL SUB DUP2 AND PUSH1 0x0 SWAP1 DUP2 MSTORE PUSH1 0x6 PUSH1 0x20 MSTORE PUSH1 0x40 DUP2 KECCAK256 PUSH1 0x3 DUP2 ADD SLOAD SWAP1 SWAP2 DUP2 SWAP1 SUB PUSH2 0x279A JUMPI POP POP POP JUMP JUMPDEST PUSH1 0x0 PUSH1 0x3 DUP4 ADD DUP2 SWAP1 SSTORE PUSH1 0x4 DUP4 ADD SLOAD DUP3 SWAP1 PUSH2 0x27B3 SWAP1 PUSH2 0x2B45 JUMP JUMPDEST ISZERO PUSH2 0x2806 JUMPI PUSH2 0x2710 PUSH2 0x27C7 PUSH2 0x1388 DUP6 PUSH2 0x3311 JUMP JUMPDEST PUSH2 0x27D1 SWAP2 SWAP1 PUSH2 0x3328 JUMP JUMPDEST SWAP2 POP PUSH2 0x27DD DUP3 DUP5 PUSH2 0x335D JUMP JUMPDEST SWAP1 POP DUP2 ISZERO PUSH2 0x2806 JUMPI DUP2 PUSH1 0x11 PUSH1 0x0 DUP3 DUP3 SLOAD PUSH2 0x27F7 SWAP2 SWAP1 PUSH2 0x334A JUMP JUMPDEST SWAP1 SWAP2 SSTORE POP PUSH2 0x2806 SWAP1 POP DUP3 PUSH2 0x2C04 JUMP JUMPDEST DUP1 ISZERO PUSH2 0x2858 JUMPI DUP1 PUSH1 0x10 PUSH1 0x0 DUP3 DUP3 SLOAD PUSH2 0x281E SWAP2 SWAP1 PUSH2 0x334A JUMP JUMPDEST SWAP1 SWAP2 SSTORE POP PUSH2 0x2858 SWAP1 POP PUSH1 0x1 PUSH1 0x1 PUSH1 0xA0 SHL SUB PUSH32 0x0 AND DUP7 DUP4 PUSH2 0x268B JUMP JUMPDEST PUSH10 0xD3C21BCECCEDA1000000 PUSH1 0xA SLOAD DUP6 PUSH1 0x1 ADD SLOAD PUSH2 0x2875 SWAP2 SWAP1 PUSH2 0x3311 JUMP JUMPDEST PUSH2 0x287F SWAP2 SWAP1 PUSH2 0x3328 JUMP JUMPDEST PUSH1 0x2 DUP6 ADD SSTORE PUSH1 0x40 DUP1 MLOAD DUP3 DUP2 MSTORE PUSH1 0x20 DUP2 ADD DUP5 SWAP1 MSTORE PUSH1 0x1 PUSH1 0x1 PUSH1 0xA0 SHL SUB DUP8 AND SWAP2 PUSH32 0xD6F2C8500DF5B44F11E9E48B91FF9F1B9D81BC496D55570C2B1B75BF65243F51 SWAP2 ADD PUSH1 0x40 MLOAD DUP1 SWAP2 SUB SWAP1 LOG2 POP POP POP POP POP JUMP JUMPDEST PUSH1 0x1 PUSH1 0x1 PUSH1 0xA0 SHL SUB DUP2 AND PUSH1 0x0 SWAP1 DUP2 MSTORE PUSH1 0x6 PUSH1 0x20 MSTORE PUSH1 0x40 DUP2 KECCAK256 PUSH1 0x1 DUP2 ADD SLOAD DUP2 SLOAD SWAP2 SWAP3 SWAP1 SWAP2 ISZERO DUP1 ISZERO SWAP1 PUSH2 0x2905 JUMPI POP PUSH1 0x5 DUP4 ADD SLOAD PUSH1 0x1 GT ISZERO JUMPDEST ISZERO PUSH2 0x2935 JUMPI PUSH1 0x5 DUP4 ADD SLOAD PUSH2 0x2710 SWAP1 PUSH2 0x291C SWAP1 PUSH2 0x2B66 JUMP JUMPDEST DUP5 SLOAD PUSH2 0x2928 SWAP2 SWAP1 PUSH2 0x3311 JUMP JUMPDEST PUSH2 0x2932 SWAP2 SWAP1 PUSH2 0x3328 JUMP JUMPDEST SWAP1 POP JUMPDEST DUP2 DUP2 GT ISZERO PUSH2 0x2963 JUMPI PUSH2 0x2947 DUP3 DUP3 PUSH2 0x335D JUMP JUMPDEST PUSH1 0x9 PUSH1 0x0 DUP3 DUP3 SLOAD PUSH2 0x2958 SWAP2 SWAP1 PUSH2 0x334A JUMP JUMPDEST SWAP1 SWAP2 SSTORE POP PUSH2 0x298C SWAP1 POP JUMP JUMPDEST DUP1 DUP3 GT ISZERO PUSH2 0x298C JUMPI PUSH2 0x2975 DUP2 DUP4 PUSH2 0x335D JUMP JUMPDEST PUSH1 0x9 PUSH1 0x0 DUP3 DUP3 SLOAD PUSH2 0x2986 SWAP2 SWAP1 PUSH2 0x335D JUMP JUMPDEST SWAP1 SWAP2 SSTORE POP POP JUMPDEST PUSH1 0x1 DUP4 ADD DUP2 SWAP1 SSTORE PUSH1 0xA SLOAD PUSH10 0xD3C21BCECCEDA1000000 SWAP1 PUSH2 0x29AC SWAP1 DUP4 PUSH2 0x3311 JUMP JUMPDEST PUSH2 0x29B6 SWAP2 SWAP1 PUSH2 0x3328 JUMP JUMPDEST DUP4 PUSH1 0x2 ADD DUP2 SWAP1 SSTORE POP POP POP POP POP JUMP JUMPDEST PUSH1 0x5 DUP4 ADD SLOAD PUSH1 0x0 JUMPDEST DUP2 DUP2 LT ISZERO PUSH2 0x2B13 JUMPI DUP4 PUSH1 0x1 PUSH1 0x1 PUSH1 0xA0 SHL SUB AND DUP6 PUSH1 0x5 ADD DUP3 DUP2 SLOAD DUP2 LT PUSH2 0x29F3 JUMPI PUSH2 0x29F3 PUSH2 0x341D JUMP JUMPDEST PUSH1 0x0 SWAP2 DUP3 MSTORE PUSH1 0x20 SWAP1 SWAP2 KECCAK256 PUSH1 0x2 SWAP1 SWAP2 MUL ADD SLOAD PUSH1 0x1 PUSH1 0x1 PUSH1 0xA0 SHL SUB AND EQ DUP1 ISZERO PUSH2 0x2A3F JUMPI POP DUP3 DUP6 PUSH1 0x5 ADD DUP3 DUP2 SLOAD DUP2 LT PUSH2 0x2A2B JUMPI PUSH2 0x2A2B PUSH2 0x341D JUMP JUMPDEST SWAP1 PUSH1 0x0 MSTORE PUSH1 0x20 PUSH1 0x0 KECCAK256 SWAP1 PUSH1 0x2 MUL ADD PUSH1 0x1 ADD SLOAD EQ JUMPDEST ISZERO PUSH2 0x2B01 JUMPI PUSH1 0x5 DUP6 ADD PUSH2 0x2A53 PUSH1 0x1 DUP5 PUSH2 0x335D JUMP JUMPDEST DUP2 SLOAD DUP2 LT PUSH2 0x2A63 JUMPI PUSH2 0x2A63 PUSH2 0x341D JUMP JUMPDEST SWAP1 PUSH1 0x0 MSTORE PUSH1 0x20 PUSH1 0x0 KECCAK256 SWAP1 PUSH1 0x2 MUL ADD DUP6 PUSH1 0x5 ADD DUP3 DUP2 SLOAD DUP2 LT PUSH2 0x2A86 JUMPI PUSH2 0x2A86 PUSH2 0x341D JUMP JUMPDEST PUSH1 0x0 SWAP2 DUP3 MSTORE PUSH1 0x20 SWAP1 SWAP2 KECCAK256 DUP3 SLOAD PUSH1 0x2 SWAP1 SWAP3 MUL ADD DUP1 SLOAD PUSH1 0x1 PUSH1 0x1 PUSH1 0xA0 SHL SUB NOT AND PUSH1 0x1 PUSH1 0x1 PUSH1 0xA0 SHL SUB SWAP1 SWAP3 AND SWAP2 SWAP1 SWAP2 OR DUP2 SSTORE PUSH1 0x1 SWAP2 DUP3 ADD SLOAD SWAP2 ADD SSTORE PUSH1 0x5 DUP6 ADD DUP1 SLOAD DUP1 PUSH2 0x2AD1 JUMPI PUSH2 0x2AD1 PUSH2 0x3462 JUMP JUMPDEST PUSH1 0x0 DUP3 DUP2 MSTORE PUSH1 0x20 DUP2 KECCAK256 PUSH1 0x2 PUSH1 0x0 NOT SWAP1 SWAP4 ADD SWAP3 DUP4 MUL ADD DUP1 SLOAD PUSH1 0x1 PUSH1 0x1 PUSH1 0xA0 SHL SUB NOT AND DUP2 SSTORE PUSH1 0x1 ADD SSTORE SWAP1 SSTORE POP POP POP POP POP JUMP JUMPDEST DUP1 PUSH2 0x2B0B DUP2 PUSH2 0x3433 JUMP JUMPDEST SWAP2 POP POP PUSH2 0x29CC JUMP JUMPDEST POP PUSH1 0x40 MLOAD PUSH3 0x461BCD PUSH1 0xE5 SHL DUP2 MSTORE PUSH1 0x20 PUSH1 0x4 DUP3 ADD MSTORE PUSH1 0x6 PUSH1 0x24 DUP3 ADD MSTORE PUSH6 0x1393D7D39195 PUSH1 0xD2 SHL PUSH1 0x44 DUP3 ADD MSTORE PUSH1 0x64 ADD PUSH2 0x71B JUMP JUMPDEST PUSH1 0x0 DUP2 ISZERO DUP1 ISZERO SWAP1 PUSH2 0x1BEA JUMPI POP PUSH2 0x2B5E PUSH3 0x4F1A00 DUP4 PUSH2 0x334A JUMP JUMPDEST TIMESTAMP LT SWAP3 SWAP2 POP POP JUMP JUMPDEST PUSH1 0x0 DUP2 PUSH1 0x1 SUB PUSH2 0x2B79 JUMPI POP PUSH2 0x2710 SWAP2 SWAP1 POP JUMP JUMPDEST DUP2 PUSH1 0x2 SUB PUSH2 0x2B8A JUMPI POP PUSH2 0x2AF8 SWAP2 SWAP1 POP JUMP JUMPDEST DUP2 PUSH1 0x3 SUB PUSH2 0x2B9B JUMPI POP PUSH2 0x2EE0 SWAP2 SWAP1 POP JUMP JUMPDEST DUP2 PUSH1 0x4 SUB PUSH2 0x2BAC JUMPI POP PUSH2 0x32C8 SWAP2 SWAP1 POP JUMP JUMPDEST POP PUSH1 0x0 SWAP2 SWAP1 POP JUMP JUMPDEST PUSH1 0x0 DUP1 SLOAD PUSH1 0x1 PUSH1 0x1 PUSH1 0xA0 SHL SUB DUP4 DUP2 AND PUSH1 0x1 PUSH1 0x1 PUSH1 0xA0 SHL SUB NOT DUP4 AND DUP2 OR DUP5 SSTORE PUSH1 0x40 MLOAD SWAP2 SWAP1 SWAP3 AND SWAP3 DUP4 SWAP2 PUSH32 0x8BE0079C531659141344CD1FD0A4F28419497F9722A3DAAFE3B4186F6B6457E0 SWAP2 SWAP1 LOG3 POP POP JUMP JUMPDEST DUP1 PUSH1 0x0 SUB PUSH2 0x2C0F JUMPI POP JUMP JUMPDEST PUSH1 0xD SLOAD NUMBER LT ISZERO DUP1 PUSH2 0x2C20 JUMPI POP PUSH1 0xC SLOAD ISZERO JUMPDEST ISZERO PUSH2 0x2C78 JUMPI DUP1 PUSH1 0xE PUSH1 0x0 DUP3 DUP3 SLOAD PUSH2 0x2C37 SWAP2 SWAP1 PUSH2 0x334A JUMP JUMPDEST SWAP1 SWAP2 SSTORE POP POP PUSH1 0x40 DUP1 MLOAD DUP3 DUP2 MSTORE PUSH1 0x1 PUSH1 0x20 DUP3 ADD MSTORE PUSH32 0xB83B89C23226BAF08AB339FFF4525164D413E7D9F816D2E208B4F37A8B11D9A5 SWAP2 ADD PUSH1 0x40 MLOAD DUP1 SWAP2 SUB SWAP1 LOG1 POP JUMP JUMPDEST PUSH1 0x0 NUMBER PUSH1 0xD SLOAD PUSH2 0x2C88 SWAP2 SWAP1 PUSH2 0x335D JUMP JUMPDEST SWAP1 POP DUP1 PUSH1 0x0 SUB PUSH2 0x2CE6 JUMPI DUP2 PUSH1 0xE PUSH1 0x0 DUP3 DUP3 SLOAD PUSH2 0x2CA4 SWAP2 SWAP1 PUSH2 0x334A JUMP JUMPDEST SWAP1 SWAP2 SSTORE POP POP PUSH1 0x40 DUP1 MLOAD DUP4 DUP2 MSTORE PUSH1 0x1 PUSH1 0x20 DUP3 ADD MSTORE PUSH32 0xB83B89C23226BAF08AB339FFF4525164D413E7D9F816D2E208B4F37A8B11D9A5 SWAP2 ADD PUSH1 0x40 MLOAD DUP1 SWAP2 SUB SWAP1 LOG1 POP POP JUMP JUMPDEST PUSH1 0x0 PUSH1 0xC SLOAD DUP3 PUSH2 0x2CF6 SWAP2 SWAP1 PUSH2 0x3311 JUMP JUMPDEST SWAP1 POP DUP2 PUSH2 0x2D03 DUP5 DUP4 PUSH2 0x334A JUMP JUMPDEST PUSH2 0x2D0D SWAP2 SWAP1 PUSH2 0x3328 JUMP JUMPDEST PUSH1 0xC SSTORE PUSH1 0x40 DUP1 MLOAD DUP5 DUP2 MSTORE PUSH1 0x0 PUSH1 0x20 DUP3 ADD MSTORE PUSH32 0xB83B89C23226BAF08AB339FFF4525164D413E7D9F816D2E208B4F37A8B11D9A5 SWAP2 ADD PUSH1 0x40 MLOAD DUP1 SWAP2 SUB SWAP1 LOG1 POP POP POP JUMP JUMPDEST PUSH1 0x0 PUSH2 0x2D63 PUSH1 0x1 PUSH1 0x1 PUSH1 0xA0 SHL SUB DUP5 AND DUP4 PUSH2 0x2DB1 JUMP JUMPDEST SWAP1 POP DUP1 MLOAD PUSH1 0x0 EQ ISZERO DUP1 ISZERO PUSH2 0x2D88 JUMPI POP DUP1 DUP1 PUSH1 0x20 ADD SWAP1 MLOAD DUP2 ADD SWAP1 PUSH2 0x2D86 SWAP2 SWAP1 PUSH2 0x3478 JUMP JUMPDEST ISZERO JUMPDEST ISZERO PUSH2 0x7DE JUMPI PUSH1 0x40 MLOAD PUSH4 0x5274AFE7 PUSH1 0xE0 SHL DUP2 MSTORE PUSH1 0x1 PUSH1 0x1 PUSH1 0xA0 SHL SUB DUP5 AND PUSH1 0x4 DUP3 ADD MSTORE PUSH1 0x24 ADD PUSH2 0x71B JUMP JUMPDEST PUSH1 0x60 PUSH2 0x2DBF DUP4 DUP4 PUSH1 0x0 PUSH2 0x2DC6 JUMP JUMPDEST SWAP4 SWAP3 POP POP POP JUMP JUMPDEST PUSH1 0x60 DUP2 SELFBALANCE LT ISZERO PUSH2 0x2DEB JUMPI PUSH1 0x40 MLOAD PUSH4 0xCD786059 PUSH1 0xE0 SHL DUP2 MSTORE ADDRESS PUSH1 0x4 DUP3 ADD MSTORE PUSH1 0x24 ADD PUSH2 0x71B JUMP JUMPDEST PUSH1 0x0 DUP1 DUP6 PUSH1 0x1 PUSH1 0x1 PUSH1 0xA0 SHL SUB AND DUP5 DUP7 PUSH1 0x40 MLOAD PUSH2 0x2E07 SWAP2 SWAP1 PUSH2 0x3495 JUMP JUMPDEST PUSH1 0x0 PUSH1 0x40 MLOAD DUP1 DUP4 SUB DUP2 DUP6 DUP8 GAS CALL SWAP3 POP POP POP RETURNDATASIZE DUP1 PUSH1 0x0 DUP2 EQ PUSH2 0x2E44 JUMPI PUSH1 0x40 MLOAD SWAP2 POP PUSH1 0x1F NOT PUSH1 0x3F RETURNDATASIZE ADD AND DUP3 ADD PUSH1 0x40 MSTORE RETURNDATASIZE DUP3 MSTORE RETURNDATASIZE PUSH1 0x0 PUSH1 0x20 DUP5 ADD RETURNDATACOPY PUSH2 0x2E49 JUMP JUMPDEST PUSH1 0x60 SWAP2 POP JUMPDEST POP SWAP2 POP SWAP2 POP PUSH2 0x2E59 DUP7 DUP4 DUP4 PUSH2 0x2E63 JUMP JUMPDEST SWAP7 SWAP6 POP POP POP POP POP POP JUMP JUMPDEST PUSH1 0x60 DUP3 PUSH2 0x2E78 JUMPI PUSH2 0x2E73 DUP3 PUSH2 0x2EBF JUMP JUMPDEST PUSH2 0x2DBF JUMP JUMPDEST DUP2 MLOAD ISZERO DUP1 ISZERO PUSH2 0x2E8F JUMPI POP PUSH1 0x1 PUSH1 0x1 PUSH1 0xA0 SHL SUB DUP5 AND EXTCODESIZE ISZERO JUMPDEST ISZERO PUSH2 0x2EB8 JUMPI PUSH1 0x40 MLOAD PUSH4 0x9996B315 PUSH1 0xE0 SHL DUP2 MSTORE PUSH1 0x1 PUSH1 0x1 PUSH1 0xA0 SHL SUB DUP6 AND PUSH1 0x4 DUP3 ADD MSTORE PUSH1 0x24 ADD PUSH2 0x71B JUMP JUMPDEST POP DUP1 PUSH2 0x2DBF JUMP JUMPDEST DUP1 MLOAD ISZERO PUSH2 0x2ECF JUMPI DUP1 MLOAD DUP1 DUP3 PUSH1 0x20 ADD REVERT JUMPDEST PUSH1 0x40 MLOAD PUSH4 0xA12F521 PUSH1 0xE1 SHL DUP2 MSTORE PUSH1 0x4 ADD PUSH1 0x40 MLOAD DUP1 SWAP2 SUB SWAP1 REVERT JUMPDEST POP DUP1 SLOAD PUSH1 0x0 DUP3 SSTORE PUSH1 0x2 MUL SWAP1 PUSH1 0x0 MSTORE PUSH1 0x20 PUSH1 0x0 KECCAK256 SWAP1 DUP2 ADD SWAP1 PUSH2 0xFBB SWAP2 SWAP1 JUMPDEST DUP1 DUP3 GT ISZERO PUSH2 0x2F2A JUMPI DUP1 SLOAD PUSH1 0x1 PUSH1 0x1 PUSH1 0xA0 SHL SUB NOT AND DUP2 SSTORE PUSH1 0x0 PUSH1 0x1 DUP3 ADD SSTORE PUSH1 0x2 ADD PUSH2 0x2F05 JUMP JUMPDEST POP SWAP1 JUMP JUMPDEST DUP1 CALLDATALOAD PUSH1 0x1 PUSH1 0x1 PUSH1 0xA0 SHL SUB DUP2 AND DUP2 EQ PUSH2 0x2F45 JUMPI PUSH1 0x0 DUP1 REVERT JUMPDEST SWAP2 SWAP1 POP JUMP JUMPDEST PUSH1 0x0 PUSH1 0x20 DUP3 DUP5 SUB SLT ISZERO PUSH2 0x2F5C JUMPI PUSH1 0x0 DUP1 REVERT JUMPDEST PUSH2 0x2DBF DUP3 PUSH2 0x2F2E JUMP JUMPDEST PUSH1 0x0 DUP1 PUSH1 0x0 PUSH1 0x60 DUP5 DUP7 SUB SLT ISZERO PUSH2 0x2F7A JUMPI PUSH1 0x0 DUP1 REVERT JUMPDEST PUSH2 0x2F83 DUP5 PUSH2 0x2F2E JUMP JUMPDEST SWAP3 POP PUSH2 0x2F91 PUSH1 0x20 DUP6 ADD PUSH2 0x2F2E JUMP JUMPDEST SWAP2 POP PUSH1 0x40 DUP5 ADD CALLDATALOAD SWAP1 POP SWAP3 POP SWAP3 POP SWAP3 JUMP JUMPDEST PUSH1 0x0 DUP1 DUP4 PUSH1 0x1F DUP5 ADD SLT PUSH2 0x2FB3 JUMPI PUSH1 0x0 DUP1 REVERT JUMPDEST POP DUP2 CALLDATALOAD PUSH8 0xFFFFFFFFFFFFFFFF DUP2 GT ISZERO PUSH2 0x2FCB JUMPI PUSH1 0x0 DUP1 REVERT JUMPDEST PUSH1 0x20 DUP4 ADD SWAP2 POP DUP4 PUSH1 0x20 DUP3 DUP6 ADD ADD GT ISZERO PUSH2 0x2FE3 JUMPI PUSH1 0x0 DUP1 REVERT JUMPDEST SWAP3 POP SWAP3 SWAP1 POP JUMP JUMPDEST PUSH1 0x0 DUP1 PUSH1 0x0 DUP1 PUSH1 0x0 PUSH1 0x80 DUP7 DUP9 SUB SLT ISZERO PUSH2 0x3002 JUMPI PUSH1 0x0 DUP1 REVERT JUMPDEST PUSH2 0x300B DUP7 PUSH2 0x2F2E JUMP JUMPDEST SWAP5 POP PUSH2 0x3019 PUSH1 0x20 DUP8 ADD PUSH2 0x2F2E JUMP JUMPDEST SWAP4 POP PUSH1 0x40 DUP7 ADD CALLDATALOAD SWAP3 POP PUSH1 0x60 DUP7 ADD CALLDATALOAD PUSH8 0xFFFFFFFFFFFFFFFF DUP2 GT ISZERO PUSH2 0x303C JUMPI PUSH1 0x0 DUP1 REVERT JUMPDEST PUSH2 0x3048 DUP9 DUP3 DUP10 ADD PUSH2 0x2FA1 JUMP JUMPDEST SWAP7 SWAP10 SWAP6 SWAP9 POP SWAP4 SWAP7 POP SWAP3 SWAP5 SWAP4 SWAP3 POP POP POP JUMP JUMPDEST PUSH1 0x0 DUP1 PUSH1 0x40 DUP4 DUP6 SUB SLT ISZERO PUSH2 0x306C JUMPI PUSH1 0x0 DUP1 REVERT JUMPDEST POP POP DUP1 CALLDATALOAD SWAP3 PUSH1 0x20 SWAP1 SWAP2 ADD CALLDATALOAD SWAP2 POP JUMP JUMPDEST PUSH1 0x0 DUP1 PUSH1 0x40 DUP4 DUP6 SUB SLT ISZERO PUSH2 0x308E JUMPI PUSH1 0x0 DUP1 REVERT JUMPDEST PUSH2 0x3097 DUP4 PUSH2 0x2F2E JUMP JUMPDEST SWAP5 PUSH1 0x20 SWAP4 SWAP1 SWAP4 ADD CALLDATALOAD SWAP4 POP POP POP JUMP JUMPDEST DUP1 ISZERO ISZERO DUP2 EQ PUSH2 0xFBB JUMPI PUSH1 0x0 DUP1 REVERT JUMPDEST PUSH1 0x0 DUP1 PUSH1 0x0 PUSH1 0x40 DUP5 DUP7 SUB SLT ISZERO PUSH2 0x30C8 JUMPI PUSH1 0x0 DUP1 REVERT JUMPDEST DUP4 CALLDATALOAD PUSH8 0xFFFFFFFFFFFFFFFF DUP2 GT ISZERO PUSH2 0x30DF JUMPI PUSH1 0x0 DUP1 REVERT JUMPDEST PUSH2 0x30EB DUP7 DUP3 DUP8 ADD PUSH2 0x2FA1 JUMP JUMPDEST SWAP1 SWAP5 POP SWAP3 POP POP PUSH1 0x20 DUP5 ADD CALLDATALOAD PUSH2 0x30FF DUP2 PUSH2 0x30A5 JUMP JUMPDEST DUP1 SWAP2 POP POP SWAP3 POP SWAP3 POP SWAP3 JUMP JUMPDEST PUSH4 0x4E487B71 PUSH1 0xE0 SHL PUSH1 0x0 MSTORE PUSH1 0x21 PUSH1 0x4 MSTORE PUSH1 0x24 PUSH1 0x0 REVERT JUMPDEST DUP3 ISZERO ISZERO DUP2 MSTORE PUSH1 0x40 DUP2 ADD PUSH1 0x2 DUP4 LT PUSH2 0x3147 JUMPI PUSH4 0x4E487B71 PUSH1 0xE0 SHL PUSH1 0x0 MSTORE PUSH1 0x21 PUSH1 0x4 MSTORE PUSH1 0x24 PUSH1 0x0 REVERT JUMPDEST DUP3 PUSH1 0x20 DUP4 ADD MSTORE SWAP4 SWAP3 POP POP POP JUMP JUMPDEST PUSH1 0x0 PUSH1 0x20 DUP3 DUP5 SUB SLT ISZERO PUSH2 0x3166 JUMPI PUSH1 0x0 DUP1 REVERT JUMPDEST POP CALLDATALOAD SWAP2 SWAP1 POP JUMP JUMPDEST PUSH1 0x0 DUP1 PUSH1 0x0 PUSH1 0x60 DUP5 DUP7 SUB SLT ISZERO PUSH2 0x3182 JUMPI PUSH1 0x0 DUP1 REVERT JUMPDEST PUSH2 0x318B DUP5 PUSH2 0x2F2E JUMP JUMPDEST SWAP3 POP PUSH1 0x20 DUP5 ADD CALLDATALOAD PUSH2 0x319B DUP2 PUSH2 0x30A5 JUMP JUMPDEST SWAP2 POP PUSH1 0x40 DUP5 ADD CALLDATALOAD PUSH1 0x2 DUP2 LT PUSH2 0x30FF JUMPI PUSH1 0x0 DUP1 REVERT JUMPDEST PUSH1 0x0 DUP1 PUSH1 0x0 DUP1 PUSH1 0x60 DUP6 DUP8 SUB SLT ISZERO PUSH2 0x31C5 JUMPI PUSH1 0x0 DUP1 REVERT JUMPDEST PUSH2 0x31CE DUP6 PUSH2 0x2F2E JUMP JUMPDEST SWAP4 POP PUSH1 0x20 DUP6 ADD CALLDATALOAD PUSH8 0xFFFFFFFFFFFFFFFF DUP1 DUP3 GT ISZERO PUSH2 0x31EB JUMPI PUSH1 0x0 DUP1 REVERT JUMPDEST DUP2 DUP8 ADD SWAP2 POP DUP8 PUSH1 0x1F DUP4 ADD SLT PUSH2 0x31FF JUMPI PUSH1 0x0 DUP1 REVERT JUMPDEST DUP2 CALLDATALOAD DUP2 DUP2 GT ISZERO PUSH2 0x320E JUMPI PUSH1 0x0 DUP1 REVERT JUMPDEST DUP9 PUSH1 0x20 DUP3 PUSH1 0x5 SHL DUP6 ADD ADD GT ISZERO PUSH2 0x3223 JUMPI PUSH1 0x0 DUP1 REVERT JUMPDEST PUSH1 0x20 DUP4 ADD SWAP6 POP DUP1 SWAP5 POP POP POP POP PUSH1 0x40 DUP6 ADD CALLDATALOAD PUSH2 0x323D DUP2 PUSH2 0x30A5 JUMP JUMPDEST SWAP4 SWAP7 SWAP3 SWAP6 POP SWAP1 SWAP4 POP POP JUMP JUMPDEST PUSH1 0x0 DUP1 PUSH1 0x20 DUP4 DUP6 SUB SLT ISZERO PUSH2 0x325B JUMPI PUSH1 0x0 DUP1 REVERT JUMPDEST DUP3 CALLDATALOAD PUSH8 0xFFFFFFFFFFFFFFFF DUP2 GT ISZERO PUSH2 0x3272 JUMPI PUSH1 0x0 DUP1 REVERT JUMPDEST PUSH2 0x327E DUP6 DUP3 DUP7 ADD PUSH2 0x2FA1 JUMP JUMPDEST SWAP1 SWAP7 SWAP1 SWAP6 POP SWAP4 POP POP POP POP JUMP JUMPDEST PUSH1 0x0 DUP1 PUSH1 0x0 PUSH1 0x60 DUP5 DUP7 SUB SLT ISZERO PUSH2 0x329F JUMPI PUSH1 0x0 DUP1 REVERT JUMPDEST PUSH2 0x32A8 DUP5 PUSH2 0x2F2E JUMP JUMPDEST SWAP3 POP PUSH1 0x20 DUP5 ADD CALLDATALOAD SWAP2 POP PUSH2 0x32BD PUSH1 0x40 DUP6 ADD PUSH2 0x2F2E JUMP JUMPDEST SWAP1 POP SWAP3 POP SWAP3 POP SWAP3 JUMP JUMPDEST PUSH1 0x0 DUP1 PUSH1 0x0 PUSH1 0x60 DUP5 DUP7 SUB SLT ISZERO PUSH2 0x32DB JUMPI PUSH1 0x0 DUP1 REVERT JUMPDEST PUSH2 0x32E4 DUP5 PUSH2 0x2F2E JUMP JUMPDEST SWAP3 POP PUSH1 0x20 DUP5 ADD CALLDATALOAD SWAP2 POP PUSH1 0x40 DUP5 ADD CALLDATALOAD PUSH2 0x30FF DUP2 PUSH2 0x30A5 JUMP JUMPDEST PUSH4 0x4E487B71 PUSH1 0xE0 SHL PUSH1 0x0 MSTORE PUSH1 0x11 PUSH1 0x4 MSTORE PUSH1 0x24 PUSH1 0x0 REVERT JUMPDEST DUP1 DUP3 MUL DUP2 ISZERO DUP3 DUP3 DIV DUP5 EQ OR PUSH2 0x1BEA JUMPI PUSH2 0x1BEA PUSH2 0x32FB JUMP JUMPDEST PUSH1 0x0 DUP3 PUSH2 0x3345 JUMPI PUSH4 0x4E487B71 PUSH1 0xE0 SHL PUSH1 0x0 MSTORE PUSH1 0x12 PUSH1 0x4 MSTORE PUSH1 0x24 PUSH1 0x0 REVERT JUMPDEST POP DIV SWAP1 JUMP JUMPDEST DUP1 DUP3 ADD DUP1 DUP3 GT ISZERO PUSH2 0x1BEA JUMPI PUSH2 0x1BEA PUSH2 0x32FB JUMP JUMPDEST DUP2 DUP2 SUB DUP2 DUP2 GT ISZERO PUSH2 0x1BEA JUMPI PUSH2 0x1BEA PUSH2 0x32FB JUMP JUMPDEST PUSH1 0x20 DUP1 DUP3 MSTORE PUSH1 0x9 SWAP1 DUP3 ADD MSTORE PUSH9 0x2737BA1030B236B4B7 PUSH1 0xB9 SHL PUSH1 0x40 DUP3 ADD MSTORE PUSH1 0x60 ADD SWAP1 JUMP JUMPDEST DUP2 DUP4 DUP3 CALLDATACOPY PUSH1 0x0 SWAP2 ADD SWAP1 DUP2 MSTORE SWAP2 SWAP1 POP JUMP JUMPDEST PUSH1 0x40 DUP2 MSTORE DUP3 PUSH1 0x40 DUP3 ADD MSTORE DUP3 DUP5 PUSH1 0x60 DUP4 ADD CALLDATACOPY PUSH1 0x0 PUSH1 0x60 DUP5 DUP4 ADD DUP2 ADD SWAP2 SWAP1 SWAP2 MSTORE SWAP2 ISZERO ISZERO PUSH1 0x20 DUP3 ADD MSTORE PUSH1 0x1F SWAP1 SWAP3 ADD PUSH1 0x1F NOT AND SWAP1 SWAP2 ADD ADD SWAP2 SWAP1 POP JUMP JUMPDEST PUSH1 0x1 PUSH1 0x1 PUSH1 0xA0 SHL SUB SWAP4 DUP5 AND DUP2 MSTORE SWAP2 SWAP1 SWAP3 AND PUSH1 0x20 DUP3 ADD MSTORE PUSH1 0x40 DUP2 ADD SWAP2 SWAP1 SWAP2 MSTORE PUSH1 0x60 ADD SWAP1 JUMP JUMPDEST PUSH1 0x20 DUP1 DUP3 MSTORE PUSH1 0x4 SWAP1 DUP3 ADD MSTORE PUSH4 0x434F4C3 PUSH1 0xE4 SHL PUSH1 0x40 DUP3 ADD MSTORE PUSH1 0x60 ADD SWAP1 JUMP JUMPDEST PUSH4 0x4E487B71 PUSH1 0xE0 SHL PUSH1 0x0 MSTORE PUSH1 0x32 PUSH1 0x4 MSTORE PUSH1 0x24 PUSH1 0x0 REVERT JUMPDEST PUSH1 0x0 PUSH1 0x1 DUP3 ADD PUSH2 0x3445 JUMPI PUSH2 0x3445 PUSH2 0x32FB JUMP JUMPDEST POP PUSH1 0x1 ADD SWAP1 JUMP JUMPDEST PUSH4 0x4E487B71 PUSH1 0xE0 SHL PUSH1 0x0 MSTORE PUSH1 0x41 PUSH1 0x4 MSTORE PUSH1 0x24 PUSH1 0x0 REVERT JUMPDEST PUSH4 0x4E487B71 PUSH1 0xE0 SHL PUSH1 0x0 MSTORE PUSH1 0x31 PUSH1 0x4 MSTORE PUSH1 0x24 PUSH1 0x0 REVERT JUMPDEST PUSH1 0x0 PUSH1 0x20 DUP3 DUP5 SUB SLT ISZERO PUSH2 0x348A JUMPI PUSH1 0x0 DUP1 REVERT JUMPDEST DUP2 MLOAD PUSH2 0x2DBF DUP2 PUSH2 0x30A5 JUMP JUMPDEST PUSH1 0x0 DUP3 MLOAD PUSH1 0x0 JUMPDEST DUP2 DUP2 LT ISZERO PUSH2 0x34B6 JUMPI PUSH1 0x20 DUP2 DUP7 ADD DUP2 ADD MLOAD DUP6 DUP4 ADD MSTORE ADD PUSH2 0x349C JUMP JUMPDEST POP PUSH1 0x0 SWAP3 ADD SWAP2 DUP3 MSTORE POP SWAP2 SWAP1 POP JUMP INVALID LOG2 PUSH5 0x6970667358 0x22 SLT KECCAK256 PUSH26 0xB7EE87F48F4F66EAD9B1522222D9F72F84199A99BA6F63B608F7 PUSH17 0x44EA19364736F6C634300081400330000 "
				},
				"gasEstimates": {
					"creation": {
						"codeDepositCost": "2712400",
						"executionCost": "infinite",
						"totalCost": "infinite"
					},
					"external": {
						"BLOCKS_PER_YEAR_ESTIMATE()": "340",
						"MAX_CORE_STAKE()": "318",
						"MAX_NFTS_PER_USER()": "296",
						"MIN_STAKE_TIME()": "251",
						"accRewardPerWeight()": "2439",
						"addAdmin(address)": "30213",
						"approvedTokenId(address,uint256)": "2780",
						"batchSetApprovedTokenIds(address,uint256[],bool)": "infinite",
						"claim()": "infinite",
						"collections(address)": "2699",
						"configureCollection(address,bool,uint8)": "53362",
						"core()": "infinite",
						"earned(address)": "infinite",
						"endBlock()": "2353",
						"exit()": "infinite",
						"fundRewards(uint256,uint256)": "infinite",
						"getUser(address)": "infinite",
						"isAdmin(address)": "2599",
						"isBackgroundWhitelisted(string)": "infinite",
						"isNFTEligible(address,uint256)": "5189",
						"lastRewardBlock()": "2417",
						"lastRewardBlockApplicable()": "4512",
						"nftStaker(address,uint256)": "2763",
						"onERC721Received(address,address,uint256,bytes)": "infinite",
						"owner()": "2376",
						"queuedRewards()": "2417",
						"recoverERC20(address,address,uint256)": "infinite",
						"removeAdmin(address)": "30169",
						"renounceOwnership()": "infinite",
						"rescueUnstakedNFT(address,uint256,address)": "infinite",
						"rewardPerBlock()": "2418",
						"setApprovedTokenId(address,uint256,bool)": "31156",
						"setWhitelistedBackground(string,bool)": "infinite",
						"stakeCore(uint256)": "infinite",
						"stakeNFT(address,uint256)": "infinite",
						"totalCoreBurned()": "2329",
						"totalCorePenaltyToPool()": "2395",
						"totalCoreStaked()": "2439",
						"totalRewardWeight()": "2417",
						"totalRewardsFunded()": "2329",
						"totalRewardsPaid()": "2374",
						"totalRewardsSlashedToPool()": "2375",
						"transferOwnership(address)": "28421",
						"whitelistedBackgroundHash(bytes32)": "2539",
						"withdrawCore(uint256)": "infinite",
						"withdrawNFT(address,uint256)": "infinite"
					},
					"internal": {
						"_addPenaltyToRewards(uint256)": "infinite",
						"_boostForNFTCount(uint256)": "117",
						"_claim(address)": "infinite",
						"_currentAccRewardPerWeight()": "infinite",
						"_isEarly(uint256)": "140",
						"_refreshUserWeight(address)": "18844",
						"_removeUserNFT(struct CoreAscensionV2.UserInfo storage pointer,address,uint256)": "infinite"
					}
				},
				"methodIdentifiers": {
					"BLOCKS_PER_YEAR_ESTIMATE()": "58f3d6d0",
					"MAX_CORE_STAKE()": "2d60a36d",
					"MAX_NFTS_PER_USER()": "2b6838b3",
					"MIN_STAKE_TIME()": "5d2ed556",
					"accRewardPerWeight()": "aa6bb09a",
					"addAdmin(address)": "70480275",
					"approvedTokenId(address,uint256)": "31c2bb51",
					"batchSetApprovedTokenIds(address,uint256[],bool)": "d6316991",
					"claim()": "4e71d92d",
					"collections(address)": "43add2e6",
					"configureCollection(address,bool,uint8)": "639f8994",
					"core()": "f2f4eb26",
					"earned(address)": "008cc262",
					"endBlock()": "083c6323",
					"exit()": "e9fad8ee",
					"fundRewards(uint256,uint256)": "28662551",
					"getUser(address)": "6f77926b",
					"isAdmin(address)": "24d7806c",
					"isBackgroundWhitelisted(string)": "f413496a",
					"isNFTEligible(address,uint256)": "b2fa49bf",
					"lastRewardBlock()": "a9f8d181",
					"lastRewardBlockApplicable()": "4ccc76ae",
					"nftStaker(address,uint256)": "77aa93ab",
					"onERC721Received(address,address,uint256,bytes)": "150b7a02",
					"owner()": "8da5cb5b",
					"queuedRewards()": "63d38c3b",
					"recoverERC20(address,address,uint256)": "1171bda9",
					"removeAdmin(address)": "1785f53c",
					"renounceOwnership()": "715018a6",
					"rescueUnstakedNFT(address,uint256,address)": "f9b5b664",
					"rewardPerBlock()": "8ae39cac",
					"setApprovedTokenId(address,uint256,bool)": "fa0c7f3d",
					"setWhitelistedBackground(string,bool)": "39087664",
					"stakeCore(uint256)": "4ff0da48",
					"stakeNFT(address,uint256)": "b13270d5",
					"totalCoreBurned()": "ad9e180c",
					"totalCorePenaltyToPool()": "a1a89efe",
					"totalCoreStaked()": "dfd456aa",
					"totalRewardWeight()": "d64b84b5",
					"totalRewardsFunded()": "591c6f25",
					"totalRewardsPaid()": "74958e35",
					"totalRewardsSlashedToPool()": "0ab9f75f",
					"transferOwnership(address)": "f2fde38b",
					"whitelistedBackgroundHash(bytes32)": "955541f1",
					"withdrawCore(uint256)": "91596e1e",
					"withdrawNFT(address,uint256)": "6088e93a"
				}
			},
			"storageLayout": {
				"storage": [
					{
						"astId": 2190,
						"contract": "contracts/ZephyrosStaking/ZephyrosStaking.sol:CoreAscensionV2",
						"label": "_owner",
						"offset": 0,
						"slot": "0",
						"type": "t_address"
					},
					{
						"astId": 3162,
						"contract": "contracts/ZephyrosStaking/ZephyrosStaking.sol:CoreAscensionV2",
						"label": "_status",
						"offset": 0,
						"slot": "1",
						"type": "t_uint256"
					},
					{
						"astId": 110,
						"contract": "contracts/ZephyrosStaking/ZephyrosStaking.sol:CoreAscensionV2",
						"label": "isAdmin",
						"offset": 0,
						"slot": "2",
						"type": "t_mapping(t_address,t_bool)"
					},
					{
						"astId": 115,
						"contract": "contracts/ZephyrosStaking/ZephyrosStaking.sol:CoreAscensionV2",
						"label": "collections",
						"offset": 0,
						"slot": "3",
						"type": "t_mapping(t_address,t_struct(CollectionConfig)86_storage)"
					},
					{
						"astId": 121,
						"contract": "contracts/ZephyrosStaking/ZephyrosStaking.sol:CoreAscensionV2",
						"label": "approvedTokenId",
						"offset": 0,
						"slot": "4",
						"type": "t_mapping(t_address,t_mapping(t_uint256,t_bool))"
					},
					{
						"astId": 125,
						"contract": "contracts/ZephyrosStaking/ZephyrosStaking.sol:CoreAscensionV2",
						"label": "whitelistedBackgroundHash",
						"offset": 0,
						"slot": "5",
						"type": "t_mapping(t_bytes32,t_bool)"
					},
					{
						"astId": 130,
						"contract": "contracts/ZephyrosStaking/ZephyrosStaking.sol:CoreAscensionV2",
						"label": "users",
						"offset": 0,
						"slot": "6",
						"type": "t_mapping(t_address,t_struct(UserInfo)106_storage)"
					},
					{
						"astId": 136,
						"contract": "contracts/ZephyrosStaking/ZephyrosStaking.sol:CoreAscensionV2",
						"label": "nftStaker",
						"offset": 0,
						"slot": "7",
						"type": "t_mapping(t_address,t_mapping(t_uint256,t_address))"
					},
					{
						"astId": 138,
						"contract": "contracts/ZephyrosStaking/ZephyrosStaking.sol:CoreAscensionV2",
						"label": "totalCoreStaked",
						"offset": 0,
						"slot": "8",
						"type": "t_uint256"
					},
					{
						"astId": 140,
						"contract": "contracts/ZephyrosStaking/ZephyrosStaking.sol:CoreAscensionV2",
						"label": "totalRewardWeight",
						"offset": 0,
						"slot": "9",
						"type": "t_uint256"
					},
					{
						"astId": 142,
						"contract": "contracts/ZephyrosStaking/ZephyrosStaking.sol:CoreAscensionV2",
						"label": "accRewardPerWeight",
						"offset": 0,
						"slot": "10",
						"type": "t_uint256"
					},
					{
						"astId": 144,
						"contract": "contracts/ZephyrosStaking/ZephyrosStaking.sol:CoreAscensionV2",
						"label": "lastRewardBlock",
						"offset": 0,
						"slot": "11",
						"type": "t_uint256"
					},
					{
						"astId": 146,
						"contract": "contracts/ZephyrosStaking/ZephyrosStaking.sol:CoreAscensionV2",
						"label": "rewardPerBlock",
						"offset": 0,
						"slot": "12",
						"type": "t_uint256"
					},
					{
						"astId": 148,
						"contract": "contracts/ZephyrosStaking/ZephyrosStaking.sol:CoreAscensionV2",
						"label": "endBlock",
						"offset": 0,
						"slot": "13",
						"type": "t_uint256"
					},
					{
						"astId": 150,
						"contract": "contracts/ZephyrosStaking/ZephyrosStaking.sol:CoreAscensionV2",
						"label": "queuedRewards",
						"offset": 0,
						"slot": "14",
						"type": "t_uint256"
					},
					{
						"astId": 152,
						"contract": "contracts/ZephyrosStaking/ZephyrosStaking.sol:CoreAscensionV2",
						"label": "totalRewardsFunded",
						"offset": 0,
						"slot": "15",
						"type": "t_uint256"
					},
					{
						"astId": 154,
						"contract": "contracts/ZephyrosStaking/ZephyrosStaking.sol:CoreAscensionV2",
						"label": "totalRewardsPaid",
						"offset": 0,
						"slot": "16",
						"type": "t_uint256"
					},
					{
						"astId": 156,
						"contract": "contracts/ZephyrosStaking/ZephyrosStaking.sol:CoreAscensionV2",
						"label": "totalRewardsSlashedToPool",
						"offset": 0,
						"slot": "17",
						"type": "t_uint256"
					},
					{
						"astId": 158,
						"contract": "contracts/ZephyrosStaking/ZephyrosStaking.sol:CoreAscensionV2",
						"label": "totalCorePenaltyToPool",
						"offset": 0,
						"slot": "18",
						"type": "t_uint256"
					},
					{
						"astId": 160,
						"contract": "contracts/ZephyrosStaking/ZephyrosStaking.sol:CoreAscensionV2",
						"label": "totalCoreBurned",
						"offset": 0,
						"slot": "19",
						"type": "t_uint256"
					}
				],
				"types": {
					"t_address": {
						"encoding": "inplace",
						"label": "address",
						"numberOfBytes": "20"
					},
					"t_array(t_struct(StakedNFT)91_storage)dyn_storage": {
						"base": "t_struct(StakedNFT)91_storage",
						"encoding": "dynamic_array",
						"label": "struct CoreAscensionV2.StakedNFT[]",
						"numberOfBytes": "32"
					},
					"t_bool": {
						"encoding": "inplace",
						"label": "bool",
						"numberOfBytes": "1"
					},
					"t_bytes32": {
						"encoding": "inplace",
						"label": "bytes32",
						"numberOfBytes": "32"
					},
					"t_enum(EligibilityMode)80": {
						"encoding": "inplace",
						"label": "enum CoreAscensionV2.EligibilityMode",
						"numberOfBytes": "1"
					},
					"t_mapping(t_address,t_bool)": {
						"encoding": "mapping",
						"key": "t_address",
						"label": "mapping(address => bool)",
						"numberOfBytes": "32",
						"value": "t_bool"
					},
					"t_mapping(t_address,t_mapping(t_uint256,t_address))": {
						"encoding": "mapping",
						"key": "t_address",
						"label": "mapping(address => mapping(uint256 => address))",
						"numberOfBytes": "32",
						"value": "t_mapping(t_uint256,t_address)"
					},
					"t_mapping(t_address,t_mapping(t_uint256,t_bool))": {
						"encoding": "mapping",
						"key": "t_address",
						"label": "mapping(address => mapping(uint256 => bool))",
						"numberOfBytes": "32",
						"value": "t_mapping(t_uint256,t_bool)"
					},
					"t_mapping(t_address,t_struct(CollectionConfig)86_storage)": {
						"encoding": "mapping",
						"key": "t_address",
						"label": "mapping(address => struct CoreAscensionV2.CollectionConfig)",
						"numberOfBytes": "32",
						"value": "t_struct(CollectionConfig)86_storage"
					},
					"t_mapping(t_address,t_struct(UserInfo)106_storage)": {
						"encoding": "mapping",
						"key": "t_address",
						"label": "mapping(address => struct CoreAscensionV2.UserInfo)",
						"numberOfBytes": "32",
						"value": "t_struct(UserInfo)106_storage"
					},
					"t_mapping(t_bytes32,t_bool)": {
						"encoding": "mapping",
						"key": "t_bytes32",
						"label": "mapping(bytes32 => bool)",
						"numberOfBytes": "32",
						"value": "t_bool"
					},
					"t_mapping(t_uint256,t_address)": {
						"encoding": "mapping",
						"key": "t_uint256",
						"label": "mapping(uint256 => address)",
						"numberOfBytes": "32",
						"value": "t_address"
					},
					"t_mapping(t_uint256,t_bool)": {
						"encoding": "mapping",
						"key": "t_uint256",
						"label": "mapping(uint256 => bool)",
						"numberOfBytes": "32",
						"value": "t_bool"
					},
					"t_struct(CollectionConfig)86_storage": {
						"encoding": "inplace",
						"label": "struct CoreAscensionV2.CollectionConfig",
						"members": [
							{
								"astId": 82,
								"contract": "contracts/ZephyrosStaking/ZephyrosStaking.sol:CoreAscensionV2",
								"label": "whitelisted",
								"offset": 0,
								"slot": "0",
								"type": "t_bool"
							},
							{
								"astId": 85,
								"contract": "contracts/ZephyrosStaking/ZephyrosStaking.sol:CoreAscensionV2",
								"label": "mode",
								"offset": 1,
								"slot": "0",
								"type": "t_enum(EligibilityMode)80"
							}
						],
						"numberOfBytes": "32"
					},
					"t_struct(StakedNFT)91_storage": {
						"encoding": "inplace",
						"label": "struct CoreAscensionV2.StakedNFT",
						"members": [
							{
								"astId": 88,
								"contract": "contracts/ZephyrosStaking/ZephyrosStaking.sol:CoreAscensionV2",
								"label": "collection",
								"offset": 0,
								"slot": "0",
								"type": "t_address"
							},
							{
								"astId": 90,
								"contract": "contracts/ZephyrosStaking/ZephyrosStaking.sol:CoreAscensionV2",
								"label": "tokenId",
								"offset": 0,
								"slot": "1",
								"type": "t_uint256"
							}
						],
						"numberOfBytes": "64"
					},
					"t_struct(UserInfo)106_storage": {
						"encoding": "inplace",
						"label": "struct CoreAscensionV2.UserInfo",
						"members": [
							{
								"astId": 93,
								"contract": "contracts/ZephyrosStaking/ZephyrosStaking.sol:CoreAscensionV2",
								"label": "coreStaked",
								"offset": 0,
								"slot": "0",
								"type": "t_uint256"
							},
							{
								"astId": 95,
								"contract": "contracts/ZephyrosStaking/ZephyrosStaking.sol:CoreAscensionV2",
								"label": "rewardWeight",
								"offset": 0,
								"slot": "1",
								"type": "t_uint256"
							},
							{
								"astId": 97,
								"contract": "contracts/ZephyrosStaking/ZephyrosStaking.sol:CoreAscensionV2",
								"label": "rewardDebt",
								"offset": 0,
								"slot": "2",
								"type": "t_uint256"
							},
							{
								"astId": 99,
								"contract": "contracts/ZephyrosStaking/ZephyrosStaking.sol:CoreAscensionV2",
								"label": "unclaimedRewards",
								"offset": 0,
								"slot": "3",
								"type": "t_uint256"
							},
							{
								"astId": 101,
								"contract": "contracts/ZephyrosStaking/ZephyrosStaking.sol:CoreAscensionV2",
								"label": "entryTime",
								"offset": 0,
								"slot": "4",
								"type": "t_uint256"
							},
							{
								"astId": 105,
								"contract": "contracts/ZephyrosStaking/ZephyrosStaking.sol:CoreAscensionV2",
								"label": "nfts",
								"offset": 0,
								"slot": "5",
								"type": "t_array(t_struct(StakedNFT)91_storage)dyn_storage"
							}
						],
						"numberOfBytes": "192"
					},
					"t_uint256": {
						"encoding": "inplace",
						"label": "uint256",
						"numberOfBytes": "32"
					}
				}
			},
			"userdoc": {
				"kind": "user",
				"methods": {},
				"version": 1
			}
		}
	}
}