{
	"contracts/erevos/AetherScionsFeeReflectionV3.sol": {
		"AetherScionsFeeReflectionV3": {
			"abi": [
				{
					"inputs": [
						{
							"internalType": "address",
							"name": "v2RouterAddr",
							"type": "address"
						},
						{
							"internalType": "address",
							"name": "_coreToken",
							"type": "address"
						},
						{
							"internalType": "address",
							"name": "_wetn",
							"type": "address"
						},
						{
							"internalType": "address",
							"name": "_owner",
							"type": "address"
						},
						{
							"internalType": "address payable",
							"name": "_coreWallet",
							"type": "address"
						},
						{
							"internalType": "address",
							"name": "_erevosNFT",
							"type": "address"
						}
					],
					"stateMutability": "nonpayable",
					"type": "constructor"
				},
				{
					"inputs": [
						{
							"internalType": "address",
							"name": "owner",
							"type": "address"
						}
					],
					"name": "OwnableInvalidOwner",
					"type": "error"
				},
				{
					"inputs": [
						{
							"internalType": "address",
							"name": "account",
							"type": "address"
						}
					],
					"name": "OwnableUnauthorizedAccount",
					"type": "error"
				},
				{
					"inputs": [],
					"name": "ReentrancyGuardReentrantCall",
					"type": "error"
				},
				{
					"anonymous": false,
					"inputs": [
						{
							"indexed": false,
							"internalType": "uint256",
							"name": "coreBurned",
							"type": "uint256"
						}
					],
					"name": "CoreBuyAndBurn",
					"type": "event"
				},
				{
					"anonymous": false,
					"inputs": [
						{
							"indexed": false,
							"internalType": "uint256",
							"name": "amount",
							"type": "uint256"
						},
						{
							"indexed": false,
							"internalType": "address",
							"name": "to",
							"type": "address"
						}
					],
					"name": "ETHRescued",
					"type": "event"
				},
				{
					"anonymous": false,
					"inputs": [
						{
							"indexed": false,
							"internalType": "uint256",
							"name": "amountIn",
							"type": "uint256"
						},
						{
							"indexed": false,
							"internalType": "uint256",
							"name": "coreShare",
							"type": "uint256"
						},
						{
							"indexed": false,
							"internalType": "uint256",
							"name": "nftShare",
							"type": "uint256"
						}
					],
					"name": "FeeProcessed",
					"type": "event"
				},
				{
					"anonymous": false,
					"inputs": [
						{
							"indexed": false,
							"internalType": "address",
							"name": "nftContract",
							"type": "address"
						}
					],
					"name": "NFTUnwhitelisted",
					"type": "event"
				},
				{
					"anonymous": false,
					"inputs": [
						{
							"indexed": false,
							"internalType": "address",
							"name": "nftContract",
							"type": "address"
						}
					],
					"name": "NFTWhitelisted",
					"type": "event"
				},
				{
					"anonymous": false,
					"inputs": [
						{
							"indexed": true,
							"internalType": "address",
							"name": "previousOwner",
							"type": "address"
						},
						{
							"indexed": true,
							"internalType": "address",
							"name": "newOwner",
							"type": "address"
						}
					],
					"name": "OwnershipTransferred",
					"type": "event"
				},
				{
					"anonymous": false,
					"inputs": [
						{
							"indexed": false,
							"internalType": "address",
							"name": "token",
							"type": "address"
						},
						{
							"indexed": false,
							"internalType": "uint256",
							"name": "amount",
							"type": "uint256"
						},
						{
							"indexed": false,
							"internalType": "address",
							"name": "to",
							"type": "address"
						}
					],
					"name": "TokensRescued",
					"type": "event"
				},
				{
					"stateMutability": "payable",
					"type": "fallback"
				},
				{
					"inputs": [],
					"name": "BURN_ADDRESS",
					"outputs": [
						{
							"internalType": "address",
							"name": "",
							"type": "address"
						}
					],
					"stateMutability": "view",
					"type": "function"
				},
				{
					"inputs": [],
					"name": "WETN",
					"outputs": [
						{
							"internalType": "address",
							"name": "",
							"type": "address"
						}
					],
					"stateMutability": "view",
					"type": "function"
				},
				{
					"inputs": [
						{
							"internalType": "address",
							"name": "nftContract",
							"type": "address"
						}
					],
					"name": "addWhitelistedNFT",
					"outputs": [],
					"stateMutability": "nonpayable",
					"type": "function"
				},
				{
					"inputs": [],
					"name": "autoBuyAndBurnCore",
					"outputs": [
						{
							"internalType": "bool",
							"name": "",
							"type": "bool"
						}
					],
					"stateMutability": "view",
					"type": "function"
				},
				{
					"inputs": [],
					"name": "coreBalance",
					"outputs": [
						{
							"internalType": "uint256",
							"name": "",
							"type": "uint256"
						}
					],
					"stateMutability": "view",
					"type": "function"
				},
				{
					"inputs": [],
					"name": "coreToken",
					"outputs": [
						{
							"internalType": "address",
							"name": "",
							"type": "address"
						}
					],
					"stateMutability": "view",
					"type": "function"
				},
				{
					"inputs": [],
					"name": "coreWallet",
					"outputs": [
						{
							"internalType": "address payable",
							"name": "",
							"type": "address"
						}
					],
					"stateMutability": "view",
					"type": "function"
				},
				{
					"inputs": [],
					"name": "erevosNFT",
					"outputs": [
						{
							"internalType": "address",
							"name": "",
							"type": "address"
						}
					],
					"stateMutability": "view",
					"type": "function"
				},
				{
					"inputs": [
						{
							"internalType": "address",
							"name": "nftContract",
							"type": "address"
						}
					],
					"name": "isWhitelistedNFT",
					"outputs": [
						{
							"internalType": "bool",
							"name": "",
							"type": "bool"
						}
					],
					"stateMutability": "view",
					"type": "function"
				},
				{
					"inputs": [],
					"name": "manualBuyAndBurnCore",
					"outputs": [],
					"stateMutability": "nonpayable",
					"type": "function"
				},
				{
					"inputs": [],
					"name": "nftBalance",
					"outputs": [
						{
							"internalType": "uint256",
							"name": "",
							"type": "uint256"
						}
					],
					"stateMutability": "view",
					"type": "function"
				},
				{
					"inputs": [],
					"name": "owner",
					"outputs": [
						{
							"internalType": "address",
							"name": "",
							"type": "address"
						}
					],
					"stateMutability": "view",
					"type": "function"
				},
				{
					"inputs": [],
					"name": "processIncomingTokens",
					"outputs": [],
					"stateMutability": "nonpayable",
					"type": "function"
				},
				{
					"inputs": [
						{
							"internalType": "address",
							"name": "nftContract",
							"type": "address"
						}
					],
					"name": "removeWhitelistedNFT",
					"outputs": [],
					"stateMutability": "nonpayable",
					"type": "function"
				},
				{
					"inputs": [],
					"name": "renounceOwnership",
					"outputs": [],
					"stateMutability": "nonpayable",
					"type": "function"
				},
				{
					"inputs": [
						{
							"internalType": "uint256",
							"name": "amount",
							"type": "uint256"
						},
						{
							"internalType": "address payable",
							"name": "to",
							"type": "address"
						}
					],
					"name": "rescueETH",
					"outputs": [],
					"stateMutability": "nonpayable",
					"type": "function"
				},
				{
					"inputs": [
						{
							"internalType": "address",
							"name": "token",
							"type": "address"
						},
						{
							"internalType": "uint256",
							"name": "amount",
							"type": "uint256"
						},
						{
							"internalType": "address",
							"name": "to",
							"type": "address"
						}
					],
					"name": "rescueTokens",
					"outputs": [],
					"stateMutability": "nonpayable",
					"type": "function"
				},
				{
					"inputs": [
						{
							"internalType": "bool",
							"name": "_autoBuyAndBurnCore",
							"type": "bool"
						}
					],
					"name": "setAutoBuyAndBurnCore",
					"outputs": [],
					"stateMutability": "nonpayable",
					"type": "function"
				},
				{
					"inputs": [
						{
							"internalType": "address",
							"name": "newOwner",
							"type": "address"
						}
					],
					"name": "transferOwnership",
					"outputs": [],
					"stateMutability": "nonpayable",
					"type": "function"
				},
				{
					"inputs": [
						{
							"internalType": "address",
							"name": "",
							"type": "address"
						}
					],
					"name": "whitelistedNFTs",
					"outputs": [
						{
							"internalType": "bool",
							"name": "",
							"type": "bool"
						}
					],
					"stateMutability": "view",
					"type": "function"
				},
				{
					"inputs": [],
					"name": "withdrawCore",
					"outputs": [],
					"stateMutability": "nonpayable",
					"type": "function"
				},
				{
					"stateMutability": "payable",
					"type": "receive"
				}
			],
			"devdoc": {
				"errors": {
					"OwnableInvalidOwner(address)": [
						{
							"details": "The owner is not a valid owner account. (eg. `address(0)`)"
						}
					],
					"OwnableUnauthorizedAccount(address)": [
						{
							"details": "The caller account is not authorized to perform an operation."
						}
					],
					"ReentrancyGuardReentrantCall()": [
						{
							"details": "Unauthorized reentrant call."
						}
					]
				},
				"kind": "dev",
				"methods": {
					"owner()": {
						"details": "Returns the address of the current owner."
					},
					"renounceOwnership()": {
						"details": "Leaves the contract without owner. It will not be possible to call `onlyOwner` functions. Can only be called by the current owner. NOTE: Renouncing ownership will leave the contract without an owner, thereby disabling any functionality that is only available to the owner."
					},
					"transferOwnership(address)": {
						"details": "Transfers ownership of the contract to a new account (`newOwner`). Can only be called by the current owner."
					}
				},
				"version": 1
			},
			"evm": {
				"assembly": "    /* \"contracts/erevos/AetherScionsFeeReflectionV3.sol\":284:9175  contract AetherScionsFeeReflectionV3 is ReentrancyGuard, Ownable {... */\n  mstore(0x40, 0x0120)\n    /* \"contracts/erevos/AetherScionsFeeReflectionV3.sol\":796:797  0 */\n  0x00\n    /* \"contracts/erevos/AetherScionsFeeReflectionV3.sol\":748:798  address public immutable BURN_ADDRESS = address(0) */\n  0xffffffffffffffffffffffffffffffffffffffff\n  and\n  0xe0\n  swap1\n  0xffffffffffffffffffffffffffffffffffffffff\n  and\n  dup2\n  mstore\n  pop\n    /* \"contracts/erevos/AetherScionsFeeReflectionV3.sol\":1968:2517  constructor(... */\n  callvalue\n  dup1\n  iszero\n  tag_1\n  jumpi\n  0x00\n  dup1\n  revert\ntag_1:\n  pop\n  mload(0x40)\n  sub(codesize, bytecodeSize)\n  dup1\n  bytecodeSize\n  dup4\n  codecopy\n  dup2\n  dup2\n  add\n  0x40\n  mstore\n  dup2\n  add\n  swap1\n  tag_2\n  swap2\n  swap1\n  tag_3\n  jump\t// in\ntag_2:\n    /* \"contracts/erevos/AetherScionsFeeReflectionV3.sol\":2221:2227  _owner */\n  dup3\n    /* \"https://github.com/OpenZeppelin/openzeppelin-contracts/blob/v5.4.0/contracts/utils/ReentrancyGuard.sol\":1857:1858  1 */\n  0x01\n    /* \"https://github.com/OpenZeppelin/openzeppelin-contracts/blob/v5.4.0/contracts/utils/ReentrancyGuard.sol\":2061:2068  _status */\n  0x00\n    /* \"https://github.com/OpenZeppelin/openzeppelin-contracts/blob/v5.4.0/contracts/utils/ReentrancyGuard.sol\":2061:2082  _status = NOT_ENTERED */\n  dup2\n  swap1\n  sstore\n  pop\n    /* \"https://github.com/OpenZeppelin/openzeppelin-contracts/blob/v5.4.0/contracts/access/Ownable.sol\":1297:1298  0 */\n  0x00\n    /* \"https://github.com/OpenZeppelin/openzeppelin-contracts/blob/v5.4.0/contracts/access/Ownable.sol\":1273:1299  initialOwner == address(0) */\n  0xffffffffffffffffffffffffffffffffffffffff\n  and\n    /* \"https://github.com/OpenZeppelin/openzeppelin-contracts/blob/v5.4.0/contracts/access/Ownable.sol\":1273:1285  initialOwner */\n  dup2\n    /* \"https://github.com/OpenZeppelin/openzeppelin-contracts/blob/v5.4.0/contracts/access/Ownable.sol\":1273:1299  initialOwner == address(0) */\n  0xffffffffffffffffffffffffffffffffffffffff\n  and\n  sub\n    /* \"https://github.com/OpenZeppelin/openzeppelin-contracts/blob/v5.4.0/contracts/access/Ownable.sol\":1269:1364  if (initialOwner == address(0)) {... */\n  tag_9\n  jumpi\n    /* \"https://github.com/OpenZeppelin/openzeppelin-contracts/blob/v5.4.0/contracts/access/Ownable.sol\":1350:1351  0 */\n  0x00\n    /* \"https://github.com/OpenZeppelin/openzeppelin-contracts/blob/v5.4.0/contracts/access/Ownable.sol\":1322:1353  OwnableInvalidOwner(address(0)) */\n  mload(0x40)\n  0x1e4fbdf700000000000000000000000000000000000000000000000000000000\n  dup2\n  mstore\n  0x04\n  add\n  tag_10\n  swap2\n  swap1\n  tag_11\n  jump\t// in\ntag_10:\n  mload(0x40)\n  dup1\n  swap2\n  sub\n  swap1\n  revert\n    /* \"https://github.com/OpenZeppelin/openzeppelin-contracts/blob/v5.4.0/contracts/access/Ownable.sol\":1269:1364  if (initialOwner == address(0)) {... */\ntag_9:\n    /* \"https://github.com/OpenZeppelin/openzeppelin-contracts/blob/v5.4.0/contracts/access/Ownable.sol\":1373:1405  _transferOwnership(initialOwner) */\n  tag_12\n    /* \"https://github.com/OpenZeppelin/openzeppelin-contracts/blob/v5.4.0/contracts/access/Ownable.sol\":1392:1404  initialOwner */\n  dup2\n    /* \"https://github.com/OpenZeppelin/openzeppelin-contracts/blob/v5.4.0/contracts/access/Ownable.sol\":1373:1391  _transferOwnership */\n  shl(0x20, tag_13)\n    /* \"https://github.com/OpenZeppelin/openzeppelin-contracts/blob/v5.4.0/contracts/access/Ownable.sol\":1373:1405  _transferOwnership(initialOwner) */\n  0x20\n  shr\n  jump\t// in\ntag_12:\n    /* \"https://github.com/OpenZeppelin/openzeppelin-contracts/blob/v5.4.0/contracts/access/Ownable.sol\":1225:1412  constructor(address initialOwner) {... */\n  pop\n    /* \"contracts/erevos/AetherScionsFeeReflectionV3.sol\":2267:2279  v2RouterAddr */\n  dup6\n    /* \"contracts/erevos/AetherScionsFeeReflectionV3.sol\":2240:2248  v2Router */\n  0x02\n  0x00\n    /* \"contracts/erevos/AetherScionsFeeReflectionV3.sol\":2240:2280  v2Router = UniswapV2Router(v2RouterAddr) */\n  0x0100\n  exp\n  dup2\n  sload\n  dup2\n  0xffffffffffffffffffffffffffffffffffffffff\n  mul\n  not\n  and\n  swap1\n  dup4\n  0xffffffffffffffffffffffffffffffffffffffff\n  and\n  mul\n  or\n  swap1\n  sstore\n  pop\n    /* \"contracts/erevos/AetherScionsFeeReflectionV3.sol\":2325:2335  _coreToken */\n  dup5\n    /* \"contracts/erevos/AetherScionsFeeReflectionV3.sol\":2313:2335  coreToken = _coreToken */\n  0xffffffffffffffffffffffffffffffffffffffff\n  and\n  0xa0\n  dup2\n  0xffffffffffffffffffffffffffffffffffffffff\n  and\n  dup2\n  mstore\n  pop\n  pop\n    /* \"contracts/erevos/AetherScionsFeeReflectionV3.sol\":2376:2381  _wetn */\n  dup4\n    /* \"contracts/erevos/AetherScionsFeeReflectionV3.sol\":2369:2381  WETN = _wetn */\n  0xffffffffffffffffffffffffffffffffffffffff\n  and\n  0xc0\n  dup2\n  0xffffffffffffffffffffffffffffffffffffffff\n  and\n  dup2\n  mstore\n  pop\n  pop\n    /* \"contracts/erevos/AetherScionsFeeReflectionV3.sol\":2405:2416  _coreWallet */\n  dup2\n    /* \"contracts/erevos/AetherScionsFeeReflectionV3.sol\":2392:2416  coreWallet = _coreWallet */\n  0xffffffffffffffffffffffffffffffffffffffff\n  and\n  0x80\n  dup2\n  0xffffffffffffffffffffffffffffffffffffffff\n  and\n  dup2\n  mstore\n  pop\n  pop\n    /* \"contracts/erevos/AetherScionsFeeReflectionV3.sol\":2448:2452  true */\n  0x01\n    /* \"contracts/erevos/AetherScionsFeeReflectionV3.sol\":2427:2445  autoBuyAndBurnCore */\n  0x06\n  0x00\n    /* \"contracts/erevos/AetherScionsFeeReflectionV3.sol\":2427:2452  autoBuyAndBurnCore = true */\n  0x0100\n  exp\n  dup2\n  sload\n  dup2\n  0xff\n  mul\n  not\n  and\n  swap1\n  dup4\n  iszero\n  iszero\n  mul\n  or\n  swap1\n  sstore\n  pop\n    /* \"contracts/erevos/AetherScionsFeeReflectionV3.sol\":2499:2509  _erevosNFT */\n  dup1\n    /* \"contracts/erevos/AetherScionsFeeReflectionV3.sol\":2487:2509  erevosNFT = _erevosNFT */\n  0xffffffffffffffffffffffffffffffffffffffff\n  and\n  0x0100\n  dup2\n  0xffffffffffffffffffffffffffffffffffffffff\n  and\n  dup2\n  mstore\n  pop\n  pop\n    /* \"contracts/erevos/AetherScionsFeeReflectionV3.sol\":1968:2517  constructor(... */\n  pop\n  pop\n  pop\n  pop\n  pop\n  pop\n    /* \"contracts/erevos/AetherScionsFeeReflectionV3.sol\":284:9175  contract AetherScionsFeeReflectionV3 is ReentrancyGuard, Ownable {... */\n  jump(tag_15)\n    /* \"https://github.com/OpenZeppelin/openzeppelin-contracts/blob/v5.4.0/contracts/access/Ownable.sol\":2912:3099  function _transferOwnership(address newOwner) internal virtual {... */\ntag_13:\n    /* \"https://github.com/OpenZeppelin/openzeppelin-contracts/blob/v5.4.0/contracts/access/Ownable.sol\":2985:3001  address oldOwner */\n  0x00\n    /* \"https://github.com/OpenZeppelin/openzeppelin-contracts/blob/v5.4.0/contracts/access/Ownable.sol\":3004:3010  _owner */\n  0x01\n  0x00\n  swap1\n  sload\n  swap1\n  0x0100\n  exp\n  swap1\n  div\n  0xffffffffffffffffffffffffffffffffffffffff\n  and\n    /* \"https://github.com/OpenZeppelin/openzeppelin-contracts/blob/v5.4.0/contracts/access/Ownable.sol\":2985:3010  address oldOwner = _owner */\n  swap1\n  pop\n    /* \"https://github.com/OpenZeppelin/openzeppelin-contracts/blob/v5.4.0/contracts/access/Ownable.sol\":3029:3037  newOwner */\n  dup2\n    /* \"https://github.com/OpenZeppelin/openzeppelin-contracts/blob/v5.4.0/contracts/access/Ownable.sol\":3020:3026  _owner */\n  0x01\n  0x00\n    /* \"https://github.com/OpenZeppelin/openzeppelin-contracts/blob/v5.4.0/contracts/access/Ownable.sol\":3020:3037  _owner = newOwner */\n  0x0100\n  exp\n  dup2\n  sload\n  dup2\n  0xffffffffffffffffffffffffffffffffffffffff\n  mul\n  not\n  and\n  swap1\n  dup4\n  0xffffffffffffffffffffffffffffffffffffffff\n  and\n  mul\n  or\n  swap1\n  sstore\n  pop\n    /* \"https://github.com/OpenZeppelin/openzeppelin-contracts/blob/v5.4.0/contracts/access/Ownable.sol\":3083:3091  newOwner */\n  dup2\n    /* \"https://github.com/OpenZeppelin/openzeppelin-contracts/blob/v5.4.0/contracts/access/Ownable.sol\":3052:3092  OwnershipTransferred(oldOwner, newOwner) */\n  0xffffffffffffffffffffffffffffffffffffffff\n  and\n    /* \"https://github.com/OpenZeppelin/openzeppelin-contracts/blob/v5.4.0/contracts/access/Ownable.sol\":3073:3081  oldOwner */\n  dup2\n    /* \"https://github.com/OpenZeppelin/openzeppelin-contracts/blob/v5.4.0/contracts/access/Ownable.sol\":3052:3092  OwnershipTransferred(oldOwner, newOwner) */\n  0xffffffffffffffffffffffffffffffffffffffff\n  and\n  0x8be0079c531659141344cd1fd0a4f28419497f9722a3daafe3b4186f6b6457e0\n  mload(0x40)\n  mload(0x40)\n  dup1\n  swap2\n  sub\n  swap1\n  log3\n    /* \"https://github.com/OpenZeppelin/openzeppelin-contracts/blob/v5.4.0/contracts/access/Ownable.sol\":2975:3099  {... */\n  pop\n    /* \"https://github.com/OpenZeppelin/openzeppelin-contracts/blob/v5.4.0/contracts/access/Ownable.sol\":2912:3099  function _transferOwnership(address newOwner) internal virtual {... */\n  pop\n  jump\t// out\n    /* \"#utility.yul\":88:205   */\ntag_18:\n    /* \"#utility.yul\":197:198   */\n  0x00\n    /* \"#utility.yul\":194:195   */\n  dup1\n    /* \"#utility.yul\":187:199   */\n  revert\n    /* \"#utility.yul\":334:460   */\ntag_20:\n    /* \"#utility.yul\":371:378   */\n  0x00\n    /* \"#utility.yul\":411:453   */\n  0xffffffffffffffffffffffffffffffffffffffff\n    /* \"#utility.yul\":404:409   */\n  dup3\n    /* \"#utility.yul\":400:454   */\n  and\n    /* \"#utility.yul\":389:454   */\n  swap1\n  pop\n    /* \"#utility.yul\":334:460   */\n  swap2\n  swap1\n  pop\n  jump\t// out\n    /* \"#utility.yul\":466:562   */\ntag_21:\n    /* \"#utility.yul\":503:510   */\n  0x00\n    /* \"#utility.yul\":532:556   */\n  tag_34\n    /* \"#utility.yul\":550:555   */\n  dup3\n    /* \"#utility.yul\":532:556   */\n  tag_20\n  jump\t// in\ntag_34:\n    /* \"#utility.yul\":521:556   */\n  swap1\n  pop\n    /* \"#utility.yul\":466:562   */\n  swap2\n  swap1\n  pop\n  jump\t// out\n    /* \"#utility.yul\":568:690   */\ntag_22:\n    /* \"#utility.yul\":641:665   */\n  tag_36\n    /* \"#utility.yul\":659:664   */\n  dup2\n    /* \"#utility.yul\":641:665   */\n  tag_21\n  jump\t// in\ntag_36:\n    /* \"#utility.yul\":634:639   */\n  dup2\n    /* \"#utility.yul\":631:666   */\n  eq\n    /* \"#utility.yul\":621:684   */\n  tag_37\n  jumpi\n    /* \"#utility.yul\":680:681   */\n  0x00\n    /* \"#utility.yul\":677:678   */\n  dup1\n    /* \"#utility.yul\":670:682   */\n  revert\n    /* \"#utility.yul\":621:684   */\ntag_37:\n    /* \"#utility.yul\":568:690   */\n  pop\n  jump\t// out\n    /* \"#utility.yul\":696:839   */\ntag_23:\n    /* \"#utility.yul\":753:758   */\n  0x00\n    /* \"#utility.yul\":784:790   */\n  dup2\n    /* \"#utility.yul\":778:791   */\n  mload\n    /* \"#utility.yul\":769:791   */\n  swap1\n  pop\n    /* \"#utility.yul\":800:833   */\n  tag_39\n    /* \"#utility.yul\":827:832   */\n  dup2\n    /* \"#utility.yul\":800:833   */\n  tag_22\n  jump\t// in\ntag_39:\n    /* \"#utility.yul\":696:839   */\n  swap3\n  swap2\n  pop\n  pop\n  jump\t// out\n    /* \"#utility.yul\":845:949   */\ntag_24:\n    /* \"#utility.yul\":890:897   */\n  0x00\n    /* \"#utility.yul\":919:943   */\n  tag_41\n    /* \"#utility.yul\":937:942   */\n  dup3\n    /* \"#utility.yul\":919:943   */\n  tag_20\n  jump\t// in\ntag_41:\n    /* \"#utility.yul\":908:943   */\n  swap1\n  pop\n    /* \"#utility.yul\":845:949   */\n  swap2\n  swap1\n  pop\n  jump\t// out\n    /* \"#utility.yul\":955:1093   */\ntag_25:\n    /* \"#utility.yul\":1036:1068   */\n  tag_43\n    /* \"#utility.yul\":1062:1067   */\n  dup2\n    /* \"#utility.yul\":1036:1068   */\n  tag_24\n  jump\t// in\ntag_43:\n    /* \"#utility.yul\":1029:1034   */\n  dup2\n    /* \"#utility.yul\":1026:1069   */\n  eq\n    /* \"#utility.yul\":1016:1087   */\n  tag_44\n  jumpi\n    /* \"#utility.yul\":1083:1084   */\n  0x00\n    /* \"#utility.yul\":1080:1081   */\n  dup1\n    /* \"#utility.yul\":1073:1085   */\n  revert\n    /* \"#utility.yul\":1016:1087   */\ntag_44:\n    /* \"#utility.yul\":955:1093   */\n  pop\n  jump\t// out\n    /* \"#utility.yul\":1099:1258   */\ntag_26:\n    /* \"#utility.yul\":1164:1169   */\n  0x00\n    /* \"#utility.yul\":1195:1201   */\n  dup2\n    /* \"#utility.yul\":1189:1202   */\n  mload\n    /* \"#utility.yul\":1180:1202   */\n  swap1\n  pop\n    /* \"#utility.yul\":1211:1252   */\n  tag_46\n    /* \"#utility.yul\":1246:1251   */\n  dup2\n    /* \"#utility.yul\":1211:1252   */\n  tag_25\n  jump\t// in\ntag_46:\n    /* \"#utility.yul\":1099:1258   */\n  swap3\n  swap2\n  pop\n  pop\n  jump\t// out\n    /* \"#utility.yul\":1264:2414   */\ntag_3:\n    /* \"#utility.yul\":1387:1393   */\n  0x00\n    /* \"#utility.yul\":1395:1401   */\n  dup1\n    /* \"#utility.yul\":1403:1409   */\n  0x00\n    /* \"#utility.yul\":1411:1417   */\n  dup1\n    /* \"#utility.yul\":1419:1425   */\n  0x00\n    /* \"#utility.yul\":1427:1433   */\n  dup1\n    /* \"#utility.yul\":1476:1479   */\n  0xc0\n    /* \"#utility.yul\":1464:1473   */\n  dup8\n    /* \"#utility.yul\":1455:1462   */\n  dup10\n    /* \"#utility.yul\":1451:1474   */\n  sub\n    /* \"#utility.yul\":1447:1480   */\n  slt\n    /* \"#utility.yul\":1444:1564   */\n  iszero\n  tag_48\n  jumpi\n    /* \"#utility.yul\":1483:1562   */\n  tag_49\n  tag_18\n  jump\t// in\ntag_49:\n    /* \"#utility.yul\":1444:1564   */\ntag_48:\n    /* \"#utility.yul\":1603:1604   */\n  0x00\n    /* \"#utility.yul\":1628:1692   */\n  tag_50\n    /* \"#utility.yul\":1684:1691   */\n  dup10\n    /* \"#utility.yul\":1675:1681   */\n  dup3\n    /* \"#utility.yul\":1664:1673   */\n  dup11\n    /* \"#utility.yul\":1660:1682   */\n  add\n    /* \"#utility.yul\":1628:1692   */\n  tag_23\n  jump\t// in\ntag_50:\n    /* \"#utility.yul\":1618:1692   */\n  swap7\n  pop\n    /* \"#utility.yul\":1574:1702   */\n  pop\n    /* \"#utility.yul\":1741:1743   */\n  0x20\n    /* \"#utility.yul\":1767:1831   */\n  tag_51\n    /* \"#utility.yul\":1823:1830   */\n  dup10\n    /* \"#utility.yul\":1814:1820   */\n  dup3\n    /* \"#utility.yul\":1803:1812   */\n  dup11\n    /* \"#utility.yul\":1799:1821   */\n  add\n    /* \"#utility.yul\":1767:1831   */\n  tag_23\n  jump\t// in\ntag_51:\n    /* \"#utility.yul\":1757:1831   */\n  swap6\n  pop\n    /* \"#utility.yul\":1712:1841   */\n  pop\n    /* \"#utility.yul\":1880:1882   */\n  0x40\n    /* \"#utility.yul\":1906:1970   */\n  tag_52\n    /* \"#utility.yul\":1962:1969   */\n  dup10\n    /* \"#utility.yul\":1953:1959   */\n  dup3\n    /* \"#utility.yul\":1942:1951   */\n  dup11\n    /* \"#utility.yul\":1938:1960   */\n  add\n    /* \"#utility.yul\":1906:1970   */\n  tag_23\n  jump\t// in\ntag_52:\n    /* \"#utility.yul\":1896:1970   */\n  swap5\n  pop\n    /* \"#utility.yul\":1851:1980   */\n  pop\n    /* \"#utility.yul\":2019:2021   */\n  0x60\n    /* \"#utility.yul\":2045:2109   */\n  tag_53\n    /* \"#utility.yul\":2101:2108   */\n  dup10\n    /* \"#utility.yul\":2092:2098   */\n  dup3\n    /* \"#utility.yul\":2081:2090   */\n  dup11\n    /* \"#utility.yul\":2077:2099   */\n  add\n    /* \"#utility.yul\":2045:2109   */\n  tag_23\n  jump\t// in\ntag_53:\n    /* \"#utility.yul\":2035:2109   */\n  swap4\n  pop\n    /* \"#utility.yul\":1990:2119   */\n  pop\n    /* \"#utility.yul\":2158:2161   */\n  0x80\n    /* \"#utility.yul\":2185:2257   */\n  tag_54\n    /* \"#utility.yul\":2249:2256   */\n  dup10\n    /* \"#utility.yul\":2240:2246   */\n  dup3\n    /* \"#utility.yul\":2229:2238   */\n  dup11\n    /* \"#utility.yul\":2225:2247   */\n  add\n    /* \"#utility.yul\":2185:2257   */\n  tag_26\n  jump\t// in\ntag_54:\n    /* \"#utility.yul\":2175:2257   */\n  swap3\n  pop\n    /* \"#utility.yul\":2129:2267   */\n  pop\n    /* \"#utility.yul\":2306:2309   */\n  0xa0\n    /* \"#utility.yul\":2333:2397   */\n  tag_55\n    /* \"#utility.yul\":2389:2396   */\n  dup10\n    /* \"#utility.yul\":2380:2386   */\n  dup3\n    /* \"#utility.yul\":2369:2378   */\n  dup11\n    /* \"#utility.yul\":2365:2387   */\n  add\n    /* \"#utility.yul\":2333:2397   */\n  tag_23\n  jump\t// in\ntag_55:\n    /* \"#utility.yul\":2323:2397   */\n  swap2\n  pop\n    /* \"#utility.yul\":2277:2407   */\n  pop\n    /* \"#utility.yul\":1264:2414   */\n  swap3\n  swap6\n  pop\n  swap3\n  swap6\n  pop\n  swap3\n  swap6\n  jump\t// out\n    /* \"#utility.yul\":2420:2538   */\ntag_27:\n    /* \"#utility.yul\":2507:2531   */\n  tag_57\n    /* \"#utility.yul\":2525:2530   */\n  dup2\n    /* \"#utility.yul\":2507:2531   */\n  tag_21\n  jump\t// in\ntag_57:\n    /* \"#utility.yul\":2502:2505   */\n  dup3\n    /* \"#utility.yul\":2495:2532   */\n  mstore\n    /* \"#utility.yul\":2420:2538   */\n  pop\n  pop\n  jump\t// out\n    /* \"#utility.yul\":2544:2766   */\ntag_11:\n    /* \"#utility.yul\":2637:2641   */\n  0x00\n    /* \"#utility.yul\":2675:2677   */\n  0x20\n    /* \"#utility.yul\":2664:2673   */\n  dup3\n    /* \"#utility.yul\":2660:2678   */\n  add\n    /* \"#utility.yul\":2652:2678   */\n  swap1\n  pop\n    /* \"#utility.yul\":2688:2759   */\n  tag_59\n    /* \"#utility.yul\":2756:2757   */\n  0x00\n    /* \"#utility.yul\":2745:2754   */\n  dup4\n    /* \"#utility.yul\":2741:2758   */\n  add\n    /* \"#utility.yul\":2732:2738   */\n  dup5\n    /* \"#utility.yul\":2688:2759   */\n  tag_27\n  jump\t// in\ntag_59:\n    /* \"#utility.yul\":2544:2766   */\n  swap3\n  swap2\n  pop\n  pop\n  jump\t// out\n    /* \"contracts/erevos/AetherScionsFeeReflectionV3.sol\":284:9175  contract AetherScionsFeeReflectionV3 is ReentrancyGuard, Ownable {... */\ntag_15:\n  mload(0x80)\n  mload(0xa0)\n  mload(0xc0)\n  mload(0xe0)\n  mload(0x0100)\n  codecopy(0x00, dataOffset(sub_0), dataSize(sub_0))\n  0x00\n  assignImmutable(\"0xf4c2b5de886427473655d4c904c743576dc2d53249b7535d96c06cc97ae7216b\")\n  0x00\n  assignImmutable(\"0x939eb54753ed0cc7e2272bfb34cbe098308c93936ed54d79078f76ade0b2e789\")\n  0x00\n  assignImmutable(\"0x789bcdf275fa270780a52ae3b79bb1ce0fda7e0aaad87b57b74bb99ac290714a\")\n  0x00\n  assignImmutable(\"0x7880aec93413f117ef14bd4e6d130875ab2c7d7d55a064fac3c2f7bd51516380\")\n  0x00\n  assignImmutable(\"0xd2f8f61201b2b11a78d6e866abc9c3db2ae8631fa656bfe5cb53668255367afb\")\n  return(0x00, dataSize(sub_0))\nstop\n\nsub_0: assembly {\n        /* \"contracts/erevos/AetherScionsFeeReflectionV3.sol\":284:9175  contract AetherScionsFeeReflectionV3 is ReentrancyGuard, Ownable {... */\n      mstore(0x40, 0x80)\n      jumpi(tag_1, lt(calldatasize, 0x04))\n      shr(0xe0, calldataload(0x00))\n      dup1\n      0x7581aa60\n      gt\n      tag_24\n      jumpi\n      dup1\n      0xb37fd190\n      gt\n      tag_25\n      jumpi\n      dup1\n      0xb37fd190\n      eq\n      tag_18\n      jumpi\n      dup1\n      0xc36554ce\n      eq\n      tag_19\n      jumpi\n      dup1\n      0xdc05a309\n      eq\n      tag_20\n      jumpi\n      dup1\n      0xdc1a4d9e\n      eq\n      tag_21\n      jumpi\n      dup1\n      0xf2fde38b\n      eq\n      tag_22\n      jumpi\n      dup1\n      0xfccc2813\n      eq\n      tag_23\n      jumpi\n      jump(tag_2)\n    tag_25:\n      dup1\n      0x7581aa60\n      eq\n      tag_13\n      jumpi\n      dup1\n      0x8465093e\n      eq\n      tag_14\n      jumpi\n      dup1\n      0x8da5cb5b\n      eq\n      tag_15\n      jumpi\n      dup1\n      0xa0558c3f\n      eq\n      tag_16\n      jumpi\n      dup1\n      0xb2b22d5f\n      eq\n      tag_17\n      jumpi\n      jump(tag_2)\n    tag_24:\n      dup1\n      0x62ab05e7\n      gt\n      tag_26\n      jumpi\n      dup1\n      0x62ab05e7\n      eq\n      tag_8\n      jumpi\n      dup1\n      0x66650b7b\n      eq\n      tag_9\n      jumpi\n      dup1\n      0x6cdf0e40\n      eq\n      tag_10\n      jumpi\n      dup1\n      0x715018a6\n      eq\n      tag_11\n      jumpi\n      dup1\n      0x7499aff4\n      eq\n      tag_12\n      jumpi\n      jump(tag_2)\n    tag_26:\n      dup1\n      0x0c2b72e9\n      eq\n      tag_3\n      jumpi\n      dup1\n      0x138b7338\n      eq\n      tag_4\n      jumpi\n      dup1\n      0x210009cf\n      eq\n      tag_5\n      jumpi\n      dup1\n      0x3f0c188f\n      eq\n      tag_6\n      jumpi\n      dup1\n      0x5301fa6f\n      eq\n      tag_7\n      jumpi\n      jump(tag_2)\n    tag_1:\n      jumpi(tag_2, calldatasize)\n        /* \"contracts/erevos/AetherScionsFeeReflectionV3.sol\":8960:8964  WETN */\n      immutable(\"0x789bcdf275fa270780a52ae3b79bb1ce0fda7e0aaad87b57b74bb99ac290714a\")\n        /* \"contracts/erevos/AetherScionsFeeReflectionV3.sol\":8938:8965  msg.sender != address(WETN) */\n      0xffffffffffffffffffffffffffffffffffffffff\n      and\n        /* \"contracts/erevos/AetherScionsFeeReflectionV3.sol\":8938:8948  msg.sender */\n      caller\n        /* \"contracts/erevos/AetherScionsFeeReflectionV3.sol\":8938:8965  msg.sender != address(WETN) */\n      0xffffffffffffffffffffffffffffffffffffffff\n      and\n      eq\n        /* \"contracts/erevos/AetherScionsFeeReflectionV3.sol\":8935:9023  if(msg.sender != address(WETN)){... */\n      tag_29\n      jumpi\n        /* \"contracts/erevos/AetherScionsFeeReflectionV3.sol\":8981:9011  _processIncomingFee(msg.value) */\n      tag_30\n        /* \"contracts/erevos/AetherScionsFeeReflectionV3.sol\":9001:9010  msg.value */\n      callvalue\n        /* \"contracts/erevos/AetherScionsFeeReflectionV3.sol\":8981:9000  _processIncomingFee */\n      tag_31\n        /* \"contracts/erevos/AetherScionsFeeReflectionV3.sol\":8981:9011  _processIncomingFee(msg.value) */\n      jump\t// in\n    tag_30:\n        /* \"contracts/erevos/AetherScionsFeeReflectionV3.sol\":8935:9023  if(msg.sender != address(WETN)){... */\n    tag_29:\n        /* \"contracts/erevos/AetherScionsFeeReflectionV3.sol\":284:9175  contract AetherScionsFeeReflectionV3 is ReentrancyGuard, Ownable {... */\n      stop\n    tag_2:\n        /* \"contracts/erevos/AetherScionsFeeReflectionV3.sol\":9102:9106  WETN */\n      immutable(\"0x789bcdf275fa270780a52ae3b79bb1ce0fda7e0aaad87b57b74bb99ac290714a\")\n        /* \"contracts/erevos/AetherScionsFeeReflectionV3.sol\":9080:9107  msg.sender != address(WETN) */\n      0xffffffffffffffffffffffffffffffffffffffff\n      and\n        /* \"contracts/erevos/AetherScionsFeeReflectionV3.sol\":9080:9090  msg.sender */\n      caller\n        /* \"contracts/erevos/AetherScionsFeeReflectionV3.sol\":9080:9107  msg.sender != address(WETN) */\n      0xffffffffffffffffffffffffffffffffffffffff\n      and\n      eq\n        /* \"contracts/erevos/AetherScionsFeeReflectionV3.sol\":9077:9165  if(msg.sender != address(WETN)){... */\n      tag_34\n      jumpi\n        /* \"contracts/erevos/AetherScionsFeeReflectionV3.sol\":9123:9153  _processIncomingFee(msg.value) */\n      tag_35\n        /* \"contracts/erevos/AetherScionsFeeReflectionV3.sol\":9143:9152  msg.value */\n      callvalue\n        /* \"contracts/erevos/AetherScionsFeeReflectionV3.sol\":9123:9142  _processIncomingFee */\n      tag_31\n        /* \"contracts/erevos/AetherScionsFeeReflectionV3.sol\":9123:9153  _processIncomingFee(msg.value) */\n      jump\t// in\n    tag_35:\n        /* \"contracts/erevos/AetherScionsFeeReflectionV3.sol\":9077:9165  if(msg.sender != address(WETN)){... */\n    tag_34:\n        /* \"contracts/erevos/AetherScionsFeeReflectionV3.sol\":284:9175  contract AetherScionsFeeReflectionV3 is ReentrancyGuard, Ownable {... */\n      stop\n        /* \"contracts/erevos/AetherScionsFeeReflectionV3.sol\":554:588  address public immutable coreToken */\n    tag_3:\n      callvalue\n      dup1\n      iszero\n      tag_36\n      jumpi\n      0x00\n      dup1\n      revert\n    tag_36:\n      pop\n      tag_37\n      tag_38\n      jump\t// in\n    tag_37:\n      mload(0x40)\n      tag_39\n      swap2\n      swap1\n      tag_40\n      jump\t// in\n    tag_39:\n      mload(0x40)\n      dup1\n      swap2\n      sub\n      swap1\n      return\n        /* \"contracts/erevos/AetherScionsFeeReflectionV3.sol\":3412:3542  function isWhitelistedNFT(address nftContract) external view returns (bool) {... */\n    tag_4:\n      callvalue\n      dup1\n      iszero\n      tag_41\n      jumpi\n      0x00\n      dup1\n      revert\n    tag_41:\n      pop\n      tag_42\n      0x04\n      dup1\n      calldatasize\n      sub\n      dup2\n      add\n      swap1\n      tag_43\n      swap2\n      swap1\n      tag_44\n      jump\t// in\n    tag_43:\n      tag_45\n      jump\t// in\n    tag_42:\n      mload(0x40)\n      tag_46\n      swap2\n      swap1\n      tag_47\n      jump\t// in\n    tag_46:\n      mload(0x40)\n      dup1\n      swap2\n      sub\n      swap1\n      return\n        /* \"contracts/erevos/AetherScionsFeeReflectionV3.sol\":3167:3404  function removeWhitelistedNFT(address nftContract) external onlyOwner {... */\n    tag_5:\n      callvalue\n      dup1\n      iszero\n      tag_48\n      jumpi\n      0x00\n      dup1\n      revert\n    tag_48:\n      pop\n      tag_49\n      0x04\n      dup1\n      calldatasize\n      sub\n      dup2\n      add\n      swap1\n      tag_50\n      swap2\n      swap1\n      tag_44\n      jump\t// in\n    tag_50:\n      tag_51\n      jump\t// in\n    tag_49:\n      stop\n        /* \"contracts/erevos/AetherScionsFeeReflectionV3.sol\":1131:1178  mapping(address => bool) public whitelistedNFTs */\n    tag_6:\n      callvalue\n      dup1\n      iszero\n      tag_52\n      jumpi\n      0x00\n      dup1\n      revert\n    tag_52:\n      pop\n      tag_53\n      0x04\n      dup1\n      calldatasize\n      sub\n      dup2\n      add\n      swap1\n      tag_54\n      swap2\n      swap1\n      tag_44\n      jump\t// in\n    tag_54:\n      tag_55\n      jump\t// in\n    tag_53:\n      mload(0x40)\n      tag_56\n      swap2\n      swap1\n      tag_47\n      jump\t// in\n    tag_56:\n      mload(0x40)\n      dup1\n      swap2\n      sub\n      swap1\n      return\n        /* \"contracts/erevos/AetherScionsFeeReflectionV3.sol\":1308:1333  uint256 public nftBalance */\n    tag_7:\n      callvalue\n      dup1\n      iszero\n      tag_57\n      jumpi\n      0x00\n      dup1\n      revert\n    tag_57:\n      pop\n      tag_58\n      tag_59\n      jump\t// in\n    tag_58:\n      mload(0x40)\n      tag_60\n      swap2\n      swap1\n      tag_61\n      jump\t// in\n    tag_60:\n      mload(0x40)\n      dup1\n      swap2\n      sub\n      swap1\n      return\n        /* \"contracts/erevos/AetherScionsFeeReflectionV3.sol\":457:500  address payable public immutable coreWallet */\n    tag_8:\n      callvalue\n      dup1\n      iszero\n      tag_62\n      jumpi\n      0x00\n      dup1\n      revert\n    tag_62:\n      pop\n      tag_63\n      tag_64\n      jump\t// in\n    tag_63:\n      mload(0x40)\n      tag_65\n      swap2\n      swap1\n      tag_66\n      jump\t// in\n    tag_65:\n      mload(0x40)\n      dup1\n      swap2\n      sub\n      swap1\n      return\n        /* \"contracts/erevos/AetherScionsFeeReflectionV3.sol\":651:680  address public immutable WETN */\n    tag_9:\n      callvalue\n      dup1\n      iszero\n      tag_67\n      jumpi\n      0x00\n      dup1\n      revert\n    tag_67:\n      pop\n      tag_68\n      tag_69\n      jump\t// in\n    tag_68:\n      mload(0x40)\n      tag_70\n      swap2\n      swap1\n      tag_40\n      jump\t// in\n    tag_70:\n      mload(0x40)\n      dup1\n      swap2\n      sub\n      swap1\n      return\n        /* \"contracts/erevos/AetherScionsFeeReflectionV3.sol\":4180:4362  function setAutoBuyAndBurnCore(bool _autoBuyAndBurnCore) external onlyOwner nonReentrant { // Add: Setter for core auto-burn... */\n    tag_10:\n      callvalue\n      dup1\n      iszero\n      tag_71\n      jumpi\n      0x00\n      dup1\n      revert\n    tag_71:\n      pop\n      tag_72\n      0x04\n      dup1\n      calldatasize\n      sub\n      dup2\n      add\n      swap1\n      tag_73\n      swap2\n      swap1\n      tag_74\n      jump\t// in\n    tag_73:\n      tag_75\n      jump\t// in\n    tag_72:\n      stop\n        /* \"https://github.com/OpenZeppelin/openzeppelin-contracts/blob/v5.4.0/contracts/access/Ownable.sol\":2293:2394  function renounceOwnership() public virtual onlyOwner {... */\n    tag_11:\n      callvalue\n      dup1\n      iszero\n      tag_76\n      jumpi\n      0x00\n      dup1\n      revert\n    tag_76:\n      pop\n      tag_77\n      tag_78\n      jump\t// in\n    tag_77:\n      stop\n        /* \"contracts/erevos/AetherScionsFeeReflectionV3.sol\":1275:1301  uint256 public coreBalance */\n    tag_12:\n      callvalue\n      dup1\n      iszero\n      tag_79\n      jumpi\n      0x00\n      dup1\n      revert\n    tag_79:\n      pop\n      tag_80\n      tag_81\n      jump\t// in\n    tag_80:\n      mload(0x40)\n      tag_82\n      swap2\n      swap1\n      tag_61\n      jump\t// in\n    tag_82:\n      mload(0x40)\n      dup1\n      swap2\n      sub\n      swap1\n      return\n        /* \"contracts/erevos/AetherScionsFeeReflectionV3.sol\":1342:1372  bool public autoBuyAndBurnCore */\n    tag_13:\n      callvalue\n      dup1\n      iszero\n      tag_83\n      jumpi\n      0x00\n      dup1\n      revert\n    tag_83:\n      pop\n      tag_84\n      tag_85\n      jump\t// in\n    tag_84:\n      mload(0x40)\n      tag_86\n      swap2\n      swap1\n      tag_47\n      jump\t// in\n    tag_86:\n      mload(0x40)\n      dup1\n      swap2\n      sub\n      swap1\n      return\n        /* \"contracts/erevos/AetherScionsFeeReflectionV3.sol\":2846:3159  function addWhitelistedNFT(address nftContract) external onlyOwner {... */\n    tag_14:\n      callvalue\n      dup1\n      iszero\n      tag_87\n      jumpi\n      0x00\n      dup1\n      revert\n    tag_87:\n      pop\n      tag_88\n      0x04\n      dup1\n      calldatasize\n      sub\n      dup2\n      add\n      swap1\n      tag_89\n      swap2\n      swap1\n      tag_44\n      jump\t// in\n    tag_89:\n      tag_90\n      jump\t// in\n    tag_88:\n      stop\n        /* \"https://github.com/OpenZeppelin/openzeppelin-contracts/blob/v5.4.0/contracts/access/Ownable.sol\":1638:1723  function owner() public view virtual returns (address) {... */\n    tag_15:\n      callvalue\n      dup1\n      iszero\n      tag_91\n      jumpi\n      0x00\n      dup1\n      revert\n    tag_91:\n      pop\n      tag_92\n      tag_93\n      jump\t// in\n    tag_92:\n      mload(0x40)\n      tag_94\n      swap2\n      swap1\n      tag_40\n      jump\t// in\n    tag_94:\n      mload(0x40)\n      dup1\n      swap2\n      sub\n      swap1\n      return\n        /* \"contracts/erevos/AetherScionsFeeReflectionV3.sol\":7469:7878  function rescueETH(uint256 amount, address payable to) external onlyOwner nonReentrant {... */\n    tag_16:\n      callvalue\n      dup1\n      iszero\n      tag_95\n      jumpi\n      0x00\n      dup1\n      revert\n    tag_95:\n      pop\n      tag_96\n      0x04\n      dup1\n      calldatasize\n      sub\n      dup2\n      add\n      swap1\n      tag_97\n      swap2\n      swap1\n      tag_98\n      jump\t// in\n    tag_97:\n      tag_99\n      jump\t// in\n    tag_96:\n      stop\n        /* \"contracts/erevos/AetherScionsFeeReflectionV3.sol\":839:873  address public immutable erevosNFT */\n    tag_17:\n      callvalue\n      dup1\n      iszero\n      tag_100\n      jumpi\n      0x00\n      dup1\n      revert\n    tag_100:\n      pop\n      tag_101\n      tag_102\n      jump\t// in\n    tag_101:\n      mload(0x40)\n      tag_103\n      swap2\n      swap1\n      tag_40\n      jump\t// in\n    tag_103:\n      mload(0x40)\n      dup1\n      swap2\n      sub\n      swap1\n      return\n        /* \"contracts/erevos/AetherScionsFeeReflectionV3.sol\":7976:8791  function rescueTokens(address token, uint256 amount, address to) external onlyOwner nonReentrant {... */\n    tag_18:\n      callvalue\n      dup1\n      iszero\n      tag_104\n      jumpi\n      0x00\n      dup1\n      revert\n    tag_104:\n      pop\n      tag_105\n      0x04\n      dup1\n      calldatasize\n      sub\n      dup2\n      add\n      swap1\n      tag_106\n      swap2\n      swap1\n      tag_107\n      jump\t// in\n    tag_106:\n      tag_108\n      jump\t// in\n    tag_105:\n      stop\n        /* \"contracts/erevos/AetherScionsFeeReflectionV3.sol\":3638:4084  function withdrawCore() external onlyOwner nonReentrant {... */\n    tag_19:\n      callvalue\n      dup1\n      iszero\n      tag_109\n      jumpi\n      0x00\n      dup1\n      revert\n    tag_109:\n      pop\n      tag_110\n      tag_111\n      jump\t// in\n    tag_110:\n      stop\n        /* \"contracts/erevos/AetherScionsFeeReflectionV3.sol\":4465:4574  function processIncomingTokens() external onlyOwnerOrWhitelistedNFT {... */\n    tag_20:\n      callvalue\n      dup1\n      iszero\n      tag_112\n      jumpi\n      0x00\n      dup1\n      revert\n    tag_112:\n      pop\n      tag_113\n      tag_114\n      jump\t// in\n    tag_113:\n      stop\n        /* \"contracts/erevos/AetherScionsFeeReflectionV3.sol\":4582:4782  function manualBuyAndBurnCore() external onlyOwner nonReentrant { // Add: Separate manual for core only... */\n    tag_21:\n      callvalue\n      dup1\n      iszero\n      tag_115\n      jumpi\n      0x00\n      dup1\n      revert\n    tag_115:\n      pop\n      tag_116\n      tag_117\n      jump\t// in\n    tag_116:\n      stop\n        /* \"https://github.com/OpenZeppelin/openzeppelin-contracts/blob/v5.4.0/contracts/access/Ownable.sol\":2543:2758  function transferOwnership(address newOwner) public virtual onlyOwner {... */\n    tag_22:\n      callvalue\n      dup1\n      iszero\n      tag_118\n      jumpi\n      0x00\n      dup1\n      revert\n    tag_118:\n      pop\n      tag_119\n      0x04\n      dup1\n      calldatasize\n      sub\n      dup2\n      add\n      swap1\n      tag_120\n      swap2\n      swap1\n      tag_44\n      jump\t// in\n    tag_120:\n      tag_121\n      jump\t// in\n    tag_119:\n      stop\n        /* \"contracts/erevos/AetherScionsFeeReflectionV3.sol\":748:798  address public immutable BURN_ADDRESS = address(0) */\n    tag_23:\n      callvalue\n      dup1\n      iszero\n      tag_122\n      jumpi\n      0x00\n      dup1\n      revert\n    tag_122:\n      pop\n      tag_123\n      tag_124\n      jump\t// in\n    tag_123:\n      mload(0x40)\n      tag_125\n      swap2\n      swap1\n      tag_40\n      jump\t// in\n    tag_125:\n      mload(0x40)\n      dup1\n      swap2\n      sub\n      swap1\n      return\n        /* \"contracts/erevos/AetherScionsFeeReflectionV3.sol\":4885:5773  function _processIncomingFee(uint256 amount) internal {... */\n    tag_31:\n        /* \"contracts/erevos/AetherScionsFeeReflectionV3.sol\":4962:4963  0 */\n      0x00\n        /* \"contracts/erevos/AetherScionsFeeReflectionV3.sol\":4953:4959  amount */\n      dup2\n        /* \"contracts/erevos/AetherScionsFeeReflectionV3.sol\":4953:4963  amount > 0 */\n      gt\n        /* \"contracts/erevos/AetherScionsFeeReflectionV3.sol\":4950:5027  if(amount > 0){... */\n      iszero\n      tag_127\n      jumpi\n        /* \"contracts/erevos/AetherScionsFeeReflectionV3.sol\":4985:4989  WETN */\n      immutable(\"0x789bcdf275fa270780a52ae3b79bb1ce0fda7e0aaad87b57b74bb99ac290714a\")\n        /* \"contracts/erevos/AetherScionsFeeReflectionV3.sol\":4979:4998  IWETN(WETN).deposit */\n      0xffffffffffffffffffffffffffffffffffffffff\n      and\n      0xd0e30db0\n        /* \"contracts/erevos/AetherScionsFeeReflectionV3.sol\":5006:5012  amount */\n      dup3\n        /* \"contracts/erevos/AetherScionsFeeReflectionV3.sol\":4979:5015  IWETN(WETN).deposit{value: amount}() */\n      mload(0x40)\n      dup3\n      0xffffffff\n      and\n      0xe0\n      shl\n      dup2\n      mstore\n      0x04\n      add\n      0x00\n      mload(0x40)\n      dup1\n      dup4\n      sub\n      dup2\n      dup6\n      dup9\n      dup1\n      extcodesize\n      iszero\n      dup1\n      iszero\n      tag_128\n      jumpi\n      0x00\n      dup1\n      revert\n    tag_128:\n      pop\n      gas\n      call\n      iszero\n      dup1\n      iszero\n      tag_130\n      jumpi\n      returndatasize\n      0x00\n      dup1\n      returndatacopy\n      revert(0x00, returndatasize)\n    tag_130:\n      pop\n      pop\n      pop\n      pop\n      pop\n        /* \"contracts/erevos/AetherScionsFeeReflectionV3.sol\":4950:5027  if(amount > 0){... */\n    tag_127:\n        /* \"contracts/erevos/AetherScionsFeeReflectionV3.sol\":5055:5074  uint256 currentWetn */\n      0x00\n        /* \"contracts/erevos/AetherScionsFeeReflectionV3.sol\":5083:5087  WETN */\n      immutable(\"0x789bcdf275fa270780a52ae3b79bb1ce0fda7e0aaad87b57b74bb99ac290714a\")\n        /* \"contracts/erevos/AetherScionsFeeReflectionV3.sol\":5077:5098  IWETN(WETN).balanceOf */\n      0xffffffffffffffffffffffffffffffffffffffff\n      and\n      0x70a08231\n        /* \"contracts/erevos/AetherScionsFeeReflectionV3.sol\":5107:5111  this */\n      address\n        /* \"contracts/erevos/AetherScionsFeeReflectionV3.sol\":5077:5113  IWETN(WETN).balanceOf(address(this)) */\n      mload(0x40)\n      dup3\n      0xffffffff\n      and\n      0xe0\n      shl\n      dup2\n      mstore\n      0x04\n      add\n      tag_131\n      swap2\n      swap1\n      tag_40\n      jump\t// in\n    tag_131:\n      0x20\n      mload(0x40)\n      dup1\n      dup4\n      sub\n      dup2\n      dup7\n      gas\n      staticcall\n      iszero\n      dup1\n      iszero\n      tag_133\n      jumpi\n      returndatasize\n      0x00\n      dup1\n      returndatacopy\n      revert(0x00, returndatasize)\n    tag_133:\n      pop\n      pop\n      pop\n      pop\n      mload(0x40)\n      returndatasize\n      not(0x1f)\n      0x1f\n      dup3\n      add\n      and\n      dup3\n      add\n      dup1\n      0x40\n      mstore\n      pop\n      dup2\n      add\n      swap1\n      tag_134\n      swap2\n      swap1\n      tag_135\n      jump\t// in\n    tag_134:\n        /* \"contracts/erevos/AetherScionsFeeReflectionV3.sol\":5055:5113  uint256 currentWetn = IWETN(WETN).balanceOf(address(this)) */\n      swap1\n      pop\n        /* \"contracts/erevos/AetherScionsFeeReflectionV3.sol\":5124:5140  uint256 expected */\n      0x00\n        /* \"contracts/erevos/AetherScionsFeeReflectionV3.sol\":5157:5167  nftBalance */\n      sload(0x05)\n        /* \"contracts/erevos/AetherScionsFeeReflectionV3.sol\":5143:5154  coreBalance */\n      sload(0x04)\n        /* \"contracts/erevos/AetherScionsFeeReflectionV3.sol\":5143:5167  coreBalance + nftBalance */\n      tag_136\n      swap2\n      swap1\n      tag_137\n      jump\t// in\n    tag_136:\n        /* \"contracts/erevos/AetherScionsFeeReflectionV3.sol\":5124:5167  uint256 expected = coreBalance + nftBalance */\n      swap1\n      pop\n        /* \"contracts/erevos/AetherScionsFeeReflectionV3.sol\":5201:5209  expected */\n      dup1\n        /* \"contracts/erevos/AetherScionsFeeReflectionV3.sol\":5186:5197  currentWetn */\n      dup3\n        /* \"contracts/erevos/AetherScionsFeeReflectionV3.sol\":5186:5209  currentWetn >= expected */\n      lt\n      iszero\n        /* \"contracts/erevos/AetherScionsFeeReflectionV3.sol\":5178:5227  require(currentWetn >= expected, \"Balance error\") */\n      tag_138\n      jumpi\n      mload(0x40)\n      0x08c379a000000000000000000000000000000000000000000000000000000000\n      dup2\n      mstore\n      0x04\n      add\n      tag_139\n      swap1\n      tag_140\n      jump\t// in\n    tag_139:\n      mload(0x40)\n      dup1\n      swap2\n      sub\n      swap1\n      revert\n    tag_138:\n        /* \"contracts/erevos/AetherScionsFeeReflectionV3.sol\":5248:5264  uint256 incoming */\n      0x00\n        /* \"contracts/erevos/AetherScionsFeeReflectionV3.sol\":5281:5289  expected */\n      dup2\n        /* \"contracts/erevos/AetherScionsFeeReflectionV3.sol\":5267:5278  currentWetn */\n      dup4\n        /* \"contracts/erevos/AetherScionsFeeReflectionV3.sol\":5267:5289  currentWetn - expected */\n      tag_141\n      swap2\n      swap1\n      tag_142\n      jump\t// in\n    tag_141:\n        /* \"contracts/erevos/AetherScionsFeeReflectionV3.sol\":5248:5289  uint256 incoming = currentWetn - expected */\n      swap1\n      pop\n        /* \"contracts/erevos/AetherScionsFeeReflectionV3.sol\":5316:5317  0 */\n      0x00\n        /* \"contracts/erevos/AetherScionsFeeReflectionV3.sol\":5305:5313  incoming */\n      dup2\n        /* \"contracts/erevos/AetherScionsFeeReflectionV3.sol\":5305:5317  incoming > 0 */\n      gt\n        /* \"contracts/erevos/AetherScionsFeeReflectionV3.sol\":5302:5766  if(incoming > 0){... */\n      iszero\n      tag_143\n      jumpi\n        /* \"contracts/erevos/AetherScionsFeeReflectionV3.sol\":5333:5352  uint256 corePortion */\n      0x00\n        /* \"contracts/erevos/AetherScionsFeeReflectionV3.sol\":5373:5376  100 */\n      0x64\n        /* \"contracts/erevos/AetherScionsFeeReflectionV3.sol\":5367:5369  50 */\n      0x32\n        /* \"contracts/erevos/AetherScionsFeeReflectionV3.sol\":5356:5364  incoming */\n      dup4\n        /* \"contracts/erevos/AetherScionsFeeReflectionV3.sol\":5356:5369  incoming * 50 */\n      tag_144\n      swap2\n      swap1\n      tag_145\n      jump\t// in\n    tag_144:\n        /* \"contracts/erevos/AetherScionsFeeReflectionV3.sol\":5355:5376  (incoming * 50) / 100 */\n      tag_146\n      swap2\n      swap1\n      tag_147\n      jump\t// in\n    tag_146:\n        /* \"contracts/erevos/AetherScionsFeeReflectionV3.sol\":5333:5376  uint256 corePortion = (incoming * 50) / 100 */\n      swap1\n      pop\n        /* \"contracts/erevos/AetherScionsFeeReflectionV3.sol\":5391:5409  uint256 nftPortion */\n      0x00\n        /* \"contracts/erevos/AetherScionsFeeReflectionV3.sol\":5423:5434  corePortion */\n      dup2\n        /* \"contracts/erevos/AetherScionsFeeReflectionV3.sol\":5412:5420  incoming */\n      dup4\n        /* \"contracts/erevos/AetherScionsFeeReflectionV3.sol\":5412:5434  incoming - corePortion */\n      tag_148\n      swap2\n      swap1\n      tag_142\n      jump\t// in\n    tag_148:\n        /* \"contracts/erevos/AetherScionsFeeReflectionV3.sol\":5391:5434  uint256 nftPortion = incoming - corePortion */\n      swap1\n      pop\n        /* \"contracts/erevos/AetherScionsFeeReflectionV3.sol\":5466:5477  corePortion */\n      dup2\n        /* \"contracts/erevos/AetherScionsFeeReflectionV3.sol\":5451:5462  coreBalance */\n      0x04\n      0x00\n        /* \"contracts/erevos/AetherScionsFeeReflectionV3.sol\":5451:5477  coreBalance += corePortion */\n      dup3\n      dup3\n      sload\n      tag_149\n      swap2\n      swap1\n      tag_137\n      jump\t// in\n    tag_149:\n      swap3\n      pop\n      pop\n      dup2\n      swap1\n      sstore\n      pop\n        /* \"contracts/erevos/AetherScionsFeeReflectionV3.sol\":5506:5516  nftPortion */\n      dup1\n        /* \"contracts/erevos/AetherScionsFeeReflectionV3.sol\":5492:5502  nftBalance */\n      0x05\n      0x00\n        /* \"contracts/erevos/AetherScionsFeeReflectionV3.sol\":5492:5516  nftBalance += nftPortion */\n      dup3\n      dup3\n      sload\n      tag_150\n      swap2\n      swap1\n      tag_137\n      jump\t// in\n    tag_150:\n      swap3\n      pop\n      pop\n      dup2\n      swap1\n      sstore\n      pop\n        /* \"contracts/erevos/AetherScionsFeeReflectionV3.sol\":5538:5585  FeeProcessed(incoming, corePortion, nftPortion) */\n      0xa72767c83a84be51143fa5ae1e4e5ede2e15c027e1879e7edf0d523b0723c58d\n        /* \"contracts/erevos/AetherScionsFeeReflectionV3.sol\":5551:5559  incoming */\n      dup4\n        /* \"contracts/erevos/AetherScionsFeeReflectionV3.sol\":5561:5572  corePortion */\n      dup4\n        /* \"contracts/erevos/AetherScionsFeeReflectionV3.sol\":5574:5584  nftPortion */\n      dup4\n        /* \"contracts/erevos/AetherScionsFeeReflectionV3.sol\":5538:5585  FeeProcessed(incoming, corePortion, nftPortion) */\n      mload(0x40)\n      tag_151\n      swap4\n      swap3\n      swap2\n      swap1\n      tag_152\n      jump\t// in\n    tag_151:\n      mload(0x40)\n      dup1\n      swap2\n      sub\n      swap1\n      log1\n        /* \"contracts/erevos/AetherScionsFeeReflectionV3.sol\":5602:5621  _distributeToNFTs() */\n      tag_153\n        /* \"contracts/erevos/AetherScionsFeeReflectionV3.sol\":5602:5619  _distributeToNFTs */\n      tag_154\n        /* \"contracts/erevos/AetherScionsFeeReflectionV3.sol\":5602:5621  _distributeToNFTs() */\n      jump\t// in\n    tag_153:\n        /* \"contracts/erevos/AetherScionsFeeReflectionV3.sol\":5653:5671  autoBuyAndBurnCore */\n      0x06\n      0x00\n      swap1\n      sload\n      swap1\n      0x0100\n      exp\n      swap1\n      div\n      0xff\n      and\n        /* \"contracts/erevos/AetherScionsFeeReflectionV3.sol\":5650:5755  if(autoBuyAndBurnCore){ // Add: Trigger core auto-burn... */\n      iszero\n      tag_155\n      jumpi\n        /* \"contracts/erevos/AetherScionsFeeReflectionV3.sol\":5722:5739  _buyAndBurnCore() */\n      tag_156\n        /* \"contracts/erevos/AetherScionsFeeReflectionV3.sol\":5722:5737  _buyAndBurnCore */\n      tag_157\n        /* \"contracts/erevos/AetherScionsFeeReflectionV3.sol\":5722:5739  _buyAndBurnCore() */\n      jump\t// in\n    tag_156:\n        /* \"contracts/erevos/AetherScionsFeeReflectionV3.sol\":5650:5755  if(autoBuyAndBurnCore){ // Add: Trigger core auto-burn... */\n    tag_155:\n        /* \"contracts/erevos/AetherScionsFeeReflectionV3.sol\":5318:5766  {... */\n      pop\n      pop\n        /* \"contracts/erevos/AetherScionsFeeReflectionV3.sol\":5302:5766  if(incoming > 0){... */\n    tag_143:\n        /* \"contracts/erevos/AetherScionsFeeReflectionV3.sol\":4939:5773  {... */\n      pop\n      pop\n      pop\n        /* \"contracts/erevos/AetherScionsFeeReflectionV3.sol\":4885:5773  function _processIncomingFee(uint256 amount) internal {... */\n      pop\n      jump\t// out\n        /* \"contracts/erevos/AetherScionsFeeReflectionV3.sol\":554:588  address public immutable coreToken */\n    tag_38:\n      immutable(\"0x7880aec93413f117ef14bd4e6d130875ab2c7d7d55a064fac3c2f7bd51516380\")\n      dup2\n      jump\t// out\n        /* \"contracts/erevos/AetherScionsFeeReflectionV3.sol\":3412:3542  function isWhitelistedNFT(address nftContract) external view returns (bool) {... */\n    tag_45:\n        /* \"contracts/erevos/AetherScionsFeeReflectionV3.sol\":3482:3486  bool */\n      0x00\n        /* \"contracts/erevos/AetherScionsFeeReflectionV3.sol\":3506:3521  whitelistedNFTs */\n      0x03\n        /* \"contracts/erevos/AetherScionsFeeReflectionV3.sol\":3506:3534  whitelistedNFTs[nftContract] */\n      0x00\n        /* \"contracts/erevos/AetherScionsFeeReflectionV3.sol\":3522:3533  nftContract */\n      dup4\n        /* \"contracts/erevos/AetherScionsFeeReflectionV3.sol\":3506:3534  whitelistedNFTs[nftContract] */\n      0xffffffffffffffffffffffffffffffffffffffff\n      and\n      0xffffffffffffffffffffffffffffffffffffffff\n      and\n      dup2\n      mstore\n      0x20\n      add\n      swap1\n      dup2\n      mstore\n      0x20\n      add\n      0x00\n      keccak256\n      0x00\n      swap1\n      sload\n      swap1\n      0x0100\n      exp\n      swap1\n      div\n      0xff\n      and\n        /* \"contracts/erevos/AetherScionsFeeReflectionV3.sol\":3499:3534  return whitelistedNFTs[nftContract] */\n      swap1\n      pop\n        /* \"contracts/erevos/AetherScionsFeeReflectionV3.sol\":3412:3542  function isWhitelistedNFT(address nftContract) external view returns (bool) {... */\n      swap2\n      swap1\n      pop\n      jump\t// out\n        /* \"contracts/erevos/AetherScionsFeeReflectionV3.sol\":3167:3404  function removeWhitelistedNFT(address nftContract) external onlyOwner {... */\n    tag_51:\n        /* \"https://github.com/OpenZeppelin/openzeppelin-contracts/blob/v5.4.0/contracts/access/Ownable.sol\":1531:1544  _checkOwner() */\n      tag_160\n        /* \"https://github.com/OpenZeppelin/openzeppelin-contracts/blob/v5.4.0/contracts/access/Ownable.sol\":1531:1542  _checkOwner */\n      tag_161\n        /* \"https://github.com/OpenZeppelin/openzeppelin-contracts/blob/v5.4.0/contracts/access/Ownable.sol\":1531:1544  _checkOwner() */\n      jump\t// in\n    tag_160:\n        /* \"contracts/erevos/AetherScionsFeeReflectionV3.sol\":3256:3271  whitelistedNFTs */\n      0x03\n        /* \"contracts/erevos/AetherScionsFeeReflectionV3.sol\":3256:3284  whitelistedNFTs[nftContract] */\n      0x00\n        /* \"contracts/erevos/AetherScionsFeeReflectionV3.sol\":3272:3283  nftContract */\n      dup3\n        /* \"contracts/erevos/AetherScionsFeeReflectionV3.sol\":3256:3284  whitelistedNFTs[nftContract] */\n      0xffffffffffffffffffffffffffffffffffffffff\n      and\n      0xffffffffffffffffffffffffffffffffffffffff\n      and\n      dup2\n      mstore\n      0x20\n      add\n      swap1\n      dup2\n      mstore\n      0x20\n      add\n      0x00\n      keccak256\n      0x00\n      swap1\n      sload\n      swap1\n      0x0100\n      exp\n      swap1\n      div\n      0xff\n      and\n        /* \"contracts/erevos/AetherScionsFeeReflectionV3.sol\":3248:3304  require(whitelistedNFTs[nftContract], \"Not whitelisted\") */\n      tag_163\n      jumpi\n      mload(0x40)\n      0x08c379a000000000000000000000000000000000000000000000000000000000\n      dup2\n      mstore\n      0x04\n      add\n      tag_164\n      swap1\n      tag_165\n      jump\t// in\n    tag_164:\n      mload(0x40)\n      dup1\n      swap2\n      sub\n      swap1\n      revert\n    tag_163:\n        /* \"contracts/erevos/AetherScionsFeeReflectionV3.sol\":3346:3351  false */\n      0x00\n        /* \"contracts/erevos/AetherScionsFeeReflectionV3.sol\":3315:3330  whitelistedNFTs */\n      0x03\n        /* \"contracts/erevos/AetherScionsFeeReflectionV3.sol\":3315:3343  whitelistedNFTs[nftContract] */\n      0x00\n        /* \"contracts/erevos/AetherScionsFeeReflectionV3.sol\":3331:3342  nftContract */\n      dup4\n        /* \"contracts/erevos/AetherScionsFeeReflectionV3.sol\":3315:3343  whitelistedNFTs[nftContract] */\n      0xffffffffffffffffffffffffffffffffffffffff\n      and\n      0xffffffffffffffffffffffffffffffffffffffff\n      and\n      dup2\n      mstore\n      0x20\n      add\n      swap1\n      dup2\n      mstore\n      0x20\n      add\n      0x00\n      keccak256\n      0x00\n        /* \"contracts/erevos/AetherScionsFeeReflectionV3.sol\":3315:3351  whitelistedNFTs[nftContract] = false */\n      0x0100\n      exp\n      dup2\n      sload\n      dup2\n      0xff\n      mul\n      not\n      and\n      swap1\n      dup4\n      iszero\n      iszero\n      mul\n      or\n      swap1\n      sstore\n      pop\n        /* \"contracts/erevos/AetherScionsFeeReflectionV3.sol\":3367:3396  NFTUnwhitelisted(nftContract) */\n      0xd9ea38e99b87231f31b9da68de3c78d56418e10e2e64d338c9f438ab75681ebc\n        /* \"contracts/erevos/AetherScionsFeeReflectionV3.sol\":3384:3395  nftContract */\n      dup2\n        /* \"contracts/erevos/AetherScionsFeeReflectionV3.sol\":3367:3396  NFTUnwhitelisted(nftContract) */\n      mload(0x40)\n      tag_166\n      swap2\n      swap1\n      tag_40\n      jump\t// in\n    tag_166:\n      mload(0x40)\n      dup1\n      swap2\n      sub\n      swap1\n      log1\n        /* \"contracts/erevos/AetherScionsFeeReflectionV3.sol\":3167:3404  function removeWhitelistedNFT(address nftContract) external onlyOwner {... */\n      pop\n      jump\t// out\n        /* \"contracts/erevos/AetherScionsFeeReflectionV3.sol\":1131:1178  mapping(address => bool) public whitelistedNFTs */\n    tag_55:\n      mstore(0x20, 0x03)\n      dup1\n      0x00\n      mstore\n      keccak256(0x00, 0x40)\n      0x00\n      swap2\n      pop\n      sload\n      swap1\n      0x0100\n      exp\n      swap1\n      div\n      0xff\n      and\n      dup2\n      jump\t// out\n        /* \"contracts/erevos/AetherScionsFeeReflectionV3.sol\":1308:1333  uint256 public nftBalance */\n    tag_59:\n      sload(0x05)\n      dup2\n      jump\t// out\n        /* \"contracts/erevos/AetherScionsFeeReflectionV3.sol\":457:500  address payable public immutable coreWallet */\n    tag_64:\n      immutable(\"0xd2f8f61201b2b11a78d6e866abc9c3db2ae8631fa656bfe5cb53668255367afb\")\n      dup2\n      jump\t// out\n        /* \"contracts/erevos/AetherScionsFeeReflectionV3.sol\":651:680  address public immutable WETN */\n    tag_69:\n      immutable(\"0x789bcdf275fa270780a52ae3b79bb1ce0fda7e0aaad87b57b74bb99ac290714a\")\n      dup2\n      jump\t// out\n        /* \"contracts/erevos/AetherScionsFeeReflectionV3.sol\":4180:4362  function setAutoBuyAndBurnCore(bool _autoBuyAndBurnCore) external onlyOwner nonReentrant { // Add: Setter for core auto-burn... */\n    tag_75:\n        /* \"https://github.com/OpenZeppelin/openzeppelin-contracts/blob/v5.4.0/contracts/access/Ownable.sol\":1531:1544  _checkOwner() */\n      tag_168\n        /* \"https://github.com/OpenZeppelin/openzeppelin-contracts/blob/v5.4.0/contracts/access/Ownable.sol\":1531:1542  _checkOwner */\n      tag_161\n        /* \"https://github.com/OpenZeppelin/openzeppelin-contracts/blob/v5.4.0/contracts/access/Ownable.sol\":1531:1544  _checkOwner() */\n      jump\t// in\n    tag_168:\n        /* \"https://github.com/OpenZeppelin/openzeppelin-contracts/blob/v5.4.0/contracts/utils/ReentrancyGuard.sol\":2500:2521  _nonReentrantBefore() */\n      tag_170\n        /* \"https://github.com/OpenZeppelin/openzeppelin-contracts/blob/v5.4.0/contracts/utils/ReentrancyGuard.sol\":2500:2519  _nonReentrantBefore */\n      tag_171\n        /* \"https://github.com/OpenZeppelin/openzeppelin-contracts/blob/v5.4.0/contracts/utils/ReentrancyGuard.sol\":2500:2521  _nonReentrantBefore() */\n      jump\t// in\n    tag_170:\n        /* \"contracts/erevos/AetherScionsFeeReflectionV3.sol\":4335:4354  _autoBuyAndBurnCore */\n      dup1\n        /* \"contracts/erevos/AetherScionsFeeReflectionV3.sol\":4314:4332  autoBuyAndBurnCore */\n      0x06\n      0x00\n        /* \"contracts/erevos/AetherScionsFeeReflectionV3.sol\":4314:4354  autoBuyAndBurnCore = _autoBuyAndBurnCore */\n      0x0100\n      exp\n      dup2\n      sload\n      dup2\n      0xff\n      mul\n      not\n      and\n      swap1\n      dup4\n      iszero\n      iszero\n      mul\n      or\n      swap1\n      sstore\n      pop\n        /* \"https://github.com/OpenZeppelin/openzeppelin-contracts/blob/v5.4.0/contracts/utils/ReentrancyGuard.sol\":2542:2562  _nonReentrantAfter() */\n      tag_173\n        /* \"https://github.com/OpenZeppelin/openzeppelin-contracts/blob/v5.4.0/contracts/utils/ReentrancyGuard.sol\":2542:2560  _nonReentrantAfter */\n      tag_174\n        /* \"https://github.com/OpenZeppelin/openzeppelin-contracts/blob/v5.4.0/contracts/utils/ReentrancyGuard.sol\":2542:2562  _nonReentrantAfter() */\n      jump\t// in\n    tag_173:\n        /* \"contracts/erevos/AetherScionsFeeReflectionV3.sol\":4180:4362  function setAutoBuyAndBurnCore(bool _autoBuyAndBurnCore) external onlyOwner nonReentrant { // Add: Setter for core auto-burn... */\n      pop\n      jump\t// out\n        /* \"https://github.com/OpenZeppelin/openzeppelin-contracts/blob/v5.4.0/contracts/access/Ownable.sol\":2293:2394  function renounceOwnership() public virtual onlyOwner {... */\n    tag_78:\n        /* \"https://github.com/OpenZeppelin/openzeppelin-contracts/blob/v5.4.0/contracts/access/Ownable.sol\":1531:1544  _checkOwner() */\n      tag_176\n        /* \"https://github.com/OpenZeppelin/openzeppelin-contracts/blob/v5.4.0/contracts/access/Ownable.sol\":1531:1542  _checkOwner */\n      tag_161\n        /* \"https://github.com/OpenZeppelin/openzeppelin-contracts/blob/v5.4.0/contracts/access/Ownable.sol\":1531:1544  _checkOwner() */\n      jump\t// in\n    tag_176:\n        /* \"https://github.com/OpenZeppelin/openzeppelin-contracts/blob/v5.4.0/contracts/access/Ownable.sol\":2357:2387  _transferOwnership(address(0)) */\n      tag_178\n        /* \"https://github.com/OpenZeppelin/openzeppelin-contracts/blob/v5.4.0/contracts/access/Ownable.sol\":2384:2385  0 */\n      0x00\n        /* \"https://github.com/OpenZeppelin/openzeppelin-contracts/blob/v5.4.0/contracts/access/Ownable.sol\":2357:2375  _transferOwnership */\n      tag_179\n        /* \"https://github.com/OpenZeppelin/openzeppelin-contracts/blob/v5.4.0/contracts/access/Ownable.sol\":2357:2387  _transferOwnership(address(0)) */\n      jump\t// in\n    tag_178:\n        /* \"https://github.com/OpenZeppelin/openzeppelin-contracts/blob/v5.4.0/contracts/access/Ownable.sol\":2293:2394  function renounceOwnership() public virtual onlyOwner {... */\n      jump\t// out\n        /* \"contracts/erevos/AetherScionsFeeReflectionV3.sol\":1275:1301  uint256 public coreBalance */\n    tag_81:\n      sload(0x04)\n      dup2\n      jump\t// out\n        /* \"contracts/erevos/AetherScionsFeeReflectionV3.sol\":1342:1372  bool public autoBuyAndBurnCore */\n    tag_85:\n      0x06\n      0x00\n      swap1\n      sload\n      swap1\n      0x0100\n      exp\n      swap1\n      div\n      0xff\n      and\n      dup2\n      jump\t// out\n        /* \"contracts/erevos/AetherScionsFeeReflectionV3.sol\":2846:3159  function addWhitelistedNFT(address nftContract) external onlyOwner {... */\n    tag_90:\n        /* \"https://github.com/OpenZeppelin/openzeppelin-contracts/blob/v5.4.0/contracts/access/Ownable.sol\":1531:1544  _checkOwner() */\n      tag_181\n        /* \"https://github.com/OpenZeppelin/openzeppelin-contracts/blob/v5.4.0/contracts/access/Ownable.sol\":1531:1542  _checkOwner */\n      tag_161\n        /* \"https://github.com/OpenZeppelin/openzeppelin-contracts/blob/v5.4.0/contracts/access/Ownable.sol\":1531:1544  _checkOwner() */\n      jump\t// in\n    tag_181:\n        /* \"contracts/erevos/AetherScionsFeeReflectionV3.sol\":2955:2956  0 */\n      0x00\n        /* \"contracts/erevos/AetherScionsFeeReflectionV3.sol\":2932:2957  nftContract != address(0) */\n      0xffffffffffffffffffffffffffffffffffffffff\n      and\n        /* \"contracts/erevos/AetherScionsFeeReflectionV3.sol\":2932:2943  nftContract */\n      dup2\n        /* \"contracts/erevos/AetherScionsFeeReflectionV3.sol\":2932:2957  nftContract != address(0) */\n      0xffffffffffffffffffffffffffffffffffffffff\n      and\n      sub\n        /* \"contracts/erevos/AetherScionsFeeReflectionV3.sol\":2924:2990  require(nftContract != address(0), \"Invalid NFT contract address\") */\n      tag_183\n      jumpi\n      mload(0x40)\n      0x08c379a000000000000000000000000000000000000000000000000000000000\n      dup2\n      mstore\n      0x04\n      add\n      tag_184\n      swap1\n      tag_185\n      jump\t// in\n    tag_184:\n      mload(0x40)\n      dup1\n      swap2\n      sub\n      swap1\n      revert\n    tag_183:\n        /* \"contracts/erevos/AetherScionsFeeReflectionV3.sol\":3010:3025  whitelistedNFTs */\n      0x03\n        /* \"contracts/erevos/AetherScionsFeeReflectionV3.sol\":3010:3038  whitelistedNFTs[nftContract] */\n      0x00\n        /* \"contracts/erevos/AetherScionsFeeReflectionV3.sol\":3026:3037  nftContract */\n      dup3\n        /* \"contracts/erevos/AetherScionsFeeReflectionV3.sol\":3010:3038  whitelistedNFTs[nftContract] */\n      0xffffffffffffffffffffffffffffffffffffffff\n      and\n      0xffffffffffffffffffffffffffffffffffffffff\n      and\n      dup2\n      mstore\n      0x20\n      add\n      swap1\n      dup2\n      mstore\n      0x20\n      add\n      0x00\n      keccak256\n      0x00\n      swap1\n      sload\n      swap1\n      0x0100\n      exp\n      swap1\n      div\n      0xff\n      and\n        /* \"contracts/erevos/AetherScionsFeeReflectionV3.sol\":3009:3038  !whitelistedNFTs[nftContract] */\n      iszero\n        /* \"contracts/erevos/AetherScionsFeeReflectionV3.sol\":3001:3062  require(!whitelistedNFTs[nftContract], \"Already whitelisted\") */\n      tag_186\n      jumpi\n      mload(0x40)\n      0x08c379a000000000000000000000000000000000000000000000000000000000\n      dup2\n      mstore\n      0x04\n      add\n      tag_187\n      swap1\n      tag_188\n      jump\t// in\n    tag_187:\n      mload(0x40)\n      dup1\n      swap2\n      sub\n      swap1\n      revert\n    tag_186:\n        /* \"contracts/erevos/AetherScionsFeeReflectionV3.sol\":3104:3108  true */\n      0x01\n        /* \"contracts/erevos/AetherScionsFeeReflectionV3.sol\":3073:3088  whitelistedNFTs */\n      0x03\n        /* \"contracts/erevos/AetherScionsFeeReflectionV3.sol\":3073:3101  whitelistedNFTs[nftContract] */\n      0x00\n        /* \"contracts/erevos/AetherScionsFeeReflectionV3.sol\":3089:3100  nftContract */\n      dup4\n        /* \"contracts/erevos/AetherScionsFeeReflectionV3.sol\":3073:3101  whitelistedNFTs[nftContract] */\n      0xffffffffffffffffffffffffffffffffffffffff\n      and\n      0xffffffffffffffffffffffffffffffffffffffff\n      and\n      dup2\n      mstore\n      0x20\n      add\n      swap1\n      dup2\n      mstore\n      0x20\n      add\n      0x00\n      keccak256\n      0x00\n        /* \"contracts/erevos/AetherScionsFeeReflectionV3.sol\":3073:3108  whitelistedNFTs[nftContract] = true */\n      0x0100\n      exp\n      dup2\n      sload\n      dup2\n      0xff\n      mul\n      not\n      and\n      swap1\n      dup4\n      iszero\n      iszero\n      mul\n      or\n      swap1\n      sstore\n      pop\n        /* \"contracts/erevos/AetherScionsFeeReflectionV3.sol\":3124:3151  NFTWhitelisted(nftContract) */\n      0x797c25843e35d46f4254028734c97d60f3f93aaccc1dd994dd6b90683fdb2486\n        /* \"contracts/erevos/AetherScionsFeeReflectionV3.sol\":3139:3150  nftContract */\n      dup2\n        /* \"contracts/erevos/AetherScionsFeeReflectionV3.sol\":3124:3151  NFTWhitelisted(nftContract) */\n      mload(0x40)\n      tag_189\n      swap2\n      swap1\n      tag_40\n      jump\t// in\n    tag_189:\n      mload(0x40)\n      dup1\n      swap2\n      sub\n      swap1\n      log1\n        /* \"contracts/erevos/AetherScionsFeeReflectionV3.sol\":2846:3159  function addWhitelistedNFT(address nftContract) external onlyOwner {... */\n      pop\n      jump\t// out\n        /* \"https://github.com/OpenZeppelin/openzeppelin-contracts/blob/v5.4.0/contracts/access/Ownable.sol\":1638:1723  function owner() public view virtual returns (address) {... */\n    tag_93:\n        /* \"https://github.com/OpenZeppelin/openzeppelin-contracts/blob/v5.4.0/contracts/access/Ownable.sol\":1684:1691  address */\n      0x00\n        /* \"https://github.com/OpenZeppelin/openzeppelin-contracts/blob/v5.4.0/contracts/access/Ownable.sol\":1710:1716  _owner */\n      0x01\n      0x00\n      swap1\n      sload\n      swap1\n      0x0100\n      exp\n      swap1\n      div\n      0xffffffffffffffffffffffffffffffffffffffff\n      and\n        /* \"https://github.com/OpenZeppelin/openzeppelin-contracts/blob/v5.4.0/contracts/access/Ownable.sol\":1703:1716  return _owner */\n      swap1\n      pop\n        /* \"https://github.com/OpenZeppelin/openzeppelin-contracts/blob/v5.4.0/contracts/access/Ownable.sol\":1638:1723  function owner() public view virtual returns (address) {... */\n      swap1\n      jump\t// out\n        /* \"contracts/erevos/AetherScionsFeeReflectionV3.sol\":7469:7878  function rescueETH(uint256 amount, address payable to) external onlyOwner nonReentrant {... */\n    tag_99:\n        /* \"https://github.com/OpenZeppelin/openzeppelin-contracts/blob/v5.4.0/contracts/access/Ownable.sol\":1531:1544  _checkOwner() */\n      tag_192\n        /* \"https://github.com/OpenZeppelin/openzeppelin-contracts/blob/v5.4.0/contracts/access/Ownable.sol\":1531:1542  _checkOwner */\n      tag_161\n        /* \"https://github.com/OpenZeppelin/openzeppelin-contracts/blob/v5.4.0/contracts/access/Ownable.sol\":1531:1544  _checkOwner() */\n      jump\t// in\n    tag_192:\n        /* \"https://github.com/OpenZeppelin/openzeppelin-contracts/blob/v5.4.0/contracts/utils/ReentrancyGuard.sol\":2500:2521  _nonReentrantBefore() */\n      tag_194\n        /* \"https://github.com/OpenZeppelin/openzeppelin-contracts/blob/v5.4.0/contracts/utils/ReentrancyGuard.sol\":2500:2519  _nonReentrantBefore */\n      tag_171\n        /* \"https://github.com/OpenZeppelin/openzeppelin-contracts/blob/v5.4.0/contracts/utils/ReentrancyGuard.sol\":2500:2521  _nonReentrantBefore() */\n      jump\t// in\n    tag_194:\n        /* \"contracts/erevos/AetherScionsFeeReflectionV3.sol\":7589:7590  0 */\n      0x00\n        /* \"contracts/erevos/AetherScionsFeeReflectionV3.sol\":7575:7591  to != address(0) */\n      0xffffffffffffffffffffffffffffffffffffffff\n      and\n        /* \"contracts/erevos/AetherScionsFeeReflectionV3.sol\":7575:7577  to */\n      dup2\n        /* \"contracts/erevos/AetherScionsFeeReflectionV3.sol\":7575:7591  to != address(0) */\n      0xffffffffffffffffffffffffffffffffffffffff\n      and\n      sub\n        /* \"contracts/erevos/AetherScionsFeeReflectionV3.sol\":7567:7613  require(to != address(0), \"Invalid recipient\") */\n      tag_196\n      jumpi\n      mload(0x40)\n      0x08c379a000000000000000000000000000000000000000000000000000000000\n      dup2\n      mstore\n      0x04\n      add\n      tag_197\n      swap1\n      tag_198\n      jump\t// in\n    tag_197:\n      mload(0x40)\n      dup1\n      swap2\n      sub\n      swap1\n      revert\n    tag_196:\n        /* \"contracts/erevos/AetherScionsFeeReflectionV3.sol\":7624:7643  uint256 contractETH */\n      0x00\n        /* \"contracts/erevos/AetherScionsFeeReflectionV3.sol\":7646:7667  address(this).balance */\n      selfbalance\n        /* \"contracts/erevos/AetherScionsFeeReflectionV3.sol\":7624:7667  uint256 contractETH = address(this).balance */\n      swap1\n      pop\n        /* \"contracts/erevos/AetherScionsFeeReflectionV3.sol\":7696:7707  contractETH */\n      dup1\n        /* \"contracts/erevos/AetherScionsFeeReflectionV3.sol\":7686:7692  amount */\n      dup4\n        /* \"contracts/erevos/AetherScionsFeeReflectionV3.sol\":7686:7707  amount <= contractETH */\n      gt\n      iszero\n        /* \"contracts/erevos/AetherScionsFeeReflectionV3.sol\":7678:7726  require(amount <= contractETH, \"Not enough ETH\") */\n      tag_199\n      jumpi\n      mload(0x40)\n      0x08c379a000000000000000000000000000000000000000000000000000000000\n      dup2\n      mstore\n      0x04\n      add\n      tag_200\n      swap1\n      tag_201\n      jump\t// in\n    tag_200:\n      mload(0x40)\n      dup1\n      swap2\n      sub\n      swap1\n      revert\n    tag_199:\n        /* \"contracts/erevos/AetherScionsFeeReflectionV3.sol\":7738:7750  bool success */\n      0x00\n        /* \"contracts/erevos/AetherScionsFeeReflectionV3.sol\":7756:7758  to */\n      dup3\n        /* \"contracts/erevos/AetherScionsFeeReflectionV3.sol\":7756:7763  to.call */\n      0xffffffffffffffffffffffffffffffffffffffff\n      and\n        /* \"contracts/erevos/AetherScionsFeeReflectionV3.sol\":7771:7777  amount */\n      dup5\n        /* \"contracts/erevos/AetherScionsFeeReflectionV3.sol\":7756:7782  to.call{value: amount}(\"\") */\n      mload(0x40)\n      tag_202\n      swap1\n      tag_203\n      jump\t// in\n    tag_202:\n      0x00\n      mload(0x40)\n      dup1\n      dup4\n      sub\n      dup2\n      dup6\n      dup8\n      gas\n      call\n      swap3\n      pop\n      pop\n      pop\n      returndatasize\n      dup1\n      0x00\n      dup2\n      eq\n      tag_206\n      jumpi\n      mload(0x40)\n      swap2\n      pop\n      and(add(returndatasize, 0x3f), not(0x1f))\n      dup3\n      add\n      0x40\n      mstore\n      returndatasize\n      dup3\n      mstore\n      returndatasize\n      0x00\n      0x20\n      dup5\n      add\n      returndatacopy\n      jump(tag_205)\n    tag_206:\n      0x60\n      swap2\n      pop\n    tag_205:\n      pop\n        /* \"contracts/erevos/AetherScionsFeeReflectionV3.sol\":7737:7782  (bool success, ) = to.call{value: amount}(\"\") */\n      pop\n      swap1\n      pop\n        /* \"contracts/erevos/AetherScionsFeeReflectionV3.sol\":7801:7808  success */\n      dup1\n        /* \"contracts/erevos/AetherScionsFeeReflectionV3.sol\":7793:7832  require(success, \"ETH transfer failed\") */\n      tag_207\n      jumpi\n      mload(0x40)\n      0x08c379a000000000000000000000000000000000000000000000000000000000\n      dup2\n      mstore\n      0x04\n      add\n      tag_208\n      swap1\n      tag_209\n      jump\t// in\n    tag_208:\n      mload(0x40)\n      dup1\n      swap2\n      sub\n      swap1\n      revert\n    tag_207:\n        /* \"contracts/erevos/AetherScionsFeeReflectionV3.sol\":7848:7870  ETHRescued(amount, to) */\n      0xcd7fef3a642dcf99ce1004b2a15d31e91398f01974500b64eab8fc50fef2d3b1\n        /* \"contracts/erevos/AetherScionsFeeReflectionV3.sol\":7859:7865  amount */\n      dup5\n        /* \"contracts/erevos/AetherScionsFeeReflectionV3.sol\":7867:7869  to */\n      dup5\n        /* \"contracts/erevos/AetherScionsFeeReflectionV3.sol\":7848:7870  ETHRescued(amount, to) */\n      mload(0x40)\n      tag_210\n      swap3\n      swap2\n      swap1\n      tag_211\n      jump\t// in\n    tag_210:\n      mload(0x40)\n      dup1\n      swap2\n      sub\n      swap1\n      log1\n        /* \"contracts/erevos/AetherScionsFeeReflectionV3.sol\":7556:7878  {... */\n      pop\n      pop\n        /* \"https://github.com/OpenZeppelin/openzeppelin-contracts/blob/v5.4.0/contracts/utils/ReentrancyGuard.sol\":2542:2562  _nonReentrantAfter() */\n      tag_212\n        /* \"https://github.com/OpenZeppelin/openzeppelin-contracts/blob/v5.4.0/contracts/utils/ReentrancyGuard.sol\":2542:2560  _nonReentrantAfter */\n      tag_174\n        /* \"https://github.com/OpenZeppelin/openzeppelin-contracts/blob/v5.4.0/contracts/utils/ReentrancyGuard.sol\":2542:2562  _nonReentrantAfter() */\n      jump\t// in\n    tag_212:\n        /* \"contracts/erevos/AetherScionsFeeReflectionV3.sol\":7469:7878  function rescueETH(uint256 amount, address payable to) external onlyOwner nonReentrant {... */\n      pop\n      pop\n      jump\t// out\n        /* \"contracts/erevos/AetherScionsFeeReflectionV3.sol\":839:873  address public immutable erevosNFT */\n    tag_102:\n      immutable(\"0xf4c2b5de886427473655d4c904c743576dc2d53249b7535d96c06cc97ae7216b\")\n      dup2\n      jump\t// out\n        /* \"contracts/erevos/AetherScionsFeeReflectionV3.sol\":7976:8791  function rescueTokens(address token, uint256 amount, address to) external onlyOwner nonReentrant {... */\n    tag_108:\n        /* \"https://github.com/OpenZeppelin/openzeppelin-contracts/blob/v5.4.0/contracts/access/Ownable.sol\":1531:1544  _checkOwner() */\n      tag_214\n        /* \"https://github.com/OpenZeppelin/openzeppelin-contracts/blob/v5.4.0/contracts/access/Ownable.sol\":1531:1542  _checkOwner */\n      tag_161\n        /* \"https://github.com/OpenZeppelin/openzeppelin-contracts/blob/v5.4.0/contracts/access/Ownable.sol\":1531:1544  _checkOwner() */\n      jump\t// in\n    tag_214:\n        /* \"https://github.com/OpenZeppelin/openzeppelin-contracts/blob/v5.4.0/contracts/utils/ReentrancyGuard.sol\":2500:2521  _nonReentrantBefore() */\n      tag_216\n        /* \"https://github.com/OpenZeppelin/openzeppelin-contracts/blob/v5.4.0/contracts/utils/ReentrancyGuard.sol\":2500:2519  _nonReentrantBefore */\n      tag_171\n        /* \"https://github.com/OpenZeppelin/openzeppelin-contracts/blob/v5.4.0/contracts/utils/ReentrancyGuard.sol\":2500:2521  _nonReentrantBefore() */\n      jump\t// in\n    tag_216:\n        /* \"contracts/erevos/AetherScionsFeeReflectionV3.sol\":8106:8107  0 */\n      0x00\n        /* \"contracts/erevos/AetherScionsFeeReflectionV3.sol\":8092:8108  to != address(0) */\n      0xffffffffffffffffffffffffffffffffffffffff\n      and\n        /* \"contracts/erevos/AetherScionsFeeReflectionV3.sol\":8092:8094  to */\n      dup2\n        /* \"contracts/erevos/AetherScionsFeeReflectionV3.sol\":8092:8108  to != address(0) */\n      0xffffffffffffffffffffffffffffffffffffffff\n      and\n      sub\n        /* \"contracts/erevos/AetherScionsFeeReflectionV3.sol\":8084:8130  require(to != address(0), \"Invalid recipient\") */\n      tag_218\n      jumpi\n      mload(0x40)\n      0x08c379a000000000000000000000000000000000000000000000000000000000\n      dup2\n      mstore\n      0x04\n      add\n      tag_219\n      swap1\n      tag_198\n      jump\t// in\n    tag_219:\n      mload(0x40)\n      dup1\n      swap2\n      sub\n      swap1\n      revert\n    tag_218:\n        /* \"contracts/erevos/AetherScionsFeeReflectionV3.sol\":8141:8153  IERC20 erc20 */\n      0x00\n        /* \"contracts/erevos/AetherScionsFeeReflectionV3.sol\":8163:8168  token */\n      dup4\n        /* \"contracts/erevos/AetherScionsFeeReflectionV3.sol\":8141:8169  IERC20 erc20 = IERC20(token) */\n      swap1\n      pop\n        /* \"contracts/erevos/AetherScionsFeeReflectionV3.sol\":8180:8195  uint256 balance */\n      0x00\n        /* \"contracts/erevos/AetherScionsFeeReflectionV3.sol\":8198:8203  erc20 */\n      dup2\n        /* \"contracts/erevos/AetherScionsFeeReflectionV3.sol\":8198:8213  erc20.balanceOf */\n      0xffffffffffffffffffffffffffffffffffffffff\n      and\n      0x70a08231\n        /* \"contracts/erevos/AetherScionsFeeReflectionV3.sol\":8222:8226  this */\n      address\n        /* \"contracts/erevos/AetherScionsFeeReflectionV3.sol\":8198:8228  erc20.balanceOf(address(this)) */\n      mload(0x40)\n      dup3\n      0xffffffff\n      and\n      0xe0\n      shl\n      dup2\n      mstore\n      0x04\n      add\n      tag_220\n      swap2\n      swap1\n      tag_40\n      jump\t// in\n    tag_220:\n      0x20\n      mload(0x40)\n      dup1\n      dup4\n      sub\n      dup2\n      dup7\n      gas\n      staticcall\n      iszero\n      dup1\n      iszero\n      tag_222\n      jumpi\n      returndatasize\n      0x00\n      dup1\n      returndatacopy\n      revert(0x00, returndatasize)\n    tag_222:\n      pop\n      pop\n      pop\n      pop\n      mload(0x40)\n      returndatasize\n      not(0x1f)\n      0x1f\n      dup3\n      add\n      and\n      dup3\n      add\n      dup1\n      0x40\n      mstore\n      pop\n      dup2\n      add\n      swap1\n      tag_223\n      swap2\n      swap1\n      tag_135\n      jump\t// in\n    tag_223:\n        /* \"contracts/erevos/AetherScionsFeeReflectionV3.sol\":8180:8228  uint256 balance = erc20.balanceOf(address(this)) */\n      swap1\n      pop\n        /* \"contracts/erevos/AetherScionsFeeReflectionV3.sol\":8257:8264  balance */\n      dup1\n        /* \"contracts/erevos/AetherScionsFeeReflectionV3.sol\":8247:8253  amount */\n      dup5\n        /* \"contracts/erevos/AetherScionsFeeReflectionV3.sol\":8247:8264  amount <= balance */\n      gt\n      iszero\n        /* \"contracts/erevos/AetherScionsFeeReflectionV3.sol\":8239:8293  require(amount <= balance, \"Not enough token balance\") */\n      tag_224\n      jumpi\n      mload(0x40)\n      0x08c379a000000000000000000000000000000000000000000000000000000000\n      dup2\n      mstore\n      0x04\n      add\n      tag_225\n      swap1\n      tag_226\n      jump\t// in\n    tag_225:\n      mload(0x40)\n      dup1\n      swap2\n      sub\n      swap1\n      revert\n    tag_224:\n        /* \"contracts/erevos/AetherScionsFeeReflectionV3.sol\":8387:8391  WETN */\n      immutable(\"0x789bcdf275fa270780a52ae3b79bb1ce0fda7e0aaad87b57b74bb99ac290714a\")\n        /* \"contracts/erevos/AetherScionsFeeReflectionV3.sol\":8378:8391  token == WETN */\n      0xffffffffffffffffffffffffffffffffffffffff\n      and\n        /* \"contracts/erevos/AetherScionsFeeReflectionV3.sol\":8378:8383  token */\n      dup6\n        /* \"contracts/erevos/AetherScionsFeeReflectionV3.sol\":8378:8391  token == WETN */\n      0xffffffffffffffffffffffffffffffffffffffff\n      and\n      sub\n        /* \"contracts/erevos/AetherScionsFeeReflectionV3.sol\":8374:8636  if (token == WETN) {... */\n      tag_227\n      jumpi\n        /* \"contracts/erevos/AetherScionsFeeReflectionV3.sol\":8408:8431  uint256 protectedAmount */\n      0x00\n        /* \"contracts/erevos/AetherScionsFeeReflectionV3.sol\":8448:8458  nftBalance */\n      sload(0x05)\n        /* \"contracts/erevos/AetherScionsFeeReflectionV3.sol\":8434:8445  coreBalance */\n      sload(0x04)\n        /* \"contracts/erevos/AetherScionsFeeReflectionV3.sol\":8434:8458  coreBalance + nftBalance */\n      tag_228\n      swap2\n      swap1\n      tag_137\n      jump\t// in\n    tag_228:\n        /* \"contracts/erevos/AetherScionsFeeReflectionV3.sol\":8408:8458  uint256 protectedAmount = coreBalance + nftBalance */\n      swap1\n      pop\n        /* \"contracts/erevos/AetherScionsFeeReflectionV3.sol\":8491:8506  protectedAmount */\n      dup1\n        /* \"contracts/erevos/AetherScionsFeeReflectionV3.sol\":8481:8488  balance */\n      dup3\n        /* \"contracts/erevos/AetherScionsFeeReflectionV3.sol\":8481:8506  balance > protectedAmount */\n      gt\n        /* \"contracts/erevos/AetherScionsFeeReflectionV3.sol\":8473:8535  require(balance > protectedAmount, \"No excess WETN to rescue\") */\n      tag_229\n      jumpi\n      mload(0x40)\n      0x08c379a000000000000000000000000000000000000000000000000000000000\n      dup2\n      mstore\n      0x04\n      add\n      tag_230\n      swap1\n      tag_231\n      jump\t// in\n    tag_230:\n      mload(0x40)\n      dup1\n      swap2\n      sub\n      swap1\n      revert\n    tag_229:\n        /* \"contracts/erevos/AetherScionsFeeReflectionV3.sol\":8578:8593  protectedAmount */\n      dup1\n        /* \"contracts/erevos/AetherScionsFeeReflectionV3.sol\":8568:8575  balance */\n      dup3\n        /* \"contracts/erevos/AetherScionsFeeReflectionV3.sol\":8568:8593  balance - protectedAmount */\n      tag_232\n      swap2\n      swap1\n      tag_142\n      jump\t// in\n    tag_232:\n        /* \"contracts/erevos/AetherScionsFeeReflectionV3.sol\":8558:8564  amount */\n      dup6\n        /* \"contracts/erevos/AetherScionsFeeReflectionV3.sol\":8558:8593  amount <= balance - protectedAmount */\n      gt\n      iszero\n        /* \"contracts/erevos/AetherScionsFeeReflectionV3.sol\":8550:8624  require(amount <= balance - protectedAmount, \"Amount exceeds excess WETN\") */\n      tag_233\n      jumpi\n      mload(0x40)\n      0x08c379a000000000000000000000000000000000000000000000000000000000\n      dup2\n      mstore\n      0x04\n      add\n      tag_234\n      swap1\n      tag_235\n      jump\t// in\n    tag_234:\n      mload(0x40)\n      dup1\n      swap2\n      sub\n      swap1\n      revert\n    tag_233:\n        /* \"contracts/erevos/AetherScionsFeeReflectionV3.sol\":8393:8636  {... */\n      pop\n        /* \"contracts/erevos/AetherScionsFeeReflectionV3.sol\":8374:8636  if (token == WETN) {... */\n    tag_227:\n        /* \"contracts/erevos/AetherScionsFeeReflectionV3.sol\":8648:8657  bool sent */\n      0x00\n        /* \"contracts/erevos/AetherScionsFeeReflectionV3.sol\":8660:8665  erc20 */\n      dup3\n        /* \"contracts/erevos/AetherScionsFeeReflectionV3.sol\":8660:8674  erc20.transfer */\n      0xffffffffffffffffffffffffffffffffffffffff\n      and\n      0xa9059cbb\n        /* \"contracts/erevos/AetherScionsFeeReflectionV3.sol\":8675:8677  to */\n      dup6\n        /* \"contracts/erevos/AetherScionsFeeReflectionV3.sol\":8679:8685  amount */\n      dup8\n        /* \"contracts/erevos/AetherScionsFeeReflectionV3.sol\":8660:8686  erc20.transfer(to, amount) */\n      mload(0x40)\n      dup4\n      0xffffffff\n      and\n      0xe0\n      shl\n      dup2\n      mstore\n      0x04\n      add\n      tag_236\n      swap3\n      swap2\n      swap1\n      tag_237\n      jump\t// in\n    tag_236:\n      0x20\n      mload(0x40)\n      dup1\n      dup4\n      sub\n      dup2\n      0x00\n      dup8\n      gas\n      call\n      iszero\n      dup1\n      iszero\n      tag_239\n      jumpi\n      returndatasize\n      0x00\n      dup1\n      returndatacopy\n      revert(0x00, returndatasize)\n    tag_239:\n      pop\n      pop\n      pop\n      pop\n      mload(0x40)\n      returndatasize\n      not(0x1f)\n      0x1f\n      dup3\n      add\n      and\n      dup3\n      add\n      dup1\n      0x40\n      mstore\n      pop\n      dup2\n      add\n      swap1\n      tag_240\n      swap2\n      swap1\n      tag_241\n      jump\t// in\n    tag_240:\n        /* \"contracts/erevos/AetherScionsFeeReflectionV3.sol\":8648:8686  bool sent = erc20.transfer(to, amount) */\n      swap1\n      pop\n        /* \"contracts/erevos/AetherScionsFeeReflectionV3.sol\":8705:8709  sent */\n      dup1\n        /* \"contracts/erevos/AetherScionsFeeReflectionV3.sol\":8697:8735  require(sent, \"Token transfer failed\") */\n      tag_242\n      jumpi\n      mload(0x40)\n      0x08c379a000000000000000000000000000000000000000000000000000000000\n      dup2\n      mstore\n      0x04\n      add\n      tag_243\n      swap1\n      tag_244\n      jump\t// in\n    tag_243:\n      mload(0x40)\n      dup1\n      swap2\n      sub\n      swap1\n      revert\n    tag_242:\n        /* \"contracts/erevos/AetherScionsFeeReflectionV3.sol\":8751:8783  TokensRescued(token, amount, to) */\n      0xfb475a842bad10d3800b61bd1a92e716051afba979b124b583bd99a2d1d7bfd5\n        /* \"contracts/erevos/AetherScionsFeeReflectionV3.sol\":8765:8770  token */\n      dup7\n        /* \"contracts/erevos/AetherScionsFeeReflectionV3.sol\":8772:8778  amount */\n      dup7\n        /* \"contracts/erevos/AetherScionsFeeReflectionV3.sol\":8780:8782  to */\n      dup7\n        /* \"contracts/erevos/AetherScionsFeeReflectionV3.sol\":8751:8783  TokensRescued(token, amount, to) */\n      mload(0x40)\n      tag_245\n      swap4\n      swap3\n      swap2\n      swap1\n      tag_246\n      jump\t// in\n    tag_245:\n      mload(0x40)\n      dup1\n      swap2\n      sub\n      swap1\n      log1\n        /* \"contracts/erevos/AetherScionsFeeReflectionV3.sol\":8073:8791  {... */\n      pop\n      pop\n      pop\n        /* \"https://github.com/OpenZeppelin/openzeppelin-contracts/blob/v5.4.0/contracts/utils/ReentrancyGuard.sol\":2542:2562  _nonReentrantAfter() */\n      tag_247\n        /* \"https://github.com/OpenZeppelin/openzeppelin-contracts/blob/v5.4.0/contracts/utils/ReentrancyGuard.sol\":2542:2560  _nonReentrantAfter */\n      tag_174\n        /* \"https://github.com/OpenZeppelin/openzeppelin-contracts/blob/v5.4.0/contracts/utils/ReentrancyGuard.sol\":2542:2562  _nonReentrantAfter() */\n      jump\t// in\n    tag_247:\n        /* \"contracts/erevos/AetherScionsFeeReflectionV3.sol\":7976:8791  function rescueTokens(address token, uint256 amount, address to) external onlyOwner nonReentrant {... */\n      pop\n      pop\n      pop\n      jump\t// out\n        /* \"contracts/erevos/AetherScionsFeeReflectionV3.sol\":3638:4084  function withdrawCore() external onlyOwner nonReentrant {... */\n    tag_111:\n        /* \"https://github.com/OpenZeppelin/openzeppelin-contracts/blob/v5.4.0/contracts/access/Ownable.sol\":1531:1544  _checkOwner() */\n      tag_249\n        /* \"https://github.com/OpenZeppelin/openzeppelin-contracts/blob/v5.4.0/contracts/access/Ownable.sol\":1531:1542  _checkOwner */\n      tag_161\n        /* \"https://github.com/OpenZeppelin/openzeppelin-contracts/blob/v5.4.0/contracts/access/Ownable.sol\":1531:1544  _checkOwner() */\n      jump\t// in\n    tag_249:\n        /* \"https://github.com/OpenZeppelin/openzeppelin-contracts/blob/v5.4.0/contracts/utils/ReentrancyGuard.sol\":2500:2521  _nonReentrantBefore() */\n      tag_251\n        /* \"https://github.com/OpenZeppelin/openzeppelin-contracts/blob/v5.4.0/contracts/utils/ReentrancyGuard.sol\":2500:2519  _nonReentrantBefore */\n      tag_171\n        /* \"https://github.com/OpenZeppelin/openzeppelin-contracts/blob/v5.4.0/contracts/utils/ReentrancyGuard.sol\":2500:2521  _nonReentrantBefore() */\n      jump\t// in\n    tag_251:\n        /* \"contracts/erevos/AetherScionsFeeReflectionV3.sol\":3705:3727  _processIncomingFee(0) */\n      tag_253\n        /* \"contracts/erevos/AetherScionsFeeReflectionV3.sol\":3725:3726  0 */\n      0x00\n        /* \"contracts/erevos/AetherScionsFeeReflectionV3.sol\":3705:3724  _processIncomingFee */\n      tag_31\n        /* \"contracts/erevos/AetherScionsFeeReflectionV3.sol\":3705:3727  _processIncomingFee(0) */\n      jump\t// in\n    tag_253:\n        /* \"contracts/erevos/AetherScionsFeeReflectionV3.sol\":3740:3763  uint256 totalToWithdraw */\n      0x00\n        /* \"contracts/erevos/AetherScionsFeeReflectionV3.sol\":3766:3777  coreBalance */\n      sload(0x04)\n        /* \"contracts/erevos/AetherScionsFeeReflectionV3.sol\":3740:3777  uint256 totalToWithdraw = coreBalance */\n      swap1\n      pop\n        /* \"contracts/erevos/AetherScionsFeeReflectionV3.sol\":3810:3811  0 */\n      0x00\n        /* \"contracts/erevos/AetherScionsFeeReflectionV3.sol\":3792:3807  totalToWithdraw */\n      dup2\n        /* \"contracts/erevos/AetherScionsFeeReflectionV3.sol\":3792:3811  totalToWithdraw > 0 */\n      gt\n        /* \"contracts/erevos/AetherScionsFeeReflectionV3.sol\":3788:3877  if (totalToWithdraw > 0) {... */\n      iszero\n      tag_254\n      jumpi\n        /* \"contracts/erevos/AetherScionsFeeReflectionV3.sol\":3834:3838  WETN */\n      immutable(\"0x789bcdf275fa270780a52ae3b79bb1ce0fda7e0aaad87b57b74bb99ac290714a\")\n        /* \"contracts/erevos/AetherScionsFeeReflectionV3.sol\":3828:3848  IWETN(WETN).withdraw */\n      0xffffffffffffffffffffffffffffffffffffffff\n      and\n      0x2e1a7d4d\n        /* \"contracts/erevos/AetherScionsFeeReflectionV3.sol\":3849:3864  totalToWithdraw */\n      dup3\n        /* \"contracts/erevos/AetherScionsFeeReflectionV3.sol\":3828:3865  IWETN(WETN).withdraw(totalToWithdraw) */\n      mload(0x40)\n      dup3\n      0xffffffff\n      and\n      0xe0\n      shl\n      dup2\n      mstore\n      0x04\n      add\n      tag_255\n      swap2\n      swap1\n      tag_61\n      jump\t// in\n    tag_255:\n      0x00\n      mload(0x40)\n      dup1\n      dup4\n      sub\n      dup2\n      0x00\n      dup8\n      dup1\n      extcodesize\n      iszero\n      dup1\n      iszero\n      tag_256\n      jumpi\n      0x00\n      dup1\n      revert\n    tag_256:\n      pop\n      gas\n      call\n      iszero\n      dup1\n      iszero\n      tag_258\n      jumpi\n      returndatasize\n      0x00\n      dup1\n      returndatacopy\n      revert(0x00, returndatasize)\n    tag_258:\n      pop\n      pop\n      pop\n      pop\n        /* \"contracts/erevos/AetherScionsFeeReflectionV3.sol\":3788:3877  if (totalToWithdraw > 0) {... */\n    tag_254:\n        /* \"contracts/erevos/AetherScionsFeeReflectionV3.sol\":3907:3908  0 */\n      0x00\n        /* \"contracts/erevos/AetherScionsFeeReflectionV3.sol\":3893:3904  coreBalance */\n      sload(0x04)\n        /* \"contracts/erevos/AetherScionsFeeReflectionV3.sol\":3893:3908  coreBalance > 0 */\n      gt\n        /* \"contracts/erevos/AetherScionsFeeReflectionV3.sol\":3889:4077  if (coreBalance > 0) {... */\n      iszero\n      tag_259\n      jumpi\n        /* \"contracts/erevos/AetherScionsFeeReflectionV3.sol\":3926:3933  bool s1 */\n      0x00\n        /* \"contracts/erevos/AetherScionsFeeReflectionV3.sol\":3939:3949  coreWallet */\n      immutable(\"0xd2f8f61201b2b11a78d6e866abc9c3db2ae8631fa656bfe5cb53668255367afb\")\n        /* \"contracts/erevos/AetherScionsFeeReflectionV3.sol\":3939:3954  coreWallet.call */\n      0xffffffffffffffffffffffffffffffffffffffff\n      and\n        /* \"contracts/erevos/AetherScionsFeeReflectionV3.sol\":3962:3973  coreBalance */\n      sload(0x04)\n        /* \"contracts/erevos/AetherScionsFeeReflectionV3.sol\":3939:3978  coreWallet.call{value: coreBalance}(\"\") */\n      mload(0x40)\n      tag_260\n      swap1\n      tag_203\n      jump\t// in\n    tag_260:\n      0x00\n      mload(0x40)\n      dup1\n      dup4\n      sub\n      dup2\n      dup6\n      dup8\n      gas\n      call\n      swap3\n      pop\n      pop\n      pop\n      returndatasize\n      dup1\n      0x00\n      dup2\n      eq\n      tag_263\n      jumpi\n      mload(0x40)\n      swap2\n      pop\n      and(add(returndatasize, 0x3f), not(0x1f))\n      dup3\n      add\n      0x40\n      mstore\n      returndatasize\n      dup3\n      mstore\n      returndatasize\n      0x00\n      0x20\n      dup5\n      add\n      returndatacopy\n      jump(tag_262)\n    tag_263:\n      0x60\n      swap2\n      pop\n    tag_262:\n      pop\n        /* \"contracts/erevos/AetherScionsFeeReflectionV3.sol\":3925:3978  (bool s1, ) = coreWallet.call{value: coreBalance}(\"\") */\n      pop\n      swap1\n      pop\n        /* \"contracts/erevos/AetherScionsFeeReflectionV3.sol\":4001:4003  s1 */\n      dup1\n        /* \"contracts/erevos/AetherScionsFeeReflectionV3.sol\":3993:4035  require(s1, \"Core wallet transfer failed\") */\n      tag_264\n      jumpi\n      mload(0x40)\n      0x08c379a000000000000000000000000000000000000000000000000000000000\n      dup2\n      mstore\n      0x04\n      add\n      tag_265\n      swap1\n      tag_266\n      jump\t// in\n    tag_265:\n      mload(0x40)\n      dup1\n      swap2\n      sub\n      swap1\n      revert\n    tag_264:\n        /* \"contracts/erevos/AetherScionsFeeReflectionV3.sol\":4064:4065  0 */\n      0x00\n        /* \"contracts/erevos/AetherScionsFeeReflectionV3.sol\":4050:4061  coreBalance */\n      0x04\n        /* \"contracts/erevos/AetherScionsFeeReflectionV3.sol\":4050:4065  coreBalance = 0 */\n      dup2\n      swap1\n      sstore\n      pop\n        /* \"contracts/erevos/AetherScionsFeeReflectionV3.sol\":3910:4077  {... */\n      pop\n        /* \"contracts/erevos/AetherScionsFeeReflectionV3.sol\":3889:4077  if (coreBalance > 0) {... */\n    tag_259:\n        /* \"contracts/erevos/AetherScionsFeeReflectionV3.sol\":3694:4084  {... */\n      pop\n        /* \"https://github.com/OpenZeppelin/openzeppelin-contracts/blob/v5.4.0/contracts/utils/ReentrancyGuard.sol\":2542:2562  _nonReentrantAfter() */\n      tag_267\n        /* \"https://github.com/OpenZeppelin/openzeppelin-contracts/blob/v5.4.0/contracts/utils/ReentrancyGuard.sol\":2542:2560  _nonReentrantAfter */\n      tag_174\n        /* \"https://github.com/OpenZeppelin/openzeppelin-contracts/blob/v5.4.0/contracts/utils/ReentrancyGuard.sol\":2542:2562  _nonReentrantAfter() */\n      jump\t// in\n    tag_267:\n        /* \"contracts/erevos/AetherScionsFeeReflectionV3.sol\":3638:4084  function withdrawCore() external onlyOwner nonReentrant {... */\n      jump\t// out\n        /* \"contracts/erevos/AetherScionsFeeReflectionV3.sol\":4465:4574  function processIncomingTokens() external onlyOwnerOrWhitelistedNFT {... */\n    tag_114:\n        /* \"contracts/erevos/AetherScionsFeeReflectionV3.sol\":2709:2716  owner() */\n      tag_269\n        /* \"contracts/erevos/AetherScionsFeeReflectionV3.sol\":2709:2714  owner */\n      tag_93\n        /* \"contracts/erevos/AetherScionsFeeReflectionV3.sol\":2709:2716  owner() */\n      jump\t// in\n    tag_269:\n        /* \"contracts/erevos/AetherScionsFeeReflectionV3.sol\":2695:2716  msg.sender == owner() */\n      0xffffffffffffffffffffffffffffffffffffffff\n      and\n        /* \"contracts/erevos/AetherScionsFeeReflectionV3.sol\":2695:2705  msg.sender */\n      caller\n        /* \"contracts/erevos/AetherScionsFeeReflectionV3.sol\":2695:2716  msg.sender == owner() */\n      0xffffffffffffffffffffffffffffffffffffffff\n      and\n      eq\n        /* \"contracts/erevos/AetherScionsFeeReflectionV3.sol\":2695:2747  msg.sender == owner() || whitelistedNFTs[msg.sender] */\n      dup1\n      tag_270\n      jumpi\n      pop\n        /* \"contracts/erevos/AetherScionsFeeReflectionV3.sol\":2720:2735  whitelistedNFTs */\n      0x03\n        /* \"contracts/erevos/AetherScionsFeeReflectionV3.sol\":2720:2747  whitelistedNFTs[msg.sender] */\n      0x00\n        /* \"contracts/erevos/AetherScionsFeeReflectionV3.sol\":2736:2746  msg.sender */\n      caller\n        /* \"contracts/erevos/AetherScionsFeeReflectionV3.sol\":2720:2747  whitelistedNFTs[msg.sender] */\n      0xffffffffffffffffffffffffffffffffffffffff\n      and\n      0xffffffffffffffffffffffffffffffffffffffff\n      and\n      dup2\n      mstore\n      0x20\n      add\n      swap1\n      dup2\n      mstore\n      0x20\n      add\n      0x00\n      keccak256\n      0x00\n      swap1\n      sload\n      swap1\n      0x0100\n      exp\n      swap1\n      div\n      0xff\n      and\n        /* \"contracts/erevos/AetherScionsFeeReflectionV3.sol\":2695:2747  msg.sender == owner() || whitelistedNFTs[msg.sender] */\n    tag_270:\n        /* \"contracts/erevos/AetherScionsFeeReflectionV3.sol\":2673:2818  require(... */\n      tag_271\n      jumpi\n      mload(0x40)\n      0x08c379a000000000000000000000000000000000000000000000000000000000\n      dup2\n      mstore\n      0x04\n      add\n      tag_272\n      swap1\n      tag_273\n      jump\t// in\n    tag_272:\n      mload(0x40)\n      dup1\n      swap2\n      sub\n      swap1\n      revert\n    tag_271:\n        /* \"contracts/erevos/AetherScionsFeeReflectionV3.sol\":4544:4566  _processIncomingFee(0) */\n      tag_275\n        /* \"contracts/erevos/AetherScionsFeeReflectionV3.sol\":4564:4565  0 */\n      0x00\n        /* \"contracts/erevos/AetherScionsFeeReflectionV3.sol\":4544:4563  _processIncomingFee */\n      tag_31\n        /* \"contracts/erevos/AetherScionsFeeReflectionV3.sol\":4544:4566  _processIncomingFee(0) */\n      jump\t// in\n    tag_275:\n        /* \"contracts/erevos/AetherScionsFeeReflectionV3.sol\":4465:4574  function processIncomingTokens() external onlyOwnerOrWhitelistedNFT {... */\n      jump\t// out\n        /* \"contracts/erevos/AetherScionsFeeReflectionV3.sol\":4582:4782  function manualBuyAndBurnCore() external onlyOwner nonReentrant { // Add: Separate manual for core only... */\n    tag_117:\n        /* \"https://github.com/OpenZeppelin/openzeppelin-contracts/blob/v5.4.0/contracts/access/Ownable.sol\":1531:1544  _checkOwner() */\n      tag_277\n        /* \"https://github.com/OpenZeppelin/openzeppelin-contracts/blob/v5.4.0/contracts/access/Ownable.sol\":1531:1542  _checkOwner */\n      tag_161\n        /* \"https://github.com/OpenZeppelin/openzeppelin-contracts/blob/v5.4.0/contracts/access/Ownable.sol\":1531:1544  _checkOwner() */\n      jump\t// in\n    tag_277:\n        /* \"https://github.com/OpenZeppelin/openzeppelin-contracts/blob/v5.4.0/contracts/utils/ReentrancyGuard.sol\":2500:2521  _nonReentrantBefore() */\n      tag_279\n        /* \"https://github.com/OpenZeppelin/openzeppelin-contracts/blob/v5.4.0/contracts/utils/ReentrancyGuard.sol\":2500:2519  _nonReentrantBefore */\n      tag_171\n        /* \"https://github.com/OpenZeppelin/openzeppelin-contracts/blob/v5.4.0/contracts/utils/ReentrancyGuard.sol\":2500:2521  _nonReentrantBefore() */\n      jump\t// in\n    tag_279:\n        /* \"contracts/erevos/AetherScionsFeeReflectionV3.sol\":4717:4718  0 */\n      0x00\n        /* \"contracts/erevos/AetherScionsFeeReflectionV3.sol\":4703:4714  coreBalance */\n      sload(0x04)\n        /* \"contracts/erevos/AetherScionsFeeReflectionV3.sol\":4703:4718  coreBalance > 0 */\n      gt\n        /* \"contracts/erevos/AetherScionsFeeReflectionV3.sol\":4695:4746  require(coreBalance > 0, \"No core balance to burn\") */\n      tag_281\n      jumpi\n      mload(0x40)\n      0x08c379a000000000000000000000000000000000000000000000000000000000\n      dup2\n      mstore\n      0x04\n      add\n      tag_282\n      swap1\n      tag_283\n      jump\t// in\n    tag_282:\n      mload(0x40)\n      dup1\n      swap2\n      sub\n      swap1\n      revert\n    tag_281:\n        /* \"contracts/erevos/AetherScionsFeeReflectionV3.sol\":4757:4774  _buyAndBurnCore() */\n      tag_284\n        /* \"contracts/erevos/AetherScionsFeeReflectionV3.sol\":4757:4772  _buyAndBurnCore */\n      tag_157\n        /* \"contracts/erevos/AetherScionsFeeReflectionV3.sol\":4757:4774  _buyAndBurnCore() */\n      jump\t// in\n    tag_284:\n        /* \"https://github.com/OpenZeppelin/openzeppelin-contracts/blob/v5.4.0/contracts/utils/ReentrancyGuard.sol\":2542:2562  _nonReentrantAfter() */\n      tag_285\n        /* \"https://github.com/OpenZeppelin/openzeppelin-contracts/blob/v5.4.0/contracts/utils/ReentrancyGuard.sol\":2542:2560  _nonReentrantAfter */\n      tag_174\n        /* \"https://github.com/OpenZeppelin/openzeppelin-contracts/blob/v5.4.0/contracts/utils/ReentrancyGuard.sol\":2542:2562  _nonReentrantAfter() */\n      jump\t// in\n    tag_285:\n        /* \"contracts/erevos/AetherScionsFeeReflectionV3.sol\":4582:4782  function manualBuyAndBurnCore() external onlyOwner nonReentrant { // Add: Separate manual for core only... */\n      jump\t// out\n        /* \"https://github.com/OpenZeppelin/openzeppelin-contracts/blob/v5.4.0/contracts/access/Ownable.sol\":2543:2758  function transferOwnership(address newOwner) public virtual onlyOwner {... */\n    tag_121:\n        /* \"https://github.com/OpenZeppelin/openzeppelin-contracts/blob/v5.4.0/contracts/access/Ownable.sol\":1531:1544  _checkOwner() */\n      tag_287\n        /* \"https://github.com/OpenZeppelin/openzeppelin-contracts/blob/v5.4.0/contracts/access/Ownable.sol\":1531:1542  _checkOwner */\n      tag_161\n        /* \"https://github.com/OpenZeppelin/openzeppelin-contracts/blob/v5.4.0/contracts/access/Ownable.sol\":1531:1544  _checkOwner() */\n      jump\t// in\n    tag_287:\n        /* \"https://github.com/OpenZeppelin/openzeppelin-contracts/blob/v5.4.0/contracts/access/Ownable.sol\":2647:2648  0 */\n      0x00\n        /* \"https://github.com/OpenZeppelin/openzeppelin-contracts/blob/v5.4.0/contracts/access/Ownable.sol\":2627:2649  newOwner == address(0) */\n      0xffffffffffffffffffffffffffffffffffffffff\n      and\n        /* \"https://github.com/OpenZeppelin/openzeppelin-contracts/blob/v5.4.0/contracts/access/Ownable.sol\":2627:2635  newOwner */\n      dup2\n        /* \"https://github.com/OpenZeppelin/openzeppelin-contracts/blob/v5.4.0/contracts/access/Ownable.sol\":2627:2649  newOwner == address(0) */\n      0xffffffffffffffffffffffffffffffffffffffff\n      and\n      sub\n        /* \"https://github.com/OpenZeppelin/openzeppelin-contracts/blob/v5.4.0/contracts/access/Ownable.sol\":2623:2714  if (newOwner == address(0)) {... */\n      tag_289\n      jumpi\n        /* \"https://github.com/OpenZeppelin/openzeppelin-contracts/blob/v5.4.0/contracts/access/Ownable.sol\":2700:2701  0 */\n      0x00\n        /* \"https://github.com/OpenZeppelin/openzeppelin-contracts/blob/v5.4.0/contracts/access/Ownable.sol\":2672:2703  OwnableInvalidOwner(address(0)) */\n      mload(0x40)\n      0x1e4fbdf700000000000000000000000000000000000000000000000000000000\n      dup2\n      mstore\n      0x04\n      add\n      tag_290\n      swap2\n      swap1\n      tag_40\n      jump\t// in\n    tag_290:\n      mload(0x40)\n      dup1\n      swap2\n      sub\n      swap1\n      revert\n        /* \"https://github.com/OpenZeppelin/openzeppelin-contracts/blob/v5.4.0/contracts/access/Ownable.sol\":2623:2714  if (newOwner == address(0)) {... */\n    tag_289:\n        /* \"https://github.com/OpenZeppelin/openzeppelin-contracts/blob/v5.4.0/contracts/access/Ownable.sol\":2723:2751  _transferOwnership(newOwner) */\n      tag_291\n        /* \"https://github.com/OpenZeppelin/openzeppelin-contracts/blob/v5.4.0/contracts/access/Ownable.sol\":2742:2750  newOwner */\n      dup2\n        /* \"https://github.com/OpenZeppelin/openzeppelin-contracts/blob/v5.4.0/contracts/access/Ownable.sol\":2723:2741  _transferOwnership */\n      tag_179\n        /* \"https://github.com/OpenZeppelin/openzeppelin-contracts/blob/v5.4.0/contracts/access/Ownable.sol\":2723:2751  _transferOwnership(newOwner) */\n      jump\t// in\n    tag_291:\n        /* \"https://github.com/OpenZeppelin/openzeppelin-contracts/blob/v5.4.0/contracts/access/Ownable.sol\":2543:2758  function transferOwnership(address newOwner) public virtual onlyOwner {... */\n      pop\n      jump\t// out\n        /* \"contracts/erevos/AetherScionsFeeReflectionV3.sol\":748:798  address public immutable BURN_ADDRESS = address(0) */\n    tag_124:\n      immutable(\"0x939eb54753ed0cc7e2272bfb34cbe098308c93936ed54d79078f76ade0b2e789\")\n      dup2\n      jump\t// out\n        /* \"contracts/erevos/AetherScionsFeeReflectionV3.sol\":6847:7297  function _distributeToNFTs() internal {... */\n    tag_154:\n        /* \"contracts/erevos/AetherScionsFeeReflectionV3.sol\":6910:6911  0 */\n      0x00\n        /* \"contracts/erevos/AetherScionsFeeReflectionV3.sol\":6896:6906  nftBalance */\n      sload(0x05)\n        /* \"contracts/erevos/AetherScionsFeeReflectionV3.sol\":6896:6911  nftBalance == 0 */\n      sub\n        /* \"contracts/erevos/AetherScionsFeeReflectionV3.sol\":6892:6920  if (nftBalance == 0) return; */\n      iszero\n        /* \"contracts/erevos/AetherScionsFeeReflectionV3.sol\":6913:6920  return; */\n      tag_292\n        /* \"contracts/erevos/AetherScionsFeeReflectionV3.sol\":6892:6920  if (nftBalance == 0) return; */\n      jumpi\n        /* \"contracts/erevos/AetherScionsFeeReflectionV3.sol\":6928:6947  uint256 sharePerNFT */\n      0x00\n        /* \"contracts/erevos/AetherScionsFeeReflectionV3.sol\":6963:6964  9 */\n      0x09\n        /* \"contracts/erevos/AetherScionsFeeReflectionV3.sol\":6950:6960  nftBalance */\n      sload(0x05)\n        /* \"contracts/erevos/AetherScionsFeeReflectionV3.sol\":6950:6964  nftBalance / 9 */\n      tag_294\n      swap2\n      swap1\n      tag_147\n      jump\t// in\n    tag_294:\n        /* \"contracts/erevos/AetherScionsFeeReflectionV3.sol\":6928:6964  uint256 sharePerNFT = nftBalance / 9 */\n      swap1\n      pop\n        /* \"contracts/erevos/AetherScionsFeeReflectionV3.sol\":6978:6987  uint256 i */\n      0x00\n        /* \"contracts/erevos/AetherScionsFeeReflectionV3.sol\":6990:6991  1 */\n      0x01\n        /* \"contracts/erevos/AetherScionsFeeReflectionV3.sol\":6978:6991  uint256 i = 1 */\n      swap1\n      pop\n        /* \"contracts/erevos/AetherScionsFeeReflectionV3.sol\":6973:7271  for (uint256 i = 1; i <= 9; i++) {... */\n    tag_295:\n        /* \"contracts/erevos/AetherScionsFeeReflectionV3.sol\":6998:6999  9 */\n      0x09\n        /* \"contracts/erevos/AetherScionsFeeReflectionV3.sol\":6993:6994  i */\n      dup2\n        /* \"contracts/erevos/AetherScionsFeeReflectionV3.sol\":6993:6999  i <= 9 */\n      gt\n        /* \"contracts/erevos/AetherScionsFeeReflectionV3.sol\":6973:7271  for (uint256 i = 1; i <= 9; i++) {... */\n      tag_296\n      jumpi\n        /* \"contracts/erevos/AetherScionsFeeReflectionV3.sol\":7029:7038  erevosNFT */\n      immutable(\"0xf4c2b5de886427473655d4c904c743576dc2d53249b7535d96c06cc97ae7216b\")\n        /* \"contracts/erevos/AetherScionsFeeReflectionV3.sol\":7021:7047  IERC721(erevosNFT).ownerOf */\n      0xffffffffffffffffffffffffffffffffffffffff\n      and\n      0x6352211e\n        /* \"contracts/erevos/AetherScionsFeeReflectionV3.sol\":7048:7049  i */\n      dup3\n        /* \"contracts/erevos/AetherScionsFeeReflectionV3.sol\":7021:7050  IERC721(erevosNFT).ownerOf(i) */\n      mload(0x40)\n      dup3\n      0xffffffff\n      and\n      0xe0\n      shl\n      dup2\n      mstore\n      0x04\n      add\n      tag_298\n      swap2\n      swap1\n      tag_61\n      jump\t// in\n    tag_298:\n      0x20\n      mload(0x40)\n      dup1\n      dup4\n      sub\n      dup2\n      dup7\n      gas\n      staticcall\n      swap3\n      pop\n      pop\n      pop\n      dup1\n      iszero\n      tag_299\n      jumpi\n      pop\n      mload(0x40)\n      returndatasize\n      not(0x1f)\n      0x1f\n      dup3\n      add\n      and\n      dup3\n      add\n      dup1\n      0x40\n      mstore\n      pop\n      dup2\n      add\n      swap1\n      tag_300\n      swap2\n      swap1\n      tag_301\n      jump\t// in\n    tag_300:\n      0x01\n    tag_299:\n        /* \"contracts/erevos/AetherScionsFeeReflectionV3.sol\":7017:7264  try IERC721(erevosNFT).ownerOf(i) returns (address owner) {... */\n      iszero\n      tag_306\n      jumpi\n        /* \"contracts/erevos/AetherScionsFeeReflectionV3.sol\":7111:7112  0 */\n      0x00\n        /* \"contracts/erevos/AetherScionsFeeReflectionV3.sol\":7094:7113  owner != address(0) */\n      0xffffffffffffffffffffffffffffffffffffffff\n      and\n        /* \"contracts/erevos/AetherScionsFeeReflectionV3.sol\":7094:7099  owner */\n      dup2\n        /* \"contracts/erevos/AetherScionsFeeReflectionV3.sol\":7094:7113  owner != address(0) */\n      0xffffffffffffffffffffffffffffffffffffffff\n      and\n      eq\n        /* \"contracts/erevos/AetherScionsFeeReflectionV3.sol\":7090:7190  if (owner != address(0)) {... */\n      tag_307\n      jumpi\n        /* \"contracts/erevos/AetherScionsFeeReflectionV3.sol\":7140:7144  WETN */\n      immutable(\"0x789bcdf275fa270780a52ae3b79bb1ce0fda7e0aaad87b57b74bb99ac290714a\")\n        /* \"contracts/erevos/AetherScionsFeeReflectionV3.sol\":7134:7154  IWETN(WETN).transfer */\n      0xffffffffffffffffffffffffffffffffffffffff\n      and\n      0xa9059cbb\n        /* \"contracts/erevos/AetherScionsFeeReflectionV3.sol\":7155:7160  owner */\n      dup3\n        /* \"contracts/erevos/AetherScionsFeeReflectionV3.sol\":7162:7173  sharePerNFT */\n      dup6\n        /* \"contracts/erevos/AetherScionsFeeReflectionV3.sol\":7134:7174  IWETN(WETN).transfer(owner, sharePerNFT) */\n      mload(0x40)\n      dup4\n      0xffffffff\n      and\n      0xe0\n      shl\n      dup2\n      mstore\n      0x04\n      add\n      tag_308\n      swap3\n      swap2\n      swap1\n      tag_237\n      jump\t// in\n    tag_308:\n      0x20\n      mload(0x40)\n      dup1\n      dup4\n      sub\n      dup2\n      0x00\n      dup8\n      gas\n      call\n      iszero\n      dup1\n      iszero\n      tag_310\n      jumpi\n      returndatasize\n      0x00\n      dup1\n      returndatacopy\n      revert(0x00, returndatasize)\n    tag_310:\n      pop\n      pop\n      pop\n      pop\n      mload(0x40)\n      returndatasize\n      not(0x1f)\n      0x1f\n      dup3\n      add\n      and\n      dup3\n      add\n      dup1\n      0x40\n      mstore\n      pop\n      dup2\n      add\n      swap1\n      tag_311\n      swap2\n      swap1\n      tag_241\n      jump\t// in\n    tag_311:\n      pop\n        /* \"contracts/erevos/AetherScionsFeeReflectionV3.sol\":7090:7190  if (owner != address(0)) {... */\n    tag_307:\n        /* \"contracts/erevos/AetherScionsFeeReflectionV3.sol\":7051:7201  returns (address owner) {... */\n      pop\n        /* \"contracts/erevos/AetherScionsFeeReflectionV3.sol\":7017:7264  try IERC721(erevosNFT).ownerOf(i) returns (address owner) {... */\n    tag_306:\n        /* \"contracts/erevos/AetherScionsFeeReflectionV3.sol\":7001:7004  i++ */\n      dup1\n      dup1\n      tag_312\n      swap1\n      tag_313\n      jump\t// in\n    tag_312:\n      swap2\n      pop\n      pop\n        /* \"contracts/erevos/AetherScionsFeeReflectionV3.sol\":6973:7271  for (uint256 i = 1; i <= 9; i++) {... */\n      jump(tag_295)\n    tag_296:\n      pop\n        /* \"contracts/erevos/AetherScionsFeeReflectionV3.sol\":7292:7293  0 */\n      0x00\n        /* \"contracts/erevos/AetherScionsFeeReflectionV3.sol\":7279:7289  nftBalance */\n      0x05\n        /* \"contracts/erevos/AetherScionsFeeReflectionV3.sol\":7279:7293  nftBalance = 0 */\n      dup2\n      swap1\n      sstore\n      pop\n        /* \"contracts/erevos/AetherScionsFeeReflectionV3.sol\":6885:7297  {... */\n      pop\n        /* \"contracts/erevos/AetherScionsFeeReflectionV3.sol\":6847:7297  function _distributeToNFTs() internal {... */\n    tag_292:\n      jump\t// out\n        /* \"contracts/erevos/AetherScionsFeeReflectionV3.sol\":5781:6843  function _buyAndBurnCore() internal { // Add: New function for core V2 burn... */\n    tag_157:\n        /* \"contracts/erevos/AetherScionsFeeReflectionV3.sol\":5884:5885  0 */\n      0x00\n        /* \"contracts/erevos/AetherScionsFeeReflectionV3.sol\":5870:5881  coreBalance */\n      sload(0x04)\n        /* \"contracts/erevos/AetherScionsFeeReflectionV3.sol\":5870:5885  coreBalance > 0 */\n      gt\n        /* \"contracts/erevos/AetherScionsFeeReflectionV3.sol\":5866:6836  if (coreBalance > 0) {... */\n      iszero\n      tag_315\n      jumpi\n        /* \"contracts/erevos/AetherScionsFeeReflectionV3.sol\":5902:5923  address[] memory path */\n      0x00\n        /* \"contracts/erevos/AetherScionsFeeReflectionV3.sol\":5940:5941  2 */\n      0x02\n        /* \"contracts/erevos/AetherScionsFeeReflectionV3.sol\":5926:5942  new address[](2) */\n      0xffffffffffffffff\n      dup2\n      gt\n      iszero\n      tag_316\n      jumpi\n      tag_317\n      tag_318\n      jump\t// in\n    tag_317:\n    tag_316:\n      mload(0x40)\n      swap1\n      dup1\n      dup3\n      mstore\n      dup1\n      0x20\n      mul\n      0x20\n      add\n      dup3\n      add\n      0x40\n      mstore\n      dup1\n      iszero\n      tag_319\n      jumpi\n      dup2\n      0x20\n      add\n      0x20\n      dup3\n      mul\n      dup1\n      calldatasize\n      dup4\n      calldatacopy\n      dup1\n      dup3\n      add\n      swap2\n      pop\n      pop\n      swap1\n      pop\n    tag_319:\n      pop\n        /* \"contracts/erevos/AetherScionsFeeReflectionV3.sol\":5902:5942  address[] memory path = new address[](2) */\n      swap1\n      pop\n        /* \"contracts/erevos/AetherScionsFeeReflectionV3.sol\":5967:5971  WETN */\n      immutable(\"0x789bcdf275fa270780a52ae3b79bb1ce0fda7e0aaad87b57b74bb99ac290714a\")\n        /* \"contracts/erevos/AetherScionsFeeReflectionV3.sol\":5957:5961  path */\n      dup2\n        /* \"contracts/erevos/AetherScionsFeeReflectionV3.sol\":5962:5963  0 */\n      0x00\n        /* \"contracts/erevos/AetherScionsFeeReflectionV3.sol\":5957:5964  path[0] */\n      dup2\n      mload\n      dup2\n      lt\n      tag_320\n      jumpi\n      tag_321\n      tag_322\n      jump\t// in\n    tag_321:\n    tag_320:\n      0x20\n      mul\n      0x20\n      add\n      add\n        /* \"contracts/erevos/AetherScionsFeeReflectionV3.sol\":5957:5971  path[0] = WETN */\n      swap1\n      0xffffffffffffffffffffffffffffffffffffffff\n      and\n      swap1\n      dup2\n      0xffffffffffffffffffffffffffffffffffffffff\n      and\n      dup2\n      mstore\n      pop\n      pop\n        /* \"contracts/erevos/AetherScionsFeeReflectionV3.sol\":5996:6005  coreToken */\n      immutable(\"0x7880aec93413f117ef14bd4e6d130875ab2c7d7d55a064fac3c2f7bd51516380\")\n        /* \"contracts/erevos/AetherScionsFeeReflectionV3.sol\":5986:5990  path */\n      dup2\n        /* \"contracts/erevos/AetherScionsFeeReflectionV3.sol\":5991:5992  1 */\n      0x01\n        /* \"contracts/erevos/AetherScionsFeeReflectionV3.sol\":5986:5993  path[1] */\n      dup2\n      mload\n      dup2\n      lt\n      tag_323\n      jumpi\n      tag_324\n      tag_322\n      jump\t// in\n    tag_324:\n    tag_323:\n      0x20\n      mul\n      0x20\n      add\n      add\n        /* \"contracts/erevos/AetherScionsFeeReflectionV3.sol\":5986:6005  path[1] = coreToken */\n      swap1\n      0xffffffffffffffffffffffffffffffffffffffff\n      and\n      swap1\n      dup2\n      0xffffffffffffffffffffffffffffffffffffffff\n      and\n      dup2\n      mstore\n      pop\n      pop\n        /* \"contracts/erevos/AetherScionsFeeReflectionV3.sol\":6022:6043  uint[] memory amounts */\n      0x00\n        /* \"contracts/erevos/AetherScionsFeeReflectionV3.sol\":6046:6054  v2Router */\n      0x02\n      0x00\n      swap1\n      sload\n      swap1\n      0x0100\n      exp\n      swap1\n      div\n      0xffffffffffffffffffffffffffffffffffffffff\n      and\n        /* \"contracts/erevos/AetherScionsFeeReflectionV3.sol\":6046:6068  v2Router.getAmountsOut */\n      0xffffffffffffffffffffffffffffffffffffffff\n      and\n      0xd06ca61f\n        /* \"contracts/erevos/AetherScionsFeeReflectionV3.sol\":6069:6080  coreBalance */\n      sload(0x04)\n        /* \"contracts/erevos/AetherScionsFeeReflectionV3.sol\":6082:6086  path */\n      dup5\n        /* \"contracts/erevos/AetherScionsFeeReflectionV3.sol\":6046:6087  v2Router.getAmountsOut(coreBalance, path) */\n      mload(0x40)\n      dup4\n      0xffffffff\n      and\n      0xe0\n      shl\n      dup2\n      mstore\n      0x04\n      add\n      tag_325\n      swap3\n      swap2\n      swap1\n      tag_326\n      jump\t// in\n    tag_325:\n      0x00\n      mload(0x40)\n      dup1\n      dup4\n      sub\n      dup2\n      dup7\n      gas\n      staticcall\n      iszero\n      dup1\n      iszero\n      tag_328\n      jumpi\n      returndatasize\n      0x00\n      dup1\n      returndatacopy\n      revert(0x00, returndatasize)\n    tag_328:\n      pop\n      pop\n      pop\n      pop\n      mload(0x40)\n      returndatasize\n      0x00\n      dup3\n      returndatacopy\n      returndatasize\n      not(0x1f)\n      0x1f\n      dup3\n      add\n      and\n      dup3\n      add\n      dup1\n      0x40\n      mstore\n      pop\n      dup2\n      add\n      swap1\n      tag_329\n      swap2\n      swap1\n      tag_330\n      jump\t// in\n    tag_329:\n        /* \"contracts/erevos/AetherScionsFeeReflectionV3.sol\":6022:6087  uint[] memory amounts = v2Router.getAmountsOut(coreBalance, path) */\n      swap1\n      pop\n        /* \"contracts/erevos/AetherScionsFeeReflectionV3.sol\":6102:6118  uint expectedOut */\n      0x00\n        /* \"contracts/erevos/AetherScionsFeeReflectionV3.sol\":6121:6128  amounts */\n      dup2\n        /* \"contracts/erevos/AetherScionsFeeReflectionV3.sol\":6129:6130  1 */\n      0x01\n        /* \"contracts/erevos/AetherScionsFeeReflectionV3.sol\":6121:6131  amounts[1] */\n      dup2\n      mload\n      dup2\n      lt\n      tag_331\n      jumpi\n      tag_332\n      tag_322\n      jump\t// in\n    tag_332:\n    tag_331:\n      0x20\n      mul\n      0x20\n      add\n      add\n      mload\n        /* \"contracts/erevos/AetherScionsFeeReflectionV3.sol\":6102:6131  uint expectedOut = amounts[1] */\n      swap1\n      pop\n        /* \"contracts/erevos/AetherScionsFeeReflectionV3.sol\":6146:6163  uint amountOutMin */\n      0x00\n        /* \"contracts/erevos/AetherScionsFeeReflectionV3.sol\":6187:6190  100 */\n      0x64\n        /* \"contracts/erevos/AetherScionsFeeReflectionV3.sol\":6181:6183  80 */\n      0x50\n        /* \"contracts/erevos/AetherScionsFeeReflectionV3.sol\":6167:6178  expectedOut */\n      dup4\n        /* \"contracts/erevos/AetherScionsFeeReflectionV3.sol\":6167:6183  expectedOut * 80 */\n      tag_333\n      swap2\n      swap1\n      tag_145\n      jump\t// in\n    tag_333:\n        /* \"contracts/erevos/AetherScionsFeeReflectionV3.sol\":6166:6190  (expectedOut * 80) / 100 */\n      tag_334\n      swap2\n      swap1\n      tag_147\n      jump\t// in\n    tag_334:\n        /* \"contracts/erevos/AetherScionsFeeReflectionV3.sol\":6146:6190  uint amountOutMin = (expectedOut * 80) / 100 */\n      swap1\n      pop\n        /* \"contracts/erevos/AetherScionsFeeReflectionV3.sol\":6239:6243  WETN */\n      immutable(\"0x789bcdf275fa270780a52ae3b79bb1ce0fda7e0aaad87b57b74bb99ac290714a\")\n        /* \"contracts/erevos/AetherScionsFeeReflectionV3.sol\":6233:6252  IWETN(WETN).approve */\n      0xffffffffffffffffffffffffffffffffffffffff\n      and\n      0x095ea7b3\n        /* \"contracts/erevos/AetherScionsFeeReflectionV3.sol\":6261:6269  v2Router */\n      0x02\n      0x00\n      swap1\n      sload\n      swap1\n      0x0100\n      exp\n      swap1\n      div\n      0xffffffffffffffffffffffffffffffffffffffff\n      and\n        /* \"contracts/erevos/AetherScionsFeeReflectionV3.sol\":6272:6283  coreBalance */\n      sload(0x04)\n        /* \"contracts/erevos/AetherScionsFeeReflectionV3.sol\":6233:6284  IWETN(WETN).approve(address(v2Router), coreBalance) */\n      mload(0x40)\n      dup4\n      0xffffffff\n      and\n      0xe0\n      shl\n      dup2\n      mstore\n      0x04\n      add\n      tag_335\n      swap3\n      swap2\n      swap1\n      tag_237\n      jump\t// in\n    tag_335:\n      0x20\n      mload(0x40)\n      dup1\n      dup4\n      sub\n      dup2\n      0x00\n      dup8\n      gas\n      call\n      iszero\n      dup1\n      iszero\n      tag_337\n      jumpi\n      returndatasize\n      0x00\n      dup1\n      returndatacopy\n      revert(0x00, returndatasize)\n    tag_337:\n      pop\n      pop\n      pop\n      pop\n      mload(0x40)\n      returndatasize\n      not(0x1f)\n      0x1f\n      dup3\n      add\n      and\n      dup3\n      add\n      dup1\n      0x40\n      mstore\n      pop\n      dup2\n      add\n      swap1\n      tag_338\n      swap2\n      swap1\n      tag_241\n      jump\t// in\n    tag_338:\n      pop\n        /* \"contracts/erevos/AetherScionsFeeReflectionV3.sol\":6302:6326  uint[] memory amountsOut */\n      0x00\n        /* \"contracts/erevos/AetherScionsFeeReflectionV3.sol\":6329:6337  v2Router */\n      0x02\n      0x00\n      swap1\n      sload\n      swap1\n      0x0100\n      exp\n      swap1\n      div\n      0xffffffffffffffffffffffffffffffffffffffff\n      and\n        /* \"contracts/erevos/AetherScionsFeeReflectionV3.sol\":6329:6362  v2Router.swapExactTokensForTokens */\n      0xffffffffffffffffffffffffffffffffffffffff\n      and\n      0x38ed1739\n        /* \"contracts/erevos/AetherScionsFeeReflectionV3.sol\":6381:6392  coreBalance */\n      sload(0x04)\n        /* \"contracts/erevos/AetherScionsFeeReflectionV3.sol\":6411:6423  amountOutMin */\n      dup5\n        /* \"contracts/erevos/AetherScionsFeeReflectionV3.sol\":6442:6446  path */\n      dup9\n        /* \"contracts/erevos/AetherScionsFeeReflectionV3.sol\":6465:6477  BURN_ADDRESS */\n      immutable(\"0x939eb54753ed0cc7e2272bfb34cbe098308c93936ed54d79078f76ade0b2e789\")\n        /* \"contracts/erevos/AetherScionsFeeReflectionV3.sol\":6557:6560  300 */\n      0x012c\n        /* \"contracts/erevos/AetherScionsFeeReflectionV3.sol\":6539:6554  block.timestamp */\n      timestamp\n        /* \"contracts/erevos/AetherScionsFeeReflectionV3.sol\":6539:6560  block.timestamp + 300 */\n      tag_339\n      swap2\n      swap1\n      tag_137\n      jump\t// in\n    tag_339:\n        /* \"contracts/erevos/AetherScionsFeeReflectionV3.sol\":6329:6594  v2Router.swapExactTokensForTokens(... */\n      mload(0x40)\n      dup7\n      0xffffffff\n      and\n      0xe0\n      shl\n      dup2\n      mstore\n      0x04\n      add\n      tag_340\n      swap6\n      swap5\n      swap4\n      swap3\n      swap2\n      swap1\n      tag_341\n      jump\t// in\n    tag_340:\n      0x00\n      mload(0x40)\n      dup1\n      dup4\n      sub\n      dup2\n      0x00\n      dup8\n      gas\n      call\n      iszero\n      dup1\n      iszero\n      tag_343\n      jumpi\n      returndatasize\n      0x00\n      dup1\n      returndatacopy\n      revert(0x00, returndatasize)\n    tag_343:\n      pop\n      pop\n      pop\n      pop\n      mload(0x40)\n      returndatasize\n      0x00\n      dup3\n      returndatacopy\n      returndatasize\n      not(0x1f)\n      0x1f\n      dup3\n      add\n      and\n      dup3\n      add\n      dup1\n      0x40\n      mstore\n      pop\n      dup2\n      add\n      swap1\n      tag_344\n      swap2\n      swap1\n      tag_330\n      jump\t// in\n    tag_344:\n        /* \"contracts/erevos/AetherScionsFeeReflectionV3.sol\":6302:6594  uint[] memory amountsOut = v2Router.swapExactTokensForTokens(... */\n      swap1\n      pop\n        /* \"contracts/erevos/AetherScionsFeeReflectionV3.sol\":6609:6624  uint coreBurned */\n      0x00\n        /* \"contracts/erevos/AetherScionsFeeReflectionV3.sol\":6627:6637  amountsOut */\n      dup2\n        /* \"contracts/erevos/AetherScionsFeeReflectionV3.sol\":6658:6659  1 */\n      0x01\n        /* \"contracts/erevos/AetherScionsFeeReflectionV3.sol\":6638:6648  amountsOut */\n      dup4\n        /* \"contracts/erevos/AetherScionsFeeReflectionV3.sol\":6638:6655  amountsOut.length */\n      mload\n        /* \"contracts/erevos/AetherScionsFeeReflectionV3.sol\":6638:6659  amountsOut.length - 1 */\n      tag_345\n      swap2\n      swap1\n      tag_142\n      jump\t// in\n    tag_345:\n        /* \"contracts/erevos/AetherScionsFeeReflectionV3.sol\":6627:6660  amountsOut[amountsOut.length - 1] */\n      dup2\n      mload\n      dup2\n      lt\n      tag_346\n      jumpi\n      tag_347\n      tag_322\n      jump\t// in\n    tag_347:\n    tag_346:\n      0x20\n      mul\n      0x20\n      add\n      add\n      mload\n        /* \"contracts/erevos/AetherScionsFeeReflectionV3.sol\":6609:6660  uint coreBurned = amountsOut[amountsOut.length - 1] */\n      swap1\n      pop\n        /* \"contracts/erevos/AetherScionsFeeReflectionV3.sol\":6721:6722  0 */\n      0x00\n        /* \"contracts/erevos/AetherScionsFeeReflectionV3.sol\":6707:6718  coreBalance */\n      0x04\n        /* \"contracts/erevos/AetherScionsFeeReflectionV3.sol\":6707:6722  coreBalance = 0 */\n      dup2\n      swap1\n      sstore\n      pop\n        /* \"contracts/erevos/AetherScionsFeeReflectionV3.sol\":6756:6757  0 */\n      0x00\n        /* \"contracts/erevos/AetherScionsFeeReflectionV3.sol\":6743:6753  coreBurned */\n      dup2\n        /* \"contracts/erevos/AetherScionsFeeReflectionV3.sol\":6743:6757  coreBurned > 0 */\n      gt\n        /* \"contracts/erevos/AetherScionsFeeReflectionV3.sol\":6739:6825  if (coreBurned > 0) {... */\n      iszero\n      tag_348\n      jumpi\n        /* \"contracts/erevos/AetherScionsFeeReflectionV3.sol\":6783:6809  CoreBuyAndBurn(coreBurned) */\n      0xcb42363dcc1840222268fe43eebc976f3e311a14761e5396eb394ebdac90a582\n        /* \"contracts/erevos/AetherScionsFeeReflectionV3.sol\":6798:6808  coreBurned */\n      dup2\n        /* \"contracts/erevos/AetherScionsFeeReflectionV3.sol\":6783:6809  CoreBuyAndBurn(coreBurned) */\n      mload(0x40)\n      tag_349\n      swap2\n      swap1\n      tag_61\n      jump\t// in\n    tag_349:\n      mload(0x40)\n      dup1\n      swap2\n      sub\n      swap1\n      log1\n        /* \"contracts/erevos/AetherScionsFeeReflectionV3.sol\":6739:6825  if (coreBurned > 0) {... */\n    tag_348:\n        /* \"contracts/erevos/AetherScionsFeeReflectionV3.sol\":5887:6836  {... */\n      pop\n      pop\n      pop\n      pop\n      pop\n      pop\n        /* \"contracts/erevos/AetherScionsFeeReflectionV3.sol\":5866:6836  if (coreBalance > 0) {... */\n    tag_315:\n        /* \"contracts/erevos/AetherScionsFeeReflectionV3.sol\":5781:6843  function _buyAndBurnCore() internal { // Add: New function for core V2 burn... */\n      jump\t// out\n        /* \"https://github.com/OpenZeppelin/openzeppelin-contracts/blob/v5.4.0/contracts/access/Ownable.sol\":1796:1958  function _checkOwner() internal view virtual {... */\n    tag_161:\n        /* \"https://github.com/OpenZeppelin/openzeppelin-contracts/blob/v5.4.0/contracts/access/Ownable.sol\":1866:1878  _msgSender() */\n      tag_351\n        /* \"https://github.com/OpenZeppelin/openzeppelin-contracts/blob/v5.4.0/contracts/access/Ownable.sol\":1866:1876  _msgSender */\n      tag_352\n        /* \"https://github.com/OpenZeppelin/openzeppelin-contracts/blob/v5.4.0/contracts/access/Ownable.sol\":1866:1878  _msgSender() */\n      jump\t// in\n    tag_351:\n        /* \"https://github.com/OpenZeppelin/openzeppelin-contracts/blob/v5.4.0/contracts/access/Ownable.sol\":1855:1878  owner() != _msgSender() */\n      0xffffffffffffffffffffffffffffffffffffffff\n      and\n        /* \"https://github.com/OpenZeppelin/openzeppelin-contracts/blob/v5.4.0/contracts/access/Ownable.sol\":1855:1862  owner() */\n      tag_353\n        /* \"https://github.com/OpenZeppelin/openzeppelin-contracts/blob/v5.4.0/contracts/access/Ownable.sol\":1855:1860  owner */\n      tag_93\n        /* \"https://github.com/OpenZeppelin/openzeppelin-contracts/blob/v5.4.0/contracts/access/Ownable.sol\":1855:1862  owner() */\n      jump\t// in\n    tag_353:\n        /* \"https://github.com/OpenZeppelin/openzeppelin-contracts/blob/v5.4.0/contracts/access/Ownable.sol\":1855:1878  owner() != _msgSender() */\n      0xffffffffffffffffffffffffffffffffffffffff\n      and\n      eq\n        /* \"https://github.com/OpenZeppelin/openzeppelin-contracts/blob/v5.4.0/contracts/access/Ownable.sol\":1851:1952  if (owner() != _msgSender()) {... */\n      tag_354\n      jumpi\n        /* \"https://github.com/OpenZeppelin/openzeppelin-contracts/blob/v5.4.0/contracts/access/Ownable.sol\":1928:1940  _msgSender() */\n      tag_355\n        /* \"https://github.com/OpenZeppelin/openzeppelin-contracts/blob/v5.4.0/contracts/access/Ownable.sol\":1928:1938  _msgSender */\n      tag_352\n        /* \"https://github.com/OpenZeppelin/openzeppelin-contracts/blob/v5.4.0/contracts/access/Ownable.sol\":1928:1940  _msgSender() */\n      jump\t// in\n    tag_355:\n        /* \"https://github.com/OpenZeppelin/openzeppelin-contracts/blob/v5.4.0/contracts/access/Ownable.sol\":1901:1941  OwnableUnauthorizedAccount(_msgSender()) */\n      mload(0x40)\n      0x118cdaa700000000000000000000000000000000000000000000000000000000\n      dup2\n      mstore\n      0x04\n      add\n      tag_356\n      swap2\n      swap1\n      tag_40\n      jump\t// in\n    tag_356:\n      mload(0x40)\n      dup1\n      swap2\n      sub\n      swap1\n      revert\n        /* \"https://github.com/OpenZeppelin/openzeppelin-contracts/blob/v5.4.0/contracts/access/Ownable.sol\":1851:1952  if (owner() != _msgSender()) {... */\n    tag_354:\n        /* \"https://github.com/OpenZeppelin/openzeppelin-contracts/blob/v5.4.0/contracts/access/Ownable.sol\":1796:1958  function _checkOwner() internal view virtual {... */\n      jump\t// out\n        /* \"https://github.com/OpenZeppelin/openzeppelin-contracts/blob/v5.4.0/contracts/utils/ReentrancyGuard.sol\":2575:2882  function _nonReentrantBefore() private {... */\n    tag_171:\n        /* \"https://github.com/OpenZeppelin/openzeppelin-contracts/blob/v5.4.0/contracts/utils/ReentrancyGuard.sol\":1899:1900  2 */\n      0x02\n        /* \"https://github.com/OpenZeppelin/openzeppelin-contracts/blob/v5.4.0/contracts/utils/ReentrancyGuard.sol\":2702:2709  _status */\n      sload(0x00)\n        /* \"https://github.com/OpenZeppelin/openzeppelin-contracts/blob/v5.4.0/contracts/utils/ReentrancyGuard.sol\":2702:2720  _status == ENTERED */\n      sub\n        /* \"https://github.com/OpenZeppelin/openzeppelin-contracts/blob/v5.4.0/contracts/utils/ReentrancyGuard.sol\":2698:2784  if (_status == ENTERED) {... */\n      tag_358\n      jumpi\n        /* \"https://github.com/OpenZeppelin/openzeppelin-contracts/blob/v5.4.0/contracts/utils/ReentrancyGuard.sol\":2743:2773  ReentrancyGuardReentrantCall() */\n      mload(0x40)\n      0x3ee5aeb500000000000000000000000000000000000000000000000000000000\n      dup2\n      mstore\n      0x04\n      add\n      mload(0x40)\n      dup1\n      swap2\n      sub\n      swap1\n      revert\n        /* \"https://github.com/OpenZeppelin/openzeppelin-contracts/blob/v5.4.0/contracts/utils/ReentrancyGuard.sol\":2698:2784  if (_status == ENTERED) {... */\n    tag_358:\n        /* \"https://github.com/OpenZeppelin/openzeppelin-contracts/blob/v5.4.0/contracts/utils/ReentrancyGuard.sol\":1899:1900  2 */\n      0x02\n        /* \"https://github.com/OpenZeppelin/openzeppelin-contracts/blob/v5.4.0/contracts/utils/ReentrancyGuard.sol\":2858:2865  _status */\n      0x00\n        /* \"https://github.com/OpenZeppelin/openzeppelin-contracts/blob/v5.4.0/contracts/utils/ReentrancyGuard.sol\":2858:2875  _status = ENTERED */\n      dup2\n      swap1\n      sstore\n      pop\n        /* \"https://github.com/OpenZeppelin/openzeppelin-contracts/blob/v5.4.0/contracts/utils/ReentrancyGuard.sol\":2575:2882  function _nonReentrantBefore() private {... */\n      jump\t// out\n        /* \"https://github.com/OpenZeppelin/openzeppelin-contracts/blob/v5.4.0/contracts/utils/ReentrancyGuard.sol\":2888:3096  function _nonReentrantAfter() private {... */\n    tag_174:\n        /* \"https://github.com/OpenZeppelin/openzeppelin-contracts/blob/v5.4.0/contracts/utils/ReentrancyGuard.sol\":1857:1858  1 */\n      0x01\n        /* \"https://github.com/OpenZeppelin/openzeppelin-contracts/blob/v5.4.0/contracts/utils/ReentrancyGuard.sol\":3068:3075  _status */\n      0x00\n        /* \"https://github.com/OpenZeppelin/openzeppelin-contracts/blob/v5.4.0/contracts/utils/ReentrancyGuard.sol\":3068:3089  _status = NOT_ENTERED */\n      dup2\n      swap1\n      sstore\n      pop\n        /* \"https://github.com/OpenZeppelin/openzeppelin-contracts/blob/v5.4.0/contracts/utils/ReentrancyGuard.sol\":2888:3096  function _nonReentrantAfter() private {... */\n      jump\t// out\n        /* \"https://github.com/OpenZeppelin/openzeppelin-contracts/blob/v5.4.0/contracts/access/Ownable.sol\":2912:3099  function _transferOwnership(address newOwner) internal virtual {... */\n    tag_179:\n        /* \"https://github.com/OpenZeppelin/openzeppelin-contracts/blob/v5.4.0/contracts/access/Ownable.sol\":2985:3001  address oldOwner */\n      0x00\n        /* \"https://github.com/OpenZeppelin/openzeppelin-contracts/blob/v5.4.0/contracts/access/Ownable.sol\":3004:3010  _owner */\n      0x01\n      0x00\n      swap1\n      sload\n      swap1\n      0x0100\n      exp\n      swap1\n      div\n      0xffffffffffffffffffffffffffffffffffffffff\n      and\n        /* \"https://github.com/OpenZeppelin/openzeppelin-contracts/blob/v5.4.0/contracts/access/Ownable.sol\":2985:3010  address oldOwner = _owner */\n      swap1\n      pop\n        /* \"https://github.com/OpenZeppelin/openzeppelin-contracts/blob/v5.4.0/contracts/access/Ownable.sol\":3029:3037  newOwner */\n      dup2\n        /* \"https://github.com/OpenZeppelin/openzeppelin-contracts/blob/v5.4.0/contracts/access/Ownable.sol\":3020:3026  _owner */\n      0x01\n      0x00\n        /* \"https://github.com/OpenZeppelin/openzeppelin-contracts/blob/v5.4.0/contracts/access/Ownable.sol\":3020:3037  _owner = newOwner */\n      0x0100\n      exp\n      dup2\n      sload\n      dup2\n      0xffffffffffffffffffffffffffffffffffffffff\n      mul\n      not\n      and\n      swap1\n      dup4\n      0xffffffffffffffffffffffffffffffffffffffff\n      and\n      mul\n      or\n      swap1\n      sstore\n      pop\n        /* \"https://github.com/OpenZeppelin/openzeppelin-contracts/blob/v5.4.0/contracts/access/Ownable.sol\":3083:3091  newOwner */\n      dup2\n        /* \"https://github.com/OpenZeppelin/openzeppelin-contracts/blob/v5.4.0/contracts/access/Ownable.sol\":3052:3092  OwnershipTransferred(oldOwner, newOwner) */\n      0xffffffffffffffffffffffffffffffffffffffff\n      and\n        /* \"https://github.com/OpenZeppelin/openzeppelin-contracts/blob/v5.4.0/contracts/access/Ownable.sol\":3073:3081  oldOwner */\n      dup2\n        /* \"https://github.com/OpenZeppelin/openzeppelin-contracts/blob/v5.4.0/contracts/access/Ownable.sol\":3052:3092  OwnershipTransferred(oldOwner, newOwner) */\n      0xffffffffffffffffffffffffffffffffffffffff\n      and\n      0x8be0079c531659141344cd1fd0a4f28419497f9722a3daafe3b4186f6b6457e0\n      mload(0x40)\n      mload(0x40)\n      dup1\n      swap2\n      sub\n      swap1\n      log3\n        /* \"https://github.com/OpenZeppelin/openzeppelin-contracts/blob/v5.4.0/contracts/access/Ownable.sol\":2975:3099  {... */\n      pop\n        /* \"https://github.com/OpenZeppelin/openzeppelin-contracts/blob/v5.4.0/contracts/access/Ownable.sol\":2912:3099  function _transferOwnership(address newOwner) internal virtual {... */\n      pop\n      jump\t// out\n        /* \"https://github.com/OpenZeppelin/openzeppelin-contracts/blob/v5.4.0/contracts/utils/Context.sol\":656:752  function _msgSender() internal view virtual returns (address) {... */\n    tag_352:\n        /* \"https://github.com/OpenZeppelin/openzeppelin-contracts/blob/v5.4.0/contracts/utils/Context.sol\":709:716  address */\n      0x00\n        /* \"https://github.com/OpenZeppelin/openzeppelin-contracts/blob/v5.4.0/contracts/utils/Context.sol\":735:745  msg.sender */\n      caller\n        /* \"https://github.com/OpenZeppelin/openzeppelin-contracts/blob/v5.4.0/contracts/utils/Context.sol\":728:745  return msg.sender */\n      swap1\n      pop\n        /* \"https://github.com/OpenZeppelin/openzeppelin-contracts/blob/v5.4.0/contracts/utils/Context.sol\":656:752  function _msgSender() internal view virtual returns (address) {... */\n      swap1\n      jump\t// out\n        /* \"#utility.yul\":7:133   */\n    tag_362:\n        /* \"#utility.yul\":44:51   */\n      0x00\n        /* \"#utility.yul\":84:126   */\n      0xffffffffffffffffffffffffffffffffffffffff\n        /* \"#utility.yul\":77:82   */\n      dup3\n        /* \"#utility.yul\":73:127   */\n      and\n        /* \"#utility.yul\":62:127   */\n      swap1\n      pop\n        /* \"#utility.yul\":7:133   */\n      swap2\n      swap1\n      pop\n      jump\t// out\n        /* \"#utility.yul\":139:235   */\n    tag_363:\n        /* \"#utility.yul\":176:183   */\n      0x00\n        /* \"#utility.yul\":205:229   */\n      tag_442\n        /* \"#utility.yul\":223:228   */\n      dup3\n        /* \"#utility.yul\":205:229   */\n      tag_362\n      jump\t// in\n    tag_442:\n        /* \"#utility.yul\":194:229   */\n      swap1\n      pop\n        /* \"#utility.yul\":139:235   */\n      swap2\n      swap1\n      pop\n      jump\t// out\n        /* \"#utility.yul\":241:359   */\n    tag_364:\n        /* \"#utility.yul\":328:352   */\n      tag_444\n        /* \"#utility.yul\":346:351   */\n      dup2\n        /* \"#utility.yul\":328:352   */\n      tag_363\n      jump\t// in\n    tag_444:\n        /* \"#utility.yul\":323:326   */\n      dup3\n        /* \"#utility.yul\":316:353   */\n      mstore\n        /* \"#utility.yul\":241:359   */\n      pop\n      pop\n      jump\t// out\n        /* \"#utility.yul\":365:587   */\n    tag_40:\n        /* \"#utility.yul\":458:462   */\n      0x00\n        /* \"#utility.yul\":496:498   */\n      0x20\n        /* \"#utility.yul\":485:494   */\n      dup3\n        /* \"#utility.yul\":481:499   */\n      add\n        /* \"#utility.yul\":473:499   */\n      swap1\n      pop\n        /* \"#utility.yul\":509:580   */\n      tag_446\n        /* \"#utility.yul\":577:578   */\n      0x00\n        /* \"#utility.yul\":566:575   */\n      dup4\n        /* \"#utility.yul\":562:579   */\n      add\n        /* \"#utility.yul\":553:559   */\n      dup5\n        /* \"#utility.yul\":509:580   */\n      tag_364\n      jump\t// in\n    tag_446:\n        /* \"#utility.yul\":365:587   */\n      swap3\n      swap2\n      pop\n      pop\n      jump\t// out\n        /* \"#utility.yul\":593:668   */\n    tag_365:\n        /* \"#utility.yul\":626:632   */\n      0x00\n        /* \"#utility.yul\":659:661   */\n      0x40\n        /* \"#utility.yul\":653:662   */\n      mload\n        /* \"#utility.yul\":643:662   */\n      swap1\n      pop\n        /* \"#utility.yul\":593:668   */\n      swap1\n      jump\t// out\n        /* \"#utility.yul\":674:791   */\n    tag_366:\n        /* \"#utility.yul\":783:784   */\n      0x00\n        /* \"#utility.yul\":780:781   */\n      dup1\n        /* \"#utility.yul\":773:785   */\n      revert\n        /* \"#utility.yul\":797:914   */\n    tag_367:\n        /* \"#utility.yul\":906:907   */\n      0x00\n        /* \"#utility.yul\":903:904   */\n      dup1\n        /* \"#utility.yul\":896:908   */\n      revert\n        /* \"#utility.yul\":920:1042   */\n    tag_368:\n        /* \"#utility.yul\":993:1017   */\n      tag_451\n        /* \"#utility.yul\":1011:1016   */\n      dup2\n        /* \"#utility.yul\":993:1017   */\n      tag_363\n      jump\t// in\n    tag_451:\n        /* \"#utility.yul\":986:991   */\n      dup2\n        /* \"#utility.yul\":983:1018   */\n      eq\n        /* \"#utility.yul\":973:1036   */\n      tag_452\n      jumpi\n        /* \"#utility.yul\":1032:1033   */\n      0x00\n        /* \"#utility.yul\":1029:1030   */\n      dup1\n        /* \"#utility.yul\":1022:1034   */\n      revert\n        /* \"#utility.yul\":973:1036   */\n    tag_452:\n        /* \"#utility.yul\":920:1042   */\n      pop\n      jump\t// out\n        /* \"#utility.yul\":1048:1187   */\n    tag_369:\n        /* \"#utility.yul\":1094:1099   */\n      0x00\n        /* \"#utility.yul\":1132:1138   */\n      dup2\n        /* \"#utility.yul\":1119:1139   */\n      calldataload\n        /* \"#utility.yul\":1110:1139   */\n      swap1\n      pop\n        /* \"#utility.yul\":1148:1181   */\n      tag_454\n        /* \"#utility.yul\":1175:1180   */\n      dup2\n        /* \"#utility.yul\":1148:1181   */\n      tag_368\n      jump\t// in\n    tag_454:\n        /* \"#utility.yul\":1048:1187   */\n      swap3\n      swap2\n      pop\n      pop\n      jump\t// out\n        /* \"#utility.yul\":1193:1522   */\n    tag_44:\n        /* \"#utility.yul\":1252:1258   */\n      0x00\n        /* \"#utility.yul\":1301:1303   */\n      0x20\n        /* \"#utility.yul\":1289:1298   */\n      dup3\n        /* \"#utility.yul\":1280:1287   */\n      dup5\n        /* \"#utility.yul\":1276:1299   */\n      sub\n        /* \"#utility.yul\":1272:1304   */\n      slt\n        /* \"#utility.yul\":1269:1388   */\n      iszero\n      tag_456\n      jumpi\n        /* \"#utility.yul\":1307:1386   */\n      tag_457\n      tag_366\n      jump\t// in\n    tag_457:\n        /* \"#utility.yul\":1269:1388   */\n    tag_456:\n        /* \"#utility.yul\":1427:1428   */\n      0x00\n        /* \"#utility.yul\":1452:1505   */\n      tag_458\n        /* \"#utility.yul\":1497:1504   */\n      dup5\n        /* \"#utility.yul\":1488:1494   */\n      dup3\n        /* \"#utility.yul\":1477:1486   */\n      dup6\n        /* \"#utility.yul\":1473:1495   */\n      add\n        /* \"#utility.yul\":1452:1505   */\n      tag_369\n      jump\t// in\n    tag_458:\n        /* \"#utility.yul\":1442:1505   */\n      swap2\n      pop\n        /* \"#utility.yul\":1398:1515   */\n      pop\n        /* \"#utility.yul\":1193:1522   */\n      swap3\n      swap2\n      pop\n      pop\n      jump\t// out\n        /* \"#utility.yul\":1528:1618   */\n    tag_370:\n        /* \"#utility.yul\":1562:1569   */\n      0x00\n        /* \"#utility.yul\":1605:1610   */\n      dup2\n        /* \"#utility.yul\":1598:1611   */\n      iszero\n        /* \"#utility.yul\":1591:1612   */\n      iszero\n        /* \"#utility.yul\":1580:1612   */\n      swap1\n      pop\n        /* \"#utility.yul\":1528:1618   */\n      swap2\n      swap1\n      pop\n      jump\t// out\n        /* \"#utility.yul\":1624:1733   */\n    tag_371:\n        /* \"#utility.yul\":1705:1726   */\n      tag_461\n        /* \"#utility.yul\":1720:1725   */\n      dup2\n        /* \"#utility.yul\":1705:1726   */\n      tag_370\n      jump\t// in\n    tag_461:\n        /* \"#utility.yul\":1700:1703   */\n      dup3\n        /* \"#utility.yul\":1693:1727   */\n      mstore\n        /* \"#utility.yul\":1624:1733   */\n      pop\n      pop\n      jump\t// out\n        /* \"#utility.yul\":1739:1949   */\n    tag_47:\n        /* \"#utility.yul\":1826:1830   */\n      0x00\n        /* \"#utility.yul\":1864:1866   */\n      0x20\n        /* \"#utility.yul\":1853:1862   */\n      dup3\n        /* \"#utility.yul\":1849:1867   */\n      add\n        /* \"#utility.yul\":1841:1867   */\n      swap1\n      pop\n        /* \"#utility.yul\":1877:1942   */\n      tag_463\n        /* \"#utility.yul\":1939:1940   */\n      0x00\n        /* \"#utility.yul\":1928:1937   */\n      dup4\n        /* \"#utility.yul\":1924:1941   */\n      add\n        /* \"#utility.yul\":1915:1921   */\n      dup5\n        /* \"#utility.yul\":1877:1942   */\n      tag_371\n      jump\t// in\n    tag_463:\n        /* \"#utility.yul\":1739:1949   */\n      swap3\n      swap2\n      pop\n      pop\n      jump\t// out\n        /* \"#utility.yul\":1955:2032   */\n    tag_372:\n        /* \"#utility.yul\":1992:1999   */\n      0x00\n        /* \"#utility.yul\":2021:2026   */\n      dup2\n        /* \"#utility.yul\":2010:2026   */\n      swap1\n      pop\n        /* \"#utility.yul\":1955:2032   */\n      swap2\n      swap1\n      pop\n      jump\t// out\n        /* \"#utility.yul\":2038:2156   */\n    tag_373:\n        /* \"#utility.yul\":2125:2149   */\n      tag_466\n        /* \"#utility.yul\":2143:2148   */\n      dup2\n        /* \"#utility.yul\":2125:2149   */\n      tag_372\n      jump\t// in\n    tag_466:\n        /* \"#utility.yul\":2120:2123   */\n      dup3\n        /* \"#utility.yul\":2113:2150   */\n      mstore\n        /* \"#utility.yul\":2038:2156   */\n      pop\n      pop\n      jump\t// out\n        /* \"#utility.yul\":2162:2384   */\n    tag_61:\n        /* \"#utility.yul\":2255:2259   */\n      0x00\n        /* \"#utility.yul\":2293:2295   */\n      0x20\n        /* \"#utility.yul\":2282:2291   */\n      dup3\n        /* \"#utility.yul\":2278:2296   */\n      add\n        /* \"#utility.yul\":2270:2296   */\n      swap1\n      pop\n        /* \"#utility.yul\":2306:2377   */\n      tag_468\n        /* \"#utility.yul\":2374:2375   */\n      0x00\n        /* \"#utility.yul\":2363:2372   */\n      dup4\n        /* \"#utility.yul\":2359:2376   */\n      add\n        /* \"#utility.yul\":2350:2356   */\n      dup5\n        /* \"#utility.yul\":2306:2377   */\n      tag_373\n      jump\t// in\n    tag_468:\n        /* \"#utility.yul\":2162:2384   */\n      swap3\n      swap2\n      pop\n      pop\n      jump\t// out\n        /* \"#utility.yul\":2390:2494   */\n    tag_374:\n        /* \"#utility.yul\":2435:2442   */\n      0x00\n        /* \"#utility.yul\":2464:2488   */\n      tag_470\n        /* \"#utility.yul\":2482:2487   */\n      dup3\n        /* \"#utility.yul\":2464:2488   */\n      tag_362\n      jump\t// in\n    tag_470:\n        /* \"#utility.yul\":2453:2488   */\n      swap1\n      pop\n        /* \"#utility.yul\":2390:2494   */\n      swap2\n      swap1\n      pop\n      jump\t// out\n        /* \"#utility.yul\":2500:2642   */\n    tag_375:\n        /* \"#utility.yul\":2603:2635   */\n      tag_472\n        /* \"#utility.yul\":2629:2634   */\n      dup2\n        /* \"#utility.yul\":2603:2635   */\n      tag_374\n      jump\t// in\n    tag_472:\n        /* \"#utility.yul\":2598:2601   */\n      dup3\n        /* \"#utility.yul\":2591:2636   */\n      mstore\n        /* \"#utility.yul\":2500:2642   */\n      pop\n      pop\n      jump\t// out\n        /* \"#utility.yul\":2648:2902   */\n    tag_66:\n        /* \"#utility.yul\":2757:2761   */\n      0x00\n        /* \"#utility.yul\":2795:2797   */\n      0x20\n        /* \"#utility.yul\":2784:2793   */\n      dup3\n        /* \"#utility.yul\":2780:2798   */\n      add\n        /* \"#utility.yul\":2772:2798   */\n      swap1\n      pop\n        /* \"#utility.yul\":2808:2895   */\n      tag_474\n        /* \"#utility.yul\":2892:2893   */\n      0x00\n        /* \"#utility.yul\":2881:2890   */\n      dup4\n        /* \"#utility.yul\":2877:2894   */\n      add\n        /* \"#utility.yul\":2868:2874   */\n      dup5\n        /* \"#utility.yul\":2808:2895   */\n      tag_375\n      jump\t// in\n    tag_474:\n        /* \"#utility.yul\":2648:2902   */\n      swap3\n      swap2\n      pop\n      pop\n      jump\t// out\n        /* \"#utility.yul\":2908:3024   */\n    tag_376:\n        /* \"#utility.yul\":2978:2999   */\n      tag_476\n        /* \"#utility.yul\":2993:2998   */\n      dup2\n        /* \"#utility.yul\":2978:2999   */\n      tag_370\n      jump\t// in\n    tag_476:\n        /* \"#utility.yul\":2971:2976   */\n      dup2\n        /* \"#utility.yul\":2968:3000   */\n      eq\n        /* \"#utility.yul\":2958:3018   */\n      tag_477\n      jumpi\n        /* \"#utility.yul\":3014:3015   */\n      0x00\n        /* \"#utility.yul\":3011:3012   */\n      dup1\n        /* \"#utility.yul\":3004:3016   */\n      revert\n        /* \"#utility.yul\":2958:3018   */\n    tag_477:\n        /* \"#utility.yul\":2908:3024   */\n      pop\n      jump\t// out\n        /* \"#utility.yul\":3030:3163   */\n    tag_377:\n        /* \"#utility.yul\":3073:3078   */\n      0x00\n        /* \"#utility.yul\":3111:3117   */\n      dup2\n        /* \"#utility.yul\":3098:3118   */\n      calldataload\n        /* \"#utility.yul\":3089:3118   */\n      swap1\n      pop\n        /* \"#utility.yul\":3127:3157   */\n      tag_479\n        /* \"#utility.yul\":3151:3156   */\n      dup2\n        /* \"#utility.yul\":3127:3157   */\n      tag_376\n      jump\t// in\n    tag_479:\n        /* \"#utility.yul\":3030:3163   */\n      swap3\n      swap2\n      pop\n      pop\n      jump\t// out\n        /* \"#utility.yul\":3169:3492   */\n    tag_74:\n        /* \"#utility.yul\":3225:3231   */\n      0x00\n        /* \"#utility.yul\":3274:3276   */\n      0x20\n        /* \"#utility.yul\":3262:3271   */\n      dup3\n        /* \"#utility.yul\":3253:3260   */\n      dup5\n        /* \"#utility.yul\":3249:3272   */\n      sub\n        /* \"#utility.yul\":3245:3277   */\n      slt\n        /* \"#utility.yul\":3242:3361   */\n      iszero\n      tag_481\n      jumpi\n        /* \"#utility.yul\":3280:3359   */\n      tag_482\n      tag_366\n      jump\t// in\n    tag_482:\n        /* \"#utility.yul\":3242:3361   */\n    tag_481:\n        /* \"#utility.yul\":3400:3401   */\n      0x00\n        /* \"#utility.yul\":3425:3475   */\n      tag_483\n        /* \"#utility.yul\":3467:3474   */\n      dup5\n        /* \"#utility.yul\":3458:3464   */\n      dup3\n        /* \"#utility.yul\":3447:3456   */\n      dup6\n        /* \"#utility.yul\":3443:3465   */\n      add\n        /* \"#utility.yul\":3425:3475   */\n      tag_377\n      jump\t// in\n    tag_483:\n        /* \"#utility.yul\":3415:3475   */\n      swap2\n      pop\n        /* \"#utility.yul\":3371:3485   */\n      pop\n        /* \"#utility.yul\":3169:3492   */\n      swap3\n      swap2\n      pop\n      pop\n      jump\t// out\n        /* \"#utility.yul\":3498:3620   */\n    tag_378:\n        /* \"#utility.yul\":3571:3595   */\n      tag_485\n        /* \"#utility.yul\":3589:3594   */\n      dup2\n        /* \"#utility.yul\":3571:3595   */\n      tag_372\n      jump\t// in\n    tag_485:\n        /* \"#utility.yul\":3564:3569   */\n      dup2\n        /* \"#utility.yul\":3561:3596   */\n      eq\n        /* \"#utility.yul\":3551:3614   */\n      tag_486\n      jumpi\n        /* \"#utility.yul\":3610:3611   */\n      0x00\n        /* \"#utility.yul\":3607:3608   */\n      dup1\n        /* \"#utility.yul\":3600:3612   */\n      revert\n        /* \"#utility.yul\":3551:3614   */\n    tag_486:\n        /* \"#utility.yul\":3498:3620   */\n      pop\n      jump\t// out\n        /* \"#utility.yul\":3626:3765   */\n    tag_379:\n        /* \"#utility.yul\":3672:3677   */\n      0x00\n        /* \"#utility.yul\":3710:3716   */\n      dup2\n        /* \"#utility.yul\":3697:3717   */\n      calldataload\n        /* \"#utility.yul\":3688:3717   */\n      swap1\n      pop\n        /* \"#utility.yul\":3726:3759   */\n      tag_488\n        /* \"#utility.yul\":3753:3758   */\n      dup2\n        /* \"#utility.yul\":3726:3759   */\n      tag_378\n      jump\t// in\n    tag_488:\n        /* \"#utility.yul\":3626:3765   */\n      swap3\n      swap2\n      pop\n      pop\n      jump\t// out\n        /* \"#utility.yul\":3771:3909   */\n    tag_380:\n        /* \"#utility.yul\":3852:3884   */\n      tag_490\n        /* \"#utility.yul\":3878:3883   */\n      dup2\n        /* \"#utility.yul\":3852:3884   */\n      tag_374\n      jump\t// in\n    tag_490:\n        /* \"#utility.yul\":3845:3850   */\n      dup2\n        /* \"#utility.yul\":3842:3885   */\n      eq\n        /* \"#utility.yul\":3832:3903   */\n      tag_491\n      jumpi\n        /* \"#utility.yul\":3899:3900   */\n      0x00\n        /* \"#utility.yul\":3896:3897   */\n      dup1\n        /* \"#utility.yul\":3889:3901   */\n      revert\n        /* \"#utility.yul\":3832:3903   */\n    tag_491:\n        /* \"#utility.yul\":3771:3909   */\n      pop\n      jump\t// out\n        /* \"#utility.yul\":3915:4070   */\n    tag_381:\n        /* \"#utility.yul\":3969:3974   */\n      0x00\n        /* \"#utility.yul\":4007:4013   */\n      dup2\n        /* \"#utility.yul\":3994:4014   */\n      calldataload\n        /* \"#utility.yul\":3985:4014   */\n      swap1\n      pop\n        /* \"#utility.yul\":4023:4064   */\n      tag_493\n        /* \"#utility.yul\":4058:4063   */\n      dup2\n        /* \"#utility.yul\":4023:4064   */\n      tag_380\n      jump\t// in\n    tag_493:\n        /* \"#utility.yul\":3915:4070   */\n      swap3\n      swap2\n      pop\n      pop\n      jump\t// out\n        /* \"#utility.yul\":4076:4566   */\n    tag_98:\n        /* \"#utility.yul\":4152:4158   */\n      0x00\n        /* \"#utility.yul\":4160:4166   */\n      dup1\n        /* \"#utility.yul\":4209:4211   */\n      0x40\n        /* \"#utility.yul\":4197:4206   */\n      dup4\n        /* \"#utility.yul\":4188:4195   */\n      dup6\n        /* \"#utility.yul\":4184:4207   */\n      sub\n        /* \"#utility.yul\":4180:4212   */\n      slt\n        /* \"#utility.yul\":4177:4296   */\n      iszero\n      tag_495\n      jumpi\n        /* \"#utility.yul\":4215:4294   */\n      tag_496\n      tag_366\n      jump\t// in\n    tag_496:\n        /* \"#utility.yul\":4177:4296   */\n    tag_495:\n        /* \"#utility.yul\":4335:4336   */\n      0x00\n        /* \"#utility.yul\":4360:4413   */\n      tag_497\n        /* \"#utility.yul\":4405:4412   */\n      dup6\n        /* \"#utility.yul\":4396:4402   */\n      dup3\n        /* \"#utility.yul\":4385:4394   */\n      dup7\n        /* \"#utility.yul\":4381:4403   */\n      add\n        /* \"#utility.yul\":4360:4413   */\n      tag_379\n      jump\t// in\n    tag_497:\n        /* \"#utility.yul\":4350:4413   */\n      swap3\n      pop\n        /* \"#utility.yul\":4306:4423   */\n      pop\n        /* \"#utility.yul\":4462:4464   */\n      0x20\n        /* \"#utility.yul\":4488:4549   */\n      tag_498\n        /* \"#utility.yul\":4541:4548   */\n      dup6\n        /* \"#utility.yul\":4532:4538   */\n      dup3\n        /* \"#utility.yul\":4521:4530   */\n      dup7\n        /* \"#utility.yul\":4517:4539   */\n      add\n        /* \"#utility.yul\":4488:4549   */\n      tag_381\n      jump\t// in\n    tag_498:\n        /* \"#utility.yul\":4478:4549   */\n      swap2\n      pop\n        /* \"#utility.yul\":4433:4559   */\n      pop\n        /* \"#utility.yul\":4076:4566   */\n      swap3\n      pop\n      swap3\n      swap1\n      pop\n      jump\t// out\n        /* \"#utility.yul\":4572:5191   */\n    tag_107:\n        /* \"#utility.yul\":4649:4655   */\n      0x00\n        /* \"#utility.yul\":4657:4663   */\n      dup1\n        /* \"#utility.yul\":4665:4671   */\n      0x00\n        /* \"#utility.yul\":4714:4716   */\n      0x60\n        /* \"#utility.yul\":4702:4711   */\n      dup5\n        /* \"#utility.yul\":4693:4700   */\n      dup7\n        /* \"#utility.yul\":4689:4712   */\n      sub\n        /* \"#utility.yul\":4685:4717   */\n      slt\n        /* \"#utility.yul\":4682:4801   */\n      iszero\n      tag_500\n      jumpi\n        /* \"#utility.yul\":4720:4799   */\n      tag_501\n      tag_366\n      jump\t// in\n    tag_501:\n        /* \"#utility.yul\":4682:4801   */\n    tag_500:\n        /* \"#utility.yul\":4840:4841   */\n      0x00\n        /* \"#utility.yul\":4865:4918   */\n      tag_502\n        /* \"#utility.yul\":4910:4917   */\n      dup7\n        /* \"#utility.yul\":4901:4907   */\n      dup3\n        /* \"#utility.yul\":4890:4899   */\n      dup8\n        /* \"#utility.yul\":4886:4908   */\n      add\n        /* \"#utility.yul\":4865:4918   */\n      tag_369\n      jump\t// in\n    tag_502:\n        /* \"#utility.yul\":4855:4918   */\n      swap4\n      pop\n        /* \"#utility.yul\":4811:4928   */\n      pop\n        /* \"#utility.yul\":4967:4969   */\n      0x20\n        /* \"#utility.yul\":4993:5046   */\n      tag_503\n        /* \"#utility.yul\":5038:5045   */\n      dup7\n        /* \"#utility.yul\":5029:5035   */\n      dup3\n        /* \"#utility.yul\":5018:5027   */\n      dup8\n        /* \"#utility.yul\":5014:5036   */\n      add\n        /* \"#utility.yul\":4993:5046   */\n      tag_379\n      jump\t// in\n    tag_503:\n        /* \"#utility.yul\":4983:5046   */\n      swap3\n      pop\n        /* \"#utility.yul\":4938:5056   */\n      pop\n        /* \"#utility.yul\":5095:5097   */\n      0x40\n        /* \"#utility.yul\":5121:5174   */\n      tag_504\n        /* \"#utility.yul\":5166:5173   */\n      dup7\n        /* \"#utility.yul\":5157:5163   */\n      dup3\n        /* \"#utility.yul\":5146:5155   */\n      dup8\n        /* \"#utility.yul\":5142:5164   */\n      add\n        /* \"#utility.yul\":5121:5174   */\n      tag_369\n      jump\t// in\n    tag_504:\n        /* \"#utility.yul\":5111:5174   */\n      swap2\n      pop\n        /* \"#utility.yul\":5066:5184   */\n      pop\n        /* \"#utility.yul\":4572:5191   */\n      swap3\n      pop\n      swap3\n      pop\n      swap3\n      jump\t// out\n        /* \"#utility.yul\":5197:5340   */\n    tag_382:\n        /* \"#utility.yul\":5254:5259   */\n      0x00\n        /* \"#utility.yul\":5285:5291   */\n      dup2\n        /* \"#utility.yul\":5279:5292   */\n      mload\n        /* \"#utility.yul\":5270:5292   */\n      swap1\n      pop\n        /* \"#utility.yul\":5301:5334   */\n      tag_506\n        /* \"#utility.yul\":5328:5333   */\n      dup2\n        /* \"#utility.yul\":5301:5334   */\n      tag_378\n      jump\t// in\n    tag_506:\n        /* \"#utility.yul\":5197:5340   */\n      swap3\n      swap2\n      pop\n      pop\n      jump\t// out\n        /* \"#utility.yul\":5346:5697   */\n    tag_135:\n        /* \"#utility.yul\":5416:5422   */\n      0x00\n        /* \"#utility.yul\":5465:5467   */\n      0x20\n        /* \"#utility.yul\":5453:5462   */\n      dup3\n        /* \"#utility.yul\":5444:5451   */\n      dup5\n        /* \"#utility.yul\":5440:5463   */\n      sub\n        /* \"#utility.yul\":5436:5468   */\n      slt\n        /* \"#utility.yul\":5433:5552   */\n      iszero\n      tag_508\n      jumpi\n        /* \"#utility.yul\":5471:5550   */\n      tag_509\n      tag_366\n      jump\t// in\n    tag_509:\n        /* \"#utility.yul\":5433:5552   */\n    tag_508:\n        /* \"#utility.yul\":5591:5592   */\n      0x00\n        /* \"#utility.yul\":5616:5680   */\n      tag_510\n        /* \"#utility.yul\":5672:5679   */\n      dup5\n        /* \"#utility.yul\":5663:5669   */\n      dup3\n        /* \"#utility.yul\":5652:5661   */\n      dup6\n        /* \"#utility.yul\":5648:5670   */\n      add\n        /* \"#utility.yul\":5616:5680   */\n      tag_382\n      jump\t// in\n    tag_510:\n        /* \"#utility.yul\":5606:5680   */\n      swap2\n      pop\n        /* \"#utility.yul\":5562:5690   */\n      pop\n        /* \"#utility.yul\":5346:5697   */\n      swap3\n      swap2\n      pop\n      pop\n      jump\t// out\n        /* \"#utility.yul\":5703:5883   */\n    tag_383:\n        /* \"#utility.yul\":5751:5828   */\n      0x4e487b7100000000000000000000000000000000000000000000000000000000\n        /* \"#utility.yul\":5748:5749   */\n      0x00\n        /* \"#utility.yul\":5741:5829   */\n      mstore\n        /* \"#utility.yul\":5848:5852   */\n      0x11\n        /* \"#utility.yul\":5845:5846   */\n      0x04\n        /* \"#utility.yul\":5838:5853   */\n      mstore\n        /* \"#utility.yul\":5872:5876   */\n      0x24\n        /* \"#utility.yul\":5869:5870   */\n      0x00\n        /* \"#utility.yul\":5862:5877   */\n      revert\n        /* \"#utility.yul\":5889:6080   */\n    tag_137:\n        /* \"#utility.yul\":5929:5932   */\n      0x00\n        /* \"#utility.yul\":5948:5968   */\n      tag_513\n        /* \"#utility.yul\":5966:5967   */\n      dup3\n        /* \"#utility.yul\":5948:5968   */\n      tag_372\n      jump\t// in\n    tag_513:\n        /* \"#utility.yul\":5943:5968   */\n      swap2\n      pop\n        /* \"#utility.yul\":5982:6002   */\n      tag_514\n        /* \"#utility.yul\":6000:6001   */\n      dup4\n        /* \"#utility.yul\":5982:6002   */\n      tag_372\n      jump\t// in\n    tag_514:\n        /* \"#utility.yul\":5977:6002   */\n      swap3\n      pop\n        /* \"#utility.yul\":6025:6026   */\n      dup3\n        /* \"#utility.yul\":6022:6023   */\n      dup3\n        /* \"#utility.yul\":6018:6027   */\n      add\n        /* \"#utility.yul\":6011:6027   */\n      swap1\n      pop\n        /* \"#utility.yul\":6046:6049   */\n      dup1\n        /* \"#utility.yul\":6043:6044   */\n      dup3\n        /* \"#utility.yul\":6040:6050   */\n      gt\n        /* \"#utility.yul\":6037:6073   */\n      iszero\n      tag_515\n      jumpi\n        /* \"#utility.yul\":6053:6071   */\n      tag_516\n      tag_383\n      jump\t// in\n    tag_516:\n        /* \"#utility.yul\":6037:6073   */\n    tag_515:\n        /* \"#utility.yul\":5889:6080   */\n      swap3\n      swap2\n      pop\n      pop\n      jump\t// out\n        /* \"#utility.yul\":6086:6255   */\n    tag_384:\n        /* \"#utility.yul\":6170:6181   */\n      0x00\n        /* \"#utility.yul\":6204:6210   */\n      dup3\n        /* \"#utility.yul\":6199:6202   */\n      dup3\n        /* \"#utility.yul\":6192:6211   */\n      mstore\n        /* \"#utility.yul\":6244:6248   */\n      0x20\n        /* \"#utility.yul\":6239:6242   */\n      dup3\n        /* \"#utility.yul\":6235:6249   */\n      add\n        /* \"#utility.yul\":6220:6249   */\n      swap1\n      pop\n        /* \"#utility.yul\":6086:6255   */\n      swap3\n      swap2\n      pop\n      pop\n      jump\t// out\n        /* \"#utility.yul\":6261:6424   */\n    tag_385:\n        /* \"#utility.yul\":6401:6416   */\n      0x42616c616e6365206572726f7200000000000000000000000000000000000000\n        /* \"#utility.yul\":6397:6398   */\n      0x00\n        /* \"#utility.yul\":6389:6395   */\n      dup3\n        /* \"#utility.yul\":6385:6399   */\n      add\n        /* \"#utility.yul\":6378:6417   */\n      mstore\n        /* \"#utility.yul\":6261:6424   */\n      pop\n      jump\t// out\n        /* \"#utility.yul\":6430:6796   */\n    tag_386:\n        /* \"#utility.yul\":6572:6575   */\n      0x00\n        /* \"#utility.yul\":6593:6660   */\n      tag_520\n        /* \"#utility.yul\":6657:6659   */\n      0x0d\n        /* \"#utility.yul\":6652:6655   */\n      dup4\n        /* \"#utility.yul\":6593:6660   */\n      tag_384\n      jump\t// in\n    tag_520:\n        /* \"#utility.yul\":6586:6660   */\n      swap2\n      pop\n        /* \"#utility.yul\":6669:6762   */\n      tag_521\n        /* \"#utility.yul\":6758:6761   */\n      dup3\n        /* \"#utility.yul\":6669:6762   */\n      tag_385\n      jump\t// in\n    tag_521:\n        /* \"#utility.yul\":6787:6789   */\n      0x20\n        /* \"#utility.yul\":6782:6785   */\n      dup3\n        /* \"#utility.yul\":6778:6790   */\n      add\n        /* \"#utility.yul\":6771:6790   */\n      swap1\n      pop\n        /* \"#utility.yul\":6430:6796   */\n      swap2\n      swap1\n      pop\n      jump\t// out\n        /* \"#utility.yul\":6802:7221   */\n    tag_140:\n        /* \"#utility.yul\":6968:6972   */\n      0x00\n        /* \"#utility.yul\":7006:7008   */\n      0x20\n        /* \"#utility.yul\":6995:7004   */\n      dup3\n        /* \"#utility.yul\":6991:7009   */\n      add\n        /* \"#utility.yul\":6983:7009   */\n      swap1\n      pop\n        /* \"#utility.yul\":7055:7064   */\n      dup2\n        /* \"#utility.yul\":7049:7053   */\n      dup2\n        /* \"#utility.yul\":7045:7065   */\n      sub\n        /* \"#utility.yul\":7041:7042   */\n      0x00\n        /* \"#utility.yul\":7030:7039   */\n      dup4\n        /* \"#utility.yul\":7026:7043   */\n      add\n        /* \"#utility.yul\":7019:7066   */\n      mstore\n        /* \"#utility.yul\":7083:7214   */\n      tag_523\n        /* \"#utility.yul\":7209:7213   */\n      dup2\n        /* \"#utility.yul\":7083:7214   */\n      tag_386\n      jump\t// in\n    tag_523:\n        /* \"#utility.yul\":7075:7214   */\n      swap1\n      pop\n        /* \"#utility.yul\":6802:7221   */\n      swap2\n      swap1\n      pop\n      jump\t// out\n        /* \"#utility.yul\":7227:7421   */\n    tag_142:\n        /* \"#utility.yul\":7267:7271   */\n      0x00\n        /* \"#utility.yul\":7287:7307   */\n      tag_525\n        /* \"#utility.yul\":7305:7306   */\n      dup3\n        /* \"#utility.yul\":7287:7307   */\n      tag_372\n      jump\t// in\n    tag_525:\n        /* \"#utility.yul\":7282:7307   */\n      swap2\n      pop\n        /* \"#utility.yul\":7321:7341   */\n      tag_526\n        /* \"#utility.yul\":7339:7340   */\n      dup4\n        /* \"#utility.yul\":7321:7341   */\n      tag_372\n      jump\t// in\n    tag_526:\n        /* \"#utility.yul\":7316:7341   */\n      swap3\n      pop\n        /* \"#utility.yul\":7365:7366   */\n      dup3\n        /* \"#utility.yul\":7362:7363   */\n      dup3\n        /* \"#utility.yul\":7358:7367   */\n      sub\n        /* \"#utility.yul\":7350:7367   */\n      swap1\n      pop\n        /* \"#utility.yul\":7389:7390   */\n      dup2\n        /* \"#utility.yul\":7383:7387   */\n      dup2\n        /* \"#utility.yul\":7380:7391   */\n      gt\n        /* \"#utility.yul\":7377:7414   */\n      iszero\n      tag_527\n      jumpi\n        /* \"#utility.yul\":7394:7412   */\n      tag_528\n      tag_383\n      jump\t// in\n    tag_528:\n        /* \"#utility.yul\":7377:7414   */\n    tag_527:\n        /* \"#utility.yul\":7227:7421   */\n      swap3\n      swap2\n      pop\n      pop\n      jump\t// out\n        /* \"#utility.yul\":7427:7837   */\n    tag_145:\n        /* \"#utility.yul\":7467:7474   */\n      0x00\n        /* \"#utility.yul\":7490:7510   */\n      tag_530\n        /* \"#utility.yul\":7508:7509   */\n      dup3\n        /* \"#utility.yul\":7490:7510   */\n      tag_372\n      jump\t// in\n    tag_530:\n        /* \"#utility.yul\":7485:7510   */\n      swap2\n      pop\n        /* \"#utility.yul\":7524:7544   */\n      tag_531\n        /* \"#utility.yul\":7542:7543   */\n      dup4\n        /* \"#utility.yul\":7524:7544   */\n      tag_372\n      jump\t// in\n    tag_531:\n        /* \"#utility.yul\":7519:7544   */\n      swap3\n      pop\n        /* \"#utility.yul\":7579:7580   */\n      dup3\n        /* \"#utility.yul\":7576:7577   */\n      dup3\n        /* \"#utility.yul\":7572:7581   */\n      mul\n        /* \"#utility.yul\":7601:7631   */\n      tag_532\n        /* \"#utility.yul\":7619:7630   */\n      dup2\n        /* \"#utility.yul\":7601:7631   */\n      tag_372\n      jump\t// in\n    tag_532:\n        /* \"#utility.yul\":7590:7631   */\n      swap2\n      pop\n        /* \"#utility.yul\":7780:7781   */\n      dup3\n        /* \"#utility.yul\":7771:7778   */\n      dup3\n        /* \"#utility.yul\":7767:7782   */\n      div\n        /* \"#utility.yul\":7764:7765   */\n      dup5\n        /* \"#utility.yul\":7761:7783   */\n      eq\n        /* \"#utility.yul\":7741:7742   */\n      dup4\n        /* \"#utility.yul\":7734:7743   */\n      iszero\n        /* \"#utility.yul\":7714:7797   */\n      or\n        /* \"#utility.yul\":7691:7830   */\n      tag_533\n      jumpi\n        /* \"#utility.yul\":7810:7828   */\n      tag_534\n      tag_383\n      jump\t// in\n    tag_534:\n        /* \"#utility.yul\":7691:7830   */\n    tag_533:\n        /* \"#utility.yul\":7475:7837   */\n      pop\n        /* \"#utility.yul\":7427:7837   */\n      swap3\n      swap2\n      pop\n      pop\n      jump\t// out\n        /* \"#utility.yul\":7843:8023   */\n    tag_387:\n        /* \"#utility.yul\":7891:7968   */\n      0x4e487b7100000000000000000000000000000000000000000000000000000000\n        /* \"#utility.yul\":7888:7889   */\n      0x00\n        /* \"#utility.yul\":7881:7969   */\n      mstore\n        /* \"#utility.yul\":7988:7992   */\n      0x12\n        /* \"#utility.yul\":7985:7986   */\n      0x04\n        /* \"#utility.yul\":7978:7993   */\n      mstore\n        /* \"#utility.yul\":8012:8016   */\n      0x24\n        /* \"#utility.yul\":8009:8010   */\n      0x00\n        /* \"#utility.yul\":8002:8017   */\n      revert\n        /* \"#utility.yul\":8029:8214   */\n    tag_147:\n        /* \"#utility.yul\":8069:8070   */\n      0x00\n        /* \"#utility.yul\":8086:8106   */\n      tag_537\n        /* \"#utility.yul\":8104:8105   */\n      dup3\n        /* \"#utility.yul\":8086:8106   */\n      tag_372\n      jump\t// in\n    tag_537:\n        /* \"#utility.yul\":8081:8106   */\n      swap2\n      pop\n        /* \"#utility.yul\":8120:8140   */\n      tag_538\n        /* \"#utility.yul\":8138:8139   */\n      dup4\n        /* \"#utility.yul\":8120:8140   */\n      tag_372\n      jump\t// in\n    tag_538:\n        /* \"#utility.yul\":8115:8140   */\n      swap3\n      pop\n        /* \"#utility.yul\":8159:8160   */\n      dup3\n        /* \"#utility.yul\":8149:8184   */\n      tag_539\n      jumpi\n        /* \"#utility.yul\":8164:8182   */\n      tag_540\n      tag_387\n      jump\t// in\n    tag_540:\n        /* \"#utility.yul\":8149:8184   */\n    tag_539:\n        /* \"#utility.yul\":8206:8207   */\n      dup3\n        /* \"#utility.yul\":8203:8204   */\n      dup3\n        /* \"#utility.yul\":8199:8208   */\n      div\n        /* \"#utility.yul\":8194:8208   */\n      swap1\n      pop\n        /* \"#utility.yul\":8029:8214   */\n      swap3\n      swap2\n      pop\n      pop\n      jump\t// out\n        /* \"#utility.yul\":8220:8662   */\n    tag_152:\n        /* \"#utility.yul\":8369:8373   */\n      0x00\n        /* \"#utility.yul\":8407:8409   */\n      0x60\n        /* \"#utility.yul\":8396:8405   */\n      dup3\n        /* \"#utility.yul\":8392:8410   */\n      add\n        /* \"#utility.yul\":8384:8410   */\n      swap1\n      pop\n        /* \"#utility.yul\":8420:8491   */\n      tag_542\n        /* \"#utility.yul\":8488:8489   */\n      0x00\n        /* \"#utility.yul\":8477:8486   */\n      dup4\n        /* \"#utility.yul\":8473:8490   */\n      add\n        /* \"#utility.yul\":8464:8470   */\n      dup7\n        /* \"#utility.yul\":8420:8491   */\n      tag_373\n      jump\t// in\n    tag_542:\n        /* \"#utility.yul\":8501:8573   */\n      tag_543\n        /* \"#utility.yul\":8569:8571   */\n      0x20\n        /* \"#utility.yul\":8558:8567   */\n      dup4\n        /* \"#utility.yul\":8554:8572   */\n      add\n        /* \"#utility.yul\":8545:8551   */\n      dup6\n        /* \"#utility.yul\":8501:8573   */\n      tag_373\n      jump\t// in\n    tag_543:\n        /* \"#utility.yul\":8583:8655   */\n      tag_544\n        /* \"#utility.yul\":8651:8653   */\n      0x40\n        /* \"#utility.yul\":8640:8649   */\n      dup4\n        /* \"#utility.yul\":8636:8654   */\n      add\n        /* \"#utility.yul\":8627:8633   */\n      dup5\n        /* \"#utility.yul\":8583:8655   */\n      tag_373\n      jump\t// in\n    tag_544:\n        /* \"#utility.yul\":8220:8662   */\n      swap5\n      swap4\n      pop\n      pop\n      pop\n      pop\n      jump\t// out\n        /* \"#utility.yul\":8668:8833   */\n    tag_388:\n        /* \"#utility.yul\":8808:8825   */\n      0x4e6f742077686974656c69737465640000000000000000000000000000000000\n        /* \"#utility.yul\":8804:8805   */\n      0x00\n        /* \"#utility.yul\":8796:8802   */\n      dup3\n        /* \"#utility.yul\":8792:8806   */\n      add\n        /* \"#utility.yul\":8785:8826   */\n      mstore\n        /* \"#utility.yul\":8668:8833   */\n      pop\n      jump\t// out\n        /* \"#utility.yul\":8839:9205   */\n    tag_389:\n        /* \"#utility.yul\":8981:8984   */\n      0x00\n        /* \"#utility.yul\":9002:9069   */\n      tag_547\n        /* \"#utility.yul\":9066:9068   */\n      0x0f\n        /* \"#utility.yul\":9061:9064   */\n      dup4\n        /* \"#utility.yul\":9002:9069   */\n      tag_384\n      jump\t// in\n    tag_547:\n        /* \"#utility.yul\":8995:9069   */\n      swap2\n      pop\n        /* \"#utility.yul\":9078:9171   */\n      tag_548\n        /* \"#utility.yul\":9167:9170   */\n      dup3\n        /* \"#utility.yul\":9078:9171   */\n      tag_388\n      jump\t// in\n    tag_548:\n        /* \"#utility.yul\":9196:9198   */\n      0x20\n        /* \"#utility.yul\":9191:9194   */\n      dup3\n        /* \"#utility.yul\":9187:9199   */\n      add\n        /* \"#utility.yul\":9180:9199   */\n      swap1\n      pop\n        /* \"#utility.yul\":8839:9205   */\n      swap2\n      swap1\n      pop\n      jump\t// out\n        /* \"#utility.yul\":9211:9630   */\n    tag_165:\n        /* \"#utility.yul\":9377:9381   */\n      0x00\n        /* \"#utility.yul\":9415:9417   */\n      0x20\n        /* \"#utility.yul\":9404:9413   */\n      dup3\n        /* \"#utility.yul\":9400:9418   */\n      add\n        /* \"#utility.yul\":9392:9418   */\n      swap1\n      pop\n        /* \"#utility.yul\":9464:9473   */\n      dup2\n        /* \"#utility.yul\":9458:9462   */\n      dup2\n        /* \"#utility.yul\":9454:9474   */\n      sub\n        /* \"#utility.yul\":9450:9451   */\n      0x00\n        /* \"#utility.yul\":9439:9448   */\n      dup4\n        /* \"#utility.yul\":9435:9452   */\n      add\n        /* \"#utility.yul\":9428:9475   */\n      mstore\n        /* \"#utility.yul\":9492:9623   */\n      tag_550\n        /* \"#utility.yul\":9618:9622   */\n      dup2\n        /* \"#utility.yul\":9492:9623   */\n      tag_389\n      jump\t// in\n    tag_550:\n        /* \"#utility.yul\":9484:9623   */\n      swap1\n      pop\n        /* \"#utility.yul\":9211:9630   */\n      swap2\n      swap1\n      pop\n      jump\t// out\n        /* \"#utility.yul\":9636:9814   */\n    tag_390:\n        /* \"#utility.yul\":9776:9806   */\n      0x496e76616c6964204e465420636f6e7472616374206164647265737300000000\n        /* \"#utility.yul\":9772:9773   */\n      0x00\n        /* \"#utility.yul\":9764:9770   */\n      dup3\n        /* \"#utility.yul\":9760:9774   */\n      add\n        /* \"#utility.yul\":9753:9807   */\n      mstore\n        /* \"#utility.yul\":9636:9814   */\n      pop\n      jump\t// out\n        /* \"#utility.yul\":9820:10186   */\n    tag_391:\n        /* \"#utility.yul\":9962:9965   */\n      0x00\n        /* \"#utility.yul\":9983:10050   */\n      tag_553\n        /* \"#utility.yul\":10047:10049   */\n      0x1c\n        /* \"#utility.yul\":10042:10045   */\n      dup4\n        /* \"#utility.yul\":9983:10050   */\n      tag_384\n      jump\t// in\n    tag_553:\n        /* \"#utility.yul\":9976:10050   */\n      swap2\n      pop\n        /* \"#utility.yul\":10059:10152   */\n      tag_554\n        /* \"#utility.yul\":10148:10151   */\n      dup3\n        /* \"#utility.yul\":10059:10152   */\n      tag_390\n      jump\t// in\n    tag_554:\n        /* \"#utility.yul\":10177:10179   */\n      0x20\n        /* \"#utility.yul\":10172:10175   */\n      dup3\n        /* \"#utility.yul\":10168:10180   */\n      add\n        /* \"#utility.yul\":10161:10180   */\n      swap1\n      pop\n        /* \"#utility.yul\":9820:10186   */\n      swap2\n      swap1\n      pop\n      jump\t// out\n        /* \"#utility.yul\":10192:10611   */\n    tag_185:\n        /* \"#utility.yul\":10358:10362   */\n      0x00\n        /* \"#utility.yul\":10396:10398   */\n      0x20\n        /* \"#utility.yul\":10385:10394   */\n      dup3\n        /* \"#utility.yul\":10381:10399   */\n      add\n        /* \"#utility.yul\":10373:10399   */\n      swap1\n      pop\n        /* \"#utility.yul\":10445:10454   */\n      dup2\n        /* \"#utility.yul\":10439:10443   */\n      dup2\n        /* \"#utility.yul\":10435:10455   */\n      sub\n        /* \"#utility.yul\":10431:10432   */\n      0x00\n        /* \"#utility.yul\":10420:10429   */\n      dup4\n        /* \"#utility.yul\":10416:10433   */\n      add\n        /* \"#utility.yul\":10409:10456   */\n      mstore\n        /* \"#utility.yul\":10473:10604   */\n      tag_556\n        /* \"#utility.yul\":10599:10603   */\n      dup2\n        /* \"#utility.yul\":10473:10604   */\n      tag_391\n      jump\t// in\n    tag_556:\n        /* \"#utility.yul\":10465:10604   */\n      swap1\n      pop\n        /* \"#utility.yul\":10192:10611   */\n      swap2\n      swap1\n      pop\n      jump\t// out\n        /* \"#utility.yul\":10617:10786   */\n    tag_392:\n        /* \"#utility.yul\":10757:10778   */\n      0x416c72656164792077686974656c697374656400000000000000000000000000\n        /* \"#utility.yul\":10753:10754   */\n      0x00\n        /* \"#utility.yul\":10745:10751   */\n      dup3\n        /* \"#utility.yul\":10741:10755   */\n      add\n        /* \"#utility.yul\":10734:10779   */\n      mstore\n        /* \"#utility.yul\":10617:10786   */\n      pop\n      jump\t// out\n        /* \"#utility.yul\":10792:11158   */\n    tag_393:\n        /* \"#utility.yul\":10934:10937   */\n      0x00\n        /* \"#utility.yul\":10955:11022   */\n      tag_559\n        /* \"#utility.yul\":11019:11021   */\n      0x13\n        /* \"#utility.yul\":11014:11017   */\n      dup4\n        /* \"#utility.yul\":10955:11022   */\n      tag_384\n      jump\t// in\n    tag_559:\n        /* \"#utility.yul\":10948:11022   */\n      swap2\n      pop\n        /* \"#utility.yul\":11031:11124   */\n      tag_560\n        /* \"#utility.yul\":11120:11123   */\n      dup3\n        /* \"#utility.yul\":11031:11124   */\n      tag_392\n      jump\t// in\n    tag_560:\n        /* \"#utility.yul\":11149:11151   */\n      0x20\n        /* \"#utility.yul\":11144:11147   */\n      dup3\n        /* \"#utility.yul\":11140:11152   */\n      add\n        /* \"#utility.yul\":11133:11152   */\n      swap1\n      pop\n        /* \"#utility.yul\":10792:11158   */\n      swap2\n      swap1\n      pop\n      jump\t// out\n        /* \"#utility.yul\":11164:11583   */\n    tag_188:\n        /* \"#utility.yul\":11330:11334   */\n      0x00\n        /* \"#utility.yul\":11368:11370   */\n      0x20\n        /* \"#utility.yul\":11357:11366   */\n      dup3\n        /* \"#utility.yul\":11353:11371   */\n      add\n        /* \"#utility.yul\":11345:11371   */\n      swap1\n      pop\n        /* \"#utility.yul\":11417:11426   */\n      dup2\n        /* \"#utility.yul\":11411:11415   */\n      dup2\n        /* \"#utility.yul\":11407:11427   */\n      sub\n        /* \"#utility.yul\":11403:11404   */\n      0x00\n        /* \"#utility.yul\":11392:11401   */\n      dup4\n        /* \"#utility.yul\":11388:11405   */\n      add\n        /* \"#utility.yul\":11381:11428   */\n      mstore\n        /* \"#utility.yul\":11445:11576   */\n      tag_562\n        /* \"#utility.yul\":11571:11575   */\n      dup2\n        /* \"#utility.yul\":11445:11576   */\n      tag_393\n      jump\t// in\n    tag_562:\n        /* \"#utility.yul\":11437:11576   */\n      swap1\n      pop\n        /* \"#utility.yul\":11164:11583   */\n      swap2\n      swap1\n      pop\n      jump\t// out\n        /* \"#utility.yul\":11589:11756   */\n    tag_394:\n        /* \"#utility.yul\":11729:11748   */\n      0x496e76616c696420726563697069656e74000000000000000000000000000000\n        /* \"#utility.yul\":11725:11726   */\n      0x00\n        /* \"#utility.yul\":11717:11723   */\n      dup3\n        /* \"#utility.yul\":11713:11727   */\n      add\n        /* \"#utility.yul\":11706:11749   */\n      mstore\n        /* \"#utility.yul\":11589:11756   */\n      pop\n      jump\t// out\n        /* \"#utility.yul\":11762:12128   */\n    tag_395:\n        /* \"#utility.yul\":11904:11907   */\n      0x00\n        /* \"#utility.yul\":11925:11992   */\n      tag_565\n        /* \"#utility.yul\":11989:11991   */\n      0x11\n        /* \"#utility.yul\":11984:11987   */\n      dup4\n        /* \"#utility.yul\":11925:11992   */\n      tag_384\n      jump\t// in\n    tag_565:\n        /* \"#utility.yul\":11918:11992   */\n      swap2\n      pop\n        /* \"#utility.yul\":12001:12094   */\n      tag_566\n        /* \"#utility.yul\":12090:12093   */\n      dup3\n        /* \"#utility.yul\":12001:12094   */\n      tag_394\n      jump\t// in\n    tag_566:\n        /* \"#utility.yul\":12119:12121   */\n      0x20\n        /* \"#utility.yul\":12114:12117   */\n      dup3\n        /* \"#utility.yul\":12110:12122   */\n      add\n        /* \"#utility.yul\":12103:12122   */\n      swap1\n      pop\n        /* \"#utility.yul\":11762:12128   */\n      swap2\n      swap1\n      pop\n      jump\t// out\n        /* \"#utility.yul\":12134:12553   */\n    tag_198:\n        /* \"#utility.yul\":12300:12304   */\n      0x00\n        /* \"#utility.yul\":12338:12340   */\n      0x20\n        /* \"#utility.yul\":12327:12336   */\n      dup3\n        /* \"#utility.yul\":12323:12341   */\n      add\n        /* \"#utility.yul\":12315:12341   */\n      swap1\n      pop\n        /* \"#utility.yul\":12387:12396   */\n      dup2\n        /* \"#utility.yul\":12381:12385   */\n      dup2\n        /* \"#utility.yul\":12377:12397   */\n      sub\n        /* \"#utility.yul\":12373:12374   */\n      0x00\n        /* \"#utility.yul\":12362:12371   */\n      dup4\n        /* \"#utility.yul\":12358:12375   */\n      add\n        /* \"#utility.yul\":12351:12398   */\n      mstore\n        /* \"#utility.yul\":12415:12546   */\n      tag_568\n        /* \"#utility.yul\":12541:12545   */\n      dup2\n        /* \"#utility.yul\":12415:12546   */\n      tag_395\n      jump\t// in\n    tag_568:\n        /* \"#utility.yul\":12407:12546   */\n      swap1\n      pop\n        /* \"#utility.yul\":12134:12553   */\n      swap2\n      swap1\n      pop\n      jump\t// out\n        /* \"#utility.yul\":12559:12723   */\n    tag_396:\n        /* \"#utility.yul\":12699:12715   */\n      0x4e6f7420656e6f75676820455448000000000000000000000000000000000000\n        /* \"#utility.yul\":12695:12696   */\n      0x00\n        /* \"#utility.yul\":12687:12693   */\n      dup3\n        /* \"#utility.yul\":12683:12697   */\n      add\n        /* \"#utility.yul\":12676:12716   */\n      mstore\n        /* \"#utility.yul\":12559:12723   */\n      pop\n      jump\t// out\n        /* \"#utility.yul\":12729:13095   */\n    tag_397:\n        /* \"#utility.yul\":12871:12874   */\n      0x00\n        /* \"#utility.yul\":12892:12959   */\n      tag_571\n        /* \"#utility.yul\":12956:12958   */\n      0x0e\n        /* \"#utility.yul\":12951:12954   */\n      dup4\n        /* \"#utility.yul\":12892:12959   */\n      tag_384\n      jump\t// in\n    tag_571:\n        /* \"#utility.yul\":12885:12959   */\n      swap2\n      pop\n        /* \"#utility.yul\":12968:13061   */\n      tag_572\n        /* \"#utility.yul\":13057:13060   */\n      dup3\n        /* \"#utility.yul\":12968:13061   */\n      tag_396\n      jump\t// in\n    tag_572:\n        /* \"#utility.yul\":13086:13088   */\n      0x20\n        /* \"#utility.yul\":13081:13084   */\n      dup3\n        /* \"#utility.yul\":13077:13089   */\n      add\n        /* \"#utility.yul\":13070:13089   */\n      swap1\n      pop\n        /* \"#utility.yul\":12729:13095   */\n      swap2\n      swap1\n      pop\n      jump\t// out\n        /* \"#utility.yul\":13101:13520   */\n    tag_201:\n        /* \"#utility.yul\":13267:13271   */\n      0x00\n        /* \"#utility.yul\":13305:13307   */\n      0x20\n        /* \"#utility.yul\":13294:13303   */\n      dup3\n        /* \"#utility.yul\":13290:13308   */\n      add\n        /* \"#utility.yul\":13282:13308   */\n      swap1\n      pop\n        /* \"#utility.yul\":13354:13363   */\n      dup2\n        /* \"#utility.yul\":13348:13352   */\n      dup2\n        /* \"#utility.yul\":13344:13364   */\n      sub\n        /* \"#utility.yul\":13340:13341   */\n      0x00\n        /* \"#utility.yul\":13329:13338   */\n      dup4\n        /* \"#utility.yul\":13325:13342   */\n      add\n        /* \"#utility.yul\":13318:13365   */\n      mstore\n        /* \"#utility.yul\":13382:13513   */\n      tag_574\n        /* \"#utility.yul\":13508:13512   */\n      dup2\n        /* \"#utility.yul\":13382:13513   */\n      tag_397\n      jump\t// in\n    tag_574:\n        /* \"#utility.yul\":13374:13513   */\n      swap1\n      pop\n        /* \"#utility.yul\":13101:13520   */\n      swap2\n      swap1\n      pop\n      jump\t// out\n        /* \"#utility.yul\":13526:13673   */\n    tag_398:\n        /* \"#utility.yul\":13627:13638   */\n      0x00\n        /* \"#utility.yul\":13664:13667   */\n      dup2\n        /* \"#utility.yul\":13649:13667   */\n      swap1\n      pop\n        /* \"#utility.yul\":13526:13673   */\n      swap3\n      swap2\n      pop\n      pop\n      jump\t// out\n        /* \"#utility.yul\":13679:13793   */\n    tag_399:\n      pop\n      jump\t// out\n        /* \"#utility.yul\":13799:14197   */\n    tag_400:\n        /* \"#utility.yul\":13958:13961   */\n      0x00\n        /* \"#utility.yul\":13979:14062   */\n      tag_578\n        /* \"#utility.yul\":14060:14061   */\n      0x00\n        /* \"#utility.yul\":14055:14058   */\n      dup4\n        /* \"#utility.yul\":13979:14062   */\n      tag_398\n      jump\t// in\n    tag_578:\n        /* \"#utility.yul\":13972:14062   */\n      swap2\n      pop\n        /* \"#utility.yul\":14071:14164   */\n      tag_579\n        /* \"#utility.yul\":14160:14163   */\n      dup3\n        /* \"#utility.yul\":14071:14164   */\n      tag_399\n      jump\t// in\n    tag_579:\n        /* \"#utility.yul\":14189:14190   */\n      0x00\n        /* \"#utility.yul\":14184:14187   */\n      dup3\n        /* \"#utility.yul\":14180:14191   */\n      add\n        /* \"#utility.yul\":14173:14191   */\n      swap1\n      pop\n        /* \"#utility.yul\":13799:14197   */\n      swap2\n      swap1\n      pop\n      jump\t// out\n        /* \"#utility.yul\":14203:14582   */\n    tag_203:\n        /* \"#utility.yul\":14387:14390   */\n      0x00\n        /* \"#utility.yul\":14409:14556   */\n      tag_581\n        /* \"#utility.yul\":14552:14555   */\n      dup3\n        /* \"#utility.yul\":14409:14556   */\n      tag_400\n      jump\t// in\n    tag_581:\n        /* \"#utility.yul\":14402:14556   */\n      swap2\n      pop\n        /* \"#utility.yul\":14573:14576   */\n      dup2\n        /* \"#utility.yul\":14566:14576   */\n      swap1\n      pop\n        /* \"#utility.yul\":14203:14582   */\n      swap2\n      swap1\n      pop\n      jump\t// out\n        /* \"#utility.yul\":14588:14757   */\n    tag_401:\n        /* \"#utility.yul\":14728:14749   */\n      0x455448207472616e73666572206661696c656400000000000000000000000000\n        /* \"#utility.yul\":14724:14725   */\n      0x00\n        /* \"#utility.yul\":14716:14722   */\n      dup3\n        /* \"#utility.yul\":14712:14726   */\n      add\n        /* \"#utility.yul\":14705:14750   */\n      mstore\n        /* \"#utility.yul\":14588:14757   */\n      pop\n      jump\t// out\n        /* \"#utility.yul\":14763:15129   */\n    tag_402:\n        /* \"#utility.yul\":14905:14908   */\n      0x00\n        /* \"#utility.yul\":14926:14993   */\n      tag_584\n        /* \"#utility.yul\":14990:14992   */\n      0x13\n        /* \"#utility.yul\":14985:14988   */\n      dup4\n        /* \"#utility.yul\":14926:14993   */\n      tag_384\n      jump\t// in\n    tag_584:\n        /* \"#utility.yul\":14919:14993   */\n      swap2\n      pop\n        /* \"#utility.yul\":15002:15095   */\n      tag_585\n        /* \"#utility.yul\":15091:15094   */\n      dup3\n        /* \"#utility.yul\":15002:15095   */\n      tag_401\n      jump\t// in\n    tag_585:\n        /* \"#utility.yul\":15120:15122   */\n      0x20\n        /* \"#utility.yul\":15115:15118   */\n      dup3\n        /* \"#utility.yul\":15111:15123   */\n      add\n        /* \"#utility.yul\":15104:15123   */\n      swap1\n      pop\n        /* \"#utility.yul\":14763:15129   */\n      swap2\n      swap1\n      pop\n      jump\t// out\n        /* \"#utility.yul\":15135:15554   */\n    tag_209:\n        /* \"#utility.yul\":15301:15305   */\n      0x00\n        /* \"#utility.yul\":15339:15341   */\n      0x20\n        /* \"#utility.yul\":15328:15337   */\n      dup3\n        /* \"#utility.yul\":15324:15342   */\n      add\n        /* \"#utility.yul\":15316:15342   */\n      swap1\n      pop\n        /* \"#utility.yul\":15388:15397   */\n      dup2\n        /* \"#utility.yul\":15382:15386   */\n      dup2\n        /* \"#utility.yul\":15378:15398   */\n      sub\n        /* \"#utility.yul\":15374:15375   */\n      0x00\n        /* \"#utility.yul\":15363:15372   */\n      dup4\n        /* \"#utility.yul\":15359:15376   */\n      add\n        /* \"#utility.yul\":15352:15399   */\n      mstore\n        /* \"#utility.yul\":15416:15547   */\n      tag_587\n        /* \"#utility.yul\":15542:15546   */\n      dup2\n        /* \"#utility.yul\":15416:15547   */\n      tag_402\n      jump\t// in\n    tag_587:\n        /* \"#utility.yul\":15408:15547   */\n      swap1\n      pop\n        /* \"#utility.yul\":15135:15554   */\n      swap2\n      swap1\n      pop\n      jump\t// out\n        /* \"#utility.yul\":15560:15620   */\n    tag_403:\n        /* \"#utility.yul\":15588:15591   */\n      0x00\n        /* \"#utility.yul\":15609:15614   */\n      dup2\n        /* \"#utility.yul\":15602:15614   */\n      swap1\n      pop\n        /* \"#utility.yul\":15560:15620   */\n      swap2\n      swap1\n      pop\n      jump\t// out\n        /* \"#utility.yul\":15626:15768   */\n    tag_404:\n        /* \"#utility.yul\":15676:15685   */\n      0x00\n        /* \"#utility.yul\":15709:15762   */\n      tag_590\n        /* \"#utility.yul\":15727:15761   */\n      tag_591\n        /* \"#utility.yul\":15736:15760   */\n      tag_592\n        /* \"#utility.yul\":15754:15759   */\n      dup5\n        /* \"#utility.yul\":15736:15760   */\n      tag_362\n      jump\t// in\n    tag_592:\n        /* \"#utility.yul\":15727:15761   */\n      tag_403\n      jump\t// in\n    tag_591:\n        /* \"#utility.yul\":15709:15762   */\n      tag_362\n      jump\t// in\n    tag_590:\n        /* \"#utility.yul\":15696:15762   */\n      swap1\n      pop\n        /* \"#utility.yul\":15626:15768   */\n      swap2\n      swap1\n      pop\n      jump\t// out\n        /* \"#utility.yul\":15774:15900   */\n    tag_405:\n        /* \"#utility.yul\":15824:15833   */\n      0x00\n        /* \"#utility.yul\":15857:15894   */\n      tag_594\n        /* \"#utility.yul\":15888:15893   */\n      dup3\n        /* \"#utility.yul\":15857:15894   */\n      tag_404\n      jump\t// in\n    tag_594:\n        /* \"#utility.yul\":15844:15894   */\n      swap1\n      pop\n        /* \"#utility.yul\":15774:15900   */\n      swap2\n      swap1\n      pop\n      jump\t// out\n        /* \"#utility.yul\":15906:16040   */\n    tag_406:\n        /* \"#utility.yul\":15964:15973   */\n      0x00\n        /* \"#utility.yul\":15997:16034   */\n      tag_596\n        /* \"#utility.yul\":16028:16033   */\n      dup3\n        /* \"#utility.yul\":15997:16034   */\n      tag_405\n      jump\t// in\n    tag_596:\n        /* \"#utility.yul\":15984:16034   */\n      swap1\n      pop\n        /* \"#utility.yul\":15906:16040   */\n      swap2\n      swap1\n      pop\n      jump\t// out\n        /* \"#utility.yul\":16046:16193   */\n    tag_407:\n        /* \"#utility.yul\":16141:16186   */\n      tag_598\n        /* \"#utility.yul\":16180:16185   */\n      dup2\n        /* \"#utility.yul\":16141:16186   */\n      tag_406\n      jump\t// in\n    tag_598:\n        /* \"#utility.yul\":16136:16139   */\n      dup3\n        /* \"#utility.yul\":16129:16187   */\n      mstore\n        /* \"#utility.yul\":16046:16193   */\n      pop\n      pop\n      jump\t// out\n        /* \"#utility.yul\":16199:16547   */\n    tag_211:\n        /* \"#utility.yul\":16328:16332   */\n      0x00\n        /* \"#utility.yul\":16366:16368   */\n      0x40\n        /* \"#utility.yul\":16355:16364   */\n      dup3\n        /* \"#utility.yul\":16351:16369   */\n      add\n        /* \"#utility.yul\":16343:16369   */\n      swap1\n      pop\n        /* \"#utility.yul\":16379:16450   */\n      tag_600\n        /* \"#utility.yul\":16447:16448   */\n      0x00\n        /* \"#utility.yul\":16436:16445   */\n      dup4\n        /* \"#utility.yul\":16432:16449   */\n      add\n        /* \"#utility.yul\":16423:16429   */\n      dup6\n        /* \"#utility.yul\":16379:16450   */\n      tag_373\n      jump\t// in\n    tag_600:\n        /* \"#utility.yul\":16460:16540   */\n      tag_601\n        /* \"#utility.yul\":16536:16538   */\n      0x20\n        /* \"#utility.yul\":16525:16534   */\n      dup4\n        /* \"#utility.yul\":16521:16539   */\n      add\n        /* \"#utility.yul\":16512:16518   */\n      dup5\n        /* \"#utility.yul\":16460:16540   */\n      tag_407\n      jump\t// in\n    tag_601:\n        /* \"#utility.yul\":16199:16547   */\n      swap4\n      swap3\n      pop\n      pop\n      pop\n      jump\t// out\n        /* \"#utility.yul\":16553:16727   */\n    tag_408:\n        /* \"#utility.yul\":16693:16719   */\n      0x4e6f7420656e6f75676820746f6b656e2062616c616e63650000000000000000\n        /* \"#utility.yul\":16689:16690   */\n      0x00\n        /* \"#utility.yul\":16681:16687   */\n      dup3\n        /* \"#utility.yul\":16677:16691   */\n      add\n        /* \"#utility.yul\":16670:16720   */\n      mstore\n        /* \"#utility.yul\":16553:16727   */\n      pop\n      jump\t// out\n        /* \"#utility.yul\":16733:17099   */\n    tag_409:\n        /* \"#utility.yul\":16875:16878   */\n      0x00\n        /* \"#utility.yul\":16896:16963   */\n      tag_604\n        /* \"#utility.yul\":16960:16962   */\n      0x18\n        /* \"#utility.yul\":16955:16958   */\n      dup4\n        /* \"#utility.yul\":16896:16963   */\n      tag_384\n      jump\t// in\n    tag_604:\n        /* \"#utility.yul\":16889:16963   */\n      swap2\n      pop\n        /* \"#utility.yul\":16972:17065   */\n      tag_605\n        /* \"#utility.yul\":17061:17064   */\n      dup3\n        /* \"#utility.yul\":16972:17065   */\n      tag_408\n      jump\t// in\n    tag_605:\n        /* \"#utility.yul\":17090:17092   */\n      0x20\n        /* \"#utility.yul\":17085:17088   */\n      dup3\n        /* \"#utility.yul\":17081:17093   */\n      add\n        /* \"#utility.yul\":17074:17093   */\n      swap1\n      pop\n        /* \"#utility.yul\":16733:17099   */\n      swap2\n      swap1\n      pop\n      jump\t// out\n        /* \"#utility.yul\":17105:17524   */\n    tag_226:\n        /* \"#utility.yul\":17271:17275   */\n      0x00\n        /* \"#utility.yul\":17309:17311   */\n      0x20\n        /* \"#utility.yul\":17298:17307   */\n      dup3\n        /* \"#utility.yul\":17294:17312   */\n      add\n        /* \"#utility.yul\":17286:17312   */\n      swap1\n      pop\n        /* \"#utility.yul\":17358:17367   */\n      dup2\n        /* \"#utility.yul\":17352:17356   */\n      dup2\n        /* \"#utility.yul\":17348:17368   */\n      sub\n        /* \"#utility.yul\":17344:17345   */\n      0x00\n        /* \"#utility.yul\":17333:17342   */\n      dup4\n        /* \"#utility.yul\":17329:17346   */\n      add\n        /* \"#utility.yul\":17322:17369   */\n      mstore\n        /* \"#utility.yul\":17386:17517   */\n      tag_607\n        /* \"#utility.yul\":17512:17516   */\n      dup2\n        /* \"#utility.yul\":17386:17517   */\n      tag_409\n      jump\t// in\n    tag_607:\n        /* \"#utility.yul\":17378:17517   */\n      swap1\n      pop\n        /* \"#utility.yul\":17105:17524   */\n      swap2\n      swap1\n      pop\n      jump\t// out\n        /* \"#utility.yul\":17530:17704   */\n    tag_410:\n        /* \"#utility.yul\":17670:17696   */\n      0x4e6f20657863657373205745544e20746f207265736375650000000000000000\n        /* \"#utility.yul\":17666:17667   */\n      0x00\n        /* \"#utility.yul\":17658:17664   */\n      dup3\n        /* \"#utility.yul\":17654:17668   */\n      add\n        /* \"#utility.yul\":17647:17697   */\n      mstore\n        /* \"#utility.yul\":17530:17704   */\n      pop\n      jump\t// out\n        /* \"#utility.yul\":17710:18076   */\n    tag_411:\n        /* \"#utility.yul\":17852:17855   */\n      0x00\n        /* \"#utility.yul\":17873:17940   */\n      tag_610\n        /* \"#utility.yul\":17937:17939   */\n      0x18\n        /* \"#utility.yul\":17932:17935   */\n      dup4\n        /* \"#utility.yul\":17873:17940   */\n      tag_384\n      jump\t// in\n    tag_610:\n        /* \"#utility.yul\":17866:17940   */\n      swap2\n      pop\n        /* \"#utility.yul\":17949:18042   */\n      tag_611\n        /* \"#utility.yul\":18038:18041   */\n      dup3\n        /* \"#utility.yul\":17949:18042   */\n      tag_410\n      jump\t// in\n    tag_611:\n        /* \"#utility.yul\":18067:18069   */\n      0x20\n        /* \"#utility.yul\":18062:18065   */\n      dup3\n        /* \"#utility.yul\":18058:18070   */\n      add\n        /* \"#utility.yul\":18051:18070   */\n      swap1\n      pop\n        /* \"#utility.yul\":17710:18076   */\n      swap2\n      swap1\n      pop\n      jump\t// out\n        /* \"#utility.yul\":18082:18501   */\n    tag_231:\n        /* \"#utility.yul\":18248:18252   */\n      0x00\n        /* \"#utility.yul\":18286:18288   */\n      0x20\n        /* \"#utility.yul\":18275:18284   */\n      dup3\n        /* \"#utility.yul\":18271:18289   */\n      add\n        /* \"#utility.yul\":18263:18289   */\n      swap1\n      pop\n        /* \"#utility.yul\":18335:18344   */\n      dup2\n        /* \"#utility.yul\":18329:18333   */\n      dup2\n        /* \"#utility.yul\":18325:18345   */\n      sub\n        /* \"#utility.yul\":18321:18322   */\n      0x00\n        /* \"#utility.yul\":18310:18319   */\n      dup4\n        /* \"#utility.yul\":18306:18323   */\n      add\n        /* \"#utility.yul\":18299:18346   */\n      mstore\n        /* \"#utility.yul\":18363:18494   */\n      tag_613\n        /* \"#utility.yul\":18489:18493   */\n      dup2\n        /* \"#utility.yul\":18363:18494   */\n      tag_411\n      jump\t// in\n    tag_613:\n        /* \"#utility.yul\":18355:18494   */\n      swap1\n      pop\n        /* \"#utility.yul\":18082:18501   */\n      swap2\n      swap1\n      pop\n      jump\t// out\n        /* \"#utility.yul\":18507:18683   */\n    tag_412:\n        /* \"#utility.yul\":18647:18675   */\n      0x416d6f756e74206578636565647320657863657373205745544e000000000000\n        /* \"#utility.yul\":18643:18644   */\n      0x00\n        /* \"#utility.yul\":18635:18641   */\n      dup3\n        /* \"#utility.yul\":18631:18645   */\n      add\n        /* \"#utility.yul\":18624:18676   */\n      mstore\n        /* \"#utility.yul\":18507:18683   */\n      pop\n      jump\t// out\n        /* \"#utility.yul\":18689:19055   */\n    tag_413:\n        /* \"#utility.yul\":18831:18834   */\n      0x00\n        /* \"#utility.yul\":18852:18919   */\n      tag_616\n        /* \"#utility.yul\":18916:18918   */\n      0x1a\n        /* \"#utility.yul\":18911:18914   */\n      dup4\n        /* \"#utility.yul\":18852:18919   */\n      tag_384\n      jump\t// in\n    tag_616:\n        /* \"#utility.yul\":18845:18919   */\n      swap2\n      pop\n        /* \"#utility.yul\":18928:19021   */\n      tag_617\n        /* \"#utility.yul\":19017:19020   */\n      dup3\n        /* \"#utility.yul\":18928:19021   */\n      tag_412\n      jump\t// in\n    tag_617:\n        /* \"#utility.yul\":19046:19048   */\n      0x20\n        /* \"#utility.yul\":19041:19044   */\n      dup3\n        /* \"#utility.yul\":19037:19049   */\n      add\n        /* \"#utility.yul\":19030:19049   */\n      swap1\n      pop\n        /* \"#utility.yul\":18689:19055   */\n      swap2\n      swap1\n      pop\n      jump\t// out\n        /* \"#utility.yul\":19061:19480   */\n    tag_235:\n        /* \"#utility.yul\":19227:19231   */\n      0x00\n        /* \"#utility.yul\":19265:19267   */\n      0x20\n        /* \"#utility.yul\":19254:19263   */\n      dup3\n        /* \"#utility.yul\":19250:19268   */\n      add\n        /* \"#utility.yul\":19242:19268   */\n      swap1\n      pop\n        /* \"#utility.yul\":19314:19323   */\n      dup2\n        /* \"#utility.yul\":19308:19312   */\n      dup2\n        /* \"#utility.yul\":19304:19324   */\n      sub\n        /* \"#utility.yul\":19300:19301   */\n      0x00\n        /* \"#utility.yul\":19289:19298   */\n      dup4\n        /* \"#utility.yul\":19285:19302   */\n      add\n        /* \"#utility.yul\":19278:19325   */\n      mstore\n        /* \"#utility.yul\":19342:19473   */\n      tag_619\n        /* \"#utility.yul\":19468:19472   */\n      dup2\n        /* \"#utility.yul\":19342:19473   */\n      tag_413\n      jump\t// in\n    tag_619:\n        /* \"#utility.yul\":19334:19473   */\n      swap1\n      pop\n        /* \"#utility.yul\":19061:19480   */\n      swap2\n      swap1\n      pop\n      jump\t// out\n        /* \"#utility.yul\":19486:19818   */\n    tag_237:\n        /* \"#utility.yul\":19607:19611   */\n      0x00\n        /* \"#utility.yul\":19645:19647   */\n      0x40\n        /* \"#utility.yul\":19634:19643   */\n      dup3\n        /* \"#utility.yul\":19630:19648   */\n      add\n        /* \"#utility.yul\":19622:19648   */\n      swap1\n      pop\n        /* \"#utility.yul\":19658:19729   */\n      tag_621\n        /* \"#utility.yul\":19726:19727   */\n      0x00\n        /* \"#utility.yul\":19715:19724   */\n      dup4\n        /* \"#utility.yul\":19711:19728   */\n      add\n        /* \"#utility.yul\":19702:19708   */\n      dup6\n        /* \"#utility.yul\":19658:19729   */\n      tag_364\n      jump\t// in\n    tag_621:\n        /* \"#utility.yul\":19739:19811   */\n      tag_622\n        /* \"#utility.yul\":19807:19809   */\n      0x20\n        /* \"#utility.yul\":19796:19805   */\n      dup4\n        /* \"#utility.yul\":19792:19810   */\n      add\n        /* \"#utility.yul\":19783:19789   */\n      dup5\n        /* \"#utility.yul\":19739:19811   */\n      tag_373\n      jump\t// in\n    tag_622:\n        /* \"#utility.yul\":19486:19818   */\n      swap4\n      swap3\n      pop\n      pop\n      pop\n      jump\t// out\n        /* \"#utility.yul\":19824:19961   */\n    tag_414:\n        /* \"#utility.yul\":19878:19883   */\n      0x00\n        /* \"#utility.yul\":19909:19915   */\n      dup2\n        /* \"#utility.yul\":19903:19916   */\n      mload\n        /* \"#utility.yul\":19894:19916   */\n      swap1\n      pop\n        /* \"#utility.yul\":19925:19955   */\n      tag_624\n        /* \"#utility.yul\":19949:19954   */\n      dup2\n        /* \"#utility.yul\":19925:19955   */\n      tag_376\n      jump\t// in\n    tag_624:\n        /* \"#utility.yul\":19824:19961   */\n      swap3\n      swap2\n      pop\n      pop\n      jump\t// out\n        /* \"#utility.yul\":19967:20312   */\n    tag_241:\n        /* \"#utility.yul\":20034:20040   */\n      0x00\n        /* \"#utility.yul\":20083:20085   */\n      0x20\n        /* \"#utility.yul\":20071:20080   */\n      dup3\n        /* \"#utility.yul\":20062:20069   */\n      dup5\n        /* \"#utility.yul\":20058:20081   */\n      sub\n        /* \"#utility.yul\":20054:20086   */\n      slt\n        /* \"#utility.yul\":20051:20170   */\n      iszero\n      tag_626\n      jumpi\n        /* \"#utility.yul\":20089:20168   */\n      tag_627\n      tag_366\n      jump\t// in\n    tag_627:\n        /* \"#utility.yul\":20051:20170   */\n    tag_626:\n        /* \"#utility.yul\":20209:20210   */\n      0x00\n        /* \"#utility.yul\":20234:20295   */\n      tag_628\n        /* \"#utility.yul\":20287:20294   */\n      dup5\n        /* \"#utility.yul\":20278:20284   */\n      dup3\n        /* \"#utility.yul\":20267:20276   */\n      dup6\n        /* \"#utility.yul\":20263:20285   */\n      add\n        /* \"#utility.yul\":20234:20295   */\n      tag_414\n      jump\t// in\n    tag_628:\n        /* \"#utility.yul\":20224:20295   */\n      swap2\n      pop\n        /* \"#utility.yul\":20180:20305   */\n      pop\n        /* \"#utility.yul\":19967:20312   */\n      swap3\n      swap2\n      pop\n      pop\n      jump\t// out\n        /* \"#utility.yul\":20318:20489   */\n    tag_415:\n        /* \"#utility.yul\":20458:20481   */\n      0x546f6b656e207472616e73666572206661696c65640000000000000000000000\n        /* \"#utility.yul\":20454:20455   */\n      0x00\n        /* \"#utility.yul\":20446:20452   */\n      dup3\n        /* \"#utility.yul\":20442:20456   */\n      add\n        /* \"#utility.yul\":20435:20482   */\n      mstore\n        /* \"#utility.yul\":20318:20489   */\n      pop\n      jump\t// out\n        /* \"#utility.yul\":20495:20861   */\n    tag_416:\n        /* \"#utility.yul\":20637:20640   */\n      0x00\n        /* \"#utility.yul\":20658:20725   */\n      tag_631\n        /* \"#utility.yul\":20722:20724   */\n      0x15\n        /* \"#utility.yul\":20717:20720   */\n      dup4\n        /* \"#utility.yul\":20658:20725   */\n      tag_384\n      jump\t// in\n    tag_631:\n        /* \"#utility.yul\":20651:20725   */\n      swap2\n      pop\n        /* \"#utility.yul\":20734:20827   */\n      tag_632\n        /* \"#utility.yul\":20823:20826   */\n      dup3\n        /* \"#utility.yul\":20734:20827   */\n      tag_415\n      jump\t// in\n    tag_632:\n        /* \"#utility.yul\":20852:20854   */\n      0x20\n        /* \"#utility.yul\":20847:20850   */\n      dup3\n        /* \"#utility.yul\":20843:20855   */\n      add\n        /* \"#utility.yul\":20836:20855   */\n      swap1\n      pop\n        /* \"#utility.yul\":20495:20861   */\n      swap2\n      swap1\n      pop\n      jump\t// out\n        /* \"#utility.yul\":20867:21286   */\n    tag_244:\n        /* \"#utility.yul\":21033:21037   */\n      0x00\n        /* \"#utility.yul\":21071:21073   */\n      0x20\n        /* \"#utility.yul\":21060:21069   */\n      dup3\n        /* \"#utility.yul\":21056:21074   */\n      add\n        /* \"#utility.yul\":21048:21074   */\n      swap1\n      pop\n        /* \"#utility.yul\":21120:21129   */\n      dup2\n        /* \"#utility.yul\":21114:21118   */\n      dup2\n        /* \"#utility.yul\":21110:21130   */\n      sub\n        /* \"#utility.yul\":21106:21107   */\n      0x00\n        /* \"#utility.yul\":21095:21104   */\n      dup4\n        /* \"#utility.yul\":21091:21108   */\n      add\n        /* \"#utility.yul\":21084:21131   */\n      mstore\n        /* \"#utility.yul\":21148:21279   */\n      tag_634\n        /* \"#utility.yul\":21274:21278   */\n      dup2\n        /* \"#utility.yul\":21148:21279   */\n      tag_416\n      jump\t// in\n    tag_634:\n        /* \"#utility.yul\":21140:21279   */\n      swap1\n      pop\n        /* \"#utility.yul\":20867:21286   */\n      swap2\n      swap1\n      pop\n      jump\t// out\n        /* \"#utility.yul\":21292:21734   */\n    tag_246:\n        /* \"#utility.yul\":21441:21445   */\n      0x00\n        /* \"#utility.yul\":21479:21481   */\n      0x60\n        /* \"#utility.yul\":21468:21477   */\n      dup3\n        /* \"#utility.yul\":21464:21482   */\n      add\n        /* \"#utility.yul\":21456:21482   */\n      swap1\n      pop\n        /* \"#utility.yul\":21492:21563   */\n      tag_636\n        /* \"#utility.yul\":21560:21561   */\n      0x00\n        /* \"#utility.yul\":21549:21558   */\n      dup4\n        /* \"#utility.yul\":21545:21562   */\n      add\n        /* \"#utility.yul\":21536:21542   */\n      dup7\n        /* \"#utility.yul\":21492:21563   */\n      tag_364\n      jump\t// in\n    tag_636:\n        /* \"#utility.yul\":21573:21645   */\n      tag_637\n        /* \"#utility.yul\":21641:21643   */\n      0x20\n        /* \"#utility.yul\":21630:21639   */\n      dup4\n        /* \"#utility.yul\":21626:21644   */\n      add\n        /* \"#utility.yul\":21617:21623   */\n      dup6\n        /* \"#utility.yul\":21573:21645   */\n      tag_373\n      jump\t// in\n    tag_637:\n        /* \"#utility.yul\":21655:21727   */\n      tag_638\n        /* \"#utility.yul\":21723:21725   */\n      0x40\n        /* \"#utility.yul\":21712:21721   */\n      dup4\n        /* \"#utility.yul\":21708:21726   */\n      add\n        /* \"#utility.yul\":21699:21705   */\n      dup5\n        /* \"#utility.yul\":21655:21727   */\n      tag_364\n      jump\t// in\n    tag_638:\n        /* \"#utility.yul\":21292:21734   */\n      swap5\n      swap4\n      pop\n      pop\n      pop\n      pop\n      jump\t// out\n        /* \"#utility.yul\":21740:21917   */\n    tag_417:\n        /* \"#utility.yul\":21880:21909   */\n      0x436f72652077616c6c6574207472616e73666572206661696c65640000000000\n        /* \"#utility.yul\":21876:21877   */\n      0x00\n        /* \"#utility.yul\":21868:21874   */\n      dup3\n        /* \"#utility.yul\":21864:21878   */\n      add\n        /* \"#utility.yul\":21857:21910   */\n      mstore\n        /* \"#utility.yul\":21740:21917   */\n      pop\n      jump\t// out\n        /* \"#utility.yul\":21923:22289   */\n    tag_418:\n        /* \"#utility.yul\":22065:22068   */\n      0x00\n        /* \"#utility.yul\":22086:22153   */\n      tag_641\n        /* \"#utility.yul\":22150:22152   */\n      0x1b\n        /* \"#utility.yul\":22145:22148   */\n      dup4\n        /* \"#utility.yul\":22086:22153   */\n      tag_384\n      jump\t// in\n    tag_641:\n        /* \"#utility.yul\":22079:22153   */\n      swap2\n      pop\n        /* \"#utility.yul\":22162:22255   */\n      tag_642\n        /* \"#utility.yul\":22251:22254   */\n      dup3\n        /* \"#utility.yul\":22162:22255   */\n      tag_417\n      jump\t// in\n    tag_642:\n        /* \"#utility.yul\":22280:22282   */\n      0x20\n        /* \"#utility.yul\":22275:22278   */\n      dup3\n        /* \"#utility.yul\":22271:22283   */\n      add\n        /* \"#utility.yul\":22264:22283   */\n      swap1\n      pop\n        /* \"#utility.yul\":21923:22289   */\n      swap2\n      swap1\n      pop\n      jump\t// out\n        /* \"#utility.yul\":22295:22714   */\n    tag_266:\n        /* \"#utility.yul\":22461:22465   */\n      0x00\n        /* \"#utility.yul\":22499:22501   */\n      0x20\n        /* \"#utility.yul\":22488:22497   */\n      dup3\n        /* \"#utility.yul\":22484:22502   */\n      add\n        /* \"#utility.yul\":22476:22502   */\n      swap1\n      pop\n        /* \"#utility.yul\":22548:22557   */\n      dup2\n        /* \"#utility.yul\":22542:22546   */\n      dup2\n        /* \"#utility.yul\":22538:22558   */\n      sub\n        /* \"#utility.yul\":22534:22535   */\n      0x00\n        /* \"#utility.yul\":22523:22532   */\n      dup4\n        /* \"#utility.yul\":22519:22536   */\n      add\n        /* \"#utility.yul\":22512:22559   */\n      mstore\n        /* \"#utility.yul\":22576:22707   */\n      tag_644\n        /* \"#utility.yul\":22702:22706   */\n      dup2\n        /* \"#utility.yul\":22576:22707   */\n      tag_418\n      jump\t// in\n    tag_644:\n        /* \"#utility.yul\":22568:22707   */\n      swap1\n      pop\n        /* \"#utility.yul\":22295:22714   */\n      swap2\n      swap1\n      pop\n      jump\t// out\n        /* \"#utility.yul\":22720:22950   */\n    tag_419:\n        /* \"#utility.yul\":22860:22894   */\n      0x556e617574686f72697a65643a204f6e6c79206f776e6572206f722077686974\n        /* \"#utility.yul\":22856:22857   */\n      0x00\n        /* \"#utility.yul\":22848:22854   */\n      dup3\n        /* \"#utility.yul\":22844:22858   */\n      add\n        /* \"#utility.yul\":22837:22895   */\n      mstore\n        /* \"#utility.yul\":22929:22942   */\n      0x656c6973746564204e4654000000000000000000000000000000000000000000\n        /* \"#utility.yul\":22924:22926   */\n      0x20\n        /* \"#utility.yul\":22916:22922   */\n      dup3\n        /* \"#utility.yul\":22912:22927   */\n      add\n        /* \"#utility.yul\":22905:22943   */\n      mstore\n        /* \"#utility.yul\":22720:22950   */\n      pop\n      jump\t// out\n        /* \"#utility.yul\":22956:23322   */\n    tag_420:\n        /* \"#utility.yul\":23098:23101   */\n      0x00\n        /* \"#utility.yul\":23119:23186   */\n      tag_647\n        /* \"#utility.yul\":23183:23185   */\n      0x2b\n        /* \"#utility.yul\":23178:23181   */\n      dup4\n        /* \"#utility.yul\":23119:23186   */\n      tag_384\n      jump\t// in\n    tag_647:\n        /* \"#utility.yul\":23112:23186   */\n      swap2\n      pop\n        /* \"#utility.yul\":23195:23288   */\n      tag_648\n        /* \"#utility.yul\":23284:23287   */\n      dup3\n        /* \"#utility.yul\":23195:23288   */\n      tag_419\n      jump\t// in\n    tag_648:\n        /* \"#utility.yul\":23313:23315   */\n      0x40\n        /* \"#utility.yul\":23308:23311   */\n      dup3\n        /* \"#utility.yul\":23304:23316   */\n      add\n        /* \"#utility.yul\":23297:23316   */\n      swap1\n      pop\n        /* \"#utility.yul\":22956:23322   */\n      swap2\n      swap1\n      pop\n      jump\t// out\n        /* \"#utility.yul\":23328:23747   */\n    tag_273:\n        /* \"#utility.yul\":23494:23498   */\n      0x00\n        /* \"#utility.yul\":23532:23534   */\n      0x20\n        /* \"#utility.yul\":23521:23530   */\n      dup3\n        /* \"#utility.yul\":23517:23535   */\n      add\n        /* \"#utility.yul\":23509:23535   */\n      swap1\n      pop\n        /* \"#utility.yul\":23581:23590   */\n      dup2\n        /* \"#utility.yul\":23575:23579   */\n      dup2\n        /* \"#utility.yul\":23571:23591   */\n      sub\n        /* \"#utility.yul\":23567:23568   */\n      0x00\n        /* \"#utility.yul\":23556:23565   */\n      dup4\n        /* \"#utility.yul\":23552:23569   */\n      add\n        /* \"#utility.yul\":23545:23592   */\n      mstore\n        /* \"#utility.yul\":23609:23740   */\n      tag_650\n        /* \"#utility.yul\":23735:23739   */\n      dup2\n        /* \"#utility.yul\":23609:23740   */\n      tag_420\n      jump\t// in\n    tag_650:\n        /* \"#utility.yul\":23601:23740   */\n      swap1\n      pop\n        /* \"#utility.yul\":23328:23747   */\n      swap2\n      swap1\n      pop\n      jump\t// out\n        /* \"#utility.yul\":23753:23926   */\n    tag_421:\n        /* \"#utility.yul\":23893:23918   */\n      0x4e6f20636f72652062616c616e636520746f206275726e000000000000000000\n        /* \"#utility.yul\":23889:23890   */\n      0x00\n        /* \"#utility.yul\":23881:23887   */\n      dup3\n        /* \"#utility.yul\":23877:23891   */\n      add\n        /* \"#utility.yul\":23870:23919   */\n      mstore\n        /* \"#utility.yul\":23753:23926   */\n      pop\n      jump\t// out\n        /* \"#utility.yul\":23932:24298   */\n    tag_422:\n        /* \"#utility.yul\":24074:24077   */\n      0x00\n        /* \"#utility.yul\":24095:24162   */\n      tag_653\n        /* \"#utility.yul\":24159:24161   */\n      0x17\n        /* \"#utility.yul\":24154:24157   */\n      dup4\n        /* \"#utility.yul\":24095:24162   */\n      tag_384\n      jump\t// in\n    tag_653:\n        /* \"#utility.yul\":24088:24162   */\n      swap2\n      pop\n        /* \"#utility.yul\":24171:24264   */\n      tag_654\n        /* \"#utility.yul\":24260:24263   */\n      dup3\n        /* \"#utility.yul\":24171:24264   */\n      tag_421\n      jump\t// in\n    tag_654:\n        /* \"#utility.yul\":24289:24291   */\n      0x20\n        /* \"#utility.yul\":24284:24287   */\n      dup3\n        /* \"#utility.yul\":24280:24292   */\n      add\n        /* \"#utility.yul\":24273:24292   */\n      swap1\n      pop\n        /* \"#utility.yul\":23932:24298   */\n      swap2\n      swap1\n      pop\n      jump\t// out\n        /* \"#utility.yul\":24304:24723   */\n    tag_283:\n        /* \"#utility.yul\":24470:24474   */\n      0x00\n        /* \"#utility.yul\":24508:24510   */\n      0x20\n        /* \"#utility.yul\":24497:24506   */\n      dup3\n        /* \"#utility.yul\":24493:24511   */\n      add\n        /* \"#utility.yul\":24485:24511   */\n      swap1\n      pop\n        /* \"#utility.yul\":24557:24566   */\n      dup2\n        /* \"#utility.yul\":24551:24555   */\n      dup2\n        /* \"#utility.yul\":24547:24567   */\n      sub\n        /* \"#utility.yul\":24543:24544   */\n      0x00\n        /* \"#utility.yul\":24532:24541   */\n      dup4\n        /* \"#utility.yul\":24528:24545   */\n      add\n        /* \"#utility.yul\":24521:24568   */\n      mstore\n        /* \"#utility.yul\":24585:24716   */\n      tag_656\n        /* \"#utility.yul\":24711:24715   */\n      dup2\n        /* \"#utility.yul\":24585:24716   */\n      tag_422\n      jump\t// in\n    tag_656:\n        /* \"#utility.yul\":24577:24716   */\n      swap1\n      pop\n        /* \"#utility.yul\":24304:24723   */\n      swap2\n      swap1\n      pop\n      jump\t// out\n        /* \"#utility.yul\":24729:24872   */\n    tag_423:\n        /* \"#utility.yul\":24786:24791   */\n      0x00\n        /* \"#utility.yul\":24817:24823   */\n      dup2\n        /* \"#utility.yul\":24811:24824   */\n      mload\n        /* \"#utility.yul\":24802:24824   */\n      swap1\n      pop\n        /* \"#utility.yul\":24833:24866   */\n      tag_658\n        /* \"#utility.yul\":24860:24865   */\n      dup2\n        /* \"#utility.yul\":24833:24866   */\n      tag_368\n      jump\t// in\n    tag_658:\n        /* \"#utility.yul\":24729:24872   */\n      swap3\n      swap2\n      pop\n      pop\n      jump\t// out\n        /* \"#utility.yul\":24878:25229   */\n    tag_301:\n        /* \"#utility.yul\":24948:24954   */\n      0x00\n        /* \"#utility.yul\":24997:24999   */\n      0x20\n        /* \"#utility.yul\":24985:24994   */\n      dup3\n        /* \"#utility.yul\":24976:24983   */\n      dup5\n        /* \"#utility.yul\":24972:24995   */\n      sub\n        /* \"#utility.yul\":24968:25000   */\n      slt\n        /* \"#utility.yul\":24965:25084   */\n      iszero\n      tag_660\n      jumpi\n        /* \"#utility.yul\":25003:25082   */\n      tag_661\n      tag_366\n      jump\t// in\n    tag_661:\n        /* \"#utility.yul\":24965:25084   */\n    tag_660:\n        /* \"#utility.yul\":25123:25124   */\n      0x00\n        /* \"#utility.yul\":25148:25212   */\n      tag_662\n        /* \"#utility.yul\":25204:25211   */\n      dup5\n        /* \"#utility.yul\":25195:25201   */\n      dup3\n        /* \"#utility.yul\":25184:25193   */\n      dup6\n        /* \"#utility.yul\":25180:25202   */\n      add\n        /* \"#utility.yul\":25148:25212   */\n      tag_423\n      jump\t// in\n    tag_662:\n        /* \"#utility.yul\":25138:25212   */\n      swap2\n      pop\n        /* \"#utility.yul\":25094:25222   */\n      pop\n        /* \"#utility.yul\":24878:25229   */\n      swap3\n      swap2\n      pop\n      pop\n      jump\t// out\n        /* \"#utility.yul\":25235:25468   */\n    tag_313:\n        /* \"#utility.yul\":25274:25277   */\n      0x00\n        /* \"#utility.yul\":25297:25321   */\n      tag_664\n        /* \"#utility.yul\":25315:25320   */\n      dup3\n        /* \"#utility.yul\":25297:25321   */\n      tag_372\n      jump\t// in\n    tag_664:\n        /* \"#utility.yul\":25288:25321   */\n      swap2\n      pop\n        /* \"#utility.yul\":25343:25409   */\n      0xffffffffffffffffffffffffffffffffffffffffffffffffffffffffffffffff\n        /* \"#utility.yul\":25336:25341   */\n      dup3\n        /* \"#utility.yul\":25333:25410   */\n      sub\n        /* \"#utility.yul\":25330:25433   */\n      tag_665\n      jumpi\n        /* \"#utility.yul\":25413:25431   */\n      tag_666\n      tag_383\n      jump\t// in\n    tag_666:\n        /* \"#utility.yul\":25330:25433   */\n    tag_665:\n        /* \"#utility.yul\":25460:25461   */\n      0x01\n        /* \"#utility.yul\":25453:25458   */\n      dup3\n        /* \"#utility.yul\":25449:25462   */\n      add\n        /* \"#utility.yul\":25442:25462   */\n      swap1\n      pop\n        /* \"#utility.yul\":25235:25468   */\n      swap2\n      swap1\n      pop\n      jump\t// out\n        /* \"#utility.yul\":25474:25654   */\n    tag_318:\n        /* \"#utility.yul\":25522:25599   */\n      0x4e487b7100000000000000000000000000000000000000000000000000000000\n        /* \"#utility.yul\":25519:25520   */\n      0x00\n        /* \"#utility.yul\":25512:25600   */\n      mstore\n        /* \"#utility.yul\":25619:25623   */\n      0x41\n        /* \"#utility.yul\":25616:25617   */\n      0x04\n        /* \"#utility.yul\":25609:25624   */\n      mstore\n        /* \"#utility.yul\":25643:25647   */\n      0x24\n        /* \"#utility.yul\":25640:25641   */\n      0x00\n        /* \"#utility.yul\":25633:25648   */\n      revert\n        /* \"#utility.yul\":25660:25840   */\n    tag_322:\n        /* \"#utility.yul\":25708:25785   */\n      0x4e487b7100000000000000000000000000000000000000000000000000000000\n        /* \"#utility.yul\":25705:25706   */\n      0x00\n        /* \"#utility.yul\":25698:25786   */\n      mstore\n        /* \"#utility.yul\":25805:25809   */\n      0x32\n        /* \"#utility.yul\":25802:25803   */\n      0x04\n        /* \"#utility.yul\":25795:25810   */\n      mstore\n        /* \"#utility.yul\":25829:25833   */\n      0x24\n        /* \"#utility.yul\":25826:25827   */\n      0x00\n        /* \"#utility.yul\":25819:25834   */\n      revert\n        /* \"#utility.yul\":25846:25960   */\n    tag_424:\n        /* \"#utility.yul\":25913:25919   */\n      0x00\n        /* \"#utility.yul\":25947:25952   */\n      dup2\n        /* \"#utility.yul\":25941:25953   */\n      mload\n        /* \"#utility.yul\":25931:25953   */\n      swap1\n      pop\n        /* \"#utility.yul\":25846:25960   */\n      swap2\n      swap1\n      pop\n      jump\t// out\n        /* \"#utility.yul\":25966:26150   */\n    tag_425:\n        /* \"#utility.yul\":26065:26076   */\n      0x00\n        /* \"#utility.yul\":26099:26105   */\n      dup3\n        /* \"#utility.yul\":26094:26097   */\n      dup3\n        /* \"#utility.yul\":26087:26106   */\n      mstore\n        /* \"#utility.yul\":26139:26143   */\n      0x20\n        /* \"#utility.yul\":26134:26137   */\n      dup3\n        /* \"#utility.yul\":26130:26144   */\n      add\n        /* \"#utility.yul\":26115:26144   */\n      swap1\n      pop\n        /* \"#utility.yul\":25966:26150   */\n      swap3\n      swap2\n      pop\n      pop\n      jump\t// out\n        /* \"#utility.yul\":26156:26288   */\n    tag_426:\n        /* \"#utility.yul\":26223:26227   */\n      0x00\n        /* \"#utility.yul\":26246:26249   */\n      dup2\n        /* \"#utility.yul\":26238:26249   */\n      swap1\n      pop\n        /* \"#utility.yul\":26276:26280   */\n      0x20\n        /* \"#utility.yul\":26271:26274   */\n      dup3\n        /* \"#utility.yul\":26267:26281   */\n      add\n        /* \"#utility.yul\":26259:26281   */\n      swap1\n      pop\n        /* \"#utility.yul\":26156:26288   */\n      swap2\n      swap1\n      pop\n      jump\t// out\n        /* \"#utility.yul\":26294:26402   */\n    tag_427:\n        /* \"#utility.yul\":26371:26395   */\n      tag_673\n        /* \"#utility.yul\":26389:26394   */\n      dup2\n        /* \"#utility.yul\":26371:26395   */\n      tag_363\n      jump\t// in\n    tag_673:\n        /* \"#utility.yul\":26366:26369   */\n      dup3\n        /* \"#utility.yul\":26359:26396   */\n      mstore\n        /* \"#utility.yul\":26294:26402   */\n      pop\n      pop\n      jump\t// out\n        /* \"#utility.yul\":26408:26587   */\n    tag_428:\n        /* \"#utility.yul\":26477:26487   */\n      0x00\n        /* \"#utility.yul\":26498:26544   */\n      tag_675\n        /* \"#utility.yul\":26540:26543   */\n      dup4\n        /* \"#utility.yul\":26532:26538   */\n      dup4\n        /* \"#utility.yul\":26498:26544   */\n      tag_427\n      jump\t// in\n    tag_675:\n        /* \"#utility.yul\":26576:26580   */\n      0x20\n        /* \"#utility.yul\":26571:26574   */\n      dup4\n        /* \"#utility.yul\":26567:26581   */\n      add\n        /* \"#utility.yul\":26553:26581   */\n      swap1\n      pop\n        /* \"#utility.yul\":26408:26587   */\n      swap3\n      swap2\n      pop\n      pop\n      jump\t// out\n        /* \"#utility.yul\":26593:26706   */\n    tag_429:\n        /* \"#utility.yul\":26663:26667   */\n      0x00\n        /* \"#utility.yul\":26695:26699   */\n      0x20\n        /* \"#utility.yul\":26690:26693   */\n      dup3\n        /* \"#utility.yul\":26686:26700   */\n      add\n        /* \"#utility.yul\":26678:26700   */\n      swap1\n      pop\n        /* \"#utility.yul\":26593:26706   */\n      swap2\n      swap1\n      pop\n      jump\t// out\n        /* \"#utility.yul\":26742:27474   */\n    tag_430:\n        /* \"#utility.yul\":26861:26864   */\n      0x00\n        /* \"#utility.yul\":26890:26944   */\n      tag_678\n        /* \"#utility.yul\":26938:26943   */\n      dup3\n        /* \"#utility.yul\":26890:26944   */\n      tag_424\n      jump\t// in\n    tag_678:\n        /* \"#utility.yul\":26960:27046   */\n      tag_679\n        /* \"#utility.yul\":27039:27045   */\n      dup2\n        /* \"#utility.yul\":27034:27037   */\n      dup6\n        /* \"#utility.yul\":26960:27046   */\n      tag_425\n      jump\t// in\n    tag_679:\n        /* \"#utility.yul\":26953:27046   */\n      swap4\n      pop\n        /* \"#utility.yul\":27070:27126   */\n      tag_680\n        /* \"#utility.yul\":27120:27125   */\n      dup4\n        /* \"#utility.yul\":27070:27126   */\n      tag_426\n      jump\t// in\n    tag_680:\n        /* \"#utility.yul\":27149:27156   */\n      dup1\n        /* \"#utility.yul\":27180:27181   */\n      0x00\n        /* \"#utility.yul\":27165:27449   */\n    tag_681:\n        /* \"#utility.yul\":27190:27196   */\n      dup4\n        /* \"#utility.yul\":27187:27188   */\n      dup2\n        /* \"#utility.yul\":27184:27197   */\n      lt\n        /* \"#utility.yul\":27165:27449   */\n      iszero\n      tag_683\n      jumpi\n        /* \"#utility.yul\":27266:27272   */\n      dup2\n        /* \"#utility.yul\":27260:27273   */\n      mload\n        /* \"#utility.yul\":27293:27356   */\n      tag_684\n        /* \"#utility.yul\":27352:27355   */\n      dup9\n        /* \"#utility.yul\":27337:27350   */\n      dup3\n        /* \"#utility.yul\":27293:27356   */\n      tag_428\n      jump\t// in\n    tag_684:\n        /* \"#utility.yul\":27286:27356   */\n      swap8\n      pop\n        /* \"#utility.yul\":27379:27439   */\n      tag_685\n        /* \"#utility.yul\":27432:27438   */\n      dup4\n        /* \"#utility.yul\":27379:27439   */\n      tag_429\n      jump\t// in\n    tag_685:\n        /* \"#utility.yul\":27369:27439   */\n      swap3\n      pop\n        /* \"#utility.yul\":27225:27449   */\n      pop\n        /* \"#utility.yul\":27212:27213   */\n      0x01\n        /* \"#utility.yul\":27209:27210   */\n      dup2\n        /* \"#utility.yul\":27205:27214   */\n      add\n        /* \"#utility.yul\":27200:27214   */\n      swap1\n      pop\n        /* \"#utility.yul\":27165:27449   */\n      jump(tag_681)\n    tag_683:\n        /* \"#utility.yul\":27169:27183   */\n      pop\n        /* \"#utility.yul\":27465:27468   */\n      dup6\n        /* \"#utility.yul\":27458:27468   */\n      swap4\n      pop\n        /* \"#utility.yul\":26866:27474   */\n      pop\n      pop\n      pop\n        /* \"#utility.yul\":26742:27474   */\n      swap3\n      swap2\n      pop\n      pop\n      jump\t// out\n        /* \"#utility.yul\":27480:27963   */\n    tag_326:\n        /* \"#utility.yul\":27651:27655   */\n      0x00\n        /* \"#utility.yul\":27689:27691   */\n      0x40\n        /* \"#utility.yul\":27678:27687   */\n      dup3\n        /* \"#utility.yul\":27674:27692   */\n      add\n        /* \"#utility.yul\":27666:27692   */\n      swap1\n      pop\n        /* \"#utility.yul\":27702:27773   */\n      tag_687\n        /* \"#utility.yul\":27770:27771   */\n      0x00\n        /* \"#utility.yul\":27759:27768   */\n      dup4\n        /* \"#utility.yul\":27755:27772   */\n      add\n        /* \"#utility.yul\":27746:27752   */\n      dup6\n        /* \"#utility.yul\":27702:27773   */\n      tag_373\n      jump\t// in\n    tag_687:\n        /* \"#utility.yul\":27820:27829   */\n      dup2\n        /* \"#utility.yul\":27814:27818   */\n      dup2\n        /* \"#utility.yul\":27810:27830   */\n      sub\n        /* \"#utility.yul\":27805:27807   */\n      0x20\n        /* \"#utility.yul\":27794:27803   */\n      dup4\n        /* \"#utility.yul\":27790:27808   */\n      add\n        /* \"#utility.yul\":27783:27831   */\n      mstore\n        /* \"#utility.yul\":27848:27956   */\n      tag_688\n        /* \"#utility.yul\":27951:27955   */\n      dup2\n        /* \"#utility.yul\":27942:27948   */\n      dup5\n        /* \"#utility.yul\":27848:27956   */\n      tag_430\n      jump\t// in\n    tag_688:\n        /* \"#utility.yul\":27840:27956   */\n      swap1\n      pop\n        /* \"#utility.yul\":27480:27963   */\n      swap4\n      swap3\n      pop\n      pop\n      pop\n      jump\t// out\n        /* \"#utility.yul\":27969:28086   */\n    tag_431:\n        /* \"#utility.yul\":28078:28079   */\n      0x00\n        /* \"#utility.yul\":28075:28076   */\n      dup1\n        /* \"#utility.yul\":28068:28080   */\n      revert\n        /* \"#utility.yul\":28092:28194   */\n    tag_432:\n        /* \"#utility.yul\":28133:28139   */\n      0x00\n        /* \"#utility.yul\":28184:28186   */\n      0x1f\n        /* \"#utility.yul\":28180:28187   */\n      not\n        /* \"#utility.yul\":28175:28177   */\n      0x1f\n        /* \"#utility.yul\":28168:28173   */\n      dup4\n        /* \"#utility.yul\":28164:28178   */\n      add\n        /* \"#utility.yul\":28160:28188   */\n      and\n        /* \"#utility.yul\":28150:28188   */\n      swap1\n      pop\n        /* \"#utility.yul\":28092:28194   */\n      swap2\n      swap1\n      pop\n      jump\t// out\n        /* \"#utility.yul\":28200:28481   */\n    tag_433:\n        /* \"#utility.yul\":28283:28310   */\n      tag_692\n        /* \"#utility.yul\":28305:28309   */\n      dup3\n        /* \"#utility.yul\":28283:28310   */\n      tag_432\n      jump\t// in\n    tag_692:\n        /* \"#utility.yul\":28275:28281   */\n      dup2\n        /* \"#utility.yul\":28271:28311   */\n      add\n        /* \"#utility.yul\":28413:28419   */\n      dup2\n        /* \"#utility.yul\":28401:28411   */\n      dup2\n        /* \"#utility.yul\":28398:28420   */\n      lt\n        /* \"#utility.yul\":28377:28395   */\n      0xffffffffffffffff\n        /* \"#utility.yul\":28365:28375   */\n      dup3\n        /* \"#utility.yul\":28362:28396   */\n      gt\n        /* \"#utility.yul\":28359:28421   */\n      or\n        /* \"#utility.yul\":28356:28444   */\n      iszero\n      tag_693\n      jumpi\n        /* \"#utility.yul\":28424:28442   */\n      tag_694\n      tag_318\n      jump\t// in\n    tag_694:\n        /* \"#utility.yul\":28356:28444   */\n    tag_693:\n        /* \"#utility.yul\":28464:28474   */\n      dup1\n        /* \"#utility.yul\":28460:28462   */\n      0x40\n        /* \"#utility.yul\":28453:28475   */\n      mstore\n        /* \"#utility.yul\":28243:28481   */\n      pop\n        /* \"#utility.yul\":28200:28481   */\n      pop\n      pop\n      jump\t// out\n        /* \"#utility.yul\":28487:28616   */\n    tag_434:\n        /* \"#utility.yul\":28521:28527   */\n      0x00\n        /* \"#utility.yul\":28548:28568   */\n      tag_696\n      tag_365\n      jump\t// in\n    tag_696:\n        /* \"#utility.yul\":28538:28568   */\n      swap1\n      pop\n        /* \"#utility.yul\":28577:28610   */\n      tag_697\n        /* \"#utility.yul\":28605:28609   */\n      dup3\n        /* \"#utility.yul\":28597:28603   */\n      dup3\n        /* \"#utility.yul\":28577:28610   */\n      tag_433\n      jump\t// in\n    tag_697:\n        /* \"#utility.yul\":28487:28616   */\n      swap2\n      swap1\n      pop\n      jump\t// out\n        /* \"#utility.yul\":28622:28933   */\n    tag_435:\n        /* \"#utility.yul\":28699:28703   */\n      0x00\n        /* \"#utility.yul\":28789:28807   */\n      0xffffffffffffffff\n        /* \"#utility.yul\":28781:28787   */\n      dup3\n        /* \"#utility.yul\":28778:28808   */\n      gt\n        /* \"#utility.yul\":28775:28831   */\n      iszero\n      tag_699\n      jumpi\n        /* \"#utility.yul\":28811:28829   */\n      tag_700\n      tag_318\n      jump\t// in\n    tag_700:\n        /* \"#utility.yul\":28775:28831   */\n    tag_699:\n        /* \"#utility.yul\":28861:28865   */\n      0x20\n        /* \"#utility.yul\":28853:28859   */\n      dup3\n        /* \"#utility.yul\":28849:28866   */\n      mul\n        /* \"#utility.yul\":28841:28866   */\n      swap1\n      pop\n        /* \"#utility.yul\":28921:28925   */\n      0x20\n        /* \"#utility.yul\":28915:28919   */\n      dup2\n        /* \"#utility.yul\":28911:28926   */\n      add\n        /* \"#utility.yul\":28903:28926   */\n      swap1\n      pop\n        /* \"#utility.yul\":28622:28933   */\n      swap2\n      swap1\n      pop\n      jump\t// out\n        /* \"#utility.yul\":28939:29056   */\n    tag_436:\n        /* \"#utility.yul\":29048:29049   */\n      0x00\n        /* \"#utility.yul\":29045:29046   */\n      dup1\n        /* \"#utility.yul\":29038:29050   */\n      revert\n        /* \"#utility.yul\":29079:29811   */\n    tag_437:\n        /* \"#utility.yul\":29186:29191   */\n      0x00\n        /* \"#utility.yul\":29211:29292   */\n      tag_703\n        /* \"#utility.yul\":29227:29291   */\n      tag_704\n        /* \"#utility.yul\":29284:29290   */\n      dup5\n        /* \"#utility.yul\":29227:29291   */\n      tag_435\n      jump\t// in\n    tag_704:\n        /* \"#utility.yul\":29211:29292   */\n      tag_434\n      jump\t// in\n    tag_703:\n        /* \"#utility.yul\":29202:29292   */\n      swap1\n      pop\n        /* \"#utility.yul\":29312:29317   */\n      dup1\n        /* \"#utility.yul\":29341:29347   */\n      dup4\n        /* \"#utility.yul\":29334:29339   */\n      dup3\n        /* \"#utility.yul\":29327:29348   */\n      mstore\n        /* \"#utility.yul\":29375:29379   */\n      0x20\n        /* \"#utility.yul\":29368:29373   */\n      dup3\n        /* \"#utility.yul\":29364:29380   */\n      add\n        /* \"#utility.yul\":29357:29380   */\n      swap1\n      pop\n        /* \"#utility.yul\":29428:29432   */\n      0x20\n        /* \"#utility.yul\":29420:29426   */\n      dup5\n        /* \"#utility.yul\":29416:29433   */\n      mul\n        /* \"#utility.yul\":29408:29414   */\n      dup4\n        /* \"#utility.yul\":29404:29434   */\n      add\n        /* \"#utility.yul\":29457:29460   */\n      dup6\n        /* \"#utility.yul\":29449:29455   */\n      dup2\n        /* \"#utility.yul\":29446:29461   */\n      gt\n        /* \"#utility.yul\":29443:29565   */\n      iszero\n      tag_705\n      jumpi\n        /* \"#utility.yul\":29476:29555   */\n      tag_706\n      tag_436\n      jump\t// in\n    tag_706:\n        /* \"#utility.yul\":29443:29565   */\n    tag_705:\n        /* \"#utility.yul\":29591:29597   */\n      dup4\n        /* \"#utility.yul\":29574:29805   */\n    tag_707:\n        /* \"#utility.yul\":29608:29614   */\n      dup2\n        /* \"#utility.yul\":29603:29606   */\n      dup2\n        /* \"#utility.yul\":29600:29615   */\n      lt\n        /* \"#utility.yul\":29574:29805   */\n      iszero\n      tag_709\n      jumpi\n        /* \"#utility.yul\":29683:29686   */\n      dup1\n        /* \"#utility.yul\":29712:29760   */\n      tag_710\n        /* \"#utility.yul\":29756:29759   */\n      dup9\n        /* \"#utility.yul\":29744:29754   */\n      dup3\n        /* \"#utility.yul\":29712:29760   */\n      tag_382\n      jump\t// in\n    tag_710:\n        /* \"#utility.yul\":29707:29710   */\n      dup5\n        /* \"#utility.yul\":29700:29761   */\n      mstore\n        /* \"#utility.yul\":29790:29794   */\n      0x20\n        /* \"#utility.yul\":29785:29788   */\n      dup5\n        /* \"#utility.yul\":29781:29795   */\n      add\n        /* \"#utility.yul\":29774:29795   */\n      swap4\n      pop\n        /* \"#utility.yul\":29650:29805   */\n      pop\n        /* \"#utility.yul\":29634:29638   */\n      0x20\n        /* \"#utility.yul\":29629:29632   */\n      dup2\n        /* \"#utility.yul\":29625:29639   */\n      add\n        /* \"#utility.yul\":29618:29639   */\n      swap1\n      pop\n        /* \"#utility.yul\":29574:29805   */\n      jump(tag_707)\n    tag_709:\n        /* \"#utility.yul\":29578:29599   */\n      pop\n        /* \"#utility.yul\":29192:29811   */\n      pop\n      pop\n        /* \"#utility.yul\":29079:29811   */\n      swap4\n      swap3\n      pop\n      pop\n      pop\n      jump\t// out\n        /* \"#utility.yul\":29834:30219   */\n    tag_438:\n        /* \"#utility.yul\":29916:29921   */\n      0x00\n        /* \"#utility.yul\":29965:29968   */\n      dup3\n        /* \"#utility.yul\":29958:29962   */\n      0x1f\n        /* \"#utility.yul\":29950:29956   */\n      dup4\n        /* \"#utility.yul\":29946:29963   */\n      add\n        /* \"#utility.yul\":29942:29969   */\n      slt\n        /* \"#utility.yul\":29932:30054   */\n      tag_712\n      jumpi\n        /* \"#utility.yul\":29973:30052   */\n      tag_713\n      tag_431\n      jump\t// in\n    tag_713:\n        /* \"#utility.yul\":29932:30054   */\n    tag_712:\n        /* \"#utility.yul\":30083:30089   */\n      dup2\n        /* \"#utility.yul\":30077:30090   */\n      mload\n        /* \"#utility.yul\":30108:30213   */\n      tag_714\n        /* \"#utility.yul\":30209:30212   */\n      dup5\n        /* \"#utility.yul\":30201:30207   */\n      dup3\n        /* \"#utility.yul\":30194:30198   */\n      0x20\n        /* \"#utility.yul\":30186:30192   */\n      dup7\n        /* \"#utility.yul\":30182:30199   */\n      add\n        /* \"#utility.yul\":30108:30213   */\n      tag_437\n      jump\t// in\n    tag_714:\n        /* \"#utility.yul\":30099:30213   */\n      swap2\n      pop\n        /* \"#utility.yul\":29922:30219   */\n      pop\n        /* \"#utility.yul\":29834:30219   */\n      swap3\n      swap2\n      pop\n      pop\n      jump\t// out\n        /* \"#utility.yul\":30225:30779   */\n    tag_330:\n        /* \"#utility.yul\":30320:30326   */\n      0x00\n        /* \"#utility.yul\":30369:30371   */\n      0x20\n        /* \"#utility.yul\":30357:30366   */\n      dup3\n        /* \"#utility.yul\":30348:30355   */\n      dup5\n        /* \"#utility.yul\":30344:30367   */\n      sub\n        /* \"#utility.yul\":30340:30372   */\n      slt\n        /* \"#utility.yul\":30337:30456   */\n      iszero\n      tag_716\n      jumpi\n        /* \"#utility.yul\":30375:30454   */\n      tag_717\n      tag_366\n      jump\t// in\n    tag_717:\n        /* \"#utility.yul\":30337:30456   */\n    tag_716:\n        /* \"#utility.yul\":30516:30517   */\n      0x00\n        /* \"#utility.yul\":30505:30514   */\n      dup3\n        /* \"#utility.yul\":30501:30518   */\n      add\n        /* \"#utility.yul\":30495:30519   */\n      mload\n        /* \"#utility.yul\":30546:30564   */\n      0xffffffffffffffff\n        /* \"#utility.yul\":30538:30544   */\n      dup2\n        /* \"#utility.yul\":30535:30565   */\n      gt\n        /* \"#utility.yul\":30532:30649   */\n      iszero\n      tag_718\n      jumpi\n        /* \"#utility.yul\":30568:30647   */\n      tag_719\n      tag_367\n      jump\t// in\n    tag_719:\n        /* \"#utility.yul\":30532:30649   */\n    tag_718:\n        /* \"#utility.yul\":30673:30762   */\n      tag_720\n        /* \"#utility.yul\":30754:30761   */\n      dup5\n        /* \"#utility.yul\":30745:30751   */\n      dup3\n        /* \"#utility.yul\":30734:30743   */\n      dup6\n        /* \"#utility.yul\":30730:30752   */\n      add\n        /* \"#utility.yul\":30673:30762   */\n      tag_438\n      jump\t// in\n    tag_720:\n        /* \"#utility.yul\":30663:30762   */\n      swap2\n      pop\n        /* \"#utility.yul\":30466:30772   */\n      pop\n        /* \"#utility.yul\":30225:30779   */\n      swap3\n      swap2\n      pop\n      pop\n      jump\t// out\n        /* \"#utility.yul\":30785:31600   */\n    tag_341:\n        /* \"#utility.yul\":31040:31044   */\n      0x00\n        /* \"#utility.yul\":31078:31081   */\n      0xa0\n        /* \"#utility.yul\":31067:31076   */\n      dup3\n        /* \"#utility.yul\":31063:31082   */\n      add\n        /* \"#utility.yul\":31055:31082   */\n      swap1\n      pop\n        /* \"#utility.yul\":31092:31163   */\n      tag_722\n        /* \"#utility.yul\":31160:31161   */\n      0x00\n        /* \"#utility.yul\":31149:31158   */\n      dup4\n        /* \"#utility.yul\":31145:31162   */\n      add\n        /* \"#utility.yul\":31136:31142   */\n      dup9\n        /* \"#utility.yul\":31092:31163   */\n      tag_373\n      jump\t// in\n    tag_722:\n        /* \"#utility.yul\":31173:31245   */\n      tag_723\n        /* \"#utility.yul\":31241:31243   */\n      0x20\n        /* \"#utility.yul\":31230:31239   */\n      dup4\n        /* \"#utility.yul\":31226:31244   */\n      add\n        /* \"#utility.yul\":31217:31223   */\n      dup8\n        /* \"#utility.yul\":31173:31245   */\n      tag_373\n      jump\t// in\n    tag_723:\n        /* \"#utility.yul\":31292:31301   */\n      dup2\n        /* \"#utility.yul\":31286:31290   */\n      dup2\n        /* \"#utility.yul\":31282:31302   */\n      sub\n        /* \"#utility.yul\":31277:31279   */\n      0x40\n        /* \"#utility.yul\":31266:31275   */\n      dup4\n        /* \"#utility.yul\":31262:31280   */\n      add\n        /* \"#utility.yul\":31255:31303   */\n      mstore\n        /* \"#utility.yul\":31320:31428   */\n      tag_724\n        /* \"#utility.yul\":31423:31427   */\n      dup2\n        /* \"#utility.yul\":31414:31420   */\n      dup7\n        /* \"#utility.yul\":31320:31428   */\n      tag_430\n      jump\t// in\n    tag_724:\n        /* \"#utility.yul\":31312:31428   */\n      swap1\n      pop\n        /* \"#utility.yul\":31438:31510   */\n      tag_725\n        /* \"#utility.yul\":31506:31508   */\n      0x60\n        /* \"#utility.yul\":31495:31504   */\n      dup4\n        /* \"#utility.yul\":31491:31509   */\n      add\n        /* \"#utility.yul\":31482:31488   */\n      dup6\n        /* \"#utility.yul\":31438:31510   */\n      tag_364\n      jump\t// in\n    tag_725:\n        /* \"#utility.yul\":31520:31593   */\n      tag_726\n        /* \"#utility.yul\":31588:31591   */\n      0x80\n        /* \"#utility.yul\":31577:31586   */\n      dup4\n        /* \"#utility.yul\":31573:31592   */\n      add\n        /* \"#utility.yul\":31564:31570   */\n      dup5\n        /* \"#utility.yul\":31520:31593   */\n      tag_373\n      jump\t// in\n    tag_726:\n        /* \"#utility.yul\":30785:31600   */\n      swap7\n      swap6\n      pop\n      pop\n      pop\n      pop\n      pop\n      pop\n      jump\t// out\n\n    auxdata: 0xa2646970667358221220caba30ae1f4dbacb1dda2dcd871d8afa50749df5fe5e9103a25687db8c0bec2964736f6c63430008140033\n}\n",
				"bytecode": {
					"linkReferences": {},
					"object": "610120604052600073ffffffffffffffffffffffffffffffffffffffff1660e09073ffffffffffffffffffffffffffffffffffffffff168152503480156200004657600080fd5b50604051620031023803806200310283398181016040528101906200006c9190620003aa565b826001600081905550600073ffffffffffffffffffffffffffffffffffffffff168173ffffffffffffffffffffffffffffffffffffffff1603620000ea5760006040517f1e4fbdf7000000000000000000000000000000000000000000000000000000008152600401620000e1919062000457565b60405180910390fd5b620000fb816200023560201b60201c565b5085600260006101000a81548173ffffffffffffffffffffffffffffffffffffffff021916908373ffffffffffffffffffffffffffffffffffffffff1602179055508473ffffffffffffffffffffffffffffffffffffffff1660a08173ffffffffffffffffffffffffffffffffffffffff16815250508373ffffffffffffffffffffffffffffffffffffffff1660c08173ffffffffffffffffffffffffffffffffffffffff16815250508173ffffffffffffffffffffffffffffffffffffffff1660808173ffffffffffffffffffffffffffffffffffffffff16815250506001600660006101000a81548160ff0219169083151502179055508073ffffffffffffffffffffffffffffffffffffffff166101008173ffffffffffffffffffffffffffffffffffffffff168152505050505050505062000474565b6000600160009054906101000a900473ffffffffffffffffffffffffffffffffffffffff16905081600160006101000a81548173ffffffffffffffffffffffffffffffffffffffff021916908373ffffffffffffffffffffffffffffffffffffffff1602179055508173ffffffffffffffffffffffffffffffffffffffff168173ffffffffffffffffffffffffffffffffffffffff167f8be0079c531659141344cd1fd0a4f28419497f9722a3daafe3b4186f6b6457e060405160405180910390a35050565b600080fd5b600073ffffffffffffffffffffffffffffffffffffffff82169050919050565b60006200032d8262000300565b9050919050565b6200033f8162000320565b81146200034b57600080fd5b50565b6000815190506200035f8162000334565b92915050565b6000620003728262000300565b9050919050565b620003848162000365565b81146200039057600080fd5b50565b600081519050620003a48162000379565b92915050565b60008060008060008060c08789031215620003ca57620003c9620002fb565b5b6000620003da89828a016200034e565b9650506020620003ed89828a016200034e565b95505060406200040089828a016200034e565b94505060606200041389828a016200034e565b93505060806200042689828a0162000393565b92505060a06200043989828a016200034e565b9150509295509295509295565b620004518162000320565b82525050565b60006020820190506200046e600083018462000446565b92915050565b60805160a05160c05160e05161010051612bee6200051460003960008181610d8e01526114b40152600081816114630152611967015260008181610135015281816101940152818161054b015281816105cf0152818161098e01528181610ef701528181611127015281816115800152818161169b015261185f0152600081816107a4015261170a01526000818161096a01526111c00152612bee6000f3fe60806040526004361061012e5760003560e01c80637581aa60116100ab578063b37fd1901161006f578063b37fd1901461047e578063c36554ce146104a7578063dc05a309146104be578063dc1a4d9e146104d5578063f2fde38b146104ec578063fccc28131461051557610192565b80637581aa60146103ab5780638465093e146103d65780638da5cb5b146103ff578063a0558c3f1461042a578063b2b22d5f1461045357610192565b806362ab05e7116100f257806362ab05e7146102ea57806366650b7b146103155780636cdf0e4014610340578063715018a6146103695780637499aff41461038057610192565b80630c2b72e9146101f1578063138b73381461021c578063210009cf146102595780633f0c188f146102825780635301fa6f146102bf57610192565b36610192577f000000000000000000000000000000000000000000000000000000000000000073ffffffffffffffffffffffffffffffffffffffff163373ffffffffffffffffffffffffffffffffffffffff16146101905761018f34610540565b5b005b7f000000000000000000000000000000000000000000000000000000000000000073ffffffffffffffffffffffffffffffffffffffff163373ffffffffffffffffffffffffffffffffffffffff16146101ef576101ee34610540565b5b005b3480156101fd57600080fd5b506102066107a2565b6040516102139190611c62565b60405180910390f35b34801561022857600080fd5b50610243600480360381019061023e9190611cbd565b6107c6565b6040516102509190611d05565b60405180910390f35b34801561026557600080fd5b50610280600480360381019061027b9190611cbd565b61081c565b005b34801561028e57600080fd5b506102a960048036038101906102a49190611cbd565b610942565b6040516102b69190611d05565b60405180910390f35b3480156102cb57600080fd5b506102d4610962565b6040516102e19190611d39565b60405180910390f35b3480156102f657600080fd5b506102ff610968565b60405161030c9190611d75565b60405180910390f35b34801561032157600080fd5b5061032a61098c565b6040516103379190611c62565b60405180910390f35b34801561034c57600080fd5b5061036760048036038101906103629190611dbc565b6109b0565b005b34801561037557600080fd5b5061037e6109e5565b005b34801561038c57600080fd5b506103956109f9565b6040516103a29190611d39565b60405180910390f35b3480156103b757600080fd5b506103c06109ff565b6040516103cd9190611d05565b60405180910390f35b3480156103e257600080fd5b506103fd60048036038101906103f89190611cbd565b610a12565b005b34801561040b57600080fd5b50610414610ba8565b6040516104219190611c62565b60405180910390f35b34801561043657600080fd5b50610451600480360381019061044c9190611e41565b610bd2565b005b34801561045f57600080fd5b50610468610d8c565b6040516104759190611c62565b60405180910390f35b34801561048a57600080fd5b506104a560048036038101906104a09190611e81565b610db0565b005b3480156104b357600080fd5b506104bc6110fb565b005b3480156104ca57600080fd5b506104d361129f565b005b3480156104e157600080fd5b506104ea611374565b005b3480156104f857600080fd5b50610513600480360381019061050e9190611cbd565b6113db565b005b34801561052157600080fd5b5061052a611461565b6040516105379190611c62565b60405180910390f35b60008111156105cb577f000000000000000000000000000000000000000000000000000000000000000073ffffffffffffffffffffffffffffffffffffffff1663d0e30db0826040518263ffffffff1660e01b81526004016000604051808303818588803b1580156105b157600080fd5b505af11580156105c5573d6000803e3d6000fd5b50505050505b60007f000000000000000000000000000000000000000000000000000000000000000073ffffffffffffffffffffffffffffffffffffffff166370a08231306040518263ffffffff1660e01b81526004016106269190611c62565b602060405180830381865afa158015610643573d6000803e3d6000fd5b505050506040513d601f19601f820116820180604052508101906106679190611ee9565b9050600060055460045461067b9190611f45565b9050808210156106c0576040517f08c379a00000000000000000000000000000000000000000000000000000000081526004016106b790611fd6565b60405180910390fd5b600081836106ce9190611ff6565b9050600081111561079c57600060646032836106ea919061202a565b6106f4919061209b565b9050600081836107049190611ff6565b905081600460008282546107189190611f45565b9250508190555080600560008282546107319190611f45565b925050819055507fa72767c83a84be51143fa5ae1e4e5ede2e15c027e1879e7edf0d523b0723c58d83838360405161076b939291906120cc565b60405180910390a161077b611485565b600660009054906101000a900460ff161561079957610798611640565b5b50505b50505050565b7f000000000000000000000000000000000000000000000000000000000000000081565b6000600360008373ffffffffffffffffffffffffffffffffffffffff1673ffffffffffffffffffffffffffffffffffffffff16815260200190815260200160002060009054906101000a900460ff169050919050565b610824611a7c565b600360008273ffffffffffffffffffffffffffffffffffffffff1673ffffffffffffffffffffffffffffffffffffffff16815260200190815260200160002060009054906101000a900460ff166108b0576040517f08c379a00000000000000000000000000000000000000000000000000000000081526004016108a79061214f565b60405180910390fd5b6000600360008373ffffffffffffffffffffffffffffffffffffffff1673ffffffffffffffffffffffffffffffffffffffff16815260200190815260200160002060006101000a81548160ff0219169083151502179055507fd9ea38e99b87231f31b9da68de3c78d56418e10e2e64d338c9f438ab75681ebc816040516109379190611c62565b60405180910390a150565b60036020528060005260406000206000915054906101000a900460ff1681565b60055481565b7f000000000000000000000000000000000000000000000000000000000000000081565b7f000000000000000000000000000000000000000000000000000000000000000081565b6109b8611a7c565b6109c0611b03565b80600660006101000a81548160ff0219169083151502179055506109e2611b49565b50565b6109ed611a7c565b6109f76000611b53565b565b60045481565b600660009054906101000a900460ff1681565b610a1a611a7c565b600073ffffffffffffffffffffffffffffffffffffffff168173ffffffffffffffffffffffffffffffffffffffff1603610a89576040517f08c379a0000000000000000000000000000000000000000000000000000000008152600401610a80906121bb565b60405180910390fd5b600360008273ffffffffffffffffffffffffffffffffffffffff1673ffffffffffffffffffffffffffffffffffffffff16815260200190815260200160002060009054906101000a900460ff1615610b16576040517f08c379a0000000000000000000000000000000000000000000000000000000008152600401610b0d90612227565b60405180910390fd5b6001600360008373ffffffffffffffffffffffffffffffffffffffff1673ffffffffffffffffffffffffffffffffffffffff16815260200190815260200160002060006101000a81548160ff0219169083151502179055507f797c25843e35d46f4254028734c97d60f3f93aaccc1dd994dd6b90683fdb248681604051610b9d9190611c62565b60405180910390a150565b6000600160009054906101000a900473ffffffffffffffffffffffffffffffffffffffff16905090565b610bda611a7c565b610be2611b03565b600073ffffffffffffffffffffffffffffffffffffffff168173ffffffffffffffffffffffffffffffffffffffff1603610c51576040517f08c379a0000000000000000000000000000000000000000000000000000000008152600401610c4890612293565b60405180910390fd5b600047905080831115610c99576040517f08c379a0000000000000000000000000000000000000000000000000000000008152600401610c90906122ff565b60405180910390fd5b60008273ffffffffffffffffffffffffffffffffffffffff1684604051610cbf90612350565b60006040518083038185875af1925050503d8060008114610cfc576040519150601f19603f3d011682016040523d82523d6000602084013e610d01565b606091505b5050905080610d45576040517f08c379a0000000000000000000000000000000000000000000000000000000008152600401610d3c906123b1565b60405180910390fd5b7fcd7fef3a642dcf99ce1004b2a15d31e91398f01974500b64eab8fc50fef2d3b18484604051610d76929190612430565b60405180910390a15050610d88611b49565b5050565b7f000000000000000000000000000000000000000000000000000000000000000081565b610db8611a7c565b610dc0611b03565b600073ffffffffffffffffffffffffffffffffffffffff168173ffffffffffffffffffffffffffffffffffffffff1603610e2f576040517f08c379a0000000000000000000000000000000000000000000000000000000008152600401610e2690612293565b60405180910390fd5b600083905060008173ffffffffffffffffffffffffffffffffffffffff166370a08231306040518263ffffffff1660e01b8152600401610e6f9190611c62565b602060405180830381865afa158015610e8c573d6000803e3d6000fd5b505050506040513d601f19601f82011682018060405250810190610eb09190611ee9565b905080841115610ef5576040517f08c379a0000000000000000000000000000000000000000000000000000000008152600401610eec906124a5565b60405180910390fd5b7f000000000000000000000000000000000000000000000000000000000000000073ffffffffffffffffffffffffffffffffffffffff168573ffffffffffffffffffffffffffffffffffffffff1603610fee576000600554600454610f5a9190611f45565b9050808211610f9e576040517f08c379a0000000000000000000000000000000000000000000000000000000008152600401610f9590612511565b60405180910390fd5b8082610faa9190611ff6565b851115610fec576040517f08c379a0000000000000000000000000000000000000000000000000000000008152600401610fe39061257d565b60405180910390fd5b505b60008273ffffffffffffffffffffffffffffffffffffffff1663a9059cbb85876040518363ffffffff1660e01b815260040161102b92919061259d565b6020604051808303816000875af115801561104a573d6000803e3d6000fd5b505050506040513d601f19601f8201168201806040525081019061106e91906125db565b9050806110b0576040517f08c379a00000000000000000000000000000000000000000000000000000000081526004016110a790612654565b60405180910390fd5b7ffb475a842bad10d3800b61bd1a92e716051afba979b124b583bd99a2d1d7bfd58686866040516110e393929190612674565b60405180910390a15050506110f6611b49565b505050565b611103611a7c565b61110b611b03565b6111156000610540565b6000600454905060008111156111b1577f000000000000000000000000000000000000000000000000000000000000000073ffffffffffffffffffffffffffffffffffffffff16632e1a7d4d826040518263ffffffff1660e01b815260040161117e9190611d39565b600060405180830381600087803b15801561119857600080fd5b505af11580156111ac573d6000803e3d6000fd5b505050505b600060045411156112945760007f000000000000000000000000000000000000000000000000000000000000000073ffffffffffffffffffffffffffffffffffffffff1660045460405161120490612350565b60006040518083038185875af1925050503d8060008114611241576040519150601f19603f3d011682016040523d82523d6000602084013e611246565b606091505b505090508061128a576040517f08c379a0000000000000000000000000000000000000000000000000000000008152600401611281906126f7565b60405180910390fd5b6000600481905550505b5061129d611b49565b565b6112a7610ba8565b73ffffffffffffffffffffffffffffffffffffffff163373ffffffffffffffffffffffffffffffffffffffff1614806113295750600360003373ffffffffffffffffffffffffffffffffffffffff1673ffffffffffffffffffffffffffffffffffffffff16815260200190815260200160002060009054906101000a900460ff165b611368576040517f08c379a000000000000000000000000000000000000000000000000000000000815260040161135f90612789565b60405180910390fd5b6113726000610540565b565b61137c611a7c565b611384611b03565b6000600454116113c9576040517f08c379a00000000000000000000000000000000000000000000000000000000081526004016113c0906127f5565b60405180910390fd5b6113d1611640565b6113d9611b49565b565b6113e3611a7c565b600073ffffffffffffffffffffffffffffffffffffffff168173ffffffffffffffffffffffffffffffffffffffff16036114555760006040517f1e4fbdf700000000000000000000000000000000000000000000000000000000815260040161144c9190611c62565b60405180910390fd5b61145e81611b53565b50565b7f000000000000000000000000000000000000000000000000000000000000000081565b6000600554031561163e57600060096005546114a1919061209b565b90506000600190505b60098111611633577f000000000000000000000000000000000000000000000000000000000000000073ffffffffffffffffffffffffffffffffffffffff16636352211e826040518263ffffffff1660e01b815260040161150b9190611d39565b602060405180830381865afa92505050801561154557506040513d601f19601f82011682018060405250810190611542919061282a565b60015b1561162057600073ffffffffffffffffffffffffffffffffffffffff168173ffffffffffffffffffffffffffffffffffffffff161461161e577f000000000000000000000000000000000000000000000000000000000000000073ffffffffffffffffffffffffffffffffffffffff1663a9059cbb82856040518363ffffffff1660e01b81526004016115d992919061259d565b6020604051808303816000875af11580156115f8573d6000803e3d6000fd5b505050506040513d601f19601f8201168201806040525081019061161c91906125db565b505b505b808061162b90612857565b9150506114aa565b506000600581905550505b565b60006004541115611a7a576000600267ffffffffffffffff8111156116685761166761289f565b5b6040519080825280602002602001820160405280156116965781602001602082028036833780820191505090505b5090507f0000000000000000000000000000000000000000000000000000000000000000816000815181106116ce576116cd6128ce565b5b602002602001019073ffffffffffffffffffffffffffffffffffffffff16908173ffffffffffffffffffffffffffffffffffffffff16815250507f00000000000000000000000000000000000000000000000000000000000000008160018151811061173d5761173c6128ce565b5b602002602001019073ffffffffffffffffffffffffffffffffffffffff16908173ffffffffffffffffffffffffffffffffffffffff16815250506000600260009054906101000a900473ffffffffffffffffffffffffffffffffffffffff1673ffffffffffffffffffffffffffffffffffffffff1663d06ca61f600454846040518363ffffffff1660e01b81526004016117d89291906129bb565b600060405180830381865afa1580156117f5573d6000803e3d6000fd5b505050506040513d6000823e3d601f19601f8201168201806040525081019061181e9190612b15565b9050600081600181518110611836576118356128ce565b5b6020026020010151905060006064605083611851919061202a565b61185b919061209b565b90507f000000000000000000000000000000000000000000000000000000000000000073ffffffffffffffffffffffffffffffffffffffff1663095ea7b3600260009054906101000a900473ffffffffffffffffffffffffffffffffffffffff166004546040518363ffffffff1660e01b81526004016118dc92919061259d565b6020604051808303816000875af11580156118fb573d6000803e3d6000fd5b505050506040513d601f19601f8201168201806040525081019061191f91906125db565b506000600260009054906101000a900473ffffffffffffffffffffffffffffffffffffffff1673ffffffffffffffffffffffffffffffffffffffff166338ed173960045484887f000000000000000000000000000000000000000000000000000000000000000061012c426119949190611f45565b6040518663ffffffff1660e01b81526004016119b4959493929190612b5e565b6000604051808303816000875af11580156119d3573d6000803e3d6000fd5b505050506040513d6000823e3d601f19601f820116820180604052508101906119fc9190612b15565b905060008160018351611a0f9190611ff6565b81518110611a2057611a1f6128ce565b5b6020026020010151905060006004819055506000811115611a73577fcb42363dcc1840222268fe43eebc976f3e311a14761e5396eb394ebdac90a58281604051611a6a9190611d39565b60405180910390a15b5050505050505b565b611a84611c19565b73ffffffffffffffffffffffffffffffffffffffff16611aa2610ba8565b73ffffffffffffffffffffffffffffffffffffffff1614611b0157611ac5611c19565b6040517f118cdaa7000000000000000000000000000000000000000000000000000000008152600401611af89190611c62565b60405180910390fd5b565b600260005403611b3f576040517f3ee5aeb500000000000000000000000000000000000000000000000000000000815260040160405180910390fd5b6002600081905550565b6001600081905550565b6000600160009054906101000a900473ffffffffffffffffffffffffffffffffffffffff16905081600160006101000a81548173ffffffffffffffffffffffffffffffffffffffff021916908373ffffffffffffffffffffffffffffffffffffffff1602179055508173ffffffffffffffffffffffffffffffffffffffff168173ffffffffffffffffffffffffffffffffffffffff167f8be0079c531659141344cd1fd0a4f28419497f9722a3daafe3b4186f6b6457e060405160405180910390a35050565b600033905090565b600073ffffffffffffffffffffffffffffffffffffffff82169050919050565b6000611c4c82611c21565b9050919050565b611c5c81611c41565b82525050565b6000602082019050611c776000830184611c53565b92915050565b6000604051905090565b600080fd5b600080fd5b611c9a81611c41565b8114611ca557600080fd5b50565b600081359050611cb781611c91565b92915050565b600060208284031215611cd357611cd2611c87565b5b6000611ce184828501611ca8565b91505092915050565b60008115159050919050565b611cff81611cea565b82525050565b6000602082019050611d1a6000830184611cf6565b92915050565b6000819050919050565b611d3381611d20565b82525050565b6000602082019050611d4e6000830184611d2a565b92915050565b6000611d5f82611c21565b9050919050565b611d6f81611d54565b82525050565b6000602082019050611d8a6000830184611d66565b92915050565b611d9981611cea565b8114611da457600080fd5b50565b600081359050611db681611d90565b92915050565b600060208284031215611dd257611dd1611c87565b5b6000611de084828501611da7565b91505092915050565b611df281611d20565b8114611dfd57600080fd5b50565b600081359050611e0f81611de9565b92915050565b611e1e81611d54565b8114611e2957600080fd5b50565b600081359050611e3b81611e15565b92915050565b60008060408385031215611e5857611e57611c87565b5b6000611e6685828601611e00565b9250506020611e7785828601611e2c565b9150509250929050565b600080600060608486031215611e9a57611e99611c87565b5b6000611ea886828701611ca8565b9350506020611eb986828701611e00565b9250506040611eca86828701611ca8565b9150509250925092565b600081519050611ee381611de9565b92915050565b600060208284031215611eff57611efe611c87565b5b6000611f0d84828501611ed4565b91505092915050565b7f4e487b7100000000000000000000000000000000000000000000000000000000600052601160045260246000fd5b6000611f5082611d20565b9150611f5b83611d20565b9250828201905080821115611f7357611f72611f16565b5b92915050565b600082825260208201905092915050565b7f42616c616e6365206572726f7200000000000000000000000000000000000000600082015250565b6000611fc0600d83611f79565b9150611fcb82611f8a565b602082019050919050565b60006020820190508181036000830152611fef81611fb3565b9050919050565b600061200182611d20565b915061200c83611d20565b925082820390508181111561202457612023611f16565b5b92915050565b600061203582611d20565b915061204083611d20565b925082820261204e81611d20565b9150828204841483151761206557612064611f16565b5b5092915050565b7f4e487b7100000000000000000000000000000000000000000000000000000000600052601260045260246000fd5b60006120a682611d20565b91506120b183611d20565b9250826120c1576120c061206c565b5b828204905092915050565b60006060820190506120e16000830186611d2a565b6120ee6020830185611d2a565b6120fb6040830184611d2a565b949350505050565b7f4e6f742077686974656c69737465640000000000000000000000000000000000600082015250565b6000612139600f83611f79565b915061214482612103565b602082019050919050565b600060208201905081810360008301526121688161212c565b9050919050565b7f496e76616c6964204e465420636f6e7472616374206164647265737300000000600082015250565b60006121a5601c83611f79565b91506121b08261216f565b602082019050919050565b600060208201905081810360008301526121d481612198565b9050919050565b7f416c72656164792077686974656c697374656400000000000000000000000000600082015250565b6000612211601383611f79565b915061221c826121db565b602082019050919050565b6000602082019050818103600083015261224081612204565b9050919050565b7f496e76616c696420726563697069656e74000000000000000000000000000000600082015250565b600061227d601183611f79565b915061228882612247565b602082019050919050565b600060208201905081810360008301526122ac81612270565b9050919050565b7f4e6f7420656e6f75676820455448000000000000000000000000000000000000600082015250565b60006122e9600e83611f79565b91506122f4826122b3565b602082019050919050565b60006020820190508181036000830152612318816122dc565b9050919050565b600081905092915050565b50565b600061233a60008361231f565b91506123458261232a565b600082019050919050565b600061235b8261232d565b9150819050919050565b7f455448207472616e73666572206661696c656400000000000000000000000000600082015250565b600061239b601383611f79565b91506123a682612365565b602082019050919050565b600060208201905081810360008301526123ca8161238e565b9050919050565b6000819050919050565b60006123f66123f16123ec84611c21565b6123d1565b611c21565b9050919050565b6000612408826123db565b9050919050565b600061241a826123fd565b9050919050565b61242a8161240f565b82525050565b60006040820190506124456000830185611d2a565b6124526020830184612421565b9392505050565b7f4e6f7420656e6f75676820746f6b656e2062616c616e63650000000000000000600082015250565b600061248f601883611f79565b915061249a82612459565b602082019050919050565b600060208201905081810360008301526124be81612482565b9050919050565b7f4e6f20657863657373205745544e20746f207265736375650000000000000000600082015250565b60006124fb601883611f79565b9150612506826124c5565b602082019050919050565b6000602082019050818103600083015261252a816124ee565b9050919050565b7f416d6f756e74206578636565647320657863657373205745544e000000000000600082015250565b6000612567601a83611f79565b915061257282612531565b602082019050919050565b600060208201905081810360008301526125968161255a565b9050919050565b60006040820190506125b26000830185611c53565b6125bf6020830184611d2a565b9392505050565b6000815190506125d581611d90565b92915050565b6000602082840312156125f1576125f0611c87565b5b60006125ff848285016125c6565b91505092915050565b7f546f6b656e207472616e73666572206661696c65640000000000000000000000600082015250565b600061263e601583611f79565b915061264982612608565b602082019050919050565b6000602082019050818103600083015261266d81612631565b9050919050565b60006060820190506126896000830186611c53565b6126966020830185611d2a565b6126a36040830184611c53565b949350505050565b7f436f72652077616c6c6574207472616e73666572206661696c65640000000000600082015250565b60006126e1601b83611f79565b91506126ec826126ab565b602082019050919050565b60006020820190508181036000830152612710816126d4565b9050919050565b7f556e617574686f72697a65643a204f6e6c79206f776e6572206f72207768697460008201527f656c6973746564204e4654000000000000000000000000000000000000000000602082015250565b6000612773602b83611f79565b915061277e82612717565b604082019050919050565b600060208201905081810360008301526127a281612766565b9050919050565b7f4e6f20636f72652062616c616e636520746f206275726e000000000000000000600082015250565b60006127df601783611f79565b91506127ea826127a9565b602082019050919050565b6000602082019050818103600083015261280e816127d2565b9050919050565b60008151905061282481611c91565b92915050565b6000602082840312156128405761283f611c87565b5b600061284e84828501612815565b91505092915050565b600061286282611d20565b91507fffffffffffffffffffffffffffffffffffffffffffffffffffffffffffffffff820361289457612893611f16565b5b600182019050919050565b7f4e487b7100000000000000000000000000000000000000000000000000000000600052604160045260246000fd5b7f4e487b7100000000000000000000000000000000000000000000000000000000600052603260045260246000fd5b600081519050919050565b600082825260208201905092915050565b6000819050602082019050919050565b61293281611c41565b82525050565b60006129448383612929565b60208301905092915050565b6000602082019050919050565b6000612968826128fd565b6129728185612908565b935061297d83612919565b8060005b838110156129ae5781516129958882612938565b97506129a083612950565b925050600181019050612981565b5085935050505092915050565b60006040820190506129d06000830185611d2a565b81810360208301526129e2818461295d565b90509392505050565b600080fd5b6000601f19601f8301169050919050565b612a0a826129f0565b810181811067ffffffffffffffff82111715612a2957612a2861289f565b5b80604052505050565b6000612a3c611c7d565b9050612a488282612a01565b919050565b600067ffffffffffffffff821115612a6857612a6761289f565b5b602082029050602081019050919050565b600080fd5b6000612a91612a8c84612a4d565b612a32565b90508083825260208201905060208402830185811115612ab457612ab3612a79565b5b835b81811015612add5780612ac98882611ed4565b845260208401935050602081019050612ab6565b5050509392505050565b600082601f830112612afc57612afb6129eb565b5b8151612b0c848260208601612a7e565b91505092915050565b600060208284031215612b2b57612b2a611c87565b5b600082015167ffffffffffffffff811115612b4957612b48611c8c565b5b612b5584828501612ae7565b91505092915050565b600060a082019050612b736000830188611d2a565b612b806020830187611d2a565b8181036040830152612b92818661295d565b9050612ba16060830185611c53565b612bae6080830184611d2a565b969550505050505056fea2646970667358221220caba30ae1f4dbacb1dda2dcd871d8afa50749df5fe5e9103a25687db8c0bec2964736f6c63430008140033",
					"opcodes": "PUSH2 0x120 PUSH1 0x40 MSTORE PUSH1 0x0 PUSH20 0xFFFFFFFFFFFFFFFFFFFFFFFFFFFFFFFFFFFFFFFF AND PUSH1 0xE0 SWAP1 PUSH20 0xFFFFFFFFFFFFFFFFFFFFFFFFFFFFFFFFFFFFFFFF AND DUP2 MSTORE POP CALLVALUE DUP1 ISZERO PUSH3 0x46 JUMPI PUSH1 0x0 DUP1 REVERT JUMPDEST POP PUSH1 0x40 MLOAD PUSH3 0x3102 CODESIZE SUB DUP1 PUSH3 0x3102 DUP4 CODECOPY DUP2 DUP2 ADD PUSH1 0x40 MSTORE DUP2 ADD SWAP1 PUSH3 0x6C SWAP2 SWAP1 PUSH3 0x3AA JUMP JUMPDEST DUP3 PUSH1 0x1 PUSH1 0x0 DUP2 SWAP1 SSTORE POP PUSH1 0x0 PUSH20 0xFFFFFFFFFFFFFFFFFFFFFFFFFFFFFFFFFFFFFFFF AND DUP2 PUSH20 0xFFFFFFFFFFFFFFFFFFFFFFFFFFFFFFFFFFFFFFFF AND SUB PUSH3 0xEA JUMPI PUSH1 0x0 PUSH1 0x40 MLOAD PUSH32 0x1E4FBDF700000000000000000000000000000000000000000000000000000000 DUP2 MSTORE PUSH1 0x4 ADD PUSH3 0xE1 SWAP2 SWAP1 PUSH3 0x457 JUMP JUMPDEST PUSH1 0x40 MLOAD DUP1 SWAP2 SUB SWAP1 REVERT JUMPDEST PUSH3 0xFB DUP2 PUSH3 0x235 PUSH1 0x20 SHL PUSH1 0x20 SHR JUMP JUMPDEST POP DUP6 PUSH1 0x2 PUSH1 0x0 PUSH2 0x100 EXP DUP2 SLOAD DUP2 PUSH20 0xFFFFFFFFFFFFFFFFFFFFFFFFFFFFFFFFFFFFFFFF MUL NOT AND SWAP1 DUP4 PUSH20 0xFFFFFFFFFFFFFFFFFFFFFFFFFFFFFFFFFFFFFFFF AND MUL OR SWAP1 SSTORE POP DUP5 PUSH20 0xFFFFFFFFFFFFFFFFFFFFFFFFFFFFFFFFFFFFFFFF AND PUSH1 0xA0 DUP2 PUSH20 0xFFFFFFFFFFFFFFFFFFFFFFFFFFFFFFFFFFFFFFFF AND DUP2 MSTORE POP POP DUP4 PUSH20 0xFFFFFFFFFFFFFFFFFFFFFFFFFFFFFFFFFFFFFFFF AND PUSH1 0xC0 DUP2 PUSH20 0xFFFFFFFFFFFFFFFFFFFFFFFFFFFFFFFFFFFFFFFF AND DUP2 MSTORE POP POP DUP2 PUSH20 0xFFFFFFFFFFFFFFFFFFFFFFFFFFFFFFFFFFFFFFFF AND PUSH1 0x80 DUP2 PUSH20 0xFFFFFFFFFFFFFFFFFFFFFFFFFFFFFFFFFFFFFFFF AND DUP2 MSTORE POP POP PUSH1 0x1 PUSH1 0x6 PUSH1 0x0 PUSH2 0x100 EXP DUP2 SLOAD DUP2 PUSH1 0xFF MUL NOT AND SWAP1 DUP4 ISZERO ISZERO MUL OR SWAP1 SSTORE POP DUP1 PUSH20 0xFFFFFFFFFFFFFFFFFFFFFFFFFFFFFFFFFFFFFFFF AND PUSH2 0x100 DUP2 PUSH20 0xFFFFFFFFFFFFFFFFFFFFFFFFFFFFFFFFFFFFFFFF AND DUP2 MSTORE POP POP POP POP POP POP POP POP PUSH3 0x474 JUMP JUMPDEST PUSH1 0x0 PUSH1 0x1 PUSH1 0x0 SWAP1 SLOAD SWAP1 PUSH2 0x100 EXP SWAP1 DIV PUSH20 0xFFFFFFFFFFFFFFFFFFFFFFFFFFFFFFFFFFFFFFFF AND SWAP1 POP DUP2 PUSH1 0x1 PUSH1 0x0 PUSH2 0x100 EXP DUP2 SLOAD DUP2 PUSH20 0xFFFFFFFFFFFFFFFFFFFFFFFFFFFFFFFFFFFFFFFF MUL NOT AND SWAP1 DUP4 PUSH20 0xFFFFFFFFFFFFFFFFFFFFFFFFFFFFFFFFFFFFFFFF AND MUL OR SWAP1 SSTORE POP DUP2 PUSH20 0xFFFFFFFFFFFFFFFFFFFFFFFFFFFFFFFFFFFFFFFF AND DUP2 PUSH20 0xFFFFFFFFFFFFFFFFFFFFFFFFFFFFFFFFFFFFFFFF AND PUSH32 0x8BE0079C531659141344CD1FD0A4F28419497F9722A3DAAFE3B4186F6B6457E0 PUSH1 0x40 MLOAD PUSH1 0x40 MLOAD DUP1 SWAP2 SUB SWAP1 LOG3 POP POP JUMP JUMPDEST PUSH1 0x0 DUP1 REVERT JUMPDEST PUSH1 0x0 PUSH20 0xFFFFFFFFFFFFFFFFFFFFFFFFFFFFFFFFFFFFFFFF DUP3 AND SWAP1 POP SWAP2 SWAP1 POP JUMP JUMPDEST PUSH1 0x0 PUSH3 0x32D DUP3 PUSH3 0x300 JUMP JUMPDEST SWAP1 POP SWAP2 SWAP1 POP JUMP JUMPDEST PUSH3 0x33F DUP2 PUSH3 0x320 JUMP JUMPDEST DUP2 EQ PUSH3 0x34B JUMPI PUSH1 0x0 DUP1 REVERT JUMPDEST POP JUMP JUMPDEST PUSH1 0x0 DUP2 MLOAD SWAP1 POP PUSH3 0x35F DUP2 PUSH3 0x334 JUMP JUMPDEST SWAP3 SWAP2 POP POP JUMP JUMPDEST PUSH1 0x0 PUSH3 0x372 DUP3 PUSH3 0x300 JUMP JUMPDEST SWAP1 POP SWAP2 SWAP1 POP JUMP JUMPDEST PUSH3 0x384 DUP2 PUSH3 0x365 JUMP JUMPDEST DUP2 EQ PUSH3 0x390 JUMPI PUSH1 0x0 DUP1 REVERT JUMPDEST POP JUMP JUMPDEST PUSH1 0x0 DUP2 MLOAD SWAP1 POP PUSH3 0x3A4 DUP2 PUSH3 0x379 JUMP JUMPDEST SWAP3 SWAP2 POP POP JUMP JUMPDEST PUSH1 0x0 DUP1 PUSH1 0x0 DUP1 PUSH1 0x0 DUP1 PUSH1 0xC0 DUP8 DUP10 SUB SLT ISZERO PUSH3 0x3CA JUMPI PUSH3 0x3C9 PUSH3 0x2FB JUMP JUMPDEST JUMPDEST PUSH1 0x0 PUSH3 0x3DA DUP10 DUP3 DUP11 ADD PUSH3 0x34E JUMP JUMPDEST SWAP7 POP POP PUSH1 0x20 PUSH3 0x3ED DUP10 DUP3 DUP11 ADD PUSH3 0x34E JUMP JUMPDEST SWAP6 POP POP PUSH1 0x40 PUSH3 0x400 DUP10 DUP3 DUP11 ADD PUSH3 0x34E JUMP JUMPDEST SWAP5 POP POP PUSH1 0x60 PUSH3 0x413 DUP10 DUP3 DUP11 ADD PUSH3 0x34E JUMP JUMPDEST SWAP4 POP POP PUSH1 0x80 PUSH3 0x426 DUP10 DUP3 DUP11 ADD PUSH3 0x393 JUMP JUMPDEST SWAP3 POP POP PUSH1 0xA0 PUSH3 0x439 DUP10 DUP3 DUP11 ADD PUSH3 0x34E JUMP JUMPDEST SWAP2 POP POP SWAP3 SWAP6 POP SWAP3 SWAP6 POP SWAP3 SWAP6 JUMP JUMPDEST PUSH3 0x451 DUP2 PUSH3 0x320 JUMP JUMPDEST DUP3 MSTORE POP POP JUMP JUMPDEST PUSH1 0x0 PUSH1 0x20 DUP3 ADD SWAP1 POP PUSH3 0x46E PUSH1 0x0 DUP4 ADD DUP5 PUSH3 0x446 JUMP JUMPDEST SWAP3 SWAP2 POP POP JUMP JUMPDEST PUSH1 0x80 MLOAD PUSH1 0xA0 MLOAD PUSH1 0xC0 MLOAD PUSH1 0xE0 MLOAD PUSH2 0x100 MLOAD PUSH2 0x2BEE PUSH3 0x514 PUSH1 0x0 CODECOPY PUSH1 0x0 DUP2 DUP2 PUSH2 0xD8E ADD MSTORE PUSH2 0x14B4 ADD MSTORE PUSH1 0x0 DUP2 DUP2 PUSH2 0x1463 ADD MSTORE PUSH2 0x1967 ADD MSTORE PUSH1 0x0 DUP2 DUP2 PUSH2 0x135 ADD MSTORE DUP2 DUP2 PUSH2 0x194 ADD MSTORE DUP2 DUP2 PUSH2 0x54B ADD MSTORE DUP2 DUP2 PUSH2 0x5CF ADD MSTORE DUP2 DUP2 PUSH2 0x98E ADD MSTORE DUP2 DUP2 PUSH2 0xEF7 ADD MSTORE DUP2 DUP2 PUSH2 0x1127 ADD MSTORE DUP2 DUP2 PUSH2 0x1580 ADD MSTORE DUP2 DUP2 PUSH2 0x169B ADD MSTORE PUSH2 0x185F ADD MSTORE PUSH1 0x0 DUP2 DUP2 PUSH2 0x7A4 ADD MSTORE PUSH2 0x170A ADD MSTORE PUSH1 0x0 DUP2 DUP2 PUSH2 0x96A ADD MSTORE PUSH2 0x11C0 ADD MSTORE PUSH2 0x2BEE PUSH1 0x0 RETURN INVALID PUSH1 0x80 PUSH1 0x40 MSTORE PUSH1 0x4 CALLDATASIZE LT PUSH2 0x12E JUMPI PUSH1 0x0 CALLDATALOAD PUSH1 0xE0 SHR DUP1 PUSH4 0x7581AA60 GT PUSH2 0xAB JUMPI DUP1 PUSH4 0xB37FD190 GT PUSH2 0x6F JUMPI DUP1 PUSH4 0xB37FD190 EQ PUSH2 0x47E JUMPI DUP1 PUSH4 0xC36554CE EQ PUSH2 0x4A7 JUMPI DUP1 PUSH4 0xDC05A309 EQ PUSH2 0x4BE JUMPI DUP1 PUSH4 0xDC1A4D9E EQ PUSH2 0x4D5 JUMPI DUP1 PUSH4 0xF2FDE38B EQ PUSH2 0x4EC JUMPI DUP1 PUSH4 0xFCCC2813 EQ PUSH2 0x515 JUMPI PUSH2 0x192 JUMP JUMPDEST DUP1 PUSH4 0x7581AA60 EQ PUSH2 0x3AB JUMPI DUP1 PUSH4 0x8465093E EQ PUSH2 0x3D6 JUMPI DUP1 PUSH4 0x8DA5CB5B EQ PUSH2 0x3FF JUMPI DUP1 PUSH4 0xA0558C3F EQ PUSH2 0x42A JUMPI DUP1 PUSH4 0xB2B22D5F EQ PUSH2 0x453 JUMPI PUSH2 0x192 JUMP JUMPDEST DUP1 PUSH4 0x62AB05E7 GT PUSH2 0xF2 JUMPI DUP1 PUSH4 0x62AB05E7 EQ PUSH2 0x2EA JUMPI DUP1 PUSH4 0x66650B7B EQ PUSH2 0x315 JUMPI DUP1 PUSH4 0x6CDF0E40 EQ PUSH2 0x340 JUMPI DUP1 PUSH4 0x715018A6 EQ PUSH2 0x369 JUMPI DUP1 PUSH4 0x7499AFF4 EQ PUSH2 0x380 JUMPI PUSH2 0x192 JUMP JUMPDEST DUP1 PUSH4 0xC2B72E9 EQ PUSH2 0x1F1 JUMPI DUP1 PUSH4 0x138B7338 EQ PUSH2 0x21C JUMPI DUP1 PUSH4 0x210009CF EQ PUSH2 0x259 JUMPI DUP1 PUSH4 0x3F0C188F EQ PUSH2 0x282 JUMPI DUP1 PUSH4 0x5301FA6F EQ PUSH2 0x2BF JUMPI PUSH2 0x192 JUMP JUMPDEST CALLDATASIZE PUSH2 0x192 JUMPI PUSH32 0x0 PUSH20 0xFFFFFFFFFFFFFFFFFFFFFFFFFFFFFFFFFFFFFFFF AND CALLER PUSH20 0xFFFFFFFFFFFFFFFFFFFFFFFFFFFFFFFFFFFFFFFF AND EQ PUSH2 0x190 JUMPI PUSH2 0x18F CALLVALUE PUSH2 0x540 JUMP JUMPDEST JUMPDEST STOP JUMPDEST PUSH32 0x0 PUSH20 0xFFFFFFFFFFFFFFFFFFFFFFFFFFFFFFFFFFFFFFFF AND CALLER PUSH20 0xFFFFFFFFFFFFFFFFFFFFFFFFFFFFFFFFFFFFFFFF AND EQ PUSH2 0x1EF JUMPI PUSH2 0x1EE CALLVALUE PUSH2 0x540 JUMP JUMPDEST JUMPDEST STOP JUMPDEST CALLVALUE DUP1 ISZERO PUSH2 0x1FD JUMPI PUSH1 0x0 DUP1 REVERT JUMPDEST POP PUSH2 0x206 PUSH2 0x7A2 JUMP JUMPDEST PUSH1 0x40 MLOAD PUSH2 0x213 SWAP2 SWAP1 PUSH2 0x1C62 JUMP JUMPDEST PUSH1 0x40 MLOAD DUP1 SWAP2 SUB SWAP1 RETURN JUMPDEST CALLVALUE DUP1 ISZERO PUSH2 0x228 JUMPI PUSH1 0x0 DUP1 REVERT JUMPDEST POP PUSH2 0x243 PUSH1 0x4 DUP1 CALLDATASIZE SUB DUP2 ADD SWAP1 PUSH2 0x23E SWAP2 SWAP1 PUSH2 0x1CBD JUMP JUMPDEST PUSH2 0x7C6 JUMP JUMPDEST PUSH1 0x40 MLOAD PUSH2 0x250 SWAP2 SWAP1 PUSH2 0x1D05 JUMP JUMPDEST PUSH1 0x40 MLOAD DUP1 SWAP2 SUB SWAP1 RETURN JUMPDEST CALLVALUE DUP1 ISZERO PUSH2 0x265 JUMPI PUSH1 0x0 DUP1 REVERT JUMPDEST POP PUSH2 0x280 PUSH1 0x4 DUP1 CALLDATASIZE SUB DUP2 ADD SWAP1 PUSH2 0x27B SWAP2 SWAP1 PUSH2 0x1CBD JUMP JUMPDEST PUSH2 0x81C JUMP JUMPDEST STOP JUMPDEST CALLVALUE DUP1 ISZERO PUSH2 0x28E JUMPI PUSH1 0x0 DUP1 REVERT JUMPDEST POP PUSH2 0x2A9 PUSH1 0x4 DUP1 CALLDATASIZE SUB DUP2 ADD SWAP1 PUSH2 0x2A4 SWAP2 SWAP1 PUSH2 0x1CBD JUMP JUMPDEST PUSH2 0x942 JUMP JUMPDEST PUSH1 0x40 MLOAD PUSH2 0x2B6 SWAP2 SWAP1 PUSH2 0x1D05 JUMP JUMPDEST PUSH1 0x40 MLOAD DUP1 SWAP2 SUB SWAP1 RETURN JUMPDEST CALLVALUE DUP1 ISZERO PUSH2 0x2CB JUMPI PUSH1 0x0 DUP1 REVERT JUMPDEST POP PUSH2 0x2D4 PUSH2 0x962 JUMP JUMPDEST PUSH1 0x40 MLOAD PUSH2 0x2E1 SWAP2 SWAP1 PUSH2 0x1D39 JUMP JUMPDEST PUSH1 0x40 MLOAD DUP1 SWAP2 SUB SWAP1 RETURN JUMPDEST CALLVALUE DUP1 ISZERO PUSH2 0x2F6 JUMPI PUSH1 0x0 DUP1 REVERT JUMPDEST POP PUSH2 0x2FF PUSH2 0x968 JUMP JUMPDEST PUSH1 0x40 MLOAD PUSH2 0x30C SWAP2 SWAP1 PUSH2 0x1D75 JUMP JUMPDEST PUSH1 0x40 MLOAD DUP1 SWAP2 SUB SWAP1 RETURN JUMPDEST CALLVALUE DUP1 ISZERO PUSH2 0x321 JUMPI PUSH1 0x0 DUP1 REVERT JUMPDEST POP PUSH2 0x32A PUSH2 0x98C JUMP JUMPDEST PUSH1 0x40 MLOAD PUSH2 0x337 SWAP2 SWAP1 PUSH2 0x1C62 JUMP JUMPDEST PUSH1 0x40 MLOAD DUP1 SWAP2 SUB SWAP1 RETURN JUMPDEST CALLVALUE DUP1 ISZERO PUSH2 0x34C JUMPI PUSH1 0x0 DUP1 REVERT JUMPDEST POP PUSH2 0x367 PUSH1 0x4 DUP1 CALLDATASIZE SUB DUP2 ADD SWAP1 PUSH2 0x362 SWAP2 SWAP1 PUSH2 0x1DBC JUMP JUMPDEST PUSH2 0x9B0 JUMP JUMPDEST STOP JUMPDEST CALLVALUE DUP1 ISZERO PUSH2 0x375 JUMPI PUSH1 0x0 DUP1 REVERT JUMPDEST POP PUSH2 0x37E PUSH2 0x9E5 JUMP JUMPDEST STOP JUMPDEST CALLVALUE DUP1 ISZERO PUSH2 0x38C JUMPI PUSH1 0x0 DUP1 REVERT JUMPDEST POP PUSH2 0x395 PUSH2 0x9F9 JUMP JUMPDEST PUSH1 0x40 MLOAD PUSH2 0x3A2 SWAP2 SWAP1 PUSH2 0x1D39 JUMP JUMPDEST PUSH1 0x40 MLOAD DUP1 SWAP2 SUB SWAP1 RETURN JUMPDEST CALLVALUE DUP1 ISZERO PUSH2 0x3B7 JUMPI PUSH1 0x0 DUP1 REVERT JUMPDEST POP PUSH2 0x3C0 PUSH2 0x9FF JUMP JUMPDEST PUSH1 0x40 MLOAD PUSH2 0x3CD SWAP2 SWAP1 PUSH2 0x1D05 JUMP JUMPDEST PUSH1 0x40 MLOAD DUP1 SWAP2 SUB SWAP1 RETURN JUMPDEST CALLVALUE DUP1 ISZERO PUSH2 0x3E2 JUMPI PUSH1 0x0 DUP1 REVERT JUMPDEST POP PUSH2 0x3FD PUSH1 0x4 DUP1 CALLDATASIZE SUB DUP2 ADD SWAP1 PUSH2 0x3F8 SWAP2 SWAP1 PUSH2 0x1CBD JUMP JUMPDEST PUSH2 0xA12 JUMP JUMPDEST STOP JUMPDEST CALLVALUE DUP1 ISZERO PUSH2 0x40B JUMPI PUSH1 0x0 DUP1 REVERT JUMPDEST POP PUSH2 0x414 PUSH2 0xBA8 JUMP JUMPDEST PUSH1 0x40 MLOAD PUSH2 0x421 SWAP2 SWAP1 PUSH2 0x1C62 JUMP JUMPDEST PUSH1 0x40 MLOAD DUP1 SWAP2 SUB SWAP1 RETURN JUMPDEST CALLVALUE DUP1 ISZERO PUSH2 0x436 JUMPI PUSH1 0x0 DUP1 REVERT JUMPDEST POP PUSH2 0x451 PUSH1 0x4 DUP1 CALLDATASIZE SUB DUP2 ADD SWAP1 PUSH2 0x44C SWAP2 SWAP1 PUSH2 0x1E41 JUMP JUMPDEST PUSH2 0xBD2 JUMP JUMPDEST STOP JUMPDEST CALLVALUE DUP1 ISZERO PUSH2 0x45F JUMPI PUSH1 0x0 DUP1 REVERT JUMPDEST POP PUSH2 0x468 PUSH2 0xD8C JUMP JUMPDEST PUSH1 0x40 MLOAD PUSH2 0x475 SWAP2 SWAP1 PUSH2 0x1C62 JUMP JUMPDEST PUSH1 0x40 MLOAD DUP1 SWAP2 SUB SWAP1 RETURN JUMPDEST CALLVALUE DUP1 ISZERO PUSH2 0x48A JUMPI PUSH1 0x0 DUP1 REVERT JUMPDEST POP PUSH2 0x4A5 PUSH1 0x4 DUP1 CALLDATASIZE SUB DUP2 ADD SWAP1 PUSH2 0x4A0 SWAP2 SWAP1 PUSH2 0x1E81 JUMP JUMPDEST PUSH2 0xDB0 JUMP JUMPDEST STOP JUMPDEST CALLVALUE DUP1 ISZERO PUSH2 0x4B3 JUMPI PUSH1 0x0 DUP1 REVERT JUMPDEST POP PUSH2 0x4BC PUSH2 0x10FB JUMP JUMPDEST STOP JUMPDEST CALLVALUE DUP1 ISZERO PUSH2 0x4CA JUMPI PUSH1 0x0 DUP1 REVERT JUMPDEST POP PUSH2 0x4D3 PUSH2 0x129F JUMP JUMPDEST STOP JUMPDEST CALLVALUE DUP1 ISZERO PUSH2 0x4E1 JUMPI PUSH1 0x0 DUP1 REVERT JUMPDEST POP PUSH2 0x4EA PUSH2 0x1374 JUMP JUMPDEST STOP JUMPDEST CALLVALUE DUP1 ISZERO PUSH2 0x4F8 JUMPI PUSH1 0x0 DUP1 REVERT JUMPDEST POP PUSH2 0x513 PUSH1 0x4 DUP1 CALLDATASIZE SUB DUP2 ADD SWAP1 PUSH2 0x50E SWAP2 SWAP1 PUSH2 0x1CBD JUMP JUMPDEST PUSH2 0x13DB JUMP JUMPDEST STOP JUMPDEST CALLVALUE DUP1 ISZERO PUSH2 0x521 JUMPI PUSH1 0x0 DUP1 REVERT JUMPDEST POP PUSH2 0x52A PUSH2 0x1461 JUMP JUMPDEST PUSH1 0x40 MLOAD PUSH2 0x537 SWAP2 SWAP1 PUSH2 0x1C62 JUMP JUMPDEST PUSH1 0x40 MLOAD DUP1 SWAP2 SUB SWAP1 RETURN JUMPDEST PUSH1 0x0 DUP2 GT ISZERO PUSH2 0x5CB JUMPI PUSH32 0x0 PUSH20 0xFFFFFFFFFFFFFFFFFFFFFFFFFFFFFFFFFFFFFFFF AND PUSH4 0xD0E30DB0 DUP3 PUSH1 0x40 MLOAD DUP3 PUSH4 0xFFFFFFFF AND PUSH1 0xE0 SHL DUP2 MSTORE PUSH1 0x4 ADD PUSH1 0x0 PUSH1 0x40 MLOAD DUP1 DUP4 SUB DUP2 DUP6 DUP9 DUP1 EXTCODESIZE ISZERO DUP1 ISZERO PUSH2 0x5B1 JUMPI PUSH1 0x0 DUP1 REVERT JUMPDEST POP GAS CALL ISZERO DUP1 ISZERO PUSH2 0x5C5 JUMPI RETURNDATASIZE PUSH1 0x0 DUP1 RETURNDATACOPY RETURNDATASIZE PUSH1 0x0 REVERT JUMPDEST POP POP POP POP POP JUMPDEST PUSH1 0x0 PUSH32 0x0 PUSH20 0xFFFFFFFFFFFFFFFFFFFFFFFFFFFFFFFFFFFFFFFF AND PUSH4 0x70A08231 ADDRESS PUSH1 0x40 MLOAD DUP3 PUSH4 0xFFFFFFFF AND PUSH1 0xE0 SHL DUP2 MSTORE PUSH1 0x4 ADD PUSH2 0x626 SWAP2 SWAP1 PUSH2 0x1C62 JUMP JUMPDEST PUSH1 0x20 PUSH1 0x40 MLOAD DUP1 DUP4 SUB DUP2 DUP7 GAS STATICCALL ISZERO DUP1 ISZERO PUSH2 0x643 JUMPI RETURNDATASIZE PUSH1 0x0 DUP1 RETURNDATACOPY RETURNDATASIZE PUSH1 0x0 REVERT JUMPDEST POP POP POP POP PUSH1 0x40 MLOAD RETURNDATASIZE PUSH1 0x1F NOT PUSH1 0x1F DUP3 ADD AND DUP3 ADD DUP1 PUSH1 0x40 MSTORE POP DUP2 ADD SWAP1 PUSH2 0x667 SWAP2 SWAP1 PUSH2 0x1EE9 JUMP JUMPDEST SWAP1 POP PUSH1 0x0 PUSH1 0x5 SLOAD PUSH1 0x4 SLOAD PUSH2 0x67B SWAP2 SWAP1 PUSH2 0x1F45 JUMP JUMPDEST SWAP1 POP DUP1 DUP3 LT ISZERO PUSH2 0x6C0 JUMPI PUSH1 0x40 MLOAD PUSH32 0x8C379A000000000000000000000000000000000000000000000000000000000 DUP2 MSTORE PUSH1 0x4 ADD PUSH2 0x6B7 SWAP1 PUSH2 0x1FD6 JUMP JUMPDEST PUSH1 0x40 MLOAD DUP1 SWAP2 SUB SWAP1 REVERT JUMPDEST PUSH1 0x0 DUP2 DUP4 PUSH2 0x6CE SWAP2 SWAP1 PUSH2 0x1FF6 JUMP JUMPDEST SWAP1 POP PUSH1 0x0 DUP2 GT ISZERO PUSH2 0x79C JUMPI PUSH1 0x0 PUSH1 0x64 PUSH1 0x32 DUP4 PUSH2 0x6EA SWAP2 SWAP1 PUSH2 0x202A JUMP JUMPDEST PUSH2 0x6F4 SWAP2 SWAP1 PUSH2 0x209B JUMP JUMPDEST SWAP1 POP PUSH1 0x0 DUP2 DUP4 PUSH2 0x704 SWAP2 SWAP1 PUSH2 0x1FF6 JUMP JUMPDEST SWAP1 POP DUP2 PUSH1 0x4 PUSH1 0x0 DUP3 DUP3 SLOAD PUSH2 0x718 SWAP2 SWAP1 PUSH2 0x1F45 JUMP JUMPDEST SWAP3 POP POP DUP2 SWAP1 SSTORE POP DUP1 PUSH1 0x5 PUSH1 0x0 DUP3 DUP3 SLOAD PUSH2 0x731 SWAP2 SWAP1 PUSH2 0x1F45 JUMP JUMPDEST SWAP3 POP POP DUP2 SWAP1 SSTORE POP PUSH32 0xA72767C83A84BE51143FA5AE1E4E5EDE2E15C027E1879E7EDF0D523B0723C58D DUP4 DUP4 DUP4 PUSH1 0x40 MLOAD PUSH2 0x76B SWAP4 SWAP3 SWAP2 SWAP1 PUSH2 0x20CC JUMP JUMPDEST PUSH1 0x40 MLOAD DUP1 SWAP2 SUB SWAP1 LOG1 PUSH2 0x77B PUSH2 0x1485 JUMP JUMPDEST PUSH1 0x6 PUSH1 0x0 SWAP1 SLOAD SWAP1 PUSH2 0x100 EXP SWAP1 DIV PUSH1 0xFF AND ISZERO PUSH2 0x799 JUMPI PUSH2 0x798 PUSH2 0x1640 JUMP JUMPDEST JUMPDEST POP POP JUMPDEST POP POP POP POP JUMP JUMPDEST PUSH32 0x0 DUP2 JUMP JUMPDEST PUSH1 0x0 PUSH1 0x3 PUSH1 0x0 DUP4 PUSH20 0xFFFFFFFFFFFFFFFFFFFFFFFFFFFFFFFFFFFFFFFF AND PUSH20 0xFFFFFFFFFFFFFFFFFFFFFFFFFFFFFFFFFFFFFFFF AND DUP2 MSTORE PUSH1 0x20 ADD SWAP1 DUP2 MSTORE PUSH1 0x20 ADD PUSH1 0x0 KECCAK256 PUSH1 0x0 SWAP1 SLOAD SWAP1 PUSH2 0x100 EXP SWAP1 DIV PUSH1 0xFF AND SWAP1 POP SWAP2 SWAP1 POP JUMP JUMPDEST PUSH2 0x824 PUSH2 0x1A7C JUMP JUMPDEST PUSH1 0x3 PUSH1 0x0 DUP3 PUSH20 0xFFFFFFFFFFFFFFFFFFFFFFFFFFFFFFFFFFFFFFFF AND PUSH20 0xFFFFFFFFFFFFFFFFFFFFFFFFFFFFFFFFFFFFFFFF AND DUP2 MSTORE PUSH1 0x20 ADD SWAP1 DUP2 MSTORE PUSH1 0x20 ADD PUSH1 0x0 KECCAK256 PUSH1 0x0 SWAP1 SLOAD SWAP1 PUSH2 0x100 EXP SWAP1 DIV PUSH1 0xFF AND PUSH2 0x8B0 JUMPI PUSH1 0x40 MLOAD PUSH32 0x8C379A000000000000000000000000000000000000000000000000000000000 DUP2 MSTORE PUSH1 0x4 ADD PUSH2 0x8A7 SWAP1 PUSH2 0x214F JUMP JUMPDEST PUSH1 0x40 MLOAD DUP1 SWAP2 SUB SWAP1 REVERT JUMPDEST PUSH1 0x0 PUSH1 0x3 PUSH1 0x0 DUP4 PUSH20 0xFFFFFFFFFFFFFFFFFFFFFFFFFFFFFFFFFFFFFFFF AND PUSH20 0xFFFFFFFFFFFFFFFFFFFFFFFFFFFFFFFFFFFFFFFF AND DUP2 MSTORE PUSH1 0x20 ADD SWAP1 DUP2 MSTORE PUSH1 0x20 ADD PUSH1 0x0 KECCAK256 PUSH1 0x0 PUSH2 0x100 EXP DUP2 SLOAD DUP2 PUSH1 0xFF MUL NOT AND SWAP1 DUP4 ISZERO ISZERO MUL OR SWAP1 SSTORE POP PUSH32 0xD9EA38E99B87231F31B9DA68DE3C78D56418E10E2E64D338C9F438AB75681EBC DUP2 PUSH1 0x40 MLOAD PUSH2 0x937 SWAP2 SWAP1 PUSH2 0x1C62 JUMP JUMPDEST PUSH1 0x40 MLOAD DUP1 SWAP2 SUB SWAP1 LOG1 POP JUMP JUMPDEST PUSH1 0x3 PUSH1 0x20 MSTORE DUP1 PUSH1 0x0 MSTORE PUSH1 0x40 PUSH1 0x0 KECCAK256 PUSH1 0x0 SWAP2 POP SLOAD SWAP1 PUSH2 0x100 EXP SWAP1 DIV PUSH1 0xFF AND DUP2 JUMP JUMPDEST PUSH1 0x5 SLOAD DUP2 JUMP JUMPDEST PUSH32 0x0 DUP2 JUMP JUMPDEST PUSH32 0x0 DUP2 JUMP JUMPDEST PUSH2 0x9B8 PUSH2 0x1A7C JUMP JUMPDEST PUSH2 0x9C0 PUSH2 0x1B03 JUMP JUMPDEST DUP1 PUSH1 0x6 PUSH1 0x0 PUSH2 0x100 EXP DUP2 SLOAD DUP2 PUSH1 0xFF MUL NOT AND SWAP1 DUP4 ISZERO ISZERO MUL OR SWAP1 SSTORE POP PUSH2 0x9E2 PUSH2 0x1B49 JUMP JUMPDEST POP JUMP JUMPDEST PUSH2 0x9ED PUSH2 0x1A7C JUMP JUMPDEST PUSH2 0x9F7 PUSH1 0x0 PUSH2 0x1B53 JUMP JUMPDEST JUMP JUMPDEST PUSH1 0x4 SLOAD DUP2 JUMP JUMPDEST PUSH1 0x6 PUSH1 0x0 SWAP1 SLOAD SWAP1 PUSH2 0x100 EXP SWAP1 DIV PUSH1 0xFF AND DUP2 JUMP JUMPDEST PUSH2 0xA1A PUSH2 0x1A7C JUMP JUMPDEST PUSH1 0x0 PUSH20 0xFFFFFFFFFFFFFFFFFFFFFFFFFFFFFFFFFFFFFFFF AND DUP2 PUSH20 0xFFFFFFFFFFFFFFFFFFFFFFFFFFFFFFFFFFFFFFFF AND SUB PUSH2 0xA89 JUMPI PUSH1 0x40 MLOAD PUSH32 0x8C379A000000000000000000000000000000000000000000000000000000000 DUP2 MSTORE PUSH1 0x4 ADD PUSH2 0xA80 SWAP1 PUSH2 0x21BB JUMP JUMPDEST PUSH1 0x40 MLOAD DUP1 SWAP2 SUB SWAP1 REVERT JUMPDEST PUSH1 0x3 PUSH1 0x0 DUP3 PUSH20 0xFFFFFFFFFFFFFFFFFFFFFFFFFFFFFFFFFFFFFFFF AND PUSH20 0xFFFFFFFFFFFFFFFFFFFFFFFFFFFFFFFFFFFFFFFF AND DUP2 MSTORE PUSH1 0x20 ADD SWAP1 DUP2 MSTORE PUSH1 0x20 ADD PUSH1 0x0 KECCAK256 PUSH1 0x0 SWAP1 SLOAD SWAP1 PUSH2 0x100 EXP SWAP1 DIV PUSH1 0xFF AND ISZERO PUSH2 0xB16 JUMPI PUSH1 0x40 MLOAD PUSH32 0x8C379A000000000000000000000000000000000000000000000000000000000 DUP2 MSTORE PUSH1 0x4 ADD PUSH2 0xB0D SWAP1 PUSH2 0x2227 JUMP JUMPDEST PUSH1 0x40 MLOAD DUP1 SWAP2 SUB SWAP1 REVERT JUMPDEST PUSH1 0x1 PUSH1 0x3 PUSH1 0x0 DUP4 PUSH20 0xFFFFFFFFFFFFFFFFFFFFFFFFFFFFFFFFFFFFFFFF AND PUSH20 0xFFFFFFFFFFFFFFFFFFFFFFFFFFFFFFFFFFFFFFFF AND DUP2 MSTORE PUSH1 0x20 ADD SWAP1 DUP2 MSTORE PUSH1 0x20 ADD PUSH1 0x0 KECCAK256 PUSH1 0x0 PUSH2 0x100 EXP DUP2 SLOAD DUP2 PUSH1 0xFF MUL NOT AND SWAP1 DUP4 ISZERO ISZERO MUL OR SWAP1 SSTORE POP PUSH32 0x797C25843E35D46F4254028734C97D60F3F93AACCC1DD994DD6B90683FDB2486 DUP2 PUSH1 0x40 MLOAD PUSH2 0xB9D SWAP2 SWAP1 PUSH2 0x1C62 JUMP JUMPDEST PUSH1 0x40 MLOAD DUP1 SWAP2 SUB SWAP1 LOG1 POP JUMP JUMPDEST PUSH1 0x0 PUSH1 0x1 PUSH1 0x0 SWAP1 SLOAD SWAP1 PUSH2 0x100 EXP SWAP1 DIV PUSH20 0xFFFFFFFFFFFFFFFFFFFFFFFFFFFFFFFFFFFFFFFF AND SWAP1 POP SWAP1 JUMP JUMPDEST PUSH2 0xBDA PUSH2 0x1A7C JUMP JUMPDEST PUSH2 0xBE2 PUSH2 0x1B03 JUMP JUMPDEST PUSH1 0x0 PUSH20 0xFFFFFFFFFFFFFFFFFFFFFFFFFFFFFFFFFFFFFFFF AND DUP2 PUSH20 0xFFFFFFFFFFFFFFFFFFFFFFFFFFFFFFFFFFFFFFFF AND SUB PUSH2 0xC51 JUMPI PUSH1 0x40 MLOAD PUSH32 0x8C379A000000000000000000000000000000000000000000000000000000000 DUP2 MSTORE PUSH1 0x4 ADD PUSH2 0xC48 SWAP1 PUSH2 0x2293 JUMP JUMPDEST PUSH1 0x40 MLOAD DUP1 SWAP2 SUB SWAP1 REVERT JUMPDEST PUSH1 0x0 SELFBALANCE SWAP1 POP DUP1 DUP4 GT ISZERO PUSH2 0xC99 JUMPI PUSH1 0x40 MLOAD PUSH32 0x8C379A000000000000000000000000000000000000000000000000000000000 DUP2 MSTORE PUSH1 0x4 ADD PUSH2 0xC90 SWAP1 PUSH2 0x22FF JUMP JUMPDEST PUSH1 0x40 MLOAD DUP1 SWAP2 SUB SWAP1 REVERT JUMPDEST PUSH1 0x0 DUP3 PUSH20 0xFFFFFFFFFFFFFFFFFFFFFFFFFFFFFFFFFFFFFFFF AND DUP5 PUSH1 0x40 MLOAD PUSH2 0xCBF SWAP1 PUSH2 0x2350 JUMP JUMPDEST PUSH1 0x0 PUSH1 0x40 MLOAD DUP1 DUP4 SUB DUP2 DUP6 DUP8 GAS CALL SWAP3 POP POP POP RETURNDATASIZE DUP1 PUSH1 0x0 DUP2 EQ PUSH2 0xCFC JUMPI PUSH1 0x40 MLOAD SWAP2 POP PUSH1 0x1F NOT PUSH1 0x3F RETURNDATASIZE ADD AND DUP3 ADD PUSH1 0x40 MSTORE RETURNDATASIZE DUP3 MSTORE RETURNDATASIZE PUSH1 0x0 PUSH1 0x20 DUP5 ADD RETURNDATACOPY PUSH2 0xD01 JUMP JUMPDEST PUSH1 0x60 SWAP2 POP JUMPDEST POP POP SWAP1 POP DUP1 PUSH2 0xD45 JUMPI PUSH1 0x40 MLOAD PUSH32 0x8C379A000000000000000000000000000000000000000000000000000000000 DUP2 MSTORE PUSH1 0x4 ADD PUSH2 0xD3C SWAP1 PUSH2 0x23B1 JUMP JUMPDEST PUSH1 0x40 MLOAD DUP1 SWAP2 SUB SWAP1 REVERT JUMPDEST PUSH32 0xCD7FEF3A642DCF99CE1004B2A15D31E91398F01974500B64EAB8FC50FEF2D3B1 DUP5 DUP5 PUSH1 0x40 MLOAD PUSH2 0xD76 SWAP3 SWAP2 SWAP1 PUSH2 0x2430 JUMP JUMPDEST PUSH1 0x40 MLOAD DUP1 SWAP2 SUB SWAP1 LOG1 POP POP PUSH2 0xD88 PUSH2 0x1B49 JUMP JUMPDEST POP POP JUMP JUMPDEST PUSH32 0x0 DUP2 JUMP JUMPDEST PUSH2 0xDB8 PUSH2 0x1A7C JUMP JUMPDEST PUSH2 0xDC0 PUSH2 0x1B03 JUMP JUMPDEST PUSH1 0x0 PUSH20 0xFFFFFFFFFFFFFFFFFFFFFFFFFFFFFFFFFFFFFFFF AND DUP2 PUSH20 0xFFFFFFFFFFFFFFFFFFFFFFFFFFFFFFFFFFFFFFFF AND SUB PUSH2 0xE2F JUMPI PUSH1 0x40 MLOAD PUSH32 0x8C379A000000000000000000000000000000000000000000000000000000000 DUP2 MSTORE PUSH1 0x4 ADD PUSH2 0xE26 SWAP1 PUSH2 0x2293 JUMP JUMPDEST PUSH1 0x40 MLOAD DUP1 SWAP2 SUB SWAP1 REVERT JUMPDEST PUSH1 0x0 DUP4 SWAP1 POP PUSH1 0x0 DUP2 PUSH20 0xFFFFFFFFFFFFFFFFFFFFFFFFFFFFFFFFFFFFFFFF AND PUSH4 0x70A08231 ADDRESS PUSH1 0x40 MLOAD DUP3 PUSH4 0xFFFFFFFF AND PUSH1 0xE0 SHL DUP2 MSTORE PUSH1 0x4 ADD PUSH2 0xE6F SWAP2 SWAP1 PUSH2 0x1C62 JUMP JUMPDEST PUSH1 0x20 PUSH1 0x40 MLOAD DUP1 DUP4 SUB DUP2 DUP7 GAS STATICCALL ISZERO DUP1 ISZERO PUSH2 0xE8C JUMPI RETURNDATASIZE PUSH1 0x0 DUP1 RETURNDATACOPY RETURNDATASIZE PUSH1 0x0 REVERT JUMPDEST POP POP POP POP PUSH1 0x40 MLOAD RETURNDATASIZE PUSH1 0x1F NOT PUSH1 0x1F DUP3 ADD AND DUP3 ADD DUP1 PUSH1 0x40 MSTORE POP DUP2 ADD SWAP1 PUSH2 0xEB0 SWAP2 SWAP1 PUSH2 0x1EE9 JUMP JUMPDEST SWAP1 POP DUP1 DUP5 GT ISZERO PUSH2 0xEF5 JUMPI PUSH1 0x40 MLOAD PUSH32 0x8C379A000000000000000000000000000000000000000000000000000000000 DUP2 MSTORE PUSH1 0x4 ADD PUSH2 0xEEC SWAP1 PUSH2 0x24A5 JUMP JUMPDEST PUSH1 0x40 MLOAD DUP1 SWAP2 SUB SWAP1 REVERT JUMPDEST PUSH32 0x0 PUSH20 0xFFFFFFFFFFFFFFFFFFFFFFFFFFFFFFFFFFFFFFFF AND DUP6 PUSH20 0xFFFFFFFFFFFFFFFFFFFFFFFFFFFFFFFFFFFFFFFF AND SUB PUSH2 0xFEE JUMPI PUSH1 0x0 PUSH1 0x5 SLOAD PUSH1 0x4 SLOAD PUSH2 0xF5A SWAP2 SWAP1 PUSH2 0x1F45 JUMP JUMPDEST SWAP1 POP DUP1 DUP3 GT PUSH2 0xF9E JUMPI PUSH1 0x40 MLOAD PUSH32 0x8C379A000000000000000000000000000000000000000000000000000000000 DUP2 MSTORE PUSH1 0x4 ADD PUSH2 0xF95 SWAP1 PUSH2 0x2511 JUMP JUMPDEST PUSH1 0x40 MLOAD DUP1 SWAP2 SUB SWAP1 REVERT JUMPDEST DUP1 DUP3 PUSH2 0xFAA SWAP2 SWAP1 PUSH2 0x1FF6 JUMP JUMPDEST DUP6 GT ISZERO PUSH2 0xFEC JUMPI PUSH1 0x40 MLOAD PUSH32 0x8C379A000000000000000000000000000000000000000000000000000000000 DUP2 MSTORE PUSH1 0x4 ADD PUSH2 0xFE3 SWAP1 PUSH2 0x257D JUMP JUMPDEST PUSH1 0x40 MLOAD DUP1 SWAP2 SUB SWAP1 REVERT JUMPDEST POP JUMPDEST PUSH1 0x0 DUP3 PUSH20 0xFFFFFFFFFFFFFFFFFFFFFFFFFFFFFFFFFFFFFFFF AND PUSH4 0xA9059CBB DUP6 DUP8 PUSH1 0x40 MLOAD DUP4 PUSH4 0xFFFFFFFF AND PUSH1 0xE0 SHL DUP2 MSTORE PUSH1 0x4 ADD PUSH2 0x102B SWAP3 SWAP2 SWAP1 PUSH2 0x259D JUMP JUMPDEST PUSH1 0x20 PUSH1 0x40 MLOAD DUP1 DUP4 SUB DUP2 PUSH1 0x0 DUP8 GAS CALL ISZERO DUP1 ISZERO PUSH2 0x104A JUMPI RETURNDATASIZE PUSH1 0x0 DUP1 RETURNDATACOPY RETURNDATASIZE PUSH1 0x0 REVERT JUMPDEST POP POP POP POP PUSH1 0x40 MLOAD RETURNDATASIZE PUSH1 0x1F NOT PUSH1 0x1F DUP3 ADD AND DUP3 ADD DUP1 PUSH1 0x40 MSTORE POP DUP2 ADD SWAP1 PUSH2 0x106E SWAP2 SWAP1 PUSH2 0x25DB JUMP JUMPDEST SWAP1 POP DUP1 PUSH2 0x10B0 JUMPI PUSH1 0x40 MLOAD PUSH32 0x8C379A000000000000000000000000000000000000000000000000000000000 DUP2 MSTORE PUSH1 0x4 ADD PUSH2 0x10A7 SWAP1 PUSH2 0x2654 JUMP JUMPDEST PUSH1 0x40 MLOAD DUP1 SWAP2 SUB SWAP1 REVERT JUMPDEST PUSH32 0xFB475A842BAD10D3800B61BD1A92E716051AFBA979B124B583BD99A2D1D7BFD5 DUP7 DUP7 DUP7 PUSH1 0x40 MLOAD PUSH2 0x10E3 SWAP4 SWAP3 SWAP2 SWAP1 PUSH2 0x2674 JUMP JUMPDEST PUSH1 0x40 MLOAD DUP1 SWAP2 SUB SWAP1 LOG1 POP POP POP PUSH2 0x10F6 PUSH2 0x1B49 JUMP JUMPDEST POP POP POP JUMP JUMPDEST PUSH2 0x1103 PUSH2 0x1A7C JUMP JUMPDEST PUSH2 0x110B PUSH2 0x1B03 JUMP JUMPDEST PUSH2 0x1115 PUSH1 0x0 PUSH2 0x540 JUMP JUMPDEST PUSH1 0x0 PUSH1 0x4 SLOAD SWAP1 POP PUSH1 0x0 DUP2 GT ISZERO PUSH2 0x11B1 JUMPI PUSH32 0x0 PUSH20 0xFFFFFFFFFFFFFFFFFFFFFFFFFFFFFFFFFFFFFFFF AND PUSH4 0x2E1A7D4D DUP3 PUSH1 0x40 MLOAD DUP3 PUSH4 0xFFFFFFFF AND PUSH1 0xE0 SHL DUP2 MSTORE PUSH1 0x4 ADD PUSH2 0x117E SWAP2 SWAP1 PUSH2 0x1D39 JUMP JUMPDEST PUSH1 0x0 PUSH1 0x40 MLOAD DUP1 DUP4 SUB DUP2 PUSH1 0x0 DUP8 DUP1 EXTCODESIZE ISZERO DUP1 ISZERO PUSH2 0x1198 JUMPI PUSH1 0x0 DUP1 REVERT JUMPDEST POP GAS CALL ISZERO DUP1 ISZERO PUSH2 0x11AC JUMPI RETURNDATASIZE PUSH1 0x0 DUP1 RETURNDATACOPY RETURNDATASIZE PUSH1 0x0 REVERT JUMPDEST POP POP POP POP JUMPDEST PUSH1 0x0 PUSH1 0x4 SLOAD GT ISZERO PUSH2 0x1294 JUMPI PUSH1 0x0 PUSH32 0x0 PUSH20 0xFFFFFFFFFFFFFFFFFFFFFFFFFFFFFFFFFFFFFFFF AND PUSH1 0x4 SLOAD PUSH1 0x40 MLOAD PUSH2 0x1204 SWAP1 PUSH2 0x2350 JUMP JUMPDEST PUSH1 0x0 PUSH1 0x40 MLOAD DUP1 DUP4 SUB DUP2 DUP6 DUP8 GAS CALL SWAP3 POP POP POP RETURNDATASIZE DUP1 PUSH1 0x0 DUP2 EQ PUSH2 0x1241 JUMPI PUSH1 0x40 MLOAD SWAP2 POP PUSH1 0x1F NOT PUSH1 0x3F RETURNDATASIZE ADD AND DUP3 ADD PUSH1 0x40 MSTORE RETURNDATASIZE DUP3 MSTORE RETURNDATASIZE PUSH1 0x0 PUSH1 0x20 DUP5 ADD RETURNDATACOPY PUSH2 0x1246 JUMP JUMPDEST PUSH1 0x60 SWAP2 POP JUMPDEST POP POP SWAP1 POP DUP1 PUSH2 0x128A JUMPI PUSH1 0x40 MLOAD PUSH32 0x8C379A000000000000000000000000000000000000000000000000000000000 DUP2 MSTORE PUSH1 0x4 ADD PUSH2 0x1281 SWAP1 PUSH2 0x26F7 JUMP JUMPDEST PUSH1 0x40 MLOAD DUP1 SWAP2 SUB SWAP1 REVERT JUMPDEST PUSH1 0x0 PUSH1 0x4 DUP2 SWAP1 SSTORE POP POP JUMPDEST POP PUSH2 0x129D PUSH2 0x1B49 JUMP JUMPDEST JUMP JUMPDEST PUSH2 0x12A7 PUSH2 0xBA8 JUMP JUMPDEST PUSH20 0xFFFFFFFFFFFFFFFFFFFFFFFFFFFFFFFFFFFFFFFF AND CALLER PUSH20 0xFFFFFFFFFFFFFFFFFFFFFFFFFFFFFFFFFFFFFFFF AND EQ DUP1 PUSH2 0x1329 JUMPI POP PUSH1 0x3 PUSH1 0x0 CALLER PUSH20 0xFFFFFFFFFFFFFFFFFFFFFFFFFFFFFFFFFFFFFFFF AND PUSH20 0xFFFFFFFFFFFFFFFFFFFFFFFFFFFFFFFFFFFFFFFF AND DUP2 MSTORE PUSH1 0x20 ADD SWAP1 DUP2 MSTORE PUSH1 0x20 ADD PUSH1 0x0 KECCAK256 PUSH1 0x0 SWAP1 SLOAD SWAP1 PUSH2 0x100 EXP SWAP1 DIV PUSH1 0xFF AND JUMPDEST PUSH2 0x1368 JUMPI PUSH1 0x40 MLOAD PUSH32 0x8C379A000000000000000000000000000000000000000000000000000000000 DUP2 MSTORE PUSH1 0x4 ADD PUSH2 0x135F SWAP1 PUSH2 0x2789 JUMP JUMPDEST PUSH1 0x40 MLOAD DUP1 SWAP2 SUB SWAP1 REVERT JUMPDEST PUSH2 0x1372 PUSH1 0x0 PUSH2 0x540 JUMP JUMPDEST JUMP JUMPDEST PUSH2 0x137C PUSH2 0x1A7C JUMP JUMPDEST PUSH2 0x1384 PUSH2 0x1B03 JUMP JUMPDEST PUSH1 0x0 PUSH1 0x4 SLOAD GT PUSH2 0x13C9 JUMPI PUSH1 0x40 MLOAD PUSH32 0x8C379A000000000000000000000000000000000000000000000000000000000 DUP2 MSTORE PUSH1 0x4 ADD PUSH2 0x13C0 SWAP1 PUSH2 0x27F5 JUMP JUMPDEST PUSH1 0x40 MLOAD DUP1 SWAP2 SUB SWAP1 REVERT JUMPDEST PUSH2 0x13D1 PUSH2 0x1640 JUMP JUMPDEST PUSH2 0x13D9 PUSH2 0x1B49 JUMP JUMPDEST JUMP JUMPDEST PUSH2 0x13E3 PUSH2 0x1A7C JUMP JUMPDEST PUSH1 0x0 PUSH20 0xFFFFFFFFFFFFFFFFFFFFFFFFFFFFFFFFFFFFFFFF AND DUP2 PUSH20 0xFFFFFFFFFFFFFFFFFFFFFFFFFFFFFFFFFFFFFFFF AND SUB PUSH2 0x1455 JUMPI PUSH1 0x0 PUSH1 0x40 MLOAD PUSH32 0x1E4FBDF700000000000000000000000000000000000000000000000000000000 DUP2 MSTORE PUSH1 0x4 ADD PUSH2 0x144C SWAP2 SWAP1 PUSH2 0x1C62 JUMP JUMPDEST PUSH1 0x40 MLOAD DUP1 SWAP2 SUB SWAP1 REVERT JUMPDEST PUSH2 0x145E DUP2 PUSH2 0x1B53 JUMP JUMPDEST POP JUMP JUMPDEST PUSH32 0x0 DUP2 JUMP JUMPDEST PUSH1 0x0 PUSH1 0x5 SLOAD SUB ISZERO PUSH2 0x163E JUMPI PUSH1 0x0 PUSH1 0x9 PUSH1 0x5 SLOAD PUSH2 0x14A1 SWAP2 SWAP1 PUSH2 0x209B JUMP JUMPDEST SWAP1 POP PUSH1 0x0 PUSH1 0x1 SWAP1 POP JUMPDEST PUSH1 0x9 DUP2 GT PUSH2 0x1633 JUMPI PUSH32 0x0 PUSH20 0xFFFFFFFFFFFFFFFFFFFFFFFFFFFFFFFFFFFFFFFF AND PUSH4 0x6352211E DUP3 PUSH1 0x40 MLOAD DUP3 PUSH4 0xFFFFFFFF AND PUSH1 0xE0 SHL DUP2 MSTORE PUSH1 0x4 ADD PUSH2 0x150B SWAP2 SWAP1 PUSH2 0x1D39 JUMP JUMPDEST PUSH1 0x20 PUSH1 0x40 MLOAD DUP1 DUP4 SUB DUP2 DUP7 GAS STATICCALL SWAP3 POP POP POP DUP1 ISZERO PUSH2 0x1545 JUMPI POP PUSH1 0x40 MLOAD RETURNDATASIZE PUSH1 0x1F NOT PUSH1 0x1F DUP3 ADD AND DUP3 ADD DUP1 PUSH1 0x40 MSTORE POP DUP2 ADD SWAP1 PUSH2 0x1542 SWAP2 SWAP1 PUSH2 0x282A JUMP JUMPDEST PUSH1 0x1 JUMPDEST ISZERO PUSH2 0x1620 JUMPI PUSH1 0x0 PUSH20 0xFFFFFFFFFFFFFFFFFFFFFFFFFFFFFFFFFFFFFFFF AND DUP2 PUSH20 0xFFFFFFFFFFFFFFFFFFFFFFFFFFFFFFFFFFFFFFFF AND EQ PUSH2 0x161E JUMPI PUSH32 0x0 PUSH20 0xFFFFFFFFFFFFFFFFFFFFFFFFFFFFFFFFFFFFFFFF AND PUSH4 0xA9059CBB DUP3 DUP6 PUSH1 0x40 MLOAD DUP4 PUSH4 0xFFFFFFFF AND PUSH1 0xE0 SHL DUP2 MSTORE PUSH1 0x4 ADD PUSH2 0x15D9 SWAP3 SWAP2 SWAP1 PUSH2 0x259D JUMP JUMPDEST PUSH1 0x20 PUSH1 0x40 MLOAD DUP1 DUP4 SUB DUP2 PUSH1 0x0 DUP8 GAS CALL ISZERO DUP1 ISZERO PUSH2 0x15F8 JUMPI RETURNDATASIZE PUSH1 0x0 DUP1 RETURNDATACOPY RETURNDATASIZE PUSH1 0x0 REVERT JUMPDEST POP POP POP POP PUSH1 0x40 MLOAD RETURNDATASIZE PUSH1 0x1F NOT PUSH1 0x1F DUP3 ADD AND DUP3 ADD DUP1 PUSH1 0x40 MSTORE POP DUP2 ADD SWAP1 PUSH2 0x161C SWAP2 SWAP1 PUSH2 0x25DB JUMP JUMPDEST POP JUMPDEST POP JUMPDEST DUP1 DUP1 PUSH2 0x162B SWAP1 PUSH2 0x2857 JUMP JUMPDEST SWAP2 POP POP PUSH2 0x14AA JUMP JUMPDEST POP PUSH1 0x0 PUSH1 0x5 DUP2 SWAP1 SSTORE POP POP JUMPDEST JUMP JUMPDEST PUSH1 0x0 PUSH1 0x4 SLOAD GT ISZERO PUSH2 0x1A7A JUMPI PUSH1 0x0 PUSH1 0x2 PUSH8 0xFFFFFFFFFFFFFFFF DUP2 GT ISZERO PUSH2 0x1668 JUMPI PUSH2 0x1667 PUSH2 0x289F JUMP JUMPDEST JUMPDEST PUSH1 0x40 MLOAD SWAP1 DUP1 DUP3 MSTORE DUP1 PUSH1 0x20 MUL PUSH1 0x20 ADD DUP3 ADD PUSH1 0x40 MSTORE DUP1 ISZERO PUSH2 0x1696 JUMPI DUP2 PUSH1 0x20 ADD PUSH1 0x20 DUP3 MUL DUP1 CALLDATASIZE DUP4 CALLDATACOPY DUP1 DUP3 ADD SWAP2 POP POP SWAP1 POP JUMPDEST POP SWAP1 POP PUSH32 0x0 DUP2 PUSH1 0x0 DUP2 MLOAD DUP2 LT PUSH2 0x16CE JUMPI PUSH2 0x16CD PUSH2 0x28CE JUMP JUMPDEST JUMPDEST PUSH1 0x20 MUL PUSH1 0x20 ADD ADD SWAP1 PUSH20 0xFFFFFFFFFFFFFFFFFFFFFFFFFFFFFFFFFFFFFFFF AND SWAP1 DUP2 PUSH20 0xFFFFFFFFFFFFFFFFFFFFFFFFFFFFFFFFFFFFFFFF AND DUP2 MSTORE POP POP PUSH32 0x0 DUP2 PUSH1 0x1 DUP2 MLOAD DUP2 LT PUSH2 0x173D JUMPI PUSH2 0x173C PUSH2 0x28CE JUMP JUMPDEST JUMPDEST PUSH1 0x20 MUL PUSH1 0x20 ADD ADD SWAP1 PUSH20 0xFFFFFFFFFFFFFFFFFFFFFFFFFFFFFFFFFFFFFFFF AND SWAP1 DUP2 PUSH20 0xFFFFFFFFFFFFFFFFFFFFFFFFFFFFFFFFFFFFFFFF AND DUP2 MSTORE POP POP PUSH1 0x0 PUSH1 0x2 PUSH1 0x0 SWAP1 SLOAD SWAP1 PUSH2 0x100 EXP SWAP1 DIV PUSH20 0xFFFFFFFFFFFFFFFFFFFFFFFFFFFFFFFFFFFFFFFF AND PUSH20 0xFFFFFFFFFFFFFFFFFFFFFFFFFFFFFFFFFFFFFFFF AND PUSH4 0xD06CA61F PUSH1 0x4 SLOAD DUP5 PUSH1 0x40 MLOAD DUP4 PUSH4 0xFFFFFFFF AND PUSH1 0xE0 SHL DUP2 MSTORE PUSH1 0x4 ADD PUSH2 0x17D8 SWAP3 SWAP2 SWAP1 PUSH2 0x29BB JUMP JUMPDEST PUSH1 0x0 PUSH1 0x40 MLOAD DUP1 DUP4 SUB DUP2 DUP7 GAS STATICCALL ISZERO DUP1 ISZERO PUSH2 0x17F5 JUMPI RETURNDATASIZE PUSH1 0x0 DUP1 RETURNDATACOPY RETURNDATASIZE PUSH1 0x0 REVERT JUMPDEST POP POP POP POP PUSH1 0x40 MLOAD RETURNDATASIZE PUSH1 0x0 DUP3 RETURNDATACOPY RETURNDATASIZE PUSH1 0x1F NOT PUSH1 0x1F DUP3 ADD AND DUP3 ADD DUP1 PUSH1 0x40 MSTORE POP DUP2 ADD SWAP1 PUSH2 0x181E SWAP2 SWAP1 PUSH2 0x2B15 JUMP JUMPDEST SWAP1 POP PUSH1 0x0 DUP2 PUSH1 0x1 DUP2 MLOAD DUP2 LT PUSH2 0x1836 JUMPI PUSH2 0x1835 PUSH2 0x28CE JUMP JUMPDEST JUMPDEST PUSH1 0x20 MUL PUSH1 0x20 ADD ADD MLOAD SWAP1 POP PUSH1 0x0 PUSH1 0x64 PUSH1 0x50 DUP4 PUSH2 0x1851 SWAP2 SWAP1 PUSH2 0x202A JUMP JUMPDEST PUSH2 0x185B SWAP2 SWAP1 PUSH2 0x209B JUMP JUMPDEST SWAP1 POP PUSH32 0x0 PUSH20 0xFFFFFFFFFFFFFFFFFFFFFFFFFFFFFFFFFFFFFFFF AND PUSH4 0x95EA7B3 PUSH1 0x2 PUSH1 0x0 SWAP1 SLOAD SWAP1 PUSH2 0x100 EXP SWAP1 DIV PUSH20 0xFFFFFFFFFFFFFFFFFFFFFFFFFFFFFFFFFFFFFFFF AND PUSH1 0x4 SLOAD PUSH1 0x40 MLOAD DUP4 PUSH4 0xFFFFFFFF AND PUSH1 0xE0 SHL DUP2 MSTORE PUSH1 0x4 ADD PUSH2 0x18DC SWAP3 SWAP2 SWAP1 PUSH2 0x259D JUMP JUMPDEST PUSH1 0x20 PUSH1 0x40 MLOAD DUP1 DUP4 SUB DUP2 PUSH1 0x0 DUP8 GAS CALL ISZERO DUP1 ISZERO PUSH2 0x18FB JUMPI RETURNDATASIZE PUSH1 0x0 DUP1 RETURNDATACOPY RETURNDATASIZE PUSH1 0x0 REVERT JUMPDEST POP POP POP POP PUSH1 0x40 MLOAD RETURNDATASIZE PUSH1 0x1F NOT PUSH1 0x1F DUP3 ADD AND DUP3 ADD DUP1 PUSH1 0x40 MSTORE POP DUP2 ADD SWAP1 PUSH2 0x191F SWAP2 SWAP1 PUSH2 0x25DB JUMP JUMPDEST POP PUSH1 0x0 PUSH1 0x2 PUSH1 0x0 SWAP1 SLOAD SWAP1 PUSH2 0x100 EXP SWAP1 DIV PUSH20 0xFFFFFFFFFFFFFFFFFFFFFFFFFFFFFFFFFFFFFFFF AND PUSH20 0xFFFFFFFFFFFFFFFFFFFFFFFFFFFFFFFFFFFFFFFF AND PUSH4 0x38ED1739 PUSH1 0x4 SLOAD DUP5 DUP9 PUSH32 0x0 PUSH2 0x12C TIMESTAMP PUSH2 0x1994 SWAP2 SWAP1 PUSH2 0x1F45 JUMP JUMPDEST PUSH1 0x40 MLOAD DUP7 PUSH4 0xFFFFFFFF AND PUSH1 0xE0 SHL DUP2 MSTORE PUSH1 0x4 ADD PUSH2 0x19B4 SWAP6 SWAP5 SWAP4 SWAP3 SWAP2 SWAP1 PUSH2 0x2B5E JUMP JUMPDEST PUSH1 0x0 PUSH1 0x40 MLOAD DUP1 DUP4 SUB DUP2 PUSH1 0x0 DUP8 GAS CALL ISZERO DUP1 ISZERO PUSH2 0x19D3 JUMPI RETURNDATASIZE PUSH1 0x0 DUP1 RETURNDATACOPY RETURNDATASIZE PUSH1 0x0 REVERT JUMPDEST POP POP POP POP PUSH1 0x40 MLOAD RETURNDATASIZE PUSH1 0x0 DUP3 RETURNDATACOPY RETURNDATASIZE PUSH1 0x1F NOT PUSH1 0x1F DUP3 ADD AND DUP3 ADD DUP1 PUSH1 0x40 MSTORE POP DUP2 ADD SWAP1 PUSH2 0x19FC SWAP2 SWAP1 PUSH2 0x2B15 JUMP JUMPDEST SWAP1 POP PUSH1 0x0 DUP2 PUSH1 0x1 DUP4 MLOAD PUSH2 0x1A0F SWAP2 SWAP1 PUSH2 0x1FF6 JUMP JUMPDEST DUP2 MLOAD DUP2 LT PUSH2 0x1A20 JUMPI PUSH2 0x1A1F PUSH2 0x28CE JUMP JUMPDEST JUMPDEST PUSH1 0x20 MUL PUSH1 0x20 ADD ADD MLOAD SWAP1 POP PUSH1 0x0 PUSH1 0x4 DUP2 SWAP1 SSTORE POP PUSH1 0x0 DUP2 GT ISZERO PUSH2 0x1A73 JUMPI PUSH32 0xCB42363DCC1840222268FE43EEBC976F3E311A14761E5396EB394EBDAC90A582 DUP2 PUSH1 0x40 MLOAD PUSH2 0x1A6A SWAP2 SWAP1 PUSH2 0x1D39 JUMP JUMPDEST PUSH1 0x40 MLOAD DUP1 SWAP2 SUB SWAP1 LOG1 JUMPDEST POP POP POP POP POP POP JUMPDEST JUMP JUMPDEST PUSH2 0x1A84 PUSH2 0x1C19 JUMP JUMPDEST PUSH20 0xFFFFFFFFFFFFFFFFFFFFFFFFFFFFFFFFFFFFFFFF AND PUSH2 0x1AA2 PUSH2 0xBA8 JUMP JUMPDEST PUSH20 0xFFFFFFFFFFFFFFFFFFFFFFFFFFFFFFFFFFFFFFFF AND EQ PUSH2 0x1B01 JUMPI PUSH2 0x1AC5 PUSH2 0x1C19 JUMP JUMPDEST PUSH1 0x40 MLOAD PUSH32 0x118CDAA700000000000000000000000000000000000000000000000000000000 DUP2 MSTORE PUSH1 0x4 ADD PUSH2 0x1AF8 SWAP2 SWAP1 PUSH2 0x1C62 JUMP JUMPDEST PUSH1 0x40 MLOAD DUP1 SWAP2 SUB SWAP1 REVERT JUMPDEST JUMP JUMPDEST PUSH1 0x2 PUSH1 0x0 SLOAD SUB PUSH2 0x1B3F JUMPI PUSH1 0x40 MLOAD PUSH32 0x3EE5AEB500000000000000000000000000000000000000000000000000000000 DUP2 MSTORE PUSH1 0x4 ADD PUSH1 0x40 MLOAD DUP1 SWAP2 SUB SWAP1 REVERT JUMPDEST PUSH1 0x2 PUSH1 0x0 DUP2 SWAP1 SSTORE POP JUMP JUMPDEST PUSH1 0x1 PUSH1 0x0 DUP2 SWAP1 SSTORE POP JUMP JUMPDEST PUSH1 0x0 PUSH1 0x1 PUSH1 0x0 SWAP1 SLOAD SWAP1 PUSH2 0x100 EXP SWAP1 DIV PUSH20 0xFFFFFFFFFFFFFFFFFFFFFFFFFFFFFFFFFFFFFFFF AND SWAP1 POP DUP2 PUSH1 0x1 PUSH1 0x0 PUSH2 0x100 EXP DUP2 SLOAD DUP2 PUSH20 0xFFFFFFFFFFFFFFFFFFFFFFFFFFFFFFFFFFFFFFFF MUL NOT AND SWAP1 DUP4 PUSH20 0xFFFFFFFFFFFFFFFFFFFFFFFFFFFFFFFFFFFFFFFF AND MUL OR SWAP1 SSTORE POP DUP2 PUSH20 0xFFFFFFFFFFFFFFFFFFFFFFFFFFFFFFFFFFFFFFFF AND DUP2 PUSH20 0xFFFFFFFFFFFFFFFFFFFFFFFFFFFFFFFFFFFFFFFF AND PUSH32 0x8BE0079C531659141344CD1FD0A4F28419497F9722A3DAAFE3B4186F6B6457E0 PUSH1 0x40 MLOAD PUSH1 0x40 MLOAD DUP1 SWAP2 SUB SWAP1 LOG3 POP POP JUMP JUMPDEST PUSH1 0x0 CALLER SWAP1 POP SWAP1 JUMP JUMPDEST PUSH1 0x0 PUSH20 0xFFFFFFFFFFFFFFFFFFFFFFFFFFFFFFFFFFFFFFFF DUP3 AND SWAP1 POP SWAP2 SWAP1 POP JUMP JUMPDEST PUSH1 0x0 PUSH2 0x1C4C DUP3 PUSH2 0x1C21 JUMP JUMPDEST SWAP1 POP SWAP2 SWAP1 POP JUMP JUMPDEST PUSH2 0x1C5C DUP2 PUSH2 0x1C41 JUMP JUMPDEST DUP3 MSTORE POP POP JUMP JUMPDEST PUSH1 0x0 PUSH1 0x20 DUP3 ADD SWAP1 POP PUSH2 0x1C77 PUSH1 0x0 DUP4 ADD DUP5 PUSH2 0x1C53 JUMP JUMPDEST SWAP3 SWAP2 POP POP JUMP JUMPDEST PUSH1 0x0 PUSH1 0x40 MLOAD SWAP1 POP SWAP1 JUMP JUMPDEST PUSH1 0x0 DUP1 REVERT JUMPDEST PUSH1 0x0 DUP1 REVERT JUMPDEST PUSH2 0x1C9A DUP2 PUSH2 0x1C41 JUMP JUMPDEST DUP2 EQ PUSH2 0x1CA5 JUMPI PUSH1 0x0 DUP1 REVERT JUMPDEST POP JUMP JUMPDEST PUSH1 0x0 DUP2 CALLDATALOAD SWAP1 POP PUSH2 0x1CB7 DUP2 PUSH2 0x1C91 JUMP JUMPDEST SWAP3 SWAP2 POP POP JUMP JUMPDEST PUSH1 0x0 PUSH1 0x20 DUP3 DUP5 SUB SLT ISZERO PUSH2 0x1CD3 JUMPI PUSH2 0x1CD2 PUSH2 0x1C87 JUMP JUMPDEST JUMPDEST PUSH1 0x0 PUSH2 0x1CE1 DUP5 DUP3 DUP6 ADD PUSH2 0x1CA8 JUMP JUMPDEST SWAP2 POP POP SWAP3 SWAP2 POP POP JUMP JUMPDEST PUSH1 0x0 DUP2 ISZERO ISZERO SWAP1 POP SWAP2 SWAP1 POP JUMP JUMPDEST PUSH2 0x1CFF DUP2 PUSH2 0x1CEA JUMP JUMPDEST DUP3 MSTORE POP POP JUMP JUMPDEST PUSH1 0x0 PUSH1 0x20 DUP3 ADD SWAP1 POP PUSH2 0x1D1A PUSH1 0x0 DUP4 ADD DUP5 PUSH2 0x1CF6 JUMP JUMPDEST SWAP3 SWAP2 POP POP JUMP JUMPDEST PUSH1 0x0 DUP2 SWAP1 POP SWAP2 SWAP1 POP JUMP JUMPDEST PUSH2 0x1D33 DUP2 PUSH2 0x1D20 JUMP JUMPDEST DUP3 MSTORE POP POP JUMP JUMPDEST PUSH1 0x0 PUSH1 0x20 DUP3 ADD SWAP1 POP PUSH2 0x1D4E PUSH1 0x0 DUP4 ADD DUP5 PUSH2 0x1D2A JUMP JUMPDEST SWAP3 SWAP2 POP POP JUMP JUMPDEST PUSH1 0x0 PUSH2 0x1D5F DUP3 PUSH2 0x1C21 JUMP JUMPDEST SWAP1 POP SWAP2 SWAP1 POP JUMP JUMPDEST PUSH2 0x1D6F DUP2 PUSH2 0x1D54 JUMP JUMPDEST DUP3 MSTORE POP POP JUMP JUMPDEST PUSH1 0x0 PUSH1 0x20 DUP3 ADD SWAP1 POP PUSH2 0x1D8A PUSH1 0x0 DUP4 ADD DUP5 PUSH2 0x1D66 JUMP JUMPDEST SWAP3 SWAP2 POP POP JUMP JUMPDEST PUSH2 0x1D99 DUP2 PUSH2 0x1CEA JUMP JUMPDEST DUP2 EQ PUSH2 0x1DA4 JUMPI PUSH1 0x0 DUP1 REVERT JUMPDEST POP JUMP JUMPDEST PUSH1 0x0 DUP2 CALLDATALOAD SWAP1 POP PUSH2 0x1DB6 DUP2 PUSH2 0x1D90 JUMP JUMPDEST SWAP3 SWAP2 POP POP JUMP JUMPDEST PUSH1 0x0 PUSH1 0x20 DUP3 DUP5 SUB SLT ISZERO PUSH2 0x1DD2 JUMPI PUSH2 0x1DD1 PUSH2 0x1C87 JUMP JUMPDEST JUMPDEST PUSH1 0x0 PUSH2 0x1DE0 DUP5 DUP3 DUP6 ADD PUSH2 0x1DA7 JUMP JUMPDEST SWAP2 POP POP SWAP3 SWAP2 POP POP JUMP JUMPDEST PUSH2 0x1DF2 DUP2 PUSH2 0x1D20 JUMP JUMPDEST DUP2 EQ PUSH2 0x1DFD JUMPI PUSH1 0x0 DUP1 REVERT JUMPDEST POP JUMP JUMPDEST PUSH1 0x0 DUP2 CALLDATALOAD SWAP1 POP PUSH2 0x1E0F DUP2 PUSH2 0x1DE9 JUMP JUMPDEST SWAP3 SWAP2 POP POP JUMP JUMPDEST PUSH2 0x1E1E DUP2 PUSH2 0x1D54 JUMP JUMPDEST DUP2 EQ PUSH2 0x1E29 JUMPI PUSH1 0x0 DUP1 REVERT JUMPDEST POP JUMP JUMPDEST PUSH1 0x0 DUP2 CALLDATALOAD SWAP1 POP PUSH2 0x1E3B DUP2 PUSH2 0x1E15 JUMP JUMPDEST SWAP3 SWAP2 POP POP JUMP JUMPDEST PUSH1 0x0 DUP1 PUSH1 0x40 DUP4 DUP6 SUB SLT ISZERO PUSH2 0x1E58 JUMPI PUSH2 0x1E57 PUSH2 0x1C87 JUMP JUMPDEST JUMPDEST PUSH1 0x0 PUSH2 0x1E66 DUP6 DUP3 DUP7 ADD PUSH2 0x1E00 JUMP JUMPDEST SWAP3 POP POP PUSH1 0x20 PUSH2 0x1E77 DUP6 DUP3 DUP7 ADD PUSH2 0x1E2C JUMP JUMPDEST SWAP2 POP POP SWAP3 POP SWAP3 SWAP1 POP JUMP JUMPDEST PUSH1 0x0 DUP1 PUSH1 0x0 PUSH1 0x60 DUP5 DUP7 SUB SLT ISZERO PUSH2 0x1E9A JUMPI PUSH2 0x1E99 PUSH2 0x1C87 JUMP JUMPDEST JUMPDEST PUSH1 0x0 PUSH2 0x1EA8 DUP7 DUP3 DUP8 ADD PUSH2 0x1CA8 JUMP JUMPDEST SWAP4 POP POP PUSH1 0x20 PUSH2 0x1EB9 DUP7 DUP3 DUP8 ADD PUSH2 0x1E00 JUMP JUMPDEST SWAP3 POP POP PUSH1 0x40 PUSH2 0x1ECA DUP7 DUP3 DUP8 ADD PUSH2 0x1CA8 JUMP JUMPDEST SWAP2 POP POP SWAP3 POP SWAP3 POP SWAP3 JUMP JUMPDEST PUSH1 0x0 DUP2 MLOAD SWAP1 POP PUSH2 0x1EE3 DUP2 PUSH2 0x1DE9 JUMP JUMPDEST SWAP3 SWAP2 POP POP JUMP JUMPDEST PUSH1 0x0 PUSH1 0x20 DUP3 DUP5 SUB SLT ISZERO PUSH2 0x1EFF JUMPI PUSH2 0x1EFE PUSH2 0x1C87 JUMP JUMPDEST JUMPDEST PUSH1 0x0 PUSH2 0x1F0D DUP5 DUP3 DUP6 ADD PUSH2 0x1ED4 JUMP JUMPDEST SWAP2 POP POP SWAP3 SWAP2 POP POP JUMP JUMPDEST PUSH32 0x4E487B7100000000000000000000000000000000000000000000000000000000 PUSH1 0x0 MSTORE PUSH1 0x11 PUSH1 0x4 MSTORE PUSH1 0x24 PUSH1 0x0 REVERT JUMPDEST PUSH1 0x0 PUSH2 0x1F50 DUP3 PUSH2 0x1D20 JUMP JUMPDEST SWAP2 POP PUSH2 0x1F5B DUP4 PUSH2 0x1D20 JUMP JUMPDEST SWAP3 POP DUP3 DUP3 ADD SWAP1 POP DUP1 DUP3 GT ISZERO PUSH2 0x1F73 JUMPI PUSH2 0x1F72 PUSH2 0x1F16 JUMP JUMPDEST JUMPDEST SWAP3 SWAP2 POP POP JUMP JUMPDEST PUSH1 0x0 DUP3 DUP3 MSTORE PUSH1 0x20 DUP3 ADD SWAP1 POP SWAP3 SWAP2 POP POP JUMP JUMPDEST PUSH32 0x42616C616E6365206572726F7200000000000000000000000000000000000000 PUSH1 0x0 DUP3 ADD MSTORE POP JUMP JUMPDEST PUSH1 0x0 PUSH2 0x1FC0 PUSH1 0xD DUP4 PUSH2 0x1F79 JUMP JUMPDEST SWAP2 POP PUSH2 0x1FCB DUP3 PUSH2 0x1F8A JUMP JUMPDEST PUSH1 0x20 DUP3 ADD SWAP1 POP SWAP2 SWAP1 POP JUMP JUMPDEST PUSH1 0x0 PUSH1 0x20 DUP3 ADD SWAP1 POP DUP2 DUP2 SUB PUSH1 0x0 DUP4 ADD MSTORE PUSH2 0x1FEF DUP2 PUSH2 0x1FB3 JUMP JUMPDEST SWAP1 POP SWAP2 SWAP1 POP JUMP JUMPDEST PUSH1 0x0 PUSH2 0x2001 DUP3 PUSH2 0x1D20 JUMP JUMPDEST SWAP2 POP PUSH2 0x200C DUP4 PUSH2 0x1D20 JUMP JUMPDEST SWAP3 POP DUP3 DUP3 SUB SWAP1 POP DUP2 DUP2 GT ISZERO PUSH2 0x2024 JUMPI PUSH2 0x2023 PUSH2 0x1F16 JUMP JUMPDEST JUMPDEST SWAP3 SWAP2 POP POP JUMP JUMPDEST PUSH1 0x0 PUSH2 0x2035 DUP3 PUSH2 0x1D20 JUMP JUMPDEST SWAP2 POP PUSH2 0x2040 DUP4 PUSH2 0x1D20 JUMP JUMPDEST SWAP3 POP DUP3 DUP3 MUL PUSH2 0x204E DUP2 PUSH2 0x1D20 JUMP JUMPDEST SWAP2 POP DUP3 DUP3 DIV DUP5 EQ DUP4 ISZERO OR PUSH2 0x2065 JUMPI PUSH2 0x2064 PUSH2 0x1F16 JUMP JUMPDEST JUMPDEST POP SWAP3 SWAP2 POP POP JUMP JUMPDEST PUSH32 0x4E487B7100000000000000000000000000000000000000000000000000000000 PUSH1 0x0 MSTORE PUSH1 0x12 PUSH1 0x4 MSTORE PUSH1 0x24 PUSH1 0x0 REVERT JUMPDEST PUSH1 0x0 PUSH2 0x20A6 DUP3 PUSH2 0x1D20 JUMP JUMPDEST SWAP2 POP PUSH2 0x20B1 DUP4 PUSH2 0x1D20 JUMP JUMPDEST SWAP3 POP DUP3 PUSH2 0x20C1 JUMPI PUSH2 0x20C0 PUSH2 0x206C JUMP JUMPDEST JUMPDEST DUP3 DUP3 DIV SWAP1 POP SWAP3 SWAP2 POP POP JUMP JUMPDEST PUSH1 0x0 PUSH1 0x60 DUP3 ADD SWAP1 POP PUSH2 0x20E1 PUSH1 0x0 DUP4 ADD DUP7 PUSH2 0x1D2A JUMP JUMPDEST PUSH2 0x20EE PUSH1 0x20 DUP4 ADD DUP6 PUSH2 0x1D2A JUMP JUMPDEST PUSH2 0x20FB PUSH1 0x40 DUP4 ADD DUP5 PUSH2 0x1D2A JUMP JUMPDEST SWAP5 SWAP4 POP POP POP POP JUMP JUMPDEST PUSH32 0x4E6F742077686974656C69737465640000000000000000000000000000000000 PUSH1 0x0 DUP3 ADD MSTORE POP JUMP JUMPDEST PUSH1 0x0 PUSH2 0x2139 PUSH1 0xF DUP4 PUSH2 0x1F79 JUMP JUMPDEST SWAP2 POP PUSH2 0x2144 DUP3 PUSH2 0x2103 JUMP JUMPDEST PUSH1 0x20 DUP3 ADD SWAP1 POP SWAP2 SWAP1 POP JUMP JUMPDEST PUSH1 0x0 PUSH1 0x20 DUP3 ADD SWAP1 POP DUP2 DUP2 SUB PUSH1 0x0 DUP4 ADD MSTORE PUSH2 0x2168 DUP2 PUSH2 0x212C JUMP JUMPDEST SWAP1 POP SWAP2 SWAP1 POP JUMP JUMPDEST PUSH32 0x496E76616C6964204E465420636F6E7472616374206164647265737300000000 PUSH1 0x0 DUP3 ADD MSTORE POP JUMP JUMPDEST PUSH1 0x0 PUSH2 0x21A5 PUSH1 0x1C DUP4 PUSH2 0x1F79 JUMP JUMPDEST SWAP2 POP PUSH2 0x21B0 DUP3 PUSH2 0x216F JUMP JUMPDEST PUSH1 0x20 DUP3 ADD SWAP1 POP SWAP2 SWAP1 POP JUMP JUMPDEST PUSH1 0x0 PUSH1 0x20 DUP3 ADD SWAP1 POP DUP2 DUP2 SUB PUSH1 0x0 DUP4 ADD MSTORE PUSH2 0x21D4 DUP2 PUSH2 0x2198 JUMP JUMPDEST SWAP1 POP SWAP2 SWAP1 POP JUMP JUMPDEST PUSH32 0x416C72656164792077686974656C697374656400000000000000000000000000 PUSH1 0x0 DUP3 ADD MSTORE POP JUMP JUMPDEST PUSH1 0x0 PUSH2 0x2211 PUSH1 0x13 DUP4 PUSH2 0x1F79 JUMP JUMPDEST SWAP2 POP PUSH2 0x221C DUP3 PUSH2 0x21DB JUMP JUMPDEST PUSH1 0x20 DUP3 ADD SWAP1 POP SWAP2 SWAP1 POP JUMP JUMPDEST PUSH1 0x0 PUSH1 0x20 DUP3 ADD SWAP1 POP DUP2 DUP2 SUB PUSH1 0x0 DUP4 ADD MSTORE PUSH2 0x2240 DUP2 PUSH2 0x2204 JUMP JUMPDEST SWAP1 POP SWAP2 SWAP1 POP JUMP JUMPDEST PUSH32 0x496E76616C696420726563697069656E74000000000000000000000000000000 PUSH1 0x0 DUP3 ADD MSTORE POP JUMP JUMPDEST PUSH1 0x0 PUSH2 0x227D PUSH1 0x11 DUP4 PUSH2 0x1F79 JUMP JUMPDEST SWAP2 POP PUSH2 0x2288 DUP3 PUSH2 0x2247 JUMP JUMPDEST PUSH1 0x20 DUP3 ADD SWAP1 POP SWAP2 SWAP1 POP JUMP JUMPDEST PUSH1 0x0 PUSH1 0x20 DUP3 ADD SWAP1 POP DUP2 DUP2 SUB PUSH1 0x0 DUP4 ADD MSTORE PUSH2 0x22AC DUP2 PUSH2 0x2270 JUMP JUMPDEST SWAP1 POP SWAP2 SWAP1 POP JUMP JUMPDEST PUSH32 0x4E6F7420656E6F75676820455448000000000000000000000000000000000000 PUSH1 0x0 DUP3 ADD MSTORE POP JUMP JUMPDEST PUSH1 0x0 PUSH2 0x22E9 PUSH1 0xE DUP4 PUSH2 0x1F79 JUMP JUMPDEST SWAP2 POP PUSH2 0x22F4 DUP3 PUSH2 0x22B3 JUMP JUMPDEST PUSH1 0x20 DUP3 ADD SWAP1 POP SWAP2 SWAP1 POP JUMP JUMPDEST PUSH1 0x0 PUSH1 0x20 DUP3 ADD SWAP1 POP DUP2 DUP2 SUB PUSH1 0x0 DUP4 ADD MSTORE PUSH2 0x2318 DUP2 PUSH2 0x22DC JUMP JUMPDEST SWAP1 POP SWAP2 SWAP1 POP JUMP JUMPDEST PUSH1 0x0 DUP2 SWAP1 POP SWAP3 SWAP2 POP POP JUMP JUMPDEST POP JUMP JUMPDEST PUSH1 0x0 PUSH2 0x233A PUSH1 0x0 DUP4 PUSH2 0x231F JUMP JUMPDEST SWAP2 POP PUSH2 0x2345 DUP3 PUSH2 0x232A JUMP JUMPDEST PUSH1 0x0 DUP3 ADD SWAP1 POP SWAP2 SWAP1 POP JUMP JUMPDEST PUSH1 0x0 PUSH2 0x235B DUP3 PUSH2 0x232D JUMP JUMPDEST SWAP2 POP DUP2 SWAP1 POP SWAP2 SWAP1 POP JUMP JUMPDEST PUSH32 0x455448207472616E73666572206661696C656400000000000000000000000000 PUSH1 0x0 DUP3 ADD MSTORE POP JUMP JUMPDEST PUSH1 0x0 PUSH2 0x239B PUSH1 0x13 DUP4 PUSH2 0x1F79 JUMP JUMPDEST SWAP2 POP PUSH2 0x23A6 DUP3 PUSH2 0x2365 JUMP JUMPDEST PUSH1 0x20 DUP3 ADD SWAP1 POP SWAP2 SWAP1 POP JUMP JUMPDEST PUSH1 0x0 PUSH1 0x20 DUP3 ADD SWAP1 POP DUP2 DUP2 SUB PUSH1 0x0 DUP4 ADD MSTORE PUSH2 0x23CA DUP2 PUSH2 0x238E JUMP JUMPDEST SWAP1 POP SWAP2 SWAP1 POP JUMP JUMPDEST PUSH1 0x0 DUP2 SWAP1 POP SWAP2 SWAP1 POP JUMP JUMPDEST PUSH1 0x0 PUSH2 0x23F6 PUSH2 0x23F1 PUSH2 0x23EC DUP5 PUSH2 0x1C21 JUMP JUMPDEST PUSH2 0x23D1 JUMP JUMPDEST PUSH2 0x1C21 JUMP JUMPDEST SWAP1 POP SWAP2 SWAP1 POP JUMP JUMPDEST PUSH1 0x0 PUSH2 0x2408 DUP3 PUSH2 0x23DB JUMP JUMPDEST SWAP1 POP SWAP2 SWAP1 POP JUMP JUMPDEST PUSH1 0x0 PUSH2 0x241A DUP3 PUSH2 0x23FD JUMP JUMPDEST SWAP1 POP SWAP2 SWAP1 POP JUMP JUMPDEST PUSH2 0x242A DUP2 PUSH2 0x240F JUMP JUMPDEST DUP3 MSTORE POP POP JUMP JUMPDEST PUSH1 0x0 PUSH1 0x40 DUP3 ADD SWAP1 POP PUSH2 0x2445 PUSH1 0x0 DUP4 ADD DUP6 PUSH2 0x1D2A JUMP JUMPDEST PUSH2 0x2452 PUSH1 0x20 DUP4 ADD DUP5 PUSH2 0x2421 JUMP JUMPDEST SWAP4 SWAP3 POP POP POP JUMP JUMPDEST PUSH32 0x4E6F7420656E6F75676820746F6B656E2062616C616E63650000000000000000 PUSH1 0x0 DUP3 ADD MSTORE POP JUMP JUMPDEST PUSH1 0x0 PUSH2 0x248F PUSH1 0x18 DUP4 PUSH2 0x1F79 JUMP JUMPDEST SWAP2 POP PUSH2 0x249A DUP3 PUSH2 0x2459 JUMP JUMPDEST PUSH1 0x20 DUP3 ADD SWAP1 POP SWAP2 SWAP1 POP JUMP JUMPDEST PUSH1 0x0 PUSH1 0x20 DUP3 ADD SWAP1 POP DUP2 DUP2 SUB PUSH1 0x0 DUP4 ADD MSTORE PUSH2 0x24BE DUP2 PUSH2 0x2482 JUMP JUMPDEST SWAP1 POP SWAP2 SWAP1 POP JUMP JUMPDEST PUSH32 0x4E6F20657863657373205745544E20746F207265736375650000000000000000 PUSH1 0x0 DUP3 ADD MSTORE POP JUMP JUMPDEST PUSH1 0x0 PUSH2 0x24FB PUSH1 0x18 DUP4 PUSH2 0x1F79 JUMP JUMPDEST SWAP2 POP PUSH2 0x2506 DUP3 PUSH2 0x24C5 JUMP JUMPDEST PUSH1 0x20 DUP3 ADD SWAP1 POP SWAP2 SWAP1 POP JUMP JUMPDEST PUSH1 0x0 PUSH1 0x20 DUP3 ADD SWAP1 POP DUP2 DUP2 SUB PUSH1 0x0 DUP4 ADD MSTORE PUSH2 0x252A DUP2 PUSH2 0x24EE JUMP JUMPDEST SWAP1 POP SWAP2 SWAP1 POP JUMP JUMPDEST PUSH32 0x416D6F756E74206578636565647320657863657373205745544E000000000000 PUSH1 0x0 DUP3 ADD MSTORE POP JUMP JUMPDEST PUSH1 0x0 PUSH2 0x2567 PUSH1 0x1A DUP4 PUSH2 0x1F79 JUMP JUMPDEST SWAP2 POP PUSH2 0x2572 DUP3 PUSH2 0x2531 JUMP JUMPDEST PUSH1 0x20 DUP3 ADD SWAP1 POP SWAP2 SWAP1 POP JUMP JUMPDEST PUSH1 0x0 PUSH1 0x20 DUP3 ADD SWAP1 POP DUP2 DUP2 SUB PUSH1 0x0 DUP4 ADD MSTORE PUSH2 0x2596 DUP2 PUSH2 0x255A JUMP JUMPDEST SWAP1 POP SWAP2 SWAP1 POP JUMP JUMPDEST PUSH1 0x0 PUSH1 0x40 DUP3 ADD SWAP1 POP PUSH2 0x25B2 PUSH1 0x0 DUP4 ADD DUP6 PUSH2 0x1C53 JUMP JUMPDEST PUSH2 0x25BF PUSH1 0x20 DUP4 ADD DUP5 PUSH2 0x1D2A JUMP JUMPDEST SWAP4 SWAP3 POP POP POP JUMP JUMPDEST PUSH1 0x0 DUP2 MLOAD SWAP1 POP PUSH2 0x25D5 DUP2 PUSH2 0x1D90 JUMP JUMPDEST SWAP3 SWAP2 POP POP JUMP JUMPDEST PUSH1 0x0 PUSH1 0x20 DUP3 DUP5 SUB SLT ISZERO PUSH2 0x25F1 JUMPI PUSH2 0x25F0 PUSH2 0x1C87 JUMP JUMPDEST JUMPDEST PUSH1 0x0 PUSH2 0x25FF DUP5 DUP3 DUP6 ADD PUSH2 0x25C6 JUMP JUMPDEST SWAP2 POP POP SWAP3 SWAP2 POP POP JUMP JUMPDEST PUSH32 0x546F6B656E207472616E73666572206661696C65640000000000000000000000 PUSH1 0x0 DUP3 ADD MSTORE POP JUMP JUMPDEST PUSH1 0x0 PUSH2 0x263E PUSH1 0x15 DUP4 PUSH2 0x1F79 JUMP JUMPDEST SWAP2 POP PUSH2 0x2649 DUP3 PUSH2 0x2608 JUMP JUMPDEST PUSH1 0x20 DUP3 ADD SWAP1 POP SWAP2 SWAP1 POP JUMP JUMPDEST PUSH1 0x0 PUSH1 0x20 DUP3 ADD SWAP1 POP DUP2 DUP2 SUB PUSH1 0x0 DUP4 ADD MSTORE PUSH2 0x266D DUP2 PUSH2 0x2631 JUMP JUMPDEST SWAP1 POP SWAP2 SWAP1 POP JUMP JUMPDEST PUSH1 0x0 PUSH1 0x60 DUP3 ADD SWAP1 POP PUSH2 0x2689 PUSH1 0x0 DUP4 ADD DUP7 PUSH2 0x1C53 JUMP JUMPDEST PUSH2 0x2696 PUSH1 0x20 DUP4 ADD DUP6 PUSH2 0x1D2A JUMP JUMPDEST PUSH2 0x26A3 PUSH1 0x40 DUP4 ADD DUP5 PUSH2 0x1C53 JUMP JUMPDEST SWAP5 SWAP4 POP POP POP POP JUMP JUMPDEST PUSH32 0x436F72652077616C6C6574207472616E73666572206661696C65640000000000 PUSH1 0x0 DUP3 ADD MSTORE POP JUMP JUMPDEST PUSH1 0x0 PUSH2 0x26E1 PUSH1 0x1B DUP4 PUSH2 0x1F79 JUMP JUMPDEST SWAP2 POP PUSH2 0x26EC DUP3 PUSH2 0x26AB JUMP JUMPDEST PUSH1 0x20 DUP3 ADD SWAP1 POP SWAP2 SWAP1 POP JUMP JUMPDEST PUSH1 0x0 PUSH1 0x20 DUP3 ADD SWAP1 POP DUP2 DUP2 SUB PUSH1 0x0 DUP4 ADD MSTORE PUSH2 0x2710 DUP2 PUSH2 0x26D4 JUMP JUMPDEST SWAP1 POP SWAP2 SWAP1 POP JUMP JUMPDEST PUSH32 0x556E617574686F72697A65643A204F6E6C79206F776E6572206F722077686974 PUSH1 0x0 DUP3 ADD MSTORE PUSH32 0x656C6973746564204E4654000000000000000000000000000000000000000000 PUSH1 0x20 DUP3 ADD MSTORE POP JUMP JUMPDEST PUSH1 0x0 PUSH2 0x2773 PUSH1 0x2B DUP4 PUSH2 0x1F79 JUMP JUMPDEST SWAP2 POP PUSH2 0x277E DUP3 PUSH2 0x2717 JUMP JUMPDEST PUSH1 0x40 DUP3 ADD SWAP1 POP SWAP2 SWAP1 POP JUMP JUMPDEST PUSH1 0x0 PUSH1 0x20 DUP3 ADD SWAP1 POP DUP2 DUP2 SUB PUSH1 0x0 DUP4 ADD MSTORE PUSH2 0x27A2 DUP2 PUSH2 0x2766 JUMP JUMPDEST SWAP1 POP SWAP2 SWAP1 POP JUMP JUMPDEST PUSH32 0x4E6F20636F72652062616C616E636520746F206275726E000000000000000000 PUSH1 0x0 DUP3 ADD MSTORE POP JUMP JUMPDEST PUSH1 0x0 PUSH2 0x27DF PUSH1 0x17 DUP4 PUSH2 0x1F79 JUMP JUMPDEST SWAP2 POP PUSH2 0x27EA DUP3 PUSH2 0x27A9 JUMP JUMPDEST PUSH1 0x20 DUP3 ADD SWAP1 POP SWAP2 SWAP1 POP JUMP JUMPDEST PUSH1 0x0 PUSH1 0x20 DUP3 ADD SWAP1 POP DUP2 DUP2 SUB PUSH1 0x0 DUP4 ADD MSTORE PUSH2 0x280E DUP2 PUSH2 0x27D2 JUMP JUMPDEST SWAP1 POP SWAP2 SWAP1 POP JUMP JUMPDEST PUSH1 0x0 DUP2 MLOAD SWAP1 POP PUSH2 0x2824 DUP2 PUSH2 0x1C91 JUMP JUMPDEST SWAP3 SWAP2 POP POP JUMP JUMPDEST PUSH1 0x0 PUSH1 0x20 DUP3 DUP5 SUB SLT ISZERO PUSH2 0x2840 JUMPI PUSH2 0x283F PUSH2 0x1C87 JUMP JUMPDEST JUMPDEST PUSH1 0x0 PUSH2 0x284E DUP5 DUP3 DUP6 ADD PUSH2 0x2815 JUMP JUMPDEST SWAP2 POP POP SWAP3 SWAP2 POP POP JUMP JUMPDEST PUSH1 0x0 PUSH2 0x2862 DUP3 PUSH2 0x1D20 JUMP JUMPDEST SWAP2 POP PUSH32 0xFFFFFFFFFFFFFFFFFFFFFFFFFFFFFFFFFFFFFFFFFFFFFFFFFFFFFFFFFFFFFFFF DUP3 SUB PUSH2 0x2894 JUMPI PUSH2 0x2893 PUSH2 0x1F16 JUMP JUMPDEST JUMPDEST PUSH1 0x1 DUP3 ADD SWAP1 POP SWAP2 SWAP1 POP JUMP JUMPDEST PUSH32 0x4E487B7100000000000000000000000000000000000000000000000000000000 PUSH1 0x0 MSTORE PUSH1 0x41 PUSH1 0x4 MSTORE PUSH1 0x24 PUSH1 0x0 REVERT JUMPDEST PUSH32 0x4E487B7100000000000000000000000000000000000000000000000000000000 PUSH1 0x0 MSTORE PUSH1 0x32 PUSH1 0x4 MSTORE PUSH1 0x24 PUSH1 0x0 REVERT JUMPDEST PUSH1 0x0 DUP2 MLOAD SWAP1 POP SWAP2 SWAP1 POP JUMP JUMPDEST PUSH1 0x0 DUP3 DUP3 MSTORE PUSH1 0x20 DUP3 ADD SWAP1 POP SWAP3 SWAP2 POP POP JUMP JUMPDEST PUSH1 0x0 DUP2 SWAP1 POP PUSH1 0x20 DUP3 ADD SWAP1 POP SWAP2 SWAP1 POP JUMP JUMPDEST PUSH2 0x2932 DUP2 PUSH2 0x1C41 JUMP JUMPDEST DUP3 MSTORE POP POP JUMP JUMPDEST PUSH1 0x0 PUSH2 0x2944 DUP4 DUP4 PUSH2 0x2929 JUMP JUMPDEST PUSH1 0x20 DUP4 ADD SWAP1 POP SWAP3 SWAP2 POP POP JUMP JUMPDEST PUSH1 0x0 PUSH1 0x20 DUP3 ADD SWAP1 POP SWAP2 SWAP1 POP JUMP JUMPDEST PUSH1 0x0 PUSH2 0x2968 DUP3 PUSH2 0x28FD JUMP JUMPDEST PUSH2 0x2972 DUP2 DUP6 PUSH2 0x2908 JUMP JUMPDEST SWAP4 POP PUSH2 0x297D DUP4 PUSH2 0x2919 JUMP JUMPDEST DUP1 PUSH1 0x0 JUMPDEST DUP4 DUP2 LT ISZERO PUSH2 0x29AE JUMPI DUP2 MLOAD PUSH2 0x2995 DUP9 DUP3 PUSH2 0x2938 JUMP JUMPDEST SWAP8 POP PUSH2 0x29A0 DUP4 PUSH2 0x2950 JUMP JUMPDEST SWAP3 POP POP PUSH1 0x1 DUP2 ADD SWAP1 POP PUSH2 0x2981 JUMP JUMPDEST POP DUP6 SWAP4 POP POP POP POP SWAP3 SWAP2 POP POP JUMP JUMPDEST PUSH1 0x0 PUSH1 0x40 DUP3 ADD SWAP1 POP PUSH2 0x29D0 PUSH1 0x0 DUP4 ADD DUP6 PUSH2 0x1D2A JUMP JUMPDEST DUP2 DUP2 SUB PUSH1 0x20 DUP4 ADD MSTORE PUSH2 0x29E2 DUP2 DUP5 PUSH2 0x295D JUMP JUMPDEST SWAP1 POP SWAP4 SWAP3 POP POP POP JUMP JUMPDEST PUSH1 0x0 DUP1 REVERT JUMPDEST PUSH1 0x0 PUSH1 0x1F NOT PUSH1 0x1F DUP4 ADD AND SWAP1 POP SWAP2 SWAP1 POP JUMP JUMPDEST PUSH2 0x2A0A DUP3 PUSH2 0x29F0 JUMP JUMPDEST DUP2 ADD DUP2 DUP2 LT PUSH8 0xFFFFFFFFFFFFFFFF DUP3 GT OR ISZERO PUSH2 0x2A29 JUMPI PUSH2 0x2A28 PUSH2 0x289F JUMP JUMPDEST JUMPDEST DUP1 PUSH1 0x40 MSTORE POP POP POP JUMP JUMPDEST PUSH1 0x0 PUSH2 0x2A3C PUSH2 0x1C7D JUMP JUMPDEST SWAP1 POP PUSH2 0x2A48 DUP3 DUP3 PUSH2 0x2A01 JUMP JUMPDEST SWAP2 SWAP1 POP JUMP JUMPDEST PUSH1 0x0 PUSH8 0xFFFFFFFFFFFFFFFF DUP3 GT ISZERO PUSH2 0x2A68 JUMPI PUSH2 0x2A67 PUSH2 0x289F JUMP JUMPDEST JUMPDEST PUSH1 0x20 DUP3 MUL SWAP1 POP PUSH1 0x20 DUP2 ADD SWAP1 POP SWAP2 SWAP1 POP JUMP JUMPDEST PUSH1 0x0 DUP1 REVERT JUMPDEST PUSH1 0x0 PUSH2 0x2A91 PUSH2 0x2A8C DUP5 PUSH2 0x2A4D JUMP JUMPDEST PUSH2 0x2A32 JUMP JUMPDEST SWAP1 POP DUP1 DUP4 DUP3 MSTORE PUSH1 0x20 DUP3 ADD SWAP1 POP PUSH1 0x20 DUP5 MUL DUP4 ADD DUP6 DUP2 GT ISZERO PUSH2 0x2AB4 JUMPI PUSH2 0x2AB3 PUSH2 0x2A79 JUMP JUMPDEST JUMPDEST DUP4 JUMPDEST DUP2 DUP2 LT ISZERO PUSH2 0x2ADD JUMPI DUP1 PUSH2 0x2AC9 DUP9 DUP3 PUSH2 0x1ED4 JUMP JUMPDEST DUP5 MSTORE PUSH1 0x20 DUP5 ADD SWAP4 POP POP PUSH1 0x20 DUP2 ADD SWAP1 POP PUSH2 0x2AB6 JUMP JUMPDEST POP POP POP SWAP4 SWAP3 POP POP POP JUMP JUMPDEST PUSH1 0x0 DUP3 PUSH1 0x1F DUP4 ADD SLT PUSH2 0x2AFC JUMPI PUSH2 0x2AFB PUSH2 0x29EB JUMP JUMPDEST JUMPDEST DUP2 MLOAD PUSH2 0x2B0C DUP5 DUP3 PUSH1 0x20 DUP7 ADD PUSH2 0x2A7E JUMP JUMPDEST SWAP2 POP POP SWAP3 SWAP2 POP POP JUMP JUMPDEST PUSH1 0x0 PUSH1 0x20 DUP3 DUP5 SUB SLT ISZERO PUSH2 0x2B2B JUMPI PUSH2 0x2B2A PUSH2 0x1C87 JUMP JUMPDEST JUMPDEST PUSH1 0x0 DUP3 ADD MLOAD PUSH8 0xFFFFFFFFFFFFFFFF DUP2 GT ISZERO PUSH2 0x2B49 JUMPI PUSH2 0x2B48 PUSH2 0x1C8C JUMP JUMPDEST JUMPDEST PUSH2 0x2B55 DUP5 DUP3 DUP6 ADD PUSH2 0x2AE7 JUMP JUMPDEST SWAP2 POP POP SWAP3 SWAP2 POP POP JUMP JUMPDEST PUSH1 0x0 PUSH1 0xA0 DUP3 ADD SWAP1 POP PUSH2 0x2B73 PUSH1 0x0 DUP4 ADD DUP9 PUSH2 0x1D2A JUMP JUMPDEST PUSH2 0x2B80 PUSH1 0x20 DUP4 ADD DUP8 PUSH2 0x1D2A JUMP JUMPDEST DUP2 DUP2 SUB PUSH1 0x40 DUP4 ADD MSTORE PUSH2 0x2B92 DUP2 DUP7 PUSH2 0x295D JUMP JUMPDEST SWAP1 POP PUSH2 0x2BA1 PUSH1 0x60 DUP4 ADD DUP6 PUSH2 0x1C53 JUMP JUMPDEST PUSH2 0x2BAE PUSH1 0x80 DUP4 ADD DUP5 PUSH2 0x1D2A JUMP JUMPDEST SWAP7 SWAP6 POP POP POP POP POP POP JUMP INVALID LOG2 PUSH5 0x6970667358 0x22 SLT KECCAK256 0xCA 0xBA ADDRESS 0xAE 0x1F 0x4D 0xBA 0xCB SAR 0xDA 0x2D 0xCD DUP8 SAR DUP11 STATICCALL POP PUSH21 0x9DF5FE5E9103A25687DB8C0BEC2964736F6C634300 ADDMOD EQ STOP CALLER "
				},
				"gasEstimates": {
					"creation": {
						"codeDepositCost": "2249200",
						"executionCost": "infinite",
						"totalCost": "infinite"
					},
					"external": {
						"": "infinite",
						"BURN_ADDRESS()": "infinite",
						"WETN()": "infinite",
						"addWhitelistedNFT(address)": "infinite",
						"autoBuyAndBurnCore()": "2494",
						"coreBalance()": "2540",
						"coreToken()": "infinite",
						"coreWallet()": "infinite",
						"erevosNFT()": "infinite",
						"isWhitelistedNFT(address)": "2929",
						"manualBuyAndBurnCore()": "infinite",
						"nftBalance()": "2541",
						"owner()": "2589",
						"processIncomingTokens()": "infinite",
						"removeWhitelistedNFT(address)": "infinite",
						"renounceOwnership()": "infinite",
						"rescueETH(uint256,address)": "infinite",
						"rescueTokens(address,uint256,address)": "infinite",
						"setAutoBuyAndBurnCore(bool)": "infinite",
						"transferOwnership(address)": "infinite",
						"whitelistedNFTs(address)": "2935",
						"withdrawCore()": "infinite"
					},
					"internal": {
						"_buyAndBurnCore()": "infinite",
						"_distributeToNFTs()": "infinite",
						"_processIncomingFee(uint256)": "infinite"
					}
				},
				"methodIdentifiers": {
					"BURN_ADDRESS()": "fccc2813",
					"WETN()": "66650b7b",
					"addWhitelistedNFT(address)": "8465093e",
					"autoBuyAndBurnCore()": "7581aa60",
					"coreBalance()": "7499aff4",
					"coreToken()": "0c2b72e9",
					"coreWallet()": "62ab05e7",
					"erevosNFT()": "b2b22d5f",
					"isWhitelistedNFT(address)": "138b7338",
					"manualBuyAndBurnCore()": "dc1a4d9e",
					"nftBalance()": "5301fa6f",
					"owner()": "8da5cb5b",
					"processIncomingTokens()": "dc05a309",
					"removeWhitelistedNFT(address)": "210009cf",
					"renounceOwnership()": "715018a6",
					"rescueETH(uint256,address)": "a0558c3f",
					"rescueTokens(address,uint256,address)": "b37fd190",
					"setAutoBuyAndBurnCore(bool)": "6cdf0e40",
					"transferOwnership(address)": "f2fde38b",
					"whitelistedNFTs(address)": "3f0c188f",
					"withdrawCore()": "c36554ce"
				}
			},
			"storageLayout": {
				"storage": [
					{
						"astId": 1025,
						"contract": "contracts/erevos/AetherScionsFeeReflectionV3.sol:AetherScionsFeeReflectionV3",
						"label": "_status",
						"offset": 0,
						"slot": "0",
						"type": "t_uint256"
					},
					{
						"astId": 845,
						"contract": "contracts/erevos/AetherScionsFeeReflectionV3.sol:AetherScionsFeeReflectionV3",
						"label": "_owner",
						"offset": 0,
						"slot": "1",
						"type": "t_address"
					},
					{
						"astId": 24,
						"contract": "contracts/erevos/AetherScionsFeeReflectionV3.sol:AetherScionsFeeReflectionV3",
						"label": "v2Router",
						"offset": 0,
						"slot": "2",
						"type": "t_contract(UniswapV2Router)819"
					},
					{
						"astId": 28,
						"contract": "contracts/erevos/AetherScionsFeeReflectionV3.sol:AetherScionsFeeReflectionV3",
						"label": "whitelistedNFTs",
						"offset": 0,
						"slot": "3",
						"type": "t_mapping(t_address,t_bool)"
					},
					{
						"astId": 30,
						"contract": "contracts/erevos/AetherScionsFeeReflectionV3.sol:AetherScionsFeeReflectionV3",
						"label": "coreBalance",
						"offset": 0,
						"slot": "4",
						"type": "t_uint256"
					},
					{
						"astId": 32,
						"contract": "contracts/erevos/AetherScionsFeeReflectionV3.sol:AetherScionsFeeReflectionV3",
						"label": "nftBalance",
						"offset": 0,
						"slot": "5",
						"type": "t_uint256"
					},
					{
						"astId": 34,
						"contract": "contracts/erevos/AetherScionsFeeReflectionV3.sol:AetherScionsFeeReflectionV3",
						"label": "autoBuyAndBurnCore",
						"offset": 0,
						"slot": "6",
						"type": "t_bool"
					}
				],
				"types": {
					"t_address": {
						"encoding": "inplace",
						"label": "address",
						"numberOfBytes": "20"
					},
					"t_bool": {
						"encoding": "inplace",
						"label": "bool",
						"numberOfBytes": "1"
					},
					"t_contract(UniswapV2Router)819": {
						"encoding": "inplace",
						"label": "contract UniswapV2Router",
						"numberOfBytes": "20"
					},
					"t_mapping(t_address,t_bool)": {
						"encoding": "mapping",
						"key": "t_address",
						"label": "mapping(address => bool)",
						"numberOfBytes": "32",
						"value": "t_bool"
					},
					"t_uint256": {
						"encoding": "inplace",
						"label": "uint256",
						"numberOfBytes": "32"
					}
				}
			},
			"userdoc": {
				"kind": "user",
				"methods": {
					"rescueETH(uint256,address)": {
						"notice": "Rescue any ETH accidentally sent to the contract"
					},
					"rescueTokens(address,uint256,address)": {
						"notice": "Rescue any ERC20 tokens (including WETN if not part of tracked balances)"
					}
				},
				"version": 1
			}
		}
	}
}