{
	"contracts/CoreClashGameV2.sol": {
		"CoreClashGame": {
			"abi": [
				{
					"inputs": [],
					"stateMutability": "nonpayable",
					"type": "constructor"
				},
				{
					"inputs": [],
					"name": "EmptyRarity",
					"type": "error"
				},
				{
					"inputs": [],
					"name": "LengthMismatch",
					"type": "error"
				},
				{
					"inputs": [],
					"name": "NotOwner",
					"type": "error"
				},
				{
					"inputs": [
						{
							"internalType": "address",
							"name": "token",
							"type": "address"
						}
					],
					"name": "SafeERC20FailedOperation",
					"type": "error"
				},
				{
					"anonymous": false,
					"inputs": [
						{
							"indexed": true,
							"internalType": "uint256",
							"name": "gameId",
							"type": "uint256"
						},
						{
							"indexed": true,
							"internalType": "address",
							"name": "player",
							"type": "address"
						}
					],
					"name": "CommitSubmitted",
					"type": "event"
				},
				{
					"anonymous": false,
					"inputs": [
						{
							"indexed": true,
							"internalType": "uint256",
							"name": "gameId",
							"type": "uint256"
						},
						{
							"indexed": true,
							"internalType": "address",
							"name": "player1",
							"type": "address"
						}
					],
					"name": "GameCreated",
					"type": "event"
				},
				{
					"anonymous": false,
					"inputs": [
						{
							"indexed": true,
							"internalType": "uint256",
							"name": "gameId",
							"type": "uint256"
						},
						{
							"indexed": true,
							"internalType": "address",
							"name": "player2",
							"type": "address"
						}
					],
					"name": "GameJoined",
					"type": "event"
				},
				{
					"anonymous": false,
					"inputs": [
						{
							"indexed": true,
							"internalType": "uint256",
							"name": "gameId",
							"type": "uint256"
						},
						{
							"indexed": false,
							"internalType": "address",
							"name": "winner",
							"type": "address"
						}
					],
					"name": "GameSettled",
					"type": "event"
				},
				{
					"anonymous": false,
					"inputs": [
						{
							"indexed": true,
							"internalType": "address",
							"name": "previous",
							"type": "address"
						},
						{
							"indexed": true,
							"internalType": "address",
							"name": "newWallet",
							"type": "address"
						}
					],
					"name": "HostWalletUpdated",
					"type": "event"
				},
				{
					"anonymous": false,
					"inputs": [
						{
							"indexed": true,
							"internalType": "address",
							"name": "oldOwner",
							"type": "address"
						},
						{
							"indexed": true,
							"internalType": "address",
							"name": "newOwner",
							"type": "address"
						}
					],
					"name": "OwnershipTransferred",
					"type": "event"
				},
				{
					"anonymous": false,
					"inputs": [
						{
							"indexed": false,
							"internalType": "string",
							"name": "rarity",
							"type": "string"
						},
						{
							"indexed": false,
							"internalType": "bool",
							"name": "restricted",
							"type": "bool"
						}
					],
					"name": "RarityRestrictionSet",
					"type": "event"
				},
				{
					"anonymous": false,
					"inputs": [
						{
							"indexed": true,
							"internalType": "uint256",
							"name": "gameId",
							"type": "uint256"
						},
						{
							"indexed": true,
							"internalType": "address",
							"name": "player",
							"type": "address"
						}
					],
					"name": "Revealed",
					"type": "event"
				},
				{
					"anonymous": false,
					"inputs": [
						{
							"indexed": true,
							"internalType": "address",
							"name": "previous",
							"type": "address"
						},
						{
							"indexed": true,
							"internalType": "address",
							"name": "newWallet",
							"type": "address"
						}
					],
					"name": "TeamWalletUpdated",
					"type": "event"
				},
				{
					"anonymous": false,
					"inputs": [
						{
							"indexed": true,
							"internalType": "uint256",
							"name": "gameId",
							"type": "uint256"
						},
						{
							"indexed": false,
							"internalType": "address",
							"name": "winner",
							"type": "address"
						}
					],
					"name": "WinnerPosted",
					"type": "event"
				},
				{
					"inputs": [],
					"name": "COMMIT_TYPEHASH",
					"outputs": [
						{
							"internalType": "bytes32",
							"name": "",
							"type": "bytes32"
						}
					],
					"stateMutability": "view",
					"type": "function"
				},
				{
					"inputs": [],
					"name": "DOMAIN_SEPARATOR",
					"outputs": [
						{
							"internalType": "bytes32",
							"name": "",
							"type": "bytes32"
						}
					],
					"stateMutability": "view",
					"type": "function"
				},
				{
					"inputs": [],
					"name": "REVEAL_WINDOW",
					"outputs": [
						{
							"internalType": "uint256",
							"name": "",
							"type": "uint256"
						}
					],
					"stateMutability": "view",
					"type": "function"
				},
				{
					"inputs": [
						{
							"internalType": "address",
							"name": "",
							"type": "address"
						}
					],
					"name": "allowedERC20",
					"outputs": [
						{
							"internalType": "bool",
							"name": "",
							"type": "bool"
						}
					],
					"stateMutability": "view",
					"type": "function"
				},
				{
					"inputs": [
						{
							"internalType": "uint256",
							"name": "",
							"type": "uint256"
						}
					],
					"name": "backendWinner",
					"outputs": [
						{
							"internalType": "address",
							"name": "",
							"type": "address"
						}
					],
					"stateMutability": "view",
					"type": "function"
				},
				{
					"inputs": [
						{
							"internalType": "uint256",
							"name": "gameId",
							"type": "uint256"
						}
					],
					"name": "cancelUnjoinedGame",
					"outputs": [],
					"stateMutability": "nonpayable",
					"type": "function"
				},
				{
					"inputs": [
						{
							"internalType": "address",
							"name": "stakeToken",
							"type": "address"
						},
						{
							"internalType": "uint256",
							"name": "stakeAmount",
							"type": "uint256"
						},
						{
							"internalType": "bytes32",
							"name": "commit",
							"type": "bytes32"
						}
					],
					"name": "createGame",
					"outputs": [],
					"stateMutability": "nonpayable",
					"type": "function"
				},
				{
					"inputs": [
						{
							"internalType": "uint256",
							"name": "gameId",
							"type": "uint256"
						}
					],
					"name": "forceCancelUnjoinedGame",
					"outputs": [],
					"stateMutability": "nonpayable",
					"type": "function"
				},
				{
					"inputs": [
						{
							"internalType": "uint256",
							"name": "",
							"type": "uint256"
						}
					],
					"name": "games",
					"outputs": [
						{
							"internalType": "address",
							"name": "player1",
							"type": "address"
						},
						{
							"internalType": "address",
							"name": "player2",
							"type": "address"
						},
						{
							"internalType": "address",
							"name": "stakeToken",
							"type": "address"
						},
						{
							"internalType": "uint256",
							"name": "stakeAmount",
							"type": "uint256"
						},
						{
							"internalType": "bytes32",
							"name": "player1Commit",
							"type": "bytes32"
						},
						{
							"internalType": "bytes32",
							"name": "player2Commit",
							"type": "bytes32"
						},
						{
							"internalType": "bool",
							"name": "player1Revealed",
							"type": "bool"
						},
						{
							"internalType": "bool",
							"name": "player2Revealed",
							"type": "bool"
						},
						{
							"internalType": "uint256",
							"name": "createdAt",
							"type": "uint256"
						},
						{
							"internalType": "uint256",
							"name": "joinTimestamp",
							"type": "uint256"
						},
						{
							"internalType": "uint256",
							"name": "revealDeadline",
							"type": "uint256"
						},
						{
							"internalType": "bool",
							"name": "settled",
							"type": "bool"
						}
					],
					"stateMutability": "view",
					"type": "function"
				},
				{
					"inputs": [],
					"name": "gamesLength",
					"outputs": [
						{
							"internalType": "uint256",
							"name": "",
							"type": "uint256"
						}
					],
					"stateMutability": "view",
					"type": "function"
				},
				{
					"inputs": [],
					"name": "hostWallet",
					"outputs": [
						{
							"internalType": "address",
							"name": "",
							"type": "address"
						}
					],
					"stateMutability": "view",
					"type": "function"
				},
				{
					"inputs": [
						{
							"internalType": "string",
							"name": "rarity",
							"type": "string"
						}
					],
					"name": "isRestrictedRarity",
					"outputs": [
						{
							"internalType": "bool",
							"name": "",
							"type": "bool"
						}
					],
					"stateMutability": "view",
					"type": "function"
				},
				{
					"inputs": [
						{
							"internalType": "uint256",
							"name": "gameId",
							"type": "uint256"
						},
						{
							"internalType": "bytes32",
							"name": "commit",
							"type": "bytes32"
						}
					],
					"name": "joinGame",
					"outputs": [],
					"stateMutability": "nonpayable",
					"type": "function"
				},
				{
					"inputs": [],
					"name": "owner",
					"outputs": [
						{
							"internalType": "address",
							"name": "",
							"type": "address"
						}
					],
					"stateMutability": "view",
					"type": "function"
				},
				{
					"inputs": [],
					"name": "platformFee",
					"outputs": [
						{
							"internalType": "uint256",
							"name": "",
							"type": "uint256"
						}
					],
					"stateMutability": "view",
					"type": "function"
				},
				{
					"inputs": [
						{
							"internalType": "uint256",
							"name": "gameId",
							"type": "uint256"
						},
						{
							"internalType": "address",
							"name": "winner",
							"type": "address"
						}
					],
					"name": "postWinner",
					"outputs": [],
					"stateMutability": "nonpayable",
					"type": "function"
				},
				{
					"inputs": [
						{
							"internalType": "uint256",
							"name": "gameId",
							"type": "uint256"
						},
						{
							"internalType": "uint256",
							"name": "salt",
							"type": "uint256"
						},
						{
							"internalType": "address[3]",
							"name": "nftContracts",
							"type": "address[3]"
						},
						{
							"internalType": "uint256[3]",
							"name": "nftIds",
							"type": "uint256[3]"
						},
						{
							"internalType": "string[3]",
							"name": "backgrounds",
							"type": "string[3]"
						}
					],
					"name": "reveal",
					"outputs": [],
					"stateMutability": "nonpayable",
					"type": "function"
				},
				{
					"inputs": [
						{
							"internalType": "address",
							"name": "token",
							"type": "address"
						},
						{
							"internalType": "bool",
							"name": "allowed",
							"type": "bool"
						}
					],
					"name": "setAllowedERC20",
					"outputs": [],
					"stateMutability": "nonpayable",
					"type": "function"
				},
				{
					"inputs": [
						{
							"internalType": "address",
							"name": "wallet",
							"type": "address"
						}
					],
					"name": "setHostWallet",
					"outputs": [],
					"stateMutability": "nonpayable",
					"type": "function"
				},
				{
					"inputs": [
						{
							"internalType": "uint256",
							"name": "feeBps",
							"type": "uint256"
						}
					],
					"name": "setPlatformFee",
					"outputs": [],
					"stateMutability": "nonpayable",
					"type": "function"
				},
				{
					"inputs": [
						{
							"internalType": "string[]",
							"name": "rarities",
							"type": "string[]"
						},
						{
							"internalType": "bool[]",
							"name": "restricted",
							"type": "bool[]"
						}
					],
					"name": "setRestrictedRarities",
					"outputs": [],
					"stateMutability": "nonpayable",
					"type": "function"
				},
				{
					"inputs": [
						{
							"internalType": "string",
							"name": "rarity",
							"type": "string"
						},
						{
							"internalType": "bool",
							"name": "restricted",
							"type": "bool"
						}
					],
					"name": "setRestrictedRarity",
					"outputs": [],
					"stateMutability": "nonpayable",
					"type": "function"
				},
				{
					"inputs": [
						{
							"internalType": "address",
							"name": "wallet",
							"type": "address"
						}
					],
					"name": "setTeamWallet",
					"outputs": [],
					"stateMutability": "nonpayable",
					"type": "function"
				},
				{
					"inputs": [
						{
							"internalType": "uint256",
							"name": "gameId",
							"type": "uint256"
						}
					],
					"name": "settleGame",
					"outputs": [],
					"stateMutability": "nonpayable",
					"type": "function"
				},
				{
					"inputs": [
						{
							"internalType": "uint256",
							"name": "gameId",
							"type": "uint256"
						},
						{
							"internalType": "bytes32",
							"name": "commit",
							"type": "bytes32"
						},
						{
							"internalType": "uint8",
							"name": "v",
							"type": "uint8"
						},
						{
							"internalType": "bytes32",
							"name": "r",
							"type": "bytes32"
						},
						{
							"internalType": "bytes32",
							"name": "s",
							"type": "bytes32"
						}
					],
					"name": "submitCommit",
					"outputs": [],
					"stateMutability": "nonpayable",
					"type": "function"
				},
				{
					"inputs": [],
					"name": "teamWallet",
					"outputs": [
						{
							"internalType": "address",
							"name": "",
							"type": "address"
						}
					],
					"stateMutability": "view",
					"type": "function"
				},
				{
					"inputs": [
						{
							"internalType": "address",
							"name": "newOwner",
							"type": "address"
						}
					],
					"name": "transferOwnership",
					"outputs": [],
					"stateMutability": "nonpayable",
					"type": "function"
				}
			],
			"devdoc": {
				"errors": {
					"SafeERC20FailedOperation(address)": [
						{
							"details": "An operation with an ERC-20 token failed."
						}
					]
				},
				"kind": "dev",
				"methods": {
					"cancelUnjoinedGame(uint256)": {
						"details": "Refunds the full stake to player1. Game is marked as settled to prevent reuse.",
						"params": {
							"gameId": "The ID of the game to cancel"
						}
					},
					"forceCancelUnjoinedGame(uint256)": {
						"details": "Useful for stuck games or emergency situations. Refunds player1.",
						"params": {
							"gameId": "The ID of the game to force cancel"
						}
					}
				},
				"version": 1
			},
			"evm": {
				"assembly": "    /* \"contracts/CoreClashGameV2.sol\":292:14115  contract CoreClashGame is CoreClashRarityLookupTable {... */\n  mstore(0x40, 0x80)\n    /* \"contracts/CoreClashGameV2.sol\":2523:2941  constructor() {... */\n  callvalue\n  dup1\n  iszero\n  tag_1\n  jumpi\n  0x00\n  dup1\n  revert\ntag_1:\n  pop\n    /* \"contracts/CoreClashRarityLookupTable.sol\":1741:1746  owner */\n  0x01\n    /* \"contracts/CoreClashRarityLookupTable.sol\":1741:1759  owner = msg.sender */\n  dup1\n  sload\n  not(sub(shl(0xa0, 0x01), 0x01))\n  and\n    /* \"contracts/CoreClashRarityLookupTable.sol\":1749:1759  msg.sender */\n  caller\n    /* \"contracts/CoreClashRarityLookupTable.sol\":1741:1759  owner = msg.sender */\n  or\n  swap1\n  sstore\n    /* \"contracts/CoreClashRarityLookupTable.sol\":1770:1792  _initDefaultRarities() */\n  tag_5\n    /* \"contracts/CoreClashRarityLookupTable.sol\":1770:1790  _initDefaultRarities */\n  tag_6\n    /* \"contracts/CoreClashRarityLookupTable.sol\":1770:1792  _initDefaultRarities() */\n  jump\t// in\ntag_5:\n    /* \"contracts/CoreClashGameV2.sol\":2784:2802  bytes(\"CoreClash\") */\n  0x40\n  dup1\n  mload\n  dup1\n  dup3\n  add\n  dup3\n  mstore\n  0x09\n  dup2\n  mstore\n  shl(0xbb, 0x086dee4ca86d8c2e6d)\n  0x20\n  swap2\n  dup3\n  add\n  mstore\n    /* \"contracts/CoreClashGameV2.sol\":2832:2842  bytes(\"1\") */\n  dup2\n  mload\n  dup1\n  dup4\n  add\n  dup4\n  mstore\n  0x01\n  dup2\n  mstore\n  shl(0xf8, 0x31)\n  swap1\n  dup3\n  add\n  mstore\n    /* \"contracts/CoreClashGameV2.sol\":2591:2922  abi.encode(... */\n  dup2\n  mload\n    /* \"contracts/CoreClashGameV2.sol\":2620:2755  keccak256(... */\n  0x8b73c3c69bb8fe3d512ecc4cf759cc79239f7b179b0ffacaa9a75d522b39400f\n    /* \"contracts/CoreClashGameV2.sol\":2591:2922  abi.encode(... */\n  dup2\n  dup4\n  add\n    /* \"#utility.yul\":273:298   */\n  mstore\n    /* \"contracts/CoreClashGameV2.sol\":2774:2803  keccak256(bytes(\"CoreClash\")) */\n  0x0c679178cea08b1ad1ee3cb6425bc9132165f9002dd9b983dbbc3e17f33dbc13\n    /* \"#utility.yul\":314:332   */\n  dup2\n  dup5\n  add\n    /* \"#utility.yul\":307:341   */\n  mstore\n    /* \"contracts/CoreClashGameV2.sol\":2822:2843  keccak256(bytes(\"1\")) */\n  0xc89efdaa54c0f20c7adf612882df0950f5a951637e0307cdcb4c672f298b8bc6\n    /* \"#utility.yul\":357:375   */\n  0x60\n  dup3\n  add\n    /* \"#utility.yul\":350:384   */\n  mstore\n    /* \"contracts/CoreClashGameV2.sol\":2862:2875  block.chainid */\n  chainid\n    /* \"#utility.yul\":400:418   */\n  0x80\n  dup3\n  add\n    /* \"#utility.yul\":393:427   */\n  mstore\n    /* \"contracts/CoreClashGameV2.sol\":2902:2906  this */\n  address\n    /* \"#utility.yul\":443:462   */\n  0xa0\n  dup1\n  dup4\n  add\n    /* \"#utility.yul\":436:497   */\n  swap2\n  swap1\n  swap2\n  mstore\n    /* \"contracts/CoreClashGameV2.sol\":2591:2922  abi.encode(... */\n  dup4\n  mload\n  dup1\n  dup4\n  sub\n  swap1\n  swap2\n  add\n  dup2\n  mstore\n    /* \"#utility.yul\":245:264   */\n  0xc0\n  swap1\n  swap2\n  add\n    /* \"contracts/CoreClashGameV2.sol\":2591:2922  abi.encode(... */\n  swap1\n  swap3\n  mstore\n    /* \"contracts/CoreClashGameV2.sol\":2567:2933  keccak256(... */\n  dup2\n  mload\n  swap2\n  add\n  keccak256\n    /* \"contracts/CoreClashGameV2.sol\":2548:2564  DOMAIN_SEPARATOR */\n  0x02\n    /* \"contracts/CoreClashGameV2.sol\":2548:2933  DOMAIN_SEPARATOR = keccak256(... */\n  sstore\n    /* \"contracts/CoreClashGameV2.sol\":292:14115  contract CoreClashGame is CoreClashRarityLookupTable {... */\n  jump(tag_20)\n    /* \"contracts/CoreClashRarityLookupTable.sol\":1808:2119  function _initDefaultRarities() internal {... */\ntag_6:\n    /* \"contracts/CoreClashRarityLookupTable.sol\":1860:1896  _setRestrictedInternal(\"Gold\", true) */\n  0x40\n  dup1\n  mload\n  dup1\n  dup3\n  add\n  swap1\n  swap2\n  mstore\n  0x04\n  dup2\n  mstore\n  shl(0xe2, 0x11dbdb19)\n  0x20\n  dup3\n  add\n  mstore\n  tag_12\n  swap1\n    /* \"contracts/CoreClashRarityLookupTable.sol\":1891:1895  true */\n  0x01\n    /* \"contracts/CoreClashRarityLookupTable.sol\":1860:1882  _setRestrictedInternal */\n  tag_13\n    /* \"contracts/CoreClashRarityLookupTable.sol\":1860:1896  _setRestrictedInternal(\"Gold\", true) */\n  jump\t// in\ntag_12:\n    /* \"contracts/CoreClashRarityLookupTable.sol\":1907:1945  _setRestrictedInternal(\"Silver\", true) */\n  0x40\n  dup1\n  mload\n  dup1\n  dup3\n  add\n  swap1\n  swap2\n  mstore\n  0x06\n  dup2\n  mstore\n  shl(0xd1, 0x29b4b63b32b9)\n  0x20\n  dup3\n  add\n  mstore\n  tag_14\n  swap1\n    /* \"contracts/CoreClashRarityLookupTable.sol\":1940:1944  true */\n  0x01\n    /* \"contracts/CoreClashRarityLookupTable.sol\":1907:1929  _setRestrictedInternal */\n  tag_13\n    /* \"contracts/CoreClashRarityLookupTable.sol\":1907:1945  _setRestrictedInternal(\"Silver\", true) */\n  jump\t// in\ntag_14:\n    /* \"contracts/CoreClashRarityLookupTable.sol\":1956:2001  _setRestrictedInternal(\"Verdant Green\", true) */\n  0x40\n  dup1\n  mload\n  dup1\n  dup3\n  add\n  swap1\n  swap2\n  mstore\n  0x0d\n  dup2\n  mstore\n  shl(0x99, 0x2b32b93230b73a1023b932b2b7)\n  0x20\n  dup3\n  add\n  mstore\n  tag_15\n  swap1\n    /* \"contracts/CoreClashRarityLookupTable.sol\":1996:2000  true */\n  0x01\n    /* \"contracts/CoreClashRarityLookupTable.sol\":1956:1978  _setRestrictedInternal */\n  tag_13\n    /* \"contracts/CoreClashRarityLookupTable.sol\":1956:2001  _setRestrictedInternal(\"Verdant Green\", true) */\n  jump\t// in\ntag_15:\n    /* \"contracts/CoreClashRarityLookupTable.sol\":2012:2053  _setRestrictedInternal(\"Rose Gold\", true) */\n  0x40\n  dup1\n  mload\n  dup1\n  dup3\n  add\n  swap1\n  swap2\n  mstore\n  0x09\n  dup2\n  mstore\n  shl(0xba, 0x149bdcd94811dbdb19)\n  0x20\n  dup3\n  add\n  mstore\n  tag_16\n  swap1\n    /* \"contracts/CoreClashRarityLookupTable.sol\":2048:2052  true */\n  0x01\n    /* \"contracts/CoreClashRarityLookupTable.sol\":2012:2034  _setRestrictedInternal */\n  tag_13\n    /* \"contracts/CoreClashRarityLookupTable.sol\":2012:2053  _setRestrictedInternal(\"Rose Gold\", true) */\n  jump\t// in\ntag_16:\n    /* \"contracts/CoreClashRarityLookupTable.sol\":1808:2119  function _initDefaultRarities() internal {... */\n  jump\t// out\n    /* \"contracts/CoreClashRarityLookupTable.sol\":2318:2583  function _setRestrictedInternal(... */\ntag_13:\n    /* \"contracts/CoreClashRarityLookupTable.sol\":2449:2473  keccak256(bytes(rarity)) */\n  dup2\n  mload\n  0x20\n  dup1\n  dup5\n  add\n  swap2\n  swap1\n  swap2\n  keccak256\n    /* \"contracts/CoreClashRarityLookupTable.sol\":2434:2446  bytes32 hash */\n  0x00\n    /* \"contracts/CoreClashRarityLookupTable.sol\":2484:2506  restrictedRarity[hash] */\n  dup2\n  dup2\n  mstore\n  swap2\n  dup3\n  swap1\n  mstore\n  0x40\n  swap2\n  dup3\n  swap1\n  keccak256\n    /* \"contracts/CoreClashRarityLookupTable.sol\":2484:2519  restrictedRarity[hash] = restricted */\n  dup1\n  sload\n  not(0xff)\n  and\n  dup5\n  iszero\n  iszero\n  or\n  swap1\n  sstore\n    /* \"contracts/CoreClashRarityLookupTable.sol\":2535:2575  RarityRestrictionSet(rarity, restricted) */\n  swap1\n  mload\n  0x71597d70b120b69b2ed3763b127f0f73d5475cd67f32065088360e0586a8b250\n  swap1\n  tag_18\n  swap1\n    /* \"contracts/CoreClashRarityLookupTable.sol\":2449:2473  keccak256(bytes(rarity)) */\n  dup6\n  swap1\n    /* \"contracts/CoreClashRarityLookupTable.sol\":2484:2519  restrictedRarity[hash] = restricted */\n  dup6\n  swap1\n    /* \"contracts/CoreClashRarityLookupTable.sol\":2535:2575  RarityRestrictionSet(rarity, restricted) */\n  tag_19\n  jump\t// in\ntag_18:\n  mload(0x40)\n  dup1\n  swap2\n  sub\n  swap1\n  log1\n    /* \"contracts/CoreClashRarityLookupTable.sol\":2423:2583  {... */\n  pop\n    /* \"contracts/CoreClashRarityLookupTable.sol\":2318:2583  function _setRestrictedInternal(... */\n  pop\n  pop\n  jump\t// out\n    /* \"#utility.yul\":508:1122   */\ntag_19:\n    /* \"#utility.yul\":679:681   */\n  0x40\n    /* \"#utility.yul\":668:677   */\n  dup2\n    /* \"#utility.yul\":661:682   */\n  mstore\n    /* \"#utility.yul\":642:646   */\n  0x00\n    /* \"#utility.yul\":711:717   */\n  dup4\n    /* \"#utility.yul\":705:718   */\n  mload\n    /* \"#utility.yul\":754:760   */\n  dup1\n    /* \"#utility.yul\":749:751   */\n  0x40\n    /* \"#utility.yul\":738:747   */\n  dup5\n    /* \"#utility.yul\":734:752   */\n  add\n    /* \"#utility.yul\":727:761   */\n  mstore\n    /* \"#utility.yul\":779:780   */\n  0x00\n    /* \"#utility.yul\":789:933   */\ntag_23:\n    /* \"#utility.yul\":803:809   */\n  dup2\n    /* \"#utility.yul\":800:801   */\n  dup2\n    /* \"#utility.yul\":797:810   */\n  lt\n    /* \"#utility.yul\":789:933   */\n  iszero\n  tag_25\n  jumpi\n    /* \"#utility.yul\":916:920   */\n  0x20\n    /* \"#utility.yul\":900:914   */\n  dup2\n  dup8\n  add\n    /* \"#utility.yul\":896:921   */\n  dup2\n  add\n    /* \"#utility.yul\":890:922   */\n  mload\n    /* \"#utility.yul\":885:887   */\n  0x60\n    /* \"#utility.yul\":866:883   */\n  dup7\n  dup5\n  add\n    /* \"#utility.yul\":862:888   */\n  add\n    /* \"#utility.yul\":855:923   */\n  mstore\n    /* \"#utility.yul\":818:830   */\n  add\n    /* \"#utility.yul\":789:933   */\n  jump(tag_23)\ntag_25:\n    /* \"#utility.yul\":793:796   */\n  pop\n    /* \"#utility.yul\":982:983   */\n  0x00\n    /* \"#utility.yul\":977:979   */\n  0x60\n    /* \"#utility.yul\":968:974   */\n  dup3\n    /* \"#utility.yul\":957:966   */\n  dup6\n    /* \"#utility.yul\":953:975   */\n  add\n    /* \"#utility.yul\":949:980   */\n  add\n    /* \"#utility.yul\":942:984   */\n  mstore\n    /* \"#utility.yul\":1052:1054   */\n  0x60\n    /* \"#utility.yul\":1045:1047   */\n  0x1f\n    /* \"#utility.yul\":1041:1048   */\n  not\n    /* \"#utility.yul\":1036:1038   */\n  0x1f\n    /* \"#utility.yul\":1028:1034   */\n  dup4\n    /* \"#utility.yul\":1024:1039   */\n  add\n    /* \"#utility.yul\":1020:1049   */\n  and\n    /* \"#utility.yul\":1009:1018   */\n  dup5\n    /* \"#utility.yul\":1005:1050   */\n  add\n    /* \"#utility.yul\":1001:1055   */\n  add\n    /* \"#utility.yul\":993:1055   */\n  swap2\n  pop\n  pop\n    /* \"#utility.yul\":1107:1113   */\n  dup3\n    /* \"#utility.yul\":1100:1114   */\n  iszero\n    /* \"#utility.yul\":1093:1115   */\n  iszero\n    /* \"#utility.yul\":1086:1090   */\n  0x20\n    /* \"#utility.yul\":1075:1084   */\n  dup4\n    /* \"#utility.yul\":1071:1091   */\n  add\n    /* \"#utility.yul\":1064:1116   */\n  mstore\n    /* \"#utility.yul\":508:1122   */\n  swap4\n  swap3\n  pop\n  pop\n  pop\n  jump\t// out\ntag_20:\n    /* \"contracts/CoreClashGameV2.sol\":292:14115  contract CoreClashGame is CoreClashRarityLookupTable {... */\n  dataSize(sub_0)\n  dup1\n  dataOffset(sub_0)\n  0x00\n  codecopy\n  0x00\n  return\nstop\n\nsub_0: assembly {\n        /* \"contracts/CoreClashGameV2.sol\":292:14115  contract CoreClashGame is CoreClashRarityLookupTable {... */\n      mstore(0x40, 0x80)\n      callvalue\n      dup1\n      iszero\n      tag_1\n      jumpi\n      0x00\n      dup1\n      revert\n    tag_1:\n      pop\n      jumpi(tag_2, lt(calldatasize, 0x04))\n      shr(0xe0, calldataload(0x00))\n      dup1\n      0x59927044\n      gt\n      tag_30\n      jumpi\n      dup1\n      0xb710c52c\n      gt\n      tag_31\n      jumpi\n      dup1\n      0xf013035c\n      gt\n      tag_32\n      jumpi\n      dup1\n      0xf013035c\n      eq\n      tag_26\n      jumpi\n      dup1\n      0xf2fde38b\n      eq\n      tag_27\n      jumpi\n      dup1\n      0xf63d71e8\n      eq\n      tag_28\n      jumpi\n      dup1\n      0xf969e592\n      eq\n      tag_29\n      jumpi\n      0x00\n      dup1\n      revert\n    tag_32:\n      dup1\n      0xb710c52c\n      eq\n      tag_23\n      jumpi\n      dup1\n      0xd20fd070\n      eq\n      tag_24\n      jumpi\n      dup1\n      0xda6636cc\n      eq\n      tag_25\n      jumpi\n      0x00\n      dup1\n      revert\n    tag_31:\n      dup1\n      0x8a75233c\n      gt\n      tag_33\n      jumpi\n      dup1\n      0x8a75233c\n      eq\n      tag_19\n      jumpi\n      dup1\n      0x8da5cb5b\n      eq\n      tag_20\n      jumpi\n      dup1\n      0xa8a6196f\n      eq\n      tag_21\n      jumpi\n      dup1\n      0xac952671\n      eq\n      tag_22\n      jumpi\n      0x00\n      dup1\n      revert\n    tag_33:\n      dup1\n      0x59927044\n      eq\n      tag_16\n      jumpi\n      dup1\n      0x6093ae62\n      eq\n      tag_17\n      jumpi\n      dup1\n      0x78150b06\n      eq\n      tag_18\n      jumpi\n      0x00\n      dup1\n      revert\n    tag_30:\n      dup1\n      0x20eba3f2\n      gt\n      tag_34\n      jumpi\n      dup1\n      0x3644e515\n      gt\n      tag_35\n      jumpi\n      dup1\n      0x3644e515\n      eq\n      tag_12\n      jumpi\n      dup1\n      0x37479beb\n      eq\n      tag_13\n      jumpi\n      dup1\n      0x4c7b0754\n      eq\n      tag_14\n      jumpi\n      dup1\n      0x4e714ac3\n      eq\n      tag_15\n      jumpi\n      0x00\n      dup1\n      revert\n    tag_35:\n      dup1\n      0x20eba3f2\n      eq\n      tag_9\n      jumpi\n      dup1\n      0x26232a2e\n      eq\n      tag_10\n      jumpi\n      dup1\n      0x312d7bbc\n      eq\n      tag_11\n      jumpi\n      0x00\n      dup1\n      revert\n    tag_34:\n      dup1\n      0x03b55dac\n      eq\n      tag_3\n      jumpi\n      dup1\n      0x117a5b90\n      eq\n      tag_4\n      jumpi\n      dup1\n      0x12e8e2c3\n      eq\n      tag_5\n      jumpi\n      dup1\n      0x14f8fb9b\n      eq\n      tag_6\n      jumpi\n      dup1\n      0x1525ff7d\n      eq\n      tag_7\n      jumpi\n      dup1\n      0x17e931cf\n      eq\n      tag_8\n      jumpi\n    tag_2:\n      0x00\n      dup1\n      revert\n        /* \"contracts/CoreClashGameV2.sol\":5033:5968  function createGame(... */\n    tag_3:\n      tag_36\n      tag_37\n      calldatasize\n      0x04\n      tag_38\n      jump\t// in\n    tag_37:\n      tag_39\n      jump\t// in\n    tag_36:\n      stop\n        /* \"contracts/CoreClashGameV2.sol\":1350:1369  Game[] public games */\n    tag_4:\n      tag_40\n      tag_41\n      calldatasize\n      0x04\n      tag_42\n      jump\t// in\n    tag_41:\n      tag_43\n      jump\t// in\n    tag_40:\n      0x40\n      dup1\n      mload\n      sub(shl(0xa0, 0x01), 0x01)\n        /* \"#utility.yul\":1218:1233   */\n      swap14\n      dup15\n      and\n        /* \"#utility.yul\":1200:1234   */\n      dup2\n      mstore\n        /* \"#utility.yul\":1270:1285   */\n      swap12\n      dup14\n      and\n        /* \"#utility.yul\":1265:1267   */\n      0x20\n        /* \"#utility.yul\":1250:1268   */\n      dup14\n      add\n        /* \"#utility.yul\":1243:1286   */\n      mstore\n        /* \"#utility.yul\":1322:1337   */\n      swap10\n      swap1\n      swap12\n      and\n        /* \"#utility.yul\":1302:1320   */\n      swap9\n      dup11\n      add\n        /* \"#utility.yul\":1295:1338   */\n      swap9\n      swap1\n      swap9\n      mstore\n        /* \"#utility.yul\":1369:1371   */\n      0x60\n        /* \"#utility.yul\":1354:1372   */\n      dup10\n      add\n        /* \"#utility.yul\":1347:1381   */\n      swap7\n      swap1\n      swap7\n      mstore\n        /* \"#utility.yul\":1412:1415   */\n      0x80\n        /* \"#utility.yul\":1397:1416   */\n      dup9\n      add\n        /* \"#utility.yul\":1390:1425   */\n      swap5\n      swap1\n      swap5\n      mstore\n        /* \"#utility.yul\":1180:1183   */\n      0xa0\n        /* \"#utility.yul\":1441:1460   */\n      dup8\n      add\n        /* \"#utility.yul\":1434:1469   */\n      swap3\n      swap1\n      swap3\n      mstore\n        /* \"#utility.yul\":1513:1527   */\n      iszero\n        /* \"#utility.yul\":1506:1528   */\n      iszero\n        /* \"#utility.yul\":1500:1503   */\n      0xc0\n        /* \"#utility.yul\":1485:1504   */\n      dup7\n      add\n        /* \"#utility.yul\":1478:1529   */\n      mstore\n        /* \"#utility.yul\":1573:1587   */\n      iszero\n        /* \"#utility.yul\":1566:1588   */\n      iszero\n        /* \"#utility.yul\":1560:1563   */\n      0xe0\n        /* \"#utility.yul\":1545:1564   */\n      dup6\n      add\n        /* \"#utility.yul\":1538:1589   */\n      mstore\n        /* \"#utility.yul\":1620:1623   */\n      0x0100\n        /* \"#utility.yul\":1605:1624   */\n      dup5\n      add\n        /* \"#utility.yul\":1598:1633   */\n      mstore\n        /* \"#utility.yul\":1664:1667   */\n      0x0120\n        /* \"#utility.yul\":1649:1668   */\n      dup4\n      add\n        /* \"#utility.yul\":1642:1677   */\n      mstore\n        /* \"#utility.yul\":1708:1711   */\n      0x0140\n        /* \"#utility.yul\":1693:1712   */\n      dup3\n      add\n        /* \"#utility.yul\":1686:1722   */\n      mstore\n        /* \"#utility.yul\":1766:1781   */\n      swap1\n      iszero\n        /* \"#utility.yul\":1759:1782   */\n      iszero\n        /* \"#utility.yul\":1753:1756   */\n      0x0160\n        /* \"#utility.yul\":1738:1757   */\n      dup3\n      add\n        /* \"#utility.yul\":1731:1783   */\n      mstore\n        /* \"#utility.yul\":1149:1152   */\n      0x0180\n        /* \"#utility.yul\":1134:1153   */\n      add\n        /* \"contracts/CoreClashGameV2.sol\":1350:1369  Game[] public games */\n    tag_44:\n      mload(0x40)\n      dup1\n      swap2\n      sub\n      swap1\n      return\n        /* \"contracts/CoreClashGameV2.sol\":3626:3774  function setPlatformFee(uint256 feeBps) external onlyOwner {... */\n    tag_5:\n      tag_36\n      tag_47\n      calldatasize\n      0x04\n      tag_42\n      jump\t// in\n    tag_47:\n      tag_48\n      jump\t// in\n        /* \"contracts/CoreClashGameV2.sol\":1378:1422  mapping(address => bool) public allowedERC20 */\n    tag_6:\n      tag_49\n      tag_50\n      calldatasize\n      0x04\n      tag_51\n      jump\t// in\n    tag_50:\n      mstore(0x20, 0x04)\n      0x00\n      swap1\n      dup2\n      mstore\n      0x40\n      swap1\n      keccak256\n      sload\n      0xff\n      and\n      dup2\n      jump\n    tag_49:\n      mload(0x40)\n        /* \"#utility.yul\":2211:2225   */\n      swap1\n      iszero\n        /* \"#utility.yul\":2204:2226   */\n      iszero\n        /* \"#utility.yul\":2186:2227   */\n      dup2\n      mstore\n        /* \"#utility.yul\":2174:2176   */\n      0x20\n        /* \"#utility.yul\":2159:2177   */\n      add\n        /* \"contracts/CoreClashGameV2.sol\":1378:1422  mapping(address => bool) public allowedERC20 */\n      tag_44\n        /* \"#utility.yul\":2046:2233   */\n      jump\n        /* \"contracts/CoreClashGameV2.sol\":3867:4072  function setTeamWallet(address wallet) external onlyOwner {... */\n    tag_7:\n      tag_36\n      tag_56\n      calldatasize\n      0x04\n      tag_51\n      jump\t// in\n    tag_56:\n      tag_57\n      jump\t// in\n        /* \"contracts/CoreClashGameV2.sol\":571:617  uint256 public constant REVEAL_WINDOW = 5 days */\n    tag_8:\n      tag_58\n        /* \"contracts/CoreClashGameV2.sol\":611:617  5 days */\n      0x069780\n        /* \"contracts/CoreClashGameV2.sol\":571:617  uint256 public constant REVEAL_WINDOW = 5 days */\n      dup2\n      jump\n    tag_58:\n      mload(0x40)\n        /* \"#utility.yul\":2384:2409   */\n      swap1\n      dup2\n      mstore\n        /* \"#utility.yul\":2372:2374   */\n      0x20\n        /* \"#utility.yul\":2357:2375   */\n      add\n        /* \"contracts/CoreClashGameV2.sol\":571:617  uint256 public constant REVEAL_WINDOW = 5 days */\n      tag_44\n        /* \"#utility.yul\":2238:2415   */\n      jump\n        /* \"contracts/CoreClashGameV2.sol\":1630:1723  function gamesLength() external view returns (uint256) {... */\n    tag_9:\n        /* \"contracts/CoreClashGameV2.sol\":1703:1708  games */\n      0x03\n        /* \"contracts/CoreClashGameV2.sol\":1703:1715  games.length */\n      sload\n        /* \"contracts/CoreClashGameV2.sol\":1630:1723  function gamesLength() external view returns (uint256) {... */\n      jump(tag_58)\n        /* \"contracts/CoreClashGameV2.sol\":1547:1573  uint256 public platformFee */\n    tag_10:\n      tag_58\n      sload(0x07)\n      dup2\n      jump\n        /* \"contracts/CoreClashGameV2.sol\":9647:10466  function settleGame(uint256 gameId) external {... */\n    tag_11:\n      tag_36\n      tag_69\n      calldatasize\n      0x04\n      tag_42\n      jump\t// in\n    tag_69:\n      tag_70\n      jump\t// in\n        /* \"contracts/CoreClashGameV2.sol\":736:767  bytes32 public DOMAIN_SEPARATOR */\n    tag_12:\n      tag_58\n      sload(0x02)\n      dup2\n      jump\n        /* \"contracts/CoreClashGameV2.sol\":626:727  bytes32 public constant COMMIT_TYPEHASH =... */\n    tag_13:\n      tag_58\n        /* \"contracts/CoreClashGameV2.sol\":677:727  keccak256(\"Commit(uint256 gameId,bytes32 commit)\") */\n      0xf9a4bb626f7677582ca1a01dcf5e2aa8f3de98d999adc0598509571b99fe8adb\n        /* \"contracts/CoreClashGameV2.sol\":626:727  bytes32 public constant COMMIT_TYPEHASH =... */\n      dup2\n      jump\n        /* \"contracts/CoreClashGameV2.sol\":1429:1477  mapping(uint256 => address) public backendWinner */\n    tag_14:\n      tag_78\n      tag_79\n      calldatasize\n      0x04\n      tag_42\n      jump\t// in\n    tag_79:\n      mstore(0x20, 0x05)\n      0x00\n      swap1\n      dup2\n      mstore\n      0x40\n      swap1\n      keccak256\n      sload\n      sub(shl(0xa0, 0x01), 0x01)\n      and\n      dup2\n      jump\n    tag_78:\n      mload(0x40)\n      sub(shl(0xa0, 0x01), 0x01)\n        /* \"#utility.yul\":2766:2798   */\n      swap1\n      swap2\n      and\n        /* \"#utility.yul\":2748:2799   */\n      dup2\n      mstore\n        /* \"#utility.yul\":2736:2738   */\n      0x20\n        /* \"#utility.yul\":2721:2739   */\n      add\n        /* \"contracts/CoreClashGameV2.sol\":1429:1477  mapping(uint256 => address) public backendWinner */\n      tag_44\n        /* \"#utility.yul\":2602:2805   */\n      jump\n        /* \"contracts/CoreClashRarityLookupTable.sol\":3861:4022  function isRestrictedRarity(... */\n    tag_15:\n      tag_49\n      tag_84\n      calldatasize\n      0x04\n      tag_85\n      jump\t// in\n    tag_84:\n        /* \"contracts/CoreClashRarityLookupTable.sol\":3989:4013  keccak256(bytes(rarity)) */\n      dup1\n      mload\n      0x20\n      swap2\n      dup3\n      add\n      keccak256\n        /* \"contracts/CoreClashRarityLookupTable.sol\":3948:3952  bool */\n      0x00\n        /* \"contracts/CoreClashRarityLookupTable.sol\":3972:4014  restrictedRarity[keccak256(bytes(rarity))] */\n      swap1\n      dup2\n      mstore\n      swap1\n      dup2\n      swap1\n      mstore\n      0x40\n      swap1\n      keccak256\n      sload\n      0xff\n      and\n      swap1\n        /* \"contracts/CoreClashRarityLookupTable.sol\":3861:4022  function isRestrictedRarity(... */\n      jump\n        /* \"contracts/CoreClashGameV2.sol\":1515:1540  address public teamWallet */\n    tag_16:\n      sload(0x06)\n      tag_78\n      swap1\n      sub(shl(0xa0, 0x01), 0x01)\n      and\n      dup2\n      jump\n        /* \"contracts/CoreClashRarityLookupTable.sol\":2778:3015  function setRestrictedRarity(... */\n    tag_17:\n      tag_36\n      tag_92\n      calldatasize\n      0x04\n      tag_93\n      jump\t// in\n    tag_92:\n      tag_94\n      jump\t// in\n        /* \"contracts/CoreClashGameV2.sol\":3497:3618  function setAllowedERC20(address token, bool allowed) external onlyOwner {... */\n    tag_18:\n      tag_36\n      tag_96\n      calldatasize\n      0x04\n      tag_97\n      jump\t// in\n    tag_96:\n      tag_98\n      jump\t// in\n        /* \"contracts/CoreClashGameV2.sol\":10862:11383  function cancelUnjoinedGame(uint256 gameId) external {... */\n    tag_19:\n      tag_36\n      tag_100\n      calldatasize\n      0x04\n      tag_42\n      jump\t// in\n    tag_100:\n      tag_101\n      jump\t// in\n        /* \"contracts/CoreClashRarityLookupTable.sol\":1214:1234  address public owner */\n    tag_20:\n      sload(0x01)\n      tag_78\n      swap1\n      sub(shl(0xa0, 0x01), 0x01)\n      and\n      dup2\n      jump\n        /* \"contracts/CoreClashGameV2.sol\":6912:7737  function submitCommit(... */\n    tag_21:\n      tag_36\n      tag_106\n      calldatasize\n      0x04\n      tag_107\n      jump\t// in\n    tag_106:\n      tag_108\n      jump\t// in\n        /* \"contracts/CoreClashGameV2.sol\":6156:6719  function joinGame(... */\n    tag_22:\n      tag_36\n      tag_110\n      calldatasize\n      0x04\n      tag_111\n      jump\t// in\n    tag_110:\n      tag_112\n      jump\t// in\n        /* \"contracts/CoreClashGameV2.sol\":9040:9456  function postWinner(uint256 gameId, address winner) external onlyOwner {... */\n    tag_23:\n      tag_36\n      tag_114\n      calldatasize\n      0x04\n      tag_115\n      jump\t// in\n    tag_114:\n      tag_116\n      jump\t// in\n        /* \"contracts/CoreClashGameV2.sol\":4165:4366  function setHostWallet(address wallet) external onlyOwner {... */\n    tag_24:\n      tag_36\n      tag_118\n      calldatasize\n      0x04\n      tag_51\n      jump\t// in\n    tag_118:\n      tag_119\n      jump\t// in\n        /* \"contracts/CoreClashGameV2.sol\":7920:8845  function reveal(... */\n    tag_25:\n      tag_36\n      tag_121\n      calldatasize\n      0x04\n      tag_122\n      jump\t// in\n    tag_121:\n      tag_123\n      jump\t// in\n        /* \"contracts/CoreClashGameV2.sol\":1596:1621  address public hostWallet */\n    tag_26:\n      sload(0x08)\n      tag_78\n      swap1\n      sub(shl(0xa0, 0x01), 0x01)\n      and\n      dup2\n      jump\n        /* \"contracts/CoreClashRarityLookupTable.sol\":3452:3662  function transferOwnership(address newOwner) external onlyOwner {... */\n    tag_27:\n      tag_36\n      tag_128\n      calldatasize\n      0x04\n      tag_51\n      jump\t// in\n    tag_128:\n      tag_129\n      jump\t// in\n        /* \"contracts/CoreClashGameV2.sol\":11597:12021  function forceCancelUnjoinedGame(uint256 gameId) external onlyOwner {... */\n    tag_28:\n      tag_36\n      tag_131\n      calldatasize\n      0x04\n      tag_42\n      jump\t// in\n    tag_131:\n      tag_132\n      jump\t// in\n        /* \"contracts/CoreClashRarityLookupTable.sol\":3023:3444  function setRestrictedRarities(... */\n    tag_29:\n      tag_36\n      tag_134\n      calldatasize\n      0x04\n      tag_135\n      jump\t// in\n    tag_134:\n      tag_136\n      jump\t// in\n        /* \"contracts/CoreClashGameV2.sol\":5033:5968  function createGame(... */\n    tag_39:\n      sub(shl(0xa0, 0x01), 0x01)\n        /* \"contracts/CoreClashGameV2.sol\":5172:5196  allowedERC20[stakeToken] */\n      dup4\n      and\n      0x00\n      swap1\n      dup2\n      mstore\n        /* \"contracts/CoreClashGameV2.sol\":5172:5184  allowedERC20 */\n      0x04\n        /* \"contracts/CoreClashGameV2.sol\":5172:5196  allowedERC20[stakeToken] */\n      0x20\n      mstore\n      0x40\n      swap1\n      keccak256\n      sload\n      0xff\n      and\n        /* \"contracts/CoreClashGameV2.sol\":5164:5218  require(allowedERC20[stakeToken], \"ERC20 not allowed\") */\n      tag_138\n      jumpi\n      mload(0x40)\n      shl(0xe5, 0x461bcd)\n      dup2\n      mstore\n        /* \"#utility.yul\":8450:8452   */\n      0x20\n        /* \"contracts/CoreClashGameV2.sol\":5164:5218  require(allowedERC20[stakeToken], \"ERC20 not allowed\") */\n      0x04\n      dup3\n      add\n        /* \"#utility.yul\":8432:8453   */\n      mstore\n        /* \"#utility.yul\":8489:8491   */\n      0x11\n        /* \"#utility.yul\":8469:8487   */\n      0x24\n      dup3\n      add\n        /* \"#utility.yul\":8462:8492   */\n      mstore\n      shl(0x7a, 0x115490cc8c081b9bdd08185b1b1bddd959)\n        /* \"#utility.yul\":8508:8526   */\n      0x44\n      dup3\n      add\n        /* \"#utility.yul\":8501:8548   */\n      mstore\n        /* \"#utility.yul\":8565:8583   */\n      0x64\n      add\n        /* \"contracts/CoreClashGameV2.sol\":5164:5218  require(allowedERC20[stakeToken], \"ERC20 not allowed\") */\n    tag_139:\n      mload(0x40)\n      dup1\n      swap2\n      sub\n      swap1\n      revert\n    tag_138:\n        /* \"contracts/CoreClashGameV2.sol\":5231:5356  IERC20(stakeToken).safeTransferFrom(... */\n      tag_141\n      sub(shl(0xa0, 0x01), 0x01)\n        /* \"contracts/CoreClashGameV2.sol\":5231:5266  IERC20(stakeToken).safeTransferFrom */\n      dup5\n      and\n        /* \"contracts/CoreClashGameV2.sol\":5281:5291  msg.sender */\n      caller\n        /* \"contracts/CoreClashGameV2.sol\":5314:5318  this */\n      address\n        /* \"contracts/CoreClashGameV2.sol\":5334:5345  stakeAmount */\n      dup6\n        /* \"contracts/CoreClashGameV2.sol\":5231:5266  IERC20(stakeToken).safeTransferFrom */\n      tag_142\n        /* \"contracts/CoreClashGameV2.sol\":5231:5356  IERC20(stakeToken).safeTransferFrom(... */\n      jump\t// in\n    tag_141:\n        /* \"contracts/CoreClashGameV2.sol\":5369:5374  games */\n      0x03\n        /* \"contracts/CoreClashGameV2.sol\":5394:5890  Game({... */\n      mload(0x40)\n      dup1\n      0x0180\n      add\n      0x40\n      mstore\n      dup1\n        /* \"contracts/CoreClashGameV2.sol\":5427:5437  msg.sender */\n      caller\n      sub(shl(0xa0, 0x01), 0x01)\n        /* \"contracts/CoreClashGameV2.sol\":5394:5890  Game({... */\n      and\n      dup2\n      mstore\n      0x20\n      add\n        /* \"contracts/CoreClashGameV2.sol\":5473:5474  0 */\n      0x00\n      sub(shl(0xa0, 0x01), 0x01)\n        /* \"contracts/CoreClashGameV2.sol\":5394:5890  Game({... */\n      and\n      dup2\n      mstore\n      0x20\n      add\n        /* \"contracts/CoreClashGameV2.sol\":5506:5516  stakeToken */\n      dup6\n      sub(shl(0xa0, 0x01), 0x01)\n        /* \"contracts/CoreClashGameV2.sol\":5394:5890  Game({... */\n      and\n      dup2\n      mstore\n      0x20\n      add\n        /* \"contracts/CoreClashGameV2.sol\":5548:5559  stakeAmount */\n      dup5\n        /* \"contracts/CoreClashGameV2.sol\":5394:5890  Game({... */\n      dup2\n      mstore\n      0x20\n      add\n        /* \"contracts/CoreClashGameV2.sol\":5593:5599  commit */\n      dup4\n        /* \"contracts/CoreClashGameV2.sol\":5394:5890  Game({... */\n      dup2\n      mstore\n      0x20\n      add\n        /* \"contracts/CoreClashGameV2.sol\":5641:5642  0 */\n      0x00\n        /* \"contracts/CoreClashGameV2.sol\":5633:5643  bytes32(0) */\n      dup1\n      shl\n        /* \"contracts/CoreClashGameV2.sol\":5394:5890  Game({... */\n      dup2\n      mstore\n      0x20\n      add\n        /* \"contracts/CoreClashGameV2.sol\":5679:5684  false */\n      0x00\n        /* \"contracts/CoreClashGameV2.sol\":5394:5890  Game({... */\n      iszero\n      iszero\n      dup2\n      mstore\n      0x20\n      add\n        /* \"contracts/CoreClashGameV2.sol\":5720:5725  false */\n      0x00\n        /* \"contracts/CoreClashGameV2.sol\":5394:5890  Game({... */\n      iszero\n      iszero\n      dup2\n      mstore\n      0x20\n      add\n        /* \"contracts/CoreClashGameV2.sol\":5755:5770  block.timestamp */\n      timestamp\n        /* \"contracts/CoreClashGameV2.sol\":5394:5890  Game({... */\n      dup2\n      mstore\n      0x20\n      add\n        /* \"contracts/CoreClashGameV2.sol\":5804:5805  0 */\n      0x00\n        /* \"contracts/CoreClashGameV2.sol\":5394:5890  Game({... */\n      dup2\n      mstore\n      0x20\n      add\n        /* \"contracts/CoreClashGameV2.sol\":5840:5841  0 */\n      0x00\n        /* \"contracts/CoreClashGameV2.sol\":5394:5890  Game({... */\n      dup2\n      mstore\n      0x20\n      add\n        /* \"contracts/CoreClashGameV2.sol\":5869:5874  false */\n      0x00\n        /* \"contracts/CoreClashGameV2.sol\":5394:5890  Game({... */\n      iszero\n      iszero\n      dup2\n      mstore\n      pop\n        /* \"contracts/CoreClashGameV2.sol\":5369:5901  games.push(... */\n      swap1\n      dup1\n      0x01\n      dup2\n      sload\n      add\n      dup1\n      dup3\n      sstore\n      dup1\n      swap2\n      pop\n      pop\n      0x01\n      swap1\n      sub\n      swap1\n      0x00\n      mstore\n      keccak256(0x00, 0x20)\n      swap1\n      0x0b\n      mul\n      add\n      0x00\n      swap1\n      swap2\n      swap1\n      swap2\n      swap1\n      swap2\n      pop\n      0x00\n      dup3\n      add\n      mload\n      dup2\n      0x00\n      add\n      exp(0x0100, 0x00)\n      dup2\n      sload\n      dup2\n      sub(shl(0xa0, 0x01), 0x01)\n      mul\n      not\n      and\n      swap1\n      dup4\n      sub(shl(0xa0, 0x01), 0x01)\n      and\n      mul\n      or\n      swap1\n      sstore\n      pop\n      0x20\n      dup3\n      add\n      mload\n      dup2\n      0x01\n      add\n      exp(0x0100, 0x00)\n      dup2\n      sload\n      dup2\n      sub(shl(0xa0, 0x01), 0x01)\n      mul\n      not\n      and\n      swap1\n      dup4\n      sub(shl(0xa0, 0x01), 0x01)\n      and\n      mul\n      or\n      swap1\n      sstore\n      pop\n      0x40\n      dup3\n      add\n      mload\n      dup2\n      0x02\n      add\n      exp(0x0100, 0x00)\n      dup2\n      sload\n      dup2\n      sub(shl(0xa0, 0x01), 0x01)\n      mul\n      not\n      and\n      swap1\n      dup4\n      sub(shl(0xa0, 0x01), 0x01)\n      and\n      mul\n      or\n      swap1\n      sstore\n      pop\n      0x60\n      dup3\n      add\n      mload\n      dup2\n      0x03\n      add\n      sstore\n      0x80\n      dup3\n      add\n      mload\n      dup2\n      0x04\n      add\n      sstore\n      0xa0\n      dup3\n      add\n      mload\n      dup2\n      0x05\n      add\n      sstore\n      0xc0\n      dup3\n      add\n      mload\n      dup2\n      0x06\n      add\n      exp(0x0100, 0x00)\n      dup2\n      sload\n      dup2\n      0xff\n      mul\n      not\n      and\n      swap1\n      dup4\n      iszero\n      iszero\n      mul\n      or\n      swap1\n      sstore\n      pop\n      0xe0\n      dup3\n      add\n      mload\n      dup2\n      0x06\n      add\n      exp(0x0100, 0x01)\n      dup2\n      sload\n      dup2\n      0xff\n      mul\n      not\n      and\n      swap1\n      dup4\n      iszero\n      iszero\n      mul\n      or\n      swap1\n      sstore\n      pop\n      0x0100\n      dup3\n      add\n      mload\n      dup2\n      0x07\n      add\n      sstore\n      0x0120\n      dup3\n      add\n      mload\n      dup2\n      0x08\n      add\n      sstore\n      0x0140\n      dup3\n      add\n      mload\n      dup2\n      0x09\n      add\n      sstore\n      0x0160\n      dup3\n      add\n      mload\n      dup2\n      0x0a\n      add\n      exp(0x0100, 0x00)\n      dup2\n      sload\n      dup2\n      0xff\n      mul\n      not\n      and\n      swap1\n      dup4\n      iszero\n      iszero\n      mul\n      or\n      swap1\n      sstore\n      pop\n      pop\n      pop\n        /* \"contracts/CoreClashGameV2.sol\":5949:5959  msg.sender */\n      caller\n      sub(shl(0xa0, 0x01), 0x01)\n        /* \"contracts/CoreClashGameV2.sol\":5919:5960  GameCreated(games.length - 1, msg.sender) */\n      and\n        /* \"contracts/CoreClashGameV2.sol\":5946:5947  1 */\n      0x01\n        /* \"contracts/CoreClashGameV2.sol\":5931:5936  games */\n      0x03\n        /* \"contracts/CoreClashGameV2.sol\":5931:5943  games.length */\n      dup1\n      sload\n      swap1\n      pop\n        /* \"contracts/CoreClashGameV2.sol\":5931:5947  games.length - 1 */\n      tag_144\n      swap2\n      swap1\n      tag_145\n      jump\t// in\n    tag_144:\n        /* \"contracts/CoreClashGameV2.sol\":5919:5960  GameCreated(games.length - 1, msg.sender) */\n      mload(0x40)\n      0xc3e0f84839dc888c892a013d10c8f9d6dc05a21a879d0ce468ca558013e9121c\n      swap1\n      0x00\n      swap1\n      log3\n        /* \"contracts/CoreClashGameV2.sol\":5033:5968  function createGame(... */\n      pop\n      pop\n      pop\n      jump\t// out\n        /* \"contracts/CoreClashGameV2.sol\":1350:1369  Game[] public games */\n    tag_43:\n      0x03\n      dup2\n      dup2\n      sload\n      dup2\n      lt\n      tag_146\n      jumpi\n      0x00\n      dup1\n      revert\n    tag_146:\n      0x00\n      swap2\n      dup3\n      mstore\n      0x20\n      swap1\n      swap2\n      keccak256\n      0x0b\n      swap1\n      swap2\n      mul\n      add\n      dup1\n      sload\n      0x01\n      dup3\n      add\n      sload\n      0x02\n      dup4\n      add\n      sload\n      0x03\n      dup5\n      add\n      sload\n      0x04\n      dup6\n      add\n      sload\n      0x05\n      dup7\n      add\n      sload\n      0x06\n      dup8\n      add\n      sload\n      0x07\n      dup9\n      add\n      sload\n      0x08\n      dup10\n      add\n      sload\n      0x09\n      dup11\n      add\n      sload\n      0x0a\n      swap1\n      swap11\n      add\n      sload\n      sub(shl(0xa0, 0x01), 0x01)\n      swap10\n      dup11\n      and\n      swap12\n      pop\n      swap8\n      dup10\n      and\n      swap10\n      swap9\n      swap1\n      swap7\n      and\n      swap8\n      swap5\n      swap7\n      swap4\n      swap6\n      swap3\n      swap5\n      0xff\n      dup1\n      dup5\n      and\n      swap6\n      0x0100\n      swap1\n      swap5\n      div\n      dup2\n      and\n      swap5\n      swap3\n      swap4\n      and\n      dup13\n      jump\t// out\n        /* \"contracts/CoreClashGameV2.sol\":3626:3774  function setPlatformFee(uint256 feeBps) external onlyOwner {... */\n    tag_48:\n        /* \"contracts/CoreClashRarityLookupTable.sol\":1477:1482  owner */\n      and(sub(shl(0xa0, 0x01), 0x01), sload(0x01))\n        /* \"contracts/CoreClashRarityLookupTable.sol\":1463:1473  msg.sender */\n      caller\n        /* \"contracts/CoreClashRarityLookupTable.sol\":1463:1482  msg.sender != owner */\n      eq\n        /* \"contracts/CoreClashRarityLookupTable.sol\":1459:1501  if (msg.sender != owner) revert NotOwner() */\n      tag_149\n      jumpi\n        /* \"contracts/CoreClashRarityLookupTable.sol\":1491:1501  NotOwner() */\n      mload(0x40)\n      shl(0xe0, 0x30cd7471)\n      dup2\n      mstore\n      0x04\n      add\n      mload(0x40)\n      dup1\n      swap2\n      sub\n      swap1\n      revert\n        /* \"contracts/CoreClashRarityLookupTable.sol\":1459:1501  if (msg.sender != owner) revert NotOwner() */\n    tag_149:\n        /* \"contracts/CoreClashGameV2.sol\":3714:3718  1000 */\n      0x03e8\n        /* \"contracts/CoreClashGameV2.sol\":3704:3710  feeBps */\n      dup2\n        /* \"contracts/CoreClashGameV2.sol\":3704:3718  feeBps <= 1000 */\n      gt\n      iszero\n        /* \"contracts/CoreClashGameV2.sol\":3696:3735  require(feeBps <= 1000, \"Fee too high\") */\n      tag_151\n      jumpi\n      mload(0x40)\n      shl(0xe5, 0x461bcd)\n      dup2\n      mstore\n        /* \"#utility.yul\":9061:9063   */\n      0x20\n        /* \"contracts/CoreClashGameV2.sol\":3696:3735  require(feeBps <= 1000, \"Fee too high\") */\n      0x04\n      dup3\n      add\n        /* \"#utility.yul\":9043:9064   */\n      mstore\n        /* \"#utility.yul\":9100:9102   */\n      0x0c\n        /* \"#utility.yul\":9080:9098   */\n      0x24\n      dup3\n      add\n        /* \"#utility.yul\":9073:9103   */\n      mstore\n      shl(0xa3, 0x08ccaca40e8dede40d0d2ced)\n        /* \"#utility.yul\":9119:9137   */\n      0x44\n      dup3\n      add\n        /* \"#utility.yul\":9112:9154   */\n      mstore\n        /* \"#utility.yul\":9171:9189   */\n      0x64\n      add\n        /* \"contracts/CoreClashGameV2.sol\":3696:3735  require(feeBps <= 1000, \"Fee too high\") */\n      tag_139\n        /* \"#utility.yul\":8859:9195   */\n      jump\n        /* \"contracts/CoreClashGameV2.sol\":3696:3735  require(feeBps <= 1000, \"Fee too high\") */\n    tag_151:\n        /* \"contracts/CoreClashGameV2.sol\":3746:3757  platformFee */\n      0x07\n        /* \"contracts/CoreClashGameV2.sol\":3746:3766  platformFee = feeBps */\n      sstore\n        /* \"contracts/CoreClashGameV2.sol\":3626:3774  function setPlatformFee(uint256 feeBps) external onlyOwner {... */\n      jump\t// out\n        /* \"contracts/CoreClashGameV2.sol\":3867:4072  function setTeamWallet(address wallet) external onlyOwner {... */\n    tag_57:\n        /* \"contracts/CoreClashRarityLookupTable.sol\":1477:1482  owner */\n      and(sub(shl(0xa0, 0x01), 0x01), sload(0x01))\n        /* \"contracts/CoreClashRarityLookupTable.sol\":1463:1473  msg.sender */\n      caller\n        /* \"contracts/CoreClashRarityLookupTable.sol\":1463:1482  msg.sender != owner */\n      eq\n        /* \"contracts/CoreClashRarityLookupTable.sol\":1459:1501  if (msg.sender != owner) revert NotOwner() */\n      tag_155\n      jumpi\n        /* \"contracts/CoreClashRarityLookupTable.sol\":1491:1501  NotOwner() */\n      mload(0x40)\n      shl(0xe0, 0x30cd7471)\n      dup2\n      mstore\n      0x04\n      add\n      mload(0x40)\n      dup1\n      swap2\n      sub\n      swap1\n      revert\n        /* \"contracts/CoreClashRarityLookupTable.sol\":1459:1501  if (msg.sender != owner) revert NotOwner() */\n    tag_155:\n      sub(shl(0xa0, 0x01), 0x01)\n        /* \"contracts/CoreClashGameV2.sol\":3944:3964  wallet != address(0) */\n      dup2\n      and\n        /* \"contracts/CoreClashGameV2.sol\":3936:3981  require(wallet != address(0), \"Zero address\") */\n      tag_157\n      jumpi\n      mload(0x40)\n      shl(0xe5, 0x461bcd)\n      dup2\n      mstore\n      0x04\n      add\n      tag_139\n      swap1\n      tag_159\n      jump\t// in\n    tag_157:\n        /* \"contracts/CoreClashGameV2.sol\":4015:4025  teamWallet */\n      sload(0x06)\n        /* \"contracts/CoreClashGameV2.sol\":3997:4034  TeamWalletUpdated(teamWallet, wallet) */\n      mload(0x40)\n      sub(shl(0xa0, 0x01), 0x01)\n      dup1\n      dup5\n      and\n      swap3\n        /* \"contracts/CoreClashGameV2.sol\":4015:4025  teamWallet */\n      and\n      swap1\n        /* \"contracts/CoreClashGameV2.sol\":3997:4034  TeamWalletUpdated(teamWallet, wallet) */\n      0xd9a2a08302ed3220f4e646ff99d6780d87e27baddf1af05679dc930ce8113095\n      swap1\n        /* \"contracts/CoreClashGameV2.sol\":4015:4025  teamWallet */\n      0x00\n      swap1\n        /* \"contracts/CoreClashGameV2.sol\":3997:4034  TeamWalletUpdated(teamWallet, wallet) */\n      log3\n        /* \"contracts/CoreClashGameV2.sol\":4045:4055  teamWallet */\n      0x06\n        /* \"contracts/CoreClashGameV2.sol\":4045:4064  teamWallet = wallet */\n      dup1\n      sload\n      not(sub(shl(0xa0, 0x01), 0x01))\n      and\n      sub(shl(0xa0, 0x01), 0x01)\n      swap3\n      swap1\n      swap3\n      and\n      swap2\n      swap1\n      swap2\n      or\n      swap1\n      sstore\n        /* \"contracts/CoreClashGameV2.sol\":3867:4072  function setTeamWallet(address wallet) external onlyOwner {... */\n      jump\t// out\n        /* \"contracts/CoreClashGameV2.sol\":9647:10466  function settleGame(uint256 gameId) external {... */\n    tag_70:\n        /* \"contracts/CoreClashGameV2.sol\":9703:9717  Game storage g */\n      0x00\n        /* \"contracts/CoreClashGameV2.sol\":9720:9725  games */\n      0x03\n        /* \"contracts/CoreClashGameV2.sol\":9726:9732  gameId */\n      dup3\n        /* \"contracts/CoreClashGameV2.sol\":9720:9733  games[gameId] */\n      dup2\n      sload\n      dup2\n      lt\n      tag_163\n      jumpi\n      tag_163\n      tag_164\n      jump\t// in\n    tag_163:\n      0x00\n      swap2\n      dup3\n      mstore\n      0x20\n      swap1\n      swap2\n      keccak256\n      0x0b\n      swap1\n      swap2\n      mul\n      add\n        /* \"contracts/CoreClashGameV2.sol\":9753:9762  g.settled */\n      0x0a\n      dup2\n      add\n      sload\n        /* \"contracts/CoreClashGameV2.sol\":9720:9733  games[gameId] */\n      swap1\n      swap2\n      pop\n        /* \"contracts/CoreClashGameV2.sol\":9753:9762  g.settled */\n      0xff\n      and\n        /* \"contracts/CoreClashGameV2.sol\":9752:9762  !g.settled */\n      iszero\n        /* \"contracts/CoreClashGameV2.sol\":9744:9774  require(!g.settled, \"Settled\") */\n      tag_166\n      jumpi\n      mload(0x40)\n      shl(0xe5, 0x461bcd)\n      dup2\n      mstore\n      0x04\n      add\n      tag_139\n      swap1\n      tag_168\n      jump\t// in\n    tag_166:\n        /* \"contracts/CoreClashGameV2.sol\":9838:9839  g */\n      dup1\n        /* \"contracts/CoreClashGameV2.sol\":9838:9854  g.revealDeadline */\n      0x09\n      add\n      sload\n        /* \"contracts/CoreClashGameV2.sol\":9820:9835  block.timestamp */\n      timestamp\n        /* \"contracts/CoreClashGameV2.sol\":9820:9854  block.timestamp > g.revealDeadline */\n      gt\n        /* \"contracts/CoreClashGameV2.sol\":9816:10293  if (block.timestamp > g.revealDeadline) {... */\n      iszero\n      tag_178\n      jumpi\n        /* \"contracts/CoreClashGameV2.sol\":9875:9892  g.player1Revealed */\n      0x06\n      dup2\n      add\n      sload\n      0xff\n      and\n        /* \"contracts/CoreClashGameV2.sol\":9875:9914  g.player1Revealed && !g.player2Revealed */\n      dup1\n      iszero\n      tag_170\n      jumpi\n      pop\n        /* \"contracts/CoreClashGameV2.sol\":9897:9914  g.player2Revealed */\n      0x06\n      dup2\n      add\n      sload\n      0x0100\n      swap1\n      div\n      0xff\n      and\n        /* \"contracts/CoreClashGameV2.sol\":9896:9914  !g.player2Revealed */\n      iszero\n        /* \"contracts/CoreClashGameV2.sol\":9875:9914  g.player1Revealed && !g.player2Revealed */\n    tag_170:\n        /* \"contracts/CoreClashGameV2.sol\":9871:10002  if (g.player1Revealed && !g.player2Revealed) {... */\n      iszero\n      tag_171\n      jumpi\n        /* \"contracts/CoreClashGameV2.sol\":9951:9960  g.player1 */\n      dup1\n      sload\n        /* \"contracts/CoreClashGameV2.sol\":9935:9961  _payout(gameId, g.player1) */\n      tag_172\n      swap1\n        /* \"contracts/CoreClashGameV2.sol\":9943:9949  gameId */\n      dup4\n      swap1\n      sub(shl(0xa0, 0x01), 0x01)\n        /* \"contracts/CoreClashGameV2.sol\":9951:9960  g.player1 */\n      and\n        /* \"contracts/CoreClashGameV2.sol\":9935:9942  _payout */\n      tag_173\n        /* \"contracts/CoreClashGameV2.sol\":9935:9961  _payout(gameId, g.player1) */\n      jump\t// in\n    tag_172:\n        /* \"contracts/CoreClashGameV2.sol\":9980:9987  return; */\n      pop\n        /* \"contracts/CoreClashGameV2.sol\":9647:10466  function settleGame(uint256 gameId) external {... */\n      pop\n      jump\t// out\n        /* \"contracts/CoreClashGameV2.sol\":9871:10002  if (g.player1Revealed && !g.player2Revealed) {... */\n    tag_171:\n        /* \"contracts/CoreClashGameV2.sol\":10020:10037  g.player2Revealed */\n      0x06\n      dup2\n      add\n      sload\n      0x0100\n      swap1\n      div\n      0xff\n      and\n        /* \"contracts/CoreClashGameV2.sol\":10020:10059  g.player2Revealed && !g.player1Revealed */\n      dup1\n      iszero\n      tag_174\n      jumpi\n      pop\n        /* \"contracts/CoreClashGameV2.sol\":10042:10059  g.player1Revealed */\n      0x06\n      dup2\n      add\n      sload\n      0xff\n      and\n        /* \"contracts/CoreClashGameV2.sol\":10041:10059  !g.player1Revealed */\n      iszero\n        /* \"contracts/CoreClashGameV2.sol\":10020:10059  g.player2Revealed && !g.player1Revealed */\n    tag_174:\n        /* \"contracts/CoreClashGameV2.sol\":10016:10147  if (g.player2Revealed && !g.player1Revealed) {... */\n      iszero\n      tag_175\n      jumpi\n        /* \"contracts/CoreClashGameV2.sol\":10096:10105  g.player2 */\n      0x01\n      dup2\n      add\n      sload\n        /* \"contracts/CoreClashGameV2.sol\":10080:10106  _payout(gameId, g.player2) */\n      tag_172\n      swap1\n        /* \"contracts/CoreClashGameV2.sol\":10088:10094  gameId */\n      dup4\n      swap1\n      sub(shl(0xa0, 0x01), 0x01)\n        /* \"contracts/CoreClashGameV2.sol\":10096:10105  g.player2 */\n      and\n        /* \"contracts/CoreClashGameV2.sol\":10080:10087  _payout */\n      tag_173\n        /* \"contracts/CoreClashGameV2.sol\":10080:10106  _payout(gameId, g.player2) */\n      jump\t// in\n        /* \"contracts/CoreClashGameV2.sol\":10016:10147  if (g.player2Revealed && !g.player1Revealed) {... */\n    tag_175:\n        /* \"contracts/CoreClashGameV2.sol\":10166:10183  g.player1Revealed */\n      0x06\n      dup2\n      add\n      sload\n      0xff\n      and\n        /* \"contracts/CoreClashGameV2.sol\":10165:10183  !g.player1Revealed */\n      iszero\n        /* \"contracts/CoreClashGameV2.sol\":10165:10205  !g.player1Revealed && !g.player2Revealed */\n      dup1\n      iszero\n      tag_177\n      jumpi\n      pop\n        /* \"contracts/CoreClashGameV2.sol\":10188:10205  g.player2Revealed */\n      0x06\n      dup2\n      add\n      sload\n      0x0100\n      swap1\n      div\n      0xff\n      and\n        /* \"contracts/CoreClashGameV2.sol\":10187:10205  !g.player2Revealed */\n      iszero\n        /* \"contracts/CoreClashGameV2.sol\":10165:10205  !g.player1Revealed && !g.player2Revealed */\n    tag_177:\n        /* \"contracts/CoreClashGameV2.sol\":10161:10282  if (!g.player1Revealed && !g.player2Revealed) {... */\n      iszero\n      tag_178\n      jumpi\n        /* \"contracts/CoreClashGameV2.sol\":10226:10241  _refund(gameId) */\n      tag_172\n        /* \"contracts/CoreClashGameV2.sol\":10234:10240  gameId */\n      dup3\n        /* \"contracts/CoreClashGameV2.sol\":10226:10233  _refund */\n      tag_180\n        /* \"contracts/CoreClashGameV2.sol\":10226:10241  _refund(gameId) */\n      jump\t// in\n        /* \"contracts/CoreClashGameV2.sol\":10161:10282  if (!g.player1Revealed && !g.player2Revealed) {... */\n    tag_178:\n        /* \"contracts/CoreClashGameV2.sol\":10327:10344  g.player1Revealed */\n      0x06\n      dup2\n      add\n      sload\n      0xff\n      and\n        /* \"contracts/CoreClashGameV2.sol\":10327:10365  g.player1Revealed && g.player2Revealed */\n      dup1\n      iszero\n      tag_181\n      jumpi\n      pop\n        /* \"contracts/CoreClashGameV2.sol\":10348:10365  g.player2Revealed */\n      0x06\n      dup2\n      add\n      sload\n      0x0100\n      swap1\n      div\n      0xff\n      and\n        /* \"contracts/CoreClashGameV2.sol\":10327:10365  g.player1Revealed && g.player2Revealed */\n    tag_181:\n        /* \"contracts/CoreClashGameV2.sol\":10305:10407  require(... */\n      tag_182\n      jumpi\n      mload(0x40)\n      shl(0xe5, 0x461bcd)\n      dup2\n      mstore\n        /* \"#utility.yul\":10210:10212   */\n      0x20\n        /* \"contracts/CoreClashGameV2.sol\":10305:10407  require(... */\n      0x04\n      dup3\n      add\n        /* \"#utility.yul\":10192:10213   */\n      mstore\n        /* \"#utility.yul\":10249:10251   */\n      0x0e\n        /* \"#utility.yul\":10229:10247   */\n      0x24\n      dup3\n      add\n        /* \"#utility.yul\":10222:10252   */\n      mstore\n      shl(0x90, 0x52657665616c2070656e64696e67)\n        /* \"#utility.yul\":10268:10286   */\n      0x44\n      dup3\n      add\n        /* \"#utility.yul\":10261:10305   */\n      mstore\n        /* \"#utility.yul\":10322:10340   */\n      0x64\n      add\n        /* \"contracts/CoreClashGameV2.sol\":10305:10407  require(... */\n      tag_139\n        /* \"#utility.yul\":10008:10346   */\n      jump\n        /* \"contracts/CoreClashGameV2.sol\":10305:10407  require(... */\n    tag_182:\n        /* \"contracts/CoreClashGameV2.sol\":10436:10457  backendWinner[gameId] */\n      0x00\n      dup3\n      dup2\n      mstore\n        /* \"contracts/CoreClashGameV2.sol\":10436:10449  backendWinner */\n      0x05\n        /* \"contracts/CoreClashGameV2.sol\":10436:10457  backendWinner[gameId] */\n      0x20\n      mstore\n      0x40\n      swap1\n      keccak256\n      sload\n        /* \"contracts/CoreClashGameV2.sol\":10420:10458  _payout(gameId, backendWinner[gameId]) */\n      tag_172\n      swap1\n        /* \"contracts/CoreClashGameV2.sol\":10428:10434  gameId */\n      dup4\n      swap1\n      sub(shl(0xa0, 0x01), 0x01)\n        /* \"contracts/CoreClashGameV2.sol\":10436:10457  backendWinner[gameId] */\n      and\n        /* \"contracts/CoreClashGameV2.sol\":10420:10427  _payout */\n      tag_173\n        /* \"contracts/CoreClashGameV2.sol\":10420:10458  _payout(gameId, backendWinner[gameId]) */\n      jump\t// in\n        /* \"contracts/CoreClashRarityLookupTable.sol\":2778:3015  function setRestrictedRarity(... */\n    tag_94:\n        /* \"contracts/CoreClashRarityLookupTable.sol\":1477:1482  owner */\n      and(sub(shl(0xa0, 0x01), 0x01), sload(0x01))\n        /* \"contracts/CoreClashRarityLookupTable.sol\":1463:1473  msg.sender */\n      caller\n        /* \"contracts/CoreClashRarityLookupTable.sol\":1463:1482  msg.sender != owner */\n      eq\n        /* \"contracts/CoreClashRarityLookupTable.sol\":1459:1501  if (msg.sender != owner) revert NotOwner() */\n      tag_188\n      jumpi\n        /* \"contracts/CoreClashRarityLookupTable.sol\":1491:1501  NotOwner() */\n      mload(0x40)\n      shl(0xe0, 0x30cd7471)\n      dup2\n      mstore\n      0x04\n      add\n      mload(0x40)\n      dup1\n      swap2\n      sub\n      swap1\n      revert\n        /* \"contracts/CoreClashRarityLookupTable.sol\":1459:1501  if (msg.sender != owner) revert NotOwner() */\n    tag_188:\n        /* \"contracts/CoreClashRarityLookupTable.sol\":2931:2932  0 */\n      0x00\n        /* \"contracts/CoreClashRarityLookupTable.sol\":2907:2932  bytes(rarity).length == 0 */\n      dup3\n      swap1\n      sub\n        /* \"contracts/CoreClashRarityLookupTable.sol\":2903:2954  if (bytes(rarity).length == 0) revert EmptyRarity() */\n      tag_190\n      jumpi\n        /* \"contracts/CoreClashRarityLookupTable.sol\":2941:2954  EmptyRarity() */\n      mload(0x40)\n      shl(0xe1, 0x4b78778d)\n      dup2\n      mstore\n      0x04\n      add\n      mload(0x40)\n      dup1\n      swap2\n      sub\n      swap1\n      revert\n        /* \"contracts/CoreClashRarityLookupTable.sol\":2903:2954  if (bytes(rarity).length == 0) revert EmptyRarity() */\n    tag_190:\n        /* \"contracts/CoreClashRarityLookupTable.sol\":2965:3007  _setRestrictedInternal(rarity, restricted) */\n      tag_191\n        /* \"contracts/CoreClashRarityLookupTable.sol\":2988:2994  rarity */\n      dup4\n      dup4\n        /* \"contracts/CoreClashRarityLookupTable.sol\":2965:3007  _setRestrictedInternal(rarity, restricted) */\n      dup1\n      dup1\n      0x1f\n      add\n      0x20\n      dup1\n      swap2\n      div\n      mul\n      0x20\n      add\n      mload(0x40)\n      swap1\n      dup2\n      add\n      0x40\n      mstore\n      dup1\n      swap4\n      swap3\n      swap2\n      swap1\n      dup2\n      dup2\n      mstore\n      0x20\n      add\n      dup4\n      dup4\n      dup1\n      dup3\n      dup5\n      calldatacopy\n      0x00\n      swap3\n      add\n      swap2\n      swap1\n      swap2\n      mstore\n      pop\n        /* \"contracts/CoreClashRarityLookupTable.sol\":2996:3006  restricted */\n      dup6\n      swap3\n      pop\n        /* \"contracts/CoreClashRarityLookupTable.sol\":2965:2987  _setRestrictedInternal */\n      tag_192\n      swap2\n      pop\n      pop\n        /* \"contracts/CoreClashRarityLookupTable.sol\":2965:3007  _setRestrictedInternal(rarity, restricted) */\n      jump\t// in\n    tag_191:\n        /* \"contracts/CoreClashRarityLookupTable.sol\":2778:3015  function setRestrictedRarity(... */\n      pop\n      pop\n      pop\n      jump\t// out\n        /* \"contracts/CoreClashGameV2.sol\":3497:3618  function setAllowedERC20(address token, bool allowed) external onlyOwner {... */\n    tag_98:\n        /* \"contracts/CoreClashRarityLookupTable.sol\":1477:1482  owner */\n      and(sub(shl(0xa0, 0x01), 0x01), sload(0x01))\n        /* \"contracts/CoreClashRarityLookupTable.sol\":1463:1473  msg.sender */\n      caller\n        /* \"contracts/CoreClashRarityLookupTable.sol\":1463:1482  msg.sender != owner */\n      eq\n        /* \"contracts/CoreClashRarityLookupTable.sol\":1459:1501  if (msg.sender != owner) revert NotOwner() */\n      tag_194\n      jumpi\n        /* \"contracts/CoreClashRarityLookupTable.sol\":1491:1501  NotOwner() */\n      mload(0x40)\n      shl(0xe0, 0x30cd7471)\n      dup2\n      mstore\n      0x04\n      add\n      mload(0x40)\n      dup1\n      swap2\n      sub\n      swap1\n      revert\n        /* \"contracts/CoreClashRarityLookupTable.sol\":1459:1501  if (msg.sender != owner) revert NotOwner() */\n    tag_194:\n      sub(shl(0xa0, 0x01), 0x01)\n        /* \"contracts/CoreClashGameV2.sol\":3581:3600  allowedERC20[token] */\n      swap2\n      swap1\n      swap2\n      and\n      0x00\n      swap1\n      dup2\n      mstore\n        /* \"contracts/CoreClashGameV2.sol\":3581:3593  allowedERC20 */\n      0x04\n        /* \"contracts/CoreClashGameV2.sol\":3581:3600  allowedERC20[token] */\n      0x20\n      mstore\n      0x40\n      swap1\n      keccak256\n        /* \"contracts/CoreClashGameV2.sol\":3581:3610  allowedERC20[token] = allowed */\n      dup1\n      sload\n      not(0xff)\n      and\n      swap2\n      iszero\n      iszero\n      swap2\n      swap1\n      swap2\n      or\n      swap1\n      sstore\n        /* \"contracts/CoreClashGameV2.sol\":3497:3618  function setAllowedERC20(address token, bool allowed) external onlyOwner {... */\n      jump\t// out\n        /* \"contracts/CoreClashGameV2.sol\":10862:11383  function cancelUnjoinedGame(uint256 gameId) external {... */\n    tag_101:\n        /* \"contracts/CoreClashGameV2.sol\":10922:10936  Game storage g */\n      0x00\n        /* \"contracts/CoreClashGameV2.sol\":10939:10944  games */\n      0x03\n        /* \"contracts/CoreClashGameV2.sol\":10945:10951  gameId */\n      dup3\n        /* \"contracts/CoreClashGameV2.sol\":10939:10952  games[gameId] */\n      dup2\n      sload\n      dup2\n      lt\n      tag_198\n      jumpi\n      tag_198\n      tag_164\n      jump\t// in\n    tag_198:\n      0x00\n      swap2\n      dup3\n      mstore\n      0x20\n      swap1\n      swap2\n      keccak256\n      0x0b\n      swap1\n      swap2\n      mul\n      add\n        /* \"contracts/CoreClashGameV2.sol\":10970:10979  g.settled */\n      0x0a\n      dup2\n      add\n      sload\n        /* \"contracts/CoreClashGameV2.sol\":10939:10952  games[gameId] */\n      swap1\n      swap2\n      pop\n        /* \"contracts/CoreClashGameV2.sol\":10970:10979  g.settled */\n      0xff\n      and\n        /* \"contracts/CoreClashGameV2.sol\":10969:10979  !g.settled */\n      iszero\n        /* \"contracts/CoreClashGameV2.sol\":10961:11004  require(!g.settled, \"Game already settled\") */\n      tag_200\n      jumpi\n      mload(0x40)\n      shl(0xe5, 0x461bcd)\n      dup2\n      mstore\n        /* \"#utility.yul\":10553:10555   */\n      0x20\n        /* \"contracts/CoreClashGameV2.sol\":10961:11004  require(!g.settled, \"Game already settled\") */\n      0x04\n      dup3\n      add\n        /* \"#utility.yul\":10535:10556   */\n      mstore\n        /* \"#utility.yul\":10592:10594   */\n      0x14\n        /* \"#utility.yul\":10572:10590   */\n      0x24\n      dup3\n      add\n        /* \"#utility.yul\":10565:10595   */\n      mstore\n      shl(0x62, 0x11d85b5948185b1c9958591e481cd95d1d1b1959)\n        /* \"#utility.yul\":10611:10629   */\n      0x44\n      dup3\n      add\n        /* \"#utility.yul\":10604:10654   */\n      mstore\n        /* \"#utility.yul\":10671:10689   */\n      0x64\n      add\n        /* \"contracts/CoreClashGameV2.sol\":10961:11004  require(!g.settled, \"Game already settled\") */\n      tag_139\n        /* \"#utility.yul\":10351:10695   */\n      jump\n        /* \"contracts/CoreClashGameV2.sol\":10961:11004  require(!g.settled, \"Game already settled\") */\n    tag_200:\n        /* \"contracts/CoreClashGameV2.sol\":11019:11028  g.player1 */\n      dup1\n      sload\n      sub(shl(0xa0, 0x01), 0x01)\n      and\n        /* \"contracts/CoreClashGameV2.sol\":11032:11042  msg.sender */\n      caller\n        /* \"contracts/CoreClashGameV2.sol\":11019:11042  g.player1 == msg.sender */\n      eq\n        /* \"contracts/CoreClashGameV2.sol\":11011:11070  require(g.player1 == msg.sender, \"Only creator can cancel\") */\n      tag_203\n      jumpi\n      mload(0x40)\n      shl(0xe5, 0x461bcd)\n      dup2\n      mstore\n        /* \"#utility.yul\":10902:10904   */\n      0x20\n        /* \"contracts/CoreClashGameV2.sol\":11011:11070  require(g.player1 == msg.sender, \"Only creator can cancel\") */\n      0x04\n      dup3\n      add\n        /* \"#utility.yul\":10884:10905   */\n      mstore\n        /* \"#utility.yul\":10941:10943   */\n      0x17\n        /* \"#utility.yul\":10921:10939   */\n      0x24\n      dup3\n      add\n        /* \"#utility.yul\":10914:10944   */\n      mstore\n        /* \"#utility.yul\":10980:11005   */\n      0x4f6e6c792063726561746f722063616e2063616e63656c000000000000000000\n        /* \"#utility.yul\":10960:10978   */\n      0x44\n      dup3\n      add\n        /* \"#utility.yul\":10953:11006   */\n      mstore\n        /* \"#utility.yul\":11023:11041   */\n      0x64\n      add\n        /* \"contracts/CoreClashGameV2.sol\":11011:11070  require(g.player1 == msg.sender, \"Only creator can cancel\") */\n      tag_139\n        /* \"#utility.yul\":10700:11047   */\n      jump\n        /* \"contracts/CoreClashGameV2.sol\":11011:11070  require(g.player1 == msg.sender, \"Only creator can cancel\") */\n    tag_203:\n        /* \"contracts/CoreClashGameV2.sol\":11085:11094  g.player2 */\n      0x01\n      dup2\n      add\n      sload\n      sub(shl(0xa0, 0x01), 0x01)\n      and\n        /* \"contracts/CoreClashGameV2.sol\":11085:11108  g.player2 == address(0) */\n      iszero\n        /* \"contracts/CoreClashGameV2.sol\":11077:11148  require(g.player2 == address(0), \"Game already joined - cannot cancel\") */\n      tag_206\n      jumpi\n      mload(0x40)\n      shl(0xe5, 0x461bcd)\n      dup2\n      mstore\n        /* \"#utility.yul\":11254:11256   */\n      0x20\n        /* \"contracts/CoreClashGameV2.sol\":11077:11148  require(g.player2 == address(0), \"Game already joined - cannot cancel\") */\n      0x04\n      dup3\n      add\n        /* \"#utility.yul\":11236:11257   */\n      mstore\n        /* \"#utility.yul\":11293:11295   */\n      0x23\n        /* \"#utility.yul\":11273:11291   */\n      0x24\n      dup3\n      add\n        /* \"#utility.yul\":11266:11296   */\n      mstore\n        /* \"#utility.yul\":11332:11366   */\n      0x47616d6520616c7265616479206a6f696e6564202d2063616e6e6f742063616e\n        /* \"#utility.yul\":11312:11330   */\n      0x44\n      dup3\n      add\n        /* \"#utility.yul\":11305:11367   */\n      mstore\n      shl(0xea, 0x18d95b)\n        /* \"#utility.yul\":11383:11401   */\n      0x64\n      dup3\n      add\n        /* \"#utility.yul\":11376:11409   */\n      mstore\n        /* \"#utility.yul\":11426:11445   */\n      0x84\n      add\n        /* \"contracts/CoreClashGameV2.sol\":11077:11148  require(g.player2 == address(0), \"Game already joined - cannot cancel\") */\n      tag_139\n        /* \"#utility.yul\":11052:11451   */\n      jump\n        /* \"contracts/CoreClashGameV2.sol\":11077:11148  require(g.player2 == address(0), \"Game already joined - cannot cancel\") */\n    tag_206:\n        /* \"contracts/CoreClashGameV2.sol\":11157:11166  g.settled */\n      0x0a\n      dup2\n      add\n        /* \"contracts/CoreClashGameV2.sol\":11157:11173  g.settled = true */\n      dup1\n      sload\n      not(0xff)\n      and\n        /* \"contracts/CoreClashGameV2.sol\":11169:11173  true */\n      0x01\n        /* \"contracts/CoreClashGameV2.sol\":11157:11173  g.settled = true */\n      or\n      swap1\n      sstore\n        /* \"contracts/CoreClashGameV2.sol\":11186:11199  g.stakeAmount */\n      0x03\n      dup2\n      add\n      sload\n        /* \"contracts/CoreClashGameV2.sol\":11186:11203  g.stakeAmount > 0 */\n      iszero\n        /* \"contracts/CoreClashGameV2.sol\":11182:11283  if (g.stakeAmount > 0) {... */\n      tag_210\n      jumpi\n        /* \"contracts/CoreClashGameV2.sol\":11250:11259  g.player1 */\n      dup1\n      sload\n        /* \"contracts/CoreClashGameV2.sol\":11261:11274  g.stakeAmount */\n      0x03\n      dup3\n      add\n      sload\n        /* \"contracts/CoreClashGameV2.sol\":11223:11235  g.stakeToken */\n      0x02\n      dup4\n      add\n      sload\n        /* \"contracts/CoreClashGameV2.sol\":11216:11275  IERC20(g.stakeToken).safeTransfer(g.player1, g.stakeAmount) */\n      tag_210\n      swap3\n      sub(shl(0xa0, 0x01), 0x01)\n        /* \"contracts/CoreClashGameV2.sol\":11223:11235  g.stakeToken */\n      swap2\n      dup3\n      and\n      swap3\n        /* \"contracts/CoreClashGameV2.sol\":11250:11259  g.player1 */\n      swap2\n      and\n      swap1\n        /* \"contracts/CoreClashGameV2.sol\":11216:11249  IERC20(g.stakeToken).safeTransfer */\n      tag_211\n        /* \"contracts/CoreClashGameV2.sol\":11216:11275  IERC20(g.stakeToken).safeTransfer(g.player1, g.stakeAmount) */\n      jump\t// in\n    tag_210:\n        /* \"contracts/CoreClashGameV2.sol\":11296:11327  GameSettled(gameId, address(0)) */\n      mload(0x40)\n        /* \"contracts/CoreClashGameV2.sol\":11324:11325  0 */\n      0x00\n        /* \"#utility.yul\":2748:2799   */\n      dup2\n      mstore\n        /* \"contracts/CoreClashGameV2.sol\":11308:11314  gameId */\n      dup3\n      swap1\n        /* \"contracts/CoreClashGameV2.sol\":11296:11327  GameSettled(gameId, address(0)) */\n      0xf27faae2acd1ebca672f8ca0d896f3e0eb13164004932b3fbcfc2547167c8bb7\n      swap1\n        /* \"#utility.yul\":2736:2738   */\n      0x20\n        /* \"#utility.yul\":2721:2739   */\n      add\n        /* \"contracts/CoreClashGameV2.sol\":11296:11327  GameSettled(gameId, address(0)) */\n      mload(0x40)\n      dup1\n      swap2\n      sub\n      swap1\n      log2\n        /* \"contracts/CoreClashGameV2.sol\":10915:11383  {... */\n      pop\n        /* \"contracts/CoreClashGameV2.sol\":10862:11383  function cancelUnjoinedGame(uint256 gameId) external {... */\n      pop\n      jump\t// out\n        /* \"contracts/CoreClashGameV2.sol\":6912:7737  function submitCommit(... */\n    tag_108:\n        /* \"contracts/CoreClashGameV2.sol\":7069:7083  Game storage g */\n      0x00\n        /* \"contracts/CoreClashGameV2.sol\":7086:7091  games */\n      0x03\n        /* \"contracts/CoreClashGameV2.sol\":7092:7098  gameId */\n      dup7\n        /* \"contracts/CoreClashGameV2.sol\":7086:7099  games[gameId] */\n      dup2\n      sload\n      dup2\n      lt\n      tag_215\n      jumpi\n      tag_215\n      tag_164\n      jump\t// in\n    tag_215:\n      0x00\n      swap2\n      dup3\n      mstore\n      0x20\n      dup1\n      dup4\n      keccak256\n        /* \"contracts/CoreClashGameV2.sol\":7217:7233  DOMAIN_SEPARATOR */\n      sload(0x02)\n        /* \"contracts/CoreClashGameV2.sol\":7262:7305  abi.encode(COMMIT_TYPEHASH, gameId, commit) */\n      0x40\n      dup1\n      mload\n        /* \"contracts/CoreClashGameV2.sol\":677:727  keccak256(\"Commit(uint256 gameId,bytes32 commit)\") */\n      0xf9a4bb626f7677582ca1a01dcf5e2aa8f3de98d999adc0598509571b99fe8adb\n        /* \"contracts/CoreClashGameV2.sol\":7262:7305  abi.encode(COMMIT_TYPEHASH, gameId, commit) */\n      dup2\n      dup7\n      add\n        /* \"#utility.yul\":11658:11683   */\n      mstore\n        /* \"#utility.yul\":11699:11717   */\n      dup1\n      dup3\n      add\n        /* \"#utility.yul\":11692:11726   */\n      dup14\n      swap1\n      mstore\n        /* \"#utility.yul\":11742:11760   */\n      0x60\n      dup1\n      dup3\n      add\n        /* \"#utility.yul\":11735:11769   */\n      dup14\n      swap1\n      mstore\n        /* \"contracts/CoreClashGameV2.sol\":7262:7305  abi.encode(COMMIT_TYPEHASH, gameId, commit) */\n      dup3\n      mload\n      dup1\n      dup4\n      sub\n      swap1\n      swap2\n      add\n      dup2\n      mstore\n        /* \"#utility.yul\":11631:11649   */\n      0x80\n      dup3\n      add\n        /* \"contracts/CoreClashGameV2.sol\":7262:7305  abi.encode(COMMIT_TYPEHASH, gameId, commit) */\n      swap1\n      swap3\n      mstore\n        /* \"contracts/CoreClashGameV2.sol\":7252:7306  keccak256(abi.encode(COMMIT_TYPEHASH, gameId, commit)) */\n      dup2\n      mload\n      swap2\n      swap1\n      swap5\n      add\n      keccak256\n      shl(0xf0, 0x1901)\n        /* \"contracts/CoreClashGameV2.sol\":7153:7321  abi.encodePacked(... */\n      0xa0\n      dup6\n      add\n        /* \"#utility.yul\":12038:12065   */\n      mstore\n        /* \"#utility.yul\":12081:12092   */\n      0xa2\n      dup5\n      add\n        /* \"#utility.yul\":12074:12101   */\n      swap2\n      swap1\n      swap2\n      mstore\n        /* \"#utility.yul\":12117:12129   */\n      0xc2\n      dup4\n      add\n        /* \"#utility.yul\":12110:12138   */\n      mstore\n        /* \"contracts/CoreClashGameV2.sol\":7086:7099  games[gameId] */\n      0x0b\n      swap3\n      swap1\n      swap3\n      mul\n      swap1\n      swap2\n      add\n      swap3\n      pop\n        /* \"#utility.yul\":12154:12166   */\n      0xe2\n      add\n        /* \"contracts/CoreClashGameV2.sol\":7153:7321  abi.encodePacked(... */\n      0x40\n      dup1\n      mload\n      not(0x1f)\n      dup2\n      dup5\n      sub\n      add\n      dup2\n      mstore\n      dup3\n      dup3\n      mstore\n        /* \"contracts/CoreClashGameV2.sol\":7129:7332  keccak256(... */\n      dup1\n      mload\n        /* \"contracts/CoreClashGameV2.sol\":7153:7321  abi.encodePacked(... */\n      0x20\n        /* \"contracts/CoreClashGameV2.sol\":7129:7332  keccak256(... */\n      swap2\n      dup3\n      add\n      keccak256\n        /* \"contracts/CoreClashGameV2.sol\":7345:7359  address signer */\n      0x00\n        /* \"contracts/CoreClashGameV2.sol\":7362:7388  ecrecover(digest, v, r, s) */\n      dup1\n      dup6\n      mstore\n      swap2\n      dup5\n      add\n      dup1\n      dup5\n      mstore\n        /* \"#utility.yul\":12404:12429   */\n      dup2\n      swap1\n      mstore\n        /* \"#utility.yul\":12477:12481   */\n      0xff\n        /* \"#utility.yul\":12465:12482   */\n      dup10\n      and\n        /* \"#utility.yul\":12445:12463   */\n      swap3\n      dup5\n      add\n        /* \"#utility.yul\":12438:12483   */\n      swap3\n      swap1\n      swap3\n      mstore\n        /* \"#utility.yul\":12499:12517   */\n      0x60\n      dup4\n      add\n        /* \"#utility.yul\":12492:12526   */\n      dup8\n      swap1\n      mstore\n        /* \"#utility.yul\":12542:12560   */\n      0x80\n      dup4\n      add\n        /* \"#utility.yul\":12535:12569   */\n      dup7\n      swap1\n      mstore\n        /* \"contracts/CoreClashGameV2.sol\":7129:7332  keccak256(... */\n      swap1\n      swap3\n      pop\n        /* \"contracts/CoreClashGameV2.sol\":7345:7359  address signer */\n      swap1\n        /* \"contracts/CoreClashGameV2.sol\":7362:7388  ecrecover(digest, v, r, s) */\n      0x01\n      swap1\n        /* \"#utility.yul\":12376:12395   */\n      0xa0\n      add\n        /* \"contracts/CoreClashGameV2.sol\":7362:7388  ecrecover(digest, v, r, s) */\n      0x20\n      mload(0x40)\n      0x20\n      dup2\n      sub\n      swap1\n      dup1\n      dup5\n      sub\n      swap1\n      dup6\n      gas\n      staticcall\n      iszero\n      dup1\n      iszero\n      tag_224\n      jumpi\n      returndatasize\n      0x00\n      dup1\n      returndatacopy\n      revert(0x00, returndatasize)\n    tag_224:\n      pop\n      pop\n      mload(add(not(0x1f), mload(0x40)))\n      swap2\n      pop\n      pop\n      sub(shl(0xa0, 0x01), 0x01)\n        /* \"contracts/CoreClashGameV2.sol\":7407:7427  signer == msg.sender */\n      dup2\n      and\n        /* \"contracts/CoreClashGameV2.sol\":7417:7427  msg.sender */\n      caller\n        /* \"contracts/CoreClashGameV2.sol\":7407:7427  signer == msg.sender */\n      eq\n        /* \"contracts/CoreClashGameV2.sol\":7399:7445  require(signer == msg.sender, \"Bad signature\") */\n      tag_225\n      jumpi\n      mload(0x40)\n      shl(0xe5, 0x461bcd)\n      dup2\n      mstore\n        /* \"#utility.yul\":12782:12784   */\n      0x20\n        /* \"contracts/CoreClashGameV2.sol\":7399:7445  require(signer == msg.sender, \"Bad signature\") */\n      0x04\n      dup3\n      add\n        /* \"#utility.yul\":12764:12785   */\n      mstore\n        /* \"#utility.yul\":12821:12823   */\n      0x0d\n        /* \"#utility.yul\":12801:12819   */\n      0x24\n      dup3\n      add\n        /* \"#utility.yul\":12794:12824   */\n      mstore\n      shl(0x98, 0x426164207369676e6174757265)\n        /* \"#utility.yul\":12840:12858   */\n      0x44\n      dup3\n      add\n        /* \"#utility.yul\":12833:12876   */\n      mstore\n        /* \"#utility.yul\":12893:12911   */\n      0x64\n      add\n        /* \"contracts/CoreClashGameV2.sol\":7399:7445  require(signer == msg.sender, \"Bad signature\") */\n      tag_139\n        /* \"#utility.yul\":12580:12917   */\n      jump\n        /* \"contracts/CoreClashGameV2.sol\":7399:7445  require(signer == msg.sender, \"Bad signature\") */\n    tag_225:\n        /* \"contracts/CoreClashGameV2.sol\":7476:7485  g.player1 */\n      dup3\n      sload\n      sub(shl(0xa0, 0x01), 0x01)\n      and\n        /* \"contracts/CoreClashGameV2.sol\":7462:7472  msg.sender */\n      caller\n        /* \"contracts/CoreClashGameV2.sol\":7462:7485  msg.sender == g.player1 */\n      sub\n        /* \"contracts/CoreClashGameV2.sol\":7458:7677  if (msg.sender == g.player1) {... */\n      tag_228\n      jumpi\n        /* \"contracts/CoreClashGameV2.sol\":7502:7517  g.player1Commit */\n      0x04\n      dup4\n      add\n        /* \"contracts/CoreClashGameV2.sol\":7502:7526  g.player1Commit = commit */\n      dup8\n      swap1\n      sstore\n        /* \"contracts/CoreClashGameV2.sol\":7458:7677  if (msg.sender == g.player1) {... */\n      jump(tag_231)\n    tag_228:\n        /* \"contracts/CoreClashGameV2.sol\":7562:7571  g.player2 */\n      0x01\n      dup4\n      add\n      sload\n      sub(shl(0xa0, 0x01), 0x01)\n      and\n        /* \"contracts/CoreClashGameV2.sol\":7548:7558  msg.sender */\n      caller\n        /* \"contracts/CoreClashGameV2.sol\":7548:7571  msg.sender == g.player2 */\n      sub\n        /* \"contracts/CoreClashGameV2.sol\":7544:7677  if (msg.sender == g.player2) {... */\n      tag_230\n      jumpi\n        /* \"contracts/CoreClashGameV2.sol\":7588:7603  g.player2Commit */\n      0x05\n      dup4\n      add\n        /* \"contracts/CoreClashGameV2.sol\":7588:7612  g.player2Commit = commit */\n      dup8\n      swap1\n      sstore\n        /* \"contracts/CoreClashGameV2.sol\":7544:7677  if (msg.sender == g.player2) {... */\n      jump(tag_231)\n    tag_230:\n        /* \"contracts/CoreClashGameV2.sol\":7645:7665  revert(\"Not player\") */\n      mload(0x40)\n      shl(0xe5, 0x461bcd)\n      dup2\n      mstore\n        /* \"#utility.yul\":13124:13126   */\n      0x20\n        /* \"contracts/CoreClashGameV2.sol\":7645:7665  revert(\"Not player\") */\n      0x04\n      dup3\n      add\n        /* \"#utility.yul\":13106:13127   */\n      mstore\n        /* \"#utility.yul\":13163:13165   */\n      0x0a\n        /* \"#utility.yul\":13143:13161   */\n      0x24\n      dup3\n      add\n        /* \"#utility.yul\":13136:13166   */\n      mstore\n      shl(0xb1, 0x2737ba10383630bcb2b9)\n        /* \"#utility.yul\":13182:13200   */\n      0x44\n      dup3\n      add\n        /* \"#utility.yul\":13175:13215   */\n      mstore\n        /* \"#utility.yul\":13232:13250   */\n      0x64\n      add\n        /* \"contracts/CoreClashGameV2.sol\":7645:7665  revert(\"Not player\") */\n      tag_139\n        /* \"#utility.yul\":12922:13256   */\n      jump\n        /* \"contracts/CoreClashGameV2.sol\":7544:7677  if (msg.sender == g.player2) {... */\n    tag_231:\n        /* \"contracts/CoreClashGameV2.sol\":7694:7729  CommitSubmitted(gameId, msg.sender) */\n      mload(0x40)\n        /* \"contracts/CoreClashGameV2.sol\":7718:7728  msg.sender */\n      caller\n      swap1\n        /* \"contracts/CoreClashGameV2.sol\":7710:7716  gameId */\n      dup10\n      swap1\n        /* \"contracts/CoreClashGameV2.sol\":7694:7729  CommitSubmitted(gameId, msg.sender) */\n      0xaf398d01fa79335dfe9179fda01a76ccb61aa3c3e0eb5cb31ede3dcea66af762\n      swap1\n      0x00\n      swap1\n      log3\n        /* \"contracts/CoreClashGameV2.sol\":7058:7737  {... */\n      pop\n      pop\n      pop\n        /* \"contracts/CoreClashGameV2.sol\":6912:7737  function submitCommit(... */\n      pop\n      pop\n      pop\n      pop\n      pop\n      jump\t// out\n        /* \"contracts/CoreClashGameV2.sol\":6156:6719  function joinGame(... */\n    tag_112:\n        /* \"contracts/CoreClashGameV2.sol\":6251:6265  Game storage g */\n      0x00\n        /* \"contracts/CoreClashGameV2.sol\":6268:6273  games */\n      0x03\n        /* \"contracts/CoreClashGameV2.sol\":6274:6280  gameId */\n      dup4\n        /* \"contracts/CoreClashGameV2.sol\":6268:6281  games[gameId] */\n      dup2\n      sload\n      dup2\n      lt\n      tag_236\n      jumpi\n      tag_236\n      tag_164\n      jump\t// in\n    tag_236:\n      0x00\n      swap2\n      dup3\n      mstore\n      0x20\n      swap1\n      swap2\n      keccak256\n      0x0b\n      swap1\n      swap2\n      mul\n      add\n        /* \"contracts/CoreClashGameV2.sol\":6302:6311  g.player2 */\n      0x01\n      dup2\n      add\n      sload\n        /* \"contracts/CoreClashGameV2.sol\":6268:6281  games[gameId] */\n      swap1\n      swap2\n      pop\n      sub(shl(0xa0, 0x01), 0x01)\n        /* \"contracts/CoreClashGameV2.sol\":6302:6311  g.player2 */\n      and\n        /* \"contracts/CoreClashGameV2.sol\":6302:6325  g.player2 == address(0) */\n      iszero\n        /* \"contracts/CoreClashGameV2.sol\":6294:6344  require(g.player2 == address(0), \"Already joined\") */\n      tag_238\n      jumpi\n      mload(0x40)\n      shl(0xe5, 0x461bcd)\n      dup2\n      mstore\n        /* \"#utility.yul\":13463:13465   */\n      0x20\n        /* \"contracts/CoreClashGameV2.sol\":6294:6344  require(g.player2 == address(0), \"Already joined\") */\n      0x04\n      dup3\n      add\n        /* \"#utility.yul\":13445:13466   */\n      mstore\n        /* \"#utility.yul\":13502:13504   */\n      0x0e\n        /* \"#utility.yul\":13482:13500   */\n      0x24\n      dup3\n      add\n        /* \"#utility.yul\":13475:13505   */\n      mstore\n      shl(0x92, 0x105b1c9958591e481a9bda5b9959)\n        /* \"#utility.yul\":13521:13539   */\n      0x44\n      dup3\n      add\n        /* \"#utility.yul\":13514:13558   */\n      mstore\n        /* \"#utility.yul\":13575:13593   */\n      0x64\n      add\n        /* \"contracts/CoreClashGameV2.sol\":6294:6344  require(g.player2 == address(0), \"Already joined\") */\n      tag_139\n        /* \"#utility.yul\":13261:13599   */\n      jump\n        /* \"contracts/CoreClashGameV2.sol\":6294:6344  require(g.player2 == address(0), \"Already joined\") */\n    tag_238:\n        /* \"contracts/CoreClashGameV2.sol\":6462:6475  g.stakeAmount */\n      0x03\n      dup2\n      add\n      sload\n        /* \"contracts/CoreClashGameV2.sol\":6364:6376  g.stakeToken */\n      0x02\n      dup3\n      add\n      sload\n        /* \"contracts/CoreClashGameV2.sol\":6357:6486  IERC20(g.stakeToken).safeTransferFrom(... */\n      tag_241\n      swap2\n      sub(shl(0xa0, 0x01), 0x01)\n        /* \"contracts/CoreClashGameV2.sol\":6364:6376  g.stakeToken */\n      swap1\n      swap2\n      and\n      swap1\n        /* \"contracts/CoreClashGameV2.sol\":6409:6419  msg.sender */\n      caller\n      swap1\n        /* \"contracts/CoreClashGameV2.sol\":6442:6446  this */\n      address\n      swap1\n        /* \"contracts/CoreClashGameV2.sol\":6357:6394  IERC20(g.stakeToken).safeTransferFrom */\n      tag_142\n        /* \"contracts/CoreClashGameV2.sol\":6357:6486  IERC20(g.stakeToken).safeTransferFrom(... */\n      jump\t// in\n    tag_241:\n        /* \"contracts/CoreClashGameV2.sol\":6499:6508  g.player2 */\n      0x01\n      dup2\n      add\n        /* \"contracts/CoreClashGameV2.sol\":6499:6521  g.player2 = msg.sender */\n      dup1\n      sload\n      not(sub(shl(0xa0, 0x01), 0x01))\n      and\n        /* \"contracts/CoreClashGameV2.sol\":6511:6521  msg.sender */\n      caller\n        /* \"contracts/CoreClashGameV2.sol\":6499:6521  g.player2 = msg.sender */\n      or\n      swap1\n      sstore\n        /* \"contracts/CoreClashGameV2.sol\":6532:6547  g.player2Commit */\n      0x05\n      dup2\n      add\n        /* \"contracts/CoreClashGameV2.sol\":6532:6556  g.player2Commit = commit */\n      dup3\n      swap1\n      sstore\n        /* \"contracts/CoreClashGameV2.sol\":6587:6602  block.timestamp */\n      timestamp\n        /* \"contracts/CoreClashGameV2.sol\":6569:6584  g.joinTimestamp */\n      0x08\n      dup3\n      add\n        /* \"contracts/CoreClashGameV2.sol\":6569:6602  g.joinTimestamp = block.timestamp */\n      dup2\n      swap1\n      sstore\n        /* \"contracts/CoreClashGameV2.sol\":6632:6663  block.timestamp + REVEAL_WINDOW */\n      tag_242\n      swap1\n        /* \"contracts/CoreClashGameV2.sol\":611:617  5 days */\n      0x069780\n      swap1\n        /* \"contracts/CoreClashGameV2.sol\":6632:6663  block.timestamp + REVEAL_WINDOW */\n      tag_243\n      jump\t// in\n    tag_242:\n        /* \"contracts/CoreClashGameV2.sol\":6613:6629  g.revealDeadline */\n      0x09\n      dup3\n      add\n        /* \"contracts/CoreClashGameV2.sol\":6613:6663  g.revealDeadline = block.timestamp + REVEAL_WINDOW */\n      sstore\n        /* \"contracts/CoreClashGameV2.sol\":6681:6711  GameJoined(gameId, msg.sender) */\n      mload(0x40)\n        /* \"contracts/CoreClashGameV2.sol\":6700:6710  msg.sender */\n      caller\n      swap1\n        /* \"contracts/CoreClashGameV2.sol\":6692:6698  gameId */\n      dup5\n      swap1\n        /* \"contracts/CoreClashGameV2.sol\":6681:6711  GameJoined(gameId, msg.sender) */\n      0x45c4f9cbafe186141862608c493f28b823fde4c2142bedc3f5169961a73fdd22\n      swap1\n      0x00\n      swap1\n      log3\n        /* \"contracts/CoreClashGameV2.sol\":6240:6719  {... */\n      pop\n        /* \"contracts/CoreClashGameV2.sol\":6156:6719  function joinGame(... */\n      pop\n      pop\n      jump\t// out\n        /* \"contracts/CoreClashGameV2.sol\":9040:9456  function postWinner(uint256 gameId, address winner) external onlyOwner {... */\n    tag_116:\n        /* \"contracts/CoreClashRarityLookupTable.sol\":1477:1482  owner */\n      and(sub(shl(0xa0, 0x01), 0x01), sload(0x01))\n        /* \"contracts/CoreClashRarityLookupTable.sol\":1463:1473  msg.sender */\n      caller\n        /* \"contracts/CoreClashRarityLookupTable.sol\":1463:1482  msg.sender != owner */\n      eq\n        /* \"contracts/CoreClashRarityLookupTable.sol\":1459:1501  if (msg.sender != owner) revert NotOwner() */\n      tag_245\n      jumpi\n        /* \"contracts/CoreClashRarityLookupTable.sol\":1491:1501  NotOwner() */\n      mload(0x40)\n      shl(0xe0, 0x30cd7471)\n      dup2\n      mstore\n      0x04\n      add\n      mload(0x40)\n      dup1\n      swap2\n      sub\n      swap1\n      revert\n        /* \"contracts/CoreClashRarityLookupTable.sol\":1459:1501  if (msg.sender != owner) revert NotOwner() */\n    tag_245:\n        /* \"contracts/CoreClashGameV2.sol\":9122:9136  Game storage g */\n      0x00\n        /* \"contracts/CoreClashGameV2.sol\":9139:9144  games */\n      0x03\n        /* \"contracts/CoreClashGameV2.sol\":9145:9151  gameId */\n      dup4\n        /* \"contracts/CoreClashGameV2.sol\":9139:9152  games[gameId] */\n      dup2\n      sload\n      dup2\n      lt\n      tag_248\n      jumpi\n      tag_248\n      tag_164\n      jump\t// in\n    tag_248:\n      0x00\n      swap2\n      dup3\n      mstore\n      0x20\n      swap1\n      swap2\n      keccak256\n      0x0b\n      swap1\n      swap2\n      mul\n      add\n        /* \"contracts/CoreClashGameV2.sol\":9172:9181  g.settled */\n      0x0a\n      dup2\n      add\n      sload\n        /* \"contracts/CoreClashGameV2.sol\":9139:9152  games[gameId] */\n      swap1\n      swap2\n      pop\n        /* \"contracts/CoreClashGameV2.sol\":9172:9181  g.settled */\n      0xff\n      and\n        /* \"contracts/CoreClashGameV2.sol\":9171:9181  !g.settled */\n      iszero\n        /* \"contracts/CoreClashGameV2.sol\":9163:9193  require(!g.settled, \"Settled\") */\n      tag_250\n      jumpi\n      mload(0x40)\n      shl(0xe5, 0x461bcd)\n      dup2\n      mstore\n      0x04\n      add\n      tag_139\n      swap1\n      tag_168\n      jump\t// in\n    tag_250:\n        /* \"contracts/CoreClashGameV2.sol\":9236:9245  g.player1 */\n      dup1\n      sload\n      sub(shl(0xa0, 0x01), 0x01)\n        /* \"contracts/CoreClashGameV2.sol\":9226:9245  winner == g.player1 */\n      dup4\n      dup2\n      and\n        /* \"contracts/CoreClashGameV2.sol\":9236:9245  g.player1 */\n      swap2\n      and\n        /* \"contracts/CoreClashGameV2.sol\":9226:9245  winner == g.player1 */\n      eq\n      dup1\n        /* \"contracts/CoreClashGameV2.sol\":9226:9285  winner == g.player1 ||... */\n      tag_252\n      jumpi\n      pop\n        /* \"contracts/CoreClashGameV2.sol\":9276:9285  g.player2 */\n      0x01\n      dup2\n      add\n      sload\n      sub(shl(0xa0, 0x01), 0x01)\n        /* \"contracts/CoreClashGameV2.sol\":9266:9285  winner == g.player2 */\n      dup4\n      dup2\n      and\n        /* \"contracts/CoreClashGameV2.sol\":9276:9285  g.player2 */\n      swap2\n      and\n        /* \"contracts/CoreClashGameV2.sol\":9266:9285  winner == g.player2 */\n      eq\n        /* \"contracts/CoreClashGameV2.sol\":9226:9285  winner == g.player1 ||... */\n    tag_252:\n        /* \"contracts/CoreClashGameV2.sol\":9226:9326  winner == g.player1 ||... */\n      dup1\n      tag_253\n      jumpi\n      pop\n      sub(shl(0xa0, 0x01), 0x01)\n        /* \"contracts/CoreClashGameV2.sol\":9306:9326  winner == address(0) */\n      dup3\n      and\n      iszero\n        /* \"contracts/CoreClashGameV2.sol\":9226:9326  winner == g.player1 ||... */\n    tag_253:\n        /* \"contracts/CoreClashGameV2.sol\":9204:9361  require(... */\n      tag_254\n      jumpi\n      mload(0x40)\n      shl(0xe5, 0x461bcd)\n      dup2\n      mstore\n        /* \"#utility.yul\":13936:13938   */\n      0x20\n        /* \"contracts/CoreClashGameV2.sol\":9204:9361  require(... */\n      0x04\n      dup3\n      add\n        /* \"#utility.yul\":13918:13939   */\n      mstore\n        /* \"#utility.yul\":13975:13976   */\n      0x07\n        /* \"#utility.yul\":13955:13973   */\n      0x24\n      dup3\n      add\n        /* \"#utility.yul\":13948:13977   */\n      mstore\n      shl(0xca, 0x125b9d985b1a59)\n        /* \"#utility.yul\":13993:14011   */\n      0x44\n      dup3\n      add\n        /* \"#utility.yul\":13986:14023   */\n      mstore\n        /* \"#utility.yul\":14040:14058   */\n      0x64\n      add\n        /* \"contracts/CoreClashGameV2.sol\":9204:9361  require(... */\n      tag_139\n        /* \"#utility.yul\":13734:14064   */\n      jump\n        /* \"contracts/CoreClashGameV2.sol\":9204:9361  require(... */\n    tag_254:\n        /* \"contracts/CoreClashGameV2.sol\":9374:9395  backendWinner[gameId] */\n      0x00\n      dup4\n      dup2\n      mstore\n        /* \"contracts/CoreClashGameV2.sol\":9374:9387  backendWinner */\n      0x05\n        /* \"contracts/CoreClashGameV2.sol\":9374:9395  backendWinner[gameId] */\n      0x20\n      swap1\n      dup2\n      mstore\n      0x40\n      swap2\n      dup3\n      swap1\n      keccak256\n        /* \"contracts/CoreClashGameV2.sol\":9374:9404  backendWinner[gameId] = winner */\n      dup1\n      sload\n      not(sub(shl(0xa0, 0x01), 0x01))\n      and\n      sub(shl(0xa0, 0x01), 0x01)\n      dup7\n      and\n      swap1\n      dup2\n      or\n      swap1\n      swap2\n      sstore\n        /* \"contracts/CoreClashGameV2.sol\":9420:9448  WinnerPosted(gameId, winner) */\n      swap2\n      mload\n        /* \"#utility.yul\":2748:2799   */\n      swap2\n      dup3\n      mstore\n        /* \"contracts/CoreClashGameV2.sol\":9374:9395  backendWinner[gameId] */\n      dup5\n      swap2\n        /* \"contracts/CoreClashGameV2.sol\":9420:9448  WinnerPosted(gameId, winner) */\n      0x4074d0bff1fdf28c9bc2363d469257d9ff1ab7fc537134b28bb50738757f8eba\n      swap2\n        /* \"#utility.yul\":2721:2739   */\n      add\n        /* \"contracts/CoreClashGameV2.sol\":9420:9448  WinnerPosted(gameId, winner) */\n      mload(0x40)\n      dup1\n      swap2\n      sub\n      swap1\n      log2\n        /* \"contracts/CoreClashGameV2.sol\":9111:9456  {... */\n      pop\n        /* \"contracts/CoreClashGameV2.sol\":9040:9456  function postWinner(uint256 gameId, address winner) external onlyOwner {... */\n      pop\n      pop\n      jump\t// out\n        /* \"contracts/CoreClashGameV2.sol\":4165:4366  function setHostWallet(address wallet) external onlyOwner {... */\n    tag_119:\n        /* \"contracts/CoreClashRarityLookupTable.sol\":1477:1482  owner */\n      and(sub(shl(0xa0, 0x01), 0x01), sload(0x01))\n        /* \"contracts/CoreClashRarityLookupTable.sol\":1463:1473  msg.sender */\n      caller\n        /* \"contracts/CoreClashRarityLookupTable.sol\":1463:1482  msg.sender != owner */\n      eq\n        /* \"contracts/CoreClashRarityLookupTable.sol\":1459:1501  if (msg.sender != owner) revert NotOwner() */\n      tag_259\n      jumpi\n        /* \"contracts/CoreClashRarityLookupTable.sol\":1491:1501  NotOwner() */\n      mload(0x40)\n      shl(0xe0, 0x30cd7471)\n      dup2\n      mstore\n      0x04\n      add\n      mload(0x40)\n      dup1\n      swap2\n      sub\n      swap1\n      revert\n        /* \"contracts/CoreClashRarityLookupTable.sol\":1459:1501  if (msg.sender != owner) revert NotOwner() */\n    tag_259:\n      sub(shl(0xa0, 0x01), 0x01)\n        /* \"contracts/CoreClashGameV2.sol\":4242:4262  wallet != address(0) */\n      dup2\n      and\n        /* \"contracts/CoreClashGameV2.sol\":4234:4279  require(wallet != address(0), \"Zero address\") */\n      tag_261\n      jumpi\n      mload(0x40)\n      shl(0xe5, 0x461bcd)\n      dup2\n      mstore\n      0x04\n      add\n      tag_139\n      swap1\n      tag_159\n      jump\t// in\n    tag_261:\n        /* \"contracts/CoreClashGameV2.sol\":4313:4323  hostWallet */\n      sload(0x08)\n        /* \"contracts/CoreClashGameV2.sol\":4295:4332  HostWalletUpdated(hostWallet, wallet) */\n      mload(0x40)\n      sub(shl(0xa0, 0x01), 0x01)\n      dup1\n      dup5\n      and\n      swap3\n        /* \"contracts/CoreClashGameV2.sol\":4313:4323  hostWallet */\n      and\n      swap1\n        /* \"contracts/CoreClashGameV2.sol\":4295:4332  HostWalletUpdated(hostWallet, wallet) */\n      0xcd6bac6338c08d47ad66538a0d9f493e785bfbd1e175e4c450429e8dfe702c52\n      swap1\n        /* \"contracts/CoreClashGameV2.sol\":4313:4323  hostWallet */\n      0x00\n      swap1\n        /* \"contracts/CoreClashGameV2.sol\":4295:4332  HostWalletUpdated(hostWallet, wallet) */\n      log3\n        /* \"contracts/CoreClashGameV2.sol\":4343:4353  hostWallet */\n      0x08\n        /* \"contracts/CoreClashGameV2.sol\":4343:4362  hostWallet = wallet */\n      dup1\n      sload\n      not(sub(shl(0xa0, 0x01), 0x01))\n      and\n      sub(shl(0xa0, 0x01), 0x01)\n      swap3\n      swap1\n      swap3\n      and\n      swap2\n      swap1\n      swap2\n      or\n      swap1\n      sstore\n        /* \"contracts/CoreClashGameV2.sol\":4165:4366  function setHostWallet(address wallet) external onlyOwner {... */\n      jump\t// out\n        /* \"contracts/CoreClashGameV2.sol\":7920:8845  function reveal(... */\n    tag_123:\n        /* \"contracts/CoreClashGameV2.sol\":8104:8118  Game storage g */\n      0x00\n        /* \"contracts/CoreClashGameV2.sol\":8121:8126  games */\n      0x03\n        /* \"contracts/CoreClashGameV2.sol\":8127:8133  gameId */\n      dup7\n        /* \"contracts/CoreClashGameV2.sol\":8121:8134  games[gameId] */\n      dup2\n      sload\n      dup2\n      lt\n      tag_265\n      jumpi\n      tag_265\n      tag_164\n      jump\t// in\n    tag_265:\n      0x00\n      swap2\n      dup3\n      mstore\n      0x20\n      swap1\n      swap2\n      keccak256\n      0x0b\n      swap1\n      swap2\n      mul\n      add\n        /* \"contracts/CoreClashGameV2.sol\":8150:8159  g.settled */\n      0x0a\n      dup2\n      add\n      sload\n        /* \"contracts/CoreClashGameV2.sol\":8121:8134  games[gameId] */\n      swap1\n      swap2\n      pop\n        /* \"contracts/CoreClashGameV2.sol\":8150:8159  g.settled */\n      0xff\n      and\n        /* \"contracts/CoreClashGameV2.sol\":8149:8159  !g.settled */\n      iszero\n        /* \"contracts/CoreClashGameV2.sol\":8141:8171  require(!g.settled, \"Settled\") */\n      tag_267\n      jumpi\n      mload(0x40)\n      shl(0xe5, 0x461bcd)\n      dup2\n      mstore\n      0x04\n      add\n      tag_139\n      swap1\n      tag_168\n      jump\t// in\n    tag_267:\n        /* \"contracts/CoreClashGameV2.sol\":8180:8208  _validateRarity(backgrounds) */\n      tag_269\n        /* \"contracts/CoreClashGameV2.sol\":8196:8207  backgrounds */\n      dup3\n        /* \"contracts/CoreClashGameV2.sol\":8180:8195  _validateRarity */\n      tag_270\n        /* \"contracts/CoreClashGameV2.sol\":8180:8208  _validateRarity(backgrounds) */\n      jump\t// in\n    tag_269:\n        /* \"contracts/CoreClashGameV2.sol\":8215:8264  _checkOwnership(msg.sender, nftContracts, nftIds) */\n      tag_271\n        /* \"contracts/CoreClashGameV2.sol\":8231:8241  msg.sender */\n      caller\n        /* \"contracts/CoreClashGameV2.sol\":8243:8255  nftContracts */\n      dup6\n        /* \"contracts/CoreClashGameV2.sol\":8257:8263  nftIds */\n      dup6\n        /* \"contracts/CoreClashGameV2.sol\":8215:8230  _checkOwnership */\n      tag_272\n        /* \"contracts/CoreClashGameV2.sol\":8215:8264  _checkOwnership(msg.sender, nftContracts, nftIds) */\n      jump\t// in\n    tag_271:\n        /* \"contracts/CoreClashGameV2.sol\":8273:8289  bytes32 computed */\n      0x00\n        /* \"contracts/CoreClashGameV2.sol\":8292:8368  _computeCommit(... */\n      tag_273\n        /* \"contracts/CoreClashGameV2.sol\":8317:8321  salt */\n      dup7\n        /* \"contracts/CoreClashGameV2.sol\":8332:8344  nftContracts */\n      dup7\n        /* \"contracts/CoreClashGameV2.sol\":8355:8361  nftIds */\n      dup7\n        /* \"contracts/CoreClashGameV2.sol\":8292:8306  _computeCommit */\n      tag_274\n        /* \"contracts/CoreClashGameV2.sol\":8292:8368  _computeCommit(... */\n      jump\t// in\n    tag_273:\n        /* \"contracts/CoreClashGameV2.sol\":8403:8412  g.player1 */\n      dup3\n      sload\n        /* \"contracts/CoreClashGameV2.sol\":8273:8368  bytes32 computed = _computeCommit(... */\n      swap1\n      swap2\n      pop\n      sub(shl(0xa0, 0x01), 0x01)\n        /* \"contracts/CoreClashGameV2.sol\":8403:8412  g.player1 */\n      and\n        /* \"contracts/CoreClashGameV2.sol\":8389:8399  msg.sender */\n      caller\n        /* \"contracts/CoreClashGameV2.sol\":8389:8412  msg.sender == g.player1 */\n      sub\n        /* \"contracts/CoreClashGameV2.sol\":8385:8800  if (msg.sender == g.player1) {... */\n      tag_275\n      jumpi\n        /* \"contracts/CoreClashGameV2.sol\":8434:8451  g.player1Revealed */\n      0x06\n      dup3\n      add\n      sload\n      0xff\n      and\n        /* \"contracts/CoreClashGameV2.sol\":8433:8451  !g.player1Revealed */\n      iszero\n        /* \"contracts/CoreClashGameV2.sol\":8425:8463  require(!g.player1Revealed, \"Already\") */\n      tag_276\n      jumpi\n      mload(0x40)\n      shl(0xe5, 0x461bcd)\n      dup2\n      mstore\n        /* \"#utility.yul\":14271:14273   */\n      0x20\n        /* \"contracts/CoreClashGameV2.sol\":8425:8463  require(!g.player1Revealed, \"Already\") */\n      0x04\n      dup3\n      add\n        /* \"#utility.yul\":14253:14274   */\n      mstore\n        /* \"#utility.yul\":14310:14311   */\n      0x07\n        /* \"#utility.yul\":14290:14308   */\n      0x24\n      dup3\n      add\n        /* \"#utility.yul\":14283:14312   */\n      mstore\n      shl(0xc8, 0x416c7265616479)\n        /* \"#utility.yul\":14328:14346   */\n      0x44\n      dup3\n      add\n        /* \"#utility.yul\":14321:14358   */\n      mstore\n        /* \"#utility.yul\":14375:14393   */\n      0x64\n      add\n        /* \"contracts/CoreClashGameV2.sol\":8425:8463  require(!g.player1Revealed, \"Already\") */\n      tag_139\n        /* \"#utility.yul\":14069:14399   */\n      jump\n        /* \"contracts/CoreClashGameV2.sol\":8425:8463  require(!g.player1Revealed, \"Already\") */\n    tag_276:\n        /* \"contracts/CoreClashGameV2.sol\":8494:8495  g */\n      dup2\n        /* \"contracts/CoreClashGameV2.sol\":8494:8509  g.player1Commit */\n      0x04\n      add\n      sload\n        /* \"contracts/CoreClashGameV2.sol\":8482:8490  computed */\n      dup2\n        /* \"contracts/CoreClashGameV2.sol\":8482:8509  computed == g.player1Commit */\n      eq\n        /* \"contracts/CoreClashGameV2.sol\":8474:8524  require(computed == g.player1Commit, \"Bad reveal\") */\n      tag_279\n      jumpi\n      mload(0x40)\n      shl(0xe5, 0x461bcd)\n      dup2\n      mstore\n        /* \"#utility.yul\":14606:14608   */\n      0x20\n        /* \"contracts/CoreClashGameV2.sol\":8474:8524  require(computed == g.player1Commit, \"Bad reveal\") */\n      0x04\n      dup3\n      add\n        /* \"#utility.yul\":14588:14609   */\n      mstore\n        /* \"#utility.yul\":14645:14647   */\n      0x0a\n        /* \"#utility.yul\":14625:14643   */\n      0x24\n      dup3\n      add\n        /* \"#utility.yul\":14618:14648   */\n      mstore\n      shl(0xb2, 0x109859081c995d99585b)\n        /* \"#utility.yul\":14664:14682   */\n      0x44\n      dup3\n      add\n        /* \"#utility.yul\":14657:14697   */\n      mstore\n        /* \"#utility.yul\":14714:14732   */\n      0x64\n      add\n        /* \"contracts/CoreClashGameV2.sol\":8474:8524  require(computed == g.player1Commit, \"Bad reveal\") */\n      tag_139\n        /* \"#utility.yul\":14404:14738   */\n      jump\n        /* \"contracts/CoreClashGameV2.sol\":8474:8524  require(computed == g.player1Commit, \"Bad reveal\") */\n    tag_279:\n        /* \"contracts/CoreClashGameV2.sol\":8535:8552  g.player1Revealed */\n      0x06\n      dup3\n      add\n        /* \"contracts/CoreClashGameV2.sol\":8535:8559  g.player1Revealed = true */\n      dup1\n      sload\n      not(0xff)\n      and\n        /* \"contracts/CoreClashGameV2.sol\":8555:8559  true */\n      0x01\n        /* \"contracts/CoreClashGameV2.sol\":8535:8559  g.player1Revealed = true */\n      or\n      swap1\n      sstore\n        /* \"contracts/CoreClashGameV2.sol\":8385:8800  if (msg.sender == g.player1) {... */\n      jump(tag_288)\n    tag_275:\n        /* \"contracts/CoreClashGameV2.sol\":8591:8600  g.player2 */\n      0x01\n      dup3\n      add\n      sload\n      sub(shl(0xa0, 0x01), 0x01)\n      and\n        /* \"contracts/CoreClashGameV2.sol\":8577:8587  msg.sender */\n      caller\n        /* \"contracts/CoreClashGameV2.sol\":8577:8600  msg.sender == g.player2 */\n      sub\n        /* \"contracts/CoreClashGameV2.sol\":8573:8800  if (msg.sender == g.player2) {... */\n      tag_230\n      jumpi\n        /* \"contracts/CoreClashGameV2.sol\":8622:8639  g.player2Revealed */\n      0x06\n      dup3\n      add\n      sload\n      0x0100\n      swap1\n      div\n      0xff\n      and\n        /* \"contracts/CoreClashGameV2.sol\":8621:8639  !g.player2Revealed */\n      iszero\n        /* \"contracts/CoreClashGameV2.sol\":8613:8651  require(!g.player2Revealed, \"Already\") */\n      tag_284\n      jumpi\n      mload(0x40)\n      shl(0xe5, 0x461bcd)\n      dup2\n      mstore\n        /* \"#utility.yul\":14271:14273   */\n      0x20\n        /* \"contracts/CoreClashGameV2.sol\":8613:8651  require(!g.player2Revealed, \"Already\") */\n      0x04\n      dup3\n      add\n        /* \"#utility.yul\":14253:14274   */\n      mstore\n        /* \"#utility.yul\":14310:14311   */\n      0x07\n        /* \"#utility.yul\":14290:14308   */\n      0x24\n      dup3\n      add\n        /* \"#utility.yul\":14283:14312   */\n      mstore\n      shl(0xc8, 0x416c7265616479)\n        /* \"#utility.yul\":14328:14346   */\n      0x44\n      dup3\n      add\n        /* \"#utility.yul\":14321:14358   */\n      mstore\n        /* \"#utility.yul\":14375:14393   */\n      0x64\n      add\n        /* \"contracts/CoreClashGameV2.sol\":8613:8651  require(!g.player2Revealed, \"Already\") */\n      tag_139\n        /* \"#utility.yul\":14069:14399   */\n      jump\n        /* \"contracts/CoreClashGameV2.sol\":8613:8651  require(!g.player2Revealed, \"Already\") */\n    tag_284:\n        /* \"contracts/CoreClashGameV2.sol\":8682:8683  g */\n      dup2\n        /* \"contracts/CoreClashGameV2.sol\":8682:8697  g.player2Commit */\n      0x05\n      add\n      sload\n        /* \"contracts/CoreClashGameV2.sol\":8670:8678  computed */\n      dup2\n        /* \"contracts/CoreClashGameV2.sol\":8670:8697  computed == g.player2Commit */\n      eq\n        /* \"contracts/CoreClashGameV2.sol\":8662:8712  require(computed == g.player2Commit, \"Bad reveal\") */\n      tag_286\n      jumpi\n      mload(0x40)\n      shl(0xe5, 0x461bcd)\n      dup2\n      mstore\n        /* \"#utility.yul\":14606:14608   */\n      0x20\n        /* \"contracts/CoreClashGameV2.sol\":8662:8712  require(computed == g.player2Commit, \"Bad reveal\") */\n      0x04\n      dup3\n      add\n        /* \"#utility.yul\":14588:14609   */\n      mstore\n        /* \"#utility.yul\":14645:14647   */\n      0x0a\n        /* \"#utility.yul\":14625:14643   */\n      0x24\n      dup3\n      add\n        /* \"#utility.yul\":14618:14648   */\n      mstore\n      shl(0xb2, 0x109859081c995d99585b)\n        /* \"#utility.yul\":14664:14682   */\n      0x44\n      dup3\n      add\n        /* \"#utility.yul\":14657:14697   */\n      mstore\n        /* \"#utility.yul\":14714:14732   */\n      0x64\n      add\n        /* \"contracts/CoreClashGameV2.sol\":8662:8712  require(computed == g.player2Commit, \"Bad reveal\") */\n      tag_139\n        /* \"#utility.yul\":14404:14738   */\n      jump\n        /* \"contracts/CoreClashGameV2.sol\":8662:8712  require(computed == g.player2Commit, \"Bad reveal\") */\n    tag_286:\n        /* \"contracts/CoreClashGameV2.sol\":8723:8740  g.player2Revealed */\n      0x06\n      dup3\n      add\n        /* \"contracts/CoreClashGameV2.sol\":8723:8747  g.player2Revealed = true */\n      dup1\n      sload\n      not(0xff00)\n      and\n      0x0100\n      or\n      swap1\n      sstore\n        /* \"contracts/CoreClashGameV2.sol\":8573:8800  if (msg.sender == g.player2) {... */\n    tag_288:\n        /* \"contracts/CoreClashGameV2.sol\":8813:8841  Revealed(gameId, msg.sender) */\n      mload(0x40)\n        /* \"contracts/CoreClashGameV2.sol\":8830:8840  msg.sender */\n      caller\n      swap1\n        /* \"contracts/CoreClashGameV2.sol\":8822:8828  gameId */\n      dup9\n      swap1\n        /* \"contracts/CoreClashGameV2.sol\":8813:8841  Revealed(gameId, msg.sender) */\n      0x6e9dac3f3f833c1d527aa989d3a673884ddc11e31fdccc11ccd8aebf1ae069ac\n      swap1\n      0x00\n      swap1\n      log3\n        /* \"contracts/CoreClashGameV2.sol\":8097:8845  {... */\n      pop\n      pop\n        /* \"contracts/CoreClashGameV2.sol\":7920:8845  function reveal(... */\n      pop\n      pop\n      pop\n      pop\n      pop\n      jump\t// out\n        /* \"contracts/CoreClashRarityLookupTable.sol\":3452:3662  function transferOwnership(address newOwner) external onlyOwner {... */\n    tag_129:\n        /* \"contracts/CoreClashRarityLookupTable.sol\":1477:1482  owner */\n      and(sub(shl(0xa0, 0x01), 0x01), sload(0x01))\n        /* \"contracts/CoreClashRarityLookupTable.sol\":1463:1473  msg.sender */\n      caller\n        /* \"contracts/CoreClashRarityLookupTable.sol\":1463:1482  msg.sender != owner */\n      eq\n        /* \"contracts/CoreClashRarityLookupTable.sol\":1459:1501  if (msg.sender != owner) revert NotOwner() */\n      tag_291\n      jumpi\n        /* \"contracts/CoreClashRarityLookupTable.sol\":1491:1501  NotOwner() */\n      mload(0x40)\n      shl(0xe0, 0x30cd7471)\n      dup2\n      mstore\n      0x04\n      add\n      mload(0x40)\n      dup1\n      swap2\n      sub\n      swap1\n      revert\n        /* \"contracts/CoreClashRarityLookupTable.sol\":1459:1501  if (msg.sender != owner) revert NotOwner() */\n    tag_291:\n      sub(shl(0xa0, 0x01), 0x01)\n        /* \"contracts/CoreClashRarityLookupTable.sol\":3535:3557  newOwner != address(0) */\n      dup2\n      and\n        /* \"contracts/CoreClashRarityLookupTable.sol\":3527:3574  require(newOwner != address(0), \"Zero address\") */\n      tag_293\n      jumpi\n      mload(0x40)\n      shl(0xe5, 0x461bcd)\n      dup2\n      mstore\n      0x04\n      add\n      tag_139\n      swap1\n      tag_159\n      jump\t// in\n    tag_293:\n        /* \"contracts/CoreClashRarityLookupTable.sol\":3611:3616  owner */\n      sload(0x01)\n        /* \"contracts/CoreClashRarityLookupTable.sol\":3590:3627  OwnershipTransferred(owner, newOwner) */\n      mload(0x40)\n      sub(shl(0xa0, 0x01), 0x01)\n      dup1\n      dup5\n      and\n      swap3\n        /* \"contracts/CoreClashRarityLookupTable.sol\":3611:3616  owner */\n      and\n      swap1\n        /* \"contracts/CoreClashRarityLookupTable.sol\":3590:3627  OwnershipTransferred(owner, newOwner) */\n      0x8be0079c531659141344cd1fd0a4f28419497f9722a3daafe3b4186f6b6457e0\n      swap1\n        /* \"contracts/CoreClashRarityLookupTable.sol\":3611:3616  owner */\n      0x00\n      swap1\n        /* \"contracts/CoreClashRarityLookupTable.sol\":3590:3627  OwnershipTransferred(owner, newOwner) */\n      log3\n        /* \"contracts/CoreClashRarityLookupTable.sol\":3638:3643  owner */\n      0x01\n        /* \"contracts/CoreClashRarityLookupTable.sol\":3638:3654  owner = newOwner */\n      dup1\n      sload\n      not(sub(shl(0xa0, 0x01), 0x01))\n      and\n      sub(shl(0xa0, 0x01), 0x01)\n      swap3\n      swap1\n      swap3\n      and\n      swap2\n      swap1\n      swap2\n      or\n      swap1\n      sstore\n        /* \"contracts/CoreClashRarityLookupTable.sol\":3452:3662  function transferOwnership(address newOwner) external onlyOwner {... */\n      jump\t// out\n        /* \"contracts/CoreClashGameV2.sol\":11597:12021  function forceCancelUnjoinedGame(uint256 gameId) external onlyOwner {... */\n    tag_132:\n        /* \"contracts/CoreClashRarityLookupTable.sol\":1477:1482  owner */\n      and(sub(shl(0xa0, 0x01), 0x01), sload(0x01))\n        /* \"contracts/CoreClashRarityLookupTable.sol\":1463:1473  msg.sender */\n      caller\n        /* \"contracts/CoreClashRarityLookupTable.sol\":1463:1482  msg.sender != owner */\n      eq\n        /* \"contracts/CoreClashRarityLookupTable.sol\":1459:1501  if (msg.sender != owner) revert NotOwner() */\n      tag_296\n      jumpi\n        /* \"contracts/CoreClashRarityLookupTable.sol\":1491:1501  NotOwner() */\n      mload(0x40)\n      shl(0xe0, 0x30cd7471)\n      dup2\n      mstore\n      0x04\n      add\n      mload(0x40)\n      dup1\n      swap2\n      sub\n      swap1\n      revert\n        /* \"contracts/CoreClashRarityLookupTable.sol\":1459:1501  if (msg.sender != owner) revert NotOwner() */\n    tag_296:\n        /* \"contracts/CoreClashGameV2.sol\":11672:11686  Game storage g */\n      0x00\n        /* \"contracts/CoreClashGameV2.sol\":11689:11694  games */\n      0x03\n        /* \"contracts/CoreClashGameV2.sol\":11695:11701  gameId */\n      dup3\n        /* \"contracts/CoreClashGameV2.sol\":11689:11702  games[gameId] */\n      dup2\n      sload\n      dup2\n      lt\n      tag_299\n      jumpi\n      tag_299\n      tag_164\n      jump\t// in\n    tag_299:\n      0x00\n      swap2\n      dup3\n      mstore\n      0x20\n      swap1\n      swap2\n      keccak256\n      0x0b\n      swap1\n      swap2\n      mul\n      add\n        /* \"contracts/CoreClashGameV2.sol\":11720:11729  g.settled */\n      0x0a\n      dup2\n      add\n      sload\n        /* \"contracts/CoreClashGameV2.sol\":11689:11702  games[gameId] */\n      swap1\n      swap2\n      pop\n        /* \"contracts/CoreClashGameV2.sol\":11720:11729  g.settled */\n      0xff\n      and\n        /* \"contracts/CoreClashGameV2.sol\":11719:11729  !g.settled */\n      iszero\n        /* \"contracts/CoreClashGameV2.sol\":11711:11754  require(!g.settled, \"Game already settled\") */\n      tag_301\n      jumpi\n      mload(0x40)\n      shl(0xe5, 0x461bcd)\n      dup2\n      mstore\n        /* \"#utility.yul\":10553:10555   */\n      0x20\n        /* \"contracts/CoreClashGameV2.sol\":11711:11754  require(!g.settled, \"Game already settled\") */\n      0x04\n      dup3\n      add\n        /* \"#utility.yul\":10535:10556   */\n      mstore\n        /* \"#utility.yul\":10592:10594   */\n      0x14\n        /* \"#utility.yul\":10572:10590   */\n      0x24\n      dup3\n      add\n        /* \"#utility.yul\":10565:10595   */\n      mstore\n      shl(0x62, 0x11d85b5948185b1c9958591e481cd95d1d1b1959)\n        /* \"#utility.yul\":10611:10629   */\n      0x44\n      dup3\n      add\n        /* \"#utility.yul\":10604:10654   */\n      mstore\n        /* \"#utility.yul\":10671:10689   */\n      0x64\n      add\n        /* \"contracts/CoreClashGameV2.sol\":11711:11754  require(!g.settled, \"Game already settled\") */\n      tag_139\n        /* \"#utility.yul\":10351:10695   */\n      jump\n        /* \"contracts/CoreClashGameV2.sol\":11711:11754  require(!g.settled, \"Game already settled\") */\n    tag_301:\n        /* \"contracts/CoreClashGameV2.sol\":11769:11778  g.player2 */\n      0x01\n      dup2\n      add\n      sload\n      sub(shl(0xa0, 0x01), 0x01)\n      and\n        /* \"contracts/CoreClashGameV2.sol\":11769:11792  g.player2 == address(0) */\n      iszero\n        /* \"contracts/CoreClashGameV2.sol\":11761:11838  require(g.player2 == address(0), \"Game already joined - cannot force cancel\") */\n      tag_206\n      jumpi\n      mload(0x40)\n      shl(0xe5, 0x461bcd)\n      dup2\n      mstore\n        /* \"#utility.yul\":14945:14947   */\n      0x20\n        /* \"contracts/CoreClashGameV2.sol\":11761:11838  require(g.player2 == address(0), \"Game already joined - cannot force cancel\") */\n      0x04\n      dup3\n      add\n        /* \"#utility.yul\":14927:14948   */\n      mstore\n        /* \"#utility.yul\":14984:14986   */\n      0x29\n        /* \"#utility.yul\":14964:14982   */\n      0x24\n      dup3\n      add\n        /* \"#utility.yul\":14957:14987   */\n      mstore\n        /* \"#utility.yul\":15023:15057   */\n      0x47616d6520616c7265616479206a6f696e6564202d2063616e6e6f7420666f72\n        /* \"#utility.yul\":15003:15021   */\n      0x44\n      dup3\n      add\n        /* \"#utility.yul\":14996:15058   */\n      mstore\n      shl(0xba, 0x18d94818d85b98d95b)\n        /* \"#utility.yul\":15074:15092   */\n      0x64\n      dup3\n      add\n        /* \"#utility.yul\":15067:15106   */\n      mstore\n        /* \"#utility.yul\":15123:15142   */\n      0x84\n      add\n        /* \"contracts/CoreClashGameV2.sol\":11761:11838  require(g.player2 == address(0), \"Game already joined - cannot force cancel\") */\n      tag_139\n        /* \"#utility.yul\":14743:15148   */\n      jump\n        /* \"contracts/CoreClashRarityLookupTable.sol\":3023:3444  function setRestrictedRarities(... */\n    tag_136:\n        /* \"contracts/CoreClashRarityLookupTable.sol\":1477:1482  owner */\n      and(sub(shl(0xa0, 0x01), 0x01), sload(0x01))\n        /* \"contracts/CoreClashRarityLookupTable.sol\":1463:1473  msg.sender */\n      caller\n        /* \"contracts/CoreClashRarityLookupTable.sol\":1463:1482  msg.sender != owner */\n      eq\n        /* \"contracts/CoreClashRarityLookupTable.sol\":1459:1501  if (msg.sender != owner) revert NotOwner() */\n      tag_310\n      jumpi\n        /* \"contracts/CoreClashRarityLookupTable.sol\":1491:1501  NotOwner() */\n      mload(0x40)\n      shl(0xe0, 0x30cd7471)\n      dup2\n      mstore\n      0x04\n      add\n      mload(0x40)\n      dup1\n      swap2\n      sub\n      swap1\n      revert\n        /* \"contracts/CoreClashRarityLookupTable.sol\":1459:1501  if (msg.sender != owner) revert NotOwner() */\n    tag_310:\n        /* \"contracts/CoreClashRarityLookupTable.sol\":3169:3205  rarities.length != restricted.length */\n      dup3\n      dup2\n      eq\n        /* \"contracts/CoreClashRarityLookupTable.sol\":3165:3230  if (rarities.length != restricted.length) revert LengthMismatch() */\n      tag_312\n      jumpi\n        /* \"contracts/CoreClashRarityLookupTable.sol\":3214:3230  LengthMismatch() */\n      mload(0x40)\n      not(sub(shl(0xe3, 0x1398b9), 0x01))\n      dup2\n      mstore\n      0x04\n      add\n      mload(0x40)\n      dup1\n      swap2\n      sub\n      swap1\n      revert\n        /* \"contracts/CoreClashRarityLookupTable.sol\":3165:3230  if (rarities.length != restricted.length) revert LengthMismatch() */\n    tag_312:\n        /* \"contracts/CoreClashRarityLookupTable.sol\":3248:3257  uint256 i */\n      0x00\n        /* \"contracts/CoreClashRarityLookupTable.sol\":3243:3437  for (uint256 i = 0; i < rarities.length; i++) {... */\n    tag_313:\n        /* \"contracts/CoreClashRarityLookupTable.sol\":3263:3282  i < rarities.length */\n      dup4\n      dup2\n      lt\n        /* \"contracts/CoreClashRarityLookupTable.sol\":3243:3437  for (uint256 i = 0; i < rarities.length; i++) {... */\n      iszero\n      tag_314\n      jumpi\n        /* \"contracts/CoreClashRarityLookupTable.sol\":3314:3322  rarities */\n      dup5\n      dup5\n        /* \"contracts/CoreClashRarityLookupTable.sol\":3323:3324  i */\n      dup3\n        /* \"contracts/CoreClashRarityLookupTable.sol\":3314:3325  rarities[i] */\n      dup2\n      dup2\n      lt\n      tag_317\n      jumpi\n      tag_317\n      tag_164\n      jump\t// in\n    tag_317:\n      swap1\n      pop\n      0x20\n      mul\n      dup2\n      add\n      swap1\n      tag_318\n      swap2\n      swap1\n      tag_319\n      jump\t// in\n    tag_318:\n        /* \"contracts/CoreClashRarityLookupTable.sol\":3308:3333  bytes(rarities[i]).length */\n      swap1\n      pop\n        /* \"contracts/CoreClashRarityLookupTable.sol\":3337:3338  0 */\n      0x00\n        /* \"contracts/CoreClashRarityLookupTable.sol\":3308:3338  bytes(rarities[i]).length == 0 */\n      sub\n        /* \"contracts/CoreClashRarityLookupTable.sol\":3304:3360  if (bytes(rarities[i]).length == 0) revert EmptyRarity() */\n      tag_320\n      jumpi\n        /* \"contracts/CoreClashRarityLookupTable.sol\":3347:3360  EmptyRarity() */\n      mload(0x40)\n      shl(0xe1, 0x4b78778d)\n      dup2\n      mstore\n      0x04\n      add\n      mload(0x40)\n      dup1\n      swap2\n      sub\n      swap1\n      revert\n        /* \"contracts/CoreClashRarityLookupTable.sol\":3304:3360  if (bytes(rarities[i]).length == 0) revert EmptyRarity() */\n    tag_320:\n        /* \"contracts/CoreClashRarityLookupTable.sol\":3375:3425  _setRestrictedInternal(rarities[i], restricted[i]) */\n      tag_321\n        /* \"contracts/CoreClashRarityLookupTable.sol\":3398:3406  rarities */\n      dup6\n      dup6\n        /* \"contracts/CoreClashRarityLookupTable.sol\":3407:3408  i */\n      dup4\n        /* \"contracts/CoreClashRarityLookupTable.sol\":3398:3409  rarities[i] */\n      dup2\n      dup2\n      lt\n      tag_323\n      jumpi\n      tag_323\n      tag_164\n      jump\t// in\n    tag_323:\n      swap1\n      pop\n      0x20\n      mul\n      dup2\n      add\n      swap1\n      tag_324\n      swap2\n      swap1\n      tag_319\n      jump\t// in\n    tag_324:\n        /* \"contracts/CoreClashRarityLookupTable.sol\":3375:3425  _setRestrictedInternal(rarities[i], restricted[i]) */\n      dup1\n      dup1\n      0x1f\n      add\n      0x20\n      dup1\n      swap2\n      div\n      mul\n      0x20\n      add\n      mload(0x40)\n      swap1\n      dup2\n      add\n      0x40\n      mstore\n      dup1\n      swap4\n      swap3\n      swap2\n      swap1\n      dup2\n      dup2\n      mstore\n      0x20\n      add\n      dup4\n      dup4\n      dup1\n      dup3\n      dup5\n      calldatacopy\n      0x00\n      swap3\n      add\n      swap2\n      swap1\n      swap2\n      mstore\n      pop\n        /* \"contracts/CoreClashRarityLookupTable.sol\":3411:3421  restricted */\n      dup8\n      swap3\n      pop\n      dup7\n      swap2\n      pop\n        /* \"contracts/CoreClashRarityLookupTable.sol\":3422:3423  i */\n      dup6\n      swap1\n      pop\n        /* \"contracts/CoreClashRarityLookupTable.sol\":3411:3424  restricted[i] */\n      dup2\n      dup2\n      lt\n      tag_326\n      jumpi\n      tag_326\n      tag_164\n      jump\t// in\n    tag_326:\n      swap1\n      pop\n      0x20\n      mul\n      add\n      0x20\n      dup2\n      add\n      swap1\n      tag_327\n      swap2\n      swap1\n      tag_328\n      jump\t// in\n    tag_327:\n        /* \"contracts/CoreClashRarityLookupTable.sol\":3375:3397  _setRestrictedInternal */\n      tag_192\n        /* \"contracts/CoreClashRarityLookupTable.sol\":3375:3425  _setRestrictedInternal(rarities[i], restricted[i]) */\n      jump\t// in\n    tag_321:\n        /* \"contracts/CoreClashRarityLookupTable.sol\":3284:3287  i++ */\n      0x01\n      add\n        /* \"contracts/CoreClashRarityLookupTable.sol\":3243:3437  for (uint256 i = 0; i < rarities.length; i++) {... */\n      jump(tag_313)\n    tag_314:\n      pop\n        /* \"contracts/CoreClashRarityLookupTable.sol\":3023:3444  function setRestrictedRarities(... */\n      pop\n      pop\n      pop\n      pop\n      jump\t// out\n        /* \"@openzeppelin/contracts/token/ERC20/utils/SafeERC20.sol\":1618:1806  function safeTransferFrom(IERC20 token, address from, address to, uint256 value) internal {... */\n    tag_142:\n        /* \"@openzeppelin/contracts/token/ERC20/utils/SafeERC20.sol\":1745:1798  abi.encodeCall(token.transferFrom, (from, to, value)) */\n      mload(0x40)\n      sub(shl(0xa0, 0x01), 0x01)\n        /* \"#utility.yul\":16123:16138   */\n      dup5\n      dup2\n      and\n        /* \"@openzeppelin/contracts/token/ERC20/utils/SafeERC20.sol\":1745:1798  abi.encodeCall(token.transferFrom, (from, to, value)) */\n      0x24\n      dup4\n      add\n        /* \"#utility.yul\":16105:16139   */\n      mstore\n        /* \"#utility.yul\":16175:16190   */\n      dup4\n      dup2\n      and\n        /* \"#utility.yul\":16155:16173   */\n      0x44\n      dup4\n      add\n        /* \"#utility.yul\":16148:16191   */\n      mstore\n        /* \"#utility.yul\":16207:16225   */\n      0x64\n      dup3\n      add\n        /* \"#utility.yul\":16200:16234   */\n      dup4\n      swap1\n      mstore\n        /* \"@openzeppelin/contracts/token/ERC20/utils/SafeERC20.sol\":1718:1799  _callOptionalReturn(token, abi.encodeCall(token.transferFrom, (from, to, value))) */\n      tag_330\n      swap2\n        /* \"@openzeppelin/contracts/token/ERC20/utils/SafeERC20.sol\":1738:1743  token */\n      dup7\n      swap2\n        /* \"@openzeppelin/contracts/token/ERC20/utils/SafeERC20.sol\":1760:1778  token.transferFrom */\n      dup3\n      and\n      swap1\n      0x23b872dd\n      swap1\n        /* \"#utility.yul\":16040:16058   */\n      0x84\n      add\n        /* \"@openzeppelin/contracts/token/ERC20/utils/SafeERC20.sol\":1745:1798  abi.encodeCall(token.transferFrom, (from, to, value)) */\n    tag_331:\n      mload(0x40)\n      0x20\n      dup2\n      dup4\n      sub\n      sub\n      dup2\n      mstore\n      swap1\n      0x40\n      mstore\n      swap2\n      pop\n      0xe0\n      shl\n      0x20\n      dup3\n      add\n      dup1\n      mload\n      sub(shl(0xe0, 0x01), 0x01)\n      dup4\n      dup2\n      dup4\n      and\n      or\n      dup4\n      mstore\n      pop\n      pop\n      pop\n      pop\n        /* \"@openzeppelin/contracts/token/ERC20/utils/SafeERC20.sol\":1718:1737  _callOptionalReturn */\n      tag_333\n        /* \"@openzeppelin/contracts/token/ERC20/utils/SafeERC20.sol\":1718:1799  _callOptionalReturn(token, abi.encodeCall(token.transferFrom, (from, to, value))) */\n      jump\t// in\n    tag_330:\n        /* \"@openzeppelin/contracts/token/ERC20/utils/SafeERC20.sol\":1618:1806  function safeTransferFrom(IERC20 token, address from, address to, uint256 value) internal {... */\n      pop\n      pop\n      pop\n      pop\n      jump\t// out\n        /* \"contracts/CoreClashGameV2.sol\":12211:13795  function _payout(uint256 gameId, address winner) internal {... */\n    tag_173:\n        /* \"contracts/CoreClashGameV2.sol\":12276:12290  Game storage g */\n      0x00\n        /* \"contracts/CoreClashGameV2.sol\":12293:12298  games */\n      0x03\n        /* \"contracts/CoreClashGameV2.sol\":12299:12305  gameId */\n      dup4\n        /* \"contracts/CoreClashGameV2.sol\":12293:12306  games[gameId] */\n      dup2\n      sload\n      dup2\n      lt\n      tag_336\n      jumpi\n      tag_336\n      tag_164\n      jump\t// in\n    tag_336:\n      0x00\n      swap2\n      dup3\n      mstore\n      0x20\n      dup3\n      keccak256\n        /* \"contracts/CoreClashGameV2.sol\":12313:12322  g.settled */\n      0x0a\n        /* \"contracts/CoreClashGameV2.sol\":12293:12306  games[gameId] */\n      0x0b\n      swap1\n      swap3\n      mul\n      add\n        /* \"contracts/CoreClashGameV2.sol\":12313:12322  g.settled */\n      swap1\n      dup2\n      add\n        /* \"contracts/CoreClashGameV2.sol\":12313:12329  g.settled = true */\n      dup1\n      sload\n      not(0xff)\n      and\n        /* \"contracts/CoreClashGameV2.sol\":12325:12329  true */\n      0x01\n        /* \"contracts/CoreClashGameV2.sol\":12313:12329  g.settled = true */\n      or\n      swap1\n      sstore\n        /* \"contracts/CoreClashGameV2.sol\":12352:12365  g.stakeAmount */\n      0x03\n      dup2\n      add\n      sload\n        /* \"contracts/CoreClashGameV2.sol\":12293:12306  games[gameId] */\n      swap1\n      swap3\n      pop\n        /* \"contracts/CoreClashGameV2.sol\":12352:12369  g.stakeAmount * 2 */\n      tag_338\n      swap1\n        /* \"contracts/CoreClashGameV2.sol\":12368:12369  2 */\n      0x02\n        /* \"contracts/CoreClashGameV2.sol\":12352:12369  g.stakeAmount * 2 */\n      tag_339\n      jump\t// in\n    tag_338:\n        /* \"contracts/CoreClashGameV2.sol\":12338:12369  uint256 pot = g.stakeAmount * 2 */\n      swap1\n      pop\n        /* \"contracts/CoreClashGameV2.sol\":12378:12389  uint256 fee */\n      0x00\n        /* \"contracts/CoreClashGameV2.sol\":12338:12369  uint256 pot = g.stakeAmount * 2 */\n      dup2\n        /* \"contracts/CoreClashGameV2.sol\":12489:12500  10 * 10**18 */\n      0x8ac7230489e80000\n        /* \"contracts/CoreClashGameV2.sol\":12482:12500  pot >= 10 * 10**18 */\n      dup2\n      lt\n        /* \"contracts/CoreClashGameV2.sol\":12478:13340  if (pot >= 10 * 10**18) { // adjust 10**18 to match CORE decimals... */\n      tag_345\n      jumpi\n        /* \"contracts/CoreClashGameV2.sol\":12581:12587  10_000 */\n      0x2710\n        /* \"contracts/CoreClashGameV2.sol\":12566:12577  platformFee */\n      sload(0x07)\n        /* \"contracts/CoreClashGameV2.sol\":12560:12563  pot */\n      dup5\n        /* \"contracts/CoreClashGameV2.sol\":12560:12577  pot * platformFee */\n      tag_341\n      swap2\n      swap1\n      tag_339\n      jump\t// in\n    tag_341:\n        /* \"contracts/CoreClashGameV2.sol\":12559:12587  (pot * platformFee) / 10_000 */\n      tag_342\n      swap2\n      swap1\n      tag_343\n      jump\t// in\n    tag_342:\n        /* \"contracts/CoreClashGameV2.sol\":12553:12587  fee = (pot * platformFee) / 10_000 */\n      swap2\n      pop\n        /* \"contracts/CoreClashGameV2.sol\":12607:12616  pot - fee */\n      tag_344\n        /* \"contracts/CoreClashGameV2.sol\":12553:12587  fee = (pot * platformFee) / 10_000 */\n      dup3\n        /* \"contracts/CoreClashGameV2.sol\":12607:12610  pot */\n      dup5\n        /* \"contracts/CoreClashGameV2.sol\":12607:12616  pot - fee */\n      tag_145\n      jump\t// in\n    tag_344:\n        /* \"contracts/CoreClashGameV2.sol\":12598:12616  payout = pot - fee */\n      swap1\n      pop\n        /* \"contracts/CoreClashGameV2.sol\":12689:12696  fee > 0 */\n      dup2\n      iszero\n        /* \"contracts/CoreClashGameV2.sol\":12685:13333  if (fee > 0) {... */\n      tag_345\n      jumpi\n        /* \"contracts/CoreClashGameV2.sol\":12713:12730  uint256 teamShare */\n      0x00\n        /* \"contracts/CoreClashGameV2.sol\":12745:12746  5 */\n      0x05\n        /* \"contracts/CoreClashGameV2.sol\":12734:12741  fee * 2 */\n      tag_346\n        /* \"contracts/CoreClashGameV2.sol\":12734:12737  fee */\n      dup5\n        /* \"contracts/CoreClashGameV2.sol\":12740:12741  2 */\n      0x02\n        /* \"contracts/CoreClashGameV2.sol\":12734:12741  fee * 2 */\n      tag_339\n      jump\t// in\n    tag_346:\n        /* \"contracts/CoreClashGameV2.sol\":12733:12746  (fee * 2) / 5 */\n      tag_347\n      swap2\n      swap1\n      tag_343\n      jump\t// in\n    tag_347:\n        /* \"contracts/CoreClashGameV2.sol\":12713:12746  uint256 teamShare = (fee * 2) / 5 */\n      swap1\n      pop\n        /* \"contracts/CoreClashGameV2.sol\":12769:12786  uint256 hostShare */\n      0x00\n        /* \"contracts/CoreClashGameV2.sol\":12801:12802  5 */\n      0x05\n        /* \"contracts/CoreClashGameV2.sol\":12790:12797  fee * 2 */\n      tag_348\n        /* \"contracts/CoreClashGameV2.sol\":12790:12793  fee */\n      dup6\n        /* \"contracts/CoreClashGameV2.sol\":12796:12797  2 */\n      0x02\n        /* \"contracts/CoreClashGameV2.sol\":12790:12797  fee * 2 */\n      tag_339\n      jump\t// in\n    tag_348:\n        /* \"contracts/CoreClashGameV2.sol\":12789:12802  (fee * 2) / 5 */\n      tag_349\n      swap2\n      swap1\n      tag_343\n      jump\t// in\n    tag_349:\n        /* \"contracts/CoreClashGameV2.sol\":12769:12802  uint256 hostShare = (fee * 2) / 5 */\n      swap1\n      pop\n        /* \"contracts/CoreClashGameV2.sol\":12825:12842  uint256 burnShare */\n      0x00\n        /* \"contracts/CoreClashGameV2.sol\":12769:12802  uint256 hostShare = (fee * 2) / 5 */\n      dup2\n        /* \"contracts/CoreClashGameV2.sol\":12845:12860  fee - teamShare */\n      tag_350\n        /* \"contracts/CoreClashGameV2.sol\":12851:12860  teamShare */\n      dup5\n        /* \"contracts/CoreClashGameV2.sol\":12845:12848  fee */\n      dup8\n        /* \"contracts/CoreClashGameV2.sol\":12845:12860  fee - teamShare */\n      tag_145\n      jump\t// in\n    tag_350:\n        /* \"contracts/CoreClashGameV2.sol\":12845:12872  fee - teamShare - hostShare */\n      tag_351\n      swap2\n      swap1\n      tag_145\n      jump\t// in\n    tag_351:\n        /* \"contracts/CoreClashGameV2.sol\":12825:12872  uint256 burnShare = fee - teamShare - hostShare */\n      swap1\n      pop\n        /* \"contracts/CoreClashGameV2.sol\":12912:12913  0 */\n      0x00\n        /* \"contracts/CoreClashGameV2.sol\":12900:12909  teamShare */\n      dup4\n        /* \"contracts/CoreClashGameV2.sol\":12900:12913  teamShare > 0 */\n      gt\n        /* \"contracts/CoreClashGameV2.sol\":12900:12941  teamShare > 0 && teamWallet != address(0) */\n      dup1\n      iszero\n      tag_352\n      jumpi\n      pop\n        /* \"contracts/CoreClashGameV2.sol\":12917:12927  teamWallet */\n      and(sub(shl(0xa0, 0x01), 0x01), sload(0x06))\n        /* \"contracts/CoreClashGameV2.sol\":12917:12941  teamWallet != address(0) */\n      iszero\n      iszero\n        /* \"contracts/CoreClashGameV2.sol\":12900:12941  teamShare > 0 && teamWallet != address(0) */\n    tag_352:\n        /* \"contracts/CoreClashGameV2.sol\":12896:13034  if (teamShare > 0 && teamWallet != address(0)) {... */\n      iszero\n      tag_354\n      jumpi\n        /* \"contracts/CoreClashGameV2.sol\":12996:13006  teamWallet */\n      sload(0x06)\n        /* \"contracts/CoreClashGameV2.sol\":12969:12981  g.stakeToken */\n      0x02\n      dup9\n      add\n      sload\n        /* \"contracts/CoreClashGameV2.sol\":12962:13018  IERC20(g.stakeToken).safeTransfer(teamWallet, teamShare) */\n      tag_354\n      swap2\n      sub(shl(0xa0, 0x01), 0x01)\n        /* \"contracts/CoreClashGameV2.sol\":12969:12981  g.stakeToken */\n      swap2\n      dup3\n      and\n      swap2\n        /* \"contracts/CoreClashGameV2.sol\":12996:13006  teamWallet */\n      and\n        /* \"contracts/CoreClashGameV2.sol\":13008:13017  teamShare */\n      dup6\n        /* \"contracts/CoreClashGameV2.sol\":12962:12995  IERC20(g.stakeToken).safeTransfer */\n      tag_211\n        /* \"contracts/CoreClashGameV2.sol\":12962:13018  IERC20(g.stakeToken).safeTransfer(teamWallet, teamShare) */\n      jump\t// in\n    tag_354:\n        /* \"contracts/CoreClashGameV2.sol\":13066:13067  0 */\n      0x00\n        /* \"contracts/CoreClashGameV2.sol\":13054:13063  hostShare */\n      dup3\n        /* \"contracts/CoreClashGameV2.sol\":13054:13067  hostShare > 0 */\n      gt\n        /* \"contracts/CoreClashGameV2.sol\":13054:13095  hostShare > 0 && hostWallet != address(0) */\n      dup1\n      iszero\n      tag_355\n      jumpi\n      pop\n        /* \"contracts/CoreClashGameV2.sol\":13071:13081  hostWallet */\n      and(sub(shl(0xa0, 0x01), 0x01), sload(0x08))\n        /* \"contracts/CoreClashGameV2.sol\":13071:13095  hostWallet != address(0) */\n      iszero\n      iszero\n        /* \"contracts/CoreClashGameV2.sol\":13054:13095  hostShare > 0 && hostWallet != address(0) */\n    tag_355:\n        /* \"contracts/CoreClashGameV2.sol\":13050:13188  if (hostShare > 0 && hostWallet != address(0)) {... */\n      iszero\n      tag_357\n      jumpi\n        /* \"contracts/CoreClashGameV2.sol\":13150:13160  hostWallet */\n      sload(0x08)\n        /* \"contracts/CoreClashGameV2.sol\":13123:13135  g.stakeToken */\n      0x02\n      dup9\n      add\n      sload\n        /* \"contracts/CoreClashGameV2.sol\":13116:13172  IERC20(g.stakeToken).safeTransfer(hostWallet, hostShare) */\n      tag_357\n      swap2\n      sub(shl(0xa0, 0x01), 0x01)\n        /* \"contracts/CoreClashGameV2.sol\":13123:13135  g.stakeToken */\n      swap2\n      dup3\n      and\n      swap2\n        /* \"contracts/CoreClashGameV2.sol\":13150:13160  hostWallet */\n      and\n        /* \"contracts/CoreClashGameV2.sol\":13162:13171  hostShare */\n      dup5\n        /* \"contracts/CoreClashGameV2.sol\":13116:13149  IERC20(g.stakeToken).safeTransfer */\n      tag_211\n        /* \"contracts/CoreClashGameV2.sol\":13116:13172  IERC20(g.stakeToken).safeTransfer(hostWallet, hostShare) */\n      jump\t// in\n    tag_357:\n        /* \"contracts/CoreClashGameV2.sol\":13208:13221  burnShare > 0 */\n      dup1\n      iszero\n        /* \"contracts/CoreClashGameV2.sol\":13204:13322  if (burnShare > 0) {... */\n      tag_359\n      jumpi\n        /* \"contracts/CoreClashGameV2.sol\":13249:13261  g.stakeToken */\n      0x02\n      dup8\n      add\n      sload\n        /* \"contracts/CoreClashGameV2.sol\":13242:13298  IERC20(g.stakeToken).safeTransfer(address(0), burnShare) */\n      tag_359\n      swap1\n      sub(shl(0xa0, 0x01), 0x01)\n        /* \"contracts/CoreClashGameV2.sol\":13249:13261  g.stakeToken */\n      and\n        /* \"contracts/CoreClashGameV2.sol\":13284:13285  0 */\n      0x00\n        /* \"contracts/CoreClashGameV2.sol\":13288:13297  burnShare */\n      dup4\n        /* \"contracts/CoreClashGameV2.sol\":13242:13275  IERC20(g.stakeToken).safeTransfer */\n      tag_211\n        /* \"contracts/CoreClashGameV2.sol\":13242:13298  IERC20(g.stakeToken).safeTransfer(address(0), burnShare) */\n      jump\t// in\n    tag_359:\n        /* \"contracts/CoreClashGameV2.sol\":12698:13333  {... */\n      pop\n      pop\n      pop\n        /* \"contracts/CoreClashGameV2.sol\":12685:13333  if (fee > 0) {... */\n    tag_345:\n      sub(shl(0xa0, 0x01), 0x01)\n        /* \"contracts/CoreClashGameV2.sol\":13352:13372  winner != address(0) */\n      dup6\n      and\n      iszero\n        /* \"contracts/CoreClashGameV2.sol\":13348:13751  if (winner != address(0)) {... */\n      tag_360\n      jumpi\n        /* \"contracts/CoreClashGameV2.sol\":13415:13425  payout > 0 */\n      dup1\n      iszero\n        /* \"contracts/CoreClashGameV2.sol\":13411:13503  if (payout > 0) {... */\n      tag_362\n      jumpi\n        /* \"contracts/CoreClashGameV2.sol\":13449:13461  g.stakeToken */\n      0x02\n      dup5\n      add\n      sload\n        /* \"contracts/CoreClashGameV2.sol\":13442:13491  IERC20(g.stakeToken).safeTransfer(winner, payout) */\n      tag_362\n      swap1\n      sub(shl(0xa0, 0x01), 0x01)\n        /* \"contracts/CoreClashGameV2.sol\":13449:13461  g.stakeToken */\n      and\n        /* \"contracts/CoreClashGameV2.sol\":13476:13482  winner */\n      dup7\n        /* \"contracts/CoreClashGameV2.sol\":13484:13490  payout */\n      dup4\n        /* \"contracts/CoreClashGameV2.sol\":13442:13475  IERC20(g.stakeToken).safeTransfer */\n      tag_211\n        /* \"contracts/CoreClashGameV2.sol\":13442:13491  IERC20(g.stakeToken).safeTransfer(winner, payout) */\n      jump\t// in\n    tag_362:\n        /* \"contracts/CoreClashGameV2.sol\":13348:13751  if (winner != address(0)) {... */\n      jump(tag_363)\n    tag_360:\n        /* \"contracts/CoreClashGameV2.sol\":13567:13579  uint256 half */\n      0x00\n        /* \"contracts/CoreClashGameV2.sol\":13582:13592  payout / 2 */\n      tag_364\n        /* \"contracts/CoreClashGameV2.sol\":13591:13592  2 */\n      0x02\n        /* \"contracts/CoreClashGameV2.sol\":13582:13588  payout */\n      dup4\n        /* \"contracts/CoreClashGameV2.sol\":13582:13592  payout / 2 */\n      tag_343\n      jump\t// in\n    tag_364:\n        /* \"contracts/CoreClashGameV2.sol\":13637:13646  g.player1 */\n      dup6\n      sload\n        /* \"contracts/CoreClashGameV2.sol\":13610:13622  g.stakeToken */\n      0x02\n      dup8\n      add\n      sload\n        /* \"contracts/CoreClashGameV2.sol\":13567:13592  uint256 half = payout / 2 */\n      swap2\n      swap3\n      pop\n        /* \"contracts/CoreClashGameV2.sol\":13603:13653  IERC20(g.stakeToken).safeTransfer(g.player1, half) */\n      tag_365\n      swap2\n      sub(shl(0xa0, 0x01), 0x01)\n        /* \"contracts/CoreClashGameV2.sol\":13610:13622  g.stakeToken */\n      swap1\n      dup2\n      and\n      swap2\n        /* \"contracts/CoreClashGameV2.sol\":13637:13646  g.player1 */\n      and\n        /* \"contracts/CoreClashGameV2.sol\":13567:13592  uint256 half = payout / 2 */\n      dup4\n        /* \"contracts/CoreClashGameV2.sol\":13603:13636  IERC20(g.stakeToken).safeTransfer */\n      tag_211\n        /* \"contracts/CoreClashGameV2.sol\":13603:13653  IERC20(g.stakeToken).safeTransfer(g.player1, half) */\n      jump\t// in\n    tag_365:\n        /* \"contracts/CoreClashGameV2.sol\":13698:13707  g.player2 */\n      0x01\n      dup6\n      add\n      sload\n        /* \"contracts/CoreClashGameV2.sol\":13664:13723  IERC20(g.stakeToken).safeTransfer(g.player2, payout - half) */\n      tag_366\n      swap1\n      sub(shl(0xa0, 0x01), 0x01)\n        /* \"contracts/CoreClashGameV2.sol\":13698:13707  g.player2 */\n      and\n        /* \"contracts/CoreClashGameV2.sol\":13709:13722  payout - half */\n      tag_367\n        /* \"contracts/CoreClashGameV2.sol\":13718:13722  half */\n      dup4\n        /* \"contracts/CoreClashGameV2.sol\":13709:13715  payout */\n      dup6\n        /* \"contracts/CoreClashGameV2.sol\":13709:13722  payout - half */\n      tag_145\n      jump\t// in\n    tag_367:\n        /* \"contracts/CoreClashGameV2.sol\":13671:13683  g.stakeToken */\n      0x02\n      dup9\n      add\n      sload\n      sub(shl(0xa0, 0x01), 0x01)\n      and\n      swap2\n        /* \"contracts/CoreClashGameV2.sol\":13664:13723  IERC20(g.stakeToken).safeTransfer(g.player2, payout - half) */\n      swap1\n        /* \"contracts/CoreClashGameV2.sol\":13664:13697  IERC20(g.stakeToken).safeTransfer */\n      tag_211\n        /* \"contracts/CoreClashGameV2.sol\":13664:13723  IERC20(g.stakeToken).safeTransfer(g.player2, payout - half) */\n      jump\t// in\n    tag_366:\n        /* \"contracts/CoreClashGameV2.sol\":13516:13751  {... */\n      pop\n        /* \"contracts/CoreClashGameV2.sol\":13348:13751  if (winner != address(0)) {... */\n    tag_363:\n        /* \"contracts/CoreClashGameV2.sol\":13764:13791  GameSettled(gameId, winner) */\n      mload(0x40)\n      sub(shl(0xa0, 0x01), 0x01)\n        /* \"#utility.yul\":2766:2798   */\n      dup7\n      and\n        /* \"#utility.yul\":2748:2799   */\n      dup2\n      mstore\n        /* \"contracts/CoreClashGameV2.sol\":13776:13782  gameId */\n      dup7\n      swap1\n        /* \"contracts/CoreClashGameV2.sol\":13764:13791  GameSettled(gameId, winner) */\n      0xf27faae2acd1ebca672f8ca0d896f3e0eb13164004932b3fbcfc2547167c8bb7\n      swap1\n        /* \"#utility.yul\":2736:2738   */\n      0x20\n        /* \"#utility.yul\":2721:2739   */\n      add\n        /* \"contracts/CoreClashGameV2.sol\":13764:13791  GameSettled(gameId, winner) */\n      mload(0x40)\n      dup1\n      swap2\n      sub\n      swap1\n      log2\n        /* \"contracts/CoreClashGameV2.sol\":12269:13795  {... */\n      pop\n      pop\n      pop\n      pop\n        /* \"contracts/CoreClashGameV2.sol\":12211:13795  function _payout(uint256 gameId, address winner) internal {... */\n      pop\n      pop\n      jump\t// out\n        /* \"contracts/CoreClashGameV2.sol\":13803:14112  function _refund(uint256 gameId) internal {... */\n    tag_180:\n        /* \"contracts/CoreClashGameV2.sol\":13856:13870  Game storage g */\n      0x00\n        /* \"contracts/CoreClashGameV2.sol\":13873:13878  games */\n      0x03\n        /* \"contracts/CoreClashGameV2.sol\":13879:13885  gameId */\n      dup3\n        /* \"contracts/CoreClashGameV2.sol\":13873:13886  games[gameId] */\n      dup2\n      sload\n      dup2\n      lt\n      tag_371\n      jumpi\n      tag_371\n      tag_164\n      jump\t// in\n    tag_371:\n      0x00\n      swap2\n      dup3\n      mstore\n      0x20\n      swap1\n      swap2\n      keccak256\n        /* \"contracts/CoreClashGameV2.sol\":13897:13906  g.settled */\n      0x0a\n        /* \"contracts/CoreClashGameV2.sol\":13873:13886  games[gameId] */\n      0x0b\n      swap1\n      swap3\n      mul\n      add\n        /* \"contracts/CoreClashGameV2.sol\":13897:13906  g.settled */\n      swap1\n      dup2\n      add\n        /* \"contracts/CoreClashGameV2.sol\":13897:13913  g.settled = true */\n      dup1\n      sload\n      not(0xff)\n      and\n        /* \"contracts/CoreClashGameV2.sol\":13909:13913  true */\n      0x01\n        /* \"contracts/CoreClashGameV2.sol\":13897:13913  g.settled = true */\n      or\n      swap1\n      sstore\n        /* \"contracts/CoreClashGameV2.sol\":13960:13969  g.player1 */\n      dup1\n      sload\n        /* \"contracts/CoreClashGameV2.sol\":13971:13984  g.stakeAmount */\n      0x03\n      dup3\n      add\n      sload\n        /* \"contracts/CoreClashGameV2.sol\":13933:13945  g.stakeToken */\n      0x02\n      dup4\n      add\n      sload\n        /* \"contracts/CoreClashGameV2.sol\":13873:13886  games[gameId] */\n      swap3\n      swap4\n      pop\n        /* \"contracts/CoreClashGameV2.sol\":13926:13985  IERC20(g.stakeToken).safeTransfer(g.player1, g.stakeAmount) */\n      tag_373\n      swap3\n      sub(shl(0xa0, 0x01), 0x01)\n        /* \"contracts/CoreClashGameV2.sol\":13933:13945  g.stakeToken */\n      swap1\n      dup2\n      and\n      swap3\n        /* \"contracts/CoreClashGameV2.sol\":13960:13969  g.player1 */\n      and\n      swap1\n        /* \"contracts/CoreClashGameV2.sol\":13926:13959  IERC20(g.stakeToken).safeTransfer */\n      tag_211\n        /* \"contracts/CoreClashGameV2.sol\":13926:13985  IERC20(g.stakeToken).safeTransfer(g.player1, g.stakeAmount) */\n      jump\t// in\n    tag_373:\n        /* \"contracts/CoreClashGameV2.sol\":14030:14039  g.player2 */\n      0x01\n      dup2\n      add\n      sload\n        /* \"contracts/CoreClashGameV2.sol\":14041:14054  g.stakeAmount */\n      0x03\n      dup3\n      add\n      sload\n        /* \"contracts/CoreClashGameV2.sol\":14003:14015  g.stakeToken */\n      0x02\n      dup4\n      add\n      sload\n        /* \"contracts/CoreClashGameV2.sol\":13996:14055  IERC20(g.stakeToken).safeTransfer(g.player2, g.stakeAmount) */\n      tag_210\n      swap3\n      sub(shl(0xa0, 0x01), 0x01)\n        /* \"contracts/CoreClashGameV2.sol\":14003:14015  g.stakeToken */\n      swap2\n      dup3\n      and\n      swap3\n        /* \"contracts/CoreClashGameV2.sol\":14030:14039  g.player2 */\n      swap2\n      and\n      swap1\n        /* \"contracts/CoreClashGameV2.sol\":13996:14029  IERC20(g.stakeToken).safeTransfer */\n      tag_211\n        /* \"contracts/CoreClashGameV2.sol\":13996:14055  IERC20(g.stakeToken).safeTransfer(g.player2, g.stakeAmount) */\n      jump\t// in\n        /* \"contracts/CoreClashRarityLookupTable.sol\":2318:2583  function _setRestrictedInternal(... */\n    tag_192:\n        /* \"contracts/CoreClashRarityLookupTable.sol\":2449:2473  keccak256(bytes(rarity)) */\n      dup2\n      mload\n      0x20\n      dup1\n      dup5\n      add\n      swap2\n      swap1\n      swap2\n      keccak256\n        /* \"contracts/CoreClashRarityLookupTable.sol\":2434:2446  bytes32 hash */\n      0x00\n        /* \"contracts/CoreClashRarityLookupTable.sol\":2484:2506  restrictedRarity[hash] */\n      dup2\n      dup2\n      mstore\n      swap2\n      dup3\n      swap1\n      mstore\n      0x40\n      swap2\n      dup3\n      swap1\n      keccak256\n        /* \"contracts/CoreClashRarityLookupTable.sol\":2484:2519  restrictedRarity[hash] = restricted */\n      dup1\n      sload\n      not(0xff)\n      and\n      dup5\n      iszero\n      iszero\n      or\n      swap1\n      sstore\n        /* \"contracts/CoreClashRarityLookupTable.sol\":2535:2575  RarityRestrictionSet(rarity, restricted) */\n      swap1\n      mload\n      0x71597d70b120b69b2ed3763b127f0f73d5475cd67f32065088360e0586a8b250\n      swap1\n      tag_377\n      swap1\n        /* \"contracts/CoreClashRarityLookupTable.sol\":2449:2473  keccak256(bytes(rarity)) */\n      dup6\n      swap1\n        /* \"contracts/CoreClashRarityLookupTable.sol\":2484:2519  restrictedRarity[hash] = restricted */\n      dup6\n      swap1\n        /* \"contracts/CoreClashRarityLookupTable.sol\":2535:2575  RarityRestrictionSet(rarity, restricted) */\n      tag_378\n      jump\t// in\n    tag_377:\n      mload(0x40)\n      dup1\n      swap2\n      sub\n      swap1\n      log1\n        /* \"contracts/CoreClashRarityLookupTable.sol\":2423:2583  {... */\n      pop\n        /* \"contracts/CoreClashRarityLookupTable.sol\":2318:2583  function _setRestrictedInternal(... */\n      pop\n      pop\n      jump\t// out\n        /* \"@openzeppelin/contracts/token/ERC20/utils/SafeERC20.sol\":1219:1379  function safeTransfer(IERC20 token, address to, uint256 value) internal {... */\n    tag_211:\n        /* \"@openzeppelin/contracts/token/ERC20/utils/SafeERC20.sol\":1328:1371  abi.encodeCall(token.transfer, (to, value)) */\n      mload(0x40)\n      sub(shl(0xa0, 0x01), 0x01)\n        /* \"#utility.yul\":17451:17483   */\n      dup4\n      dup2\n      and\n        /* \"@openzeppelin/contracts/token/ERC20/utils/SafeERC20.sol\":1328:1371  abi.encodeCall(token.transfer, (to, value)) */\n      0x24\n      dup4\n      add\n        /* \"#utility.yul\":17433:17484   */\n      mstore\n        /* \"#utility.yul\":17500:17518   */\n      0x44\n      dup3\n      add\n        /* \"#utility.yul\":17493:17527   */\n      dup4\n      swap1\n      mstore\n        /* \"@openzeppelin/contracts/token/ERC20/utils/SafeERC20.sol\":1301:1372  _callOptionalReturn(token, abi.encodeCall(token.transfer, (to, value))) */\n      tag_191\n      swap2\n        /* \"@openzeppelin/contracts/token/ERC20/utils/SafeERC20.sol\":1321:1326  token */\n      dup6\n      swap2\n        /* \"@openzeppelin/contracts/token/ERC20/utils/SafeERC20.sol\":1343:1357  token.transfer */\n      dup3\n      and\n      swap1\n      0xa9059cbb\n      swap1\n        /* \"#utility.yul\":17406:17424   */\n      0x64\n      add\n        /* \"@openzeppelin/contracts/token/ERC20/utils/SafeERC20.sol\":1328:1371  abi.encodeCall(token.transfer, (to, value)) */\n      tag_331\n        /* \"#utility.yul\":17259:17533   */\n      jump\n        /* \"contracts/CoreClashRarityLookupTable.sol\":4334:4812  function _validateRarity(... */\n    tag_270:\n        /* \"contracts/CoreClashRarityLookupTable.sol\":4412:4436  bytes32[3] memory hashes */\n      tag_384\n      tag_385\n      jump\t// in\n    tag_384:\n        /* \"contracts/CoreClashRarityLookupTable.sol\":4450:4459  uint256 i */\n      0x00\n        /* \"contracts/CoreClashRarityLookupTable.sol\":4445:4532  for (uint256 i = 0; i < 3; i++) {... */\n    tag_386:\n        /* \"contracts/CoreClashRarityLookupTable.sol\":4469:4470  3 */\n      0x03\n        /* \"contracts/CoreClashRarityLookupTable.sol\":4465:4466  i */\n      dup2\n        /* \"contracts/CoreClashRarityLookupTable.sol\":4465:4470  i < 3 */\n      lt\n        /* \"contracts/CoreClashRarityLookupTable.sol\":4445:4532  for (uint256 i = 0; i < 3; i++) {... */\n      iszero\n      tag_387\n      jumpi\n        /* \"contracts/CoreClashRarityLookupTable.sol\":4516:4519  bgs */\n      dup3\n        /* \"contracts/CoreClashRarityLookupTable.sol\":4520:4521  i */\n      dup2\n        /* \"contracts/CoreClashRarityLookupTable.sol\":4516:4522  bgs[i] */\n      0x03\n      dup2\n      lt\n      tag_390\n      jumpi\n      tag_390\n      tag_164\n      jump\t// in\n    tag_390:\n      0x20\n      mul\n      dup2\n      add\n      swap1\n      tag_391\n      swap2\n      swap1\n      tag_319\n      jump\t// in\n    tag_391:\n        /* \"contracts/CoreClashRarityLookupTable.sol\":4500:4524  keccak256(bytes(bgs[i])) */\n      mload(0x40)\n      tag_392\n      swap3\n      swap2\n      swap1\n      tag_393\n      jump\t// in\n    tag_392:\n      mload(0x40)\n      dup1\n      swap2\n      sub\n      swap1\n      keccak256\n        /* \"contracts/CoreClashRarityLookupTable.sol\":4488:4494  hashes */\n      dup3\n        /* \"contracts/CoreClashRarityLookupTable.sol\":4495:4496  i */\n      dup3\n        /* \"contracts/CoreClashRarityLookupTable.sol\":4488:4497  hashes[i] */\n      0x03\n      dup2\n      lt\n      tag_395\n      jumpi\n      tag_395\n      tag_164\n      jump\t// in\n    tag_395:\n      0x20\n      mul\n      add\n        /* \"contracts/CoreClashRarityLookupTable.sol\":4488:4524  hashes[i] = keccak256(bytes(bgs[i])) */\n      mstore\n        /* \"contracts/CoreClashRarityLookupTable.sol\":4472:4475  i++ */\n      0x01\n      add\n        /* \"contracts/CoreClashRarityLookupTable.sol\":4445:4532  for (uint256 i = 0; i < 3; i++) {... */\n      jump(tag_386)\n    tag_387:\n      pop\n        /* \"contracts/CoreClashRarityLookupTable.sol\":4545:4554  uint256 i */\n      0x00\n        /* \"contracts/CoreClashRarityLookupTable.sol\":4540:4809  for (uint256 i = 0; i < 3; i++) {... */\n    tag_396:\n        /* \"contracts/CoreClashRarityLookupTable.sol\":4564:4565  3 */\n      0x03\n        /* \"contracts/CoreClashRarityLookupTable.sol\":4560:4561  i */\n      dup2\n        /* \"contracts/CoreClashRarityLookupTable.sol\":4560:4565  i < 3 */\n      lt\n        /* \"contracts/CoreClashRarityLookupTable.sol\":4540:4809  for (uint256 i = 0; i < 3; i++) {... */\n      iszero\n      tag_191\n      jumpi\n        /* \"contracts/CoreClashRarityLookupTable.sol\":4588:4604  restrictedRarity */\n      0x00\n        /* \"contracts/CoreClashRarityLookupTable.sol\":4588:4615  restrictedRarity[hashes[i]] */\n      dup1\n        /* \"contracts/CoreClashRarityLookupTable.sol\":4605:4611  hashes */\n      dup4\n        /* \"contracts/CoreClashRarityLookupTable.sol\":4612:4613  i */\n      dup4\n        /* \"contracts/CoreClashRarityLookupTable.sol\":4605:4614  hashes[i] */\n      0x03\n      dup2\n      lt\n      tag_400\n      jumpi\n      tag_400\n      tag_164\n      jump\t// in\n    tag_400:\n      0x20\n      swap1\n      dup2\n      mul\n      swap2\n      swap1\n      swap2\n      add\n      mload\n        /* \"contracts/CoreClashRarityLookupTable.sol\":4588:4615  restrictedRarity[hashes[i]] */\n      dup3\n      mstore\n      dup2\n      add\n      swap2\n      swap1\n      swap2\n      mstore\n      0x40\n      add\n      0x00\n      keccak256\n      sload\n      0xff\n      and\n        /* \"contracts/CoreClashRarityLookupTable.sol\":4583:4625  if (!restrictedRarity[hashes[i]]) continue */\n      iszero\n        /* \"contracts/CoreClashRarityLookupTable.sol\":4617:4625  continue */\n      tag_398\n        /* \"contracts/CoreClashRarityLookupTable.sol\":4583:4625  if (!restrictedRarity[hashes[i]]) continue */\n      jumpi\n        /* \"contracts/CoreClashRarityLookupTable.sol\":4638:4651  uint256 count */\n      0x00\n      dup1\n        /* \"contracts/CoreClashRarityLookupTable.sol\":4662:4756  for (uint256 j = 0; j < 3; j++) {... */\n    tag_402:\n        /* \"contracts/CoreClashRarityLookupTable.sol\":4686:4687  3 */\n      0x03\n        /* \"contracts/CoreClashRarityLookupTable.sol\":4682:4683  j */\n      dup2\n        /* \"contracts/CoreClashRarityLookupTable.sol\":4682:4687  j < 3 */\n      lt\n        /* \"contracts/CoreClashRarityLookupTable.sol\":4662:4756  for (uint256 j = 0; j < 3; j++) {... */\n      iszero\n      tag_403\n      jumpi\n        /* \"contracts/CoreClashRarityLookupTable.sol\":4726:4732  hashes */\n      dup4\n        /* \"contracts/CoreClashRarityLookupTable.sol\":4733:4734  i */\n      dup4\n        /* \"contracts/CoreClashRarityLookupTable.sol\":4726:4735  hashes[i] */\n      0x03\n      dup2\n      lt\n      tag_406\n      jumpi\n      tag_406\n      tag_164\n      jump\t// in\n    tag_406:\n      0x20\n      mul\n      add\n      mload\n        /* \"contracts/CoreClashRarityLookupTable.sol\":4713:4719  hashes */\n      dup5\n        /* \"contracts/CoreClashRarityLookupTable.sol\":4720:4721  j */\n      dup3\n        /* \"contracts/CoreClashRarityLookupTable.sol\":4713:4722  hashes[j] */\n      0x03\n      dup2\n      lt\n      tag_408\n      jumpi\n      tag_408\n      tag_164\n      jump\t// in\n    tag_408:\n      0x20\n      mul\n      add\n      mload\n        /* \"contracts/CoreClashRarityLookupTable.sol\":4713:4735  hashes[j] == hashes[i] */\n      sub\n        /* \"contracts/CoreClashRarityLookupTable.sol\":4709:4744  if (hashes[j] == hashes[i]) count++ */\n      tag_409\n      jumpi\n        /* \"contracts/CoreClashRarityLookupTable.sol\":4737:4744  count++ */\n      dup2\n      tag_410\n      dup2\n      tag_411\n      jump\t// in\n    tag_410:\n      swap3\n      pop\n      pop\n        /* \"contracts/CoreClashRarityLookupTable.sol\":4709:4744  if (hashes[j] == hashes[i]) count++ */\n    tag_409:\n        /* \"contracts/CoreClashRarityLookupTable.sol\":4689:4692  j++ */\n      0x01\n      add\n        /* \"contracts/CoreClashRarityLookupTable.sol\":4662:4756  for (uint256 j = 0; j < 3; j++) {... */\n      jump(tag_402)\n    tag_403:\n      pop\n        /* \"contracts/CoreClashRarityLookupTable.sol\":4785:4786  1 */\n      0x01\n        /* \"contracts/CoreClashRarityLookupTable.sol\":4776:4781  count */\n      dup2\n        /* \"contracts/CoreClashRarityLookupTable.sol\":4776:4786  count <= 1 */\n      gt\n      iszero\n        /* \"contracts/CoreClashRarityLookupTable.sol\":4768:4801  require(count <= 1, \"Rarity dup\") */\n      tag_412\n      jumpi\n      mload(0x40)\n      shl(0xe5, 0x461bcd)\n      dup2\n      mstore\n        /* \"#utility.yul\":18156:18158   */\n      0x20\n        /* \"contracts/CoreClashRarityLookupTable.sol\":4768:4801  require(count <= 1, \"Rarity dup\") */\n      0x04\n      dup3\n      add\n        /* \"#utility.yul\":18138:18159   */\n      mstore\n        /* \"#utility.yul\":18195:18197   */\n      0x0a\n        /* \"#utility.yul\":18175:18193   */\n      0x24\n      dup3\n      add\n        /* \"#utility.yul\":18168:18198   */\n      mstore\n      shl(0xb4, 0x05261726974792064757)\n        /* \"#utility.yul\":18214:18232   */\n      0x44\n      dup3\n      add\n        /* \"#utility.yul\":18207:18247   */\n      mstore\n        /* \"#utility.yul\":18264:18282   */\n      0x64\n      add\n        /* \"contracts/CoreClashRarityLookupTable.sol\":4768:4801  require(count <= 1, \"Rarity dup\") */\n      tag_139\n        /* \"#utility.yul\":17954:18288   */\n      jump\n        /* \"contracts/CoreClashRarityLookupTable.sol\":4768:4801  require(count <= 1, \"Rarity dup\") */\n    tag_412:\n        /* \"contracts/CoreClashRarityLookupTable.sol\":4572:4809  {... */\n      pop\n        /* \"contracts/CoreClashRarityLookupTable.sol\":4540:4809  for (uint256 i = 0; i < 3; i++) {... */\n    tag_398:\n        /* \"contracts/CoreClashRarityLookupTable.sol\":4567:4570  i++ */\n      0x01\n      add\n        /* \"contracts/CoreClashRarityLookupTable.sol\":4540:4809  for (uint256 i = 0; i < 3; i++) {... */\n      jump(tag_396)\n        /* \"contracts/CoreClashGameV2.sol\":3133:3489  function _checkOwnership(... */\n    tag_272:\n        /* \"contracts/CoreClashGameV2.sol\":3300:3309  uint256 i */\n      0x00\n        /* \"contracts/CoreClashGameV2.sol\":3295:3482  for (uint256 i = 0; i < 3; i++) {... */\n    tag_416:\n        /* \"contracts/CoreClashGameV2.sol\":3319:3320  3 */\n      0x03\n        /* \"contracts/CoreClashGameV2.sol\":3315:3316  i */\n      dup2\n        /* \"contracts/CoreClashGameV2.sol\":3315:3320  i < 3 */\n      lt\n        /* \"contracts/CoreClashGameV2.sol\":3295:3482  for (uint256 i = 0; i < 3; i++) {... */\n      iszero\n      tag_330\n      jumpi\n        /* \"contracts/CoreClashGameV2.sol\":3415:3421  sender */\n      dup4\n      sub(shl(0xa0, 0x01), 0x01)\n        /* \"contracts/CoreClashGameV2.sol\":3368:3421  IERC721(nftContracts[i]).ownerOf(nftIds[i]) == sender */\n      and\n        /* \"contracts/CoreClashGameV2.sol\":3376:3388  nftContracts */\n      dup4\n        /* \"contracts/CoreClashGameV2.sol\":3389:3390  i */\n      dup3\n        /* \"contracts/CoreClashGameV2.sol\":3376:3391  nftContracts[i] */\n      0x03\n      dup2\n      lt\n      tag_420\n      jumpi\n      tag_420\n      tag_164\n      jump\t// in\n    tag_420:\n      0x20\n      mul\n      add\n      0x20\n      dup2\n      add\n      swap1\n      tag_421\n      swap2\n      swap1\n      tag_51\n      jump\t// in\n    tag_421:\n      sub(shl(0xa0, 0x01), 0x01)\n        /* \"contracts/CoreClashGameV2.sol\":3368:3400  IERC721(nftContracts[i]).ownerOf */\n      and\n      0x6352211e\n        /* \"contracts/CoreClashGameV2.sol\":3401:3407  nftIds */\n      dup5\n        /* \"contracts/CoreClashGameV2.sol\":3408:3409  i */\n      dup5\n        /* \"contracts/CoreClashGameV2.sol\":3401:3410  nftIds[i] */\n      0x03\n      dup2\n      lt\n      tag_423\n      jumpi\n      tag_423\n      tag_164\n      jump\t// in\n    tag_423:\n      0x20\n      mul\n      add\n      calldataload\n        /* \"contracts/CoreClashGameV2.sol\":3368:3411  IERC721(nftContracts[i]).ownerOf(nftIds[i]) */\n      mload(0x40)\n      dup3\n      0xffffffff\n      and\n      0xe0\n      shl\n      dup2\n      mstore\n      0x04\n      add\n      tag_424\n      swap2\n        /* \"#utility.yul\":2384:2409   */\n      dup2\n      mstore\n        /* \"#utility.yul\":2372:2374   */\n      0x20\n        /* \"#utility.yul\":2357:2375   */\n      add\n      swap1\n        /* \"#utility.yul\":2238:2415   */\n      jump\n        /* \"contracts/CoreClashGameV2.sol\":3368:3411  IERC721(nftContracts[i]).ownerOf(nftIds[i]) */\n    tag_424:\n      0x20\n      mload(0x40)\n      dup1\n      dup4\n      sub\n      dup2\n      dup7\n      gas\n      staticcall\n      iszero\n      dup1\n      iszero\n      tag_426\n      jumpi\n      returndatasize\n      0x00\n      dup1\n      returndatacopy\n      revert(0x00, returndatasize)\n    tag_426:\n      pop\n      pop\n      pop\n      pop\n      mload(0x40)\n      returndatasize\n      not(0x1f)\n      0x1f\n      dup3\n      add\n      and\n      dup3\n      add\n      dup1\n      0x40\n      mstore\n      pop\n      dup2\n      add\n      swap1\n      tag_427\n      swap2\n      swap1\n      tag_428\n      jump\t// in\n    tag_427:\n      sub(shl(0xa0, 0x01), 0x01)\n        /* \"contracts/CoreClashGameV2.sol\":3368:3421  IERC721(nftContracts[i]).ownerOf(nftIds[i]) == sender */\n      and\n      eq\n        /* \"contracts/CoreClashGameV2.sol\":3342:3470  require(... */\n      tag_429\n      jumpi\n      mload(0x40)\n      shl(0xe5, 0x461bcd)\n      dup2\n      mstore\n        /* \"#utility.yul\":18751:18753   */\n      0x20\n        /* \"contracts/CoreClashGameV2.sol\":3342:3470  require(... */\n      0x04\n      dup3\n      add\n        /* \"#utility.yul\":18733:18754   */\n      mstore\n        /* \"#utility.yul\":18790:18792   */\n      0x0d\n        /* \"#utility.yul\":18770:18788   */\n      0x24\n      dup3\n      add\n        /* \"#utility.yul\":18763:18793   */\n      mstore\n      shl(0x99, 0x2737ba1027232a1037bbb732b9)\n        /* \"#utility.yul\":18809:18827   */\n      0x44\n      dup3\n      add\n        /* \"#utility.yul\":18802:18845   */\n      mstore\n        /* \"#utility.yul\":18862:18880   */\n      0x64\n      add\n        /* \"contracts/CoreClashGameV2.sol\":3342:3470  require(... */\n      tag_139\n        /* \"#utility.yul\":18549:18886   */\n      jump\n        /* \"contracts/CoreClashGameV2.sol\":3342:3470  require(... */\n    tag_429:\n        /* \"contracts/CoreClashGameV2.sol\":3322:3325  i++ */\n      0x01\n      add\n        /* \"contracts/CoreClashGameV2.sol\":3295:3482  for (uint256 i = 0; i < 3; i++) {... */\n      jump(tag_416)\n        /* \"contracts/CoreClashGameV2.sol\":4374:4841  function _computeCommit(... */\n    tag_274:\n        /* \"contracts/CoreClashGameV2.sol\":4531:4538  bytes32 */\n      0x00\n        /* \"contracts/CoreClashGameV2.sol\":4617:4621  salt */\n      dup4\n        /* \"contracts/CoreClashGameV2.sol\":4640:4655  nftContracts[0] */\n      tag_435\n      0x20\n      dup6\n      add\n        /* \"contracts/CoreClashGameV2.sol\":4640:4652  nftContracts */\n      dup6\n        /* \"contracts/CoreClashGameV2.sol\":4640:4655  nftContracts[0] */\n      tag_51\n      jump\t// in\n    tag_435:\n        /* \"contracts/CoreClashGameV2.sol\":4674:4689  nftContracts[1] */\n      tag_438\n      0x40\n      dup7\n      add\n      0x20\n      dup8\n      add\n      tag_51\n      jump\t// in\n    tag_438:\n        /* \"contracts/CoreClashGameV2.sol\":4708:4723  nftContracts[2] */\n      tag_441\n      0x60\n      dup8\n      add\n      0x40\n      dup9\n      add\n      tag_51\n      jump\t// in\n    tag_441:\n        /* \"contracts/CoreClashGameV2.sol\":4582:4822  abi.encodePacked(... */\n      0x40\n      dup1\n      mload\n        /* \"contracts/CoreClashGameV2.sol\":4742:4751  nftIds[0] */\n      0x20\n        /* \"contracts/CoreClashGameV2.sol\":4582:4822  abi.encodePacked(... */\n      dup2\n      dup2\n      add\n        /* \"#utility.yul\":19188:19207   */\n      swap7\n      swap1\n      swap7\n      mstore\n        /* \"#utility.yul\":19295:19297   */\n      0x60\n        /* \"#utility.yul\":19291:19306   */\n      swap5\n      dup6\n      shl\n      not(0xffffffffffffffffffffffff)\n        /* \"#utility.yul\":19287:19311   */\n      swap1\n      dup2\n      and\n        /* \"#utility.yul\":19273:19285   */\n      dup3\n      dup5\n      add\n        /* \"#utility.yul\":19266:19312   */\n      mstore\n        /* \"#utility.yul\":19346:19361   */\n      swap4\n      dup6\n      shl\n        /* \"#utility.yul\":19342:19366   */\n      dup5\n      and\n        /* \"#utility.yul\":19328:19340   */\n      0x54\n      dup3\n      add\n        /* \"#utility.yul\":19321:19367   */\n      mstore\n        /* \"#utility.yul\":19401:19416   */\n      swap2\n      swap1\n      swap4\n      shl\n        /* \"#utility.yul\":19397:19421   */\n      swap1\n      swap2\n      and\n        /* \"#utility.yul\":19383:19395   */\n      0x68\n      dup3\n      add\n        /* \"#utility.yul\":19376:19422   */\n      mstore\n        /* \"contracts/CoreClashGameV2.sol\":4742:4751  nftIds[0] */\n      dup5\n      calldataload\n        /* \"#utility.yul\":19438:19450   */\n      0x7c\n      dup3\n      add\n        /* \"#utility.yul\":19431:19459   */\n      mstore\n        /* \"contracts/CoreClashGameV2.sol\":4770:4779  nftIds[1] */\n      swap2\n      dup5\n      add\n      calldataload\n        /* \"#utility.yul\":19475:19488   */\n      0x9c\n      dup4\n      add\n        /* \"#utility.yul\":19468:19497   */\n      mstore\n        /* \"contracts/CoreClashGameV2.sol\":4798:4807  nftIds[2] */\n      dup4\n      add\n      calldataload\n        /* \"#utility.yul\":19513:19526   */\n      0xbc\n      dup3\n      add\n        /* \"#utility.yul\":19506:19535   */\n      mstore\n        /* \"#utility.yul\":19551:19564   */\n      0xdc\n      add\n        /* \"contracts/CoreClashGameV2.sol\":4582:4822  abi.encodePacked(... */\n      mload(0x40)\n      0x20\n      dup2\n      dup4\n      sub\n      sub\n      dup2\n      mstore\n      swap1\n      0x40\n      mstore\n        /* \"contracts/CoreClashGameV2.sol\":4558:4833  keccak256(... */\n      dup1\n      mload\n      swap1\n      0x20\n      add\n      keccak256\n        /* \"contracts/CoreClashGameV2.sol\":4551:4833  return keccak256(... */\n      swap1\n      pop\n        /* \"contracts/CoreClashGameV2.sol\":4374:4841  function _computeCommit(... */\n      swap4\n      swap3\n      pop\n      pop\n      pop\n      jump\t// out\n        /* \"@openzeppelin/contracts/token/ERC20/utils/SafeERC20.sol\":8370:9090  function _callOptionalReturn(IERC20 token, bytes memory data) private {... */\n    tag_333:\n        /* \"@openzeppelin/contracts/token/ERC20/utils/SafeERC20.sol\":8450:8468  uint256 returnSize */\n      0x00\n        /* \"@openzeppelin/contracts/token/ERC20/utils/SafeERC20.sol\":8478:8497  uint256 returnValue */\n      dup1\n        /* \"@openzeppelin/contracts/token/ERC20/utils/SafeERC20.sol\":8616:8620  0x20 */\n      0x20\n        /* \"@openzeppelin/contracts/token/ERC20/utils/SafeERC20.sol\":8613:8614  0 */\n      0x00\n        /* \"@openzeppelin/contracts/token/ERC20/utils/SafeERC20.sol\":8606:8610  data */\n      dup5\n        /* \"@openzeppelin/contracts/token/ERC20/utils/SafeERC20.sol\":8600:8611  mload(data) */\n      mload\n        /* \"@openzeppelin/contracts/token/ERC20/utils/SafeERC20.sol\":8593:8597  0x20 */\n      0x20\n        /* \"@openzeppelin/contracts/token/ERC20/utils/SafeERC20.sol\":8587:8591  data */\n      dup7\n        /* \"@openzeppelin/contracts/token/ERC20/utils/SafeERC20.sol\":8583:8598  add(data, 0x20) */\n      add\n        /* \"@openzeppelin/contracts/token/ERC20/utils/SafeERC20.sol\":8580:8581  0 */\n      0x00\n        /* \"@openzeppelin/contracts/token/ERC20/utils/SafeERC20.sol\":8573:8578  token */\n      dup9\n        /* \"@openzeppelin/contracts/token/ERC20/utils/SafeERC20.sol\":8566:8571  gas() */\n      gas\n        /* \"@openzeppelin/contracts/token/ERC20/utils/SafeERC20.sol\":8561:8621  call(gas(), token, 0, add(data, 0x20), mload(data), 0, 0x20) */\n      call\n        /* \"@openzeppelin/contracts/token/ERC20/utils/SafeERC20.sol\":8673:8680  success */\n      dup1\n        /* \"@openzeppelin/contracts/token/ERC20/utils/SafeERC20.sol\":8663:8839  if iszero(success) {... */\n      tag_451\n      jumpi\n        /* \"@openzeppelin/contracts/token/ERC20/utils/SafeERC20.sol\":8717:8721  0x40 */\n      0x40\n        /* \"@openzeppelin/contracts/token/ERC20/utils/SafeERC20.sol\":8711:8722  mload(0x40) */\n      mload\n        /* \"@openzeppelin/contracts/token/ERC20/utils/SafeERC20.sol\":8762:8778  returndatasize() */\n      returndatasize\n        /* \"@openzeppelin/contracts/token/ERC20/utils/SafeERC20.sol\":8759:8760  0 */\n      0x00\n        /* \"@openzeppelin/contracts/token/ERC20/utils/SafeERC20.sol\":8754:8757  ptr */\n      dup3\n        /* \"@openzeppelin/contracts/token/ERC20/utils/SafeERC20.sol\":8739:8779  returndatacopy(ptr, 0, returndatasize()) */\n      returndatacopy\n        /* \"@openzeppelin/contracts/token/ERC20/utils/SafeERC20.sol\":8808:8824  returndatasize() */\n      returndatasize\n        /* \"@openzeppelin/contracts/token/ERC20/utils/SafeERC20.sol\":8803:8806  ptr */\n      dup2\n        /* \"@openzeppelin/contracts/token/ERC20/utils/SafeERC20.sol\":8796:8825  revert(ptr, returndatasize()) */\n      revert\n        /* \"@openzeppelin/contracts/token/ERC20/utils/SafeERC20.sol\":8663:8839  if iszero(success) {... */\n    tag_451:\n      pop\n      pop\n        /* \"@openzeppelin/contracts/token/ERC20/utils/SafeERC20.sol\":8916:8917  0 */\n      0x00\n        /* \"@openzeppelin/contracts/token/ERC20/utils/SafeERC20.sol\":8910:8918  mload(0) */\n      mload\n        /* \"@openzeppelin/contracts/token/ERC20/utils/SafeERC20.sol\":8866:8882  returndatasize() */\n      returndatasize\n      swap2\n      pop\n        /* \"@openzeppelin/contracts/token/ERC20/utils/SafeERC20.sol\":8942:8957  returnSize == 0 */\n      dup2\n      iszero\n        /* \"@openzeppelin/contracts/token/ERC20/utils/SafeERC20.sol\":8942:9010  returnSize == 0 ? address(token).code.length == 0 : returnValue != 1 */\n      tag_452\n      jumpi\n        /* \"@openzeppelin/contracts/token/ERC20/utils/SafeERC20.sol\":8994:9005  returnValue */\n      dup1\n        /* \"@openzeppelin/contracts/token/ERC20/utils/SafeERC20.sol\":9009:9010  1 */\n      0x01\n        /* \"@openzeppelin/contracts/token/ERC20/utils/SafeERC20.sol\":8994:9010  returnValue != 1 */\n      eq\n      iszero\n        /* \"@openzeppelin/contracts/token/ERC20/utils/SafeERC20.sol\":8942:9010  returnSize == 0 ? address(token).code.length == 0 : returnValue != 1 */\n      jump(tag_453)\n    tag_452:\n      sub(shl(0xa0, 0x01), 0x01)\n        /* \"@openzeppelin/contracts/token/ERC20/utils/SafeERC20.sol\":8960:8986  address(token).code.length */\n      dup5\n      and\n      extcodesize\n        /* \"@openzeppelin/contracts/token/ERC20/utils/SafeERC20.sol\":8960:8991  address(token).code.length == 0 */\n      iszero\n        /* \"@openzeppelin/contracts/token/ERC20/utils/SafeERC20.sol\":8942:9010  returnSize == 0 ? address(token).code.length == 0 : returnValue != 1 */\n    tag_453:\n        /* \"@openzeppelin/contracts/token/ERC20/utils/SafeERC20.sol\":8938:9084  if (returnSize == 0 ? address(token).code.length == 0 : returnValue != 1) {... */\n      iszero\n      tag_330\n      jumpi\n        /* \"@openzeppelin/contracts/token/ERC20/utils/SafeERC20.sol\":9033:9073  SafeERC20FailedOperation(address(token)) */\n      mload(0x40)\n      shl(0xe0, 0x5274afe7)\n      dup2\n      mstore\n      sub(shl(0xa0, 0x01), 0x01)\n        /* \"#utility.yul\":2766:2798   */\n      dup6\n      and\n        /* \"@openzeppelin/contracts/token/ERC20/utils/SafeERC20.sol\":9033:9073  SafeERC20FailedOperation(address(token)) */\n      0x04\n      dup3\n      add\n        /* \"#utility.yul\":2748:2799   */\n      mstore\n        /* \"#utility.yul\":2721:2739   */\n      0x24\n      add\n        /* \"@openzeppelin/contracts/token/ERC20/utils/SafeERC20.sol\":9033:9073  SafeERC20FailedOperation(address(token)) */\n      tag_139\n        /* \"#utility.yul\":2602:2805   */\n      jump\n    tag_385:\n      mload(0x40)\n      dup1\n      0x60\n      add\n      0x40\n      mstore\n      dup1\n      0x03\n      swap1\n      0x20\n      dup3\n      mul\n      dup1\n      calldatasize\n      dup4\n      calldatacopy\n      pop\n      swap2\n      swap3\n      swap2\n      pop\n      pop\n      jump\t// out\n        /* \"#utility.yul\":14:145   */\n    tag_456:\n      sub(shl(0xa0, 0x01), 0x01)\n        /* \"#utility.yul\":89:120   */\n      dup2\n      and\n        /* \"#utility.yul\":79:121   */\n      dup2\n      eq\n        /* \"#utility.yul\":69:139   */\n      tag_464\n      jumpi\n        /* \"#utility.yul\":135:136   */\n      0x00\n        /* \"#utility.yul\":132:133   */\n      dup1\n        /* \"#utility.yul\":125:137   */\n      revert\n        /* \"#utility.yul\":69:139   */\n    tag_464:\n        /* \"#utility.yul\":14:145   */\n      pop\n      jump\t// out\n        /* \"#utility.yul\":150:533   */\n    tag_38:\n        /* \"#utility.yul\":227:233   */\n      0x00\n        /* \"#utility.yul\":235:241   */\n      dup1\n        /* \"#utility.yul\":243:249   */\n      0x00\n        /* \"#utility.yul\":296:298   */\n      0x60\n        /* \"#utility.yul\":284:293   */\n      dup5\n        /* \"#utility.yul\":275:282   */\n      dup7\n        /* \"#utility.yul\":271:294   */\n      sub\n        /* \"#utility.yul\":267:299   */\n      slt\n        /* \"#utility.yul\":264:316   */\n      iszero\n      tag_466\n      jumpi\n        /* \"#utility.yul\":312:313   */\n      0x00\n        /* \"#utility.yul\":309:310   */\n      dup1\n        /* \"#utility.yul\":302:314   */\n      revert\n        /* \"#utility.yul\":264:316   */\n    tag_466:\n        /* \"#utility.yul\":351:360   */\n      dup4\n        /* \"#utility.yul\":338:361   */\n      calldataload\n        /* \"#utility.yul\":370:401   */\n      tag_467\n        /* \"#utility.yul\":395:400   */\n      dup2\n        /* \"#utility.yul\":370:401   */\n      tag_456\n      jump\t// in\n    tag_467:\n        /* \"#utility.yul\":420:425   */\n      swap6\n        /* \"#utility.yul\":472:474   */\n      0x20\n        /* \"#utility.yul\":457:475   */\n      dup6\n      add\n        /* \"#utility.yul\":444:476   */\n      calldataload\n      swap6\n      pop\n        /* \"#utility.yul\":523:525   */\n      0x40\n        /* \"#utility.yul\":508:526   */\n      swap1\n      swap5\n      add\n        /* \"#utility.yul\":495:527   */\n      calldataload\n      swap4\n        /* \"#utility.yul\":150:533   */\n      swap3\n      pop\n      pop\n      pop\n      jump\t// out\n        /* \"#utility.yul\":538:718   */\n    tag_42:\n        /* \"#utility.yul\":597:603   */\n      0x00\n        /* \"#utility.yul\":650:652   */\n      0x20\n        /* \"#utility.yul\":638:647   */\n      dup3\n        /* \"#utility.yul\":629:636   */\n      dup5\n        /* \"#utility.yul\":625:648   */\n      sub\n        /* \"#utility.yul\":621:653   */\n      slt\n        /* \"#utility.yul\":618:670   */\n      iszero\n      tag_469\n      jumpi\n        /* \"#utility.yul\":666:667   */\n      0x00\n        /* \"#utility.yul\":663:664   */\n      dup1\n        /* \"#utility.yul\":656:668   */\n      revert\n        /* \"#utility.yul\":618:670   */\n    tag_469:\n      pop\n        /* \"#utility.yul\":689:712   */\n      calldataload\n      swap2\n        /* \"#utility.yul\":538:718   */\n      swap1\n      pop\n      jump\t// out\n        /* \"#utility.yul\":1794:2041   */\n    tag_51:\n        /* \"#utility.yul\":1853:1859   */\n      0x00\n        /* \"#utility.yul\":1906:1908   */\n      0x20\n        /* \"#utility.yul\":1894:1903   */\n      dup3\n        /* \"#utility.yul\":1885:1892   */\n      dup5\n        /* \"#utility.yul\":1881:1904   */\n      sub\n        /* \"#utility.yul\":1877:1909   */\n      slt\n        /* \"#utility.yul\":1874:1926   */\n      iszero\n      tag_472\n      jumpi\n        /* \"#utility.yul\":1922:1923   */\n      0x00\n        /* \"#utility.yul\":1919:1920   */\n      dup1\n        /* \"#utility.yul\":1912:1924   */\n      revert\n        /* \"#utility.yul\":1874:1926   */\n    tag_472:\n        /* \"#utility.yul\":1961:1970   */\n      dup2\n        /* \"#utility.yul\":1948:1971   */\n      calldataload\n        /* \"#utility.yul\":1980:2011   */\n      tag_473\n        /* \"#utility.yul\":2005:2010   */\n      dup2\n        /* \"#utility.yul\":1980:2011   */\n      tag_456\n      jump\t// in\n    tag_473:\n        /* \"#utility.yul\":2030:2035   */\n      swap4\n        /* \"#utility.yul\":1794:2041   */\n      swap3\n      pop\n      pop\n      pop\n      jump\t// out\n        /* \"#utility.yul\":2810:2937   */\n    tag_457:\n        /* \"#utility.yul\":2871:2881   */\n      0x4e487b71\n        /* \"#utility.yul\":2866:2869   */\n      0xe0\n        /* \"#utility.yul\":2862:2882   */\n      shl\n        /* \"#utility.yul\":2859:2860   */\n      0x00\n        /* \"#utility.yul\":2852:2883   */\n      mstore\n        /* \"#utility.yul\":2902:2906   */\n      0x41\n        /* \"#utility.yul\":2899:2900   */\n      0x04\n        /* \"#utility.yul\":2892:2907   */\n      mstore\n        /* \"#utility.yul\":2926:2930   */\n      0x24\n        /* \"#utility.yul\":2923:2924   */\n      0x00\n        /* \"#utility.yul\":2916:2931   */\n      revert\n        /* \"#utility.yul\":2942:3864   */\n    tag_85:\n        /* \"#utility.yul\":3011:3017   */\n      0x00\n        /* \"#utility.yul\":3064:3066   */\n      0x20\n        /* \"#utility.yul\":3052:3061   */\n      dup3\n        /* \"#utility.yul\":3043:3050   */\n      dup5\n        /* \"#utility.yul\":3039:3062   */\n      sub\n        /* \"#utility.yul\":3035:3067   */\n      slt\n        /* \"#utility.yul\":3032:3084   */\n      iszero\n      tag_480\n      jumpi\n        /* \"#utility.yul\":3080:3081   */\n      0x00\n        /* \"#utility.yul\":3077:3078   */\n      dup1\n        /* \"#utility.yul\":3070:3082   */\n      revert\n        /* \"#utility.yul\":3032:3084   */\n    tag_480:\n        /* \"#utility.yul\":3120:3129   */\n      dup2\n        /* \"#utility.yul\":3107:3130   */\n      calldataload\n        /* \"#utility.yul\":3149:3167   */\n      0xffffffffffffffff\n        /* \"#utility.yul\":3190:3192   */\n      dup1\n        /* \"#utility.yul\":3182:3188   */\n      dup3\n        /* \"#utility.yul\":3179:3193   */\n      gt\n        /* \"#utility.yul\":3176:3210   */\n      iszero\n      tag_481\n      jumpi\n        /* \"#utility.yul\":3206:3207   */\n      0x00\n        /* \"#utility.yul\":3203:3204   */\n      dup1\n        /* \"#utility.yul\":3196:3208   */\n      revert\n        /* \"#utility.yul\":3176:3210   */\n    tag_481:\n        /* \"#utility.yul\":3244:3250   */\n      dup2\n        /* \"#utility.yul\":3233:3242   */\n      dup5\n        /* \"#utility.yul\":3229:3251   */\n      add\n        /* \"#utility.yul\":3219:3251   */\n      swap2\n      pop\n        /* \"#utility.yul\":3289:3296   */\n      dup5\n        /* \"#utility.yul\":3282:3286   */\n      0x1f\n        /* \"#utility.yul\":3278:3280   */\n      dup4\n        /* \"#utility.yul\":3274:3287   */\n      add\n        /* \"#utility.yul\":3270:3297   */\n      slt\n        /* \"#utility.yul\":3260:3315   */\n      tag_482\n      jumpi\n        /* \"#utility.yul\":3311:3312   */\n      0x00\n        /* \"#utility.yul\":3308:3309   */\n      dup1\n        /* \"#utility.yul\":3301:3313   */\n      revert\n        /* \"#utility.yul\":3260:3315   */\n    tag_482:\n        /* \"#utility.yul\":3347:3349   */\n      dup2\n        /* \"#utility.yul\":3334:3350   */\n      calldataload\n        /* \"#utility.yul\":3369:3371   */\n      dup2\n        /* \"#utility.yul\":3365:3367   */\n      dup2\n        /* \"#utility.yul\":3362:3372   */\n      gt\n        /* \"#utility.yul\":3359:3395   */\n      iszero\n      tag_484\n      jumpi\n        /* \"#utility.yul\":3375:3393   */\n      tag_484\n      tag_457\n      jump\t// in\n    tag_484:\n        /* \"#utility.yul\":3450:3452   */\n      0x40\n        /* \"#utility.yul\":3444:3453   */\n      mload\n        /* \"#utility.yul\":3418:3420   */\n      0x1f\n        /* \"#utility.yul\":3504:3517   */\n      dup3\n      add\n      not(0x1f)\n        /* \"#utility.yul\":3500:3522   */\n      swap1\n      dup2\n      and\n        /* \"#utility.yul\":3524:3526   */\n      0x3f\n        /* \"#utility.yul\":3496:3527   */\n      add\n        /* \"#utility.yul\":3492:3532   */\n      and\n        /* \"#utility.yul\":3480:3533   */\n      dup2\n      add\n      swap1\n        /* \"#utility.yul\":3548:3566   */\n      dup4\n      dup3\n      gt\n        /* \"#utility.yul\":3568:3590   */\n      dup2\n      dup4\n      lt\n        /* \"#utility.yul\":3545:3591   */\n      or\n        /* \"#utility.yul\":3542:3614   */\n      iszero\n      tag_486\n      jumpi\n        /* \"#utility.yul\":3594:3612   */\n      tag_486\n      tag_457\n      jump\t// in\n    tag_486:\n        /* \"#utility.yul\":3634:3644   */\n      dup2\n        /* \"#utility.yul\":3630:3632   */\n      0x40\n        /* \"#utility.yul\":3623:3645   */\n      mstore\n        /* \"#utility.yul\":3669:3671   */\n      dup3\n        /* \"#utility.yul\":3661:3667   */\n      dup2\n        /* \"#utility.yul\":3654:3672   */\n      mstore\n        /* \"#utility.yul\":3709:3716   */\n      dup8\n        /* \"#utility.yul\":3704:3706   */\n      0x20\n        /* \"#utility.yul\":3699:3701   */\n      dup5\n        /* \"#utility.yul\":3695:3697   */\n      dup8\n        /* \"#utility.yul\":3691:3702   */\n      add\n        /* \"#utility.yul\":3687:3707   */\n      add\n        /* \"#utility.yul\":3684:3717   */\n      gt\n        /* \"#utility.yul\":3681:3734   */\n      iszero\n      tag_487\n      jumpi\n        /* \"#utility.yul\":3730:3731   */\n      0x00\n        /* \"#utility.yul\":3727:3728   */\n      dup1\n        /* \"#utility.yul\":3720:3732   */\n      revert\n        /* \"#utility.yul\":3681:3734   */\n    tag_487:\n        /* \"#utility.yul\":3786:3788   */\n      dup3\n        /* \"#utility.yul\":3781:3783   */\n      0x20\n        /* \"#utility.yul\":3777:3779   */\n      dup7\n        /* \"#utility.yul\":3773:3784   */\n      add\n        /* \"#utility.yul\":3768:3770   */\n      0x20\n        /* \"#utility.yul\":3760:3766   */\n      dup4\n        /* \"#utility.yul\":3756:3771   */\n      add\n        /* \"#utility.yul\":3743:3789   */\n      calldatacopy\n        /* \"#utility.yul\":3831:3832   */\n      0x00\n        /* \"#utility.yul\":3809:3824   */\n      swap3\n      dup2\n      add\n        /* \"#utility.yul\":3826:3828   */\n      0x20\n        /* \"#utility.yul\":3805:3829   */\n      add\n        /* \"#utility.yul\":3798:3833   */\n      swap3\n      swap1\n      swap3\n      mstore\n      pop\n        /* \"#utility.yul\":3813:3819   */\n      swap6\n        /* \"#utility.yul\":2942:3864   */\n      swap5\n      pop\n      pop\n      pop\n      pop\n      pop\n      jump\t// out\n        /* \"#utility.yul\":3869:4029   */\n    tag_458:\n        /* \"#utility.yul\":3934:3954   */\n      dup1\n      calldataload\n        /* \"#utility.yul\":3990:4003   */\n      dup1\n      iszero\n        /* \"#utility.yul\":3983:4004   */\n      iszero\n        /* \"#utility.yul\":3973:4005   */\n      dup2\n      eq\n        /* \"#utility.yul\":3963:4023   */\n      tag_489\n      jumpi\n        /* \"#utility.yul\":4019:4020   */\n      0x00\n        /* \"#utility.yul\":4016:4017   */\n      dup1\n        /* \"#utility.yul\":4009:4021   */\n      revert\n        /* \"#utility.yul\":3963:4023   */\n    tag_489:\n        /* \"#utility.yul\":3869:4029   */\n      swap2\n      swap1\n      pop\n      jump\t// out\n        /* \"#utility.yul\":4034:4700   */\n    tag_93:\n        /* \"#utility.yul\":4111:4117   */\n      0x00\n        /* \"#utility.yul\":4119:4125   */\n      dup1\n        /* \"#utility.yul\":4127:4133   */\n      0x00\n        /* \"#utility.yul\":4180:4182   */\n      0x40\n        /* \"#utility.yul\":4168:4177   */\n      dup5\n        /* \"#utility.yul\":4159:4166   */\n      dup7\n        /* \"#utility.yul\":4155:4178   */\n      sub\n        /* \"#utility.yul\":4151:4183   */\n      slt\n        /* \"#utility.yul\":4148:4200   */\n      iszero\n      tag_491\n      jumpi\n        /* \"#utility.yul\":4196:4197   */\n      0x00\n        /* \"#utility.yul\":4193:4194   */\n      dup1\n        /* \"#utility.yul\":4186:4198   */\n      revert\n        /* \"#utility.yul\":4148:4200   */\n    tag_491:\n        /* \"#utility.yul\":4236:4245   */\n      dup4\n        /* \"#utility.yul\":4223:4246   */\n      calldataload\n        /* \"#utility.yul\":4265:4283   */\n      0xffffffffffffffff\n        /* \"#utility.yul\":4306:4308   */\n      dup1\n        /* \"#utility.yul\":4298:4304   */\n      dup3\n        /* \"#utility.yul\":4295:4309   */\n      gt\n        /* \"#utility.yul\":4292:4326   */\n      iszero\n      tag_492\n      jumpi\n        /* \"#utility.yul\":4322:4323   */\n      0x00\n        /* \"#utility.yul\":4319:4320   */\n      dup1\n        /* \"#utility.yul\":4312:4324   */\n      revert\n        /* \"#utility.yul\":4292:4326   */\n    tag_492:\n        /* \"#utility.yul\":4360:4366   */\n      dup2\n        /* \"#utility.yul\":4349:4358   */\n      dup7\n        /* \"#utility.yul\":4345:4367   */\n      add\n        /* \"#utility.yul\":4335:4367   */\n      swap2\n      pop\n        /* \"#utility.yul\":4405:4412   */\n      dup7\n        /* \"#utility.yul\":4398:4402   */\n      0x1f\n        /* \"#utility.yul\":4394:4396   */\n      dup4\n        /* \"#utility.yul\":4390:4403   */\n      add\n        /* \"#utility.yul\":4386:4413   */\n      slt\n        /* \"#utility.yul\":4376:4431   */\n      tag_493\n      jumpi\n        /* \"#utility.yul\":4427:4428   */\n      0x00\n        /* \"#utility.yul\":4424:4425   */\n      dup1\n        /* \"#utility.yul\":4417:4429   */\n      revert\n        /* \"#utility.yul\":4376:4431   */\n    tag_493:\n        /* \"#utility.yul\":4467:4469   */\n      dup2\n        /* \"#utility.yul\":4454:4470   */\n      calldataload\n        /* \"#utility.yul\":4493:4495   */\n      dup2\n        /* \"#utility.yul\":4485:4491   */\n      dup2\n        /* \"#utility.yul\":4482:4496   */\n      gt\n        /* \"#utility.yul\":4479:4513   */\n      iszero\n      tag_494\n      jumpi\n        /* \"#utility.yul\":4509:4510   */\n      0x00\n        /* \"#utility.yul\":4506:4507   */\n      dup1\n        /* \"#utility.yul\":4499:4511   */\n      revert\n        /* \"#utility.yul\":4479:4513   */\n    tag_494:\n        /* \"#utility.yul\":4556:4563   */\n      dup8\n        /* \"#utility.yul\":4549:4553   */\n      0x20\n        /* \"#utility.yul\":4540:4546   */\n      dup3\n        /* \"#utility.yul\":4536:4538   */\n      dup6\n        /* \"#utility.yul\":4532:4547   */\n      add\n        /* \"#utility.yul\":4528:4554   */\n      add\n        /* \"#utility.yul\":4525:4564   */\n      gt\n        /* \"#utility.yul\":4522:4581   */\n      iszero\n      tag_495\n      jumpi\n        /* \"#utility.yul\":4577:4578   */\n      0x00\n        /* \"#utility.yul\":4574:4575   */\n      dup1\n        /* \"#utility.yul\":4567:4579   */\n      revert\n        /* \"#utility.yul\":4522:4581   */\n    tag_495:\n        /* \"#utility.yul\":4608:4612   */\n      0x20\n        /* \"#utility.yul\":4600:4613   */\n      swap3\n      dup4\n      add\n      swap6\n      pop\n        /* \"#utility.yul\":4632:4638   */\n      swap4\n      pop\n        /* \"#utility.yul\":4657:4694   */\n      tag_496\n      swap2\n        /* \"#utility.yul\":4673:4693   */\n      dup7\n      add\n      swap1\n      pop\n        /* \"#utility.yul\":4657:4694   */\n      tag_458\n      jump\t// in\n    tag_496:\n        /* \"#utility.yul\":4647:4694   */\n      swap1\n      pop\n        /* \"#utility.yul\":4034:4700   */\n      swap3\n      pop\n      swap3\n      pop\n      swap3\n      jump\t// out\n        /* \"#utility.yul\":4705:5020   */\n    tag_97:\n        /* \"#utility.yul\":4770:4776   */\n      0x00\n        /* \"#utility.yul\":4778:4784   */\n      dup1\n        /* \"#utility.yul\":4831:4833   */\n      0x40\n        /* \"#utility.yul\":4819:4828   */\n      dup4\n        /* \"#utility.yul\":4810:4817   */\n      dup6\n        /* \"#utility.yul\":4806:4829   */\n      sub\n        /* \"#utility.yul\":4802:4834   */\n      slt\n        /* \"#utility.yul\":4799:4851   */\n      iszero\n      tag_498\n      jumpi\n        /* \"#utility.yul\":4847:4848   */\n      0x00\n        /* \"#utility.yul\":4844:4845   */\n      dup1\n        /* \"#utility.yul\":4837:4849   */\n      revert\n        /* \"#utility.yul\":4799:4851   */\n    tag_498:\n        /* \"#utility.yul\":4886:4895   */\n      dup3\n        /* \"#utility.yul\":4873:4896   */\n      calldataload\n        /* \"#utility.yul\":4905:4936   */\n      tag_499\n        /* \"#utility.yul\":4930:4935   */\n      dup2\n        /* \"#utility.yul\":4905:4936   */\n      tag_456\n      jump\t// in\n    tag_499:\n        /* \"#utility.yul\":4955:4960   */\n      swap2\n      pop\n        /* \"#utility.yul\":4979:5014   */\n      tag_500\n        /* \"#utility.yul\":5010:5012   */\n      0x20\n        /* \"#utility.yul\":4995:5013   */\n      dup5\n      add\n        /* \"#utility.yul\":4979:5014   */\n      tag_458\n      jump\t// in\n    tag_500:\n        /* \"#utility.yul\":4969:5014   */\n      swap1\n      pop\n        /* \"#utility.yul\":4705:5020   */\n      swap3\n      pop\n      swap3\n      swap1\n      pop\n      jump\t// out\n        /* \"#utility.yul\":5025:5568   */\n    tag_107:\n        /* \"#utility.yul\":5118:5124   */\n      0x00\n        /* \"#utility.yul\":5126:5132   */\n      dup1\n        /* \"#utility.yul\":5134:5140   */\n      0x00\n        /* \"#utility.yul\":5142:5148   */\n      dup1\n        /* \"#utility.yul\":5150:5156   */\n      0x00\n        /* \"#utility.yul\":5203:5206   */\n      0xa0\n        /* \"#utility.yul\":5191:5200   */\n      dup7\n        /* \"#utility.yul\":5182:5189   */\n      dup9\n        /* \"#utility.yul\":5178:5201   */\n      sub\n        /* \"#utility.yul\":5174:5207   */\n      slt\n        /* \"#utility.yul\":5171:5224   */\n      iszero\n      tag_502\n      jumpi\n        /* \"#utility.yul\":5220:5221   */\n      0x00\n        /* \"#utility.yul\":5217:5218   */\n      dup1\n        /* \"#utility.yul\":5210:5222   */\n      revert\n        /* \"#utility.yul\":5171:5224   */\n    tag_502:\n        /* \"#utility.yul\":5256:5265   */\n      dup6\n        /* \"#utility.yul\":5243:5266   */\n      calldataload\n        /* \"#utility.yul\":5233:5266   */\n      swap5\n      pop\n        /* \"#utility.yul\":5313:5315   */\n      0x20\n        /* \"#utility.yul\":5302:5311   */\n      dup7\n        /* \"#utility.yul\":5298:5316   */\n      add\n        /* \"#utility.yul\":5285:5317   */\n      calldataload\n        /* \"#utility.yul\":5275:5317   */\n      swap4\n      pop\n        /* \"#utility.yul\":5367:5369   */\n      0x40\n        /* \"#utility.yul\":5356:5365   */\n      dup7\n        /* \"#utility.yul\":5352:5370   */\n      add\n        /* \"#utility.yul\":5339:5371   */\n      calldataload\n        /* \"#utility.yul\":5411:5415   */\n      0xff\n        /* \"#utility.yul\":5404:5409   */\n      dup2\n        /* \"#utility.yul\":5400:5416   */\n      and\n        /* \"#utility.yul\":5393:5398   */\n      dup2\n        /* \"#utility.yul\":5390:5417   */\n      eq\n        /* \"#utility.yul\":5380:5435   */\n      tag_503\n      jumpi\n        /* \"#utility.yul\":5431:5432   */\n      0x00\n        /* \"#utility.yul\":5428:5429   */\n      dup1\n        /* \"#utility.yul\":5421:5433   */\n      revert\n        /* \"#utility.yul\":5380:5435   */\n    tag_503:\n        /* \"#utility.yul\":5025:5568   */\n      swap5\n      swap8\n      swap4\n      swap7\n      pop\n        /* \"#utility.yul\":5454:5459   */\n      swap4\n      swap5\n        /* \"#utility.yul\":5506:5508   */\n      0x60\n        /* \"#utility.yul\":5491:5509   */\n      dup2\n      add\n        /* \"#utility.yul\":5478:5510   */\n      calldataload\n      swap5\n      pop\n        /* \"#utility.yul\":5557:5560   */\n      0x80\n        /* \"#utility.yul\":5542:5561   */\n      add\n        /* \"#utility.yul\":5529:5562   */\n      calldataload\n      swap3\n        /* \"#utility.yul\":5025:5568   */\n      swap2\n      pop\n      pop\n      jump\t// out\n        /* \"#utility.yul\":5573:5821   */\n    tag_111:\n        /* \"#utility.yul\":5641:5647   */\n      0x00\n        /* \"#utility.yul\":5649:5655   */\n      dup1\n        /* \"#utility.yul\":5702:5704   */\n      0x40\n        /* \"#utility.yul\":5690:5699   */\n      dup4\n        /* \"#utility.yul\":5681:5688   */\n      dup6\n        /* \"#utility.yul\":5677:5700   */\n      sub\n        /* \"#utility.yul\":5673:5705   */\n      slt\n        /* \"#utility.yul\":5670:5722   */\n      iszero\n      tag_505\n      jumpi\n        /* \"#utility.yul\":5718:5719   */\n      0x00\n        /* \"#utility.yul\":5715:5716   */\n      dup1\n        /* \"#utility.yul\":5708:5720   */\n      revert\n        /* \"#utility.yul\":5670:5722   */\n    tag_505:\n      pop\n      pop\n        /* \"#utility.yul\":5741:5764   */\n      dup1\n      calldataload\n      swap3\n        /* \"#utility.yul\":5811:5813   */\n      0x20\n        /* \"#utility.yul\":5796:5814   */\n      swap1\n      swap2\n      add\n        /* \"#utility.yul\":5783:5815   */\n      calldataload\n      swap2\n      pop\n        /* \"#utility.yul\":5573:5821   */\n      jump\t// out\n        /* \"#utility.yul\":5826:6141   */\n    tag_115:\n        /* \"#utility.yul\":5894:5900   */\n      0x00\n        /* \"#utility.yul\":5902:5908   */\n      dup1\n        /* \"#utility.yul\":5955:5957   */\n      0x40\n        /* \"#utility.yul\":5943:5952   */\n      dup4\n        /* \"#utility.yul\":5934:5941   */\n      dup6\n        /* \"#utility.yul\":5930:5953   */\n      sub\n        /* \"#utility.yul\":5926:5958   */\n      slt\n        /* \"#utility.yul\":5923:5975   */\n      iszero\n      tag_507\n      jumpi\n        /* \"#utility.yul\":5971:5972   */\n      0x00\n        /* \"#utility.yul\":5968:5969   */\n      dup1\n        /* \"#utility.yul\":5961:5973   */\n      revert\n        /* \"#utility.yul\":5923:5975   */\n    tag_507:\n        /* \"#utility.yul\":6007:6016   */\n      dup3\n        /* \"#utility.yul\":5994:6017   */\n      calldataload\n        /* \"#utility.yul\":5984:6017   */\n      swap2\n      pop\n        /* \"#utility.yul\":6067:6069   */\n      0x20\n        /* \"#utility.yul\":6056:6065   */\n      dup4\n        /* \"#utility.yul\":6052:6070   */\n      add\n        /* \"#utility.yul\":6039:6071   */\n      calldataload\n        /* \"#utility.yul\":6080:6111   */\n      tag_508\n        /* \"#utility.yul\":6105:6110   */\n      dup2\n        /* \"#utility.yul\":6080:6111   */\n      tag_456\n      jump\t// in\n    tag_508:\n        /* \"#utility.yul\":6130:6135   */\n      dup1\n        /* \"#utility.yul\":6120:6135   */\n      swap2\n      pop\n      pop\n        /* \"#utility.yul\":5826:6141   */\n      swap3\n      pop\n      swap3\n      swap1\n      pop\n      jump\t// out\n        /* \"#utility.yul\":6146:6305   */\n    tag_459:\n        /* \"#utility.yul\":6240:6246   */\n      dup1\n        /* \"#utility.yul\":6273:6275   */\n      0x60\n        /* \"#utility.yul\":6261:6276   */\n      dup2\n      add\n        /* \"#utility.yul\":6258:6282   */\n      dup4\n      lt\n        /* \"#utility.yul\":6255:6299   */\n      iszero\n      tag_510\n      jumpi\n        /* \"#utility.yul\":6295:6296   */\n      0x00\n        /* \"#utility.yul\":6292:6293   */\n      dup1\n        /* \"#utility.yul\":6285:6297   */\n      revert\n        /* \"#utility.yul\":6255:6299   */\n    tag_510:\n        /* \"#utility.yul\":6146:6305   */\n      swap3\n      swap2\n      pop\n      pop\n      jump\t// out\n        /* \"#utility.yul\":6310:7060   */\n    tag_122:\n        /* \"#utility.yul\":6492:6498   */\n      0x00\n        /* \"#utility.yul\":6500:6506   */\n      dup1\n        /* \"#utility.yul\":6508:6514   */\n      0x00\n        /* \"#utility.yul\":6516:6522   */\n      dup1\n        /* \"#utility.yul\":6524:6530   */\n      0x00\n        /* \"#utility.yul\":6577:6580   */\n      0x0120\n        /* \"#utility.yul\":6565:6574   */\n      dup7\n        /* \"#utility.yul\":6556:6563   */\n      dup9\n        /* \"#utility.yul\":6552:6575   */\n      sub\n        /* \"#utility.yul\":6548:6581   */\n      slt\n        /* \"#utility.yul\":6545:6598   */\n      iszero\n      tag_512\n      jumpi\n        /* \"#utility.yul\":6594:6595   */\n      0x00\n        /* \"#utility.yul\":6591:6592   */\n      dup1\n        /* \"#utility.yul\":6584:6596   */\n      revert\n        /* \"#utility.yul\":6545:6598   */\n    tag_512:\n        /* \"#utility.yul\":6630:6639   */\n      dup6\n        /* \"#utility.yul\":6617:6640   */\n      calldataload\n        /* \"#utility.yul\":6607:6640   */\n      swap5\n      pop\n        /* \"#utility.yul\":6687:6689   */\n      0x20\n        /* \"#utility.yul\":6676:6685   */\n      dup7\n        /* \"#utility.yul\":6672:6690   */\n      add\n        /* \"#utility.yul\":6659:6691   */\n      calldataload\n        /* \"#utility.yul\":6649:6691   */\n      swap4\n      pop\n        /* \"#utility.yul\":6710:6772   */\n      tag_513\n        /* \"#utility.yul\":6764:6771   */\n      dup8\n        /* \"#utility.yul\":6759:6761   */\n      0x40\n        /* \"#utility.yul\":6748:6757   */\n      dup9\n        /* \"#utility.yul\":6744:6762   */\n      add\n        /* \"#utility.yul\":6710:6772   */\n      tag_459\n      jump\t// in\n    tag_513:\n        /* \"#utility.yul\":6700:6772   */\n      swap3\n      pop\n        /* \"#utility.yul\":6791:6854   */\n      tag_514\n        /* \"#utility.yul\":6846:6853   */\n      dup8\n        /* \"#utility.yul\":6840:6843   */\n      0xa0\n        /* \"#utility.yul\":6829:6838   */\n      dup9\n        /* \"#utility.yul\":6825:6844   */\n      add\n        /* \"#utility.yul\":6791:6854   */\n      tag_459\n      jump\t// in\n    tag_514:\n        /* \"#utility.yul\":6781:6854   */\n      swap2\n      pop\n        /* \"#utility.yul\":6905:6908   */\n      0x0100\n        /* \"#utility.yul\":6894:6903   */\n      dup7\n        /* \"#utility.yul\":6890:6909   */\n      add\n        /* \"#utility.yul\":6877:6910   */\n      calldataload\n        /* \"#utility.yul\":6933:6951   */\n      0xffffffffffffffff\n        /* \"#utility.yul\":6925:6931   */\n      dup2\n        /* \"#utility.yul\":6922:6952   */\n      gt\n        /* \"#utility.yul\":6919:6969   */\n      iszero\n      tag_515\n      jumpi\n        /* \"#utility.yul\":6965:6966   */\n      0x00\n        /* \"#utility.yul\":6962:6963   */\n      dup1\n        /* \"#utility.yul\":6955:6967   */\n      revert\n        /* \"#utility.yul\":6919:6969   */\n    tag_515:\n        /* \"#utility.yul\":6988:7054   */\n      tag_516\n        /* \"#utility.yul\":7046:7053   */\n      dup9\n        /* \"#utility.yul\":7037:7043   */\n      dup3\n        /* \"#utility.yul\":7026:7035   */\n      dup10\n        /* \"#utility.yul\":7022:7044   */\n      add\n        /* \"#utility.yul\":6988:7054   */\n      tag_459\n      jump\t// in\n    tag_516:\n        /* \"#utility.yul\":6978:7054   */\n      swap2\n      pop\n      pop\n        /* \"#utility.yul\":6310:7060   */\n      swap3\n      swap6\n      pop\n      swap3\n      swap6\n      swap1\n      swap4\n      pop\n      jump\t// out\n        /* \"#utility.yul\":7065:7440   */\n    tag_460:\n        /* \"#utility.yul\":7136:7144   */\n      0x00\n        /* \"#utility.yul\":7146:7152   */\n      dup1\n        /* \"#utility.yul\":7200:7203   */\n      dup4\n        /* \"#utility.yul\":7193:7197   */\n      0x1f\n        /* \"#utility.yul\":7185:7191   */\n      dup5\n        /* \"#utility.yul\":7181:7198   */\n      add\n        /* \"#utility.yul\":7177:7204   */\n      slt\n        /* \"#utility.yul\":7167:7222   */\n      tag_518\n      jumpi\n        /* \"#utility.yul\":7218:7219   */\n      0x00\n        /* \"#utility.yul\":7215:7216   */\n      dup1\n        /* \"#utility.yul\":7208:7220   */\n      revert\n        /* \"#utility.yul\":7167:7222   */\n    tag_518:\n      pop\n        /* \"#utility.yul\":7241:7261   */\n      dup2\n      calldataload\n        /* \"#utility.yul\":7284:7302   */\n      0xffffffffffffffff\n        /* \"#utility.yul\":7273:7303   */\n      dup2\n      gt\n        /* \"#utility.yul\":7270:7320   */\n      iszero\n      tag_519\n      jumpi\n        /* \"#utility.yul\":7316:7317   */\n      0x00\n        /* \"#utility.yul\":7313:7314   */\n      dup1\n        /* \"#utility.yul\":7306:7318   */\n      revert\n        /* \"#utility.yul\":7270:7320   */\n    tag_519:\n        /* \"#utility.yul\":7353:7357   */\n      0x20\n        /* \"#utility.yul\":7345:7351   */\n      dup4\n        /* \"#utility.yul\":7341:7358   */\n      add\n        /* \"#utility.yul\":7329:7358   */\n      swap2\n      pop\n        /* \"#utility.yul\":7413:7416   */\n      dup4\n        /* \"#utility.yul\":7406:7410   */\n      0x20\n        /* \"#utility.yul\":7396:7402   */\n      dup3\n        /* \"#utility.yul\":7393:7394   */\n      0x05\n        /* \"#utility.yul\":7389:7403   */\n      shl\n        /* \"#utility.yul\":7381:7387   */\n      dup6\n        /* \"#utility.yul\":7377:7404   */\n      add\n        /* \"#utility.yul\":7373:7411   */\n      add\n        /* \"#utility.yul\":7370:7417   */\n      gt\n        /* \"#utility.yul\":7367:7434   */\n      iszero\n      tag_520\n      jumpi\n        /* \"#utility.yul\":7430:7431   */\n      0x00\n        /* \"#utility.yul\":7427:7428   */\n      dup1\n        /* \"#utility.yul\":7420:7432   */\n      revert\n        /* \"#utility.yul\":7367:7434   */\n    tag_520:\n        /* \"#utility.yul\":7065:7440   */\n      swap3\n      pop\n      swap3\n      swap1\n      pop\n      jump\t// out\n        /* \"#utility.yul\":7445:8243   */\n    tag_135:\n        /* \"#utility.yul\":7576:7582   */\n      0x00\n        /* \"#utility.yul\":7584:7590   */\n      dup1\n        /* \"#utility.yul\":7592:7598   */\n      0x00\n        /* \"#utility.yul\":7600:7606   */\n      dup1\n        /* \"#utility.yul\":7653:7655   */\n      0x40\n        /* \"#utility.yul\":7641:7650   */\n      dup6\n        /* \"#utility.yul\":7632:7639   */\n      dup8\n        /* \"#utility.yul\":7628:7651   */\n      sub\n        /* \"#utility.yul\":7624:7656   */\n      slt\n        /* \"#utility.yul\":7621:7673   */\n      iszero\n      tag_522\n      jumpi\n        /* \"#utility.yul\":7669:7670   */\n      0x00\n        /* \"#utility.yul\":7666:7667   */\n      dup1\n        /* \"#utility.yul\":7659:7671   */\n      revert\n        /* \"#utility.yul\":7621:7673   */\n    tag_522:\n        /* \"#utility.yul\":7709:7718   */\n      dup5\n        /* \"#utility.yul\":7696:7719   */\n      calldataload\n        /* \"#utility.yul\":7738:7756   */\n      0xffffffffffffffff\n        /* \"#utility.yul\":7779:7781   */\n      dup1\n        /* \"#utility.yul\":7771:7777   */\n      dup3\n        /* \"#utility.yul\":7768:7782   */\n      gt\n        /* \"#utility.yul\":7765:7799   */\n      iszero\n      tag_523\n      jumpi\n        /* \"#utility.yul\":7795:7796   */\n      0x00\n        /* \"#utility.yul\":7792:7793   */\n      dup1\n        /* \"#utility.yul\":7785:7797   */\n      revert\n        /* \"#utility.yul\":7765:7799   */\n    tag_523:\n        /* \"#utility.yul\":7834:7912   */\n      tag_524\n        /* \"#utility.yul\":7904:7911   */\n      dup9\n        /* \"#utility.yul\":7895:7901   */\n      dup4\n        /* \"#utility.yul\":7884:7893   */\n      dup10\n        /* \"#utility.yul\":7880:7902   */\n      add\n        /* \"#utility.yul\":7834:7912   */\n      tag_460\n      jump\t// in\n    tag_524:\n        /* \"#utility.yul\":7931:7939   */\n      swap1\n      swap7\n      pop\n        /* \"#utility.yul\":7808:7912   */\n      swap5\n      pop\n        /* \"#utility.yul\":8019:8021   */\n      0x20\n        /* \"#utility.yul\":8004:8022   */\n      dup8\n      add\n        /* \"#utility.yul\":7991:8023   */\n      calldataload\n      swap2\n      pop\n        /* \"#utility.yul\":8035:8051   */\n      dup1\n      dup3\n      gt\n        /* \"#utility.yul\":8032:8068   */\n      iszero\n      tag_525\n      jumpi\n        /* \"#utility.yul\":8064:8065   */\n      0x00\n        /* \"#utility.yul\":8061:8062   */\n      dup1\n        /* \"#utility.yul\":8054:8066   */\n      revert\n        /* \"#utility.yul\":8032:8068   */\n    tag_525:\n      pop\n        /* \"#utility.yul\":8103:8183   */\n      tag_526\n        /* \"#utility.yul\":8175:8182   */\n      dup8\n        /* \"#utility.yul\":8164:8172   */\n      dup3\n        /* \"#utility.yul\":8153:8162   */\n      dup9\n        /* \"#utility.yul\":8149:8173   */\n      add\n        /* \"#utility.yul\":8103:8183   */\n      tag_460\n      jump\t// in\n    tag_526:\n        /* \"#utility.yul\":7445:8243   */\n      swap6\n      swap9\n      swap5\n      swap8\n      pop\n        /* \"#utility.yul\":8202:8210   */\n      swap6\n      pop\n      pop\n      pop\n      pop\n        /* \"#utility.yul\":7445:8243   */\n      jump\t// out\n        /* \"#utility.yul\":8594:8721   */\n    tag_461:\n        /* \"#utility.yul\":8655:8665   */\n      0x4e487b71\n        /* \"#utility.yul\":8650:8653   */\n      0xe0\n        /* \"#utility.yul\":8646:8666   */\n      shl\n        /* \"#utility.yul\":8643:8644   */\n      0x00\n        /* \"#utility.yul\":8636:8667   */\n      mstore\n        /* \"#utility.yul\":8686:8690   */\n      0x11\n        /* \"#utility.yul\":8683:8684   */\n      0x04\n        /* \"#utility.yul\":8676:8691   */\n      mstore\n        /* \"#utility.yul\":8710:8714   */\n      0x24\n        /* \"#utility.yul\":8707:8708   */\n      0x00\n        /* \"#utility.yul\":8700:8715   */\n      revert\n        /* \"#utility.yul\":8726:8854   */\n    tag_145:\n        /* \"#utility.yul\":8793:8802   */\n      dup2\n      dup2\n      sub\n        /* \"#utility.yul\":8814:8825   */\n      dup2\n      dup2\n      gt\n        /* \"#utility.yul\":8811:8848   */\n      iszero\n      tag_510\n      jumpi\n        /* \"#utility.yul\":8828:8846   */\n      tag_510\n      tag_461\n      jump\t// in\n        /* \"#utility.yul\":9200:9536   */\n    tag_159:\n        /* \"#utility.yul\":9402:9404   */\n      0x20\n        /* \"#utility.yul\":9384:9405   */\n      dup1\n      dup3\n      mstore\n        /* \"#utility.yul\":9441:9443   */\n      0x0c\n        /* \"#utility.yul\":9421:9439   */\n      swap1\n      dup3\n      add\n        /* \"#utility.yul\":9414:9444   */\n      mstore\n      shl(0xa0, 0x5a65726f2061646472657373)\n        /* \"#utility.yul\":9475:9477   */\n      0x40\n        /* \"#utility.yul\":9460:9478   */\n      dup3\n      add\n        /* \"#utility.yul\":9453:9495   */\n      mstore\n        /* \"#utility.yul\":9527:9529   */\n      0x60\n        /* \"#utility.yul\":9512:9530   */\n      add\n      swap1\n        /* \"#utility.yul\":9200:9536   */\n      jump\t// out\n        /* \"#utility.yul\":9541:9668   */\n    tag_164:\n        /* \"#utility.yul\":9602:9612   */\n      0x4e487b71\n        /* \"#utility.yul\":9597:9600   */\n      0xe0\n        /* \"#utility.yul\":9593:9613   */\n      shl\n        /* \"#utility.yul\":9590:9591   */\n      0x00\n        /* \"#utility.yul\":9583:9614   */\n      mstore\n        /* \"#utility.yul\":9633:9637   */\n      0x32\n        /* \"#utility.yul\":9630:9631   */\n      0x04\n        /* \"#utility.yul\":9623:9638   */\n      mstore\n        /* \"#utility.yul\":9657:9661   */\n      0x24\n        /* \"#utility.yul\":9654:9655   */\n      0x00\n        /* \"#utility.yul\":9647:9662   */\n      revert\n        /* \"#utility.yul\":9673:10003   */\n    tag_168:\n        /* \"#utility.yul\":9875:9877   */\n      0x20\n        /* \"#utility.yul\":9857:9878   */\n      dup1\n      dup3\n      mstore\n        /* \"#utility.yul\":9914:9915   */\n      0x07\n        /* \"#utility.yul\":9894:9912   */\n      swap1\n      dup3\n      add\n        /* \"#utility.yul\":9887:9916   */\n      mstore\n      shl(0xca, 0x14d95d1d1b1959)\n        /* \"#utility.yul\":9947:9949   */\n      0x40\n        /* \"#utility.yul\":9932:9950   */\n      dup3\n      add\n        /* \"#utility.yul\":9925:9962   */\n      mstore\n        /* \"#utility.yul\":9994:9996   */\n      0x60\n        /* \"#utility.yul\":9979:9997   */\n      add\n      swap1\n        /* \"#utility.yul\":9673:10003   */\n      jump\t// out\n        /* \"#utility.yul\":13604:13729   */\n    tag_243:\n        /* \"#utility.yul\":13669:13678   */\n      dup1\n      dup3\n      add\n        /* \"#utility.yul\":13690:13700   */\n      dup1\n      dup3\n      gt\n        /* \"#utility.yul\":13687:13723   */\n      iszero\n      tag_510\n      jumpi\n        /* \"#utility.yul\":13703:13721   */\n      tag_510\n      tag_461\n      jump\t// in\n        /* \"#utility.yul\":15153:15675   */\n    tag_319:\n        /* \"#utility.yul\":15231:15235   */\n      0x00\n        /* \"#utility.yul\":15237:15243   */\n      dup1\n        /* \"#utility.yul\":15297:15308   */\n      dup4\n        /* \"#utility.yul\":15284:15309   */\n      calldataload\n        /* \"#utility.yul\":15391:15393   */\n      0x1e\n        /* \"#utility.yul\":15387:15394   */\n      not\n        /* \"#utility.yul\":15376:15384   */\n      dup5\n        /* \"#utility.yul\":15360:15374   */\n      calldatasize\n        /* \"#utility.yul\":15356:15385   */\n      sub\n        /* \"#utility.yul\":15352:15395   */\n      add\n        /* \"#utility.yul\":15332:15350   */\n      dup2\n        /* \"#utility.yul\":15328:15396   */\n      slt\n        /* \"#utility.yul\":15318:15414   */\n      tag_554\n      jumpi\n        /* \"#utility.yul\":15410:15411   */\n      0x00\n        /* \"#utility.yul\":15407:15408   */\n      dup1\n        /* \"#utility.yul\":15400:15412   */\n      revert\n        /* \"#utility.yul\":15318:15414   */\n    tag_554:\n        /* \"#utility.yul\":15437:15470   */\n      dup4\n      add\n        /* \"#utility.yul\":15489:15509   */\n      dup1\n      calldataload\n      swap2\n      pop\n        /* \"#utility.yul\":15532:15550   */\n      0xffffffffffffffff\n        /* \"#utility.yul\":15521:15551   */\n      dup3\n      gt\n        /* \"#utility.yul\":15518:15568   */\n      iszero\n      tag_555\n      jumpi\n        /* \"#utility.yul\":15564:15565   */\n      0x00\n        /* \"#utility.yul\":15561:15562   */\n      dup1\n        /* \"#utility.yul\":15554:15566   */\n      revert\n        /* \"#utility.yul\":15518:15568   */\n    tag_555:\n        /* \"#utility.yul\":15597:15601   */\n      0x20\n        /* \"#utility.yul\":15585:15602   */\n      add\n      swap2\n      pop\n        /* \"#utility.yul\":15628:15642   */\n      calldatasize\n        /* \"#utility.yul\":15624:15651   */\n      dup2\n      swap1\n      sub\n        /* \"#utility.yul\":15614:15652   */\n      dup3\n      sgt\n        /* \"#utility.yul\":15611:15669   */\n      iszero\n      tag_520\n      jumpi\n        /* \"#utility.yul\":15665:15666   */\n      0x00\n        /* \"#utility.yul\":15662:15663   */\n      dup1\n        /* \"#utility.yul\":15655:15667   */\n      revert\n        /* \"#utility.yul\":15680:15860   */\n    tag_328:\n        /* \"#utility.yul\":15736:15742   */\n      0x00\n        /* \"#utility.yul\":15789:15791   */\n      0x20\n        /* \"#utility.yul\":15777:15786   */\n      dup3\n        /* \"#utility.yul\":15768:15775   */\n      dup5\n        /* \"#utility.yul\":15764:15787   */\n      sub\n        /* \"#utility.yul\":15760:15792   */\n      slt\n        /* \"#utility.yul\":15757:15809   */\n      iszero\n      tag_558\n      jumpi\n        /* \"#utility.yul\":15805:15806   */\n      0x00\n        /* \"#utility.yul\":15802:15803   */\n      dup1\n        /* \"#utility.yul\":15795:15807   */\n      revert\n        /* \"#utility.yul\":15757:15809   */\n    tag_558:\n        /* \"#utility.yul\":15828:15854   */\n      tag_473\n        /* \"#utility.yul\":15844:15853   */\n      dup3\n        /* \"#utility.yul\":15828:15854   */\n      tag_458\n      jump\t// in\n        /* \"#utility.yul\":16245:16413   */\n    tag_339:\n        /* \"#utility.yul\":16318:16327   */\n      dup1\n      dup3\n      mul\n        /* \"#utility.yul\":16349:16358   */\n      dup2\n      iszero\n        /* \"#utility.yul\":16366:16381   */\n      dup3\n      dup3\n      div\n        /* \"#utility.yul\":16360:16382   */\n      dup5\n      eq\n        /* \"#utility.yul\":16346:16383   */\n      or\n        /* \"#utility.yul\":16336:16407   */\n      tag_510\n      jumpi\n        /* \"#utility.yul\":16387:16405   */\n      tag_510\n      tag_461\n      jump\t// in\n        /* \"#utility.yul\":16418:16635   */\n    tag_343:\n        /* \"#utility.yul\":16458:16459   */\n      0x00\n        /* \"#utility.yul\":16484:16485   */\n      dup3\n        /* \"#utility.yul\":16474:16606   */\n      tag_565\n      jumpi\n        /* \"#utility.yul\":16528:16538   */\n      0x4e487b71\n        /* \"#utility.yul\":16523:16526   */\n      0xe0\n        /* \"#utility.yul\":16519:16539   */\n      shl\n        /* \"#utility.yul\":16516:16517   */\n      0x00\n        /* \"#utility.yul\":16509:16540   */\n      mstore\n        /* \"#utility.yul\":16563:16567   */\n      0x12\n        /* \"#utility.yul\":16560:16561   */\n      0x04\n        /* \"#utility.yul\":16553:16568   */\n      mstore\n        /* \"#utility.yul\":16591:16595   */\n      0x24\n        /* \"#utility.yul\":16588:16589   */\n      0x00\n        /* \"#utility.yul\":16581:16596   */\n      revert\n        /* \"#utility.yul\":16474:16606   */\n    tag_565:\n      pop\n        /* \"#utility.yul\":16620:16629   */\n      div\n      swap1\n        /* \"#utility.yul\":16418:16635   */\n      jump\t// out\n        /* \"#utility.yul\":16640:17254   */\n    tag_378:\n        /* \"#utility.yul\":16811:16813   */\n      0x40\n        /* \"#utility.yul\":16800:16809   */\n      dup2\n        /* \"#utility.yul\":16793:16814   */\n      mstore\n        /* \"#utility.yul\":16774:16778   */\n      0x00\n        /* \"#utility.yul\":16843:16849   */\n      dup4\n        /* \"#utility.yul\":16837:16850   */\n      mload\n        /* \"#utility.yul\":16886:16892   */\n      dup1\n        /* \"#utility.yul\":16881:16883   */\n      0x40\n        /* \"#utility.yul\":16870:16879   */\n      dup5\n        /* \"#utility.yul\":16866:16884   */\n      add\n        /* \"#utility.yul\":16859:16893   */\n      mstore\n        /* \"#utility.yul\":16911:16912   */\n      0x00\n        /* \"#utility.yul\":16921:17065   */\n    tag_567:\n        /* \"#utility.yul\":16935:16941   */\n      dup2\n        /* \"#utility.yul\":16932:16933   */\n      dup2\n        /* \"#utility.yul\":16929:16942   */\n      lt\n        /* \"#utility.yul\":16921:17065   */\n      iszero\n      tag_569\n      jumpi\n        /* \"#utility.yul\":17048:17052   */\n      0x20\n        /* \"#utility.yul\":17032:17046   */\n      dup2\n      dup8\n      add\n        /* \"#utility.yul\":17028:17053   */\n      dup2\n      add\n        /* \"#utility.yul\":17022:17054   */\n      mload\n        /* \"#utility.yul\":17017:17019   */\n      0x60\n        /* \"#utility.yul\":16998:17015   */\n      dup7\n      dup5\n      add\n        /* \"#utility.yul\":16994:17020   */\n      add\n        /* \"#utility.yul\":16987:17055   */\n      mstore\n        /* \"#utility.yul\":16950:16962   */\n      add\n        /* \"#utility.yul\":16921:17065   */\n      jump(tag_567)\n    tag_569:\n        /* \"#utility.yul\":16925:16928   */\n      pop\n        /* \"#utility.yul\":17114:17115   */\n      0x00\n        /* \"#utility.yul\":17109:17111   */\n      0x60\n        /* \"#utility.yul\":17100:17106   */\n      dup3\n        /* \"#utility.yul\":17089:17098   */\n      dup6\n        /* \"#utility.yul\":17085:17107   */\n      add\n        /* \"#utility.yul\":17081:17112   */\n      add\n        /* \"#utility.yul\":17074:17116   */\n      mstore\n        /* \"#utility.yul\":17184:17186   */\n      0x60\n        /* \"#utility.yul\":17177:17179   */\n      0x1f\n        /* \"#utility.yul\":17173:17180   */\n      not\n        /* \"#utility.yul\":17168:17170   */\n      0x1f\n        /* \"#utility.yul\":17160:17166   */\n      dup4\n        /* \"#utility.yul\":17156:17171   */\n      add\n        /* \"#utility.yul\":17152:17181   */\n      and\n        /* \"#utility.yul\":17141:17150   */\n      dup5\n        /* \"#utility.yul\":17137:17182   */\n      add\n        /* \"#utility.yul\":17133:17187   */\n      add\n        /* \"#utility.yul\":17125:17187   */\n      swap2\n      pop\n      pop\n        /* \"#utility.yul\":17239:17245   */\n      dup3\n        /* \"#utility.yul\":17232:17246   */\n      iszero\n        /* \"#utility.yul\":17225:17247   */\n      iszero\n        /* \"#utility.yul\":17218:17222   */\n      0x20\n        /* \"#utility.yul\":17207:17216   */\n      dup4\n        /* \"#utility.yul\":17203:17223   */\n      add\n        /* \"#utility.yul\":17196:17248   */\n      mstore\n        /* \"#utility.yul\":16640:17254   */\n      swap4\n      swap3\n      pop\n      pop\n      pop\n      jump\t// out\n        /* \"#utility.yul\":17538:17809   */\n    tag_393:\n        /* \"#utility.yul\":17721:17727   */\n      dup2\n        /* \"#utility.yul\":17713:17719   */\n      dup4\n        /* \"#utility.yul\":17708:17711   */\n      dup3\n        /* \"#utility.yul\":17695:17728   */\n      calldatacopy\n        /* \"#utility.yul\":17677:17680   */\n      0x00\n        /* \"#utility.yul\":17747:17763   */\n      swap2\n      add\n        /* \"#utility.yul\":17772:17785   */\n      swap1\n      dup2\n      mstore\n        /* \"#utility.yul\":17747:17763   */\n      swap2\n        /* \"#utility.yul\":17538:17809   */\n      swap1\n      pop\n      jump\t// out\n        /* \"#utility.yul\":17814:17949   */\n    tag_411:\n        /* \"#utility.yul\":17853:17856   */\n      0x00\n        /* \"#utility.yul\":17874:17891   */\n      0x01\n      dup3\n      add\n        /* \"#utility.yul\":17871:17914   */\n      tag_574\n      jumpi\n        /* \"#utility.yul\":17894:17912   */\n      tag_574\n      tag_461\n      jump\t// in\n    tag_574:\n      pop\n        /* \"#utility.yul\":17941:17942   */\n      0x01\n        /* \"#utility.yul\":17930:17943   */\n      add\n      swap1\n        /* \"#utility.yul\":17814:17949   */\n      jump\t// out\n        /* \"#utility.yul\":18293:18544   */\n    tag_428:\n        /* \"#utility.yul\":18363:18369   */\n      0x00\n        /* \"#utility.yul\":18416:18418   */\n      0x20\n        /* \"#utility.yul\":18404:18413   */\n      dup3\n        /* \"#utility.yul\":18395:18402   */\n      dup5\n        /* \"#utility.yul\":18391:18414   */\n      sub\n        /* \"#utility.yul\":18387:18419   */\n      slt\n        /* \"#utility.yul\":18384:18436   */\n      iszero\n      tag_577\n      jumpi\n        /* \"#utility.yul\":18432:18433   */\n      0x00\n        /* \"#utility.yul\":18429:18430   */\n      dup1\n        /* \"#utility.yul\":18422:18434   */\n      revert\n        /* \"#utility.yul\":18384:18436   */\n    tag_577:\n        /* \"#utility.yul\":18464:18473   */\n      dup2\n        /* \"#utility.yul\":18458:18474   */\n      mload\n        /* \"#utility.yul\":18483:18514   */\n      tag_473\n        /* \"#utility.yul\":18508:18513   */\n      dup2\n        /* \"#utility.yul\":18483:18514   */\n      tag_456\n      jump\t// in\n\n    auxdata: 0xa2646970667358221220304151cfb2c05a51d8f851fd14b3e18c4c93d626e9694e16872640b12d1f75b364736f6c63430008180033\n}\n",
				"bytecode": {
					"linkReferences": {},
					"object": "60806040523480156200001157600080fd5b50600180546001600160a01b031916331790556200002e62000104565b6040805180820182526009815268086dee4ca86d8c2e6d60bb1b6020918201528151808301835260018152603160f81b9082015281517f8b73c3c69bb8fe3d512ecc4cf759cc79239f7b179b0ffacaa9a75d522b39400f818301527f0c679178cea08b1ad1ee3cb6425bc9132165f9002dd9b983dbbc3e17f33dbc13818401527fc89efdaa54c0f20c7adf612882df0950f5a951637e0307cdcb4c672f298b8bc660608201524660808201523060a0808301919091528351808303909101815260c0909101909252815191012060025562000275565b60408051808201909152600481526311dbdb1960e21b60208201526200012c906001620001b6565b60408051808201909152600681526529b4b63b32b960d11b602082015262000156906001620001b6565b60408051808201909152600d81526c2b32b93230b73a1023b932b2b760991b602082015262000187906001620001b6565b604080518082019091526009815268149bdcd94811dbdb1960ba1b6020820152620001b4906001620001b6565b565b8151602080840191909120600081815291829052604091829020805460ff191684151517905590517f71597d70b120b69b2ed3763b127f0f73d5475cd67f32065088360e0586a8b250906200020f90859085906200021c565b60405180910390a1505050565b604081526000835180604084015260005b818110156200024c57602081870181015160608684010152016200022d565b506000606082850101526060601f19601f83011684010191505082151560208301529392505050565b61241880620002856000396000f3fe608060405234801561001057600080fd5b50600436106101a95760003560e01c806359927044116100f9578063b710c52c11610097578063f013035c11610071578063f013035c14610437578063f2fde38b1461044a578063f63d71e81461045d578063f969e5921461047057600080fd5b8063b710c52c146103fe578063d20fd07014610411578063da6636cc1461042457600080fd5b80638a75233c116100d35780638a75233c146103b25780638da5cb5b146103c5578063a8a6196f146103d8578063ac952671146103eb57600080fd5b806359927044146103795780636093ae621461038c57806378150b061461039f57600080fd5b806320eba3f2116101665780633644e515116101405780633644e515146102de57806337479beb146102e75780634c7b07541461030e5780634e714ac31461034f57600080fd5b806320eba3f2146102ba57806326232a2e146102c2578063312d7bbc146102cb57600080fd5b806303b55dac146101ae578063117a5b90146101c357806312e8e2c31461024957806314f8fb9b1461025c5780631525ff7d1461028f57806317e931cf146102a2575b600080fd5b6101c16101bc366004611e27565b610483565b005b6101d66101d1366004611e5c565b610713565b604080516001600160a01b039d8e1681529b8d1660208d015299909b16988a01989098526060890196909652608088019490945260a0870192909252151560c0860152151560e0850152610100840152610120830152610140820152901515610160820152610180015b60405180910390f35b6101c1610257366004611e5c565b610799565b61027f61026a366004611e75565b60046020526000908152604090205460ff1681565b6040519015158152602001610240565b6101c161029d366004611e75565b61080a565b6102ac6206978081565b604051908152602001610240565b6003546102ac565b6102ac60075481565b6101c16102d9366004611e5c565b6108b7565b6102ac60025481565b6102ac7ff9a4bb626f7677582ca1a01dcf5e2aa8f3de98d999adc0598509571b99fe8adb81565b61033761031c366004611e5c565b6005602052600090815260409020546001600160a01b031681565b6040516001600160a01b039091168152602001610240565b61027f61035d366004611eaf565b8051602091820120600090815290819052604090205460ff1690565b600654610337906001600160a01b031681565b6101c161039a366004611f75565b610a33565b6101c16103ad366004611ff6565b610ac6565b6101c16103c0366004611e5c565b610b1c565b600154610337906001600160a01b031681565b6101c16103e636600461202b565b610cc7565b6101c16103f936600461207a565b610ec7565b6101c161040c36600461209c565b610fc6565b6101c161041f366004611e75565b611115565b6101c16104323660046120e3565b6111c2565b600854610337906001600160a01b031681565b6101c1610458366004611e75565b6113b7565b6101c161046b366004611e5c565b611464565b6101c161047e3660046121a5565b611570565b6001600160a01b03831660009081526004602052604090205460ff166104e45760405162461bcd60e51b8152602060048201526011602482015270115490cc8c081b9bdd08185b1b1bddd959607a1b60448201526064015b60405180910390fd5b6104f96001600160a01b0384163330856116a8565b6003604051806101800160405280336001600160a01b0316815260200160006001600160a01b03168152602001856001600160a01b031681526020018481526020018381526020016000801b815260200160001515815260200160001515815260200142815260200160008152602001600081526020016000151581525090806001815401808255809150506001900390600052602060002090600b020160009091909190915060008201518160000160006101000a8154816001600160a01b0302191690836001600160a01b0316021790555060208201518160010160006101000a8154816001600160a01b0302191690836001600160a01b0316021790555060408201518160020160006101000a8154816001600160a01b0302191690836001600160a01b03160217905550606082015181600301556080820151816004015560a0820151816005015560c08201518160060160006101000a81548160ff02191690831515021790555060e08201518160060160016101000a81548160ff02191690831515021790555061010082015181600701556101208201518160080155610140820151816009015561016082015181600a0160006101000a81548160ff0219169083151502179055505050336001600160a01b031660016003805490506106e59190612227565b6040517fc3e0f84839dc888c892a013d10c8f9d6dc05a21a879d0ce468ca558013e9121c90600090a3505050565b6003818154811061072357600080fd5b60009182526020909120600b9091020180546001820154600283015460038401546004850154600586015460068701546007880154600889015460098a0154600a909a01546001600160a01b03998a169b5097891699989096169794969395929460ff808416956101009094048116949293168c565b6001546001600160a01b031633146107c4576040516330cd747160e01b815260040160405180910390fd5b6103e88111156108055760405162461bcd60e51b815260206004820152600c60248201526b08ccaca40e8dede40d0d2ced60a31b60448201526064016104db565b600755565b6001546001600160a01b03163314610835576040516330cd747160e01b815260040160405180910390fd5b6001600160a01b03811661085b5760405162461bcd60e51b81526004016104db9061223a565b6006546040516001600160a01b038084169216907fd9a2a08302ed3220f4e646ff99d6780d87e27baddf1af05679dc930ce811309590600090a3600680546001600160a01b0319166001600160a01b0392909216919091179055565b6000600382815481106108cc576108cc612260565b60009182526020909120600b90910201600a81015490915060ff16156109045760405162461bcd60e51b81526004016104db90612276565b80600901544211156109b657600681015460ff16801561092e57506006810154610100900460ff16155b1561094d5780546109499083906001600160a01b0316611715565b5050565b6006810154610100900460ff16801561096b5750600681015460ff16155b156109895760018101546109499083906001600160a01b0316611715565b600681015460ff161580156109a857506006810154610100900460ff16155b156109b65761094982611968565b600681015460ff1680156109d357506006810154610100900460ff165b610a105760405162461bcd60e51b815260206004820152600e60248201526d52657665616c2070656e64696e6760901b60448201526064016104db565b6000828152600560205260409020546109499083906001600160a01b0316611715565b6001546001600160a01b03163314610a5e576040516330cd747160e01b815260040160405180910390fd5b6000829003610a8057604051634b78778d60e11b815260040160405180910390fd5b610ac183838080601f0160208091040260200160405190810160405280939291908181526020018383808284376000920191909152508592506119ea915050565b505050565b6001546001600160a01b03163314610af1576040516330cd747160e01b815260040160405180910390fd5b6001600160a01b03919091166000908152600460205260409020805460ff1916911515919091179055565b600060038281548110610b3157610b31612260565b60009182526020909120600b90910201600a81015490915060ff1615610b905760405162461bcd60e51b815260206004820152601460248201527311d85b5948185b1c9958591e481cd95d1d1b195960621b60448201526064016104db565b80546001600160a01b03163314610be95760405162461bcd60e51b815260206004820152601760248201527f4f6e6c792063726561746f722063616e2063616e63656c00000000000000000060448201526064016104db565b60018101546001600160a01b031615610c505760405162461bcd60e51b815260206004820152602360248201527f47616d6520616c7265616479206a6f696e6564202d2063616e6e6f742063616e60448201526218d95b60ea1b60648201526084016104db565b600a8101805460ff19166001179055600381015415610c8d57805460038201546002830154610c8d926001600160a01b0391821692911690611a4e565b6040516000815282907ff27faae2acd1ebca672f8ca0d896f3e0eb13164004932b3fbcfc2547167c8bb79060200160405180910390a25050565b600060038681548110610cdc57610cdc612260565b60009182526020808320600254604080517ff9a4bb626f7677582ca1a01dcf5e2aa8f3de98d999adc0598509571b99fe8adb818601528082018d905260608082018d905282518083039091018152608082019092528151919094012061190160f01b60a085015260a284019190915260c2830152600b92909202909101925060e20160408051601f198184030181528282528051602091820120600080855291840180845281905260ff89169284019290925260608301879052608083018690529092509060019060a0016020604051602081039080840390855afa158015610dc9573d6000803e3d6000fd5b5050604051601f1901519150506001600160a01b0381163314610e1e5760405162461bcd60e51b815260206004820152600d60248201526c426164207369676e617475726560981b60448201526064016104db565b82546001600160a01b03163303610e3b5760048301879055610e90565b60018301546001600160a01b03163303610e5b5760058301879055610e90565b60405162461bcd60e51b815260206004820152600a6024820152692737ba10383630bcb2b960b11b60448201526064016104db565b604051339089907faf398d01fa79335dfe9179fda01a76ccb61aa3c3e0eb5cb31ede3dcea66af76290600090a35050505050505050565b600060038381548110610edc57610edc612260565b60009182526020909120600b9091020160018101549091506001600160a01b031615610f3b5760405162461bcd60e51b815260206004820152600e60248201526d105b1c9958591e481a9bda5b995960921b60448201526064016104db565b60038101546002820154610f5e916001600160a01b0390911690339030906116a8565b6001810180546001600160a01b03191633179055600581018290554260088201819055610f8f906206978090612297565b6009820155604051339084907f45c4f9cbafe186141862608c493f28b823fde4c2142bedc3f5169961a73fdd2290600090a3505050565b6001546001600160a01b03163314610ff1576040516330cd747160e01b815260040160405180910390fd5b60006003838154811061100657611006612260565b60009182526020909120600b90910201600a81015490915060ff161561103e5760405162461bcd60e51b81526004016104db90612276565b80546001600160a01b0383811691161480611068575060018101546001600160a01b038381169116145b8061107a57506001600160a01b038216155b6110b05760405162461bcd60e51b8152602060048201526007602482015266125b9d985b1a5960ca1b60448201526064016104db565b60008381526005602090815260409182902080546001600160a01b0319166001600160a01b038616908117909155915191825284917f4074d0bff1fdf28c9bc2363d469257d9ff1ab7fc537134b28bb50738757f8eba910160405180910390a2505050565b6001546001600160a01b03163314611140576040516330cd747160e01b815260040160405180910390fd5b6001600160a01b0381166111665760405162461bcd60e51b81526004016104db9061223a565b6008546040516001600160a01b038084169216907fcd6bac6338c08d47ad66538a0d9f493e785bfbd1e175e4c450429e8dfe702c5290600090a3600880546001600160a01b0319166001600160a01b0392909216919091179055565b6000600386815481106111d7576111d7612260565b60009182526020909120600b90910201600a81015490915060ff161561120f5760405162461bcd60e51b81526004016104db90612276565b61121882611a7f565b611223338585611bcc565b6000611230868686611cd9565b82549091506001600160a01b031633036112d757600682015460ff16156112835760405162461bcd60e51b8152602060048201526007602482015266416c726561647960c81b60448201526064016104db565b816004015481146112c35760405162461bcd60e51b815260206004820152600a602482015269109859081c995d99585b60b21b60448201526064016104db565b60068201805460ff19166001179055611381565b60018201546001600160a01b03163303610e5b576006820154610100900460ff161561132f5760405162461bcd60e51b8152602060048201526007602482015266416c726561647960c81b60448201526064016104db565b8160050154811461136f5760405162461bcd60e51b815260206004820152600a602482015269109859081c995d99585b60b21b60448201526064016104db565b60068201805461ff0019166101001790555b604051339088907f6e9dac3f3f833c1d527aa989d3a673884ddc11e31fdccc11ccd8aebf1ae069ac90600090a350505050505050565b6001546001600160a01b031633146113e2576040516330cd747160e01b815260040160405180910390fd5b6001600160a01b0381166114085760405162461bcd60e51b81526004016104db9061223a565b6001546040516001600160a01b038084169216907f8be0079c531659141344cd1fd0a4f28419497f9722a3daafe3b4186f6b6457e090600090a3600180546001600160a01b0319166001600160a01b0392909216919091179055565b6001546001600160a01b0316331461148f576040516330cd747160e01b815260040160405180910390fd5b6000600382815481106114a4576114a4612260565b60009182526020909120600b90910201600a81015490915060ff16156115035760405162461bcd60e51b815260206004820152601460248201527311d85b5948185b1c9958591e481cd95d1d1b195960621b60448201526064016104db565b60018101546001600160a01b031615610c505760405162461bcd60e51b815260206004820152602960248201527f47616d6520616c7265616479206a6f696e6564202d2063616e6e6f7420666f7260448201526818d94818d85b98d95b60ba1b60648201526084016104db565b6001546001600160a01b0316331461159b576040516330cd747160e01b815260040160405180910390fd5b8281146115be576040516001621398b960e31b0319815260040160405180910390fd5b60005b838110156116a1578484828181106115db576115db612260565b90506020028101906115ed91906122aa565b905060000361160f57604051634b78778d60e11b815260040160405180910390fd5b61169985858381811061162457611624612260565b905060200281019061163691906122aa565b8080601f01602080910402602001604051908101604052809392919081815260200183838082843760009201919091525087925086915085905081811061167f5761167f612260565b905060200201602081019061169491906122f1565b6119ea565b6001016115c1565b5050505050565b6040516001600160a01b03848116602483015283811660448301526064820183905261170f9186918216906323b872dd906084015b604051602081830303815290604052915060e01b6020820180516001600160e01b038381831617835250505050611d80565b50505050565b60006003838154811061172a5761172a612260565b600091825260208220600a600b90920201908101805460ff19166001179055600381015490925061175c90600261230c565b9050600081678ac7230489e80000811061188e5761271060075484611781919061230c565b61178b9190612323565b91506117978284612227565b9050811561188e57600060056117ae84600261230c565b6117b89190612323565b9050600060056117c985600261230c565b6117d39190612323565b90506000816117e28487612227565b6117ec9190612227565b905060008311801561180857506006546001600160a01b031615155b1561182c57600654600288015461182c916001600160a01b03918216911685611a4e565b60008211801561184657506008546001600160a01b031615155b1561186a57600854600288015461186a916001600160a01b03918216911684611a4e565b801561188a57600287015461188a906001600160a01b0316600083611a4e565b5050505b6001600160a01b038516156118c15780156118bc5760028401546118bc906001600160a01b03168683611a4e565b611922565b60006118ce600283612323565b855460028701549192506118ef916001600160a01b03908116911683611a4e565b6001850154611920906001600160a01b031661190b8385612227565b60028801546001600160a01b03169190611a4e565b505b6040516001600160a01b038616815286907ff27faae2acd1ebca672f8ca0d896f3e0eb13164004932b3fbcfc2547167c8bb79060200160405180910390a2505050505050565b60006003828154811061197d5761197d612260565b60009182526020909120600a600b90920201908101805460ff191660011790558054600382015460028301549293506119c3926001600160a01b03908116921690611a4e565b600181015460038201546002830154610c8d926001600160a01b0391821692911690611a4e565b8151602080840191909120600081815291829052604091829020805460ff191684151517905590517f71597d70b120b69b2ed3763b127f0f73d5475cd67f32065088360e0586a8b25090611a419085908590612345565b60405180910390a1505050565b6040516001600160a01b03838116602483015260448201839052610ac191859182169063a9059cbb906064016116dd565b611a87611df1565b60005b6003811015611aea57828160038110611aa557611aa5612260565b602002810190611ab591906122aa565b604051611ac392919061239c565b6040518091039020828260038110611add57611add612260565b6020020152600101611a8a565b5060005b6003811015610ac157600080838360038110611b0c57611b0c612260565b6020908102919091015182528101919091526040016000205460ff1615611bc4576000805b6003811015611b8357838360038110611b4c57611b4c612260565b6020020151848260038110611b6357611b63612260565b602002015103611b7b5781611b77816123ac565b9250505b600101611b31565b506001811115611bc25760405162461bcd60e51b815260206004820152600a6024820152690526172697479206475760b41b60448201526064016104db565b505b600101611aee565b60005b600381101561170f57836001600160a01b0316838260038110611bf457611bf4612260565b602002016020810190611c079190611e75565b6001600160a01b0316636352211e848460038110611c2757611c27612260565b60200201356040518263ffffffff1660e01b8152600401611c4a91815260200190565b602060405180830381865afa158015611c67573d6000803e3d6000fd5b505050506040513d601f19601f82011682018060405250810190611c8b91906123c5565b6001600160a01b031614611cd15760405162461bcd60e51b815260206004820152600d60248201526c2737ba1027232a1037bbb732b960991b60448201526064016104db565b600101611bcf565b600083611ce96020850185611e75565b611cf96040860160208701611e75565b611d096060870160408801611e75565b60408051602081810196909652606094851b6bffffffffffffffffffffffff199081168284015293851b841660548201529190931b90911660688201528435607c82015291840135609c83015283013560bc82015260dc016040516020818303038152906040528051906020012090509392505050565b600080602060008451602086016000885af180611da3576040513d6000823e3d81fd5b50506000513d91508115611dbb578060011415611dc8565b6001600160a01b0384163b155b1561170f57604051635274afe760e01b81526001600160a01b03851660048201526024016104db565b60405180606001604052806003906020820280368337509192915050565b6001600160a01b0381168114611e2457600080fd5b50565b600080600060608486031215611e3c57600080fd5b8335611e4781611e0f565b95602085013595506040909401359392505050565b600060208284031215611e6e57600080fd5b5035919050565b600060208284031215611e8757600080fd5b8135611e9281611e0f565b9392505050565b634e487b7160e01b600052604160045260246000fd5b600060208284031215611ec157600080fd5b813567ffffffffffffffff80821115611ed957600080fd5b818401915084601f830112611eed57600080fd5b813581811115611eff57611eff611e99565b604051601f8201601f19908116603f01168101908382118183101715611f2757611f27611e99565b81604052828152876020848701011115611f4057600080fd5b826020860160208301376000928101602001929092525095945050505050565b80358015158114611f7057600080fd5b919050565b600080600060408486031215611f8a57600080fd5b833567ffffffffffffffff80821115611fa257600080fd5b818601915086601f830112611fb657600080fd5b813581811115611fc557600080fd5b876020828501011115611fd757600080fd5b602092830195509350611fed9186019050611f60565b90509250925092565b6000806040838503121561200957600080fd5b823561201481611e0f565b915061202260208401611f60565b90509250929050565b600080600080600060a0868803121561204357600080fd5b8535945060208601359350604086013560ff8116811461206257600080fd5b94979396509394606081013594506080013592915050565b6000806040838503121561208d57600080fd5b50508035926020909101359150565b600080604083850312156120af57600080fd5b8235915060208301356120c181611e0f565b809150509250929050565b80606081018310156120dd57600080fd5b92915050565b600080600080600061012086880312156120fc57600080fd5b853594506020860135935061211487604088016120cc565b92506121238760a088016120cc565b915061010086013567ffffffffffffffff81111561214057600080fd5b61214c888289016120cc565b9150509295509295909350565b60008083601f84011261216b57600080fd5b50813567ffffffffffffffff81111561218357600080fd5b6020830191508360208260051b850101111561219e57600080fd5b9250929050565b600080600080604085870312156121bb57600080fd5b843567ffffffffffffffff808211156121d357600080fd5b6121df88838901612159565b909650945060208701359150808211156121f857600080fd5b5061220587828801612159565b95989497509550505050565b634e487b7160e01b600052601160045260246000fd5b818103818111156120dd576120dd612211565b6020808252600c908201526b5a65726f206164647265737360a01b604082015260600190565b634e487b7160e01b600052603260045260246000fd5b60208082526007908201526614d95d1d1b195960ca1b604082015260600190565b808201808211156120dd576120dd612211565b6000808335601e198436030181126122c157600080fd5b83018035915067ffffffffffffffff8211156122dc57600080fd5b60200191503681900382131561219e57600080fd5b60006020828403121561230357600080fd5b611e9282611f60565b80820281158282048414176120dd576120dd612211565b60008261234057634e487b7160e01b600052601260045260246000fd5b500490565b604081526000835180604084015260005b818110156123735760208187018101516060868401015201612356565b506000606082850101526060601f19601f83011684010191505082151560208301529392505050565b8183823760009101908152919050565b6000600182016123be576123be612211565b5060010190565b6000602082840312156123d757600080fd5b8151611e9281611e0f56fea2646970667358221220304151cfb2c05a51d8f851fd14b3e18c4c93d626e9694e16872640b12d1f75b364736f6c63430008180033",
					"opcodes": "PUSH1 0x80 PUSH1 0x40 MSTORE CALLVALUE DUP1 ISZERO PUSH3 0x11 JUMPI PUSH1 0x0 DUP1 REVERT JUMPDEST POP PUSH1 0x1 DUP1 SLOAD PUSH1 0x1 PUSH1 0x1 PUSH1 0xA0 SHL SUB NOT AND CALLER OR SWAP1 SSTORE PUSH3 0x2E PUSH3 0x104 JUMP JUMPDEST PUSH1 0x40 DUP1 MLOAD DUP1 DUP3 ADD DUP3 MSTORE PUSH1 0x9 DUP2 MSTORE PUSH9 0x86DEE4CA86D8C2E6D PUSH1 0xBB SHL PUSH1 0x20 SWAP2 DUP3 ADD MSTORE DUP2 MLOAD DUP1 DUP4 ADD DUP4 MSTORE PUSH1 0x1 DUP2 MSTORE PUSH1 0x31 PUSH1 0xF8 SHL SWAP1 DUP3 ADD MSTORE DUP2 MLOAD PUSH32 0x8B73C3C69BB8FE3D512ECC4CF759CC79239F7B179B0FFACAA9A75D522B39400F DUP2 DUP4 ADD MSTORE PUSH32 0xC679178CEA08B1AD1EE3CB6425BC9132165F9002DD9B983DBBC3E17F33DBC13 DUP2 DUP5 ADD MSTORE PUSH32 0xC89EFDAA54C0F20C7ADF612882DF0950F5A951637E0307CDCB4C672F298B8BC6 PUSH1 0x60 DUP3 ADD MSTORE CHAINID PUSH1 0x80 DUP3 ADD MSTORE ADDRESS PUSH1 0xA0 DUP1 DUP4 ADD SWAP2 SWAP1 SWAP2 MSTORE DUP4 MLOAD DUP1 DUP4 SUB SWAP1 SWAP2 ADD DUP2 MSTORE PUSH1 0xC0 SWAP1 SWAP2 ADD SWAP1 SWAP3 MSTORE DUP2 MLOAD SWAP2 ADD KECCAK256 PUSH1 0x2 SSTORE PUSH3 0x275 JUMP JUMPDEST PUSH1 0x40 DUP1 MLOAD DUP1 DUP3 ADD SWAP1 SWAP2 MSTORE PUSH1 0x4 DUP2 MSTORE PUSH4 0x11DBDB19 PUSH1 0xE2 SHL PUSH1 0x20 DUP3 ADD MSTORE PUSH3 0x12C SWAP1 PUSH1 0x1 PUSH3 0x1B6 JUMP JUMPDEST PUSH1 0x40 DUP1 MLOAD DUP1 DUP3 ADD SWAP1 SWAP2 MSTORE PUSH1 0x6 DUP2 MSTORE PUSH6 0x29B4B63B32B9 PUSH1 0xD1 SHL PUSH1 0x20 DUP3 ADD MSTORE PUSH3 0x156 SWAP1 PUSH1 0x1 PUSH3 0x1B6 JUMP JUMPDEST PUSH1 0x40 DUP1 MLOAD DUP1 DUP3 ADD SWAP1 SWAP2 MSTORE PUSH1 0xD DUP2 MSTORE PUSH13 0x2B32B93230B73A1023B932B2B7 PUSH1 0x99 SHL PUSH1 0x20 DUP3 ADD MSTORE PUSH3 0x187 SWAP1 PUSH1 0x1 PUSH3 0x1B6 JUMP JUMPDEST PUSH1 0x40 DUP1 MLOAD DUP1 DUP3 ADD SWAP1 SWAP2 MSTORE PUSH1 0x9 DUP2 MSTORE PUSH9 0x149BDCD94811DBDB19 PUSH1 0xBA SHL PUSH1 0x20 DUP3 ADD MSTORE PUSH3 0x1B4 SWAP1 PUSH1 0x1 PUSH3 0x1B6 JUMP JUMPDEST JUMP JUMPDEST DUP2 MLOAD PUSH1 0x20 DUP1 DUP5 ADD SWAP2 SWAP1 SWAP2 KECCAK256 PUSH1 0x0 DUP2 DUP2 MSTORE SWAP2 DUP3 SWAP1 MSTORE PUSH1 0x40 SWAP2 DUP3 SWAP1 KECCAK256 DUP1 SLOAD PUSH1 0xFF NOT AND DUP5 ISZERO ISZERO OR SWAP1 SSTORE SWAP1 MLOAD PUSH32 0x71597D70B120B69B2ED3763B127F0F73D5475CD67F32065088360E0586A8B250 SWAP1 PUSH3 0x20F SWAP1 DUP6 SWAP1 DUP6 SWAP1 PUSH3 0x21C JUMP JUMPDEST PUSH1 0x40 MLOAD DUP1 SWAP2 SUB SWAP1 LOG1 POP POP POP JUMP JUMPDEST PUSH1 0x40 DUP2 MSTORE PUSH1 0x0 DUP4 MLOAD DUP1 PUSH1 0x40 DUP5 ADD MSTORE PUSH1 0x0 JUMPDEST DUP2 DUP2 LT ISZERO PUSH3 0x24C JUMPI PUSH1 0x20 DUP2 DUP8 ADD DUP2 ADD MLOAD PUSH1 0x60 DUP7 DUP5 ADD ADD MSTORE ADD PUSH3 0x22D JUMP JUMPDEST POP PUSH1 0x0 PUSH1 0x60 DUP3 DUP6 ADD ADD MSTORE PUSH1 0x60 PUSH1 0x1F NOT PUSH1 0x1F DUP4 ADD AND DUP5 ADD ADD SWAP2 POP POP DUP3 ISZERO ISZERO PUSH1 0x20 DUP4 ADD MSTORE SWAP4 SWAP3 POP POP POP JUMP JUMPDEST PUSH2 0x2418 DUP1 PUSH3 0x285 PUSH1 0x0 CODECOPY PUSH1 0x0 RETURN INVALID PUSH1 0x80 PUSH1 0x40 MSTORE CALLVALUE DUP1 ISZERO PUSH2 0x10 JUMPI PUSH1 0x0 DUP1 REVERT JUMPDEST POP PUSH1 0x4 CALLDATASIZE LT PUSH2 0x1A9 JUMPI PUSH1 0x0 CALLDATALOAD PUSH1 0xE0 SHR DUP1 PUSH4 0x59927044 GT PUSH2 0xF9 JUMPI DUP1 PUSH4 0xB710C52C GT PUSH2 0x97 JUMPI DUP1 PUSH4 0xF013035C GT PUSH2 0x71 JUMPI DUP1 PUSH4 0xF013035C EQ PUSH2 0x437 JUMPI DUP1 PUSH4 0xF2FDE38B EQ PUSH2 0x44A JUMPI DUP1 PUSH4 0xF63D71E8 EQ PUSH2 0x45D JUMPI DUP1 PUSH4 0xF969E592 EQ PUSH2 0x470 JUMPI PUSH1 0x0 DUP1 REVERT JUMPDEST DUP1 PUSH4 0xB710C52C EQ PUSH2 0x3FE JUMPI DUP1 PUSH4 0xD20FD070 EQ PUSH2 0x411 JUMPI DUP1 PUSH4 0xDA6636CC EQ PUSH2 0x424 JUMPI PUSH1 0x0 DUP1 REVERT JUMPDEST DUP1 PUSH4 0x8A75233C GT PUSH2 0xD3 JUMPI DUP1 PUSH4 0x8A75233C EQ PUSH2 0x3B2 JUMPI DUP1 PUSH4 0x8DA5CB5B EQ PUSH2 0x3C5 JUMPI DUP1 PUSH4 0xA8A6196F EQ PUSH2 0x3D8 JUMPI DUP1 PUSH4 0xAC952671 EQ PUSH2 0x3EB JUMPI PUSH1 0x0 DUP1 REVERT JUMPDEST DUP1 PUSH4 0x59927044 EQ PUSH2 0x379 JUMPI DUP1 PUSH4 0x6093AE62 EQ PUSH2 0x38C JUMPI DUP1 PUSH4 0x78150B06 EQ PUSH2 0x39F JUMPI PUSH1 0x0 DUP1 REVERT JUMPDEST DUP1 PUSH4 0x20EBA3F2 GT PUSH2 0x166 JUMPI DUP1 PUSH4 0x3644E515 GT PUSH2 0x140 JUMPI DUP1 PUSH4 0x3644E515 EQ PUSH2 0x2DE JUMPI DUP1 PUSH4 0x37479BEB EQ PUSH2 0x2E7 JUMPI DUP1 PUSH4 0x4C7B0754 EQ PUSH2 0x30E JUMPI DUP1 PUSH4 0x4E714AC3 EQ PUSH2 0x34F JUMPI PUSH1 0x0 DUP1 REVERT JUMPDEST DUP1 PUSH4 0x20EBA3F2 EQ PUSH2 0x2BA JUMPI DUP1 PUSH4 0x26232A2E EQ PUSH2 0x2C2 JUMPI DUP1 PUSH4 0x312D7BBC EQ PUSH2 0x2CB JUMPI PUSH1 0x0 DUP1 REVERT JUMPDEST DUP1 PUSH4 0x3B55DAC EQ PUSH2 0x1AE JUMPI DUP1 PUSH4 0x117A5B90 EQ PUSH2 0x1C3 JUMPI DUP1 PUSH4 0x12E8E2C3 EQ PUSH2 0x249 JUMPI DUP1 PUSH4 0x14F8FB9B EQ PUSH2 0x25C JUMPI DUP1 PUSH4 0x1525FF7D EQ PUSH2 0x28F JUMPI DUP1 PUSH4 0x17E931CF EQ PUSH2 0x2A2 JUMPI JUMPDEST PUSH1 0x0 DUP1 REVERT JUMPDEST PUSH2 0x1C1 PUSH2 0x1BC CALLDATASIZE PUSH1 0x4 PUSH2 0x1E27 JUMP JUMPDEST PUSH2 0x483 JUMP JUMPDEST STOP JUMPDEST PUSH2 0x1D6 PUSH2 0x1D1 CALLDATASIZE PUSH1 0x4 PUSH2 0x1E5C JUMP JUMPDEST PUSH2 0x713 JUMP JUMPDEST PUSH1 0x40 DUP1 MLOAD PUSH1 0x1 PUSH1 0x1 PUSH1 0xA0 SHL SUB SWAP14 DUP15 AND DUP2 MSTORE SWAP12 DUP14 AND PUSH1 0x20 DUP14 ADD MSTORE SWAP10 SWAP1 SWAP12 AND SWAP9 DUP11 ADD SWAP9 SWAP1 SWAP9 MSTORE PUSH1 0x60 DUP10 ADD SWAP7 SWAP1 SWAP7 MSTORE PUSH1 0x80 DUP9 ADD SWAP5 SWAP1 SWAP5 MSTORE PUSH1 0xA0 DUP8 ADD SWAP3 SWAP1 SWAP3 MSTORE ISZERO ISZERO PUSH1 0xC0 DUP7 ADD MSTORE ISZERO ISZERO PUSH1 0xE0 DUP6 ADD MSTORE PUSH2 0x100 DUP5 ADD MSTORE PUSH2 0x120 DUP4 ADD MSTORE PUSH2 0x140 DUP3 ADD MSTORE SWAP1 ISZERO ISZERO PUSH2 0x160 DUP3 ADD MSTORE PUSH2 0x180 ADD JUMPDEST PUSH1 0x40 MLOAD DUP1 SWAP2 SUB SWAP1 RETURN JUMPDEST PUSH2 0x1C1 PUSH2 0x257 CALLDATASIZE PUSH1 0x4 PUSH2 0x1E5C JUMP JUMPDEST PUSH2 0x799 JUMP JUMPDEST PUSH2 0x27F PUSH2 0x26A CALLDATASIZE PUSH1 0x4 PUSH2 0x1E75 JUMP JUMPDEST PUSH1 0x4 PUSH1 0x20 MSTORE PUSH1 0x0 SWAP1 DUP2 MSTORE PUSH1 0x40 SWAP1 KECCAK256 SLOAD PUSH1 0xFF AND DUP2 JUMP JUMPDEST PUSH1 0x40 MLOAD SWAP1 ISZERO ISZERO DUP2 MSTORE PUSH1 0x20 ADD PUSH2 0x240 JUMP JUMPDEST PUSH2 0x1C1 PUSH2 0x29D CALLDATASIZE PUSH1 0x4 PUSH2 0x1E75 JUMP JUMPDEST PUSH2 0x80A JUMP JUMPDEST PUSH2 0x2AC PUSH3 0x69780 DUP2 JUMP JUMPDEST PUSH1 0x40 MLOAD SWAP1 DUP2 MSTORE PUSH1 0x20 ADD PUSH2 0x240 JUMP JUMPDEST PUSH1 0x3 SLOAD PUSH2 0x2AC JUMP JUMPDEST PUSH2 0x2AC PUSH1 0x7 SLOAD DUP2 JUMP JUMPDEST PUSH2 0x1C1 PUSH2 0x2D9 CALLDATASIZE PUSH1 0x4 PUSH2 0x1E5C JUMP JUMPDEST PUSH2 0x8B7 JUMP JUMPDEST PUSH2 0x2AC PUSH1 0x2 SLOAD DUP2 JUMP JUMPDEST PUSH2 0x2AC PUSH32 0xF9A4BB626F7677582CA1A01DCF5E2AA8F3DE98D999ADC0598509571B99FE8ADB DUP2 JUMP JUMPDEST PUSH2 0x337 PUSH2 0x31C CALLDATASIZE PUSH1 0x4 PUSH2 0x1E5C JUMP JUMPDEST PUSH1 0x5 PUSH1 0x20 MSTORE PUSH1 0x0 SWAP1 DUP2 MSTORE PUSH1 0x40 SWAP1 KECCAK256 SLOAD PUSH1 0x1 PUSH1 0x1 PUSH1 0xA0 SHL SUB AND DUP2 JUMP JUMPDEST PUSH1 0x40 MLOAD PUSH1 0x1 PUSH1 0x1 PUSH1 0xA0 SHL SUB SWAP1 SWAP2 AND DUP2 MSTORE PUSH1 0x20 ADD PUSH2 0x240 JUMP JUMPDEST PUSH2 0x27F PUSH2 0x35D CALLDATASIZE PUSH1 0x4 PUSH2 0x1EAF JUMP JUMPDEST DUP1 MLOAD PUSH1 0x20 SWAP2 DUP3 ADD KECCAK256 PUSH1 0x0 SWAP1 DUP2 MSTORE SWAP1 DUP2 SWAP1 MSTORE PUSH1 0x40 SWAP1 KECCAK256 SLOAD PUSH1 0xFF AND SWAP1 JUMP JUMPDEST PUSH1 0x6 SLOAD PUSH2 0x337 SWAP1 PUSH1 0x1 PUSH1 0x1 PUSH1 0xA0 SHL SUB AND DUP2 JUMP JUMPDEST PUSH2 0x1C1 PUSH2 0x39A CALLDATASIZE PUSH1 0x4 PUSH2 0x1F75 JUMP JUMPDEST PUSH2 0xA33 JUMP JUMPDEST PUSH2 0x1C1 PUSH2 0x3AD CALLDATASIZE PUSH1 0x4 PUSH2 0x1FF6 JUMP JUMPDEST PUSH2 0xAC6 JUMP JUMPDEST PUSH2 0x1C1 PUSH2 0x3C0 CALLDATASIZE PUSH1 0x4 PUSH2 0x1E5C JUMP JUMPDEST PUSH2 0xB1C JUMP JUMPDEST PUSH1 0x1 SLOAD PUSH2 0x337 SWAP1 PUSH1 0x1 PUSH1 0x1 PUSH1 0xA0 SHL SUB AND DUP2 JUMP JUMPDEST PUSH2 0x1C1 PUSH2 0x3E6 CALLDATASIZE PUSH1 0x4 PUSH2 0x202B JUMP JUMPDEST PUSH2 0xCC7 JUMP JUMPDEST PUSH2 0x1C1 PUSH2 0x3F9 CALLDATASIZE PUSH1 0x4 PUSH2 0x207A JUMP JUMPDEST PUSH2 0xEC7 JUMP JUMPDEST PUSH2 0x1C1 PUSH2 0x40C CALLDATASIZE PUSH1 0x4 PUSH2 0x209C JUMP JUMPDEST PUSH2 0xFC6 JUMP JUMPDEST PUSH2 0x1C1 PUSH2 0x41F CALLDATASIZE PUSH1 0x4 PUSH2 0x1E75 JUMP JUMPDEST PUSH2 0x1115 JUMP JUMPDEST PUSH2 0x1C1 PUSH2 0x432 CALLDATASIZE PUSH1 0x4 PUSH2 0x20E3 JUMP JUMPDEST PUSH2 0x11C2 JUMP JUMPDEST PUSH1 0x8 SLOAD PUSH2 0x337 SWAP1 PUSH1 0x1 PUSH1 0x1 PUSH1 0xA0 SHL SUB AND DUP2 JUMP JUMPDEST PUSH2 0x1C1 PUSH2 0x458 CALLDATASIZE PUSH1 0x4 PUSH2 0x1E75 JUMP JUMPDEST PUSH2 0x13B7 JUMP JUMPDEST PUSH2 0x1C1 PUSH2 0x46B CALLDATASIZE PUSH1 0x4 PUSH2 0x1E5C JUMP JUMPDEST PUSH2 0x1464 JUMP JUMPDEST PUSH2 0x1C1 PUSH2 0x47E CALLDATASIZE PUSH1 0x4 PUSH2 0x21A5 JUMP JUMPDEST PUSH2 0x1570 JUMP JUMPDEST PUSH1 0x1 PUSH1 0x1 PUSH1 0xA0 SHL SUB DUP4 AND PUSH1 0x0 SWAP1 DUP2 MSTORE PUSH1 0x4 PUSH1 0x20 MSTORE PUSH1 0x40 SWAP1 KECCAK256 SLOAD PUSH1 0xFF AND PUSH2 0x4E4 JUMPI PUSH1 0x40 MLOAD PUSH3 0x461BCD PUSH1 0xE5 SHL DUP2 MSTORE PUSH1 0x20 PUSH1 0x4 DUP3 ADD MSTORE PUSH1 0x11 PUSH1 0x24 DUP3 ADD MSTORE PUSH17 0x115490CC8C081B9BDD08185B1B1BDDD959 PUSH1 0x7A SHL PUSH1 0x44 DUP3 ADD MSTORE PUSH1 0x64 ADD JUMPDEST PUSH1 0x40 MLOAD DUP1 SWAP2 SUB SWAP1 REVERT JUMPDEST PUSH2 0x4F9 PUSH1 0x1 PUSH1 0x1 PUSH1 0xA0 SHL SUB DUP5 AND CALLER ADDRESS DUP6 PUSH2 0x16A8 JUMP JUMPDEST PUSH1 0x3 PUSH1 0x40 MLOAD DUP1 PUSH2 0x180 ADD PUSH1 0x40 MSTORE DUP1 CALLER PUSH1 0x1 PUSH1 0x1 PUSH1 0xA0 SHL SUB AND DUP2 MSTORE PUSH1 0x20 ADD PUSH1 0x0 PUSH1 0x1 PUSH1 0x1 PUSH1 0xA0 SHL SUB AND DUP2 MSTORE PUSH1 0x20 ADD DUP6 PUSH1 0x1 PUSH1 0x1 PUSH1 0xA0 SHL SUB AND DUP2 MSTORE PUSH1 0x20 ADD DUP5 DUP2 MSTORE PUSH1 0x20 ADD DUP4 DUP2 MSTORE PUSH1 0x20 ADD PUSH1 0x0 DUP1 SHL DUP2 MSTORE PUSH1 0x20 ADD PUSH1 0x0 ISZERO ISZERO DUP2 MSTORE PUSH1 0x20 ADD PUSH1 0x0 ISZERO ISZERO DUP2 MSTORE PUSH1 0x20 ADD TIMESTAMP DUP2 MSTORE PUSH1 0x20 ADD PUSH1 0x0 DUP2 MSTORE PUSH1 0x20 ADD PUSH1 0x0 DUP2 MSTORE PUSH1 0x20 ADD PUSH1 0x0 ISZERO ISZERO DUP2 MSTORE POP SWAP1 DUP1 PUSH1 0x1 DUP2 SLOAD ADD DUP1 DUP3 SSTORE DUP1 SWAP2 POP POP PUSH1 0x1 SWAP1 SUB SWAP1 PUSH1 0x0 MSTORE PUSH1 0x20 PUSH1 0x0 KECCAK256 SWAP1 PUSH1 0xB MUL ADD PUSH1 0x0 SWAP1 SWAP2 SWAP1 SWAP2 SWAP1 SWAP2 POP PUSH1 0x0 DUP3 ADD MLOAD DUP2 PUSH1 0x0 ADD PUSH1 0x0 PUSH2 0x100 EXP DUP2 SLOAD DUP2 PUSH1 0x1 PUSH1 0x1 PUSH1 0xA0 SHL SUB MUL NOT AND SWAP1 DUP4 PUSH1 0x1 PUSH1 0x1 PUSH1 0xA0 SHL SUB AND MUL OR SWAP1 SSTORE POP PUSH1 0x20 DUP3 ADD MLOAD DUP2 PUSH1 0x1 ADD PUSH1 0x0 PUSH2 0x100 EXP DUP2 SLOAD DUP2 PUSH1 0x1 PUSH1 0x1 PUSH1 0xA0 SHL SUB MUL NOT AND SWAP1 DUP4 PUSH1 0x1 PUSH1 0x1 PUSH1 0xA0 SHL SUB AND MUL OR SWAP1 SSTORE POP PUSH1 0x40 DUP3 ADD MLOAD DUP2 PUSH1 0x2 ADD PUSH1 0x0 PUSH2 0x100 EXP DUP2 SLOAD DUP2 PUSH1 0x1 PUSH1 0x1 PUSH1 0xA0 SHL SUB MUL NOT AND SWAP1 DUP4 PUSH1 0x1 PUSH1 0x1 PUSH1 0xA0 SHL SUB AND MUL OR SWAP1 SSTORE POP PUSH1 0x60 DUP3 ADD MLOAD DUP2 PUSH1 0x3 ADD SSTORE PUSH1 0x80 DUP3 ADD MLOAD DUP2 PUSH1 0x4 ADD SSTORE PUSH1 0xA0 DUP3 ADD MLOAD DUP2 PUSH1 0x5 ADD SSTORE PUSH1 0xC0 DUP3 ADD MLOAD DUP2 PUSH1 0x6 ADD PUSH1 0x0 PUSH2 0x100 EXP DUP2 SLOAD DUP2 PUSH1 0xFF MUL NOT AND SWAP1 DUP4 ISZERO ISZERO MUL OR SWAP1 SSTORE POP PUSH1 0xE0 DUP3 ADD MLOAD DUP2 PUSH1 0x6 ADD PUSH1 0x1 PUSH2 0x100 EXP DUP2 SLOAD DUP2 PUSH1 0xFF MUL NOT AND SWAP1 DUP4 ISZERO ISZERO MUL OR SWAP1 SSTORE POP PUSH2 0x100 DUP3 ADD MLOAD DUP2 PUSH1 0x7 ADD SSTORE PUSH2 0x120 DUP3 ADD MLOAD DUP2 PUSH1 0x8 ADD SSTORE PUSH2 0x140 DUP3 ADD MLOAD DUP2 PUSH1 0x9 ADD SSTORE PUSH2 0x160 DUP3 ADD MLOAD DUP2 PUSH1 0xA ADD PUSH1 0x0 PUSH2 0x100 EXP DUP2 SLOAD DUP2 PUSH1 0xFF MUL NOT AND SWAP1 DUP4 ISZERO ISZERO MUL OR SWAP1 SSTORE POP POP POP CALLER PUSH1 0x1 PUSH1 0x1 PUSH1 0xA0 SHL SUB AND PUSH1 0x1 PUSH1 0x3 DUP1 SLOAD SWAP1 POP PUSH2 0x6E5 SWAP2 SWAP1 PUSH2 0x2227 JUMP JUMPDEST PUSH1 0x40 MLOAD PUSH32 0xC3E0F84839DC888C892A013D10C8F9D6DC05A21A879D0CE468CA558013E9121C SWAP1 PUSH1 0x0 SWAP1 LOG3 POP POP POP JUMP JUMPDEST PUSH1 0x3 DUP2 DUP2 SLOAD DUP2 LT PUSH2 0x723 JUMPI PUSH1 0x0 DUP1 REVERT JUMPDEST PUSH1 0x0 SWAP2 DUP3 MSTORE PUSH1 0x20 SWAP1 SWAP2 KECCAK256 PUSH1 0xB SWAP1 SWAP2 MUL ADD DUP1 SLOAD PUSH1 0x1 DUP3 ADD SLOAD PUSH1 0x2 DUP4 ADD SLOAD PUSH1 0x3 DUP5 ADD SLOAD PUSH1 0x4 DUP6 ADD SLOAD PUSH1 0x5 DUP7 ADD SLOAD PUSH1 0x6 DUP8 ADD SLOAD PUSH1 0x7 DUP9 ADD SLOAD PUSH1 0x8 DUP10 ADD SLOAD PUSH1 0x9 DUP11 ADD SLOAD PUSH1 0xA SWAP1 SWAP11 ADD SLOAD PUSH1 0x1 PUSH1 0x1 PUSH1 0xA0 SHL SUB SWAP10 DUP11 AND SWAP12 POP SWAP8 DUP10 AND SWAP10 SWAP9 SWAP1 SWAP7 AND SWAP8 SWAP5 SWAP7 SWAP4 SWAP6 SWAP3 SWAP5 PUSH1 0xFF DUP1 DUP5 AND SWAP6 PUSH2 0x100 SWAP1 SWAP5 DIV DUP2 AND SWAP5 SWAP3 SWAP4 AND DUP13 JUMP JUMPDEST PUSH1 0x1 SLOAD PUSH1 0x1 PUSH1 0x1 PUSH1 0xA0 SHL SUB AND CALLER EQ PUSH2 0x7C4 JUMPI PUSH1 0x40 MLOAD PUSH4 0x30CD7471 PUSH1 0xE0 SHL DUP2 MSTORE PUSH1 0x4 ADD PUSH1 0x40 MLOAD DUP1 SWAP2 SUB SWAP1 REVERT JUMPDEST PUSH2 0x3E8 DUP2 GT ISZERO PUSH2 0x805 JUMPI PUSH1 0x40 MLOAD PUSH3 0x461BCD PUSH1 0xE5 SHL DUP2 MSTORE PUSH1 0x20 PUSH1 0x4 DUP3 ADD MSTORE PUSH1 0xC PUSH1 0x24 DUP3 ADD MSTORE PUSH12 0x8CCACA40E8DEDE40D0D2CED PUSH1 0xA3 SHL PUSH1 0x44 DUP3 ADD MSTORE PUSH1 0x64 ADD PUSH2 0x4DB JUMP JUMPDEST PUSH1 0x7 SSTORE JUMP JUMPDEST PUSH1 0x1 SLOAD PUSH1 0x1 PUSH1 0x1 PUSH1 0xA0 SHL SUB AND CALLER EQ PUSH2 0x835 JUMPI PUSH1 0x40 MLOAD PUSH4 0x30CD7471 PUSH1 0xE0 SHL DUP2 MSTORE PUSH1 0x4 ADD PUSH1 0x40 MLOAD DUP1 SWAP2 SUB SWAP1 REVERT JUMPDEST PUSH1 0x1 PUSH1 0x1 PUSH1 0xA0 SHL SUB DUP2 AND PUSH2 0x85B JUMPI PUSH1 0x40 MLOAD PUSH3 0x461BCD PUSH1 0xE5 SHL DUP2 MSTORE PUSH1 0x4 ADD PUSH2 0x4DB SWAP1 PUSH2 0x223A JUMP JUMPDEST PUSH1 0x6 SLOAD PUSH1 0x40 MLOAD PUSH1 0x1 PUSH1 0x1 PUSH1 0xA0 SHL SUB DUP1 DUP5 AND SWAP3 AND SWAP1 PUSH32 0xD9A2A08302ED3220F4E646FF99D6780D87E27BADDF1AF05679DC930CE8113095 SWAP1 PUSH1 0x0 SWAP1 LOG3 PUSH1 0x6 DUP1 SLOAD PUSH1 0x1 PUSH1 0x1 PUSH1 0xA0 SHL SUB NOT AND PUSH1 0x1 PUSH1 0x1 PUSH1 0xA0 SHL SUB SWAP3 SWAP1 SWAP3 AND SWAP2 SWAP1 SWAP2 OR SWAP1 SSTORE JUMP JUMPDEST PUSH1 0x0 PUSH1 0x3 DUP3 DUP2 SLOAD DUP2 LT PUSH2 0x8CC JUMPI PUSH2 0x8CC PUSH2 0x2260 JUMP JUMPDEST PUSH1 0x0 SWAP2 DUP3 MSTORE PUSH1 0x20 SWAP1 SWAP2 KECCAK256 PUSH1 0xB SWAP1 SWAP2 MUL ADD PUSH1 0xA DUP2 ADD SLOAD SWAP1 SWAP2 POP PUSH1 0xFF AND ISZERO PUSH2 0x904 JUMPI PUSH1 0x40 MLOAD PUSH3 0x461BCD PUSH1 0xE5 SHL DUP2 MSTORE PUSH1 0x4 ADD PUSH2 0x4DB SWAP1 PUSH2 0x2276 JUMP JUMPDEST DUP1 PUSH1 0x9 ADD SLOAD TIMESTAMP GT ISZERO PUSH2 0x9B6 JUMPI PUSH1 0x6 DUP2 ADD SLOAD PUSH1 0xFF AND DUP1 ISZERO PUSH2 0x92E JUMPI POP PUSH1 0x6 DUP2 ADD SLOAD PUSH2 0x100 SWAP1 DIV PUSH1 0xFF AND ISZERO JUMPDEST ISZERO PUSH2 0x94D JUMPI DUP1 SLOAD PUSH2 0x949 SWAP1 DUP4 SWAP1 PUSH1 0x1 PUSH1 0x1 PUSH1 0xA0 SHL SUB AND PUSH2 0x1715 JUMP JUMPDEST POP POP JUMP JUMPDEST PUSH1 0x6 DUP2 ADD SLOAD PUSH2 0x100 SWAP1 DIV PUSH1 0xFF AND DUP1 ISZERO PUSH2 0x96B JUMPI POP PUSH1 0x6 DUP2 ADD SLOAD PUSH1 0xFF AND ISZERO JUMPDEST ISZERO PUSH2 0x989 JUMPI PUSH1 0x1 DUP2 ADD SLOAD PUSH2 0x949 SWAP1 DUP4 SWAP1 PUSH1 0x1 PUSH1 0x1 PUSH1 0xA0 SHL SUB AND PUSH2 0x1715 JUMP JUMPDEST PUSH1 0x6 DUP2 ADD SLOAD PUSH1 0xFF AND ISZERO DUP1 ISZERO PUSH2 0x9A8 JUMPI POP PUSH1 0x6 DUP2 ADD SLOAD PUSH2 0x100 SWAP1 DIV PUSH1 0xFF AND ISZERO JUMPDEST ISZERO PUSH2 0x9B6 JUMPI PUSH2 0x949 DUP3 PUSH2 0x1968 JUMP JUMPDEST PUSH1 0x6 DUP2 ADD SLOAD PUSH1 0xFF AND DUP1 ISZERO PUSH2 0x9D3 JUMPI POP PUSH1 0x6 DUP2 ADD SLOAD PUSH2 0x100 SWAP1 DIV PUSH1 0xFF AND JUMPDEST PUSH2 0xA10 JUMPI PUSH1 0x40 MLOAD PUSH3 0x461BCD PUSH1 0xE5 SHL DUP2 MSTORE PUSH1 0x20 PUSH1 0x4 DUP3 ADD MSTORE PUSH1 0xE PUSH1 0x24 DUP3 ADD MSTORE PUSH14 0x52657665616C2070656E64696E67 PUSH1 0x90 SHL PUSH1 0x44 DUP3 ADD MSTORE PUSH1 0x64 ADD PUSH2 0x4DB JUMP JUMPDEST PUSH1 0x0 DUP3 DUP2 MSTORE PUSH1 0x5 PUSH1 0x20 MSTORE PUSH1 0x40 SWAP1 KECCAK256 SLOAD PUSH2 0x949 SWAP1 DUP4 SWAP1 PUSH1 0x1 PUSH1 0x1 PUSH1 0xA0 SHL SUB AND PUSH2 0x1715 JUMP JUMPDEST PUSH1 0x1 SLOAD PUSH1 0x1 PUSH1 0x1 PUSH1 0xA0 SHL SUB AND CALLER EQ PUSH2 0xA5E JUMPI PUSH1 0x40 MLOAD PUSH4 0x30CD7471 PUSH1 0xE0 SHL DUP2 MSTORE PUSH1 0x4 ADD PUSH1 0x40 MLOAD DUP1 SWAP2 SUB SWAP1 REVERT JUMPDEST PUSH1 0x0 DUP3 SWAP1 SUB PUSH2 0xA80 JUMPI PUSH1 0x40 MLOAD PUSH4 0x4B78778D PUSH1 0xE1 SHL DUP2 MSTORE PUSH1 0x4 ADD PUSH1 0x40 MLOAD DUP1 SWAP2 SUB SWAP1 REVERT JUMPDEST PUSH2 0xAC1 DUP4 DUP4 DUP1 DUP1 PUSH1 0x1F ADD PUSH1 0x20 DUP1 SWAP2 DIV MUL PUSH1 0x20 ADD PUSH1 0x40 MLOAD SWAP1 DUP2 ADD PUSH1 0x40 MSTORE DUP1 SWAP4 SWAP3 SWAP2 SWAP1 DUP2 DUP2 MSTORE PUSH1 0x20 ADD DUP4 DUP4 DUP1 DUP3 DUP5 CALLDATACOPY PUSH1 0x0 SWAP3 ADD SWAP2 SWAP1 SWAP2 MSTORE POP DUP6 SWAP3 POP PUSH2 0x19EA SWAP2 POP POP JUMP JUMPDEST POP POP POP JUMP JUMPDEST PUSH1 0x1 SLOAD PUSH1 0x1 PUSH1 0x1 PUSH1 0xA0 SHL SUB AND CALLER EQ PUSH2 0xAF1 JUMPI PUSH1 0x40 MLOAD PUSH4 0x30CD7471 PUSH1 0xE0 SHL DUP2 MSTORE PUSH1 0x4 ADD PUSH1 0x40 MLOAD DUP1 SWAP2 SUB SWAP1 REVERT JUMPDEST PUSH1 0x1 PUSH1 0x1 PUSH1 0xA0 SHL SUB SWAP2 SWAP1 SWAP2 AND PUSH1 0x0 SWAP1 DUP2 MSTORE PUSH1 0x4 PUSH1 0x20 MSTORE PUSH1 0x40 SWAP1 KECCAK256 DUP1 SLOAD PUSH1 0xFF NOT AND SWAP2 ISZERO ISZERO SWAP2 SWAP1 SWAP2 OR SWAP1 SSTORE JUMP JUMPDEST PUSH1 0x0 PUSH1 0x3 DUP3 DUP2 SLOAD DUP2 LT PUSH2 0xB31 JUMPI PUSH2 0xB31 PUSH2 0x2260 JUMP JUMPDEST PUSH1 0x0 SWAP2 DUP3 MSTORE PUSH1 0x20 SWAP1 SWAP2 KECCAK256 PUSH1 0xB SWAP1 SWAP2 MUL ADD PUSH1 0xA DUP2 ADD SLOAD SWAP1 SWAP2 POP PUSH1 0xFF AND ISZERO PUSH2 0xB90 JUMPI PUSH1 0x40 MLOAD PUSH3 0x461BCD PUSH1 0xE5 SHL DUP2 MSTORE PUSH1 0x20 PUSH1 0x4 DUP3 ADD MSTORE PUSH1 0x14 PUSH1 0x24 DUP3 ADD MSTORE PUSH20 0x11D85B5948185B1C9958591E481CD95D1D1B1959 PUSH1 0x62 SHL PUSH1 0x44 DUP3 ADD MSTORE PUSH1 0x64 ADD PUSH2 0x4DB JUMP JUMPDEST DUP1 SLOAD PUSH1 0x1 PUSH1 0x1 PUSH1 0xA0 SHL SUB AND CALLER EQ PUSH2 0xBE9 JUMPI PUSH1 0x40 MLOAD PUSH3 0x461BCD PUSH1 0xE5 SHL DUP2 MSTORE PUSH1 0x20 PUSH1 0x4 DUP3 ADD MSTORE PUSH1 0x17 PUSH1 0x24 DUP3 ADD MSTORE PUSH32 0x4F6E6C792063726561746F722063616E2063616E63656C000000000000000000 PUSH1 0x44 DUP3 ADD MSTORE PUSH1 0x64 ADD PUSH2 0x4DB JUMP JUMPDEST PUSH1 0x1 DUP2 ADD SLOAD PUSH1 0x1 PUSH1 0x1 PUSH1 0xA0 SHL SUB AND ISZERO PUSH2 0xC50 JUMPI PUSH1 0x40 MLOAD PUSH3 0x461BCD PUSH1 0xE5 SHL DUP2 MSTORE PUSH1 0x20 PUSH1 0x4 DUP3 ADD MSTORE PUSH1 0x23 PUSH1 0x24 DUP3 ADD MSTORE PUSH32 0x47616D6520616C7265616479206A6F696E6564202D2063616E6E6F742063616E PUSH1 0x44 DUP3 ADD MSTORE PUSH3 0x18D95B PUSH1 0xEA SHL PUSH1 0x64 DUP3 ADD MSTORE PUSH1 0x84 ADD PUSH2 0x4DB JUMP JUMPDEST PUSH1 0xA DUP2 ADD DUP1 SLOAD PUSH1 0xFF NOT AND PUSH1 0x1 OR SWAP1 SSTORE PUSH1 0x3 DUP2 ADD SLOAD ISZERO PUSH2 0xC8D JUMPI DUP1 SLOAD PUSH1 0x3 DUP3 ADD SLOAD PUSH1 0x2 DUP4 ADD SLOAD PUSH2 0xC8D SWAP3 PUSH1 0x1 PUSH1 0x1 PUSH1 0xA0 SHL SUB SWAP2 DUP3 AND SWAP3 SWAP2 AND SWAP1 PUSH2 0x1A4E JUMP JUMPDEST PUSH1 0x40 MLOAD PUSH1 0x0 DUP2 MSTORE DUP3 SWAP1 PUSH32 0xF27FAAE2ACD1EBCA672F8CA0D896F3E0EB13164004932B3FBCFC2547167C8BB7 SWAP1 PUSH1 0x20 ADD PUSH1 0x40 MLOAD DUP1 SWAP2 SUB SWAP1 LOG2 POP POP JUMP JUMPDEST PUSH1 0x0 PUSH1 0x3 DUP7 DUP2 SLOAD DUP2 LT PUSH2 0xCDC JUMPI PUSH2 0xCDC PUSH2 0x2260 JUMP JUMPDEST PUSH1 0x0 SWAP2 DUP3 MSTORE PUSH1 0x20 DUP1 DUP4 KECCAK256 PUSH1 0x2 SLOAD PUSH1 0x40 DUP1 MLOAD PUSH32 0xF9A4BB626F7677582CA1A01DCF5E2AA8F3DE98D999ADC0598509571B99FE8ADB DUP2 DUP7 ADD MSTORE DUP1 DUP3 ADD DUP14 SWAP1 MSTORE PUSH1 0x60 DUP1 DUP3 ADD DUP14 SWAP1 MSTORE DUP3 MLOAD DUP1 DUP4 SUB SWAP1 SWAP2 ADD DUP2 MSTORE PUSH1 0x80 DUP3 ADD SWAP1 SWAP3 MSTORE DUP2 MLOAD SWAP2 SWAP1 SWAP5 ADD KECCAK256 PUSH2 0x1901 PUSH1 0xF0 SHL PUSH1 0xA0 DUP6 ADD MSTORE PUSH1 0xA2 DUP5 ADD SWAP2 SWAP1 SWAP2 MSTORE PUSH1 0xC2 DUP4 ADD MSTORE PUSH1 0xB SWAP3 SWAP1 SWAP3 MUL SWAP1 SWAP2 ADD SWAP3 POP PUSH1 0xE2 ADD PUSH1 0x40 DUP1 MLOAD PUSH1 0x1F NOT DUP2 DUP5 SUB ADD DUP2 MSTORE DUP3 DUP3 MSTORE DUP1 MLOAD PUSH1 0x20 SWAP2 DUP3 ADD KECCAK256 PUSH1 0x0 DUP1 DUP6 MSTORE SWAP2 DUP5 ADD DUP1 DUP5 MSTORE DUP2 SWAP1 MSTORE PUSH1 0xFF DUP10 AND SWAP3 DUP5 ADD SWAP3 SWAP1 SWAP3 MSTORE PUSH1 0x60 DUP4 ADD DUP8 SWAP1 MSTORE PUSH1 0x80 DUP4 ADD DUP7 SWAP1 MSTORE SWAP1 SWAP3 POP SWAP1 PUSH1 0x1 SWAP1 PUSH1 0xA0 ADD PUSH1 0x20 PUSH1 0x40 MLOAD PUSH1 0x20 DUP2 SUB SWAP1 DUP1 DUP5 SUB SWAP1 DUP6 GAS STATICCALL ISZERO DUP1 ISZERO PUSH2 0xDC9 JUMPI RETURNDATASIZE PUSH1 0x0 DUP1 RETURNDATACOPY RETURNDATASIZE PUSH1 0x0 REVERT JUMPDEST POP POP PUSH1 0x40 MLOAD PUSH1 0x1F NOT ADD MLOAD SWAP2 POP POP PUSH1 0x1 PUSH1 0x1 PUSH1 0xA0 SHL SUB DUP2 AND CALLER EQ PUSH2 0xE1E JUMPI PUSH1 0x40 MLOAD PUSH3 0x461BCD PUSH1 0xE5 SHL DUP2 MSTORE PUSH1 0x20 PUSH1 0x4 DUP3 ADD MSTORE PUSH1 0xD PUSH1 0x24 DUP3 ADD MSTORE PUSH13 0x426164207369676E6174757265 PUSH1 0x98 SHL PUSH1 0x44 DUP3 ADD MSTORE PUSH1 0x64 ADD PUSH2 0x4DB JUMP JUMPDEST DUP3 SLOAD PUSH1 0x1 PUSH1 0x1 PUSH1 0xA0 SHL SUB AND CALLER SUB PUSH2 0xE3B JUMPI PUSH1 0x4 DUP4 ADD DUP8 SWAP1 SSTORE PUSH2 0xE90 JUMP JUMPDEST PUSH1 0x1 DUP4 ADD SLOAD PUSH1 0x1 PUSH1 0x1 PUSH1 0xA0 SHL SUB AND CALLER SUB PUSH2 0xE5B JUMPI PUSH1 0x5 DUP4 ADD DUP8 SWAP1 SSTORE PUSH2 0xE90 JUMP JUMPDEST PUSH1 0x40 MLOAD PUSH3 0x461BCD PUSH1 0xE5 SHL DUP2 MSTORE PUSH1 0x20 PUSH1 0x4 DUP3 ADD MSTORE PUSH1 0xA PUSH1 0x24 DUP3 ADD MSTORE PUSH10 0x2737BA10383630BCB2B9 PUSH1 0xB1 SHL PUSH1 0x44 DUP3 ADD MSTORE PUSH1 0x64 ADD PUSH2 0x4DB JUMP JUMPDEST PUSH1 0x40 MLOAD CALLER SWAP1 DUP10 SWAP1 PUSH32 0xAF398D01FA79335DFE9179FDA01A76CCB61AA3C3E0EB5CB31EDE3DCEA66AF762 SWAP1 PUSH1 0x0 SWAP1 LOG3 POP POP POP POP POP POP POP POP JUMP JUMPDEST PUSH1 0x0 PUSH1 0x3 DUP4 DUP2 SLOAD DUP2 LT PUSH2 0xEDC JUMPI PUSH2 0xEDC PUSH2 0x2260 JUMP JUMPDEST PUSH1 0x0 SWAP2 DUP3 MSTORE PUSH1 0x20 SWAP1 SWAP2 KECCAK256 PUSH1 0xB SWAP1 SWAP2 MUL ADD PUSH1 0x1 DUP2 ADD SLOAD SWAP1 SWAP2 POP PUSH1 0x1 PUSH1 0x1 PUSH1 0xA0 SHL SUB AND ISZERO PUSH2 0xF3B JUMPI PUSH1 0x40 MLOAD PUSH3 0x461BCD PUSH1 0xE5 SHL DUP2 MSTORE PUSH1 0x20 PUSH1 0x4 DUP3 ADD MSTORE PUSH1 0xE PUSH1 0x24 DUP3 ADD MSTORE PUSH14 0x105B1C9958591E481A9BDA5B9959 PUSH1 0x92 SHL PUSH1 0x44 DUP3 ADD MSTORE PUSH1 0x64 ADD PUSH2 0x4DB JUMP JUMPDEST PUSH1 0x3 DUP2 ADD SLOAD PUSH1 0x2 DUP3 ADD SLOAD PUSH2 0xF5E SWAP2 PUSH1 0x1 PUSH1 0x1 PUSH1 0xA0 SHL SUB SWAP1 SWAP2 AND SWAP1 CALLER SWAP1 ADDRESS SWAP1 PUSH2 0x16A8 JUMP JUMPDEST PUSH1 0x1 DUP2 ADD DUP1 SLOAD PUSH1 0x1 PUSH1 0x1 PUSH1 0xA0 SHL SUB NOT AND CALLER OR SWAP1 SSTORE PUSH1 0x5 DUP2 ADD DUP3 SWAP1 SSTORE TIMESTAMP PUSH1 0x8 DUP3 ADD DUP2 SWAP1 SSTORE PUSH2 0xF8F SWAP1 PUSH3 0x69780 SWAP1 PUSH2 0x2297 JUMP JUMPDEST PUSH1 0x9 DUP3 ADD SSTORE PUSH1 0x40 MLOAD CALLER SWAP1 DUP5 SWAP1 PUSH32 0x45C4F9CBAFE186141862608C493F28B823FDE4C2142BEDC3F5169961A73FDD22 SWAP1 PUSH1 0x0 SWAP1 LOG3 POP POP POP JUMP JUMPDEST PUSH1 0x1 SLOAD PUSH1 0x1 PUSH1 0x1 PUSH1 0xA0 SHL SUB AND CALLER EQ PUSH2 0xFF1 JUMPI PUSH1 0x40 MLOAD PUSH4 0x30CD7471 PUSH1 0xE0 SHL DUP2 MSTORE PUSH1 0x4 ADD PUSH1 0x40 MLOAD DUP1 SWAP2 SUB SWAP1 REVERT JUMPDEST PUSH1 0x0 PUSH1 0x3 DUP4 DUP2 SLOAD DUP2 LT PUSH2 0x1006 JUMPI PUSH2 0x1006 PUSH2 0x2260 JUMP JUMPDEST PUSH1 0x0 SWAP2 DUP3 MSTORE PUSH1 0x20 SWAP1 SWAP2 KECCAK256 PUSH1 0xB SWAP1 SWAP2 MUL ADD PUSH1 0xA DUP2 ADD SLOAD SWAP1 SWAP2 POP PUSH1 0xFF AND ISZERO PUSH2 0x103E JUMPI PUSH1 0x40 MLOAD PUSH3 0x461BCD PUSH1 0xE5 SHL DUP2 MSTORE PUSH1 0x4 ADD PUSH2 0x4DB SWAP1 PUSH2 0x2276 JUMP JUMPDEST DUP1 SLOAD PUSH1 0x1 PUSH1 0x1 PUSH1 0xA0 SHL SUB DUP4 DUP2 AND SWAP2 AND EQ DUP1 PUSH2 0x1068 JUMPI POP PUSH1 0x1 DUP2 ADD SLOAD PUSH1 0x1 PUSH1 0x1 PUSH1 0xA0 SHL SUB DUP4 DUP2 AND SWAP2 AND EQ JUMPDEST DUP1 PUSH2 0x107A JUMPI POP PUSH1 0x1 PUSH1 0x1 PUSH1 0xA0 SHL SUB DUP3 AND ISZERO JUMPDEST PUSH2 0x10B0 JUMPI PUSH1 0x40 MLOAD PUSH3 0x461BCD PUSH1 0xE5 SHL DUP2 MSTORE PUSH1 0x20 PUSH1 0x4 DUP3 ADD MSTORE PUSH1 0x7 PUSH1 0x24 DUP3 ADD MSTORE PUSH7 0x125B9D985B1A59 PUSH1 0xCA SHL PUSH1 0x44 DUP3 ADD MSTORE PUSH1 0x64 ADD PUSH2 0x4DB JUMP JUMPDEST PUSH1 0x0 DUP4 DUP2 MSTORE PUSH1 0x5 PUSH1 0x20 SWAP1 DUP2 MSTORE PUSH1 0x40 SWAP2 DUP3 SWAP1 KECCAK256 DUP1 SLOAD PUSH1 0x1 PUSH1 0x1 PUSH1 0xA0 SHL SUB NOT AND PUSH1 0x1 PUSH1 0x1 PUSH1 0xA0 SHL SUB DUP7 AND SWAP1 DUP2 OR SWAP1 SWAP2 SSTORE SWAP2 MLOAD SWAP2 DUP3 MSTORE DUP5 SWAP2 PUSH32 0x4074D0BFF1FDF28C9BC2363D469257D9FF1AB7FC537134B28BB50738757F8EBA SWAP2 ADD PUSH1 0x40 MLOAD DUP1 SWAP2 SUB SWAP1 LOG2 POP POP POP JUMP JUMPDEST PUSH1 0x1 SLOAD PUSH1 0x1 PUSH1 0x1 PUSH1 0xA0 SHL SUB AND CALLER EQ PUSH2 0x1140 JUMPI PUSH1 0x40 MLOAD PUSH4 0x30CD7471 PUSH1 0xE0 SHL DUP2 MSTORE PUSH1 0x4 ADD PUSH1 0x40 MLOAD DUP1 SWAP2 SUB SWAP1 REVERT JUMPDEST PUSH1 0x1 PUSH1 0x1 PUSH1 0xA0 SHL SUB DUP2 AND PUSH2 0x1166 JUMPI PUSH1 0x40 MLOAD PUSH3 0x461BCD PUSH1 0xE5 SHL DUP2 MSTORE PUSH1 0x4 ADD PUSH2 0x4DB SWAP1 PUSH2 0x223A JUMP JUMPDEST PUSH1 0x8 SLOAD PUSH1 0x40 MLOAD PUSH1 0x1 PUSH1 0x1 PUSH1 0xA0 SHL SUB DUP1 DUP5 AND SWAP3 AND SWAP1 PUSH32 0xCD6BAC6338C08D47AD66538A0D9F493E785BFBD1E175E4C450429E8DFE702C52 SWAP1 PUSH1 0x0 SWAP1 LOG3 PUSH1 0x8 DUP1 SLOAD PUSH1 0x1 PUSH1 0x1 PUSH1 0xA0 SHL SUB NOT AND PUSH1 0x1 PUSH1 0x1 PUSH1 0xA0 SHL SUB SWAP3 SWAP1 SWAP3 AND SWAP2 SWAP1 SWAP2 OR SWAP1 SSTORE JUMP JUMPDEST PUSH1 0x0 PUSH1 0x3 DUP7 DUP2 SLOAD DUP2 LT PUSH2 0x11D7 JUMPI PUSH2 0x11D7 PUSH2 0x2260 JUMP JUMPDEST PUSH1 0x0 SWAP2 DUP3 MSTORE PUSH1 0x20 SWAP1 SWAP2 KECCAK256 PUSH1 0xB SWAP1 SWAP2 MUL ADD PUSH1 0xA DUP2 ADD SLOAD SWAP1 SWAP2 POP PUSH1 0xFF AND ISZERO PUSH2 0x120F JUMPI PUSH1 0x40 MLOAD PUSH3 0x461BCD PUSH1 0xE5 SHL DUP2 MSTORE PUSH1 0x4 ADD PUSH2 0x4DB SWAP1 PUSH2 0x2276 JUMP JUMPDEST PUSH2 0x1218 DUP3 PUSH2 0x1A7F JUMP JUMPDEST PUSH2 0x1223 CALLER DUP6 DUP6 PUSH2 0x1BCC JUMP JUMPDEST PUSH1 0x0 PUSH2 0x1230 DUP7 DUP7 DUP7 PUSH2 0x1CD9 JUMP JUMPDEST DUP3 SLOAD SWAP1 SWAP2 POP PUSH1 0x1 PUSH1 0x1 PUSH1 0xA0 SHL SUB AND CALLER SUB PUSH2 0x12D7 JUMPI PUSH1 0x6 DUP3 ADD SLOAD PUSH1 0xFF AND ISZERO PUSH2 0x1283 JUMPI PUSH1 0x40 MLOAD PUSH3 0x461BCD PUSH1 0xE5 SHL DUP2 MSTORE PUSH1 0x20 PUSH1 0x4 DUP3 ADD MSTORE PUSH1 0x7 PUSH1 0x24 DUP3 ADD MSTORE PUSH7 0x416C7265616479 PUSH1 0xC8 SHL PUSH1 0x44 DUP3 ADD MSTORE PUSH1 0x64 ADD PUSH2 0x4DB JUMP JUMPDEST DUP2 PUSH1 0x4 ADD SLOAD DUP2 EQ PUSH2 0x12C3 JUMPI PUSH1 0x40 MLOAD PUSH3 0x461BCD PUSH1 0xE5 SHL DUP2 MSTORE PUSH1 0x20 PUSH1 0x4 DUP3 ADD MSTORE PUSH1 0xA PUSH1 0x24 DUP3 ADD MSTORE PUSH10 0x109859081C995D99585B PUSH1 0xB2 SHL PUSH1 0x44 DUP3 ADD MSTORE PUSH1 0x64 ADD PUSH2 0x4DB JUMP JUMPDEST PUSH1 0x6 DUP3 ADD DUP1 SLOAD PUSH1 0xFF NOT AND PUSH1 0x1 OR SWAP1 SSTORE PUSH2 0x1381 JUMP JUMPDEST PUSH1 0x1 DUP3 ADD SLOAD PUSH1 0x1 PUSH1 0x1 PUSH1 0xA0 SHL SUB AND CALLER SUB PUSH2 0xE5B JUMPI PUSH1 0x6 DUP3 ADD SLOAD PUSH2 0x100 SWAP1 DIV PUSH1 0xFF AND ISZERO PUSH2 0x132F JUMPI PUSH1 0x40 MLOAD PUSH3 0x461BCD PUSH1 0xE5 SHL DUP2 MSTORE PUSH1 0x20 PUSH1 0x4 DUP3 ADD MSTORE PUSH1 0x7 PUSH1 0x24 DUP3 ADD MSTORE PUSH7 0x416C7265616479 PUSH1 0xC8 SHL PUSH1 0x44 DUP3 ADD MSTORE PUSH1 0x64 ADD PUSH2 0x4DB JUMP JUMPDEST DUP2 PUSH1 0x5 ADD SLOAD DUP2 EQ PUSH2 0x136F JUMPI PUSH1 0x40 MLOAD PUSH3 0x461BCD PUSH1 0xE5 SHL DUP2 MSTORE PUSH1 0x20 PUSH1 0x4 DUP3 ADD MSTORE PUSH1 0xA PUSH1 0x24 DUP3 ADD MSTORE PUSH10 0x109859081C995D99585B PUSH1 0xB2 SHL PUSH1 0x44 DUP3 ADD MSTORE PUSH1 0x64 ADD PUSH2 0x4DB JUMP JUMPDEST PUSH1 0x6 DUP3 ADD DUP1 SLOAD PUSH2 0xFF00 NOT AND PUSH2 0x100 OR SWAP1 SSTORE JUMPDEST PUSH1 0x40 MLOAD CALLER SWAP1 DUP9 SWAP1 PUSH32 0x6E9DAC3F3F833C1D527AA989D3A673884DDC11E31FDCCC11CCD8AEBF1AE069AC SWAP1 PUSH1 0x0 SWAP1 LOG3 POP POP POP POP POP POP POP JUMP JUMPDEST PUSH1 0x1 SLOAD PUSH1 0x1 PUSH1 0x1 PUSH1 0xA0 SHL SUB AND CALLER EQ PUSH2 0x13E2 JUMPI PUSH1 0x40 MLOAD PUSH4 0x30CD7471 PUSH1 0xE0 SHL DUP2 MSTORE PUSH1 0x4 ADD PUSH1 0x40 MLOAD DUP1 SWAP2 SUB SWAP1 REVERT JUMPDEST PUSH1 0x1 PUSH1 0x1 PUSH1 0xA0 SHL SUB DUP2 AND PUSH2 0x1408 JUMPI PUSH1 0x40 MLOAD PUSH3 0x461BCD PUSH1 0xE5 SHL DUP2 MSTORE PUSH1 0x4 ADD PUSH2 0x4DB SWAP1 PUSH2 0x223A JUMP JUMPDEST PUSH1 0x1 SLOAD PUSH1 0x40 MLOAD PUSH1 0x1 PUSH1 0x1 PUSH1 0xA0 SHL SUB DUP1 DUP5 AND SWAP3 AND SWAP1 PUSH32 0x8BE0079C531659141344CD1FD0A4F28419497F9722A3DAAFE3B4186F6B6457E0 SWAP1 PUSH1 0x0 SWAP1 LOG3 PUSH1 0x1 DUP1 SLOAD PUSH1 0x1 PUSH1 0x1 PUSH1 0xA0 SHL SUB NOT AND PUSH1 0x1 PUSH1 0x1 PUSH1 0xA0 SHL SUB SWAP3 SWAP1 SWAP3 AND SWAP2 SWAP1 SWAP2 OR SWAP1 SSTORE JUMP JUMPDEST PUSH1 0x1 SLOAD PUSH1 0x1 PUSH1 0x1 PUSH1 0xA0 SHL SUB AND CALLER EQ PUSH2 0x148F JUMPI PUSH1 0x40 MLOAD PUSH4 0x30CD7471 PUSH1 0xE0 SHL DUP2 MSTORE PUSH1 0x4 ADD PUSH1 0x40 MLOAD DUP1 SWAP2 SUB SWAP1 REVERT JUMPDEST PUSH1 0x0 PUSH1 0x3 DUP3 DUP2 SLOAD DUP2 LT PUSH2 0x14A4 JUMPI PUSH2 0x14A4 PUSH2 0x2260 JUMP JUMPDEST PUSH1 0x0 SWAP2 DUP3 MSTORE PUSH1 0x20 SWAP1 SWAP2 KECCAK256 PUSH1 0xB SWAP1 SWAP2 MUL ADD PUSH1 0xA DUP2 ADD SLOAD SWAP1 SWAP2 POP PUSH1 0xFF AND ISZERO PUSH2 0x1503 JUMPI PUSH1 0x40 MLOAD PUSH3 0x461BCD PUSH1 0xE5 SHL DUP2 MSTORE PUSH1 0x20 PUSH1 0x4 DUP3 ADD MSTORE PUSH1 0x14 PUSH1 0x24 DUP3 ADD MSTORE PUSH20 0x11D85B5948185B1C9958591E481CD95D1D1B1959 PUSH1 0x62 SHL PUSH1 0x44 DUP3 ADD MSTORE PUSH1 0x64 ADD PUSH2 0x4DB JUMP JUMPDEST PUSH1 0x1 DUP2 ADD SLOAD PUSH1 0x1 PUSH1 0x1 PUSH1 0xA0 SHL SUB AND ISZERO PUSH2 0xC50 JUMPI PUSH1 0x40 MLOAD PUSH3 0x461BCD PUSH1 0xE5 SHL DUP2 MSTORE PUSH1 0x20 PUSH1 0x4 DUP3 ADD MSTORE PUSH1 0x29 PUSH1 0x24 DUP3 ADD MSTORE PUSH32 0x47616D6520616C7265616479206A6F696E6564202D2063616E6E6F7420666F72 PUSH1 0x44 DUP3 ADD MSTORE PUSH9 0x18D94818D85B98D95B PUSH1 0xBA SHL PUSH1 0x64 DUP3 ADD MSTORE PUSH1 0x84 ADD PUSH2 0x4DB JUMP JUMPDEST PUSH1 0x1 SLOAD PUSH1 0x1 PUSH1 0x1 PUSH1 0xA0 SHL SUB AND CALLER EQ PUSH2 0x159B JUMPI PUSH1 0x40 MLOAD PUSH4 0x30CD7471 PUSH1 0xE0 SHL DUP2 MSTORE PUSH1 0x4 ADD PUSH1 0x40 MLOAD DUP1 SWAP2 SUB SWAP1 REVERT JUMPDEST DUP3 DUP2 EQ PUSH2 0x15BE JUMPI PUSH1 0x40 MLOAD PUSH1 0x1 PUSH3 0x1398B9 PUSH1 0xE3 SHL SUB NOT DUP2 MSTORE PUSH1 0x4 ADD PUSH1 0x40 MLOAD DUP1 SWAP2 SUB SWAP1 REVERT JUMPDEST PUSH1 0x0 JUMPDEST DUP4 DUP2 LT ISZERO PUSH2 0x16A1 JUMPI DUP5 DUP5 DUP3 DUP2 DUP2 LT PUSH2 0x15DB JUMPI PUSH2 0x15DB PUSH2 0x2260 JUMP JUMPDEST SWAP1 POP PUSH1 0x20 MUL DUP2 ADD SWAP1 PUSH2 0x15ED SWAP2 SWAP1 PUSH2 0x22AA JUMP JUMPDEST SWAP1 POP PUSH1 0x0 SUB PUSH2 0x160F JUMPI PUSH1 0x40 MLOAD PUSH4 0x4B78778D PUSH1 0xE1 SHL DUP2 MSTORE PUSH1 0x4 ADD PUSH1 0x40 MLOAD DUP1 SWAP2 SUB SWAP1 REVERT JUMPDEST PUSH2 0x1699 DUP6 DUP6 DUP4 DUP2 DUP2 LT PUSH2 0x1624 JUMPI PUSH2 0x1624 PUSH2 0x2260 JUMP JUMPDEST SWAP1 POP PUSH1 0x20 MUL DUP2 ADD SWAP1 PUSH2 0x1636 SWAP2 SWAP1 PUSH2 0x22AA JUMP JUMPDEST DUP1 DUP1 PUSH1 0x1F ADD PUSH1 0x20 DUP1 SWAP2 DIV MUL PUSH1 0x20 ADD PUSH1 0x40 MLOAD SWAP1 DUP2 ADD PUSH1 0x40 MSTORE DUP1 SWAP4 SWAP3 SWAP2 SWAP1 DUP2 DUP2 MSTORE PUSH1 0x20 ADD DUP4 DUP4 DUP1 DUP3 DUP5 CALLDATACOPY PUSH1 0x0 SWAP3 ADD SWAP2 SWAP1 SWAP2 MSTORE POP DUP8 SWAP3 POP DUP7 SWAP2 POP DUP6 SWAP1 POP DUP2 DUP2 LT PUSH2 0x167F JUMPI PUSH2 0x167F PUSH2 0x2260 JUMP JUMPDEST SWAP1 POP PUSH1 0x20 MUL ADD PUSH1 0x20 DUP2 ADD SWAP1 PUSH2 0x1694 SWAP2 SWAP1 PUSH2 0x22F1 JUMP JUMPDEST PUSH2 0x19EA JUMP JUMPDEST PUSH1 0x1 ADD PUSH2 0x15C1 JUMP JUMPDEST POP POP POP POP POP JUMP JUMPDEST PUSH1 0x40 MLOAD PUSH1 0x1 PUSH1 0x1 PUSH1 0xA0 SHL SUB DUP5 DUP2 AND PUSH1 0x24 DUP4 ADD MSTORE DUP4 DUP2 AND PUSH1 0x44 DUP4 ADD MSTORE PUSH1 0x64 DUP3 ADD DUP4 SWAP1 MSTORE PUSH2 0x170F SWAP2 DUP7 SWAP2 DUP3 AND SWAP1 PUSH4 0x23B872DD SWAP1 PUSH1 0x84 ADD JUMPDEST PUSH1 0x40 MLOAD PUSH1 0x20 DUP2 DUP4 SUB SUB DUP2 MSTORE SWAP1 PUSH1 0x40 MSTORE SWAP2 POP PUSH1 0xE0 SHL PUSH1 0x20 DUP3 ADD DUP1 MLOAD PUSH1 0x1 PUSH1 0x1 PUSH1 0xE0 SHL SUB DUP4 DUP2 DUP4 AND OR DUP4 MSTORE POP POP POP POP PUSH2 0x1D80 JUMP JUMPDEST POP POP POP POP JUMP JUMPDEST PUSH1 0x0 PUSH1 0x3 DUP4 DUP2 SLOAD DUP2 LT PUSH2 0x172A JUMPI PUSH2 0x172A PUSH2 0x2260 JUMP JUMPDEST PUSH1 0x0 SWAP2 DUP3 MSTORE PUSH1 0x20 DUP3 KECCAK256 PUSH1 0xA PUSH1 0xB SWAP1 SWAP3 MUL ADD SWAP1 DUP2 ADD DUP1 SLOAD PUSH1 0xFF NOT AND PUSH1 0x1 OR SWAP1 SSTORE PUSH1 0x3 DUP2 ADD SLOAD SWAP1 SWAP3 POP PUSH2 0x175C SWAP1 PUSH1 0x2 PUSH2 0x230C JUMP JUMPDEST SWAP1 POP PUSH1 0x0 DUP2 PUSH8 0x8AC7230489E80000 DUP2 LT PUSH2 0x188E JUMPI PUSH2 0x2710 PUSH1 0x7 SLOAD DUP5 PUSH2 0x1781 SWAP2 SWAP1 PUSH2 0x230C JUMP JUMPDEST PUSH2 0x178B SWAP2 SWAP1 PUSH2 0x2323 JUMP JUMPDEST SWAP2 POP PUSH2 0x1797 DUP3 DUP5 PUSH2 0x2227 JUMP JUMPDEST SWAP1 POP DUP2 ISZERO PUSH2 0x188E JUMPI PUSH1 0x0 PUSH1 0x5 PUSH2 0x17AE DUP5 PUSH1 0x2 PUSH2 0x230C JUMP JUMPDEST PUSH2 0x17B8 SWAP2 SWAP1 PUSH2 0x2323 JUMP JUMPDEST SWAP1 POP PUSH1 0x0 PUSH1 0x5 PUSH2 0x17C9 DUP6 PUSH1 0x2 PUSH2 0x230C JUMP JUMPDEST PUSH2 0x17D3 SWAP2 SWAP1 PUSH2 0x2323 JUMP JUMPDEST SWAP1 POP PUSH1 0x0 DUP2 PUSH2 0x17E2 DUP5 DUP8 PUSH2 0x2227 JUMP JUMPDEST PUSH2 0x17EC SWAP2 SWAP1 PUSH2 0x2227 JUMP JUMPDEST SWAP1 POP PUSH1 0x0 DUP4 GT DUP1 ISZERO PUSH2 0x1808 JUMPI POP PUSH1 0x6 SLOAD PUSH1 0x1 PUSH1 0x1 PUSH1 0xA0 SHL SUB AND ISZERO ISZERO JUMPDEST ISZERO PUSH2 0x182C JUMPI PUSH1 0x6 SLOAD PUSH1 0x2 DUP9 ADD SLOAD PUSH2 0x182C SWAP2 PUSH1 0x1 PUSH1 0x1 PUSH1 0xA0 SHL SUB SWAP2 DUP3 AND SWAP2 AND DUP6 PUSH2 0x1A4E JUMP JUMPDEST PUSH1 0x0 DUP3 GT DUP1 ISZERO PUSH2 0x1846 JUMPI POP PUSH1 0x8 SLOAD PUSH1 0x1 PUSH1 0x1 PUSH1 0xA0 SHL SUB AND ISZERO ISZERO JUMPDEST ISZERO PUSH2 0x186A JUMPI PUSH1 0x8 SLOAD PUSH1 0x2 DUP9 ADD SLOAD PUSH2 0x186A SWAP2 PUSH1 0x1 PUSH1 0x1 PUSH1 0xA0 SHL SUB SWAP2 DUP3 AND SWAP2 AND DUP5 PUSH2 0x1A4E JUMP JUMPDEST DUP1 ISZERO PUSH2 0x188A JUMPI PUSH1 0x2 DUP8 ADD SLOAD PUSH2 0x188A SWAP1 PUSH1 0x1 PUSH1 0x1 PUSH1 0xA0 SHL SUB AND PUSH1 0x0 DUP4 PUSH2 0x1A4E JUMP JUMPDEST POP POP POP JUMPDEST PUSH1 0x1 PUSH1 0x1 PUSH1 0xA0 SHL SUB DUP6 AND ISZERO PUSH2 0x18C1 JUMPI DUP1 ISZERO PUSH2 0x18BC JUMPI PUSH1 0x2 DUP5 ADD SLOAD PUSH2 0x18BC SWAP1 PUSH1 0x1 PUSH1 0x1 PUSH1 0xA0 SHL SUB AND DUP7 DUP4 PUSH2 0x1A4E JUMP JUMPDEST PUSH2 0x1922 JUMP JUMPDEST PUSH1 0x0 PUSH2 0x18CE PUSH1 0x2 DUP4 PUSH2 0x2323 JUMP JUMPDEST DUP6 SLOAD PUSH1 0x2 DUP8 ADD SLOAD SWAP2 SWAP3 POP PUSH2 0x18EF SWAP2 PUSH1 0x1 PUSH1 0x1 PUSH1 0xA0 SHL SUB SWAP1 DUP2 AND SWAP2 AND DUP4 PUSH2 0x1A4E JUMP JUMPDEST PUSH1 0x1 DUP6 ADD SLOAD PUSH2 0x1920 SWAP1 PUSH1 0x1 PUSH1 0x1 PUSH1 0xA0 SHL SUB AND PUSH2 0x190B DUP4 DUP6 PUSH2 0x2227 JUMP JUMPDEST PUSH1 0x2 DUP9 ADD SLOAD PUSH1 0x1 PUSH1 0x1 PUSH1 0xA0 SHL SUB AND SWAP2 SWAP1 PUSH2 0x1A4E JUMP JUMPDEST POP JUMPDEST PUSH1 0x40 MLOAD PUSH1 0x1 PUSH1 0x1 PUSH1 0xA0 SHL SUB DUP7 AND DUP2 MSTORE DUP7 SWAP1 PUSH32 0xF27FAAE2ACD1EBCA672F8CA0D896F3E0EB13164004932B3FBCFC2547167C8BB7 SWAP1 PUSH1 0x20 ADD PUSH1 0x40 MLOAD DUP1 SWAP2 SUB SWAP1 LOG2 POP POP POP POP POP POP JUMP JUMPDEST PUSH1 0x0 PUSH1 0x3 DUP3 DUP2 SLOAD DUP2 LT PUSH2 0x197D JUMPI PUSH2 0x197D PUSH2 0x2260 JUMP JUMPDEST PUSH1 0x0 SWAP2 DUP3 MSTORE PUSH1 0x20 SWAP1 SWAP2 KECCAK256 PUSH1 0xA PUSH1 0xB SWAP1 SWAP3 MUL ADD SWAP1 DUP2 ADD DUP1 SLOAD PUSH1 0xFF NOT AND PUSH1 0x1 OR SWAP1 SSTORE DUP1 SLOAD PUSH1 0x3 DUP3 ADD SLOAD PUSH1 0x2 DUP4 ADD SLOAD SWAP3 SWAP4 POP PUSH2 0x19C3 SWAP3 PUSH1 0x1 PUSH1 0x1 PUSH1 0xA0 SHL SUB SWAP1 DUP2 AND SWAP3 AND SWAP1 PUSH2 0x1A4E JUMP JUMPDEST PUSH1 0x1 DUP2 ADD SLOAD PUSH1 0x3 DUP3 ADD SLOAD PUSH1 0x2 DUP4 ADD SLOAD PUSH2 0xC8D SWAP3 PUSH1 0x1 PUSH1 0x1 PUSH1 0xA0 SHL SUB SWAP2 DUP3 AND SWAP3 SWAP2 AND SWAP1 PUSH2 0x1A4E JUMP JUMPDEST DUP2 MLOAD PUSH1 0x20 DUP1 DUP5 ADD SWAP2 SWAP1 SWAP2 KECCAK256 PUSH1 0x0 DUP2 DUP2 MSTORE SWAP2 DUP3 SWAP1 MSTORE PUSH1 0x40 SWAP2 DUP3 SWAP1 KECCAK256 DUP1 SLOAD PUSH1 0xFF NOT AND DUP5 ISZERO ISZERO OR SWAP1 SSTORE SWAP1 MLOAD PUSH32 0x71597D70B120B69B2ED3763B127F0F73D5475CD67F32065088360E0586A8B250 SWAP1 PUSH2 0x1A41 SWAP1 DUP6 SWAP1 DUP6 SWAP1 PUSH2 0x2345 JUMP JUMPDEST PUSH1 0x40 MLOAD DUP1 SWAP2 SUB SWAP1 LOG1 POP POP POP JUMP JUMPDEST PUSH1 0x40 MLOAD PUSH1 0x1 PUSH1 0x1 PUSH1 0xA0 SHL SUB DUP4 DUP2 AND PUSH1 0x24 DUP4 ADD MSTORE PUSH1 0x44 DUP3 ADD DUP4 SWAP1 MSTORE PUSH2 0xAC1 SWAP2 DUP6 SWAP2 DUP3 AND SWAP1 PUSH4 0xA9059CBB SWAP1 PUSH1 0x64 ADD PUSH2 0x16DD JUMP JUMPDEST PUSH2 0x1A87 PUSH2 0x1DF1 JUMP JUMPDEST PUSH1 0x0 JUMPDEST PUSH1 0x3 DUP2 LT ISZERO PUSH2 0x1AEA JUMPI DUP3 DUP2 PUSH1 0x3 DUP2 LT PUSH2 0x1AA5 JUMPI PUSH2 0x1AA5 PUSH2 0x2260 JUMP JUMPDEST PUSH1 0x20 MUL DUP2 ADD SWAP1 PUSH2 0x1AB5 SWAP2 SWAP1 PUSH2 0x22AA JUMP JUMPDEST PUSH1 0x40 MLOAD PUSH2 0x1AC3 SWAP3 SWAP2 SWAP1 PUSH2 0x239C JUMP JUMPDEST PUSH1 0x40 MLOAD DUP1 SWAP2 SUB SWAP1 KECCAK256 DUP3 DUP3 PUSH1 0x3 DUP2 LT PUSH2 0x1ADD JUMPI PUSH2 0x1ADD PUSH2 0x2260 JUMP JUMPDEST PUSH1 0x20 MUL ADD MSTORE PUSH1 0x1 ADD PUSH2 0x1A8A JUMP JUMPDEST POP PUSH1 0x0 JUMPDEST PUSH1 0x3 DUP2 LT ISZERO PUSH2 0xAC1 JUMPI PUSH1 0x0 DUP1 DUP4 DUP4 PUSH1 0x3 DUP2 LT PUSH2 0x1B0C JUMPI PUSH2 0x1B0C PUSH2 0x2260 JUMP JUMPDEST PUSH1 0x20 SWAP1 DUP2 MUL SWAP2 SWAP1 SWAP2 ADD MLOAD DUP3 MSTORE DUP2 ADD SWAP2 SWAP1 SWAP2 MSTORE PUSH1 0x40 ADD PUSH1 0x0 KECCAK256 SLOAD PUSH1 0xFF AND ISZERO PUSH2 0x1BC4 JUMPI PUSH1 0x0 DUP1 JUMPDEST PUSH1 0x3 DUP2 LT ISZERO PUSH2 0x1B83 JUMPI DUP4 DUP4 PUSH1 0x3 DUP2 LT PUSH2 0x1B4C JUMPI PUSH2 0x1B4C PUSH2 0x2260 JUMP JUMPDEST PUSH1 0x20 MUL ADD MLOAD DUP5 DUP3 PUSH1 0x3 DUP2 LT PUSH2 0x1B63 JUMPI PUSH2 0x1B63 PUSH2 0x2260 JUMP JUMPDEST PUSH1 0x20 MUL ADD MLOAD SUB PUSH2 0x1B7B JUMPI DUP2 PUSH2 0x1B77 DUP2 PUSH2 0x23AC JUMP JUMPDEST SWAP3 POP POP JUMPDEST PUSH1 0x1 ADD PUSH2 0x1B31 JUMP JUMPDEST POP PUSH1 0x1 DUP2 GT ISZERO PUSH2 0x1BC2 JUMPI PUSH1 0x40 MLOAD PUSH3 0x461BCD PUSH1 0xE5 SHL DUP2 MSTORE PUSH1 0x20 PUSH1 0x4 DUP3 ADD MSTORE PUSH1 0xA PUSH1 0x24 DUP3 ADD MSTORE PUSH10 0x5261726974792064757 PUSH1 0xB4 SHL PUSH1 0x44 DUP3 ADD MSTORE PUSH1 0x64 ADD PUSH2 0x4DB JUMP JUMPDEST POP JUMPDEST PUSH1 0x1 ADD PUSH2 0x1AEE JUMP JUMPDEST PUSH1 0x0 JUMPDEST PUSH1 0x3 DUP2 LT ISZERO PUSH2 0x170F JUMPI DUP4 PUSH1 0x1 PUSH1 0x1 PUSH1 0xA0 SHL SUB AND DUP4 DUP3 PUSH1 0x3 DUP2 LT PUSH2 0x1BF4 JUMPI PUSH2 0x1BF4 PUSH2 0x2260 JUMP JUMPDEST PUSH1 0x20 MUL ADD PUSH1 0x20 DUP2 ADD SWAP1 PUSH2 0x1C07 SWAP2 SWAP1 PUSH2 0x1E75 JUMP JUMPDEST PUSH1 0x1 PUSH1 0x1 PUSH1 0xA0 SHL SUB AND PUSH4 0x6352211E DUP5 DUP5 PUSH1 0x3 DUP2 LT PUSH2 0x1C27 JUMPI PUSH2 0x1C27 PUSH2 0x2260 JUMP JUMPDEST PUSH1 0x20 MUL ADD CALLDATALOAD PUSH1 0x40 MLOAD DUP3 PUSH4 0xFFFFFFFF AND PUSH1 0xE0 SHL DUP2 MSTORE PUSH1 0x4 ADD PUSH2 0x1C4A SWAP2 DUP2 MSTORE PUSH1 0x20 ADD SWAP1 JUMP JUMPDEST PUSH1 0x20 PUSH1 0x40 MLOAD DUP1 DUP4 SUB DUP2 DUP7 GAS STATICCALL ISZERO DUP1 ISZERO PUSH2 0x1C67 JUMPI RETURNDATASIZE PUSH1 0x0 DUP1 RETURNDATACOPY RETURNDATASIZE PUSH1 0x0 REVERT JUMPDEST POP POP POP POP PUSH1 0x40 MLOAD RETURNDATASIZE PUSH1 0x1F NOT PUSH1 0x1F DUP3 ADD AND DUP3 ADD DUP1 PUSH1 0x40 MSTORE POP DUP2 ADD SWAP1 PUSH2 0x1C8B SWAP2 SWAP1 PUSH2 0x23C5 JUMP JUMPDEST PUSH1 0x1 PUSH1 0x1 PUSH1 0xA0 SHL SUB AND EQ PUSH2 0x1CD1 JUMPI PUSH1 0x40 MLOAD PUSH3 0x461BCD PUSH1 0xE5 SHL DUP2 MSTORE PUSH1 0x20 PUSH1 0x4 DUP3 ADD MSTORE PUSH1 0xD PUSH1 0x24 DUP3 ADD MSTORE PUSH13 0x2737BA1027232A1037BBB732B9 PUSH1 0x99 SHL PUSH1 0x44 DUP3 ADD MSTORE PUSH1 0x64 ADD PUSH2 0x4DB JUMP JUMPDEST PUSH1 0x1 ADD PUSH2 0x1BCF JUMP JUMPDEST PUSH1 0x0 DUP4 PUSH2 0x1CE9 PUSH1 0x20 DUP6 ADD DUP6 PUSH2 0x1E75 JUMP JUMPDEST PUSH2 0x1CF9 PUSH1 0x40 DUP7 ADD PUSH1 0x20 DUP8 ADD PUSH2 0x1E75 JUMP JUMPDEST PUSH2 0x1D09 PUSH1 0x60 DUP8 ADD PUSH1 0x40 DUP9 ADD PUSH2 0x1E75 JUMP JUMPDEST PUSH1 0x40 DUP1 MLOAD PUSH1 0x20 DUP2 DUP2 ADD SWAP7 SWAP1 SWAP7 MSTORE PUSH1 0x60 SWAP5 DUP6 SHL PUSH12 0xFFFFFFFFFFFFFFFFFFFFFFFF NOT SWAP1 DUP2 AND DUP3 DUP5 ADD MSTORE SWAP4 DUP6 SHL DUP5 AND PUSH1 0x54 DUP3 ADD MSTORE SWAP2 SWAP1 SWAP4 SHL SWAP1 SWAP2 AND PUSH1 0x68 DUP3 ADD MSTORE DUP5 CALLDATALOAD PUSH1 0x7C DUP3 ADD MSTORE SWAP2 DUP5 ADD CALLDATALOAD PUSH1 0x9C DUP4 ADD MSTORE DUP4 ADD CALLDATALOAD PUSH1 0xBC DUP3 ADD MSTORE PUSH1 0xDC ADD PUSH1 0x40 MLOAD PUSH1 0x20 DUP2 DUP4 SUB SUB DUP2 MSTORE SWAP1 PUSH1 0x40 MSTORE DUP1 MLOAD SWAP1 PUSH1 0x20 ADD KECCAK256 SWAP1 POP SWAP4 SWAP3 POP POP POP JUMP JUMPDEST PUSH1 0x0 DUP1 PUSH1 0x20 PUSH1 0x0 DUP5 MLOAD PUSH1 0x20 DUP7 ADD PUSH1 0x0 DUP9 GAS CALL DUP1 PUSH2 0x1DA3 JUMPI PUSH1 0x40 MLOAD RETURNDATASIZE PUSH1 0x0 DUP3 RETURNDATACOPY RETURNDATASIZE DUP2 REVERT JUMPDEST POP POP PUSH1 0x0 MLOAD RETURNDATASIZE SWAP2 POP DUP2 ISZERO PUSH2 0x1DBB JUMPI DUP1 PUSH1 0x1 EQ ISZERO PUSH2 0x1DC8 JUMP JUMPDEST PUSH1 0x1 PUSH1 0x1 PUSH1 0xA0 SHL SUB DUP5 AND EXTCODESIZE ISZERO JUMPDEST ISZERO PUSH2 0x170F JUMPI PUSH1 0x40 MLOAD PUSH4 0x5274AFE7 PUSH1 0xE0 SHL DUP2 MSTORE PUSH1 0x1 PUSH1 0x1 PUSH1 0xA0 SHL SUB DUP6 AND PUSH1 0x4 DUP3 ADD MSTORE PUSH1 0x24 ADD PUSH2 0x4DB JUMP JUMPDEST PUSH1 0x40 MLOAD DUP1 PUSH1 0x60 ADD PUSH1 0x40 MSTORE DUP1 PUSH1 0x3 SWAP1 PUSH1 0x20 DUP3 MUL DUP1 CALLDATASIZE DUP4 CALLDATACOPY POP SWAP2 SWAP3 SWAP2 POP POP JUMP JUMPDEST PUSH1 0x1 PUSH1 0x1 PUSH1 0xA0 SHL SUB DUP2 AND DUP2 EQ PUSH2 0x1E24 JUMPI PUSH1 0x0 DUP1 REVERT JUMPDEST POP JUMP JUMPDEST PUSH1 0x0 DUP1 PUSH1 0x0 PUSH1 0x60 DUP5 DUP7 SUB SLT ISZERO PUSH2 0x1E3C JUMPI PUSH1 0x0 DUP1 REVERT JUMPDEST DUP4 CALLDATALOAD PUSH2 0x1E47 DUP2 PUSH2 0x1E0F JUMP JUMPDEST SWAP6 PUSH1 0x20 DUP6 ADD CALLDATALOAD SWAP6 POP PUSH1 0x40 SWAP1 SWAP5 ADD CALLDATALOAD SWAP4 SWAP3 POP POP POP JUMP JUMPDEST PUSH1 0x0 PUSH1 0x20 DUP3 DUP5 SUB SLT ISZERO PUSH2 0x1E6E JUMPI PUSH1 0x0 DUP1 REVERT JUMPDEST POP CALLDATALOAD SWAP2 SWAP1 POP JUMP JUMPDEST PUSH1 0x0 PUSH1 0x20 DUP3 DUP5 SUB SLT ISZERO PUSH2 0x1E87 JUMPI PUSH1 0x0 DUP1 REVERT JUMPDEST DUP2 CALLDATALOAD PUSH2 0x1E92 DUP2 PUSH2 0x1E0F JUMP JUMPDEST SWAP4 SWAP3 POP POP POP JUMP JUMPDEST PUSH4 0x4E487B71 PUSH1 0xE0 SHL PUSH1 0x0 MSTORE PUSH1 0x41 PUSH1 0x4 MSTORE PUSH1 0x24 PUSH1 0x0 REVERT JUMPDEST PUSH1 0x0 PUSH1 0x20 DUP3 DUP5 SUB SLT ISZERO PUSH2 0x1EC1 JUMPI PUSH1 0x0 DUP1 REVERT JUMPDEST DUP2 CALLDATALOAD PUSH8 0xFFFFFFFFFFFFFFFF DUP1 DUP3 GT ISZERO PUSH2 0x1ED9 JUMPI PUSH1 0x0 DUP1 REVERT JUMPDEST DUP2 DUP5 ADD SWAP2 POP DUP5 PUSH1 0x1F DUP4 ADD SLT PUSH2 0x1EED JUMPI PUSH1 0x0 DUP1 REVERT JUMPDEST DUP2 CALLDATALOAD DUP2 DUP2 GT ISZERO PUSH2 0x1EFF JUMPI PUSH2 0x1EFF PUSH2 0x1E99 JUMP JUMPDEST PUSH1 0x40 MLOAD PUSH1 0x1F DUP3 ADD PUSH1 0x1F NOT SWAP1 DUP2 AND PUSH1 0x3F ADD AND DUP2 ADD SWAP1 DUP4 DUP3 GT DUP2 DUP4 LT OR ISZERO PUSH2 0x1F27 JUMPI PUSH2 0x1F27 PUSH2 0x1E99 JUMP JUMPDEST DUP2 PUSH1 0x40 MSTORE DUP3 DUP2 MSTORE DUP8 PUSH1 0x20 DUP5 DUP8 ADD ADD GT ISZERO PUSH2 0x1F40 JUMPI PUSH1 0x0 DUP1 REVERT JUMPDEST DUP3 PUSH1 0x20 DUP7 ADD PUSH1 0x20 DUP4 ADD CALLDATACOPY PUSH1 0x0 SWAP3 DUP2 ADD PUSH1 0x20 ADD SWAP3 SWAP1 SWAP3 MSTORE POP SWAP6 SWAP5 POP POP POP POP POP JUMP JUMPDEST DUP1 CALLDATALOAD DUP1 ISZERO ISZERO DUP2 EQ PUSH2 0x1F70 JUMPI PUSH1 0x0 DUP1 REVERT JUMPDEST SWAP2 SWAP1 POP JUMP JUMPDEST PUSH1 0x0 DUP1 PUSH1 0x0 PUSH1 0x40 DUP5 DUP7 SUB SLT ISZERO PUSH2 0x1F8A JUMPI PUSH1 0x0 DUP1 REVERT JUMPDEST DUP4 CALLDATALOAD PUSH8 0xFFFFFFFFFFFFFFFF DUP1 DUP3 GT ISZERO PUSH2 0x1FA2 JUMPI PUSH1 0x0 DUP1 REVERT JUMPDEST DUP2 DUP7 ADD SWAP2 POP DUP7 PUSH1 0x1F DUP4 ADD SLT PUSH2 0x1FB6 JUMPI PUSH1 0x0 DUP1 REVERT JUMPDEST DUP2 CALLDATALOAD DUP2 DUP2 GT ISZERO PUSH2 0x1FC5 JUMPI PUSH1 0x0 DUP1 REVERT JUMPDEST DUP8 PUSH1 0x20 DUP3 DUP6 ADD ADD GT ISZERO PUSH2 0x1FD7 JUMPI PUSH1 0x0 DUP1 REVERT JUMPDEST PUSH1 0x20 SWAP3 DUP4 ADD SWAP6 POP SWAP4 POP PUSH2 0x1FED SWAP2 DUP7 ADD SWAP1 POP PUSH2 0x1F60 JUMP JUMPDEST SWAP1 POP SWAP3 POP SWAP3 POP SWAP3 JUMP JUMPDEST PUSH1 0x0 DUP1 PUSH1 0x40 DUP4 DUP6 SUB SLT ISZERO PUSH2 0x2009 JUMPI PUSH1 0x0 DUP1 REVERT JUMPDEST DUP3 CALLDATALOAD PUSH2 0x2014 DUP2 PUSH2 0x1E0F JUMP JUMPDEST SWAP2 POP PUSH2 0x2022 PUSH1 0x20 DUP5 ADD PUSH2 0x1F60 JUMP JUMPDEST SWAP1 POP SWAP3 POP SWAP3 SWAP1 POP JUMP JUMPDEST PUSH1 0x0 DUP1 PUSH1 0x0 DUP1 PUSH1 0x0 PUSH1 0xA0 DUP7 DUP9 SUB SLT ISZERO PUSH2 0x2043 JUMPI PUSH1 0x0 DUP1 REVERT JUMPDEST DUP6 CALLDATALOAD SWAP5 POP PUSH1 0x20 DUP7 ADD CALLDATALOAD SWAP4 POP PUSH1 0x40 DUP7 ADD CALLDATALOAD PUSH1 0xFF DUP2 AND DUP2 EQ PUSH2 0x2062 JUMPI PUSH1 0x0 DUP1 REVERT JUMPDEST SWAP5 SWAP8 SWAP4 SWAP7 POP SWAP4 SWAP5 PUSH1 0x60 DUP2 ADD CALLDATALOAD SWAP5 POP PUSH1 0x80 ADD CALLDATALOAD SWAP3 SWAP2 POP POP JUMP JUMPDEST PUSH1 0x0 DUP1 PUSH1 0x40 DUP4 DUP6 SUB SLT ISZERO PUSH2 0x208D JUMPI PUSH1 0x0 DUP1 REVERT JUMPDEST POP POP DUP1 CALLDATALOAD SWAP3 PUSH1 0x20 SWAP1 SWAP2 ADD CALLDATALOAD SWAP2 POP JUMP JUMPDEST PUSH1 0x0 DUP1 PUSH1 0x40 DUP4 DUP6 SUB SLT ISZERO PUSH2 0x20AF JUMPI PUSH1 0x0 DUP1 REVERT JUMPDEST DUP3 CALLDATALOAD SWAP2 POP PUSH1 0x20 DUP4 ADD CALLDATALOAD PUSH2 0x20C1 DUP2 PUSH2 0x1E0F JUMP JUMPDEST DUP1 SWAP2 POP POP SWAP3 POP SWAP3 SWAP1 POP JUMP JUMPDEST DUP1 PUSH1 0x60 DUP2 ADD DUP4 LT ISZERO PUSH2 0x20DD JUMPI PUSH1 0x0 DUP1 REVERT JUMPDEST SWAP3 SWAP2 POP POP JUMP JUMPDEST PUSH1 0x0 DUP1 PUSH1 0x0 DUP1 PUSH1 0x0 PUSH2 0x120 DUP7 DUP9 SUB SLT ISZERO PUSH2 0x20FC JUMPI PUSH1 0x0 DUP1 REVERT JUMPDEST DUP6 CALLDATALOAD SWAP5 POP PUSH1 0x20 DUP7 ADD CALLDATALOAD SWAP4 POP PUSH2 0x2114 DUP8 PUSH1 0x40 DUP9 ADD PUSH2 0x20CC JUMP JUMPDEST SWAP3 POP PUSH2 0x2123 DUP8 PUSH1 0xA0 DUP9 ADD PUSH2 0x20CC JUMP JUMPDEST SWAP2 POP PUSH2 0x100 DUP7 ADD CALLDATALOAD PUSH8 0xFFFFFFFFFFFFFFFF DUP2 GT ISZERO PUSH2 0x2140 JUMPI PUSH1 0x0 DUP1 REVERT JUMPDEST PUSH2 0x214C DUP9 DUP3 DUP10 ADD PUSH2 0x20CC JUMP JUMPDEST SWAP2 POP POP SWAP3 SWAP6 POP SWAP3 SWAP6 SWAP1 SWAP4 POP JUMP JUMPDEST PUSH1 0x0 DUP1 DUP4 PUSH1 0x1F DUP5 ADD SLT PUSH2 0x216B JUMPI PUSH1 0x0 DUP1 REVERT JUMPDEST POP DUP2 CALLDATALOAD PUSH8 0xFFFFFFFFFFFFFFFF DUP2 GT ISZERO PUSH2 0x2183 JUMPI PUSH1 0x0 DUP1 REVERT JUMPDEST PUSH1 0x20 DUP4 ADD SWAP2 POP DUP4 PUSH1 0x20 DUP3 PUSH1 0x5 SHL DUP6 ADD ADD GT ISZERO PUSH2 0x219E JUMPI PUSH1 0x0 DUP1 REVERT JUMPDEST SWAP3 POP SWAP3 SWAP1 POP JUMP JUMPDEST PUSH1 0x0 DUP1 PUSH1 0x0 DUP1 PUSH1 0x40 DUP6 DUP8 SUB SLT ISZERO PUSH2 0x21BB JUMPI PUSH1 0x0 DUP1 REVERT JUMPDEST DUP5 CALLDATALOAD PUSH8 0xFFFFFFFFFFFFFFFF DUP1 DUP3 GT ISZERO PUSH2 0x21D3 JUMPI PUSH1 0x0 DUP1 REVERT JUMPDEST PUSH2 0x21DF DUP9 DUP4 DUP10 ADD PUSH2 0x2159 JUMP JUMPDEST SWAP1 SWAP7 POP SWAP5 POP PUSH1 0x20 DUP8 ADD CALLDATALOAD SWAP2 POP DUP1 DUP3 GT ISZERO PUSH2 0x21F8 JUMPI PUSH1 0x0 DUP1 REVERT JUMPDEST POP PUSH2 0x2205 DUP8 DUP3 DUP9 ADD PUSH2 0x2159 JUMP JUMPDEST SWAP6 SWAP9 SWAP5 SWAP8 POP SWAP6 POP POP POP POP JUMP JUMPDEST PUSH4 0x4E487B71 PUSH1 0xE0 SHL PUSH1 0x0 MSTORE PUSH1 0x11 PUSH1 0x4 MSTORE PUSH1 0x24 PUSH1 0x0 REVERT JUMPDEST DUP2 DUP2 SUB DUP2 DUP2 GT ISZERO PUSH2 0x20DD JUMPI PUSH2 0x20DD PUSH2 0x2211 JUMP JUMPDEST PUSH1 0x20 DUP1 DUP3 MSTORE PUSH1 0xC SWAP1 DUP3 ADD MSTORE PUSH12 0x5A65726F2061646472657373 PUSH1 0xA0 SHL PUSH1 0x40 DUP3 ADD MSTORE PUSH1 0x60 ADD SWAP1 JUMP JUMPDEST PUSH4 0x4E487B71 PUSH1 0xE0 SHL PUSH1 0x0 MSTORE PUSH1 0x32 PUSH1 0x4 MSTORE PUSH1 0x24 PUSH1 0x0 REVERT JUMPDEST PUSH1 0x20 DUP1 DUP3 MSTORE PUSH1 0x7 SWAP1 DUP3 ADD MSTORE PUSH7 0x14D95D1D1B1959 PUSH1 0xCA SHL PUSH1 0x40 DUP3 ADD MSTORE PUSH1 0x60 ADD SWAP1 JUMP JUMPDEST DUP1 DUP3 ADD DUP1 DUP3 GT ISZERO PUSH2 0x20DD JUMPI PUSH2 0x20DD PUSH2 0x2211 JUMP JUMPDEST PUSH1 0x0 DUP1 DUP4 CALLDATALOAD PUSH1 0x1E NOT DUP5 CALLDATASIZE SUB ADD DUP2 SLT PUSH2 0x22C1 JUMPI PUSH1 0x0 DUP1 REVERT JUMPDEST DUP4 ADD DUP1 CALLDATALOAD SWAP2 POP PUSH8 0xFFFFFFFFFFFFFFFF DUP3 GT ISZERO PUSH2 0x22DC JUMPI PUSH1 0x0 DUP1 REVERT JUMPDEST PUSH1 0x20 ADD SWAP2 POP CALLDATASIZE DUP2 SWAP1 SUB DUP3 SGT ISZERO PUSH2 0x219E JUMPI PUSH1 0x0 DUP1 REVERT JUMPDEST PUSH1 0x0 PUSH1 0x20 DUP3 DUP5 SUB SLT ISZERO PUSH2 0x2303 JUMPI PUSH1 0x0 DUP1 REVERT JUMPDEST PUSH2 0x1E92 DUP3 PUSH2 0x1F60 JUMP JUMPDEST DUP1 DUP3 MUL DUP2 ISZERO DUP3 DUP3 DIV DUP5 EQ OR PUSH2 0x20DD JUMPI PUSH2 0x20DD PUSH2 0x2211 JUMP JUMPDEST PUSH1 0x0 DUP3 PUSH2 0x2340 JUMPI PUSH4 0x4E487B71 PUSH1 0xE0 SHL PUSH1 0x0 MSTORE PUSH1 0x12 PUSH1 0x4 MSTORE PUSH1 0x24 PUSH1 0x0 REVERT JUMPDEST POP DIV SWAP1 JUMP JUMPDEST PUSH1 0x40 DUP2 MSTORE PUSH1 0x0 DUP4 MLOAD DUP1 PUSH1 0x40 DUP5 ADD MSTORE PUSH1 0x0 JUMPDEST DUP2 DUP2 LT ISZERO PUSH2 0x2373 JUMPI PUSH1 0x20 DUP2 DUP8 ADD DUP2 ADD MLOAD PUSH1 0x60 DUP7 DUP5 ADD ADD MSTORE ADD PUSH2 0x2356 JUMP JUMPDEST POP PUSH1 0x0 PUSH1 0x60 DUP3 DUP6 ADD ADD MSTORE PUSH1 0x60 PUSH1 0x1F NOT PUSH1 0x1F DUP4 ADD AND DUP5 ADD ADD SWAP2 POP POP DUP3 ISZERO ISZERO PUSH1 0x20 DUP4 ADD MSTORE SWAP4 SWAP3 POP POP POP JUMP JUMPDEST DUP2 DUP4 DUP3 CALLDATACOPY PUSH1 0x0 SWAP2 ADD SWAP1 DUP2 MSTORE SWAP2 SWAP1 POP JUMP JUMPDEST PUSH1 0x0 PUSH1 0x1 DUP3 ADD PUSH2 0x23BE JUMPI PUSH2 0x23BE PUSH2 0x2211 JUMP JUMPDEST POP PUSH1 0x1 ADD SWAP1 JUMP JUMPDEST PUSH1 0x0 PUSH1 0x20 DUP3 DUP5 SUB SLT ISZERO PUSH2 0x23D7 JUMPI PUSH1 0x0 DUP1 REVERT JUMPDEST DUP2 MLOAD PUSH2 0x1E92 DUP2 PUSH2 0x1E0F JUMP INVALID LOG2 PUSH5 0x6970667358 0x22 SLT KECCAK256 ADDRESS COINBASE MLOAD 0xCF 0xB2 0xC0 GAS MLOAD 0xD8 0xF8 MLOAD REVERT EQ 0xB3 0xE1 DUP13 0x4C SWAP4 0xD6 0x26 0xE9 PUSH10 0x4E16872640B12D1F75B3 PUSH5 0x736F6C6343 STOP ADDMOD XOR STOP CALLER "
				},
				"gasEstimates": {
					"creation": {
						"codeDepositCost": "1848000",
						"executionCost": "infinite",
						"totalCost": "infinite"
					},
					"external": {
						"COMMIT_TYPEHASH()": "262",
						"DOMAIN_SEPARATOR()": "2340",
						"REVEAL_WINDOW()": "329",
						"allowedERC20(address)": "2615",
						"backendWinner(uint256)": "2566",
						"cancelUnjoinedGame(uint256)": "infinite",
						"createGame(address,uint256,bytes32)": "infinite",
						"forceCancelUnjoinedGame(uint256)": "infinite",
						"games(uint256)": "26103",
						"gamesLength()": "2338",
						"hostWallet()": "2381",
						"isRestrictedRarity(string)": "infinite",
						"joinGame(uint256,bytes32)": "infinite",
						"owner()": "2404",
						"platformFee()": "2363",
						"postWinner(uint256,address)": "36994",
						"reveal(uint256,uint256,address[3],uint256[3],string[3])": "infinite",
						"setAllowedERC20(address,bool)": "26948",
						"setHostWallet(address)": "30461",
						"setPlatformFee(uint256)": "24558",
						"setRestrictedRarities(string[],bool[])": "infinite",
						"setRestrictedRarity(string,bool)": "infinite",
						"setTeamWallet(address)": "30506",
						"settleGame(uint256)": "infinite",
						"submitCommit(uint256,bytes32,uint8,bytes32,bytes32)": "infinite",
						"teamWallet()": "2383",
						"transferOwnership(address)": "30460"
					},
					"internal": {
						"_checkOwnership(address,address[3] calldata,uint256[3] calldata)": "infinite",
						"_computeCommit(uint256,address[3] calldata,uint256[3] calldata)": "infinite",
						"_payout(uint256,address)": "infinite",
						"_refund(uint256)": "infinite"
					}
				},
				"methodIdentifiers": {
					"COMMIT_TYPEHASH()": "37479beb",
					"DOMAIN_SEPARATOR()": "3644e515",
					"REVEAL_WINDOW()": "17e931cf",
					"allowedERC20(address)": "14f8fb9b",
					"backendWinner(uint256)": "4c7b0754",
					"cancelUnjoinedGame(uint256)": "8a75233c",
					"createGame(address,uint256,bytes32)": "03b55dac",
					"forceCancelUnjoinedGame(uint256)": "f63d71e8",
					"games(uint256)": "117a5b90",
					"gamesLength()": "20eba3f2",
					"hostWallet()": "f013035c",
					"isRestrictedRarity(string)": "4e714ac3",
					"joinGame(uint256,bytes32)": "ac952671",
					"owner()": "8da5cb5b",
					"platformFee()": "26232a2e",
					"postWinner(uint256,address)": "b710c52c",
					"reveal(uint256,uint256,address[3],uint256[3],string[3])": "da6636cc",
					"setAllowedERC20(address,bool)": "78150b06",
					"setHostWallet(address)": "d20fd070",
					"setPlatformFee(uint256)": "12e8e2c3",
					"setRestrictedRarities(string[],bool[])": "f969e592",
					"setRestrictedRarity(string,bool)": "6093ae62",
					"setTeamWallet(address)": "1525ff7d",
					"settleGame(uint256)": "312d7bbc",
					"submitCommit(uint256,bytes32,uint8,bytes32,bytes32)": "a8a6196f",
					"teamWallet()": "59927044",
					"transferOwnership(address)": "f2fde38b"
				}
			},
			"storageLayout": {
				"storage": [
					{
						"astId": 2003,
						"contract": "contracts/CoreClashGameV2.sol:CoreClashGame",
						"label": "restrictedRarity",
						"offset": 0,
						"slot": "0",
						"type": "t_mapping(t_bytes32,t_bool)"
					},
					{
						"astId": 2005,
						"contract": "contracts/CoreClashGameV2.sol:CoreClashGame",
						"label": "owner",
						"offset": 0,
						"slot": "1",
						"type": "t_address"
					},
					{
						"astId": 782,
						"contract": "contracts/CoreClashGameV2.sol:CoreClashGame",
						"label": "DOMAIN_SEPARATOR",
						"offset": 0,
						"slot": "2",
						"type": "t_bytes32"
					},
					{
						"astId": 811,
						"contract": "contracts/CoreClashGameV2.sol:CoreClashGame",
						"label": "games",
						"offset": 0,
						"slot": "3",
						"type": "t_array(t_struct(Game)807_storage)dyn_storage"
					},
					{
						"astId": 815,
						"contract": "contracts/CoreClashGameV2.sol:CoreClashGame",
						"label": "allowedERC20",
						"offset": 0,
						"slot": "4",
						"type": "t_mapping(t_address,t_bool)"
					},
					{
						"astId": 819,
						"contract": "contracts/CoreClashGameV2.sol:CoreClashGame",
						"label": "backendWinner",
						"offset": 0,
						"slot": "5",
						"type": "t_mapping(t_uint256,t_address)"
					},
					{
						"astId": 821,
						"contract": "contracts/CoreClashGameV2.sol:CoreClashGame",
						"label": "teamWallet",
						"offset": 0,
						"slot": "6",
						"type": "t_address"
					},
					{
						"astId": 823,
						"contract": "contracts/CoreClashGameV2.sol:CoreClashGame",
						"label": "platformFee",
						"offset": 0,
						"slot": "7",
						"type": "t_uint256"
					},
					{
						"astId": 825,
						"contract": "contracts/CoreClashGameV2.sol:CoreClashGame",
						"label": "hostWallet",
						"offset": 0,
						"slot": "8",
						"type": "t_address"
					}
				],
				"types": {
					"t_address": {
						"encoding": "inplace",
						"label": "address",
						"numberOfBytes": "20"
					},
					"t_array(t_struct(Game)807_storage)dyn_storage": {
						"base": "t_struct(Game)807_storage",
						"encoding": "dynamic_array",
						"label": "struct CoreClashGame.Game[]",
						"numberOfBytes": "32"
					},
					"t_bool": {
						"encoding": "inplace",
						"label": "bool",
						"numberOfBytes": "1"
					},
					"t_bytes32": {
						"encoding": "inplace",
						"label": "bytes32",
						"numberOfBytes": "32"
					},
					"t_mapping(t_address,t_bool)": {
						"encoding": "mapping",
						"key": "t_address",
						"label": "mapping(address => bool)",
						"numberOfBytes": "32",
						"value": "t_bool"
					},
					"t_mapping(t_bytes32,t_bool)": {
						"encoding": "mapping",
						"key": "t_bytes32",
						"label": "mapping(bytes32 => bool)",
						"numberOfBytes": "32",
						"value": "t_bool"
					},
					"t_mapping(t_uint256,t_address)": {
						"encoding": "mapping",
						"key": "t_uint256",
						"label": "mapping(uint256 => address)",
						"numberOfBytes": "32",
						"value": "t_address"
					},
					"t_struct(Game)807_storage": {
						"encoding": "inplace",
						"label": "struct CoreClashGame.Game",
						"members": [
							{
								"astId": 784,
								"contract": "contracts/CoreClashGameV2.sol:CoreClashGame",
								"label": "player1",
								"offset": 0,
								"slot": "0",
								"type": "t_address"
							},
							{
								"astId": 786,
								"contract": "contracts/CoreClashGameV2.sol:CoreClashGame",
								"label": "player2",
								"offset": 0,
								"slot": "1",
								"type": "t_address"
							},
							{
								"astId": 788,
								"contract": "contracts/CoreClashGameV2.sol:CoreClashGame",
								"label": "stakeToken",
								"offset": 0,
								"slot": "2",
								"type": "t_address"
							},
							{
								"astId": 790,
								"contract": "contracts/CoreClashGameV2.sol:CoreClashGame",
								"label": "stakeAmount",
								"offset": 0,
								"slot": "3",
								"type": "t_uint256"
							},
							{
								"astId": 792,
								"contract": "contracts/CoreClashGameV2.sol:CoreClashGame",
								"label": "player1Commit",
								"offset": 0,
								"slot": "4",
								"type": "t_bytes32"
							},
							{
								"astId": 794,
								"contract": "contracts/CoreClashGameV2.sol:CoreClashGame",
								"label": "player2Commit",
								"offset": 0,
								"slot": "5",
								"type": "t_bytes32"
							},
							{
								"astId": 796,
								"contract": "contracts/CoreClashGameV2.sol:CoreClashGame",
								"label": "player1Revealed",
								"offset": 0,
								"slot": "6",
								"type": "t_bool"
							},
							{
								"astId": 798,
								"contract": "contracts/CoreClashGameV2.sol:CoreClashGame",
								"label": "player2Revealed",
								"offset": 1,
								"slot": "6",
								"type": "t_bool"
							},
							{
								"astId": 800,
								"contract": "contracts/CoreClashGameV2.sol:CoreClashGame",
								"label": "createdAt",
								"offset": 0,
								"slot": "7",
								"type": "t_uint256"
							},
							{
								"astId": 802,
								"contract": "contracts/CoreClashGameV2.sol:CoreClashGame",
								"label": "joinTimestamp",
								"offset": 0,
								"slot": "8",
								"type": "t_uint256"
							},
							{
								"astId": 804,
								"contract": "contracts/CoreClashGameV2.sol:CoreClashGame",
								"label": "revealDeadline",
								"offset": 0,
								"slot": "9",
								"type": "t_uint256"
							},
							{
								"astId": 806,
								"contract": "contracts/CoreClashGameV2.sol:CoreClashGame",
								"label": "settled",
								"offset": 0,
								"slot": "10",
								"type": "t_bool"
							}
						],
						"numberOfBytes": "352"
					},
					"t_uint256": {
						"encoding": "inplace",
						"label": "uint256",
						"numberOfBytes": "32"
					}
				}
			},
			"userdoc": {
				"kind": "user",
				"methods": {
					"cancelUnjoinedGame(uint256)": {
						"notice": "Allows the creator to cancel a game that has not been joined yet"
					},
					"forceCancelUnjoinedGame(uint256)": {
						"notice": "Allows the contract owner (admin) to force-cancel any unjoined game"
					}
				},
				"version": 1
			}
		}
	}
}