{
	"contracts/erevos/ErevosFeeReflection.sol": {
		"AetherScionsFeeReflection": {
			"abi": [
				{
					"inputs": [
						{
							"internalType": "address",
							"name": "v3RouterAddr",
							"type": "address"
						},
						{
							"internalType": "address",
							"name": "v2RouterAddr",
							"type": "address"
						},
						{
							"internalType": "address",
							"name": "_club",
							"type": "address"
						},
						{
							"internalType": "address",
							"name": "_coreToken",
							"type": "address"
						},
						{
							"internalType": "address",
							"name": "_wetn",
							"type": "address"
						},
						{
							"internalType": "address",
							"name": "_owner",
							"type": "address"
						},
						{
							"internalType": "address payable",
							"name": "_coreWallet",
							"type": "address"
						},
						{
							"internalType": "address",
							"name": "_erevosNFT",
							"type": "address"
						}
					],
					"stateMutability": "nonpayable",
					"type": "constructor"
				},
				{
					"inputs": [
						{
							"internalType": "address",
							"name": "owner",
							"type": "address"
						}
					],
					"name": "OwnableInvalidOwner",
					"type": "error"
				},
				{
					"inputs": [
						{
							"internalType": "address",
							"name": "account",
							"type": "address"
						}
					],
					"name": "OwnableUnauthorizedAccount",
					"type": "error"
				},
				{
					"inputs": [],
					"name": "ReentrancyGuardReentrantCall",
					"type": "error"
				},
				{
					"anonymous": false,
					"inputs": [
						{
							"indexed": false,
							"internalType": "uint256",
							"name": "clubBurned",
							"type": "uint256"
						}
					],
					"name": "ClubBuyAndBurn",
					"type": "event"
				},
				{
					"anonymous": false,
					"inputs": [
						{
							"indexed": false,
							"internalType": "uint256",
							"name": "coreBurned",
							"type": "uint256"
						}
					],
					"name": "CoreBuyAndBurn",
					"type": "event"
				},
				{
					"anonymous": false,
					"inputs": [
						{
							"indexed": false,
							"internalType": "uint256",
							"name": "amount",
							"type": "uint256"
						},
						{
							"indexed": false,
							"internalType": "address",
							"name": "to",
							"type": "address"
						}
					],
					"name": "ETHRescued",
					"type": "event"
				},
				{
					"anonymous": false,
					"inputs": [
						{
							"indexed": false,
							"internalType": "uint256",
							"name": "amountIn",
							"type": "uint256"
						},
						{
							"indexed": false,
							"internalType": "uint256",
							"name": "coreShare",
							"type": "uint256"
						},
						{
							"indexed": false,
							"internalType": "uint256",
							"name": "clubShare",
							"type": "uint256"
						},
						{
							"indexed": false,
							"internalType": "uint256",
							"name": "nftShare",
							"type": "uint256"
						}
					],
					"name": "FeeProcessed",
					"type": "event"
				},
				{
					"anonymous": false,
					"inputs": [
						{
							"indexed": false,
							"internalType": "address",
							"name": "nftContract",
							"type": "address"
						}
					],
					"name": "NFTUnwhitelisted",
					"type": "event"
				},
				{
					"anonymous": false,
					"inputs": [
						{
							"indexed": false,
							"internalType": "address",
							"name": "nftContract",
							"type": "address"
						}
					],
					"name": "NFTWhitelisted",
					"type": "event"
				},
				{
					"anonymous": false,
					"inputs": [
						{
							"indexed": true,
							"internalType": "address",
							"name": "previousOwner",
							"type": "address"
						},
						{
							"indexed": true,
							"internalType": "address",
							"name": "newOwner",
							"type": "address"
						}
					],
					"name": "OwnershipTransferred",
					"type": "event"
				},
				{
					"anonymous": false,
					"inputs": [
						{
							"indexed": false,
							"internalType": "address",
							"name": "token",
							"type": "address"
						},
						{
							"indexed": false,
							"internalType": "uint256",
							"name": "amount",
							"type": "uint256"
						},
						{
							"indexed": false,
							"internalType": "address",
							"name": "to",
							"type": "address"
						}
					],
					"name": "TokensRescued",
					"type": "event"
				},
				{
					"stateMutability": "payable",
					"type": "fallback"
				},
				{
					"inputs": [],
					"name": "BURN_ADDRESS",
					"outputs": [
						{
							"internalType": "address",
							"name": "",
							"type": "address"
						}
					],
					"stateMutability": "view",
					"type": "function"
				},
				{
					"inputs": [],
					"name": "DEAD_ADDRESS",
					"outputs": [
						{
							"internalType": "address",
							"name": "",
							"type": "address"
						}
					],
					"stateMutability": "view",
					"type": "function"
				},
				{
					"inputs": [],
					"name": "WETN",
					"outputs": [
						{
							"internalType": "address",
							"name": "",
							"type": "address"
						}
					],
					"stateMutability": "view",
					"type": "function"
				},
				{
					"inputs": [
						{
							"internalType": "address",
							"name": "nftContract",
							"type": "address"
						}
					],
					"name": "addWhitelistedNFT",
					"outputs": [],
					"stateMutability": "nonpayable",
					"type": "function"
				},
				{
					"inputs": [],
					"name": "autoBuyAndBurn",
					"outputs": [
						{
							"internalType": "bool",
							"name": "",
							"type": "bool"
						}
					],
					"stateMutability": "view",
					"type": "function"
				},
				{
					"inputs": [],
					"name": "autoBuyAndBurnCore",
					"outputs": [
						{
							"internalType": "bool",
							"name": "",
							"type": "bool"
						}
					],
					"stateMutability": "view",
					"type": "function"
				},
				{
					"inputs": [],
					"name": "club",
					"outputs": [
						{
							"internalType": "address",
							"name": "",
							"type": "address"
						}
					],
					"stateMutability": "view",
					"type": "function"
				},
				{
					"inputs": [],
					"name": "clubBalance",
					"outputs": [
						{
							"internalType": "uint256",
							"name": "",
							"type": "uint256"
						}
					],
					"stateMutability": "view",
					"type": "function"
				},
				{
					"inputs": [],
					"name": "coreBalance",
					"outputs": [
						{
							"internalType": "uint256",
							"name": "",
							"type": "uint256"
						}
					],
					"stateMutability": "view",
					"type": "function"
				},
				{
					"inputs": [],
					"name": "coreToken",
					"outputs": [
						{
							"internalType": "address",
							"name": "",
							"type": "address"
						}
					],
					"stateMutability": "view",
					"type": "function"
				},
				{
					"inputs": [],
					"name": "coreWallet",
					"outputs": [
						{
							"internalType": "address payable",
							"name": "",
							"type": "address"
						}
					],
					"stateMutability": "view",
					"type": "function"
				},
				{
					"inputs": [],
					"name": "erevosNFT",
					"outputs": [
						{
							"internalType": "address",
							"name": "",
							"type": "address"
						}
					],
					"stateMutability": "view",
					"type": "function"
				},
				{
					"inputs": [
						{
							"internalType": "address",
							"name": "nftContract",
							"type": "address"
						}
					],
					"name": "isWhitelistedNFT",
					"outputs": [
						{
							"internalType": "bool",
							"name": "",
							"type": "bool"
						}
					],
					"stateMutability": "view",
					"type": "function"
				},
				{
					"inputs": [],
					"name": "manualBuyAndBurn",
					"outputs": [],
					"stateMutability": "nonpayable",
					"type": "function"
				},
				{
					"inputs": [],
					"name": "manualBuyAndBurnCore",
					"outputs": [],
					"stateMutability": "nonpayable",
					"type": "function"
				},
				{
					"inputs": [],
					"name": "nftBalance",
					"outputs": [
						{
							"internalType": "uint256",
							"name": "",
							"type": "uint256"
						}
					],
					"stateMutability": "view",
					"type": "function"
				},
				{
					"inputs": [],
					"name": "owner",
					"outputs": [
						{
							"internalType": "address",
							"name": "",
							"type": "address"
						}
					],
					"stateMutability": "view",
					"type": "function"
				},
				{
					"inputs": [],
					"name": "processIncomingTokens",
					"outputs": [],
					"stateMutability": "nonpayable",
					"type": "function"
				},
				{
					"inputs": [
						{
							"internalType": "address",
							"name": "nftContract",
							"type": "address"
						}
					],
					"name": "removeWhitelistedNFT",
					"outputs": [],
					"stateMutability": "nonpayable",
					"type": "function"
				},
				{
					"inputs": [],
					"name": "renounceOwnership",
					"outputs": [],
					"stateMutability": "nonpayable",
					"type": "function"
				},
				{
					"inputs": [
						{
							"internalType": "uint256",
							"name": "amount",
							"type": "uint256"
						},
						{
							"internalType": "address payable",
							"name": "to",
							"type": "address"
						}
					],
					"name": "rescueETH",
					"outputs": [],
					"stateMutability": "nonpayable",
					"type": "function"
				},
				{
					"inputs": [
						{
							"internalType": "address",
							"name": "token",
							"type": "address"
						},
						{
							"internalType": "uint256",
							"name": "amount",
							"type": "uint256"
						},
						{
							"internalType": "address",
							"name": "to",
							"type": "address"
						}
					],
					"name": "rescueTokens",
					"outputs": [],
					"stateMutability": "nonpayable",
					"type": "function"
				},
				{
					"inputs": [
						{
							"internalType": "bool",
							"name": "_autoBuyAndBurn",
							"type": "bool"
						}
					],
					"name": "setAutoBuyAndBurn",
					"outputs": [],
					"stateMutability": "nonpayable",
					"type": "function"
				},
				{
					"inputs": [
						{
							"internalType": "bool",
							"name": "_autoBuyAndBurnCore",
							"type": "bool"
						}
					],
					"name": "setAutoBuyAndBurnCore",
					"outputs": [],
					"stateMutability": "nonpayable",
					"type": "function"
				},
				{
					"inputs": [
						{
							"internalType": "address",
							"name": "newOwner",
							"type": "address"
						}
					],
					"name": "transferOwnership",
					"outputs": [],
					"stateMutability": "nonpayable",
					"type": "function"
				},
				{
					"inputs": [
						{
							"internalType": "address",
							"name": "",
							"type": "address"
						}
					],
					"name": "whitelistedNFTs",
					"outputs": [
						{
							"internalType": "bool",
							"name": "",
							"type": "bool"
						}
					],
					"stateMutability": "view",
					"type": "function"
				},
				{
					"inputs": [],
					"name": "withdrawCore",
					"outputs": [],
					"stateMutability": "nonpayable",
					"type": "function"
				},
				{
					"stateMutability": "payable",
					"type": "receive"
				}
			],
			"devdoc": {
				"errors": {
					"OwnableInvalidOwner(address)": [
						{
							"details": "The owner is not a valid owner account. (eg. `address(0)`)"
						}
					],
					"OwnableUnauthorizedAccount(address)": [
						{
							"details": "The caller account is not authorized to perform an operation."
						}
					],
					"ReentrancyGuardReentrantCall()": [
						{
							"details": "Unauthorized reentrant call."
						}
					]
				},
				"kind": "dev",
				"methods": {
					"owner()": {
						"details": "Returns the address of the current owner."
					},
					"renounceOwnership()": {
						"details": "Leaves the contract without owner. It will not be possible to call `onlyOwner` functions. Can only be called by the current owner. NOTE: Renouncing ownership will leave the contract without an owner, thereby disabling any functionality that is only available to the owner."
					},
					"transferOwnership(address)": {
						"details": "Transfers ownership of the contract to a new account (`newOwner`). Can only be called by the current owner."
					}
				},
				"version": 1
			},
			"evm": {
				"assembly": "    /* \"contracts/erevos/ErevosFeeReflection.sol\":178:10932  contract AetherScionsFeeReflection is ReentrancyGuard, Ownable {... */\n  mstore(0x40, 0x0180)\n    /* \"contracts/erevos/ErevosFeeReflection.sol\":777:819  0x000000000000000000000000000000000000dEaD */\n  0xdead\n    /* \"contracts/erevos/ErevosFeeReflection.sol\":737:819  address public immutable DEAD_ADDRESS = 0x000000000000000000000000000000000000dEaD */\n  0xffffffffffffffffffffffffffffffffffffffff\n  and\n  0x0100\n  swap1\n  0xffffffffffffffffffffffffffffffffffffffff\n  and\n  dup2\n  mstore\n  pop\n    /* \"contracts/erevos/ErevosFeeReflection.sol\":875:876  0 */\n  0x00\n    /* \"contracts/erevos/ErevosFeeReflection.sol\":827:877  address public immutable BURN_ADDRESS = address(0) */\n  0xffffffffffffffffffffffffffffffffffffffff\n  and\n  0x0120\n  swap1\n  0xffffffffffffffffffffffffffffffffffffffff\n  and\n  dup2\n  mstore\n  pop\n    /* \"contracts/erevos/ErevosFeeReflection.sol\":994:998  3000 */\n  0x0bb8\n    /* \"contracts/erevos/ErevosFeeReflection.sol\":959:998  uint24 private immutable poolFee = 3000 */\n  0xffffff\n  and\n  0x0160\n  swap1\n  0xffffff\n  and\n  dup2\n  mstore\n  pop\n    /* \"contracts/erevos/ErevosFeeReflection.sol\":2274:2979  constructor(... */\n  callvalue\n  dup1\n  iszero\n  tag_1\n  jumpi\n  0x00\n  dup1\n  revert\ntag_1:\n  pop\n  mload(0x40)\n  sub(codesize, bytecodeSize)\n  dup1\n  bytecodeSize\n  dup4\n  codecopy\n  dup2\n  dup2\n  add\n  0x40\n  mstore\n  dup2\n  add\n  swap1\n  tag_2\n  swap2\n  swap1\n  tag_3\n  jump\t// in\ntag_2:\n    /* \"contracts/erevos/ErevosFeeReflection.sol\":2584:2590  _owner */\n  dup3\n    /* \"@openzeppelin/contracts/utils/ReentrancyGuard.sol\":2365:2366  1 */\n  0x01\n    /* \"@openzeppelin/contracts/utils/ReentrancyGuard.sol\":2539:2585  _reentrancyGuardStorageSlot().getUint256Slot() */\n  tag_8\n    /* \"@openzeppelin/contracts/utils/ReentrancyGuard.sol\":2539:2568  _reentrancyGuardStorageSlot() */\n  tag_9\n    /* \"@openzeppelin/contracts/utils/ReentrancyGuard.sol\":2539:2566  _reentrancyGuardStorageSlot */\n  shl(0x20, tag_10)\n    /* \"@openzeppelin/contracts/utils/ReentrancyGuard.sol\":2539:2568  _reentrancyGuardStorageSlot() */\n  0x20\n  shr\n  jump\t// in\ntag_9:\n    /* \"@openzeppelin/contracts/utils/ReentrancyGuard.sol\":2539:2583  _reentrancyGuardStorageSlot().getUint256Slot */\n  shl(0x20, tag_11)\n    /* \"@openzeppelin/contracts/utils/ReentrancyGuard.sol\":2539:2585  _reentrancyGuardStorageSlot().getUint256Slot() */\n  0x20\n  shr\n  jump\t// in\ntag_8:\n    /* \"@openzeppelin/contracts/utils/ReentrancyGuard.sol\":2539:2591  _reentrancyGuardStorageSlot().getUint256Slot().value */\n  0x00\n  add\n    /* \"@openzeppelin/contracts/utils/ReentrancyGuard.sol\":2539:2605  _reentrancyGuardStorageSlot().getUint256Slot().value = NOT_ENTERED */\n  dup2\n  swap1\n  sstore\n  pop\n    /* \"@openzeppelin/contracts/access/Ownable.sol\":1297:1298  0 */\n  0x00\n    /* \"@openzeppelin/contracts/access/Ownable.sol\":1273:1299  initialOwner == address(0) */\n  0xffffffffffffffffffffffffffffffffffffffff\n  and\n    /* \"@openzeppelin/contracts/access/Ownable.sol\":1273:1285  initialOwner */\n  dup2\n    /* \"@openzeppelin/contracts/access/Ownable.sol\":1273:1299  initialOwner == address(0) */\n  0xffffffffffffffffffffffffffffffffffffffff\n  and\n  sub\n    /* \"@openzeppelin/contracts/access/Ownable.sol\":1269:1364  if (initialOwner == address(0)) {... */\n  tag_13\n  jumpi\n    /* \"@openzeppelin/contracts/access/Ownable.sol\":1350:1351  0 */\n  0x00\n    /* \"@openzeppelin/contracts/access/Ownable.sol\":1322:1353  OwnableInvalidOwner(address(0)) */\n  mload(0x40)\n  0x1e4fbdf700000000000000000000000000000000000000000000000000000000\n  dup2\n  mstore\n  0x04\n  add\n  tag_14\n  swap2\n  swap1\n  tag_15\n  jump\t// in\ntag_14:\n  mload(0x40)\n  dup1\n  swap2\n  sub\n  swap1\n  revert\n    /* \"@openzeppelin/contracts/access/Ownable.sol\":1269:1364  if (initialOwner == address(0)) {... */\ntag_13:\n    /* \"@openzeppelin/contracts/access/Ownable.sol\":1373:1405  _transferOwnership(initialOwner) */\n  tag_16\n    /* \"@openzeppelin/contracts/access/Ownable.sol\":1392:1404  initialOwner */\n  dup2\n    /* \"@openzeppelin/contracts/access/Ownable.sol\":1373:1391  _transferOwnership */\n  shl(0x20, tag_17)\n    /* \"@openzeppelin/contracts/access/Ownable.sol\":1373:1405  _transferOwnership(initialOwner) */\n  0x20\n  shr\n  jump\t// in\ntag_16:\n    /* \"@openzeppelin/contracts/access/Ownable.sol\":1225:1412  constructor(address initialOwner) {... */\n  pop\n    /* \"contracts/erevos/ErevosFeeReflection.sol\":2623:2635  v3RouterAddr */\n  dup8\n    /* \"contracts/erevos/ErevosFeeReflection.sol\":2603:2611  v3Router */\n  0x01\n  0x00\n    /* \"contracts/erevos/ErevosFeeReflection.sol\":2603:2636  v3Router = V3Router(v3RouterAddr) */\n  0x0100\n  exp\n  dup2\n  sload\n  dup2\n  0xffffffffffffffffffffffffffffffffffffffff\n  mul\n  not\n  and\n  swap1\n  dup4\n  0xffffffffffffffffffffffffffffffffffffffff\n  and\n  mul\n  or\n  swap1\n  sstore\n  pop\n    /* \"contracts/erevos/ErevosFeeReflection.sol\":2674:2686  v2RouterAddr */\n  dup7\n    /* \"contracts/erevos/ErevosFeeReflection.sol\":2647:2655  v2Router */\n  0x02\n  0x00\n    /* \"contracts/erevos/ErevosFeeReflection.sol\":2647:2687  v2Router = UniswapV2Router(v2RouterAddr) */\n  0x0100\n  exp\n  dup2\n  sload\n  dup2\n  0xffffffffffffffffffffffffffffffffffffffff\n  mul\n  not\n  and\n  swap1\n  dup4\n  0xffffffffffffffffffffffffffffffffffffffff\n  and\n  mul\n  or\n  swap1\n  sstore\n  pop\n    /* \"contracts/erevos/ErevosFeeReflection.sol\":2727:2732  _club */\n  dup6\n    /* \"contracts/erevos/ErevosFeeReflection.sol\":2720:2732  club = _club */\n  0xffffffffffffffffffffffffffffffffffffffff\n  and\n  0xa0\n  dup2\n  0xffffffffffffffffffffffffffffffffffffffff\n  and\n  dup2\n  mstore\n  pop\n  pop\n    /* \"contracts/erevos/ErevosFeeReflection.sol\":2755:2765  _coreToken */\n  dup5\n    /* \"contracts/erevos/ErevosFeeReflection.sol\":2743:2765  coreToken = _coreToken */\n  0xffffffffffffffffffffffffffffffffffffffff\n  and\n  0xc0\n  dup2\n  0xffffffffffffffffffffffffffffffffffffffff\n  and\n  dup2\n  mstore\n  pop\n  pop\n    /* \"contracts/erevos/ErevosFeeReflection.sol\":2806:2811  _wetn */\n  dup4\n    /* \"contracts/erevos/ErevosFeeReflection.sol\":2799:2811  WETN = _wetn */\n  0xffffffffffffffffffffffffffffffffffffffff\n  and\n  0xe0\n  dup2\n  0xffffffffffffffffffffffffffffffffffffffff\n  and\n  dup2\n  mstore\n  pop\n  pop\n    /* \"contracts/erevos/ErevosFeeReflection.sol\":2835:2846  _coreWallet */\n  dup2\n    /* \"contracts/erevos/ErevosFeeReflection.sol\":2822:2846  coreWallet = _coreWallet */\n  0xffffffffffffffffffffffffffffffffffffffff\n  and\n  0x80\n  dup2\n  0xffffffffffffffffffffffffffffffffffffffff\n  and\n  dup2\n  mstore\n  pop\n  pop\n    /* \"contracts/erevos/ErevosFeeReflection.sol\":2874:2878  true */\n  0x01\n    /* \"contracts/erevos/ErevosFeeReflection.sol\":2857:2871  autoBuyAndBurn */\n  0x07\n  0x00\n    /* \"contracts/erevos/ErevosFeeReflection.sol\":2857:2878  autoBuyAndBurn = true */\n  0x0100\n  exp\n  dup2\n  sload\n  dup2\n  0xff\n  mul\n  not\n  and\n  swap1\n  dup4\n  iszero\n  iszero\n  mul\n  or\n  swap1\n  sstore\n  pop\n    /* \"contracts/erevos/ErevosFeeReflection.sol\":2910:2914  true */\n  0x01\n    /* \"contracts/erevos/ErevosFeeReflection.sol\":2889:2907  autoBuyAndBurnCore */\n  0x07\n  0x01\n    /* \"contracts/erevos/ErevosFeeReflection.sol\":2889:2914  autoBuyAndBurnCore = true */\n  0x0100\n  exp\n  dup2\n  sload\n  dup2\n  0xff\n  mul\n  not\n  and\n  swap1\n  dup4\n  iszero\n  iszero\n  mul\n  or\n  swap1\n  sstore\n  pop\n    /* \"contracts/erevos/ErevosFeeReflection.sol\":2961:2971  _erevosNFT */\n  dup1\n    /* \"contracts/erevos/ErevosFeeReflection.sol\":2949:2971  erevosNFT = _erevosNFT */\n  0xffffffffffffffffffffffffffffffffffffffff\n  and\n  0x0140\n  dup2\n  0xffffffffffffffffffffffffffffffffffffffff\n  and\n  dup2\n  mstore\n  pop\n  pop\n    /* \"contracts/erevos/ErevosFeeReflection.sol\":2274:2979  constructor(... */\n  pop\n  pop\n  pop\n  pop\n  pop\n  pop\n  pop\n  pop\n    /* \"contracts/erevos/ErevosFeeReflection.sol\":178:10932  contract AetherScionsFeeReflection is ReentrancyGuard, Ownable {... */\n  jump(tag_19)\n    /* \"@openzeppelin/contracts/utils/ReentrancyGuard.sol\":4636:4763  function _reentrancyGuardStorageSlot() internal pure virtual returns (bytes32) {... */\ntag_10:\n    /* \"@openzeppelin/contracts/utils/ReentrancyGuard.sol\":4706:4713  bytes32 */\n  0x00\n    /* \"@openzeppelin/contracts/utils/ReentrancyGuard.sol\":1505:1571  0x9b779b17422d0df92223018b32b4d1fa46e071723d6817e2486d003becc55f00 */\n  0x9b779b17422d0df92223018b32b4d1fa46e071723d6817e2486d003becc55f00\n    /* \"@openzeppelin/contracts/utils/ReentrancyGuard.sol\":4732:4756  REENTRANCY_GUARD_STORAGE */\n  0x00\n  shl\n    /* \"@openzeppelin/contracts/utils/ReentrancyGuard.sol\":4725:4756  return REENTRANCY_GUARD_STORAGE */\n  swap1\n  pop\n    /* \"@openzeppelin/contracts/utils/ReentrancyGuard.sol\":4636:4763  function _reentrancyGuardStorageSlot() internal pure virtual returns (bytes32) {... */\n  swap1\n  jump\t// out\n    /* \"@openzeppelin/contracts/utils/StorageSlot.sol\":2679:2842  function getUint256Slot(bytes32 slot) internal pure returns (Uint256Slot storage r) {... */\ntag_11:\n    /* \"@openzeppelin/contracts/utils/StorageSlot.sol\":2740:2761  Uint256Slot storage r */\n  0x00\n    /* \"@openzeppelin/contracts/utils/StorageSlot.sol\":2822:2826  slot */\n  dup2\n    /* \"@openzeppelin/contracts/utils/StorageSlot.sol\":2812:2826  r.slot := slot */\n  swap1\n  pop\n    /* \"@openzeppelin/contracts/utils/StorageSlot.sol\":2679:2842  function getUint256Slot(bytes32 slot) internal pure returns (Uint256Slot storage r) {... */\n  swap2\n  swap1\n  pop\n  jump\t// out\n    /* \"@openzeppelin/contracts/access/Ownable.sol\":2912:3099  function _transferOwnership(address newOwner) internal virtual {... */\ntag_17:\n    /* \"@openzeppelin/contracts/access/Ownable.sol\":2985:3001  address oldOwner */\n  0x00\n    /* \"@openzeppelin/contracts/access/Ownable.sol\":3004:3010  _owner */\n  dup1\n  0x00\n  swap1\n  sload\n  swap1\n  0x0100\n  exp\n  swap1\n  div\n  0xffffffffffffffffffffffffffffffffffffffff\n  and\n    /* \"@openzeppelin/contracts/access/Ownable.sol\":2985:3010  address oldOwner = _owner */\n  swap1\n  pop\n    /* \"@openzeppelin/contracts/access/Ownable.sol\":3029:3037  newOwner */\n  dup2\n    /* \"@openzeppelin/contracts/access/Ownable.sol\":3020:3026  _owner */\n  0x00\n  dup1\n    /* \"@openzeppelin/contracts/access/Ownable.sol\":3020:3037  _owner = newOwner */\n  0x0100\n  exp\n  dup2\n  sload\n  dup2\n  0xffffffffffffffffffffffffffffffffffffffff\n  mul\n  not\n  and\n  swap1\n  dup4\n  0xffffffffffffffffffffffffffffffffffffffff\n  and\n  mul\n  or\n  swap1\n  sstore\n  pop\n    /* \"@openzeppelin/contracts/access/Ownable.sol\":3083:3091  newOwner */\n  dup2\n    /* \"@openzeppelin/contracts/access/Ownable.sol\":3052:3092  OwnershipTransferred(oldOwner, newOwner) */\n  0xffffffffffffffffffffffffffffffffffffffff\n  and\n    /* \"@openzeppelin/contracts/access/Ownable.sol\":3073:3081  oldOwner */\n  dup2\n    /* \"@openzeppelin/contracts/access/Ownable.sol\":3052:3092  OwnershipTransferred(oldOwner, newOwner) */\n  0xffffffffffffffffffffffffffffffffffffffff\n  and\n  0x8be0079c531659141344cd1fd0a4f28419497f9722a3daafe3b4186f6b6457e0\n  mload(0x40)\n  mload(0x40)\n  dup1\n  swap2\n  sub\n  swap1\n  log3\n    /* \"@openzeppelin/contracts/access/Ownable.sol\":2975:3099  {... */\n  pop\n    /* \"@openzeppelin/contracts/access/Ownable.sol\":2912:3099  function _transferOwnership(address newOwner) internal virtual {... */\n  pop\n  jump\t// out\n    /* \"#utility.yul\":88:205   */\ntag_24:\n    /* \"#utility.yul\":197:198   */\n  0x00\n    /* \"#utility.yul\":194:195   */\n  dup1\n    /* \"#utility.yul\":187:199   */\n  revert\n    /* \"#utility.yul\":334:460   */\ntag_26:\n    /* \"#utility.yul\":371:378   */\n  0x00\n    /* \"#utility.yul\":411:453   */\n  0xffffffffffffffffffffffffffffffffffffffff\n    /* \"#utility.yul\":404:409   */\n  dup3\n    /* \"#utility.yul\":400:454   */\n  and\n    /* \"#utility.yul\":389:454   */\n  swap1\n  pop\n    /* \"#utility.yul\":334:460   */\n  swap2\n  swap1\n  pop\n  jump\t// out\n    /* \"#utility.yul\":466:562   */\ntag_27:\n    /* \"#utility.yul\":503:510   */\n  0x00\n    /* \"#utility.yul\":532:556   */\n  tag_40\n    /* \"#utility.yul\":550:555   */\n  dup3\n    /* \"#utility.yul\":532:556   */\n  tag_26\n  jump\t// in\ntag_40:\n    /* \"#utility.yul\":521:556   */\n  swap1\n  pop\n    /* \"#utility.yul\":466:562   */\n  swap2\n  swap1\n  pop\n  jump\t// out\n    /* \"#utility.yul\":568:690   */\ntag_28:\n    /* \"#utility.yul\":641:665   */\n  tag_42\n    /* \"#utility.yul\":659:664   */\n  dup2\n    /* \"#utility.yul\":641:665   */\n  tag_27\n  jump\t// in\ntag_42:\n    /* \"#utility.yul\":634:639   */\n  dup2\n    /* \"#utility.yul\":631:666   */\n  eq\n    /* \"#utility.yul\":621:684   */\n  tag_43\n  jumpi\n    /* \"#utility.yul\":680:681   */\n  0x00\n    /* \"#utility.yul\":677:678   */\n  dup1\n    /* \"#utility.yul\":670:682   */\n  revert\n    /* \"#utility.yul\":621:684   */\ntag_43:\n    /* \"#utility.yul\":568:690   */\n  pop\n  jump\t// out\n    /* \"#utility.yul\":696:839   */\ntag_29:\n    /* \"#utility.yul\":753:758   */\n  0x00\n    /* \"#utility.yul\":784:790   */\n  dup2\n    /* \"#utility.yul\":778:791   */\n  mload\n    /* \"#utility.yul\":769:791   */\n  swap1\n  pop\n    /* \"#utility.yul\":800:833   */\n  tag_45\n    /* \"#utility.yul\":827:832   */\n  dup2\n    /* \"#utility.yul\":800:833   */\n  tag_28\n  jump\t// in\ntag_45:\n    /* \"#utility.yul\":696:839   */\n  swap3\n  swap2\n  pop\n  pop\n  jump\t// out\n    /* \"#utility.yul\":845:949   */\ntag_30:\n    /* \"#utility.yul\":890:897   */\n  0x00\n    /* \"#utility.yul\":919:943   */\n  tag_47\n    /* \"#utility.yul\":937:942   */\n  dup3\n    /* \"#utility.yul\":919:943   */\n  tag_26\n  jump\t// in\ntag_47:\n    /* \"#utility.yul\":908:943   */\n  swap1\n  pop\n    /* \"#utility.yul\":845:949   */\n  swap2\n  swap1\n  pop\n  jump\t// out\n    /* \"#utility.yul\":955:1093   */\ntag_31:\n    /* \"#utility.yul\":1036:1068   */\n  tag_49\n    /* \"#utility.yul\":1062:1067   */\n  dup2\n    /* \"#utility.yul\":1036:1068   */\n  tag_30\n  jump\t// in\ntag_49:\n    /* \"#utility.yul\":1029:1034   */\n  dup2\n    /* \"#utility.yul\":1026:1069   */\n  eq\n    /* \"#utility.yul\":1016:1087   */\n  tag_50\n  jumpi\n    /* \"#utility.yul\":1083:1084   */\n  0x00\n    /* \"#utility.yul\":1080:1081   */\n  dup1\n    /* \"#utility.yul\":1073:1085   */\n  revert\n    /* \"#utility.yul\":1016:1087   */\ntag_50:\n    /* \"#utility.yul\":955:1093   */\n  pop\n  jump\t// out\n    /* \"#utility.yul\":1099:1258   */\ntag_32:\n    /* \"#utility.yul\":1164:1169   */\n  0x00\n    /* \"#utility.yul\":1195:1201   */\n  dup2\n    /* \"#utility.yul\":1189:1202   */\n  mload\n    /* \"#utility.yul\":1180:1202   */\n  swap1\n  pop\n    /* \"#utility.yul\":1211:1252   */\n  tag_52\n    /* \"#utility.yul\":1246:1251   */\n  dup2\n    /* \"#utility.yul\":1211:1252   */\n  tag_31\n  jump\t// in\ntag_52:\n    /* \"#utility.yul\":1099:1258   */\n  swap3\n  swap2\n  pop\n  pop\n  jump\t// out\n    /* \"#utility.yul\":1264:2728   */\ntag_3:\n    /* \"#utility.yul\":1405:1411   */\n  0x00\n    /* \"#utility.yul\":1413:1419   */\n  dup1\n    /* \"#utility.yul\":1421:1427   */\n  0x00\n    /* \"#utility.yul\":1429:1435   */\n  dup1\n    /* \"#utility.yul\":1437:1443   */\n  0x00\n    /* \"#utility.yul\":1445:1451   */\n  dup1\n    /* \"#utility.yul\":1453:1459   */\n  0x00\n    /* \"#utility.yul\":1461:1467   */\n  dup1\n    /* \"#utility.yul\":1510:1513   */\n  0x0100\n    /* \"#utility.yul\":1498:1507   */\n  dup10\n    /* \"#utility.yul\":1489:1496   */\n  dup12\n    /* \"#utility.yul\":1485:1508   */\n  sub\n    /* \"#utility.yul\":1481:1514   */\n  slt\n    /* \"#utility.yul\":1478:1598   */\n  iszero\n  tag_54\n  jumpi\n    /* \"#utility.yul\":1517:1596   */\n  tag_55\n  tag_24\n  jump\t// in\ntag_55:\n    /* \"#utility.yul\":1478:1598   */\ntag_54:\n    /* \"#utility.yul\":1637:1638   */\n  0x00\n    /* \"#utility.yul\":1662:1726   */\n  tag_56\n    /* \"#utility.yul\":1718:1725   */\n  dup12\n    /* \"#utility.yul\":1709:1715   */\n  dup3\n    /* \"#utility.yul\":1698:1707   */\n  dup13\n    /* \"#utility.yul\":1694:1716   */\n  add\n    /* \"#utility.yul\":1662:1726   */\n  tag_29\n  jump\t// in\ntag_56:\n    /* \"#utility.yul\":1652:1726   */\n  swap9\n  pop\n    /* \"#utility.yul\":1608:1736   */\n  pop\n    /* \"#utility.yul\":1775:1777   */\n  0x20\n    /* \"#utility.yul\":1801:1865   */\n  tag_57\n    /* \"#utility.yul\":1857:1864   */\n  dup12\n    /* \"#utility.yul\":1848:1854   */\n  dup3\n    /* \"#utility.yul\":1837:1846   */\n  dup13\n    /* \"#utility.yul\":1833:1855   */\n  add\n    /* \"#utility.yul\":1801:1865   */\n  tag_29\n  jump\t// in\ntag_57:\n    /* \"#utility.yul\":1791:1865   */\n  swap8\n  pop\n    /* \"#utility.yul\":1746:1875   */\n  pop\n    /* \"#utility.yul\":1914:1916   */\n  0x40\n    /* \"#utility.yul\":1940:2004   */\n  tag_58\n    /* \"#utility.yul\":1996:2003   */\n  dup12\n    /* \"#utility.yul\":1987:1993   */\n  dup3\n    /* \"#utility.yul\":1976:1985   */\n  dup13\n    /* \"#utility.yul\":1972:1994   */\n  add\n    /* \"#utility.yul\":1940:2004   */\n  tag_29\n  jump\t// in\ntag_58:\n    /* \"#utility.yul\":1930:2004   */\n  swap7\n  pop\n    /* \"#utility.yul\":1885:2014   */\n  pop\n    /* \"#utility.yul\":2053:2055   */\n  0x60\n    /* \"#utility.yul\":2079:2143   */\n  tag_59\n    /* \"#utility.yul\":2135:2142   */\n  dup12\n    /* \"#utility.yul\":2126:2132   */\n  dup3\n    /* \"#utility.yul\":2115:2124   */\n  dup13\n    /* \"#utility.yul\":2111:2133   */\n  add\n    /* \"#utility.yul\":2079:2143   */\n  tag_29\n  jump\t// in\ntag_59:\n    /* \"#utility.yul\":2069:2143   */\n  swap6\n  pop\n    /* \"#utility.yul\":2024:2153   */\n  pop\n    /* \"#utility.yul\":2192:2195   */\n  0x80\n    /* \"#utility.yul\":2219:2283   */\n  tag_60\n    /* \"#utility.yul\":2275:2282   */\n  dup12\n    /* \"#utility.yul\":2266:2272   */\n  dup3\n    /* \"#utility.yul\":2255:2264   */\n  dup13\n    /* \"#utility.yul\":2251:2273   */\n  add\n    /* \"#utility.yul\":2219:2283   */\n  tag_29\n  jump\t// in\ntag_60:\n    /* \"#utility.yul\":2209:2283   */\n  swap5\n  pop\n    /* \"#utility.yul\":2163:2293   */\n  pop\n    /* \"#utility.yul\":2332:2335   */\n  0xa0\n    /* \"#utility.yul\":2359:2423   */\n  tag_61\n    /* \"#utility.yul\":2415:2422   */\n  dup12\n    /* \"#utility.yul\":2406:2412   */\n  dup3\n    /* \"#utility.yul\":2395:2404   */\n  dup13\n    /* \"#utility.yul\":2391:2413   */\n  add\n    /* \"#utility.yul\":2359:2423   */\n  tag_29\n  jump\t// in\ntag_61:\n    /* \"#utility.yul\":2349:2423   */\n  swap4\n  pop\n    /* \"#utility.yul\":2303:2433   */\n  pop\n    /* \"#utility.yul\":2472:2475   */\n  0xc0\n    /* \"#utility.yul\":2499:2571   */\n  tag_62\n    /* \"#utility.yul\":2563:2570   */\n  dup12\n    /* \"#utility.yul\":2554:2560   */\n  dup3\n    /* \"#utility.yul\":2543:2552   */\n  dup13\n    /* \"#utility.yul\":2539:2561   */\n  add\n    /* \"#utility.yul\":2499:2571   */\n  tag_32\n  jump\t// in\ntag_62:\n    /* \"#utility.yul\":2489:2571   */\n  swap3\n  pop\n    /* \"#utility.yul\":2443:2581   */\n  pop\n    /* \"#utility.yul\":2620:2623   */\n  0xe0\n    /* \"#utility.yul\":2647:2711   */\n  tag_63\n    /* \"#utility.yul\":2703:2710   */\n  dup12\n    /* \"#utility.yul\":2694:2700   */\n  dup3\n    /* \"#utility.yul\":2683:2692   */\n  dup13\n    /* \"#utility.yul\":2679:2701   */\n  add\n    /* \"#utility.yul\":2647:2711   */\n  tag_29\n  jump\t// in\ntag_63:\n    /* \"#utility.yul\":2637:2711   */\n  swap2\n  pop\n    /* \"#utility.yul\":2591:2721   */\n  pop\n    /* \"#utility.yul\":1264:2728   */\n  swap3\n  swap6\n  swap9\n  pop\n  swap3\n  swap6\n  swap9\n  swap1\n  swap4\n  swap7\n  pop\n  jump\t// out\n    /* \"#utility.yul\":2734:2852   */\ntag_33:\n    /* \"#utility.yul\":2821:2845   */\n  tag_65\n    /* \"#utility.yul\":2839:2844   */\n  dup2\n    /* \"#utility.yul\":2821:2845   */\n  tag_27\n  jump\t// in\ntag_65:\n    /* \"#utility.yul\":2816:2819   */\n  dup3\n    /* \"#utility.yul\":2809:2846   */\n  mstore\n    /* \"#utility.yul\":2734:2852   */\n  pop\n  pop\n  jump\t// out\n    /* \"#utility.yul\":2858:3080   */\ntag_15:\n    /* \"#utility.yul\":2951:2955   */\n  0x00\n    /* \"#utility.yul\":2989:2991   */\n  0x20\n    /* \"#utility.yul\":2978:2987   */\n  dup3\n    /* \"#utility.yul\":2974:2992   */\n  add\n    /* \"#utility.yul\":2966:2992   */\n  swap1\n  pop\n    /* \"#utility.yul\":3002:3073   */\n  tag_67\n    /* \"#utility.yul\":3070:3071   */\n  0x00\n    /* \"#utility.yul\":3059:3068   */\n  dup4\n    /* \"#utility.yul\":3055:3072   */\n  add\n    /* \"#utility.yul\":3046:3052   */\n  dup5\n    /* \"#utility.yul\":3002:3073   */\n  tag_33\n  jump\t// in\ntag_67:\n    /* \"#utility.yul\":2858:3080   */\n  swap3\n  swap2\n  pop\n  pop\n  jump\t// out\n    /* \"contracts/erevos/ErevosFeeReflection.sol\":178:10932  contract AetherScionsFeeReflection is ReentrancyGuard, Ownable {... */\ntag_19:\n  mload(0x80)\n  mload(0xa0)\n  mload(0xc0)\n  mload(0xe0)\n  mload(0x0100)\n  mload(0x0120)\n  mload(0x0140)\n  mload(0x0160)\n  codecopy(0x00, dataOffset(sub_0), dataSize(sub_0))\n  0x00\n  assignImmutable(\"0xcbed0b1d3a1277a40039319ec662a24e459cebc5a8a67bbe6677be473fa127fe\")\n  0x00\n  assignImmutable(\"0x80b1139a78e0387bfff74bc319d0cecf3afb1f18be7e763c8d59660a3efccbd8\")\n  0x00\n  assignImmutable(\"0x53a567f139fae6361ef1fc50f0d7f0e238715bf9b3b92e292f2870ad590abe18\")\n  0x00\n  assignImmutable(\"0xe3df22c4356e5c0e9f35408e2e38091fb1b723609d1444fe8c117fe874adfde5\")\n  0x00\n  assignImmutable(\"0xecac27c21aa9a89d7be9ad03c2d91e82cbd466284ecdf2bd5bad7f953539cc45\")\n  0x00\n  assignImmutable(\"0x983c9f9923666d71abefd6ca274543532a86910a4b5c1edaaec46ca6b31d59a3\")\n  0x00\n  assignImmutable(\"0x7a80aab8ee1b9114f05440301177d10784c915c9e300d985d7e845429f5da96a\")\n  0x00\n  assignImmutable(\"0xa388062d78f1a2d144017f8c547d4d5d19f402e886d20c722565d2dbced566d6\")\n  return(0x00, dataSize(sub_0))\nstop\n\nsub_0: assembly {\n        /* \"contracts/erevos/ErevosFeeReflection.sol\":178:10932  contract AetherScionsFeeReflection is ReentrancyGuard, Ownable {... */\n      mstore(0x40, 0x80)\n      jumpi(tag_1, lt(calldatasize, 0x04))\n      shr(0xe0, calldataload(0x00))\n      dup1\n      0x715018a6\n      gt\n      tag_30\n      jumpi\n      dup1\n      0xb37fd190\n      gt\n      tag_31\n      jumpi\n      dup1\n      0xdc05a309\n      gt\n      tag_32\n      jumpi\n      dup1\n      0xdc05a309\n      eq\n      tag_26\n      jumpi\n      dup1\n      0xdc1a4d9e\n      eq\n      tag_27\n      jumpi\n      dup1\n      0xf2fde38b\n      eq\n      tag_28\n      jumpi\n      dup1\n      0xfccc2813\n      eq\n      tag_29\n      jumpi\n      jump(tag_2)\n    tag_32:\n      dup1\n      0xb37fd190\n      eq\n      tag_23\n      jumpi\n      dup1\n      0xba779ed5\n      eq\n      tag_24\n      jumpi\n      dup1\n      0xc36554ce\n      eq\n      tag_25\n      jumpi\n      jump(tag_2)\n    tag_31:\n      dup1\n      0x8465093e\n      gt\n      tag_33\n      jumpi\n      dup1\n      0x8465093e\n      eq\n      tag_19\n      jumpi\n      dup1\n      0x8da5cb5b\n      eq\n      tag_20\n      jumpi\n      dup1\n      0xa0558c3f\n      eq\n      tag_21\n      jumpi\n      dup1\n      0xb2b22d5f\n      eq\n      tag_22\n      jumpi\n      jump(tag_2)\n    tag_33:\n      dup1\n      0x715018a6\n      eq\n      tag_16\n      jumpi\n      dup1\n      0x7499aff4\n      eq\n      tag_17\n      jumpi\n      dup1\n      0x7581aa60\n      eq\n      tag_18\n      jumpi\n      jump(tag_2)\n    tag_30:\n      dup1\n      0x3f0c188f\n      gt\n      tag_34\n      jumpi\n      dup1\n      0x57d1fdcd\n      gt\n      tag_35\n      jumpi\n      dup1\n      0x57d1fdcd\n      eq\n      tag_12\n      jumpi\n      dup1\n      0x62ab05e7\n      eq\n      tag_13\n      jumpi\n      dup1\n      0x66650b7b\n      eq\n      tag_14\n      jumpi\n      dup1\n      0x6cdf0e40\n      eq\n      tag_15\n      jumpi\n      jump(tag_2)\n    tag_35:\n      dup1\n      0x3f0c188f\n      eq\n      tag_9\n      jumpi\n      dup1\n      0x4e6fd6c4\n      eq\n      tag_10\n      jumpi\n      dup1\n      0x5301fa6f\n      eq\n      tag_11\n      jumpi\n      jump(tag_2)\n    tag_34:\n      dup1\n      0x0c2b72e9\n      eq\n      tag_3\n      jumpi\n      dup1\n      0x0efd0973\n      eq\n      tag_4\n      jumpi\n      dup1\n      0x138b7338\n      eq\n      tag_5\n      jumpi\n      dup1\n      0x210009cf\n      eq\n      tag_6\n      jumpi\n      dup1\n      0x2b7459b9\n      eq\n      tag_7\n      jumpi\n      dup1\n      0x3d65de44\n      eq\n      tag_8\n      jumpi\n      jump(tag_2)\n    tag_1:\n      jumpi(tag_2, calldatasize)\n        /* \"contracts/erevos/ErevosFeeReflection.sol\":10717:10721  WETN */\n      immutable(\"0xecac27c21aa9a89d7be9ad03c2d91e82cbd466284ecdf2bd5bad7f953539cc45\")\n        /* \"contracts/erevos/ErevosFeeReflection.sol\":10695:10722  msg.sender != address(WETN) */\n      0xffffffffffffffffffffffffffffffffffffffff\n      and\n        /* \"contracts/erevos/ErevosFeeReflection.sol\":10695:10705  msg.sender */\n      caller\n        /* \"contracts/erevos/ErevosFeeReflection.sol\":10695:10722  msg.sender != address(WETN) */\n      0xffffffffffffffffffffffffffffffffffffffff\n      and\n      eq\n        /* \"contracts/erevos/ErevosFeeReflection.sol\":10692:10780  if(msg.sender != address(WETN)){... */\n      tag_38\n      jumpi\n        /* \"contracts/erevos/ErevosFeeReflection.sol\":10738:10768  _processIncomingFee(msg.value) */\n      tag_39\n        /* \"contracts/erevos/ErevosFeeReflection.sol\":10758:10767  msg.value */\n      callvalue\n        /* \"contracts/erevos/ErevosFeeReflection.sol\":10738:10757  _processIncomingFee */\n      tag_40\n        /* \"contracts/erevos/ErevosFeeReflection.sol\":10738:10768  _processIncomingFee(msg.value) */\n      jump\t// in\n    tag_39:\n        /* \"contracts/erevos/ErevosFeeReflection.sol\":10692:10780  if(msg.sender != address(WETN)){... */\n    tag_38:\n        /* \"contracts/erevos/ErevosFeeReflection.sol\":178:10932  contract AetherScionsFeeReflection is ReentrancyGuard, Ownable {... */\n      stop\n    tag_2:\n        /* \"contracts/erevos/ErevosFeeReflection.sol\":10859:10863  WETN */\n      immutable(\"0xecac27c21aa9a89d7be9ad03c2d91e82cbd466284ecdf2bd5bad7f953539cc45\")\n        /* \"contracts/erevos/ErevosFeeReflection.sol\":10837:10864  msg.sender != address(WETN) */\n      0xffffffffffffffffffffffffffffffffffffffff\n      and\n        /* \"contracts/erevos/ErevosFeeReflection.sol\":10837:10847  msg.sender */\n      caller\n        /* \"contracts/erevos/ErevosFeeReflection.sol\":10837:10864  msg.sender != address(WETN) */\n      0xffffffffffffffffffffffffffffffffffffffff\n      and\n      eq\n        /* \"contracts/erevos/ErevosFeeReflection.sol\":10834:10922  if(msg.sender != address(WETN)){... */\n      tag_43\n      jumpi\n        /* \"contracts/erevos/ErevosFeeReflection.sol\":10880:10910  _processIncomingFee(msg.value) */\n      tag_44\n        /* \"contracts/erevos/ErevosFeeReflection.sol\":10900:10909  msg.value */\n      callvalue\n        /* \"contracts/erevos/ErevosFeeReflection.sol\":10880:10899  _processIncomingFee */\n      tag_40\n        /* \"contracts/erevos/ErevosFeeReflection.sol\":10880:10910  _processIncomingFee(msg.value) */\n      jump\t// in\n    tag_44:\n        /* \"contracts/erevos/ErevosFeeReflection.sol\":10834:10922  if(msg.sender != address(WETN)){... */\n    tag_43:\n        /* \"contracts/erevos/ErevosFeeReflection.sol\":178:10932  contract AetherScionsFeeReflection is ReentrancyGuard, Ownable {... */\n      stop\n        /* \"contracts/erevos/ErevosFeeReflection.sol\":543:577  address public immutable coreToken */\n    tag_3:\n      callvalue\n      dup1\n      iszero\n      tag_45\n      jumpi\n      0x00\n      dup1\n      revert\n    tag_45:\n      pop\n      tag_46\n      tag_47\n      jump\t// in\n    tag_46:\n      mload(0x40)\n      tag_48\n      swap2\n      swap1\n      tag_49\n      jump\t// in\n    tag_48:\n      mload(0x40)\n      dup1\n      swap2\n      sub\n      swap1\n      return\n        /* \"contracts/erevos/ErevosFeeReflection.sol\":446:475  address public immutable club */\n    tag_4:\n      callvalue\n      dup1\n      iszero\n      tag_50\n      jumpi\n      0x00\n      dup1\n      revert\n    tag_50:\n      pop\n      tag_51\n      tag_52\n      jump\t// in\n    tag_51:\n      mload(0x40)\n      tag_53\n      swap2\n      swap1\n      tag_49\n      jump\t// in\n    tag_53:\n      mload(0x40)\n      dup1\n      swap2\n      sub\n      swap1\n      return\n        /* \"contracts/erevos/ErevosFeeReflection.sol\":3874:4004  function isWhitelistedNFT(address nftContract) external view returns (bool) {... */\n    tag_5:\n      callvalue\n      dup1\n      iszero\n      tag_54\n      jumpi\n      0x00\n      dup1\n      revert\n    tag_54:\n      pop\n      tag_55\n      0x04\n      dup1\n      calldatasize\n      sub\n      dup2\n      add\n      swap1\n      tag_56\n      swap2\n      swap1\n      tag_57\n      jump\t// in\n    tag_56:\n      tag_58\n      jump\t// in\n    tag_55:\n      mload(0x40)\n      tag_59\n      swap2\n      swap1\n      tag_60\n      jump\t// in\n    tag_59:\n      mload(0x40)\n      dup1\n      swap2\n      sub\n      swap1\n      return\n        /* \"contracts/erevos/ErevosFeeReflection.sol\":3629:3866  function removeWhitelistedNFT(address nftContract) external onlyOwner {... */\n    tag_6:\n      callvalue\n      dup1\n      iszero\n      tag_61\n      jumpi\n      0x00\n      dup1\n      revert\n    tag_61:\n      pop\n      tag_62\n      0x04\n      dup1\n      calldatasize\n      sub\n      dup2\n      add\n      swap1\n      tag_63\n      swap2\n      swap1\n      tag_57\n      jump\t// in\n    tag_63:\n      tag_64\n      jump\t// in\n    tag_62:\n      stop\n        /* \"contracts/erevos/ErevosFeeReflection.sol\":4642:4774  function setAutoBuyAndBurn(bool _autoBuyAndBurn) external onlyOwner nonReentrant {... */\n    tag_7:\n      callvalue\n      dup1\n      iszero\n      tag_65\n      jumpi\n      0x00\n      dup1\n      revert\n    tag_65:\n      pop\n      tag_66\n      0x04\n      dup1\n      calldatasize\n      sub\n      dup2\n      add\n      swap1\n      tag_67\n      swap2\n      swap1\n      tag_68\n      jump\t// in\n    tag_67:\n      tag_69\n      jump\t// in\n    tag_66:\n      stop\n        /* \"contracts/erevos/ErevosFeeReflection.sol\":1449:1475  uint256 public clubBalance */\n    tag_8:\n      callvalue\n      dup1\n      iszero\n      tag_70\n      jumpi\n      0x00\n      dup1\n      revert\n    tag_70:\n      pop\n      tag_71\n      tag_72\n      jump\t// in\n    tag_71:\n      mload(0x40)\n      tag_73\n      swap2\n      swap1\n      tag_74\n      jump\t// in\n    tag_73:\n      mload(0x40)\n      dup1\n      swap2\n      sub\n      swap1\n      return\n        /* \"contracts/erevos/ErevosFeeReflection.sol\":1305:1352  mapping(address => bool) public whitelistedNFTs */\n    tag_9:\n      callvalue\n      dup1\n      iszero\n      tag_75\n      jumpi\n      0x00\n      dup1\n      revert\n    tag_75:\n      pop\n      tag_76\n      0x04\n      dup1\n      calldatasize\n      sub\n      dup2\n      add\n      swap1\n      tag_77\n      swap2\n      swap1\n      tag_57\n      jump\t// in\n    tag_77:\n      tag_78\n      jump\t// in\n    tag_76:\n      mload(0x40)\n      tag_79\n      swap2\n      swap1\n      tag_60\n      jump\t// in\n    tag_79:\n      mload(0x40)\n      dup1\n      swap2\n      sub\n      swap1\n      return\n        /* \"contracts/erevos/ErevosFeeReflection.sol\":737:819  address public immutable DEAD_ADDRESS = 0x000000000000000000000000000000000000dEaD */\n    tag_10:\n      callvalue\n      dup1\n      iszero\n      tag_80\n      jumpi\n      0x00\n      dup1\n      revert\n    tag_80:\n      pop\n      tag_81\n      tag_82\n      jump\t// in\n    tag_81:\n      mload(0x40)\n      tag_83\n      swap2\n      swap1\n      tag_49\n      jump\t// in\n    tag_83:\n      mload(0x40)\n      dup1\n      swap2\n      sub\n      swap1\n      return\n        /* \"contracts/erevos/ErevosFeeReflection.sol\":1515:1540  uint256 public nftBalance */\n    tag_11:\n      callvalue\n      dup1\n      iszero\n      tag_84\n      jumpi\n      0x00\n      dup1\n      revert\n    tag_84:\n      pop\n      tag_85\n      tag_86\n      jump\t// in\n    tag_85:\n      mload(0x40)\n      tag_87\n      swap2\n      swap1\n      tag_74\n      jump\t// in\n    tag_87:\n      mload(0x40)\n      dup1\n      swap2\n      sub\n      swap1\n      return\n        /* \"contracts/erevos/ErevosFeeReflection.sol\":5184:5456  function manualBuyAndBurn() external onlyOwner nonReentrant { // Updated: Now handles both club and core... */\n    tag_12:\n      callvalue\n      dup1\n      iszero\n      tag_88\n      jumpi\n      0x00\n      dup1\n      revert\n    tag_88:\n      pop\n      tag_89\n      tag_90\n      jump\t// in\n    tag_89:\n      stop\n        /* \"contracts/erevos/ErevosFeeReflection.sol\":349:392  address payable public immutable coreWallet */\n    tag_13:\n      callvalue\n      dup1\n      iszero\n      tag_91\n      jumpi\n      0x00\n      dup1\n      revert\n    tag_91:\n      pop\n      tag_92\n      tag_93\n      jump\t// in\n    tag_92:\n      mload(0x40)\n      tag_94\n      swap2\n      swap1\n      tag_95\n      jump\t// in\n    tag_94:\n      mload(0x40)\n      dup1\n      swap2\n      sub\n      swap1\n      return\n        /* \"contracts/erevos/ErevosFeeReflection.sol\":640:669  address public immutable WETN */\n    tag_14:\n      callvalue\n      dup1\n      iszero\n      tag_96\n      jumpi\n      0x00\n      dup1\n      revert\n    tag_96:\n      pop\n      tag_97\n      tag_98\n      jump\t// in\n    tag_97:\n      mload(0x40)\n      tag_99\n      swap2\n      swap1\n      tag_49\n      jump\t// in\n    tag_99:\n      mload(0x40)\n      dup1\n      swap2\n      sub\n      swap1\n      return\n        /* \"contracts/erevos/ErevosFeeReflection.sol\":4782:4964  function setAutoBuyAndBurnCore(bool _autoBuyAndBurnCore) external onlyOwner nonReentrant { // Add: Setter for core auto-burn... */\n    tag_15:\n      callvalue\n      dup1\n      iszero\n      tag_100\n      jumpi\n      0x00\n      dup1\n      revert\n    tag_100:\n      pop\n      tag_101\n      0x04\n      dup1\n      calldatasize\n      sub\n      dup2\n      add\n      swap1\n      tag_102\n      swap2\n      swap1\n      tag_68\n      jump\t// in\n    tag_102:\n      tag_103\n      jump\t// in\n    tag_101:\n      stop\n        /* \"@openzeppelin/contracts/access/Ownable.sol\":2293:2394  function renounceOwnership() public virtual onlyOwner {... */\n    tag_16:\n      callvalue\n      dup1\n      iszero\n      tag_104\n      jumpi\n      0x00\n      dup1\n      revert\n    tag_104:\n      pop\n      tag_105\n      tag_106\n      jump\t// in\n    tag_105:\n      stop\n        /* \"contracts/erevos/ErevosFeeReflection.sol\":1482:1508  uint256 public coreBalance */\n    tag_17:\n      callvalue\n      dup1\n      iszero\n      tag_107\n      jumpi\n      0x00\n      dup1\n      revert\n    tag_107:\n      pop\n      tag_108\n      tag_109\n      jump\t// in\n    tag_108:\n      mload(0x40)\n      tag_110\n      swap2\n      swap1\n      tag_74\n      jump\t// in\n    tag_110:\n      mload(0x40)\n      dup1\n      swap2\n      sub\n      swap1\n      return\n        /* \"contracts/erevos/ErevosFeeReflection.sol\":1582:1612  bool public autoBuyAndBurnCore */\n    tag_18:\n      callvalue\n      dup1\n      iszero\n      tag_111\n      jumpi\n      0x00\n      dup1\n      revert\n    tag_111:\n      pop\n      tag_112\n      tag_113\n      jump\t// in\n    tag_112:\n      mload(0x40)\n      tag_114\n      swap2\n      swap1\n      tag_60\n      jump\t// in\n    tag_114:\n      mload(0x40)\n      dup1\n      swap2\n      sub\n      swap1\n      return\n        /* \"contracts/erevos/ErevosFeeReflection.sol\":3308:3621  function addWhitelistedNFT(address nftContract) external onlyOwner {... */\n    tag_19:\n      callvalue\n      dup1\n      iszero\n      tag_115\n      jumpi\n      0x00\n      dup1\n      revert\n    tag_115:\n      pop\n      tag_116\n      0x04\n      dup1\n      calldatasize\n      sub\n      dup2\n      add\n      swap1\n      tag_117\n      swap2\n      swap1\n      tag_57\n      jump\t// in\n    tag_117:\n      tag_118\n      jump\t// in\n    tag_116:\n      stop\n        /* \"@openzeppelin/contracts/access/Ownable.sol\":1638:1723  function owner() public view virtual returns (address) {... */\n    tag_20:\n      callvalue\n      dup1\n      iszero\n      tag_119\n      jumpi\n      0x00\n      dup1\n      revert\n    tag_119:\n      pop\n      tag_120\n      tag_121\n      jump\t// in\n    tag_120:\n      mload(0x40)\n      tag_122\n      swap2\n      swap1\n      tag_49\n      jump\t// in\n    tag_122:\n      mload(0x40)\n      dup1\n      swap2\n      sub\n      swap1\n      return\n        /* \"contracts/erevos/ErevosFeeReflection.sol\":9212:9621  function rescueETH(uint256 amount, address payable to) external onlyOwner nonReentrant {... */\n    tag_21:\n      callvalue\n      dup1\n      iszero\n      tag_123\n      jumpi\n      0x00\n      dup1\n      revert\n    tag_123:\n      pop\n      tag_124\n      0x04\n      dup1\n      calldatasize\n      sub\n      dup2\n      add\n      swap1\n      tag_125\n      swap2\n      swap1\n      tag_126\n      jump\t// in\n    tag_125:\n      tag_127\n      jump\t// in\n    tag_124:\n      stop\n        /* \"contracts/erevos/ErevosFeeReflection.sol\":918:952  address public immutable erevosNFT */\n    tag_22:\n      callvalue\n      dup1\n      iszero\n      tag_128\n      jumpi\n      0x00\n      dup1\n      revert\n    tag_128:\n      pop\n      tag_129\n      tag_130\n      jump\t// in\n    tag_129:\n      mload(0x40)\n      tag_131\n      swap2\n      swap1\n      tag_49\n      jump\t// in\n    tag_131:\n      mload(0x40)\n      dup1\n      swap2\n      sub\n      swap1\n      return\n        /* \"contracts/erevos/ErevosFeeReflection.sol\":9719:10548  function rescueTokens(address token, uint256 amount, address to) external onlyOwner nonReentrant {... */\n    tag_23:\n      callvalue\n      dup1\n      iszero\n      tag_132\n      jumpi\n      0x00\n      dup1\n      revert\n    tag_132:\n      pop\n      tag_133\n      0x04\n      dup1\n      calldatasize\n      sub\n      dup2\n      add\n      swap1\n      tag_134\n      swap2\n      swap1\n      tag_135\n      jump\t// in\n    tag_134:\n      tag_136\n      jump\t// in\n    tag_133:\n      stop\n        /* \"contracts/erevos/ErevosFeeReflection.sol\":1549:1575  bool public autoBuyAndBurn */\n    tag_24:\n      callvalue\n      dup1\n      iszero\n      tag_137\n      jumpi\n      0x00\n      dup1\n      revert\n    tag_137:\n      pop\n      tag_138\n      tag_139\n      jump\t// in\n    tag_138:\n      mload(0x40)\n      tag_140\n      swap2\n      swap1\n      tag_60\n      jump\t// in\n    tag_140:\n      mload(0x40)\n      dup1\n      swap2\n      sub\n      swap1\n      return\n        /* \"contracts/erevos/ErevosFeeReflection.sol\":4100:4546  function withdrawCore() external onlyOwner nonReentrant {... */\n    tag_25:\n      callvalue\n      dup1\n      iszero\n      tag_141\n      jumpi\n      0x00\n      dup1\n      revert\n    tag_141:\n      pop\n      tag_142\n      tag_143\n      jump\t// in\n    tag_142:\n      stop\n        /* \"contracts/erevos/ErevosFeeReflection.sol\":5067:5176  function processIncomingTokens() external onlyOwnerOrWhitelistedNFT {... */\n    tag_26:\n      callvalue\n      dup1\n      iszero\n      tag_144\n      jumpi\n      0x00\n      dup1\n      revert\n    tag_144:\n      pop\n      tag_145\n      tag_146\n      jump\t// in\n    tag_145:\n      stop\n        /* \"contracts/erevos/ErevosFeeReflection.sol\":5464:5664  function manualBuyAndBurnCore() external onlyOwner nonReentrant { // Add: Separate manual for core only... */\n    tag_27:\n      callvalue\n      dup1\n      iszero\n      tag_147\n      jumpi\n      0x00\n      dup1\n      revert\n    tag_147:\n      pop\n      tag_148\n      tag_149\n      jump\t// in\n    tag_148:\n      stop\n        /* \"@openzeppelin/contracts/access/Ownable.sol\":2543:2758  function transferOwnership(address newOwner) public virtual onlyOwner {... */\n    tag_28:\n      callvalue\n      dup1\n      iszero\n      tag_150\n      jumpi\n      0x00\n      dup1\n      revert\n    tag_150:\n      pop\n      tag_151\n      0x04\n      dup1\n      calldatasize\n      sub\n      dup2\n      add\n      swap1\n      tag_152\n      swap2\n      swap1\n      tag_57\n      jump\t// in\n    tag_152:\n      tag_153\n      jump\t// in\n    tag_151:\n      stop\n        /* \"contracts/erevos/ErevosFeeReflection.sol\":827:877  address public immutable BURN_ADDRESS = address(0) */\n    tag_29:\n      callvalue\n      dup1\n      iszero\n      tag_154\n      jumpi\n      0x00\n      dup1\n      revert\n    tag_154:\n      pop\n      tag_155\n      tag_156\n      jump\t// in\n    tag_155:\n      mload(0x40)\n      tag_157\n      swap2\n      swap1\n      tag_49\n      jump\t// in\n    tag_157:\n      mload(0x40)\n      dup1\n      swap2\n      sub\n      swap1\n      return\n        /* \"contracts/erevos/ErevosFeeReflection.sol\":5767:6875  function _processIncomingFee(uint256 amount) internal {... */\n    tag_40:\n        /* \"contracts/erevos/ErevosFeeReflection.sol\":5844:5845  0 */\n      0x00\n        /* \"contracts/erevos/ErevosFeeReflection.sol\":5835:5841  amount */\n      dup2\n        /* \"contracts/erevos/ErevosFeeReflection.sol\":5835:5845  amount > 0 */\n      gt\n        /* \"contracts/erevos/ErevosFeeReflection.sol\":5832:5909  if(amount > 0){... */\n      iszero\n      tag_159\n      jumpi\n        /* \"contracts/erevos/ErevosFeeReflection.sol\":5867:5871  WETN */\n      immutable(\"0xecac27c21aa9a89d7be9ad03c2d91e82cbd466284ecdf2bd5bad7f953539cc45\")\n        /* \"contracts/erevos/ErevosFeeReflection.sol\":5861:5880  IWETN(WETN).deposit */\n      0xffffffffffffffffffffffffffffffffffffffff\n      and\n      0xd0e30db0\n        /* \"contracts/erevos/ErevosFeeReflection.sol\":5888:5894  amount */\n      dup3\n        /* \"contracts/erevos/ErevosFeeReflection.sol\":5861:5897  IWETN(WETN).deposit{value: amount}() */\n      mload(0x40)\n      dup3\n      0xffffffff\n      and\n      0xe0\n      shl\n      dup2\n      mstore\n      0x04\n      add\n      0x00\n      mload(0x40)\n      dup1\n      dup4\n      sub\n      dup2\n      dup6\n      dup9\n      dup1\n      extcodesize\n      iszero\n      dup1\n      iszero\n      tag_160\n      jumpi\n      0x00\n      dup1\n      revert\n    tag_160:\n      pop\n      gas\n      call\n      iszero\n      dup1\n      iszero\n      tag_162\n      jumpi\n      returndatasize\n      0x00\n      dup1\n      returndatacopy\n      revert(0x00, returndatasize)\n    tag_162:\n      pop\n      pop\n      pop\n      pop\n      pop\n        /* \"contracts/erevos/ErevosFeeReflection.sol\":5832:5909  if(amount > 0){... */\n    tag_159:\n        /* \"contracts/erevos/ErevosFeeReflection.sol\":5937:5956  uint256 currentWetn */\n      0x00\n        /* \"contracts/erevos/ErevosFeeReflection.sol\":5965:5969  WETN */\n      immutable(\"0xecac27c21aa9a89d7be9ad03c2d91e82cbd466284ecdf2bd5bad7f953539cc45\")\n        /* \"contracts/erevos/ErevosFeeReflection.sol\":5959:5980  IWETN(WETN).balanceOf */\n      0xffffffffffffffffffffffffffffffffffffffff\n      and\n      0x70a08231\n        /* \"contracts/erevos/ErevosFeeReflection.sol\":5989:5993  this */\n      address\n        /* \"contracts/erevos/ErevosFeeReflection.sol\":5959:5995  IWETN(WETN).balanceOf(address(this)) */\n      mload(0x40)\n      dup3\n      0xffffffff\n      and\n      0xe0\n      shl\n      dup2\n      mstore\n      0x04\n      add\n      tag_163\n      swap2\n      swap1\n      tag_49\n      jump\t// in\n    tag_163:\n      0x20\n      mload(0x40)\n      dup1\n      dup4\n      sub\n      dup2\n      dup7\n      gas\n      staticcall\n      iszero\n      dup1\n      iszero\n      tag_165\n      jumpi\n      returndatasize\n      0x00\n      dup1\n      returndatacopy\n      revert(0x00, returndatasize)\n    tag_165:\n      pop\n      pop\n      pop\n      pop\n      mload(0x40)\n      returndatasize\n      not(0x1f)\n      0x1f\n      dup3\n      add\n      and\n      dup3\n      add\n      dup1\n      0x40\n      mstore\n      pop\n      dup2\n      add\n      swap1\n      tag_166\n      swap2\n      swap1\n      tag_167\n      jump\t// in\n    tag_166:\n        /* \"contracts/erevos/ErevosFeeReflection.sol\":5937:5995  uint256 currentWetn = IWETN(WETN).balanceOf(address(this)) */\n      swap1\n      pop\n        /* \"contracts/erevos/ErevosFeeReflection.sol\":6006:6022  uint256 expected */\n      0x00\n        /* \"contracts/erevos/ErevosFeeReflection.sol\":6053:6063  nftBalance */\n      sload(0x06)\n        /* \"contracts/erevos/ErevosFeeReflection.sol\":6039:6050  clubBalance */\n      sload(0x04)\n        /* \"contracts/erevos/ErevosFeeReflection.sol\":6025:6036  coreBalance */\n      sload(0x05)\n        /* \"contracts/erevos/ErevosFeeReflection.sol\":6025:6050  coreBalance + clubBalance */\n      tag_168\n      swap2\n      swap1\n      tag_169\n      jump\t// in\n    tag_168:\n        /* \"contracts/erevos/ErevosFeeReflection.sol\":6025:6063  coreBalance + clubBalance + nftBalance */\n      tag_170\n      swap2\n      swap1\n      tag_169\n      jump\t// in\n    tag_170:\n        /* \"contracts/erevos/ErevosFeeReflection.sol\":6006:6063  uint256 expected = coreBalance + clubBalance + nftBalance */\n      swap1\n      pop\n        /* \"contracts/erevos/ErevosFeeReflection.sol\":6097:6105  expected */\n      dup1\n        /* \"contracts/erevos/ErevosFeeReflection.sol\":6082:6093  currentWetn */\n      dup3\n        /* \"contracts/erevos/ErevosFeeReflection.sol\":6082:6105  currentWetn >= expected */\n      lt\n      iszero\n        /* \"contracts/erevos/ErevosFeeReflection.sol\":6074:6123  require(currentWetn >= expected, \"Balance error\") */\n      tag_171\n      jumpi\n      mload(0x40)\n      0x08c379a000000000000000000000000000000000000000000000000000000000\n      dup2\n      mstore\n      0x04\n      add\n      tag_172\n      swap1\n      tag_173\n      jump\t// in\n    tag_172:\n      mload(0x40)\n      dup1\n      swap2\n      sub\n      swap1\n      revert\n    tag_171:\n        /* \"contracts/erevos/ErevosFeeReflection.sol\":6144:6160  uint256 incoming */\n      0x00\n        /* \"contracts/erevos/ErevosFeeReflection.sol\":6177:6185  expected */\n      dup2\n        /* \"contracts/erevos/ErevosFeeReflection.sol\":6163:6174  currentWetn */\n      dup4\n        /* \"contracts/erevos/ErevosFeeReflection.sol\":6163:6185  currentWetn - expected */\n      tag_174\n      swap2\n      swap1\n      tag_175\n      jump\t// in\n    tag_174:\n        /* \"contracts/erevos/ErevosFeeReflection.sol\":6144:6185  uint256 incoming = currentWetn - expected */\n      swap1\n      pop\n        /* \"contracts/erevos/ErevosFeeReflection.sol\":6212:6213  0 */\n      0x00\n        /* \"contracts/erevos/ErevosFeeReflection.sol\":6201:6209  incoming */\n      dup2\n        /* \"contracts/erevos/ErevosFeeReflection.sol\":6201:6213  incoming > 0 */\n      gt\n        /* \"contracts/erevos/ErevosFeeReflection.sol\":6198:6868  if(incoming > 0){... */\n      iszero\n      tag_176\n      jumpi\n        /* \"contracts/erevos/ErevosFeeReflection.sol\":6229:6248  uint256 corePortion */\n      0x00\n        /* \"contracts/erevos/ErevosFeeReflection.sol\":6269:6272  100 */\n      0x64\n        /* \"contracts/erevos/ErevosFeeReflection.sol\":6263:6265  40 */\n      0x28\n        /* \"contracts/erevos/ErevosFeeReflection.sol\":6252:6260  incoming */\n      dup4\n        /* \"contracts/erevos/ErevosFeeReflection.sol\":6252:6265  incoming * 40 */\n      tag_177\n      swap2\n      swap1\n      tag_178\n      jump\t// in\n    tag_177:\n        /* \"contracts/erevos/ErevosFeeReflection.sol\":6251:6272  (incoming * 40) / 100 */\n      tag_179\n      swap2\n      swap1\n      tag_180\n      jump\t// in\n    tag_179:\n        /* \"contracts/erevos/ErevosFeeReflection.sol\":6229:6272  uint256 corePortion = (incoming * 40) / 100 */\n      swap1\n      pop\n        /* \"contracts/erevos/ErevosFeeReflection.sol\":6287:6306  uint256 clubPortion */\n      0x00\n        /* \"contracts/erevos/ErevosFeeReflection.sol\":6327:6330  100 */\n      0x64\n        /* \"contracts/erevos/ErevosFeeReflection.sol\":6321:6323  10 */\n      0x0a\n        /* \"contracts/erevos/ErevosFeeReflection.sol\":6310:6318  incoming */\n      dup5\n        /* \"contracts/erevos/ErevosFeeReflection.sol\":6310:6323  incoming * 10 */\n      tag_181\n      swap2\n      swap1\n      tag_178\n      jump\t// in\n    tag_181:\n        /* \"contracts/erevos/ErevosFeeReflection.sol\":6309:6330  (incoming * 10) / 100 */\n      tag_182\n      swap2\n      swap1\n      tag_180\n      jump\t// in\n    tag_182:\n        /* \"contracts/erevos/ErevosFeeReflection.sol\":6287:6330  uint256 clubPortion = (incoming * 10) / 100 */\n      swap1\n      pop\n        /* \"contracts/erevos/ErevosFeeReflection.sol\":6345:6363  uint256 nftPortion */\n      0x00\n        /* \"contracts/erevos/ErevosFeeReflection.sol\":6391:6402  clubPortion */\n      dup2\n        /* \"contracts/erevos/ErevosFeeReflection.sol\":6377:6388  corePortion */\n      dup4\n        /* \"contracts/erevos/ErevosFeeReflection.sol\":6366:6374  incoming */\n      dup6\n        /* \"contracts/erevos/ErevosFeeReflection.sol\":6366:6388  incoming - corePortion */\n      tag_183\n      swap2\n      swap1\n      tag_175\n      jump\t// in\n    tag_183:\n        /* \"contracts/erevos/ErevosFeeReflection.sol\":6366:6402  incoming - corePortion - clubPortion */\n      tag_184\n      swap2\n      swap1\n      tag_175\n      jump\t// in\n    tag_184:\n        /* \"contracts/erevos/ErevosFeeReflection.sol\":6345:6402  uint256 nftPortion = incoming - corePortion - clubPortion */\n      swap1\n      pop\n        /* \"contracts/erevos/ErevosFeeReflection.sol\":6434:6445  corePortion */\n      dup3\n        /* \"contracts/erevos/ErevosFeeReflection.sol\":6419:6430  coreBalance */\n      0x05\n      0x00\n        /* \"contracts/erevos/ErevosFeeReflection.sol\":6419:6445  coreBalance += corePortion */\n      dup3\n      dup3\n      sload\n      tag_185\n      swap2\n      swap1\n      tag_169\n      jump\t// in\n    tag_185:\n      swap3\n      pop\n      pop\n      dup2\n      swap1\n      sstore\n      pop\n        /* \"contracts/erevos/ErevosFeeReflection.sol\":6475:6486  clubPortion */\n      dup2\n        /* \"contracts/erevos/ErevosFeeReflection.sol\":6460:6471  clubBalance */\n      0x04\n      0x00\n        /* \"contracts/erevos/ErevosFeeReflection.sol\":6460:6486  clubBalance += clubPortion */\n      dup3\n      dup3\n      sload\n      tag_186\n      swap2\n      swap1\n      tag_169\n      jump\t// in\n    tag_186:\n      swap3\n      pop\n      pop\n      dup2\n      swap1\n      sstore\n      pop\n        /* \"contracts/erevos/ErevosFeeReflection.sol\":6515:6525  nftPortion */\n      dup1\n        /* \"contracts/erevos/ErevosFeeReflection.sol\":6501:6511  nftBalance */\n      0x06\n      0x00\n        /* \"contracts/erevos/ErevosFeeReflection.sol\":6501:6525  nftBalance += nftPortion */\n      dup3\n      dup3\n      sload\n      tag_187\n      swap2\n      swap1\n      tag_169\n      jump\t// in\n    tag_187:\n      swap3\n      pop\n      pop\n      dup2\n      swap1\n      sstore\n      pop\n        /* \"contracts/erevos/ErevosFeeReflection.sol\":6547:6607  FeeProcessed(incoming, corePortion, clubPortion, nftPortion) */\n      0x4816db49bfc91a0172699baedf430e5d308b8034f966fb25681b27c17bcd3a47\n        /* \"contracts/erevos/ErevosFeeReflection.sol\":6560:6568  incoming */\n      dup5\n        /* \"contracts/erevos/ErevosFeeReflection.sol\":6570:6581  corePortion */\n      dup5\n        /* \"contracts/erevos/ErevosFeeReflection.sol\":6583:6594  clubPortion */\n      dup5\n        /* \"contracts/erevos/ErevosFeeReflection.sol\":6596:6606  nftPortion */\n      dup5\n        /* \"contracts/erevos/ErevosFeeReflection.sol\":6547:6607  FeeProcessed(incoming, corePortion, clubPortion, nftPortion) */\n      mload(0x40)\n      tag_188\n      swap5\n      swap4\n      swap3\n      swap2\n      swap1\n      tag_189\n      jump\t// in\n    tag_188:\n      mload(0x40)\n      dup1\n      swap2\n      sub\n      swap1\n      log1\n        /* \"contracts/erevos/ErevosFeeReflection.sol\":6624:6643  _distributeToNFTs() */\n      tag_190\n        /* \"contracts/erevos/ErevosFeeReflection.sol\":6624:6641  _distributeToNFTs */\n      tag_191\n        /* \"contracts/erevos/ErevosFeeReflection.sol\":6624:6643  _distributeToNFTs() */\n      jump\t// in\n    tag_190:\n        /* \"contracts/erevos/ErevosFeeReflection.sol\":6675:6689  autoBuyAndBurn */\n      0x07\n      0x00\n      swap1\n      sload\n      swap1\n      0x0100\n      exp\n      swap1\n      div\n      0xff\n      and\n        /* \"contracts/erevos/ErevosFeeReflection.sol\":6672:6738  if(autoBuyAndBurn){... */\n      iszero\n      tag_192\n      jumpi\n        /* \"contracts/erevos/ErevosFeeReflection.sol\":6709:6722  _buyAndBurn() */\n      tag_193\n        /* \"contracts/erevos/ErevosFeeReflection.sol\":6709:6720  _buyAndBurn */\n      tag_194\n        /* \"contracts/erevos/ErevosFeeReflection.sol\":6709:6722  _buyAndBurn() */\n      jump\t// in\n    tag_193:\n        /* \"contracts/erevos/ErevosFeeReflection.sol\":6672:6738  if(autoBuyAndBurn){... */\n    tag_192:\n        /* \"contracts/erevos/ErevosFeeReflection.sol\":6755:6773  autoBuyAndBurnCore */\n      0x07\n      0x01\n      swap1\n      sload\n      swap1\n      0x0100\n      exp\n      swap1\n      div\n      0xff\n      and\n        /* \"contracts/erevos/ErevosFeeReflection.sol\":6752:6857  if(autoBuyAndBurnCore){ // Add: Trigger core auto-burn... */\n      iszero\n      tag_195\n      jumpi\n        /* \"contracts/erevos/ErevosFeeReflection.sol\":6824:6841  _buyAndBurnCore() */\n      tag_196\n        /* \"contracts/erevos/ErevosFeeReflection.sol\":6824:6839  _buyAndBurnCore */\n      tag_197\n        /* \"contracts/erevos/ErevosFeeReflection.sol\":6824:6841  _buyAndBurnCore() */\n      jump\t// in\n    tag_196:\n        /* \"contracts/erevos/ErevosFeeReflection.sol\":6752:6857  if(autoBuyAndBurnCore){ // Add: Trigger core auto-burn... */\n    tag_195:\n        /* \"contracts/erevos/ErevosFeeReflection.sol\":6214:6868  {... */\n      pop\n      pop\n      pop\n        /* \"contracts/erevos/ErevosFeeReflection.sol\":6198:6868  if(incoming > 0){... */\n    tag_176:\n        /* \"contracts/erevos/ErevosFeeReflection.sol\":5821:6875  {... */\n      pop\n      pop\n      pop\n        /* \"contracts/erevos/ErevosFeeReflection.sol\":5767:6875  function _processIncomingFee(uint256 amount) internal {... */\n      pop\n      jump\t// out\n        /* \"contracts/erevos/ErevosFeeReflection.sol\":543:577  address public immutable coreToken */\n    tag_47:\n      immutable(\"0x983c9f9923666d71abefd6ca274543532a86910a4b5c1edaaec46ca6b31d59a3\")\n      dup2\n      jump\t// out\n        /* \"contracts/erevos/ErevosFeeReflection.sol\":446:475  address public immutable club */\n    tag_52:\n      immutable(\"0x7a80aab8ee1b9114f05440301177d10784c915c9e300d985d7e845429f5da96a\")\n      dup2\n      jump\t// out\n        /* \"contracts/erevos/ErevosFeeReflection.sol\":3874:4004  function isWhitelistedNFT(address nftContract) external view returns (bool) {... */\n    tag_58:\n        /* \"contracts/erevos/ErevosFeeReflection.sol\":3944:3948  bool */\n      0x00\n        /* \"contracts/erevos/ErevosFeeReflection.sol\":3968:3983  whitelistedNFTs */\n      0x03\n        /* \"contracts/erevos/ErevosFeeReflection.sol\":3968:3996  whitelistedNFTs[nftContract] */\n      0x00\n        /* \"contracts/erevos/ErevosFeeReflection.sol\":3984:3995  nftContract */\n      dup4\n        /* \"contracts/erevos/ErevosFeeReflection.sol\":3968:3996  whitelistedNFTs[nftContract] */\n      0xffffffffffffffffffffffffffffffffffffffff\n      and\n      0xffffffffffffffffffffffffffffffffffffffff\n      and\n      dup2\n      mstore\n      0x20\n      add\n      swap1\n      dup2\n      mstore\n      0x20\n      add\n      0x00\n      keccak256\n      0x00\n      swap1\n      sload\n      swap1\n      0x0100\n      exp\n      swap1\n      div\n      0xff\n      and\n        /* \"contracts/erevos/ErevosFeeReflection.sol\":3961:3996  return whitelistedNFTs[nftContract] */\n      swap1\n      pop\n        /* \"contracts/erevos/ErevosFeeReflection.sol\":3874:4004  function isWhitelistedNFT(address nftContract) external view returns (bool) {... */\n      swap2\n      swap1\n      pop\n      jump\t// out\n        /* \"contracts/erevos/ErevosFeeReflection.sol\":3629:3866  function removeWhitelistedNFT(address nftContract) external onlyOwner {... */\n    tag_64:\n        /* \"@openzeppelin/contracts/access/Ownable.sol\":1531:1544  _checkOwner() */\n      tag_200\n        /* \"@openzeppelin/contracts/access/Ownable.sol\":1531:1542  _checkOwner */\n      tag_201\n        /* \"@openzeppelin/contracts/access/Ownable.sol\":1531:1544  _checkOwner() */\n      jump\t// in\n    tag_200:\n        /* \"contracts/erevos/ErevosFeeReflection.sol\":3718:3733  whitelistedNFTs */\n      0x03\n        /* \"contracts/erevos/ErevosFeeReflection.sol\":3718:3746  whitelistedNFTs[nftContract] */\n      0x00\n        /* \"contracts/erevos/ErevosFeeReflection.sol\":3734:3745  nftContract */\n      dup3\n        /* \"contracts/erevos/ErevosFeeReflection.sol\":3718:3746  whitelistedNFTs[nftContract] */\n      0xffffffffffffffffffffffffffffffffffffffff\n      and\n      0xffffffffffffffffffffffffffffffffffffffff\n      and\n      dup2\n      mstore\n      0x20\n      add\n      swap1\n      dup2\n      mstore\n      0x20\n      add\n      0x00\n      keccak256\n      0x00\n      swap1\n      sload\n      swap1\n      0x0100\n      exp\n      swap1\n      div\n      0xff\n      and\n        /* \"contracts/erevos/ErevosFeeReflection.sol\":3710:3766  require(whitelistedNFTs[nftContract], \"Not whitelisted\") */\n      tag_203\n      jumpi\n      mload(0x40)\n      0x08c379a000000000000000000000000000000000000000000000000000000000\n      dup2\n      mstore\n      0x04\n      add\n      tag_204\n      swap1\n      tag_205\n      jump\t// in\n    tag_204:\n      mload(0x40)\n      dup1\n      swap2\n      sub\n      swap1\n      revert\n    tag_203:\n        /* \"contracts/erevos/ErevosFeeReflection.sol\":3808:3813  false */\n      0x00\n        /* \"contracts/erevos/ErevosFeeReflection.sol\":3777:3792  whitelistedNFTs */\n      0x03\n        /* \"contracts/erevos/ErevosFeeReflection.sol\":3777:3805  whitelistedNFTs[nftContract] */\n      0x00\n        /* \"contracts/erevos/ErevosFeeReflection.sol\":3793:3804  nftContract */\n      dup4\n        /* \"contracts/erevos/ErevosFeeReflection.sol\":3777:3805  whitelistedNFTs[nftContract] */\n      0xffffffffffffffffffffffffffffffffffffffff\n      and\n      0xffffffffffffffffffffffffffffffffffffffff\n      and\n      dup2\n      mstore\n      0x20\n      add\n      swap1\n      dup2\n      mstore\n      0x20\n      add\n      0x00\n      keccak256\n      0x00\n        /* \"contracts/erevos/ErevosFeeReflection.sol\":3777:3813  whitelistedNFTs[nftContract] = false */\n      0x0100\n      exp\n      dup2\n      sload\n      dup2\n      0xff\n      mul\n      not\n      and\n      swap1\n      dup4\n      iszero\n      iszero\n      mul\n      or\n      swap1\n      sstore\n      pop\n        /* \"contracts/erevos/ErevosFeeReflection.sol\":3829:3858  NFTUnwhitelisted(nftContract) */\n      0xd9ea38e99b87231f31b9da68de3c78d56418e10e2e64d338c9f438ab75681ebc\n        /* \"contracts/erevos/ErevosFeeReflection.sol\":3846:3857  nftContract */\n      dup2\n        /* \"contracts/erevos/ErevosFeeReflection.sol\":3829:3858  NFTUnwhitelisted(nftContract) */\n      mload(0x40)\n      tag_206\n      swap2\n      swap1\n      tag_49\n      jump\t// in\n    tag_206:\n      mload(0x40)\n      dup1\n      swap2\n      sub\n      swap1\n      log1\n        /* \"contracts/erevos/ErevosFeeReflection.sol\":3629:3866  function removeWhitelistedNFT(address nftContract) external onlyOwner {... */\n      pop\n      jump\t// out\n        /* \"contracts/erevos/ErevosFeeReflection.sol\":4642:4774  function setAutoBuyAndBurn(bool _autoBuyAndBurn) external onlyOwner nonReentrant {... */\n    tag_69:\n        /* \"@openzeppelin/contracts/access/Ownable.sol\":1531:1544  _checkOwner() */\n      tag_208\n        /* \"@openzeppelin/contracts/access/Ownable.sol\":1531:1542  _checkOwner */\n      tag_201\n        /* \"@openzeppelin/contracts/access/Ownable.sol\":1531:1544  _checkOwner() */\n      jump\t// in\n    tag_208:\n        /* \"@openzeppelin/contracts/utils/ReentrancyGuard.sol\":3023:3044  _nonReentrantBefore() */\n      tag_210\n        /* \"@openzeppelin/contracts/utils/ReentrancyGuard.sol\":3023:3042  _nonReentrantBefore */\n      tag_211\n        /* \"@openzeppelin/contracts/utils/ReentrancyGuard.sol\":3023:3044  _nonReentrantBefore() */\n      jump\t// in\n    tag_210:\n        /* \"contracts/erevos/ErevosFeeReflection.sol\":4751:4766  _autoBuyAndBurn */\n      dup1\n        /* \"contracts/erevos/ErevosFeeReflection.sol\":4734:4748  autoBuyAndBurn */\n      0x07\n      0x00\n        /* \"contracts/erevos/ErevosFeeReflection.sol\":4734:4766  autoBuyAndBurn = _autoBuyAndBurn */\n      0x0100\n      exp\n      dup2\n      sload\n      dup2\n      0xff\n      mul\n      not\n      and\n      swap1\n      dup4\n      iszero\n      iszero\n      mul\n      or\n      swap1\n      sstore\n      pop\n        /* \"@openzeppelin/contracts/utils/ReentrancyGuard.sol\":3065:3085  _nonReentrantAfter() */\n      tag_213\n        /* \"@openzeppelin/contracts/utils/ReentrancyGuard.sol\":3065:3083  _nonReentrantAfter */\n      tag_214\n        /* \"@openzeppelin/contracts/utils/ReentrancyGuard.sol\":3065:3085  _nonReentrantAfter() */\n      jump\t// in\n    tag_213:\n        /* \"contracts/erevos/ErevosFeeReflection.sol\":4642:4774  function setAutoBuyAndBurn(bool _autoBuyAndBurn) external onlyOwner nonReentrant {... */\n      pop\n      jump\t// out\n        /* \"contracts/erevos/ErevosFeeReflection.sol\":1449:1475  uint256 public clubBalance */\n    tag_72:\n      sload(0x04)\n      dup2\n      jump\t// out\n        /* \"contracts/erevos/ErevosFeeReflection.sol\":1305:1352  mapping(address => bool) public whitelistedNFTs */\n    tag_78:\n      mstore(0x20, 0x03)\n      dup1\n      0x00\n      mstore\n      keccak256(0x00, 0x40)\n      0x00\n      swap2\n      pop\n      sload\n      swap1\n      0x0100\n      exp\n      swap1\n      div\n      0xff\n      and\n      dup2\n      jump\t// out\n        /* \"contracts/erevos/ErevosFeeReflection.sol\":737:819  address public immutable DEAD_ADDRESS = 0x000000000000000000000000000000000000dEaD */\n    tag_82:\n      immutable(\"0xe3df22c4356e5c0e9f35408e2e38091fb1b723609d1444fe8c117fe874adfde5\")\n      dup2\n      jump\t// out\n        /* \"contracts/erevos/ErevosFeeReflection.sol\":1515:1540  uint256 public nftBalance */\n    tag_86:\n      sload(0x06)\n      dup2\n      jump\t// out\n        /* \"contracts/erevos/ErevosFeeReflection.sol\":5184:5456  function manualBuyAndBurn() external onlyOwner nonReentrant { // Updated: Now handles both club and core... */\n    tag_90:\n        /* \"@openzeppelin/contracts/access/Ownable.sol\":1531:1544  _checkOwner() */\n      tag_216\n        /* \"@openzeppelin/contracts/access/Ownable.sol\":1531:1542  _checkOwner */\n      tag_201\n        /* \"@openzeppelin/contracts/access/Ownable.sol\":1531:1544  _checkOwner() */\n      jump\t// in\n    tag_216:\n        /* \"@openzeppelin/contracts/utils/ReentrancyGuard.sol\":3023:3044  _nonReentrantBefore() */\n      tag_218\n        /* \"@openzeppelin/contracts/utils/ReentrancyGuard.sol\":3023:3042  _nonReentrantBefore */\n      tag_211\n        /* \"@openzeppelin/contracts/utils/ReentrancyGuard.sol\":3023:3044  _nonReentrantBefore() */\n      jump\t// in\n    tag_218:\n        /* \"contracts/erevos/ErevosFeeReflection.sol\":5320:5321  0 */\n      0x00\n        /* \"contracts/erevos/ErevosFeeReflection.sol\":5306:5317  clubBalance */\n      sload(0x04)\n        /* \"contracts/erevos/ErevosFeeReflection.sol\":5306:5321  clubBalance > 0 */\n      gt\n        /* \"contracts/erevos/ErevosFeeReflection.sol\":5306:5340  clubBalance > 0 || coreBalance > 0 */\n      dup1\n      tag_220\n      jumpi\n      pop\n        /* \"contracts/erevos/ErevosFeeReflection.sol\":5339:5340  0 */\n      0x00\n        /* \"contracts/erevos/ErevosFeeReflection.sol\":5325:5336  coreBalance */\n      sload(0x05)\n        /* \"contracts/erevos/ErevosFeeReflection.sol\":5325:5340  coreBalance > 0 */\n      gt\n        /* \"contracts/erevos/ErevosFeeReflection.sol\":5306:5340  clubBalance > 0 || coreBalance > 0 */\n    tag_220:\n        /* \"contracts/erevos/ErevosFeeReflection.sol\":5298:5364  require(clubBalance > 0 || coreBalance > 0, \"No balances to burn\") */\n      tag_221\n      jumpi\n      mload(0x40)\n      0x08c379a000000000000000000000000000000000000000000000000000000000\n      dup2\n      mstore\n      0x04\n      add\n      tag_222\n      swap1\n      tag_223\n      jump\t// in\n    tag_222:\n      mload(0x40)\n      dup1\n      swap2\n      sub\n      swap1\n      revert\n    tag_221:\n        /* \"contracts/erevos/ErevosFeeReflection.sol\":5375:5388  _buyAndBurn() */\n      tag_224\n        /* \"contracts/erevos/ErevosFeeReflection.sol\":5375:5386  _buyAndBurn */\n      tag_194\n        /* \"contracts/erevos/ErevosFeeReflection.sol\":5375:5388  _buyAndBurn() */\n      jump\t// in\n    tag_224:\n        /* \"contracts/erevos/ErevosFeeReflection.sol\":5399:5416  _buyAndBurnCore() */\n      tag_225\n        /* \"contracts/erevos/ErevosFeeReflection.sol\":5399:5414  _buyAndBurnCore */\n      tag_197\n        /* \"contracts/erevos/ErevosFeeReflection.sol\":5399:5416  _buyAndBurnCore() */\n      jump\t// in\n    tag_225:\n        /* \"@openzeppelin/contracts/utils/ReentrancyGuard.sol\":3065:3085  _nonReentrantAfter() */\n      tag_226\n        /* \"@openzeppelin/contracts/utils/ReentrancyGuard.sol\":3065:3083  _nonReentrantAfter */\n      tag_214\n        /* \"@openzeppelin/contracts/utils/ReentrancyGuard.sol\":3065:3085  _nonReentrantAfter() */\n      jump\t// in\n    tag_226:\n        /* \"contracts/erevos/ErevosFeeReflection.sol\":5184:5456  function manualBuyAndBurn() external onlyOwner nonReentrant { // Updated: Now handles both club and core... */\n      jump\t// out\n        /* \"contracts/erevos/ErevosFeeReflection.sol\":349:392  address payable public immutable coreWallet */\n    tag_93:\n      immutable(\"0xa388062d78f1a2d144017f8c547d4d5d19f402e886d20c722565d2dbced566d6\")\n      dup2\n      jump\t// out\n        /* \"contracts/erevos/ErevosFeeReflection.sol\":640:669  address public immutable WETN */\n    tag_98:\n      immutable(\"0xecac27c21aa9a89d7be9ad03c2d91e82cbd466284ecdf2bd5bad7f953539cc45\")\n      dup2\n      jump\t// out\n        /* \"contracts/erevos/ErevosFeeReflection.sol\":4782:4964  function setAutoBuyAndBurnCore(bool _autoBuyAndBurnCore) external onlyOwner nonReentrant { // Add: Setter for core auto-burn... */\n    tag_103:\n        /* \"@openzeppelin/contracts/access/Ownable.sol\":1531:1544  _checkOwner() */\n      tag_228\n        /* \"@openzeppelin/contracts/access/Ownable.sol\":1531:1542  _checkOwner */\n      tag_201\n        /* \"@openzeppelin/contracts/access/Ownable.sol\":1531:1544  _checkOwner() */\n      jump\t// in\n    tag_228:\n        /* \"@openzeppelin/contracts/utils/ReentrancyGuard.sol\":3023:3044  _nonReentrantBefore() */\n      tag_230\n        /* \"@openzeppelin/contracts/utils/ReentrancyGuard.sol\":3023:3042  _nonReentrantBefore */\n      tag_211\n        /* \"@openzeppelin/contracts/utils/ReentrancyGuard.sol\":3023:3044  _nonReentrantBefore() */\n      jump\t// in\n    tag_230:\n        /* \"contracts/erevos/ErevosFeeReflection.sol\":4937:4956  _autoBuyAndBurnCore */\n      dup1\n        /* \"contracts/erevos/ErevosFeeReflection.sol\":4916:4934  autoBuyAndBurnCore */\n      0x07\n      0x01\n        /* \"contracts/erevos/ErevosFeeReflection.sol\":4916:4956  autoBuyAndBurnCore = _autoBuyAndBurnCore */\n      0x0100\n      exp\n      dup2\n      sload\n      dup2\n      0xff\n      mul\n      not\n      and\n      swap1\n      dup4\n      iszero\n      iszero\n      mul\n      or\n      swap1\n      sstore\n      pop\n        /* \"@openzeppelin/contracts/utils/ReentrancyGuard.sol\":3065:3085  _nonReentrantAfter() */\n      tag_232\n        /* \"@openzeppelin/contracts/utils/ReentrancyGuard.sol\":3065:3083  _nonReentrantAfter */\n      tag_214\n        /* \"@openzeppelin/contracts/utils/ReentrancyGuard.sol\":3065:3085  _nonReentrantAfter() */\n      jump\t// in\n    tag_232:\n        /* \"contracts/erevos/ErevosFeeReflection.sol\":4782:4964  function setAutoBuyAndBurnCore(bool _autoBuyAndBurnCore) external onlyOwner nonReentrant { // Add: Setter for core auto-burn... */\n      pop\n      jump\t// out\n        /* \"@openzeppelin/contracts/access/Ownable.sol\":2293:2394  function renounceOwnership() public virtual onlyOwner {... */\n    tag_106:\n        /* \"@openzeppelin/contracts/access/Ownable.sol\":1531:1544  _checkOwner() */\n      tag_234\n        /* \"@openzeppelin/contracts/access/Ownable.sol\":1531:1542  _checkOwner */\n      tag_201\n        /* \"@openzeppelin/contracts/access/Ownable.sol\":1531:1544  _checkOwner() */\n      jump\t// in\n    tag_234:\n        /* \"@openzeppelin/contracts/access/Ownable.sol\":2357:2387  _transferOwnership(address(0)) */\n      tag_236\n        /* \"@openzeppelin/contracts/access/Ownable.sol\":2384:2385  0 */\n      0x00\n        /* \"@openzeppelin/contracts/access/Ownable.sol\":2357:2375  _transferOwnership */\n      tag_237\n        /* \"@openzeppelin/contracts/access/Ownable.sol\":2357:2387  _transferOwnership(address(0)) */\n      jump\t// in\n    tag_236:\n        /* \"@openzeppelin/contracts/access/Ownable.sol\":2293:2394  function renounceOwnership() public virtual onlyOwner {... */\n      jump\t// out\n        /* \"contracts/erevos/ErevosFeeReflection.sol\":1482:1508  uint256 public coreBalance */\n    tag_109:\n      sload(0x05)\n      dup2\n      jump\t// out\n        /* \"contracts/erevos/ErevosFeeReflection.sol\":1582:1612  bool public autoBuyAndBurnCore */\n    tag_113:\n      0x07\n      0x01\n      swap1\n      sload\n      swap1\n      0x0100\n      exp\n      swap1\n      div\n      0xff\n      and\n      dup2\n      jump\t// out\n        /* \"contracts/erevos/ErevosFeeReflection.sol\":3308:3621  function addWhitelistedNFT(address nftContract) external onlyOwner {... */\n    tag_118:\n        /* \"@openzeppelin/contracts/access/Ownable.sol\":1531:1544  _checkOwner() */\n      tag_239\n        /* \"@openzeppelin/contracts/access/Ownable.sol\":1531:1542  _checkOwner */\n      tag_201\n        /* \"@openzeppelin/contracts/access/Ownable.sol\":1531:1544  _checkOwner() */\n      jump\t// in\n    tag_239:\n        /* \"contracts/erevos/ErevosFeeReflection.sol\":3417:3418  0 */\n      0x00\n        /* \"contracts/erevos/ErevosFeeReflection.sol\":3394:3419  nftContract != address(0) */\n      0xffffffffffffffffffffffffffffffffffffffff\n      and\n        /* \"contracts/erevos/ErevosFeeReflection.sol\":3394:3405  nftContract */\n      dup2\n        /* \"contracts/erevos/ErevosFeeReflection.sol\":3394:3419  nftContract != address(0) */\n      0xffffffffffffffffffffffffffffffffffffffff\n      and\n      sub\n        /* \"contracts/erevos/ErevosFeeReflection.sol\":3386:3452  require(nftContract != address(0), \"Invalid NFT contract address\") */\n      tag_241\n      jumpi\n      mload(0x40)\n      0x08c379a000000000000000000000000000000000000000000000000000000000\n      dup2\n      mstore\n      0x04\n      add\n      tag_242\n      swap1\n      tag_243\n      jump\t// in\n    tag_242:\n      mload(0x40)\n      dup1\n      swap2\n      sub\n      swap1\n      revert\n    tag_241:\n        /* \"contracts/erevos/ErevosFeeReflection.sol\":3472:3487  whitelistedNFTs */\n      0x03\n        /* \"contracts/erevos/ErevosFeeReflection.sol\":3472:3500  whitelistedNFTs[nftContract] */\n      0x00\n        /* \"contracts/erevos/ErevosFeeReflection.sol\":3488:3499  nftContract */\n      dup3\n        /* \"contracts/erevos/ErevosFeeReflection.sol\":3472:3500  whitelistedNFTs[nftContract] */\n      0xffffffffffffffffffffffffffffffffffffffff\n      and\n      0xffffffffffffffffffffffffffffffffffffffff\n      and\n      dup2\n      mstore\n      0x20\n      add\n      swap1\n      dup2\n      mstore\n      0x20\n      add\n      0x00\n      keccak256\n      0x00\n      swap1\n      sload\n      swap1\n      0x0100\n      exp\n      swap1\n      div\n      0xff\n      and\n        /* \"contracts/erevos/ErevosFeeReflection.sol\":3471:3500  !whitelistedNFTs[nftContract] */\n      iszero\n        /* \"contracts/erevos/ErevosFeeReflection.sol\":3463:3524  require(!whitelistedNFTs[nftContract], \"Already whitelisted\") */\n      tag_244\n      jumpi\n      mload(0x40)\n      0x08c379a000000000000000000000000000000000000000000000000000000000\n      dup2\n      mstore\n      0x04\n      add\n      tag_245\n      swap1\n      tag_246\n      jump\t// in\n    tag_245:\n      mload(0x40)\n      dup1\n      swap2\n      sub\n      swap1\n      revert\n    tag_244:\n        /* \"contracts/erevos/ErevosFeeReflection.sol\":3566:3570  true */\n      0x01\n        /* \"contracts/erevos/ErevosFeeReflection.sol\":3535:3550  whitelistedNFTs */\n      0x03\n        /* \"contracts/erevos/ErevosFeeReflection.sol\":3535:3563  whitelistedNFTs[nftContract] */\n      0x00\n        /* \"contracts/erevos/ErevosFeeReflection.sol\":3551:3562  nftContract */\n      dup4\n        /* \"contracts/erevos/ErevosFeeReflection.sol\":3535:3563  whitelistedNFTs[nftContract] */\n      0xffffffffffffffffffffffffffffffffffffffff\n      and\n      0xffffffffffffffffffffffffffffffffffffffff\n      and\n      dup2\n      mstore\n      0x20\n      add\n      swap1\n      dup2\n      mstore\n      0x20\n      add\n      0x00\n      keccak256\n      0x00\n        /* \"contracts/erevos/ErevosFeeReflection.sol\":3535:3570  whitelistedNFTs[nftContract] = true */\n      0x0100\n      exp\n      dup2\n      sload\n      dup2\n      0xff\n      mul\n      not\n      and\n      swap1\n      dup4\n      iszero\n      iszero\n      mul\n      or\n      swap1\n      sstore\n      pop\n        /* \"contracts/erevos/ErevosFeeReflection.sol\":3586:3613  NFTWhitelisted(nftContract) */\n      0x797c25843e35d46f4254028734c97d60f3f93aaccc1dd994dd6b90683fdb2486\n        /* \"contracts/erevos/ErevosFeeReflection.sol\":3601:3612  nftContract */\n      dup2\n        /* \"contracts/erevos/ErevosFeeReflection.sol\":3586:3613  NFTWhitelisted(nftContract) */\n      mload(0x40)\n      tag_247\n      swap2\n      swap1\n      tag_49\n      jump\t// in\n    tag_247:\n      mload(0x40)\n      dup1\n      swap2\n      sub\n      swap1\n      log1\n        /* \"contracts/erevos/ErevosFeeReflection.sol\":3308:3621  function addWhitelistedNFT(address nftContract) external onlyOwner {... */\n      pop\n      jump\t// out\n        /* \"@openzeppelin/contracts/access/Ownable.sol\":1638:1723  function owner() public view virtual returns (address) {... */\n    tag_121:\n        /* \"@openzeppelin/contracts/access/Ownable.sol\":1684:1691  address */\n      0x00\n        /* \"@openzeppelin/contracts/access/Ownable.sol\":1710:1716  _owner */\n      dup1\n      0x00\n      swap1\n      sload\n      swap1\n      0x0100\n      exp\n      swap1\n      div\n      0xffffffffffffffffffffffffffffffffffffffff\n      and\n        /* \"@openzeppelin/contracts/access/Ownable.sol\":1703:1716  return _owner */\n      swap1\n      pop\n        /* \"@openzeppelin/contracts/access/Ownable.sol\":1638:1723  function owner() public view virtual returns (address) {... */\n      swap1\n      jump\t// out\n        /* \"contracts/erevos/ErevosFeeReflection.sol\":9212:9621  function rescueETH(uint256 amount, address payable to) external onlyOwner nonReentrant {... */\n    tag_127:\n        /* \"@openzeppelin/contracts/access/Ownable.sol\":1531:1544  _checkOwner() */\n      tag_250\n        /* \"@openzeppelin/contracts/access/Ownable.sol\":1531:1542  _checkOwner */\n      tag_201\n        /* \"@openzeppelin/contracts/access/Ownable.sol\":1531:1544  _checkOwner() */\n      jump\t// in\n    tag_250:\n        /* \"@openzeppelin/contracts/utils/ReentrancyGuard.sol\":3023:3044  _nonReentrantBefore() */\n      tag_252\n        /* \"@openzeppelin/contracts/utils/ReentrancyGuard.sol\":3023:3042  _nonReentrantBefore */\n      tag_211\n        /* \"@openzeppelin/contracts/utils/ReentrancyGuard.sol\":3023:3044  _nonReentrantBefore() */\n      jump\t// in\n    tag_252:\n        /* \"contracts/erevos/ErevosFeeReflection.sol\":9332:9333  0 */\n      0x00\n        /* \"contracts/erevos/ErevosFeeReflection.sol\":9318:9334  to != address(0) */\n      0xffffffffffffffffffffffffffffffffffffffff\n      and\n        /* \"contracts/erevos/ErevosFeeReflection.sol\":9318:9320  to */\n      dup2\n        /* \"contracts/erevos/ErevosFeeReflection.sol\":9318:9334  to != address(0) */\n      0xffffffffffffffffffffffffffffffffffffffff\n      and\n      sub\n        /* \"contracts/erevos/ErevosFeeReflection.sol\":9310:9356  require(to != address(0), \"Invalid recipient\") */\n      tag_254\n      jumpi\n      mload(0x40)\n      0x08c379a000000000000000000000000000000000000000000000000000000000\n      dup2\n      mstore\n      0x04\n      add\n      tag_255\n      swap1\n      tag_256\n      jump\t// in\n    tag_255:\n      mload(0x40)\n      dup1\n      swap2\n      sub\n      swap1\n      revert\n    tag_254:\n        /* \"contracts/erevos/ErevosFeeReflection.sol\":9367:9386  uint256 contractETH */\n      0x00\n        /* \"contracts/erevos/ErevosFeeReflection.sol\":9389:9410  address(this).balance */\n      selfbalance\n        /* \"contracts/erevos/ErevosFeeReflection.sol\":9367:9410  uint256 contractETH = address(this).balance */\n      swap1\n      pop\n        /* \"contracts/erevos/ErevosFeeReflection.sol\":9439:9450  contractETH */\n      dup1\n        /* \"contracts/erevos/ErevosFeeReflection.sol\":9429:9435  amount */\n      dup4\n        /* \"contracts/erevos/ErevosFeeReflection.sol\":9429:9450  amount <= contractETH */\n      gt\n      iszero\n        /* \"contracts/erevos/ErevosFeeReflection.sol\":9421:9469  require(amount <= contractETH, \"Not enough ETH\") */\n      tag_257\n      jumpi\n      mload(0x40)\n      0x08c379a000000000000000000000000000000000000000000000000000000000\n      dup2\n      mstore\n      0x04\n      add\n      tag_258\n      swap1\n      tag_259\n      jump\t// in\n    tag_258:\n      mload(0x40)\n      dup1\n      swap2\n      sub\n      swap1\n      revert\n    tag_257:\n        /* \"contracts/erevos/ErevosFeeReflection.sol\":9481:9493  bool success */\n      0x00\n        /* \"contracts/erevos/ErevosFeeReflection.sol\":9499:9501  to */\n      dup3\n        /* \"contracts/erevos/ErevosFeeReflection.sol\":9499:9506  to.call */\n      0xffffffffffffffffffffffffffffffffffffffff\n      and\n        /* \"contracts/erevos/ErevosFeeReflection.sol\":9514:9520  amount */\n      dup5\n        /* \"contracts/erevos/ErevosFeeReflection.sol\":9499:9525  to.call{value: amount}(\"\") */\n      mload(0x40)\n      tag_260\n      swap1\n      tag_261\n      jump\t// in\n    tag_260:\n      0x00\n      mload(0x40)\n      dup1\n      dup4\n      sub\n      dup2\n      dup6\n      dup8\n      gas\n      call\n      swap3\n      pop\n      pop\n      pop\n      returndatasize\n      dup1\n      0x00\n      dup2\n      eq\n      tag_264\n      jumpi\n      mload(0x40)\n      swap2\n      pop\n      and(add(returndatasize, 0x3f), not(0x1f))\n      dup3\n      add\n      0x40\n      mstore\n      returndatasize\n      dup3\n      mstore\n      returndatasize\n      0x00\n      0x20\n      dup5\n      add\n      returndatacopy\n      jump(tag_263)\n    tag_264:\n      0x60\n      swap2\n      pop\n    tag_263:\n      pop\n        /* \"contracts/erevos/ErevosFeeReflection.sol\":9480:9525  (bool success, ) = to.call{value: amount}(\"\") */\n      pop\n      swap1\n      pop\n        /* \"contracts/erevos/ErevosFeeReflection.sol\":9544:9551  success */\n      dup1\n        /* \"contracts/erevos/ErevosFeeReflection.sol\":9536:9575  require(success, \"ETH transfer failed\") */\n      tag_265\n      jumpi\n      mload(0x40)\n      0x08c379a000000000000000000000000000000000000000000000000000000000\n      dup2\n      mstore\n      0x04\n      add\n      tag_266\n      swap1\n      tag_267\n      jump\t// in\n    tag_266:\n      mload(0x40)\n      dup1\n      swap2\n      sub\n      swap1\n      revert\n    tag_265:\n        /* \"contracts/erevos/ErevosFeeReflection.sol\":9591:9613  ETHRescued(amount, to) */\n      0xcd7fef3a642dcf99ce1004b2a15d31e91398f01974500b64eab8fc50fef2d3b1\n        /* \"contracts/erevos/ErevosFeeReflection.sol\":9602:9608  amount */\n      dup5\n        /* \"contracts/erevos/ErevosFeeReflection.sol\":9610:9612  to */\n      dup5\n        /* \"contracts/erevos/ErevosFeeReflection.sol\":9591:9613  ETHRescued(amount, to) */\n      mload(0x40)\n      tag_268\n      swap3\n      swap2\n      swap1\n      tag_269\n      jump\t// in\n    tag_268:\n      mload(0x40)\n      dup1\n      swap2\n      sub\n      swap1\n      log1\n        /* \"contracts/erevos/ErevosFeeReflection.sol\":9299:9621  {... */\n      pop\n      pop\n        /* \"@openzeppelin/contracts/utils/ReentrancyGuard.sol\":3065:3085  _nonReentrantAfter() */\n      tag_270\n        /* \"@openzeppelin/contracts/utils/ReentrancyGuard.sol\":3065:3083  _nonReentrantAfter */\n      tag_214\n        /* \"@openzeppelin/contracts/utils/ReentrancyGuard.sol\":3065:3085  _nonReentrantAfter() */\n      jump\t// in\n    tag_270:\n        /* \"contracts/erevos/ErevosFeeReflection.sol\":9212:9621  function rescueETH(uint256 amount, address payable to) external onlyOwner nonReentrant {... */\n      pop\n      pop\n      jump\t// out\n        /* \"contracts/erevos/ErevosFeeReflection.sol\":918:952  address public immutable erevosNFT */\n    tag_130:\n      immutable(\"0x80b1139a78e0387bfff74bc319d0cecf3afb1f18be7e763c8d59660a3efccbd8\")\n      dup2\n      jump\t// out\n        /* \"contracts/erevos/ErevosFeeReflection.sol\":9719:10548  function rescueTokens(address token, uint256 amount, address to) external onlyOwner nonReentrant {... */\n    tag_136:\n        /* \"@openzeppelin/contracts/access/Ownable.sol\":1531:1544  _checkOwner() */\n      tag_272\n        /* \"@openzeppelin/contracts/access/Ownable.sol\":1531:1542  _checkOwner */\n      tag_201\n        /* \"@openzeppelin/contracts/access/Ownable.sol\":1531:1544  _checkOwner() */\n      jump\t// in\n    tag_272:\n        /* \"@openzeppelin/contracts/utils/ReentrancyGuard.sol\":3023:3044  _nonReentrantBefore() */\n      tag_274\n        /* \"@openzeppelin/contracts/utils/ReentrancyGuard.sol\":3023:3042  _nonReentrantBefore */\n      tag_211\n        /* \"@openzeppelin/contracts/utils/ReentrancyGuard.sol\":3023:3044  _nonReentrantBefore() */\n      jump\t// in\n    tag_274:\n        /* \"contracts/erevos/ErevosFeeReflection.sol\":9849:9850  0 */\n      0x00\n        /* \"contracts/erevos/ErevosFeeReflection.sol\":9835:9851  to != address(0) */\n      0xffffffffffffffffffffffffffffffffffffffff\n      and\n        /* \"contracts/erevos/ErevosFeeReflection.sol\":9835:9837  to */\n      dup2\n        /* \"contracts/erevos/ErevosFeeReflection.sol\":9835:9851  to != address(0) */\n      0xffffffffffffffffffffffffffffffffffffffff\n      and\n      sub\n        /* \"contracts/erevos/ErevosFeeReflection.sol\":9827:9873  require(to != address(0), \"Invalid recipient\") */\n      tag_276\n      jumpi\n      mload(0x40)\n      0x08c379a000000000000000000000000000000000000000000000000000000000\n      dup2\n      mstore\n      0x04\n      add\n      tag_277\n      swap1\n      tag_256\n      jump\t// in\n    tag_277:\n      mload(0x40)\n      dup1\n      swap2\n      sub\n      swap1\n      revert\n    tag_276:\n        /* \"contracts/erevos/ErevosFeeReflection.sol\":9884:9896  IERC20 erc20 */\n      0x00\n        /* \"contracts/erevos/ErevosFeeReflection.sol\":9906:9911  token */\n      dup4\n        /* \"contracts/erevos/ErevosFeeReflection.sol\":9884:9912  IERC20 erc20 = IERC20(token) */\n      swap1\n      pop\n        /* \"contracts/erevos/ErevosFeeReflection.sol\":9923:9938  uint256 balance */\n      0x00\n        /* \"contracts/erevos/ErevosFeeReflection.sol\":9941:9946  erc20 */\n      dup2\n        /* \"contracts/erevos/ErevosFeeReflection.sol\":9941:9956  erc20.balanceOf */\n      0xffffffffffffffffffffffffffffffffffffffff\n      and\n      0x70a08231\n        /* \"contracts/erevos/ErevosFeeReflection.sol\":9965:9969  this */\n      address\n        /* \"contracts/erevos/ErevosFeeReflection.sol\":9941:9971  erc20.balanceOf(address(this)) */\n      mload(0x40)\n      dup3\n      0xffffffff\n      and\n      0xe0\n      shl\n      dup2\n      mstore\n      0x04\n      add\n      tag_278\n      swap2\n      swap1\n      tag_49\n      jump\t// in\n    tag_278:\n      0x20\n      mload(0x40)\n      dup1\n      dup4\n      sub\n      dup2\n      dup7\n      gas\n      staticcall\n      iszero\n      dup1\n      iszero\n      tag_280\n      jumpi\n      returndatasize\n      0x00\n      dup1\n      returndatacopy\n      revert(0x00, returndatasize)\n    tag_280:\n      pop\n      pop\n      pop\n      pop\n      mload(0x40)\n      returndatasize\n      not(0x1f)\n      0x1f\n      dup3\n      add\n      and\n      dup3\n      add\n      dup1\n      0x40\n      mstore\n      pop\n      dup2\n      add\n      swap1\n      tag_281\n      swap2\n      swap1\n      tag_167\n      jump\t// in\n    tag_281:\n        /* \"contracts/erevos/ErevosFeeReflection.sol\":9923:9971  uint256 balance = erc20.balanceOf(address(this)) */\n      swap1\n      pop\n        /* \"contracts/erevos/ErevosFeeReflection.sol\":10000:10007  balance */\n      dup1\n        /* \"contracts/erevos/ErevosFeeReflection.sol\":9990:9996  amount */\n      dup5\n        /* \"contracts/erevos/ErevosFeeReflection.sol\":9990:10007  amount <= balance */\n      gt\n      iszero\n        /* \"contracts/erevos/ErevosFeeReflection.sol\":9982:10036  require(amount <= balance, \"Not enough token balance\") */\n      tag_282\n      jumpi\n      mload(0x40)\n      0x08c379a000000000000000000000000000000000000000000000000000000000\n      dup2\n      mstore\n      0x04\n      add\n      tag_283\n      swap1\n      tag_284\n      jump\t// in\n    tag_283:\n      mload(0x40)\n      dup1\n      swap2\n      sub\n      swap1\n      revert\n    tag_282:\n        /* \"contracts/erevos/ErevosFeeReflection.sol\":10130:10134  WETN */\n      immutable(\"0xecac27c21aa9a89d7be9ad03c2d91e82cbd466284ecdf2bd5bad7f953539cc45\")\n        /* \"contracts/erevos/ErevosFeeReflection.sol\":10121:10134  token == WETN */\n      0xffffffffffffffffffffffffffffffffffffffff\n      and\n        /* \"contracts/erevos/ErevosFeeReflection.sol\":10121:10126  token */\n      dup6\n        /* \"contracts/erevos/ErevosFeeReflection.sol\":10121:10134  token == WETN */\n      0xffffffffffffffffffffffffffffffffffffffff\n      and\n      sub\n        /* \"contracts/erevos/ErevosFeeReflection.sol\":10117:10393  if (token == WETN) {... */\n      tag_285\n      jumpi\n        /* \"contracts/erevos/ErevosFeeReflection.sol\":10151:10174  uint256 protectedAmount */\n      0x00\n        /* \"contracts/erevos/ErevosFeeReflection.sol\":10205:10215  nftBalance */\n      sload(0x06)\n        /* \"contracts/erevos/ErevosFeeReflection.sol\":10191:10202  clubBalance */\n      sload(0x04)\n        /* \"contracts/erevos/ErevosFeeReflection.sol\":10177:10188  coreBalance */\n      sload(0x05)\n        /* \"contracts/erevos/ErevosFeeReflection.sol\":10177:10202  coreBalance + clubBalance */\n      tag_286\n      swap2\n      swap1\n      tag_169\n      jump\t// in\n    tag_286:\n        /* \"contracts/erevos/ErevosFeeReflection.sol\":10177:10215  coreBalance + clubBalance + nftBalance */\n      tag_287\n      swap2\n      swap1\n      tag_169\n      jump\t// in\n    tag_287:\n        /* \"contracts/erevos/ErevosFeeReflection.sol\":10151:10215  uint256 protectedAmount = coreBalance + clubBalance + nftBalance */\n      swap1\n      pop\n        /* \"contracts/erevos/ErevosFeeReflection.sol\":10248:10263  protectedAmount */\n      dup1\n        /* \"contracts/erevos/ErevosFeeReflection.sol\":10238:10245  balance */\n      dup3\n        /* \"contracts/erevos/ErevosFeeReflection.sol\":10238:10263  balance > protectedAmount */\n      gt\n        /* \"contracts/erevos/ErevosFeeReflection.sol\":10230:10292  require(balance > protectedAmount, \"No excess WETN to rescue\") */\n      tag_288\n      jumpi\n      mload(0x40)\n      0x08c379a000000000000000000000000000000000000000000000000000000000\n      dup2\n      mstore\n      0x04\n      add\n      tag_289\n      swap1\n      tag_290\n      jump\t// in\n    tag_289:\n      mload(0x40)\n      dup1\n      swap2\n      sub\n      swap1\n      revert\n    tag_288:\n        /* \"contracts/erevos/ErevosFeeReflection.sol\":10335:10350  protectedAmount */\n      dup1\n        /* \"contracts/erevos/ErevosFeeReflection.sol\":10325:10332  balance */\n      dup3\n        /* \"contracts/erevos/ErevosFeeReflection.sol\":10325:10350  balance - protectedAmount */\n      tag_291\n      swap2\n      swap1\n      tag_175\n      jump\t// in\n    tag_291:\n        /* \"contracts/erevos/ErevosFeeReflection.sol\":10315:10321  amount */\n      dup6\n        /* \"contracts/erevos/ErevosFeeReflection.sol\":10315:10350  amount <= balance - protectedAmount */\n      gt\n      iszero\n        /* \"contracts/erevos/ErevosFeeReflection.sol\":10307:10381  require(amount <= balance - protectedAmount, \"Amount exceeds excess WETN\") */\n      tag_292\n      jumpi\n      mload(0x40)\n      0x08c379a000000000000000000000000000000000000000000000000000000000\n      dup2\n      mstore\n      0x04\n      add\n      tag_293\n      swap1\n      tag_294\n      jump\t// in\n    tag_293:\n      mload(0x40)\n      dup1\n      swap2\n      sub\n      swap1\n      revert\n    tag_292:\n        /* \"contracts/erevos/ErevosFeeReflection.sol\":10136:10393  {... */\n      pop\n        /* \"contracts/erevos/ErevosFeeReflection.sol\":10117:10393  if (token == WETN) {... */\n    tag_285:\n        /* \"contracts/erevos/ErevosFeeReflection.sol\":10405:10414  bool sent */\n      0x00\n        /* \"contracts/erevos/ErevosFeeReflection.sol\":10417:10422  erc20 */\n      dup3\n        /* \"contracts/erevos/ErevosFeeReflection.sol\":10417:10431  erc20.transfer */\n      0xffffffffffffffffffffffffffffffffffffffff\n      and\n      0xa9059cbb\n        /* \"contracts/erevos/ErevosFeeReflection.sol\":10432:10434  to */\n      dup6\n        /* \"contracts/erevos/ErevosFeeReflection.sol\":10436:10442  amount */\n      dup8\n        /* \"contracts/erevos/ErevosFeeReflection.sol\":10417:10443  erc20.transfer(to, amount) */\n      mload(0x40)\n      dup4\n      0xffffffff\n      and\n      0xe0\n      shl\n      dup2\n      mstore\n      0x04\n      add\n      tag_295\n      swap3\n      swap2\n      swap1\n      tag_296\n      jump\t// in\n    tag_295:\n      0x20\n      mload(0x40)\n      dup1\n      dup4\n      sub\n      dup2\n      0x00\n      dup8\n      gas\n      call\n      iszero\n      dup1\n      iszero\n      tag_298\n      jumpi\n      returndatasize\n      0x00\n      dup1\n      returndatacopy\n      revert(0x00, returndatasize)\n    tag_298:\n      pop\n      pop\n      pop\n      pop\n      mload(0x40)\n      returndatasize\n      not(0x1f)\n      0x1f\n      dup3\n      add\n      and\n      dup3\n      add\n      dup1\n      0x40\n      mstore\n      pop\n      dup2\n      add\n      swap1\n      tag_299\n      swap2\n      swap1\n      tag_300\n      jump\t// in\n    tag_299:\n        /* \"contracts/erevos/ErevosFeeReflection.sol\":10405:10443  bool sent = erc20.transfer(to, amount) */\n      swap1\n      pop\n        /* \"contracts/erevos/ErevosFeeReflection.sol\":10462:10466  sent */\n      dup1\n        /* \"contracts/erevos/ErevosFeeReflection.sol\":10454:10492  require(sent, \"Token transfer failed\") */\n      tag_301\n      jumpi\n      mload(0x40)\n      0x08c379a000000000000000000000000000000000000000000000000000000000\n      dup2\n      mstore\n      0x04\n      add\n      tag_302\n      swap1\n      tag_303\n      jump\t// in\n    tag_302:\n      mload(0x40)\n      dup1\n      swap2\n      sub\n      swap1\n      revert\n    tag_301:\n        /* \"contracts/erevos/ErevosFeeReflection.sol\":10508:10540  TokensRescued(token, amount, to) */\n      0xfb475a842bad10d3800b61bd1a92e716051afba979b124b583bd99a2d1d7bfd5\n        /* \"contracts/erevos/ErevosFeeReflection.sol\":10522:10527  token */\n      dup7\n        /* \"contracts/erevos/ErevosFeeReflection.sol\":10529:10535  amount */\n      dup7\n        /* \"contracts/erevos/ErevosFeeReflection.sol\":10537:10539  to */\n      dup7\n        /* \"contracts/erevos/ErevosFeeReflection.sol\":10508:10540  TokensRescued(token, amount, to) */\n      mload(0x40)\n      tag_304\n      swap4\n      swap3\n      swap2\n      swap1\n      tag_305\n      jump\t// in\n    tag_304:\n      mload(0x40)\n      dup1\n      swap2\n      sub\n      swap1\n      log1\n        /* \"contracts/erevos/ErevosFeeReflection.sol\":9816:10548  {... */\n      pop\n      pop\n      pop\n        /* \"@openzeppelin/contracts/utils/ReentrancyGuard.sol\":3065:3085  _nonReentrantAfter() */\n      tag_306\n        /* \"@openzeppelin/contracts/utils/ReentrancyGuard.sol\":3065:3083  _nonReentrantAfter */\n      tag_214\n        /* \"@openzeppelin/contracts/utils/ReentrancyGuard.sol\":3065:3085  _nonReentrantAfter() */\n      jump\t// in\n    tag_306:\n        /* \"contracts/erevos/ErevosFeeReflection.sol\":9719:10548  function rescueTokens(address token, uint256 amount, address to) external onlyOwner nonReentrant {... */\n      pop\n      pop\n      pop\n      jump\t// out\n        /* \"contracts/erevos/ErevosFeeReflection.sol\":1549:1575  bool public autoBuyAndBurn */\n    tag_139:\n      0x07\n      0x00\n      swap1\n      sload\n      swap1\n      0x0100\n      exp\n      swap1\n      div\n      0xff\n      and\n      dup2\n      jump\t// out\n        /* \"contracts/erevos/ErevosFeeReflection.sol\":4100:4546  function withdrawCore() external onlyOwner nonReentrant {... */\n    tag_143:\n        /* \"@openzeppelin/contracts/access/Ownable.sol\":1531:1544  _checkOwner() */\n      tag_308\n        /* \"@openzeppelin/contracts/access/Ownable.sol\":1531:1542  _checkOwner */\n      tag_201\n        /* \"@openzeppelin/contracts/access/Ownable.sol\":1531:1544  _checkOwner() */\n      jump\t// in\n    tag_308:\n        /* \"@openzeppelin/contracts/utils/ReentrancyGuard.sol\":3023:3044  _nonReentrantBefore() */\n      tag_310\n        /* \"@openzeppelin/contracts/utils/ReentrancyGuard.sol\":3023:3042  _nonReentrantBefore */\n      tag_211\n        /* \"@openzeppelin/contracts/utils/ReentrancyGuard.sol\":3023:3044  _nonReentrantBefore() */\n      jump\t// in\n    tag_310:\n        /* \"contracts/erevos/ErevosFeeReflection.sol\":4167:4189  _processIncomingFee(0) */\n      tag_312\n        /* \"contracts/erevos/ErevosFeeReflection.sol\":4187:4188  0 */\n      0x00\n        /* \"contracts/erevos/ErevosFeeReflection.sol\":4167:4186  _processIncomingFee */\n      tag_40\n        /* \"contracts/erevos/ErevosFeeReflection.sol\":4167:4189  _processIncomingFee(0) */\n      jump\t// in\n    tag_312:\n        /* \"contracts/erevos/ErevosFeeReflection.sol\":4202:4225  uint256 totalToWithdraw */\n      0x00\n        /* \"contracts/erevos/ErevosFeeReflection.sol\":4228:4239  coreBalance */\n      sload(0x05)\n        /* \"contracts/erevos/ErevosFeeReflection.sol\":4202:4239  uint256 totalToWithdraw = coreBalance */\n      swap1\n      pop\n        /* \"contracts/erevos/ErevosFeeReflection.sol\":4272:4273  0 */\n      0x00\n        /* \"contracts/erevos/ErevosFeeReflection.sol\":4254:4269  totalToWithdraw */\n      dup2\n        /* \"contracts/erevos/ErevosFeeReflection.sol\":4254:4273  totalToWithdraw > 0 */\n      gt\n        /* \"contracts/erevos/ErevosFeeReflection.sol\":4250:4339  if (totalToWithdraw > 0) {... */\n      iszero\n      tag_313\n      jumpi\n        /* \"contracts/erevos/ErevosFeeReflection.sol\":4296:4300  WETN */\n      immutable(\"0xecac27c21aa9a89d7be9ad03c2d91e82cbd466284ecdf2bd5bad7f953539cc45\")\n        /* \"contracts/erevos/ErevosFeeReflection.sol\":4290:4310  IWETN(WETN).withdraw */\n      0xffffffffffffffffffffffffffffffffffffffff\n      and\n      0x2e1a7d4d\n        /* \"contracts/erevos/ErevosFeeReflection.sol\":4311:4326  totalToWithdraw */\n      dup3\n        /* \"contracts/erevos/ErevosFeeReflection.sol\":4290:4327  IWETN(WETN).withdraw(totalToWithdraw) */\n      mload(0x40)\n      dup3\n      0xffffffff\n      and\n      0xe0\n      shl\n      dup2\n      mstore\n      0x04\n      add\n      tag_314\n      swap2\n      swap1\n      tag_74\n      jump\t// in\n    tag_314:\n      0x00\n      mload(0x40)\n      dup1\n      dup4\n      sub\n      dup2\n      0x00\n      dup8\n      dup1\n      extcodesize\n      iszero\n      dup1\n      iszero\n      tag_315\n      jumpi\n      0x00\n      dup1\n      revert\n    tag_315:\n      pop\n      gas\n      call\n      iszero\n      dup1\n      iszero\n      tag_317\n      jumpi\n      returndatasize\n      0x00\n      dup1\n      returndatacopy\n      revert(0x00, returndatasize)\n    tag_317:\n      pop\n      pop\n      pop\n      pop\n        /* \"contracts/erevos/ErevosFeeReflection.sol\":4250:4339  if (totalToWithdraw > 0) {... */\n    tag_313:\n        /* \"contracts/erevos/ErevosFeeReflection.sol\":4369:4370  0 */\n      0x00\n        /* \"contracts/erevos/ErevosFeeReflection.sol\":4355:4366  coreBalance */\n      sload(0x05)\n        /* \"contracts/erevos/ErevosFeeReflection.sol\":4355:4370  coreBalance > 0 */\n      gt\n        /* \"contracts/erevos/ErevosFeeReflection.sol\":4351:4539  if (coreBalance > 0) {... */\n      iszero\n      tag_318\n      jumpi\n        /* \"contracts/erevos/ErevosFeeReflection.sol\":4388:4395  bool s1 */\n      0x00\n        /* \"contracts/erevos/ErevosFeeReflection.sol\":4401:4411  coreWallet */\n      immutable(\"0xa388062d78f1a2d144017f8c547d4d5d19f402e886d20c722565d2dbced566d6\")\n        /* \"contracts/erevos/ErevosFeeReflection.sol\":4401:4416  coreWallet.call */\n      0xffffffffffffffffffffffffffffffffffffffff\n      and\n        /* \"contracts/erevos/ErevosFeeReflection.sol\":4424:4435  coreBalance */\n      sload(0x05)\n        /* \"contracts/erevos/ErevosFeeReflection.sol\":4401:4440  coreWallet.call{value: coreBalance}(\"\") */\n      mload(0x40)\n      tag_319\n      swap1\n      tag_261\n      jump\t// in\n    tag_319:\n      0x00\n      mload(0x40)\n      dup1\n      dup4\n      sub\n      dup2\n      dup6\n      dup8\n      gas\n      call\n      swap3\n      pop\n      pop\n      pop\n      returndatasize\n      dup1\n      0x00\n      dup2\n      eq\n      tag_322\n      jumpi\n      mload(0x40)\n      swap2\n      pop\n      and(add(returndatasize, 0x3f), not(0x1f))\n      dup3\n      add\n      0x40\n      mstore\n      returndatasize\n      dup3\n      mstore\n      returndatasize\n      0x00\n      0x20\n      dup5\n      add\n      returndatacopy\n      jump(tag_321)\n    tag_322:\n      0x60\n      swap2\n      pop\n    tag_321:\n      pop\n        /* \"contracts/erevos/ErevosFeeReflection.sol\":4387:4440  (bool s1, ) = coreWallet.call{value: coreBalance}(\"\") */\n      pop\n      swap1\n      pop\n        /* \"contracts/erevos/ErevosFeeReflection.sol\":4463:4465  s1 */\n      dup1\n        /* \"contracts/erevos/ErevosFeeReflection.sol\":4455:4497  require(s1, \"Core wallet transfer failed\") */\n      tag_323\n      jumpi\n      mload(0x40)\n      0x08c379a000000000000000000000000000000000000000000000000000000000\n      dup2\n      mstore\n      0x04\n      add\n      tag_324\n      swap1\n      tag_325\n      jump\t// in\n    tag_324:\n      mload(0x40)\n      dup1\n      swap2\n      sub\n      swap1\n      revert\n    tag_323:\n        /* \"contracts/erevos/ErevosFeeReflection.sol\":4526:4527  0 */\n      0x00\n        /* \"contracts/erevos/ErevosFeeReflection.sol\":4512:4523  coreBalance */\n      0x05\n        /* \"contracts/erevos/ErevosFeeReflection.sol\":4512:4527  coreBalance = 0 */\n      dup2\n      swap1\n      sstore\n      pop\n        /* \"contracts/erevos/ErevosFeeReflection.sol\":4372:4539  {... */\n      pop\n        /* \"contracts/erevos/ErevosFeeReflection.sol\":4351:4539  if (coreBalance > 0) {... */\n    tag_318:\n        /* \"contracts/erevos/ErevosFeeReflection.sol\":4156:4546  {... */\n      pop\n        /* \"@openzeppelin/contracts/utils/ReentrancyGuard.sol\":3065:3085  _nonReentrantAfter() */\n      tag_326\n        /* \"@openzeppelin/contracts/utils/ReentrancyGuard.sol\":3065:3083  _nonReentrantAfter */\n      tag_214\n        /* \"@openzeppelin/contracts/utils/ReentrancyGuard.sol\":3065:3085  _nonReentrantAfter() */\n      jump\t// in\n    tag_326:\n        /* \"contracts/erevos/ErevosFeeReflection.sol\":4100:4546  function withdrawCore() external onlyOwner nonReentrant {... */\n      jump\t// out\n        /* \"contracts/erevos/ErevosFeeReflection.sol\":5067:5176  function processIncomingTokens() external onlyOwnerOrWhitelistedNFT {... */\n    tag_146:\n        /* \"contracts/erevos/ErevosFeeReflection.sol\":3171:3178  owner() */\n      tag_328\n        /* \"contracts/erevos/ErevosFeeReflection.sol\":3171:3176  owner */\n      tag_121\n        /* \"contracts/erevos/ErevosFeeReflection.sol\":3171:3178  owner() */\n      jump\t// in\n    tag_328:\n        /* \"contracts/erevos/ErevosFeeReflection.sol\":3157:3178  msg.sender == owner() */\n      0xffffffffffffffffffffffffffffffffffffffff\n      and\n        /* \"contracts/erevos/ErevosFeeReflection.sol\":3157:3167  msg.sender */\n      caller\n        /* \"contracts/erevos/ErevosFeeReflection.sol\":3157:3178  msg.sender == owner() */\n      0xffffffffffffffffffffffffffffffffffffffff\n      and\n      eq\n        /* \"contracts/erevos/ErevosFeeReflection.sol\":3157:3209  msg.sender == owner() || whitelistedNFTs[msg.sender] */\n      dup1\n      tag_329\n      jumpi\n      pop\n        /* \"contracts/erevos/ErevosFeeReflection.sol\":3182:3197  whitelistedNFTs */\n      0x03\n        /* \"contracts/erevos/ErevosFeeReflection.sol\":3182:3209  whitelistedNFTs[msg.sender] */\n      0x00\n        /* \"contracts/erevos/ErevosFeeReflection.sol\":3198:3208  msg.sender */\n      caller\n        /* \"contracts/erevos/ErevosFeeReflection.sol\":3182:3209  whitelistedNFTs[msg.sender] */\n      0xffffffffffffffffffffffffffffffffffffffff\n      and\n      0xffffffffffffffffffffffffffffffffffffffff\n      and\n      dup2\n      mstore\n      0x20\n      add\n      swap1\n      dup2\n      mstore\n      0x20\n      add\n      0x00\n      keccak256\n      0x00\n      swap1\n      sload\n      swap1\n      0x0100\n      exp\n      swap1\n      div\n      0xff\n      and\n        /* \"contracts/erevos/ErevosFeeReflection.sol\":3157:3209  msg.sender == owner() || whitelistedNFTs[msg.sender] */\n    tag_329:\n        /* \"contracts/erevos/ErevosFeeReflection.sol\":3135:3280  require(... */\n      tag_330\n      jumpi\n      mload(0x40)\n      0x08c379a000000000000000000000000000000000000000000000000000000000\n      dup2\n      mstore\n      0x04\n      add\n      tag_331\n      swap1\n      tag_332\n      jump\t// in\n    tag_331:\n      mload(0x40)\n      dup1\n      swap2\n      sub\n      swap1\n      revert\n    tag_330:\n        /* \"contracts/erevos/ErevosFeeReflection.sol\":5146:5168  _processIncomingFee(0) */\n      tag_334\n        /* \"contracts/erevos/ErevosFeeReflection.sol\":5166:5167  0 */\n      0x00\n        /* \"contracts/erevos/ErevosFeeReflection.sol\":5146:5165  _processIncomingFee */\n      tag_40\n        /* \"contracts/erevos/ErevosFeeReflection.sol\":5146:5168  _processIncomingFee(0) */\n      jump\t// in\n    tag_334:\n        /* \"contracts/erevos/ErevosFeeReflection.sol\":5067:5176  function processIncomingTokens() external onlyOwnerOrWhitelistedNFT {... */\n      jump\t// out\n        /* \"contracts/erevos/ErevosFeeReflection.sol\":5464:5664  function manualBuyAndBurnCore() external onlyOwner nonReentrant { // Add: Separate manual for core only... */\n    tag_149:\n        /* \"@openzeppelin/contracts/access/Ownable.sol\":1531:1544  _checkOwner() */\n      tag_336\n        /* \"@openzeppelin/contracts/access/Ownable.sol\":1531:1542  _checkOwner */\n      tag_201\n        /* \"@openzeppelin/contracts/access/Ownable.sol\":1531:1544  _checkOwner() */\n      jump\t// in\n    tag_336:\n        /* \"@openzeppelin/contracts/utils/ReentrancyGuard.sol\":3023:3044  _nonReentrantBefore() */\n      tag_338\n        /* \"@openzeppelin/contracts/utils/ReentrancyGuard.sol\":3023:3042  _nonReentrantBefore */\n      tag_211\n        /* \"@openzeppelin/contracts/utils/ReentrancyGuard.sol\":3023:3044  _nonReentrantBefore() */\n      jump\t// in\n    tag_338:\n        /* \"contracts/erevos/ErevosFeeReflection.sol\":5599:5600  0 */\n      0x00\n        /* \"contracts/erevos/ErevosFeeReflection.sol\":5585:5596  coreBalance */\n      sload(0x05)\n        /* \"contracts/erevos/ErevosFeeReflection.sol\":5585:5600  coreBalance > 0 */\n      gt\n        /* \"contracts/erevos/ErevosFeeReflection.sol\":5577:5628  require(coreBalance > 0, \"No core balance to burn\") */\n      tag_340\n      jumpi\n      mload(0x40)\n      0x08c379a000000000000000000000000000000000000000000000000000000000\n      dup2\n      mstore\n      0x04\n      add\n      tag_341\n      swap1\n      tag_342\n      jump\t// in\n    tag_341:\n      mload(0x40)\n      dup1\n      swap2\n      sub\n      swap1\n      revert\n    tag_340:\n        /* \"contracts/erevos/ErevosFeeReflection.sol\":5639:5656  _buyAndBurnCore() */\n      tag_343\n        /* \"contracts/erevos/ErevosFeeReflection.sol\":5639:5654  _buyAndBurnCore */\n      tag_197\n        /* \"contracts/erevos/ErevosFeeReflection.sol\":5639:5656  _buyAndBurnCore() */\n      jump\t// in\n    tag_343:\n        /* \"@openzeppelin/contracts/utils/ReentrancyGuard.sol\":3065:3085  _nonReentrantAfter() */\n      tag_344\n        /* \"@openzeppelin/contracts/utils/ReentrancyGuard.sol\":3065:3083  _nonReentrantAfter */\n      tag_214\n        /* \"@openzeppelin/contracts/utils/ReentrancyGuard.sol\":3065:3085  _nonReentrantAfter() */\n      jump\t// in\n    tag_344:\n        /* \"contracts/erevos/ErevosFeeReflection.sol\":5464:5664  function manualBuyAndBurnCore() external onlyOwner nonReentrant { // Add: Separate manual for core only... */\n      jump\t// out\n        /* \"@openzeppelin/contracts/access/Ownable.sol\":2543:2758  function transferOwnership(address newOwner) public virtual onlyOwner {... */\n    tag_153:\n        /* \"@openzeppelin/contracts/access/Ownable.sol\":1531:1544  _checkOwner() */\n      tag_346\n        /* \"@openzeppelin/contracts/access/Ownable.sol\":1531:1542  _checkOwner */\n      tag_201\n        /* \"@openzeppelin/contracts/access/Ownable.sol\":1531:1544  _checkOwner() */\n      jump\t// in\n    tag_346:\n        /* \"@openzeppelin/contracts/access/Ownable.sol\":2647:2648  0 */\n      0x00\n        /* \"@openzeppelin/contracts/access/Ownable.sol\":2627:2649  newOwner == address(0) */\n      0xffffffffffffffffffffffffffffffffffffffff\n      and\n        /* \"@openzeppelin/contracts/access/Ownable.sol\":2627:2635  newOwner */\n      dup2\n        /* \"@openzeppelin/contracts/access/Ownable.sol\":2627:2649  newOwner == address(0) */\n      0xffffffffffffffffffffffffffffffffffffffff\n      and\n      sub\n        /* \"@openzeppelin/contracts/access/Ownable.sol\":2623:2714  if (newOwner == address(0)) {... */\n      tag_348\n      jumpi\n        /* \"@openzeppelin/contracts/access/Ownable.sol\":2700:2701  0 */\n      0x00\n        /* \"@openzeppelin/contracts/access/Ownable.sol\":2672:2703  OwnableInvalidOwner(address(0)) */\n      mload(0x40)\n      0x1e4fbdf700000000000000000000000000000000000000000000000000000000\n      dup2\n      mstore\n      0x04\n      add\n      tag_349\n      swap2\n      swap1\n      tag_49\n      jump\t// in\n    tag_349:\n      mload(0x40)\n      dup1\n      swap2\n      sub\n      swap1\n      revert\n        /* \"@openzeppelin/contracts/access/Ownable.sol\":2623:2714  if (newOwner == address(0)) {... */\n    tag_348:\n        /* \"@openzeppelin/contracts/access/Ownable.sol\":2723:2751  _transferOwnership(newOwner) */\n      tag_350\n        /* \"@openzeppelin/contracts/access/Ownable.sol\":2742:2750  newOwner */\n      dup2\n        /* \"@openzeppelin/contracts/access/Ownable.sol\":2723:2741  _transferOwnership */\n      tag_237\n        /* \"@openzeppelin/contracts/access/Ownable.sol\":2723:2751  _transferOwnership(newOwner) */\n      jump\t// in\n    tag_350:\n        /* \"@openzeppelin/contracts/access/Ownable.sol\":2543:2758  function transferOwnership(address newOwner) public virtual onlyOwner {... */\n      pop\n      jump\t// out\n        /* \"contracts/erevos/ErevosFeeReflection.sol\":827:877  address public immutable BURN_ADDRESS = address(0) */\n    tag_156:\n      immutable(\"0x53a567f139fae6361ef1fc50f0d7f0e238715bf9b3b92e292f2870ad590abe18\")\n      dup2\n      jump\t// out\n        /* \"contracts/erevos/ErevosFeeReflection.sol\":8590:9040  function _distributeToNFTs() internal {... */\n    tag_191:\n        /* \"contracts/erevos/ErevosFeeReflection.sol\":8653:8654  0 */\n      0x00\n        /* \"contracts/erevos/ErevosFeeReflection.sol\":8639:8649  nftBalance */\n      sload(0x06)\n        /* \"contracts/erevos/ErevosFeeReflection.sol\":8639:8654  nftBalance == 0 */\n      sub\n        /* \"contracts/erevos/ErevosFeeReflection.sol\":8635:8663  if (nftBalance == 0) return; */\n      iszero\n        /* \"contracts/erevos/ErevosFeeReflection.sol\":8656:8663  return; */\n      tag_351\n        /* \"contracts/erevos/ErevosFeeReflection.sol\":8635:8663  if (nftBalance == 0) return; */\n      jumpi\n        /* \"contracts/erevos/ErevosFeeReflection.sol\":8671:8690  uint256 sharePerNFT */\n      0x00\n        /* \"contracts/erevos/ErevosFeeReflection.sol\":8706:8707  9 */\n      0x09\n        /* \"contracts/erevos/ErevosFeeReflection.sol\":8693:8703  nftBalance */\n      sload(0x06)\n        /* \"contracts/erevos/ErevosFeeReflection.sol\":8693:8707  nftBalance / 9 */\n      tag_353\n      swap2\n      swap1\n      tag_180\n      jump\t// in\n    tag_353:\n        /* \"contracts/erevos/ErevosFeeReflection.sol\":8671:8707  uint256 sharePerNFT = nftBalance / 9 */\n      swap1\n      pop\n        /* \"contracts/erevos/ErevosFeeReflection.sol\":8721:8730  uint256 i */\n      0x00\n        /* \"contracts/erevos/ErevosFeeReflection.sol\":8733:8734  1 */\n      0x01\n        /* \"contracts/erevos/ErevosFeeReflection.sol\":8721:8734  uint256 i = 1 */\n      swap1\n      pop\n        /* \"contracts/erevos/ErevosFeeReflection.sol\":8716:9014  for (uint256 i = 1; i <= 9; i++) {... */\n    tag_354:\n        /* \"contracts/erevos/ErevosFeeReflection.sol\":8741:8742  9 */\n      0x09\n        /* \"contracts/erevos/ErevosFeeReflection.sol\":8736:8737  i */\n      dup2\n        /* \"contracts/erevos/ErevosFeeReflection.sol\":8736:8742  i <= 9 */\n      gt\n        /* \"contracts/erevos/ErevosFeeReflection.sol\":8716:9014  for (uint256 i = 1; i <= 9; i++) {... */\n      tag_355\n      jumpi\n        /* \"contracts/erevos/ErevosFeeReflection.sol\":8772:8781  erevosNFT */\n      immutable(\"0x80b1139a78e0387bfff74bc319d0cecf3afb1f18be7e763c8d59660a3efccbd8\")\n        /* \"contracts/erevos/ErevosFeeReflection.sol\":8764:8790  IERC721(erevosNFT).ownerOf */\n      0xffffffffffffffffffffffffffffffffffffffff\n      and\n      0x6352211e\n        /* \"contracts/erevos/ErevosFeeReflection.sol\":8791:8792  i */\n      dup3\n        /* \"contracts/erevos/ErevosFeeReflection.sol\":8764:8793  IERC721(erevosNFT).ownerOf(i) */\n      mload(0x40)\n      dup3\n      0xffffffff\n      and\n      0xe0\n      shl\n      dup2\n      mstore\n      0x04\n      add\n      tag_357\n      swap2\n      swap1\n      tag_74\n      jump\t// in\n    tag_357:\n      0x20\n      mload(0x40)\n      dup1\n      dup4\n      sub\n      dup2\n      dup7\n      gas\n      staticcall\n      swap3\n      pop\n      pop\n      pop\n      dup1\n      iszero\n      tag_358\n      jumpi\n      pop\n      mload(0x40)\n      returndatasize\n      not(0x1f)\n      0x1f\n      dup3\n      add\n      and\n      dup3\n      add\n      dup1\n      0x40\n      mstore\n      pop\n      dup2\n      add\n      swap1\n      tag_359\n      swap2\n      swap1\n      tag_360\n      jump\t// in\n    tag_359:\n      0x01\n    tag_358:\n        /* \"contracts/erevos/ErevosFeeReflection.sol\":8760:9007  try IERC721(erevosNFT).ownerOf(i) returns (address owner) {... */\n      iszero\n      tag_365\n      jumpi\n        /* \"contracts/erevos/ErevosFeeReflection.sol\":8854:8855  0 */\n      0x00\n        /* \"contracts/erevos/ErevosFeeReflection.sol\":8837:8856  owner != address(0) */\n      0xffffffffffffffffffffffffffffffffffffffff\n      and\n        /* \"contracts/erevos/ErevosFeeReflection.sol\":8837:8842  owner */\n      dup2\n        /* \"contracts/erevos/ErevosFeeReflection.sol\":8837:8856  owner != address(0) */\n      0xffffffffffffffffffffffffffffffffffffffff\n      and\n      eq\n        /* \"contracts/erevos/ErevosFeeReflection.sol\":8833:8933  if (owner != address(0)) {... */\n      tag_366\n      jumpi\n        /* \"contracts/erevos/ErevosFeeReflection.sol\":8883:8887  WETN */\n      immutable(\"0xecac27c21aa9a89d7be9ad03c2d91e82cbd466284ecdf2bd5bad7f953539cc45\")\n        /* \"contracts/erevos/ErevosFeeReflection.sol\":8877:8897  IWETN(WETN).transfer */\n      0xffffffffffffffffffffffffffffffffffffffff\n      and\n      0xa9059cbb\n        /* \"contracts/erevos/ErevosFeeReflection.sol\":8898:8903  owner */\n      dup3\n        /* \"contracts/erevos/ErevosFeeReflection.sol\":8905:8916  sharePerNFT */\n      dup6\n        /* \"contracts/erevos/ErevosFeeReflection.sol\":8877:8917  IWETN(WETN).transfer(owner, sharePerNFT) */\n      mload(0x40)\n      dup4\n      0xffffffff\n      and\n      0xe0\n      shl\n      dup2\n      mstore\n      0x04\n      add\n      tag_367\n      swap3\n      swap2\n      swap1\n      tag_296\n      jump\t// in\n    tag_367:\n      0x20\n      mload(0x40)\n      dup1\n      dup4\n      sub\n      dup2\n      0x00\n      dup8\n      gas\n      call\n      iszero\n      dup1\n      iszero\n      tag_369\n      jumpi\n      returndatasize\n      0x00\n      dup1\n      returndatacopy\n      revert(0x00, returndatasize)\n    tag_369:\n      pop\n      pop\n      pop\n      pop\n      mload(0x40)\n      returndatasize\n      not(0x1f)\n      0x1f\n      dup3\n      add\n      and\n      dup3\n      add\n      dup1\n      0x40\n      mstore\n      pop\n      dup2\n      add\n      swap1\n      tag_370\n      swap2\n      swap1\n      tag_300\n      jump\t// in\n    tag_370:\n      pop\n        /* \"contracts/erevos/ErevosFeeReflection.sol\":8833:8933  if (owner != address(0)) {... */\n    tag_366:\n        /* \"contracts/erevos/ErevosFeeReflection.sol\":8794:8944  returns (address owner) {... */\n      pop\n        /* \"contracts/erevos/ErevosFeeReflection.sol\":8760:9007  try IERC721(erevosNFT).ownerOf(i) returns (address owner) {... */\n    tag_365:\n        /* \"contracts/erevos/ErevosFeeReflection.sol\":8744:8747  i++ */\n      dup1\n      dup1\n      tag_371\n      swap1\n      tag_372\n      jump\t// in\n    tag_371:\n      swap2\n      pop\n      pop\n        /* \"contracts/erevos/ErevosFeeReflection.sol\":8716:9014  for (uint256 i = 1; i <= 9; i++) {... */\n      jump(tag_354)\n    tag_355:\n      pop\n        /* \"contracts/erevos/ErevosFeeReflection.sol\":9035:9036  0 */\n      0x00\n        /* \"contracts/erevos/ErevosFeeReflection.sol\":9022:9032  nftBalance */\n      0x06\n        /* \"contracts/erevos/ErevosFeeReflection.sol\":9022:9036  nftBalance = 0 */\n      dup2\n      swap1\n      sstore\n      pop\n        /* \"contracts/erevos/ErevosFeeReflection.sol\":8628:9040  {... */\n      pop\n        /* \"contracts/erevos/ErevosFeeReflection.sol\":8590:9040  function _distributeToNFTs() internal {... */\n    tag_351:\n      jump\t// out\n        /* \"contracts/erevos/ErevosFeeReflection.sol\":6883:7516  function _buyAndBurn() internal {... */\n    tag_194:\n        /* \"contracts/erevos/ErevosFeeReflection.sol\":6944:6945  0 */\n      0x00\n        /* \"contracts/erevos/ErevosFeeReflection.sol\":6930:6941  clubBalance */\n      sload(0x04)\n        /* \"contracts/erevos/ErevosFeeReflection.sol\":6930:6945  clubBalance > 0 */\n      gt\n        /* \"contracts/erevos/ErevosFeeReflection.sol\":6926:7509  if (clubBalance > 0) {... */\n      iszero\n      tag_374\n      jumpi\n        /* \"contracts/erevos/ErevosFeeReflection.sol\":6968:6972  WETN */\n      immutable(\"0xecac27c21aa9a89d7be9ad03c2d91e82cbd466284ecdf2bd5bad7f953539cc45\")\n        /* \"contracts/erevos/ErevosFeeReflection.sol\":6962:6981  IWETN(WETN).approve */\n      0xffffffffffffffffffffffffffffffffffffffff\n      and\n      0x095ea7b3\n        /* \"contracts/erevos/ErevosFeeReflection.sol\":6990:6998  v3Router */\n      0x01\n      0x00\n      swap1\n      sload\n      swap1\n      0x0100\n      exp\n      swap1\n      div\n      0xffffffffffffffffffffffffffffffffffffffff\n      and\n        /* \"contracts/erevos/ErevosFeeReflection.sol\":7001:7012  clubBalance */\n      sload(0x04)\n        /* \"contracts/erevos/ErevosFeeReflection.sol\":6962:7013  IWETN(WETN).approve(address(v3Router), clubBalance) */\n      mload(0x40)\n      dup4\n      0xffffffff\n      and\n      0xe0\n      shl\n      dup2\n      mstore\n      0x04\n      add\n      tag_375\n      swap3\n      swap2\n      swap1\n      tag_296\n      jump\t// in\n    tag_375:\n      0x20\n      mload(0x40)\n      dup1\n      dup4\n      sub\n      dup2\n      0x00\n      dup8\n      gas\n      call\n      iszero\n      dup1\n      iszero\n      tag_377\n      jumpi\n      returndatasize\n      0x00\n      dup1\n      returndatacopy\n      revert(0x00, returndatasize)\n    tag_377:\n      pop\n      pop\n      pop\n      pop\n      mload(0x40)\n      returndatasize\n      not(0x1f)\n      0x1f\n      dup3\n      add\n      and\n      dup3\n      add\n      dup1\n      0x40\n      mstore\n      pop\n      dup2\n      add\n      swap1\n      tag_378\n      swap2\n      swap1\n      tag_300\n      jump\t// in\n    tag_378:\n      pop\n        /* \"contracts/erevos/ErevosFeeReflection.sol\":7031:7074  V3Router.ExactInputParams memory clubParams */\n      0x00\n        /* \"contracts/erevos/ErevosFeeReflection.sol\":7077:7301  V3Router.ExactInputParams({... */\n      mload(0x40)\n      dup1\n      0x80\n      add\n      0x40\n      mstore\n      dup1\n        /* \"contracts/erevos/ErevosFeeReflection.sol\":7145:7149  WETN */\n      immutable(\"0xecac27c21aa9a89d7be9ad03c2d91e82cbd466284ecdf2bd5bad7f953539cc45\")\n        /* \"contracts/erevos/ErevosFeeReflection.sol\":7151:7158  poolFee */\n      immutable(\"0xcbed0b1d3a1277a40039319ec662a24e459cebc5a8a67bbe6677be473fa127fe\")\n        /* \"contracts/erevos/ErevosFeeReflection.sol\":7160:7164  club */\n      immutable(\"0x7a80aab8ee1b9114f05440301177d10784c915c9e300d985d7e845429f5da96a\")\n        /* \"contracts/erevos/ErevosFeeReflection.sol\":7128:7165  abi.encodePacked(WETN, poolFee, club) */\n      add(0x20, mload(0x40))\n      tag_379\n      swap4\n      swap3\n      swap2\n      swap1\n      tag_380\n      jump\t// in\n    tag_379:\n      mload(0x40)\n      0x20\n      dup2\n      dup4\n      sub\n      sub\n      dup2\n      mstore\n      swap1\n      0x40\n      mstore\n        /* \"contracts/erevos/ErevosFeeReflection.sol\":7077:7301  V3Router.ExactInputParams({... */\n      dup2\n      mstore\n      0x20\n      add\n        /* \"contracts/erevos/ErevosFeeReflection.sol\":7195:7207  DEAD_ADDRESS */\n      immutable(\"0xe3df22c4356e5c0e9f35408e2e38091fb1b723609d1444fe8c117fe874adfde5\")\n        /* \"contracts/erevos/ErevosFeeReflection.sol\":7077:7301  V3Router.ExactInputParams({... */\n      0xffffffffffffffffffffffffffffffffffffffff\n      and\n      dup2\n      mstore\n      0x20\n      add\n        /* \"contracts/erevos/ErevosFeeReflection.sol\":7236:7247  clubBalance */\n      sload(0x04)\n        /* \"contracts/erevos/ErevosFeeReflection.sol\":7077:7301  V3Router.ExactInputParams({... */\n      dup2\n      mstore\n      0x20\n      add\n        /* \"contracts/erevos/ErevosFeeReflection.sol\":7284:7285  0 */\n      0x00\n        /* \"contracts/erevos/ErevosFeeReflection.sol\":7077:7301  V3Router.ExactInputParams({... */\n      dup2\n      mstore\n      pop\n        /* \"contracts/erevos/ErevosFeeReflection.sol\":7031:7301  V3Router.ExactInputParams memory clubParams = V3Router.ExactInputParams({... */\n      swap1\n      pop\n        /* \"contracts/erevos/ErevosFeeReflection.sol\":7316:7331  uint clubBurned */\n      0x00\n        /* \"contracts/erevos/ErevosFeeReflection.sol\":7334:7342  v3Router */\n      0x01\n      0x00\n      swap1\n      sload\n      swap1\n      0x0100\n      exp\n      swap1\n      div\n      0xffffffffffffffffffffffffffffffffffffffff\n      and\n        /* \"contracts/erevos/ErevosFeeReflection.sol\":7334:7353  v3Router.exactInput */\n      0xffffffffffffffffffffffffffffffffffffffff\n      and\n      0xb858183f\n        /* \"contracts/erevos/ErevosFeeReflection.sol\":7354:7364  clubParams */\n      dup4\n        /* \"contracts/erevos/ErevosFeeReflection.sol\":7334:7365  v3Router.exactInput(clubParams) */\n      mload(0x40)\n      dup3\n      0xffffffff\n      and\n      0xe0\n      shl\n      dup2\n      mstore\n      0x04\n      add\n      tag_381\n      swap2\n      swap1\n      tag_382\n      jump\t// in\n    tag_381:\n      0x20\n      mload(0x40)\n      dup1\n      dup4\n      sub\n      dup2\n      0x00\n      dup8\n      gas\n      call\n      iszero\n      dup1\n      iszero\n      tag_384\n      jumpi\n      returndatasize\n      0x00\n      dup1\n      returndatacopy\n      revert(0x00, returndatasize)\n    tag_384:\n      pop\n      pop\n      pop\n      pop\n      mload(0x40)\n      returndatasize\n      not(0x1f)\n      0x1f\n      dup3\n      add\n      and\n      dup3\n      add\n      dup1\n      0x40\n      mstore\n      pop\n      dup2\n      add\n      swap1\n      tag_385\n      swap2\n      swap1\n      tag_167\n      jump\t// in\n    tag_385:\n        /* \"contracts/erevos/ErevosFeeReflection.sol\":7316:7365  uint clubBurned = v3Router.exactInput(clubParams) */\n      swap1\n      pop\n        /* \"contracts/erevos/ErevosFeeReflection.sol\":7394:7395  0 */\n      0x00\n        /* \"contracts/erevos/ErevosFeeReflection.sol\":7380:7391  clubBalance */\n      0x04\n        /* \"contracts/erevos/ErevosFeeReflection.sol\":7380:7395  clubBalance = 0 */\n      dup2\n      swap1\n      sstore\n      pop\n        /* \"contracts/erevos/ErevosFeeReflection.sol\":7429:7430  0 */\n      0x00\n        /* \"contracts/erevos/ErevosFeeReflection.sol\":7416:7426  clubBurned */\n      dup2\n        /* \"contracts/erevos/ErevosFeeReflection.sol\":7416:7430  clubBurned > 0 */\n      gt\n        /* \"contracts/erevos/ErevosFeeReflection.sol\":7412:7498  if (clubBurned > 0) {... */\n      iszero\n      tag_386\n      jumpi\n        /* \"contracts/erevos/ErevosFeeReflection.sol\":7456:7482  ClubBuyAndBurn(clubBurned) */\n      0x9f7c0331cae72869b1e69d00e6dbfceb0e02266830e12339f841d334bc614127\n        /* \"contracts/erevos/ErevosFeeReflection.sol\":7471:7481  clubBurned */\n      dup2\n        /* \"contracts/erevos/ErevosFeeReflection.sol\":7456:7482  ClubBuyAndBurn(clubBurned) */\n      mload(0x40)\n      tag_387\n      swap2\n      swap1\n      tag_74\n      jump\t// in\n    tag_387:\n      mload(0x40)\n      dup1\n      swap2\n      sub\n      swap1\n      log1\n        /* \"contracts/erevos/ErevosFeeReflection.sol\":7412:7498  if (clubBurned > 0) {... */\n    tag_386:\n        /* \"contracts/erevos/ErevosFeeReflection.sol\":6947:7509  {... */\n      pop\n      pop\n        /* \"contracts/erevos/ErevosFeeReflection.sol\":6926:7509  if (clubBalance > 0) {... */\n    tag_374:\n        /* \"contracts/erevos/ErevosFeeReflection.sol\":6883:7516  function _buyAndBurn() internal {... */\n      jump\t// out\n        /* \"contracts/erevos/ErevosFeeReflection.sol\":7524:8586  function _buyAndBurnCore() internal { // Add: New function for core V2 burn... */\n    tag_197:\n        /* \"contracts/erevos/ErevosFeeReflection.sol\":7627:7628  0 */\n      0x00\n        /* \"contracts/erevos/ErevosFeeReflection.sol\":7613:7624  coreBalance */\n      sload(0x05)\n        /* \"contracts/erevos/ErevosFeeReflection.sol\":7613:7628  coreBalance > 0 */\n      gt\n        /* \"contracts/erevos/ErevosFeeReflection.sol\":7609:8579  if (coreBalance > 0) {... */\n      iszero\n      tag_389\n      jumpi\n        /* \"contracts/erevos/ErevosFeeReflection.sol\":7645:7666  address[] memory path */\n      0x00\n        /* \"contracts/erevos/ErevosFeeReflection.sol\":7683:7684  2 */\n      0x02\n        /* \"contracts/erevos/ErevosFeeReflection.sol\":7669:7685  new address[](2) */\n      0xffffffffffffffff\n      dup2\n      gt\n      iszero\n      tag_390\n      jumpi\n      tag_391\n      tag_392\n      jump\t// in\n    tag_391:\n    tag_390:\n      mload(0x40)\n      swap1\n      dup1\n      dup3\n      mstore\n      dup1\n      0x20\n      mul\n      0x20\n      add\n      dup3\n      add\n      0x40\n      mstore\n      dup1\n      iszero\n      tag_393\n      jumpi\n      dup2\n      0x20\n      add\n      0x20\n      dup3\n      mul\n      dup1\n      calldatasize\n      dup4\n      calldatacopy\n      dup1\n      dup3\n      add\n      swap2\n      pop\n      pop\n      swap1\n      pop\n    tag_393:\n      pop\n        /* \"contracts/erevos/ErevosFeeReflection.sol\":7645:7685  address[] memory path = new address[](2) */\n      swap1\n      pop\n        /* \"contracts/erevos/ErevosFeeReflection.sol\":7710:7714  WETN */\n      immutable(\"0xecac27c21aa9a89d7be9ad03c2d91e82cbd466284ecdf2bd5bad7f953539cc45\")\n        /* \"contracts/erevos/ErevosFeeReflection.sol\":7700:7704  path */\n      dup2\n        /* \"contracts/erevos/ErevosFeeReflection.sol\":7705:7706  0 */\n      0x00\n        /* \"contracts/erevos/ErevosFeeReflection.sol\":7700:7707  path[0] */\n      dup2\n      mload\n      dup2\n      lt\n      tag_394\n      jumpi\n      tag_395\n      tag_396\n      jump\t// in\n    tag_395:\n    tag_394:\n      0x20\n      mul\n      0x20\n      add\n      add\n        /* \"contracts/erevos/ErevosFeeReflection.sol\":7700:7714  path[0] = WETN */\n      swap1\n      0xffffffffffffffffffffffffffffffffffffffff\n      and\n      swap1\n      dup2\n      0xffffffffffffffffffffffffffffffffffffffff\n      and\n      dup2\n      mstore\n      pop\n      pop\n        /* \"contracts/erevos/ErevosFeeReflection.sol\":7739:7748  coreToken */\n      immutable(\"0x983c9f9923666d71abefd6ca274543532a86910a4b5c1edaaec46ca6b31d59a3\")\n        /* \"contracts/erevos/ErevosFeeReflection.sol\":7729:7733  path */\n      dup2\n        /* \"contracts/erevos/ErevosFeeReflection.sol\":7734:7735  1 */\n      0x01\n        /* \"contracts/erevos/ErevosFeeReflection.sol\":7729:7736  path[1] */\n      dup2\n      mload\n      dup2\n      lt\n      tag_397\n      jumpi\n      tag_398\n      tag_396\n      jump\t// in\n    tag_398:\n    tag_397:\n      0x20\n      mul\n      0x20\n      add\n      add\n        /* \"contracts/erevos/ErevosFeeReflection.sol\":7729:7748  path[1] = coreToken */\n      swap1\n      0xffffffffffffffffffffffffffffffffffffffff\n      and\n      swap1\n      dup2\n      0xffffffffffffffffffffffffffffffffffffffff\n      and\n      dup2\n      mstore\n      pop\n      pop\n        /* \"contracts/erevos/ErevosFeeReflection.sol\":7765:7786  uint[] memory amounts */\n      0x00\n        /* \"contracts/erevos/ErevosFeeReflection.sol\":7789:7797  v2Router */\n      0x02\n      0x00\n      swap1\n      sload\n      swap1\n      0x0100\n      exp\n      swap1\n      div\n      0xffffffffffffffffffffffffffffffffffffffff\n      and\n        /* \"contracts/erevos/ErevosFeeReflection.sol\":7789:7811  v2Router.getAmountsOut */\n      0xffffffffffffffffffffffffffffffffffffffff\n      and\n      0xd06ca61f\n        /* \"contracts/erevos/ErevosFeeReflection.sol\":7812:7823  coreBalance */\n      sload(0x05)\n        /* \"contracts/erevos/ErevosFeeReflection.sol\":7825:7829  path */\n      dup5\n        /* \"contracts/erevos/ErevosFeeReflection.sol\":7789:7830  v2Router.getAmountsOut(coreBalance, path) */\n      mload(0x40)\n      dup4\n      0xffffffff\n      and\n      0xe0\n      shl\n      dup2\n      mstore\n      0x04\n      add\n      tag_399\n      swap3\n      swap2\n      swap1\n      tag_400\n      jump\t// in\n    tag_399:\n      0x00\n      mload(0x40)\n      dup1\n      dup4\n      sub\n      dup2\n      dup7\n      gas\n      staticcall\n      iszero\n      dup1\n      iszero\n      tag_402\n      jumpi\n      returndatasize\n      0x00\n      dup1\n      returndatacopy\n      revert(0x00, returndatasize)\n    tag_402:\n      pop\n      pop\n      pop\n      pop\n      mload(0x40)\n      returndatasize\n      0x00\n      dup3\n      returndatacopy\n      returndatasize\n      not(0x1f)\n      0x1f\n      dup3\n      add\n      and\n      dup3\n      add\n      dup1\n      0x40\n      mstore\n      pop\n      dup2\n      add\n      swap1\n      tag_403\n      swap2\n      swap1\n      tag_404\n      jump\t// in\n    tag_403:\n        /* \"contracts/erevos/ErevosFeeReflection.sol\":7765:7830  uint[] memory amounts = v2Router.getAmountsOut(coreBalance, path) */\n      swap1\n      pop\n        /* \"contracts/erevos/ErevosFeeReflection.sol\":7845:7861  uint expectedOut */\n      0x00\n        /* \"contracts/erevos/ErevosFeeReflection.sol\":7864:7871  amounts */\n      dup2\n        /* \"contracts/erevos/ErevosFeeReflection.sol\":7872:7873  1 */\n      0x01\n        /* \"contracts/erevos/ErevosFeeReflection.sol\":7864:7874  amounts[1] */\n      dup2\n      mload\n      dup2\n      lt\n      tag_405\n      jumpi\n      tag_406\n      tag_396\n      jump\t// in\n    tag_406:\n    tag_405:\n      0x20\n      mul\n      0x20\n      add\n      add\n      mload\n        /* \"contracts/erevos/ErevosFeeReflection.sol\":7845:7874  uint expectedOut = amounts[1] */\n      swap1\n      pop\n        /* \"contracts/erevos/ErevosFeeReflection.sol\":7889:7906  uint amountOutMin */\n      0x00\n        /* \"contracts/erevos/ErevosFeeReflection.sol\":7930:7933  100 */\n      0x64\n        /* \"contracts/erevos/ErevosFeeReflection.sol\":7924:7926  80 */\n      0x50\n        /* \"contracts/erevos/ErevosFeeReflection.sol\":7910:7921  expectedOut */\n      dup4\n        /* \"contracts/erevos/ErevosFeeReflection.sol\":7910:7926  expectedOut * 80 */\n      tag_407\n      swap2\n      swap1\n      tag_178\n      jump\t// in\n    tag_407:\n        /* \"contracts/erevos/ErevosFeeReflection.sol\":7909:7933  (expectedOut * 80) / 100 */\n      tag_408\n      swap2\n      swap1\n      tag_180\n      jump\t// in\n    tag_408:\n        /* \"contracts/erevos/ErevosFeeReflection.sol\":7889:7933  uint amountOutMin = (expectedOut * 80) / 100 */\n      swap1\n      pop\n        /* \"contracts/erevos/ErevosFeeReflection.sol\":7982:7986  WETN */\n      immutable(\"0xecac27c21aa9a89d7be9ad03c2d91e82cbd466284ecdf2bd5bad7f953539cc45\")\n        /* \"contracts/erevos/ErevosFeeReflection.sol\":7976:7995  IWETN(WETN).approve */\n      0xffffffffffffffffffffffffffffffffffffffff\n      and\n      0x095ea7b3\n        /* \"contracts/erevos/ErevosFeeReflection.sol\":8004:8012  v2Router */\n      0x02\n      0x00\n      swap1\n      sload\n      swap1\n      0x0100\n      exp\n      swap1\n      div\n      0xffffffffffffffffffffffffffffffffffffffff\n      and\n        /* \"contracts/erevos/ErevosFeeReflection.sol\":8015:8026  coreBalance */\n      sload(0x05)\n        /* \"contracts/erevos/ErevosFeeReflection.sol\":7976:8027  IWETN(WETN).approve(address(v2Router), coreBalance) */\n      mload(0x40)\n      dup4\n      0xffffffff\n      and\n      0xe0\n      shl\n      dup2\n      mstore\n      0x04\n      add\n      tag_409\n      swap3\n      swap2\n      swap1\n      tag_296\n      jump\t// in\n    tag_409:\n      0x20\n      mload(0x40)\n      dup1\n      dup4\n      sub\n      dup2\n      0x00\n      dup8\n      gas\n      call\n      iszero\n      dup1\n      iszero\n      tag_411\n      jumpi\n      returndatasize\n      0x00\n      dup1\n      returndatacopy\n      revert(0x00, returndatasize)\n    tag_411:\n      pop\n      pop\n      pop\n      pop\n      mload(0x40)\n      returndatasize\n      not(0x1f)\n      0x1f\n      dup3\n      add\n      and\n      dup3\n      add\n      dup1\n      0x40\n      mstore\n      pop\n      dup2\n      add\n      swap1\n      tag_412\n      swap2\n      swap1\n      tag_300\n      jump\t// in\n    tag_412:\n      pop\n        /* \"contracts/erevos/ErevosFeeReflection.sol\":8045:8069  uint[] memory amountsOut */\n      0x00\n        /* \"contracts/erevos/ErevosFeeReflection.sol\":8072:8080  v2Router */\n      0x02\n      0x00\n      swap1\n      sload\n      swap1\n      0x0100\n      exp\n      swap1\n      div\n      0xffffffffffffffffffffffffffffffffffffffff\n      and\n        /* \"contracts/erevos/ErevosFeeReflection.sol\":8072:8105  v2Router.swapExactTokensForTokens */\n      0xffffffffffffffffffffffffffffffffffffffff\n      and\n      0x38ed1739\n        /* \"contracts/erevos/ErevosFeeReflection.sol\":8124:8135  coreBalance */\n      sload(0x05)\n        /* \"contracts/erevos/ErevosFeeReflection.sol\":8154:8166  amountOutMin */\n      dup5\n        /* \"contracts/erevos/ErevosFeeReflection.sol\":8185:8189  path */\n      dup9\n        /* \"contracts/erevos/ErevosFeeReflection.sol\":8208:8220  BURN_ADDRESS */\n      immutable(\"0x53a567f139fae6361ef1fc50f0d7f0e238715bf9b3b92e292f2870ad590abe18\")\n        /* \"contracts/erevos/ErevosFeeReflection.sol\":8300:8303  300 */\n      0x012c\n        /* \"contracts/erevos/ErevosFeeReflection.sol\":8282:8297  block.timestamp */\n      timestamp\n        /* \"contracts/erevos/ErevosFeeReflection.sol\":8282:8303  block.timestamp + 300 */\n      tag_413\n      swap2\n      swap1\n      tag_169\n      jump\t// in\n    tag_413:\n        /* \"contracts/erevos/ErevosFeeReflection.sol\":8072:8337  v2Router.swapExactTokensForTokens(... */\n      mload(0x40)\n      dup7\n      0xffffffff\n      and\n      0xe0\n      shl\n      dup2\n      mstore\n      0x04\n      add\n      tag_414\n      swap6\n      swap5\n      swap4\n      swap3\n      swap2\n      swap1\n      tag_415\n      jump\t// in\n    tag_414:\n      0x00\n      mload(0x40)\n      dup1\n      dup4\n      sub\n      dup2\n      0x00\n      dup8\n      gas\n      call\n      iszero\n      dup1\n      iszero\n      tag_417\n      jumpi\n      returndatasize\n      0x00\n      dup1\n      returndatacopy\n      revert(0x00, returndatasize)\n    tag_417:\n      pop\n      pop\n      pop\n      pop\n      mload(0x40)\n      returndatasize\n      0x00\n      dup3\n      returndatacopy\n      returndatasize\n      not(0x1f)\n      0x1f\n      dup3\n      add\n      and\n      dup3\n      add\n      dup1\n      0x40\n      mstore\n      pop\n      dup2\n      add\n      swap1\n      tag_418\n      swap2\n      swap1\n      tag_404\n      jump\t// in\n    tag_418:\n        /* \"contracts/erevos/ErevosFeeReflection.sol\":8045:8337  uint[] memory amountsOut = v2Router.swapExactTokensForTokens(... */\n      swap1\n      pop\n        /* \"contracts/erevos/ErevosFeeReflection.sol\":8352:8367  uint coreBurned */\n      0x00\n        /* \"contracts/erevos/ErevosFeeReflection.sol\":8370:8380  amountsOut */\n      dup2\n        /* \"contracts/erevos/ErevosFeeReflection.sol\":8401:8402  1 */\n      0x01\n        /* \"contracts/erevos/ErevosFeeReflection.sol\":8381:8391  amountsOut */\n      dup4\n        /* \"contracts/erevos/ErevosFeeReflection.sol\":8381:8398  amountsOut.length */\n      mload\n        /* \"contracts/erevos/ErevosFeeReflection.sol\":8381:8402  amountsOut.length - 1 */\n      tag_419\n      swap2\n      swap1\n      tag_175\n      jump\t// in\n    tag_419:\n        /* \"contracts/erevos/ErevosFeeReflection.sol\":8370:8403  amountsOut[amountsOut.length - 1] */\n      dup2\n      mload\n      dup2\n      lt\n      tag_420\n      jumpi\n      tag_421\n      tag_396\n      jump\t// in\n    tag_421:\n    tag_420:\n      0x20\n      mul\n      0x20\n      add\n      add\n      mload\n        /* \"contracts/erevos/ErevosFeeReflection.sol\":8352:8403  uint coreBurned = amountsOut[amountsOut.length - 1] */\n      swap1\n      pop\n        /* \"contracts/erevos/ErevosFeeReflection.sol\":8464:8465  0 */\n      0x00\n        /* \"contracts/erevos/ErevosFeeReflection.sol\":8450:8461  coreBalance */\n      0x05\n        /* \"contracts/erevos/ErevosFeeReflection.sol\":8450:8465  coreBalance = 0 */\n      dup2\n      swap1\n      sstore\n      pop\n        /* \"contracts/erevos/ErevosFeeReflection.sol\":8499:8500  0 */\n      0x00\n        /* \"contracts/erevos/ErevosFeeReflection.sol\":8486:8496  coreBurned */\n      dup2\n        /* \"contracts/erevos/ErevosFeeReflection.sol\":8486:8500  coreBurned > 0 */\n      gt\n        /* \"contracts/erevos/ErevosFeeReflection.sol\":8482:8568  if (coreBurned > 0) {... */\n      iszero\n      tag_422\n      jumpi\n        /* \"contracts/erevos/ErevosFeeReflection.sol\":8526:8552  CoreBuyAndBurn(coreBurned) */\n      0xcb42363dcc1840222268fe43eebc976f3e311a14761e5396eb394ebdac90a582\n        /* \"contracts/erevos/ErevosFeeReflection.sol\":8541:8551  coreBurned */\n      dup2\n        /* \"contracts/erevos/ErevosFeeReflection.sol\":8526:8552  CoreBuyAndBurn(coreBurned) */\n      mload(0x40)\n      tag_423\n      swap2\n      swap1\n      tag_74\n      jump\t// in\n    tag_423:\n      mload(0x40)\n      dup1\n      swap2\n      sub\n      swap1\n      log1\n        /* \"contracts/erevos/ErevosFeeReflection.sol\":8482:8568  if (coreBurned > 0) {... */\n    tag_422:\n        /* \"contracts/erevos/ErevosFeeReflection.sol\":7630:8579  {... */\n      pop\n      pop\n      pop\n      pop\n      pop\n      pop\n        /* \"contracts/erevos/ErevosFeeReflection.sol\":7609:8579  if (coreBalance > 0) {... */\n    tag_389:\n        /* \"contracts/erevos/ErevosFeeReflection.sol\":7524:8586  function _buyAndBurnCore() internal { // Add: New function for core V2 burn... */\n      jump\t// out\n        /* \"@openzeppelin/contracts/access/Ownable.sol\":1796:1958  function _checkOwner() internal view virtual {... */\n    tag_201:\n        /* \"@openzeppelin/contracts/access/Ownable.sol\":1866:1878  _msgSender() */\n      tag_425\n        /* \"@openzeppelin/contracts/access/Ownable.sol\":1866:1876  _msgSender */\n      tag_426\n        /* \"@openzeppelin/contracts/access/Ownable.sol\":1866:1878  _msgSender() */\n      jump\t// in\n    tag_425:\n        /* \"@openzeppelin/contracts/access/Ownable.sol\":1855:1878  owner() != _msgSender() */\n      0xffffffffffffffffffffffffffffffffffffffff\n      and\n        /* \"@openzeppelin/contracts/access/Ownable.sol\":1855:1862  owner() */\n      tag_427\n        /* \"@openzeppelin/contracts/access/Ownable.sol\":1855:1860  owner */\n      tag_121\n        /* \"@openzeppelin/contracts/access/Ownable.sol\":1855:1862  owner() */\n      jump\t// in\n    tag_427:\n        /* \"@openzeppelin/contracts/access/Ownable.sol\":1855:1878  owner() != _msgSender() */\n      0xffffffffffffffffffffffffffffffffffffffff\n      and\n      eq\n        /* \"@openzeppelin/contracts/access/Ownable.sol\":1851:1952  if (owner() != _msgSender()) {... */\n      tag_428\n      jumpi\n        /* \"@openzeppelin/contracts/access/Ownable.sol\":1928:1940  _msgSender() */\n      tag_429\n        /* \"@openzeppelin/contracts/access/Ownable.sol\":1928:1938  _msgSender */\n      tag_426\n        /* \"@openzeppelin/contracts/access/Ownable.sol\":1928:1940  _msgSender() */\n      jump\t// in\n    tag_429:\n        /* \"@openzeppelin/contracts/access/Ownable.sol\":1901:1941  OwnableUnauthorizedAccount(_msgSender()) */\n      mload(0x40)\n      0x118cdaa700000000000000000000000000000000000000000000000000000000\n      dup2\n      mstore\n      0x04\n      add\n      tag_430\n      swap2\n      swap1\n      tag_49\n      jump\t// in\n    tag_430:\n      mload(0x40)\n      dup1\n      swap2\n      sub\n      swap1\n      revert\n        /* \"@openzeppelin/contracts/access/Ownable.sol\":1851:1952  if (owner() != _msgSender()) {... */\n    tag_428:\n        /* \"@openzeppelin/contracts/access/Ownable.sol\":1796:1958  function _checkOwner() internal view virtual {... */\n      jump\t// out\n        /* \"@openzeppelin/contracts/utils/ReentrancyGuard.sol\":3749:4041  function _nonReentrantBefore() private {... */\n    tag_211:\n        /* \"@openzeppelin/contracts/utils/ReentrancyGuard.sol\":3872:3897  _nonReentrantBeforeView() */\n      tag_432\n        /* \"@openzeppelin/contracts/utils/ReentrancyGuard.sol\":3872:3895  _nonReentrantBeforeView */\n      tag_433\n        /* \"@openzeppelin/contracts/utils/ReentrancyGuard.sol\":3872:3897  _nonReentrantBeforeView() */\n      jump\t// in\n    tag_432:\n        /* \"@openzeppelin/contracts/utils/ReentrancyGuard.sol\":2407:2408  2 */\n      0x02\n        /* \"@openzeppelin/contracts/utils/ReentrancyGuard.sol\":3972:4018  _reentrancyGuardStorageSlot().getUint256Slot() */\n      tag_434\n        /* \"@openzeppelin/contracts/utils/ReentrancyGuard.sol\":3972:4001  _reentrancyGuardStorageSlot() */\n      tag_435\n        /* \"@openzeppelin/contracts/utils/ReentrancyGuard.sol\":3972:3999  _reentrancyGuardStorageSlot */\n      tag_436\n        /* \"@openzeppelin/contracts/utils/ReentrancyGuard.sol\":3972:4001  _reentrancyGuardStorageSlot() */\n      jump\t// in\n    tag_435:\n        /* \"@openzeppelin/contracts/utils/ReentrancyGuard.sol\":3972:4016  _reentrancyGuardStorageSlot().getUint256Slot */\n      tag_437\n        /* \"@openzeppelin/contracts/utils/ReentrancyGuard.sol\":3972:4018  _reentrancyGuardStorageSlot().getUint256Slot() */\n      jump\t// in\n    tag_434:\n        /* \"@openzeppelin/contracts/utils/ReentrancyGuard.sol\":3972:4024  _reentrancyGuardStorageSlot().getUint256Slot().value */\n      0x00\n      add\n        /* \"@openzeppelin/contracts/utils/ReentrancyGuard.sol\":3972:4034  _reentrancyGuardStorageSlot().getUint256Slot().value = ENTERED */\n      dup2\n      swap1\n      sstore\n      pop\n        /* \"@openzeppelin/contracts/utils/ReentrancyGuard.sol\":3749:4041  function _nonReentrantBefore() private {... */\n      jump\t// out\n        /* \"@openzeppelin/contracts/utils/ReentrancyGuard.sol\":4047:4300  function _nonReentrantAfter() private {... */\n    tag_214:\n        /* \"@openzeppelin/contracts/utils/ReentrancyGuard.sol\":2365:2366  1 */\n      0x01\n        /* \"@openzeppelin/contracts/utils/ReentrancyGuard.sol\":4227:4273  _reentrancyGuardStorageSlot().getUint256Slot() */\n      tag_439\n        /* \"@openzeppelin/contracts/utils/ReentrancyGuard.sol\":4227:4256  _reentrancyGuardStorageSlot() */\n      tag_440\n        /* \"@openzeppelin/contracts/utils/ReentrancyGuard.sol\":4227:4254  _reentrancyGuardStorageSlot */\n      tag_436\n        /* \"@openzeppelin/contracts/utils/ReentrancyGuard.sol\":4227:4256  _reentrancyGuardStorageSlot() */\n      jump\t// in\n    tag_440:\n        /* \"@openzeppelin/contracts/utils/ReentrancyGuard.sol\":4227:4271  _reentrancyGuardStorageSlot().getUint256Slot */\n      tag_437\n        /* \"@openzeppelin/contracts/utils/ReentrancyGuard.sol\":4227:4273  _reentrancyGuardStorageSlot().getUint256Slot() */\n      jump\t// in\n    tag_439:\n        /* \"@openzeppelin/contracts/utils/ReentrancyGuard.sol\":4227:4279  _reentrancyGuardStorageSlot().getUint256Slot().value */\n      0x00\n      add\n        /* \"@openzeppelin/contracts/utils/ReentrancyGuard.sol\":4227:4293  _reentrancyGuardStorageSlot().getUint256Slot().value = NOT_ENTERED */\n      dup2\n      swap1\n      sstore\n      pop\n        /* \"@openzeppelin/contracts/utils/ReentrancyGuard.sol\":4047:4300  function _nonReentrantAfter() private {... */\n      jump\t// out\n        /* \"@openzeppelin/contracts/access/Ownable.sol\":2912:3099  function _transferOwnership(address newOwner) internal virtual {... */\n    tag_237:\n        /* \"@openzeppelin/contracts/access/Ownable.sol\":2985:3001  address oldOwner */\n      0x00\n        /* \"@openzeppelin/contracts/access/Ownable.sol\":3004:3010  _owner */\n      dup1\n      0x00\n      swap1\n      sload\n      swap1\n      0x0100\n      exp\n      swap1\n      div\n      0xffffffffffffffffffffffffffffffffffffffff\n      and\n        /* \"@openzeppelin/contracts/access/Ownable.sol\":2985:3010  address oldOwner = _owner */\n      swap1\n      pop\n        /* \"@openzeppelin/contracts/access/Ownable.sol\":3029:3037  newOwner */\n      dup2\n        /* \"@openzeppelin/contracts/access/Ownable.sol\":3020:3026  _owner */\n      0x00\n      dup1\n        /* \"@openzeppelin/contracts/access/Ownable.sol\":3020:3037  _owner = newOwner */\n      0x0100\n      exp\n      dup2\n      sload\n      dup2\n      0xffffffffffffffffffffffffffffffffffffffff\n      mul\n      not\n      and\n      swap1\n      dup4\n      0xffffffffffffffffffffffffffffffffffffffff\n      and\n      mul\n      or\n      swap1\n      sstore\n      pop\n        /* \"@openzeppelin/contracts/access/Ownable.sol\":3083:3091  newOwner */\n      dup2\n        /* \"@openzeppelin/contracts/access/Ownable.sol\":3052:3092  OwnershipTransferred(oldOwner, newOwner) */\n      0xffffffffffffffffffffffffffffffffffffffff\n      and\n        /* \"@openzeppelin/contracts/access/Ownable.sol\":3073:3081  oldOwner */\n      dup2\n        /* \"@openzeppelin/contracts/access/Ownable.sol\":3052:3092  OwnershipTransferred(oldOwner, newOwner) */\n      0xffffffffffffffffffffffffffffffffffffffff\n      and\n      0x8be0079c531659141344cd1fd0a4f28419497f9722a3daafe3b4186f6b6457e0\n      mload(0x40)\n      mload(0x40)\n      dup1\n      swap2\n      sub\n      swap1\n      log3\n        /* \"@openzeppelin/contracts/access/Ownable.sol\":2975:3099  {... */\n      pop\n        /* \"@openzeppelin/contracts/access/Ownable.sol\":2912:3099  function _transferOwnership(address newOwner) internal virtual {... */\n      pop\n      jump\t// out\n        /* \"@openzeppelin/contracts/utils/Context.sol\":656:752  function _msgSender() internal view virtual returns (address) {... */\n    tag_426:\n        /* \"@openzeppelin/contracts/utils/Context.sol\":709:716  address */\n      0x00\n        /* \"@openzeppelin/contracts/utils/Context.sol\":735:745  msg.sender */\n      caller\n        /* \"@openzeppelin/contracts/utils/Context.sol\":728:745  return msg.sender */\n      swap1\n      pop\n        /* \"@openzeppelin/contracts/utils/Context.sol\":656:752  function _msgSender() internal view virtual returns (address) {... */\n      swap1\n      jump\t// out\n        /* \"@openzeppelin/contracts/utils/ReentrancyGuard.sol\":3586:3743  function _nonReentrantBeforeView() private view {... */\n    tag_433:\n        /* \"@openzeppelin/contracts/utils/ReentrancyGuard.sol\":3648:3673  _reentrancyGuardEntered() */\n      tag_444\n        /* \"@openzeppelin/contracts/utils/ReentrancyGuard.sol\":3648:3671  _reentrancyGuardEntered */\n      tag_445\n        /* \"@openzeppelin/contracts/utils/ReentrancyGuard.sol\":3648:3673  _reentrancyGuardEntered() */\n      jump\t// in\n    tag_444:\n        /* \"@openzeppelin/contracts/utils/ReentrancyGuard.sol\":3644:3737  if (_reentrancyGuardEntered()) {... */\n      iszero\n      tag_446\n      jumpi\n        /* \"@openzeppelin/contracts/utils/ReentrancyGuard.sol\":3696:3726  ReentrancyGuardReentrantCall() */\n      mload(0x40)\n      0x3ee5aeb500000000000000000000000000000000000000000000000000000000\n      dup2\n      mstore\n      0x04\n      add\n      mload(0x40)\n      dup1\n      swap2\n      sub\n      swap1\n      revert\n        /* \"@openzeppelin/contracts/utils/ReentrancyGuard.sol\":3644:3737  if (_reentrancyGuardEntered()) {... */\n    tag_446:\n        /* \"@openzeppelin/contracts/utils/ReentrancyGuard.sol\":3586:3743  function _nonReentrantBeforeView() private view {... */\n      jump\t// out\n        /* \"@openzeppelin/contracts/utils/ReentrancyGuard.sol\":4636:4763  function _reentrancyGuardStorageSlot() internal pure virtual returns (bytes32) {... */\n    tag_436:\n        /* \"@openzeppelin/contracts/utils/ReentrancyGuard.sol\":4706:4713  bytes32 */\n      0x00\n        /* \"@openzeppelin/contracts/utils/ReentrancyGuard.sol\":1505:1571  0x9b779b17422d0df92223018b32b4d1fa46e071723d6817e2486d003becc55f00 */\n      0x9b779b17422d0df92223018b32b4d1fa46e071723d6817e2486d003becc55f00\n        /* \"@openzeppelin/contracts/utils/ReentrancyGuard.sol\":4732:4756  REENTRANCY_GUARD_STORAGE */\n      0x00\n      shl\n        /* \"@openzeppelin/contracts/utils/ReentrancyGuard.sol\":4725:4756  return REENTRANCY_GUARD_STORAGE */\n      swap1\n      pop\n        /* \"@openzeppelin/contracts/utils/ReentrancyGuard.sol\":4636:4763  function _reentrancyGuardStorageSlot() internal pure virtual returns (bytes32) {... */\n      swap1\n      jump\t// out\n        /* \"@openzeppelin/contracts/utils/StorageSlot.sol\":2679:2842  function getUint256Slot(bytes32 slot) internal pure returns (Uint256Slot storage r) {... */\n    tag_437:\n        /* \"@openzeppelin/contracts/utils/StorageSlot.sol\":2740:2761  Uint256Slot storage r */\n      0x00\n        /* \"@openzeppelin/contracts/utils/StorageSlot.sol\":2822:2826  slot */\n      dup2\n        /* \"@openzeppelin/contracts/utils/StorageSlot.sol\":2812:2826  r.slot := slot */\n      swap1\n      pop\n        /* \"@openzeppelin/contracts/utils/StorageSlot.sol\":2679:2842  function getUint256Slot(bytes32 slot) internal pure returns (Uint256Slot storage r) {... */\n      swap2\n      swap1\n      pop\n      jump\t// out\n        /* \"@openzeppelin/contracts/utils/ReentrancyGuard.sol\":4479:4630  function _reentrancyGuardEntered() internal view returns (bool) {... */\n    tag_445:\n        /* \"@openzeppelin/contracts/utils/ReentrancyGuard.sol\":4537:4541  bool */\n      0x00\n        /* \"@openzeppelin/contracts/utils/ReentrancyGuard.sol\":2407:2408  2 */\n      0x02\n        /* \"@openzeppelin/contracts/utils/ReentrancyGuard.sol\":4560:4606  _reentrancyGuardStorageSlot().getUint256Slot() */\n      tag_450\n        /* \"@openzeppelin/contracts/utils/ReentrancyGuard.sol\":4560:4589  _reentrancyGuardStorageSlot() */\n      tag_451\n        /* \"@openzeppelin/contracts/utils/ReentrancyGuard.sol\":4560:4587  _reentrancyGuardStorageSlot */\n      tag_436\n        /* \"@openzeppelin/contracts/utils/ReentrancyGuard.sol\":4560:4589  _reentrancyGuardStorageSlot() */\n      jump\t// in\n    tag_451:\n        /* \"@openzeppelin/contracts/utils/ReentrancyGuard.sol\":4560:4604  _reentrancyGuardStorageSlot().getUint256Slot */\n      tag_437\n        /* \"@openzeppelin/contracts/utils/ReentrancyGuard.sol\":4560:4606  _reentrancyGuardStorageSlot().getUint256Slot() */\n      jump\t// in\n    tag_450:\n        /* \"@openzeppelin/contracts/utils/ReentrancyGuard.sol\":4560:4612  _reentrancyGuardStorageSlot().getUint256Slot().value */\n      0x00\n      add\n      sload\n        /* \"@openzeppelin/contracts/utils/ReentrancyGuard.sol\":4560:4623  _reentrancyGuardStorageSlot().getUint256Slot().value == ENTERED */\n      eq\n        /* \"@openzeppelin/contracts/utils/ReentrancyGuard.sol\":4553:4623  return _reentrancyGuardStorageSlot().getUint256Slot().value == ENTERED */\n      swap1\n      pop\n        /* \"@openzeppelin/contracts/utils/ReentrancyGuard.sol\":4479:4630  function _reentrancyGuardEntered() internal view returns (bool) {... */\n      swap1\n      jump\t// out\n        /* \"#utility.yul\":7:133   */\n    tag_452:\n        /* \"#utility.yul\":44:51   */\n      0x00\n        /* \"#utility.yul\":84:126   */\n      0xffffffffffffffffffffffffffffffffffffffff\n        /* \"#utility.yul\":77:82   */\n      dup3\n        /* \"#utility.yul\":73:127   */\n      and\n        /* \"#utility.yul\":62:127   */\n      swap1\n      pop\n        /* \"#utility.yul\":7:133   */\n      swap2\n      swap1\n      pop\n      jump\t// out\n        /* \"#utility.yul\":139:235   */\n    tag_453:\n        /* \"#utility.yul\":176:183   */\n      0x00\n        /* \"#utility.yul\":205:229   */\n      tag_548\n        /* \"#utility.yul\":223:228   */\n      dup3\n        /* \"#utility.yul\":205:229   */\n      tag_452\n      jump\t// in\n    tag_548:\n        /* \"#utility.yul\":194:229   */\n      swap1\n      pop\n        /* \"#utility.yul\":139:235   */\n      swap2\n      swap1\n      pop\n      jump\t// out\n        /* \"#utility.yul\":241:359   */\n    tag_454:\n        /* \"#utility.yul\":328:352   */\n      tag_550\n        /* \"#utility.yul\":346:351   */\n      dup2\n        /* \"#utility.yul\":328:352   */\n      tag_453\n      jump\t// in\n    tag_550:\n        /* \"#utility.yul\":323:326   */\n      dup3\n        /* \"#utility.yul\":316:353   */\n      mstore\n        /* \"#utility.yul\":241:359   */\n      pop\n      pop\n      jump\t// out\n        /* \"#utility.yul\":365:587   */\n    tag_49:\n        /* \"#utility.yul\":458:462   */\n      0x00\n        /* \"#utility.yul\":496:498   */\n      0x20\n        /* \"#utility.yul\":485:494   */\n      dup3\n        /* \"#utility.yul\":481:499   */\n      add\n        /* \"#utility.yul\":473:499   */\n      swap1\n      pop\n        /* \"#utility.yul\":509:580   */\n      tag_552\n        /* \"#utility.yul\":577:578   */\n      0x00\n        /* \"#utility.yul\":566:575   */\n      dup4\n        /* \"#utility.yul\":562:579   */\n      add\n        /* \"#utility.yul\":553:559   */\n      dup5\n        /* \"#utility.yul\":509:580   */\n      tag_454\n      jump\t// in\n    tag_552:\n        /* \"#utility.yul\":365:587   */\n      swap3\n      swap2\n      pop\n      pop\n      jump\t// out\n        /* \"#utility.yul\":593:668   */\n    tag_455:\n        /* \"#utility.yul\":626:632   */\n      0x00\n        /* \"#utility.yul\":659:661   */\n      0x40\n        /* \"#utility.yul\":653:662   */\n      mload\n        /* \"#utility.yul\":643:662   */\n      swap1\n      pop\n        /* \"#utility.yul\":593:668   */\n      swap1\n      jump\t// out\n        /* \"#utility.yul\":674:791   */\n    tag_456:\n        /* \"#utility.yul\":783:784   */\n      0x00\n        /* \"#utility.yul\":780:781   */\n      dup1\n        /* \"#utility.yul\":773:785   */\n      revert\n        /* \"#utility.yul\":797:914   */\n    tag_457:\n        /* \"#utility.yul\":906:907   */\n      0x00\n        /* \"#utility.yul\":903:904   */\n      dup1\n        /* \"#utility.yul\":896:908   */\n      revert\n        /* \"#utility.yul\":920:1042   */\n    tag_458:\n        /* \"#utility.yul\":993:1017   */\n      tag_557\n        /* \"#utility.yul\":1011:1016   */\n      dup2\n        /* \"#utility.yul\":993:1017   */\n      tag_453\n      jump\t// in\n    tag_557:\n        /* \"#utility.yul\":986:991   */\n      dup2\n        /* \"#utility.yul\":983:1018   */\n      eq\n        /* \"#utility.yul\":973:1036   */\n      tag_558\n      jumpi\n        /* \"#utility.yul\":1032:1033   */\n      0x00\n        /* \"#utility.yul\":1029:1030   */\n      dup1\n        /* \"#utility.yul\":1022:1034   */\n      revert\n        /* \"#utility.yul\":973:1036   */\n    tag_558:\n        /* \"#utility.yul\":920:1042   */\n      pop\n      jump\t// out\n        /* \"#utility.yul\":1048:1187   */\n    tag_459:\n        /* \"#utility.yul\":1094:1099   */\n      0x00\n        /* \"#utility.yul\":1132:1138   */\n      dup2\n        /* \"#utility.yul\":1119:1139   */\n      calldataload\n        /* \"#utility.yul\":1110:1139   */\n      swap1\n      pop\n        /* \"#utility.yul\":1148:1181   */\n      tag_560\n        /* \"#utility.yul\":1175:1180   */\n      dup2\n        /* \"#utility.yul\":1148:1181   */\n      tag_458\n      jump\t// in\n    tag_560:\n        /* \"#utility.yul\":1048:1187   */\n      swap3\n      swap2\n      pop\n      pop\n      jump\t// out\n        /* \"#utility.yul\":1193:1522   */\n    tag_57:\n        /* \"#utility.yul\":1252:1258   */\n      0x00\n        /* \"#utility.yul\":1301:1303   */\n      0x20\n        /* \"#utility.yul\":1289:1298   */\n      dup3\n        /* \"#utility.yul\":1280:1287   */\n      dup5\n        /* \"#utility.yul\":1276:1299   */\n      sub\n        /* \"#utility.yul\":1272:1304   */\n      slt\n        /* \"#utility.yul\":1269:1388   */\n      iszero\n      tag_562\n      jumpi\n        /* \"#utility.yul\":1307:1386   */\n      tag_563\n      tag_456\n      jump\t// in\n    tag_563:\n        /* \"#utility.yul\":1269:1388   */\n    tag_562:\n        /* \"#utility.yul\":1427:1428   */\n      0x00\n        /* \"#utility.yul\":1452:1505   */\n      tag_564\n        /* \"#utility.yul\":1497:1504   */\n      dup5\n        /* \"#utility.yul\":1488:1494   */\n      dup3\n        /* \"#utility.yul\":1477:1486   */\n      dup6\n        /* \"#utility.yul\":1473:1495   */\n      add\n        /* \"#utility.yul\":1452:1505   */\n      tag_459\n      jump\t// in\n    tag_564:\n        /* \"#utility.yul\":1442:1505   */\n      swap2\n      pop\n        /* \"#utility.yul\":1398:1515   */\n      pop\n        /* \"#utility.yul\":1193:1522   */\n      swap3\n      swap2\n      pop\n      pop\n      jump\t// out\n        /* \"#utility.yul\":1528:1618   */\n    tag_460:\n        /* \"#utility.yul\":1562:1569   */\n      0x00\n        /* \"#utility.yul\":1605:1610   */\n      dup2\n        /* \"#utility.yul\":1598:1611   */\n      iszero\n        /* \"#utility.yul\":1591:1612   */\n      iszero\n        /* \"#utility.yul\":1580:1612   */\n      swap1\n      pop\n        /* \"#utility.yul\":1528:1618   */\n      swap2\n      swap1\n      pop\n      jump\t// out\n        /* \"#utility.yul\":1624:1733   */\n    tag_461:\n        /* \"#utility.yul\":1705:1726   */\n      tag_567\n        /* \"#utility.yul\":1720:1725   */\n      dup2\n        /* \"#utility.yul\":1705:1726   */\n      tag_460\n      jump\t// in\n    tag_567:\n        /* \"#utility.yul\":1700:1703   */\n      dup3\n        /* \"#utility.yul\":1693:1727   */\n      mstore\n        /* \"#utility.yul\":1624:1733   */\n      pop\n      pop\n      jump\t// out\n        /* \"#utility.yul\":1739:1949   */\n    tag_60:\n        /* \"#utility.yul\":1826:1830   */\n      0x00\n        /* \"#utility.yul\":1864:1866   */\n      0x20\n        /* \"#utility.yul\":1853:1862   */\n      dup3\n        /* \"#utility.yul\":1849:1867   */\n      add\n        /* \"#utility.yul\":1841:1867   */\n      swap1\n      pop\n        /* \"#utility.yul\":1877:1942   */\n      tag_569\n        /* \"#utility.yul\":1939:1940   */\n      0x00\n        /* \"#utility.yul\":1928:1937   */\n      dup4\n        /* \"#utility.yul\":1924:1941   */\n      add\n        /* \"#utility.yul\":1915:1921   */\n      dup5\n        /* \"#utility.yul\":1877:1942   */\n      tag_461\n      jump\t// in\n    tag_569:\n        /* \"#utility.yul\":1739:1949   */\n      swap3\n      swap2\n      pop\n      pop\n      jump\t// out\n        /* \"#utility.yul\":1955:2071   */\n    tag_462:\n        /* \"#utility.yul\":2025:2046   */\n      tag_571\n        /* \"#utility.yul\":2040:2045   */\n      dup2\n        /* \"#utility.yul\":2025:2046   */\n      tag_460\n      jump\t// in\n    tag_571:\n        /* \"#utility.yul\":2018:2023   */\n      dup2\n        /* \"#utility.yul\":2015:2047   */\n      eq\n        /* \"#utility.yul\":2005:2065   */\n      tag_572\n      jumpi\n        /* \"#utility.yul\":2061:2062   */\n      0x00\n        /* \"#utility.yul\":2058:2059   */\n      dup1\n        /* \"#utility.yul\":2051:2063   */\n      revert\n        /* \"#utility.yul\":2005:2065   */\n    tag_572:\n        /* \"#utility.yul\":1955:2071   */\n      pop\n      jump\t// out\n        /* \"#utility.yul\":2077:2210   */\n    tag_463:\n        /* \"#utility.yul\":2120:2125   */\n      0x00\n        /* \"#utility.yul\":2158:2164   */\n      dup2\n        /* \"#utility.yul\":2145:2165   */\n      calldataload\n        /* \"#utility.yul\":2136:2165   */\n      swap1\n      pop\n        /* \"#utility.yul\":2174:2204   */\n      tag_574\n        /* \"#utility.yul\":2198:2203   */\n      dup2\n        /* \"#utility.yul\":2174:2204   */\n      tag_462\n      jump\t// in\n    tag_574:\n        /* \"#utility.yul\":2077:2210   */\n      swap3\n      swap2\n      pop\n      pop\n      jump\t// out\n        /* \"#utility.yul\":2216:2539   */\n    tag_68:\n        /* \"#utility.yul\":2272:2278   */\n      0x00\n        /* \"#utility.yul\":2321:2323   */\n      0x20\n        /* \"#utility.yul\":2309:2318   */\n      dup3\n        /* \"#utility.yul\":2300:2307   */\n      dup5\n        /* \"#utility.yul\":2296:2319   */\n      sub\n        /* \"#utility.yul\":2292:2324   */\n      slt\n        /* \"#utility.yul\":2289:2408   */\n      iszero\n      tag_576\n      jumpi\n        /* \"#utility.yul\":2327:2406   */\n      tag_577\n      tag_456\n      jump\t// in\n    tag_577:\n        /* \"#utility.yul\":2289:2408   */\n    tag_576:\n        /* \"#utility.yul\":2447:2448   */\n      0x00\n        /* \"#utility.yul\":2472:2522   */\n      tag_578\n        /* \"#utility.yul\":2514:2521   */\n      dup5\n        /* \"#utility.yul\":2505:2511   */\n      dup3\n        /* \"#utility.yul\":2494:2503   */\n      dup6\n        /* \"#utility.yul\":2490:2512   */\n      add\n        /* \"#utility.yul\":2472:2522   */\n      tag_463\n      jump\t// in\n    tag_578:\n        /* \"#utility.yul\":2462:2522   */\n      swap2\n      pop\n        /* \"#utility.yul\":2418:2532   */\n      pop\n        /* \"#utility.yul\":2216:2539   */\n      swap3\n      swap2\n      pop\n      pop\n      jump\t// out\n        /* \"#utility.yul\":2545:2622   */\n    tag_464:\n        /* \"#utility.yul\":2582:2589   */\n      0x00\n        /* \"#utility.yul\":2611:2616   */\n      dup2\n        /* \"#utility.yul\":2600:2616   */\n      swap1\n      pop\n        /* \"#utility.yul\":2545:2622   */\n      swap2\n      swap1\n      pop\n      jump\t// out\n        /* \"#utility.yul\":2628:2746   */\n    tag_465:\n        /* \"#utility.yul\":2715:2739   */\n      tag_581\n        /* \"#utility.yul\":2733:2738   */\n      dup2\n        /* \"#utility.yul\":2715:2739   */\n      tag_464\n      jump\t// in\n    tag_581:\n        /* \"#utility.yul\":2710:2713   */\n      dup3\n        /* \"#utility.yul\":2703:2740   */\n      mstore\n        /* \"#utility.yul\":2628:2746   */\n      pop\n      pop\n      jump\t// out\n        /* \"#utility.yul\":2752:2974   */\n    tag_74:\n        /* \"#utility.yul\":2845:2849   */\n      0x00\n        /* \"#utility.yul\":2883:2885   */\n      0x20\n        /* \"#utility.yul\":2872:2881   */\n      dup3\n        /* \"#utility.yul\":2868:2886   */\n      add\n        /* \"#utility.yul\":2860:2886   */\n      swap1\n      pop\n        /* \"#utility.yul\":2896:2967   */\n      tag_583\n        /* \"#utility.yul\":2964:2965   */\n      0x00\n        /* \"#utility.yul\":2953:2962   */\n      dup4\n        /* \"#utility.yul\":2949:2966   */\n      add\n        /* \"#utility.yul\":2940:2946   */\n      dup5\n        /* \"#utility.yul\":2896:2967   */\n      tag_465\n      jump\t// in\n    tag_583:\n        /* \"#utility.yul\":2752:2974   */\n      swap3\n      swap2\n      pop\n      pop\n      jump\t// out\n        /* \"#utility.yul\":2980:3084   */\n    tag_466:\n        /* \"#utility.yul\":3025:3032   */\n      0x00\n        /* \"#utility.yul\":3054:3078   */\n      tag_585\n        /* \"#utility.yul\":3072:3077   */\n      dup3\n        /* \"#utility.yul\":3054:3078   */\n      tag_452\n      jump\t// in\n    tag_585:\n        /* \"#utility.yul\":3043:3078   */\n      swap1\n      pop\n        /* \"#utility.yul\":2980:3084   */\n      swap2\n      swap1\n      pop\n      jump\t// out\n        /* \"#utility.yul\":3090:3232   */\n    tag_467:\n        /* \"#utility.yul\":3193:3225   */\n      tag_587\n        /* \"#utility.yul\":3219:3224   */\n      dup2\n        /* \"#utility.yul\":3193:3225   */\n      tag_466\n      jump\t// in\n    tag_587:\n        /* \"#utility.yul\":3188:3191   */\n      dup3\n        /* \"#utility.yul\":3181:3226   */\n      mstore\n        /* \"#utility.yul\":3090:3232   */\n      pop\n      pop\n      jump\t// out\n        /* \"#utility.yul\":3238:3492   */\n    tag_95:\n        /* \"#utility.yul\":3347:3351   */\n      0x00\n        /* \"#utility.yul\":3385:3387   */\n      0x20\n        /* \"#utility.yul\":3374:3383   */\n      dup3\n        /* \"#utility.yul\":3370:3388   */\n      add\n        /* \"#utility.yul\":3362:3388   */\n      swap1\n      pop\n        /* \"#utility.yul\":3398:3485   */\n      tag_589\n        /* \"#utility.yul\":3482:3483   */\n      0x00\n        /* \"#utility.yul\":3471:3480   */\n      dup4\n        /* \"#utility.yul\":3467:3484   */\n      add\n        /* \"#utility.yul\":3458:3464   */\n      dup5\n        /* \"#utility.yul\":3398:3485   */\n      tag_467\n      jump\t// in\n    tag_589:\n        /* \"#utility.yul\":3238:3492   */\n      swap3\n      swap2\n      pop\n      pop\n      jump\t// out\n        /* \"#utility.yul\":3498:3620   */\n    tag_468:\n        /* \"#utility.yul\":3571:3595   */\n      tag_591\n        /* \"#utility.yul\":3589:3594   */\n      dup2\n        /* \"#utility.yul\":3571:3595   */\n      tag_464\n      jump\t// in\n    tag_591:\n        /* \"#utility.yul\":3564:3569   */\n      dup2\n        /* \"#utility.yul\":3561:3596   */\n      eq\n        /* \"#utility.yul\":3551:3614   */\n      tag_592\n      jumpi\n        /* \"#utility.yul\":3610:3611   */\n      0x00\n        /* \"#utility.yul\":3607:3608   */\n      dup1\n        /* \"#utility.yul\":3600:3612   */\n      revert\n        /* \"#utility.yul\":3551:3614   */\n    tag_592:\n        /* \"#utility.yul\":3498:3620   */\n      pop\n      jump\t// out\n        /* \"#utility.yul\":3626:3765   */\n    tag_469:\n        /* \"#utility.yul\":3672:3677   */\n      0x00\n        /* \"#utility.yul\":3710:3716   */\n      dup2\n        /* \"#utility.yul\":3697:3717   */\n      calldataload\n        /* \"#utility.yul\":3688:3717   */\n      swap1\n      pop\n        /* \"#utility.yul\":3726:3759   */\n      tag_594\n        /* \"#utility.yul\":3753:3758   */\n      dup2\n        /* \"#utility.yul\":3726:3759   */\n      tag_468\n      jump\t// in\n    tag_594:\n        /* \"#utility.yul\":3626:3765   */\n      swap3\n      swap2\n      pop\n      pop\n      jump\t// out\n        /* \"#utility.yul\":3771:3909   */\n    tag_470:\n        /* \"#utility.yul\":3852:3884   */\n      tag_596\n        /* \"#utility.yul\":3878:3883   */\n      dup2\n        /* \"#utility.yul\":3852:3884   */\n      tag_466\n      jump\t// in\n    tag_596:\n        /* \"#utility.yul\":3845:3850   */\n      dup2\n        /* \"#utility.yul\":3842:3885   */\n      eq\n        /* \"#utility.yul\":3832:3903   */\n      tag_597\n      jumpi\n        /* \"#utility.yul\":3899:3900   */\n      0x00\n        /* \"#utility.yul\":3896:3897   */\n      dup1\n        /* \"#utility.yul\":3889:3901   */\n      revert\n        /* \"#utility.yul\":3832:3903   */\n    tag_597:\n        /* \"#utility.yul\":3771:3909   */\n      pop\n      jump\t// out\n        /* \"#utility.yul\":3915:4070   */\n    tag_471:\n        /* \"#utility.yul\":3969:3974   */\n      0x00\n        /* \"#utility.yul\":4007:4013   */\n      dup2\n        /* \"#utility.yul\":3994:4014   */\n      calldataload\n        /* \"#utility.yul\":3985:4014   */\n      swap1\n      pop\n        /* \"#utility.yul\":4023:4064   */\n      tag_599\n        /* \"#utility.yul\":4058:4063   */\n      dup2\n        /* \"#utility.yul\":4023:4064   */\n      tag_470\n      jump\t// in\n    tag_599:\n        /* \"#utility.yul\":3915:4070   */\n      swap3\n      swap2\n      pop\n      pop\n      jump\t// out\n        /* \"#utility.yul\":4076:4566   */\n    tag_126:\n        /* \"#utility.yul\":4152:4158   */\n      0x00\n        /* \"#utility.yul\":4160:4166   */\n      dup1\n        /* \"#utility.yul\":4209:4211   */\n      0x40\n        /* \"#utility.yul\":4197:4206   */\n      dup4\n        /* \"#utility.yul\":4188:4195   */\n      dup6\n        /* \"#utility.yul\":4184:4207   */\n      sub\n        /* \"#utility.yul\":4180:4212   */\n      slt\n        /* \"#utility.yul\":4177:4296   */\n      iszero\n      tag_601\n      jumpi\n        /* \"#utility.yul\":4215:4294   */\n      tag_602\n      tag_456\n      jump\t// in\n    tag_602:\n        /* \"#utility.yul\":4177:4296   */\n    tag_601:\n        /* \"#utility.yul\":4335:4336   */\n      0x00\n        /* \"#utility.yul\":4360:4413   */\n      tag_603\n        /* \"#utility.yul\":4405:4412   */\n      dup6\n        /* \"#utility.yul\":4396:4402   */\n      dup3\n        /* \"#utility.yul\":4385:4394   */\n      dup7\n        /* \"#utility.yul\":4381:4403   */\n      add\n        /* \"#utility.yul\":4360:4413   */\n      tag_469\n      jump\t// in\n    tag_603:\n        /* \"#utility.yul\":4350:4413   */\n      swap3\n      pop\n        /* \"#utility.yul\":4306:4423   */\n      pop\n        /* \"#utility.yul\":4462:4464   */\n      0x20\n        /* \"#utility.yul\":4488:4549   */\n      tag_604\n        /* \"#utility.yul\":4541:4548   */\n      dup6\n        /* \"#utility.yul\":4532:4538   */\n      dup3\n        /* \"#utility.yul\":4521:4530   */\n      dup7\n        /* \"#utility.yul\":4517:4539   */\n      add\n        /* \"#utility.yul\":4488:4549   */\n      tag_471\n      jump\t// in\n    tag_604:\n        /* \"#utility.yul\":4478:4549   */\n      swap2\n      pop\n        /* \"#utility.yul\":4433:4559   */\n      pop\n        /* \"#utility.yul\":4076:4566   */\n      swap3\n      pop\n      swap3\n      swap1\n      pop\n      jump\t// out\n        /* \"#utility.yul\":4572:5191   */\n    tag_135:\n        /* \"#utility.yul\":4649:4655   */\n      0x00\n        /* \"#utility.yul\":4657:4663   */\n      dup1\n        /* \"#utility.yul\":4665:4671   */\n      0x00\n        /* \"#utility.yul\":4714:4716   */\n      0x60\n        /* \"#utility.yul\":4702:4711   */\n      dup5\n        /* \"#utility.yul\":4693:4700   */\n      dup7\n        /* \"#utility.yul\":4689:4712   */\n      sub\n        /* \"#utility.yul\":4685:4717   */\n      slt\n        /* \"#utility.yul\":4682:4801   */\n      iszero\n      tag_606\n      jumpi\n        /* \"#utility.yul\":4720:4799   */\n      tag_607\n      tag_456\n      jump\t// in\n    tag_607:\n        /* \"#utility.yul\":4682:4801   */\n    tag_606:\n        /* \"#utility.yul\":4840:4841   */\n      0x00\n        /* \"#utility.yul\":4865:4918   */\n      tag_608\n        /* \"#utility.yul\":4910:4917   */\n      dup7\n        /* \"#utility.yul\":4901:4907   */\n      dup3\n        /* \"#utility.yul\":4890:4899   */\n      dup8\n        /* \"#utility.yul\":4886:4908   */\n      add\n        /* \"#utility.yul\":4865:4918   */\n      tag_459\n      jump\t// in\n    tag_608:\n        /* \"#utility.yul\":4855:4918   */\n      swap4\n      pop\n        /* \"#utility.yul\":4811:4928   */\n      pop\n        /* \"#utility.yul\":4967:4969   */\n      0x20\n        /* \"#utility.yul\":4993:5046   */\n      tag_609\n        /* \"#utility.yul\":5038:5045   */\n      dup7\n        /* \"#utility.yul\":5029:5035   */\n      dup3\n        /* \"#utility.yul\":5018:5027   */\n      dup8\n        /* \"#utility.yul\":5014:5036   */\n      add\n        /* \"#utility.yul\":4993:5046   */\n      tag_469\n      jump\t// in\n    tag_609:\n        /* \"#utility.yul\":4983:5046   */\n      swap3\n      pop\n        /* \"#utility.yul\":4938:5056   */\n      pop\n        /* \"#utility.yul\":5095:5097   */\n      0x40\n        /* \"#utility.yul\":5121:5174   */\n      tag_610\n        /* \"#utility.yul\":5166:5173   */\n      dup7\n        /* \"#utility.yul\":5157:5163   */\n      dup3\n        /* \"#utility.yul\":5146:5155   */\n      dup8\n        /* \"#utility.yul\":5142:5164   */\n      add\n        /* \"#utility.yul\":5121:5174   */\n      tag_459\n      jump\t// in\n    tag_610:\n        /* \"#utility.yul\":5111:5174   */\n      swap2\n      pop\n        /* \"#utility.yul\":5066:5184   */\n      pop\n        /* \"#utility.yul\":4572:5191   */\n      swap3\n      pop\n      swap3\n      pop\n      swap3\n      jump\t// out\n        /* \"#utility.yul\":5197:5340   */\n    tag_472:\n        /* \"#utility.yul\":5254:5259   */\n      0x00\n        /* \"#utility.yul\":5285:5291   */\n      dup2\n        /* \"#utility.yul\":5279:5292   */\n      mload\n        /* \"#utility.yul\":5270:5292   */\n      swap1\n      pop\n        /* \"#utility.yul\":5301:5334   */\n      tag_612\n        /* \"#utility.yul\":5328:5333   */\n      dup2\n        /* \"#utility.yul\":5301:5334   */\n      tag_468\n      jump\t// in\n    tag_612:\n        /* \"#utility.yul\":5197:5340   */\n      swap3\n      swap2\n      pop\n      pop\n      jump\t// out\n        /* \"#utility.yul\":5346:5697   */\n    tag_167:\n        /* \"#utility.yul\":5416:5422   */\n      0x00\n        /* \"#utility.yul\":5465:5467   */\n      0x20\n        /* \"#utility.yul\":5453:5462   */\n      dup3\n        /* \"#utility.yul\":5444:5451   */\n      dup5\n        /* \"#utility.yul\":5440:5463   */\n      sub\n        /* \"#utility.yul\":5436:5468   */\n      slt\n        /* \"#utility.yul\":5433:5552   */\n      iszero\n      tag_614\n      jumpi\n        /* \"#utility.yul\":5471:5550   */\n      tag_615\n      tag_456\n      jump\t// in\n    tag_615:\n        /* \"#utility.yul\":5433:5552   */\n    tag_614:\n        /* \"#utility.yul\":5591:5592   */\n      0x00\n        /* \"#utility.yul\":5616:5680   */\n      tag_616\n        /* \"#utility.yul\":5672:5679   */\n      dup5\n        /* \"#utility.yul\":5663:5669   */\n      dup3\n        /* \"#utility.yul\":5652:5661   */\n      dup6\n        /* \"#utility.yul\":5648:5670   */\n      add\n        /* \"#utility.yul\":5616:5680   */\n      tag_472\n      jump\t// in\n    tag_616:\n        /* \"#utility.yul\":5606:5680   */\n      swap2\n      pop\n        /* \"#utility.yul\":5562:5690   */\n      pop\n        /* \"#utility.yul\":5346:5697   */\n      swap3\n      swap2\n      pop\n      pop\n      jump\t// out\n        /* \"#utility.yul\":5703:5883   */\n    tag_473:\n        /* \"#utility.yul\":5751:5828   */\n      0x4e487b7100000000000000000000000000000000000000000000000000000000\n        /* \"#utility.yul\":5748:5749   */\n      0x00\n        /* \"#utility.yul\":5741:5829   */\n      mstore\n        /* \"#utility.yul\":5848:5852   */\n      0x11\n        /* \"#utility.yul\":5845:5846   */\n      0x04\n        /* \"#utility.yul\":5838:5853   */\n      mstore\n        /* \"#utility.yul\":5872:5876   */\n      0x24\n        /* \"#utility.yul\":5869:5870   */\n      0x00\n        /* \"#utility.yul\":5862:5877   */\n      revert\n        /* \"#utility.yul\":5889:6080   */\n    tag_169:\n        /* \"#utility.yul\":5929:5932   */\n      0x00\n        /* \"#utility.yul\":5948:5968   */\n      tag_619\n        /* \"#utility.yul\":5966:5967   */\n      dup3\n        /* \"#utility.yul\":5948:5968   */\n      tag_464\n      jump\t// in\n    tag_619:\n        /* \"#utility.yul\":5943:5968   */\n      swap2\n      pop\n        /* \"#utility.yul\":5982:6002   */\n      tag_620\n        /* \"#utility.yul\":6000:6001   */\n      dup4\n        /* \"#utility.yul\":5982:6002   */\n      tag_464\n      jump\t// in\n    tag_620:\n        /* \"#utility.yul\":5977:6002   */\n      swap3\n      pop\n        /* \"#utility.yul\":6025:6026   */\n      dup3\n        /* \"#utility.yul\":6022:6023   */\n      dup3\n        /* \"#utility.yul\":6018:6027   */\n      add\n        /* \"#utility.yul\":6011:6027   */\n      swap1\n      pop\n        /* \"#utility.yul\":6046:6049   */\n      dup1\n        /* \"#utility.yul\":6043:6044   */\n      dup3\n        /* \"#utility.yul\":6040:6050   */\n      gt\n        /* \"#utility.yul\":6037:6073   */\n      iszero\n      tag_621\n      jumpi\n        /* \"#utility.yul\":6053:6071   */\n      tag_622\n      tag_473\n      jump\t// in\n    tag_622:\n        /* \"#utility.yul\":6037:6073   */\n    tag_621:\n        /* \"#utility.yul\":5889:6080   */\n      swap3\n      swap2\n      pop\n      pop\n      jump\t// out\n        /* \"#utility.yul\":6086:6255   */\n    tag_474:\n        /* \"#utility.yul\":6170:6181   */\n      0x00\n        /* \"#utility.yul\":6204:6210   */\n      dup3\n        /* \"#utility.yul\":6199:6202   */\n      dup3\n        /* \"#utility.yul\":6192:6211   */\n      mstore\n        /* \"#utility.yul\":6244:6248   */\n      0x20\n        /* \"#utility.yul\":6239:6242   */\n      dup3\n        /* \"#utility.yul\":6235:6249   */\n      add\n        /* \"#utility.yul\":6220:6249   */\n      swap1\n      pop\n        /* \"#utility.yul\":6086:6255   */\n      swap3\n      swap2\n      pop\n      pop\n      jump\t// out\n        /* \"#utility.yul\":6261:6424   */\n    tag_475:\n        /* \"#utility.yul\":6401:6416   */\n      0x42616c616e6365206572726f7200000000000000000000000000000000000000\n        /* \"#utility.yul\":6397:6398   */\n      0x00\n        /* \"#utility.yul\":6389:6395   */\n      dup3\n        /* \"#utility.yul\":6385:6399   */\n      add\n        /* \"#utility.yul\":6378:6417   */\n      mstore\n        /* \"#utility.yul\":6261:6424   */\n      pop\n      jump\t// out\n        /* \"#utility.yul\":6430:6796   */\n    tag_476:\n        /* \"#utility.yul\":6572:6575   */\n      0x00\n        /* \"#utility.yul\":6593:6660   */\n      tag_626\n        /* \"#utility.yul\":6657:6659   */\n      0x0d\n        /* \"#utility.yul\":6652:6655   */\n      dup4\n        /* \"#utility.yul\":6593:6660   */\n      tag_474\n      jump\t// in\n    tag_626:\n        /* \"#utility.yul\":6586:6660   */\n      swap2\n      pop\n        /* \"#utility.yul\":6669:6762   */\n      tag_627\n        /* \"#utility.yul\":6758:6761   */\n      dup3\n        /* \"#utility.yul\":6669:6762   */\n      tag_475\n      jump\t// in\n    tag_627:\n        /* \"#utility.yul\":6787:6789   */\n      0x20\n        /* \"#utility.yul\":6782:6785   */\n      dup3\n        /* \"#utility.yul\":6778:6790   */\n      add\n        /* \"#utility.yul\":6771:6790   */\n      swap1\n      pop\n        /* \"#utility.yul\":6430:6796   */\n      swap2\n      swap1\n      pop\n      jump\t// out\n        /* \"#utility.yul\":6802:7221   */\n    tag_173:\n        /* \"#utility.yul\":6968:6972   */\n      0x00\n        /* \"#utility.yul\":7006:7008   */\n      0x20\n        /* \"#utility.yul\":6995:7004   */\n      dup3\n        /* \"#utility.yul\":6991:7009   */\n      add\n        /* \"#utility.yul\":6983:7009   */\n      swap1\n      pop\n        /* \"#utility.yul\":7055:7064   */\n      dup2\n        /* \"#utility.yul\":7049:7053   */\n      dup2\n        /* \"#utility.yul\":7045:7065   */\n      sub\n        /* \"#utility.yul\":7041:7042   */\n      0x00\n        /* \"#utility.yul\":7030:7039   */\n      dup4\n        /* \"#utility.yul\":7026:7043   */\n      add\n        /* \"#utility.yul\":7019:7066   */\n      mstore\n        /* \"#utility.yul\":7083:7214   */\n      tag_629\n        /* \"#utility.yul\":7209:7213   */\n      dup2\n        /* \"#utility.yul\":7083:7214   */\n      tag_476\n      jump\t// in\n    tag_629:\n        /* \"#utility.yul\":7075:7214   */\n      swap1\n      pop\n        /* \"#utility.yul\":6802:7221   */\n      swap2\n      swap1\n      pop\n      jump\t// out\n        /* \"#utility.yul\":7227:7421   */\n    tag_175:\n        /* \"#utility.yul\":7267:7271   */\n      0x00\n        /* \"#utility.yul\":7287:7307   */\n      tag_631\n        /* \"#utility.yul\":7305:7306   */\n      dup3\n        /* \"#utility.yul\":7287:7307   */\n      tag_464\n      jump\t// in\n    tag_631:\n        /* \"#utility.yul\":7282:7307   */\n      swap2\n      pop\n        /* \"#utility.yul\":7321:7341   */\n      tag_632\n        /* \"#utility.yul\":7339:7340   */\n      dup4\n        /* \"#utility.yul\":7321:7341   */\n      tag_464\n      jump\t// in\n    tag_632:\n        /* \"#utility.yul\":7316:7341   */\n      swap3\n      pop\n        /* \"#utility.yul\":7365:7366   */\n      dup3\n        /* \"#utility.yul\":7362:7363   */\n      dup3\n        /* \"#utility.yul\":7358:7367   */\n      sub\n        /* \"#utility.yul\":7350:7367   */\n      swap1\n      pop\n        /* \"#utility.yul\":7389:7390   */\n      dup2\n        /* \"#utility.yul\":7383:7387   */\n      dup2\n        /* \"#utility.yul\":7380:7391   */\n      gt\n        /* \"#utility.yul\":7377:7414   */\n      iszero\n      tag_633\n      jumpi\n        /* \"#utility.yul\":7394:7412   */\n      tag_634\n      tag_473\n      jump\t// in\n    tag_634:\n        /* \"#utility.yul\":7377:7414   */\n    tag_633:\n        /* \"#utility.yul\":7227:7421   */\n      swap3\n      swap2\n      pop\n      pop\n      jump\t// out\n        /* \"#utility.yul\":7427:7837   */\n    tag_178:\n        /* \"#utility.yul\":7467:7474   */\n      0x00\n        /* \"#utility.yul\":7490:7510   */\n      tag_636\n        /* \"#utility.yul\":7508:7509   */\n      dup3\n        /* \"#utility.yul\":7490:7510   */\n      tag_464\n      jump\t// in\n    tag_636:\n        /* \"#utility.yul\":7485:7510   */\n      swap2\n      pop\n        /* \"#utility.yul\":7524:7544   */\n      tag_637\n        /* \"#utility.yul\":7542:7543   */\n      dup4\n        /* \"#utility.yul\":7524:7544   */\n      tag_464\n      jump\t// in\n    tag_637:\n        /* \"#utility.yul\":7519:7544   */\n      swap3\n      pop\n        /* \"#utility.yul\":7579:7580   */\n      dup3\n        /* \"#utility.yul\":7576:7577   */\n      dup3\n        /* \"#utility.yul\":7572:7581   */\n      mul\n        /* \"#utility.yul\":7601:7631   */\n      tag_638\n        /* \"#utility.yul\":7619:7630   */\n      dup2\n        /* \"#utility.yul\":7601:7631   */\n      tag_464\n      jump\t// in\n    tag_638:\n        /* \"#utility.yul\":7590:7631   */\n      swap2\n      pop\n        /* \"#utility.yul\":7780:7781   */\n      dup3\n        /* \"#utility.yul\":7771:7778   */\n      dup3\n        /* \"#utility.yul\":7767:7782   */\n      div\n        /* \"#utility.yul\":7764:7765   */\n      dup5\n        /* \"#utility.yul\":7761:7783   */\n      eq\n        /* \"#utility.yul\":7741:7742   */\n      dup4\n        /* \"#utility.yul\":7734:7743   */\n      iszero\n        /* \"#utility.yul\":7714:7797   */\n      or\n        /* \"#utility.yul\":7691:7830   */\n      tag_639\n      jumpi\n        /* \"#utility.yul\":7810:7828   */\n      tag_640\n      tag_473\n      jump\t// in\n    tag_640:\n        /* \"#utility.yul\":7691:7830   */\n    tag_639:\n        /* \"#utility.yul\":7475:7837   */\n      pop\n        /* \"#utility.yul\":7427:7837   */\n      swap3\n      swap2\n      pop\n      pop\n      jump\t// out\n        /* \"#utility.yul\":7843:8023   */\n    tag_477:\n        /* \"#utility.yul\":7891:7968   */\n      0x4e487b7100000000000000000000000000000000000000000000000000000000\n        /* \"#utility.yul\":7888:7889   */\n      0x00\n        /* \"#utility.yul\":7881:7969   */\n      mstore\n        /* \"#utility.yul\":7988:7992   */\n      0x12\n        /* \"#utility.yul\":7985:7986   */\n      0x04\n        /* \"#utility.yul\":7978:7993   */\n      mstore\n        /* \"#utility.yul\":8012:8016   */\n      0x24\n        /* \"#utility.yul\":8009:8010   */\n      0x00\n        /* \"#utility.yul\":8002:8017   */\n      revert\n        /* \"#utility.yul\":8029:8214   */\n    tag_180:\n        /* \"#utility.yul\":8069:8070   */\n      0x00\n        /* \"#utility.yul\":8086:8106   */\n      tag_643\n        /* \"#utility.yul\":8104:8105   */\n      dup3\n        /* \"#utility.yul\":8086:8106   */\n      tag_464\n      jump\t// in\n    tag_643:\n        /* \"#utility.yul\":8081:8106   */\n      swap2\n      pop\n        /* \"#utility.yul\":8120:8140   */\n      tag_644\n        /* \"#utility.yul\":8138:8139   */\n      dup4\n        /* \"#utility.yul\":8120:8140   */\n      tag_464\n      jump\t// in\n    tag_644:\n        /* \"#utility.yul\":8115:8140   */\n      swap3\n      pop\n        /* \"#utility.yul\":8159:8160   */\n      dup3\n        /* \"#utility.yul\":8149:8184   */\n      tag_645\n      jumpi\n        /* \"#utility.yul\":8164:8182   */\n      tag_646\n      tag_477\n      jump\t// in\n    tag_646:\n        /* \"#utility.yul\":8149:8184   */\n    tag_645:\n        /* \"#utility.yul\":8206:8207   */\n      dup3\n        /* \"#utility.yul\":8203:8204   */\n      dup3\n        /* \"#utility.yul\":8199:8208   */\n      div\n        /* \"#utility.yul\":8194:8208   */\n      swap1\n      pop\n        /* \"#utility.yul\":8029:8214   */\n      swap3\n      swap2\n      pop\n      pop\n      jump\t// out\n        /* \"#utility.yul\":8220:8773   */\n    tag_189:\n        /* \"#utility.yul\":8397:8401   */\n      0x00\n        /* \"#utility.yul\":8435:8438   */\n      0x80\n        /* \"#utility.yul\":8424:8433   */\n      dup3\n        /* \"#utility.yul\":8420:8439   */\n      add\n        /* \"#utility.yul\":8412:8439   */\n      swap1\n      pop\n        /* \"#utility.yul\":8449:8520   */\n      tag_648\n        /* \"#utility.yul\":8517:8518   */\n      0x00\n        /* \"#utility.yul\":8506:8515   */\n      dup4\n        /* \"#utility.yul\":8502:8519   */\n      add\n        /* \"#utility.yul\":8493:8499   */\n      dup8\n        /* \"#utility.yul\":8449:8520   */\n      tag_465\n      jump\t// in\n    tag_648:\n        /* \"#utility.yul\":8530:8602   */\n      tag_649\n        /* \"#utility.yul\":8598:8600   */\n      0x20\n        /* \"#utility.yul\":8587:8596   */\n      dup4\n        /* \"#utility.yul\":8583:8601   */\n      add\n        /* \"#utility.yul\":8574:8580   */\n      dup7\n        /* \"#utility.yul\":8530:8602   */\n      tag_465\n      jump\t// in\n    tag_649:\n        /* \"#utility.yul\":8612:8684   */\n      tag_650\n        /* \"#utility.yul\":8680:8682   */\n      0x40\n        /* \"#utility.yul\":8669:8678   */\n      dup4\n        /* \"#utility.yul\":8665:8683   */\n      add\n        /* \"#utility.yul\":8656:8662   */\n      dup6\n        /* \"#utility.yul\":8612:8684   */\n      tag_465\n      jump\t// in\n    tag_650:\n        /* \"#utility.yul\":8694:8766   */\n      tag_651\n        /* \"#utility.yul\":8762:8764   */\n      0x60\n        /* \"#utility.yul\":8751:8760   */\n      dup4\n        /* \"#utility.yul\":8747:8765   */\n      add\n        /* \"#utility.yul\":8738:8744   */\n      dup5\n        /* \"#utility.yul\":8694:8766   */\n      tag_465\n      jump\t// in\n    tag_651:\n        /* \"#utility.yul\":8220:8773   */\n      swap6\n      swap5\n      pop\n      pop\n      pop\n      pop\n      pop\n      jump\t// out\n        /* \"#utility.yul\":8779:8944   */\n    tag_478:\n        /* \"#utility.yul\":8919:8936   */\n      0x4e6f742077686974656c69737465640000000000000000000000000000000000\n        /* \"#utility.yul\":8915:8916   */\n      0x00\n        /* \"#utility.yul\":8907:8913   */\n      dup3\n        /* \"#utility.yul\":8903:8917   */\n      add\n        /* \"#utility.yul\":8896:8937   */\n      mstore\n        /* \"#utility.yul\":8779:8944   */\n      pop\n      jump\t// out\n        /* \"#utility.yul\":8950:9316   */\n    tag_479:\n        /* \"#utility.yul\":9092:9095   */\n      0x00\n        /* \"#utility.yul\":9113:9180   */\n      tag_654\n        /* \"#utility.yul\":9177:9179   */\n      0x0f\n        /* \"#utility.yul\":9172:9175   */\n      dup4\n        /* \"#utility.yul\":9113:9180   */\n      tag_474\n      jump\t// in\n    tag_654:\n        /* \"#utility.yul\":9106:9180   */\n      swap2\n      pop\n        /* \"#utility.yul\":9189:9282   */\n      tag_655\n        /* \"#utility.yul\":9278:9281   */\n      dup3\n        /* \"#utility.yul\":9189:9282   */\n      tag_478\n      jump\t// in\n    tag_655:\n        /* \"#utility.yul\":9307:9309   */\n      0x20\n        /* \"#utility.yul\":9302:9305   */\n      dup3\n        /* \"#utility.yul\":9298:9310   */\n      add\n        /* \"#utility.yul\":9291:9310   */\n      swap1\n      pop\n        /* \"#utility.yul\":8950:9316   */\n      swap2\n      swap1\n      pop\n      jump\t// out\n        /* \"#utility.yul\":9322:9741   */\n    tag_205:\n        /* \"#utility.yul\":9488:9492   */\n      0x00\n        /* \"#utility.yul\":9526:9528   */\n      0x20\n        /* \"#utility.yul\":9515:9524   */\n      dup3\n        /* \"#utility.yul\":9511:9529   */\n      add\n        /* \"#utility.yul\":9503:9529   */\n      swap1\n      pop\n        /* \"#utility.yul\":9575:9584   */\n      dup2\n        /* \"#utility.yul\":9569:9573   */\n      dup2\n        /* \"#utility.yul\":9565:9585   */\n      sub\n        /* \"#utility.yul\":9561:9562   */\n      0x00\n        /* \"#utility.yul\":9550:9559   */\n      dup4\n        /* \"#utility.yul\":9546:9563   */\n      add\n        /* \"#utility.yul\":9539:9586   */\n      mstore\n        /* \"#utility.yul\":9603:9734   */\n      tag_657\n        /* \"#utility.yul\":9729:9733   */\n      dup2\n        /* \"#utility.yul\":9603:9734   */\n      tag_479\n      jump\t// in\n    tag_657:\n        /* \"#utility.yul\":9595:9734   */\n      swap1\n      pop\n        /* \"#utility.yul\":9322:9741   */\n      swap2\n      swap1\n      pop\n      jump\t// out\n        /* \"#utility.yul\":9747:9916   */\n    tag_480:\n        /* \"#utility.yul\":9887:9908   */\n      0x4e6f2062616c616e63657320746f206275726e00000000000000000000000000\n        /* \"#utility.yul\":9883:9884   */\n      0x00\n        /* \"#utility.yul\":9875:9881   */\n      dup3\n        /* \"#utility.yul\":9871:9885   */\n      add\n        /* \"#utility.yul\":9864:9909   */\n      mstore\n        /* \"#utility.yul\":9747:9916   */\n      pop\n      jump\t// out\n        /* \"#utility.yul\":9922:10288   */\n    tag_481:\n        /* \"#utility.yul\":10064:10067   */\n      0x00\n        /* \"#utility.yul\":10085:10152   */\n      tag_660\n        /* \"#utility.yul\":10149:10151   */\n      0x13\n        /* \"#utility.yul\":10144:10147   */\n      dup4\n        /* \"#utility.yul\":10085:10152   */\n      tag_474\n      jump\t// in\n    tag_660:\n        /* \"#utility.yul\":10078:10152   */\n      swap2\n      pop\n        /* \"#utility.yul\":10161:10254   */\n      tag_661\n        /* \"#utility.yul\":10250:10253   */\n      dup3\n        /* \"#utility.yul\":10161:10254   */\n      tag_480\n      jump\t// in\n    tag_661:\n        /* \"#utility.yul\":10279:10281   */\n      0x20\n        /* \"#utility.yul\":10274:10277   */\n      dup3\n        /* \"#utility.yul\":10270:10282   */\n      add\n        /* \"#utility.yul\":10263:10282   */\n      swap1\n      pop\n        /* \"#utility.yul\":9922:10288   */\n      swap2\n      swap1\n      pop\n      jump\t// out\n        /* \"#utility.yul\":10294:10713   */\n    tag_223:\n        /* \"#utility.yul\":10460:10464   */\n      0x00\n        /* \"#utility.yul\":10498:10500   */\n      0x20\n        /* \"#utility.yul\":10487:10496   */\n      dup3\n        /* \"#utility.yul\":10483:10501   */\n      add\n        /* \"#utility.yul\":10475:10501   */\n      swap1\n      pop\n        /* \"#utility.yul\":10547:10556   */\n      dup2\n        /* \"#utility.yul\":10541:10545   */\n      dup2\n        /* \"#utility.yul\":10537:10557   */\n      sub\n        /* \"#utility.yul\":10533:10534   */\n      0x00\n        /* \"#utility.yul\":10522:10531   */\n      dup4\n        /* \"#utility.yul\":10518:10535   */\n      add\n        /* \"#utility.yul\":10511:10558   */\n      mstore\n        /* \"#utility.yul\":10575:10706   */\n      tag_663\n        /* \"#utility.yul\":10701:10705   */\n      dup2\n        /* \"#utility.yul\":10575:10706   */\n      tag_481\n      jump\t// in\n    tag_663:\n        /* \"#utility.yul\":10567:10706   */\n      swap1\n      pop\n        /* \"#utility.yul\":10294:10713   */\n      swap2\n      swap1\n      pop\n      jump\t// out\n        /* \"#utility.yul\":10719:10897   */\n    tag_482:\n        /* \"#utility.yul\":10859:10889   */\n      0x496e76616c6964204e465420636f6e7472616374206164647265737300000000\n        /* \"#utility.yul\":10855:10856   */\n      0x00\n        /* \"#utility.yul\":10847:10853   */\n      dup3\n        /* \"#utility.yul\":10843:10857   */\n      add\n        /* \"#utility.yul\":10836:10890   */\n      mstore\n        /* \"#utility.yul\":10719:10897   */\n      pop\n      jump\t// out\n        /* \"#utility.yul\":10903:11269   */\n    tag_483:\n        /* \"#utility.yul\":11045:11048   */\n      0x00\n        /* \"#utility.yul\":11066:11133   */\n      tag_666\n        /* \"#utility.yul\":11130:11132   */\n      0x1c\n        /* \"#utility.yul\":11125:11128   */\n      dup4\n        /* \"#utility.yul\":11066:11133   */\n      tag_474\n      jump\t// in\n    tag_666:\n        /* \"#utility.yul\":11059:11133   */\n      swap2\n      pop\n        /* \"#utility.yul\":11142:11235   */\n      tag_667\n        /* \"#utility.yul\":11231:11234   */\n      dup3\n        /* \"#utility.yul\":11142:11235   */\n      tag_482\n      jump\t// in\n    tag_667:\n        /* \"#utility.yul\":11260:11262   */\n      0x20\n        /* \"#utility.yul\":11255:11258   */\n      dup3\n        /* \"#utility.yul\":11251:11263   */\n      add\n        /* \"#utility.yul\":11244:11263   */\n      swap1\n      pop\n        /* \"#utility.yul\":10903:11269   */\n      swap2\n      swap1\n      pop\n      jump\t// out\n        /* \"#utility.yul\":11275:11694   */\n    tag_243:\n        /* \"#utility.yul\":11441:11445   */\n      0x00\n        /* \"#utility.yul\":11479:11481   */\n      0x20\n        /* \"#utility.yul\":11468:11477   */\n      dup3\n        /* \"#utility.yul\":11464:11482   */\n      add\n        /* \"#utility.yul\":11456:11482   */\n      swap1\n      pop\n        /* \"#utility.yul\":11528:11537   */\n      dup2\n        /* \"#utility.yul\":11522:11526   */\n      dup2\n        /* \"#utility.yul\":11518:11538   */\n      sub\n        /* \"#utility.yul\":11514:11515   */\n      0x00\n        /* \"#utility.yul\":11503:11512   */\n      dup4\n        /* \"#utility.yul\":11499:11516   */\n      add\n        /* \"#utility.yul\":11492:11539   */\n      mstore\n        /* \"#utility.yul\":11556:11687   */\n      tag_669\n        /* \"#utility.yul\":11682:11686   */\n      dup2\n        /* \"#utility.yul\":11556:11687   */\n      tag_483\n      jump\t// in\n    tag_669:\n        /* \"#utility.yul\":11548:11687   */\n      swap1\n      pop\n        /* \"#utility.yul\":11275:11694   */\n      swap2\n      swap1\n      pop\n      jump\t// out\n        /* \"#utility.yul\":11700:11869   */\n    tag_484:\n        /* \"#utility.yul\":11840:11861   */\n      0x416c72656164792077686974656c697374656400000000000000000000000000\n        /* \"#utility.yul\":11836:11837   */\n      0x00\n        /* \"#utility.yul\":11828:11834   */\n      dup3\n        /* \"#utility.yul\":11824:11838   */\n      add\n        /* \"#utility.yul\":11817:11862   */\n      mstore\n        /* \"#utility.yul\":11700:11869   */\n      pop\n      jump\t// out\n        /* \"#utility.yul\":11875:12241   */\n    tag_485:\n        /* \"#utility.yul\":12017:12020   */\n      0x00\n        /* \"#utility.yul\":12038:12105   */\n      tag_672\n        /* \"#utility.yul\":12102:12104   */\n      0x13\n        /* \"#utility.yul\":12097:12100   */\n      dup4\n        /* \"#utility.yul\":12038:12105   */\n      tag_474\n      jump\t// in\n    tag_672:\n        /* \"#utility.yul\":12031:12105   */\n      swap2\n      pop\n        /* \"#utility.yul\":12114:12207   */\n      tag_673\n        /* \"#utility.yul\":12203:12206   */\n      dup3\n        /* \"#utility.yul\":12114:12207   */\n      tag_484\n      jump\t// in\n    tag_673:\n        /* \"#utility.yul\":12232:12234   */\n      0x20\n        /* \"#utility.yul\":12227:12230   */\n      dup3\n        /* \"#utility.yul\":12223:12235   */\n      add\n        /* \"#utility.yul\":12216:12235   */\n      swap1\n      pop\n        /* \"#utility.yul\":11875:12241   */\n      swap2\n      swap1\n      pop\n      jump\t// out\n        /* \"#utility.yul\":12247:12666   */\n    tag_246:\n        /* \"#utility.yul\":12413:12417   */\n      0x00\n        /* \"#utility.yul\":12451:12453   */\n      0x20\n        /* \"#utility.yul\":12440:12449   */\n      dup3\n        /* \"#utility.yul\":12436:12454   */\n      add\n        /* \"#utility.yul\":12428:12454   */\n      swap1\n      pop\n        /* \"#utility.yul\":12500:12509   */\n      dup2\n        /* \"#utility.yul\":12494:12498   */\n      dup2\n        /* \"#utility.yul\":12490:12510   */\n      sub\n        /* \"#utility.yul\":12486:12487   */\n      0x00\n        /* \"#utility.yul\":12475:12484   */\n      dup4\n        /* \"#utility.yul\":12471:12488   */\n      add\n        /* \"#utility.yul\":12464:12511   */\n      mstore\n        /* \"#utility.yul\":12528:12659   */\n      tag_675\n        /* \"#utility.yul\":12654:12658   */\n      dup2\n        /* \"#utility.yul\":12528:12659   */\n      tag_485\n      jump\t// in\n    tag_675:\n        /* \"#utility.yul\":12520:12659   */\n      swap1\n      pop\n        /* \"#utility.yul\":12247:12666   */\n      swap2\n      swap1\n      pop\n      jump\t// out\n        /* \"#utility.yul\":12672:12839   */\n    tag_486:\n        /* \"#utility.yul\":12812:12831   */\n      0x496e76616c696420726563697069656e74000000000000000000000000000000\n        /* \"#utility.yul\":12808:12809   */\n      0x00\n        /* \"#utility.yul\":12800:12806   */\n      dup3\n        /* \"#utility.yul\":12796:12810   */\n      add\n        /* \"#utility.yul\":12789:12832   */\n      mstore\n        /* \"#utility.yul\":12672:12839   */\n      pop\n      jump\t// out\n        /* \"#utility.yul\":12845:13211   */\n    tag_487:\n        /* \"#utility.yul\":12987:12990   */\n      0x00\n        /* \"#utility.yul\":13008:13075   */\n      tag_678\n        /* \"#utility.yul\":13072:13074   */\n      0x11\n        /* \"#utility.yul\":13067:13070   */\n      dup4\n        /* \"#utility.yul\":13008:13075   */\n      tag_474\n      jump\t// in\n    tag_678:\n        /* \"#utility.yul\":13001:13075   */\n      swap2\n      pop\n        /* \"#utility.yul\":13084:13177   */\n      tag_679\n        /* \"#utility.yul\":13173:13176   */\n      dup3\n        /* \"#utility.yul\":13084:13177   */\n      tag_486\n      jump\t// in\n    tag_679:\n        /* \"#utility.yul\":13202:13204   */\n      0x20\n        /* \"#utility.yul\":13197:13200   */\n      dup3\n        /* \"#utility.yul\":13193:13205   */\n      add\n        /* \"#utility.yul\":13186:13205   */\n      swap1\n      pop\n        /* \"#utility.yul\":12845:13211   */\n      swap2\n      swap1\n      pop\n      jump\t// out\n        /* \"#utility.yul\":13217:13636   */\n    tag_256:\n        /* \"#utility.yul\":13383:13387   */\n      0x00\n        /* \"#utility.yul\":13421:13423   */\n      0x20\n        /* \"#utility.yul\":13410:13419   */\n      dup3\n        /* \"#utility.yul\":13406:13424   */\n      add\n        /* \"#utility.yul\":13398:13424   */\n      swap1\n      pop\n        /* \"#utility.yul\":13470:13479   */\n      dup2\n        /* \"#utility.yul\":13464:13468   */\n      dup2\n        /* \"#utility.yul\":13460:13480   */\n      sub\n        /* \"#utility.yul\":13456:13457   */\n      0x00\n        /* \"#utility.yul\":13445:13454   */\n      dup4\n        /* \"#utility.yul\":13441:13458   */\n      add\n        /* \"#utility.yul\":13434:13481   */\n      mstore\n        /* \"#utility.yul\":13498:13629   */\n      tag_681\n        /* \"#utility.yul\":13624:13628   */\n      dup2\n        /* \"#utility.yul\":13498:13629   */\n      tag_487\n      jump\t// in\n    tag_681:\n        /* \"#utility.yul\":13490:13629   */\n      swap1\n      pop\n        /* \"#utility.yul\":13217:13636   */\n      swap2\n      swap1\n      pop\n      jump\t// out\n        /* \"#utility.yul\":13642:13806   */\n    tag_488:\n        /* \"#utility.yul\":13782:13798   */\n      0x4e6f7420656e6f75676820455448000000000000000000000000000000000000\n        /* \"#utility.yul\":13778:13779   */\n      0x00\n        /* \"#utility.yul\":13770:13776   */\n      dup3\n        /* \"#utility.yul\":13766:13780   */\n      add\n        /* \"#utility.yul\":13759:13799   */\n      mstore\n        /* \"#utility.yul\":13642:13806   */\n      pop\n      jump\t// out\n        /* \"#utility.yul\":13812:14178   */\n    tag_489:\n        /* \"#utility.yul\":13954:13957   */\n      0x00\n        /* \"#utility.yul\":13975:14042   */\n      tag_684\n        /* \"#utility.yul\":14039:14041   */\n      0x0e\n        /* \"#utility.yul\":14034:14037   */\n      dup4\n        /* \"#utility.yul\":13975:14042   */\n      tag_474\n      jump\t// in\n    tag_684:\n        /* \"#utility.yul\":13968:14042   */\n      swap2\n      pop\n        /* \"#utility.yul\":14051:14144   */\n      tag_685\n        /* \"#utility.yul\":14140:14143   */\n      dup3\n        /* \"#utility.yul\":14051:14144   */\n      tag_488\n      jump\t// in\n    tag_685:\n        /* \"#utility.yul\":14169:14171   */\n      0x20\n        /* \"#utility.yul\":14164:14167   */\n      dup3\n        /* \"#utility.yul\":14160:14172   */\n      add\n        /* \"#utility.yul\":14153:14172   */\n      swap1\n      pop\n        /* \"#utility.yul\":13812:14178   */\n      swap2\n      swap1\n      pop\n      jump\t// out\n        /* \"#utility.yul\":14184:14603   */\n    tag_259:\n        /* \"#utility.yul\":14350:14354   */\n      0x00\n        /* \"#utility.yul\":14388:14390   */\n      0x20\n        /* \"#utility.yul\":14377:14386   */\n      dup3\n        /* \"#utility.yul\":14373:14391   */\n      add\n        /* \"#utility.yul\":14365:14391   */\n      swap1\n      pop\n        /* \"#utility.yul\":14437:14446   */\n      dup2\n        /* \"#utility.yul\":14431:14435   */\n      dup2\n        /* \"#utility.yul\":14427:14447   */\n      sub\n        /* \"#utility.yul\":14423:14424   */\n      0x00\n        /* \"#utility.yul\":14412:14421   */\n      dup4\n        /* \"#utility.yul\":14408:14425   */\n      add\n        /* \"#utility.yul\":14401:14448   */\n      mstore\n        /* \"#utility.yul\":14465:14596   */\n      tag_687\n        /* \"#utility.yul\":14591:14595   */\n      dup2\n        /* \"#utility.yul\":14465:14596   */\n      tag_489\n      jump\t// in\n    tag_687:\n        /* \"#utility.yul\":14457:14596   */\n      swap1\n      pop\n        /* \"#utility.yul\":14184:14603   */\n      swap2\n      swap1\n      pop\n      jump\t// out\n        /* \"#utility.yul\":14609:14756   */\n    tag_490:\n        /* \"#utility.yul\":14710:14721   */\n      0x00\n        /* \"#utility.yul\":14747:14750   */\n      dup2\n        /* \"#utility.yul\":14732:14750   */\n      swap1\n      pop\n        /* \"#utility.yul\":14609:14756   */\n      swap3\n      swap2\n      pop\n      pop\n      jump\t// out\n        /* \"#utility.yul\":14762:14876   */\n    tag_491:\n      pop\n      jump\t// out\n        /* \"#utility.yul\":14882:15280   */\n    tag_492:\n        /* \"#utility.yul\":15041:15044   */\n      0x00\n        /* \"#utility.yul\":15062:15145   */\n      tag_691\n        /* \"#utility.yul\":15143:15144   */\n      0x00\n        /* \"#utility.yul\":15138:15141   */\n      dup4\n        /* \"#utility.yul\":15062:15145   */\n      tag_490\n      jump\t// in\n    tag_691:\n        /* \"#utility.yul\":15055:15145   */\n      swap2\n      pop\n        /* \"#utility.yul\":15154:15247   */\n      tag_692\n        /* \"#utility.yul\":15243:15246   */\n      dup3\n        /* \"#utility.yul\":15154:15247   */\n      tag_491\n      jump\t// in\n    tag_692:\n        /* \"#utility.yul\":15272:15273   */\n      0x00\n        /* \"#utility.yul\":15267:15270   */\n      dup3\n        /* \"#utility.yul\":15263:15274   */\n      add\n        /* \"#utility.yul\":15256:15274   */\n      swap1\n      pop\n        /* \"#utility.yul\":14882:15280   */\n      swap2\n      swap1\n      pop\n      jump\t// out\n        /* \"#utility.yul\":15286:15665   */\n    tag_261:\n        /* \"#utility.yul\":15470:15473   */\n      0x00\n        /* \"#utility.yul\":15492:15639   */\n      tag_694\n        /* \"#utility.yul\":15635:15638   */\n      dup3\n        /* \"#utility.yul\":15492:15639   */\n      tag_492\n      jump\t// in\n    tag_694:\n        /* \"#utility.yul\":15485:15639   */\n      swap2\n      pop\n        /* \"#utility.yul\":15656:15659   */\n      dup2\n        /* \"#utility.yul\":15649:15659   */\n      swap1\n      pop\n        /* \"#utility.yul\":15286:15665   */\n      swap2\n      swap1\n      pop\n      jump\t// out\n        /* \"#utility.yul\":15671:15840   */\n    tag_493:\n        /* \"#utility.yul\":15811:15832   */\n      0x455448207472616e73666572206661696c656400000000000000000000000000\n        /* \"#utility.yul\":15807:15808   */\n      0x00\n        /* \"#utility.yul\":15799:15805   */\n      dup3\n        /* \"#utility.yul\":15795:15809   */\n      add\n        /* \"#utility.yul\":15788:15833   */\n      mstore\n        /* \"#utility.yul\":15671:15840   */\n      pop\n      jump\t// out\n        /* \"#utility.yul\":15846:16212   */\n    tag_494:\n        /* \"#utility.yul\":15988:15991   */\n      0x00\n        /* \"#utility.yul\":16009:16076   */\n      tag_697\n        /* \"#utility.yul\":16073:16075   */\n      0x13\n        /* \"#utility.yul\":16068:16071   */\n      dup4\n        /* \"#utility.yul\":16009:16076   */\n      tag_474\n      jump\t// in\n    tag_697:\n        /* \"#utility.yul\":16002:16076   */\n      swap2\n      pop\n        /* \"#utility.yul\":16085:16178   */\n      tag_698\n        /* \"#utility.yul\":16174:16177   */\n      dup3\n        /* \"#utility.yul\":16085:16178   */\n      tag_493\n      jump\t// in\n    tag_698:\n        /* \"#utility.yul\":16203:16205   */\n      0x20\n        /* \"#utility.yul\":16198:16201   */\n      dup3\n        /* \"#utility.yul\":16194:16206   */\n      add\n        /* \"#utility.yul\":16187:16206   */\n      swap1\n      pop\n        /* \"#utility.yul\":15846:16212   */\n      swap2\n      swap1\n      pop\n      jump\t// out\n        /* \"#utility.yul\":16218:16637   */\n    tag_267:\n        /* \"#utility.yul\":16384:16388   */\n      0x00\n        /* \"#utility.yul\":16422:16424   */\n      0x20\n        /* \"#utility.yul\":16411:16420   */\n      dup3\n        /* \"#utility.yul\":16407:16425   */\n      add\n        /* \"#utility.yul\":16399:16425   */\n      swap1\n      pop\n        /* \"#utility.yul\":16471:16480   */\n      dup2\n        /* \"#utility.yul\":16465:16469   */\n      dup2\n        /* \"#utility.yul\":16461:16481   */\n      sub\n        /* \"#utility.yul\":16457:16458   */\n      0x00\n        /* \"#utility.yul\":16446:16455   */\n      dup4\n        /* \"#utility.yul\":16442:16459   */\n      add\n        /* \"#utility.yul\":16435:16482   */\n      mstore\n        /* \"#utility.yul\":16499:16630   */\n      tag_700\n        /* \"#utility.yul\":16625:16629   */\n      dup2\n        /* \"#utility.yul\":16499:16630   */\n      tag_494\n      jump\t// in\n    tag_700:\n        /* \"#utility.yul\":16491:16630   */\n      swap1\n      pop\n        /* \"#utility.yul\":16218:16637   */\n      swap2\n      swap1\n      pop\n      jump\t// out\n        /* \"#utility.yul\":16643:16703   */\n    tag_495:\n        /* \"#utility.yul\":16671:16674   */\n      0x00\n        /* \"#utility.yul\":16692:16697   */\n      dup2\n        /* \"#utility.yul\":16685:16697   */\n      swap1\n      pop\n        /* \"#utility.yul\":16643:16703   */\n      swap2\n      swap1\n      pop\n      jump\t// out\n        /* \"#utility.yul\":16709:16851   */\n    tag_496:\n        /* \"#utility.yul\":16759:16768   */\n      0x00\n        /* \"#utility.yul\":16792:16845   */\n      tag_703\n        /* \"#utility.yul\":16810:16844   */\n      tag_704\n        /* \"#utility.yul\":16819:16843   */\n      tag_705\n        /* \"#utility.yul\":16837:16842   */\n      dup5\n        /* \"#utility.yul\":16819:16843   */\n      tag_452\n      jump\t// in\n    tag_705:\n        /* \"#utility.yul\":16810:16844   */\n      tag_495\n      jump\t// in\n    tag_704:\n        /* \"#utility.yul\":16792:16845   */\n      tag_452\n      jump\t// in\n    tag_703:\n        /* \"#utility.yul\":16779:16845   */\n      swap1\n      pop\n        /* \"#utility.yul\":16709:16851   */\n      swap2\n      swap1\n      pop\n      jump\t// out\n        /* \"#utility.yul\":16857:16983   */\n    tag_497:\n        /* \"#utility.yul\":16907:16916   */\n      0x00\n        /* \"#utility.yul\":16940:16977   */\n      tag_707\n        /* \"#utility.yul\":16971:16976   */\n      dup3\n        /* \"#utility.yul\":16940:16977   */\n      tag_496\n      jump\t// in\n    tag_707:\n        /* \"#utility.yul\":16927:16977   */\n      swap1\n      pop\n        /* \"#utility.yul\":16857:16983   */\n      swap2\n      swap1\n      pop\n      jump\t// out\n        /* \"#utility.yul\":16989:17123   */\n    tag_498:\n        /* \"#utility.yul\":17047:17056   */\n      0x00\n        /* \"#utility.yul\":17080:17117   */\n      tag_709\n        /* \"#utility.yul\":17111:17116   */\n      dup3\n        /* \"#utility.yul\":17080:17117   */\n      tag_497\n      jump\t// in\n    tag_709:\n        /* \"#utility.yul\":17067:17117   */\n      swap1\n      pop\n        /* \"#utility.yul\":16989:17123   */\n      swap2\n      swap1\n      pop\n      jump\t// out\n        /* \"#utility.yul\":17129:17276   */\n    tag_499:\n        /* \"#utility.yul\":17224:17269   */\n      tag_711\n        /* \"#utility.yul\":17263:17268   */\n      dup2\n        /* \"#utility.yul\":17224:17269   */\n      tag_498\n      jump\t// in\n    tag_711:\n        /* \"#utility.yul\":17219:17222   */\n      dup3\n        /* \"#utility.yul\":17212:17270   */\n      mstore\n        /* \"#utility.yul\":17129:17276   */\n      pop\n      pop\n      jump\t// out\n        /* \"#utility.yul\":17282:17630   */\n    tag_269:\n        /* \"#utility.yul\":17411:17415   */\n      0x00\n        /* \"#utility.yul\":17449:17451   */\n      0x40\n        /* \"#utility.yul\":17438:17447   */\n      dup3\n        /* \"#utility.yul\":17434:17452   */\n      add\n        /* \"#utility.yul\":17426:17452   */\n      swap1\n      pop\n        /* \"#utility.yul\":17462:17533   */\n      tag_713\n        /* \"#utility.yul\":17530:17531   */\n      0x00\n        /* \"#utility.yul\":17519:17528   */\n      dup4\n        /* \"#utility.yul\":17515:17532   */\n      add\n        /* \"#utility.yul\":17506:17512   */\n      dup6\n        /* \"#utility.yul\":17462:17533   */\n      tag_465\n      jump\t// in\n    tag_713:\n        /* \"#utility.yul\":17543:17623   */\n      tag_714\n        /* \"#utility.yul\":17619:17621   */\n      0x20\n        /* \"#utility.yul\":17608:17617   */\n      dup4\n        /* \"#utility.yul\":17604:17622   */\n      add\n        /* \"#utility.yul\":17595:17601   */\n      dup5\n        /* \"#utility.yul\":17543:17623   */\n      tag_499\n      jump\t// in\n    tag_714:\n        /* \"#utility.yul\":17282:17630   */\n      swap4\n      swap3\n      pop\n      pop\n      pop\n      jump\t// out\n        /* \"#utility.yul\":17636:17810   */\n    tag_500:\n        /* \"#utility.yul\":17776:17802   */\n      0x4e6f7420656e6f75676820746f6b656e2062616c616e63650000000000000000\n        /* \"#utility.yul\":17772:17773   */\n      0x00\n        /* \"#utility.yul\":17764:17770   */\n      dup3\n        /* \"#utility.yul\":17760:17774   */\n      add\n        /* \"#utility.yul\":17753:17803   */\n      mstore\n        /* \"#utility.yul\":17636:17810   */\n      pop\n      jump\t// out\n        /* \"#utility.yul\":17816:18182   */\n    tag_501:\n        /* \"#utility.yul\":17958:17961   */\n      0x00\n        /* \"#utility.yul\":17979:18046   */\n      tag_717\n        /* \"#utility.yul\":18043:18045   */\n      0x18\n        /* \"#utility.yul\":18038:18041   */\n      dup4\n        /* \"#utility.yul\":17979:18046   */\n      tag_474\n      jump\t// in\n    tag_717:\n        /* \"#utility.yul\":17972:18046   */\n      swap2\n      pop\n        /* \"#utility.yul\":18055:18148   */\n      tag_718\n        /* \"#utility.yul\":18144:18147   */\n      dup3\n        /* \"#utility.yul\":18055:18148   */\n      tag_500\n      jump\t// in\n    tag_718:\n        /* \"#utility.yul\":18173:18175   */\n      0x20\n        /* \"#utility.yul\":18168:18171   */\n      dup3\n        /* \"#utility.yul\":18164:18176   */\n      add\n        /* \"#utility.yul\":18157:18176   */\n      swap1\n      pop\n        /* \"#utility.yul\":17816:18182   */\n      swap2\n      swap1\n      pop\n      jump\t// out\n        /* \"#utility.yul\":18188:18607   */\n    tag_284:\n        /* \"#utility.yul\":18354:18358   */\n      0x00\n        /* \"#utility.yul\":18392:18394   */\n      0x20\n        /* \"#utility.yul\":18381:18390   */\n      dup3\n        /* \"#utility.yul\":18377:18395   */\n      add\n        /* \"#utility.yul\":18369:18395   */\n      swap1\n      pop\n        /* \"#utility.yul\":18441:18450   */\n      dup2\n        /* \"#utility.yul\":18435:18439   */\n      dup2\n        /* \"#utility.yul\":18431:18451   */\n      sub\n        /* \"#utility.yul\":18427:18428   */\n      0x00\n        /* \"#utility.yul\":18416:18425   */\n      dup4\n        /* \"#utility.yul\":18412:18429   */\n      add\n        /* \"#utility.yul\":18405:18452   */\n      mstore\n        /* \"#utility.yul\":18469:18600   */\n      tag_720\n        /* \"#utility.yul\":18595:18599   */\n      dup2\n        /* \"#utility.yul\":18469:18600   */\n      tag_501\n      jump\t// in\n    tag_720:\n        /* \"#utility.yul\":18461:18600   */\n      swap1\n      pop\n        /* \"#utility.yul\":18188:18607   */\n      swap2\n      swap1\n      pop\n      jump\t// out\n        /* \"#utility.yul\":18613:18787   */\n    tag_502:\n        /* \"#utility.yul\":18753:18779   */\n      0x4e6f20657863657373205745544e20746f207265736375650000000000000000\n        /* \"#utility.yul\":18749:18750   */\n      0x00\n        /* \"#utility.yul\":18741:18747   */\n      dup3\n        /* \"#utility.yul\":18737:18751   */\n      add\n        /* \"#utility.yul\":18730:18780   */\n      mstore\n        /* \"#utility.yul\":18613:18787   */\n      pop\n      jump\t// out\n        /* \"#utility.yul\":18793:19159   */\n    tag_503:\n        /* \"#utility.yul\":18935:18938   */\n      0x00\n        /* \"#utility.yul\":18956:19023   */\n      tag_723\n        /* \"#utility.yul\":19020:19022   */\n      0x18\n        /* \"#utility.yul\":19015:19018   */\n      dup4\n        /* \"#utility.yul\":18956:19023   */\n      tag_474\n      jump\t// in\n    tag_723:\n        /* \"#utility.yul\":18949:19023   */\n      swap2\n      pop\n        /* \"#utility.yul\":19032:19125   */\n      tag_724\n        /* \"#utility.yul\":19121:19124   */\n      dup3\n        /* \"#utility.yul\":19032:19125   */\n      tag_502\n      jump\t// in\n    tag_724:\n        /* \"#utility.yul\":19150:19152   */\n      0x20\n        /* \"#utility.yul\":19145:19148   */\n      dup3\n        /* \"#utility.yul\":19141:19153   */\n      add\n        /* \"#utility.yul\":19134:19153   */\n      swap1\n      pop\n        /* \"#utility.yul\":18793:19159   */\n      swap2\n      swap1\n      pop\n      jump\t// out\n        /* \"#utility.yul\":19165:19584   */\n    tag_290:\n        /* \"#utility.yul\":19331:19335   */\n      0x00\n        /* \"#utility.yul\":19369:19371   */\n      0x20\n        /* \"#utility.yul\":19358:19367   */\n      dup3\n        /* \"#utility.yul\":19354:19372   */\n      add\n        /* \"#utility.yul\":19346:19372   */\n      swap1\n      pop\n        /* \"#utility.yul\":19418:19427   */\n      dup2\n        /* \"#utility.yul\":19412:19416   */\n      dup2\n        /* \"#utility.yul\":19408:19428   */\n      sub\n        /* \"#utility.yul\":19404:19405   */\n      0x00\n        /* \"#utility.yul\":19393:19402   */\n      dup4\n        /* \"#utility.yul\":19389:19406   */\n      add\n        /* \"#utility.yul\":19382:19429   */\n      mstore\n        /* \"#utility.yul\":19446:19577   */\n      tag_726\n        /* \"#utility.yul\":19572:19576   */\n      dup2\n        /* \"#utility.yul\":19446:19577   */\n      tag_503\n      jump\t// in\n    tag_726:\n        /* \"#utility.yul\":19438:19577   */\n      swap1\n      pop\n        /* \"#utility.yul\":19165:19584   */\n      swap2\n      swap1\n      pop\n      jump\t// out\n        /* \"#utility.yul\":19590:19766   */\n    tag_504:\n        /* \"#utility.yul\":19730:19758   */\n      0x416d6f756e74206578636565647320657863657373205745544e000000000000\n        /* \"#utility.yul\":19726:19727   */\n      0x00\n        /* \"#utility.yul\":19718:19724   */\n      dup3\n        /* \"#utility.yul\":19714:19728   */\n      add\n        /* \"#utility.yul\":19707:19759   */\n      mstore\n        /* \"#utility.yul\":19590:19766   */\n      pop\n      jump\t// out\n        /* \"#utility.yul\":19772:20138   */\n    tag_505:\n        /* \"#utility.yul\":19914:19917   */\n      0x00\n        /* \"#utility.yul\":19935:20002   */\n      tag_729\n        /* \"#utility.yul\":19999:20001   */\n      0x1a\n        /* \"#utility.yul\":19994:19997   */\n      dup4\n        /* \"#utility.yul\":19935:20002   */\n      tag_474\n      jump\t// in\n    tag_729:\n        /* \"#utility.yul\":19928:20002   */\n      swap2\n      pop\n        /* \"#utility.yul\":20011:20104   */\n      tag_730\n        /* \"#utility.yul\":20100:20103   */\n      dup3\n        /* \"#utility.yul\":20011:20104   */\n      tag_504\n      jump\t// in\n    tag_730:\n        /* \"#utility.yul\":20129:20131   */\n      0x20\n        /* \"#utility.yul\":20124:20127   */\n      dup3\n        /* \"#utility.yul\":20120:20132   */\n      add\n        /* \"#utility.yul\":20113:20132   */\n      swap1\n      pop\n        /* \"#utility.yul\":19772:20138   */\n      swap2\n      swap1\n      pop\n      jump\t// out\n        /* \"#utility.yul\":20144:20563   */\n    tag_294:\n        /* \"#utility.yul\":20310:20314   */\n      0x00\n        /* \"#utility.yul\":20348:20350   */\n      0x20\n        /* \"#utility.yul\":20337:20346   */\n      dup3\n        /* \"#utility.yul\":20333:20351   */\n      add\n        /* \"#utility.yul\":20325:20351   */\n      swap1\n      pop\n        /* \"#utility.yul\":20397:20406   */\n      dup2\n        /* \"#utility.yul\":20391:20395   */\n      dup2\n        /* \"#utility.yul\":20387:20407   */\n      sub\n        /* \"#utility.yul\":20383:20384   */\n      0x00\n        /* \"#utility.yul\":20372:20381   */\n      dup4\n        /* \"#utility.yul\":20368:20385   */\n      add\n        /* \"#utility.yul\":20361:20408   */\n      mstore\n        /* \"#utility.yul\":20425:20556   */\n      tag_732\n        /* \"#utility.yul\":20551:20555   */\n      dup2\n        /* \"#utility.yul\":20425:20556   */\n      tag_505\n      jump\t// in\n    tag_732:\n        /* \"#utility.yul\":20417:20556   */\n      swap1\n      pop\n        /* \"#utility.yul\":20144:20563   */\n      swap2\n      swap1\n      pop\n      jump\t// out\n        /* \"#utility.yul\":20569:20901   */\n    tag_296:\n        /* \"#utility.yul\":20690:20694   */\n      0x00\n        /* \"#utility.yul\":20728:20730   */\n      0x40\n        /* \"#utility.yul\":20717:20726   */\n      dup3\n        /* \"#utility.yul\":20713:20731   */\n      add\n        /* \"#utility.yul\":20705:20731   */\n      swap1\n      pop\n        /* \"#utility.yul\":20741:20812   */\n      tag_734\n        /* \"#utility.yul\":20809:20810   */\n      0x00\n        /* \"#utility.yul\":20798:20807   */\n      dup4\n        /* \"#utility.yul\":20794:20811   */\n      add\n        /* \"#utility.yul\":20785:20791   */\n      dup6\n        /* \"#utility.yul\":20741:20812   */\n      tag_454\n      jump\t// in\n    tag_734:\n        /* \"#utility.yul\":20822:20894   */\n      tag_735\n        /* \"#utility.yul\":20890:20892   */\n      0x20\n        /* \"#utility.yul\":20879:20888   */\n      dup4\n        /* \"#utility.yul\":20875:20893   */\n      add\n        /* \"#utility.yul\":20866:20872   */\n      dup5\n        /* \"#utility.yul\":20822:20894   */\n      tag_465\n      jump\t// in\n    tag_735:\n        /* \"#utility.yul\":20569:20901   */\n      swap4\n      swap3\n      pop\n      pop\n      pop\n      jump\t// out\n        /* \"#utility.yul\":20907:21044   */\n    tag_506:\n        /* \"#utility.yul\":20961:20966   */\n      0x00\n        /* \"#utility.yul\":20992:20998   */\n      dup2\n        /* \"#utility.yul\":20986:20999   */\n      mload\n        /* \"#utility.yul\":20977:20999   */\n      swap1\n      pop\n        /* \"#utility.yul\":21008:21038   */\n      tag_737\n        /* \"#utility.yul\":21032:21037   */\n      dup2\n        /* \"#utility.yul\":21008:21038   */\n      tag_462\n      jump\t// in\n    tag_737:\n        /* \"#utility.yul\":20907:21044   */\n      swap3\n      swap2\n      pop\n      pop\n      jump\t// out\n        /* \"#utility.yul\":21050:21395   */\n    tag_300:\n        /* \"#utility.yul\":21117:21123   */\n      0x00\n        /* \"#utility.yul\":21166:21168   */\n      0x20\n        /* \"#utility.yul\":21154:21163   */\n      dup3\n        /* \"#utility.yul\":21145:21152   */\n      dup5\n        /* \"#utility.yul\":21141:21164   */\n      sub\n        /* \"#utility.yul\":21137:21169   */\n      slt\n        /* \"#utility.yul\":21134:21253   */\n      iszero\n      tag_739\n      jumpi\n        /* \"#utility.yul\":21172:21251   */\n      tag_740\n      tag_456\n      jump\t// in\n    tag_740:\n        /* \"#utility.yul\":21134:21253   */\n    tag_739:\n        /* \"#utility.yul\":21292:21293   */\n      0x00\n        /* \"#utility.yul\":21317:21378   */\n      tag_741\n        /* \"#utility.yul\":21370:21377   */\n      dup5\n        /* \"#utility.yul\":21361:21367   */\n      dup3\n        /* \"#utility.yul\":21350:21359   */\n      dup6\n        /* \"#utility.yul\":21346:21368   */\n      add\n        /* \"#utility.yul\":21317:21378   */\n      tag_506\n      jump\t// in\n    tag_741:\n        /* \"#utility.yul\":21307:21378   */\n      swap2\n      pop\n        /* \"#utility.yul\":21263:21388   */\n      pop\n        /* \"#utility.yul\":21050:21395   */\n      swap3\n      swap2\n      pop\n      pop\n      jump\t// out\n        /* \"#utility.yul\":21401:21572   */\n    tag_507:\n        /* \"#utility.yul\":21541:21564   */\n      0x546f6b656e207472616e73666572206661696c65640000000000000000000000\n        /* \"#utility.yul\":21537:21538   */\n      0x00\n        /* \"#utility.yul\":21529:21535   */\n      dup3\n        /* \"#utility.yul\":21525:21539   */\n      add\n        /* \"#utility.yul\":21518:21565   */\n      mstore\n        /* \"#utility.yul\":21401:21572   */\n      pop\n      jump\t// out\n        /* \"#utility.yul\":21578:21944   */\n    tag_508:\n        /* \"#utility.yul\":21720:21723   */\n      0x00\n        /* \"#utility.yul\":21741:21808   */\n      tag_744\n        /* \"#utility.yul\":21805:21807   */\n      0x15\n        /* \"#utility.yul\":21800:21803   */\n      dup4\n        /* \"#utility.yul\":21741:21808   */\n      tag_474\n      jump\t// in\n    tag_744:\n        /* \"#utility.yul\":21734:21808   */\n      swap2\n      pop\n        /* \"#utility.yul\":21817:21910   */\n      tag_745\n        /* \"#utility.yul\":21906:21909   */\n      dup3\n        /* \"#utility.yul\":21817:21910   */\n      tag_507\n      jump\t// in\n    tag_745:\n        /* \"#utility.yul\":21935:21937   */\n      0x20\n        /* \"#utility.yul\":21930:21933   */\n      dup3\n        /* \"#utility.yul\":21926:21938   */\n      add\n        /* \"#utility.yul\":21919:21938   */\n      swap1\n      pop\n        /* \"#utility.yul\":21578:21944   */\n      swap2\n      swap1\n      pop\n      jump\t// out\n        /* \"#utility.yul\":21950:22369   */\n    tag_303:\n        /* \"#utility.yul\":22116:22120   */\n      0x00\n        /* \"#utility.yul\":22154:22156   */\n      0x20\n        /* \"#utility.yul\":22143:22152   */\n      dup3\n        /* \"#utility.yul\":22139:22157   */\n      add\n        /* \"#utility.yul\":22131:22157   */\n      swap1\n      pop\n        /* \"#utility.yul\":22203:22212   */\n      dup2\n        /* \"#utility.yul\":22197:22201   */\n      dup2\n        /* \"#utility.yul\":22193:22213   */\n      sub\n        /* \"#utility.yul\":22189:22190   */\n      0x00\n        /* \"#utility.yul\":22178:22187   */\n      dup4\n        /* \"#utility.yul\":22174:22191   */\n      add\n        /* \"#utility.yul\":22167:22214   */\n      mstore\n        /* \"#utility.yul\":22231:22362   */\n      tag_747\n        /* \"#utility.yul\":22357:22361   */\n      dup2\n        /* \"#utility.yul\":22231:22362   */\n      tag_508\n      jump\t// in\n    tag_747:\n        /* \"#utility.yul\":22223:22362   */\n      swap1\n      pop\n        /* \"#utility.yul\":21950:22369   */\n      swap2\n      swap1\n      pop\n      jump\t// out\n        /* \"#utility.yul\":22375:22817   */\n    tag_305:\n        /* \"#utility.yul\":22524:22528   */\n      0x00\n        /* \"#utility.yul\":22562:22564   */\n      0x60\n        /* \"#utility.yul\":22551:22560   */\n      dup3\n        /* \"#utility.yul\":22547:22565   */\n      add\n        /* \"#utility.yul\":22539:22565   */\n      swap1\n      pop\n        /* \"#utility.yul\":22575:22646   */\n      tag_749\n        /* \"#utility.yul\":22643:22644   */\n      0x00\n        /* \"#utility.yul\":22632:22641   */\n      dup4\n        /* \"#utility.yul\":22628:22645   */\n      add\n        /* \"#utility.yul\":22619:22625   */\n      dup7\n        /* \"#utility.yul\":22575:22646   */\n      tag_454\n      jump\t// in\n    tag_749:\n        /* \"#utility.yul\":22656:22728   */\n      tag_750\n        /* \"#utility.yul\":22724:22726   */\n      0x20\n        /* \"#utility.yul\":22713:22722   */\n      dup4\n        /* \"#utility.yul\":22709:22727   */\n      add\n        /* \"#utility.yul\":22700:22706   */\n      dup6\n        /* \"#utility.yul\":22656:22728   */\n      tag_465\n      jump\t// in\n    tag_750:\n        /* \"#utility.yul\":22738:22810   */\n      tag_751\n        /* \"#utility.yul\":22806:22808   */\n      0x40\n        /* \"#utility.yul\":22795:22804   */\n      dup4\n        /* \"#utility.yul\":22791:22809   */\n      add\n        /* \"#utility.yul\":22782:22788   */\n      dup5\n        /* \"#utility.yul\":22738:22810   */\n      tag_454\n      jump\t// in\n    tag_751:\n        /* \"#utility.yul\":22375:22817   */\n      swap5\n      swap4\n      pop\n      pop\n      pop\n      pop\n      jump\t// out\n        /* \"#utility.yul\":22823:23000   */\n    tag_509:\n        /* \"#utility.yul\":22963:22992   */\n      0x436f72652077616c6c6574207472616e73666572206661696c65640000000000\n        /* \"#utility.yul\":22959:22960   */\n      0x00\n        /* \"#utility.yul\":22951:22957   */\n      dup3\n        /* \"#utility.yul\":22947:22961   */\n      add\n        /* \"#utility.yul\":22940:22993   */\n      mstore\n        /* \"#utility.yul\":22823:23000   */\n      pop\n      jump\t// out\n        /* \"#utility.yul\":23006:23372   */\n    tag_510:\n        /* \"#utility.yul\":23148:23151   */\n      0x00\n        /* \"#utility.yul\":23169:23236   */\n      tag_754\n        /* \"#utility.yul\":23233:23235   */\n      0x1b\n        /* \"#utility.yul\":23228:23231   */\n      dup4\n        /* \"#utility.yul\":23169:23236   */\n      tag_474\n      jump\t// in\n    tag_754:\n        /* \"#utility.yul\":23162:23236   */\n      swap2\n      pop\n        /* \"#utility.yul\":23245:23338   */\n      tag_755\n        /* \"#utility.yul\":23334:23337   */\n      dup3\n        /* \"#utility.yul\":23245:23338   */\n      tag_509\n      jump\t// in\n    tag_755:\n        /* \"#utility.yul\":23363:23365   */\n      0x20\n        /* \"#utility.yul\":23358:23361   */\n      dup3\n        /* \"#utility.yul\":23354:23366   */\n      add\n        /* \"#utility.yul\":23347:23366   */\n      swap1\n      pop\n        /* \"#utility.yul\":23006:23372   */\n      swap2\n      swap1\n      pop\n      jump\t// out\n        /* \"#utility.yul\":23378:23797   */\n    tag_325:\n        /* \"#utility.yul\":23544:23548   */\n      0x00\n        /* \"#utility.yul\":23582:23584   */\n      0x20\n        /* \"#utility.yul\":23571:23580   */\n      dup3\n        /* \"#utility.yul\":23567:23585   */\n      add\n        /* \"#utility.yul\":23559:23585   */\n      swap1\n      pop\n        /* \"#utility.yul\":23631:23640   */\n      dup2\n        /* \"#utility.yul\":23625:23629   */\n      dup2\n        /* \"#utility.yul\":23621:23641   */\n      sub\n        /* \"#utility.yul\":23617:23618   */\n      0x00\n        /* \"#utility.yul\":23606:23615   */\n      dup4\n        /* \"#utility.yul\":23602:23619   */\n      add\n        /* \"#utility.yul\":23595:23642   */\n      mstore\n        /* \"#utility.yul\":23659:23790   */\n      tag_757\n        /* \"#utility.yul\":23785:23789   */\n      dup2\n        /* \"#utility.yul\":23659:23790   */\n      tag_510\n      jump\t// in\n    tag_757:\n        /* \"#utility.yul\":23651:23790   */\n      swap1\n      pop\n        /* \"#utility.yul\":23378:23797   */\n      swap2\n      swap1\n      pop\n      jump\t// out\n        /* \"#utility.yul\":23803:24033   */\n    tag_511:\n        /* \"#utility.yul\":23943:23977   */\n      0x556e617574686f72697a65643a204f6e6c79206f776e6572206f722077686974\n        /* \"#utility.yul\":23939:23940   */\n      0x00\n        /* \"#utility.yul\":23931:23937   */\n      dup3\n        /* \"#utility.yul\":23927:23941   */\n      add\n        /* \"#utility.yul\":23920:23978   */\n      mstore\n        /* \"#utility.yul\":24012:24025   */\n      0x656c6973746564204e4654000000000000000000000000000000000000000000\n        /* \"#utility.yul\":24007:24009   */\n      0x20\n        /* \"#utility.yul\":23999:24005   */\n      dup3\n        /* \"#utility.yul\":23995:24010   */\n      add\n        /* \"#utility.yul\":23988:24026   */\n      mstore\n        /* \"#utility.yul\":23803:24033   */\n      pop\n      jump\t// out\n        /* \"#utility.yul\":24039:24405   */\n    tag_512:\n        /* \"#utility.yul\":24181:24184   */\n      0x00\n        /* \"#utility.yul\":24202:24269   */\n      tag_760\n        /* \"#utility.yul\":24266:24268   */\n      0x2b\n        /* \"#utility.yul\":24261:24264   */\n      dup4\n        /* \"#utility.yul\":24202:24269   */\n      tag_474\n      jump\t// in\n    tag_760:\n        /* \"#utility.yul\":24195:24269   */\n      swap2\n      pop\n        /* \"#utility.yul\":24278:24371   */\n      tag_761\n        /* \"#utility.yul\":24367:24370   */\n      dup3\n        /* \"#utility.yul\":24278:24371   */\n      tag_511\n      jump\t// in\n    tag_761:\n        /* \"#utility.yul\":24396:24398   */\n      0x40\n        /* \"#utility.yul\":24391:24394   */\n      dup3\n        /* \"#utility.yul\":24387:24399   */\n      add\n        /* \"#utility.yul\":24380:24399   */\n      swap1\n      pop\n        /* \"#utility.yul\":24039:24405   */\n      swap2\n      swap1\n      pop\n      jump\t// out\n        /* \"#utility.yul\":24411:24830   */\n    tag_332:\n        /* \"#utility.yul\":24577:24581   */\n      0x00\n        /* \"#utility.yul\":24615:24617   */\n      0x20\n        /* \"#utility.yul\":24604:24613   */\n      dup3\n        /* \"#utility.yul\":24600:24618   */\n      add\n        /* \"#utility.yul\":24592:24618   */\n      swap1\n      pop\n        /* \"#utility.yul\":24664:24673   */\n      dup2\n        /* \"#utility.yul\":24658:24662   */\n      dup2\n        /* \"#utility.yul\":24654:24674   */\n      sub\n        /* \"#utility.yul\":24650:24651   */\n      0x00\n        /* \"#utility.yul\":24639:24648   */\n      dup4\n        /* \"#utility.yul\":24635:24652   */\n      add\n        /* \"#utility.yul\":24628:24675   */\n      mstore\n        /* \"#utility.yul\":24692:24823   */\n      tag_763\n        /* \"#utility.yul\":24818:24822   */\n      dup2\n        /* \"#utility.yul\":24692:24823   */\n      tag_512\n      jump\t// in\n    tag_763:\n        /* \"#utility.yul\":24684:24823   */\n      swap1\n      pop\n        /* \"#utility.yul\":24411:24830   */\n      swap2\n      swap1\n      pop\n      jump\t// out\n        /* \"#utility.yul\":24836:25009   */\n    tag_513:\n        /* \"#utility.yul\":24976:25001   */\n      0x4e6f20636f72652062616c616e636520746f206275726e000000000000000000\n        /* \"#utility.yul\":24972:24973   */\n      0x00\n        /* \"#utility.yul\":24964:24970   */\n      dup3\n        /* \"#utility.yul\":24960:24974   */\n      add\n        /* \"#utility.yul\":24953:25002   */\n      mstore\n        /* \"#utility.yul\":24836:25009   */\n      pop\n      jump\t// out\n        /* \"#utility.yul\":25015:25381   */\n    tag_514:\n        /* \"#utility.yul\":25157:25160   */\n      0x00\n        /* \"#utility.yul\":25178:25245   */\n      tag_766\n        /* \"#utility.yul\":25242:25244   */\n      0x17\n        /* \"#utility.yul\":25237:25240   */\n      dup4\n        /* \"#utility.yul\":25178:25245   */\n      tag_474\n      jump\t// in\n    tag_766:\n        /* \"#utility.yul\":25171:25245   */\n      swap2\n      pop\n        /* \"#utility.yul\":25254:25347   */\n      tag_767\n        /* \"#utility.yul\":25343:25346   */\n      dup3\n        /* \"#utility.yul\":25254:25347   */\n      tag_513\n      jump\t// in\n    tag_767:\n        /* \"#utility.yul\":25372:25374   */\n      0x20\n        /* \"#utility.yul\":25367:25370   */\n      dup3\n        /* \"#utility.yul\":25363:25375   */\n      add\n        /* \"#utility.yul\":25356:25375   */\n      swap1\n      pop\n        /* \"#utility.yul\":25015:25381   */\n      swap2\n      swap1\n      pop\n      jump\t// out\n        /* \"#utility.yul\":25387:25806   */\n    tag_342:\n        /* \"#utility.yul\":25553:25557   */\n      0x00\n        /* \"#utility.yul\":25591:25593   */\n      0x20\n        /* \"#utility.yul\":25580:25589   */\n      dup3\n        /* \"#utility.yul\":25576:25594   */\n      add\n        /* \"#utility.yul\":25568:25594   */\n      swap1\n      pop\n        /* \"#utility.yul\":25640:25649   */\n      dup2\n        /* \"#utility.yul\":25634:25638   */\n      dup2\n        /* \"#utility.yul\":25630:25650   */\n      sub\n        /* \"#utility.yul\":25626:25627   */\n      0x00\n        /* \"#utility.yul\":25615:25624   */\n      dup4\n        /* \"#utility.yul\":25611:25628   */\n      add\n        /* \"#utility.yul\":25604:25651   */\n      mstore\n        /* \"#utility.yul\":25668:25799   */\n      tag_769\n        /* \"#utility.yul\":25794:25798   */\n      dup2\n        /* \"#utility.yul\":25668:25799   */\n      tag_514\n      jump\t// in\n    tag_769:\n        /* \"#utility.yul\":25660:25799   */\n      swap1\n      pop\n        /* \"#utility.yul\":25387:25806   */\n      swap2\n      swap1\n      pop\n      jump\t// out\n        /* \"#utility.yul\":25812:25955   */\n    tag_515:\n        /* \"#utility.yul\":25869:25874   */\n      0x00\n        /* \"#utility.yul\":25900:25906   */\n      dup2\n        /* \"#utility.yul\":25894:25907   */\n      mload\n        /* \"#utility.yul\":25885:25907   */\n      swap1\n      pop\n        /* \"#utility.yul\":25916:25949   */\n      tag_771\n        /* \"#utility.yul\":25943:25948   */\n      dup2\n        /* \"#utility.yul\":25916:25949   */\n      tag_458\n      jump\t// in\n    tag_771:\n        /* \"#utility.yul\":25812:25955   */\n      swap3\n      swap2\n      pop\n      pop\n      jump\t// out\n        /* \"#utility.yul\":25961:26312   */\n    tag_360:\n        /* \"#utility.yul\":26031:26037   */\n      0x00\n        /* \"#utility.yul\":26080:26082   */\n      0x20\n        /* \"#utility.yul\":26068:26077   */\n      dup3\n        /* \"#utility.yul\":26059:26066   */\n      dup5\n        /* \"#utility.yul\":26055:26078   */\n      sub\n        /* \"#utility.yul\":26051:26083   */\n      slt\n        /* \"#utility.yul\":26048:26167   */\n      iszero\n      tag_773\n      jumpi\n        /* \"#utility.yul\":26086:26165   */\n      tag_774\n      tag_456\n      jump\t// in\n    tag_774:\n        /* \"#utility.yul\":26048:26167   */\n    tag_773:\n        /* \"#utility.yul\":26206:26207   */\n      0x00\n        /* \"#utility.yul\":26231:26295   */\n      tag_775\n        /* \"#utility.yul\":26287:26294   */\n      dup5\n        /* \"#utility.yul\":26278:26284   */\n      dup3\n        /* \"#utility.yul\":26267:26276   */\n      dup6\n        /* \"#utility.yul\":26263:26285   */\n      add\n        /* \"#utility.yul\":26231:26295   */\n      tag_515\n      jump\t// in\n    tag_775:\n        /* \"#utility.yul\":26221:26295   */\n      swap2\n      pop\n        /* \"#utility.yul\":26177:26305   */\n      pop\n        /* \"#utility.yul\":25961:26312   */\n      swap3\n      swap2\n      pop\n      pop\n      jump\t// out\n        /* \"#utility.yul\":26318:26551   */\n    tag_372:\n        /* \"#utility.yul\":26357:26360   */\n      0x00\n        /* \"#utility.yul\":26380:26404   */\n      tag_777\n        /* \"#utility.yul\":26398:26403   */\n      dup3\n        /* \"#utility.yul\":26380:26404   */\n      tag_464\n      jump\t// in\n    tag_777:\n        /* \"#utility.yul\":26371:26404   */\n      swap2\n      pop\n        /* \"#utility.yul\":26426:26492   */\n      0xffffffffffffffffffffffffffffffffffffffffffffffffffffffffffffffff\n        /* \"#utility.yul\":26419:26424   */\n      dup3\n        /* \"#utility.yul\":26416:26493   */\n      sub\n        /* \"#utility.yul\":26413:26516   */\n      tag_778\n      jumpi\n        /* \"#utility.yul\":26496:26514   */\n      tag_779\n      tag_473\n      jump\t// in\n    tag_779:\n        /* \"#utility.yul\":26413:26516   */\n    tag_778:\n        /* \"#utility.yul\":26543:26544   */\n      0x01\n        /* \"#utility.yul\":26536:26541   */\n      dup3\n        /* \"#utility.yul\":26532:26545   */\n      add\n        /* \"#utility.yul\":26525:26545   */\n      swap1\n      pop\n        /* \"#utility.yul\":26318:26551   */\n      swap2\n      swap1\n      pop\n      jump\t// out\n        /* \"#utility.yul\":26557:26651   */\n    tag_516:\n        /* \"#utility.yul\":26590:26598   */\n      0x00\n        /* \"#utility.yul\":26638:26643   */\n      dup2\n        /* \"#utility.yul\":26634:26636   */\n      0x60\n        /* \"#utility.yul\":26630:26644   */\n      shl\n        /* \"#utility.yul\":26609:26644   */\n      swap1\n      pop\n        /* \"#utility.yul\":26557:26651   */\n      swap2\n      swap1\n      pop\n      jump\t// out\n        /* \"#utility.yul\":26657:26751   */\n    tag_517:\n        /* \"#utility.yul\":26696:26703   */\n      0x00\n        /* \"#utility.yul\":26725:26745   */\n      tag_782\n        /* \"#utility.yul\":26739:26744   */\n      dup3\n        /* \"#utility.yul\":26725:26745   */\n      tag_516\n      jump\t// in\n    tag_782:\n        /* \"#utility.yul\":26714:26745   */\n      swap1\n      pop\n        /* \"#utility.yul\":26657:26751   */\n      swap2\n      swap1\n      pop\n      jump\t// out\n        /* \"#utility.yul\":26757:26857   */\n    tag_518:\n        /* \"#utility.yul\":26796:26803   */\n      0x00\n        /* \"#utility.yul\":26825:26851   */\n      tag_784\n        /* \"#utility.yul\":26845:26850   */\n      dup3\n        /* \"#utility.yul\":26825:26851   */\n      tag_517\n      jump\t// in\n    tag_784:\n        /* \"#utility.yul\":26814:26851   */\n      swap1\n      pop\n        /* \"#utility.yul\":26757:26857   */\n      swap2\n      swap1\n      pop\n      jump\t// out\n        /* \"#utility.yul\":26863:27020   */\n    tag_519:\n        /* \"#utility.yul\":26968:27013   */\n      tag_786\n        /* \"#utility.yul\":26988:27012   */\n      tag_787\n        /* \"#utility.yul\":27006:27011   */\n      dup3\n        /* \"#utility.yul\":26988:27012   */\n      tag_453\n      jump\t// in\n    tag_787:\n        /* \"#utility.yul\":26968:27013   */\n      tag_518\n      jump\t// in\n    tag_786:\n        /* \"#utility.yul\":26963:26966   */\n      dup3\n        /* \"#utility.yul\":26956:27014   */\n      mstore\n        /* \"#utility.yul\":26863:27020   */\n      pop\n      pop\n      jump\t// out\n        /* \"#utility.yul\":27026:27117   */\n    tag_520:\n        /* \"#utility.yul\":27062:27069   */\n      0x00\n        /* \"#utility.yul\":27102:27110   */\n      0xffffff\n        /* \"#utility.yul\":27095:27100   */\n      dup3\n        /* \"#utility.yul\":27091:27111   */\n      and\n        /* \"#utility.yul\":27080:27111   */\n      swap1\n      pop\n        /* \"#utility.yul\":27026:27117   */\n      swap2\n      swap1\n      pop\n      jump\t// out\n        /* \"#utility.yul\":27123:27219   */\n    tag_521:\n        /* \"#utility.yul\":27157:27165   */\n      0x00\n        /* \"#utility.yul\":27206:27211   */\n      dup2\n        /* \"#utility.yul\":27201:27204   */\n      0xe8\n        /* \"#utility.yul\":27197:27212   */\n      shl\n        /* \"#utility.yul\":27176:27212   */\n      swap1\n      pop\n        /* \"#utility.yul\":27123:27219   */\n      swap2\n      swap1\n      pop\n      jump\t// out\n        /* \"#utility.yul\":27225:27319   */\n    tag_522:\n        /* \"#utility.yul\":27263:27270   */\n      0x00\n        /* \"#utility.yul\":27292:27313   */\n      tag_791\n        /* \"#utility.yul\":27307:27312   */\n      dup3\n        /* \"#utility.yul\":27292:27313   */\n      tag_521\n      jump\t// in\n    tag_791:\n        /* \"#utility.yul\":27281:27313   */\n      swap1\n      pop\n        /* \"#utility.yul\":27225:27319   */\n      swap2\n      swap1\n      pop\n      jump\t// out\n        /* \"#utility.yul\":27325:27478   */\n    tag_523:\n        /* \"#utility.yul\":27428:27471   */\n      tag_793\n        /* \"#utility.yul\":27447:27470   */\n      tag_794\n        /* \"#utility.yul\":27464:27469   */\n      dup3\n        /* \"#utility.yul\":27447:27470   */\n      tag_520\n      jump\t// in\n    tag_794:\n        /* \"#utility.yul\":27428:27471   */\n      tag_522\n      jump\t// in\n    tag_793:\n        /* \"#utility.yul\":27423:27426   */\n      dup3\n        /* \"#utility.yul\":27416:27472   */\n      mstore\n        /* \"#utility.yul\":27325:27478   */\n      pop\n      pop\n      jump\t// out\n        /* \"#utility.yul\":27484:28017   */\n    tag_380:\n        /* \"#utility.yul\":27650:27653   */\n      0x00\n        /* \"#utility.yul\":27665:27740   */\n      tag_796\n        /* \"#utility.yul\":27736:27739   */\n      dup3\n        /* \"#utility.yul\":27727:27733   */\n      dup7\n        /* \"#utility.yul\":27665:27740   */\n      tag_519\n      jump\t// in\n    tag_796:\n        /* \"#utility.yul\":27765:27767   */\n      0x14\n        /* \"#utility.yul\":27760:27763   */\n      dup3\n        /* \"#utility.yul\":27756:27768   */\n      add\n        /* \"#utility.yul\":27749:27768   */\n      swap2\n      pop\n        /* \"#utility.yul\":27778:27851   */\n      tag_797\n        /* \"#utility.yul\":27847:27850   */\n      dup3\n        /* \"#utility.yul\":27838:27844   */\n      dup6\n        /* \"#utility.yul\":27778:27851   */\n      tag_523\n      jump\t// in\n    tag_797:\n        /* \"#utility.yul\":27876:27877   */\n      0x03\n        /* \"#utility.yul\":27871:27874   */\n      dup3\n        /* \"#utility.yul\":27867:27878   */\n      add\n        /* \"#utility.yul\":27860:27878   */\n      swap2\n      pop\n        /* \"#utility.yul\":27888:27963   */\n      tag_798\n        /* \"#utility.yul\":27959:27962   */\n      dup3\n        /* \"#utility.yul\":27950:27956   */\n      dup5\n        /* \"#utility.yul\":27888:27963   */\n      tag_519\n      jump\t// in\n    tag_798:\n        /* \"#utility.yul\":27988:27990   */\n      0x14\n        /* \"#utility.yul\":27983:27986   */\n      dup3\n        /* \"#utility.yul\":27979:27991   */\n      add\n        /* \"#utility.yul\":27972:27991   */\n      swap2\n      pop\n        /* \"#utility.yul\":28008:28011   */\n      dup2\n        /* \"#utility.yul\":28001:28011   */\n      swap1\n      pop\n        /* \"#utility.yul\":27484:28017   */\n      swap5\n      swap4\n      pop\n      pop\n      pop\n      pop\n      jump\t// out\n        /* \"#utility.yul\":28023:28121   */\n    tag_524:\n        /* \"#utility.yul\":28074:28080   */\n      0x00\n        /* \"#utility.yul\":28108:28113   */\n      dup2\n        /* \"#utility.yul\":28102:28114   */\n      mload\n        /* \"#utility.yul\":28092:28114   */\n      swap1\n      pop\n        /* \"#utility.yul\":28023:28121   */\n      swap2\n      swap1\n      pop\n      jump\t// out\n        /* \"#utility.yul\":28127:28285   */\n    tag_525:\n        /* \"#utility.yul\":28200:28211   */\n      0x00\n        /* \"#utility.yul\":28234:28240   */\n      dup3\n        /* \"#utility.yul\":28229:28232   */\n      dup3\n        /* \"#utility.yul\":28222:28241   */\n      mstore\n        /* \"#utility.yul\":28274:28278   */\n      0x20\n        /* \"#utility.yul\":28269:28272   */\n      dup3\n        /* \"#utility.yul\":28265:28279   */\n      add\n        /* \"#utility.yul\":28250:28279   */\n      swap1\n      pop\n        /* \"#utility.yul\":28127:28285   */\n      swap3\n      swap2\n      pop\n      pop\n      jump\t// out\n        /* \"#utility.yul\":28291:28537   */\n    tag_526:\n        /* \"#utility.yul\":28372:28373   */\n      0x00\n        /* \"#utility.yul\":28382:28495   */\n    tag_802:\n        /* \"#utility.yul\":28396:28402   */\n      dup4\n        /* \"#utility.yul\":28393:28394   */\n      dup2\n        /* \"#utility.yul\":28390:28403   */\n      lt\n        /* \"#utility.yul\":28382:28495   */\n      iszero\n      tag_804\n      jumpi\n        /* \"#utility.yul\":28481:28482   */\n      dup1\n        /* \"#utility.yul\":28476:28479   */\n      dup3\n        /* \"#utility.yul\":28472:28483   */\n      add\n        /* \"#utility.yul\":28466:28484   */\n      mload\n        /* \"#utility.yul\":28462:28463   */\n      dup2\n        /* \"#utility.yul\":28457:28460   */\n      dup5\n        /* \"#utility.yul\":28453:28464   */\n      add\n        /* \"#utility.yul\":28446:28485   */\n      mstore\n        /* \"#utility.yul\":28418:28420   */\n      0x20\n        /* \"#utility.yul\":28415:28416   */\n      dup2\n        /* \"#utility.yul\":28411:28421   */\n      add\n        /* \"#utility.yul\":28406:28421   */\n      swap1\n      pop\n        /* \"#utility.yul\":28382:28495   */\n      jump(tag_802)\n    tag_804:\n        /* \"#utility.yul\":28529:28530   */\n      0x00\n        /* \"#utility.yul\":28520:28526   */\n      dup5\n        /* \"#utility.yul\":28515:28518   */\n      dup5\n        /* \"#utility.yul\":28511:28527   */\n      add\n        /* \"#utility.yul\":28504:28531   */\n      mstore\n        /* \"#utility.yul\":28353:28537   */\n      pop\n        /* \"#utility.yul\":28291:28537   */\n      pop\n      pop\n      pop\n      jump\t// out\n        /* \"#utility.yul\":28543:28645   */\n    tag_527:\n        /* \"#utility.yul\":28584:28590   */\n      0x00\n        /* \"#utility.yul\":28635:28637   */\n      0x1f\n        /* \"#utility.yul\":28631:28638   */\n      not\n        /* \"#utility.yul\":28626:28628   */\n      0x1f\n        /* \"#utility.yul\":28619:28624   */\n      dup4\n        /* \"#utility.yul\":28615:28629   */\n      add\n        /* \"#utility.yul\":28611:28639   */\n      and\n        /* \"#utility.yul\":28601:28639   */\n      swap1\n      pop\n        /* \"#utility.yul\":28543:28645   */\n      swap2\n      swap1\n      pop\n      jump\t// out\n        /* \"#utility.yul\":28651:29004   */\n    tag_528:\n        /* \"#utility.yul\":28727:28730   */\n      0x00\n        /* \"#utility.yul\":28755:28793   */\n      tag_807\n        /* \"#utility.yul\":28787:28792   */\n      dup3\n        /* \"#utility.yul\":28755:28793   */\n      tag_524\n      jump\t// in\n    tag_807:\n        /* \"#utility.yul\":28809:28869   */\n      tag_808\n        /* \"#utility.yul\":28862:28868   */\n      dup2\n        /* \"#utility.yul\":28857:28860   */\n      dup6\n        /* \"#utility.yul\":28809:28869   */\n      tag_525\n      jump\t// in\n    tag_808:\n        /* \"#utility.yul\":28802:28869   */\n      swap4\n      pop\n        /* \"#utility.yul\":28878:28943   */\n      tag_809\n        /* \"#utility.yul\":28936:28942   */\n      dup2\n        /* \"#utility.yul\":28931:28934   */\n      dup6\n        /* \"#utility.yul\":28924:28928   */\n      0x20\n        /* \"#utility.yul\":28917:28922   */\n      dup7\n        /* \"#utility.yul\":28913:28929   */\n      add\n        /* \"#utility.yul\":28878:28943   */\n      tag_526\n      jump\t// in\n    tag_809:\n        /* \"#utility.yul\":28968:28997   */\n      tag_810\n        /* \"#utility.yul\":28990:28996   */\n      dup2\n        /* \"#utility.yul\":28968:28997   */\n      tag_527\n      jump\t// in\n    tag_810:\n        /* \"#utility.yul\":28963:28966   */\n      dup5\n        /* \"#utility.yul\":28959:28998   */\n      add\n        /* \"#utility.yul\":28952:28998   */\n      swap2\n      pop\n        /* \"#utility.yul\":28731:29004   */\n      pop\n        /* \"#utility.yul\":28651:29004   */\n      swap3\n      swap2\n      pop\n      pop\n      jump\t// out\n        /* \"#utility.yul\":29010:29118   */\n    tag_529:\n        /* \"#utility.yul\":29087:29111   */\n      tag_812\n        /* \"#utility.yul\":29105:29110   */\n      dup2\n        /* \"#utility.yul\":29087:29111   */\n      tag_453\n      jump\t// in\n    tag_812:\n        /* \"#utility.yul\":29082:29085   */\n      dup3\n        /* \"#utility.yul\":29075:29112   */\n      mstore\n        /* \"#utility.yul\":29010:29118   */\n      pop\n      pop\n      jump\t// out\n        /* \"#utility.yul\":29124:29232   */\n    tag_530:\n        /* \"#utility.yul\":29201:29225   */\n      tag_814\n        /* \"#utility.yul\":29219:29224   */\n      dup2\n        /* \"#utility.yul\":29201:29225   */\n      tag_464\n      jump\t// in\n    tag_814:\n        /* \"#utility.yul\":29196:29199   */\n      dup3\n        /* \"#utility.yul\":29189:29226   */\n      mstore\n        /* \"#utility.yul\":29124:29232   */\n      pop\n      pop\n      jump\t// out\n        /* \"#utility.yul\":29314:30305   */\n    tag_531:\n        /* \"#utility.yul\":29451:29454   */\n      0x00\n        /* \"#utility.yul\":29487:29491   */\n      0x80\n        /* \"#utility.yul\":29482:29485   */\n      dup4\n        /* \"#utility.yul\":29478:29492   */\n      add\n        /* \"#utility.yul\":29574:29578   */\n      0x00\n        /* \"#utility.yul\":29567:29572   */\n      dup4\n        /* \"#utility.yul\":29563:29579   */\n      add\n        /* \"#utility.yul\":29557:29580   */\n      mload\n        /* \"#utility.yul\":29627:29630   */\n      dup5\n        /* \"#utility.yul\":29621:29625   */\n      dup3\n        /* \"#utility.yul\":29617:29631   */\n      sub\n        /* \"#utility.yul\":29610:29614   */\n      0x00\n        /* \"#utility.yul\":29605:29608   */\n      dup7\n        /* \"#utility.yul\":29601:29615   */\n      add\n        /* \"#utility.yul\":29594:29632   */\n      mstore\n        /* \"#utility.yul\":29653:29724   */\n      tag_816\n        /* \"#utility.yul\":29719:29723   */\n      dup3\n        /* \"#utility.yul\":29705:29717   */\n      dup3\n        /* \"#utility.yul\":29653:29724   */\n      tag_528\n      jump\t// in\n    tag_816:\n        /* \"#utility.yul\":29645:29724   */\n      swap2\n      pop\n        /* \"#utility.yul\":29502:29735   */\n      pop\n        /* \"#utility.yul\":29822:29826   */\n      0x20\n        /* \"#utility.yul\":29815:29820   */\n      dup4\n        /* \"#utility.yul\":29811:29827   */\n      add\n        /* \"#utility.yul\":29805:29828   */\n      mload\n        /* \"#utility.yul\":29841:29904   */\n      tag_817\n        /* \"#utility.yul\":29898:29902   */\n      0x20\n        /* \"#utility.yul\":29893:29896   */\n      dup7\n        /* \"#utility.yul\":29889:29903   */\n      add\n        /* \"#utility.yul\":29875:29887   */\n      dup3\n        /* \"#utility.yul\":29841:29904   */\n      tag_529\n      jump\t// in\n    tag_817:\n        /* \"#utility.yul\":29745:29914   */\n      pop\n        /* \"#utility.yul\":30000:30004   */\n      0x40\n        /* \"#utility.yul\":29993:29998   */\n      dup4\n        /* \"#utility.yul\":29989:30005   */\n      add\n        /* \"#utility.yul\":29983:30006   */\n      mload\n        /* \"#utility.yul\":30019:30082   */\n      tag_818\n        /* \"#utility.yul\":30076:30080   */\n      0x40\n        /* \"#utility.yul\":30071:30074   */\n      dup7\n        /* \"#utility.yul\":30067:30081   */\n      add\n        /* \"#utility.yul\":30053:30065   */\n      dup3\n        /* \"#utility.yul\":30019:30082   */\n      tag_530\n      jump\t// in\n    tag_818:\n        /* \"#utility.yul\":29924:30092   */\n      pop\n        /* \"#utility.yul\":30186:30190   */\n      0x60\n        /* \"#utility.yul\":30179:30184   */\n      dup4\n        /* \"#utility.yul\":30175:30191   */\n      add\n        /* \"#utility.yul\":30169:30192   */\n      mload\n        /* \"#utility.yul\":30205:30268   */\n      tag_819\n        /* \"#utility.yul\":30262:30266   */\n      0x60\n        /* \"#utility.yul\":30257:30260   */\n      dup7\n        /* \"#utility.yul\":30253:30267   */\n      add\n        /* \"#utility.yul\":30239:30251   */\n      dup3\n        /* \"#utility.yul\":30205:30268   */\n      tag_530\n      jump\t// in\n    tag_819:\n        /* \"#utility.yul\":30102:30278   */\n      pop\n        /* \"#utility.yul\":30295:30299   */\n      dup1\n        /* \"#utility.yul\":30288:30299   */\n      swap2\n      pop\n        /* \"#utility.yul\":29456:30305   */\n      pop\n        /* \"#utility.yul\":29314:30305   */\n      swap3\n      swap2\n      pop\n      pop\n      jump\t// out\n        /* \"#utility.yul\":30311:30720   */\n    tag_382:\n        /* \"#utility.yul\":30472:30476   */\n      0x00\n        /* \"#utility.yul\":30510:30512   */\n      0x20\n        /* \"#utility.yul\":30499:30508   */\n      dup3\n        /* \"#utility.yul\":30495:30513   */\n      add\n        /* \"#utility.yul\":30487:30513   */\n      swap1\n      pop\n        /* \"#utility.yul\":30559:30568   */\n      dup2\n        /* \"#utility.yul\":30553:30557   */\n      dup2\n        /* \"#utility.yul\":30549:30569   */\n      sub\n        /* \"#utility.yul\":30545:30546   */\n      0x00\n        /* \"#utility.yul\":30534:30543   */\n      dup4\n        /* \"#utility.yul\":30530:30547   */\n      add\n        /* \"#utility.yul\":30523:30570   */\n      mstore\n        /* \"#utility.yul\":30587:30713   */\n      tag_821\n        /* \"#utility.yul\":30708:30712   */\n      dup2\n        /* \"#utility.yul\":30699:30705   */\n      dup5\n        /* \"#utility.yul\":30587:30713   */\n      tag_531\n      jump\t// in\n    tag_821:\n        /* \"#utility.yul\":30579:30713   */\n      swap1\n      pop\n        /* \"#utility.yul\":30311:30720   */\n      swap3\n      swap2\n      pop\n      pop\n      jump\t// out\n        /* \"#utility.yul\":30726:30906   */\n    tag_392:\n        /* \"#utility.yul\":30774:30851   */\n      0x4e487b7100000000000000000000000000000000000000000000000000000000\n        /* \"#utility.yul\":30771:30772   */\n      0x00\n        /* \"#utility.yul\":30764:30852   */\n      mstore\n        /* \"#utility.yul\":30871:30875   */\n      0x41\n        /* \"#utility.yul\":30868:30869   */\n      0x04\n        /* \"#utility.yul\":30861:30876   */\n      mstore\n        /* \"#utility.yul\":30895:30899   */\n      0x24\n        /* \"#utility.yul\":30892:30893   */\n      0x00\n        /* \"#utility.yul\":30885:30900   */\n      revert\n        /* \"#utility.yul\":30912:31092   */\n    tag_396:\n        /* \"#utility.yul\":30960:31037   */\n      0x4e487b7100000000000000000000000000000000000000000000000000000000\n        /* \"#utility.yul\":30957:30958   */\n      0x00\n        /* \"#utility.yul\":30950:31038   */\n      mstore\n        /* \"#utility.yul\":31057:31061   */\n      0x32\n        /* \"#utility.yul\":31054:31055   */\n      0x04\n        /* \"#utility.yul\":31047:31062   */\n      mstore\n        /* \"#utility.yul\":31081:31085   */\n      0x24\n        /* \"#utility.yul\":31078:31079   */\n      0x00\n        /* \"#utility.yul\":31071:31086   */\n      revert\n        /* \"#utility.yul\":31098:31212   */\n    tag_532:\n        /* \"#utility.yul\":31165:31171   */\n      0x00\n        /* \"#utility.yul\":31199:31204   */\n      dup2\n        /* \"#utility.yul\":31193:31205   */\n      mload\n        /* \"#utility.yul\":31183:31205   */\n      swap1\n      pop\n        /* \"#utility.yul\":31098:31212   */\n      swap2\n      swap1\n      pop\n      jump\t// out\n        /* \"#utility.yul\":31218:31402   */\n    tag_533:\n        /* \"#utility.yul\":31317:31328   */\n      0x00\n        /* \"#utility.yul\":31351:31357   */\n      dup3\n        /* \"#utility.yul\":31346:31349   */\n      dup3\n        /* \"#utility.yul\":31339:31358   */\n      mstore\n        /* \"#utility.yul\":31391:31395   */\n      0x20\n        /* \"#utility.yul\":31386:31389   */\n      dup3\n        /* \"#utility.yul\":31382:31396   */\n      add\n        /* \"#utility.yul\":31367:31396   */\n      swap1\n      pop\n        /* \"#utility.yul\":31218:31402   */\n      swap3\n      swap2\n      pop\n      pop\n      jump\t// out\n        /* \"#utility.yul\":31408:31540   */\n    tag_534:\n        /* \"#utility.yul\":31475:31479   */\n      0x00\n        /* \"#utility.yul\":31498:31501   */\n      dup2\n        /* \"#utility.yul\":31490:31501   */\n      swap1\n      pop\n        /* \"#utility.yul\":31528:31532   */\n      0x20\n        /* \"#utility.yul\":31523:31526   */\n      dup3\n        /* \"#utility.yul\":31519:31533   */\n      add\n        /* \"#utility.yul\":31511:31533   */\n      swap1\n      pop\n        /* \"#utility.yul\":31408:31540   */\n      swap2\n      swap1\n      pop\n      jump\t// out\n        /* \"#utility.yul\":31546:31725   */\n    tag_535:\n        /* \"#utility.yul\":31615:31625   */\n      0x00\n        /* \"#utility.yul\":31636:31682   */\n      tag_828\n        /* \"#utility.yul\":31678:31681   */\n      dup4\n        /* \"#utility.yul\":31670:31676   */\n      dup4\n        /* \"#utility.yul\":31636:31682   */\n      tag_529\n      jump\t// in\n    tag_828:\n        /* \"#utility.yul\":31714:31718   */\n      0x20\n        /* \"#utility.yul\":31709:31712   */\n      dup4\n        /* \"#utility.yul\":31705:31719   */\n      add\n        /* \"#utility.yul\":31691:31719   */\n      swap1\n      pop\n        /* \"#utility.yul\":31546:31725   */\n      swap3\n      swap2\n      pop\n      pop\n      jump\t// out\n        /* \"#utility.yul\":31731:31844   */\n    tag_536:\n        /* \"#utility.yul\":31801:31805   */\n      0x00\n        /* \"#utility.yul\":31833:31837   */\n      0x20\n        /* \"#utility.yul\":31828:31831   */\n      dup3\n        /* \"#utility.yul\":31824:31838   */\n      add\n        /* \"#utility.yul\":31816:31838   */\n      swap1\n      pop\n        /* \"#utility.yul\":31731:31844   */\n      swap2\n      swap1\n      pop\n      jump\t// out\n        /* \"#utility.yul\":31880:32612   */\n    tag_537:\n        /* \"#utility.yul\":31999:32002   */\n      0x00\n        /* \"#utility.yul\":32028:32082   */\n      tag_831\n        /* \"#utility.yul\":32076:32081   */\n      dup3\n        /* \"#utility.yul\":32028:32082   */\n      tag_532\n      jump\t// in\n    tag_831:\n        /* \"#utility.yul\":32098:32184   */\n      tag_832\n        /* \"#utility.yul\":32177:32183   */\n      dup2\n        /* \"#utility.yul\":32172:32175   */\n      dup6\n        /* \"#utility.yul\":32098:32184   */\n      tag_533\n      jump\t// in\n    tag_832:\n        /* \"#utility.yul\":32091:32184   */\n      swap4\n      pop\n        /* \"#utility.yul\":32208:32264   */\n      tag_833\n        /* \"#utility.yul\":32258:32263   */\n      dup4\n        /* \"#utility.yul\":32208:32264   */\n      tag_534\n      jump\t// in\n    tag_833:\n        /* \"#utility.yul\":32287:32294   */\n      dup1\n        /* \"#utility.yul\":32318:32319   */\n      0x00\n        /* \"#utility.yul\":32303:32587   */\n    tag_834:\n        /* \"#utility.yul\":32328:32334   */\n      dup4\n        /* \"#utility.yul\":32325:32326   */\n      dup2\n        /* \"#utility.yul\":32322:32335   */\n      lt\n        /* \"#utility.yul\":32303:32587   */\n      iszero\n      tag_836\n      jumpi\n        /* \"#utility.yul\":32404:32410   */\n      dup2\n        /* \"#utility.yul\":32398:32411   */\n      mload\n        /* \"#utility.yul\":32431:32494   */\n      tag_837\n        /* \"#utility.yul\":32490:32493   */\n      dup9\n        /* \"#utility.yul\":32475:32488   */\n      dup3\n        /* \"#utility.yul\":32431:32494   */\n      tag_535\n      jump\t// in\n    tag_837:\n        /* \"#utility.yul\":32424:32494   */\n      swap8\n      pop\n        /* \"#utility.yul\":32517:32577   */\n      tag_838\n        /* \"#utility.yul\":32570:32576   */\n      dup4\n        /* \"#utility.yul\":32517:32577   */\n      tag_536\n      jump\t// in\n    tag_838:\n        /* \"#utility.yul\":32507:32577   */\n      swap3\n      pop\n        /* \"#utility.yul\":32363:32587   */\n      pop\n        /* \"#utility.yul\":32350:32351   */\n      0x01\n        /* \"#utility.yul\":32347:32348   */\n      dup2\n        /* \"#utility.yul\":32343:32352   */\n      add\n        /* \"#utility.yul\":32338:32352   */\n      swap1\n      pop\n        /* \"#utility.yul\":32303:32587   */\n      jump(tag_834)\n    tag_836:\n        /* \"#utility.yul\":32307:32321   */\n      pop\n        /* \"#utility.yul\":32603:32606   */\n      dup6\n        /* \"#utility.yul\":32596:32606   */\n      swap4\n      pop\n        /* \"#utility.yul\":32004:32612   */\n      pop\n      pop\n      pop\n        /* \"#utility.yul\":31880:32612   */\n      swap3\n      swap2\n      pop\n      pop\n      jump\t// out\n        /* \"#utility.yul\":32618:33101   */\n    tag_400:\n        /* \"#utility.yul\":32789:32793   */\n      0x00\n        /* \"#utility.yul\":32827:32829   */\n      0x40\n        /* \"#utility.yul\":32816:32825   */\n      dup3\n        /* \"#utility.yul\":32812:32830   */\n      add\n        /* \"#utility.yul\":32804:32830   */\n      swap1\n      pop\n        /* \"#utility.yul\":32840:32911   */\n      tag_840\n        /* \"#utility.yul\":32908:32909   */\n      0x00\n        /* \"#utility.yul\":32897:32906   */\n      dup4\n        /* \"#utility.yul\":32893:32910   */\n      add\n        /* \"#utility.yul\":32884:32890   */\n      dup6\n        /* \"#utility.yul\":32840:32911   */\n      tag_465\n      jump\t// in\n    tag_840:\n        /* \"#utility.yul\":32958:32967   */\n      dup2\n        /* \"#utility.yul\":32952:32956   */\n      dup2\n        /* \"#utility.yul\":32948:32968   */\n      sub\n        /* \"#utility.yul\":32943:32945   */\n      0x20\n        /* \"#utility.yul\":32932:32941   */\n      dup4\n        /* \"#utility.yul\":32928:32946   */\n      add\n        /* \"#utility.yul\":32921:32969   */\n      mstore\n        /* \"#utility.yul\":32986:33094   */\n      tag_841\n        /* \"#utility.yul\":33089:33093   */\n      dup2\n        /* \"#utility.yul\":33080:33086   */\n      dup5\n        /* \"#utility.yul\":32986:33094   */\n      tag_537\n      jump\t// in\n    tag_841:\n        /* \"#utility.yul\":32978:33094   */\n      swap1\n      pop\n        /* \"#utility.yul\":32618:33101   */\n      swap4\n      swap3\n      pop\n      pop\n      pop\n      jump\t// out\n        /* \"#utility.yul\":33107:33224   */\n    tag_538:\n        /* \"#utility.yul\":33216:33217   */\n      0x00\n        /* \"#utility.yul\":33213:33214   */\n      dup1\n        /* \"#utility.yul\":33206:33218   */\n      revert\n        /* \"#utility.yul\":33230:33511   */\n    tag_539:\n        /* \"#utility.yul\":33313:33340   */\n      tag_844\n        /* \"#utility.yul\":33335:33339   */\n      dup3\n        /* \"#utility.yul\":33313:33340   */\n      tag_527\n      jump\t// in\n    tag_844:\n        /* \"#utility.yul\":33305:33311   */\n      dup2\n        /* \"#utility.yul\":33301:33341   */\n      add\n        /* \"#utility.yul\":33443:33449   */\n      dup2\n        /* \"#utility.yul\":33431:33441   */\n      dup2\n        /* \"#utility.yul\":33428:33450   */\n      lt\n        /* \"#utility.yul\":33407:33425   */\n      0xffffffffffffffff\n        /* \"#utility.yul\":33395:33405   */\n      dup3\n        /* \"#utility.yul\":33392:33426   */\n      gt\n        /* \"#utility.yul\":33389:33451   */\n      or\n        /* \"#utility.yul\":33386:33474   */\n      iszero\n      tag_845\n      jumpi\n        /* \"#utility.yul\":33454:33472   */\n      tag_846\n      tag_392\n      jump\t// in\n    tag_846:\n        /* \"#utility.yul\":33386:33474   */\n    tag_845:\n        /* \"#utility.yul\":33494:33504   */\n      dup1\n        /* \"#utility.yul\":33490:33492   */\n      0x40\n        /* \"#utility.yul\":33483:33505   */\n      mstore\n        /* \"#utility.yul\":33273:33511   */\n      pop\n        /* \"#utility.yul\":33230:33511   */\n      pop\n      pop\n      jump\t// out\n        /* \"#utility.yul\":33517:33646   */\n    tag_540:\n        /* \"#utility.yul\":33551:33557   */\n      0x00\n        /* \"#utility.yul\":33578:33598   */\n      tag_848\n      tag_455\n      jump\t// in\n    tag_848:\n        /* \"#utility.yul\":33568:33598   */\n      swap1\n      pop\n        /* \"#utility.yul\":33607:33640   */\n      tag_849\n        /* \"#utility.yul\":33635:33639   */\n      dup3\n        /* \"#utility.yul\":33627:33633   */\n      dup3\n        /* \"#utility.yul\":33607:33640   */\n      tag_539\n      jump\t// in\n    tag_849:\n        /* \"#utility.yul\":33517:33646   */\n      swap2\n      swap1\n      pop\n      jump\t// out\n        /* \"#utility.yul\":33652:33963   */\n    tag_541:\n        /* \"#utility.yul\":33729:33733   */\n      0x00\n        /* \"#utility.yul\":33819:33837   */\n      0xffffffffffffffff\n        /* \"#utility.yul\":33811:33817   */\n      dup3\n        /* \"#utility.yul\":33808:33838   */\n      gt\n        /* \"#utility.yul\":33805:33861   */\n      iszero\n      tag_851\n      jumpi\n        /* \"#utility.yul\":33841:33859   */\n      tag_852\n      tag_392\n      jump\t// in\n    tag_852:\n        /* \"#utility.yul\":33805:33861   */\n    tag_851:\n        /* \"#utility.yul\":33891:33895   */\n      0x20\n        /* \"#utility.yul\":33883:33889   */\n      dup3\n        /* \"#utility.yul\":33879:33896   */\n      mul\n        /* \"#utility.yul\":33871:33896   */\n      swap1\n      pop\n        /* \"#utility.yul\":33951:33955   */\n      0x20\n        /* \"#utility.yul\":33945:33949   */\n      dup2\n        /* \"#utility.yul\":33941:33956   */\n      add\n        /* \"#utility.yul\":33933:33956   */\n      swap1\n      pop\n        /* \"#utility.yul\":33652:33963   */\n      swap2\n      swap1\n      pop\n      jump\t// out\n        /* \"#utility.yul\":33969:34086   */\n    tag_542:\n        /* \"#utility.yul\":34078:34079   */\n      0x00\n        /* \"#utility.yul\":34075:34076   */\n      dup1\n        /* \"#utility.yul\":34068:34080   */\n      revert\n        /* \"#utility.yul\":34109:34841   */\n    tag_543:\n        /* \"#utility.yul\":34216:34221   */\n      0x00\n        /* \"#utility.yul\":34241:34322   */\n      tag_855\n        /* \"#utility.yul\":34257:34321   */\n      tag_856\n        /* \"#utility.yul\":34314:34320   */\n      dup5\n        /* \"#utility.yul\":34257:34321   */\n      tag_541\n      jump\t// in\n    tag_856:\n        /* \"#utility.yul\":34241:34322   */\n      tag_540\n      jump\t// in\n    tag_855:\n        /* \"#utility.yul\":34232:34322   */\n      swap1\n      pop\n        /* \"#utility.yul\":34342:34347   */\n      dup1\n        /* \"#utility.yul\":34371:34377   */\n      dup4\n        /* \"#utility.yul\":34364:34369   */\n      dup3\n        /* \"#utility.yul\":34357:34378   */\n      mstore\n        /* \"#utility.yul\":34405:34409   */\n      0x20\n        /* \"#utility.yul\":34398:34403   */\n      dup3\n        /* \"#utility.yul\":34394:34410   */\n      add\n        /* \"#utility.yul\":34387:34410   */\n      swap1\n      pop\n        /* \"#utility.yul\":34458:34462   */\n      0x20\n        /* \"#utility.yul\":34450:34456   */\n      dup5\n        /* \"#utility.yul\":34446:34463   */\n      mul\n        /* \"#utility.yul\":34438:34444   */\n      dup4\n        /* \"#utility.yul\":34434:34464   */\n      add\n        /* \"#utility.yul\":34487:34490   */\n      dup6\n        /* \"#utility.yul\":34479:34485   */\n      dup2\n        /* \"#utility.yul\":34476:34491   */\n      gt\n        /* \"#utility.yul\":34473:34595   */\n      iszero\n      tag_857\n      jumpi\n        /* \"#utility.yul\":34506:34585   */\n      tag_858\n      tag_542\n      jump\t// in\n    tag_858:\n        /* \"#utility.yul\":34473:34595   */\n    tag_857:\n        /* \"#utility.yul\":34621:34627   */\n      dup4\n        /* \"#utility.yul\":34604:34835   */\n    tag_859:\n        /* \"#utility.yul\":34638:34644   */\n      dup2\n        /* \"#utility.yul\":34633:34636   */\n      dup2\n        /* \"#utility.yul\":34630:34645   */\n      lt\n        /* \"#utility.yul\":34604:34835   */\n      iszero\n      tag_861\n      jumpi\n        /* \"#utility.yul\":34713:34716   */\n      dup1\n        /* \"#utility.yul\":34742:34790   */\n      tag_862\n        /* \"#utility.yul\":34786:34789   */\n      dup9\n        /* \"#utility.yul\":34774:34784   */\n      dup3\n        /* \"#utility.yul\":34742:34790   */\n      tag_472\n      jump\t// in\n    tag_862:\n        /* \"#utility.yul\":34737:34740   */\n      dup5\n        /* \"#utility.yul\":34730:34791   */\n      mstore\n        /* \"#utility.yul\":34820:34824   */\n      0x20\n        /* \"#utility.yul\":34815:34818   */\n      dup5\n        /* \"#utility.yul\":34811:34825   */\n      add\n        /* \"#utility.yul\":34804:34825   */\n      swap4\n      pop\n        /* \"#utility.yul\":34680:34835   */\n      pop\n        /* \"#utility.yul\":34664:34668   */\n      0x20\n        /* \"#utility.yul\":34659:34662   */\n      dup2\n        /* \"#utility.yul\":34655:34669   */\n      add\n        /* \"#utility.yul\":34648:34669   */\n      swap1\n      pop\n        /* \"#utility.yul\":34604:34835   */\n      jump(tag_859)\n    tag_861:\n        /* \"#utility.yul\":34608:34629   */\n      pop\n        /* \"#utility.yul\":34222:34841   */\n      pop\n      pop\n        /* \"#utility.yul\":34109:34841   */\n      swap4\n      swap3\n      pop\n      pop\n      pop\n      jump\t// out\n        /* \"#utility.yul\":34864:35249   */\n    tag_544:\n        /* \"#utility.yul\":34946:34951   */\n      0x00\n        /* \"#utility.yul\":34995:34998   */\n      dup3\n        /* \"#utility.yul\":34988:34992   */\n      0x1f\n        /* \"#utility.yul\":34980:34986   */\n      dup4\n        /* \"#utility.yul\":34976:34993   */\n      add\n        /* \"#utility.yul\":34972:34999   */\n      slt\n        /* \"#utility.yul\":34962:35084   */\n      tag_864\n      jumpi\n        /* \"#utility.yul\":35003:35082   */\n      tag_865\n      tag_538\n      jump\t// in\n    tag_865:\n        /* \"#utility.yul\":34962:35084   */\n    tag_864:\n        /* \"#utility.yul\":35113:35119   */\n      dup2\n        /* \"#utility.yul\":35107:35120   */\n      mload\n        /* \"#utility.yul\":35138:35243   */\n      tag_866\n        /* \"#utility.yul\":35239:35242   */\n      dup5\n        /* \"#utility.yul\":35231:35237   */\n      dup3\n        /* \"#utility.yul\":35224:35228   */\n      0x20\n        /* \"#utility.yul\":35216:35222   */\n      dup7\n        /* \"#utility.yul\":35212:35229   */\n      add\n        /* \"#utility.yul\":35138:35243   */\n      tag_543\n      jump\t// in\n    tag_866:\n        /* \"#utility.yul\":35129:35243   */\n      swap2\n      pop\n        /* \"#utility.yul\":34952:35249   */\n      pop\n        /* \"#utility.yul\":34864:35249   */\n      swap3\n      swap2\n      pop\n      pop\n      jump\t// out\n        /* \"#utility.yul\":35255:35809   */\n    tag_404:\n        /* \"#utility.yul\":35350:35356   */\n      0x00\n        /* \"#utility.yul\":35399:35401   */\n      0x20\n        /* \"#utility.yul\":35387:35396   */\n      dup3\n        /* \"#utility.yul\":35378:35385   */\n      dup5\n        /* \"#utility.yul\":35374:35397   */\n      sub\n        /* \"#utility.yul\":35370:35402   */\n      slt\n        /* \"#utility.yul\":35367:35486   */\n      iszero\n      tag_868\n      jumpi\n        /* \"#utility.yul\":35405:35484   */\n      tag_869\n      tag_456\n      jump\t// in\n    tag_869:\n        /* \"#utility.yul\":35367:35486   */\n    tag_868:\n        /* \"#utility.yul\":35546:35547   */\n      0x00\n        /* \"#utility.yul\":35535:35544   */\n      dup3\n        /* \"#utility.yul\":35531:35548   */\n      add\n        /* \"#utility.yul\":35525:35549   */\n      mload\n        /* \"#utility.yul\":35576:35594   */\n      0xffffffffffffffff\n        /* \"#utility.yul\":35568:35574   */\n      dup2\n        /* \"#utility.yul\":35565:35595   */\n      gt\n        /* \"#utility.yul\":35562:35679   */\n      iszero\n      tag_870\n      jumpi\n        /* \"#utility.yul\":35598:35677   */\n      tag_871\n      tag_457\n      jump\t// in\n    tag_871:\n        /* \"#utility.yul\":35562:35679   */\n    tag_870:\n        /* \"#utility.yul\":35703:35792   */\n      tag_872\n        /* \"#utility.yul\":35784:35791   */\n      dup5\n        /* \"#utility.yul\":35775:35781   */\n      dup3\n        /* \"#utility.yul\":35764:35773   */\n      dup6\n        /* \"#utility.yul\":35760:35782   */\n      add\n        /* \"#utility.yul\":35703:35792   */\n      tag_544\n      jump\t// in\n    tag_872:\n        /* \"#utility.yul\":35693:35792   */\n      swap2\n      pop\n        /* \"#utility.yul\":35496:35802   */\n      pop\n        /* \"#utility.yul\":35255:35809   */\n      swap3\n      swap2\n      pop\n      pop\n      jump\t// out\n        /* \"#utility.yul\":35815:36630   */\n    tag_415:\n        /* \"#utility.yul\":36070:36074   */\n      0x00\n        /* \"#utility.yul\":36108:36111   */\n      0xa0\n        /* \"#utility.yul\":36097:36106   */\n      dup3\n        /* \"#utility.yul\":36093:36112   */\n      add\n        /* \"#utility.yul\":36085:36112   */\n      swap1\n      pop\n        /* \"#utility.yul\":36122:36193   */\n      tag_874\n        /* \"#utility.yul\":36190:36191   */\n      0x00\n        /* \"#utility.yul\":36179:36188   */\n      dup4\n        /* \"#utility.yul\":36175:36192   */\n      add\n        /* \"#utility.yul\":36166:36172   */\n      dup9\n        /* \"#utility.yul\":36122:36193   */\n      tag_465\n      jump\t// in\n    tag_874:\n        /* \"#utility.yul\":36203:36275   */\n      tag_875\n        /* \"#utility.yul\":36271:36273   */\n      0x20\n        /* \"#utility.yul\":36260:36269   */\n      dup4\n        /* \"#utility.yul\":36256:36274   */\n      add\n        /* \"#utility.yul\":36247:36253   */\n      dup8\n        /* \"#utility.yul\":36203:36275   */\n      tag_465\n      jump\t// in\n    tag_875:\n        /* \"#utility.yul\":36322:36331   */\n      dup2\n        /* \"#utility.yul\":36316:36320   */\n      dup2\n        /* \"#utility.yul\":36312:36332   */\n      sub\n        /* \"#utility.yul\":36307:36309   */\n      0x40\n        /* \"#utility.yul\":36296:36305   */\n      dup4\n        /* \"#utility.yul\":36292:36310   */\n      add\n        /* \"#utility.yul\":36285:36333   */\n      mstore\n        /* \"#utility.yul\":36350:36458   */\n      tag_876\n        /* \"#utility.yul\":36453:36457   */\n      dup2\n        /* \"#utility.yul\":36444:36450   */\n      dup7\n        /* \"#utility.yul\":36350:36458   */\n      tag_537\n      jump\t// in\n    tag_876:\n        /* \"#utility.yul\":36342:36458   */\n      swap1\n      pop\n        /* \"#utility.yul\":36468:36540   */\n      tag_877\n        /* \"#utility.yul\":36536:36538   */\n      0x60\n        /* \"#utility.yul\":36525:36534   */\n      dup4\n        /* \"#utility.yul\":36521:36539   */\n      add\n        /* \"#utility.yul\":36512:36518   */\n      dup6\n        /* \"#utility.yul\":36468:36540   */\n      tag_454\n      jump\t// in\n    tag_877:\n        /* \"#utility.yul\":36550:36623   */\n      tag_878\n        /* \"#utility.yul\":36618:36621   */\n      0x80\n        /* \"#utility.yul\":36607:36616   */\n      dup4\n        /* \"#utility.yul\":36603:36622   */\n      add\n        /* \"#utility.yul\":36594:36600   */\n      dup5\n        /* \"#utility.yul\":36550:36623   */\n      tag_465\n      jump\t// in\n    tag_878:\n        /* \"#utility.yul\":35815:36630   */\n      swap7\n      swap6\n      pop\n      pop\n      pop\n      pop\n      pop\n      pop\n      jump\t// out\n\n    auxdata: 0xa2646970667358221220f1e3892fa233447e6006b48bb3360fe6122208a1577521866ea1ffba751da39264736f6c63430008140033\n}\n",
				"bytecode": {
					"linkReferences": {},
					"object": "61018060405261dead73ffffffffffffffffffffffffffffffffffffffff166101009073ffffffffffffffffffffffffffffffffffffffff16815250600073ffffffffffffffffffffffffffffffffffffffff166101209073ffffffffffffffffffffffffffffffffffffffff16815250610bb862ffffff166101609062ffffff168152503480156200009157600080fd5b5060405162003afe38038062003afe8339818101604052810190620000b79190620004db565b826001620000da620000ce6200033360201b60201c565b6200035e60201b60201c565b60000181905550600073ffffffffffffffffffffffffffffffffffffffff168173ffffffffffffffffffffffffffffffffffffffff1603620001565760006040517f1e4fbdf70000000000000000000000000000000000000000000000000000000081526004016200014d9190620005b5565b60405180910390fd5b62000167816200036860201b60201c565b5087600160006101000a81548173ffffffffffffffffffffffffffffffffffffffff021916908373ffffffffffffffffffffffffffffffffffffffff16021790555086600260006101000a81548173ffffffffffffffffffffffffffffffffffffffff021916908373ffffffffffffffffffffffffffffffffffffffff1602179055508573ffffffffffffffffffffffffffffffffffffffff1660a08173ffffffffffffffffffffffffffffffffffffffff16815250508473ffffffffffffffffffffffffffffffffffffffff1660c08173ffffffffffffffffffffffffffffffffffffffff16815250508373ffffffffffffffffffffffffffffffffffffffff1660e08173ffffffffffffffffffffffffffffffffffffffff16815250508173ffffffffffffffffffffffffffffffffffffffff1660808173ffffffffffffffffffffffffffffffffffffffff16815250506001600760006101000a81548160ff0219169083151502179055506001600760016101000a81548160ff0219169083151502179055508073ffffffffffffffffffffffffffffffffffffffff166101408173ffffffffffffffffffffffffffffffffffffffff16815250505050505050505050620005d2565b60007f9b779b17422d0df92223018b32b4d1fa46e071723d6817e2486d003becc55f0060001b905090565b6000819050919050565b60008060009054906101000a900473ffffffffffffffffffffffffffffffffffffffff169050816000806101000a81548173ffffffffffffffffffffffffffffffffffffffff021916908373ffffffffffffffffffffffffffffffffffffffff1602179055508173ffffffffffffffffffffffffffffffffffffffff168173ffffffffffffffffffffffffffffffffffffffff167f8be0079c531659141344cd1fd0a4f28419497f9722a3daafe3b4186f6b6457e060405160405180910390a35050565b600080fd5b600073ffffffffffffffffffffffffffffffffffffffff82169050919050565b60006200045e8262000431565b9050919050565b620004708162000451565b81146200047c57600080fd5b50565b600081519050620004908162000465565b92915050565b6000620004a38262000431565b9050919050565b620004b58162000496565b8114620004c157600080fd5b50565b600081519050620004d581620004aa565b92915050565b600080600080600080600080610100898b031215620004ff57620004fe6200042c565b5b60006200050f8b828c016200047f565b9850506020620005228b828c016200047f565b9750506040620005358b828c016200047f565b9650506060620005488b828c016200047f565b95505060806200055b8b828c016200047f565b94505060a06200056e8b828c016200047f565b93505060c0620005818b828c01620004c4565b92505060e0620005948b828c016200047f565b9150509295985092959890939650565b620005af8162000451565b82525050565b6000602082019050620005cc6000830184620005a4565b92915050565b60805160a05160c05160e0516101005161012051610140516101605161344f620006af6000396000611a29015260008181611059015261179f01526000818161174e0152611ef1015260008181610b900152611a910152600081816101a701528181610206015281816106a90152818161072d01528181610c5a015281816111c2015281816114120152818161186b0152818161193801528181611a0801528181611c250152611de90152600081816109710152611c940152600081816109950152611a4a015260008181610c3601526114ab015261344f6000f3fe6080604052600436106101a05760003560e01c8063715018a6116100ec578063b37fd1901161008a578063dc05a30911610064578063dc05a3091461061c578063dc1a4d9e14610633578063f2fde38b1461064a578063fccc28131461067357610204565b8063b37fd190146105b1578063ba779ed5146105da578063c36554ce1461060557610204565b80638465093e116100c65780638465093e146105095780638da5cb5b14610532578063a0558c3f1461055d578063b2b22d5f1461058657610204565b8063715018a61461049c5780637499aff4146104b35780637581aa60146104de57610204565b80633f0c188f1161015957806357d1fdcd1161013357806357d1fdcd1461040657806362ab05e71461041d57806366650b7b146104485780636cdf0e401461047357610204565b80633f0c188f146103735780634e6fd6c4146103b05780635301fa6f146103db57610204565b80630c2b72e9146102635780630efd09731461028e578063138b7338146102b9578063210009cf146102f65780632b7459b91461031f5780633d65de441461034857610204565b36610204577f000000000000000000000000000000000000000000000000000000000000000073ffffffffffffffffffffffffffffffffffffffff163373ffffffffffffffffffffffffffffffffffffffff1614610202576102013461069e565b5b005b7f000000000000000000000000000000000000000000000000000000000000000073ffffffffffffffffffffffffffffffffffffffff163373ffffffffffffffffffffffffffffffffffffffff1614610261576102603461069e565b5b005b34801561026f57600080fd5b5061027861096f565b604051610285919061226c565b60405180910390f35b34801561029a57600080fd5b506102a3610993565b6040516102b0919061226c565b60405180910390f35b3480156102c557600080fd5b506102e060048036038101906102db91906122c7565b6109b7565b6040516102ed919061230f565b60405180910390f35b34801561030257600080fd5b5061031d600480360381019061031891906122c7565b610a0d565b005b34801561032b57600080fd5b5061034660048036038101906103419190612356565b610b33565b005b34801561035457600080fd5b5061035d610b68565b60405161036a919061239c565b60405180910390f35b34801561037f57600080fd5b5061039a600480360381019061039591906122c7565b610b6e565b6040516103a7919061230f565b60405180910390f35b3480156103bc57600080fd5b506103c5610b8e565b6040516103d2919061226c565b60405180910390f35b3480156103e757600080fd5b506103f0610bb2565b6040516103fd919061239c565b60405180910390f35b34801561041257600080fd5b5061041b610bb8565b005b34801561042957600080fd5b50610432610c34565b60405161043f91906123d8565b60405180910390f35b34801561045457600080fd5b5061045d610c58565b60405161046a919061226c565b60405180910390f35b34801561047f57600080fd5b5061049a60048036038101906104959190612356565b610c7c565b005b3480156104a857600080fd5b506104b1610cb1565b005b3480156104bf57600080fd5b506104c8610cc5565b6040516104d5919061239c565b60405180910390f35b3480156104ea57600080fd5b506104f3610ccb565b604051610500919061230f565b60405180910390f35b34801561051557600080fd5b50610530600480360381019061052b91906122c7565b610cde565b005b34801561053e57600080fd5b50610547610e74565b604051610554919061226c565b60405180910390f35b34801561056957600080fd5b50610584600480360381019061057f919061244b565b610e9d565b005b34801561059257600080fd5b5061059b611057565b6040516105a8919061226c565b60405180910390f35b3480156105bd57600080fd5b506105d860048036038101906105d3919061248b565b61107b565b005b3480156105e657600080fd5b506105ef6113d3565b6040516105fc919061230f565b60405180910390f35b34801561061157600080fd5b5061061a6113e6565b005b34801561062857600080fd5b5061063161158a565b005b34801561063f57600080fd5b5061064861165f565b005b34801561065657600080fd5b50610671600480360381019061066c91906122c7565b6116c6565b005b34801561067f57600080fd5b5061068861174c565b604051610695919061226c565b60405180910390f35b6000811115610729577f000000000000000000000000000000000000000000000000000000000000000073ffffffffffffffffffffffffffffffffffffffff1663d0e30db0826040518263ffffffff1660e01b81526004016000604051808303818588803b15801561070f57600080fd5b505af1158015610723573d6000803e3d6000fd5b50505050505b60007f000000000000000000000000000000000000000000000000000000000000000073ffffffffffffffffffffffffffffffffffffffff166370a08231306040518263ffffffff1660e01b8152600401610784919061226c565b602060405180830381865afa1580156107a1573d6000803e3d6000fd5b505050506040513d601f19601f820116820180604052508101906107c591906124f3565b905060006006546004546005546107dc919061254f565b6107e6919061254f565b90508082101561082b576040517f08c379a0000000000000000000000000000000000000000000000000000000008152600401610822906125e0565b60405180910390fd5b600081836108399190612600565b9050600081111561096957600060646028836108559190612634565b61085f91906126a5565b905060006064600a846108729190612634565b61087c91906126a5565b9050600081838561088d9190612600565b6108979190612600565b905082600560008282546108ab919061254f565b9250508190555081600460008282546108c4919061254f565b9250508190555080600660008282546108dd919061254f565b925050819055507f4816db49bfc91a0172699baedf430e5d308b8034f966fb25681b27c17bcd3a478484848460405161091994939291906126d6565b60405180910390a1610929611770565b600760009054906101000a900460ff16156109475761094661192b565b5b600760019054906101000a900460ff161561096557610964611bca565b5b5050505b50505050565b7f000000000000000000000000000000000000000000000000000000000000000081565b7f000000000000000000000000000000000000000000000000000000000000000081565b6000600360008373ffffffffffffffffffffffffffffffffffffffff1673ffffffffffffffffffffffffffffffffffffffff16815260200190815260200160002060009054906101000a900460ff169050919050565b610a15612006565b600360008273ffffffffffffffffffffffffffffffffffffffff1673ffffffffffffffffffffffffffffffffffffffff16815260200190815260200160002060009054906101000a900460ff16610aa1576040517f08c379a0000000000000000000000000000000000000000000000000000000008152600401610a9890612767565b60405180910390fd5b6000600360008373ffffffffffffffffffffffffffffffffffffffff1673ffffffffffffffffffffffffffffffffffffffff16815260200190815260200160002060006101000a81548160ff0219169083151502179055507fd9ea38e99b87231f31b9da68de3c78d56418e10e2e64d338c9f438ab75681ebc81604051610b28919061226c565b60405180910390a150565b610b3b612006565b610b4361208d565b80600760006101000a81548160ff021916908315150217905550610b656120b0565b50565b60045481565b60036020528060005260406000206000915054906101000a900460ff1681565b7f000000000000000000000000000000000000000000000000000000000000000081565b60065481565b610bc0612006565b610bc861208d565b60006004541180610bdb57506000600554115b610c1a576040517f08c379a0000000000000000000000000000000000000000000000000000000008152600401610c11906127d3565b60405180910390fd5b610c2261192b565b610c2a611bca565b610c326120b0565b565b7f000000000000000000000000000000000000000000000000000000000000000081565b7f000000000000000000000000000000000000000000000000000000000000000081565b610c84612006565b610c8c61208d565b80600760016101000a81548160ff021916908315150217905550610cae6120b0565b50565b610cb9612006565b610cc360006120cb565b565b60055481565b600760019054906101000a900460ff1681565b610ce6612006565b600073ffffffffffffffffffffffffffffffffffffffff168173ffffffffffffffffffffffffffffffffffffffff1603610d55576040517f08c379a0000000000000000000000000000000000000000000000000000000008152600401610d4c9061283f565b60405180910390fd5b600360008273ffffffffffffffffffffffffffffffffffffffff1673ffffffffffffffffffffffffffffffffffffffff16815260200190815260200160002060009054906101000a900460ff1615610de2576040517f08c379a0000000000000000000000000000000000000000000000000000000008152600401610dd9906128ab565b60405180910390fd5b6001600360008373ffffffffffffffffffffffffffffffffffffffff1673ffffffffffffffffffffffffffffffffffffffff16815260200190815260200160002060006101000a81548160ff0219169083151502179055507f797c25843e35d46f4254028734c97d60f3f93aaccc1dd994dd6b90683fdb248681604051610e69919061226c565b60405180910390a150565b60008060009054906101000a900473ffffffffffffffffffffffffffffffffffffffff16905090565b610ea5612006565b610ead61208d565b600073ffffffffffffffffffffffffffffffffffffffff168173ffffffffffffffffffffffffffffffffffffffff1603610f1c576040517f08c379a0000000000000000000000000000000000000000000000000000000008152600401610f1390612917565b60405180910390fd5b600047905080831115610f64576040517f08c379a0000000000000000000000000000000000000000000000000000000008152600401610f5b90612983565b60405180910390fd5b60008273ffffffffffffffffffffffffffffffffffffffff1684604051610f8a906129d4565b60006040518083038185875af1925050503d8060008114610fc7576040519150601f19603f3d011682016040523d82523d6000602084013e610fcc565b606091505b5050905080611010576040517f08c379a000000000000000000000000000000000000000000000000000000000815260040161100790612a35565b60405180910390fd5b7fcd7fef3a642dcf99ce1004b2a15d31e91398f01974500b64eab8fc50fef2d3b18484604051611041929190612ab4565b60405180910390a150506110536120b0565b5050565b7f000000000000000000000000000000000000000000000000000000000000000081565b611083612006565b61108b61208d565b600073ffffffffffffffffffffffffffffffffffffffff168173ffffffffffffffffffffffffffffffffffffffff16036110fa576040517f08c379a00000000000000000000000000000000000000000000000000000000081526004016110f190612917565b60405180910390fd5b600083905060008173ffffffffffffffffffffffffffffffffffffffff166370a08231306040518263ffffffff1660e01b815260040161113a919061226c565b602060405180830381865afa158015611157573d6000803e3d6000fd5b505050506040513d601f19601f8201168201806040525081019061117b91906124f3565b9050808411156111c0576040517f08c379a00000000000000000000000000000000000000000000000000000000081526004016111b790612b29565b60405180910390fd5b7f000000000000000000000000000000000000000000000000000000000000000073ffffffffffffffffffffffffffffffffffffffff168573ffffffffffffffffffffffffffffffffffffffff16036112c6576000600654600454600554611228919061254f565b611232919061254f565b9050808211611276576040517f08c379a000000000000000000000000000000000000000000000000000000000815260040161126d90612b95565b60405180910390fd5b80826112829190612600565b8511156112c4576040517f08c379a00000000000000000000000000000000000000000000000000000000081526004016112bb90612c01565b60405180910390fd5b505b60008273ffffffffffffffffffffffffffffffffffffffff1663a9059cbb85876040518363ffffffff1660e01b8152600401611303929190612c21565b6020604051808303816000875af1158015611322573d6000803e3d6000fd5b505050506040513d601f19601f820116820180604052508101906113469190612c5f565b905080611388576040517f08c379a000000000000000000000000000000000000000000000000000000000815260040161137f90612cd8565b60405180910390fd5b7ffb475a842bad10d3800b61bd1a92e716051afba979b124b583bd99a2d1d7bfd58686866040516113bb93929190612cf8565b60405180910390a15050506113ce6120b0565b505050565b600760009054906101000a900460ff1681565b6113ee612006565b6113f661208d565b611400600061069e565b60006005549050600081111561149c577f000000000000000000000000000000000000000000000000000000000000000073ffffffffffffffffffffffffffffffffffffffff16632e1a7d4d826040518263ffffffff1660e01b8152600401611469919061239c565b600060405180830381600087803b15801561148357600080fd5b505af1158015611497573d6000803e3d6000fd5b505050505b6000600554111561157f5760007f000000000000000000000000000000000000000000000000000000000000000073ffffffffffffffffffffffffffffffffffffffff166005546040516114ef906129d4565b60006040518083038185875af1925050503d806000811461152c576040519150601f19603f3d011682016040523d82523d6000602084013e611531565b606091505b5050905080611575576040517f08c379a000000000000000000000000000000000000000000000000000000000815260040161156c90612d7b565b60405180910390fd5b6000600581905550505b506115886120b0565b565b611592610e74565b73ffffffffffffffffffffffffffffffffffffffff163373ffffffffffffffffffffffffffffffffffffffff1614806116145750600360003373ffffffffffffffffffffffffffffffffffffffff1673ffffffffffffffffffffffffffffffffffffffff16815260200190815260200160002060009054906101000a900460ff165b611653576040517f08c379a000000000000000000000000000000000000000000000000000000000815260040161164a90612e0d565b60405180910390fd5b61165d600061069e565b565b611667612006565b61166f61208d565b6000600554116116b4576040517f08c379a00000000000000000000000000000000000000000000000000000000081526004016116ab90612e79565b60405180910390fd5b6116bc611bca565b6116c46120b0565b565b6116ce612006565b600073ffffffffffffffffffffffffffffffffffffffff168173ffffffffffffffffffffffffffffffffffffffff16036117405760006040517f1e4fbdf7000000000000000000000000000000000000000000000000000000008152600401611737919061226c565b60405180910390fd5b611749816120cb565b50565b7f000000000000000000000000000000000000000000000000000000000000000081565b60006006540315611929576000600960065461178c91906126a5565b90506000600190505b6009811161191e577f000000000000000000000000000000000000000000000000000000000000000073ffffffffffffffffffffffffffffffffffffffff16636352211e826040518263ffffffff1660e01b81526004016117f6919061239c565b602060405180830381865afa92505050801561183057506040513d601f19601f8201168201806040525081019061182d9190612eae565b60015b1561190b57600073ffffffffffffffffffffffffffffffffffffffff168173ffffffffffffffffffffffffffffffffffffffff1614611909577f000000000000000000000000000000000000000000000000000000000000000073ffffffffffffffffffffffffffffffffffffffff1663a9059cbb82856040518363ffffffff1660e01b81526004016118c4929190612c21565b6020604051808303816000875af11580156118e3573d6000803e3d6000fd5b505050506040513d601f19601f820116820180604052508101906119079190612c5f565b505b505b808061191690612edb565b915050611795565b506000600681905550505b565b60006004541115611bc8577f000000000000000000000000000000000000000000000000000000000000000073ffffffffffffffffffffffffffffffffffffffff1663095ea7b3600160009054906101000a900473ffffffffffffffffffffffffffffffffffffffff166004546040518363ffffffff1660e01b81526004016119b5929190612c21565b6020604051808303816000875af11580156119d4573d6000803e3d6000fd5b505050506040513d601f19601f820116820180604052508101906119f89190612c5f565b50600060405180608001604052807f00000000000000000000000000000000000000000000000000000000000000007f00000000000000000000000000000000000000000000000000000000000000007f0000000000000000000000000000000000000000000000000000000000000000604051602001611a7b93929190612fb0565b60405160208183030381529060405281526020017f000000000000000000000000000000000000000000000000000000000000000073ffffffffffffffffffffffffffffffffffffffff1681526020016004548152602001600081525090506000600160009054906101000a900473ffffffffffffffffffffffffffffffffffffffff1673ffffffffffffffffffffffffffffffffffffffff1663b858183f836040518263ffffffff1660e01b8152600401611b3791906130fe565b6020604051808303816000875af1158015611b56573d6000803e3d6000fd5b505050506040513d601f19601f82011682018060405250810190611b7a91906124f3565b905060006004819055506000811115611bc5577f9f7c0331cae72869b1e69d00e6dbfceb0e02266830e12339f841d334bc61412781604051611bbc919061239c565b60405180910390a15b50505b565b60006005541115612004576000600267ffffffffffffffff811115611bf257611bf1613120565b5b604051908082528060200260200182016040528015611c205781602001602082028036833780820191505090505b5090507f000000000000000000000000000000000000000000000000000000000000000081600081518110611c5857611c5761314f565b5b602002602001019073ffffffffffffffffffffffffffffffffffffffff16908173ffffffffffffffffffffffffffffffffffffffff16815250507f000000000000000000000000000000000000000000000000000000000000000081600181518110611cc757611cc661314f565b5b602002602001019073ffffffffffffffffffffffffffffffffffffffff16908173ffffffffffffffffffffffffffffffffffffffff16815250506000600260009054906101000a900473ffffffffffffffffffffffffffffffffffffffff1673ffffffffffffffffffffffffffffffffffffffff1663d06ca61f600554846040518363ffffffff1660e01b8152600401611d6292919061322d565b600060405180830381865afa158015611d7f573d6000803e3d6000fd5b505050506040513d6000823e3d601f19601f82011682018060405250810190611da89190613376565b9050600081600181518110611dc057611dbf61314f565b5b6020026020010151905060006064605083611ddb9190612634565b611de591906126a5565b90507f000000000000000000000000000000000000000000000000000000000000000073ffffffffffffffffffffffffffffffffffffffff1663095ea7b3600260009054906101000a900473ffffffffffffffffffffffffffffffffffffffff166005546040518363ffffffff1660e01b8152600401611e66929190612c21565b6020604051808303816000875af1158015611e85573d6000803e3d6000fd5b505050506040513d601f19601f82011682018060405250810190611ea99190612c5f565b506000600260009054906101000a900473ffffffffffffffffffffffffffffffffffffffff1673ffffffffffffffffffffffffffffffffffffffff166338ed173960055484887f000000000000000000000000000000000000000000000000000000000000000061012c42611f1e919061254f565b6040518663ffffffff1660e01b8152600401611f3e9594939291906133bf565b6000604051808303816000875af1158015611f5d573d6000803e3d6000fd5b505050506040513d6000823e3d601f19601f82011682018060405250810190611f869190613376565b905060008160018351611f999190612600565b81518110611faa57611fa961314f565b5b6020026020010151905060006005819055506000811115611ffd577fcb42363dcc1840222268fe43eebc976f3e311a14761e5396eb394ebdac90a58281604051611ff4919061239c565b60405180910390a15b5050505050505b565b61200e61218f565b73ffffffffffffffffffffffffffffffffffffffff1661202c610e74565b73ffffffffffffffffffffffffffffffffffffffff161461208b5761204f61218f565b6040517f118cdaa7000000000000000000000000000000000000000000000000000000008152600401612082919061226c565b60405180910390fd5b565b612095612197565b60026120a76120a26121d8565b612203565b60000181905550565b60016120c26120bd6121d8565b612203565b60000181905550565b60008060009054906101000a900473ffffffffffffffffffffffffffffffffffffffff169050816000806101000a81548173ffffffffffffffffffffffffffffffffffffffff021916908373ffffffffffffffffffffffffffffffffffffffff1602179055508173ffffffffffffffffffffffffffffffffffffffff168173ffffffffffffffffffffffffffffffffffffffff167f8be0079c531659141344cd1fd0a4f28419497f9722a3daafe3b4186f6b6457e060405160405180910390a35050565b600033905090565b61219f61220d565b156121d6576040517f3ee5aeb500000000000000000000000000000000000000000000000000000000815260040160405180910390fd5b565b60007f9b779b17422d0df92223018b32b4d1fa46e071723d6817e2486d003becc55f0060001b905090565b6000819050919050565b6000600261222161221c6121d8565b612203565b6000015414905090565b600073ffffffffffffffffffffffffffffffffffffffff82169050919050565b60006122568261222b565b9050919050565b6122668161224b565b82525050565b6000602082019050612281600083018461225d565b92915050565b6000604051905090565b600080fd5b600080fd5b6122a48161224b565b81146122af57600080fd5b50565b6000813590506122c18161229b565b92915050565b6000602082840312156122dd576122dc612291565b5b60006122eb848285016122b2565b91505092915050565b60008115159050919050565b612309816122f4565b82525050565b60006020820190506123246000830184612300565b92915050565b612333816122f4565b811461233e57600080fd5b50565b6000813590506123508161232a565b92915050565b60006020828403121561236c5761236b612291565b5b600061237a84828501612341565b91505092915050565b6000819050919050565b61239681612383565b82525050565b60006020820190506123b1600083018461238d565b92915050565b60006123c28261222b565b9050919050565b6123d2816123b7565b82525050565b60006020820190506123ed60008301846123c9565b92915050565b6123fc81612383565b811461240757600080fd5b50565b600081359050612419816123f3565b92915050565b612428816123b7565b811461243357600080fd5b50565b6000813590506124458161241f565b92915050565b6000806040838503121561246257612461612291565b5b60006124708582860161240a565b925050602061248185828601612436565b9150509250929050565b6000806000606084860312156124a4576124a3612291565b5b60006124b2868287016122b2565b93505060206124c38682870161240a565b92505060406124d4868287016122b2565b9150509250925092565b6000815190506124ed816123f3565b92915050565b60006020828403121561250957612508612291565b5b6000612517848285016124de565b91505092915050565b7f4e487b7100000000000000000000000000000000000000000000000000000000600052601160045260246000fd5b600061255a82612383565b915061256583612383565b925082820190508082111561257d5761257c612520565b5b92915050565b600082825260208201905092915050565b7f42616c616e6365206572726f7200000000000000000000000000000000000000600082015250565b60006125ca600d83612583565b91506125d582612594565b602082019050919050565b600060208201905081810360008301526125f9816125bd565b9050919050565b600061260b82612383565b915061261683612383565b925082820390508181111561262e5761262d612520565b5b92915050565b600061263f82612383565b915061264a83612383565b925082820261265881612383565b9150828204841483151761266f5761266e612520565b5b5092915050565b7f4e487b7100000000000000000000000000000000000000000000000000000000600052601260045260246000fd5b60006126b082612383565b91506126bb83612383565b9250826126cb576126ca612676565b5b828204905092915050565b60006080820190506126eb600083018761238d565b6126f8602083018661238d565b612705604083018561238d565b612712606083018461238d565b95945050505050565b7f4e6f742077686974656c69737465640000000000000000000000000000000000600082015250565b6000612751600f83612583565b915061275c8261271b565b602082019050919050565b6000602082019050818103600083015261278081612744565b9050919050565b7f4e6f2062616c616e63657320746f206275726e00000000000000000000000000600082015250565b60006127bd601383612583565b91506127c882612787565b602082019050919050565b600060208201905081810360008301526127ec816127b0565b9050919050565b7f496e76616c6964204e465420636f6e7472616374206164647265737300000000600082015250565b6000612829601c83612583565b9150612834826127f3565b602082019050919050565b600060208201905081810360008301526128588161281c565b9050919050565b7f416c72656164792077686974656c697374656400000000000000000000000000600082015250565b6000612895601383612583565b91506128a08261285f565b602082019050919050565b600060208201905081810360008301526128c481612888565b9050919050565b7f496e76616c696420726563697069656e74000000000000000000000000000000600082015250565b6000612901601183612583565b915061290c826128cb565b602082019050919050565b60006020820190508181036000830152612930816128f4565b9050919050565b7f4e6f7420656e6f75676820455448000000000000000000000000000000000000600082015250565b600061296d600e83612583565b915061297882612937565b602082019050919050565b6000602082019050818103600083015261299c81612960565b9050919050565b600081905092915050565b50565b60006129be6000836129a3565b91506129c9826129ae565b600082019050919050565b60006129df826129b1565b9150819050919050565b7f455448207472616e73666572206661696c656400000000000000000000000000600082015250565b6000612a1f601383612583565b9150612a2a826129e9565b602082019050919050565b60006020820190508181036000830152612a4e81612a12565b9050919050565b6000819050919050565b6000612a7a612a75612a708461222b565b612a55565b61222b565b9050919050565b6000612a8c82612a5f565b9050919050565b6000612a9e82612a81565b9050919050565b612aae81612a93565b82525050565b6000604082019050612ac9600083018561238d565b612ad66020830184612aa5565b9392505050565b7f4e6f7420656e6f75676820746f6b656e2062616c616e63650000000000000000600082015250565b6000612b13601883612583565b9150612b1e82612add565b602082019050919050565b60006020820190508181036000830152612b4281612b06565b9050919050565b7f4e6f20657863657373205745544e20746f207265736375650000000000000000600082015250565b6000612b7f601883612583565b9150612b8a82612b49565b602082019050919050565b60006020820190508181036000830152612bae81612b72565b9050919050565b7f416d6f756e74206578636565647320657863657373205745544e000000000000600082015250565b6000612beb601a83612583565b9150612bf682612bb5565b602082019050919050565b60006020820190508181036000830152612c1a81612bde565b9050919050565b6000604082019050612c36600083018561225d565b612c43602083018461238d565b9392505050565b600081519050612c598161232a565b92915050565b600060208284031215612c7557612c74612291565b5b6000612c8384828501612c4a565b91505092915050565b7f546f6b656e207472616e73666572206661696c65640000000000000000000000600082015250565b6000612cc2601583612583565b9150612ccd82612c8c565b602082019050919050565b60006020820190508181036000830152612cf181612cb5565b9050919050565b6000606082019050612d0d600083018661225d565b612d1a602083018561238d565b612d27604083018461225d565b949350505050565b7f436f72652077616c6c6574207472616e73666572206661696c65640000000000600082015250565b6000612d65601b83612583565b9150612d7082612d2f565b602082019050919050565b60006020820190508181036000830152612d9481612d58565b9050919050565b7f556e617574686f72697a65643a204f6e6c79206f776e6572206f72207768697460008201527f656c6973746564204e4654000000000000000000000000000000000000000000602082015250565b6000612df7602b83612583565b9150612e0282612d9b565b604082019050919050565b60006020820190508181036000830152612e2681612dea565b9050919050565b7f4e6f20636f72652062616c616e636520746f206275726e000000000000000000600082015250565b6000612e63601783612583565b9150612e6e82612e2d565b602082019050919050565b60006020820190508181036000830152612e9281612e56565b9050919050565b600081519050612ea88161229b565b92915050565b600060208284031215612ec457612ec3612291565b5b6000612ed284828501612e99565b91505092915050565b6000612ee682612383565b91507fffffffffffffffffffffffffffffffffffffffffffffffffffffffffffffffff8203612f1857612f17612520565b5b600182019050919050565b60008160601b9050919050565b6000612f3b82612f23565b9050919050565b6000612f4d82612f30565b9050919050565b612f65612f608261224b565b612f42565b82525050565b600062ffffff82169050919050565b60008160e81b9050919050565b6000612f9282612f7a565b9050919050565b612faa612fa582612f6b565b612f87565b82525050565b6000612fbc8286612f54565b601482019150612fcc8285612f99565b600382019150612fdc8284612f54565b601482019150819050949350505050565b600081519050919050565b600082825260208201905092915050565b60005b8381101561302757808201518184015260208101905061300c565b60008484015250505050565b6000601f19601f8301169050919050565b600061304f82612fed565b6130598185612ff8565b9350613069818560208601613009565b61307281613033565b840191505092915050565b6130868161224b565b82525050565b61309581612383565b82525050565b600060808301600083015184820360008601526130b88282613044565b91505060208301516130cd602086018261307d565b5060408301516130e0604086018261308c565b5060608301516130f3606086018261308c565b508091505092915050565b60006020820190508181036000830152613118818461309b565b905092915050565b7f4e487b7100000000000000000000000000000000000000000000000000000000600052604160045260246000fd5b7f4e487b7100000000000000000000000000000000000000000000000000000000600052603260045260246000fd5b600081519050919050565b600082825260208201905092915050565b6000819050602082019050919050565b60006131b6838361307d565b60208301905092915050565b6000602082019050919050565b60006131da8261317e565b6131e48185613189565b93506131ef8361319a565b8060005b8381101561322057815161320788826131aa565b9750613212836131c2565b9250506001810190506131f3565b5085935050505092915050565b6000604082019050613242600083018561238d565b818103602083015261325481846131cf565b90509392505050565b600080fd5b61326b82613033565b810181811067ffffffffffffffff8211171561328a57613289613120565b5b80604052505050565b600061329d612287565b90506132a98282613262565b919050565b600067ffffffffffffffff8211156132c9576132c8613120565b5b602082029050602081019050919050565b600080fd5b60006132f26132ed846132ae565b613293565b90508083825260208201905060208402830185811115613315576133146132da565b5b835b8181101561333e578061332a88826124de565b845260208401935050602081019050613317565b5050509392505050565b600082601f83011261335d5761335c61325d565b5b815161336d8482602086016132df565b91505092915050565b60006020828403121561338c5761338b612291565b5b600082015167ffffffffffffffff8111156133aa576133a9612296565b5b6133b684828501613348565b91505092915050565b600060a0820190506133d4600083018861238d565b6133e1602083018761238d565b81810360408301526133f381866131cf565b9050613402606083018561225d565b61340f608083018461238d565b969550505050505056fea2646970667358221220f1e3892fa233447e6006b48bb3360fe6122208a1577521866ea1ffba751da39264736f6c63430008140033",
					"opcodes": "PUSH2 0x180 PUSH1 0x40 MSTORE PUSH2 0xDEAD PUSH20 0xFFFFFFFFFFFFFFFFFFFFFFFFFFFFFFFFFFFFFFFF AND PUSH2 0x100 SWAP1 PUSH20 0xFFFFFFFFFFFFFFFFFFFFFFFFFFFFFFFFFFFFFFFF AND DUP2 MSTORE POP PUSH1 0x0 PUSH20 0xFFFFFFFFFFFFFFFFFFFFFFFFFFFFFFFFFFFFFFFF AND PUSH2 0x120 SWAP1 PUSH20 0xFFFFFFFFFFFFFFFFFFFFFFFFFFFFFFFFFFFFFFFF AND DUP2 MSTORE POP PUSH2 0xBB8 PUSH3 0xFFFFFF AND PUSH2 0x160 SWAP1 PUSH3 0xFFFFFF AND DUP2 MSTORE POP CALLVALUE DUP1 ISZERO PUSH3 0x91 JUMPI PUSH1 0x0 DUP1 REVERT JUMPDEST POP PUSH1 0x40 MLOAD PUSH3 0x3AFE CODESIZE SUB DUP1 PUSH3 0x3AFE DUP4 CODECOPY DUP2 DUP2 ADD PUSH1 0x40 MSTORE DUP2 ADD SWAP1 PUSH3 0xB7 SWAP2 SWAP1 PUSH3 0x4DB JUMP JUMPDEST DUP3 PUSH1 0x1 PUSH3 0xDA PUSH3 0xCE PUSH3 0x333 PUSH1 0x20 SHL PUSH1 0x20 SHR JUMP JUMPDEST PUSH3 0x35E PUSH1 0x20 SHL PUSH1 0x20 SHR JUMP JUMPDEST PUSH1 0x0 ADD DUP2 SWAP1 SSTORE POP PUSH1 0x0 PUSH20 0xFFFFFFFFFFFFFFFFFFFFFFFFFFFFFFFFFFFFFFFF AND DUP2 PUSH20 0xFFFFFFFFFFFFFFFFFFFFFFFFFFFFFFFFFFFFFFFF AND SUB PUSH3 0x156 JUMPI PUSH1 0x0 PUSH1 0x40 MLOAD PUSH32 0x1E4FBDF700000000000000000000000000000000000000000000000000000000 DUP2 MSTORE PUSH1 0x4 ADD PUSH3 0x14D SWAP2 SWAP1 PUSH3 0x5B5 JUMP JUMPDEST PUSH1 0x40 MLOAD DUP1 SWAP2 SUB SWAP1 REVERT JUMPDEST PUSH3 0x167 DUP2 PUSH3 0x368 PUSH1 0x20 SHL PUSH1 0x20 SHR JUMP JUMPDEST POP DUP8 PUSH1 0x1 PUSH1 0x0 PUSH2 0x100 EXP DUP2 SLOAD DUP2 PUSH20 0xFFFFFFFFFFFFFFFFFFFFFFFFFFFFFFFFFFFFFFFF MUL NOT AND SWAP1 DUP4 PUSH20 0xFFFFFFFFFFFFFFFFFFFFFFFFFFFFFFFFFFFFFFFF AND MUL OR SWAP1 SSTORE POP DUP7 PUSH1 0x2 PUSH1 0x0 PUSH2 0x100 EXP DUP2 SLOAD DUP2 PUSH20 0xFFFFFFFFFFFFFFFFFFFFFFFFFFFFFFFFFFFFFFFF MUL NOT AND SWAP1 DUP4 PUSH20 0xFFFFFFFFFFFFFFFFFFFFFFFFFFFFFFFFFFFFFFFF AND MUL OR SWAP1 SSTORE POP DUP6 PUSH20 0xFFFFFFFFFFFFFFFFFFFFFFFFFFFFFFFFFFFFFFFF AND PUSH1 0xA0 DUP2 PUSH20 0xFFFFFFFFFFFFFFFFFFFFFFFFFFFFFFFFFFFFFFFF AND DUP2 MSTORE POP POP DUP5 PUSH20 0xFFFFFFFFFFFFFFFFFFFFFFFFFFFFFFFFFFFFFFFF AND PUSH1 0xC0 DUP2 PUSH20 0xFFFFFFFFFFFFFFFFFFFFFFFFFFFFFFFFFFFFFFFF AND DUP2 MSTORE POP POP DUP4 PUSH20 0xFFFFFFFFFFFFFFFFFFFFFFFFFFFFFFFFFFFFFFFF AND PUSH1 0xE0 DUP2 PUSH20 0xFFFFFFFFFFFFFFFFFFFFFFFFFFFFFFFFFFFFFFFF AND DUP2 MSTORE POP POP DUP2 PUSH20 0xFFFFFFFFFFFFFFFFFFFFFFFFFFFFFFFFFFFFFFFF AND PUSH1 0x80 DUP2 PUSH20 0xFFFFFFFFFFFFFFFFFFFFFFFFFFFFFFFFFFFFFFFF AND DUP2 MSTORE POP POP PUSH1 0x1 PUSH1 0x7 PUSH1 0x0 PUSH2 0x100 EXP DUP2 SLOAD DUP2 PUSH1 0xFF MUL NOT AND SWAP1 DUP4 ISZERO ISZERO MUL OR SWAP1 SSTORE POP PUSH1 0x1 PUSH1 0x7 PUSH1 0x1 PUSH2 0x100 EXP DUP2 SLOAD DUP2 PUSH1 0xFF MUL NOT AND SWAP1 DUP4 ISZERO ISZERO MUL OR SWAP1 SSTORE POP DUP1 PUSH20 0xFFFFFFFFFFFFFFFFFFFFFFFFFFFFFFFFFFFFFFFF AND PUSH2 0x140 DUP2 PUSH20 0xFFFFFFFFFFFFFFFFFFFFFFFFFFFFFFFFFFFFFFFF AND DUP2 MSTORE POP POP POP POP POP POP POP POP POP POP PUSH3 0x5D2 JUMP JUMPDEST PUSH1 0x0 PUSH32 0x9B779B17422D0DF92223018B32B4D1FA46E071723D6817E2486D003BECC55F00 PUSH1 0x0 SHL SWAP1 POP SWAP1 JUMP JUMPDEST PUSH1 0x0 DUP2 SWAP1 POP SWAP2 SWAP1 POP JUMP JUMPDEST PUSH1 0x0 DUP1 PUSH1 0x0 SWAP1 SLOAD SWAP1 PUSH2 0x100 EXP SWAP1 DIV PUSH20 0xFFFFFFFFFFFFFFFFFFFFFFFFFFFFFFFFFFFFFFFF AND SWAP1 POP DUP2 PUSH1 0x0 DUP1 PUSH2 0x100 EXP DUP2 SLOAD DUP2 PUSH20 0xFFFFFFFFFFFFFFFFFFFFFFFFFFFFFFFFFFFFFFFF MUL NOT AND SWAP1 DUP4 PUSH20 0xFFFFFFFFFFFFFFFFFFFFFFFFFFFFFFFFFFFFFFFF AND MUL OR SWAP1 SSTORE POP DUP2 PUSH20 0xFFFFFFFFFFFFFFFFFFFFFFFFFFFFFFFFFFFFFFFF AND DUP2 PUSH20 0xFFFFFFFFFFFFFFFFFFFFFFFFFFFFFFFFFFFFFFFF AND PUSH32 0x8BE0079C531659141344CD1FD0A4F28419497F9722A3DAAFE3B4186F6B6457E0 PUSH1 0x40 MLOAD PUSH1 0x40 MLOAD DUP1 SWAP2 SUB SWAP1 LOG3 POP POP JUMP JUMPDEST PUSH1 0x0 DUP1 REVERT JUMPDEST PUSH1 0x0 PUSH20 0xFFFFFFFFFFFFFFFFFFFFFFFFFFFFFFFFFFFFFFFF DUP3 AND SWAP1 POP SWAP2 SWAP1 POP JUMP JUMPDEST PUSH1 0x0 PUSH3 0x45E DUP3 PUSH3 0x431 JUMP JUMPDEST SWAP1 POP SWAP2 SWAP1 POP JUMP JUMPDEST PUSH3 0x470 DUP2 PUSH3 0x451 JUMP JUMPDEST DUP2 EQ PUSH3 0x47C JUMPI PUSH1 0x0 DUP1 REVERT JUMPDEST POP JUMP JUMPDEST PUSH1 0x0 DUP2 MLOAD SWAP1 POP PUSH3 0x490 DUP2 PUSH3 0x465 JUMP JUMPDEST SWAP3 SWAP2 POP POP JUMP JUMPDEST PUSH1 0x0 PUSH3 0x4A3 DUP3 PUSH3 0x431 JUMP JUMPDEST SWAP1 POP SWAP2 SWAP1 POP JUMP JUMPDEST PUSH3 0x4B5 DUP2 PUSH3 0x496 JUMP JUMPDEST DUP2 EQ PUSH3 0x4C1 JUMPI PUSH1 0x0 DUP1 REVERT JUMPDEST POP JUMP JUMPDEST PUSH1 0x0 DUP2 MLOAD SWAP1 POP PUSH3 0x4D5 DUP2 PUSH3 0x4AA JUMP JUMPDEST SWAP3 SWAP2 POP POP JUMP JUMPDEST PUSH1 0x0 DUP1 PUSH1 0x0 DUP1 PUSH1 0x0 DUP1 PUSH1 0x0 DUP1 PUSH2 0x100 DUP10 DUP12 SUB SLT ISZERO PUSH3 0x4FF JUMPI PUSH3 0x4FE PUSH3 0x42C JUMP JUMPDEST JUMPDEST PUSH1 0x0 PUSH3 0x50F DUP12 DUP3 DUP13 ADD PUSH3 0x47F JUMP JUMPDEST SWAP9 POP POP PUSH1 0x20 PUSH3 0x522 DUP12 DUP3 DUP13 ADD PUSH3 0x47F JUMP JUMPDEST SWAP8 POP POP PUSH1 0x40 PUSH3 0x535 DUP12 DUP3 DUP13 ADD PUSH3 0x47F JUMP JUMPDEST SWAP7 POP POP PUSH1 0x60 PUSH3 0x548 DUP12 DUP3 DUP13 ADD PUSH3 0x47F JUMP JUMPDEST SWAP6 POP POP PUSH1 0x80 PUSH3 0x55B DUP12 DUP3 DUP13 ADD PUSH3 0x47F JUMP JUMPDEST SWAP5 POP POP PUSH1 0xA0 PUSH3 0x56E DUP12 DUP3 DUP13 ADD PUSH3 0x47F JUMP JUMPDEST SWAP4 POP POP PUSH1 0xC0 PUSH3 0x581 DUP12 DUP3 DUP13 ADD PUSH3 0x4C4 JUMP JUMPDEST SWAP3 POP POP PUSH1 0xE0 PUSH3 0x594 DUP12 DUP3 DUP13 ADD PUSH3 0x47F JUMP JUMPDEST SWAP2 POP POP SWAP3 SWAP6 SWAP9 POP SWAP3 SWAP6 SWAP9 SWAP1 SWAP4 SWAP7 POP JUMP JUMPDEST PUSH3 0x5AF DUP2 PUSH3 0x451 JUMP JUMPDEST DUP3 MSTORE POP POP JUMP JUMPDEST PUSH1 0x0 PUSH1 0x20 DUP3 ADD SWAP1 POP PUSH3 0x5CC PUSH1 0x0 DUP4 ADD DUP5 PUSH3 0x5A4 JUMP JUMPDEST SWAP3 SWAP2 POP POP JUMP JUMPDEST PUSH1 0x80 MLOAD PUSH1 0xA0 MLOAD PUSH1 0xC0 MLOAD PUSH1 0xE0 MLOAD PUSH2 0x100 MLOAD PUSH2 0x120 MLOAD PUSH2 0x140 MLOAD PUSH2 0x160 MLOAD PUSH2 0x344F PUSH3 0x6AF PUSH1 0x0 CODECOPY PUSH1 0x0 PUSH2 0x1A29 ADD MSTORE PUSH1 0x0 DUP2 DUP2 PUSH2 0x1059 ADD MSTORE PUSH2 0x179F ADD MSTORE PUSH1 0x0 DUP2 DUP2 PUSH2 0x174E ADD MSTORE PUSH2 0x1EF1 ADD MSTORE PUSH1 0x0 DUP2 DUP2 PUSH2 0xB90 ADD MSTORE PUSH2 0x1A91 ADD MSTORE PUSH1 0x0 DUP2 DUP2 PUSH2 0x1A7 ADD MSTORE DUP2 DUP2 PUSH2 0x206 ADD MSTORE DUP2 DUP2 PUSH2 0x6A9 ADD MSTORE DUP2 DUP2 PUSH2 0x72D ADD MSTORE DUP2 DUP2 PUSH2 0xC5A ADD MSTORE DUP2 DUP2 PUSH2 0x11C2 ADD MSTORE DUP2 DUP2 PUSH2 0x1412 ADD MSTORE DUP2 DUP2 PUSH2 0x186B ADD MSTORE DUP2 DUP2 PUSH2 0x1938 ADD MSTORE DUP2 DUP2 PUSH2 0x1A08 ADD MSTORE DUP2 DUP2 PUSH2 0x1C25 ADD MSTORE PUSH2 0x1DE9 ADD MSTORE PUSH1 0x0 DUP2 DUP2 PUSH2 0x971 ADD MSTORE PUSH2 0x1C94 ADD MSTORE PUSH1 0x0 DUP2 DUP2 PUSH2 0x995 ADD MSTORE PUSH2 0x1A4A ADD MSTORE PUSH1 0x0 DUP2 DUP2 PUSH2 0xC36 ADD MSTORE PUSH2 0x14AB ADD MSTORE PUSH2 0x344F PUSH1 0x0 RETURN INVALID PUSH1 0x80 PUSH1 0x40 MSTORE PUSH1 0x4 CALLDATASIZE LT PUSH2 0x1A0 JUMPI PUSH1 0x0 CALLDATALOAD PUSH1 0xE0 SHR DUP1 PUSH4 0x715018A6 GT PUSH2 0xEC JUMPI DUP1 PUSH4 0xB37FD190 GT PUSH2 0x8A JUMPI DUP1 PUSH4 0xDC05A309 GT PUSH2 0x64 JUMPI DUP1 PUSH4 0xDC05A309 EQ PUSH2 0x61C JUMPI DUP1 PUSH4 0xDC1A4D9E EQ PUSH2 0x633 JUMPI DUP1 PUSH4 0xF2FDE38B EQ PUSH2 0x64A JUMPI DUP1 PUSH4 0xFCCC2813 EQ PUSH2 0x673 JUMPI PUSH2 0x204 JUMP JUMPDEST DUP1 PUSH4 0xB37FD190 EQ PUSH2 0x5B1 JUMPI DUP1 PUSH4 0xBA779ED5 EQ PUSH2 0x5DA JUMPI DUP1 PUSH4 0xC36554CE EQ PUSH2 0x605 JUMPI PUSH2 0x204 JUMP JUMPDEST DUP1 PUSH4 0x8465093E GT PUSH2 0xC6 JUMPI DUP1 PUSH4 0x8465093E EQ PUSH2 0x509 JUMPI DUP1 PUSH4 0x8DA5CB5B EQ PUSH2 0x532 JUMPI DUP1 PUSH4 0xA0558C3F EQ PUSH2 0x55D JUMPI DUP1 PUSH4 0xB2B22D5F EQ PUSH2 0x586 JUMPI PUSH2 0x204 JUMP JUMPDEST DUP1 PUSH4 0x715018A6 EQ PUSH2 0x49C JUMPI DUP1 PUSH4 0x7499AFF4 EQ PUSH2 0x4B3 JUMPI DUP1 PUSH4 0x7581AA60 EQ PUSH2 0x4DE JUMPI PUSH2 0x204 JUMP JUMPDEST DUP1 PUSH4 0x3F0C188F GT PUSH2 0x159 JUMPI DUP1 PUSH4 0x57D1FDCD GT PUSH2 0x133 JUMPI DUP1 PUSH4 0x57D1FDCD EQ PUSH2 0x406 JUMPI DUP1 PUSH4 0x62AB05E7 EQ PUSH2 0x41D JUMPI DUP1 PUSH4 0x66650B7B EQ PUSH2 0x448 JUMPI DUP1 PUSH4 0x6CDF0E40 EQ PUSH2 0x473 JUMPI PUSH2 0x204 JUMP JUMPDEST DUP1 PUSH4 0x3F0C188F EQ PUSH2 0x373 JUMPI DUP1 PUSH4 0x4E6FD6C4 EQ PUSH2 0x3B0 JUMPI DUP1 PUSH4 0x5301FA6F EQ PUSH2 0x3DB JUMPI PUSH2 0x204 JUMP JUMPDEST DUP1 PUSH4 0xC2B72E9 EQ PUSH2 0x263 JUMPI DUP1 PUSH4 0xEFD0973 EQ PUSH2 0x28E JUMPI DUP1 PUSH4 0x138B7338 EQ PUSH2 0x2B9 JUMPI DUP1 PUSH4 0x210009CF EQ PUSH2 0x2F6 JUMPI DUP1 PUSH4 0x2B7459B9 EQ PUSH2 0x31F JUMPI DUP1 PUSH4 0x3D65DE44 EQ PUSH2 0x348 JUMPI PUSH2 0x204 JUMP JUMPDEST CALLDATASIZE PUSH2 0x204 JUMPI PUSH32 0x0 PUSH20 0xFFFFFFFFFFFFFFFFFFFFFFFFFFFFFFFFFFFFFFFF AND CALLER PUSH20 0xFFFFFFFFFFFFFFFFFFFFFFFFFFFFFFFFFFFFFFFF AND EQ PUSH2 0x202 JUMPI PUSH2 0x201 CALLVALUE PUSH2 0x69E JUMP JUMPDEST JUMPDEST STOP JUMPDEST PUSH32 0x0 PUSH20 0xFFFFFFFFFFFFFFFFFFFFFFFFFFFFFFFFFFFFFFFF AND CALLER PUSH20 0xFFFFFFFFFFFFFFFFFFFFFFFFFFFFFFFFFFFFFFFF AND EQ PUSH2 0x261 JUMPI PUSH2 0x260 CALLVALUE PUSH2 0x69E JUMP JUMPDEST JUMPDEST STOP JUMPDEST CALLVALUE DUP1 ISZERO PUSH2 0x26F JUMPI PUSH1 0x0 DUP1 REVERT JUMPDEST POP PUSH2 0x278 PUSH2 0x96F JUMP JUMPDEST PUSH1 0x40 MLOAD PUSH2 0x285 SWAP2 SWAP1 PUSH2 0x226C JUMP JUMPDEST PUSH1 0x40 MLOAD DUP1 SWAP2 SUB SWAP1 RETURN JUMPDEST CALLVALUE DUP1 ISZERO PUSH2 0x29A JUMPI PUSH1 0x0 DUP1 REVERT JUMPDEST POP PUSH2 0x2A3 PUSH2 0x993 JUMP JUMPDEST PUSH1 0x40 MLOAD PUSH2 0x2B0 SWAP2 SWAP1 PUSH2 0x226C JUMP JUMPDEST PUSH1 0x40 MLOAD DUP1 SWAP2 SUB SWAP1 RETURN JUMPDEST CALLVALUE DUP1 ISZERO PUSH2 0x2C5 JUMPI PUSH1 0x0 DUP1 REVERT JUMPDEST POP PUSH2 0x2E0 PUSH1 0x4 DUP1 CALLDATASIZE SUB DUP2 ADD SWAP1 PUSH2 0x2DB SWAP2 SWAP1 PUSH2 0x22C7 JUMP JUMPDEST PUSH2 0x9B7 JUMP JUMPDEST PUSH1 0x40 MLOAD PUSH2 0x2ED SWAP2 SWAP1 PUSH2 0x230F JUMP JUMPDEST PUSH1 0x40 MLOAD DUP1 SWAP2 SUB SWAP1 RETURN JUMPDEST CALLVALUE DUP1 ISZERO PUSH2 0x302 JUMPI PUSH1 0x0 DUP1 REVERT JUMPDEST POP PUSH2 0x31D PUSH1 0x4 DUP1 CALLDATASIZE SUB DUP2 ADD SWAP1 PUSH2 0x318 SWAP2 SWAP1 PUSH2 0x22C7 JUMP JUMPDEST PUSH2 0xA0D JUMP JUMPDEST STOP JUMPDEST CALLVALUE DUP1 ISZERO PUSH2 0x32B JUMPI PUSH1 0x0 DUP1 REVERT JUMPDEST POP PUSH2 0x346 PUSH1 0x4 DUP1 CALLDATASIZE SUB DUP2 ADD SWAP1 PUSH2 0x341 SWAP2 SWAP1 PUSH2 0x2356 JUMP JUMPDEST PUSH2 0xB33 JUMP JUMPDEST STOP JUMPDEST CALLVALUE DUP1 ISZERO PUSH2 0x354 JUMPI PUSH1 0x0 DUP1 REVERT JUMPDEST POP PUSH2 0x35D PUSH2 0xB68 JUMP JUMPDEST PUSH1 0x40 MLOAD PUSH2 0x36A SWAP2 SWAP1 PUSH2 0x239C JUMP JUMPDEST PUSH1 0x40 MLOAD DUP1 SWAP2 SUB SWAP1 RETURN JUMPDEST CALLVALUE DUP1 ISZERO PUSH2 0x37F JUMPI PUSH1 0x0 DUP1 REVERT JUMPDEST POP PUSH2 0x39A PUSH1 0x4 DUP1 CALLDATASIZE SUB DUP2 ADD SWAP1 PUSH2 0x395 SWAP2 SWAP1 PUSH2 0x22C7 JUMP JUMPDEST PUSH2 0xB6E JUMP JUMPDEST PUSH1 0x40 MLOAD PUSH2 0x3A7 SWAP2 SWAP1 PUSH2 0x230F JUMP JUMPDEST PUSH1 0x40 MLOAD DUP1 SWAP2 SUB SWAP1 RETURN JUMPDEST CALLVALUE DUP1 ISZERO PUSH2 0x3BC JUMPI PUSH1 0x0 DUP1 REVERT JUMPDEST POP PUSH2 0x3C5 PUSH2 0xB8E JUMP JUMPDEST PUSH1 0x40 MLOAD PUSH2 0x3D2 SWAP2 SWAP1 PUSH2 0x226C JUMP JUMPDEST PUSH1 0x40 MLOAD DUP1 SWAP2 SUB SWAP1 RETURN JUMPDEST CALLVALUE DUP1 ISZERO PUSH2 0x3E7 JUMPI PUSH1 0x0 DUP1 REVERT JUMPDEST POP PUSH2 0x3F0 PUSH2 0xBB2 JUMP JUMPDEST PUSH1 0x40 MLOAD PUSH2 0x3FD SWAP2 SWAP1 PUSH2 0x239C JUMP JUMPDEST PUSH1 0x40 MLOAD DUP1 SWAP2 SUB SWAP1 RETURN JUMPDEST CALLVALUE DUP1 ISZERO PUSH2 0x412 JUMPI PUSH1 0x0 DUP1 REVERT JUMPDEST POP PUSH2 0x41B PUSH2 0xBB8 JUMP JUMPDEST STOP JUMPDEST CALLVALUE DUP1 ISZERO PUSH2 0x429 JUMPI PUSH1 0x0 DUP1 REVERT JUMPDEST POP PUSH2 0x432 PUSH2 0xC34 JUMP JUMPDEST PUSH1 0x40 MLOAD PUSH2 0x43F SWAP2 SWAP1 PUSH2 0x23D8 JUMP JUMPDEST PUSH1 0x40 MLOAD DUP1 SWAP2 SUB SWAP1 RETURN JUMPDEST CALLVALUE DUP1 ISZERO PUSH2 0x454 JUMPI PUSH1 0x0 DUP1 REVERT JUMPDEST POP PUSH2 0x45D PUSH2 0xC58 JUMP JUMPDEST PUSH1 0x40 MLOAD PUSH2 0x46A SWAP2 SWAP1 PUSH2 0x226C JUMP JUMPDEST PUSH1 0x40 MLOAD DUP1 SWAP2 SUB SWAP1 RETURN JUMPDEST CALLVALUE DUP1 ISZERO PUSH2 0x47F JUMPI PUSH1 0x0 DUP1 REVERT JUMPDEST POP PUSH2 0x49A PUSH1 0x4 DUP1 CALLDATASIZE SUB DUP2 ADD SWAP1 PUSH2 0x495 SWAP2 SWAP1 PUSH2 0x2356 JUMP JUMPDEST PUSH2 0xC7C JUMP JUMPDEST STOP JUMPDEST CALLVALUE DUP1 ISZERO PUSH2 0x4A8 JUMPI PUSH1 0x0 DUP1 REVERT JUMPDEST POP PUSH2 0x4B1 PUSH2 0xCB1 JUMP JUMPDEST STOP JUMPDEST CALLVALUE DUP1 ISZERO PUSH2 0x4BF JUMPI PUSH1 0x0 DUP1 REVERT JUMPDEST POP PUSH2 0x4C8 PUSH2 0xCC5 JUMP JUMPDEST PUSH1 0x40 MLOAD PUSH2 0x4D5 SWAP2 SWAP1 PUSH2 0x239C JUMP JUMPDEST PUSH1 0x40 MLOAD DUP1 SWAP2 SUB SWAP1 RETURN JUMPDEST CALLVALUE DUP1 ISZERO PUSH2 0x4EA JUMPI PUSH1 0x0 DUP1 REVERT JUMPDEST POP PUSH2 0x4F3 PUSH2 0xCCB JUMP JUMPDEST PUSH1 0x40 MLOAD PUSH2 0x500 SWAP2 SWAP1 PUSH2 0x230F JUMP JUMPDEST PUSH1 0x40 MLOAD DUP1 SWAP2 SUB SWAP1 RETURN JUMPDEST CALLVALUE DUP1 ISZERO PUSH2 0x515 JUMPI PUSH1 0x0 DUP1 REVERT JUMPDEST POP PUSH2 0x530 PUSH1 0x4 DUP1 CALLDATASIZE SUB DUP2 ADD SWAP1 PUSH2 0x52B SWAP2 SWAP1 PUSH2 0x22C7 JUMP JUMPDEST PUSH2 0xCDE JUMP JUMPDEST STOP JUMPDEST CALLVALUE DUP1 ISZERO PUSH2 0x53E JUMPI PUSH1 0x0 DUP1 REVERT JUMPDEST POP PUSH2 0x547 PUSH2 0xE74 JUMP JUMPDEST PUSH1 0x40 MLOAD PUSH2 0x554 SWAP2 SWAP1 PUSH2 0x226C JUMP JUMPDEST PUSH1 0x40 MLOAD DUP1 SWAP2 SUB SWAP1 RETURN JUMPDEST CALLVALUE DUP1 ISZERO PUSH2 0x569 JUMPI PUSH1 0x0 DUP1 REVERT JUMPDEST POP PUSH2 0x584 PUSH1 0x4 DUP1 CALLDATASIZE SUB DUP2 ADD SWAP1 PUSH2 0x57F SWAP2 SWAP1 PUSH2 0x244B JUMP JUMPDEST PUSH2 0xE9D JUMP JUMPDEST STOP JUMPDEST CALLVALUE DUP1 ISZERO PUSH2 0x592 JUMPI PUSH1 0x0 DUP1 REVERT JUMPDEST POP PUSH2 0x59B PUSH2 0x1057 JUMP JUMPDEST PUSH1 0x40 MLOAD PUSH2 0x5A8 SWAP2 SWAP1 PUSH2 0x226C JUMP JUMPDEST PUSH1 0x40 MLOAD DUP1 SWAP2 SUB SWAP1 RETURN JUMPDEST CALLVALUE DUP1 ISZERO PUSH2 0x5BD JUMPI PUSH1 0x0 DUP1 REVERT JUMPDEST POP PUSH2 0x5D8 PUSH1 0x4 DUP1 CALLDATASIZE SUB DUP2 ADD SWAP1 PUSH2 0x5D3 SWAP2 SWAP1 PUSH2 0x248B JUMP JUMPDEST PUSH2 0x107B JUMP JUMPDEST STOP JUMPDEST CALLVALUE DUP1 ISZERO PUSH2 0x5E6 JUMPI PUSH1 0x0 DUP1 REVERT JUMPDEST POP PUSH2 0x5EF PUSH2 0x13D3 JUMP JUMPDEST PUSH1 0x40 MLOAD PUSH2 0x5FC SWAP2 SWAP1 PUSH2 0x230F JUMP JUMPDEST PUSH1 0x40 MLOAD DUP1 SWAP2 SUB SWAP1 RETURN JUMPDEST CALLVALUE DUP1 ISZERO PUSH2 0x611 JUMPI PUSH1 0x0 DUP1 REVERT JUMPDEST POP PUSH2 0x61A PUSH2 0x13E6 JUMP JUMPDEST STOP JUMPDEST CALLVALUE DUP1 ISZERO PUSH2 0x628 JUMPI PUSH1 0x0 DUP1 REVERT JUMPDEST POP PUSH2 0x631 PUSH2 0x158A JUMP JUMPDEST STOP JUMPDEST CALLVALUE DUP1 ISZERO PUSH2 0x63F JUMPI PUSH1 0x0 DUP1 REVERT JUMPDEST POP PUSH2 0x648 PUSH2 0x165F JUMP JUMPDEST STOP JUMPDEST CALLVALUE DUP1 ISZERO PUSH2 0x656 JUMPI PUSH1 0x0 DUP1 REVERT JUMPDEST POP PUSH2 0x671 PUSH1 0x4 DUP1 CALLDATASIZE SUB DUP2 ADD SWAP1 PUSH2 0x66C SWAP2 SWAP1 PUSH2 0x22C7 JUMP JUMPDEST PUSH2 0x16C6 JUMP JUMPDEST STOP JUMPDEST CALLVALUE DUP1 ISZERO PUSH2 0x67F JUMPI PUSH1 0x0 DUP1 REVERT JUMPDEST POP PUSH2 0x688 PUSH2 0x174C JUMP JUMPDEST PUSH1 0x40 MLOAD PUSH2 0x695 SWAP2 SWAP1 PUSH2 0x226C JUMP JUMPDEST PUSH1 0x40 MLOAD DUP1 SWAP2 SUB SWAP1 RETURN JUMPDEST PUSH1 0x0 DUP2 GT ISZERO PUSH2 0x729 JUMPI PUSH32 0x0 PUSH20 0xFFFFFFFFFFFFFFFFFFFFFFFFFFFFFFFFFFFFFFFF AND PUSH4 0xD0E30DB0 DUP3 PUSH1 0x40 MLOAD DUP3 PUSH4 0xFFFFFFFF AND PUSH1 0xE0 SHL DUP2 MSTORE PUSH1 0x4 ADD PUSH1 0x0 PUSH1 0x40 MLOAD DUP1 DUP4 SUB DUP2 DUP6 DUP9 DUP1 EXTCODESIZE ISZERO DUP1 ISZERO PUSH2 0x70F JUMPI PUSH1 0x0 DUP1 REVERT JUMPDEST POP GAS CALL ISZERO DUP1 ISZERO PUSH2 0x723 JUMPI RETURNDATASIZE PUSH1 0x0 DUP1 RETURNDATACOPY RETURNDATASIZE PUSH1 0x0 REVERT JUMPDEST POP POP POP POP POP JUMPDEST PUSH1 0x0 PUSH32 0x0 PUSH20 0xFFFFFFFFFFFFFFFFFFFFFFFFFFFFFFFFFFFFFFFF AND PUSH4 0x70A08231 ADDRESS PUSH1 0x40 MLOAD DUP3 PUSH4 0xFFFFFFFF AND PUSH1 0xE0 SHL DUP2 MSTORE PUSH1 0x4 ADD PUSH2 0x784 SWAP2 SWAP1 PUSH2 0x226C JUMP JUMPDEST PUSH1 0x20 PUSH1 0x40 MLOAD DUP1 DUP4 SUB DUP2 DUP7 GAS STATICCALL ISZERO DUP1 ISZERO PUSH2 0x7A1 JUMPI RETURNDATASIZE PUSH1 0x0 DUP1 RETURNDATACOPY RETURNDATASIZE PUSH1 0x0 REVERT JUMPDEST POP POP POP POP PUSH1 0x40 MLOAD RETURNDATASIZE PUSH1 0x1F NOT PUSH1 0x1F DUP3 ADD AND DUP3 ADD DUP1 PUSH1 0x40 MSTORE POP DUP2 ADD SWAP1 PUSH2 0x7C5 SWAP2 SWAP1 PUSH2 0x24F3 JUMP JUMPDEST SWAP1 POP PUSH1 0x0 PUSH1 0x6 SLOAD PUSH1 0x4 SLOAD PUSH1 0x5 SLOAD PUSH2 0x7DC SWAP2 SWAP1 PUSH2 0x254F JUMP JUMPDEST PUSH2 0x7E6 SWAP2 SWAP1 PUSH2 0x254F JUMP JUMPDEST SWAP1 POP DUP1 DUP3 LT ISZERO PUSH2 0x82B JUMPI PUSH1 0x40 MLOAD PUSH32 0x8C379A000000000000000000000000000000000000000000000000000000000 DUP2 MSTORE PUSH1 0x4 ADD PUSH2 0x822 SWAP1 PUSH2 0x25E0 JUMP JUMPDEST PUSH1 0x40 MLOAD DUP1 SWAP2 SUB SWAP1 REVERT JUMPDEST PUSH1 0x0 DUP2 DUP4 PUSH2 0x839 SWAP2 SWAP1 PUSH2 0x2600 JUMP JUMPDEST SWAP1 POP PUSH1 0x0 DUP2 GT ISZERO PUSH2 0x969 JUMPI PUSH1 0x0 PUSH1 0x64 PUSH1 0x28 DUP4 PUSH2 0x855 SWAP2 SWAP1 PUSH2 0x2634 JUMP JUMPDEST PUSH2 0x85F SWAP2 SWAP1 PUSH2 0x26A5 JUMP JUMPDEST SWAP1 POP PUSH1 0x0 PUSH1 0x64 PUSH1 0xA DUP5 PUSH2 0x872 SWAP2 SWAP1 PUSH2 0x2634 JUMP JUMPDEST PUSH2 0x87C SWAP2 SWAP1 PUSH2 0x26A5 JUMP JUMPDEST SWAP1 POP PUSH1 0x0 DUP2 DUP4 DUP6 PUSH2 0x88D SWAP2 SWAP1 PUSH2 0x2600 JUMP JUMPDEST PUSH2 0x897 SWAP2 SWAP1 PUSH2 0x2600 JUMP JUMPDEST SWAP1 POP DUP3 PUSH1 0x5 PUSH1 0x0 DUP3 DUP3 SLOAD PUSH2 0x8AB SWAP2 SWAP1 PUSH2 0x254F JUMP JUMPDEST SWAP3 POP POP DUP2 SWAP1 SSTORE POP DUP2 PUSH1 0x4 PUSH1 0x0 DUP3 DUP3 SLOAD PUSH2 0x8C4 SWAP2 SWAP1 PUSH2 0x254F JUMP JUMPDEST SWAP3 POP POP DUP2 SWAP1 SSTORE POP DUP1 PUSH1 0x6 PUSH1 0x0 DUP3 DUP3 SLOAD PUSH2 0x8DD SWAP2 SWAP1 PUSH2 0x254F JUMP JUMPDEST SWAP3 POP POP DUP2 SWAP1 SSTORE POP PUSH32 0x4816DB49BFC91A0172699BAEDF430E5D308B8034F966FB25681B27C17BCD3A47 DUP5 DUP5 DUP5 DUP5 PUSH1 0x40 MLOAD PUSH2 0x919 SWAP5 SWAP4 SWAP3 SWAP2 SWAP1 PUSH2 0x26D6 JUMP JUMPDEST PUSH1 0x40 MLOAD DUP1 SWAP2 SUB SWAP1 LOG1 PUSH2 0x929 PUSH2 0x1770 JUMP JUMPDEST PUSH1 0x7 PUSH1 0x0 SWAP1 SLOAD SWAP1 PUSH2 0x100 EXP SWAP1 DIV PUSH1 0xFF AND ISZERO PUSH2 0x947 JUMPI PUSH2 0x946 PUSH2 0x192B JUMP JUMPDEST JUMPDEST PUSH1 0x7 PUSH1 0x1 SWAP1 SLOAD SWAP1 PUSH2 0x100 EXP SWAP1 DIV PUSH1 0xFF AND ISZERO PUSH2 0x965 JUMPI PUSH2 0x964 PUSH2 0x1BCA JUMP JUMPDEST JUMPDEST POP POP POP JUMPDEST POP POP POP POP JUMP JUMPDEST PUSH32 0x0 DUP2 JUMP JUMPDEST PUSH32 0x0 DUP2 JUMP JUMPDEST PUSH1 0x0 PUSH1 0x3 PUSH1 0x0 DUP4 PUSH20 0xFFFFFFFFFFFFFFFFFFFFFFFFFFFFFFFFFFFFFFFF AND PUSH20 0xFFFFFFFFFFFFFFFFFFFFFFFFFFFFFFFFFFFFFFFF AND DUP2 MSTORE PUSH1 0x20 ADD SWAP1 DUP2 MSTORE PUSH1 0x20 ADD PUSH1 0x0 KECCAK256 PUSH1 0x0 SWAP1 SLOAD SWAP1 PUSH2 0x100 EXP SWAP1 DIV PUSH1 0xFF AND SWAP1 POP SWAP2 SWAP1 POP JUMP JUMPDEST PUSH2 0xA15 PUSH2 0x2006 JUMP JUMPDEST PUSH1 0x3 PUSH1 0x0 DUP3 PUSH20 0xFFFFFFFFFFFFFFFFFFFFFFFFFFFFFFFFFFFFFFFF AND PUSH20 0xFFFFFFFFFFFFFFFFFFFFFFFFFFFFFFFFFFFFFFFF AND DUP2 MSTORE PUSH1 0x20 ADD SWAP1 DUP2 MSTORE PUSH1 0x20 ADD PUSH1 0x0 KECCAK256 PUSH1 0x0 SWAP1 SLOAD SWAP1 PUSH2 0x100 EXP SWAP1 DIV PUSH1 0xFF AND PUSH2 0xAA1 JUMPI PUSH1 0x40 MLOAD PUSH32 0x8C379A000000000000000000000000000000000000000000000000000000000 DUP2 MSTORE PUSH1 0x4 ADD PUSH2 0xA98 SWAP1 PUSH2 0x2767 JUMP JUMPDEST PUSH1 0x40 MLOAD DUP1 SWAP2 SUB SWAP1 REVERT JUMPDEST PUSH1 0x0 PUSH1 0x3 PUSH1 0x0 DUP4 PUSH20 0xFFFFFFFFFFFFFFFFFFFFFFFFFFFFFFFFFFFFFFFF AND PUSH20 0xFFFFFFFFFFFFFFFFFFFFFFFFFFFFFFFFFFFFFFFF AND DUP2 MSTORE PUSH1 0x20 ADD SWAP1 DUP2 MSTORE PUSH1 0x20 ADD PUSH1 0x0 KECCAK256 PUSH1 0x0 PUSH2 0x100 EXP DUP2 SLOAD DUP2 PUSH1 0xFF MUL NOT AND SWAP1 DUP4 ISZERO ISZERO MUL OR SWAP1 SSTORE POP PUSH32 0xD9EA38E99B87231F31B9DA68DE3C78D56418E10E2E64D338C9F438AB75681EBC DUP2 PUSH1 0x40 MLOAD PUSH2 0xB28 SWAP2 SWAP1 PUSH2 0x226C JUMP JUMPDEST PUSH1 0x40 MLOAD DUP1 SWAP2 SUB SWAP1 LOG1 POP JUMP JUMPDEST PUSH2 0xB3B PUSH2 0x2006 JUMP JUMPDEST PUSH2 0xB43 PUSH2 0x208D JUMP JUMPDEST DUP1 PUSH1 0x7 PUSH1 0x0 PUSH2 0x100 EXP DUP2 SLOAD DUP2 PUSH1 0xFF MUL NOT AND SWAP1 DUP4 ISZERO ISZERO MUL OR SWAP1 SSTORE POP PUSH2 0xB65 PUSH2 0x20B0 JUMP JUMPDEST POP JUMP JUMPDEST PUSH1 0x4 SLOAD DUP2 JUMP JUMPDEST PUSH1 0x3 PUSH1 0x20 MSTORE DUP1 PUSH1 0x0 MSTORE PUSH1 0x40 PUSH1 0x0 KECCAK256 PUSH1 0x0 SWAP2 POP SLOAD SWAP1 PUSH2 0x100 EXP SWAP1 DIV PUSH1 0xFF AND DUP2 JUMP JUMPDEST PUSH32 0x0 DUP2 JUMP JUMPDEST PUSH1 0x6 SLOAD DUP2 JUMP JUMPDEST PUSH2 0xBC0 PUSH2 0x2006 JUMP JUMPDEST PUSH2 0xBC8 PUSH2 0x208D JUMP JUMPDEST PUSH1 0x0 PUSH1 0x4 SLOAD GT DUP1 PUSH2 0xBDB JUMPI POP PUSH1 0x0 PUSH1 0x5 SLOAD GT JUMPDEST PUSH2 0xC1A JUMPI PUSH1 0x40 MLOAD PUSH32 0x8C379A000000000000000000000000000000000000000000000000000000000 DUP2 MSTORE PUSH1 0x4 ADD PUSH2 0xC11 SWAP1 PUSH2 0x27D3 JUMP JUMPDEST PUSH1 0x40 MLOAD DUP1 SWAP2 SUB SWAP1 REVERT JUMPDEST PUSH2 0xC22 PUSH2 0x192B JUMP JUMPDEST PUSH2 0xC2A PUSH2 0x1BCA JUMP JUMPDEST PUSH2 0xC32 PUSH2 0x20B0 JUMP JUMPDEST JUMP JUMPDEST PUSH32 0x0 DUP2 JUMP JUMPDEST PUSH32 0x0 DUP2 JUMP JUMPDEST PUSH2 0xC84 PUSH2 0x2006 JUMP JUMPDEST PUSH2 0xC8C PUSH2 0x208D JUMP JUMPDEST DUP1 PUSH1 0x7 PUSH1 0x1 PUSH2 0x100 EXP DUP2 SLOAD DUP2 PUSH1 0xFF MUL NOT AND SWAP1 DUP4 ISZERO ISZERO MUL OR SWAP1 SSTORE POP PUSH2 0xCAE PUSH2 0x20B0 JUMP JUMPDEST POP JUMP JUMPDEST PUSH2 0xCB9 PUSH2 0x2006 JUMP JUMPDEST PUSH2 0xCC3 PUSH1 0x0 PUSH2 0x20CB JUMP JUMPDEST JUMP JUMPDEST PUSH1 0x5 SLOAD DUP2 JUMP JUMPDEST PUSH1 0x7 PUSH1 0x1 SWAP1 SLOAD SWAP1 PUSH2 0x100 EXP SWAP1 DIV PUSH1 0xFF AND DUP2 JUMP JUMPDEST PUSH2 0xCE6 PUSH2 0x2006 JUMP JUMPDEST PUSH1 0x0 PUSH20 0xFFFFFFFFFFFFFFFFFFFFFFFFFFFFFFFFFFFFFFFF AND DUP2 PUSH20 0xFFFFFFFFFFFFFFFFFFFFFFFFFFFFFFFFFFFFFFFF AND SUB PUSH2 0xD55 JUMPI PUSH1 0x40 MLOAD PUSH32 0x8C379A000000000000000000000000000000000000000000000000000000000 DUP2 MSTORE PUSH1 0x4 ADD PUSH2 0xD4C SWAP1 PUSH2 0x283F JUMP JUMPDEST PUSH1 0x40 MLOAD DUP1 SWAP2 SUB SWAP1 REVERT JUMPDEST PUSH1 0x3 PUSH1 0x0 DUP3 PUSH20 0xFFFFFFFFFFFFFFFFFFFFFFFFFFFFFFFFFFFFFFFF AND PUSH20 0xFFFFFFFFFFFFFFFFFFFFFFFFFFFFFFFFFFFFFFFF AND DUP2 MSTORE PUSH1 0x20 ADD SWAP1 DUP2 MSTORE PUSH1 0x20 ADD PUSH1 0x0 KECCAK256 PUSH1 0x0 SWAP1 SLOAD SWAP1 PUSH2 0x100 EXP SWAP1 DIV PUSH1 0xFF AND ISZERO PUSH2 0xDE2 JUMPI PUSH1 0x40 MLOAD PUSH32 0x8C379A000000000000000000000000000000000000000000000000000000000 DUP2 MSTORE PUSH1 0x4 ADD PUSH2 0xDD9 SWAP1 PUSH2 0x28AB JUMP JUMPDEST PUSH1 0x40 MLOAD DUP1 SWAP2 SUB SWAP1 REVERT JUMPDEST PUSH1 0x1 PUSH1 0x3 PUSH1 0x0 DUP4 PUSH20 0xFFFFFFFFFFFFFFFFFFFFFFFFFFFFFFFFFFFFFFFF AND PUSH20 0xFFFFFFFFFFFFFFFFFFFFFFFFFFFFFFFFFFFFFFFF AND DUP2 MSTORE PUSH1 0x20 ADD SWAP1 DUP2 MSTORE PUSH1 0x20 ADD PUSH1 0x0 KECCAK256 PUSH1 0x0 PUSH2 0x100 EXP DUP2 SLOAD DUP2 PUSH1 0xFF MUL NOT AND SWAP1 DUP4 ISZERO ISZERO MUL OR SWAP1 SSTORE POP PUSH32 0x797C25843E35D46F4254028734C97D60F3F93AACCC1DD994DD6B90683FDB2486 DUP2 PUSH1 0x40 MLOAD PUSH2 0xE69 SWAP2 SWAP1 PUSH2 0x226C JUMP JUMPDEST PUSH1 0x40 MLOAD DUP1 SWAP2 SUB SWAP1 LOG1 POP JUMP JUMPDEST PUSH1 0x0 DUP1 PUSH1 0x0 SWAP1 SLOAD SWAP1 PUSH2 0x100 EXP SWAP1 DIV PUSH20 0xFFFFFFFFFFFFFFFFFFFFFFFFFFFFFFFFFFFFFFFF AND SWAP1 POP SWAP1 JUMP JUMPDEST PUSH2 0xEA5 PUSH2 0x2006 JUMP JUMPDEST PUSH2 0xEAD PUSH2 0x208D JUMP JUMPDEST PUSH1 0x0 PUSH20 0xFFFFFFFFFFFFFFFFFFFFFFFFFFFFFFFFFFFFFFFF AND DUP2 PUSH20 0xFFFFFFFFFFFFFFFFFFFFFFFFFFFFFFFFFFFFFFFF AND SUB PUSH2 0xF1C JUMPI PUSH1 0x40 MLOAD PUSH32 0x8C379A000000000000000000000000000000000000000000000000000000000 DUP2 MSTORE PUSH1 0x4 ADD PUSH2 0xF13 SWAP1 PUSH2 0x2917 JUMP JUMPDEST PUSH1 0x40 MLOAD DUP1 SWAP2 SUB SWAP1 REVERT JUMPDEST PUSH1 0x0 SELFBALANCE SWAP1 POP DUP1 DUP4 GT ISZERO PUSH2 0xF64 JUMPI PUSH1 0x40 MLOAD PUSH32 0x8C379A000000000000000000000000000000000000000000000000000000000 DUP2 MSTORE PUSH1 0x4 ADD PUSH2 0xF5B SWAP1 PUSH2 0x2983 JUMP JUMPDEST PUSH1 0x40 MLOAD DUP1 SWAP2 SUB SWAP1 REVERT JUMPDEST PUSH1 0x0 DUP3 PUSH20 0xFFFFFFFFFFFFFFFFFFFFFFFFFFFFFFFFFFFFFFFF AND DUP5 PUSH1 0x40 MLOAD PUSH2 0xF8A SWAP1 PUSH2 0x29D4 JUMP JUMPDEST PUSH1 0x0 PUSH1 0x40 MLOAD DUP1 DUP4 SUB DUP2 DUP6 DUP8 GAS CALL SWAP3 POP POP POP RETURNDATASIZE DUP1 PUSH1 0x0 DUP2 EQ PUSH2 0xFC7 JUMPI PUSH1 0x40 MLOAD SWAP2 POP PUSH1 0x1F NOT PUSH1 0x3F RETURNDATASIZE ADD AND DUP3 ADD PUSH1 0x40 MSTORE RETURNDATASIZE DUP3 MSTORE RETURNDATASIZE PUSH1 0x0 PUSH1 0x20 DUP5 ADD RETURNDATACOPY PUSH2 0xFCC JUMP JUMPDEST PUSH1 0x60 SWAP2 POP JUMPDEST POP POP SWAP1 POP DUP1 PUSH2 0x1010 JUMPI PUSH1 0x40 MLOAD PUSH32 0x8C379A000000000000000000000000000000000000000000000000000000000 DUP2 MSTORE PUSH1 0x4 ADD PUSH2 0x1007 SWAP1 PUSH2 0x2A35 JUMP JUMPDEST PUSH1 0x40 MLOAD DUP1 SWAP2 SUB SWAP1 REVERT JUMPDEST PUSH32 0xCD7FEF3A642DCF99CE1004B2A15D31E91398F01974500B64EAB8FC50FEF2D3B1 DUP5 DUP5 PUSH1 0x40 MLOAD PUSH2 0x1041 SWAP3 SWAP2 SWAP1 PUSH2 0x2AB4 JUMP JUMPDEST PUSH1 0x40 MLOAD DUP1 SWAP2 SUB SWAP1 LOG1 POP POP PUSH2 0x1053 PUSH2 0x20B0 JUMP JUMPDEST POP POP JUMP JUMPDEST PUSH32 0x0 DUP2 JUMP JUMPDEST PUSH2 0x1083 PUSH2 0x2006 JUMP JUMPDEST PUSH2 0x108B PUSH2 0x208D JUMP JUMPDEST PUSH1 0x0 PUSH20 0xFFFFFFFFFFFFFFFFFFFFFFFFFFFFFFFFFFFFFFFF AND DUP2 PUSH20 0xFFFFFFFFFFFFFFFFFFFFFFFFFFFFFFFFFFFFFFFF AND SUB PUSH2 0x10FA JUMPI PUSH1 0x40 MLOAD PUSH32 0x8C379A000000000000000000000000000000000000000000000000000000000 DUP2 MSTORE PUSH1 0x4 ADD PUSH2 0x10F1 SWAP1 PUSH2 0x2917 JUMP JUMPDEST PUSH1 0x40 MLOAD DUP1 SWAP2 SUB SWAP1 REVERT JUMPDEST PUSH1 0x0 DUP4 SWAP1 POP PUSH1 0x0 DUP2 PUSH20 0xFFFFFFFFFFFFFFFFFFFFFFFFFFFFFFFFFFFFFFFF AND PUSH4 0x70A08231 ADDRESS PUSH1 0x40 MLOAD DUP3 PUSH4 0xFFFFFFFF AND PUSH1 0xE0 SHL DUP2 MSTORE PUSH1 0x4 ADD PUSH2 0x113A SWAP2 SWAP1 PUSH2 0x226C JUMP JUMPDEST PUSH1 0x20 PUSH1 0x40 MLOAD DUP1 DUP4 SUB DUP2 DUP7 GAS STATICCALL ISZERO DUP1 ISZERO PUSH2 0x1157 JUMPI RETURNDATASIZE PUSH1 0x0 DUP1 RETURNDATACOPY RETURNDATASIZE PUSH1 0x0 REVERT JUMPDEST POP POP POP POP PUSH1 0x40 MLOAD RETURNDATASIZE PUSH1 0x1F NOT PUSH1 0x1F DUP3 ADD AND DUP3 ADD DUP1 PUSH1 0x40 MSTORE POP DUP2 ADD SWAP1 PUSH2 0x117B SWAP2 SWAP1 PUSH2 0x24F3 JUMP JUMPDEST SWAP1 POP DUP1 DUP5 GT ISZERO PUSH2 0x11C0 JUMPI PUSH1 0x40 MLOAD PUSH32 0x8C379A000000000000000000000000000000000000000000000000000000000 DUP2 MSTORE PUSH1 0x4 ADD PUSH2 0x11B7 SWAP1 PUSH2 0x2B29 JUMP JUMPDEST PUSH1 0x40 MLOAD DUP1 SWAP2 SUB SWAP1 REVERT JUMPDEST PUSH32 0x0 PUSH20 0xFFFFFFFFFFFFFFFFFFFFFFFFFFFFFFFFFFFFFFFF AND DUP6 PUSH20 0xFFFFFFFFFFFFFFFFFFFFFFFFFFFFFFFFFFFFFFFF AND SUB PUSH2 0x12C6 JUMPI PUSH1 0x0 PUSH1 0x6 SLOAD PUSH1 0x4 SLOAD PUSH1 0x5 SLOAD PUSH2 0x1228 SWAP2 SWAP1 PUSH2 0x254F JUMP JUMPDEST PUSH2 0x1232 SWAP2 SWAP1 PUSH2 0x254F JUMP JUMPDEST SWAP1 POP DUP1 DUP3 GT PUSH2 0x1276 JUMPI PUSH1 0x40 MLOAD PUSH32 0x8C379A000000000000000000000000000000000000000000000000000000000 DUP2 MSTORE PUSH1 0x4 ADD PUSH2 0x126D SWAP1 PUSH2 0x2B95 JUMP JUMPDEST PUSH1 0x40 MLOAD DUP1 SWAP2 SUB SWAP1 REVERT JUMPDEST DUP1 DUP3 PUSH2 0x1282 SWAP2 SWAP1 PUSH2 0x2600 JUMP JUMPDEST DUP6 GT ISZERO PUSH2 0x12C4 JUMPI PUSH1 0x40 MLOAD PUSH32 0x8C379A000000000000000000000000000000000000000000000000000000000 DUP2 MSTORE PUSH1 0x4 ADD PUSH2 0x12BB SWAP1 PUSH2 0x2C01 JUMP JUMPDEST PUSH1 0x40 MLOAD DUP1 SWAP2 SUB SWAP1 REVERT JUMPDEST POP JUMPDEST PUSH1 0x0 DUP3 PUSH20 0xFFFFFFFFFFFFFFFFFFFFFFFFFFFFFFFFFFFFFFFF AND PUSH4 0xA9059CBB DUP6 DUP8 PUSH1 0x40 MLOAD DUP4 PUSH4 0xFFFFFFFF AND PUSH1 0xE0 SHL DUP2 MSTORE PUSH1 0x4 ADD PUSH2 0x1303 SWAP3 SWAP2 SWAP1 PUSH2 0x2C21 JUMP JUMPDEST PUSH1 0x20 PUSH1 0x40 MLOAD DUP1 DUP4 SUB DUP2 PUSH1 0x0 DUP8 GAS CALL ISZERO DUP1 ISZERO PUSH2 0x1322 JUMPI RETURNDATASIZE PUSH1 0x0 DUP1 RETURNDATACOPY RETURNDATASIZE PUSH1 0x0 REVERT JUMPDEST POP POP POP POP PUSH1 0x40 MLOAD RETURNDATASIZE PUSH1 0x1F NOT PUSH1 0x1F DUP3 ADD AND DUP3 ADD DUP1 PUSH1 0x40 MSTORE POP DUP2 ADD SWAP1 PUSH2 0x1346 SWAP2 SWAP1 PUSH2 0x2C5F JUMP JUMPDEST SWAP1 POP DUP1 PUSH2 0x1388 JUMPI PUSH1 0x40 MLOAD PUSH32 0x8C379A000000000000000000000000000000000000000000000000000000000 DUP2 MSTORE PUSH1 0x4 ADD PUSH2 0x137F SWAP1 PUSH2 0x2CD8 JUMP JUMPDEST PUSH1 0x40 MLOAD DUP1 SWAP2 SUB SWAP1 REVERT JUMPDEST PUSH32 0xFB475A842BAD10D3800B61BD1A92E716051AFBA979B124B583BD99A2D1D7BFD5 DUP7 DUP7 DUP7 PUSH1 0x40 MLOAD PUSH2 0x13BB SWAP4 SWAP3 SWAP2 SWAP1 PUSH2 0x2CF8 JUMP JUMPDEST PUSH1 0x40 MLOAD DUP1 SWAP2 SUB SWAP1 LOG1 POP POP POP PUSH2 0x13CE PUSH2 0x20B0 JUMP JUMPDEST POP POP POP JUMP JUMPDEST PUSH1 0x7 PUSH1 0x0 SWAP1 SLOAD SWAP1 PUSH2 0x100 EXP SWAP1 DIV PUSH1 0xFF AND DUP2 JUMP JUMPDEST PUSH2 0x13EE PUSH2 0x2006 JUMP JUMPDEST PUSH2 0x13F6 PUSH2 0x208D JUMP JUMPDEST PUSH2 0x1400 PUSH1 0x0 PUSH2 0x69E JUMP JUMPDEST PUSH1 0x0 PUSH1 0x5 SLOAD SWAP1 POP PUSH1 0x0 DUP2 GT ISZERO PUSH2 0x149C JUMPI PUSH32 0x0 PUSH20 0xFFFFFFFFFFFFFFFFFFFFFFFFFFFFFFFFFFFFFFFF AND PUSH4 0x2E1A7D4D DUP3 PUSH1 0x40 MLOAD DUP3 PUSH4 0xFFFFFFFF AND PUSH1 0xE0 SHL DUP2 MSTORE PUSH1 0x4 ADD PUSH2 0x1469 SWAP2 SWAP1 PUSH2 0x239C JUMP JUMPDEST PUSH1 0x0 PUSH1 0x40 MLOAD DUP1 DUP4 SUB DUP2 PUSH1 0x0 DUP8 DUP1 EXTCODESIZE ISZERO DUP1 ISZERO PUSH2 0x1483 JUMPI PUSH1 0x0 DUP1 REVERT JUMPDEST POP GAS CALL ISZERO DUP1 ISZERO PUSH2 0x1497 JUMPI RETURNDATASIZE PUSH1 0x0 DUP1 RETURNDATACOPY RETURNDATASIZE PUSH1 0x0 REVERT JUMPDEST POP POP POP POP JUMPDEST PUSH1 0x0 PUSH1 0x5 SLOAD GT ISZERO PUSH2 0x157F JUMPI PUSH1 0x0 PUSH32 0x0 PUSH20 0xFFFFFFFFFFFFFFFFFFFFFFFFFFFFFFFFFFFFFFFF AND PUSH1 0x5 SLOAD PUSH1 0x40 MLOAD PUSH2 0x14EF SWAP1 PUSH2 0x29D4 JUMP JUMPDEST PUSH1 0x0 PUSH1 0x40 MLOAD DUP1 DUP4 SUB DUP2 DUP6 DUP8 GAS CALL SWAP3 POP POP POP RETURNDATASIZE DUP1 PUSH1 0x0 DUP2 EQ PUSH2 0x152C JUMPI PUSH1 0x40 MLOAD SWAP2 POP PUSH1 0x1F NOT PUSH1 0x3F RETURNDATASIZE ADD AND DUP3 ADD PUSH1 0x40 MSTORE RETURNDATASIZE DUP3 MSTORE RETURNDATASIZE PUSH1 0x0 PUSH1 0x20 DUP5 ADD RETURNDATACOPY PUSH2 0x1531 JUMP JUMPDEST PUSH1 0x60 SWAP2 POP JUMPDEST POP POP SWAP1 POP DUP1 PUSH2 0x1575 JUMPI PUSH1 0x40 MLOAD PUSH32 0x8C379A000000000000000000000000000000000000000000000000000000000 DUP2 MSTORE PUSH1 0x4 ADD PUSH2 0x156C SWAP1 PUSH2 0x2D7B JUMP JUMPDEST PUSH1 0x40 MLOAD DUP1 SWAP2 SUB SWAP1 REVERT JUMPDEST PUSH1 0x0 PUSH1 0x5 DUP2 SWAP1 SSTORE POP POP JUMPDEST POP PUSH2 0x1588 PUSH2 0x20B0 JUMP JUMPDEST JUMP JUMPDEST PUSH2 0x1592 PUSH2 0xE74 JUMP JUMPDEST PUSH20 0xFFFFFFFFFFFFFFFFFFFFFFFFFFFFFFFFFFFFFFFF AND CALLER PUSH20 0xFFFFFFFFFFFFFFFFFFFFFFFFFFFFFFFFFFFFFFFF AND EQ DUP1 PUSH2 0x1614 JUMPI POP PUSH1 0x3 PUSH1 0x0 CALLER PUSH20 0xFFFFFFFFFFFFFFFFFFFFFFFFFFFFFFFFFFFFFFFF AND PUSH20 0xFFFFFFFFFFFFFFFFFFFFFFFFFFFFFFFFFFFFFFFF AND DUP2 MSTORE PUSH1 0x20 ADD SWAP1 DUP2 MSTORE PUSH1 0x20 ADD PUSH1 0x0 KECCAK256 PUSH1 0x0 SWAP1 SLOAD SWAP1 PUSH2 0x100 EXP SWAP1 DIV PUSH1 0xFF AND JUMPDEST PUSH2 0x1653 JUMPI PUSH1 0x40 MLOAD PUSH32 0x8C379A000000000000000000000000000000000000000000000000000000000 DUP2 MSTORE PUSH1 0x4 ADD PUSH2 0x164A SWAP1 PUSH2 0x2E0D JUMP JUMPDEST PUSH1 0x40 MLOAD DUP1 SWAP2 SUB SWAP1 REVERT JUMPDEST PUSH2 0x165D PUSH1 0x0 PUSH2 0x69E JUMP JUMPDEST JUMP JUMPDEST PUSH2 0x1667 PUSH2 0x2006 JUMP JUMPDEST PUSH2 0x166F PUSH2 0x208D JUMP JUMPDEST PUSH1 0x0 PUSH1 0x5 SLOAD GT PUSH2 0x16B4 JUMPI PUSH1 0x40 MLOAD PUSH32 0x8C379A000000000000000000000000000000000000000000000000000000000 DUP2 MSTORE PUSH1 0x4 ADD PUSH2 0x16AB SWAP1 PUSH2 0x2E79 JUMP JUMPDEST PUSH1 0x40 MLOAD DUP1 SWAP2 SUB SWAP1 REVERT JUMPDEST PUSH2 0x16BC PUSH2 0x1BCA JUMP JUMPDEST PUSH2 0x16C4 PUSH2 0x20B0 JUMP JUMPDEST JUMP JUMPDEST PUSH2 0x16CE PUSH2 0x2006 JUMP JUMPDEST PUSH1 0x0 PUSH20 0xFFFFFFFFFFFFFFFFFFFFFFFFFFFFFFFFFFFFFFFF AND DUP2 PUSH20 0xFFFFFFFFFFFFFFFFFFFFFFFFFFFFFFFFFFFFFFFF AND SUB PUSH2 0x1740 JUMPI PUSH1 0x0 PUSH1 0x40 MLOAD PUSH32 0x1E4FBDF700000000000000000000000000000000000000000000000000000000 DUP2 MSTORE PUSH1 0x4 ADD PUSH2 0x1737 SWAP2 SWAP1 PUSH2 0x226C JUMP JUMPDEST PUSH1 0x40 MLOAD DUP1 SWAP2 SUB SWAP1 REVERT JUMPDEST PUSH2 0x1749 DUP2 PUSH2 0x20CB JUMP JUMPDEST POP JUMP JUMPDEST PUSH32 0x0 DUP2 JUMP JUMPDEST PUSH1 0x0 PUSH1 0x6 SLOAD SUB ISZERO PUSH2 0x1929 JUMPI PUSH1 0x0 PUSH1 0x9 PUSH1 0x6 SLOAD PUSH2 0x178C SWAP2 SWAP1 PUSH2 0x26A5 JUMP JUMPDEST SWAP1 POP PUSH1 0x0 PUSH1 0x1 SWAP1 POP JUMPDEST PUSH1 0x9 DUP2 GT PUSH2 0x191E JUMPI PUSH32 0x0 PUSH20 0xFFFFFFFFFFFFFFFFFFFFFFFFFFFFFFFFFFFFFFFF AND PUSH4 0x6352211E DUP3 PUSH1 0x40 MLOAD DUP3 PUSH4 0xFFFFFFFF AND PUSH1 0xE0 SHL DUP2 MSTORE PUSH1 0x4 ADD PUSH2 0x17F6 SWAP2 SWAP1 PUSH2 0x239C JUMP JUMPDEST PUSH1 0x20 PUSH1 0x40 MLOAD DUP1 DUP4 SUB DUP2 DUP7 GAS STATICCALL SWAP3 POP POP POP DUP1 ISZERO PUSH2 0x1830 JUMPI POP PUSH1 0x40 MLOAD RETURNDATASIZE PUSH1 0x1F NOT PUSH1 0x1F DUP3 ADD AND DUP3 ADD DUP1 PUSH1 0x40 MSTORE POP DUP2 ADD SWAP1 PUSH2 0x182D SWAP2 SWAP1 PUSH2 0x2EAE JUMP JUMPDEST PUSH1 0x1 JUMPDEST ISZERO PUSH2 0x190B JUMPI PUSH1 0x0 PUSH20 0xFFFFFFFFFFFFFFFFFFFFFFFFFFFFFFFFFFFFFFFF AND DUP2 PUSH20 0xFFFFFFFFFFFFFFFFFFFFFFFFFFFFFFFFFFFFFFFF AND EQ PUSH2 0x1909 JUMPI PUSH32 0x0 PUSH20 0xFFFFFFFFFFFFFFFFFFFFFFFFFFFFFFFFFFFFFFFF AND PUSH4 0xA9059CBB DUP3 DUP6 PUSH1 0x40 MLOAD DUP4 PUSH4 0xFFFFFFFF AND PUSH1 0xE0 SHL DUP2 MSTORE PUSH1 0x4 ADD PUSH2 0x18C4 SWAP3 SWAP2 SWAP1 PUSH2 0x2C21 JUMP JUMPDEST PUSH1 0x20 PUSH1 0x40 MLOAD DUP1 DUP4 SUB DUP2 PUSH1 0x0 DUP8 GAS CALL ISZERO DUP1 ISZERO PUSH2 0x18E3 JUMPI RETURNDATASIZE PUSH1 0x0 DUP1 RETURNDATACOPY RETURNDATASIZE PUSH1 0x0 REVERT JUMPDEST POP POP POP POP PUSH1 0x40 MLOAD RETURNDATASIZE PUSH1 0x1F NOT PUSH1 0x1F DUP3 ADD AND DUP3 ADD DUP1 PUSH1 0x40 MSTORE POP DUP2 ADD SWAP1 PUSH2 0x1907 SWAP2 SWAP1 PUSH2 0x2C5F JUMP JUMPDEST POP JUMPDEST POP JUMPDEST DUP1 DUP1 PUSH2 0x1916 SWAP1 PUSH2 0x2EDB JUMP JUMPDEST SWAP2 POP POP PUSH2 0x1795 JUMP JUMPDEST POP PUSH1 0x0 PUSH1 0x6 DUP2 SWAP1 SSTORE POP POP JUMPDEST JUMP JUMPDEST PUSH1 0x0 PUSH1 0x4 SLOAD GT ISZERO PUSH2 0x1BC8 JUMPI PUSH32 0x0 PUSH20 0xFFFFFFFFFFFFFFFFFFFFFFFFFFFFFFFFFFFFFFFF AND PUSH4 0x95EA7B3 PUSH1 0x1 PUSH1 0x0 SWAP1 SLOAD SWAP1 PUSH2 0x100 EXP SWAP1 DIV PUSH20 0xFFFFFFFFFFFFFFFFFFFFFFFFFFFFFFFFFFFFFFFF AND PUSH1 0x4 SLOAD PUSH1 0x40 MLOAD DUP4 PUSH4 0xFFFFFFFF AND PUSH1 0xE0 SHL DUP2 MSTORE PUSH1 0x4 ADD PUSH2 0x19B5 SWAP3 SWAP2 SWAP1 PUSH2 0x2C21 JUMP JUMPDEST PUSH1 0x20 PUSH1 0x40 MLOAD DUP1 DUP4 SUB DUP2 PUSH1 0x0 DUP8 GAS CALL ISZERO DUP1 ISZERO PUSH2 0x19D4 JUMPI RETURNDATASIZE PUSH1 0x0 DUP1 RETURNDATACOPY RETURNDATASIZE PUSH1 0x0 REVERT JUMPDEST POP POP POP POP PUSH1 0x40 MLOAD RETURNDATASIZE PUSH1 0x1F NOT PUSH1 0x1F DUP3 ADD AND DUP3 ADD DUP1 PUSH1 0x40 MSTORE POP DUP2 ADD SWAP1 PUSH2 0x19F8 SWAP2 SWAP1 PUSH2 0x2C5F JUMP JUMPDEST POP PUSH1 0x0 PUSH1 0x40 MLOAD DUP1 PUSH1 0x80 ADD PUSH1 0x40 MSTORE DUP1 PUSH32 0x0 PUSH32 0x0 PUSH32 0x0 PUSH1 0x40 MLOAD PUSH1 0x20 ADD PUSH2 0x1A7B SWAP4 SWAP3 SWAP2 SWAP1 PUSH2 0x2FB0 JUMP JUMPDEST PUSH1 0x40 MLOAD PUSH1 0x20 DUP2 DUP4 SUB SUB DUP2 MSTORE SWAP1 PUSH1 0x40 MSTORE DUP2 MSTORE PUSH1 0x20 ADD PUSH32 0x0 PUSH20 0xFFFFFFFFFFFFFFFFFFFFFFFFFFFFFFFFFFFFFFFF AND DUP2 MSTORE PUSH1 0x20 ADD PUSH1 0x4 SLOAD DUP2 MSTORE PUSH1 0x20 ADD PUSH1 0x0 DUP2 MSTORE POP SWAP1 POP PUSH1 0x0 PUSH1 0x1 PUSH1 0x0 SWAP1 SLOAD SWAP1 PUSH2 0x100 EXP SWAP1 DIV PUSH20 0xFFFFFFFFFFFFFFFFFFFFFFFFFFFFFFFFFFFFFFFF AND PUSH20 0xFFFFFFFFFFFFFFFFFFFFFFFFFFFFFFFFFFFFFFFF AND PUSH4 0xB858183F DUP4 PUSH1 0x40 MLOAD DUP3 PUSH4 0xFFFFFFFF AND PUSH1 0xE0 SHL DUP2 MSTORE PUSH1 0x4 ADD PUSH2 0x1B37 SWAP2 SWAP1 PUSH2 0x30FE JUMP JUMPDEST PUSH1 0x20 PUSH1 0x40 MLOAD DUP1 DUP4 SUB DUP2 PUSH1 0x0 DUP8 GAS CALL ISZERO DUP1 ISZERO PUSH2 0x1B56 JUMPI RETURNDATASIZE PUSH1 0x0 DUP1 RETURNDATACOPY RETURNDATASIZE PUSH1 0x0 REVERT JUMPDEST POP POP POP POP PUSH1 0x40 MLOAD RETURNDATASIZE PUSH1 0x1F NOT PUSH1 0x1F DUP3 ADD AND DUP3 ADD DUP1 PUSH1 0x40 MSTORE POP DUP2 ADD SWAP1 PUSH2 0x1B7A SWAP2 SWAP1 PUSH2 0x24F3 JUMP JUMPDEST SWAP1 POP PUSH1 0x0 PUSH1 0x4 DUP2 SWAP1 SSTORE POP PUSH1 0x0 DUP2 GT ISZERO PUSH2 0x1BC5 JUMPI PUSH32 0x9F7C0331CAE72869B1E69D00E6DBFCEB0E02266830E12339F841D334BC614127 DUP2 PUSH1 0x40 MLOAD PUSH2 0x1BBC SWAP2 SWAP1 PUSH2 0x239C JUMP JUMPDEST PUSH1 0x40 MLOAD DUP1 SWAP2 SUB SWAP1 LOG1 JUMPDEST POP POP JUMPDEST JUMP JUMPDEST PUSH1 0x0 PUSH1 0x5 SLOAD GT ISZERO PUSH2 0x2004 JUMPI PUSH1 0x0 PUSH1 0x2 PUSH8 0xFFFFFFFFFFFFFFFF DUP2 GT ISZERO PUSH2 0x1BF2 JUMPI PUSH2 0x1BF1 PUSH2 0x3120 JUMP JUMPDEST JUMPDEST PUSH1 0x40 MLOAD SWAP1 DUP1 DUP3 MSTORE DUP1 PUSH1 0x20 MUL PUSH1 0x20 ADD DUP3 ADD PUSH1 0x40 MSTORE DUP1 ISZERO PUSH2 0x1C20 JUMPI DUP2 PUSH1 0x20 ADD PUSH1 0x20 DUP3 MUL DUP1 CALLDATASIZE DUP4 CALLDATACOPY DUP1 DUP3 ADD SWAP2 POP POP SWAP1 POP JUMPDEST POP SWAP1 POP PUSH32 0x0 DUP2 PUSH1 0x0 DUP2 MLOAD DUP2 LT PUSH2 0x1C58 JUMPI PUSH2 0x1C57 PUSH2 0x314F JUMP JUMPDEST JUMPDEST PUSH1 0x20 MUL PUSH1 0x20 ADD ADD SWAP1 PUSH20 0xFFFFFFFFFFFFFFFFFFFFFFFFFFFFFFFFFFFFFFFF AND SWAP1 DUP2 PUSH20 0xFFFFFFFFFFFFFFFFFFFFFFFFFFFFFFFFFFFFFFFF AND DUP2 MSTORE POP POP PUSH32 0x0 DUP2 PUSH1 0x1 DUP2 MLOAD DUP2 LT PUSH2 0x1CC7 JUMPI PUSH2 0x1CC6 PUSH2 0x314F JUMP JUMPDEST JUMPDEST PUSH1 0x20 MUL PUSH1 0x20 ADD ADD SWAP1 PUSH20 0xFFFFFFFFFFFFFFFFFFFFFFFFFFFFFFFFFFFFFFFF AND SWAP1 DUP2 PUSH20 0xFFFFFFFFFFFFFFFFFFFFFFFFFFFFFFFFFFFFFFFF AND DUP2 MSTORE POP POP PUSH1 0x0 PUSH1 0x2 PUSH1 0x0 SWAP1 SLOAD SWAP1 PUSH2 0x100 EXP SWAP1 DIV PUSH20 0xFFFFFFFFFFFFFFFFFFFFFFFFFFFFFFFFFFFFFFFF AND PUSH20 0xFFFFFFFFFFFFFFFFFFFFFFFFFFFFFFFFFFFFFFFF AND PUSH4 0xD06CA61F PUSH1 0x5 SLOAD DUP5 PUSH1 0x40 MLOAD DUP4 PUSH4 0xFFFFFFFF AND PUSH1 0xE0 SHL DUP2 MSTORE PUSH1 0x4 ADD PUSH2 0x1D62 SWAP3 SWAP2 SWAP1 PUSH2 0x322D JUMP JUMPDEST PUSH1 0x0 PUSH1 0x40 MLOAD DUP1 DUP4 SUB DUP2 DUP7 GAS STATICCALL ISZERO DUP1 ISZERO PUSH2 0x1D7F JUMPI RETURNDATASIZE PUSH1 0x0 DUP1 RETURNDATACOPY RETURNDATASIZE PUSH1 0x0 REVERT JUMPDEST POP POP POP POP PUSH1 0x40 MLOAD RETURNDATASIZE PUSH1 0x0 DUP3 RETURNDATACOPY RETURNDATASIZE PUSH1 0x1F NOT PUSH1 0x1F DUP3 ADD AND DUP3 ADD DUP1 PUSH1 0x40 MSTORE POP DUP2 ADD SWAP1 PUSH2 0x1DA8 SWAP2 SWAP1 PUSH2 0x3376 JUMP JUMPDEST SWAP1 POP PUSH1 0x0 DUP2 PUSH1 0x1 DUP2 MLOAD DUP2 LT PUSH2 0x1DC0 JUMPI PUSH2 0x1DBF PUSH2 0x314F JUMP JUMPDEST JUMPDEST PUSH1 0x20 MUL PUSH1 0x20 ADD ADD MLOAD SWAP1 POP PUSH1 0x0 PUSH1 0x64 PUSH1 0x50 DUP4 PUSH2 0x1DDB SWAP2 SWAP1 PUSH2 0x2634 JUMP JUMPDEST PUSH2 0x1DE5 SWAP2 SWAP1 PUSH2 0x26A5 JUMP JUMPDEST SWAP1 POP PUSH32 0x0 PUSH20 0xFFFFFFFFFFFFFFFFFFFFFFFFFFFFFFFFFFFFFFFF AND PUSH4 0x95EA7B3 PUSH1 0x2 PUSH1 0x0 SWAP1 SLOAD SWAP1 PUSH2 0x100 EXP SWAP1 DIV PUSH20 0xFFFFFFFFFFFFFFFFFFFFFFFFFFFFFFFFFFFFFFFF AND PUSH1 0x5 SLOAD PUSH1 0x40 MLOAD DUP4 PUSH4 0xFFFFFFFF AND PUSH1 0xE0 SHL DUP2 MSTORE PUSH1 0x4 ADD PUSH2 0x1E66 SWAP3 SWAP2 SWAP1 PUSH2 0x2C21 JUMP JUMPDEST PUSH1 0x20 PUSH1 0x40 MLOAD DUP1 DUP4 SUB DUP2 PUSH1 0x0 DUP8 GAS CALL ISZERO DUP1 ISZERO PUSH2 0x1E85 JUMPI RETURNDATASIZE PUSH1 0x0 DUP1 RETURNDATACOPY RETURNDATASIZE PUSH1 0x0 REVERT JUMPDEST POP POP POP POP PUSH1 0x40 MLOAD RETURNDATASIZE PUSH1 0x1F NOT PUSH1 0x1F DUP3 ADD AND DUP3 ADD DUP1 PUSH1 0x40 MSTORE POP DUP2 ADD SWAP1 PUSH2 0x1EA9 SWAP2 SWAP1 PUSH2 0x2C5F JUMP JUMPDEST POP PUSH1 0x0 PUSH1 0x2 PUSH1 0x0 SWAP1 SLOAD SWAP1 PUSH2 0x100 EXP SWAP1 DIV PUSH20 0xFFFFFFFFFFFFFFFFFFFFFFFFFFFFFFFFFFFFFFFF AND PUSH20 0xFFFFFFFFFFFFFFFFFFFFFFFFFFFFFFFFFFFFFFFF AND PUSH4 0x38ED1739 PUSH1 0x5 SLOAD DUP5 DUP9 PUSH32 0x0 PUSH2 0x12C TIMESTAMP PUSH2 0x1F1E SWAP2 SWAP1 PUSH2 0x254F JUMP JUMPDEST PUSH1 0x40 MLOAD DUP7 PUSH4 0xFFFFFFFF AND PUSH1 0xE0 SHL DUP2 MSTORE PUSH1 0x4 ADD PUSH2 0x1F3E SWAP6 SWAP5 SWAP4 SWAP3 SWAP2 SWAP1 PUSH2 0x33BF JUMP JUMPDEST PUSH1 0x0 PUSH1 0x40 MLOAD DUP1 DUP4 SUB DUP2 PUSH1 0x0 DUP8 GAS CALL ISZERO DUP1 ISZERO PUSH2 0x1F5D JUMPI RETURNDATASIZE PUSH1 0x0 DUP1 RETURNDATACOPY RETURNDATASIZE PUSH1 0x0 REVERT JUMPDEST POP POP POP POP PUSH1 0x40 MLOAD RETURNDATASIZE PUSH1 0x0 DUP3 RETURNDATACOPY RETURNDATASIZE PUSH1 0x1F NOT PUSH1 0x1F DUP3 ADD AND DUP3 ADD DUP1 PUSH1 0x40 MSTORE POP DUP2 ADD SWAP1 PUSH2 0x1F86 SWAP2 SWAP1 PUSH2 0x3376 JUMP JUMPDEST SWAP1 POP PUSH1 0x0 DUP2 PUSH1 0x1 DUP4 MLOAD PUSH2 0x1F99 SWAP2 SWAP1 PUSH2 0x2600 JUMP JUMPDEST DUP2 MLOAD DUP2 LT PUSH2 0x1FAA JUMPI PUSH2 0x1FA9 PUSH2 0x314F JUMP JUMPDEST JUMPDEST PUSH1 0x20 MUL PUSH1 0x20 ADD ADD MLOAD SWAP1 POP PUSH1 0x0 PUSH1 0x5 DUP2 SWAP1 SSTORE POP PUSH1 0x0 DUP2 GT ISZERO PUSH2 0x1FFD JUMPI PUSH32 0xCB42363DCC1840222268FE43EEBC976F3E311A14761E5396EB394EBDAC90A582 DUP2 PUSH1 0x40 MLOAD PUSH2 0x1FF4 SWAP2 SWAP1 PUSH2 0x239C JUMP JUMPDEST PUSH1 0x40 MLOAD DUP1 SWAP2 SUB SWAP1 LOG1 JUMPDEST POP POP POP POP POP POP JUMPDEST JUMP JUMPDEST PUSH2 0x200E PUSH2 0x218F JUMP JUMPDEST PUSH20 0xFFFFFFFFFFFFFFFFFFFFFFFFFFFFFFFFFFFFFFFF AND PUSH2 0x202C PUSH2 0xE74 JUMP JUMPDEST PUSH20 0xFFFFFFFFFFFFFFFFFFFFFFFFFFFFFFFFFFFFFFFF AND EQ PUSH2 0x208B JUMPI PUSH2 0x204F PUSH2 0x218F JUMP JUMPDEST PUSH1 0x40 MLOAD PUSH32 0x118CDAA700000000000000000000000000000000000000000000000000000000 DUP2 MSTORE PUSH1 0x4 ADD PUSH2 0x2082 SWAP2 SWAP1 PUSH2 0x226C JUMP JUMPDEST PUSH1 0x40 MLOAD DUP1 SWAP2 SUB SWAP1 REVERT JUMPDEST JUMP JUMPDEST PUSH2 0x2095 PUSH2 0x2197 JUMP JUMPDEST PUSH1 0x2 PUSH2 0x20A7 PUSH2 0x20A2 PUSH2 0x21D8 JUMP JUMPDEST PUSH2 0x2203 JUMP JUMPDEST PUSH1 0x0 ADD DUP2 SWAP1 SSTORE POP JUMP JUMPDEST PUSH1 0x1 PUSH2 0x20C2 PUSH2 0x20BD PUSH2 0x21D8 JUMP JUMPDEST PUSH2 0x2203 JUMP JUMPDEST PUSH1 0x0 ADD DUP2 SWAP1 SSTORE POP JUMP JUMPDEST PUSH1 0x0 DUP1 PUSH1 0x0 SWAP1 SLOAD SWAP1 PUSH2 0x100 EXP SWAP1 DIV PUSH20 0xFFFFFFFFFFFFFFFFFFFFFFFFFFFFFFFFFFFFFFFF AND SWAP1 POP DUP2 PUSH1 0x0 DUP1 PUSH2 0x100 EXP DUP2 SLOAD DUP2 PUSH20 0xFFFFFFFFFFFFFFFFFFFFFFFFFFFFFFFFFFFFFFFF MUL NOT AND SWAP1 DUP4 PUSH20 0xFFFFFFFFFFFFFFFFFFFFFFFFFFFFFFFFFFFFFFFF AND MUL OR SWAP1 SSTORE POP DUP2 PUSH20 0xFFFFFFFFFFFFFFFFFFFFFFFFFFFFFFFFFFFFFFFF AND DUP2 PUSH20 0xFFFFFFFFFFFFFFFFFFFFFFFFFFFFFFFFFFFFFFFF AND PUSH32 0x8BE0079C531659141344CD1FD0A4F28419497F9722A3DAAFE3B4186F6B6457E0 PUSH1 0x40 MLOAD PUSH1 0x40 MLOAD DUP1 SWAP2 SUB SWAP1 LOG3 POP POP JUMP JUMPDEST PUSH1 0x0 CALLER SWAP1 POP SWAP1 JUMP JUMPDEST PUSH2 0x219F PUSH2 0x220D JUMP JUMPDEST ISZERO PUSH2 0x21D6 JUMPI PUSH1 0x40 MLOAD PUSH32 0x3EE5AEB500000000000000000000000000000000000000000000000000000000 DUP2 MSTORE PUSH1 0x4 ADD PUSH1 0x40 MLOAD DUP1 SWAP2 SUB SWAP1 REVERT JUMPDEST JUMP JUMPDEST PUSH1 0x0 PUSH32 0x9B779B17422D0DF92223018B32B4D1FA46E071723D6817E2486D003BECC55F00 PUSH1 0x0 SHL SWAP1 POP SWAP1 JUMP JUMPDEST PUSH1 0x0 DUP2 SWAP1 POP SWAP2 SWAP1 POP JUMP JUMPDEST PUSH1 0x0 PUSH1 0x2 PUSH2 0x2221 PUSH2 0x221C PUSH2 0x21D8 JUMP JUMPDEST PUSH2 0x2203 JUMP JUMPDEST PUSH1 0x0 ADD SLOAD EQ SWAP1 POP SWAP1 JUMP JUMPDEST PUSH1 0x0 PUSH20 0xFFFFFFFFFFFFFFFFFFFFFFFFFFFFFFFFFFFFFFFF DUP3 AND SWAP1 POP SWAP2 SWAP1 POP JUMP JUMPDEST PUSH1 0x0 PUSH2 0x2256 DUP3 PUSH2 0x222B JUMP JUMPDEST SWAP1 POP SWAP2 SWAP1 POP JUMP JUMPDEST PUSH2 0x2266 DUP2 PUSH2 0x224B JUMP JUMPDEST DUP3 MSTORE POP POP JUMP JUMPDEST PUSH1 0x0 PUSH1 0x20 DUP3 ADD SWAP1 POP PUSH2 0x2281 PUSH1 0x0 DUP4 ADD DUP5 PUSH2 0x225D JUMP JUMPDEST SWAP3 SWAP2 POP POP JUMP JUMPDEST PUSH1 0x0 PUSH1 0x40 MLOAD SWAP1 POP SWAP1 JUMP JUMPDEST PUSH1 0x0 DUP1 REVERT JUMPDEST PUSH1 0x0 DUP1 REVERT JUMPDEST PUSH2 0x22A4 DUP2 PUSH2 0x224B JUMP JUMPDEST DUP2 EQ PUSH2 0x22AF JUMPI PUSH1 0x0 DUP1 REVERT JUMPDEST POP JUMP JUMPDEST PUSH1 0x0 DUP2 CALLDATALOAD SWAP1 POP PUSH2 0x22C1 DUP2 PUSH2 0x229B JUMP JUMPDEST SWAP3 SWAP2 POP POP JUMP JUMPDEST PUSH1 0x0 PUSH1 0x20 DUP3 DUP5 SUB SLT ISZERO PUSH2 0x22DD JUMPI PUSH2 0x22DC PUSH2 0x2291 JUMP JUMPDEST JUMPDEST PUSH1 0x0 PUSH2 0x22EB DUP5 DUP3 DUP6 ADD PUSH2 0x22B2 JUMP JUMPDEST SWAP2 POP POP SWAP3 SWAP2 POP POP JUMP JUMPDEST PUSH1 0x0 DUP2 ISZERO ISZERO SWAP1 POP SWAP2 SWAP1 POP JUMP JUMPDEST PUSH2 0x2309 DUP2 PUSH2 0x22F4 JUMP JUMPDEST DUP3 MSTORE POP POP JUMP JUMPDEST PUSH1 0x0 PUSH1 0x20 DUP3 ADD SWAP1 POP PUSH2 0x2324 PUSH1 0x0 DUP4 ADD DUP5 PUSH2 0x2300 JUMP JUMPDEST SWAP3 SWAP2 POP POP JUMP JUMPDEST PUSH2 0x2333 DUP2 PUSH2 0x22F4 JUMP JUMPDEST DUP2 EQ PUSH2 0x233E JUMPI PUSH1 0x0 DUP1 REVERT JUMPDEST POP JUMP JUMPDEST PUSH1 0x0 DUP2 CALLDATALOAD SWAP1 POP PUSH2 0x2350 DUP2 PUSH2 0x232A JUMP JUMPDEST SWAP3 SWAP2 POP POP JUMP JUMPDEST PUSH1 0x0 PUSH1 0x20 DUP3 DUP5 SUB SLT ISZERO PUSH2 0x236C JUMPI PUSH2 0x236B PUSH2 0x2291 JUMP JUMPDEST JUMPDEST PUSH1 0x0 PUSH2 0x237A DUP5 DUP3 DUP6 ADD PUSH2 0x2341 JUMP JUMPDEST SWAP2 POP POP SWAP3 SWAP2 POP POP JUMP JUMPDEST PUSH1 0x0 DUP2 SWAP1 POP SWAP2 SWAP1 POP JUMP JUMPDEST PUSH2 0x2396 DUP2 PUSH2 0x2383 JUMP JUMPDEST DUP3 MSTORE POP POP JUMP JUMPDEST PUSH1 0x0 PUSH1 0x20 DUP3 ADD SWAP1 POP PUSH2 0x23B1 PUSH1 0x0 DUP4 ADD DUP5 PUSH2 0x238D JUMP JUMPDEST SWAP3 SWAP2 POP POP JUMP JUMPDEST PUSH1 0x0 PUSH2 0x23C2 DUP3 PUSH2 0x222B JUMP JUMPDEST SWAP1 POP SWAP2 SWAP1 POP JUMP JUMPDEST PUSH2 0x23D2 DUP2 PUSH2 0x23B7 JUMP JUMPDEST DUP3 MSTORE POP POP JUMP JUMPDEST PUSH1 0x0 PUSH1 0x20 DUP3 ADD SWAP1 POP PUSH2 0x23ED PUSH1 0x0 DUP4 ADD DUP5 PUSH2 0x23C9 JUMP JUMPDEST SWAP3 SWAP2 POP POP JUMP JUMPDEST PUSH2 0x23FC DUP2 PUSH2 0x2383 JUMP JUMPDEST DUP2 EQ PUSH2 0x2407 JUMPI PUSH1 0x0 DUP1 REVERT JUMPDEST POP JUMP JUMPDEST PUSH1 0x0 DUP2 CALLDATALOAD SWAP1 POP PUSH2 0x2419 DUP2 PUSH2 0x23F3 JUMP JUMPDEST SWAP3 SWAP2 POP POP JUMP JUMPDEST PUSH2 0x2428 DUP2 PUSH2 0x23B7 JUMP JUMPDEST DUP2 EQ PUSH2 0x2433 JUMPI PUSH1 0x0 DUP1 REVERT JUMPDEST POP JUMP JUMPDEST PUSH1 0x0 DUP2 CALLDATALOAD SWAP1 POP PUSH2 0x2445 DUP2 PUSH2 0x241F JUMP JUMPDEST SWAP3 SWAP2 POP POP JUMP JUMPDEST PUSH1 0x0 DUP1 PUSH1 0x40 DUP4 DUP6 SUB SLT ISZERO PUSH2 0x2462 JUMPI PUSH2 0x2461 PUSH2 0x2291 JUMP JUMPDEST JUMPDEST PUSH1 0x0 PUSH2 0x2470 DUP6 DUP3 DUP7 ADD PUSH2 0x240A JUMP JUMPDEST SWAP3 POP POP PUSH1 0x20 PUSH2 0x2481 DUP6 DUP3 DUP7 ADD PUSH2 0x2436 JUMP JUMPDEST SWAP2 POP POP SWAP3 POP SWAP3 SWAP1 POP JUMP JUMPDEST PUSH1 0x0 DUP1 PUSH1 0x0 PUSH1 0x60 DUP5 DUP7 SUB SLT ISZERO PUSH2 0x24A4 JUMPI PUSH2 0x24A3 PUSH2 0x2291 JUMP JUMPDEST JUMPDEST PUSH1 0x0 PUSH2 0x24B2 DUP7 DUP3 DUP8 ADD PUSH2 0x22B2 JUMP JUMPDEST SWAP4 POP POP PUSH1 0x20 PUSH2 0x24C3 DUP7 DUP3 DUP8 ADD PUSH2 0x240A JUMP JUMPDEST SWAP3 POP POP PUSH1 0x40 PUSH2 0x24D4 DUP7 DUP3 DUP8 ADD PUSH2 0x22B2 JUMP JUMPDEST SWAP2 POP POP SWAP3 POP SWAP3 POP SWAP3 JUMP JUMPDEST PUSH1 0x0 DUP2 MLOAD SWAP1 POP PUSH2 0x24ED DUP2 PUSH2 0x23F3 JUMP JUMPDEST SWAP3 SWAP2 POP POP JUMP JUMPDEST PUSH1 0x0 PUSH1 0x20 DUP3 DUP5 SUB SLT ISZERO PUSH2 0x2509 JUMPI PUSH2 0x2508 PUSH2 0x2291 JUMP JUMPDEST JUMPDEST PUSH1 0x0 PUSH2 0x2517 DUP5 DUP3 DUP6 ADD PUSH2 0x24DE JUMP JUMPDEST SWAP2 POP POP SWAP3 SWAP2 POP POP JUMP JUMPDEST PUSH32 0x4E487B7100000000000000000000000000000000000000000000000000000000 PUSH1 0x0 MSTORE PUSH1 0x11 PUSH1 0x4 MSTORE PUSH1 0x24 PUSH1 0x0 REVERT JUMPDEST PUSH1 0x0 PUSH2 0x255A DUP3 PUSH2 0x2383 JUMP JUMPDEST SWAP2 POP PUSH2 0x2565 DUP4 PUSH2 0x2383 JUMP JUMPDEST SWAP3 POP DUP3 DUP3 ADD SWAP1 POP DUP1 DUP3 GT ISZERO PUSH2 0x257D JUMPI PUSH2 0x257C PUSH2 0x2520 JUMP JUMPDEST JUMPDEST SWAP3 SWAP2 POP POP JUMP JUMPDEST PUSH1 0x0 DUP3 DUP3 MSTORE PUSH1 0x20 DUP3 ADD SWAP1 POP SWAP3 SWAP2 POP POP JUMP JUMPDEST PUSH32 0x42616C616E6365206572726F7200000000000000000000000000000000000000 PUSH1 0x0 DUP3 ADD MSTORE POP JUMP JUMPDEST PUSH1 0x0 PUSH2 0x25CA PUSH1 0xD DUP4 PUSH2 0x2583 JUMP JUMPDEST SWAP2 POP PUSH2 0x25D5 DUP3 PUSH2 0x2594 JUMP JUMPDEST PUSH1 0x20 DUP3 ADD SWAP1 POP SWAP2 SWAP1 POP JUMP JUMPDEST PUSH1 0x0 PUSH1 0x20 DUP3 ADD SWAP1 POP DUP2 DUP2 SUB PUSH1 0x0 DUP4 ADD MSTORE PUSH2 0x25F9 DUP2 PUSH2 0x25BD JUMP JUMPDEST SWAP1 POP SWAP2 SWAP1 POP JUMP JUMPDEST PUSH1 0x0 PUSH2 0x260B DUP3 PUSH2 0x2383 JUMP JUMPDEST SWAP2 POP PUSH2 0x2616 DUP4 PUSH2 0x2383 JUMP JUMPDEST SWAP3 POP DUP3 DUP3 SUB SWAP1 POP DUP2 DUP2 GT ISZERO PUSH2 0x262E JUMPI PUSH2 0x262D PUSH2 0x2520 JUMP JUMPDEST JUMPDEST SWAP3 SWAP2 POP POP JUMP JUMPDEST PUSH1 0x0 PUSH2 0x263F DUP3 PUSH2 0x2383 JUMP JUMPDEST SWAP2 POP PUSH2 0x264A DUP4 PUSH2 0x2383 JUMP JUMPDEST SWAP3 POP DUP3 DUP3 MUL PUSH2 0x2658 DUP2 PUSH2 0x2383 JUMP JUMPDEST SWAP2 POP DUP3 DUP3 DIV DUP5 EQ DUP4 ISZERO OR PUSH2 0x266F JUMPI PUSH2 0x266E PUSH2 0x2520 JUMP JUMPDEST JUMPDEST POP SWAP3 SWAP2 POP POP JUMP JUMPDEST PUSH32 0x4E487B7100000000000000000000000000000000000000000000000000000000 PUSH1 0x0 MSTORE PUSH1 0x12 PUSH1 0x4 MSTORE PUSH1 0x24 PUSH1 0x0 REVERT JUMPDEST PUSH1 0x0 PUSH2 0x26B0 DUP3 PUSH2 0x2383 JUMP JUMPDEST SWAP2 POP PUSH2 0x26BB DUP4 PUSH2 0x2383 JUMP JUMPDEST SWAP3 POP DUP3 PUSH2 0x26CB JUMPI PUSH2 0x26CA PUSH2 0x2676 JUMP JUMPDEST JUMPDEST DUP3 DUP3 DIV SWAP1 POP SWAP3 SWAP2 POP POP JUMP JUMPDEST PUSH1 0x0 PUSH1 0x80 DUP3 ADD SWAP1 POP PUSH2 0x26EB PUSH1 0x0 DUP4 ADD DUP8 PUSH2 0x238D JUMP JUMPDEST PUSH2 0x26F8 PUSH1 0x20 DUP4 ADD DUP7 PUSH2 0x238D JUMP JUMPDEST PUSH2 0x2705 PUSH1 0x40 DUP4 ADD DUP6 PUSH2 0x238D JUMP JUMPDEST PUSH2 0x2712 PUSH1 0x60 DUP4 ADD DUP5 PUSH2 0x238D JUMP JUMPDEST SWAP6 SWAP5 POP POP POP POP POP JUMP JUMPDEST PUSH32 0x4E6F742077686974656C69737465640000000000000000000000000000000000 PUSH1 0x0 DUP3 ADD MSTORE POP JUMP JUMPDEST PUSH1 0x0 PUSH2 0x2751 PUSH1 0xF DUP4 PUSH2 0x2583 JUMP JUMPDEST SWAP2 POP PUSH2 0x275C DUP3 PUSH2 0x271B JUMP JUMPDEST PUSH1 0x20 DUP3 ADD SWAP1 POP SWAP2 SWAP1 POP JUMP JUMPDEST PUSH1 0x0 PUSH1 0x20 DUP3 ADD SWAP1 POP DUP2 DUP2 SUB PUSH1 0x0 DUP4 ADD MSTORE PUSH2 0x2780 DUP2 PUSH2 0x2744 JUMP JUMPDEST SWAP1 POP SWAP2 SWAP1 POP JUMP JUMPDEST PUSH32 0x4E6F2062616C616E63657320746F206275726E00000000000000000000000000 PUSH1 0x0 DUP3 ADD MSTORE POP JUMP JUMPDEST PUSH1 0x0 PUSH2 0x27BD PUSH1 0x13 DUP4 PUSH2 0x2583 JUMP JUMPDEST SWAP2 POP PUSH2 0x27C8 DUP3 PUSH2 0x2787 JUMP JUMPDEST PUSH1 0x20 DUP3 ADD SWAP1 POP SWAP2 SWAP1 POP JUMP JUMPDEST PUSH1 0x0 PUSH1 0x20 DUP3 ADD SWAP1 POP DUP2 DUP2 SUB PUSH1 0x0 DUP4 ADD MSTORE PUSH2 0x27EC DUP2 PUSH2 0x27B0 JUMP JUMPDEST SWAP1 POP SWAP2 SWAP1 POP JUMP JUMPDEST PUSH32 0x496E76616C6964204E465420636F6E7472616374206164647265737300000000 PUSH1 0x0 DUP3 ADD MSTORE POP JUMP JUMPDEST PUSH1 0x0 PUSH2 0x2829 PUSH1 0x1C DUP4 PUSH2 0x2583 JUMP JUMPDEST SWAP2 POP PUSH2 0x2834 DUP3 PUSH2 0x27F3 JUMP JUMPDEST PUSH1 0x20 DUP3 ADD SWAP1 POP SWAP2 SWAP1 POP JUMP JUMPDEST PUSH1 0x0 PUSH1 0x20 DUP3 ADD SWAP1 POP DUP2 DUP2 SUB PUSH1 0x0 DUP4 ADD MSTORE PUSH2 0x2858 DUP2 PUSH2 0x281C JUMP JUMPDEST SWAP1 POP SWAP2 SWAP1 POP JUMP JUMPDEST PUSH32 0x416C72656164792077686974656C697374656400000000000000000000000000 PUSH1 0x0 DUP3 ADD MSTORE POP JUMP JUMPDEST PUSH1 0x0 PUSH2 0x2895 PUSH1 0x13 DUP4 PUSH2 0x2583 JUMP JUMPDEST SWAP2 POP PUSH2 0x28A0 DUP3 PUSH2 0x285F JUMP JUMPDEST PUSH1 0x20 DUP3 ADD SWAP1 POP SWAP2 SWAP1 POP JUMP JUMPDEST PUSH1 0x0 PUSH1 0x20 DUP3 ADD SWAP1 POP DUP2 DUP2 SUB PUSH1 0x0 DUP4 ADD MSTORE PUSH2 0x28C4 DUP2 PUSH2 0x2888 JUMP JUMPDEST SWAP1 POP SWAP2 SWAP1 POP JUMP JUMPDEST PUSH32 0x496E76616C696420726563697069656E74000000000000000000000000000000 PUSH1 0x0 DUP3 ADD MSTORE POP JUMP JUMPDEST PUSH1 0x0 PUSH2 0x2901 PUSH1 0x11 DUP4 PUSH2 0x2583 JUMP JUMPDEST SWAP2 POP PUSH2 0x290C DUP3 PUSH2 0x28CB JUMP JUMPDEST PUSH1 0x20 DUP3 ADD SWAP1 POP SWAP2 SWAP1 POP JUMP JUMPDEST PUSH1 0x0 PUSH1 0x20 DUP3 ADD SWAP1 POP DUP2 DUP2 SUB PUSH1 0x0 DUP4 ADD MSTORE PUSH2 0x2930 DUP2 PUSH2 0x28F4 JUMP JUMPDEST SWAP1 POP SWAP2 SWAP1 POP JUMP JUMPDEST PUSH32 0x4E6F7420656E6F75676820455448000000000000000000000000000000000000 PUSH1 0x0 DUP3 ADD MSTORE POP JUMP JUMPDEST PUSH1 0x0 PUSH2 0x296D PUSH1 0xE DUP4 PUSH2 0x2583 JUMP JUMPDEST SWAP2 POP PUSH2 0x2978 DUP3 PUSH2 0x2937 JUMP JUMPDEST PUSH1 0x20 DUP3 ADD SWAP1 POP SWAP2 SWAP1 POP JUMP JUMPDEST PUSH1 0x0 PUSH1 0x20 DUP3 ADD SWAP1 POP DUP2 DUP2 SUB PUSH1 0x0 DUP4 ADD MSTORE PUSH2 0x299C DUP2 PUSH2 0x2960 JUMP JUMPDEST SWAP1 POP SWAP2 SWAP1 POP JUMP JUMPDEST PUSH1 0x0 DUP2 SWAP1 POP SWAP3 SWAP2 POP POP JUMP JUMPDEST POP JUMP JUMPDEST PUSH1 0x0 PUSH2 0x29BE PUSH1 0x0 DUP4 PUSH2 0x29A3 JUMP JUMPDEST SWAP2 POP PUSH2 0x29C9 DUP3 PUSH2 0x29AE JUMP JUMPDEST PUSH1 0x0 DUP3 ADD SWAP1 POP SWAP2 SWAP1 POP JUMP JUMPDEST PUSH1 0x0 PUSH2 0x29DF DUP3 PUSH2 0x29B1 JUMP JUMPDEST SWAP2 POP DUP2 SWAP1 POP SWAP2 SWAP1 POP JUMP JUMPDEST PUSH32 0x455448207472616E73666572206661696C656400000000000000000000000000 PUSH1 0x0 DUP3 ADD MSTORE POP JUMP JUMPDEST PUSH1 0x0 PUSH2 0x2A1F PUSH1 0x13 DUP4 PUSH2 0x2583 JUMP JUMPDEST SWAP2 POP PUSH2 0x2A2A DUP3 PUSH2 0x29E9 JUMP JUMPDEST PUSH1 0x20 DUP3 ADD SWAP1 POP SWAP2 SWAP1 POP JUMP JUMPDEST PUSH1 0x0 PUSH1 0x20 DUP3 ADD SWAP1 POP DUP2 DUP2 SUB PUSH1 0x0 DUP4 ADD MSTORE PUSH2 0x2A4E DUP2 PUSH2 0x2A12 JUMP JUMPDEST SWAP1 POP SWAP2 SWAP1 POP JUMP JUMPDEST PUSH1 0x0 DUP2 SWAP1 POP SWAP2 SWAP1 POP JUMP JUMPDEST PUSH1 0x0 PUSH2 0x2A7A PUSH2 0x2A75 PUSH2 0x2A70 DUP5 PUSH2 0x222B JUMP JUMPDEST PUSH2 0x2A55 JUMP JUMPDEST PUSH2 0x222B JUMP JUMPDEST SWAP1 POP SWAP2 SWAP1 POP JUMP JUMPDEST PUSH1 0x0 PUSH2 0x2A8C DUP3 PUSH2 0x2A5F JUMP JUMPDEST SWAP1 POP SWAP2 SWAP1 POP JUMP JUMPDEST PUSH1 0x0 PUSH2 0x2A9E DUP3 PUSH2 0x2A81 JUMP JUMPDEST SWAP1 POP SWAP2 SWAP1 POP JUMP JUMPDEST PUSH2 0x2AAE DUP2 PUSH2 0x2A93 JUMP JUMPDEST DUP3 MSTORE POP POP JUMP JUMPDEST PUSH1 0x0 PUSH1 0x40 DUP3 ADD SWAP1 POP PUSH2 0x2AC9 PUSH1 0x0 DUP4 ADD DUP6 PUSH2 0x238D JUMP JUMPDEST PUSH2 0x2AD6 PUSH1 0x20 DUP4 ADD DUP5 PUSH2 0x2AA5 JUMP JUMPDEST SWAP4 SWAP3 POP POP POP JUMP JUMPDEST PUSH32 0x4E6F7420656E6F75676820746F6B656E2062616C616E63650000000000000000 PUSH1 0x0 DUP3 ADD MSTORE POP JUMP JUMPDEST PUSH1 0x0 PUSH2 0x2B13 PUSH1 0x18 DUP4 PUSH2 0x2583 JUMP JUMPDEST SWAP2 POP PUSH2 0x2B1E DUP3 PUSH2 0x2ADD JUMP JUMPDEST PUSH1 0x20 DUP3 ADD SWAP1 POP SWAP2 SWAP1 POP JUMP JUMPDEST PUSH1 0x0 PUSH1 0x20 DUP3 ADD SWAP1 POP DUP2 DUP2 SUB PUSH1 0x0 DUP4 ADD MSTORE PUSH2 0x2B42 DUP2 PUSH2 0x2B06 JUMP JUMPDEST SWAP1 POP SWAP2 SWAP1 POP JUMP JUMPDEST PUSH32 0x4E6F20657863657373205745544E20746F207265736375650000000000000000 PUSH1 0x0 DUP3 ADD MSTORE POP JUMP JUMPDEST PUSH1 0x0 PUSH2 0x2B7F PUSH1 0x18 DUP4 PUSH2 0x2583 JUMP JUMPDEST SWAP2 POP PUSH2 0x2B8A DUP3 PUSH2 0x2B49 JUMP JUMPDEST PUSH1 0x20 DUP3 ADD SWAP1 POP SWAP2 SWAP1 POP JUMP JUMPDEST PUSH1 0x0 PUSH1 0x20 DUP3 ADD SWAP1 POP DUP2 DUP2 SUB PUSH1 0x0 DUP4 ADD MSTORE PUSH2 0x2BAE DUP2 PUSH2 0x2B72 JUMP JUMPDEST SWAP1 POP SWAP2 SWAP1 POP JUMP JUMPDEST PUSH32 0x416D6F756E74206578636565647320657863657373205745544E000000000000 PUSH1 0x0 DUP3 ADD MSTORE POP JUMP JUMPDEST PUSH1 0x0 PUSH2 0x2BEB PUSH1 0x1A DUP4 PUSH2 0x2583 JUMP JUMPDEST SWAP2 POP PUSH2 0x2BF6 DUP3 PUSH2 0x2BB5 JUMP JUMPDEST PUSH1 0x20 DUP3 ADD SWAP1 POP SWAP2 SWAP1 POP JUMP JUMPDEST PUSH1 0x0 PUSH1 0x20 DUP3 ADD SWAP1 POP DUP2 DUP2 SUB PUSH1 0x0 DUP4 ADD MSTORE PUSH2 0x2C1A DUP2 PUSH2 0x2BDE JUMP JUMPDEST SWAP1 POP SWAP2 SWAP1 POP JUMP JUMPDEST PUSH1 0x0 PUSH1 0x40 DUP3 ADD SWAP1 POP PUSH2 0x2C36 PUSH1 0x0 DUP4 ADD DUP6 PUSH2 0x225D JUMP JUMPDEST PUSH2 0x2C43 PUSH1 0x20 DUP4 ADD DUP5 PUSH2 0x238D JUMP JUMPDEST SWAP4 SWAP3 POP POP POP JUMP JUMPDEST PUSH1 0x0 DUP2 MLOAD SWAP1 POP PUSH2 0x2C59 DUP2 PUSH2 0x232A JUMP JUMPDEST SWAP3 SWAP2 POP POP JUMP JUMPDEST PUSH1 0x0 PUSH1 0x20 DUP3 DUP5 SUB SLT ISZERO PUSH2 0x2C75 JUMPI PUSH2 0x2C74 PUSH2 0x2291 JUMP JUMPDEST JUMPDEST PUSH1 0x0 PUSH2 0x2C83 DUP5 DUP3 DUP6 ADD PUSH2 0x2C4A JUMP JUMPDEST SWAP2 POP POP SWAP3 SWAP2 POP POP JUMP JUMPDEST PUSH32 0x546F6B656E207472616E73666572206661696C65640000000000000000000000 PUSH1 0x0 DUP3 ADD MSTORE POP JUMP JUMPDEST PUSH1 0x0 PUSH2 0x2CC2 PUSH1 0x15 DUP4 PUSH2 0x2583 JUMP JUMPDEST SWAP2 POP PUSH2 0x2CCD DUP3 PUSH2 0x2C8C JUMP JUMPDEST PUSH1 0x20 DUP3 ADD SWAP1 POP SWAP2 SWAP1 POP JUMP JUMPDEST PUSH1 0x0 PUSH1 0x20 DUP3 ADD SWAP1 POP DUP2 DUP2 SUB PUSH1 0x0 DUP4 ADD MSTORE PUSH2 0x2CF1 DUP2 PUSH2 0x2CB5 JUMP JUMPDEST SWAP1 POP SWAP2 SWAP1 POP JUMP JUMPDEST PUSH1 0x0 PUSH1 0x60 DUP3 ADD SWAP1 POP PUSH2 0x2D0D PUSH1 0x0 DUP4 ADD DUP7 PUSH2 0x225D JUMP JUMPDEST PUSH2 0x2D1A PUSH1 0x20 DUP4 ADD DUP6 PUSH2 0x238D JUMP JUMPDEST PUSH2 0x2D27 PUSH1 0x40 DUP4 ADD DUP5 PUSH2 0x225D JUMP JUMPDEST SWAP5 SWAP4 POP POP POP POP JUMP JUMPDEST PUSH32 0x436F72652077616C6C6574207472616E73666572206661696C65640000000000 PUSH1 0x0 DUP3 ADD MSTORE POP JUMP JUMPDEST PUSH1 0x0 PUSH2 0x2D65 PUSH1 0x1B DUP4 PUSH2 0x2583 JUMP JUMPDEST SWAP2 POP PUSH2 0x2D70 DUP3 PUSH2 0x2D2F JUMP JUMPDEST PUSH1 0x20 DUP3 ADD SWAP1 POP SWAP2 SWAP1 POP JUMP JUMPDEST PUSH1 0x0 PUSH1 0x20 DUP3 ADD SWAP1 POP DUP2 DUP2 SUB PUSH1 0x0 DUP4 ADD MSTORE PUSH2 0x2D94 DUP2 PUSH2 0x2D58 JUMP JUMPDEST SWAP1 POP SWAP2 SWAP1 POP JUMP JUMPDEST PUSH32 0x556E617574686F72697A65643A204F6E6C79206F776E6572206F722077686974 PUSH1 0x0 DUP3 ADD MSTORE PUSH32 0x656C6973746564204E4654000000000000000000000000000000000000000000 PUSH1 0x20 DUP3 ADD MSTORE POP JUMP JUMPDEST PUSH1 0x0 PUSH2 0x2DF7 PUSH1 0x2B DUP4 PUSH2 0x2583 JUMP JUMPDEST SWAP2 POP PUSH2 0x2E02 DUP3 PUSH2 0x2D9B JUMP JUMPDEST PUSH1 0x40 DUP3 ADD SWAP1 POP SWAP2 SWAP1 POP JUMP JUMPDEST PUSH1 0x0 PUSH1 0x20 DUP3 ADD SWAP1 POP DUP2 DUP2 SUB PUSH1 0x0 DUP4 ADD MSTORE PUSH2 0x2E26 DUP2 PUSH2 0x2DEA JUMP JUMPDEST SWAP1 POP SWAP2 SWAP1 POP JUMP JUMPDEST PUSH32 0x4E6F20636F72652062616C616E636520746F206275726E000000000000000000 PUSH1 0x0 DUP3 ADD MSTORE POP JUMP JUMPDEST PUSH1 0x0 PUSH2 0x2E63 PUSH1 0x17 DUP4 PUSH2 0x2583 JUMP JUMPDEST SWAP2 POP PUSH2 0x2E6E DUP3 PUSH2 0x2E2D JUMP JUMPDEST PUSH1 0x20 DUP3 ADD SWAP1 POP SWAP2 SWAP1 POP JUMP JUMPDEST PUSH1 0x0 PUSH1 0x20 DUP3 ADD SWAP1 POP DUP2 DUP2 SUB PUSH1 0x0 DUP4 ADD MSTORE PUSH2 0x2E92 DUP2 PUSH2 0x2E56 JUMP JUMPDEST SWAP1 POP SWAP2 SWAP1 POP JUMP JUMPDEST PUSH1 0x0 DUP2 MLOAD SWAP1 POP PUSH2 0x2EA8 DUP2 PUSH2 0x229B JUMP JUMPDEST SWAP3 SWAP2 POP POP JUMP JUMPDEST PUSH1 0x0 PUSH1 0x20 DUP3 DUP5 SUB SLT ISZERO PUSH2 0x2EC4 JUMPI PUSH2 0x2EC3 PUSH2 0x2291 JUMP JUMPDEST JUMPDEST PUSH1 0x0 PUSH2 0x2ED2 DUP5 DUP3 DUP6 ADD PUSH2 0x2E99 JUMP JUMPDEST SWAP2 POP POP SWAP3 SWAP2 POP POP JUMP JUMPDEST PUSH1 0x0 PUSH2 0x2EE6 DUP3 PUSH2 0x2383 JUMP JUMPDEST SWAP2 POP PUSH32 0xFFFFFFFFFFFFFFFFFFFFFFFFFFFFFFFFFFFFFFFFFFFFFFFFFFFFFFFFFFFFFFFF DUP3 SUB PUSH2 0x2F18 JUMPI PUSH2 0x2F17 PUSH2 0x2520 JUMP JUMPDEST JUMPDEST PUSH1 0x1 DUP3 ADD SWAP1 POP SWAP2 SWAP1 POP JUMP JUMPDEST PUSH1 0x0 DUP2 PUSH1 0x60 SHL SWAP1 POP SWAP2 SWAP1 POP JUMP JUMPDEST PUSH1 0x0 PUSH2 0x2F3B DUP3 PUSH2 0x2F23 JUMP JUMPDEST SWAP1 POP SWAP2 SWAP1 POP JUMP JUMPDEST PUSH1 0x0 PUSH2 0x2F4D DUP3 PUSH2 0x2F30 JUMP JUMPDEST SWAP1 POP SWAP2 SWAP1 POP JUMP JUMPDEST PUSH2 0x2F65 PUSH2 0x2F60 DUP3 PUSH2 0x224B JUMP JUMPDEST PUSH2 0x2F42 JUMP JUMPDEST DUP3 MSTORE POP POP JUMP JUMPDEST PUSH1 0x0 PUSH3 0xFFFFFF DUP3 AND SWAP1 POP SWAP2 SWAP1 POP JUMP JUMPDEST PUSH1 0x0 DUP2 PUSH1 0xE8 SHL SWAP1 POP SWAP2 SWAP1 POP JUMP JUMPDEST PUSH1 0x0 PUSH2 0x2F92 DUP3 PUSH2 0x2F7A JUMP JUMPDEST SWAP1 POP SWAP2 SWAP1 POP JUMP JUMPDEST PUSH2 0x2FAA PUSH2 0x2FA5 DUP3 PUSH2 0x2F6B JUMP JUMPDEST PUSH2 0x2F87 JUMP JUMPDEST DUP3 MSTORE POP POP JUMP JUMPDEST PUSH1 0x0 PUSH2 0x2FBC DUP3 DUP7 PUSH2 0x2F54 JUMP JUMPDEST PUSH1 0x14 DUP3 ADD SWAP2 POP PUSH2 0x2FCC DUP3 DUP6 PUSH2 0x2F99 JUMP JUMPDEST PUSH1 0x3 DUP3 ADD SWAP2 POP PUSH2 0x2FDC DUP3 DUP5 PUSH2 0x2F54 JUMP JUMPDEST PUSH1 0x14 DUP3 ADD SWAP2 POP DUP2 SWAP1 POP SWAP5 SWAP4 POP POP POP POP JUMP JUMPDEST PUSH1 0x0 DUP2 MLOAD SWAP1 POP SWAP2 SWAP1 POP JUMP JUMPDEST PUSH1 0x0 DUP3 DUP3 MSTORE PUSH1 0x20 DUP3 ADD SWAP1 POP SWAP3 SWAP2 POP POP JUMP JUMPDEST PUSH1 0x0 JUMPDEST DUP4 DUP2 LT ISZERO PUSH2 0x3027 JUMPI DUP1 DUP3 ADD MLOAD DUP2 DUP5 ADD MSTORE PUSH1 0x20 DUP2 ADD SWAP1 POP PUSH2 0x300C JUMP JUMPDEST PUSH1 0x0 DUP5 DUP5 ADD MSTORE POP POP POP POP JUMP JUMPDEST PUSH1 0x0 PUSH1 0x1F NOT PUSH1 0x1F DUP4 ADD AND SWAP1 POP SWAP2 SWAP1 POP JUMP JUMPDEST PUSH1 0x0 PUSH2 0x304F DUP3 PUSH2 0x2FED JUMP JUMPDEST PUSH2 0x3059 DUP2 DUP6 PUSH2 0x2FF8 JUMP JUMPDEST SWAP4 POP PUSH2 0x3069 DUP2 DUP6 PUSH1 0x20 DUP7 ADD PUSH2 0x3009 JUMP JUMPDEST PUSH2 0x3072 DUP2 PUSH2 0x3033 JUMP JUMPDEST DUP5 ADD SWAP2 POP POP SWAP3 SWAP2 POP POP JUMP JUMPDEST PUSH2 0x3086 DUP2 PUSH2 0x224B JUMP JUMPDEST DUP3 MSTORE POP POP JUMP JUMPDEST PUSH2 0x3095 DUP2 PUSH2 0x2383 JUMP JUMPDEST DUP3 MSTORE POP POP JUMP JUMPDEST PUSH1 0x0 PUSH1 0x80 DUP4 ADD PUSH1 0x0 DUP4 ADD MLOAD DUP5 DUP3 SUB PUSH1 0x0 DUP7 ADD MSTORE PUSH2 0x30B8 DUP3 DUP3 PUSH2 0x3044 JUMP JUMPDEST SWAP2 POP POP PUSH1 0x20 DUP4 ADD MLOAD PUSH2 0x30CD PUSH1 0x20 DUP7 ADD DUP3 PUSH2 0x307D JUMP JUMPDEST POP PUSH1 0x40 DUP4 ADD MLOAD PUSH2 0x30E0 PUSH1 0x40 DUP7 ADD DUP3 PUSH2 0x308C JUMP JUMPDEST POP PUSH1 0x60 DUP4 ADD MLOAD PUSH2 0x30F3 PUSH1 0x60 DUP7 ADD DUP3 PUSH2 0x308C JUMP JUMPDEST POP DUP1 SWAP2 POP POP SWAP3 SWAP2 POP POP JUMP JUMPDEST PUSH1 0x0 PUSH1 0x20 DUP3 ADD SWAP1 POP DUP2 DUP2 SUB PUSH1 0x0 DUP4 ADD MSTORE PUSH2 0x3118 DUP2 DUP5 PUSH2 0x309B JUMP JUMPDEST SWAP1 POP SWAP3 SWAP2 POP POP JUMP JUMPDEST PUSH32 0x4E487B7100000000000000000000000000000000000000000000000000000000 PUSH1 0x0 MSTORE PUSH1 0x41 PUSH1 0x4 MSTORE PUSH1 0x24 PUSH1 0x0 REVERT JUMPDEST PUSH32 0x4E487B7100000000000000000000000000000000000000000000000000000000 PUSH1 0x0 MSTORE PUSH1 0x32 PUSH1 0x4 MSTORE PUSH1 0x24 PUSH1 0x0 REVERT JUMPDEST PUSH1 0x0 DUP2 MLOAD SWAP1 POP SWAP2 SWAP1 POP JUMP JUMPDEST PUSH1 0x0 DUP3 DUP3 MSTORE PUSH1 0x20 DUP3 ADD SWAP1 POP SWAP3 SWAP2 POP POP JUMP JUMPDEST PUSH1 0x0 DUP2 SWAP1 POP PUSH1 0x20 DUP3 ADD SWAP1 POP SWAP2 SWAP1 POP JUMP JUMPDEST PUSH1 0x0 PUSH2 0x31B6 DUP4 DUP4 PUSH2 0x307D JUMP JUMPDEST PUSH1 0x20 DUP4 ADD SWAP1 POP SWAP3 SWAP2 POP POP JUMP JUMPDEST PUSH1 0x0 PUSH1 0x20 DUP3 ADD SWAP1 POP SWAP2 SWAP1 POP JUMP JUMPDEST PUSH1 0x0 PUSH2 0x31DA DUP3 PUSH2 0x317E JUMP JUMPDEST PUSH2 0x31E4 DUP2 DUP6 PUSH2 0x3189 JUMP JUMPDEST SWAP4 POP PUSH2 0x31EF DUP4 PUSH2 0x319A JUMP JUMPDEST DUP1 PUSH1 0x0 JUMPDEST DUP4 DUP2 LT ISZERO PUSH2 0x3220 JUMPI DUP2 MLOAD PUSH2 0x3207 DUP9 DUP3 PUSH2 0x31AA JUMP JUMPDEST SWAP8 POP PUSH2 0x3212 DUP4 PUSH2 0x31C2 JUMP JUMPDEST SWAP3 POP POP PUSH1 0x1 DUP2 ADD SWAP1 POP PUSH2 0x31F3 JUMP JUMPDEST POP DUP6 SWAP4 POP POP POP POP SWAP3 SWAP2 POP POP JUMP JUMPDEST PUSH1 0x0 PUSH1 0x40 DUP3 ADD SWAP1 POP PUSH2 0x3242 PUSH1 0x0 DUP4 ADD DUP6 PUSH2 0x238D JUMP JUMPDEST DUP2 DUP2 SUB PUSH1 0x20 DUP4 ADD MSTORE PUSH2 0x3254 DUP2 DUP5 PUSH2 0x31CF JUMP JUMPDEST SWAP1 POP SWAP4 SWAP3 POP POP POP JUMP JUMPDEST PUSH1 0x0 DUP1 REVERT JUMPDEST PUSH2 0x326B DUP3 PUSH2 0x3033 JUMP JUMPDEST DUP2 ADD DUP2 DUP2 LT PUSH8 0xFFFFFFFFFFFFFFFF DUP3 GT OR ISZERO PUSH2 0x328A JUMPI PUSH2 0x3289 PUSH2 0x3120 JUMP JUMPDEST JUMPDEST DUP1 PUSH1 0x40 MSTORE POP POP POP JUMP JUMPDEST PUSH1 0x0 PUSH2 0x329D PUSH2 0x2287 JUMP JUMPDEST SWAP1 POP PUSH2 0x32A9 DUP3 DUP3 PUSH2 0x3262 JUMP JUMPDEST SWAP2 SWAP1 POP JUMP JUMPDEST PUSH1 0x0 PUSH8 0xFFFFFFFFFFFFFFFF DUP3 GT ISZERO PUSH2 0x32C9 JUMPI PUSH2 0x32C8 PUSH2 0x3120 JUMP JUMPDEST JUMPDEST PUSH1 0x20 DUP3 MUL SWAP1 POP PUSH1 0x20 DUP2 ADD SWAP1 POP SWAP2 SWAP1 POP JUMP JUMPDEST PUSH1 0x0 DUP1 REVERT JUMPDEST PUSH1 0x0 PUSH2 0x32F2 PUSH2 0x32ED DUP5 PUSH2 0x32AE JUMP JUMPDEST PUSH2 0x3293 JUMP JUMPDEST SWAP1 POP DUP1 DUP4 DUP3 MSTORE PUSH1 0x20 DUP3 ADD SWAP1 POP PUSH1 0x20 DUP5 MUL DUP4 ADD DUP6 DUP2 GT ISZERO PUSH2 0x3315 JUMPI PUSH2 0x3314 PUSH2 0x32DA JUMP JUMPDEST JUMPDEST DUP4 JUMPDEST DUP2 DUP2 LT ISZERO PUSH2 0x333E JUMPI DUP1 PUSH2 0x332A DUP9 DUP3 PUSH2 0x24DE JUMP JUMPDEST DUP5 MSTORE PUSH1 0x20 DUP5 ADD SWAP4 POP POP PUSH1 0x20 DUP2 ADD SWAP1 POP PUSH2 0x3317 JUMP JUMPDEST POP POP POP SWAP4 SWAP3 POP POP POP JUMP JUMPDEST PUSH1 0x0 DUP3 PUSH1 0x1F DUP4 ADD SLT PUSH2 0x335D JUMPI PUSH2 0x335C PUSH2 0x325D JUMP JUMPDEST JUMPDEST DUP2 MLOAD PUSH2 0x336D DUP5 DUP3 PUSH1 0x20 DUP7 ADD PUSH2 0x32DF JUMP JUMPDEST SWAP2 POP POP SWAP3 SWAP2 POP POP JUMP JUMPDEST PUSH1 0x0 PUSH1 0x20 DUP3 DUP5 SUB SLT ISZERO PUSH2 0x338C JUMPI PUSH2 0x338B PUSH2 0x2291 JUMP JUMPDEST JUMPDEST PUSH1 0x0 DUP3 ADD MLOAD PUSH8 0xFFFFFFFFFFFFFFFF DUP2 GT ISZERO PUSH2 0x33AA JUMPI PUSH2 0x33A9 PUSH2 0x2296 JUMP JUMPDEST JUMPDEST PUSH2 0x33B6 DUP5 DUP3 DUP6 ADD PUSH2 0x3348 JUMP JUMPDEST SWAP2 POP POP SWAP3 SWAP2 POP POP JUMP JUMPDEST PUSH1 0x0 PUSH1 0xA0 DUP3 ADD SWAP1 POP PUSH2 0x33D4 PUSH1 0x0 DUP4 ADD DUP9 PUSH2 0x238D JUMP JUMPDEST PUSH2 0x33E1 PUSH1 0x20 DUP4 ADD DUP8 PUSH2 0x238D JUMP JUMPDEST DUP2 DUP2 SUB PUSH1 0x40 DUP4 ADD MSTORE PUSH2 0x33F3 DUP2 DUP7 PUSH2 0x31CF JUMP JUMPDEST SWAP1 POP PUSH2 0x3402 PUSH1 0x60 DUP4 ADD DUP6 PUSH2 0x225D JUMP JUMPDEST PUSH2 0x340F PUSH1 0x80 DUP4 ADD DUP5 PUSH2 0x238D JUMP JUMPDEST SWAP7 SWAP6 POP POP POP POP POP POP JUMP INVALID LOG2 PUSH5 0x6970667358 0x22 SLT KECCAK256 CALL 0xE3 DUP10 0x2F LOG2 CALLER DIFFICULTY PUSH31 0x6006B48BB3360FE6122208A1577521866EA1FFBA751DA39264736F6C634300 ADDMOD EQ STOP CALLER "
				},
				"gasEstimates": {
					"creation": {
						"codeDepositCost": "2678200",
						"executionCost": "infinite",
						"totalCost": "infinite"
					},
					"external": {
						"": "infinite",
						"BURN_ADDRESS()": "infinite",
						"DEAD_ADDRESS()": "infinite",
						"WETN()": "infinite",
						"addWhitelistedNFT(address)": "infinite",
						"autoBuyAndBurn()": "2538",
						"autoBuyAndBurnCore()": "2611",
						"club()": "infinite",
						"clubBalance()": "2563",
						"coreBalance()": "2497",
						"coreToken()": "infinite",
						"coreWallet()": "infinite",
						"erevosNFT()": "infinite",
						"isWhitelistedNFT(address)": "2951",
						"manualBuyAndBurn()": "infinite",
						"manualBuyAndBurnCore()": "infinite",
						"nftBalance()": "2519",
						"owner()": "2589",
						"processIncomingTokens()": "infinite",
						"removeWhitelistedNFT(address)": "infinite",
						"renounceOwnership()": "infinite",
						"rescueETH(uint256,address)": "infinite",
						"rescueTokens(address,uint256,address)": "infinite",
						"setAutoBuyAndBurn(bool)": "infinite",
						"setAutoBuyAndBurnCore(bool)": "infinite",
						"transferOwnership(address)": "infinite",
						"whitelistedNFTs(address)": "2891",
						"withdrawCore()": "infinite"
					},
					"internal": {
						"_buyAndBurn()": "infinite",
						"_buyAndBurnCore()": "infinite",
						"_distributeToNFTs()": "infinite",
						"_processIncomingFee(uint256)": "infinite"
					}
				},
				"methodIdentifiers": {
					"BURN_ADDRESS()": "fccc2813",
					"DEAD_ADDRESS()": "4e6fd6c4",
					"WETN()": "66650b7b",
					"addWhitelistedNFT(address)": "8465093e",
					"autoBuyAndBurn()": "ba779ed5",
					"autoBuyAndBurnCore()": "7581aa60",
					"club()": "0efd0973",
					"clubBalance()": "3d65de44",
					"coreBalance()": "7499aff4",
					"coreToken()": "0c2b72e9",
					"coreWallet()": "62ab05e7",
					"erevosNFT()": "b2b22d5f",
					"isWhitelistedNFT(address)": "138b7338",
					"manualBuyAndBurn()": "57d1fdcd",
					"manualBuyAndBurnCore()": "dc1a4d9e",
					"nftBalance()": "5301fa6f",
					"owner()": "8da5cb5b",
					"processIncomingTokens()": "dc05a309",
					"removeWhitelistedNFT(address)": "210009cf",
					"renounceOwnership()": "715018a6",
					"rescueETH(uint256,address)": "a0558c3f",
					"rescueTokens(address,uint256,address)": "b37fd190",
					"setAutoBuyAndBurn(bool)": "2b7459b9",
					"setAutoBuyAndBurnCore(bool)": "6cdf0e40",
					"transferOwnership(address)": "f2fde38b",
					"whitelistedNFTs(address)": "3f0c188f",
					"withdrawCore()": "c36554ce"
				}
			},
			"storageLayout": {
				"storage": [
					{
						"astId": 8,
						"contract": "contracts/erevos/ErevosFeeReflection.sol:AetherScionsFeeReflection",
						"label": "_owner",
						"offset": 0,
						"slot": "0",
						"type": "t_address"
					},
					{
						"astId": 447,
						"contract": "contracts/erevos/ErevosFeeReflection.sol:AetherScionsFeeReflection",
						"label": "v3Router",
						"offset": 0,
						"slot": "1",
						"type": "t_contract(V3Router)1385"
					},
					{
						"astId": 450,
						"contract": "contracts/erevos/ErevosFeeReflection.sol:AetherScionsFeeReflection",
						"label": "v2Router",
						"offset": 0,
						"slot": "2",
						"type": "t_contract(UniswapV2Router)1414"
					},
					{
						"astId": 454,
						"contract": "contracts/erevos/ErevosFeeReflection.sol:AetherScionsFeeReflection",
						"label": "whitelistedNFTs",
						"offset": 0,
						"slot": "3",
						"type": "t_mapping(t_address,t_bool)"
					},
					{
						"astId": 456,
						"contract": "contracts/erevos/ErevosFeeReflection.sol:AetherScionsFeeReflection",
						"label": "clubBalance",
						"offset": 0,
						"slot": "4",
						"type": "t_uint256"
					},
					{
						"astId": 458,
						"contract": "contracts/erevos/ErevosFeeReflection.sol:AetherScionsFeeReflection",
						"label": "coreBalance",
						"offset": 0,
						"slot": "5",
						"type": "t_uint256"
					},
					{
						"astId": 460,
						"contract": "contracts/erevos/ErevosFeeReflection.sol:AetherScionsFeeReflection",
						"label": "nftBalance",
						"offset": 0,
						"slot": "6",
						"type": "t_uint256"
					},
					{
						"astId": 462,
						"contract": "contracts/erevos/ErevosFeeReflection.sol:AetherScionsFeeReflection",
						"label": "autoBuyAndBurn",
						"offset": 0,
						"slot": "7",
						"type": "t_bool"
					},
					{
						"astId": 464,
						"contract": "contracts/erevos/ErevosFeeReflection.sol:AetherScionsFeeReflection",
						"label": "autoBuyAndBurnCore",
						"offset": 1,
						"slot": "7",
						"type": "t_bool"
					}
				],
				"types": {
					"t_address": {
						"encoding": "inplace",
						"label": "address",
						"numberOfBytes": "20"
					},
					"t_bool": {
						"encoding": "inplace",
						"label": "bool",
						"numberOfBytes": "1"
					},
					"t_contract(UniswapV2Router)1414": {
						"encoding": "inplace",
						"label": "contract UniswapV2Router",
						"numberOfBytes": "20"
					},
					"t_contract(V3Router)1385": {
						"encoding": "inplace",
						"label": "contract V3Router",
						"numberOfBytes": "20"
					},
					"t_mapping(t_address,t_bool)": {
						"encoding": "mapping",
						"key": "t_address",
						"label": "mapping(address => bool)",
						"numberOfBytes": "32",
						"value": "t_bool"
					},
					"t_uint256": {
						"encoding": "inplace",
						"label": "uint256",
						"numberOfBytes": "32"
					}
				}
			},
			"userdoc": {
				"kind": "user",
				"methods": {
					"rescueETH(uint256,address)": {
						"notice": "Rescue any ETH accidentally sent to the contract"
					},
					"rescueTokens(address,uint256,address)": {
						"notice": "Rescue any ERC20 tokens (including WETN if not part of tracked balances)"
					}
				},
				"version": 1
			}
		}
	}
}