{
	"data": {
		"bytecode": {
			"linkReferences": {},
			"object": "60e06040526050600655600a6007556298968060085563017d784060095562989680600a5563017d7840600b55631dcd6500600c55634a817c80600d5569010f0cf064dd59200000600e5569054b40b1f852bda00000600f5569010f0cf064dd5920000060105569054b40b1f852bda0000060115569152d02c7e14af68000006012556934f086f3b33b684000006013553480156200009d57600080fd5b50604051620061e9380380620061e9833981016040819052620000c09162000186565b6040518060600160405280602a8152602001620061bf602a9139604080518082019091526005815264505a454e5360d81b602082015260006200010483826200029b565b5060016200011382826200029b565b5050506001600160a01b0394851660805292841660a05290831660c052601580549184166001600160a01b0319928316179055601680549290931691811691909117909155601480549091163317905562000367565b80516001600160a01b03811681146200018157600080fd5b919050565b600080600080600060a086880312156200019f57600080fd5b620001aa8662000169565b9450620001ba6020870162000169565b9350620001ca6040870162000169565b9250620001da6060870162000169565b9150620001ea6080870162000169565b90509295509295909350565b634e487b7160e01b600052604160045260246000fd5b600181811c908216806200022157607f821691505b6020821081036200024257634e487b7160e01b600052602260045260246000fd5b50919050565b601f8211156200029657600081815260208120601f850160051c81016020861015620002715750805b601f850160051c820191505b8181101562000292578281556001016200027d565b5050505b505050565b81516001600160401b03811115620002b757620002b7620001f6565b620002cf81620002c884546200020c565b8462000248565b602080601f831160018114620003075760008415620002ee5750858301515b600019600386901b1c1916600185901b17855562000292565b600085815260208120601f198616915b82811015620003385788860151825594840194600190910190840162000317565b5085821015620003575787850151600019600388901b60f8161c191681555b5050505050600190811b01905550565b60805160a05160c051615de9620003d6600039600081816109b7015261442f015260008181610f8b015261451c015260008181610b1501528181611d35015281816132b80152818161335301528181613a4901528181613aef01528181613bf801526143a60152615de96000f3fe6080604052600436106104e45760003560e01c8063741bef1a11610281578063b2e1a01e1161015a578063d8ea6420116100cc578063ee676cbe11610085578063ee676cbe14610f19578063eed27c1a14610f39578063f2fde38b14610f59578063f887ea4014610f79578063fe13f74914610fad578063fee483ce14610fda57600080fd5b8063d8ea642014610e5b578063dde870ad14610e6e578063de04ce1014610eb0578063deb931a214610ec6578063e403326e14610ee6578063e985e9c514610ef957600080fd5b8063c53729161161011e578063c537291614610d83578063c582da0014610da3578063c66485b214610dd0578063c87b56dd14610df0578063d686f54614610e10578063d873b49714610e4557600080fd5b8063b2e1a01e14610cec578063b75f1aef14610d0c578063b88d4fde14610d2c578063bc1e19ce14610d4c578063c1a287e214610d6c57600080fd5b80639023f836116101f35780639b71bde1116101b75780639b71bde114610c42578063a1a2d62b14610c62578063a22cb46514610c82578063a93b660d14610ca2578063aacca88914610cb7578063b13c25fe14610ccc57600080fd5b80639023f83614610bd8578063946980a714610beb57806395d89b4114610c0157806397725fb214610c16578063986a423714610c2c57600080fd5b8063806b849511610245578063806b849514610b37578063807596e714610b4d578063828eab0e14610b6d5780638476fae714610b8d5780638da5cb5b14610ba55780638e32762d14610bc557600080fd5b8063741bef1a14610a8e57806377b72f5814610aae5780637897b60414610ac4578063796da7af14610ad95780637b10399914610b0357600080fd5b806338975895116103be5780635c36901c116103305780636841fd08116102e95780636841fd08146109ef57806368dc978a14610a0257806370a0823114610a225780637104067c14610a42578063720246bb14610a58578063724e78da14610a6e57600080fd5b80635c36901c146109255780635ceb392014610945578063615ff3fc146109655780636352211e1461098557806366650b7b146109a5578063682c2058146109d957600080fd5b80634502c7c4116103825780634502c7c4146108645780634d6431281461087957806350abdade1461088f57806352b2bf87146108bc57806352cc3b21146108d257806358ca93f71461090f57600080fd5b806338975895146107c957806338e757d5146107f95780633a40705a1461080e5780633ed794081461082457806342842e0e1461084457600080fd5b806312f0d8af1161045757806323b872dd1161041b57806323b872dd146107065780632428619b14610726578063287a3338146107465780633297e10d1461075c5780633412e0441461077c578063370bb52e1461079c57600080fd5b806312f0d8af1461066357806314fb021c1461067957806315ee4df114610699578063164e68de146106b9578063232d097c146106d957600080fd5b8063081812fc116104a9578063081812fc14610594578063095ea7b3146105cc5780630b1f7e2e146105ee5780630c0b5e841461060e5780630c2b72e91461062e57806311d442a41461064e57600080fd5b80623c3846146104f057806301ffc9a71461051857806302496b051461054857806302625de91461055d57806306fdde031461057257600080fd5b366104eb57005b600080fd5b3480156104fc57600080fd5b50610505610ffa565b6040519081526020015b60405180910390f35b34801561052457600080fd5b50610538610533366004614bc5565b61100f565b604051901515815260200161050f565b34801561055457600080fd5b50610505611061565b34801561056957600080fd5b50610505611071565b34801561057e57600080fd5b50610587611081565b60405161050f9190614c32565b3480156105a057600080fd5b506105b46105af366004614c45565b611113565b6040516001600160a01b03909116815260200161050f565b3480156105d857600080fd5b506105ec6105e7366004614c73565b61113c565b005b3480156105fa57600080fd5b506017546105b4906001600160a01b031681565b34801561061a57600080fd5b506105b4610629366004614c9f565b61114b565b34801561063a57600080fd5b506015546105b4906001600160a01b031681565b34801561065a57600080fd5b50610505611235565b34801561066f57600080fd5b5061050560115481565b34801561068557600080fd5b50610587610694366004614c45565b611245565b3480156106a557600080fd5b506105ec6106b4366004614d17565b6112df565b3480156106c557600080fd5b506105ec6106d4366004614d58565b61131f565b3480156106e557600080fd5b506105056106f4366004614d58565b60246020526000908152604090205481565b34801561071257600080fd5b506105ec610721366004614d75565b61143b565b34801561073257600080fd5b506105ec610741366004614db6565b611471565b34801561075257600080fd5b5061050560065481565b34801561076857600080fd5b506105ec610777366004614db6565b61155b565b34801561078857600080fd5b50610538610797366004614d17565b6115ed565b3480156107a857600080fd5b506105056107b7366004614c45565b60236020526000908152604090205481565b3480156107d557600080fd5b506105386107e4366004614c45565b601f6020526000908152604090205460ff1681565b34801561080557600080fd5b5061050561164d565b34801561081a57600080fd5b5061050560095481565b34801561083057600080fd5b506105ec61083f366004614db6565b61165d565b34801561085057600080fd5b506105ec61085f366004614d75565b6116ef565b34801561087057600080fd5b506105ec61170a565b34801561088557600080fd5b50610505610e1081565b34801561089b57600080fd5b506105056108aa366004614c45565b60226020526000908152604090205481565b3480156108c857600080fd5b50610505600e5481565b3480156108de57600080fd5b506108f26108ed366004614c45565b611851565b60408051938452911515602084015215159082015260600161050f565b34801561091b57600080fd5b5061050560135481565b34801561093157600080fd5b50610538610940366004614c45565b611895565b34801561095157600080fd5b506105b4610960366004614d17565b6118e0565b34801561097157600080fd5b506105ec610980366004614d58565b611920565b34801561099157600080fd5b506105b46109a0366004614c45565b61199f565b3480156109b157600080fd5b506105b47f000000000000000000000000000000000000000000000000000000000000000081565b3480156109e557600080fd5b5061050560255481565b6105ec6109fd366004614d17565b6119aa565b348015610a0e57600080fd5b50610538610a1d366004614d17565b611bae565b348015610a2e57600080fd5b50610505610a3d366004614d58565b611c1b565b348015610a4e57600080fd5b50610505600f5481565b348015610a6457600080fd5b50610505600a5481565b348015610a7a57600080fd5b506105ec610a89366004614d58565b611c63565b348015610a9a57600080fd5b50601a546105b4906001600160a01b031681565b348015610aba57600080fd5b50610505600d5481565b348015610ad057600080fd5b506105ec611cdb565b348015610ae557600080fd5b50610aee611d9b565b6040805192835290151560208301520161050f565b348015610b0f57600080fd5b506105b47f000000000000000000000000000000000000000000000000000000000000000081565b348015610b4357600080fd5b50610505600c5481565b348015610b5957600080fd5b50610587610b68366004614c45565b611e6a565b348015610b7957600080fd5b506016546105b4906001600160a01b031681565b348015610b9957600080fd5b506105056301e1338081565b348015610bb157600080fd5b506014546105b4906001600160a01b031681565b6105ec610bd3366004614c45565b611e83565b6105ec610be6366004614ded565b6120fd565b348015610bf757600080fd5b5061050560105481565b348015610c0d57600080fd5b506105876124de565b348015610c2257600080fd5b50610505600b5481565b348015610c3857600080fd5b5061050560125481565b348015610c4e57600080fd5b506105ec610c5d366004614db6565b6124ed565b348015610c6e57600080fd5b50610587610c7d366004614c45565b61257f565b348015610c8e57600080fd5b506105ec610c9d366004614e7d565b612598565b348015610cae57600080fd5b506105056125a3565b348015610cc357600080fd5b506105876125b3565b348015610cd857600080fd5b506105ec610ce7366004614db6565b6125c0565b348015610cf857600080fd5b506105ec610d07366004614d58565b612652565b348015610d1857600080fd5b506105ec610d27366004614d17565b61269e565b348015610d3857600080fd5b506105ec610d47366004614ef8565b612707565b348015610d5857600080fd5b506105ec610d67366004614db6565b612739565b348015610d7857600080fd5b5061050562278d0081565b348015610d8f57600080fd5b50610538610d9e366004614fbb565b6127cb565b348015610daf57600080fd5b50610505610dbe366004614c45565b601b6020526000908152604090205481565b348015610ddc57600080fd5b506105ec610deb366004614d58565b612885565b348015610dfc57600080fd5b50610587610e0b366004614c45565b6128fd565b348015610e1c57600080fd5b506105b4610e2b366004614c45565b60208052600090815260409020546001600160a01b031681565b348015610e5157600080fd5b5061050560075481565b6105ec610e69366004615026565b612948565b348015610e7a57600080fd5b50610e9e610e89366004614c45565b601c6020526000908152604090205460ff1681565b60405160ff909116815260200161050f565b348015610ebc57600080fd5b5061050560085481565b348015610ed257600080fd5b506105b4610ee1366004614c45565b612a19565b6105ec610ef4366004615079565b612a3a565b348015610f0557600080fd5b50610538610f143660046150de565b612cb3565b348015610f2557600080fd5b506105ec610f3436600461510c565b612ce1565b348015610f4557600080fd5b506105ec610f54366004614db6565b612da9565b348015610f6557600080fd5b506105ec610f74366004614d58565b612e3b565b348015610f8557600080fd5b506105b47f000000000000000000000000000000000000000000000000000000000000000081565b348015610fb957600080fd5b50610505610fc8366004614c45565b60216020526000908152604090205481565b348015610fe657600080fd5b506105ec610ff5366004615157565b612f17565b600061100a600b546011546130cc565b905090565b60006001600160e01b031982166380ac58cd60e01b148061104057506001600160e01b03198216635b5e139f60e01b145b8061105b57506301ffc9a760e01b6001600160e01b03198316145b92915050565b600061100a600a546010546130cc565b600061100a600954600f546130cc565b606060008054611090906151a7565b80601f01602080910402602001604051908101604052809291908181526020018280546110bc906151a7565b80156111095780601f106110de57610100808354040283529160200191611109565b820191906000526020600020905b8154815290600101906020018083116110ec57829003601f168201915b5050505050905090565b600061111e82613116565b506000828152600460205260409020546001600160a01b031661105b565b61114782823361314e565b5050565b600061115683611895565b6111625750600061105b565b600080836001600160a01b03168560405160240161118291815260200190565b60408051601f198184030181529181526020820180516001600160e01b0316631d9dabef60e11b179052516111b791906151fd565b600060405180830381855afa9150503d80600081146111f2576040519150601f19603f3d011682016040523d82523d6000602084013e6111f7565b606091505b509150915081158061120857508051155b156112185760009250505061105b565b8080602001905181019061122c9190615219565b95945050505050565b600061100a600c546012546130cc565b601e602052600090815260409020805461125e906151a7565b80601f016020809104026020016040519081016040528092919081815260200182805461128a906151a7565b80156112d75780601f106112ac576101008083540402835291602001916112d7565b820191906000526020600020905b8154815290600101906020018083116112ba57829003601f168201915b505050505081565b6014546001600160a01b031633146113125760405162461bcd60e51b815260040161130990615236565b60405180910390fd5b611147828233600161315b565b6014546001600160a01b031633146113495760405162461bcd60e51b815260040161130990615236565b602580546000918290556040519091906001600160a01b0384169083908381818185875af1925050503d806000811461139e576040519150601f19603f3d011682016040523d82523d6000602084013e6113a3565b606091505b50509050806113f45760405162461bcd60e51b815260206004820152601d60248201527f45544e5265676973747261723a207472616e73666572206661696c65640000006044820152606401611309565b604080516001600160a01b0385168152602081018490527fc0819c13be868895eb93e40eaceb96de976442fa1d404e5c55f14bb65a8c489a910160405180910390a1505050565b611444816134cf565b156114615760405162461bcd60e51b81526004016113099061526d565b61146c838383613510565b505050565b6014546001600160a01b0316331461149b5760405162461bcd60e51b815260040161130990615236565b60646114a782846152d4565b11156114f55760405162461bcd60e51b815260206004820181905260248201527f45544e5265676973747261723a2073706c6974206578636565647320313030256044820152606401611309565b600682905560078190557faf5e1a6972ae7143a48a1fc8adaf31c154aec5a6b5da0c71ac93a49c7d05a39082828061152e8360646152e7565b61153891906152e7565b604080519384526020840192909252908201526060015b60405180910390a15050565b6014546001600160a01b031633146115855760405162461bcd60e51b815260040161130990615236565b6000821180156115955750600081115b6115b15760405162461bcd60e51b8152600401611309906152fa565b600c829055600d8190556040517fbfd2e7dd46bc79b9bcfc92739c8907b4269f60965a65a44d2cdbc41cf7460a909061154f9084908490615331565b6000808383604051611600929190615361565b60408051918290038220600080516020615d548339815191526020840152908201819052915060009060600160405160208183030381529060405280519060200120905061122c81613595565b600061100a600854600e546130cc565b6014546001600160a01b031633146116875760405162461bcd60e51b815260040161130990615236565b6000821180156116975750600081115b6116b35760405162461bcd60e51b8152600401611309906152fa565b601282905560138190556040517f58bbdf00a83292f6b8f4e6c65c4a61982873af90182744d90d6e2909a8b7410e9061154f9084908490615331565b61146c83838360405180602001604052806000815250612707565b33600090815260246020526040902054806117715760405162461bcd60e51b815260206004820152602160248201527f45544e5265676973747261723a206e6f7468696e6720746f20776974686472616044820152607760f81b6064820152608401611309565b336000818152602460205260408082208290555190919083908381818185875af1925050503d80600081146117c2576040519150601f19603f3d011682016040523d82523d6000602084013e6117c7565b606091505b50509050806118185760405162461bcd60e51b815260206004820152601d60248201527f45544e5265676973747261723a207472616e73666572206661696c65640000006044820152606401611309565b60405182815233907f0955aeda25a465abf3e04ab0711c34e557f573a94c2623b976510141ed2ad1889060200160405180910390a25050565b6000818152601b602052604081205490808215801561188257506000611876856135f1565b6001600160a01b031614155b915061188d846134cf565b929491935050565b6000806118a1836135f1565b6001600160a01b0316036118b757506000919050565b6000828152601b6020526040812054908190036118d75750600192915050565b42111592915050565b60006020600084846040516118f6929190615361565b60408051918290039091208252602082019290925201600020546001600160a01b03169392505050565b6014546001600160a01b0316331461194a5760405162461bcd60e51b815260040161130990615236565b601580546001600160a01b0319166001600160a01b0383169081179091556040519081527fb4e49f71a5f8d56892391200136a0483f10841c8307f07ccac6dfc6ec3d9c7a2906020015b60405180910390a150565b600061105b82613116565b600082826040516119bc929190615361565b60408051918290038220600080516020615d548339815191526020840152908201819052915060009060600160408051601f198184030181529190528051602090910120905033611a0c826135f1565b6001600160a01b031614611a325760405162461bcd60e51b815260040161130990615236565b6000818152601b602052604081205490819003611a615760405162461bcd60e51b815260040161130990615371565b611a6e62278d00826152d4565b421115611a8d5760405162461bcd60e51b8152600401611309906153ba565b6000611a97611235565b905080341015611ab95760405162461bcd60e51b8152600401611309906153fc565b6000611ac96301e13380846152d4565b6000858152601b60209081526040808320849055602190915290208190559050611af28261360c565b81341115611b6b57600033611b0784346152e7565b604051600081818185875af1925050503d8060008114611b43576040519150601f19603f3d011682016040523d82523d6000602084013e611b48565b606091505b5050905080611b695760405162461bcd60e51b815260040161130990615433565b505b837ffcb49015a037e326b20ef372a3bc4418922ab38aacabe3746531b4b2aac02de982604051611b9d91815260200190565b60405180910390a250505050505050565b600080600080516020615d5483398151915260001b8484604051611bd3929190615361565b604051908190038120611bf29291602001918252602082015260400190565b604051602081830303815290604052805190602001209050611c1381613595565b949350505050565b60006001600160a01b038216611c47576040516322718ad960e21b815260006004820152602401611309565b506001600160a01b031660009081526003602052604090205490565b6014546001600160a01b03163314611c8d5760405162461bcd60e51b815260040161130990615236565b601a80546001600160a01b0319166001600160a01b0383169081179091556040519081527fe5b20b8497e4f3e2435ef9c20e2e26b47497ee13745ce1c681ad6640653119e690602001611994565b6014546001600160a01b03163314611d055760405162461bcd60e51b815260040161130990615236565b60405163bc053e7360e01b8152600080516020615d548339815191526004820152306024820152600160448201527f00000000000000000000000000000000000000000000000000000000000000006001600160a01b03169063bc053e7390606401600060405180830381600087803b158015611d8157600080fd5b505af1158015611d95573d6000803e3d6000fd5b50505050565b601a5460009081906001600160a01b0316611db95750600091829150565b601a60009054906101000a90046001600160a01b03166001600160a01b031663feaf968c6040518163ffffffff1660e01b815260040160a060405180830381865afa925050508015611e28575060408051601f3d908101601f19168201909252611e2591810190615484565b60015b15611e6157600084138015611e485750610e10611e4583426152e7565b11155b15611e5b57509195600195509350505050565b50505050505b50600091829150565b6018602052600090815260409020805461125e906151a7565b33611e8d826135f1565b6001600160a01b031614611eb35760405162461bcd60e51b815260040161130990615236565b6000818152601b602052604081205490819003611ee25760405162461bcd60e51b815260040161130990615371565b611eef62278d00826152d4565b421115611f0e5760405162461bcd60e51b8152600401611309906153ba565b6000828152601c602052604081205460ff1690806000198301611fd0576000858152601e60205260408082209051611f469190615547565b60408051918290038220600080516020615d548339815191526020840152908201819052915060009060600160408051601f1981840301815291815281516020928301206000818152602290935291205490915080611fa757601054611fa9565b805b600093845260208052604090932054929450506001600160a01b039091169150611fdb9050565b611fd861164d565b91505b81341015611ffb5760405162461bcd60e51b8152600401611309906153fc565b600061200b6301e13380866152d4565b6000878152601b60205260409020819055905060001960ff851601612039576120348383613690565b612042565b6120428361360c565b823411156120bb5760003361205785346152e7565b604051600081818185875af1925050503d8060008114612093576040519150601f19603f3d011682016040523d82523d6000602084013e612098565b606091505b50509050806120b95760405162461bcd60e51b815260040161130990615433565b505b857f5a773044a6c2a5ab1c7812c9417486344a3aa701e02afef1026ba9e1bebeed94826040516120ed91815260200190565b60405180910390a2505050505050565b6000848460405161210f929190615361565b60408051918290039091206000818152601f602052919091205490915060ff1661217b5760405162461bcd60e51b815260206004820152601f60248201527f45544e5265676973747261723a2070726f6a656374206e6f7420666f756e64006044820152606401611309565b60408051600080516020615d5483398151915260208201529081018290526000906060016040516020818303038152906040528051906020012090506121c081613595565b1561220d5760405162461bcd60e51b815260206004820152601f60248201527f45544e5265676973747261723a206e616d6573706163652065787069726564006044820152606401611309565b6000831561223b576000828152602360205260409020548061223157601154612233565b805b91505061225d565b6000828152602260205260409020548061225757601054612259565b805b9150505b8034101561227d5760405162461bcd60e51b8152600401611309906153fc565b6122878989613779565b60008989604051612299929190615361565b604080519182900382206020830186905290820181905291506000906060016040516020818303038152906040528051906020012090506122d981613595565b6123205760405162461bcd60e51b815260206004820152601860248201527722aa272932b3b4b9ba3930b91d103730b6b2903a30b5b2b760411b6044820152606401611309565b60008b8b8b8b6040516020016123399493929190615553565b60405160208183030381529060405290506123cf6040518061010001604052808481526020018781526020018581526020018a6001600160a01b031681526020018915158152602001600160ff1681526020018381526020018c8c8080601f01602080910402602001604051908101604052809392919081815260200183838082843760009201919091525050509152506139e5565b60008681526020805260409020546123f19085906001600160a01b0316613690565b8334111561246a5760003361240686346152e7565b604051600081818185875af1925050503d8060008114612442576040519150601f19603f3d011682016040523d82523d6000602084013e612447565b606091505b50509050806124685760405162461bcd60e51b815260040161130990615433565b505b6000876124845761247f6301e13380426152d4565b612487565b60005b9050336001600160a01b0316837f78403bf9d832da65149e6a6d70bdab40aa5c3e85de4a3b8857ecfb96bd34eefd848b856040516124c793929190615588565b60405180910390a350505050505050505050505050565b606060018054611090906151a7565b6014546001600160a01b031633146125175760405162461bcd60e51b815260040161130990615236565b6000821180156125275750600081115b6125435760405162461bcd60e51b8152600401611309906152fa565b600882905560098190556040517fbfd2e7dd46bc79b9bcfc92739c8907b4269f60965a65a44d2cdbc41cf7460a909061154f90849084906155d0565b601d602052600090815260409020805461125e906151a7565b611147338383613d05565b600061100a600d546013546130cc565b6019805461125e906151a7565b6014546001600160a01b031633146125ea5760405162461bcd60e51b815260040161130990615236565b6000821180156125fa5750600081115b6126165760405162461bcd60e51b8152600401611309906152fa565b600a829055600b8190556040517fbfd2e7dd46bc79b9bcfc92739c8907b4269f60965a65a44d2cdbc41cf7460a909061154f90849084906155fc565b6014546001600160a01b0316331461267c5760405162461bcd60e51b815260040161130990615236565b601780546001600160a01b0319166001600160a01b0392909216919091179055565b6014546001600160a01b031633146126c85760405162461bcd60e51b815260040161130990615236565b60196126d582848361567d565b507f9c14c7eceb7175d3ca41c33707c017964e0ebc14d91911ad6b35c4d8382d2211828260405161154f929190615765565b612710826134cf565b1561272d5760405162461bcd60e51b81526004016113099061526d565b611d9584848484613da4565b6014546001600160a01b031633146127635760405162461bcd60e51b815260040161130990615236565b6000821180156127735750600081115b61278f5760405162461bcd60e51b8152600401611309906152fa565b601082905560118190556040517f58bbdf00a83292f6b8f4e6c65c4a61982873af90182744d90d6e2909a8b7410e9061154f90849084906155fc565b600080600080516020615d5483398151915260001b84846040516127f0929190615361565b60405190819003812061280f9291602001918252602082015260400190565b604051602081830303815290604052805190602001209050600081878760405161283a929190615361565b6040519081900381206128599291602001918252602082015260400190565b60405160208183030381529060405280519060200120905061287a81613595565b979650505050505050565b6014546001600160a01b031633146128af5760405162461bcd60e51b815260040161130990615236565b601680546001600160a01b0319166001600160a01b0383169081179091556040519081527f15cd6d20bba01b3fcb790c73829dd07412cbdf689ef818c96a2505889f3736a290602001611994565b606061290882613116565b5081600061291582613dbb565b9050612920816140e1565b6040516020016129309190615779565b60405160208183030381529060405292505050919050565b60008161295c57612957611235565b612964565b6129646125a3565b9050803410156129865760405162461bcd60e51b8152600401611309906153fc565b6129928484338561315b565b61299b8161360c565b80341115611d95576000336129b083346152e7565b604051600081818185875af1925050503d80600081146129ec576040519150601f19603f3d011682016040523d82523d6000602084013e6129f1565b606091505b5050905080612a125760405162461bcd60e51b815260040161130990615433565b5050505050565b6000612a2482613595565b15612a3157506000919050565b61105b826135f1565b600081612a4e57612a4961164d565b612a56565b612a56611071565b905080341015612a785760405162461bcd60e51b8152600401611309906153fc565b612a828585613779565b60008585604051612a94929190615361565b60408051918290038220600080516020615d5483398151915260208401529082018190529150600090606001604051602081830303815290604052805190602001209050612ae181613595565b612b285760405162461bcd60e51b815260206004820152601860248201527722aa272932b3b4b9ba3930b91d103730b6b2903a30b5b2b760411b6044820152606401611309565b60008787604051602001612b3d9291906157be565b6040516020818303038152906040529050612bbf604051806101000160405280848152602001600080516020615d5483398151915260001b8152602001858152602001886001600160a01b031681526020018715158152602001600060ff168152602001838152602001604051806020016040528060008152508152506139e5565b612bc88461360c565b83341115612c4157600033612bdd86346152e7565b604051600081818185875af1925050503d8060008114612c19576040519150601f19603f3d011682016040523d82523d6000602084013e612c1e565b606091505b5050905080612c3f5760405162461bcd60e51b815260040161130990615433565b505b600085612c5b57612c566301e13380426152d4565b612c5e565b60005b9050336001600160a01b0316837f78403bf9d832da65149e6a6d70bdab40aa5c3e85de4a3b8857ecfb96bd34eefd8b8b8a86604051612ca094939291906157d7565b60405180910390a3505050505050505050565b6001600160a01b03918216600090815260056020908152604080832093909416825291909152205460ff1690565b6014546001600160a01b0316331480612d0457506017546001600160a01b031633145b612d505760405162461bcd60e51b815260206004820152601c60248201527f45544e5265676973747261723a206e6f7420617574686f7269736564000000006044820152606401611309565b6000838152601860205260409020612d6982848361567d565b50827f6fbedfb3a95fa1293073b2eb1a16d28939fd3a282440959a1d10b14b91c4828b8383604051612d9c929190615765565b60405180910390a2505050565b6014546001600160a01b03163314612dd35760405162461bcd60e51b815260040161130990615236565b600082118015612de35750600081115b612dff5760405162461bcd60e51b8152600401611309906152fa565b600e829055600f8190556040517f58bbdf00a83292f6b8f4e6c65c4a61982873af90182744d90d6e2909a8b7410e9061154f90849084906155d0565b6014546001600160a01b03163314612e655760405162461bcd60e51b815260040161130990615236565b6001600160a01b038116612ebb5760405162461bcd60e51b815260206004820152601a60248201527f45544e5265676973747261723a207a65726f20616464726573730000000000006044820152606401611309565b6014546040516001600160a01b038084169216907f8be0079c531659141344cd1fd0a4f28419497f9722a3daafe3b4186f6b6457e090600090a3601480546001600160a01b0319166001600160a01b0392909216919091179055565b60008484604051612f29929190615361565b604080519182900390912060008181526020805291909120549091506001600160a01b03163314612fa65760405162461bcd60e51b815260206004820152602160248201527f45544e5265676973747261723a206e6f74206e616d657370616365206f776e656044820152603960f91b6064820152608401611309565b601054831015612ff45760405162461bcd60e51b815260206004820152601960248201527822aa272932b3b4b9ba3930b91d103132b637bb90333637b7b960391b6044820152606401611309565b6011548210156130425760405162461bcd60e51b815260206004820152601960248201527822aa272932b3b4b9ba3930b91d103132b637bb90333637b7b960391b6044820152606401611309565b60408051600080516020615d54833981519152602082015290810182905260009060600160408051808303601f19018152828252805160209182012060008181526022835283812089905560238352839020879055878452908301869052925082917fa4d2da34d12255ab6491342ebc0ec7c805f4e325dc8a346da06cee450b17d96191016120ed565b60008060006130d9611d9b565b91509150806130ec57839250505061105b565b6130f982620f4240615821565b61310c8668056bc75e2d63100000615821565b61122c9190615838565b600080613122836135f1565b90506001600160a01b03811661105b57604051637e27328960e01b815260048101849052602401611309565b61146c8383836001614240565b600084848080601f0160208091040260200160405190810160405280939291908181526020018383808284376000920191909152505082519293505050600111156131e85760405162461bcd60e51b815260206004820152601b60248201527f45544e5265676973747261723a20656d7074792070726f6a65637400000000006044820152606401611309565b6131f28585613779565b805160208083019190912060408051600080516020615d54833981519152818501528082018390528151808203830181526060909101909152805192019190912061323c81613595565b6132885760405162461bcd60e51b815260206004820152601c60248201527f45544e5265676973747261723a2070726f6a65637420657869737473000000006044820152606401611309565b6040516306ab592360e01b8152600080516020615d548339815191526004820152602481018390523060448201527f00000000000000000000000000000000000000000000000000000000000000006001600160a01b0316906306ab5923906064016020604051808303816000875af1158015613309573d6000803e3d6000fd5b505050506040513d601f19601f8201168201806040525081019061332d919061585a565b5060405163bc053e7360e01b8152600481018290523060248201526001604482015281907f00000000000000000000000000000000000000000000000000000000000000006001600160a01b03169063bc053e7390606401600060405180830381600087803b15801561339f57600080fd5b505af11580156133b3573d6000803e3d6000fd5b505050506133c18682614346565b6000838152601f60209081526040808320805460ff1990811660011790915582805281842080546001600160a01b038c166001600160a01b0319909116179055858452601c83529281902080549093166002179092559051613427918a918a91016157be565b60408051601f198184030181529181526000848152601d602052209061344d9082615873565b50600085613468576134636301e13380426152d4565b61346b565b60005b6000848152601b60209081526040808320849055602190915290819020829055519091506001600160a01b0388169084907f3eb4c73a9505716b2a711327ce4189abdb5d3ed04046d986c58065f3df0e1cf990612ca0908d908d908c908890615932565b6000818152601b60205260408120548082036134ee5750600092915050565b8042118015613509575061350562278d00826152d4565b4211155b9392505050565b6001600160a01b03821661353a57604051633250574960e11b815260006004820152602401611309565b6000613547838333614360565b9050836001600160a01b0316816001600160a01b031614611d95576040516364283d7b60e01b81526001600160a01b0380861660048301526024820184905282166044820152606401611309565b600081816135a2826135f1565b6001600160a01b0316036135b95750600192915050565b6000838152601b6020526040812054908190036135da575060009392505050565b6135e762278d00826152d4565b4211949350505050565b6000908152600260205260409020546001600160a01b031690565b6000606461361b836032615821565b6136259190615838565b9050600061363382846152e7565b9050806025600082825461364791906152d4565b90915550506015546001600160a01b0316158015906136665750600082115b156136745761146c8261440c565b816025600082825461368691906152d4565b9091555050505050565b60006064600654846136a29190615821565b6136ac9190615838565b905060006064600754856136c09190615821565b6136ca9190615838565b90506000816136d984876152e7565b6136e391906152e7565b6001600160a01b0385166000908152602460205260408120805492935085929091906137109084906152d4565b92505081905550806025600082825461372991906152d4565b90915550506015546001600160a01b0316158015906137485750600082115b1561375b576137568261440c565b612a12565b816025600082825461376d91906152d4565b90915550505050505050565b600082828080601f01602080910402602001604051908101604052809392919081815260200183838082843760009201919091525050825192935050506001118015906137c85750603f815111155b6138145760405162461bcd60e51b815260206004820152601c60248201527f45544e5265676973747261723a20696e76616c6964206c656e677468000000006044820152606401611309565b8060008151811061382757613827615959565b6020910101516001600160f81b031916602d60f81b1480159061387c5750806001825161385491906152e7565b8151811061386457613864615959565b6020910101516001600160f81b031916602d60f81b14155b6138d65760405162461bcd60e51b815260206004820152602560248201527f45544e5265676973747261723a206c656164696e672f747261696c696e6720686044820152643cb83432b760d91b6064820152608401611309565b60005b8151811015611d955760008282815181106138f6576138f6615959565b01602001516001600160f81b0319169050606160f81b81108015906139295750603d60f91b6001600160f81b0319821611155b8061395b5750600360fc1b6001600160f81b031982161080159061395b5750603960f81b6001600160f81b0319821611155b806139735750602d60f81b6001600160f81b03198216145b6139d25760405162461bcd60e51b815260206004820152602a60248201527f45544e5265676973747261723a20696e76616c69642063686172202875736520604482015269612d7a20302d39202d2960b01b6064820152608401611309565b50806139dd8161596f565b9150506138d9565b60608101516000906001600160a01b031615613a05578160600151613a12565b6016546001600160a01b03165b602083015160408085015190516306ab592360e01b8152600481019290925260248201523060448201529091506001600160a01b037f000000000000000000000000000000000000000000000000000000000000000016906306ab5923906064016020604051808303816000875af1158015613a92573d6000803e3d6000fd5b505050506040513d601f19601f82011682018060405250810190613ab6919061585a565b506001600160a01b03811615613ba8578151604051630c4b7b8560e11b815260048101919091526001600160a01b0382811660248301527f00000000000000000000000000000000000000000000000000000000000000001690631896f70a90604401600060405180830381600087803b158015613b3357600080fd5b505af1158015613b47573d6000803e3d6000fd5b5050835160405162d5fa2b60e81b815260048101919091523360248201526001600160a01b038416925063d5fa2b009150604401600060405180830381600087803b158015613b9557600080fd5b505af1925050508015613ba6575060015b505b81516000613bb5826135f1565b6001600160a01b031614613bd257613bd06000826000614360565b505b825160405163bc053e7360e01b81526004810191909152306024820152600160448201527f00000000000000000000000000000000000000000000000000000000000000006001600160a01b03169063bc053e7390606401600060405180830381600087803b158015613c4457600080fd5b505af1158015613c58573d6000803e3d6000fd5b50505050613c663382614346565b60a083015183516000908152601c60209081526040808320805460ff191660ff9095169490941790935560c086015186518352601d90915291902090613cac9082615873565b5060e083015183516000908152601e6020526040902090613ccd9082615873565b508260800151613cea57613ce56301e13380426152d4565b613ced565b60005b92516000908152601b60205260409020929092555050565b6001600160a01b038216613d3757604051630b61174360e31b81526001600160a01b0383166004820152602401611309565b6001600160a01b03838116600081815260056020908152604080832094871680845294825291829020805460ff191686151590811790915591519182527f17307eab39ab6107e8899845ad3d59bd9653f200f220920489ca2b5937696c31910160405180910390a3505050565b613daf84848461143b565b611d95848484846146e9565b6000818152601d6020526040812080546060929190613dd9906151a7565b80601f0160208091040260200160405190810160405280929190818152602001828054613e05906151a7565b8015613e525780601f10613e2757610100808354040283529160200191613e52565b820191906000526020600020905b815481529060010190602001808311613e3557829003601f168201915b5050506000868152601c6020908152604080832054601b90925282205494955060ff169392508215915060028414613edc5760ff8416600114613eb25760405180604001604052806005815260200164426173696360d81b815250613eff565b6040518060400160405280600c81526020016b50726f6a656374204e616d6560a01b815250613eff565b604051806040016040528060098152602001684e616d65737061636560b81b8152505b9050600080601860008a81526020019081526020016000208054613f22906151a7565b905011613f30576019613f3f565b60008881526018602052604090205b8054613f4a906151a7565b80601f0160208091040260200160405190810160405280929190818152602001828054613f76906151a7565b8015613fc35780601f10613f9857610100808354040283529160200191613fc3565b820191906000526020600020905b815481529060010190602001808311613fa657829003601f168201915b50505050509050600080825111613fe9576040518060200160405280600081525061400a565b81604051602001613ffa9190615988565b6040516020818303038152906040525b60408051602081019091526000815290915060001960ff8816016140595760008a8152601e602090815260409182902091516140479291016159c6565b60405160208183030381529060405290505b60008561408d576140698761480b565b6040516020016140799190615a15565b6040516020818303038152906040526140a7565b604051806060016040528060288152602001615d2c602891395b905088838683856040516020016140c2959493929190615aa9565b6040516020818303038152906040529950505050505050505050919050565b6060815160000361410057505060408051602081019091526000815290565b6000604051806060016040528060408152602001615d74604091399050600060038451600261412f91906152d4565b6141399190615838565b614144906004615821565b6001600160401b0381111561415b5761415b614eb2565b6040519080825280601f01601f191660200182016040528015614185576020820181803683370190505b50905060018201602082018586518701602081018051600082525b828410156141fb576003840193508351603f8160121c168701518653600186019550603f81600c1c168701518653600186019550603f8160061c168701518653600186019550603f81168701518653506001850194506141a0565b905250508551600390066001811461421a576002811461422d57614235565b603d6001830353603d6002830353614235565b603d60018303535b509195945050505050565b808061425457506001600160a01b03821615155b1561431657600061426484613116565b90506001600160a01b038316158015906142905750826001600160a01b0316816001600160a01b031614155b80156142a357506142a18184612cb3565b155b156142cc5760405163a9fbf51f60e01b81526001600160a01b0384166004820152602401611309565b81156143145783856001600160a01b0316826001600160a01b03167f8c5be1e5ebec7d5bd14f71427d1e84f3dd0314c0f7b2291e5b200ac8c7c3b92560405160405180910390a45b505b5050600090815260046020526040902080546001600160a01b0319166001600160a01b0392909216919091179055565b61114782826040518060200160405280600081525061489d565b60008061436e8585856148b4565b9050836001600160a01b0386161561440357604051635b0fc9c360e01b8152600481018290526001600160a01b0387811660248301527f00000000000000000000000000000000000000000000000000000000000000001690635b0fc9c390604401600060405180830381600087803b1580156143ea57600080fd5b505af11580156143fe573d6000803e3d6000fd5b505050505b50949350505050565b6040805160028082526060820183526000926020830190803683370190505090507f00000000000000000000000000000000000000000000000000000000000000008160008151811061446157614461615959565b6001600160a01b03928316602091820292909201015260155482519116908290600190811061449257614492615959565b6001600160a01b0392831660209182029290920101526015546040516370a0823160e01b815230600482015260009291909116906370a0823190602401602060405180830381865afa1580156144ec573d6000803e3d6000fd5b505050506040513d601f19601f82011682018060405250810190614510919061585a565b90506001600160a01b037f000000000000000000000000000000000000000000000000000000000000000016637ff36ab584600085306145524261012c6152d4565b6040518663ffffffff1660e01b81526004016145719493929190615bce565b60006040518083038185885af1935050505080156145b157506040513d6000823e601f3d908101601f191682016040526145ae9190810190615c38565b60015b6145c757826025600082825461368691906152d4565b506015546040516370a0823160e01b815230600482015260009183916001600160a01b03909116906370a0823190602401602060405180830381865afa158015614615573d6000803e3d6000fd5b505050506040513d601f19601f82011682018060405250810190614639919061585a565b61464391906152e7565b90508015611d9557601554604051630852cd8d60e31b8152600481018390526001600160a01b03909116906342966c6890602401600060405180830381600087803b15801561469157600080fd5b505af11580156146a5573d6000803e3d6000fd5b505060408051878152602081018590527fe57db353d74387b493f22061e74785188560f4be86dcd76570580adbf41203aa935001905060405180910390a150505050565b6001600160a01b0383163b15611d9557604051630a85bd0160e11b81526001600160a01b0384169063150b7a029061472b903390889087908790600401615cd1565b6020604051808303816000875af1925050508015614766575060408051601f3d908101601f1916820190925261476391810190615d0e565b60015b6147cf573d808015614794576040519150601f19603f3d011682016040523d82523d6000602084013e614799565b606091505b5080516000036147c757604051633250574960e11b81526001600160a01b0385166004820152602401611309565b805181602001fd5b6001600160e01b03198116630a85bd0160e11b14612a1257604051633250574960e11b81526001600160a01b0385166004820152602401611309565b60606000614818836149a8565b60010190506000816001600160401b0381111561483757614837614eb2565b6040519080825280601f01601f191660200182016040528015614861576020820181803683370190505b5090508181016020015b600019016f181899199a1a9b1b9c1cb0b131b232b360811b600a86061a8153600a850494508461486b57509392505050565b6148a78383614a80565b61146c60008484846146e9565b6000806148c0846135f1565b90506001600160a01b038316156148dc576148dc818486614ae5565b6001600160a01b0381161561491a576148f9600085600080614240565b6001600160a01b038116600090815260036020526040902080546000190190555b6001600160a01b03851615614949576001600160a01b0385166000908152600360205260409020805460010190555b60008481526002602052604080822080546001600160a01b0319166001600160a01b0389811691821790925591518793918516917fddf252ad1be2c89b69c2b068fc378daa952ba7f163c4a11628f55a4df523b3ef91a4949350505050565b60008072184f03e93ff9f4daa797ed6e38ed64bf6a1f0160401b83106149e75772184f03e93ff9f4daa797ed6e38ed64bf6a1f0160401b830492506040015b6d04ee2d6d415b85acef81000000008310614a13576d04ee2d6d415b85acef8100000000830492506020015b662386f26fc100008310614a3157662386f26fc10000830492506010015b6305f5e1008310614a49576305f5e100830492506008015b6127108310614a5d57612710830492506004015b60648310614a6f576064830492506002015b600a831061105b5760010192915050565b6001600160a01b038216614aaa57604051633250574960e11b815260006004820152602401611309565b6000614ab883836000614360565b90506001600160a01b0381161561146c576040516339e3563760e11b815260006004820152602401611309565b614af0838383614b49565b61146c576001600160a01b038316614b1e57604051637e27328960e01b815260048101829052602401611309565b60405163177e802f60e01b81526001600160a01b038316600482015260248101829052604401611309565b60006001600160a01b03831615801590611c135750826001600160a01b0316846001600160a01b03161480614b835750614b838484612cb3565b80611c135750506000908152600460205260409020546001600160a01b03908116911614919050565b6001600160e01b031981168114614bc257600080fd5b50565b600060208284031215614bd757600080fd5b813561350981614bac565b60005b83811015614bfd578181015183820152602001614be5565b50506000910152565b60008151808452614c1e816020860160208601614be2565b601f01601f19169290920160200192915050565b6020815260006135096020830184614c06565b600060208284031215614c5757600080fd5b5035919050565b6001600160a01b0381168114614bc257600080fd5b60008060408385031215614c8657600080fd5b8235614c9181614c5e565b946020939093013593505050565b60008060408385031215614cb257600080fd5b823591506020830135614cc481614c5e565b809150509250929050565b60008083601f840112614ce157600080fd5b5081356001600160401b03811115614cf857600080fd5b602083019150836020828501011115614d1057600080fd5b9250929050565b60008060208385031215614d2a57600080fd5b82356001600160401b03811115614d4057600080fd5b614d4c85828601614ccf565b90969095509350505050565b600060208284031215614d6a57600080fd5b813561350981614c5e565b600080600060608486031215614d8a57600080fd5b8335614d9581614c5e565b92506020840135614da581614c5e565b929592945050506040919091013590565b60008060408385031215614dc957600080fd5b50508035926020909101359150565b80358015158114614de857600080fd5b919050565b60008060008060008060808789031215614e0657600080fd5b86356001600160401b0380821115614e1d57600080fd5b614e298a838b01614ccf565b90985096506020890135915080821115614e4257600080fd5b50614e4f89828a01614ccf565b9095509350506040870135614e6381614c5e565b9150614e7160608801614dd8565b90509295509295509295565b60008060408385031215614e9057600080fd5b8235614e9b81614c5e565b9150614ea960208401614dd8565b90509250929050565b634e487b7160e01b600052604160045260246000fd5b604051601f8201601f191681016001600160401b0381118282101715614ef057614ef0614eb2565b604052919050565b60008060008060808587031215614f0e57600080fd5b8435614f1981614c5e565b9350602085810135614f2a81614c5e565b93506040860135925060608601356001600160401b0380821115614f4d57600080fd5b818801915088601f830112614f6157600080fd5b813581811115614f7357614f73614eb2565b614f85601f8201601f19168501614ec8565b91508082528984828501011115614f9b57600080fd5b808484018584013760008482840101525080935050505092959194509250565b60008060008060408587031215614fd157600080fd5b84356001600160401b0380821115614fe857600080fd5b614ff488838901614ccf565b9096509450602087013591508082111561500d57600080fd5b5061501a87828801614ccf565b95989497509550505050565b60008060006040848603121561503b57600080fd5b83356001600160401b0381111561505157600080fd5b61505d86828701614ccf565b9094509250615070905060208501614dd8565b90509250925092565b6000806000806060858703121561508f57600080fd5b84356001600160401b038111156150a557600080fd5b6150b187828801614ccf565b90955093505060208501356150c581614c5e565b91506150d360408601614dd8565b905092959194509250565b600080604083850312156150f157600080fd5b82356150fc81614c5e565b91506020830135614cc481614c5e565b60008060006040848603121561512157600080fd5b8335925060208401356001600160401b0381111561513e57600080fd5b61514a86828701614ccf565b9497909650939450505050565b6000806000806060858703121561516d57600080fd5b84356001600160401b0381111561518357600080fd5b61518f87828801614ccf565b90989097506020870135966040013595509350505050565b600181811c908216806151bb57607f821691505b6020821081036151db57634e487b7160e01b600052602260045260246000fd5b50919050565b600081516151f3818560208601614be2565b9290920192915050565b6000825161520f818460208701614be2565b9190910192915050565b60006020828403121561522b57600080fd5b815161350981614c5e565b60208082526017908201527f45544e5265676973747261723a206e6f74206f776e6572000000000000000000604082015260600190565b60208082526031908201527f45544e5265676973747261723a2063616e6e6f74207472616e736665722064756040820152701c9a5b99c819dc9858d9481c195c9a5bd9607a1b606082015260800190565b634e487b7160e01b600052601160045260246000fd5b8082018082111561105b5761105b6152be565b8181038181111561105b5761105b6152be565b60208082526018908201527f45544e5265676973747261723a207a65726f2070726963650000000000000000604082015260600190565b6060808252600990820152686e616d65737061636560b81b60808201526020810192909252604082015260a00190565b8183823760009101908152919050565b60208082526029908201527f45544e5265676973747261723a206c69666574696d652c206e6f2072656e6577604082015268185b081b995959195960ba1b606082015260800190565b60208082526022908201527f45544e5265676973747261723a20677261636520706572696f64206578706972604082015261195960f21b606082015260800190565b6020808252601e908201527f45544e5265676973747261723a20696e73756666696369656e74206665650000604082015260600190565b6020808252601b908201527f45544e5265676973747261723a20726566756e64206661696c65640000000000604082015260600190565b805169ffffffffffffffffffff81168114614de857600080fd5b600080600080600060a0868803121561549c57600080fd5b6154a58661546a565b94506020860151935060408601519250606086015191506154c86080870161546a565b90509295509295909350565b600081546154e1816151a7565b600182811680156154f9576001811461550e5761553d565b60ff198416875282151583028701945061553d565b8560005260208060002060005b858110156155345781548a82015290840190820161551b565b50505082870194505b5050505092915050565b600061350982846154d4565b838582376000848201601760f91b815283856001830137631732ba3760e11b9301600181019390935250506005019392505050565b60808152600061559b6080830186614c06565b82810360208401526155bd81600381526232ba3760e91b602082015260400190565b9415156040840152505060600152919050565b606080825260059082015264626173696360d81b60808201526020810192909252604082015260a00190565b6060808252600c908201526b70726f6a6563742d6e616d6560a01b60808201526020810192909252604082015260a00190565b601f82111561146c57600081815260208120601f850160051c810160208610156156565750805b601f850160051c820191505b8181101561567557828155600101615662565b505050505050565b6001600160401b0383111561569457615694614eb2565b6156a8836156a283546151a7565b8361562f565b6000601f8411600181146156dc57600085156156c45750838201355b600019600387901b1c1916600186901b178355612a12565b600083815260209020601f19861690835b8281101561570d57868501358255602094850194600190920191016156ed565b508682101561572a5760001960f88860031b161c19848701351681555b505060018560011b0183555050505050565b81835281816020850137506000828201602090810191909152601f909101601f19169091010190565b602081526000611c1360208301848661573c565b7f646174613a6170706c69636174696f6e2f6a736f6e3b6261736536342c0000008152600082516157b181601d850160208701614be2565b91909101601d0192915050565b81838237631732ba3760e11b9101908152600401919050565b6080815260006157eb60808301868861573c565b828103602084015261580d81600381526232ba3760e91b602082015260400190565b941515604084015250506060015292915050565b808202811582820484141761105b5761105b6152be565b60008261585557634e487b7160e01b600052601260045260246000fd5b500490565b60006020828403121561586c57600080fd5b5051919050565b81516001600160401b0381111561588c5761588c614eb2565b6158a08161589a84546151a7565b8461562f565b602080601f8311600181146158d557600084156158bd5750858301515b600019600386901b1c1916600185901b178555615675565b600085815260208120601f198616915b82811015615904578886015182559484019460019091019084016158e5565b50858210156159225787850151600019600388901b60f8161c191681555b5050505050600190811b01905550565b60608152600061594660608301868861573c565b9315156020830152506040015292915050565b634e487b7160e01b600052603260045260246000fd5b600060018201615981576159816152be565b5060010190565b681134b6b0b3b2911d1160b91b815281516000906159ad816009850160208701614be2565b61088b60f21b6009939091019283015250600b01919050565b7f2c7b2274726169745f74797065223a2250726f6a656374222c2276616c7565228152611d1160f11b60208201526000615a0360228301846154d4565b61227d60f01b81526002019392505050565b7f7b2274726169745f74797065223a224c69666574696d65222c2276616c7565228152690e8899985b1cd9489f4b60b21b60208201527f7b2274726169745f74797065223a2245787069726573222c2276616c7565223a602a820152601160f91b604a82015260008251615a9081604b850160208701614be2565b61227d60f01b604b939091019283015250604d01919050565b683d913730b6b2911d1160b91b81528551600090615ace816009850160208b01614be2565b61088b60f21b6009918401918201527f226465736372697074696f6e223a22416e20456c656374726f6e65756d204e61600b820152751b594814d95c9d9a58d9481a59195b9d1a5d1e4b888b60521b602b8201528651615b35816041840160208b01614be2565b6d2261747472696275746573223a5b60901b604192909101918201527f7b2274726169745f74797065223a2254797065222c2276616c7565223a220000604f8201528551615b8a81606d840160208a01614be2565b62089f4b60ea1b606d9290910191820152615bc2615bb4615bae60708401886151e1565b866151e1565b615d7d60f01b815260020190565b98975050505050505050565b600060808201868352602060808185015281875180845260a086019150828901935060005b81811015615c185784516001600160a01b031683529383019391830191600101615bf3565b50506001600160a01b039690961660408501525050506060015292915050565b60006020808385031215615c4b57600080fd5b82516001600160401b0380821115615c6257600080fd5b818501915085601f830112615c7657600080fd5b815181811115615c8857615c88614eb2565b8060051b9150615c99848301614ec8565b8181529183018401918481019088841115615cb357600080fd5b938501935b83851015615bc257845182529385019390850190615cb8565b6001600160a01b0385811682528416602082015260408101839052608060608201819052600090615d0490830184614c06565b9695505050505050565b600060208284031215615d2057600080fd5b815161350981614bac56fe7b2274726169745f74797065223a224c69666574696d65222c2276616c7565223a2274727565227d69a3977d40595dbc343e3fa6ddbd26dbe31cc237836622384941b3c5148974cd4142434445464748494a4b4c4d4e4f505152535455565758595a6162636465666768696a6b6c6d6e6f707172737475767778797a303132333435363738392b2fa26469706673582212204665326ce7fbc5ff9de134b6fa88b5c60ec603df90356156431898599f61a86064736f6c63430008140033506c616e6574205a65706879726f73202d20456c656374726f6e65756d204e616d652053657276696365",
			"opcodes": "PUSH1 0xE0 PUSH1 0x40 MSTORE PUSH1 0x50 PUSH1 0x6 SSTORE PUSH1 0xA PUSH1 0x7 SSTORE PUSH3 0x989680 PUSH1 0x8 SSTORE PUSH4 0x17D7840 PUSH1 0x9 SSTORE PUSH3 0x989680 PUSH1 0xA SSTORE PUSH4 0x17D7840 PUSH1 0xB SSTORE PUSH4 0x1DCD6500 PUSH1 0xC SSTORE PUSH4 0x4A817C80 PUSH1 0xD SSTORE PUSH10 0x10F0CF064DD59200000 PUSH1 0xE SSTORE PUSH10 0x54B40B1F852BDA00000 PUSH1 0xF SSTORE PUSH10 0x10F0CF064DD59200000 PUSH1 0x10 SSTORE PUSH10 0x54B40B1F852BDA00000 PUSH1 0x11 SSTORE PUSH10 0x152D02C7E14AF6800000 PUSH1 0x12 SSTORE PUSH10 0x34F086F3B33B68400000 PUSH1 0x13 SSTORE CALLVALUE DUP1 ISZERO PUSH3 0x9D JUMPI PUSH1 0x0 DUP1 REVERT JUMPDEST POP PUSH1 0x40 MLOAD PUSH3 0x61E9 CODESIZE SUB DUP1 PUSH3 0x61E9 DUP4 CODECOPY DUP2 ADD PUSH1 0x40 DUP2 SWAP1 MSTORE PUSH3 0xC0 SWAP2 PUSH3 0x186 JUMP JUMPDEST PUSH1 0x40 MLOAD DUP1 PUSH1 0x60 ADD PUSH1 0x40 MSTORE DUP1 PUSH1 0x2A DUP2 MSTORE PUSH1 0x20 ADD PUSH3 0x61BF PUSH1 0x2A SWAP2 CODECOPY PUSH1 0x40 DUP1 MLOAD DUP1 DUP3 ADD SWAP1 SWAP2 MSTORE PUSH1 0x5 DUP2 MSTORE PUSH5 0x505A454E53 PUSH1 0xD8 SHL PUSH1 0x20 DUP3 ADD MSTORE PUSH1 0x0 PUSH3 0x104 DUP4 DUP3 PUSH3 0x29B JUMP JUMPDEST POP PUSH1 0x1 PUSH3 0x113 DUP3 DUP3 PUSH3 0x29B JUMP JUMPDEST POP POP POP PUSH1 0x1 PUSH1 0x1 PUSH1 0xA0 SHL SUB SWAP5 DUP6 AND PUSH1 0x80 MSTORE SWAP3 DUP5 AND PUSH1 0xA0 MSTORE SWAP1 DUP4 AND PUSH1 0xC0 MSTORE PUSH1 0x15 DUP1 SLOAD SWAP2 DUP5 AND PUSH1 0x1 PUSH1 0x1 PUSH1 0xA0 SHL SUB NOT SWAP3 DUP4 AND OR SWAP1 SSTORE PUSH1 0x16 DUP1 SLOAD SWAP3 SWAP1 SWAP4 AND SWAP2 DUP2 AND SWAP2 SWAP1 SWAP2 OR SWAP1 SWAP2 SSTORE PUSH1 0x14 DUP1 SLOAD SWAP1 SWAP2 AND CALLER OR SWAP1 SSTORE PUSH3 0x367 JUMP JUMPDEST DUP1 MLOAD PUSH1 0x1 PUSH1 0x1 PUSH1 0xA0 SHL SUB DUP2 AND DUP2 EQ PUSH3 0x181 JUMPI PUSH1 0x0 DUP1 REVERT JUMPDEST SWAP2 SWAP1 POP JUMP JUMPDEST PUSH1 0x0 DUP1 PUSH1 0x0 DUP1 PUSH1 0x0 PUSH1 0xA0 DUP7 DUP9 SUB SLT ISZERO PUSH3 0x19F JUMPI PUSH1 0x0 DUP1 REVERT JUMPDEST PUSH3 0x1AA DUP7 PUSH3 0x169 JUMP JUMPDEST SWAP5 POP PUSH3 0x1BA PUSH1 0x20 DUP8 ADD PUSH3 0x169 JUMP JUMPDEST SWAP4 POP PUSH3 0x1CA PUSH1 0x40 DUP8 ADD PUSH3 0x169 JUMP JUMPDEST SWAP3 POP PUSH3 0x1DA PUSH1 0x60 DUP8 ADD PUSH3 0x169 JUMP JUMPDEST SWAP2 POP PUSH3 0x1EA PUSH1 0x80 DUP8 ADD PUSH3 0x169 JUMP JUMPDEST SWAP1 POP SWAP3 SWAP6 POP SWAP3 SWAP6 SWAP1 SWAP4 POP JUMP JUMPDEST PUSH4 0x4E487B71 PUSH1 0xE0 SHL PUSH1 0x0 MSTORE PUSH1 0x41 PUSH1 0x4 MSTORE PUSH1 0x24 PUSH1 0x0 REVERT JUMPDEST PUSH1 0x1 DUP2 DUP2 SHR SWAP1 DUP3 AND DUP1 PUSH3 0x221 JUMPI PUSH1 0x7F DUP3 AND SWAP2 POP JUMPDEST PUSH1 0x20 DUP3 LT DUP2 SUB PUSH3 0x242 JUMPI PUSH4 0x4E487B71 PUSH1 0xE0 SHL PUSH1 0x0 MSTORE PUSH1 0x22 PUSH1 0x4 MSTORE PUSH1 0x24 PUSH1 0x0 REVERT JUMPDEST POP SWAP2 SWAP1 POP JUMP JUMPDEST PUSH1 0x1F DUP3 GT ISZERO PUSH3 0x296 JUMPI PUSH1 0x0 DUP2 DUP2 MSTORE PUSH1 0x20 DUP2 KECCAK256 PUSH1 0x1F DUP6 ADD PUSH1 0x5 SHR DUP2 ADD PUSH1 0x20 DUP7 LT ISZERO PUSH3 0x271 JUMPI POP DUP1 JUMPDEST PUSH1 0x1F DUP6 ADD PUSH1 0x5 SHR DUP3 ADD SWAP2 POP JUMPDEST DUP2 DUP2 LT ISZERO PUSH3 0x292 JUMPI DUP3 DUP2 SSTORE PUSH1 0x1 ADD PUSH3 0x27D JUMP JUMPDEST POP POP POP JUMPDEST POP POP POP JUMP JUMPDEST DUP2 MLOAD PUSH1 0x1 PUSH1 0x1 PUSH1 0x40 SHL SUB DUP2 GT ISZERO PUSH3 0x2B7 JUMPI PUSH3 0x2B7 PUSH3 0x1F6 JUMP JUMPDEST PUSH3 0x2CF DUP2 PUSH3 0x2C8 DUP5 SLOAD PUSH3 0x20C JUMP JUMPDEST DUP5 PUSH3 0x248 JUMP JUMPDEST PUSH1 0x20 DUP1 PUSH1 0x1F DUP4 GT PUSH1 0x1 DUP2 EQ PUSH3 0x307 JUMPI PUSH1 0x0 DUP5 ISZERO PUSH3 0x2EE JUMPI POP DUP6 DUP4 ADD MLOAD JUMPDEST PUSH1 0x0 NOT PUSH1 0x3 DUP7 SWAP1 SHL SHR NOT AND PUSH1 0x1 DUP6 SWAP1 SHL OR DUP6 SSTORE PUSH3 0x292 JUMP JUMPDEST PUSH1 0x0 DUP6 DUP2 MSTORE PUSH1 0x20 DUP2 KECCAK256 PUSH1 0x1F NOT DUP7 AND SWAP2 JUMPDEST DUP3 DUP2 LT ISZERO PUSH3 0x338 JUMPI DUP9 DUP7 ADD MLOAD DUP3 SSTORE SWAP5 DUP5 ADD SWAP5 PUSH1 0x1 SWAP1 SWAP2 ADD SWAP1 DUP5 ADD PUSH3 0x317 JUMP JUMPDEST POP DUP6 DUP3 LT ISZERO PUSH3 0x357 JUMPI DUP8 DUP6 ADD MLOAD PUSH1 0x0 NOT PUSH1 0x3 DUP9 SWAP1 SHL PUSH1 0xF8 AND SHR NOT AND DUP2 SSTORE JUMPDEST POP POP POP POP POP PUSH1 0x1 SWAP1 DUP2 SHL ADD SWAP1 SSTORE POP JUMP JUMPDEST PUSH1 0x80 MLOAD PUSH1 0xA0 MLOAD PUSH1 0xC0 MLOAD PUSH2 0x5DE9 PUSH3 0x3D6 PUSH1 0x0 CODECOPY PUSH1 0x0 DUP2 DUP2 PUSH2 0x9B7 ADD MSTORE PUSH2 0x442F ADD MSTORE PUSH1 0x0 DUP2 DUP2 PUSH2 0xF8B ADD MSTORE PUSH2 0x451C ADD MSTORE PUSH1 0x0 DUP2 DUP2 PUSH2 0xB15 ADD MSTORE DUP2 DUP2 PUSH2 0x1D35 ADD MSTORE DUP2 DUP2 PUSH2 0x32B8 ADD MSTORE DUP2 DUP2 PUSH2 0x3353 ADD MSTORE DUP2 DUP2 PUSH2 0x3A49 ADD MSTORE DUP2 DUP2 PUSH2 0x3AEF ADD MSTORE DUP2 DUP2 PUSH2 0x3BF8 ADD MSTORE PUSH2 0x43A6 ADD MSTORE PUSH2 0x5DE9 PUSH1 0x0 RETURN INVALID PUSH1 0x80 PUSH1 0x40 MSTORE PUSH1 0x4 CALLDATASIZE LT PUSH2 0x4E4 JUMPI PUSH1 0x0 CALLDATALOAD PUSH1 0xE0 SHR DUP1 PUSH4 0x741BEF1A GT PUSH2 0x281 JUMPI DUP1 PUSH4 0xB2E1A01E GT PUSH2 0x15A JUMPI DUP1 PUSH4 0xD8EA6420 GT PUSH2 0xCC JUMPI DUP1 PUSH4 0xEE676CBE GT PUSH2 0x85 JUMPI DUP1 PUSH4 0xEE676CBE EQ PUSH2 0xF19 JUMPI DUP1 PUSH4 0xEED27C1A EQ PUSH2 0xF39 JUMPI DUP1 PUSH4 0xF2FDE38B EQ PUSH2 0xF59 JUMPI DUP1 PUSH4 0xF887EA40 EQ PUSH2 0xF79 JUMPI DUP1 PUSH4 0xFE13F749 EQ PUSH2 0xFAD JUMPI DUP1 PUSH4 0xFEE483CE EQ PUSH2 0xFDA JUMPI PUSH1 0x0 DUP1 REVERT JUMPDEST DUP1 PUSH4 0xD8EA6420 EQ PUSH2 0xE5B JUMPI DUP1 PUSH4 0xDDE870AD EQ PUSH2 0xE6E JUMPI DUP1 PUSH4 0xDE04CE10 EQ PUSH2 0xEB0 JUMPI DUP1 PUSH4 0xDEB931A2 EQ PUSH2 0xEC6 JUMPI DUP1 PUSH4 0xE403326E EQ PUSH2 0xEE6 JUMPI DUP1 PUSH4 0xE985E9C5 EQ PUSH2 0xEF9 JUMPI PUSH1 0x0 DUP1 REVERT JUMPDEST DUP1 PUSH4 0xC5372916 GT PUSH2 0x11E JUMPI DUP1 PUSH4 0xC5372916 EQ PUSH2 0xD83 JUMPI DUP1 PUSH4 0xC582DA00 EQ PUSH2 0xDA3 JUMPI DUP1 PUSH4 0xC66485B2 EQ PUSH2 0xDD0 JUMPI DUP1 PUSH4 0xC87B56DD EQ PUSH2 0xDF0 JUMPI DUP1 PUSH4 0xD686F546 EQ PUSH2 0xE10 JUMPI DUP1 PUSH4 0xD873B497 EQ PUSH2 0xE45 JUMPI PUSH1 0x0 DUP1 REVERT JUMPDEST DUP1 PUSH4 0xB2E1A01E EQ PUSH2 0xCEC JUMPI DUP1 PUSH4 0xB75F1AEF EQ PUSH2 0xD0C JUMPI DUP1 PUSH4 0xB88D4FDE EQ PUSH2 0xD2C JUMPI DUP1 PUSH4 0xBC1E19CE EQ PUSH2 0xD4C JUMPI DUP1 PUSH4 0xC1A287E2 EQ PUSH2 0xD6C JUMPI PUSH1 0x0 DUP1 REVERT JUMPDEST DUP1 PUSH4 0x9023F836 GT PUSH2 0x1F3 JUMPI DUP1 PUSH4 0x9B71BDE1 GT PUSH2 0x1B7 JUMPI DUP1 PUSH4 0x9B71BDE1 EQ PUSH2 0xC42 JUMPI DUP1 PUSH4 0xA1A2D62B EQ PUSH2 0xC62 JUMPI DUP1 PUSH4 0xA22CB465 EQ PUSH2 0xC82 JUMPI DUP1 PUSH4 0xA93B660D EQ PUSH2 0xCA2 JUMPI DUP1 PUSH4 0xAACCA889 EQ PUSH2 0xCB7 JUMPI DUP1 PUSH4 0xB13C25FE EQ PUSH2 0xCCC JUMPI PUSH1 0x0 DUP1 REVERT JUMPDEST DUP1 PUSH4 0x9023F836 EQ PUSH2 0xBD8 JUMPI DUP1 PUSH4 0x946980A7 EQ PUSH2 0xBEB JUMPI DUP1 PUSH4 0x95D89B41 EQ PUSH2 0xC01 JUMPI DUP1 PUSH4 0x97725FB2 EQ PUSH2 0xC16 JUMPI DUP1 PUSH4 0x986A4237 EQ PUSH2 0xC2C JUMPI PUSH1 0x0 DUP1 REVERT JUMPDEST DUP1 PUSH4 0x806B8495 GT PUSH2 0x245 JUMPI DUP1 PUSH4 0x806B8495 EQ PUSH2 0xB37 JUMPI DUP1 PUSH4 0x807596E7 EQ PUSH2 0xB4D JUMPI DUP1 PUSH4 0x828EAB0E EQ PUSH2 0xB6D JUMPI DUP1 PUSH4 0x8476FAE7 EQ PUSH2 0xB8D JUMPI DUP1 PUSH4 0x8DA5CB5B EQ PUSH2 0xBA5 JUMPI DUP1 PUSH4 0x8E32762D EQ PUSH2 0xBC5 JUMPI PUSH1 0x0 DUP1 REVERT JUMPDEST DUP1 PUSH4 0x741BEF1A EQ PUSH2 0xA8E JUMPI DUP1 PUSH4 0x77B72F58 EQ PUSH2 0xAAE JUMPI DUP1 PUSH4 0x7897B604 EQ PUSH2 0xAC4 JUMPI DUP1 PUSH4 0x796DA7AF EQ PUSH2 0xAD9 JUMPI DUP1 PUSH4 0x7B103999 EQ PUSH2 0xB03 JUMPI PUSH1 0x0 DUP1 REVERT JUMPDEST DUP1 PUSH4 0x38975895 GT PUSH2 0x3BE JUMPI DUP1 PUSH4 0x5C36901C GT PUSH2 0x330 JUMPI DUP1 PUSH4 0x6841FD08 GT PUSH2 0x2E9 JUMPI DUP1 PUSH4 0x6841FD08 EQ PUSH2 0x9EF JUMPI DUP1 PUSH4 0x68DC978A EQ PUSH2 0xA02 JUMPI DUP1 PUSH4 0x70A08231 EQ PUSH2 0xA22 JUMPI DUP1 PUSH4 0x7104067C EQ PUSH2 0xA42 JUMPI DUP1 PUSH4 0x720246BB EQ PUSH2 0xA58 JUMPI DUP1 PUSH4 0x724E78DA EQ PUSH2 0xA6E JUMPI PUSH1 0x0 DUP1 REVERT JUMPDEST DUP1 PUSH4 0x5C36901C EQ PUSH2 0x925 JUMPI DUP1 PUSH4 0x5CEB3920 EQ PUSH2 0x945 JUMPI DUP1 PUSH4 0x615FF3FC EQ PUSH2 0x965 JUMPI DUP1 PUSH4 0x6352211E EQ PUSH2 0x985 JUMPI DUP1 PUSH4 0x66650B7B EQ PUSH2 0x9A5 JUMPI DUP1 PUSH4 0x682C2058 EQ PUSH2 0x9D9 JUMPI PUSH1 0x0 DUP1 REVERT JUMPDEST DUP1 PUSH4 0x4502C7C4 GT PUSH2 0x382 JUMPI DUP1 PUSH4 0x4502C7C4 EQ PUSH2 0x864 JUMPI DUP1 PUSH4 0x4D643128 EQ PUSH2 0x879 JUMPI DUP1 PUSH4 0x50ABDADE EQ PUSH2 0x88F JUMPI DUP1 PUSH4 0x52B2BF87 EQ PUSH2 0x8BC JUMPI DUP1 PUSH4 0x52CC3B21 EQ PUSH2 0x8D2 JUMPI DUP1 PUSH4 0x58CA93F7 EQ PUSH2 0x90F JUMPI PUSH1 0x0 DUP1 REVERT JUMPDEST DUP1 PUSH4 0x38975895 EQ PUSH2 0x7C9 JUMPI DUP1 PUSH4 0x38E757D5 EQ PUSH2 0x7F9 JUMPI DUP1 PUSH4 0x3A40705A EQ PUSH2 0x80E JUMPI DUP1 PUSH4 0x3ED79408 EQ PUSH2 0x824 JUMPI DUP1 PUSH4 0x42842E0E EQ PUSH2 0x844 JUMPI PUSH1 0x0 DUP1 REVERT JUMPDEST DUP1 PUSH4 0x12F0D8AF GT PUSH2 0x457 JUMPI DUP1 PUSH4 0x23B872DD GT PUSH2 0x41B JUMPI DUP1 PUSH4 0x23B872DD EQ PUSH2 0x706 JUMPI DUP1 PUSH4 0x2428619B EQ PUSH2 0x726 JUMPI DUP1 PUSH4 0x287A3338 EQ PUSH2 0x746 JUMPI DUP1 PUSH4 0x3297E10D EQ PUSH2 0x75C JUMPI DUP1 PUSH4 0x3412E044 EQ PUSH2 0x77C JUMPI DUP1 PUSH4 0x370BB52E EQ PUSH2 0x79C JUMPI PUSH1 0x0 DUP1 REVERT JUMPDEST DUP1 PUSH4 0x12F0D8AF EQ PUSH2 0x663 JUMPI DUP1 PUSH4 0x14FB021C EQ PUSH2 0x679 JUMPI DUP1 PUSH4 0x15EE4DF1 EQ PUSH2 0x699 JUMPI DUP1 PUSH4 0x164E68DE EQ PUSH2 0x6B9 JUMPI DUP1 PUSH4 0x232D097C EQ PUSH2 0x6D9 JUMPI PUSH1 0x0 DUP1 REVERT JUMPDEST DUP1 PUSH4 0x81812FC GT PUSH2 0x4A9 JUMPI DUP1 PUSH4 0x81812FC EQ PUSH2 0x594 JUMPI DUP1 PUSH4 0x95EA7B3 EQ PUSH2 0x5CC JUMPI DUP1 PUSH4 0xB1F7E2E EQ PUSH2 0x5EE JUMPI DUP1 PUSH4 0xC0B5E84 EQ PUSH2 0x60E JUMPI DUP1 PUSH4 0xC2B72E9 EQ PUSH2 0x62E JUMPI DUP1 PUSH4 0x11D442A4 EQ PUSH2 0x64E JUMPI PUSH1 0x0 DUP1 REVERT JUMPDEST DUP1 PUSH3 0x3C3846 EQ PUSH2 0x4F0 JUMPI DUP1 PUSH4 0x1FFC9A7 EQ PUSH2 0x518 JUMPI DUP1 PUSH4 0x2496B05 EQ PUSH2 0x548 JUMPI DUP1 PUSH4 0x2625DE9 EQ PUSH2 0x55D JUMPI DUP1 PUSH4 0x6FDDE03 EQ PUSH2 0x572 JUMPI PUSH1 0x0 DUP1 REVERT JUMPDEST CALLDATASIZE PUSH2 0x4EB JUMPI STOP JUMPDEST PUSH1 0x0 DUP1 REVERT JUMPDEST CALLVALUE DUP1 ISZERO PUSH2 0x4FC JUMPI PUSH1 0x0 DUP1 REVERT JUMPDEST POP PUSH2 0x505 PUSH2 0xFFA JUMP JUMPDEST PUSH1 0x40 MLOAD SWAP1 DUP2 MSTORE PUSH1 0x20 ADD JUMPDEST PUSH1 0x40 MLOAD DUP1 SWAP2 SUB SWAP1 RETURN JUMPDEST CALLVALUE DUP1 ISZERO PUSH2 0x524 JUMPI PUSH1 0x0 DUP1 REVERT JUMPDEST POP PUSH2 0x538 PUSH2 0x533 CALLDATASIZE PUSH1 0x4 PUSH2 0x4BC5 JUMP JUMPDEST PUSH2 0x100F JUMP JUMPDEST PUSH1 0x40 MLOAD SWAP1 ISZERO ISZERO DUP2 MSTORE PUSH1 0x20 ADD PUSH2 0x50F JUMP JUMPDEST CALLVALUE DUP1 ISZERO PUSH2 0x554 JUMPI PUSH1 0x0 DUP1 REVERT JUMPDEST POP PUSH2 0x505 PUSH2 0x1061 JUMP JUMPDEST CALLVALUE DUP1 ISZERO PUSH2 0x569 JUMPI PUSH1 0x0 DUP1 REVERT JUMPDEST POP PUSH2 0x505 PUSH2 0x1071 JUMP JUMPDEST CALLVALUE DUP1 ISZERO PUSH2 0x57E JUMPI PUSH1 0x0 DUP1 REVERT JUMPDEST POP PUSH2 0x587 PUSH2 0x1081 JUMP JUMPDEST PUSH1 0x40 MLOAD PUSH2 0x50F SWAP2 SWAP1 PUSH2 0x4C32 JUMP JUMPDEST CALLVALUE DUP1 ISZERO PUSH2 0x5A0 JUMPI PUSH1 0x0 DUP1 REVERT JUMPDEST POP PUSH2 0x5B4 PUSH2 0x5AF CALLDATASIZE PUSH1 0x4 PUSH2 0x4C45 JUMP JUMPDEST PUSH2 0x1113 JUMP JUMPDEST PUSH1 0x40 MLOAD PUSH1 0x1 PUSH1 0x1 PUSH1 0xA0 SHL SUB SWAP1 SWAP2 AND DUP2 MSTORE PUSH1 0x20 ADD PUSH2 0x50F JUMP JUMPDEST CALLVALUE DUP1 ISZERO PUSH2 0x5D8 JUMPI PUSH1 0x0 DUP1 REVERT JUMPDEST POP PUSH2 0x5EC PUSH2 0x5E7 CALLDATASIZE PUSH1 0x4 PUSH2 0x4C73 JUMP JUMPDEST PUSH2 0x113C JUMP JUMPDEST STOP JUMPDEST CALLVALUE DUP1 ISZERO PUSH2 0x5FA JUMPI PUSH1 0x0 DUP1 REVERT JUMPDEST POP PUSH1 0x17 SLOAD PUSH2 0x5B4 SWAP1 PUSH1 0x1 PUSH1 0x1 PUSH1 0xA0 SHL SUB AND DUP2 JUMP JUMPDEST CALLVALUE DUP1 ISZERO PUSH2 0x61A JUMPI PUSH1 0x0 DUP1 REVERT JUMPDEST POP PUSH2 0x5B4 PUSH2 0x629 CALLDATASIZE PUSH1 0x4 PUSH2 0x4C9F JUMP JUMPDEST PUSH2 0x114B JUMP JUMPDEST CALLVALUE DUP1 ISZERO PUSH2 0x63A JUMPI PUSH1 0x0 DUP1 REVERT JUMPDEST POP PUSH1 0x15 SLOAD PUSH2 0x5B4 SWAP1 PUSH1 0x1 PUSH1 0x1 PUSH1 0xA0 SHL SUB AND DUP2 JUMP JUMPDEST CALLVALUE DUP1 ISZERO PUSH2 0x65A JUMPI PUSH1 0x0 DUP1 REVERT JUMPDEST POP PUSH2 0x505 PUSH2 0x1235 JUMP JUMPDEST CALLVALUE DUP1 ISZERO PUSH2 0x66F JUMPI PUSH1 0x0 DUP1 REVERT JUMPDEST POP PUSH2 0x505 PUSH1 0x11 SLOAD DUP2 JUMP JUMPDEST CALLVALUE DUP1 ISZERO PUSH2 0x685 JUMPI PUSH1 0x0 DUP1 REVERT JUMPDEST POP PUSH2 0x587 PUSH2 0x694 CALLDATASIZE PUSH1 0x4 PUSH2 0x4C45 JUMP JUMPDEST PUSH2 0x1245 JUMP JUMPDEST CALLVALUE DUP1 ISZERO PUSH2 0x6A5 JUMPI PUSH1 0x0 DUP1 REVERT JUMPDEST POP PUSH2 0x5EC PUSH2 0x6B4 CALLDATASIZE PUSH1 0x4 PUSH2 0x4D17 JUMP JUMPDEST PUSH2 0x12DF JUMP JUMPDEST CALLVALUE DUP1 ISZERO PUSH2 0x6C5 JUMPI PUSH1 0x0 DUP1 REVERT JUMPDEST POP PUSH2 0x5EC PUSH2 0x6D4 CALLDATASIZE PUSH1 0x4 PUSH2 0x4D58 JUMP JUMPDEST PUSH2 0x131F JUMP JUMPDEST CALLVALUE DUP1 ISZERO PUSH2 0x6E5 JUMPI PUSH1 0x0 DUP1 REVERT JUMPDEST POP PUSH2 0x505 PUSH2 0x6F4 CALLDATASIZE PUSH1 0x4 PUSH2 0x4D58 JUMP JUMPDEST PUSH1 0x24 PUSH1 0x20 MSTORE PUSH1 0x0 SWAP1 DUP2 MSTORE PUSH1 0x40 SWAP1 KECCAK256 SLOAD DUP2 JUMP JUMPDEST CALLVALUE DUP1 ISZERO PUSH2 0x712 JUMPI PUSH1 0x0 DUP1 REVERT JUMPDEST POP PUSH2 0x5EC PUSH2 0x721 CALLDATASIZE PUSH1 0x4 PUSH2 0x4D75 JUMP JUMPDEST PUSH2 0x143B JUMP JUMPDEST CALLVALUE DUP1 ISZERO PUSH2 0x732 JUMPI PUSH1 0x0 DUP1 REVERT JUMPDEST POP PUSH2 0x5EC PUSH2 0x741 CALLDATASIZE PUSH1 0x4 PUSH2 0x4DB6 JUMP JUMPDEST PUSH2 0x1471 JUMP JUMPDEST CALLVALUE DUP1 ISZERO PUSH2 0x752 JUMPI PUSH1 0x0 DUP1 REVERT JUMPDEST POP PUSH2 0x505 PUSH1 0x6 SLOAD DUP2 JUMP JUMPDEST CALLVALUE DUP1 ISZERO PUSH2 0x768 JUMPI PUSH1 0x0 DUP1 REVERT JUMPDEST POP PUSH2 0x5EC PUSH2 0x777 CALLDATASIZE PUSH1 0x4 PUSH2 0x4DB6 JUMP JUMPDEST PUSH2 0x155B JUMP JUMPDEST CALLVALUE DUP1 ISZERO PUSH2 0x788 JUMPI PUSH1 0x0 DUP1 REVERT JUMPDEST POP PUSH2 0x538 PUSH2 0x797 CALLDATASIZE PUSH1 0x4 PUSH2 0x4D17 JUMP JUMPDEST PUSH2 0x15ED JUMP JUMPDEST CALLVALUE DUP1 ISZERO PUSH2 0x7A8 JUMPI PUSH1 0x0 DUP1 REVERT JUMPDEST POP PUSH2 0x505 PUSH2 0x7B7 CALLDATASIZE PUSH1 0x4 PUSH2 0x4C45 JUMP JUMPDEST PUSH1 0x23 PUSH1 0x20 MSTORE PUSH1 0x0 SWAP1 DUP2 MSTORE PUSH1 0x40 SWAP1 KECCAK256 SLOAD DUP2 JUMP JUMPDEST CALLVALUE DUP1 ISZERO PUSH2 0x7D5 JUMPI PUSH1 0x0 DUP1 REVERT JUMPDEST POP PUSH2 0x538 PUSH2 0x7E4 CALLDATASIZE PUSH1 0x4 PUSH2 0x4C45 JUMP JUMPDEST PUSH1 0x1F PUSH1 0x20 MSTORE PUSH1 0x0 SWAP1 DUP2 MSTORE PUSH1 0x40 SWAP1 KECCAK256 SLOAD PUSH1 0xFF AND DUP2 JUMP JUMPDEST CALLVALUE DUP1 ISZERO PUSH2 0x805 JUMPI PUSH1 0x0 DUP1 REVERT JUMPDEST POP PUSH2 0x505 PUSH2 0x164D JUMP JUMPDEST CALLVALUE DUP1 ISZERO PUSH2 0x81A JUMPI PUSH1 0x0 DUP1 REVERT JUMPDEST POP PUSH2 0x505 PUSH1 0x9 SLOAD DUP2 JUMP JUMPDEST CALLVALUE DUP1 ISZERO PUSH2 0x830 JUMPI PUSH1 0x0 DUP1 REVERT JUMPDEST POP PUSH2 0x5EC PUSH2 0x83F CALLDATASIZE PUSH1 0x4 PUSH2 0x4DB6 JUMP JUMPDEST PUSH2 0x165D JUMP JUMPDEST CALLVALUE DUP1 ISZERO PUSH2 0x850 JUMPI PUSH1 0x0 DUP1 REVERT JUMPDEST POP PUSH2 0x5EC PUSH2 0x85F CALLDATASIZE PUSH1 0x4 PUSH2 0x4D75 JUMP JUMPDEST PUSH2 0x16EF JUMP JUMPDEST CALLVALUE DUP1 ISZERO PUSH2 0x870 JUMPI PUSH1 0x0 DUP1 REVERT JUMPDEST POP PUSH2 0x5EC PUSH2 0x170A JUMP JUMPDEST CALLVALUE DUP1 ISZERO PUSH2 0x885 JUMPI PUSH1 0x0 DUP1 REVERT JUMPDEST POP PUSH2 0x505 PUSH2 0xE10 DUP2 JUMP JUMPDEST CALLVALUE DUP1 ISZERO PUSH2 0x89B JUMPI PUSH1 0x0 DUP1 REVERT JUMPDEST POP PUSH2 0x505 PUSH2 0x8AA CALLDATASIZE PUSH1 0x4 PUSH2 0x4C45 JUMP JUMPDEST PUSH1 0x22 PUSH1 0x20 MSTORE PUSH1 0x0 SWAP1 DUP2 MSTORE PUSH1 0x40 SWAP1 KECCAK256 SLOAD DUP2 JUMP JUMPDEST CALLVALUE DUP1 ISZERO PUSH2 0x8C8 JUMPI PUSH1 0x0 DUP1 REVERT JUMPDEST POP PUSH2 0x505 PUSH1 0xE SLOAD DUP2 JUMP JUMPDEST CALLVALUE DUP1 ISZERO PUSH2 0x8DE JUMPI PUSH1 0x0 DUP1 REVERT JUMPDEST POP PUSH2 0x8F2 PUSH2 0x8ED CALLDATASIZE PUSH1 0x4 PUSH2 0x4C45 JUMP JUMPDEST PUSH2 0x1851 JUMP JUMPDEST PUSH1 0x40 DUP1 MLOAD SWAP4 DUP5 MSTORE SWAP2 ISZERO ISZERO PUSH1 0x20 DUP5 ADD MSTORE ISZERO ISZERO SWAP1 DUP3 ADD MSTORE PUSH1 0x60 ADD PUSH2 0x50F JUMP JUMPDEST CALLVALUE DUP1 ISZERO PUSH2 0x91B JUMPI PUSH1 0x0 DUP1 REVERT JUMPDEST POP PUSH2 0x505 PUSH1 0x13 SLOAD DUP2 JUMP JUMPDEST CALLVALUE DUP1 ISZERO PUSH2 0x931 JUMPI PUSH1 0x0 DUP1 REVERT JUMPDEST POP PUSH2 0x538 PUSH2 0x940 CALLDATASIZE PUSH1 0x4 PUSH2 0x4C45 JUMP JUMPDEST PUSH2 0x1895 JUMP JUMPDEST CALLVALUE DUP1 ISZERO PUSH2 0x951 JUMPI PUSH1 0x0 DUP1 REVERT JUMPDEST POP PUSH2 0x5B4 PUSH2 0x960 CALLDATASIZE PUSH1 0x4 PUSH2 0x4D17 JUMP JUMPDEST PUSH2 0x18E0 JUMP JUMPDEST CALLVALUE DUP1 ISZERO PUSH2 0x971 JUMPI PUSH1 0x0 DUP1 REVERT JUMPDEST POP PUSH2 0x5EC PUSH2 0x980 CALLDATASIZE PUSH1 0x4 PUSH2 0x4D58 JUMP JUMPDEST PUSH2 0x1920 JUMP JUMPDEST CALLVALUE DUP1 ISZERO PUSH2 0x991 JUMPI PUSH1 0x0 DUP1 REVERT JUMPDEST POP PUSH2 0x5B4 PUSH2 0x9A0 CALLDATASIZE PUSH1 0x4 PUSH2 0x4C45 JUMP JUMPDEST PUSH2 0x199F JUMP JUMPDEST CALLVALUE DUP1 ISZERO PUSH2 0x9B1 JUMPI PUSH1 0x0 DUP1 REVERT JUMPDEST POP PUSH2 0x5B4 PUSH32 0x0 DUP2 JUMP JUMPDEST CALLVALUE DUP1 ISZERO PUSH2 0x9E5 JUMPI PUSH1 0x0 DUP1 REVERT JUMPDEST POP PUSH2 0x505 PUSH1 0x25 SLOAD DUP2 JUMP JUMPDEST PUSH2 0x5EC PUSH2 0x9FD CALLDATASIZE PUSH1 0x4 PUSH2 0x4D17 JUMP JUMPDEST PUSH2 0x19AA JUMP JUMPDEST CALLVALUE DUP1 ISZERO PUSH2 0xA0E JUMPI PUSH1 0x0 DUP1 REVERT JUMPDEST POP PUSH2 0x538 PUSH2 0xA1D CALLDATASIZE PUSH1 0x4 PUSH2 0x4D17 JUMP JUMPDEST PUSH2 0x1BAE JUMP JUMPDEST CALLVALUE DUP1 ISZERO PUSH2 0xA2E JUMPI PUSH1 0x0 DUP1 REVERT JUMPDEST POP PUSH2 0x505 PUSH2 0xA3D CALLDATASIZE PUSH1 0x4 PUSH2 0x4D58 JUMP JUMPDEST PUSH2 0x1C1B JUMP JUMPDEST CALLVALUE DUP1 ISZERO PUSH2 0xA4E JUMPI PUSH1 0x0 DUP1 REVERT JUMPDEST POP PUSH2 0x505 PUSH1 0xF SLOAD DUP2 JUMP JUMPDEST CALLVALUE DUP1 ISZERO PUSH2 0xA64 JUMPI PUSH1 0x0 DUP1 REVERT JUMPDEST POP PUSH2 0x505 PUSH1 0xA SLOAD DUP2 JUMP JUMPDEST CALLVALUE DUP1 ISZERO PUSH2 0xA7A JUMPI PUSH1 0x0 DUP1 REVERT JUMPDEST POP PUSH2 0x5EC PUSH2 0xA89 CALLDATASIZE PUSH1 0x4 PUSH2 0x4D58 JUMP JUMPDEST PUSH2 0x1C63 JUMP JUMPDEST CALLVALUE DUP1 ISZERO PUSH2 0xA9A JUMPI PUSH1 0x0 DUP1 REVERT JUMPDEST POP PUSH1 0x1A SLOAD PUSH2 0x5B4 SWAP1 PUSH1 0x1 PUSH1 0x1 PUSH1 0xA0 SHL SUB AND DUP2 JUMP JUMPDEST CALLVALUE DUP1 ISZERO PUSH2 0xABA JUMPI PUSH1 0x0 DUP1 REVERT JUMPDEST POP PUSH2 0x505 PUSH1 0xD SLOAD DUP2 JUMP JUMPDEST CALLVALUE DUP1 ISZERO PUSH2 0xAD0 JUMPI PUSH1 0x0 DUP1 REVERT JUMPDEST POP PUSH2 0x5EC PUSH2 0x1CDB JUMP JUMPDEST CALLVALUE DUP1 ISZERO PUSH2 0xAE5 JUMPI PUSH1 0x0 DUP1 REVERT JUMPDEST POP PUSH2 0xAEE PUSH2 0x1D9B JUMP JUMPDEST PUSH1 0x40 DUP1 MLOAD SWAP3 DUP4 MSTORE SWAP1 ISZERO ISZERO PUSH1 0x20 DUP4 ADD MSTORE ADD PUSH2 0x50F JUMP JUMPDEST CALLVALUE DUP1 ISZERO PUSH2 0xB0F JUMPI PUSH1 0x0 DUP1 REVERT JUMPDEST POP PUSH2 0x5B4 PUSH32 0x0 DUP2 JUMP JUMPDEST CALLVALUE DUP1 ISZERO PUSH2 0xB43 JUMPI PUSH1 0x0 DUP1 REVERT JUMPDEST POP PUSH2 0x505 PUSH1 0xC SLOAD DUP2 JUMP JUMPDEST CALLVALUE DUP1 ISZERO PUSH2 0xB59 JUMPI PUSH1 0x0 DUP1 REVERT JUMPDEST POP PUSH2 0x587 PUSH2 0xB68 CALLDATASIZE PUSH1 0x4 PUSH2 0x4C45 JUMP JUMPDEST PUSH2 0x1E6A JUMP JUMPDEST CALLVALUE DUP1 ISZERO PUSH2 0xB79 JUMPI PUSH1 0x0 DUP1 REVERT JUMPDEST POP PUSH1 0x16 SLOAD PUSH2 0x5B4 SWAP1 PUSH1 0x1 PUSH1 0x1 PUSH1 0xA0 SHL SUB AND DUP2 JUMP JUMPDEST CALLVALUE DUP1 ISZERO PUSH2 0xB99 JUMPI PUSH1 0x0 DUP1 REVERT JUMPDEST POP PUSH2 0x505 PUSH4 0x1E13380 DUP2 JUMP JUMPDEST CALLVALUE DUP1 ISZERO PUSH2 0xBB1 JUMPI PUSH1 0x0 DUP1 REVERT JUMPDEST POP PUSH1 0x14 SLOAD PUSH2 0x5B4 SWAP1 PUSH1 0x1 PUSH1 0x1 PUSH1 0xA0 SHL SUB AND DUP2 JUMP JUMPDEST PUSH2 0x5EC PUSH2 0xBD3 CALLDATASIZE PUSH1 0x4 PUSH2 0x4C45 JUMP JUMPDEST PUSH2 0x1E83 JUMP JUMPDEST PUSH2 0x5EC PUSH2 0xBE6 CALLDATASIZE PUSH1 0x4 PUSH2 0x4DED JUMP JUMPDEST PUSH2 0x20FD JUMP JUMPDEST CALLVALUE DUP1 ISZERO PUSH2 0xBF7 JUMPI PUSH1 0x0 DUP1 REVERT JUMPDEST POP PUSH2 0x505 PUSH1 0x10 SLOAD DUP2 JUMP JUMPDEST CALLVALUE DUP1 ISZERO PUSH2 0xC0D JUMPI PUSH1 0x0 DUP1 REVERT JUMPDEST POP PUSH2 0x587 PUSH2 0x24DE JUMP JUMPDEST CALLVALUE DUP1 ISZERO PUSH2 0xC22 JUMPI PUSH1 0x0 DUP1 REVERT JUMPDEST POP PUSH2 0x505 PUSH1 0xB SLOAD DUP2 JUMP JUMPDEST CALLVALUE DUP1 ISZERO PUSH2 0xC38 JUMPI PUSH1 0x0 DUP1 REVERT JUMPDEST POP PUSH2 0x505 PUSH1 0x12 SLOAD DUP2 JUMP JUMPDEST CALLVALUE DUP1 ISZERO PUSH2 0xC4E JUMPI PUSH1 0x0 DUP1 REVERT JUMPDEST POP PUSH2 0x5EC PUSH2 0xC5D CALLDATASIZE PUSH1 0x4 PUSH2 0x4DB6 JUMP JUMPDEST PUSH2 0x24ED JUMP JUMPDEST CALLVALUE DUP1 ISZERO PUSH2 0xC6E JUMPI PUSH1 0x0 DUP1 REVERT JUMPDEST POP PUSH2 0x587 PUSH2 0xC7D CALLDATASIZE PUSH1 0x4 PUSH2 0x4C45 JUMP JUMPDEST PUSH2 0x257F JUMP JUMPDEST CALLVALUE DUP1 ISZERO PUSH2 0xC8E JUMPI PUSH1 0x0 DUP1 REVERT JUMPDEST POP PUSH2 0x5EC PUSH2 0xC9D CALLDATASIZE PUSH1 0x4 PUSH2 0x4E7D JUMP JUMPDEST PUSH2 0x2598 JUMP JUMPDEST CALLVALUE DUP1 ISZERO PUSH2 0xCAE JUMPI PUSH1 0x0 DUP1 REVERT JUMPDEST POP PUSH2 0x505 PUSH2 0x25A3 JUMP JUMPDEST CALLVALUE DUP1 ISZERO PUSH2 0xCC3 JUMPI PUSH1 0x0 DUP1 REVERT JUMPDEST POP PUSH2 0x587 PUSH2 0x25B3 JUMP JUMPDEST CALLVALUE DUP1 ISZERO PUSH2 0xCD8 JUMPI PUSH1 0x0 DUP1 REVERT JUMPDEST POP PUSH2 0x5EC PUSH2 0xCE7 CALLDATASIZE PUSH1 0x4 PUSH2 0x4DB6 JUMP JUMPDEST PUSH2 0x25C0 JUMP JUMPDEST CALLVALUE DUP1 ISZERO PUSH2 0xCF8 JUMPI PUSH1 0x0 DUP1 REVERT JUMPDEST POP PUSH2 0x5EC PUSH2 0xD07 CALLDATASIZE PUSH1 0x4 PUSH2 0x4D58 JUMP JUMPDEST PUSH2 0x2652 JUMP JUMPDEST CALLVALUE DUP1 ISZERO PUSH2 0xD18 JUMPI PUSH1 0x0 DUP1 REVERT JUMPDEST POP PUSH2 0x5EC PUSH2 0xD27 CALLDATASIZE PUSH1 0x4 PUSH2 0x4D17 JUMP JUMPDEST PUSH2 0x269E JUMP JUMPDEST CALLVALUE DUP1 ISZERO PUSH2 0xD38 JUMPI PUSH1 0x0 DUP1 REVERT JUMPDEST POP PUSH2 0x5EC PUSH2 0xD47 CALLDATASIZE PUSH1 0x4 PUSH2 0x4EF8 JUMP JUMPDEST PUSH2 0x2707 JUMP JUMPDEST CALLVALUE DUP1 ISZERO PUSH2 0xD58 JUMPI PUSH1 0x0 DUP1 REVERT JUMPDEST POP PUSH2 0x5EC PUSH2 0xD67 CALLDATASIZE PUSH1 0x4 PUSH2 0x4DB6 JUMP JUMPDEST PUSH2 0x2739 JUMP JUMPDEST CALLVALUE DUP1 ISZERO PUSH2 0xD78 JUMPI PUSH1 0x0 DUP1 REVERT JUMPDEST POP PUSH2 0x505 PUSH3 0x278D00 DUP2 JUMP JUMPDEST CALLVALUE DUP1 ISZERO PUSH2 0xD8F JUMPI PUSH1 0x0 DUP1 REVERT JUMPDEST POP PUSH2 0x538 PUSH2 0xD9E CALLDATASIZE PUSH1 0x4 PUSH2 0x4FBB JUMP JUMPDEST PUSH2 0x27CB JUMP JUMPDEST CALLVALUE DUP1 ISZERO PUSH2 0xDAF JUMPI PUSH1 0x0 DUP1 REVERT JUMPDEST POP PUSH2 0x505 PUSH2 0xDBE CALLDATASIZE PUSH1 0x4 PUSH2 0x4C45 JUMP JUMPDEST PUSH1 0x1B PUSH1 0x20 MSTORE PUSH1 0x0 SWAP1 DUP2 MSTORE PUSH1 0x40 SWAP1 KECCAK256 SLOAD DUP2 JUMP JUMPDEST CALLVALUE DUP1 ISZERO PUSH2 0xDDC JUMPI PUSH1 0x0 DUP1 REVERT JUMPDEST POP PUSH2 0x5EC PUSH2 0xDEB CALLDATASIZE PUSH1 0x4 PUSH2 0x4D58 JUMP JUMPDEST PUSH2 0x2885 JUMP JUMPDEST CALLVALUE DUP1 ISZERO PUSH2 0xDFC JUMPI PUSH1 0x0 DUP1 REVERT JUMPDEST POP PUSH2 0x587 PUSH2 0xE0B CALLDATASIZE PUSH1 0x4 PUSH2 0x4C45 JUMP JUMPDEST PUSH2 0x28FD JUMP JUMPDEST CALLVALUE DUP1 ISZERO PUSH2 0xE1C JUMPI PUSH1 0x0 DUP1 REVERT JUMPDEST POP PUSH2 0x5B4 PUSH2 0xE2B CALLDATASIZE PUSH1 0x4 PUSH2 0x4C45 JUMP JUMPDEST PUSH1 0x20 DUP1 MSTORE PUSH1 0x0 SWAP1 DUP2 MSTORE PUSH1 0x40 SWAP1 KECCAK256 SLOAD PUSH1 0x1 PUSH1 0x1 PUSH1 0xA0 SHL SUB AND DUP2 JUMP JUMPDEST CALLVALUE DUP1 ISZERO PUSH2 0xE51 JUMPI PUSH1 0x0 DUP1 REVERT JUMPDEST POP PUSH2 0x505 PUSH1 0x7 SLOAD DUP2 JUMP JUMPDEST PUSH2 0x5EC PUSH2 0xE69 CALLDATASIZE PUSH1 0x4 PUSH2 0x5026 JUMP JUMPDEST PUSH2 0x2948 JUMP JUMPDEST CALLVALUE DUP1 ISZERO PUSH2 0xE7A JUMPI PUSH1 0x0 DUP1 REVERT JUMPDEST POP PUSH2 0xE9E PUSH2 0xE89 CALLDATASIZE PUSH1 0x4 PUSH2 0x4C45 JUMP JUMPDEST PUSH1 0x1C PUSH1 0x20 MSTORE PUSH1 0x0 SWAP1 DUP2 MSTORE PUSH1 0x40 SWAP1 KECCAK256 SLOAD PUSH1 0xFF AND DUP2 JUMP JUMPDEST PUSH1 0x40 MLOAD PUSH1 0xFF SWAP1 SWAP2 AND DUP2 MSTORE PUSH1 0x20 ADD PUSH2 0x50F JUMP JUMPDEST CALLVALUE DUP1 ISZERO PUSH2 0xEBC JUMPI PUSH1 0x0 DUP1 REVERT JUMPDEST POP PUSH2 0x505 PUSH1 0x8 SLOAD DUP2 JUMP JUMPDEST CALLVALUE DUP1 ISZERO PUSH2 0xED2 JUMPI PUSH1 0x0 DUP1 REVERT JUMPDEST POP PUSH2 0x5B4 PUSH2 0xEE1 CALLDATASIZE PUSH1 0x4 PUSH2 0x4C45 JUMP JUMPDEST PUSH2 0x2A19 JUMP JUMPDEST PUSH2 0x5EC PUSH2 0xEF4 CALLDATASIZE PUSH1 0x4 PUSH2 0x5079 JUMP JUMPDEST PUSH2 0x2A3A JUMP JUMPDEST CALLVALUE DUP1 ISZERO PUSH2 0xF05 JUMPI PUSH1 0x0 DUP1 REVERT JUMPDEST POP PUSH2 0x538 PUSH2 0xF14 CALLDATASIZE PUSH1 0x4 PUSH2 0x50DE JUMP JUMPDEST PUSH2 0x2CB3 JUMP JUMPDEST CALLVALUE DUP1 ISZERO PUSH2 0xF25 JUMPI PUSH1 0x0 DUP1 REVERT JUMPDEST POP PUSH2 0x5EC PUSH2 0xF34 CALLDATASIZE PUSH1 0x4 PUSH2 0x510C JUMP JUMPDEST PUSH2 0x2CE1 JUMP JUMPDEST CALLVALUE DUP1 ISZERO PUSH2 0xF45 JUMPI PUSH1 0x0 DUP1 REVERT JUMPDEST POP PUSH2 0x5EC PUSH2 0xF54 CALLDATASIZE PUSH1 0x4 PUSH2 0x4DB6 JUMP JUMPDEST PUSH2 0x2DA9 JUMP JUMPDEST CALLVALUE DUP1 ISZERO PUSH2 0xF65 JUMPI PUSH1 0x0 DUP1 REVERT JUMPDEST POP PUSH2 0x5EC PUSH2 0xF74 CALLDATASIZE PUSH1 0x4 PUSH2 0x4D58 JUMP JUMPDEST PUSH2 0x2E3B JUMP JUMPDEST CALLVALUE DUP1 ISZERO PUSH2 0xF85 JUMPI PUSH1 0x0 DUP1 REVERT JUMPDEST POP PUSH2 0x5B4 PUSH32 0x0 DUP2 JUMP JUMPDEST CALLVALUE DUP1 ISZERO PUSH2 0xFB9 JUMPI PUSH1 0x0 DUP1 REVERT JUMPDEST POP PUSH2 0x505 PUSH2 0xFC8 CALLDATASIZE PUSH1 0x4 PUSH2 0x4C45 JUMP JUMPDEST PUSH1 0x21 PUSH1 0x20 MSTORE PUSH1 0x0 SWAP1 DUP2 MSTORE PUSH1 0x40 SWAP1 KECCAK256 SLOAD DUP2 JUMP JUMPDEST CALLVALUE DUP1 ISZERO PUSH2 0xFE6 JUMPI PUSH1 0x0 DUP1 REVERT JUMPDEST POP PUSH2 0x5EC PUSH2 0xFF5 CALLDATASIZE PUSH1 0x4 PUSH2 0x5157 JUMP JUMPDEST PUSH2 0x2F17 JUMP JUMPDEST PUSH1 0x0 PUSH2 0x100A PUSH1 0xB SLOAD PUSH1 0x11 SLOAD PUSH2 0x30CC JUMP JUMPDEST SWAP1 POP SWAP1 JUMP JUMPDEST PUSH1 0x0 PUSH1 0x1 PUSH1 0x1 PUSH1 0xE0 SHL SUB NOT DUP3 AND PUSH4 0x80AC58CD PUSH1 0xE0 SHL EQ DUP1 PUSH2 0x1040 JUMPI POP PUSH1 0x1 PUSH1 0x1 PUSH1 0xE0 SHL SUB NOT DUP3 AND PUSH4 0x5B5E139F PUSH1 0xE0 SHL EQ JUMPDEST DUP1 PUSH2 0x105B JUMPI POP PUSH4 0x1FFC9A7 PUSH1 0xE0 SHL PUSH1 0x1 PUSH1 0x1 PUSH1 0xE0 SHL SUB NOT DUP4 AND EQ JUMPDEST SWAP3 SWAP2 POP POP JUMP JUMPDEST PUSH1 0x0 PUSH2 0x100A PUSH1 0xA SLOAD PUSH1 0x10 SLOAD PUSH2 0x30CC JUMP JUMPDEST PUSH1 0x0 PUSH2 0x100A PUSH1 0x9 SLOAD PUSH1 0xF SLOAD PUSH2 0x30CC JUMP JUMPDEST PUSH1 0x60 PUSH1 0x0 DUP1 SLOAD PUSH2 0x1090 SWAP1 PUSH2 0x51A7 JUMP JUMPDEST DUP1 PUSH1 0x1F ADD PUSH1 0x20 DUP1 SWAP2 DIV MUL PUSH1 0x20 ADD PUSH1 0x40 MLOAD SWAP1 DUP2 ADD PUSH1 0x40 MSTORE DUP1 SWAP3 SWAP2 SWAP1 DUP2 DUP2 MSTORE PUSH1 0x20 ADD DUP3 DUP1 SLOAD PUSH2 0x10BC SWAP1 PUSH2 0x51A7 JUMP JUMPDEST DUP1 ISZERO PUSH2 0x1109 JUMPI DUP1 PUSH1 0x1F LT PUSH2 0x10DE JUMPI PUSH2 0x100 DUP1 DUP4 SLOAD DIV MUL DUP4 MSTORE SWAP2 PUSH1 0x20 ADD SWAP2 PUSH2 0x1109 JUMP JUMPDEST DUP3 ADD SWAP2 SWAP1 PUSH1 0x0 MSTORE PUSH1 0x20 PUSH1 0x0 KECCAK256 SWAP1 JUMPDEST DUP2 SLOAD DUP2 MSTORE SWAP1 PUSH1 0x1 ADD SWAP1 PUSH1 0x20 ADD DUP1 DUP4 GT PUSH2 0x10EC JUMPI DUP3 SWAP1 SUB PUSH1 0x1F AND DUP3 ADD SWAP2 JUMPDEST POP POP POP POP POP SWAP1 POP SWAP1 JUMP JUMPDEST PUSH1 0x0 PUSH2 0x111E DUP3 PUSH2 0x3116 JUMP JUMPDEST POP PUSH1 0x0 DUP3 DUP2 MSTORE PUSH1 0x4 PUSH1 0x20 MSTORE PUSH1 0x40 SWAP1 KECCAK256 SLOAD PUSH1 0x1 PUSH1 0x1 PUSH1 0xA0 SHL SUB AND PUSH2 0x105B JUMP JUMPDEST PUSH2 0x1147 DUP3 DUP3 CALLER PUSH2 0x314E JUMP JUMPDEST POP POP JUMP JUMPDEST PUSH1 0x0 PUSH2 0x1156 DUP4 PUSH2 0x1895 JUMP JUMPDEST PUSH2 0x1162 JUMPI POP PUSH1 0x0 PUSH2 0x105B JUMP JUMPDEST PUSH1 0x0 DUP1 DUP4 PUSH1 0x1 PUSH1 0x1 PUSH1 0xA0 SHL SUB AND DUP6 PUSH1 0x40 MLOAD PUSH1 0x24 ADD PUSH2 0x1182 SWAP2 DUP2 MSTORE PUSH1 0x20 ADD SWAP1 JUMP JUMPDEST PUSH1 0x40 DUP1 MLOAD PUSH1 0x1F NOT DUP2 DUP5 SUB ADD DUP2 MSTORE SWAP2 DUP2 MSTORE PUSH1 0x20 DUP3 ADD DUP1 MLOAD PUSH1 0x1 PUSH1 0x1 PUSH1 0xE0 SHL SUB AND PUSH4 0x1D9DABEF PUSH1 0xE1 SHL OR SWAP1 MSTORE MLOAD PUSH2 0x11B7 SWAP2 SWAP1 PUSH2 0x51FD JUMP JUMPDEST PUSH1 0x0 PUSH1 0x40 MLOAD DUP1 DUP4 SUB DUP2 DUP6 GAS STATICCALL SWAP2 POP POP RETURNDATASIZE DUP1 PUSH1 0x0 DUP2 EQ PUSH2 0x11F2 JUMPI PUSH1 0x40 MLOAD SWAP2 POP PUSH1 0x1F NOT PUSH1 0x3F RETURNDATASIZE ADD AND DUP3 ADD PUSH1 0x40 MSTORE RETURNDATASIZE DUP3 MSTORE RETURNDATASIZE PUSH1 0x0 PUSH1 0x20 DUP5 ADD RETURNDATACOPY PUSH2 0x11F7 JUMP JUMPDEST PUSH1 0x60 SWAP2 POP JUMPDEST POP SWAP2 POP SWAP2 POP DUP2 ISZERO DUP1 PUSH2 0x1208 JUMPI POP DUP1 MLOAD ISZERO JUMPDEST ISZERO PUSH2 0x1218 JUMPI PUSH1 0x0 SWAP3 POP POP POP PUSH2 0x105B JUMP JUMPDEST DUP1 DUP1 PUSH1 0x20 ADD SWAP1 MLOAD DUP2 ADD SWAP1 PUSH2 0x122C SWAP2 SWAP1 PUSH2 0x5219 JUMP JUMPDEST SWAP6 SWAP5 POP POP POP POP POP JUMP JUMPDEST PUSH1 0x0 PUSH2 0x100A PUSH1 0xC SLOAD PUSH1 0x12 SLOAD PUSH2 0x30CC JUMP JUMPDEST PUSH1 0x1E PUSH1 0x20 MSTORE PUSH1 0x0 SWAP1 DUP2 MSTORE PUSH1 0x40 SWAP1 KECCAK256 DUP1 SLOAD PUSH2 0x125E SWAP1 PUSH2 0x51A7 JUMP JUMPDEST DUP1 PUSH1 0x1F ADD PUSH1 0x20 DUP1 SWAP2 DIV MUL PUSH1 0x20 ADD PUSH1 0x40 MLOAD SWAP1 DUP2 ADD PUSH1 0x40 MSTORE DUP1 SWAP3 SWAP2 SWAP1 DUP2 DUP2 MSTORE PUSH1 0x20 ADD DUP3 DUP1 SLOAD PUSH2 0x128A SWAP1 PUSH2 0x51A7 JUMP JUMPDEST DUP1 ISZERO PUSH2 0x12D7 JUMPI DUP1 PUSH1 0x1F LT PUSH2 0x12AC JUMPI PUSH2 0x100 DUP1 DUP4 SLOAD DIV MUL DUP4 MSTORE SWAP2 PUSH1 0x20 ADD SWAP2 PUSH2 0x12D7 JUMP JUMPDEST DUP3 ADD SWAP2 SWAP1 PUSH1 0x0 MSTORE PUSH1 0x20 PUSH1 0x0 KECCAK256 SWAP1 JUMPDEST DUP2 SLOAD DUP2 MSTORE SWAP1 PUSH1 0x1 ADD SWAP1 PUSH1 0x20 ADD DUP1 DUP4 GT PUSH2 0x12BA JUMPI DUP3 SWAP1 SUB PUSH1 0x1F AND DUP3 ADD SWAP2 JUMPDEST POP POP POP POP POP DUP2 JUMP JUMPDEST PUSH1 0x14 SLOAD PUSH1 0x1 PUSH1 0x1 PUSH1 0xA0 SHL SUB AND CALLER EQ PUSH2 0x1312 JUMPI PUSH1 0x40 MLOAD PUSH3 0x461BCD PUSH1 0xE5 SHL DUP2 MSTORE PUSH1 0x4 ADD PUSH2 0x1309 SWAP1 PUSH2 0x5236 JUMP JUMPDEST PUSH1 0x40 MLOAD DUP1 SWAP2 SUB SWAP1 REVERT JUMPDEST PUSH2 0x1147 DUP3 DUP3 CALLER PUSH1 0x1 PUSH2 0x315B JUMP JUMPDEST PUSH1 0x14 SLOAD PUSH1 0x1 PUSH1 0x1 PUSH1 0xA0 SHL SUB AND CALLER EQ PUSH2 0x1349 JUMPI PUSH1 0x40 MLOAD PUSH3 0x461BCD PUSH1 0xE5 SHL DUP2 MSTORE PUSH1 0x4 ADD PUSH2 0x1309 SWAP1 PUSH2 0x5236 JUMP JUMPDEST PUSH1 0x25 DUP1 SLOAD PUSH1 0x0 SWAP2 DUP3 SWAP1 SSTORE PUSH1 0x40 MLOAD SWAP1 SWAP2 SWAP1 PUSH1 0x1 PUSH1 0x1 PUSH1 0xA0 SHL SUB DUP5 AND SWAP1 DUP4 SWAP1 DUP4 DUP2 DUP2 DUP2 DUP6 DUP8 GAS CALL SWAP3 POP POP POP RETURNDATASIZE DUP1 PUSH1 0x0 DUP2 EQ PUSH2 0x139E JUMPI PUSH1 0x40 MLOAD SWAP2 POP PUSH1 0x1F NOT PUSH1 0x3F RETURNDATASIZE ADD AND DUP3 ADD PUSH1 0x40 MSTORE RETURNDATASIZE DUP3 MSTORE RETURNDATASIZE PUSH1 0x0 PUSH1 0x20 DUP5 ADD RETURNDATACOPY PUSH2 0x13A3 JUMP JUMPDEST PUSH1 0x60 SWAP2 POP JUMPDEST POP POP SWAP1 POP DUP1 PUSH2 0x13F4 JUMPI PUSH1 0x40 MLOAD PUSH3 0x461BCD PUSH1 0xE5 SHL DUP2 MSTORE PUSH1 0x20 PUSH1 0x4 DUP3 ADD MSTORE PUSH1 0x1D PUSH1 0x24 DUP3 ADD MSTORE PUSH32 0x45544E5265676973747261723A207472616E73666572206661696C6564000000 PUSH1 0x44 DUP3 ADD MSTORE PUSH1 0x64 ADD PUSH2 0x1309 JUMP JUMPDEST PUSH1 0x40 DUP1 MLOAD PUSH1 0x1 PUSH1 0x1 PUSH1 0xA0 SHL SUB DUP6 AND DUP2 MSTORE PUSH1 0x20 DUP2 ADD DUP5 SWAP1 MSTORE PUSH32 0xC0819C13BE868895EB93E40EACEB96DE976442FA1D404E5C55F14BB65A8C489A SWAP2 ADD PUSH1 0x40 MLOAD DUP1 SWAP2 SUB SWAP1 LOG1 POP POP POP JUMP JUMPDEST PUSH2 0x1444 DUP2 PUSH2 0x34CF JUMP JUMPDEST ISZERO PUSH2 0x1461 JUMPI PUSH1 0x40 MLOAD PUSH3 0x461BCD PUSH1 0xE5 SHL DUP2 MSTORE PUSH1 0x4 ADD PUSH2 0x1309 SWAP1 PUSH2 0x526D JUMP JUMPDEST PUSH2 0x146C DUP4 DUP4 DUP4 PUSH2 0x3510 JUMP JUMPDEST POP POP POP JUMP JUMPDEST PUSH1 0x14 SLOAD PUSH1 0x1 PUSH1 0x1 PUSH1 0xA0 SHL SUB AND CALLER EQ PUSH2 0x149B JUMPI PUSH1 0x40 MLOAD PUSH3 0x461BCD PUSH1 0xE5 SHL DUP2 MSTORE PUSH1 0x4 ADD PUSH2 0x1309 SWAP1 PUSH2 0x5236 JUMP JUMPDEST PUSH1 0x64 PUSH2 0x14A7 DUP3 DUP5 PUSH2 0x52D4 JUMP JUMPDEST GT ISZERO PUSH2 0x14F5 JUMPI PUSH1 0x40 MLOAD PUSH3 0x461BCD PUSH1 0xE5 SHL DUP2 MSTORE PUSH1 0x20 PUSH1 0x4 DUP3 ADD DUP2 SWAP1 MSTORE PUSH1 0x24 DUP3 ADD MSTORE PUSH32 0x45544E5265676973747261723A2073706C697420657863656564732031303025 PUSH1 0x44 DUP3 ADD MSTORE PUSH1 0x64 ADD PUSH2 0x1309 JUMP JUMPDEST PUSH1 0x6 DUP3 SWAP1 SSTORE PUSH1 0x7 DUP2 SWAP1 SSTORE PUSH32 0xAF5E1A6972AE7143A48A1FC8ADAF31C154AEC5A6B5DA0C71AC93A49C7D05A390 DUP3 DUP3 DUP1 PUSH2 0x152E DUP4 PUSH1 0x64 PUSH2 0x52E7 JUMP JUMPDEST PUSH2 0x1538 SWAP2 SWAP1 PUSH2 0x52E7 JUMP JUMPDEST PUSH1 0x40 DUP1 MLOAD SWAP4 DUP5 MSTORE PUSH1 0x20 DUP5 ADD SWAP3 SWAP1 SWAP3 MSTORE SWAP1 DUP3 ADD MSTORE PUSH1 0x60 ADD JUMPDEST PUSH1 0x40 MLOAD DUP1 SWAP2 SUB SWAP1 LOG1 POP POP JUMP JUMPDEST PUSH1 0x14 SLOAD PUSH1 0x1 PUSH1 0x1 PUSH1 0xA0 SHL SUB AND CALLER EQ PUSH2 0x1585 JUMPI PUSH1 0x40 MLOAD PUSH3 0x461BCD PUSH1 0xE5 SHL DUP2 MSTORE PUSH1 0x4 ADD PUSH2 0x1309 SWAP1 PUSH2 0x5236 JUMP JUMPDEST PUSH1 0x0 DUP3 GT DUP1 ISZERO PUSH2 0x1595 JUMPI POP PUSH1 0x0 DUP2 GT JUMPDEST PUSH2 0x15B1 JUMPI PUSH1 0x40 MLOAD PUSH3 0x461BCD PUSH1 0xE5 SHL DUP2 MSTORE PUSH1 0x4 ADD PUSH2 0x1309 SWAP1 PUSH2 0x52FA JUMP JUMPDEST PUSH1 0xC DUP3 SWAP1 SSTORE PUSH1 0xD DUP2 SWAP1 SSTORE PUSH1 0x40 MLOAD PUSH32 0xBFD2E7DD46BC79B9BCFC92739C8907B4269F60965A65A44D2CDBC41CF7460A90 SWAP1 PUSH2 0x154F SWAP1 DUP5 SWAP1 DUP5 SWAP1 PUSH2 0x5331 JUMP JUMPDEST PUSH1 0x0 DUP1 DUP4 DUP4 PUSH1 0x40 MLOAD PUSH2 0x1600 SWAP3 SWAP2 SWAP1 PUSH2 0x5361 JUMP JUMPDEST PUSH1 0x40 DUP1 MLOAD SWAP2 DUP3 SWAP1 SUB DUP3 KECCAK256 PUSH1 0x0 DUP1 MLOAD PUSH1 0x20 PUSH2 0x5D54 DUP4 CODECOPY DUP2 MLOAD SWAP2 MSTORE PUSH1 0x20 DUP5 ADD MSTORE SWAP1 DUP3 ADD DUP2 SWAP1 MSTORE SWAP2 POP PUSH1 0x0 SWAP1 PUSH1 0x60 ADD PUSH1 0x40 MLOAD PUSH1 0x20 DUP2 DUP4 SUB SUB DUP2 MSTORE SWAP1 PUSH1 0x40 MSTORE DUP1 MLOAD SWAP1 PUSH1 0x20 ADD KECCAK256 SWAP1 POP PUSH2 0x122C DUP2 PUSH2 0x3595 JUMP JUMPDEST PUSH1 0x0 PUSH2 0x100A PUSH1 0x8 SLOAD PUSH1 0xE SLOAD PUSH2 0x30CC JUMP JUMPDEST PUSH1 0x14 SLOAD PUSH1 0x1 PUSH1 0x1 PUSH1 0xA0 SHL SUB AND CALLER EQ PUSH2 0x1687 JUMPI PUSH1 0x40 MLOAD PUSH3 0x461BCD PUSH1 0xE5 SHL DUP2 MSTORE PUSH1 0x4 ADD PUSH2 0x1309 SWAP1 PUSH2 0x5236 JUMP JUMPDEST PUSH1 0x0 DUP3 GT DUP1 ISZERO PUSH2 0x1697 JUMPI POP PUSH1 0x0 DUP2 GT JUMPDEST PUSH2 0x16B3 JUMPI PUSH1 0x40 MLOAD PUSH3 0x461BCD PUSH1 0xE5 SHL DUP2 MSTORE PUSH1 0x4 ADD PUSH2 0x1309 SWAP1 PUSH2 0x52FA JUMP JUMPDEST PUSH1 0x12 DUP3 SWAP1 SSTORE PUSH1 0x13 DUP2 SWAP1 SSTORE PUSH1 0x40 MLOAD PUSH32 0x58BBDF00A83292F6B8F4E6C65C4A61982873AF90182744D90D6E2909A8B7410E SWAP1 PUSH2 0x154F SWAP1 DUP5 SWAP1 DUP5 SWAP1 PUSH2 0x5331 JUMP JUMPDEST PUSH2 0x146C DUP4 DUP4 DUP4 PUSH1 0x40 MLOAD DUP1 PUSH1 0x20 ADD PUSH1 0x40 MSTORE DUP1 PUSH1 0x0 DUP2 MSTORE POP PUSH2 0x2707 JUMP JUMPDEST CALLER PUSH1 0x0 SWAP1 DUP2 MSTORE PUSH1 0x24 PUSH1 0x20 MSTORE PUSH1 0x40 SWAP1 KECCAK256 SLOAD DUP1 PUSH2 0x1771 JUMPI PUSH1 0x40 MLOAD PUSH3 0x461BCD PUSH1 0xE5 SHL DUP2 MSTORE PUSH1 0x20 PUSH1 0x4 DUP3 ADD MSTORE PUSH1 0x21 PUSH1 0x24 DUP3 ADD MSTORE PUSH32 0x45544E5265676973747261723A206E6F7468696E6720746F2077697468647261 PUSH1 0x44 DUP3 ADD MSTORE PUSH1 0x77 PUSH1 0xF8 SHL PUSH1 0x64 DUP3 ADD MSTORE PUSH1 0x84 ADD PUSH2 0x1309 JUMP JUMPDEST CALLER PUSH1 0x0 DUP2 DUP2 MSTORE PUSH1 0x24 PUSH1 0x20 MSTORE PUSH1 0x40 DUP1 DUP3 KECCAK256 DUP3 SWAP1 SSTORE MLOAD SWAP1 SWAP2 SWAP1 DUP4 SWAP1 DUP4 DUP2 DUP2 DUP2 DUP6 DUP8 GAS CALL SWAP3 POP POP POP RETURNDATASIZE DUP1 PUSH1 0x0 DUP2 EQ PUSH2 0x17C2 JUMPI PUSH1 0x40 MLOAD SWAP2 POP PUSH1 0x1F NOT PUSH1 0x3F RETURNDATASIZE ADD AND DUP3 ADD PUSH1 0x40 MSTORE RETURNDATASIZE DUP3 MSTORE RETURNDATASIZE PUSH1 0x0 PUSH1 0x20 DUP5 ADD RETURNDATACOPY PUSH2 0x17C7 JUMP JUMPDEST PUSH1 0x60 SWAP2 POP JUMPDEST POP POP SWAP1 POP DUP1 PUSH2 0x1818 JUMPI PUSH1 0x40 MLOAD PUSH3 0x461BCD PUSH1 0xE5 SHL DUP2 MSTORE PUSH1 0x20 PUSH1 0x4 DUP3 ADD MSTORE PUSH1 0x1D PUSH1 0x24 DUP3 ADD MSTORE PUSH32 0x45544E5265676973747261723A207472616E73666572206661696C6564000000 PUSH1 0x44 DUP3 ADD MSTORE PUSH1 0x64 ADD PUSH2 0x1309 JUMP JUMPDEST PUSH1 0x40 MLOAD DUP3 DUP2 MSTORE CALLER SWAP1 PUSH32 0x955AEDA25A465ABF3E04AB0711C34E557F573A94C2623B976510141ED2AD188 SWAP1 PUSH1 0x20 ADD PUSH1 0x40 MLOAD DUP1 SWAP2 SUB SWAP1 LOG2 POP POP JUMP JUMPDEST PUSH1 0x0 DUP2 DUP2 MSTORE PUSH1 0x1B PUSH1 0x20 MSTORE PUSH1 0x40 DUP2 KECCAK256 SLOAD SWAP1 DUP1 DUP3 ISZERO DUP1 ISZERO PUSH2 0x1882 JUMPI POP PUSH1 0x0 PUSH2 0x1876 DUP6 PUSH2 0x35F1 JUMP JUMPDEST PUSH1 0x1 PUSH1 0x1 PUSH1 0xA0 SHL SUB AND EQ ISZERO JUMPDEST SWAP2 POP PUSH2 0x188D DUP5 PUSH2 0x34CF JUMP JUMPDEST SWAP3 SWAP5 SWAP2 SWAP4 POP POP JUMP JUMPDEST PUSH1 0x0 DUP1 PUSH2 0x18A1 DUP4 PUSH2 0x35F1 JUMP JUMPDEST PUSH1 0x1 PUSH1 0x1 PUSH1 0xA0 SHL SUB AND SUB PUSH2 0x18B7 JUMPI POP PUSH1 0x0 SWAP2 SWAP1 POP JUMP JUMPDEST PUSH1 0x0 DUP3 DUP2 MSTORE PUSH1 0x1B PUSH1 0x20 MSTORE PUSH1 0x40 DUP2 KECCAK256 SLOAD SWAP1 DUP2 SWAP1 SUB PUSH2 0x18D7 JUMPI POP PUSH1 0x1 SWAP3 SWAP2 POP POP JUMP JUMPDEST TIMESTAMP GT ISZERO SWAP3 SWAP2 POP POP JUMP JUMPDEST PUSH1 0x0 PUSH1 0x20 PUSH1 0x0 DUP5 DUP5 PUSH1 0x40 MLOAD PUSH2 0x18F6 SWAP3 SWAP2 SWAP1 PUSH2 0x5361 JUMP JUMPDEST PUSH1 0x40 DUP1 MLOAD SWAP2 DUP3 SWAP1 SUB SWAP1 SWAP2 KECCAK256 DUP3 MSTORE PUSH1 0x20 DUP3 ADD SWAP3 SWAP1 SWAP3 MSTORE ADD PUSH1 0x0 KECCAK256 SLOAD PUSH1 0x1 PUSH1 0x1 PUSH1 0xA0 SHL SUB AND SWAP4 SWAP3 POP POP POP JUMP JUMPDEST PUSH1 0x14 SLOAD PUSH1 0x1 PUSH1 0x1 PUSH1 0xA0 SHL SUB AND CALLER EQ PUSH2 0x194A JUMPI PUSH1 0x40 MLOAD PUSH3 0x461BCD PUSH1 0xE5 SHL DUP2 MSTORE PUSH1 0x4 ADD PUSH2 0x1309 SWAP1 PUSH2 0x5236 JUMP JUMPDEST PUSH1 0x15 DUP1 SLOAD PUSH1 0x1 PUSH1 0x1 PUSH1 0xA0 SHL SUB NOT AND PUSH1 0x1 PUSH1 0x1 PUSH1 0xA0 SHL SUB DUP4 AND SWAP1 DUP2 OR SWAP1 SWAP2 SSTORE PUSH1 0x40 MLOAD SWAP1 DUP2 MSTORE PUSH32 0xB4E49F71A5F8D56892391200136A0483F10841C8307F07CCAC6DFC6EC3D9C7A2 SWAP1 PUSH1 0x20 ADD JUMPDEST PUSH1 0x40 MLOAD DUP1 SWAP2 SUB SWAP1 LOG1 POP JUMP JUMPDEST PUSH1 0x0 PUSH2 0x105B DUP3 PUSH2 0x3116 JUMP JUMPDEST PUSH1 0x0 DUP3 DUP3 PUSH1 0x40 MLOAD PUSH2 0x19BC SWAP3 SWAP2 SWAP1 PUSH2 0x5361 JUMP JUMPDEST PUSH1 0x40 DUP1 MLOAD SWAP2 DUP3 SWAP1 SUB DUP3 KECCAK256 PUSH1 0x0 DUP1 MLOAD PUSH1 0x20 PUSH2 0x5D54 DUP4 CODECOPY DUP2 MLOAD SWAP2 MSTORE PUSH1 0x20 DUP5 ADD MSTORE SWAP1 DUP3 ADD DUP2 SWAP1 MSTORE SWAP2 POP PUSH1 0x0 SWAP1 PUSH1 0x60 ADD PUSH1 0x40 DUP1 MLOAD PUSH1 0x1F NOT DUP2 DUP5 SUB ADD DUP2 MSTORE SWAP2 SWAP1 MSTORE DUP1 MLOAD PUSH1 0x20 SWAP1 SWAP2 ADD KECCAK256 SWAP1 POP CALLER PUSH2 0x1A0C DUP3 PUSH2 0x35F1 JUMP JUMPDEST PUSH1 0x1 PUSH1 0x1 PUSH1 0xA0 SHL SUB AND EQ PUSH2 0x1A32 JUMPI PUSH1 0x40 MLOAD PUSH3 0x461BCD PUSH1 0xE5 SHL DUP2 MSTORE PUSH1 0x4 ADD PUSH2 0x1309 SWAP1 PUSH2 0x5236 JUMP JUMPDEST PUSH1 0x0 DUP2 DUP2 MSTORE PUSH1 0x1B PUSH1 0x20 MSTORE PUSH1 0x40 DUP2 KECCAK256 SLOAD SWAP1 DUP2 SWAP1 SUB PUSH2 0x1A61 JUMPI PUSH1 0x40 MLOAD PUSH3 0x461BCD PUSH1 0xE5 SHL DUP2 MSTORE PUSH1 0x4 ADD PUSH2 0x1309 SWAP1 PUSH2 0x5371 JUMP JUMPDEST PUSH2 0x1A6E PUSH3 0x278D00 DUP3 PUSH2 0x52D4 JUMP JUMPDEST TIMESTAMP GT ISZERO PUSH2 0x1A8D JUMPI PUSH1 0x40 MLOAD PUSH3 0x461BCD PUSH1 0xE5 SHL DUP2 MSTORE PUSH1 0x4 ADD PUSH2 0x1309 SWAP1 PUSH2 0x53BA JUMP JUMPDEST PUSH1 0x0 PUSH2 0x1A97 PUSH2 0x1235 JUMP JUMPDEST SWAP1 POP DUP1 CALLVALUE LT ISZERO PUSH2 0x1AB9 JUMPI PUSH1 0x40 MLOAD PUSH3 0x461BCD PUSH1 0xE5 SHL DUP2 MSTORE PUSH1 0x4 ADD PUSH2 0x1309 SWAP1 PUSH2 0x53FC JUMP JUMPDEST PUSH1 0x0 PUSH2 0x1AC9 PUSH4 0x1E13380 DUP5 PUSH2 0x52D4 JUMP JUMPDEST PUSH1 0x0 DUP6 DUP2 MSTORE PUSH1 0x1B PUSH1 0x20 SWAP1 DUP2 MSTORE PUSH1 0x40 DUP1 DUP4 KECCAK256 DUP5 SWAP1 SSTORE PUSH1 0x21 SWAP1 SWAP2 MSTORE SWAP1 KECCAK256 DUP2 SWAP1 SSTORE SWAP1 POP PUSH2 0x1AF2 DUP3 PUSH2 0x360C JUMP JUMPDEST DUP2 CALLVALUE GT ISZERO PUSH2 0x1B6B JUMPI PUSH1 0x0 CALLER PUSH2 0x1B07 DUP5 CALLVALUE PUSH2 0x52E7 JUMP JUMPDEST PUSH1 0x40 MLOAD PUSH1 0x0 DUP2 DUP2 DUP2 DUP6 DUP8 GAS CALL SWAP3 POP POP POP RETURNDATASIZE DUP1 PUSH1 0x0 DUP2 EQ PUSH2 0x1B43 JUMPI PUSH1 0x40 MLOAD SWAP2 POP PUSH1 0x1F NOT PUSH1 0x3F RETURNDATASIZE ADD AND DUP3 ADD PUSH1 0x40 MSTORE RETURNDATASIZE DUP3 MSTORE RETURNDATASIZE PUSH1 0x0 PUSH1 0x20 DUP5 ADD RETURNDATACOPY PUSH2 0x1B48 JUMP JUMPDEST PUSH1 0x60 SWAP2 POP JUMPDEST POP POP SWAP1 POP DUP1 PUSH2 0x1B69 JUMPI PUSH1 0x40 MLOAD PUSH3 0x461BCD PUSH1 0xE5 SHL DUP2 MSTORE PUSH1 0x4 ADD PUSH2 0x1309 SWAP1 PUSH2 0x5433 JUMP JUMPDEST POP JUMPDEST DUP4 PUSH32 0xFCB49015A037E326B20EF372A3BC4418922AB38AACABE3746531B4B2AAC02DE9 DUP3 PUSH1 0x40 MLOAD PUSH2 0x1B9D SWAP2 DUP2 MSTORE PUSH1 0x20 ADD SWAP1 JUMP JUMPDEST PUSH1 0x40 MLOAD DUP1 SWAP2 SUB SWAP1 LOG2 POP POP POP POP POP POP POP JUMP JUMPDEST PUSH1 0x0 DUP1 PUSH1 0x0 DUP1 MLOAD PUSH1 0x20 PUSH2 0x5D54 DUP4 CODECOPY DUP2 MLOAD SWAP2 MSTORE PUSH1 0x0 SHL DUP5 DUP5 PUSH1 0x40 MLOAD PUSH2 0x1BD3 SWAP3 SWAP2 SWAP1 PUSH2 0x5361 JUMP JUMPDEST PUSH1 0x40 MLOAD SWAP1 DUP2 SWAP1 SUB DUP2 KECCAK256 PUSH2 0x1BF2 SWAP3 SWAP2 PUSH1 0x20 ADD SWAP2 DUP3 MSTORE PUSH1 0x20 DUP3 ADD MSTORE PUSH1 0x40 ADD SWAP1 JUMP JUMPDEST PUSH1 0x40 MLOAD PUSH1 0x20 DUP2 DUP4 SUB SUB DUP2 MSTORE SWAP1 PUSH1 0x40 MSTORE DUP1 MLOAD SWAP1 PUSH1 0x20 ADD KECCAK256 SWAP1 POP PUSH2 0x1C13 DUP2 PUSH2 0x3595 JUMP JUMPDEST SWAP5 SWAP4 POP POP POP POP JUMP JUMPDEST PUSH1 0x0 PUSH1 0x1 PUSH1 0x1 PUSH1 0xA0 SHL SUB DUP3 AND PUSH2 0x1C47 JUMPI PUSH1 0x40 MLOAD PUSH4 0x22718AD9 PUSH1 0xE2 SHL DUP2 MSTORE PUSH1 0x0 PUSH1 0x4 DUP3 ADD MSTORE PUSH1 0x24 ADD PUSH2 0x1309 JUMP JUMPDEST POP PUSH1 0x1 PUSH1 0x1 PUSH1 0xA0 SHL SUB AND PUSH1 0x0 SWAP1 DUP2 MSTORE PUSH1 0x3 PUSH1 0x20 MSTORE PUSH1 0x40 SWAP1 KECCAK256 SLOAD SWAP1 JUMP JUMPDEST PUSH1 0x14 SLOAD PUSH1 0x1 PUSH1 0x1 PUSH1 0xA0 SHL SUB AND CALLER EQ PUSH2 0x1C8D JUMPI PUSH1 0x40 MLOAD PUSH3 0x461BCD PUSH1 0xE5 SHL DUP2 MSTORE PUSH1 0x4 ADD PUSH2 0x1309 SWAP1 PUSH2 0x5236 JUMP JUMPDEST PUSH1 0x1A DUP1 SLOAD PUSH1 0x1 PUSH1 0x1 PUSH1 0xA0 SHL SUB NOT AND PUSH1 0x1 PUSH1 0x1 PUSH1 0xA0 SHL SUB DUP4 AND SWAP1 DUP2 OR SWAP1 SWAP2 SSTORE PUSH1 0x40 MLOAD SWAP1 DUP2 MSTORE PUSH32 0xE5B20B8497E4F3E2435EF9C20E2E26B47497EE13745CE1C681AD6640653119E6 SWAP1 PUSH1 0x20 ADD PUSH2 0x1994 JUMP JUMPDEST PUSH1 0x14 SLOAD PUSH1 0x1 PUSH1 0x1 PUSH1 0xA0 SHL SUB AND CALLER EQ PUSH2 0x1D05 JUMPI PUSH1 0x40 MLOAD PUSH3 0x461BCD PUSH1 0xE5 SHL DUP2 MSTORE PUSH1 0x4 ADD PUSH2 0x1309 SWAP1 PUSH2 0x5236 JUMP JUMPDEST PUSH1 0x40 MLOAD PUSH4 0xBC053E73 PUSH1 0xE0 SHL DUP2 MSTORE PUSH1 0x0 DUP1 MLOAD PUSH1 0x20 PUSH2 0x5D54 DUP4 CODECOPY DUP2 MLOAD SWAP2 MSTORE PUSH1 0x4 DUP3 ADD MSTORE ADDRESS PUSH1 0x24 DUP3 ADD MSTORE PUSH1 0x1 PUSH1 0x44 DUP3 ADD MSTORE PUSH32 0x0 PUSH1 0x1 PUSH1 0x1 PUSH1 0xA0 SHL SUB AND SWAP1 PUSH4 0xBC053E73 SWAP1 PUSH1 0x64 ADD PUSH1 0x0 PUSH1 0x40 MLOAD DUP1 DUP4 SUB DUP2 PUSH1 0x0 DUP8 DUP1 EXTCODESIZE ISZERO DUP1 ISZERO PUSH2 0x1D81 JUMPI PUSH1 0x0 DUP1 REVERT JUMPDEST POP GAS CALL ISZERO DUP1 ISZERO PUSH2 0x1D95 JUMPI RETURNDATASIZE PUSH1 0x0 DUP1 RETURNDATACOPY RETURNDATASIZE PUSH1 0x0 REVERT JUMPDEST POP POP POP POP JUMP JUMPDEST PUSH1 0x1A SLOAD PUSH1 0x0 SWAP1 DUP2 SWAP1 PUSH1 0x1 PUSH1 0x1 PUSH1 0xA0 SHL SUB AND PUSH2 0x1DB9 JUMPI POP PUSH1 0x0 SWAP2 DUP3 SWAP2 POP JUMP JUMPDEST PUSH1 0x1A PUSH1 0x0 SWAP1 SLOAD SWAP1 PUSH2 0x100 EXP SWAP1 DIV PUSH1 0x1 PUSH1 0x1 PUSH1 0xA0 SHL SUB AND PUSH1 0x1 PUSH1 0x1 PUSH1 0xA0 SHL SUB AND PUSH4 0xFEAF968C PUSH1 0x40 MLOAD DUP2 PUSH4 0xFFFFFFFF AND PUSH1 0xE0 SHL DUP2 MSTORE PUSH1 0x4 ADD PUSH1 0xA0 PUSH1 0x40 MLOAD DUP1 DUP4 SUB DUP2 DUP7 GAS STATICCALL SWAP3 POP POP POP DUP1 ISZERO PUSH2 0x1E28 JUMPI POP PUSH1 0x40 DUP1 MLOAD PUSH1 0x1F RETURNDATASIZE SWAP1 DUP2 ADD PUSH1 0x1F NOT AND DUP3 ADD SWAP1 SWAP3 MSTORE PUSH2 0x1E25 SWAP2 DUP2 ADD SWAP1 PUSH2 0x5484 JUMP JUMPDEST PUSH1 0x1 JUMPDEST ISZERO PUSH2 0x1E61 JUMPI PUSH1 0x0 DUP5 SGT DUP1 ISZERO PUSH2 0x1E48 JUMPI POP PUSH2 0xE10 PUSH2 0x1E45 DUP4 TIMESTAMP PUSH2 0x52E7 JUMP JUMPDEST GT ISZERO JUMPDEST ISZERO PUSH2 0x1E5B JUMPI POP SWAP2 SWAP6 PUSH1 0x1 SWAP6 POP SWAP4 POP POP POP POP JUMP JUMPDEST POP POP POP POP POP JUMPDEST POP PUSH1 0x0 SWAP2 DUP3 SWAP2 POP JUMP JUMPDEST PUSH1 0x18 PUSH1 0x20 MSTORE PUSH1 0x0 SWAP1 DUP2 MSTORE PUSH1 0x40 SWAP1 KECCAK256 DUP1 SLOAD PUSH2 0x125E SWAP1 PUSH2 0x51A7 JUMP JUMPDEST CALLER PUSH2 0x1E8D DUP3 PUSH2 0x35F1 JUMP JUMPDEST PUSH1 0x1 PUSH1 0x1 PUSH1 0xA0 SHL SUB AND EQ PUSH2 0x1EB3 JUMPI PUSH1 0x40 MLOAD PUSH3 0x461BCD PUSH1 0xE5 SHL DUP2 MSTORE PUSH1 0x4 ADD PUSH2 0x1309 SWAP1 PUSH2 0x5236 JUMP JUMPDEST PUSH1 0x0 DUP2 DUP2 MSTORE PUSH1 0x1B PUSH1 0x20 MSTORE PUSH1 0x40 DUP2 KECCAK256 SLOAD SWAP1 DUP2 SWAP1 SUB PUSH2 0x1EE2 JUMPI PUSH1 0x40 MLOAD PUSH3 0x461BCD PUSH1 0xE5 SHL DUP2 MSTORE PUSH1 0x4 ADD PUSH2 0x1309 SWAP1 PUSH2 0x5371 JUMP JUMPDEST PUSH2 0x1EEF PUSH3 0x278D00 DUP3 PUSH2 0x52D4 JUMP JUMPDEST TIMESTAMP GT ISZERO PUSH2 0x1F0E JUMPI PUSH1 0x40 MLOAD PUSH3 0x461BCD PUSH1 0xE5 SHL DUP2 MSTORE PUSH1 0x4 ADD PUSH2 0x1309 SWAP1 PUSH2 0x53BA JUMP JUMPDEST PUSH1 0x0 DUP3 DUP2 MSTORE PUSH1 0x1C PUSH1 0x20 MSTORE PUSH1 0x40 DUP2 KECCAK256 SLOAD PUSH1 0xFF AND SWAP1 DUP1 PUSH1 0x0 NOT DUP4 ADD PUSH2 0x1FD0 JUMPI PUSH1 0x0 DUP6 DUP2 MSTORE PUSH1 0x1E PUSH1 0x20 MSTORE PUSH1 0x40 DUP1 DUP3 KECCAK256 SWAP1 MLOAD PUSH2 0x1F46 SWAP2 SWAP1 PUSH2 0x5547 JUMP JUMPDEST PUSH1 0x40 DUP1 MLOAD SWAP2 DUP3 SWAP1 SUB DUP3 KECCAK256 PUSH1 0x0 DUP1 MLOAD PUSH1 0x20 PUSH2 0x5D54 DUP4 CODECOPY DUP2 MLOAD SWAP2 MSTORE PUSH1 0x20 DUP5 ADD MSTORE SWAP1 DUP3 ADD DUP2 SWAP1 MSTORE SWAP2 POP PUSH1 0x0 SWAP1 PUSH1 0x60 ADD PUSH1 0x40 DUP1 MLOAD PUSH1 0x1F NOT DUP2 DUP5 SUB ADD DUP2 MSTORE SWAP2 DUP2 MSTORE DUP2 MLOAD PUSH1 0x20 SWAP3 DUP4 ADD KECCAK256 PUSH1 0x0 DUP2 DUP2 MSTORE PUSH1 0x22 SWAP1 SWAP4 MSTORE SWAP2 KECCAK256 SLOAD SWAP1 SWAP2 POP DUP1 PUSH2 0x1FA7 JUMPI PUSH1 0x10 SLOAD PUSH2 0x1FA9 JUMP JUMPDEST DUP1 JUMPDEST PUSH1 0x0 SWAP4 DUP5 MSTORE PUSH1 0x20 DUP1 MSTORE PUSH1 0x40 SWAP1 SWAP4 KECCAK256 SLOAD SWAP3 SWAP5 POP POP PUSH1 0x1 PUSH1 0x1 PUSH1 0xA0 SHL SUB SWAP1 SWAP2 AND SWAP2 POP PUSH2 0x1FDB SWAP1 POP JUMP JUMPDEST PUSH2 0x1FD8 PUSH2 0x164D JUMP JUMPDEST SWAP2 POP JUMPDEST DUP2 CALLVALUE LT ISZERO PUSH2 0x1FFB JUMPI PUSH1 0x40 MLOAD PUSH3 0x461BCD PUSH1 0xE5 SHL DUP2 MSTORE PUSH1 0x4 ADD PUSH2 0x1309 SWAP1 PUSH2 0x53FC JUMP JUMPDEST PUSH1 0x0 PUSH2 0x200B PUSH4 0x1E13380 DUP7 PUSH2 0x52D4 JUMP JUMPDEST PUSH1 0x0 DUP8 DUP2 MSTORE PUSH1 0x1B PUSH1 0x20 MSTORE PUSH1 0x40 SWAP1 KECCAK256 DUP2 SWAP1 SSTORE SWAP1 POP PUSH1 0x0 NOT PUSH1 0xFF DUP6 AND ADD PUSH2 0x2039 JUMPI PUSH2 0x2034 DUP4 DUP4 PUSH2 0x3690 JUMP JUMPDEST PUSH2 0x2042 JUMP JUMPDEST PUSH2 0x2042 DUP4 PUSH2 0x360C JUMP JUMPDEST DUP3 CALLVALUE GT ISZERO PUSH2 0x20BB JUMPI PUSH1 0x0 CALLER PUSH2 0x2057 DUP6 CALLVALUE PUSH2 0x52E7 JUMP JUMPDEST PUSH1 0x40 MLOAD PUSH1 0x0 DUP2 DUP2 DUP2 DUP6 DUP8 GAS CALL SWAP3 POP POP POP RETURNDATASIZE DUP1 PUSH1 0x0 DUP2 EQ PUSH2 0x2093 JUMPI PUSH1 0x40 MLOAD SWAP2 POP PUSH1 0x1F NOT PUSH1 0x3F RETURNDATASIZE ADD AND DUP3 ADD PUSH1 0x40 MSTORE RETURNDATASIZE DUP3 MSTORE RETURNDATASIZE PUSH1 0x0 PUSH1 0x20 DUP5 ADD RETURNDATACOPY PUSH2 0x2098 JUMP JUMPDEST PUSH1 0x60 SWAP2 POP JUMPDEST POP POP SWAP1 POP DUP1 PUSH2 0x20B9 JUMPI PUSH1 0x40 MLOAD PUSH3 0x461BCD PUSH1 0xE5 SHL DUP2 MSTORE PUSH1 0x4 ADD PUSH2 0x1309 SWAP1 PUSH2 0x5433 JUMP JUMPDEST POP JUMPDEST DUP6 PUSH32 0x5A773044A6C2A5AB1C7812C9417486344A3AA701E02AFEF1026BA9E1BEBEED94 DUP3 PUSH1 0x40 MLOAD PUSH2 0x20ED SWAP2 DUP2 MSTORE PUSH1 0x20 ADD SWAP1 JUMP JUMPDEST PUSH1 0x40 MLOAD DUP1 SWAP2 SUB SWAP1 LOG2 POP POP POP POP POP POP JUMP JUMPDEST PUSH1 0x0 DUP5 DUP5 PUSH1 0x40 MLOAD PUSH2 0x210F SWAP3 SWAP2 SWAP1 PUSH2 0x5361 JUMP JUMPDEST PUSH1 0x40 DUP1 MLOAD SWAP2 DUP3 SWAP1 SUB SWAP1 SWAP2 KECCAK256 PUSH1 0x0 DUP2 DUP2 MSTORE PUSH1 0x1F PUSH1 0x20 MSTORE SWAP2 SWAP1 SWAP2 KECCAK256 SLOAD SWAP1 SWAP2 POP PUSH1 0xFF AND PUSH2 0x217B JUMPI PUSH1 0x40 MLOAD PUSH3 0x461BCD PUSH1 0xE5 SHL DUP2 MSTORE PUSH1 0x20 PUSH1 0x4 DUP3 ADD MSTORE PUSH1 0x1F PUSH1 0x24 DUP3 ADD MSTORE PUSH32 0x45544E5265676973747261723A2070726F6A656374206E6F7420666F756E6400 PUSH1 0x44 DUP3 ADD MSTORE PUSH1 0x64 ADD PUSH2 0x1309 JUMP JUMPDEST PUSH1 0x40 DUP1 MLOAD PUSH1 0x0 DUP1 MLOAD PUSH1 0x20 PUSH2 0x5D54 DUP4 CODECOPY DUP2 MLOAD SWAP2 MSTORE PUSH1 0x20 DUP3 ADD MSTORE SWAP1 DUP2 ADD DUP3 SWAP1 MSTORE PUSH1 0x0 SWAP1 PUSH1 0x60 ADD PUSH1 0x40 MLOAD PUSH1 0x20 DUP2 DUP4 SUB SUB DUP2 MSTORE SWAP1 PUSH1 0x40 MSTORE DUP1 MLOAD SWAP1 PUSH1 0x20 ADD KECCAK256 SWAP1 POP PUSH2 0x21C0 DUP2 PUSH2 0x3595 JUMP JUMPDEST ISZERO PUSH2 0x220D JUMPI PUSH1 0x40 MLOAD PUSH3 0x461BCD PUSH1 0xE5 SHL DUP2 MSTORE PUSH1 0x20 PUSH1 0x4 DUP3 ADD MSTORE PUSH1 0x1F PUSH1 0x24 DUP3 ADD MSTORE PUSH32 0x45544E5265676973747261723A206E616D657370616365206578706972656400 PUSH1 0x44 DUP3 ADD MSTORE PUSH1 0x64 ADD PUSH2 0x1309 JUMP JUMPDEST PUSH1 0x0 DUP4 ISZERO PUSH2 0x223B JUMPI PUSH1 0x0 DUP3 DUP2 MSTORE PUSH1 0x23 PUSH1 0x20 MSTORE PUSH1 0x40 SWAP1 KECCAK256 SLOAD DUP1 PUSH2 0x2231 JUMPI PUSH1 0x11 SLOAD PUSH2 0x2233 JUMP JUMPDEST DUP1 JUMPDEST SWAP2 POP POP PUSH2 0x225D JUMP JUMPDEST PUSH1 0x0 DUP3 DUP2 MSTORE PUSH1 0x22 PUSH1 0x20 MSTORE PUSH1 0x40 SWAP1 KECCAK256 SLOAD DUP1 PUSH2 0x2257 JUMPI PUSH1 0x10 SLOAD PUSH2 0x2259 JUMP JUMPDEST DUP1 JUMPDEST SWAP2 POP POP JUMPDEST DUP1 CALLVALUE LT ISZERO PUSH2 0x227D JUMPI PUSH1 0x40 MLOAD PUSH3 0x461BCD PUSH1 0xE5 SHL DUP2 MSTORE PUSH1 0x4 ADD PUSH2 0x1309 SWAP1 PUSH2 0x53FC JUMP JUMPDEST PUSH2 0x2287 DUP10 DUP10 PUSH2 0x3779 JUMP JUMPDEST PUSH1 0x0 DUP10 DUP10 PUSH1 0x40 MLOAD PUSH2 0x2299 SWAP3 SWAP2 SWAP1 PUSH2 0x5361 JUMP JUMPDEST PUSH1 0x40 DUP1 MLOAD SWAP2 DUP3 SWAP1 SUB DUP3 KECCAK256 PUSH1 0x20 DUP4 ADD DUP7 SWAP1 MSTORE SWAP1 DUP3 ADD DUP2 SWAP1 MSTORE SWAP2 POP PUSH1 0x0 SWAP1 PUSH1 0x60 ADD PUSH1 0x40 MLOAD PUSH1 0x20 DUP2 DUP4 SUB SUB DUP2 MSTORE SWAP1 PUSH1 0x40 MSTORE DUP1 MLOAD SWAP1 PUSH1 0x20 ADD KECCAK256 SWAP1 POP PUSH2 0x22D9 DUP2 PUSH2 0x3595 JUMP JUMPDEST PUSH2 0x2320 JUMPI PUSH1 0x40 MLOAD PUSH3 0x461BCD PUSH1 0xE5 SHL DUP2 MSTORE PUSH1 0x20 PUSH1 0x4 DUP3 ADD MSTORE PUSH1 0x18 PUSH1 0x24 DUP3 ADD MSTORE PUSH24 0x22AA272932B3B4B9BA3930B91D103730B6B2903A30B5B2B7 PUSH1 0x41 SHL PUSH1 0x44 DUP3 ADD MSTORE PUSH1 0x64 ADD PUSH2 0x1309 JUMP JUMPDEST PUSH1 0x0 DUP12 DUP12 DUP12 DUP12 PUSH1 0x40 MLOAD PUSH1 0x20 ADD PUSH2 0x2339 SWAP5 SWAP4 SWAP3 SWAP2 SWAP1 PUSH2 0x5553 JUMP JUMPDEST PUSH1 0x40 MLOAD PUSH1 0x20 DUP2 DUP4 SUB SUB DUP2 MSTORE SWAP1 PUSH1 0x40 MSTORE SWAP1 POP PUSH2 0x23CF PUSH1 0x40 MLOAD DUP1 PUSH2 0x100 ADD PUSH1 0x40 MSTORE DUP1 DUP5 DUP2 MSTORE PUSH1 0x20 ADD DUP8 DUP2 MSTORE PUSH1 0x20 ADD DUP6 DUP2 MSTORE PUSH1 0x20 ADD DUP11 PUSH1 0x1 PUSH1 0x1 PUSH1 0xA0 SHL SUB AND DUP2 MSTORE PUSH1 0x20 ADD DUP10 ISZERO ISZERO DUP2 MSTORE PUSH1 0x20 ADD PUSH1 0x1 PUSH1 0xFF AND DUP2 MSTORE PUSH1 0x20 ADD DUP4 DUP2 MSTORE PUSH1 0x20 ADD DUP13 DUP13 DUP1 DUP1 PUSH1 0x1F ADD PUSH1 0x20 DUP1 SWAP2 DIV MUL PUSH1 0x20 ADD PUSH1 0x40 MLOAD SWAP1 DUP2 ADD PUSH1 0x40 MSTORE DUP1 SWAP4 SWAP3 SWAP2 SWAP1 DUP2 DUP2 MSTORE PUSH1 0x20 ADD DUP4 DUP4 DUP1 DUP3 DUP5 CALLDATACOPY PUSH1 0x0 SWAP3 ADD SWAP2 SWAP1 SWAP2 MSTORE POP POP POP SWAP2 MSTORE POP PUSH2 0x39E5 JUMP JUMPDEST PUSH1 0x0 DUP7 DUP2 MSTORE PUSH1 0x20 DUP1 MSTORE PUSH1 0x40 SWAP1 KECCAK256 SLOAD PUSH2 0x23F1 SWAP1 DUP6 SWAP1 PUSH1 0x1 PUSH1 0x1 PUSH1 0xA0 SHL SUB AND PUSH2 0x3690 JUMP JUMPDEST DUP4 CALLVALUE GT ISZERO PUSH2 0x246A JUMPI PUSH1 0x0 CALLER PUSH2 0x2406 DUP7 CALLVALUE PUSH2 0x52E7 JUMP JUMPDEST PUSH1 0x40 MLOAD PUSH1 0x0 DUP2 DUP2 DUP2 DUP6 DUP8 GAS CALL SWAP3 POP POP POP RETURNDATASIZE DUP1 PUSH1 0x0 DUP2 EQ PUSH2 0x2442 JUMPI PUSH1 0x40 MLOAD SWAP2 POP PUSH1 0x1F NOT PUSH1 0x3F RETURNDATASIZE ADD AND DUP3 ADD PUSH1 0x40 MSTORE RETURNDATASIZE DUP3 MSTORE RETURNDATASIZE PUSH1 0x0 PUSH1 0x20 DUP5 ADD RETURNDATACOPY PUSH2 0x2447 JUMP JUMPDEST PUSH1 0x60 SWAP2 POP JUMPDEST POP POP SWAP1 POP DUP1 PUSH2 0x2468 JUMPI PUSH1 0x40 MLOAD PUSH3 0x461BCD PUSH1 0xE5 SHL DUP2 MSTORE PUSH1 0x4 ADD PUSH2 0x1309 SWAP1 PUSH2 0x5433 JUMP JUMPDEST POP JUMPDEST PUSH1 0x0 DUP8 PUSH2 0x2484 JUMPI PUSH2 0x247F PUSH4 0x1E13380 TIMESTAMP PUSH2 0x52D4 JUMP JUMPDEST PUSH2 0x2487 JUMP JUMPDEST PUSH1 0x0 JUMPDEST SWAP1 POP CALLER PUSH1 0x1 PUSH1 0x1 PUSH1 0xA0 SHL SUB AND DUP4 PUSH32 0x78403BF9D832DA65149E6A6D70BDAB40AA5C3E85DE4A3B8857ECFB96BD34EEFD DUP5 DUP12 DUP6 PUSH1 0x40 MLOAD PUSH2 0x24C7 SWAP4 SWAP3 SWAP2 SWAP1 PUSH2 0x5588 JUMP JUMPDEST PUSH1 0x40 MLOAD DUP1 SWAP2 SUB SWAP1 LOG3 POP POP POP POP POP POP POP POP POP POP POP POP POP JUMP JUMPDEST PUSH1 0x60 PUSH1 0x1 DUP1 SLOAD PUSH2 0x1090 SWAP1 PUSH2 0x51A7 JUMP JUMPDEST PUSH1 0x14 SLOAD PUSH1 0x1 PUSH1 0x1 PUSH1 0xA0 SHL SUB AND CALLER EQ PUSH2 0x2517 JUMPI PUSH1 0x40 MLOAD PUSH3 0x461BCD PUSH1 0xE5 SHL DUP2 MSTORE PUSH1 0x4 ADD PUSH2 0x1309 SWAP1 PUSH2 0x5236 JUMP JUMPDEST PUSH1 0x0 DUP3 GT DUP1 ISZERO PUSH2 0x2527 JUMPI POP PUSH1 0x0 DUP2 GT JUMPDEST PUSH2 0x2543 JUMPI PUSH1 0x40 MLOAD PUSH3 0x461BCD PUSH1 0xE5 SHL DUP2 MSTORE PUSH1 0x4 ADD PUSH2 0x1309 SWAP1 PUSH2 0x52FA JUMP JUMPDEST PUSH1 0x8 DUP3 SWAP1 SSTORE PUSH1 0x9 DUP2 SWAP1 SSTORE PUSH1 0x40 MLOAD PUSH32 0xBFD2E7DD46BC79B9BCFC92739C8907B4269F60965A65A44D2CDBC41CF7460A90 SWAP1 PUSH2 0x154F SWAP1 DUP5 SWAP1 DUP5 SWAP1 PUSH2 0x55D0 JUMP JUMPDEST PUSH1 0x1D PUSH1 0x20 MSTORE PUSH1 0x0 SWAP1 DUP2 MSTORE PUSH1 0x40 SWAP1 KECCAK256 DUP1 SLOAD PUSH2 0x125E SWAP1 PUSH2 0x51A7 JUMP JUMPDEST PUSH2 0x1147 CALLER DUP4 DUP4 PUSH2 0x3D05 JUMP JUMPDEST PUSH1 0x0 PUSH2 0x100A PUSH1 0xD SLOAD PUSH1 0x13 SLOAD PUSH2 0x30CC JUMP JUMPDEST PUSH1 0x19 DUP1 SLOAD PUSH2 0x125E SWAP1 PUSH2 0x51A7 JUMP JUMPDEST PUSH1 0x14 SLOAD PUSH1 0x1 PUSH1 0x1 PUSH1 0xA0 SHL SUB AND CALLER EQ PUSH2 0x25EA JUMPI PUSH1 0x40 MLOAD PUSH3 0x461BCD PUSH1 0xE5 SHL DUP2 MSTORE PUSH1 0x4 ADD PUSH2 0x1309 SWAP1 PUSH2 0x5236 JUMP JUMPDEST PUSH1 0x0 DUP3 GT DUP1 ISZERO PUSH2 0x25FA JUMPI POP PUSH1 0x0 DUP2 GT JUMPDEST PUSH2 0x2616 JUMPI PUSH1 0x40 MLOAD PUSH3 0x461BCD PUSH1 0xE5 SHL DUP2 MSTORE PUSH1 0x4 ADD PUSH2 0x1309 SWAP1 PUSH2 0x52FA JUMP JUMPDEST PUSH1 0xA DUP3 SWAP1 SSTORE PUSH1 0xB DUP2 SWAP1 SSTORE PUSH1 0x40 MLOAD PUSH32 0xBFD2E7DD46BC79B9BCFC92739C8907B4269F60965A65A44D2CDBC41CF7460A90 SWAP1 PUSH2 0x154F SWAP1 DUP5 SWAP1 DUP5 SWAP1 PUSH2 0x55FC JUMP JUMPDEST PUSH1 0x14 SLOAD PUSH1 0x1 PUSH1 0x1 PUSH1 0xA0 SHL SUB AND CALLER EQ PUSH2 0x267C JUMPI PUSH1 0x40 MLOAD PUSH3 0x461BCD PUSH1 0xE5 SHL DUP2 MSTORE PUSH1 0x4 ADD PUSH2 0x1309 SWAP1 PUSH2 0x5236 JUMP JUMPDEST PUSH1 0x17 DUP1 SLOAD PUSH1 0x1 PUSH1 0x1 PUSH1 0xA0 SHL SUB NOT AND PUSH1 0x1 PUSH1 0x1 PUSH1 0xA0 SHL SUB SWAP3 SWAP1 SWAP3 AND SWAP2 SWAP1 SWAP2 OR SWAP1 SSTORE JUMP JUMPDEST PUSH1 0x14 SLOAD PUSH1 0x1 PUSH1 0x1 PUSH1 0xA0 SHL SUB AND CALLER EQ PUSH2 0x26C8 JUMPI PUSH1 0x40 MLOAD PUSH3 0x461BCD PUSH1 0xE5 SHL DUP2 MSTORE PUSH1 0x4 ADD PUSH2 0x1309 SWAP1 PUSH2 0x5236 JUMP JUMPDEST PUSH1 0x19 PUSH2 0x26D5 DUP3 DUP5 DUP4 PUSH2 0x567D JUMP JUMPDEST POP PUSH32 0x9C14C7ECEB7175D3CA41C33707C017964E0EBC14D91911AD6B35C4D8382D2211 DUP3 DUP3 PUSH1 0x40 MLOAD PUSH2 0x154F SWAP3 SWAP2 SWAP1 PUSH2 0x5765 JUMP JUMPDEST PUSH2 0x2710 DUP3 PUSH2 0x34CF JUMP JUMPDEST ISZERO PUSH2 0x272D JUMPI PUSH1 0x40 MLOAD PUSH3 0x461BCD PUSH1 0xE5 SHL DUP2 MSTORE PUSH1 0x4 ADD PUSH2 0x1309 SWAP1 PUSH2 0x526D JUMP JUMPDEST PUSH2 0x1D95 DUP5 DUP5 DUP5 DUP5 PUSH2 0x3DA4 JUMP JUMPDEST PUSH1 0x14 SLOAD PUSH1 0x1 PUSH1 0x1 PUSH1 0xA0 SHL SUB AND CALLER EQ PUSH2 0x2763 JUMPI PUSH1 0x40 MLOAD PUSH3 0x461BCD PUSH1 0xE5 SHL DUP2 MSTORE PUSH1 0x4 ADD PUSH2 0x1309 SWAP1 PUSH2 0x5236 JUMP JUMPDEST PUSH1 0x0 DUP3 GT DUP1 ISZERO PUSH2 0x2773 JUMPI POP PUSH1 0x0 DUP2 GT JUMPDEST PUSH2 0x278F JUMPI PUSH1 0x40 MLOAD PUSH3 0x461BCD PUSH1 0xE5 SHL DUP2 MSTORE PUSH1 0x4 ADD PUSH2 0x1309 SWAP1 PUSH2 0x52FA JUMP JUMPDEST PUSH1 0x10 DUP3 SWAP1 SSTORE PUSH1 0x11 DUP2 SWAP1 SSTORE PUSH1 0x40 MLOAD PUSH32 0x58BBDF00A83292F6B8F4E6C65C4A61982873AF90182744D90D6E2909A8B7410E SWAP1 PUSH2 0x154F SWAP1 DUP5 SWAP1 DUP5 SWAP1 PUSH2 0x55FC JUMP JUMPDEST PUSH1 0x0 DUP1 PUSH1 0x0 DUP1 MLOAD PUSH1 0x20 PUSH2 0x5D54 DUP4 CODECOPY DUP2 MLOAD SWAP2 MSTORE PUSH1 0x0 SHL DUP5 DUP5 PUSH1 0x40 MLOAD PUSH2 0x27F0 SWAP3 SWAP2 SWAP1 PUSH2 0x5361 JUMP JUMPDEST PUSH1 0x40 MLOAD SWAP1 DUP2 SWAP1 SUB DUP2 KECCAK256 PUSH2 0x280F SWAP3 SWAP2 PUSH1 0x20 ADD SWAP2 DUP3 MSTORE PUSH1 0x20 DUP3 ADD MSTORE PUSH1 0x40 ADD SWAP1 JUMP JUMPDEST PUSH1 0x40 MLOAD PUSH1 0x20 DUP2 DUP4 SUB SUB DUP2 MSTORE SWAP1 PUSH1 0x40 MSTORE DUP1 MLOAD SWAP1 PUSH1 0x20 ADD KECCAK256 SWAP1 POP PUSH1 0x0 DUP2 DUP8 DUP8 PUSH1 0x40 MLOAD PUSH2 0x283A SWAP3 SWAP2 SWAP1 PUSH2 0x5361 JUMP JUMPDEST PUSH1 0x40 MLOAD SWAP1 DUP2 SWAP1 SUB DUP2 KECCAK256 PUSH2 0x2859 SWAP3 SWAP2 PUSH1 0x20 ADD SWAP2 DUP3 MSTORE PUSH1 0x20 DUP3 ADD MSTORE PUSH1 0x40 ADD SWAP1 JUMP JUMPDEST PUSH1 0x40 MLOAD PUSH1 0x20 DUP2 DUP4 SUB SUB DUP2 MSTORE SWAP1 PUSH1 0x40 MSTORE DUP1 MLOAD SWAP1 PUSH1 0x20 ADD KECCAK256 SWAP1 POP PUSH2 0x287A DUP2 PUSH2 0x3595 JUMP JUMPDEST SWAP8 SWAP7 POP POP POP POP POP POP POP JUMP JUMPDEST PUSH1 0x14 SLOAD PUSH1 0x1 PUSH1 0x1 PUSH1 0xA0 SHL SUB AND CALLER EQ PUSH2 0x28AF JUMPI PUSH1 0x40 MLOAD PUSH3 0x461BCD PUSH1 0xE5 SHL DUP2 MSTORE PUSH1 0x4 ADD PUSH2 0x1309 SWAP1 PUSH2 0x5236 JUMP JUMPDEST PUSH1 0x16 DUP1 SLOAD PUSH1 0x1 PUSH1 0x1 PUSH1 0xA0 SHL SUB NOT AND PUSH1 0x1 PUSH1 0x1 PUSH1 0xA0 SHL SUB DUP4 AND SWAP1 DUP2 OR SWAP1 SWAP2 SSTORE PUSH1 0x40 MLOAD SWAP1 DUP2 MSTORE PUSH32 0x15CD6D20BBA01B3FCB790C73829DD07412CBDF689EF818C96A2505889F3736A2 SWAP1 PUSH1 0x20 ADD PUSH2 0x1994 JUMP JUMPDEST PUSH1 0x60 PUSH2 0x2908 DUP3 PUSH2 0x3116 JUMP JUMPDEST POP DUP2 PUSH1 0x0 PUSH2 0x2915 DUP3 PUSH2 0x3DBB JUMP JUMPDEST SWAP1 POP PUSH2 0x2920 DUP2 PUSH2 0x40E1 JUMP JUMPDEST PUSH1 0x40 MLOAD PUSH1 0x20 ADD PUSH2 0x2930 SWAP2 SWAP1 PUSH2 0x5779 JUMP JUMPDEST PUSH1 0x40 MLOAD PUSH1 0x20 DUP2 DUP4 SUB SUB DUP2 MSTORE SWAP1 PUSH1 0x40 MSTORE SWAP3 POP POP POP SWAP2 SWAP1 POP JUMP JUMPDEST PUSH1 0x0 DUP2 PUSH2 0x295C JUMPI PUSH2 0x2957 PUSH2 0x1235 JUMP JUMPDEST PUSH2 0x2964 JUMP JUMPDEST PUSH2 0x2964 PUSH2 0x25A3 JUMP JUMPDEST SWAP1 POP DUP1 CALLVALUE LT ISZERO PUSH2 0x2986 JUMPI PUSH1 0x40 MLOAD PUSH3 0x461BCD PUSH1 0xE5 SHL DUP2 MSTORE PUSH1 0x4 ADD PUSH2 0x1309 SWAP1 PUSH2 0x53FC JUMP JUMPDEST PUSH2 0x2992 DUP5 DUP5 CALLER DUP6 PUSH2 0x315B JUMP JUMPDEST PUSH2 0x299B DUP2 PUSH2 0x360C JUMP JUMPDEST DUP1 CALLVALUE GT ISZERO PUSH2 0x1D95 JUMPI PUSH1 0x0 CALLER PUSH2 0x29B0 DUP4 CALLVALUE PUSH2 0x52E7 JUMP JUMPDEST PUSH1 0x40 MLOAD PUSH1 0x0 DUP2 DUP2 DUP2 DUP6 DUP8 GAS CALL SWAP3 POP POP POP RETURNDATASIZE DUP1 PUSH1 0x0 DUP2 EQ PUSH2 0x29EC JUMPI PUSH1 0x40 MLOAD SWAP2 POP PUSH1 0x1F NOT PUSH1 0x3F RETURNDATASIZE ADD AND DUP3 ADD PUSH1 0x40 MSTORE RETURNDATASIZE DUP3 MSTORE RETURNDATASIZE PUSH1 0x0 PUSH1 0x20 DUP5 ADD RETURNDATACOPY PUSH2 0x29F1 JUMP JUMPDEST PUSH1 0x60 SWAP2 POP JUMPDEST POP POP SWAP1 POP DUP1 PUSH2 0x2A12 JUMPI PUSH1 0x40 MLOAD PUSH3 0x461BCD PUSH1 0xE5 SHL DUP2 MSTORE PUSH1 0x4 ADD PUSH2 0x1309 SWAP1 PUSH2 0x5433 JUMP JUMPDEST POP POP POP POP POP JUMP JUMPDEST PUSH1 0x0 PUSH2 0x2A24 DUP3 PUSH2 0x3595 JUMP JUMPDEST ISZERO PUSH2 0x2A31 JUMPI POP PUSH1 0x0 SWAP2 SWAP1 POP JUMP JUMPDEST PUSH2 0x105B DUP3 PUSH2 0x35F1 JUMP JUMPDEST PUSH1 0x0 DUP2 PUSH2 0x2A4E JUMPI PUSH2 0x2A49 PUSH2 0x164D JUMP JUMPDEST PUSH2 0x2A56 JUMP JUMPDEST PUSH2 0x2A56 PUSH2 0x1071 JUMP JUMPDEST SWAP1 POP DUP1 CALLVALUE LT ISZERO PUSH2 0x2A78 JUMPI PUSH1 0x40 MLOAD PUSH3 0x461BCD PUSH1 0xE5 SHL DUP2 MSTORE PUSH1 0x4 ADD PUSH2 0x1309 SWAP1 PUSH2 0x53FC JUMP JUMPDEST PUSH2 0x2A82 DUP6 DUP6 PUSH2 0x3779 JUMP JUMPDEST PUSH1 0x0 DUP6 DUP6 PUSH1 0x40 MLOAD PUSH2 0x2A94 SWAP3 SWAP2 SWAP1 PUSH2 0x5361 JUMP JUMPDEST PUSH1 0x40 DUP1 MLOAD SWAP2 DUP3 SWAP1 SUB DUP3 KECCAK256 PUSH1 0x0 DUP1 MLOAD PUSH1 0x20 PUSH2 0x5D54 DUP4 CODECOPY DUP2 MLOAD SWAP2 MSTORE PUSH1 0x20 DUP5 ADD MSTORE SWAP1 DUP3 ADD DUP2 SWAP1 MSTORE SWAP2 POP PUSH1 0x0 SWAP1 PUSH1 0x60 ADD PUSH1 0x40 MLOAD PUSH1 0x20 DUP2 DUP4 SUB SUB DUP2 MSTORE SWAP1 PUSH1 0x40 MSTORE DUP1 MLOAD SWAP1 PUSH1 0x20 ADD KECCAK256 SWAP1 POP PUSH2 0x2AE1 DUP2 PUSH2 0x3595 JUMP JUMPDEST PUSH2 0x2B28 JUMPI PUSH1 0x40 MLOAD PUSH3 0x461BCD PUSH1 0xE5 SHL DUP2 MSTORE PUSH1 0x20 PUSH1 0x4 DUP3 ADD MSTORE PUSH1 0x18 PUSH1 0x24 DUP3 ADD MSTORE PUSH24 0x22AA272932B3B4B9BA3930B91D103730B6B2903A30B5B2B7 PUSH1 0x41 SHL PUSH1 0x44 DUP3 ADD MSTORE PUSH1 0x64 ADD PUSH2 0x1309 JUMP JUMPDEST PUSH1 0x0 DUP8 DUP8 PUSH1 0x40 MLOAD PUSH1 0x20 ADD PUSH2 0x2B3D SWAP3 SWAP2 SWAP1 PUSH2 0x57BE JUMP JUMPDEST PUSH1 0x40 MLOAD PUSH1 0x20 DUP2 DUP4 SUB SUB DUP2 MSTORE SWAP1 PUSH1 0x40 MSTORE SWAP1 POP PUSH2 0x2BBF PUSH1 0x40 MLOAD DUP1 PUSH2 0x100 ADD PUSH1 0x40 MSTORE DUP1 DUP5 DUP2 MSTORE PUSH1 0x20 ADD PUSH1 0x0 DUP1 MLOAD PUSH1 0x20 PUSH2 0x5D54 DUP4 CODECOPY DUP2 MLOAD SWAP2 MSTORE PUSH1 0x0 SHL DUP2 MSTORE PUSH1 0x20 ADD DUP6 DUP2 MSTORE PUSH1 0x20 ADD DUP9 PUSH1 0x1 PUSH1 0x1 PUSH1 0xA0 SHL SUB AND DUP2 MSTORE PUSH1 0x20 ADD DUP8 ISZERO ISZERO DUP2 MSTORE PUSH1 0x20 ADD PUSH1 0x0 PUSH1 0xFF AND DUP2 MSTORE PUSH1 0x20 ADD DUP4 DUP2 MSTORE PUSH1 0x20 ADD PUSH1 0x40 MLOAD DUP1 PUSH1 0x20 ADD PUSH1 0x40 MSTORE DUP1 PUSH1 0x0 DUP2 MSTORE POP DUP2 MSTORE POP PUSH2 0x39E5 JUMP JUMPDEST PUSH2 0x2BC8 DUP5 PUSH2 0x360C JUMP JUMPDEST DUP4 CALLVALUE GT ISZERO PUSH2 0x2C41 JUMPI PUSH1 0x0 CALLER PUSH2 0x2BDD DUP7 CALLVALUE PUSH2 0x52E7 JUMP JUMPDEST PUSH1 0x40 MLOAD PUSH1 0x0 DUP2 DUP2 DUP2 DUP6 DUP8 GAS CALL SWAP3 POP POP POP RETURNDATASIZE DUP1 PUSH1 0x0 DUP2 EQ PUSH2 0x2C19 JUMPI PUSH1 0x40 MLOAD SWAP2 POP PUSH1 0x1F NOT PUSH1 0x3F RETURNDATASIZE ADD AND DUP3 ADD PUSH1 0x40 MSTORE RETURNDATASIZE DUP3 MSTORE RETURNDATASIZE PUSH1 0x0 PUSH1 0x20 DUP5 ADD RETURNDATACOPY PUSH2 0x2C1E JUMP JUMPDEST PUSH1 0x60 SWAP2 POP JUMPDEST POP POP SWAP1 POP DUP1 PUSH2 0x2C3F JUMPI PUSH1 0x40 MLOAD PUSH3 0x461BCD PUSH1 0xE5 SHL DUP2 MSTORE PUSH1 0x4 ADD PUSH2 0x1309 SWAP1 PUSH2 0x5433 JUMP JUMPDEST POP JUMPDEST PUSH1 0x0 DUP6 PUSH2 0x2C5B JUMPI PUSH2 0x2C56 PUSH4 0x1E13380 TIMESTAMP PUSH2 0x52D4 JUMP JUMPDEST PUSH2 0x2C5E JUMP JUMPDEST PUSH1 0x0 JUMPDEST SWAP1 POP CALLER PUSH1 0x1 PUSH1 0x1 PUSH1 0xA0 SHL SUB AND DUP4 PUSH32 0x78403BF9D832DA65149E6A6D70BDAB40AA5C3E85DE4A3B8857ECFB96BD34EEFD DUP12 DUP12 DUP11 DUP7 PUSH1 0x40 MLOAD PUSH2 0x2CA0 SWAP5 SWAP4 SWAP3 SWAP2 SWAP1 PUSH2 0x57D7 JUMP JUMPDEST PUSH1 0x40 MLOAD DUP1 SWAP2 SUB SWAP1 LOG3 POP POP POP POP POP POP POP POP POP JUMP JUMPDEST PUSH1 0x1 PUSH1 0x1 PUSH1 0xA0 SHL SUB SWAP2 DUP3 AND PUSH1 0x0 SWAP1 DUP2 MSTORE PUSH1 0x5 PUSH1 0x20 SWAP1 DUP2 MSTORE PUSH1 0x40 DUP1 DUP4 KECCAK256 SWAP4 SWAP1 SWAP5 AND DUP3 MSTORE SWAP2 SWAP1 SWAP2 MSTORE KECCAK256 SLOAD PUSH1 0xFF AND SWAP1 JUMP JUMPDEST PUSH1 0x14 SLOAD PUSH1 0x1 PUSH1 0x1 PUSH1 0xA0 SHL SUB AND CALLER EQ DUP1 PUSH2 0x2D04 JUMPI POP PUSH1 0x17 SLOAD PUSH1 0x1 PUSH1 0x1 PUSH1 0xA0 SHL SUB AND CALLER EQ JUMPDEST PUSH2 0x2D50 JUMPI PUSH1 0x40 MLOAD PUSH3 0x461BCD PUSH1 0xE5 SHL DUP2 MSTORE PUSH1 0x20 PUSH1 0x4 DUP3 ADD MSTORE PUSH1 0x1C PUSH1 0x24 DUP3 ADD MSTORE PUSH32 0x45544E5265676973747261723A206E6F7420617574686F726973656400000000 PUSH1 0x44 DUP3 ADD MSTORE PUSH1 0x64 ADD PUSH2 0x1309 JUMP JUMPDEST PUSH1 0x0 DUP4 DUP2 MSTORE PUSH1 0x18 PUSH1 0x20 MSTORE PUSH1 0x40 SWAP1 KECCAK256 PUSH2 0x2D69 DUP3 DUP5 DUP4 PUSH2 0x567D JUMP JUMPDEST POP DUP3 PUSH32 0x6FBEDFB3A95FA1293073B2EB1A16D28939FD3A282440959A1D10B14B91C4828B DUP4 DUP4 PUSH1 0x40 MLOAD PUSH2 0x2D9C SWAP3 SWAP2 SWAP1 PUSH2 0x5765 JUMP JUMPDEST PUSH1 0x40 MLOAD DUP1 SWAP2 SUB SWAP1 LOG2 POP POP POP JUMP JUMPDEST PUSH1 0x14 SLOAD PUSH1 0x1 PUSH1 0x1 PUSH1 0xA0 SHL SUB AND CALLER EQ PUSH2 0x2DD3 JUMPI PUSH1 0x40 MLOAD PUSH3 0x461BCD PUSH1 0xE5 SHL DUP2 MSTORE PUSH1 0x4 ADD PUSH2 0x1309 SWAP1 PUSH2 0x5236 JUMP JUMPDEST PUSH1 0x0 DUP3 GT DUP1 ISZERO PUSH2 0x2DE3 JUMPI POP PUSH1 0x0 DUP2 GT JUMPDEST PUSH2 0x2DFF JUMPI PUSH1 0x40 MLOAD PUSH3 0x461BCD PUSH1 0xE5 SHL DUP2 MSTORE PUSH1 0x4 ADD PUSH2 0x1309 SWAP1 PUSH2 0x52FA JUMP JUMPDEST PUSH1 0xE DUP3 SWAP1 SSTORE PUSH1 0xF DUP2 SWAP1 SSTORE PUSH1 0x40 MLOAD PUSH32 0x58BBDF00A83292F6B8F4E6C65C4A61982873AF90182744D90D6E2909A8B7410E SWAP1 PUSH2 0x154F SWAP1 DUP5 SWAP1 DUP5 SWAP1 PUSH2 0x55D0 JUMP JUMPDEST PUSH1 0x14 SLOAD PUSH1 0x1 PUSH1 0x1 PUSH1 0xA0 SHL SUB AND CALLER EQ PUSH2 0x2E65 JUMPI PUSH1 0x40 MLOAD PUSH3 0x461BCD PUSH1 0xE5 SHL DUP2 MSTORE PUSH1 0x4 ADD PUSH2 0x1309 SWAP1 PUSH2 0x5236 JUMP JUMPDEST PUSH1 0x1 PUSH1 0x1 PUSH1 0xA0 SHL SUB DUP2 AND PUSH2 0x2EBB JUMPI PUSH1 0x40 MLOAD PUSH3 0x461BCD PUSH1 0xE5 SHL DUP2 MSTORE PUSH1 0x20 PUSH1 0x4 DUP3 ADD MSTORE PUSH1 0x1A PUSH1 0x24 DUP3 ADD MSTORE PUSH32 0x45544E5265676973747261723A207A65726F2061646472657373000000000000 PUSH1 0x44 DUP3 ADD MSTORE PUSH1 0x64 ADD PUSH2 0x1309 JUMP JUMPDEST PUSH1 0x14 SLOAD PUSH1 0x40 MLOAD PUSH1 0x1 PUSH1 0x1 PUSH1 0xA0 SHL SUB DUP1 DUP5 AND SWAP3 AND SWAP1 PUSH32 0x8BE0079C531659141344CD1FD0A4F28419497F9722A3DAAFE3B4186F6B6457E0 SWAP1 PUSH1 0x0 SWAP1 LOG3 PUSH1 0x14 DUP1 SLOAD PUSH1 0x1 PUSH1 0x1 PUSH1 0xA0 SHL SUB NOT AND PUSH1 0x1 PUSH1 0x1 PUSH1 0xA0 SHL SUB SWAP3 SWAP1 SWAP3 AND SWAP2 SWAP1 SWAP2 OR SWAP1 SSTORE JUMP JUMPDEST PUSH1 0x0 DUP5 DUP5 PUSH1 0x40 MLOAD PUSH2 0x2F29 SWAP3 SWAP2 SWAP1 PUSH2 0x5361 JUMP JUMPDEST PUSH1 0x40 DUP1 MLOAD SWAP2 DUP3 SWAP1 SUB SWAP1 SWAP2 KECCAK256 PUSH1 0x0 DUP2 DUP2 MSTORE PUSH1 0x20 DUP1 MSTORE SWAP2 SWAP1 SWAP2 KECCAK256 SLOAD SWAP1 SWAP2 POP PUSH1 0x1 PUSH1 0x1 PUSH1 0xA0 SHL SUB AND CALLER EQ PUSH2 0x2FA6 JUMPI PUSH1 0x40 MLOAD PUSH3 0x461BCD PUSH1 0xE5 SHL DUP2 MSTORE PUSH1 0x20 PUSH1 0x4 DUP3 ADD MSTORE PUSH1 0x21 PUSH1 0x24 DUP3 ADD MSTORE PUSH32 0x45544E5265676973747261723A206E6F74206E616D657370616365206F776E65 PUSH1 0x44 DUP3 ADD MSTORE PUSH1 0x39 PUSH1 0xF9 SHL PUSH1 0x64 DUP3 ADD MSTORE PUSH1 0x84 ADD PUSH2 0x1309 JUMP JUMPDEST PUSH1 0x10 SLOAD DUP4 LT ISZERO PUSH2 0x2FF4 JUMPI PUSH1 0x40 MLOAD PUSH3 0x461BCD PUSH1 0xE5 SHL DUP2 MSTORE PUSH1 0x20 PUSH1 0x4 DUP3 ADD MSTORE PUSH1 0x19 PUSH1 0x24 DUP3 ADD MSTORE PUSH25 0x22AA272932B3B4B9BA3930B91D103132B637BB90333637B7B9 PUSH1 0x39 SHL PUSH1 0x44 DUP3 ADD MSTORE PUSH1 0x64 ADD PUSH2 0x1309 JUMP JUMPDEST PUSH1 0x11 SLOAD DUP3 LT ISZERO PUSH2 0x3042 JUMPI PUSH1 0x40 MLOAD PUSH3 0x461BCD PUSH1 0xE5 SHL DUP2 MSTORE PUSH1 0x20 PUSH1 0x4 DUP3 ADD MSTORE PUSH1 0x19 PUSH1 0x24 DUP3 ADD MSTORE PUSH25 0x22AA272932B3B4B9BA3930B91D103132B637BB90333637B7B9 PUSH1 0x39 SHL PUSH1 0x44 DUP3 ADD MSTORE PUSH1 0x64 ADD PUSH2 0x1309 JUMP JUMPDEST PUSH1 0x40 DUP1 MLOAD PUSH1 0x0 DUP1 MLOAD PUSH1 0x20 PUSH2 0x5D54 DUP4 CODECOPY DUP2 MLOAD SWAP2 MSTORE PUSH1 0x20 DUP3 ADD MSTORE SWAP1 DUP2 ADD DUP3 SWAP1 MSTORE PUSH1 0x0 SWAP1 PUSH1 0x60 ADD PUSH1 0x40 DUP1 MLOAD DUP1 DUP4 SUB PUSH1 0x1F NOT ADD DUP2 MSTORE DUP3 DUP3 MSTORE DUP1 MLOAD PUSH1 0x20 SWAP2 DUP3 ADD KECCAK256 PUSH1 0x0 DUP2 DUP2 MSTORE PUSH1 0x22 DUP4 MSTORE DUP4 DUP2 KECCAK256 DUP10 SWAP1 SSTORE PUSH1 0x23 DUP4 MSTORE DUP4 SWAP1 KECCAK256 DUP8 SWAP1 SSTORE DUP8 DUP5 MSTORE SWAP1 DUP4 ADD DUP7 SWAP1 MSTORE SWAP3 POP DUP3 SWAP2 PUSH32 0xA4D2DA34D12255AB6491342EBC0EC7C805F4E325DC8A346DA06CEE450B17D961 SWAP2 ADD PUSH2 0x20ED JUMP JUMPDEST PUSH1 0x0 DUP1 PUSH1 0x0 PUSH2 0x30D9 PUSH2 0x1D9B JUMP JUMPDEST SWAP2 POP SWAP2 POP DUP1 PUSH2 0x30EC JUMPI DUP4 SWAP3 POP POP POP PUSH2 0x105B JUMP JUMPDEST PUSH2 0x30F9 DUP3 PUSH3 0xF4240 PUSH2 0x5821 JUMP JUMPDEST PUSH2 0x310C DUP7 PUSH9 0x56BC75E2D63100000 PUSH2 0x5821 JUMP JUMPDEST PUSH2 0x122C SWAP2 SWAP1 PUSH2 0x5838 JUMP JUMPDEST PUSH1 0x0 DUP1 PUSH2 0x3122 DUP4 PUSH2 0x35F1 JUMP JUMPDEST SWAP1 POP PUSH1 0x1 PUSH1 0x1 PUSH1 0xA0 SHL SUB DUP2 AND PUSH2 0x105B JUMPI PUSH1 0x40 MLOAD PUSH4 0x7E273289 PUSH1 0xE0 SHL DUP2 MSTORE PUSH1 0x4 DUP2 ADD DUP5 SWAP1 MSTORE PUSH1 0x24 ADD PUSH2 0x1309 JUMP JUMPDEST PUSH2 0x146C DUP4 DUP4 DUP4 PUSH1 0x1 PUSH2 0x4240 JUMP JUMPDEST PUSH1 0x0 DUP5 DUP5 DUP1 DUP1 PUSH1 0x1F ADD PUSH1 0x20 DUP1 SWAP2 DIV MUL PUSH1 0x20 ADD PUSH1 0x40 MLOAD SWAP1 DUP2 ADD PUSH1 0x40 MSTORE DUP1 SWAP4 SWAP3 SWAP2 SWAP1 DUP2 DUP2 MSTORE PUSH1 0x20 ADD DUP4 DUP4 DUP1 DUP3 DUP5 CALLDATACOPY PUSH1 0x0 SWAP3 ADD SWAP2 SWAP1 SWAP2 MSTORE POP POP DUP3 MLOAD SWAP3 SWAP4 POP POP POP PUSH1 0x1 GT ISZERO PUSH2 0x31E8 JUMPI PUSH1 0x40 MLOAD PUSH3 0x461BCD PUSH1 0xE5 SHL DUP2 MSTORE PUSH1 0x20 PUSH1 0x4 DUP3 ADD MSTORE PUSH1 0x1B PUSH1 0x24 DUP3 ADD MSTORE PUSH32 0x45544E5265676973747261723A20656D7074792070726F6A6563740000000000 PUSH1 0x44 DUP3 ADD MSTORE PUSH1 0x64 ADD PUSH2 0x1309 JUMP JUMPDEST PUSH2 0x31F2 DUP6 DUP6 PUSH2 0x3779 JUMP JUMPDEST DUP1 MLOAD PUSH1 0x20 DUP1 DUP4 ADD SWAP2 SWAP1 SWAP2 KECCAK256 PUSH1 0x40 DUP1 MLOAD PUSH1 0x0 DUP1 MLOAD PUSH1 0x20 PUSH2 0x5D54 DUP4 CODECOPY DUP2 MLOAD SWAP2 MSTORE DUP2 DUP6 ADD MSTORE DUP1 DUP3 ADD DUP4 SWAP1 MSTORE DUP2 MLOAD DUP1 DUP3 SUB DUP4 ADD DUP2 MSTORE PUSH1 0x60 SWAP1 SWAP2 ADD SWAP1 SWAP2 MSTORE DUP1 MLOAD SWAP3 ADD SWAP2 SWAP1 SWAP2 KECCAK256 PUSH2 0x323C DUP2 PUSH2 0x3595 JUMP JUMPDEST PUSH2 0x3288 JUMPI PUSH1 0x40 MLOAD PUSH3 0x461BCD PUSH1 0xE5 SHL DUP2 MSTORE PUSH1 0x20 PUSH1 0x4 DUP3 ADD MSTORE PUSH1 0x1C PUSH1 0x24 DUP3 ADD MSTORE PUSH32 0x45544E5265676973747261723A2070726F6A6563742065786973747300000000 PUSH1 0x44 DUP3 ADD MSTORE PUSH1 0x64 ADD PUSH2 0x1309 JUMP JUMPDEST PUSH1 0x40 MLOAD PUSH4 0x6AB5923 PUSH1 0xE0 SHL DUP2 MSTORE PUSH1 0x0 DUP1 MLOAD PUSH1 0x20 PUSH2 0x5D54 DUP4 CODECOPY DUP2 MLOAD SWAP2 MSTORE PUSH1 0x4 DUP3 ADD MSTORE PUSH1 0x24 DUP2 ADD DUP4 SWAP1 MSTORE ADDRESS PUSH1 0x44 DUP3 ADD MSTORE PUSH32 0x0 PUSH1 0x1 PUSH1 0x1 PUSH1 0xA0 SHL SUB AND SWAP1 PUSH4 0x6AB5923 SWAP1 PUSH1 0x64 ADD PUSH1 0x20 PUSH1 0x40 MLOAD DUP1 DUP4 SUB DUP2 PUSH1 0x0 DUP8 GAS CALL ISZERO DUP1 ISZERO PUSH2 0x3309 JUMPI RETURNDATASIZE PUSH1 0x0 DUP1 RETURNDATACOPY RETURNDATASIZE PUSH1 0x0 REVERT JUMPDEST POP POP POP POP PUSH1 0x40 MLOAD RETURNDATASIZE PUSH1 0x1F NOT PUSH1 0x1F DUP3 ADD AND DUP3 ADD DUP1 PUSH1 0x40 MSTORE POP DUP2 ADD SWAP1 PUSH2 0x332D SWAP2 SWAP1 PUSH2 0x585A JUMP JUMPDEST POP PUSH1 0x40 MLOAD PUSH4 0xBC053E73 PUSH1 0xE0 SHL DUP2 MSTORE PUSH1 0x4 DUP2 ADD DUP3 SWAP1 MSTORE ADDRESS PUSH1 0x24 DUP3 ADD MSTORE PUSH1 0x1 PUSH1 0x44 DUP3 ADD MSTORE DUP2 SWAP1 PUSH32 0x0 PUSH1 0x1 PUSH1 0x1 PUSH1 0xA0 SHL SUB AND SWAP1 PUSH4 0xBC053E73 SWAP1 PUSH1 0x64 ADD PUSH1 0x0 PUSH1 0x40 MLOAD DUP1 DUP4 SUB DUP2 PUSH1 0x0 DUP8 DUP1 EXTCODESIZE ISZERO DUP1 ISZERO PUSH2 0x339F JUMPI PUSH1 0x0 DUP1 REVERT JUMPDEST POP GAS CALL ISZERO DUP1 ISZERO PUSH2 0x33B3 JUMPI RETURNDATASIZE PUSH1 0x0 DUP1 RETURNDATACOPY RETURNDATASIZE PUSH1 0x0 REVERT JUMPDEST POP POP POP POP PUSH2 0x33C1 DUP7 DUP3 PUSH2 0x4346 JUMP JUMPDEST PUSH1 0x0 DUP4 DUP2 MSTORE PUSH1 0x1F PUSH1 0x20 SWAP1 DUP2 MSTORE PUSH1 0x40 DUP1 DUP4 KECCAK256 DUP1 SLOAD PUSH1 0xFF NOT SWAP1 DUP2 AND PUSH1 0x1 OR SWAP1 SWAP2 SSTORE DUP3 DUP1 MSTORE DUP2 DUP5 KECCAK256 DUP1 SLOAD PUSH1 0x1 PUSH1 0x1 PUSH1 0xA0 SHL SUB DUP13 AND PUSH1 0x1 PUSH1 0x1 PUSH1 0xA0 SHL SUB NOT SWAP1 SWAP2 AND OR SWAP1 SSTORE DUP6 DUP5 MSTORE PUSH1 0x1C DUP4 MSTORE SWAP3 DUP2 SWAP1 KECCAK256 DUP1 SLOAD SWAP1 SWAP4 AND PUSH1 0x2 OR SWAP1 SWAP3 SSTORE SWAP1 MLOAD PUSH2 0x3427 SWAP2 DUP11 SWAP2 DUP11 SWAP2 ADD PUSH2 0x57BE JUMP JUMPDEST PUSH1 0x40 DUP1 MLOAD PUSH1 0x1F NOT DUP2 DUP5 SUB ADD DUP2 MSTORE SWAP2 DUP2 MSTORE PUSH1 0x0 DUP5 DUP2 MSTORE PUSH1 0x1D PUSH1 0x20 MSTORE KECCAK256 SWAP1 PUSH2 0x344D SWAP1 DUP3 PUSH2 0x5873 JUMP JUMPDEST POP PUSH1 0x0 DUP6 PUSH2 0x3468 JUMPI PUSH2 0x3463 PUSH4 0x1E13380 TIMESTAMP PUSH2 0x52D4 JUMP JUMPDEST PUSH2 0x346B JUMP JUMPDEST PUSH1 0x0 JUMPDEST PUSH1 0x0 DUP5 DUP2 MSTORE PUSH1 0x1B PUSH1 0x20 SWAP1 DUP2 MSTORE PUSH1 0x40 DUP1 DUP4 KECCAK256 DUP5 SWAP1 SSTORE PUSH1 0x21 SWAP1 SWAP2 MSTORE SWAP1 DUP2 SWAP1 KECCAK256 DUP3 SWAP1 SSTORE MLOAD SWAP1 SWAP2 POP PUSH1 0x1 PUSH1 0x1 PUSH1 0xA0 SHL SUB DUP9 AND SWAP1 DUP5 SWAP1 PUSH32 0x3EB4C73A9505716B2A711327CE4189ABDB5D3ED04046D986C58065F3DF0E1CF9 SWAP1 PUSH2 0x2CA0 SWAP1 DUP14 SWAP1 DUP14 SWAP1 DUP13 SWAP1 DUP9 SWAP1 PUSH2 0x5932 JUMP JUMPDEST PUSH1 0x0 DUP2 DUP2 MSTORE PUSH1 0x1B PUSH1 0x20 MSTORE PUSH1 0x40 DUP2 KECCAK256 SLOAD DUP1 DUP3 SUB PUSH2 0x34EE JUMPI POP PUSH1 0x0 SWAP3 SWAP2 POP POP JUMP JUMPDEST DUP1 TIMESTAMP GT DUP1 ISZERO PUSH2 0x3509 JUMPI POP PUSH2 0x3505 PUSH3 0x278D00 DUP3 PUSH2 0x52D4 JUMP JUMPDEST TIMESTAMP GT ISZERO JUMPDEST SWAP4 SWAP3 POP POP POP JUMP JUMPDEST PUSH1 0x1 PUSH1 0x1 PUSH1 0xA0 SHL SUB DUP3 AND PUSH2 0x353A JUMPI PUSH1 0x40 MLOAD PUSH4 0x32505749 PUSH1 0xE1 SHL DUP2 MSTORE PUSH1 0x0 PUSH1 0x4 DUP3 ADD MSTORE PUSH1 0x24 ADD PUSH2 0x1309 JUMP JUMPDEST PUSH1 0x0 PUSH2 0x3547 DUP4 DUP4 CALLER PUSH2 0x4360 JUMP JUMPDEST SWAP1 POP DUP4 PUSH1 0x1 PUSH1 0x1 PUSH1 0xA0 SHL SUB AND DUP2 PUSH1 0x1 PUSH1 0x1 PUSH1 0xA0 SHL SUB AND EQ PUSH2 0x1D95 JUMPI PUSH1 0x40 MLOAD PUSH4 0x64283D7B PUSH1 0xE0 SHL DUP2 MSTORE PUSH1 0x1 PUSH1 0x1 PUSH1 0xA0 SHL SUB DUP1 DUP7 AND PUSH1 0x4 DUP4 ADD MSTORE PUSH1 0x24 DUP3 ADD DUP5 SWAP1 MSTORE DUP3 AND PUSH1 0x44 DUP3 ADD MSTORE PUSH1 0x64 ADD PUSH2 0x1309 JUMP JUMPDEST PUSH1 0x0 DUP2 DUP2 PUSH2 0x35A2 DUP3 PUSH2 0x35F1 JUMP JUMPDEST PUSH1 0x1 PUSH1 0x1 PUSH1 0xA0 SHL SUB AND SUB PUSH2 0x35B9 JUMPI POP PUSH1 0x1 SWAP3 SWAP2 POP POP JUMP JUMPDEST PUSH1 0x0 DUP4 DUP2 MSTORE PUSH1 0x1B PUSH1 0x20 MSTORE PUSH1 0x40 DUP2 KECCAK256 SLOAD SWAP1 DUP2 SWAP1 SUB PUSH2 0x35DA JUMPI POP PUSH1 0x0 SWAP4 SWAP3 POP POP POP JUMP JUMPDEST PUSH2 0x35E7 PUSH3 0x278D00 DUP3 PUSH2 0x52D4 JUMP JUMPDEST TIMESTAMP GT SWAP5 SWAP4 POP POP POP POP JUMP JUMPDEST PUSH1 0x0 SWAP1 DUP2 MSTORE PUSH1 0x2 PUSH1 0x20 MSTORE PUSH1 0x40 SWAP1 KECCAK256 SLOAD PUSH1 0x1 PUSH1 0x1 PUSH1 0xA0 SHL SUB AND SWAP1 JUMP JUMPDEST PUSH1 0x0 PUSH1 0x64 PUSH2 0x361B DUP4 PUSH1 0x32 PUSH2 0x5821 JUMP JUMPDEST PUSH2 0x3625 SWAP2 SWAP1 PUSH2 0x5838 JUMP JUMPDEST SWAP1 POP PUSH1 0x0 PUSH2 0x3633 DUP3 DUP5 PUSH2 0x52E7 JUMP JUMPDEST SWAP1 POP DUP1 PUSH1 0x25 PUSH1 0x0 DUP3 DUP3 SLOAD PUSH2 0x3647 SWAP2 SWAP1 PUSH2 0x52D4 JUMP JUMPDEST SWAP1 SWAP2 SSTORE POP POP PUSH1 0x15 SLOAD PUSH1 0x1 PUSH1 0x1 PUSH1 0xA0 SHL SUB AND ISZERO DUP1 ISZERO SWAP1 PUSH2 0x3666 JUMPI POP PUSH1 0x0 DUP3 GT JUMPDEST ISZERO PUSH2 0x3674 JUMPI PUSH2 0x146C DUP3 PUSH2 0x440C JUMP JUMPDEST DUP2 PUSH1 0x25 PUSH1 0x0 DUP3 DUP3 SLOAD PUSH2 0x3686 SWAP2 SWAP1 PUSH2 0x52D4 JUMP JUMPDEST SWAP1 SWAP2 SSTORE POP POP POP POP POP JUMP JUMPDEST PUSH1 0x0 PUSH1 0x64 PUSH1 0x6 SLOAD DUP5 PUSH2 0x36A2 SWAP2 SWAP1 PUSH2 0x5821 JUMP JUMPDEST PUSH2 0x36AC SWAP2 SWAP1 PUSH2 0x5838 JUMP JUMPDEST SWAP1 POP PUSH1 0x0 PUSH1 0x64 PUSH1 0x7 SLOAD DUP6 PUSH2 0x36C0 SWAP2 SWAP1 PUSH2 0x5821 JUMP JUMPDEST PUSH2 0x36CA SWAP2 SWAP1 PUSH2 0x5838 JUMP JUMPDEST SWAP1 POP PUSH1 0x0 DUP2 PUSH2 0x36D9 DUP5 DUP8 PUSH2 0x52E7 JUMP JUMPDEST PUSH2 0x36E3 SWAP2 SWAP1 PUSH2 0x52E7 JUMP JUMPDEST PUSH1 0x1 PUSH1 0x1 PUSH1 0xA0 SHL SUB DUP6 AND PUSH1 0x0 SWAP1 DUP2 MSTORE PUSH1 0x24 PUSH1 0x20 MSTORE PUSH1 0x40 DUP2 KECCAK256 DUP1 SLOAD SWAP3 SWAP4 POP DUP6 SWAP3 SWAP1 SWAP2 SWAP1 PUSH2 0x3710 SWAP1 DUP5 SWAP1 PUSH2 0x52D4 JUMP JUMPDEST SWAP3 POP POP DUP2 SWAP1 SSTORE POP DUP1 PUSH1 0x25 PUSH1 0x0 DUP3 DUP3 SLOAD PUSH2 0x3729 SWAP2 SWAP1 PUSH2 0x52D4 JUMP JUMPDEST SWAP1 SWAP2 SSTORE POP POP PUSH1 0x15 SLOAD PUSH1 0x1 PUSH1 0x1 PUSH1 0xA0 SHL SUB AND ISZERO DUP1 ISZERO SWAP1 PUSH2 0x3748 JUMPI POP PUSH1 0x0 DUP3 GT JUMPDEST ISZERO PUSH2 0x375B JUMPI PUSH2 0x3756 DUP3 PUSH2 0x440C JUMP JUMPDEST PUSH2 0x2A12 JUMP JUMPDEST DUP2 PUSH1 0x25 PUSH1 0x0 DUP3 DUP3 SLOAD PUSH2 0x376D SWAP2 SWAP1 PUSH2 0x52D4 JUMP JUMPDEST SWAP1 SWAP2 SSTORE POP POP POP POP POP POP POP JUMP JUMPDEST PUSH1 0x0 DUP3 DUP3 DUP1 DUP1 PUSH1 0x1F ADD PUSH1 0x20 DUP1 SWAP2 DIV MUL PUSH1 0x20 ADD PUSH1 0x40 MLOAD SWAP1 DUP2 ADD PUSH1 0x40 MSTORE DUP1 SWAP4 SWAP3 SWAP2 SWAP1 DUP2 DUP2 MSTORE PUSH1 0x20 ADD DUP4 DUP4 DUP1 DUP3 DUP5 CALLDATACOPY PUSH1 0x0 SWAP3 ADD SWAP2 SWAP1 SWAP2 MSTORE POP POP DUP3 MLOAD SWAP3 SWAP4 POP POP POP PUSH1 0x1 GT DUP1 ISZERO SWAP1 PUSH2 0x37C8 JUMPI POP PUSH1 0x3F DUP2 MLOAD GT ISZERO JUMPDEST PUSH2 0x3814 JUMPI PUSH1 0x40 MLOAD PUSH3 0x461BCD PUSH1 0xE5 SHL DUP2 MSTORE PUSH1 0x20 PUSH1 0x4 DUP3 ADD MSTORE PUSH1 0x1C PUSH1 0x24 DUP3 ADD MSTORE PUSH32 0x45544E5265676973747261723A20696E76616C6964206C656E67746800000000 PUSH1 0x44 DUP3 ADD MSTORE PUSH1 0x64 ADD PUSH2 0x1309 JUMP JUMPDEST DUP1 PUSH1 0x0 DUP2 MLOAD DUP2 LT PUSH2 0x3827 JUMPI PUSH2 0x3827 PUSH2 0x5959 JUMP JUMPDEST PUSH1 0x20 SWAP2 ADD ADD MLOAD PUSH1 0x1 PUSH1 0x1 PUSH1 0xF8 SHL SUB NOT AND PUSH1 0x2D PUSH1 0xF8 SHL EQ DUP1 ISZERO SWAP1 PUSH2 0x387C JUMPI POP DUP1 PUSH1 0x1 DUP3 MLOAD PUSH2 0x3854 SWAP2 SWAP1 PUSH2 0x52E7 JUMP JUMPDEST DUP2 MLOAD DUP2 LT PUSH2 0x3864 JUMPI PUSH2 0x3864 PUSH2 0x5959 JUMP JUMPDEST PUSH1 0x20 SWAP2 ADD ADD MLOAD PUSH1 0x1 PUSH1 0x1 PUSH1 0xF8 SHL SUB NOT AND PUSH1 0x2D PUSH1 0xF8 SHL EQ ISZERO JUMPDEST PUSH2 0x38D6 JUMPI PUSH1 0x40 MLOAD PUSH3 0x461BCD PUSH1 0xE5 SHL DUP2 MSTORE PUSH1 0x20 PUSH1 0x4 DUP3 ADD MSTORE PUSH1 0x25 PUSH1 0x24 DUP3 ADD MSTORE PUSH32 0x45544E5265676973747261723A206C656164696E672F747261696C696E672068 PUSH1 0x44 DUP3 ADD MSTORE PUSH5 0x3CB83432B7 PUSH1 0xD9 SHL PUSH1 0x64 DUP3 ADD MSTORE PUSH1 0x84 ADD PUSH2 0x1309 JUMP JUMPDEST PUSH1 0x0 JUMPDEST DUP2 MLOAD DUP2 LT ISZERO PUSH2 0x1D95 JUMPI PUSH1 0x0 DUP3 DUP3 DUP2 MLOAD DUP2 LT PUSH2 0x38F6 JUMPI PUSH2 0x38F6 PUSH2 0x5959 JUMP JUMPDEST ADD PUSH1 0x20 ADD MLOAD PUSH1 0x1 PUSH1 0x1 PUSH1 0xF8 SHL SUB NOT AND SWAP1 POP PUSH1 0x61 PUSH1 0xF8 SHL DUP2 LT DUP1 ISZERO SWAP1 PUSH2 0x3929 JUMPI POP PUSH1 0x3D PUSH1 0xF9 SHL PUSH1 0x1 PUSH1 0x1 PUSH1 0xF8 SHL SUB NOT DUP3 AND GT ISZERO JUMPDEST DUP1 PUSH2 0x395B JUMPI POP PUSH1 0x3 PUSH1 0xFC SHL PUSH1 0x1 PUSH1 0x1 PUSH1 0xF8 SHL SUB NOT DUP3 AND LT DUP1 ISZERO SWAP1 PUSH2 0x395B JUMPI POP PUSH1 0x39 PUSH1 0xF8 SHL PUSH1 0x1 PUSH1 0x1 PUSH1 0xF8 SHL SUB NOT DUP3 AND GT ISZERO JUMPDEST DUP1 PUSH2 0x3973 JUMPI POP PUSH1 0x2D PUSH1 0xF8 SHL PUSH1 0x1 PUSH1 0x1 PUSH1 0xF8 SHL SUB NOT DUP3 AND EQ JUMPDEST PUSH2 0x39D2 JUMPI PUSH1 0x40 MLOAD PUSH3 0x461BCD PUSH1 0xE5 SHL DUP2 MSTORE PUSH1 0x20 PUSH1 0x4 DUP3 ADD MSTORE PUSH1 0x2A PUSH1 0x24 DUP3 ADD MSTORE PUSH32 0x45544E5265676973747261723A20696E76616C69642063686172202875736520 PUSH1 0x44 DUP3 ADD MSTORE PUSH10 0x612D7A20302D39202D29 PUSH1 0xB0 SHL PUSH1 0x64 DUP3 ADD MSTORE PUSH1 0x84 ADD PUSH2 0x1309 JUMP JUMPDEST POP DUP1 PUSH2 0x39DD DUP2 PUSH2 0x596F JUMP JUMPDEST SWAP2 POP POP PUSH2 0x38D9 JUMP JUMPDEST PUSH1 0x60 DUP2 ADD MLOAD PUSH1 0x0 SWAP1 PUSH1 0x1 PUSH1 0x1 PUSH1 0xA0 SHL SUB AND ISZERO PUSH2 0x3A05 JUMPI DUP2 PUSH1 0x60 ADD MLOAD PUSH2 0x3A12 JUMP JUMPDEST PUSH1 0x16 SLOAD PUSH1 0x1 PUSH1 0x1 PUSH1 0xA0 SHL SUB AND JUMPDEST PUSH1 0x20 DUP4 ADD MLOAD PUSH1 0x40 DUP1 DUP6 ADD MLOAD SWAP1 MLOAD PUSH4 0x6AB5923 PUSH1 0xE0 SHL DUP2 MSTORE PUSH1 0x4 DUP2 ADD SWAP3 SWAP1 SWAP3 MSTORE PUSH1 0x24 DUP3 ADD MSTORE ADDRESS PUSH1 0x44 DUP3 ADD MSTORE SWAP1 SWAP2 POP PUSH1 0x1 PUSH1 0x1 PUSH1 0xA0 SHL SUB PUSH32 0x0 AND SWAP1 PUSH4 0x6AB5923 SWAP1 PUSH1 0x64 ADD PUSH1 0x20 PUSH1 0x40 MLOAD DUP1 DUP4 SUB DUP2 PUSH1 0x0 DUP8 GAS CALL ISZERO DUP1 ISZERO PUSH2 0x3A92 JUMPI RETURNDATASIZE PUSH1 0x0 DUP1 RETURNDATACOPY RETURNDATASIZE PUSH1 0x0 REVERT JUMPDEST POP POP POP POP PUSH1 0x40 MLOAD RETURNDATASIZE PUSH1 0x1F NOT PUSH1 0x1F DUP3 ADD AND DUP3 ADD DUP1 PUSH1 0x40 MSTORE POP DUP2 ADD SWAP1 PUSH2 0x3AB6 SWAP2 SWAP1 PUSH2 0x585A JUMP JUMPDEST POP PUSH1 0x1 PUSH1 0x1 PUSH1 0xA0 SHL SUB DUP2 AND ISZERO PUSH2 0x3BA8 JUMPI DUP2 MLOAD PUSH1 0x40 MLOAD PUSH4 0xC4B7B85 PUSH1 0xE1 SHL DUP2 MSTORE PUSH1 0x4 DUP2 ADD SWAP2 SWAP1 SWAP2 MSTORE PUSH1 0x1 PUSH1 0x1 PUSH1 0xA0 SHL SUB DUP3 DUP2 AND PUSH1 0x24 DUP4 ADD MSTORE PUSH32 0x0 AND SWAP1 PUSH4 0x1896F70A SWAP1 PUSH1 0x44 ADD PUSH1 0x0 PUSH1 0x40 MLOAD DUP1 DUP4 SUB DUP2 PUSH1 0x0 DUP8 DUP1 EXTCODESIZE ISZERO DUP1 ISZERO PUSH2 0x3B33 JUMPI PUSH1 0x0 DUP1 REVERT JUMPDEST POP GAS CALL ISZERO DUP1 ISZERO PUSH2 0x3B47 JUMPI RETURNDATASIZE PUSH1 0x0 DUP1 RETURNDATACOPY RETURNDATASIZE PUSH1 0x0 REVERT JUMPDEST POP POP DUP4 MLOAD PUSH1 0x40 MLOAD PUSH3 0xD5FA2B PUSH1 0xE8 SHL DUP2 MSTORE PUSH1 0x4 DUP2 ADD SWAP2 SWAP1 SWAP2 MSTORE CALLER PUSH1 0x24 DUP3 ADD MSTORE PUSH1 0x1 PUSH1 0x1 PUSH1 0xA0 SHL SUB DUP5 AND SWAP3 POP PUSH4 0xD5FA2B00 SWAP2 POP PUSH1 0x44 ADD PUSH1 0x0 PUSH1 0x40 MLOAD DUP1 DUP4 SUB DUP2 PUSH1 0x0 DUP8 DUP1 EXTCODESIZE ISZERO DUP1 ISZERO PUSH2 0x3B95 JUMPI PUSH1 0x0 DUP1 REVERT JUMPDEST POP GAS CALL SWAP3 POP POP POP DUP1 ISZERO PUSH2 0x3BA6 JUMPI POP PUSH1 0x1 JUMPDEST POP JUMPDEST DUP2 MLOAD PUSH1 0x0 PUSH2 0x3BB5 DUP3 PUSH2 0x35F1 JUMP JUMPDEST PUSH1 0x1 PUSH1 0x1 PUSH1 0xA0 SHL SUB AND EQ PUSH2 0x3BD2 JUMPI PUSH2 0x3BD0 PUSH1 0x0 DUP3 PUSH1 0x0 PUSH2 0x4360 JUMP JUMPDEST POP JUMPDEST DUP3 MLOAD PUSH1 0x40 MLOAD PUSH4 0xBC053E73 PUSH1 0xE0 SHL DUP2 MSTORE PUSH1 0x4 DUP2 ADD SWAP2 SWAP1 SWAP2 MSTORE ADDRESS PUSH1 0x24 DUP3 ADD MSTORE PUSH1 0x1 PUSH1 0x44 DUP3 ADD MSTORE PUSH32 0x0 PUSH1 0x1 PUSH1 0x1 PUSH1 0xA0 SHL SUB AND SWAP1 PUSH4 0xBC053E73 SWAP1 PUSH1 0x64 ADD PUSH1 0x0 PUSH1 0x40 MLOAD DUP1 DUP4 SUB DUP2 PUSH1 0x0 DUP8 DUP1 EXTCODESIZE ISZERO DUP1 ISZERO PUSH2 0x3C44 JUMPI PUSH1 0x0 DUP1 REVERT JUMPDEST POP GAS CALL ISZERO DUP1 ISZERO PUSH2 0x3C58 JUMPI RETURNDATASIZE PUSH1 0x0 DUP1 RETURNDATACOPY RETURNDATASIZE PUSH1 0x0 REVERT JUMPDEST POP POP POP POP PUSH2 0x3C66 CALLER DUP3 PUSH2 0x4346 JUMP JUMPDEST PUSH1 0xA0 DUP4 ADD MLOAD DUP4 MLOAD PUSH1 0x0 SWAP1 DUP2 MSTORE PUSH1 0x1C PUSH1 0x20 SWAP1 DUP2 MSTORE PUSH1 0x40 DUP1 DUP4 KECCAK256 DUP1 SLOAD PUSH1 0xFF NOT AND PUSH1 0xFF SWAP1 SWAP6 AND SWAP5 SWAP1 SWAP5 OR SWAP1 SWAP4 SSTORE PUSH1 0xC0 DUP7 ADD MLOAD DUP7 MLOAD DUP4 MSTORE PUSH1 0x1D SWAP1 SWAP2 MSTORE SWAP2 SWAP1 KECCAK256 SWAP1 PUSH2 0x3CAC SWAP1 DUP3 PUSH2 0x5873 JUMP JUMPDEST POP PUSH1 0xE0 DUP4 ADD MLOAD DUP4 MLOAD PUSH1 0x0 SWAP1 DUP2 MSTORE PUSH1 0x1E PUSH1 0x20 MSTORE PUSH1 0x40 SWAP1 KECCAK256 SWAP1 PUSH2 0x3CCD SWAP1 DUP3 PUSH2 0x5873 JUMP JUMPDEST POP DUP3 PUSH1 0x80 ADD MLOAD PUSH2 0x3CEA JUMPI PUSH2 0x3CE5 PUSH4 0x1E13380 TIMESTAMP PUSH2 0x52D4 JUMP JUMPDEST PUSH2 0x3CED JUMP JUMPDEST PUSH1 0x0 JUMPDEST SWAP3 MLOAD PUSH1 0x0 SWAP1 DUP2 MSTORE PUSH1 0x1B PUSH1 0x20 MSTORE PUSH1 0x40 SWAP1 KECCAK256 SWAP3 SWAP1 SWAP3 SSTORE POP POP JUMP JUMPDEST PUSH1 0x1 PUSH1 0x1 PUSH1 0xA0 SHL SUB DUP3 AND PUSH2 0x3D37 JUMPI PUSH1 0x40 MLOAD PUSH4 0xB611743 PUSH1 0xE3 SHL DUP2 MSTORE PUSH1 0x1 PUSH1 0x1 PUSH1 0xA0 SHL SUB DUP4 AND PUSH1 0x4 DUP3 ADD MSTORE PUSH1 0x24 ADD PUSH2 0x1309 JUMP JUMPDEST PUSH1 0x1 PUSH1 0x1 PUSH1 0xA0 SHL SUB DUP4 DUP2 AND PUSH1 0x0 DUP2 DUP2 MSTORE PUSH1 0x5 PUSH1 0x20 SWAP1 DUP2 MSTORE PUSH1 0x40 DUP1 DUP4 KECCAK256 SWAP5 DUP8 AND DUP1 DUP5 MSTORE SWAP5 DUP3 MSTORE SWAP2 DUP3 SWAP1 KECCAK256 DUP1 SLOAD PUSH1 0xFF NOT AND DUP7 ISZERO ISZERO SWAP1 DUP2 OR SWAP1 SWAP2 SSTORE SWAP2 MLOAD SWAP2 DUP3 MSTORE PUSH32 0x17307EAB39AB6107E8899845AD3D59BD9653F200F220920489CA2B5937696C31 SWAP2 ADD PUSH1 0x40 MLOAD DUP1 SWAP2 SUB SWAP1 LOG3 POP POP POP JUMP JUMPDEST PUSH2 0x3DAF DUP5 DUP5 DUP5 PUSH2 0x143B JUMP JUMPDEST PUSH2 0x1D95 DUP5 DUP5 DUP5 DUP5 PUSH2 0x46E9 JUMP JUMPDEST PUSH1 0x0 DUP2 DUP2 MSTORE PUSH1 0x1D PUSH1 0x20 MSTORE PUSH1 0x40 DUP2 KECCAK256 DUP1 SLOAD PUSH1 0x60 SWAP3 SWAP2 SWAP1 PUSH2 0x3DD9 SWAP1 PUSH2 0x51A7 JUMP JUMPDEST DUP1 PUSH1 0x1F ADD PUSH1 0x20 DUP1 SWAP2 DIV MUL PUSH1 0x20 ADD PUSH1 0x40 MLOAD SWAP1 DUP2 ADD PUSH1 0x40 MSTORE DUP1 SWAP3 SWAP2 SWAP1 DUP2 DUP2 MSTORE PUSH1 0x20 ADD DUP3 DUP1 SLOAD PUSH2 0x3E05 SWAP1 PUSH2 0x51A7 JUMP JUMPDEST DUP1 ISZERO PUSH2 0x3E52 JUMPI DUP1 PUSH1 0x1F LT PUSH2 0x3E27 JUMPI PUSH2 0x100 DUP1 DUP4 SLOAD DIV MUL DUP4 MSTORE SWAP2 PUSH1 0x20 ADD SWAP2 PUSH2 0x3E52 JUMP JUMPDEST DUP3 ADD SWAP2 SWAP1 PUSH1 0x0 MSTORE PUSH1 0x20 PUSH1 0x0 KECCAK256 SWAP1 JUMPDEST DUP2 SLOAD DUP2 MSTORE SWAP1 PUSH1 0x1 ADD SWAP1 PUSH1 0x20 ADD DUP1 DUP4 GT PUSH2 0x3E35 JUMPI DUP3 SWAP1 SUB PUSH1 0x1F AND DUP3 ADD SWAP2 JUMPDEST POP POP POP PUSH1 0x0 DUP7 DUP2 MSTORE PUSH1 0x1C PUSH1 0x20 SWAP1 DUP2 MSTORE PUSH1 0x40 DUP1 DUP4 KECCAK256 SLOAD PUSH1 0x1B SWAP1 SWAP3 MSTORE DUP3 KECCAK256 SLOAD SWAP5 SWAP6 POP PUSH1 0xFF AND SWAP4 SWAP3 POP DUP3 ISZERO SWAP2 POP PUSH1 0x2 DUP5 EQ PUSH2 0x3EDC JUMPI PUSH1 0xFF DUP5 AND PUSH1 0x1 EQ PUSH2 0x3EB2 JUMPI PUSH1 0x40 MLOAD DUP1 PUSH1 0x40 ADD PUSH1 0x40 MSTORE DUP1 PUSH1 0x5 DUP2 MSTORE PUSH1 0x20 ADD PUSH5 0x4261736963 PUSH1 0xD8 SHL DUP2 MSTORE POP PUSH2 0x3EFF JUMP JUMPDEST PUSH1 0x40 MLOAD DUP1 PUSH1 0x40 ADD PUSH1 0x40 MSTORE DUP1 PUSH1 0xC DUP2 MSTORE PUSH1 0x20 ADD PUSH12 0x50726F6A656374204E616D65 PUSH1 0xA0 SHL DUP2 MSTORE POP PUSH2 0x3EFF JUMP JUMPDEST PUSH1 0x40 MLOAD DUP1 PUSH1 0x40 ADD PUSH1 0x40 MSTORE DUP1 PUSH1 0x9 DUP2 MSTORE PUSH1 0x20 ADD PUSH9 0x4E616D657370616365 PUSH1 0xB8 SHL DUP2 MSTORE POP JUMPDEST SWAP1 POP PUSH1 0x0 DUP1 PUSH1 0x18 PUSH1 0x0 DUP11 DUP2 MSTORE PUSH1 0x20 ADD SWAP1 DUP2 MSTORE PUSH1 0x20 ADD PUSH1 0x0 KECCAK256 DUP1 SLOAD PUSH2 0x3F22 SWAP1 PUSH2 0x51A7 JUMP JUMPDEST SWAP1 POP GT PUSH2 0x3F30 JUMPI PUSH1 0x19 PUSH2 0x3F3F JUMP JUMPDEST PUSH1 0x0 DUP9 DUP2 MSTORE PUSH1 0x18 PUSH1 0x20 MSTORE PUSH1 0x40 SWAP1 KECCAK256 JUMPDEST DUP1 SLOAD PUSH2 0x3F4A SWAP1 PUSH2 0x51A7 JUMP JUMPDEST DUP1 PUSH1 0x1F ADD PUSH1 0x20 DUP1 SWAP2 DIV MUL PUSH1 0x20 ADD PUSH1 0x40 MLOAD SWAP1 DUP2 ADD PUSH1 0x40 MSTORE DUP1 SWAP3 SWAP2 SWAP1 DUP2 DUP2 MSTORE PUSH1 0x20 ADD DUP3 DUP1 SLOAD PUSH2 0x3F76 SWAP1 PUSH2 0x51A7 JUMP JUMPDEST DUP1 ISZERO PUSH2 0x3FC3 JUMPI DUP1 PUSH1 0x1F LT PUSH2 0x3F98 JUMPI PUSH2 0x100 DUP1 DUP4 SLOAD DIV MUL DUP4 MSTORE SWAP2 PUSH1 0x20 ADD SWAP2 PUSH2 0x3FC3 JUMP JUMPDEST DUP3 ADD SWAP2 SWAP1 PUSH1 0x0 MSTORE PUSH1 0x20 PUSH1 0x0 KECCAK256 SWAP1 JUMPDEST DUP2 SLOAD DUP2 MSTORE SWAP1 PUSH1 0x1 ADD SWAP1 PUSH1 0x20 ADD DUP1 DUP4 GT PUSH2 0x3FA6 JUMPI DUP3 SWAP1 SUB PUSH1 0x1F AND DUP3 ADD SWAP2 JUMPDEST POP POP POP POP POP SWAP1 POP PUSH1 0x0 DUP1 DUP3 MLOAD GT PUSH2 0x3FE9 JUMPI PUSH1 0x40 MLOAD DUP1 PUSH1 0x20 ADD PUSH1 0x40 MSTORE DUP1 PUSH1 0x0 DUP2 MSTORE POP PUSH2 0x400A JUMP JUMPDEST DUP2 PUSH1 0x40 MLOAD PUSH1 0x20 ADD PUSH2 0x3FFA SWAP2 SWAP1 PUSH2 0x5988 JUMP JUMPDEST PUSH1 0x40 MLOAD PUSH1 0x20 DUP2 DUP4 SUB SUB DUP2 MSTORE SWAP1 PUSH1 0x40 MSTORE JUMPDEST PUSH1 0x40 DUP1 MLOAD PUSH1 0x20 DUP2 ADD SWAP1 SWAP2 MSTORE PUSH1 0x0 DUP2 MSTORE SWAP1 SWAP2 POP PUSH1 0x0 NOT PUSH1 0xFF DUP9 AND ADD PUSH2 0x4059 JUMPI PUSH1 0x0 DUP11 DUP2 MSTORE PUSH1 0x1E PUSH1 0x20 SWAP1 DUP2 MSTORE PUSH1 0x40 SWAP2 DUP3 SWAP1 KECCAK256 SWAP2 MLOAD PUSH2 0x4047 SWAP3 SWAP2 ADD PUSH2 0x59C6 JUMP JUMPDEST PUSH1 0x40 MLOAD PUSH1 0x20 DUP2 DUP4 SUB SUB DUP2 MSTORE SWAP1 PUSH1 0x40 MSTORE SWAP1 POP JUMPDEST PUSH1 0x0 DUP6 PUSH2 0x408D JUMPI PUSH2 0x4069 DUP8 PUSH2 0x480B JUMP JUMPDEST PUSH1 0x40 MLOAD PUSH1 0x20 ADD PUSH2 0x4079 SWAP2 SWAP1 PUSH2 0x5A15 JUMP JUMPDEST PUSH1 0x40 MLOAD PUSH1 0x20 DUP2 DUP4 SUB SUB DUP2 MSTORE SWAP1 PUSH1 0x40 MSTORE PUSH2 0x40A7 JUMP JUMPDEST PUSH1 0x40 MLOAD DUP1 PUSH1 0x60 ADD PUSH1 0x40 MSTORE DUP1 PUSH1 0x28 DUP2 MSTORE PUSH1 0x20 ADD PUSH2 0x5D2C PUSH1 0x28 SWAP2 CODECOPY JUMPDEST SWAP1 POP DUP9 DUP4 DUP7 DUP4 DUP6 PUSH1 0x40 MLOAD PUSH1 0x20 ADD PUSH2 0x40C2 SWAP6 SWAP5 SWAP4 SWAP3 SWAP2 SWAP1 PUSH2 0x5AA9 JUMP JUMPDEST PUSH1 0x40 MLOAD PUSH1 0x20 DUP2 DUP4 SUB SUB DUP2 MSTORE SWAP1 PUSH1 0x40 MSTORE SWAP10 POP POP POP POP POP POP POP POP POP POP SWAP2 SWAP1 POP JUMP JUMPDEST PUSH1 0x60 DUP2 MLOAD PUSH1 0x0 SUB PUSH2 0x4100 JUMPI POP POP PUSH1 0x40 DUP1 MLOAD PUSH1 0x20 DUP2 ADD SWAP1 SWAP2 MSTORE PUSH1 0x0 DUP2 MSTORE SWAP1 JUMP JUMPDEST PUSH1 0x0 PUSH1 0x40 MLOAD DUP1 PUSH1 0x60 ADD PUSH1 0x40 MSTORE DUP1 PUSH1 0x40 DUP2 MSTORE PUSH1 0x20 ADD PUSH2 0x5D74 PUSH1 0x40 SWAP2 CODECOPY SWAP1 POP PUSH1 0x0 PUSH1 0x3 DUP5 MLOAD PUSH1 0x2 PUSH2 0x412F SWAP2 SWAP1 PUSH2 0x52D4 JUMP JUMPDEST PUSH2 0x4139 SWAP2 SWAP1 PUSH2 0x5838 JUMP JUMPDEST PUSH2 0x4144 SWAP1 PUSH1 0x4 PUSH2 0x5821 JUMP JUMPDEST PUSH1 0x1 PUSH1 0x1 PUSH1 0x40 SHL SUB DUP2 GT ISZERO PUSH2 0x415B JUMPI PUSH2 0x415B PUSH2 0x4EB2 JUMP JUMPDEST PUSH1 0x40 MLOAD SWAP1 DUP1 DUP3 MSTORE DUP1 PUSH1 0x1F ADD PUSH1 0x1F NOT AND PUSH1 0x20 ADD DUP3 ADD PUSH1 0x40 MSTORE DUP1 ISZERO PUSH2 0x4185 JUMPI PUSH1 0x20 DUP3 ADD DUP2 DUP1 CALLDATASIZE DUP4 CALLDATACOPY ADD SWAP1 POP JUMPDEST POP SWAP1 POP PUSH1 0x1 DUP3 ADD PUSH1 0x20 DUP3 ADD DUP6 DUP7 MLOAD DUP8 ADD PUSH1 0x20 DUP2 ADD DUP1 MLOAD PUSH1 0x0 DUP3 MSTORE JUMPDEST DUP3 DUP5 LT ISZERO PUSH2 0x41FB JUMPI PUSH1 0x3 DUP5 ADD SWAP4 POP DUP4 MLOAD PUSH1 0x3F DUP2 PUSH1 0x12 SHR AND DUP8 ADD MLOAD DUP7 MSTORE8 PUSH1 0x1 DUP7 ADD SWAP6 POP PUSH1 0x3F DUP2 PUSH1 0xC SHR AND DUP8 ADD MLOAD DUP7 MSTORE8 PUSH1 0x1 DUP7 ADD SWAP6 POP PUSH1 0x3F DUP2 PUSH1 0x6 SHR AND DUP8 ADD MLOAD DUP7 MSTORE8 PUSH1 0x1 DUP7 ADD SWAP6 POP PUSH1 0x3F DUP2 AND DUP8 ADD MLOAD DUP7 MSTORE8 POP PUSH1 0x1 DUP6 ADD SWAP5 POP PUSH2 0x41A0 JUMP JUMPDEST SWAP1 MSTORE POP POP DUP6 MLOAD PUSH1 0x3 SWAP1 MOD PUSH1 0x1 DUP2 EQ PUSH2 0x421A JUMPI PUSH1 0x2 DUP2 EQ PUSH2 0x422D JUMPI PUSH2 0x4235 JUMP JUMPDEST PUSH1 0x3D PUSH1 0x1 DUP4 SUB MSTORE8 PUSH1 0x3D PUSH1 0x2 DUP4 SUB MSTORE8 PUSH2 0x4235 JUMP JUMPDEST PUSH1 0x3D PUSH1 0x1 DUP4 SUB MSTORE8 JUMPDEST POP SWAP2 SWAP6 SWAP5 POP POP POP POP POP JUMP JUMPDEST DUP1 DUP1 PUSH2 0x4254 JUMPI POP PUSH1 0x1 PUSH1 0x1 PUSH1 0xA0 SHL SUB DUP3 AND ISZERO ISZERO JUMPDEST ISZERO PUSH2 0x4316 JUMPI PUSH1 0x0 PUSH2 0x4264 DUP5 PUSH2 0x3116 JUMP JUMPDEST SWAP1 POP PUSH1 0x1 PUSH1 0x1 PUSH1 0xA0 SHL SUB DUP4 AND ISZERO DUP1 ISZERO SWAP1 PUSH2 0x4290 JUMPI POP DUP3 PUSH1 0x1 PUSH1 0x1 PUSH1 0xA0 SHL SUB AND DUP2 PUSH1 0x1 PUSH1 0x1 PUSH1 0xA0 SHL SUB AND EQ ISZERO JUMPDEST DUP1 ISZERO PUSH2 0x42A3 JUMPI POP PUSH2 0x42A1 DUP2 DUP5 PUSH2 0x2CB3 JUMP JUMPDEST ISZERO JUMPDEST ISZERO PUSH2 0x42CC JUMPI PUSH1 0x40 MLOAD PUSH4 0xA9FBF51F PUSH1 0xE0 SHL DUP2 MSTORE PUSH1 0x1 PUSH1 0x1 PUSH1 0xA0 SHL SUB DUP5 AND PUSH1 0x4 DUP3 ADD MSTORE PUSH1 0x24 ADD PUSH2 0x1309 JUMP JUMPDEST DUP2 ISZERO PUSH2 0x4314 JUMPI DUP4 DUP6 PUSH1 0x1 PUSH1 0x1 PUSH1 0xA0 SHL SUB AND DUP3 PUSH1 0x1 PUSH1 0x1 PUSH1 0xA0 SHL SUB AND PUSH32 0x8C5BE1E5EBEC7D5BD14F71427D1E84F3DD0314C0F7B2291E5B200AC8C7C3B925 PUSH1 0x40 MLOAD PUSH1 0x40 MLOAD DUP1 SWAP2 SUB SWAP1 LOG4 JUMPDEST POP JUMPDEST POP POP PUSH1 0x0 SWAP1 DUP2 MSTORE PUSH1 0x4 PUSH1 0x20 MSTORE PUSH1 0x40 SWAP1 KECCAK256 DUP1 SLOAD PUSH1 0x1 PUSH1 0x1 PUSH1 0xA0 SHL SUB NOT AND PUSH1 0x1 PUSH1 0x1 PUSH1 0xA0 SHL SUB SWAP3 SWAP1 SWAP3 AND SWAP2 SWAP1 SWAP2 OR SWAP1 SSTORE JUMP JUMPDEST PUSH2 0x1147 DUP3 DUP3 PUSH1 0x40 MLOAD DUP1 PUSH1 0x20 ADD PUSH1 0x40 MSTORE DUP1 PUSH1 0x0 DUP2 MSTORE POP PUSH2 0x489D JUMP JUMPDEST PUSH1 0x0 DUP1 PUSH2 0x436E DUP6 DUP6 DUP6 PUSH2 0x48B4 JUMP JUMPDEST SWAP1 POP DUP4 PUSH1 0x1 PUSH1 0x1 PUSH1 0xA0 SHL SUB DUP7 AND ISZERO PUSH2 0x4403 JUMPI PUSH1 0x40 MLOAD PUSH4 0x5B0FC9C3 PUSH1 0xE0 SHL DUP2 MSTORE PUSH1 0x4 DUP2 ADD DUP3 SWAP1 MSTORE PUSH1 0x1 PUSH1 0x1 PUSH1 0xA0 SHL SUB DUP8 DUP2 AND PUSH1 0x24 DUP4 ADD MSTORE PUSH32 0x0 AND SWAP1 PUSH4 0x5B0FC9C3 SWAP1 PUSH1 0x44 ADD PUSH1 0x0 PUSH1 0x40 MLOAD DUP1 DUP4 SUB DUP2 PUSH1 0x0 DUP8 DUP1 EXTCODESIZE ISZERO DUP1 ISZERO PUSH2 0x43EA JUMPI PUSH1 0x0 DUP1 REVERT JUMPDEST POP GAS CALL ISZERO DUP1 ISZERO PUSH2 0x43FE JUMPI RETURNDATASIZE PUSH1 0x0 DUP1 RETURNDATACOPY RETURNDATASIZE PUSH1 0x0 REVERT JUMPDEST POP POP POP POP JUMPDEST POP SWAP5 SWAP4 POP POP POP POP JUMP JUMPDEST PUSH1 0x40 DUP1 MLOAD PUSH1 0x2 DUP1 DUP3 MSTORE PUSH1 0x60 DUP3 ADD DUP4 MSTORE PUSH1 0x0 SWAP3 PUSH1 0x20 DUP4 ADD SWAP1 DUP1 CALLDATASIZE DUP4 CALLDATACOPY ADD SWAP1 POP POP SWAP1 POP PUSH32 0x0 DUP2 PUSH1 0x0 DUP2 MLOAD DUP2 LT PUSH2 0x4461 JUMPI PUSH2 0x4461 PUSH2 0x5959 JUMP JUMPDEST PUSH1 0x1 PUSH1 0x1 PUSH1 0xA0 SHL SUB SWAP3 DUP4 AND PUSH1 0x20 SWAP2 DUP3 MUL SWAP3 SWAP1 SWAP3 ADD ADD MSTORE PUSH1 0x15 SLOAD DUP3 MLOAD SWAP2 AND SWAP1 DUP3 SWAP1 PUSH1 0x1 SWAP1 DUP2 LT PUSH2 0x4492 JUMPI PUSH2 0x4492 PUSH2 0x5959 JUMP JUMPDEST PUSH1 0x1 PUSH1 0x1 PUSH1 0xA0 SHL SUB SWAP3 DUP4 AND PUSH1 0x20 SWAP2 DUP3 MUL SWAP3 SWAP1 SWAP3 ADD ADD MSTORE PUSH1 0x15 SLOAD PUSH1 0x40 MLOAD PUSH4 0x70A08231 PUSH1 0xE0 SHL DUP2 MSTORE ADDRESS PUSH1 0x4 DUP3 ADD MSTORE PUSH1 0x0 SWAP3 SWAP2 SWAP1 SWAP2 AND SWAP1 PUSH4 0x70A08231 SWAP1 PUSH1 0x24 ADD PUSH1 0x20 PUSH1 0x40 MLOAD DUP1 DUP4 SUB DUP2 DUP7 GAS STATICCALL ISZERO DUP1 ISZERO PUSH2 0x44EC JUMPI RETURNDATASIZE PUSH1 0x0 DUP1 RETURNDATACOPY RETURNDATASIZE PUSH1 0x0 REVERT JUMPDEST POP POP POP POP PUSH1 0x40 MLOAD RETURNDATASIZE PUSH1 0x1F NOT PUSH1 0x1F DUP3 ADD AND DUP3 ADD DUP1 PUSH1 0x40 MSTORE POP DUP2 ADD SWAP1 PUSH2 0x4510 SWAP2 SWAP1 PUSH2 0x585A JUMP JUMPDEST SWAP1 POP PUSH1 0x1 PUSH1 0x1 PUSH1 0xA0 SHL SUB PUSH32 0x0 AND PUSH4 0x7FF36AB5 DUP5 PUSH1 0x0 DUP6 ADDRESS PUSH2 0x4552 TIMESTAMP PUSH2 0x12C PUSH2 0x52D4 JUMP JUMPDEST PUSH1 0x40 MLOAD DUP7 PUSH4 0xFFFFFFFF AND PUSH1 0xE0 SHL DUP2 MSTORE PUSH1 0x4 ADD PUSH2 0x4571 SWAP5 SWAP4 SWAP3 SWAP2 SWAP1 PUSH2 0x5BCE JUMP JUMPDEST PUSH1 0x0 PUSH1 0x40 MLOAD DUP1 DUP4 SUB DUP2 DUP6 DUP9 GAS CALL SWAP4 POP POP POP POP DUP1 ISZERO PUSH2 0x45B1 JUMPI POP PUSH1 0x40 MLOAD RETURNDATASIZE PUSH1 0x0 DUP3 RETURNDATACOPY PUSH1 0x1F RETURNDATASIZE SWAP1 DUP2 ADD PUSH1 0x1F NOT AND DUP3 ADD PUSH1 0x40 MSTORE PUSH2 0x45AE SWAP2 SWAP1 DUP2 ADD SWAP1 PUSH2 0x5C38 JUMP JUMPDEST PUSH1 0x1 JUMPDEST PUSH2 0x45C7 JUMPI DUP3 PUSH1 0x25 PUSH1 0x0 DUP3 DUP3 SLOAD PUSH2 0x3686 SWAP2 SWAP1 PUSH2 0x52D4 JUMP JUMPDEST POP PUSH1 0x15 SLOAD PUSH1 0x40 MLOAD PUSH4 0x70A08231 PUSH1 0xE0 SHL DUP2 MSTORE ADDRESS PUSH1 0x4 DUP3 ADD MSTORE PUSH1 0x0 SWAP2 DUP4 SWAP2 PUSH1 0x1 PUSH1 0x1 PUSH1 0xA0 SHL SUB SWAP1 SWAP2 AND SWAP1 PUSH4 0x70A08231 SWAP1 PUSH1 0x24 ADD PUSH1 0x20 PUSH1 0x40 MLOAD DUP1 DUP4 SUB DUP2 DUP7 GAS STATICCALL ISZERO DUP1 ISZERO PUSH2 0x4615 JUMPI RETURNDATASIZE PUSH1 0x0 DUP1 RETURNDATACOPY RETURNDATASIZE PUSH1 0x0 REVERT JUMPDEST POP POP POP POP PUSH1 0x40 MLOAD RETURNDATASIZE PUSH1 0x1F NOT PUSH1 0x1F DUP3 ADD AND DUP3 ADD DUP1 PUSH1 0x40 MSTORE POP DUP2 ADD SWAP1 PUSH2 0x4639 SWAP2 SWAP1 PUSH2 0x585A JUMP JUMPDEST PUSH2 0x4643 SWAP2 SWAP1 PUSH2 0x52E7 JUMP JUMPDEST SWAP1 POP DUP1 ISZERO PUSH2 0x1D95 JUMPI PUSH1 0x15 SLOAD PUSH1 0x40 MLOAD PUSH4 0x852CD8D PUSH1 0xE3 SHL DUP2 MSTORE PUSH1 0x4 DUP2 ADD DUP4 SWAP1 MSTORE PUSH1 0x1 PUSH1 0x1 PUSH1 0xA0 SHL SUB SWAP1 SWAP2 AND SWAP1 PUSH4 0x42966C68 SWAP1 PUSH1 0x24 ADD PUSH1 0x0 PUSH1 0x40 MLOAD DUP1 DUP4 SUB DUP2 PUSH1 0x0 DUP8 DUP1 EXTCODESIZE ISZERO DUP1 ISZERO PUSH2 0x4691 JUMPI PUSH1 0x0 DUP1 REVERT JUMPDEST POP GAS CALL ISZERO DUP1 ISZERO PUSH2 0x46A5 JUMPI RETURNDATASIZE PUSH1 0x0 DUP1 RETURNDATACOPY RETURNDATASIZE PUSH1 0x0 REVERT JUMPDEST POP POP PUSH1 0x40 DUP1 MLOAD DUP8 DUP2 MSTORE PUSH1 0x20 DUP2 ADD DUP6 SWAP1 MSTORE PUSH32 0xE57DB353D74387B493F22061E74785188560F4BE86DCD76570580ADBF41203AA SWAP4 POP ADD SWAP1 POP PUSH1 0x40 MLOAD DUP1 SWAP2 SUB SWAP1 LOG1 POP POP POP POP JUMP JUMPDEST PUSH1 0x1 PUSH1 0x1 PUSH1 0xA0 SHL SUB DUP4 AND EXTCODESIZE ISZERO PUSH2 0x1D95 JUMPI PUSH1 0x40 MLOAD PUSH4 0xA85BD01 PUSH1 0xE1 SHL DUP2 MSTORE PUSH1 0x1 PUSH1 0x1 PUSH1 0xA0 SHL SUB DUP5 AND SWAP1 PUSH4 0x150B7A02 SWAP1 PUSH2 0x472B SWAP1 CALLER SWAP1 DUP9 SWAP1 DUP8 SWAP1 DUP8 SWAP1 PUSH1 0x4 ADD PUSH2 0x5CD1 JUMP JUMPDEST PUSH1 0x20 PUSH1 0x40 MLOAD DUP1 DUP4 SUB DUP2 PUSH1 0x0 DUP8 GAS CALL SWAP3 POP POP POP DUP1 ISZERO PUSH2 0x4766 JUMPI POP PUSH1 0x40 DUP1 MLOAD PUSH1 0x1F RETURNDATASIZE SWAP1 DUP2 ADD PUSH1 0x1F NOT AND DUP3 ADD SWAP1 SWAP3 MSTORE PUSH2 0x4763 SWAP2 DUP2 ADD SWAP1 PUSH2 0x5D0E JUMP JUMPDEST PUSH1 0x1 JUMPDEST PUSH2 0x47CF JUMPI RETURNDATASIZE DUP1 DUP1 ISZERO PUSH2 0x4794 JUMPI PUSH1 0x40 MLOAD SWAP2 POP PUSH1 0x1F NOT PUSH1 0x3F RETURNDATASIZE ADD AND DUP3 ADD PUSH1 0x40 MSTORE RETURNDATASIZE DUP3 MSTORE RETURNDATASIZE PUSH1 0x0 PUSH1 0x20 DUP5 ADD RETURNDATACOPY PUSH2 0x4799 JUMP JUMPDEST PUSH1 0x60 SWAP2 POP JUMPDEST POP DUP1 MLOAD PUSH1 0x0 SUB PUSH2 0x47C7 JUMPI PUSH1 0x40 MLOAD PUSH4 0x32505749 PUSH1 0xE1 SHL DUP2 MSTORE PUSH1 0x1 PUSH1 0x1 PUSH1 0xA0 SHL SUB DUP6 AND PUSH1 0x4 DUP3 ADD MSTORE PUSH1 0x24 ADD PUSH2 0x1309 JUMP JUMPDEST DUP1 MLOAD DUP2 PUSH1 0x20 ADD REVERT JUMPDEST PUSH1 0x1 PUSH1 0x1 PUSH1 0xE0 SHL SUB NOT DUP2 AND PUSH4 0xA85BD01 PUSH1 0xE1 SHL EQ PUSH2 0x2A12 JUMPI PUSH1 0x40 MLOAD PUSH4 0x32505749 PUSH1 0xE1 SHL DUP2 MSTORE PUSH1 0x1 PUSH1 0x1 PUSH1 0xA0 SHL SUB DUP6 AND PUSH1 0x4 DUP3 ADD MSTORE PUSH1 0x24 ADD PUSH2 0x1309 JUMP JUMPDEST PUSH1 0x60 PUSH1 0x0 PUSH2 0x4818 DUP4 PUSH2 0x49A8 JUMP JUMPDEST PUSH1 0x1 ADD SWAP1 POP PUSH1 0x0 DUP2 PUSH1 0x1 PUSH1 0x1 PUSH1 0x40 SHL SUB DUP2 GT ISZERO PUSH2 0x4837 JUMPI PUSH2 0x4837 PUSH2 0x4EB2 JUMP JUMPDEST PUSH1 0x40 MLOAD SWAP1 DUP1 DUP3 MSTORE DUP1 PUSH1 0x1F ADD PUSH1 0x1F NOT AND PUSH1 0x20 ADD DUP3 ADD PUSH1 0x40 MSTORE DUP1 ISZERO PUSH2 0x4861 JUMPI PUSH1 0x20 DUP3 ADD DUP2 DUP1 CALLDATASIZE DUP4 CALLDATACOPY ADD SWAP1 POP JUMPDEST POP SWAP1 POP DUP2 DUP2 ADD PUSH1 0x20 ADD JUMPDEST PUSH1 0x0 NOT ADD PUSH16 0x181899199A1A9B1B9C1CB0B131B232B3 PUSH1 0x81 SHL PUSH1 0xA DUP7 MOD BYTE DUP2 MSTORE8 PUSH1 0xA DUP6 DIV SWAP5 POP DUP5 PUSH2 0x486B JUMPI POP SWAP4 SWAP3 POP POP POP JUMP JUMPDEST PUSH2 0x48A7 DUP4 DUP4 PUSH2 0x4A80 JUMP JUMPDEST PUSH2 0x146C PUSH1 0x0 DUP5 DUP5 DUP5 PUSH2 0x46E9 JUMP JUMPDEST PUSH1 0x0 DUP1 PUSH2 0x48C0 DUP5 PUSH2 0x35F1 JUMP JUMPDEST SWAP1 POP PUSH1 0x1 PUSH1 0x1 PUSH1 0xA0 SHL SUB DUP4 AND ISZERO PUSH2 0x48DC JUMPI PUSH2 0x48DC DUP2 DUP5 DUP7 PUSH2 0x4AE5 JUMP JUMPDEST PUSH1 0x1 PUSH1 0x1 PUSH1 0xA0 SHL SUB DUP2 AND ISZERO PUSH2 0x491A JUMPI PUSH2 0x48F9 PUSH1 0x0 DUP6 PUSH1 0x0 DUP1 PUSH2 0x4240 JUMP JUMPDEST PUSH1 0x1 PUSH1 0x1 PUSH1 0xA0 SHL SUB DUP2 AND PUSH1 0x0 SWAP1 DUP2 MSTORE PUSH1 0x3 PUSH1 0x20 MSTORE PUSH1 0x40 SWAP1 KECCAK256 DUP1 SLOAD PUSH1 0x0 NOT ADD SWAP1 SSTORE JUMPDEST PUSH1 0x1 PUSH1 0x1 PUSH1 0xA0 SHL SUB DUP6 AND ISZERO PUSH2 0x4949 JUMPI PUSH1 0x1 PUSH1 0x1 PUSH1 0xA0 SHL SUB DUP6 AND PUSH1 0x0 SWAP1 DUP2 MSTORE PUSH1 0x3 PUSH1 0x20 MSTORE PUSH1 0x40 SWAP1 KECCAK256 DUP1 SLOAD PUSH1 0x1 ADD SWAP1 SSTORE JUMPDEST PUSH1 0x0 DUP5 DUP2 MSTORE PUSH1 0x2 PUSH1 0x20 MSTORE PUSH1 0x40 DUP1 DUP3 KECCAK256 DUP1 SLOAD PUSH1 0x1 PUSH1 0x1 PUSH1 0xA0 SHL SUB NOT AND PUSH1 0x1 PUSH1 0x1 PUSH1 0xA0 SHL SUB DUP10 DUP2 AND SWAP2 DUP3 OR SWAP1 SWAP3 SSTORE SWAP2 MLOAD DUP8 SWAP4 SWAP2 DUP6 AND SWAP2 PUSH32 0xDDF252AD1BE2C89B69C2B068FC378DAA952BA7F163C4A11628F55A4DF523B3EF SWAP2 LOG4 SWAP5 SWAP4 POP POP POP POP JUMP JUMPDEST PUSH1 0x0 DUP1 PUSH19 0x184F03E93FF9F4DAA797ED6E38ED64BF6A1F01 PUSH1 0x40 SHL DUP4 LT PUSH2 0x49E7 JUMPI PUSH19 0x184F03E93FF9F4DAA797ED6E38ED64BF6A1F01 PUSH1 0x40 SHL DUP4 DIV SWAP3 POP PUSH1 0x40 ADD JUMPDEST PUSH14 0x4EE2D6D415B85ACEF8100000000 DUP4 LT PUSH2 0x4A13 JUMPI PUSH14 0x4EE2D6D415B85ACEF8100000000 DUP4 DIV SWAP3 POP PUSH1 0x20 ADD JUMPDEST PUSH7 0x2386F26FC10000 DUP4 LT PUSH2 0x4A31 JUMPI PUSH7 0x2386F26FC10000 DUP4 DIV SWAP3 POP PUSH1 0x10 ADD JUMPDEST PUSH4 0x5F5E100 DUP4 LT PUSH2 0x4A49 JUMPI PUSH4 0x5F5E100 DUP4 DIV SWAP3 POP PUSH1 0x8 ADD JUMPDEST PUSH2 0x2710 DUP4 LT PUSH2 0x4A5D JUMPI PUSH2 0x2710 DUP4 DIV SWAP3 POP PUSH1 0x4 ADD JUMPDEST PUSH1 0x64 DUP4 LT PUSH2 0x4A6F JUMPI PUSH1 0x64 DUP4 DIV SWAP3 POP PUSH1 0x2 ADD JUMPDEST PUSH1 0xA DUP4 LT PUSH2 0x105B JUMPI PUSH1 0x1 ADD SWAP3 SWAP2 POP POP JUMP JUMPDEST PUSH1 0x1 PUSH1 0x1 PUSH1 0xA0 SHL SUB DUP3 AND PUSH2 0x4AAA JUMPI PUSH1 0x40 MLOAD PUSH4 0x32505749 PUSH1 0xE1 SHL DUP2 MSTORE PUSH1 0x0 PUSH1 0x4 DUP3 ADD MSTORE PUSH1 0x24 ADD PUSH2 0x1309 JUMP JUMPDEST PUSH1 0x0 PUSH2 0x4AB8 DUP4 DUP4 PUSH1 0x0 PUSH2 0x4360 JUMP JUMPDEST SWAP1 POP PUSH1 0x1 PUSH1 0x1 PUSH1 0xA0 SHL SUB DUP2 AND ISZERO PUSH2 0x146C JUMPI PUSH1 0x40 MLOAD PUSH4 0x39E35637 PUSH1 0xE1 SHL DUP2 MSTORE PUSH1 0x0 PUSH1 0x4 DUP3 ADD MSTORE PUSH1 0x24 ADD PUSH2 0x1309 JUMP JUMPDEST PUSH2 0x4AF0 DUP4 DUP4 DUP4 PUSH2 0x4B49 JUMP JUMPDEST PUSH2 0x146C JUMPI PUSH1 0x1 PUSH1 0x1 PUSH1 0xA0 SHL SUB DUP4 AND PUSH2 0x4B1E JUMPI PUSH1 0x40 MLOAD PUSH4 0x7E273289 PUSH1 0xE0 SHL DUP2 MSTORE PUSH1 0x4 DUP2 ADD DUP3 SWAP1 MSTORE PUSH1 0x24 ADD PUSH2 0x1309 JUMP JUMPDEST PUSH1 0x40 MLOAD PUSH4 0x177E802F PUSH1 0xE0 SHL DUP2 MSTORE PUSH1 0x1 PUSH1 0x1 PUSH1 0xA0 SHL SUB DUP4 AND PUSH1 0x4 DUP3 ADD MSTORE PUSH1 0x24 DUP2 ADD DUP3 SWAP1 MSTORE PUSH1 0x44 ADD PUSH2 0x1309 JUMP JUMPDEST PUSH1 0x0 PUSH1 0x1 PUSH1 0x1 PUSH1 0xA0 SHL SUB DUP4 AND ISZERO DUP1 ISZERO SWAP1 PUSH2 0x1C13 JUMPI POP DUP3 PUSH1 0x1 PUSH1 0x1 PUSH1 0xA0 SHL SUB AND DUP5 PUSH1 0x1 PUSH1 0x1 PUSH1 0xA0 SHL SUB AND EQ DUP1 PUSH2 0x4B83 JUMPI POP PUSH2 0x4B83 DUP5 DUP5 PUSH2 0x2CB3 JUMP JUMPDEST DUP1 PUSH2 0x1C13 JUMPI POP POP PUSH1 0x0 SWAP1 DUP2 MSTORE PUSH1 0x4 PUSH1 0x20 MSTORE PUSH1 0x40 SWAP1 KECCAK256 SLOAD PUSH1 0x1 PUSH1 0x1 PUSH1 0xA0 SHL SUB SWAP1 DUP2 AND SWAP2 AND EQ SWAP2 SWAP1 POP JUMP JUMPDEST PUSH1 0x1 PUSH1 0x1 PUSH1 0xE0 SHL SUB NOT DUP2 AND DUP2 EQ PUSH2 0x4BC2 JUMPI PUSH1 0x0 DUP1 REVERT JUMPDEST POP JUMP JUMPDEST PUSH1 0x0 PUSH1 0x20 DUP3 DUP5 SUB SLT ISZERO PUSH2 0x4BD7 JUMPI PUSH1 0x0 DUP1 REVERT JUMPDEST DUP2 CALLDATALOAD PUSH2 0x3509 DUP2 PUSH2 0x4BAC JUMP JUMPDEST PUSH1 0x0 JUMPDEST DUP4 DUP2 LT ISZERO PUSH2 0x4BFD JUMPI DUP2 DUP2 ADD MLOAD DUP4 DUP3 ADD MSTORE PUSH1 0x20 ADD PUSH2 0x4BE5 JUMP JUMPDEST POP POP PUSH1 0x0 SWAP2 ADD MSTORE JUMP JUMPDEST PUSH1 0x0 DUP2 MLOAD DUP1 DUP5 MSTORE PUSH2 0x4C1E DUP2 PUSH1 0x20 DUP7 ADD PUSH1 0x20 DUP7 ADD PUSH2 0x4BE2 JUMP JUMPDEST PUSH1 0x1F ADD PUSH1 0x1F NOT AND SWAP3 SWAP1 SWAP3 ADD PUSH1 0x20 ADD SWAP3 SWAP2 POP POP JUMP JUMPDEST PUSH1 0x20 DUP2 MSTORE PUSH1 0x0 PUSH2 0x3509 PUSH1 0x20 DUP4 ADD DUP5 PUSH2 0x4C06 JUMP JUMPDEST PUSH1 0x0 PUSH1 0x20 DUP3 DUP5 SUB SLT ISZERO PUSH2 0x4C57 JUMPI PUSH1 0x0 DUP1 REVERT JUMPDEST POP CALLDATALOAD SWAP2 SWAP1 POP JUMP JUMPDEST PUSH1 0x1 PUSH1 0x1 PUSH1 0xA0 SHL SUB DUP2 AND DUP2 EQ PUSH2 0x4BC2 JUMPI PUSH1 0x0 DUP1 REVERT JUMPDEST PUSH1 0x0 DUP1 PUSH1 0x40 DUP4 DUP6 SUB SLT ISZERO PUSH2 0x4C86 JUMPI PUSH1 0x0 DUP1 REVERT JUMPDEST DUP3 CALLDATALOAD PUSH2 0x4C91 DUP2 PUSH2 0x4C5E JUMP JUMPDEST SWAP5 PUSH1 0x20 SWAP4 SWAP1 SWAP4 ADD CALLDATALOAD SWAP4 POP POP POP JUMP JUMPDEST PUSH1 0x0 DUP1 PUSH1 0x40 DUP4 DUP6 SUB SLT ISZERO PUSH2 0x4CB2 JUMPI PUSH1 0x0 DUP1 REVERT JUMPDEST DUP3 CALLDATALOAD SWAP2 POP PUSH1 0x20 DUP4 ADD CALLDATALOAD PUSH2 0x4CC4 DUP2 PUSH2 0x4C5E JUMP JUMPDEST DUP1 SWAP2 POP POP SWAP3 POP SWAP3 SWAP1 POP JUMP JUMPDEST PUSH1 0x0 DUP1 DUP4 PUSH1 0x1F DUP5 ADD SLT PUSH2 0x4CE1 JUMPI PUSH1 0x0 DUP1 REVERT JUMPDEST POP DUP2 CALLDATALOAD PUSH1 0x1 PUSH1 0x1 PUSH1 0x40 SHL SUB DUP2 GT ISZERO PUSH2 0x4CF8 JUMPI PUSH1 0x0 DUP1 REVERT JUMPDEST PUSH1 0x20 DUP4 ADD SWAP2 POP DUP4 PUSH1 0x20 DUP3 DUP6 ADD ADD GT ISZERO PUSH2 0x4D10 JUMPI PUSH1 0x0 DUP1 REVERT JUMPDEST SWAP3 POP SWAP3 SWAP1 POP JUMP JUMPDEST PUSH1 0x0 DUP1 PUSH1 0x20 DUP4 DUP6 SUB SLT ISZERO PUSH2 0x4D2A JUMPI PUSH1 0x0 DUP1 REVERT JUMPDEST DUP3 CALLDATALOAD PUSH1 0x1 PUSH1 0x1 PUSH1 0x40 SHL SUB DUP2 GT ISZERO PUSH2 0x4D40 JUMPI PUSH1 0x0 DUP1 REVERT JUMPDEST PUSH2 0x4D4C DUP6 DUP3 DUP7 ADD PUSH2 0x4CCF JUMP JUMPDEST SWAP1 SWAP7 SWAP1 SWAP6 POP SWAP4 POP POP POP POP JUMP JUMPDEST PUSH1 0x0 PUSH1 0x20 DUP3 DUP5 SUB SLT ISZERO PUSH2 0x4D6A JUMPI PUSH1 0x0 DUP1 REVERT JUMPDEST DUP2 CALLDATALOAD PUSH2 0x3509 DUP2 PUSH2 0x4C5E JUMP JUMPDEST PUSH1 0x0 DUP1 PUSH1 0x0 PUSH1 0x60 DUP5 DUP7 SUB SLT ISZERO PUSH2 0x4D8A JUMPI PUSH1 0x0 DUP1 REVERT JUMPDEST DUP4 CALLDATALOAD PUSH2 0x4D95 DUP2 PUSH2 0x4C5E JUMP JUMPDEST SWAP3 POP PUSH1 0x20 DUP5 ADD CALLDATALOAD PUSH2 0x4DA5 DUP2 PUSH2 0x4C5E JUMP JUMPDEST SWAP3 SWAP6 SWAP3 SWAP5 POP POP POP PUSH1 0x40 SWAP2 SWAP1 SWAP2 ADD CALLDATALOAD SWAP1 JUMP JUMPDEST PUSH1 0x0 DUP1 PUSH1 0x40 DUP4 DUP6 SUB SLT ISZERO PUSH2 0x4DC9 JUMPI PUSH1 0x0 DUP1 REVERT JUMPDEST POP POP DUP1 CALLDATALOAD SWAP3 PUSH1 0x20 SWAP1 SWAP2 ADD CALLDATALOAD SWAP2 POP JUMP JUMPDEST DUP1 CALLDATALOAD DUP1 ISZERO ISZERO DUP2 EQ PUSH2 0x4DE8 JUMPI PUSH1 0x0 DUP1 REVERT JUMPDEST SWAP2 SWAP1 POP JUMP JUMPDEST PUSH1 0x0 DUP1 PUSH1 0x0 DUP1 PUSH1 0x0 DUP1 PUSH1 0x80 DUP8 DUP10 SUB SLT ISZERO PUSH2 0x4E06 JUMPI PUSH1 0x0 DUP1 REVERT JUMPDEST DUP7 CALLDATALOAD PUSH1 0x1 PUSH1 0x1 PUSH1 0x40 SHL SUB DUP1 DUP3 GT ISZERO PUSH2 0x4E1D JUMPI PUSH1 0x0 DUP1 REVERT JUMPDEST PUSH2 0x4E29 DUP11 DUP4 DUP12 ADD PUSH2 0x4CCF JUMP JUMPDEST SWAP1 SWAP9 POP SWAP7 POP PUSH1 0x20 DUP10 ADD CALLDATALOAD SWAP2 POP DUP1 DUP3 GT ISZERO PUSH2 0x4E42 JUMPI PUSH1 0x0 DUP1 REVERT JUMPDEST POP PUSH2 0x4E4F DUP10 DUP3 DUP11 ADD PUSH2 0x4CCF JUMP JUMPDEST SWAP1 SWAP6 POP SWAP4 POP POP PUSH1 0x40 DUP8 ADD CALLDATALOAD PUSH2 0x4E63 DUP2 PUSH2 0x4C5E JUMP JUMPDEST SWAP2 POP PUSH2 0x4E71 PUSH1 0x60 DUP9 ADD PUSH2 0x4DD8 JUMP JUMPDEST SWAP1 POP SWAP3 SWAP6 POP SWAP3 SWAP6 POP SWAP3 SWAP6 JUMP JUMPDEST PUSH1 0x0 DUP1 PUSH1 0x40 DUP4 DUP6 SUB SLT ISZERO PUSH2 0x4E90 JUMPI PUSH1 0x0 DUP1 REVERT JUMPDEST DUP3 CALLDATALOAD PUSH2 0x4E9B DUP2 PUSH2 0x4C5E JUMP JUMPDEST SWAP2 POP PUSH2 0x4EA9 PUSH1 0x20 DUP5 ADD PUSH2 0x4DD8 JUMP JUMPDEST SWAP1 POP SWAP3 POP SWAP3 SWAP1 POP JUMP JUMPDEST PUSH4 0x4E487B71 PUSH1 0xE0 SHL PUSH1 0x0 MSTORE PUSH1 0x41 PUSH1 0x4 MSTORE PUSH1 0x24 PUSH1 0x0 REVERT JUMPDEST PUSH1 0x40 MLOAD PUSH1 0x1F DUP3 ADD PUSH1 0x1F NOT AND DUP2 ADD PUSH1 0x1 PUSH1 0x1 PUSH1 0x40 SHL SUB DUP2 GT DUP3 DUP3 LT OR ISZERO PUSH2 0x4EF0 JUMPI PUSH2 0x4EF0 PUSH2 0x4EB2 JUMP JUMPDEST PUSH1 0x40 MSTORE SWAP2 SWAP1 POP JUMP JUMPDEST PUSH1 0x0 DUP1 PUSH1 0x0 DUP1 PUSH1 0x80 DUP6 DUP8 SUB SLT ISZERO PUSH2 0x4F0E JUMPI PUSH1 0x0 DUP1 REVERT JUMPDEST DUP5 CALLDATALOAD PUSH2 0x4F19 DUP2 PUSH2 0x4C5E JUMP JUMPDEST SWAP4 POP PUSH1 0x20 DUP6 DUP2 ADD CALLDATALOAD PUSH2 0x4F2A DUP2 PUSH2 0x4C5E JUMP JUMPDEST SWAP4 POP PUSH1 0x40 DUP7 ADD CALLDATALOAD SWAP3 POP PUSH1 0x60 DUP7 ADD CALLDATALOAD PUSH1 0x1 PUSH1 0x1 PUSH1 0x40 SHL SUB DUP1 DUP3 GT ISZERO PUSH2 0x4F4D JUMPI PUSH1 0x0 DUP1 REVERT JUMPDEST DUP2 DUP9 ADD SWAP2 POP DUP9 PUSH1 0x1F DUP4 ADD SLT PUSH2 0x4F61 JUMPI PUSH1 0x0 DUP1 REVERT JUMPDEST DUP2 CALLDATALOAD DUP2 DUP2 GT ISZERO PUSH2 0x4F73 JUMPI PUSH2 0x4F73 PUSH2 0x4EB2 JUMP JUMPDEST PUSH2 0x4F85 PUSH1 0x1F DUP3 ADD PUSH1 0x1F NOT AND DUP6 ADD PUSH2 0x4EC8 JUMP JUMPDEST SWAP2 POP DUP1 DUP3 MSTORE DUP10 DUP5 DUP3 DUP6 ADD ADD GT ISZERO PUSH2 0x4F9B JUMPI PUSH1 0x0 DUP1 REVERT JUMPDEST DUP1 DUP5 DUP5 ADD DUP6 DUP5 ADD CALLDATACOPY PUSH1 0x0 DUP5 DUP3 DUP5 ADD ADD MSTORE POP DUP1 SWAP4 POP POP POP POP SWAP3 SWAP6 SWAP2 SWAP5 POP SWAP3 POP JUMP JUMPDEST PUSH1 0x0 DUP1 PUSH1 0x0 DUP1 PUSH1 0x40 DUP6 DUP8 SUB SLT ISZERO PUSH2 0x4FD1 JUMPI PUSH1 0x0 DUP1 REVERT JUMPDEST DUP5 CALLDATALOAD PUSH1 0x1 PUSH1 0x1 PUSH1 0x40 SHL SUB DUP1 DUP3 GT ISZERO PUSH2 0x4FE8 JUMPI PUSH1 0x0 DUP1 REVERT JUMPDEST PUSH2 0x4FF4 DUP9 DUP4 DUP10 ADD PUSH2 0x4CCF JUMP JUMPDEST SWAP1 SWAP7 POP SWAP5 POP PUSH1 0x20 DUP8 ADD CALLDATALOAD SWAP2 POP DUP1 DUP3 GT ISZERO PUSH2 0x500D JUMPI PUSH1 0x0 DUP1 REVERT JUMPDEST POP PUSH2 0x501A DUP8 DUP3 DUP9 ADD PUSH2 0x4CCF JUMP JUMPDEST SWAP6 SWAP9 SWAP5 SWAP8 POP SWAP6 POP POP POP POP JUMP JUMPDEST PUSH1 0x0 DUP1 PUSH1 0x0 PUSH1 0x40 DUP5 DUP7 SUB SLT ISZERO PUSH2 0x503B JUMPI PUSH1 0x0 DUP1 REVERT JUMPDEST DUP4 CALLDATALOAD PUSH1 0x1 PUSH1 0x1 PUSH1 0x40 SHL SUB DUP2 GT ISZERO PUSH2 0x5051 JUMPI PUSH1 0x0 DUP1 REVERT JUMPDEST PUSH2 0x505D DUP7 DUP3 DUP8 ADD PUSH2 0x4CCF JUMP JUMPDEST SWAP1 SWAP5 POP SWAP3 POP PUSH2 0x5070 SWAP1 POP PUSH1 0x20 DUP6 ADD PUSH2 0x4DD8 JUMP JUMPDEST SWAP1 POP SWAP3 POP SWAP3 POP SWAP3 JUMP JUMPDEST PUSH1 0x0 DUP1 PUSH1 0x0 DUP1 PUSH1 0x60 DUP6 DUP8 SUB SLT ISZERO PUSH2 0x508F JUMPI PUSH1 0x0 DUP1 REVERT JUMPDEST DUP5 CALLDATALOAD PUSH1 0x1 PUSH1 0x1 PUSH1 0x40 SHL SUB DUP2 GT ISZERO PUSH2 0x50A5 JUMPI PUSH1 0x0 DUP1 REVERT JUMPDEST PUSH2 0x50B1 DUP8 DUP3 DUP9 ADD PUSH2 0x4CCF JUMP JUMPDEST SWAP1 SWAP6 POP SWAP4 POP POP PUSH1 0x20 DUP6 ADD CALLDATALOAD PUSH2 0x50C5 DUP2 PUSH2 0x4C5E JUMP JUMPDEST SWAP2 POP PUSH2 0x50D3 PUSH1 0x40 DUP7 ADD PUSH2 0x4DD8 JUMP JUMPDEST SWAP1 POP SWAP3 SWAP6 SWAP2 SWAP5 POP SWAP3 POP JUMP JUMPDEST PUSH1 0x0 DUP1 PUSH1 0x40 DUP4 DUP6 SUB SLT ISZERO PUSH2 0x50F1 JUMPI PUSH1 0x0 DUP1 REVERT JUMPDEST DUP3 CALLDATALOAD PUSH2 0x50FC DUP2 PUSH2 0x4C5E JUMP JUMPDEST SWAP2 POP PUSH1 0x20 DUP4 ADD CALLDATALOAD PUSH2 0x4CC4 DUP2 PUSH2 0x4C5E JUMP JUMPDEST PUSH1 0x0 DUP1 PUSH1 0x0 PUSH1 0x40 DUP5 DUP7 SUB SLT ISZERO PUSH2 0x5121 JUMPI PUSH1 0x0 DUP1 REVERT JUMPDEST DUP4 CALLDATALOAD SWAP3 POP PUSH1 0x20 DUP5 ADD CALLDATALOAD PUSH1 0x1 PUSH1 0x1 PUSH1 0x40 SHL SUB DUP2 GT ISZERO PUSH2 0x513E JUMPI PUSH1 0x0 DUP1 REVERT JUMPDEST PUSH2 0x514A DUP7 DUP3 DUP8 ADD PUSH2 0x4CCF JUMP JUMPDEST SWAP5 SWAP8 SWAP1 SWAP7 POP SWAP4 SWAP5 POP POP POP POP JUMP JUMPDEST PUSH1 0x0 DUP1 PUSH1 0x0 DUP1 PUSH1 0x60 DUP6 DUP8 SUB SLT ISZERO PUSH2 0x516D JUMPI PUSH1 0x0 DUP1 REVERT JUMPDEST DUP5 CALLDATALOAD PUSH1 0x1 PUSH1 0x1 PUSH1 0x40 SHL SUB DUP2 GT ISZERO PUSH2 0x5183 JUMPI PUSH1 0x0 DUP1 REVERT JUMPDEST PUSH2 0x518F DUP8 DUP3 DUP9 ADD PUSH2 0x4CCF JUMP JUMPDEST SWAP1 SWAP9 SWAP1 SWAP8 POP PUSH1 0x20 DUP8 ADD CALLDATALOAD SWAP7 PUSH1 0x40 ADD CALLDATALOAD SWAP6 POP SWAP4 POP POP POP POP JUMP JUMPDEST PUSH1 0x1 DUP2 DUP2 SHR SWAP1 DUP3 AND DUP1 PUSH2 0x51BB JUMPI PUSH1 0x7F DUP3 AND SWAP2 POP JUMPDEST PUSH1 0x20 DUP3 LT DUP2 SUB PUSH2 0x51DB JUMPI PUSH4 0x4E487B71 PUSH1 0xE0 SHL PUSH1 0x0 MSTORE PUSH1 0x22 PUSH1 0x4 MSTORE PUSH1 0x24 PUSH1 0x0 REVERT JUMPDEST POP SWAP2 SWAP1 POP JUMP JUMPDEST PUSH1 0x0 DUP2 MLOAD PUSH2 0x51F3 DUP2 DUP6 PUSH1 0x20 DUP7 ADD PUSH2 0x4BE2 JUMP JUMPDEST SWAP3 SWAP1 SWAP3 ADD SWAP3 SWAP2 POP POP JUMP JUMPDEST PUSH1 0x0 DUP3 MLOAD PUSH2 0x520F DUP2 DUP5 PUSH1 0x20 DUP8 ADD PUSH2 0x4BE2 JUMP JUMPDEST SWAP2 SWAP1 SWAP2 ADD SWAP3 SWAP2 POP POP JUMP JUMPDEST PUSH1 0x0 PUSH1 0x20 DUP3 DUP5 SUB SLT ISZERO PUSH2 0x522B JUMPI PUSH1 0x0 DUP1 REVERT JUMPDEST DUP2 MLOAD PUSH2 0x3509 DUP2 PUSH2 0x4C5E JUMP JUMPDEST PUSH1 0x20 DUP1 DUP3 MSTORE PUSH1 0x17 SWAP1 DUP3 ADD MSTORE PUSH32 0x45544E5265676973747261723A206E6F74206F776E6572000000000000000000 PUSH1 0x40 DUP3 ADD MSTORE PUSH1 0x60 ADD SWAP1 JUMP JUMPDEST PUSH1 0x20 DUP1 DUP3 MSTORE PUSH1 0x31 SWAP1 DUP3 ADD MSTORE PUSH32 0x45544E5265676973747261723A2063616E6E6F74207472616E73666572206475 PUSH1 0x40 DUP3 ADD MSTORE PUSH17 0x1C9A5B99C819DC9858D9481C195C9A5BD9 PUSH1 0x7A SHL PUSH1 0x60 DUP3 ADD MSTORE PUSH1 0x80 ADD SWAP1 JUMP JUMPDEST PUSH4 0x4E487B71 PUSH1 0xE0 SHL PUSH1 0x0 MSTORE PUSH1 0x11 PUSH1 0x4 MSTORE PUSH1 0x24 PUSH1 0x0 REVERT JUMPDEST DUP1 DUP3 ADD DUP1 DUP3 GT ISZERO PUSH2 0x105B JUMPI PUSH2 0x105B PUSH2 0x52BE JUMP JUMPDEST DUP2 DUP2 SUB DUP2 DUP2 GT ISZERO PUSH2 0x105B JUMPI PUSH2 0x105B PUSH2 0x52BE JUMP JUMPDEST PUSH1 0x20 DUP1 DUP3 MSTORE PUSH1 0x18 SWAP1 DUP3 ADD MSTORE PUSH32 0x45544E5265676973747261723A207A65726F2070726963650000000000000000 PUSH1 0x40 DUP3 ADD MSTORE PUSH1 0x60 ADD SWAP1 JUMP JUMPDEST PUSH1 0x60 DUP1 DUP3 MSTORE PUSH1 0x9 SWAP1 DUP3 ADD MSTORE PUSH9 0x6E616D657370616365 PUSH1 0xB8 SHL PUSH1 0x80 DUP3 ADD MSTORE PUSH1 0x20 DUP2 ADD SWAP3 SWAP1 SWAP3 MSTORE PUSH1 0x40 DUP3 ADD MSTORE PUSH1 0xA0 ADD SWAP1 JUMP JUMPDEST DUP2 DUP4 DUP3 CALLDATACOPY PUSH1 0x0 SWAP2 ADD SWAP1 DUP2 MSTORE SWAP2 SWAP1 POP JUMP JUMPDEST PUSH1 0x20 DUP1 DUP3 MSTORE PUSH1 0x29 SWAP1 DUP3 ADD MSTORE PUSH32 0x45544E5265676973747261723A206C69666574696D652C206E6F2072656E6577 PUSH1 0x40 DUP3 ADD MSTORE PUSH9 0x185B081B9959591959 PUSH1 0xBA SHL PUSH1 0x60 DUP3 ADD MSTORE PUSH1 0x80 ADD SWAP1 JUMP JUMPDEST PUSH1 0x20 DUP1 DUP3 MSTORE PUSH1 0x22 SWAP1 DUP3 ADD MSTORE PUSH32 0x45544E5265676973747261723A20677261636520706572696F64206578706972 PUSH1 0x40 DUP3 ADD MSTORE PUSH2 0x1959 PUSH1 0xF2 SHL PUSH1 0x60 DUP3 ADD MSTORE PUSH1 0x80 ADD SWAP1 JUMP JUMPDEST PUSH1 0x20 DUP1 DUP3 MSTORE PUSH1 0x1E SWAP1 DUP3 ADD MSTORE PUSH32 0x45544E5265676973747261723A20696E73756666696369656E74206665650000 PUSH1 0x40 DUP3 ADD MSTORE PUSH1 0x60 ADD SWAP1 JUMP JUMPDEST PUSH1 0x20 DUP1 DUP3 MSTORE PUSH1 0x1B SWAP1 DUP3 ADD MSTORE PUSH32 0x45544E5265676973747261723A20726566756E64206661696C65640000000000 PUSH1 0x40 DUP3 ADD MSTORE PUSH1 0x60 ADD SWAP1 JUMP JUMPDEST DUP1 MLOAD PUSH10 0xFFFFFFFFFFFFFFFFFFFF DUP2 AND DUP2 EQ PUSH2 0x4DE8 JUMPI PUSH1 0x0 DUP1 REVERT JUMPDEST PUSH1 0x0 DUP1 PUSH1 0x0 DUP1 PUSH1 0x0 PUSH1 0xA0 DUP7 DUP9 SUB SLT ISZERO PUSH2 0x549C JUMPI PUSH1 0x0 DUP1 REVERT JUMPDEST PUSH2 0x54A5 DUP7 PUSH2 0x546A JUMP JUMPDEST SWAP5 POP PUSH1 0x20 DUP7 ADD MLOAD SWAP4 POP PUSH1 0x40 DUP7 ADD MLOAD SWAP3 POP PUSH1 0x60 DUP7 ADD MLOAD SWAP2 POP PUSH2 0x54C8 PUSH1 0x80 DUP8 ADD PUSH2 0x546A JUMP JUMPDEST SWAP1 POP SWAP3 SWAP6 POP SWAP3 SWAP6 SWAP1 SWAP4 POP JUMP JUMPDEST PUSH1 0x0 DUP2 SLOAD PUSH2 0x54E1 DUP2 PUSH2 0x51A7 JUMP JUMPDEST PUSH1 0x1 DUP3 DUP2 AND DUP1 ISZERO PUSH2 0x54F9 JUMPI PUSH1 0x1 DUP2 EQ PUSH2 0x550E JUMPI PUSH2 0x553D JUMP JUMPDEST PUSH1 0xFF NOT DUP5 AND DUP8 MSTORE DUP3 ISZERO ISZERO DUP4 MUL DUP8 ADD SWAP5 POP PUSH2 0x553D JUMP JUMPDEST DUP6 PUSH1 0x0 MSTORE PUSH1 0x20 DUP1 PUSH1 0x0 KECCAK256 PUSH1 0x0 JUMPDEST DUP6 DUP2 LT ISZERO PUSH2 0x5534 JUMPI DUP2 SLOAD DUP11 DUP3 ADD MSTORE SWAP1 DUP5 ADD SWAP1 DUP3 ADD PUSH2 0x551B JUMP JUMPDEST POP POP POP DUP3 DUP8 ADD SWAP5 POP JUMPDEST POP POP POP POP SWAP3 SWAP2 POP POP JUMP JUMPDEST PUSH1 0x0 PUSH2 0x3509 DUP3 DUP5 PUSH2 0x54D4 JUMP JUMPDEST DUP4 DUP6 DUP3 CALLDATACOPY PUSH1 0x0 DUP5 DUP3 ADD PUSH1 0x17 PUSH1 0xF9 SHL DUP2 MSTORE DUP4 DUP6 PUSH1 0x1 DUP4 ADD CALLDATACOPY PUSH4 0x1732BA37 PUSH1 0xE1 SHL SWAP4 ADD PUSH1 0x1 DUP2 ADD SWAP4 SWAP1 SWAP4 MSTORE POP POP PUSH1 0x5 ADD SWAP4 SWAP3 POP POP POP JUMP JUMPDEST PUSH1 0x80 DUP2 MSTORE PUSH1 0x0 PUSH2 0x559B PUSH1 0x80 DUP4 ADD DUP7 PUSH2 0x4C06 JUMP JUMPDEST DUP3 DUP2 SUB PUSH1 0x20 DUP5 ADD MSTORE PUSH2 0x55BD DUP2 PUSH1 0x3 DUP2 MSTORE PUSH3 0x32BA37 PUSH1 0xE9 SHL PUSH1 0x20 DUP3 ADD MSTORE PUSH1 0x40 ADD SWAP1 JUMP JUMPDEST SWAP5 ISZERO ISZERO PUSH1 0x40 DUP5 ADD MSTORE POP POP PUSH1 0x60 ADD MSTORE SWAP2 SWAP1 POP JUMP JUMPDEST PUSH1 0x60 DUP1 DUP3 MSTORE PUSH1 0x5 SWAP1 DUP3 ADD MSTORE PUSH5 0x6261736963 PUSH1 0xD8 SHL PUSH1 0x80 DUP3 ADD MSTORE PUSH1 0x20 DUP2 ADD SWAP3 SWAP1 SWAP3 MSTORE PUSH1 0x40 DUP3 ADD MSTORE PUSH1 0xA0 ADD SWAP1 JUMP JUMPDEST PUSH1 0x60 DUP1 DUP3 MSTORE PUSH1 0xC SWAP1 DUP3 ADD MSTORE PUSH12 0x70726F6A6563742D6E616D65 PUSH1 0xA0 SHL PUSH1 0x80 DUP3 ADD MSTORE PUSH1 0x20 DUP2 ADD SWAP3 SWAP1 SWAP3 MSTORE PUSH1 0x40 DUP3 ADD MSTORE PUSH1 0xA0 ADD SWAP1 JUMP JUMPDEST PUSH1 0x1F DUP3 GT ISZERO PUSH2 0x146C JUMPI PUSH1 0x0 DUP2 DUP2 MSTORE PUSH1 0x20 DUP2 KECCAK256 PUSH1 0x1F DUP6 ADD PUSH1 0x5 SHR DUP2 ADD PUSH1 0x20 DUP7 LT ISZERO PUSH2 0x5656 JUMPI POP DUP1 JUMPDEST PUSH1 0x1F DUP6 ADD PUSH1 0x5 SHR DUP3 ADD SWAP2 POP JUMPDEST DUP2 DUP2 LT ISZERO PUSH2 0x5675 JUMPI DUP3 DUP2 SSTORE PUSH1 0x1 ADD PUSH2 0x5662 JUMP JUMPDEST POP POP POP POP POP POP JUMP JUMPDEST PUSH1 0x1 PUSH1 0x1 PUSH1 0x40 SHL SUB DUP4 GT ISZERO PUSH2 0x5694 JUMPI PUSH2 0x5694 PUSH2 0x4EB2 JUMP JUMPDEST PUSH2 0x56A8 DUP4 PUSH2 0x56A2 DUP4 SLOAD PUSH2 0x51A7 JUMP JUMPDEST DUP4 PUSH2 0x562F JUMP JUMPDEST PUSH1 0x0 PUSH1 0x1F DUP5 GT PUSH1 0x1 DUP2 EQ PUSH2 0x56DC JUMPI PUSH1 0x0 DUP6 ISZERO PUSH2 0x56C4 JUMPI POP DUP4 DUP3 ADD CALLDATALOAD JUMPDEST PUSH1 0x0 NOT PUSH1 0x3 DUP8 SWAP1 SHL SHR NOT AND PUSH1 0x1 DUP7 SWAP1 SHL OR DUP4 SSTORE PUSH2 0x2A12 JUMP JUMPDEST PUSH1 0x0 DUP4 DUP2 MSTORE PUSH1 0x20 SWAP1 KECCAK256 PUSH1 0x1F NOT DUP7 AND SWAP1 DUP4 JUMPDEST DUP3 DUP2 LT ISZERO PUSH2 0x570D JUMPI DUP7 DUP6 ADD CALLDATALOAD DUP3 SSTORE PUSH1 0x20 SWAP5 DUP6 ADD SWAP5 PUSH1 0x1 SWAP1 SWAP3 ADD SWAP2 ADD PUSH2 0x56ED JUMP JUMPDEST POP DUP7 DUP3 LT ISZERO PUSH2 0x572A JUMPI PUSH1 0x0 NOT PUSH1 0xF8 DUP9 PUSH1 0x3 SHL AND SHR NOT DUP5 DUP8 ADD CALLDATALOAD AND DUP2 SSTORE JUMPDEST POP POP PUSH1 0x1 DUP6 PUSH1 0x1 SHL ADD DUP4 SSTORE POP POP POP POP POP JUMP JUMPDEST DUP2 DUP4 MSTORE DUP2 DUP2 PUSH1 0x20 DUP6 ADD CALLDATACOPY POP PUSH1 0x0 DUP3 DUP3 ADD PUSH1 0x20 SWAP1 DUP2 ADD SWAP2 SWAP1 SWAP2 MSTORE PUSH1 0x1F SWAP1 SWAP2 ADD PUSH1 0x1F NOT AND SWAP1 SWAP2 ADD ADD SWAP1 JUMP JUMPDEST PUSH1 0x20 DUP2 MSTORE PUSH1 0x0 PUSH2 0x1C13 PUSH1 0x20 DUP4 ADD DUP5 DUP7 PUSH2 0x573C JUMP JUMPDEST PUSH32 0x646174613A6170706C69636174696F6E2F6A736F6E3B6261736536342C000000 DUP2 MSTORE PUSH1 0x0 DUP3 MLOAD PUSH2 0x57B1 DUP2 PUSH1 0x1D DUP6 ADD PUSH1 0x20 DUP8 ADD PUSH2 0x4BE2 JUMP JUMPDEST SWAP2 SWAP1 SWAP2 ADD PUSH1 0x1D ADD SWAP3 SWAP2 POP POP JUMP JUMPDEST DUP2 DUP4 DUP3 CALLDATACOPY PUSH4 0x1732BA37 PUSH1 0xE1 SHL SWAP2 ADD SWAP1 DUP2 MSTORE PUSH1 0x4 ADD SWAP2 SWAP1 POP JUMP JUMPDEST PUSH1 0x80 DUP2 MSTORE PUSH1 0x0 PUSH2 0x57EB PUSH1 0x80 DUP4 ADD DUP7 DUP9 PUSH2 0x573C JUMP JUMPDEST DUP3 DUP2 SUB PUSH1 0x20 DUP5 ADD MSTORE PUSH2 0x580D DUP2 PUSH1 0x3 DUP2 MSTORE PUSH3 0x32BA37 PUSH1 0xE9 SHL PUSH1 0x20 DUP3 ADD MSTORE PUSH1 0x40 ADD SWAP1 JUMP JUMPDEST SWAP5 ISZERO ISZERO PUSH1 0x40 DUP5 ADD MSTORE POP POP PUSH1 0x60 ADD MSTORE SWAP3 SWAP2 POP POP JUMP JUMPDEST DUP1 DUP3 MUL DUP2 ISZERO DUP3 DUP3 DIV DUP5 EQ OR PUSH2 0x105B JUMPI PUSH2 0x105B PUSH2 0x52BE JUMP JUMPDEST PUSH1 0x0 DUP3 PUSH2 0x5855 JUMPI PUSH4 0x4E487B71 PUSH1 0xE0 SHL PUSH1 0x0 MSTORE PUSH1 0x12 PUSH1 0x4 MSTORE PUSH1 0x24 PUSH1 0x0 REVERT JUMPDEST POP DIV SWAP1 JUMP JUMPDEST PUSH1 0x0 PUSH1 0x20 DUP3 DUP5 SUB SLT ISZERO PUSH2 0x586C JUMPI PUSH1 0x0 DUP1 REVERT JUMPDEST POP MLOAD SWAP2 SWAP1 POP JUMP JUMPDEST DUP2 MLOAD PUSH1 0x1 PUSH1 0x1 PUSH1 0x40 SHL SUB DUP2 GT ISZERO PUSH2 0x588C JUMPI PUSH2 0x588C PUSH2 0x4EB2 JUMP JUMPDEST PUSH2 0x58A0 DUP2 PUSH2 0x589A DUP5 SLOAD PUSH2 0x51A7 JUMP JUMPDEST DUP5 PUSH2 0x562F JUMP JUMPDEST PUSH1 0x20 DUP1 PUSH1 0x1F DUP4 GT PUSH1 0x1 DUP2 EQ PUSH2 0x58D5 JUMPI PUSH1 0x0 DUP5 ISZERO PUSH2 0x58BD JUMPI POP DUP6 DUP4 ADD MLOAD JUMPDEST PUSH1 0x0 NOT PUSH1 0x3 DUP7 SWAP1 SHL SHR NOT AND PUSH1 0x1 DUP6 SWAP1 SHL OR DUP6 SSTORE PUSH2 0x5675 JUMP JUMPDEST PUSH1 0x0 DUP6 DUP2 MSTORE PUSH1 0x20 DUP2 KECCAK256 PUSH1 0x1F NOT DUP7 AND SWAP2 JUMPDEST DUP3 DUP2 LT ISZERO PUSH2 0x5904 JUMPI DUP9 DUP7 ADD MLOAD DUP3 SSTORE SWAP5 DUP5 ADD SWAP5 PUSH1 0x1 SWAP1 SWAP2 ADD SWAP1 DUP5 ADD PUSH2 0x58E5 JUMP JUMPDEST POP DUP6 DUP3 LT ISZERO PUSH2 0x5922 JUMPI DUP8 DUP6 ADD MLOAD PUSH1 0x0 NOT PUSH1 0x3 DUP9 SWAP1 SHL PUSH1 0xF8 AND SHR NOT AND DUP2 SSTORE JUMPDEST POP POP POP POP POP PUSH1 0x1 SWAP1 DUP2 SHL ADD SWAP1 SSTORE POP JUMP JUMPDEST PUSH1 0x60 DUP2 MSTORE PUSH1 0x0 PUSH2 0x5946 PUSH1 0x60 DUP4 ADD DUP7 DUP9 PUSH2 0x573C JUMP JUMPDEST SWAP4 ISZERO ISZERO PUSH1 0x20 DUP4 ADD MSTORE POP PUSH1 0x40 ADD MSTORE SWAP3 SWAP2 POP POP JUMP JUMPDEST PUSH4 0x4E487B71 PUSH1 0xE0 SHL PUSH1 0x0 MSTORE PUSH1 0x32 PUSH1 0x4 MSTORE PUSH1 0x24 PUSH1 0x0 REVERT JUMPDEST PUSH1 0x0 PUSH1 0x1 DUP3 ADD PUSH2 0x5981 JUMPI PUSH2 0x5981 PUSH2 0x52BE JUMP JUMPDEST POP PUSH1 0x1 ADD SWAP1 JUMP JUMPDEST PUSH9 0x1134B6B0B3B2911D11 PUSH1 0xB9 SHL DUP2 MSTORE DUP2 MLOAD PUSH1 0x0 SWAP1 PUSH2 0x59AD DUP2 PUSH1 0x9 DUP6 ADD PUSH1 0x20 DUP8 ADD PUSH2 0x4BE2 JUMP JUMPDEST PUSH2 0x88B PUSH1 0xF2 SHL PUSH1 0x9 SWAP4 SWAP1 SWAP2 ADD SWAP3 DUP4 ADD MSTORE POP PUSH1 0xB ADD SWAP2 SWAP1 POP JUMP JUMPDEST PUSH32 0x2C7B2274726169745F74797065223A2250726F6A656374222C2276616C756522 DUP2 MSTORE PUSH2 0x1D11 PUSH1 0xF1 SHL PUSH1 0x20 DUP3 ADD MSTORE PUSH1 0x0 PUSH2 0x5A03 PUSH1 0x22 DUP4 ADD DUP5 PUSH2 0x54D4 JUMP JUMPDEST PUSH2 0x227D PUSH1 0xF0 SHL DUP2 MSTORE PUSH1 0x2 ADD SWAP4 SWAP3 POP POP POP JUMP JUMPDEST PUSH32 0x7B2274726169745F74797065223A224C69666574696D65222C2276616C756522 DUP2 MSTORE PUSH10 0xE8899985B1CD9489F4B PUSH1 0xB2 SHL PUSH1 0x20 DUP3 ADD MSTORE PUSH32 0x7B2274726169745F74797065223A2245787069726573222C2276616C7565223A PUSH1 0x2A DUP3 ADD MSTORE PUSH1 0x11 PUSH1 0xF9 SHL PUSH1 0x4A DUP3 ADD MSTORE PUSH1 0x0 DUP3 MLOAD PUSH2 0x5A90 DUP2 PUSH1 0x4B DUP6 ADD PUSH1 0x20 DUP8 ADD PUSH2 0x4BE2 JUMP JUMPDEST PUSH2 0x227D PUSH1 0xF0 SHL PUSH1 0x4B SWAP4 SWAP1 SWAP2 ADD SWAP3 DUP4 ADD MSTORE POP PUSH1 0x4D ADD SWAP2 SWAP1 POP JUMP JUMPDEST PUSH9 0x3D913730B6B2911D11 PUSH1 0xB9 SHL DUP2 MSTORE DUP6 MLOAD PUSH1 0x0 SWAP1 PUSH2 0x5ACE DUP2 PUSH1 0x9 DUP6 ADD PUSH1 0x20 DUP12 ADD PUSH2 0x4BE2 JUMP JUMPDEST PUSH2 0x88B PUSH1 0xF2 SHL PUSH1 0x9 SWAP2 DUP5 ADD SWAP2 DUP3 ADD MSTORE PUSH32 0x226465736372697074696F6E223A22416E20456C656374726F6E65756D204E61 PUSH1 0xB DUP3 ADD MSTORE PUSH22 0x1B594814D95C9D9A58D9481A59195B9D1A5D1E4B888B PUSH1 0x52 SHL PUSH1 0x2B DUP3 ADD MSTORE DUP7 MLOAD PUSH2 0x5B35 DUP2 PUSH1 0x41 DUP5 ADD PUSH1 0x20 DUP12 ADD PUSH2 0x4BE2 JUMP JUMPDEST PUSH14 0x2261747472696275746573223A5B PUSH1 0x90 SHL PUSH1 0x41 SWAP3 SWAP1 SWAP2 ADD SWAP2 DUP3 ADD MSTORE PUSH32 0x7B2274726169745F74797065223A2254797065222C2276616C7565223A220000 PUSH1 0x4F DUP3 ADD MSTORE DUP6 MLOAD PUSH2 0x5B8A DUP2 PUSH1 0x6D DUP5 ADD PUSH1 0x20 DUP11 ADD PUSH2 0x4BE2 JUMP JUMPDEST PUSH3 0x89F4B PUSH1 0xEA SHL PUSH1 0x6D SWAP3 SWAP1 SWAP2 ADD SWAP2 DUP3 ADD MSTORE PUSH2 0x5BC2 PUSH2 0x5BB4 PUSH2 0x5BAE PUSH1 0x70 DUP5 ADD DUP9 PUSH2 0x51E1 JUMP JUMPDEST DUP7 PUSH2 0x51E1 JUMP JUMPDEST PUSH2 0x5D7D PUSH1 0xF0 SHL DUP2 MSTORE PUSH1 0x2 ADD SWAP1 JUMP JUMPDEST SWAP9 SWAP8 POP POP POP POP POP POP POP POP JUMP JUMPDEST PUSH1 0x0 PUSH1 0x80 DUP3 ADD DUP7 DUP4 MSTORE PUSH1 0x20 PUSH1 0x80 DUP2 DUP6 ADD MSTORE DUP2 DUP8 MLOAD DUP1 DUP5 MSTORE PUSH1 0xA0 DUP7 ADD SWAP2 POP DUP3 DUP10 ADD SWAP4 POP PUSH1 0x0 JUMPDEST DUP2 DUP2 LT ISZERO PUSH2 0x5C18 JUMPI DUP5 MLOAD PUSH1 0x1 PUSH1 0x1 PUSH1 0xA0 SHL SUB AND DUP4 MSTORE SWAP4 DUP4 ADD SWAP4 SWAP2 DUP4 ADD SWAP2 PUSH1 0x1 ADD PUSH2 0x5BF3 JUMP JUMPDEST POP POP PUSH1 0x1 PUSH1 0x1 PUSH1 0xA0 SHL SUB SWAP7 SWAP1 SWAP7 AND PUSH1 0x40 DUP6 ADD MSTORE POP POP POP PUSH1 0x60 ADD MSTORE SWAP3 SWAP2 POP POP JUMP JUMPDEST PUSH1 0x0 PUSH1 0x20 DUP1 DUP4 DUP6 SUB SLT ISZERO PUSH2 0x5C4B JUMPI PUSH1 0x0 DUP1 REVERT JUMPDEST DUP3 MLOAD PUSH1 0x1 PUSH1 0x1 PUSH1 0x40 SHL SUB DUP1 DUP3 GT ISZERO PUSH2 0x5C62 JUMPI PUSH1 0x0 DUP1 REVERT JUMPDEST DUP2 DUP6 ADD SWAP2 POP DUP6 PUSH1 0x1F DUP4 ADD SLT PUSH2 0x5C76 JUMPI PUSH1 0x0 DUP1 REVERT JUMPDEST DUP2 MLOAD DUP2 DUP2 GT ISZERO PUSH2 0x5C88 JUMPI PUSH2 0x5C88 PUSH2 0x4EB2 JUMP JUMPDEST DUP1 PUSH1 0x5 SHL SWAP2 POP PUSH2 0x5C99 DUP5 DUP4 ADD PUSH2 0x4EC8 JUMP JUMPDEST DUP2 DUP2 MSTORE SWAP2 DUP4 ADD DUP5 ADD SWAP2 DUP5 DUP2 ADD SWAP1 DUP9 DUP5 GT ISZERO PUSH2 0x5CB3 JUMPI PUSH1 0x0 DUP1 REVERT JUMPDEST SWAP4 DUP6 ADD SWAP4 JUMPDEST DUP4 DUP6 LT ISZERO PUSH2 0x5BC2 JUMPI DUP5 MLOAD DUP3 MSTORE SWAP4 DUP6 ADD SWAP4 SWAP1 DUP6 ADD SWAP1 PUSH2 0x5CB8 JUMP JUMPDEST PUSH1 0x1 PUSH1 0x1 PUSH1 0xA0 SHL SUB DUP6 DUP2 AND DUP3 MSTORE DUP5 AND PUSH1 0x20 DUP3 ADD MSTORE PUSH1 0x40 DUP2 ADD DUP4 SWAP1 MSTORE PUSH1 0x80 PUSH1 0x60 DUP3 ADD DUP2 SWAP1 MSTORE PUSH1 0x0 SWAP1 PUSH2 0x5D04 SWAP1 DUP4 ADD DUP5 PUSH2 0x4C06 JUMP JUMPDEST SWAP7 SWAP6 POP POP POP POP POP POP JUMP JUMPDEST PUSH1 0x0 PUSH1 0x20 DUP3 DUP5 SUB SLT ISZERO PUSH2 0x5D20 JUMPI PUSH1 0x0 DUP1 REVERT JUMPDEST DUP2 MLOAD PUSH2 0x3509 DUP2 PUSH2 0x4BAC JUMP INVALID PUSH28 0x2274726169745F74797065223A224C69666574696D65222C2276616C PUSH22 0x65223A2274727565227D69A3977D40595DBC343E3FA6 0xDD 0xBD 0x26 0xDB 0xE3 SHR 0xC2 CALLDATACOPY DUP4 PUSH7 0x22384941B3C514 DUP10 PUSH21 0xCD4142434445464748494A4B4C4D4E4F5051525354 SSTORE JUMP JUMPI PC MSIZE GAS PUSH2 0x6263 PUSH5 0x6566676869 PUSH11 0x6B6C6D6E6F707172737475 PUSH23 0x7778797A303132333435363738392B2FA2646970667358 0x22 SLT KECCAK256 CHAINID PUSH6 0x326CE7FBC5FF SWAP14 0xE1 CALLVALUE 0xB6 STATICCALL DUP9 0xB5 0xC6 0xE 0xC6 SUB 0xDF SWAP1 CALLDATALOAD PUSH2 0x5643 XOR SWAP9 MSIZE SWAP16 PUSH2 0xA860 PUSH5 0x736F6C6343 STOP ADDMOD EQ STOP CALLER POP PUSH13 0x616E6574205A65706879726F73 KECCAK256 0x2D KECCAK256 GASLIMIT PUSH13 0x656374726F6E65756D204E616D PUSH6 0x205365727669 PUSH4 0x65000000 "
		},
		"gasEstimates": {
			"creation": {
				"codeDepositCost": "4808200",
				"executionCost": "infinite",
				"totalCost": "infinite"
			},
			"external": {
				"GRACE_PERIOD()": "340",
				"LEASE_DURATION()": "318",
				"MAX_ORACLE_AGE()": "274",
				"WETN()": "infinite",
				"accruedFees()": "2462",
				"approve(address,uint256)": "31591",
				"approveRegistryNode()": "infinite",
				"balanceOf(address)": "2683",
				"basicLifetimeUsdPrice()": "2397",
				"basicYearUsdPrice()": "2395",
				"buyProject(string,bool)": "infinite",
				"coreToken()": "2494",
				"createProject(string)": "infinite",
				"defaultResolver()": "2449",
				"expiresAt(bytes32)": "2516",
				"fallbackBasicLifetimePrice()": "2417",
				"fallbackBasicYearPrice()": "2418",
				"fallbackNamespaceLifetimePrice()": "2462",
				"fallbackNamespaceYearPrice()": "2440",
				"fallbackProjectLifetimePrice()": "2353",
				"fallbackProjectYearPrice()": "2374",
				"fullName(bytes32)": "infinite",
				"getApproved(uint256)": "infinite",
				"getBasicLifetimePrice()": "infinite",
				"getBasicYearPrice()": "infinite",
				"getExpiry(bytes32)": "7294",
				"getNamespaceLifetimePrice()": "infinite",
				"getNamespaceYearPrice()": "infinite",
				"getOraclePrice()": "infinite",
				"getOwner(bytes32)": "infinite",
				"getProjectCreator(string)": "infinite",
				"getProjectNameLifetimePrice()": "infinite",
				"getProjectNameYearPrice()": "infinite",
				"imageOperator()": "2450",
				"isActive(bytes32)": "4823",
				"isApprovedForAll(address,address)": "infinite",
				"isAvailableBasic(string)": "infinite",
				"isAvailableProject(string,string)": "infinite",
				"isNamespaceAvailable(string)": "infinite",
				"name()": "infinite",
				"namespaceLifetimeUsdPrice()": "2375",
				"namespaceProjectLifetimePrice(bytes32)": "2605",
				"namespaceProjectYearPrice(bytes32)": "2539",
				"namespaceYearUsdPrice()": "2352",
				"nodeImageURI(bytes32)": "infinite",
				"nodeType(bytes32)": "2542",
				"owner()": "2493",
				"ownerAccruedFees(address)": "2659",
				"ownerOf(uint256)": "infinite",
				"parentProject(bytes32)": "infinite",
				"placeholderImageURI()": "infinite",
				"priceFeed()": "2406",
				"projectCreator(bytes32)": "2632",
				"projectExists(bytes32)": "2519",
				"projectExpiresAt(bytes32)": "2581",
				"projectLifetimeUsdPrice()": "2418",
				"projectNameBurnSharePercent()": "2461",
				"projectNameOwnerSharePercent()": "2396",
				"projectYearUsdPrice()": "2439",
				"registerBasic(string,address,bool)": "infinite",
				"registerProject(string,string,address,bool)": "infinite",
				"registry()": "infinite",
				"renew(bytes32)": "infinite",
				"renewProject(string)": "infinite",
				"resolveIfActive(bytes32,address)": "infinite",
				"router()": "infinite",
				"safeTransferFrom(address,address,uint256)": "infinite",
				"safeTransferFrom(address,address,uint256,bytes)": "infinite",
				"setApprovalForAll(address,bool)": "26794",
				"setBasicFallbackPrices(uint256,uint256)": "48955",
				"setBasicUsdPrices(uint256,uint256)": "48934",
				"setCoreToken(address)": "27871",
				"setDefaultResolver(address)": "27881",
				"setImageOperator(address)": "26773",
				"setNamespaceFallbackPrices(uint256,uint256)": "49002",
				"setNamespacePrice(string,uint256,uint256)": "infinite",
				"setNamespaceUsdPrices(uint256,uint256)": "49001",
				"setNodeImage(bytes32,string)": "infinite",
				"setPlaceholderImage(string)": "infinite",
				"setPriceFeed(address)": "27947",
				"setProjectNameFallbackPrices(uint256,uint256)": "49001",
				"setProjectNameSplit(uint256,uint256)": "infinite",
				"setProjectNameUsdPrices(uint256,uint256)": "49044",
				"supportsInterface(bytes4)": "613",
				"symbol()": "infinite",
				"tokenURI(uint256)": "infinite",
				"transferFrom(address,address,uint256)": "infinite",
				"transferOwnership(address)": "30504",
				"withdrawFees(address)": "infinite",
				"withdrawNamespaceFees()": "infinite"
			},
			"internal": {
				"_buildMetadataJson(bytes32)": "infinite",
				"_buyAndBurnCore(uint256)": "infinite",
				"_createProject(string calldata,address,bool)": "infinite",
				"_handlePayment(uint256)": "infinite",
				"_handleProjectNamePayment(uint256,address)": "infinite",
				"_inGracePeriod(bytes32)": "2332",
				"_isAvailable(bytes32)": "4565",
				"_register(struct ETNBaseRegistrar.RegisterParams memory)": "infinite",
				"_update(address,uint256,address)": "infinite",
				"_usdToEtn(uint256,uint256)": "infinite",
				"_validateLabel(string calldata)": "infinite"
			}
		},
		"methodIdentifiers": {
			"GRACE_PERIOD()": "c1a287e2",
			"LEASE_DURATION()": "8476fae7",
			"MAX_ORACLE_AGE()": "4d643128",
			"WETN()": "66650b7b",
			"accruedFees()": "682c2058",
			"approve(address,uint256)": "095ea7b3",
			"approveRegistryNode()": "7897b604",
			"balanceOf(address)": "70a08231",
			"basicLifetimeUsdPrice()": "3a40705a",
			"basicYearUsdPrice()": "de04ce10",
			"buyProject(string,bool)": "d8ea6420",
			"coreToken()": "0c2b72e9",
			"createProject(string)": "15ee4df1",
			"defaultResolver()": "828eab0e",
			"expiresAt(bytes32)": "c582da00",
			"fallbackBasicLifetimePrice()": "7104067c",
			"fallbackBasicYearPrice()": "52b2bf87",
			"fallbackNamespaceLifetimePrice()": "58ca93f7",
			"fallbackNamespaceYearPrice()": "986a4237",
			"fallbackProjectLifetimePrice()": "12f0d8af",
			"fallbackProjectYearPrice()": "946980a7",
			"fullName(bytes32)": "a1a2d62b",
			"getApproved(uint256)": "081812fc",
			"getBasicLifetimePrice()": "02625de9",
			"getBasicYearPrice()": "38e757d5",
			"getExpiry(bytes32)": "52cc3b21",
			"getNamespaceLifetimePrice()": "a93b660d",
			"getNamespaceYearPrice()": "11d442a4",
			"getOraclePrice()": "796da7af",
			"getOwner(bytes32)": "deb931a2",
			"getProjectCreator(string)": "5ceb3920",
			"getProjectNameLifetimePrice()": "003c3846",
			"getProjectNameYearPrice()": "02496b05",
			"imageOperator()": "0b1f7e2e",
			"isActive(bytes32)": "5c36901c",
			"isApprovedForAll(address,address)": "e985e9c5",
			"isAvailableBasic(string)": "68dc978a",
			"isAvailableProject(string,string)": "c5372916",
			"isNamespaceAvailable(string)": "3412e044",
			"name()": "06fdde03",
			"namespaceLifetimeUsdPrice()": "77b72f58",
			"namespaceProjectLifetimePrice(bytes32)": "370bb52e",
			"namespaceProjectYearPrice(bytes32)": "50abdade",
			"namespaceYearUsdPrice()": "806b8495",
			"nodeImageURI(bytes32)": "807596e7",
			"nodeType(bytes32)": "dde870ad",
			"owner()": "8da5cb5b",
			"ownerAccruedFees(address)": "232d097c",
			"ownerOf(uint256)": "6352211e",
			"parentProject(bytes32)": "14fb021c",
			"placeholderImageURI()": "aacca889",
			"priceFeed()": "741bef1a",
			"projectCreator(bytes32)": "d686f546",
			"projectExists(bytes32)": "38975895",
			"projectExpiresAt(bytes32)": "fe13f749",
			"projectLifetimeUsdPrice()": "97725fb2",
			"projectNameBurnSharePercent()": "d873b497",
			"projectNameOwnerSharePercent()": "287a3338",
			"projectYearUsdPrice()": "720246bb",
			"registerBasic(string,address,bool)": "e403326e",
			"registerProject(string,string,address,bool)": "9023f836",
			"registry()": "7b103999",
			"renew(bytes32)": "8e32762d",
			"renewProject(string)": "6841fd08",
			"resolveIfActive(bytes32,address)": "0c0b5e84",
			"router()": "f887ea40",
			"safeTransferFrom(address,address,uint256)": "42842e0e",
			"safeTransferFrom(address,address,uint256,bytes)": "b88d4fde",
			"setApprovalForAll(address,bool)": "a22cb465",
			"setBasicFallbackPrices(uint256,uint256)": "eed27c1a",
			"setBasicUsdPrices(uint256,uint256)": "9b71bde1",
			"setCoreToken(address)": "615ff3fc",
			"setDefaultResolver(address)": "c66485b2",
			"setImageOperator(address)": "b2e1a01e",
			"setNamespaceFallbackPrices(uint256,uint256)": "3ed79408",
			"setNamespacePrice(string,uint256,uint256)": "fee483ce",
			"setNamespaceUsdPrices(uint256,uint256)": "3297e10d",
			"setNodeImage(bytes32,string)": "ee676cbe",
			"setPlaceholderImage(string)": "b75f1aef",
			"setPriceFeed(address)": "724e78da",
			"setProjectNameFallbackPrices(uint256,uint256)": "bc1e19ce",
			"setProjectNameSplit(uint256,uint256)": "2428619b",
			"setProjectNameUsdPrices(uint256,uint256)": "b13c25fe",
			"supportsInterface(bytes4)": "01ffc9a7",
			"symbol()": "95d89b41",
			"tokenURI(uint256)": "c87b56dd",
			"transferFrom(address,address,uint256)": "23b872dd",
			"transferOwnership(address)": "f2fde38b",
			"withdrawFees(address)": "164e68de",
			"withdrawNamespaceFees()": "4502c7c4"
		}
	},
	"abi": [
		{
			"inputs": [
				{
					"internalType": "address",
					"name": "_registry",
					"type": "address"
				},
				{
					"internalType": "address",
					"name": "_router",
					"type": "address"
				},
				{
					"internalType": "address",
					"name": "_WETN",
					"type": "address"
				},
				{
					"internalType": "address",
					"name": "_coreToken",
					"type": "address"
				},
				{
					"internalType": "address",
					"name": "_defaultResolver",
					"type": "address"
				}
			],
			"stateMutability": "nonpayable",
			"type": "constructor"
		},
		{
			"inputs": [
				{
					"internalType": "address",
					"name": "sender",
					"type": "address"
				},
				{
					"internalType": "uint256",
					"name": "tokenId",
					"type": "uint256"
				},
				{
					"internalType": "address",
					"name": "owner",
					"type": "address"
				}
			],
			"name": "ERC721IncorrectOwner",
			"type": "error"
		},
		{
			"inputs": [
				{
					"internalType": "address",
					"name": "operator",
					"type": "address"
				},
				{
					"internalType": "uint256",
					"name": "tokenId",
					"type": "uint256"
				}
			],
			"name": "ERC721InsufficientApproval",
			"type": "error"
		},
		{
			"inputs": [
				{
					"internalType": "address",
					"name": "approver",
					"type": "address"
				}
			],
			"name": "ERC721InvalidApprover",
			"type": "error"
		},
		{
			"inputs": [
				{
					"internalType": "address",
					"name": "operator",
					"type": "address"
				}
			],
			"name": "ERC721InvalidOperator",
			"type": "error"
		},
		{
			"inputs": [
				{
					"internalType": "address",
					"name": "owner",
					"type": "address"
				}
			],
			"name": "ERC721InvalidOwner",
			"type": "error"
		},
		{
			"inputs": [
				{
					"internalType": "address",
					"name": "receiver",
					"type": "address"
				}
			],
			"name": "ERC721InvalidReceiver",
			"type": "error"
		},
		{
			"inputs": [
				{
					"internalType": "address",
					"name": "sender",
					"type": "address"
				}
			],
			"name": "ERC721InvalidSender",
			"type": "error"
		},
		{
			"inputs": [
				{
					"internalType": "uint256",
					"name": "tokenId",
					"type": "uint256"
				}
			],
			"name": "ERC721NonexistentToken",
			"type": "error"
		},
		{
			"anonymous": false,
			"inputs": [
				{
					"indexed": true,
					"internalType": "address",
					"name": "owner",
					"type": "address"
				},
				{
					"indexed": true,
					"internalType": "address",
					"name": "approved",
					"type": "address"
				},
				{
					"indexed": true,
					"internalType": "uint256",
					"name": "tokenId",
					"type": "uint256"
				}
			],
			"name": "Approval",
			"type": "event"
		},
		{
			"anonymous": false,
			"inputs": [
				{
					"indexed": true,
					"internalType": "address",
					"name": "owner",
					"type": "address"
				},
				{
					"indexed": true,
					"internalType": "address",
					"name": "operator",
					"type": "address"
				},
				{
					"indexed": false,
					"internalType": "bool",
					"name": "approved",
					"type": "bool"
				}
			],
			"name": "ApprovalForAll",
			"type": "event"
		},
		{
			"anonymous": false,
			"inputs": [
				{
					"indexed": false,
					"internalType": "uint256",
					"name": "etnIn",
					"type": "uint256"
				},
				{
					"indexed": false,
					"internalType": "uint256",
					"name": "coreBurned",
					"type": "uint256"
				}
			],
			"name": "CoreBurned",
			"type": "event"
		},
		{
			"anonymous": false,
			"inputs": [
				{
					"indexed": false,
					"internalType": "address",
					"name": "token",
					"type": "address"
				}
			],
			"name": "CoreTokenUpdated",
			"type": "event"
		},
		{
			"anonymous": false,
			"inputs": [
				{
					"indexed": false,
					"internalType": "string",
					"name": "tier",
					"type": "string"
				},
				{
					"indexed": false,
					"internalType": "uint256",
					"name": "yearEtn",
					"type": "uint256"
				},
				{
					"indexed": false,
					"internalType": "uint256",
					"name": "lifetimeEtn",
					"type": "uint256"
				}
			],
			"name": "FallbackPricesUpdated",
			"type": "event"
		},
		{
			"anonymous": false,
			"inputs": [
				{
					"indexed": false,
					"internalType": "address",
					"name": "to",
					"type": "address"
				},
				{
					"indexed": false,
					"internalType": "uint256",
					"name": "amount",
					"type": "uint256"
				}
			],
			"name": "FeesWithdrawn",
			"type": "event"
		},
		{
			"anonymous": false,
			"inputs": [
				{
					"indexed": true,
					"internalType": "bytes32",
					"name": "node",
					"type": "bytes32"
				},
				{
					"indexed": false,
					"internalType": "string",
					"name": "name",
					"type": "string"
				},
				{
					"indexed": false,
					"internalType": "string",
					"name": "tld",
					"type": "string"
				},
				{
					"indexed": true,
					"internalType": "address",
					"name": "registrant",
					"type": "address"
				},
				{
					"indexed": false,
					"internalType": "bool",
					"name": "lifetime",
					"type": "bool"
				},
				{
					"indexed": false,
					"internalType": "uint256",
					"name": "expiresAt",
					"type": "uint256"
				}
			],
			"name": "NameRegistered",
			"type": "event"
		},
		{
			"anonymous": false,
			"inputs": [
				{
					"indexed": true,
					"internalType": "bytes32",
					"name": "node",
					"type": "bytes32"
				},
				{
					"indexed": false,
					"internalType": "uint256",
					"name": "newExpiry",
					"type": "uint256"
				}
			],
			"name": "NameRenewed",
			"type": "event"
		},
		{
			"anonymous": false,
			"inputs": [
				{
					"indexed": true,
					"internalType": "address",
					"name": "owner",
					"type": "address"
				},
				{
					"indexed": false,
					"internalType": "uint256",
					"name": "amount",
					"type": "uint256"
				}
			],
			"name": "NamespaceFeesWithdrawn",
			"type": "event"
		},
		{
			"anonymous": false,
			"inputs": [
				{
					"indexed": true,
					"internalType": "bytes32",
					"name": "projectNode",
					"type": "bytes32"
				},
				{
					"indexed": false,
					"internalType": "uint256",
					"name": "yearPrice",
					"type": "uint256"
				},
				{
					"indexed": false,
					"internalType": "uint256",
					"name": "lifetimePrice",
					"type": "uint256"
				}
			],
			"name": "NamespacePriceUpdated",
			"type": "event"
		},
		{
			"anonymous": false,
			"inputs": [
				{
					"indexed": true,
					"internalType": "bytes32",
					"name": "node",
					"type": "bytes32"
				},
				{
					"indexed": false,
					"internalType": "string",
					"name": "uri",
					"type": "string"
				}
			],
			"name": "NodeImageUpdated",
			"type": "event"
		},
		{
			"anonymous": false,
			"inputs": [
				{
					"indexed": true,
					"internalType": "address",
					"name": "previous",
					"type": "address"
				},
				{
					"indexed": true,
					"internalType": "address",
					"name": "next",
					"type": "address"
				}
			],
			"name": "OwnershipTransferred",
			"type": "event"
		},
		{
			"anonymous": false,
			"inputs": [
				{
					"indexed": false,
					"internalType": "string",
					"name": "uri",
					"type": "string"
				}
			],
			"name": "PlaceholderImageUpdated",
			"type": "event"
		},
		{
			"anonymous": false,
			"inputs": [
				{
					"indexed": false,
					"internalType": "address",
					"name": "feed",
					"type": "address"
				}
			],
			"name": "PriceFeedUpdated",
			"type": "event"
		},
		{
			"anonymous": false,
			"inputs": [
				{
					"indexed": false,
					"internalType": "string",
					"name": "project",
					"type": "string"
				},
				{
					"indexed": true,
					"internalType": "bytes32",
					"name": "projectNode",
					"type": "bytes32"
				},
				{
					"indexed": true,
					"internalType": "address",
					"name": "creator",
					"type": "address"
				},
				{
					"indexed": false,
					"internalType": "bool",
					"name": "lifetime",
					"type": "bool"
				},
				{
					"indexed": false,
					"internalType": "uint256",
					"name": "expiresAt",
					"type": "uint256"
				}
			],
			"name": "ProjectCreated",
			"type": "event"
		},
		{
			"anonymous": false,
			"inputs": [
				{
					"indexed": false,
					"internalType": "uint256",
					"name": "ownerPercent",
					"type": "uint256"
				},
				{
					"indexed": false,
					"internalType": "uint256",
					"name": "burnPercent",
					"type": "uint256"
				},
				{
					"indexed": false,
					"internalType": "uint256",
					"name": "platformPercent",
					"type": "uint256"
				}
			],
			"name": "ProjectNameSplitUpdated",
			"type": "event"
		},
		{
			"anonymous": false,
			"inputs": [
				{
					"indexed": true,
					"internalType": "bytes32",
					"name": "projectNode",
					"type": "bytes32"
				},
				{
					"indexed": false,
					"internalType": "uint256",
					"name": "newExpiry",
					"type": "uint256"
				}
			],
			"name": "ProjectRenewed",
			"type": "event"
		},
		{
			"anonymous": false,
			"inputs": [
				{
					"indexed": false,
					"internalType": "address",
					"name": "resolver",
					"type": "address"
				}
			],
			"name": "ResolverUpdated",
			"type": "event"
		},
		{
			"anonymous": false,
			"inputs": [
				{
					"indexed": true,
					"internalType": "address",
					"name": "from",
					"type": "address"
				},
				{
					"indexed": true,
					"internalType": "address",
					"name": "to",
					"type": "address"
				},
				{
					"indexed": true,
					"internalType": "uint256",
					"name": "tokenId",
					"type": "uint256"
				}
			],
			"name": "Transfer",
			"type": "event"
		},
		{
			"anonymous": false,
			"inputs": [
				{
					"indexed": false,
					"internalType": "string",
					"name": "tier",
					"type": "string"
				},
				{
					"indexed": false,
					"internalType": "uint256",
					"name": "yearUsd",
					"type": "uint256"
				},
				{
					"indexed": false,
					"internalType": "uint256",
					"name": "lifetimeUsd",
					"type": "uint256"
				}
			],
			"name": "UsdPricesUpdated",
			"type": "event"
		},
		{
			"inputs": [],
			"name": "GRACE_PERIOD",
			"outputs": [
				{
					"internalType": "uint256",
					"name": "",
					"type": "uint256"
				}
			],
			"stateMutability": "view",
			"type": "function"
		},
		{
			"inputs": [],
			"name": "LEASE_DURATION",
			"outputs": [
				{
					"internalType": "uint256",
					"name": "",
					"type": "uint256"
				}
			],
			"stateMutability": "view",
			"type": "function"
		},
		{
			"inputs": [],
			"name": "MAX_ORACLE_AGE",
			"outputs": [
				{
					"internalType": "uint256",
					"name": "",
					"type": "uint256"
				}
			],
			"stateMutability": "view",
			"type": "function"
		},
		{
			"inputs": [],
			"name": "WETN",
			"outputs": [
				{
					"internalType": "address",
					"name": "",
					"type": "address"
				}
			],
			"stateMutability": "view",
			"type": "function"
		},
		{
			"inputs": [],
			"name": "accruedFees",
			"outputs": [
				{
					"internalType": "uint256",
					"name": "",
					"type": "uint256"
				}
			],
			"stateMutability": "view",
			"type": "function"
		},
		{
			"inputs": [
				{
					"internalType": "address",
					"name": "to",
					"type": "address"
				},
				{
					"internalType": "uint256",
					"name": "tokenId",
					"type": "uint256"
				}
			],
			"name": "approve",
			"outputs": [],
			"stateMutability": "nonpayable",
			"type": "function"
		},
		{
			"inputs": [],
			"name": "approveRegistryNode",
			"outputs": [],
			"stateMutability": "nonpayable",
			"type": "function"
		},
		{
			"inputs": [
				{
					"internalType": "address",
					"name": "owner",
					"type": "address"
				}
			],
			"name": "balanceOf",
			"outputs": [
				{
					"internalType": "uint256",
					"name": "",
					"type": "uint256"
				}
			],
			"stateMutability": "view",
			"type": "function"
		},
		{
			"inputs": [],
			"name": "basicLifetimeUsdPrice",
			"outputs": [
				{
					"internalType": "uint256",
					"name": "",
					"type": "uint256"
				}
			],
			"stateMutability": "view",
			"type": "function"
		},
		{
			"inputs": [],
			"name": "basicYearUsdPrice",
			"outputs": [
				{
					"internalType": "uint256",
					"name": "",
					"type": "uint256"
				}
			],
			"stateMutability": "view",
			"type": "function"
		},
		{
			"inputs": [
				{
					"internalType": "string",
					"name": "project",
					"type": "string"
				},
				{
					"internalType": "bool",
					"name": "lifetime",
					"type": "bool"
				}
			],
			"name": "buyProject",
			"outputs": [],
			"stateMutability": "payable",
			"type": "function"
		},
		{
			"inputs": [],
			"name": "coreToken",
			"outputs": [
				{
					"internalType": "address",
					"name": "",
					"type": "address"
				}
			],
			"stateMutability": "view",
			"type": "function"
		},
		{
			"inputs": [
				{
					"internalType": "string",
					"name": "project",
					"type": "string"
				}
			],
			"name": "createProject",
			"outputs": [],
			"stateMutability": "nonpayable",
			"type": "function"
		},
		{
			"inputs": [],
			"name": "defaultResolver",
			"outputs": [
				{
					"internalType": "address",
					"name": "",
					"type": "address"
				}
			],
			"stateMutability": "view",
			"type": "function"
		},
		{
			"inputs": [
				{
					"internalType": "bytes32",
					"name": "",
					"type": "bytes32"
				}
			],
			"name": "expiresAt",
			"outputs": [
				{
					"internalType": "uint256",
					"name": "",
					"type": "uint256"
				}
			],
			"stateMutability": "view",
			"type": "function"
		},
		{
			"inputs": [],
			"name": "fallbackBasicLifetimePrice",
			"outputs": [
				{
					"internalType": "uint256",
					"name": "",
					"type": "uint256"
				}
			],
			"stateMutability": "view",
			"type": "function"
		},
		{
			"inputs": [],
			"name": "fallbackBasicYearPrice",
			"outputs": [
				{
					"internalType": "uint256",
					"name": "",
					"type": "uint256"
				}
			],
			"stateMutability": "view",
			"type": "function"
		},
		{
			"inputs": [],
			"name": "fallbackNamespaceLifetimePrice",
			"outputs": [
				{
					"internalType": "uint256",
					"name": "",
					"type": "uint256"
				}
			],
			"stateMutability": "view",
			"type": "function"
		},
		{
			"inputs": [],
			"name": "fallbackNamespaceYearPrice",
			"outputs": [
				{
					"internalType": "uint256",
					"name": "",
					"type": "uint256"
				}
			],
			"stateMutability": "view",
			"type": "function"
		},
		{
			"inputs": [],
			"name": "fallbackProjectLifetimePrice",
			"outputs": [
				{
					"internalType": "uint256",
					"name": "",
					"type": "uint256"
				}
			],
			"stateMutability": "view",
			"type": "function"
		},
		{
			"inputs": [],
			"name": "fallbackProjectYearPrice",
			"outputs": [
				{
					"internalType": "uint256",
					"name": "",
					"type": "uint256"
				}
			],
			"stateMutability": "view",
			"type": "function"
		},
		{
			"inputs": [
				{
					"internalType": "bytes32",
					"name": "",
					"type": "bytes32"
				}
			],
			"name": "fullName",
			"outputs": [
				{
					"internalType": "string",
					"name": "",
					"type": "string"
				}
			],
			"stateMutability": "view",
			"type": "function"
		},
		{
			"inputs": [
				{
					"internalType": "uint256",
					"name": "tokenId",
					"type": "uint256"
				}
			],
			"name": "getApproved",
			"outputs": [
				{
					"internalType": "address",
					"name": "",
					"type": "address"
				}
			],
			"stateMutability": "view",
			"type": "function"
		},
		{
			"inputs": [],
			"name": "getBasicLifetimePrice",
			"outputs": [
				{
					"internalType": "uint256",
					"name": "",
					"type": "uint256"
				}
			],
			"stateMutability": "view",
			"type": "function"
		},
		{
			"inputs": [],
			"name": "getBasicYearPrice",
			"outputs": [
				{
					"internalType": "uint256",
					"name": "",
					"type": "uint256"
				}
			],
			"stateMutability": "view",
			"type": "function"
		},
		{
			"inputs": [
				{
					"internalType": "bytes32",
					"name": "node",
					"type": "bytes32"
				}
			],
			"name": "getExpiry",
			"outputs": [
				{
					"internalType": "uint256",
					"name": "expiry",
					"type": "uint256"
				},
				{
					"internalType": "bool",
					"name": "isLifetime",
					"type": "bool"
				},
				{
					"internalType": "bool",
					"name": "inGrace",
					"type": "bool"
				}
			],
			"stateMutability": "view",
			"type": "function"
		},
		{
			"inputs": [],
			"name": "getNamespaceLifetimePrice",
			"outputs": [
				{
					"internalType": "uint256",
					"name": "",
					"type": "uint256"
				}
			],
			"stateMutability": "view",
			"type": "function"
		},
		{
			"inputs": [],
			"name": "getNamespaceYearPrice",
			"outputs": [
				{
					"internalType": "uint256",
					"name": "",
					"type": "uint256"
				}
			],
			"stateMutability": "view",
			"type": "function"
		},
		{
			"inputs": [],
			"name": "getOraclePrice",
			"outputs": [
				{
					"internalType": "uint256",
					"name": "etnUsd",
					"type": "uint256"
				},
				{
					"internalType": "bool",
					"name": "valid",
					"type": "bool"
				}
			],
			"stateMutability": "view",
			"type": "function"
		},
		{
			"inputs": [
				{
					"internalType": "bytes32",
					"name": "node",
					"type": "bytes32"
				}
			],
			"name": "getOwner",
			"outputs": [
				{
					"internalType": "address",
					"name": "",
					"type": "address"
				}
			],
			"stateMutability": "view",
			"type": "function"
		},
		{
			"inputs": [
				{
					"internalType": "string",
					"name": "project",
					"type": "string"
				}
			],
			"name": "getProjectCreator",
			"outputs": [
				{
					"internalType": "address",
					"name": "",
					"type": "address"
				}
			],
			"stateMutability": "view",
			"type": "function"
		},
		{
			"inputs": [],
			"name": "getProjectNameLifetimePrice",
			"outputs": [
				{
					"internalType": "uint256",
					"name": "",
					"type": "uint256"
				}
			],
			"stateMutability": "view",
			"type": "function"
		},
		{
			"inputs": [],
			"name": "getProjectNameYearPrice",
			"outputs": [
				{
					"internalType": "uint256",
					"name": "",
					"type": "uint256"
				}
			],
			"stateMutability": "view",
			"type": "function"
		},
		{
			"inputs": [],
			"name": "imageOperator",
			"outputs": [
				{
					"internalType": "address",
					"name": "",
					"type": "address"
				}
			],
			"stateMutability": "view",
			"type": "function"
		},
		{
			"inputs": [
				{
					"internalType": "bytes32",
					"name": "node",
					"type": "bytes32"
				}
			],
			"name": "isActive",
			"outputs": [
				{
					"internalType": "bool",
					"name": "",
					"type": "bool"
				}
			],
			"stateMutability": "view",
			"type": "function"
		},
		{
			"inputs": [
				{
					"internalType": "address",
					"name": "owner",
					"type": "address"
				},
				{
					"internalType": "address",
					"name": "operator",
					"type": "address"
				}
			],
			"name": "isApprovedForAll",
			"outputs": [
				{
					"internalType": "bool",
					"name": "",
					"type": "bool"
				}
			],
			"stateMutability": "view",
			"type": "function"
		},
		{
			"inputs": [
				{
					"internalType": "string",
					"name": "name",
					"type": "string"
				}
			],
			"name": "isAvailableBasic",
			"outputs": [
				{
					"internalType": "bool",
					"name": "",
					"type": "bool"
				}
			],
			"stateMutability": "view",
			"type": "function"
		},
		{
			"inputs": [
				{
					"internalType": "string",
					"name": "name",
					"type": "string"
				},
				{
					"internalType": "string",
					"name": "project",
					"type": "string"
				}
			],
			"name": "isAvailableProject",
			"outputs": [
				{
					"internalType": "bool",
					"name": "",
					"type": "bool"
				}
			],
			"stateMutability": "view",
			"type": "function"
		},
		{
			"inputs": [
				{
					"internalType": "string",
					"name": "project",
					"type": "string"
				}
			],
			"name": "isNamespaceAvailable",
			"outputs": [
				{
					"internalType": "bool",
					"name": "",
					"type": "bool"
				}
			],
			"stateMutability": "view",
			"type": "function"
		},
		{
			"inputs": [],
			"name": "name",
			"outputs": [
				{
					"internalType": "string",
					"name": "",
					"type": "string"
				}
			],
			"stateMutability": "view",
			"type": "function"
		},
		{
			"inputs": [],
			"name": "namespaceLifetimeUsdPrice",
			"outputs": [
				{
					"internalType": "uint256",
					"name": "",
					"type": "uint256"
				}
			],
			"stateMutability": "view",
			"type": "function"
		},
		{
			"inputs": [
				{
					"internalType": "bytes32",
					"name": "",
					"type": "bytes32"
				}
			],
			"name": "namespaceProjectLifetimePrice",
			"outputs": [
				{
					"internalType": "uint256",
					"name": "",
					"type": "uint256"
				}
			],
			"stateMutability": "view",
			"type": "function"
		},
		{
			"inputs": [
				{
					"internalType": "bytes32",
					"name": "",
					"type": "bytes32"
				}
			],
			"name": "namespaceProjectYearPrice",
			"outputs": [
				{
					"internalType": "uint256",
					"name": "",
					"type": "uint256"
				}
			],
			"stateMutability": "view",
			"type": "function"
		},
		{
			"inputs": [],
			"name": "namespaceYearUsdPrice",
			"outputs": [
				{
					"internalType": "uint256",
					"name": "",
					"type": "uint256"
				}
			],
			"stateMutability": "view",
			"type": "function"
		},
		{
			"inputs": [
				{
					"internalType": "bytes32",
					"name": "",
					"type": "bytes32"
				}
			],
			"name": "nodeImageURI",
			"outputs": [
				{
					"internalType": "string",
					"name": "",
					"type": "string"
				}
			],
			"stateMutability": "view",
			"type": "function"
		},
		{
			"inputs": [
				{
					"internalType": "bytes32",
					"name": "",
					"type": "bytes32"
				}
			],
			"name": "nodeType",
			"outputs": [
				{
					"internalType": "uint8",
					"name": "",
					"type": "uint8"
				}
			],
			"stateMutability": "view",
			"type": "function"
		},
		{
			"inputs": [],
			"name": "owner",
			"outputs": [
				{
					"internalType": "address",
					"name": "",
					"type": "address"
				}
			],
			"stateMutability": "view",
			"type": "function"
		},
		{
			"inputs": [
				{
					"internalType": "address",
					"name": "",
					"type": "address"
				}
			],
			"name": "ownerAccruedFees",
			"outputs": [
				{
					"internalType": "uint256",
					"name": "",
					"type": "uint256"
				}
			],
			"stateMutability": "view",
			"type": "function"
		},
		{
			"inputs": [
				{
					"internalType": "uint256",
					"name": "tokenId",
					"type": "uint256"
				}
			],
			"name": "ownerOf",
			"outputs": [
				{
					"internalType": "address",
					"name": "",
					"type": "address"
				}
			],
			"stateMutability": "view",
			"type": "function"
		},
		{
			"inputs": [
				{
					"internalType": "bytes32",
					"name": "",
					"type": "bytes32"
				}
			],
			"name": "parentProject",
			"outputs": [
				{
					"internalType": "string",
					"name": "",
					"type": "string"
				}
			],
			"stateMutability": "view",
			"type": "function"
		},
		{
			"inputs": [],
			"name": "placeholderImageURI",
			"outputs": [
				{
					"internalType": "string",
					"name": "",
					"type": "string"
				}
			],
			"stateMutability": "view",
			"type": "function"
		},
		{
			"inputs": [],
			"name": "priceFeed",
			"outputs": [
				{
					"internalType": "contract AggregatorV3Interface",
					"name": "",
					"type": "address"
				}
			],
			"stateMutability": "view",
			"type": "function"
		},
		{
			"inputs": [
				{
					"internalType": "bytes32",
					"name": "",
					"type": "bytes32"
				}
			],
			"name": "projectCreator",
			"outputs": [
				{
					"internalType": "address",
					"name": "",
					"type": "address"
				}
			],
			"stateMutability": "view",
			"type": "function"
		},
		{
			"inputs": [
				{
					"internalType": "bytes32",
					"name": "",
					"type": "bytes32"
				}
			],
			"name": "projectExists",
			"outputs": [
				{
					"internalType": "bool",
					"name": "",
					"type": "bool"
				}
			],
			"stateMutability": "view",
			"type": "function"
		},
		{
			"inputs": [
				{
					"internalType": "bytes32",
					"name": "",
					"type": "bytes32"
				}
			],
			"name": "projectExpiresAt",
			"outputs": [
				{
					"internalType": "uint256",
					"name": "",
					"type": "uint256"
				}
			],
			"stateMutability": "view",
			"type": "function"
		},
		{
			"inputs": [],
			"name": "projectLifetimeUsdPrice",
			"outputs": [
				{
					"internalType": "uint256",
					"name": "",
					"type": "uint256"
				}
			],
			"stateMutability": "view",
			"type": "function"
		},
		{
			"inputs": [],
			"name": "projectNameBurnSharePercent",
			"outputs": [
				{
					"internalType": "uint256",
					"name": "",
					"type": "uint256"
				}
			],
			"stateMutability": "view",
			"type": "function"
		},
		{
			"inputs": [],
			"name": "projectNameOwnerSharePercent",
			"outputs": [
				{
					"internalType": "uint256",
					"name": "",
					"type": "uint256"
				}
			],
			"stateMutability": "view",
			"type": "function"
		},
		{
			"inputs": [],
			"name": "projectYearUsdPrice",
			"outputs": [
				{
					"internalType": "uint256",
					"name": "",
					"type": "uint256"
				}
			],
			"stateMutability": "view",
			"type": "function"
		},
		{
			"inputs": [
				{
					"internalType": "string",
					"name": "name",
					"type": "string"
				},
				{
					"internalType": "address",
					"name": "resolver",
					"type": "address"
				},
				{
					"internalType": "bool",
					"name": "lifetime",
					"type": "bool"
				}
			],
			"name": "registerBasic",
			"outputs": [],
			"stateMutability": "payable",
			"type": "function"
		},
		{
			"inputs": [
				{
					"internalType": "string",
					"name": "name",
					"type": "string"
				},
				{
					"internalType": "string",
					"name": "project",
					"type": "string"
				},
				{
					"internalType": "address",
					"name": "resolver",
					"type": "address"
				},
				{
					"internalType": "bool",
					"name": "lifetime",
					"type": "bool"
				}
			],
			"name": "registerProject",
			"outputs": [],
			"stateMutability": "payable",
			"type": "function"
		},
		{
			"inputs": [],
			"name": "registry",
			"outputs": [
				{
					"internalType": "contract ETNRegistry",
					"name": "",
					"type": "address"
				}
			],
			"stateMutability": "view",
			"type": "function"
		},
		{
			"inputs": [
				{
					"internalType": "bytes32",
					"name": "node",
					"type": "bytes32"
				}
			],
			"name": "renew",
			"outputs": [],
			"stateMutability": "payable",
			"type": "function"
		},
		{
			"inputs": [
				{
					"internalType": "string",
					"name": "project",
					"type": "string"
				}
			],
			"name": "renewProject",
			"outputs": [],
			"stateMutability": "payable",
			"type": "function"
		},
		{
			"inputs": [
				{
					"internalType": "bytes32",
					"name": "node",
					"type": "bytes32"
				},
				{
					"internalType": "address",
					"name": "resolverAddr",
					"type": "address"
				}
			],
			"name": "resolveIfActive",
			"outputs": [
				{
					"internalType": "address",
					"name": "",
					"type": "address"
				}
			],
			"stateMutability": "view",
			"type": "function"
		},
		{
			"inputs": [],
			"name": "router",
			"outputs": [
				{
					"internalType": "contract IUniswapV2Router",
					"name": "",
					"type": "address"
				}
			],
			"stateMutability": "view",
			"type": "function"
		},
		{
			"inputs": [
				{
					"internalType": "address",
					"name": "from",
					"type": "address"
				},
				{
					"internalType": "address",
					"name": "to",
					"type": "address"
				},
				{
					"internalType": "uint256",
					"name": "tokenId",
					"type": "uint256"
				}
			],
			"name": "safeTransferFrom",
			"outputs": [],
			"stateMutability": "nonpayable",
			"type": "function"
		},
		{
			"inputs": [
				{
					"internalType": "address",
					"name": "from",
					"type": "address"
				},
				{
					"internalType": "address",
					"name": "to",
					"type": "address"
				},
				{
					"internalType": "uint256",
					"name": "tokenId",
					"type": "uint256"
				},
				{
					"internalType": "bytes",
					"name": "data",
					"type": "bytes"
				}
			],
			"name": "safeTransferFrom",
			"outputs": [],
			"stateMutability": "nonpayable",
			"type": "function"
		},
		{
			"inputs": [
				{
					"internalType": "address",
					"name": "operator",
					"type": "address"
				},
				{
					"internalType": "bool",
					"name": "approved",
					"type": "bool"
				}
			],
			"name": "setApprovalForAll",
			"outputs": [],
			"stateMutability": "nonpayable",
			"type": "function"
		},
		{
			"inputs": [
				{
					"internalType": "uint256",
					"name": "_year",
					"type": "uint256"
				},
				{
					"internalType": "uint256",
					"name": "_lifetime",
					"type": "uint256"
				}
			],
			"name": "setBasicFallbackPrices",
			"outputs": [],
			"stateMutability": "nonpayable",
			"type": "function"
		},
		{
			"inputs": [
				{
					"internalType": "uint256",
					"name": "_year",
					"type": "uint256"
				},
				{
					"internalType": "uint256",
					"name": "_lifetime",
					"type": "uint256"
				}
			],
			"name": "setBasicUsdPrices",
			"outputs": [],
			"stateMutability": "nonpayable",
			"type": "function"
		},
		{
			"inputs": [
				{
					"internalType": "address",
					"name": "_token",
					"type": "address"
				}
			],
			"name": "setCoreToken",
			"outputs": [],
			"stateMutability": "nonpayable",
			"type": "function"
		},
		{
			"inputs": [
				{
					"internalType": "address",
					"name": "_resolver",
					"type": "address"
				}
			],
			"name": "setDefaultResolver",
			"outputs": [],
			"stateMutability": "nonpayable",
			"type": "function"
		},
		{
			"inputs": [
				{
					"internalType": "address",
					"name": "_operator",
					"type": "address"
				}
			],
			"name": "setImageOperator",
			"outputs": [],
			"stateMutability": "nonpayable",
			"type": "function"
		},
		{
			"inputs": [
				{
					"internalType": "uint256",
					"name": "_year",
					"type": "uint256"
				},
				{
					"internalType": "uint256",
					"name": "_lifetime",
					"type": "uint256"
				}
			],
			"name": "setNamespaceFallbackPrices",
			"outputs": [],
			"stateMutability": "nonpayable",
			"type": "function"
		},
		{
			"inputs": [
				{
					"internalType": "string",
					"name": "project",
					"type": "string"
				},
				{
					"internalType": "uint256",
					"name": "yearPrice",
					"type": "uint256"
				},
				{
					"internalType": "uint256",
					"name": "lifetimePrice",
					"type": "uint256"
				}
			],
			"name": "setNamespacePrice",
			"outputs": [],
			"stateMutability": "nonpayable",
			"type": "function"
		},
		{
			"inputs": [
				{
					"internalType": "uint256",
					"name": "_year",
					"type": "uint256"
				},
				{
					"internalType": "uint256",
					"name": "_lifetime",
					"type": "uint256"
				}
			],
			"name": "setNamespaceUsdPrices",
			"outputs": [],
			"stateMutability": "nonpayable",
			"type": "function"
		},
		{
			"inputs": [
				{
					"internalType": "bytes32",
					"name": "node",
					"type": "bytes32"
				},
				{
					"internalType": "string",
					"name": "uri",
					"type": "string"
				}
			],
			"name": "setNodeImage",
			"outputs": [],
			"stateMutability": "nonpayable",
			"type": "function"
		},
		{
			"inputs": [
				{
					"internalType": "string",
					"name": "uri",
					"type": "string"
				}
			],
			"name": "setPlaceholderImage",
			"outputs": [],
			"stateMutability": "nonpayable",
			"type": "function"
		},
		{
			"inputs": [
				{
					"internalType": "address",
					"name": "_feed",
					"type": "address"
				}
			],
			"name": "setPriceFeed",
			"outputs": [],
			"stateMutability": "nonpayable",
			"type": "function"
		},
		{
			"inputs": [
				{
					"internalType": "uint256",
					"name": "_year",
					"type": "uint256"
				},
				{
					"internalType": "uint256",
					"name": "_lifetime",
					"type": "uint256"
				}
			],
			"name": "setProjectNameFallbackPrices",
			"outputs": [],
			"stateMutability": "nonpayable",
			"type": "function"
		},
		{
			"inputs": [
				{
					"internalType": "uint256",
					"name": "ownerPercent",
					"type": "uint256"
				},
				{
					"internalType": "uint256",
					"name": "burnPercent",
					"type": "uint256"
				}
			],
			"name": "setProjectNameSplit",
			"outputs": [],
			"stateMutability": "nonpayable",
			"type": "function"
		},
		{
			"inputs": [
				{
					"internalType": "uint256",
					"name": "_year",
					"type": "uint256"
				},
				{
					"internalType": "uint256",
					"name": "_lifetime",
					"type": "uint256"
				}
			],
			"name": "setProjectNameUsdPrices",
			"outputs": [],
			"stateMutability": "nonpayable",
			"type": "function"
		},
		{
			"inputs": [
				{
					"internalType": "bytes4",
					"name": "interfaceId",
					"type": "bytes4"
				}
			],
			"name": "supportsInterface",
			"outputs": [
				{
					"internalType": "bool",
					"name": "",
					"type": "bool"
				}
			],
			"stateMutability": "view",
			"type": "function"
		},
		{
			"inputs": [],
			"name": "symbol",
			"outputs": [
				{
					"internalType": "string",
					"name": "",
					"type": "string"
				}
			],
			"stateMutability": "view",
			"type": "function"
		},
		{
			"inputs": [
				{
					"internalType": "uint256",
					"name": "tokenId",
					"type": "uint256"
				}
			],
			"name": "tokenURI",
			"outputs": [
				{
					"internalType": "string",
					"name": "",
					"type": "string"
				}
			],
			"stateMutability": "view",
			"type": "function"
		},
		{
			"inputs": [
				{
					"internalType": "address",
					"name": "from",
					"type": "address"
				},
				{
					"internalType": "address",
					"name": "to",
					"type": "address"
				},
				{
					"internalType": "uint256",
					"name": "tokenId",
					"type": "uint256"
				}
			],
			"name": "transferFrom",
			"outputs": [],
			"stateMutability": "nonpayable",
			"type": "function"
		},
		{
			"inputs": [
				{
					"internalType": "address",
					"name": "newOwner",
					"type": "address"
				}
			],
			"name": "transferOwnership",
			"outputs": [],
			"stateMutability": "nonpayable",
			"type": "function"
		},
		{
			"inputs": [
				{
					"internalType": "address payable",
					"name": "to",
					"type": "address"
				}
			],
			"name": "withdrawFees",
			"outputs": [],
			"stateMutability": "nonpayable",
			"type": "function"
		},
		{
			"inputs": [],
			"name": "withdrawNamespaceFees",
			"outputs": [],
			"stateMutability": "nonpayable",
			"type": "function"
		},
		{
			"stateMutability": "payable",
			"type": "receive"
		}
	]
}