{
	"data": {
		"bytecode": {
			"linkReferences": {},
			"object": "608060405234801561001057600080fd5b5060008080526020527fad3228b676f7d3cd4284a5443f17f1962b36e491b30a40b2405849e597ba5fb580546001600160a01b03191633179055610b6d806100596000396000f3fe608060405234801561001057600080fd5b50600436106100b45760003560e01c80635b0fc9c3116100715780635b0fc9c3146101c15780635ef2c7f0146101d4578063b0698628146101e7578063bc053e7314610230578063cf40882314610243578063f79fe5381461025657600080fd5b80630178b8bf146100b957806302571be31461010257806306ab59231461012b57806314ab90381461014c57806316a25cbd146101615780631896f70a146101ae575b600080fd5b6100e56100c7366004610946565b6000908152602081905260409020600101546001600160a01b031690565b6040516001600160a01b0390911681526020015b60405180910390f35b6100e5610110366004610946565b6000908152602081905260409020546001600160a01b031690565b61013e61013936600461097b565b610281565b6040519081526020016100f9565b61015f61015a3660046109c8565b610366565b005b61019561016f366004610946565b600090815260208190526040902060010154600160a01b900467ffffffffffffffff1690565b60405167ffffffffffffffff90911681526020016100f9565b61015f6101bc3660046109f4565b610439565b61015f6101cf3660046109f4565b6104f4565b61013e6101e2366004610a17565b610596565b6102206101f53660046109f4565b60009182526001602090815260408084206001600160a01b0393909316845291905290205460ff1690565b60405190151581526020016100f9565b61015f61023e366004610a6e565b61072c565b61015f610251366004610ab3565b6107f6565b610220610264366004610946565b6000908152602081905260409020546001600160a01b0316151590565b60008381526020819052604081205484906001600160a01b0316338114806102c25750600082815260016020908152604080832033845290915290205460ff165b6102e75760405162461bcd60e51b81526004016102de90610b00565b60405180910390fd5b604080516020810188905290810186905260600160405160208183030381529060405280519060200120925061031d8385610918565b6040516001600160a01b0385168152859087907fce0457fe73731f824cc272376169235128c118b49d344817417c6d108d155e829060200160405180910390a350509392505050565b60008281526020819052604090205482906001600160a01b0316338114806103a75750600082815260016020908152604080832033845290915290205460ff165b6103c35760405162461bcd60e51b81526004016102de90610b00565b60008481526020818152604091829020600101805467ffffffffffffffff60a01b1916600160a01b67ffffffffffffffff881690810291909117909155915191825285917f1d4f9bbfc9cab89d66e1a1562f2233ccbf1308cb4f63de2ead5787adddb8fa6891015b60405180910390a250505050565b60008281526020819052604090205482906001600160a01b03163381148061047a5750600082815260016020908152604080832033845290915290205460ff165b6104965760405162461bcd60e51b81526004016102de90610b00565b6000848152602081815260409182902060010180546001600160a01b0319166001600160a01b038716908117909155915191825285917f335721b01866dc23fbee8b6b2c7b1e14d6f05c28cd35a2c934239f94095602a0910161042b565b60008281526020819052604090205482906001600160a01b0316338114806105355750600082815260016020908152604080832033845290915290205460ff165b6105515760405162461bcd60e51b81526004016102de90610b00565b61055b8484610918565b6040516001600160a01b038416815284907fd4735d920b0f87494915f556dd9b54c8f309026070caea5c737245152564d2669060200161042b565b60008581526020819052604081205486906001600160a01b0316338114806105d75750600082815260016020908152604080832033845290915290205460ff165b6105f35760405162461bcd60e51b81526004016102de90610b00565b60408051602081018a90529081018890526060016040516020818303038152906040528051906020012092506106298387610918565b6000838152602081815260409182902060010180546001600160a01b038981166001600160e01b031990921691909117600160a01b67ffffffffffffffff8a1602179091559151918816825288918a917fce0457fe73731f824cc272376169235128c118b49d344817417c6d108d155e82910160405180910390a36040516001600160a01b038616815283907f335721b01866dc23fbee8b6b2c7b1e14d6f05c28cd35a2c934239f94095602a09060200160405180910390a260405167ffffffffffffffff8516815283907f1d4f9bbfc9cab89d66e1a1562f2233ccbf1308cb4f63de2ead5787adddb8fa689060200160405180910390a2505095945050505050565b6000838152602081905260409020546001600160a01b0316331461078b5760405162461bcd60e51b815260206004820152601660248201527522aa272932b3b4b9ba393c9d103737ba1037bbb732b960511b60448201526064016102de565b60008381526001602090815260408083206001600160a01b03861680855290835292819020805460ff1916851515908117909155905190815233917f17307eab39ab6107e8899845ad3d59bd9653f200f220920489ca2b5937696c31910160405180910390a3505050565b60008481526020819052604090205484906001600160a01b0316338114806108375750600082815260016020908152604080832033845290915290205460ff165b6108535760405162461bcd60e51b81526004016102de90610b00565b61085d8686610918565b6000868152602081815260409182902060010180546001600160a01b0388166001600160e01b03199091168117600160a01b67ffffffffffffffff89160217909155915191825287917f335721b01866dc23fbee8b6b2c7b1e14d6f05c28cd35a2c934239f94095602a0910160405180910390a260405167ffffffffffffffff8416815286907f1d4f9bbfc9cab89d66e1a1562f2233ccbf1308cb4f63de2ead5787adddb8fa689060200160405180910390a2505050505050565b60009182526020829052604090912080546001600160a01b0319166001600160a01b03909216919091179055565b60006020828403121561095857600080fd5b5035919050565b80356001600160a01b038116811461097657600080fd5b919050565b60008060006060848603121561099057600080fd5b83359250602084013591506109a76040850161095f565b90509250925092565b803567ffffffffffffffff8116811461097657600080fd5b600080604083850312156109db57600080fd5b823591506109eb602084016109b0565b90509250929050565b60008060408385031215610a0757600080fd5b823591506109eb6020840161095f565b600080600080600060a08688031215610a2f57600080fd5b8535945060208601359350610a466040870161095f565b9250610a546060870161095f565b9150610a62608087016109b0565b90509295509295909350565b600080600060608486031215610a8357600080fd5b83359250610a936020850161095f565b915060408401358015158114610aa857600080fd5b809150509250925092565b60008060008060808587031215610ac957600080fd5b84359350610ad96020860161095f565b9250610ae76040860161095f565b9150610af5606086016109b0565b905092959194509250565b6020808252601b908201527f45544e52656769737472793a206e6f7420617574686f7269736564000000000060408201526060019056fea26469706673582212204144fffc81e4ecb6b2d9c9b83636ae9da1b1700a8eb47709c8810792b67b73a264736f6c63430008140033",
			"opcodes": "PUSH1 0x80 PUSH1 0x40 MSTORE CALLVALUE DUP1 ISZERO PUSH2 0x10 JUMPI PUSH1 0x0 DUP1 REVERT JUMPDEST POP PUSH1 0x0 DUP1 DUP1 MSTORE PUSH1 0x20 MSTORE PUSH32 0xAD3228B676F7D3CD4284A5443F17F1962B36E491B30A40B2405849E597BA5FB5 DUP1 SLOAD PUSH1 0x1 PUSH1 0x1 PUSH1 0xA0 SHL SUB NOT AND CALLER OR SWAP1 SSTORE PUSH2 0xB6D DUP1 PUSH2 0x59 PUSH1 0x0 CODECOPY PUSH1 0x0 RETURN INVALID PUSH1 0x80 PUSH1 0x40 MSTORE CALLVALUE DUP1 ISZERO PUSH2 0x10 JUMPI PUSH1 0x0 DUP1 REVERT JUMPDEST POP PUSH1 0x4 CALLDATASIZE LT PUSH2 0xB4 JUMPI PUSH1 0x0 CALLDATALOAD PUSH1 0xE0 SHR DUP1 PUSH4 0x5B0FC9C3 GT PUSH2 0x71 JUMPI DUP1 PUSH4 0x5B0FC9C3 EQ PUSH2 0x1C1 JUMPI DUP1 PUSH4 0x5EF2C7F0 EQ PUSH2 0x1D4 JUMPI DUP1 PUSH4 0xB0698628 EQ PUSH2 0x1E7 JUMPI DUP1 PUSH4 0xBC053E73 EQ PUSH2 0x230 JUMPI DUP1 PUSH4 0xCF408823 EQ PUSH2 0x243 JUMPI DUP1 PUSH4 0xF79FE538 EQ PUSH2 0x256 JUMPI PUSH1 0x0 DUP1 REVERT JUMPDEST DUP1 PUSH4 0x178B8BF EQ PUSH2 0xB9 JUMPI DUP1 PUSH4 0x2571BE3 EQ PUSH2 0x102 JUMPI DUP1 PUSH4 0x6AB5923 EQ PUSH2 0x12B JUMPI DUP1 PUSH4 0x14AB9038 EQ PUSH2 0x14C JUMPI DUP1 PUSH4 0x16A25CBD EQ PUSH2 0x161 JUMPI DUP1 PUSH4 0x1896F70A EQ PUSH2 0x1AE JUMPI JUMPDEST PUSH1 0x0 DUP1 REVERT JUMPDEST PUSH2 0xE5 PUSH2 0xC7 CALLDATASIZE PUSH1 0x4 PUSH2 0x946 JUMP JUMPDEST PUSH1 0x0 SWAP1 DUP2 MSTORE PUSH1 0x20 DUP2 SWAP1 MSTORE PUSH1 0x40 SWAP1 KECCAK256 PUSH1 0x1 ADD SLOAD PUSH1 0x1 PUSH1 0x1 PUSH1 0xA0 SHL SUB AND SWAP1 JUMP JUMPDEST PUSH1 0x40 MLOAD PUSH1 0x1 PUSH1 0x1 PUSH1 0xA0 SHL SUB SWAP1 SWAP2 AND DUP2 MSTORE PUSH1 0x20 ADD JUMPDEST PUSH1 0x40 MLOAD DUP1 SWAP2 SUB SWAP1 RETURN JUMPDEST PUSH2 0xE5 PUSH2 0x110 CALLDATASIZE PUSH1 0x4 PUSH2 0x946 JUMP JUMPDEST PUSH1 0x0 SWAP1 DUP2 MSTORE PUSH1 0x20 DUP2 SWAP1 MSTORE PUSH1 0x40 SWAP1 KECCAK256 SLOAD PUSH1 0x1 PUSH1 0x1 PUSH1 0xA0 SHL SUB AND SWAP1 JUMP JUMPDEST PUSH2 0x13E PUSH2 0x139 CALLDATASIZE PUSH1 0x4 PUSH2 0x97B JUMP JUMPDEST PUSH2 0x281 JUMP JUMPDEST PUSH1 0x40 MLOAD SWAP1 DUP2 MSTORE PUSH1 0x20 ADD PUSH2 0xF9 JUMP JUMPDEST PUSH2 0x15F PUSH2 0x15A CALLDATASIZE PUSH1 0x4 PUSH2 0x9C8 JUMP JUMPDEST PUSH2 0x366 JUMP JUMPDEST STOP JUMPDEST PUSH2 0x195 PUSH2 0x16F CALLDATASIZE PUSH1 0x4 PUSH2 0x946 JUMP JUMPDEST PUSH1 0x0 SWAP1 DUP2 MSTORE PUSH1 0x20 DUP2 SWAP1 MSTORE PUSH1 0x40 SWAP1 KECCAK256 PUSH1 0x1 ADD SLOAD PUSH1 0x1 PUSH1 0xA0 SHL SWAP1 DIV PUSH8 0xFFFFFFFFFFFFFFFF AND SWAP1 JUMP JUMPDEST PUSH1 0x40 MLOAD PUSH8 0xFFFFFFFFFFFFFFFF SWAP1 SWAP2 AND DUP2 MSTORE PUSH1 0x20 ADD PUSH2 0xF9 JUMP JUMPDEST PUSH2 0x15F PUSH2 0x1BC CALLDATASIZE PUSH1 0x4 PUSH2 0x9F4 JUMP JUMPDEST PUSH2 0x439 JUMP JUMPDEST PUSH2 0x15F PUSH2 0x1CF CALLDATASIZE PUSH1 0x4 PUSH2 0x9F4 JUMP JUMPDEST PUSH2 0x4F4 JUMP JUMPDEST PUSH2 0x13E PUSH2 0x1E2 CALLDATASIZE PUSH1 0x4 PUSH2 0xA17 JUMP JUMPDEST PUSH2 0x596 JUMP JUMPDEST PUSH2 0x220 PUSH2 0x1F5 CALLDATASIZE PUSH1 0x4 PUSH2 0x9F4 JUMP JUMPDEST PUSH1 0x0 SWAP2 DUP3 MSTORE PUSH1 0x1 PUSH1 0x20 SWAP1 DUP2 MSTORE PUSH1 0x40 DUP1 DUP5 KECCAK256 PUSH1 0x1 PUSH1 0x1 PUSH1 0xA0 SHL SUB SWAP4 SWAP1 SWAP4 AND DUP5 MSTORE SWAP2 SWAP1 MSTORE SWAP1 KECCAK256 SLOAD PUSH1 0xFF AND SWAP1 JUMP JUMPDEST PUSH1 0x40 MLOAD SWAP1 ISZERO ISZERO DUP2 MSTORE PUSH1 0x20 ADD PUSH2 0xF9 JUMP JUMPDEST PUSH2 0x15F PUSH2 0x23E CALLDATASIZE PUSH1 0x4 PUSH2 0xA6E JUMP JUMPDEST PUSH2 0x72C JUMP JUMPDEST PUSH2 0x15F PUSH2 0x251 CALLDATASIZE PUSH1 0x4 PUSH2 0xAB3 JUMP JUMPDEST PUSH2 0x7F6 JUMP JUMPDEST PUSH2 0x220 PUSH2 0x264 CALLDATASIZE PUSH1 0x4 PUSH2 0x946 JUMP JUMPDEST PUSH1 0x0 SWAP1 DUP2 MSTORE PUSH1 0x20 DUP2 SWAP1 MSTORE PUSH1 0x40 SWAP1 KECCAK256 SLOAD PUSH1 0x1 PUSH1 0x1 PUSH1 0xA0 SHL SUB AND ISZERO ISZERO SWAP1 JUMP JUMPDEST PUSH1 0x0 DUP4 DUP2 MSTORE PUSH1 0x20 DUP2 SWAP1 MSTORE PUSH1 0x40 DUP2 KECCAK256 SLOAD DUP5 SWAP1 PUSH1 0x1 PUSH1 0x1 PUSH1 0xA0 SHL SUB AND CALLER DUP2 EQ DUP1 PUSH2 0x2C2 JUMPI POP PUSH1 0x0 DUP3 DUP2 MSTORE PUSH1 0x1 PUSH1 0x20 SWAP1 DUP2 MSTORE PUSH1 0x40 DUP1 DUP4 KECCAK256 CALLER DUP5 MSTORE SWAP1 SWAP2 MSTORE SWAP1 KECCAK256 SLOAD PUSH1 0xFF AND JUMPDEST PUSH2 0x2E7 JUMPI PUSH1 0x40 MLOAD PUSH3 0x461BCD PUSH1 0xE5 SHL DUP2 MSTORE PUSH1 0x4 ADD PUSH2 0x2DE SWAP1 PUSH2 0xB00 JUMP JUMPDEST PUSH1 0x40 MLOAD DUP1 SWAP2 SUB SWAP1 REVERT JUMPDEST PUSH1 0x40 DUP1 MLOAD PUSH1 0x20 DUP2 ADD DUP9 SWAP1 MSTORE SWAP1 DUP2 ADD DUP7 SWAP1 MSTORE PUSH1 0x60 ADD PUSH1 0x40 MLOAD PUSH1 0x20 DUP2 DUP4 SUB SUB DUP2 MSTORE SWAP1 PUSH1 0x40 MSTORE DUP1 MLOAD SWAP1 PUSH1 0x20 ADD KECCAK256 SWAP3 POP PUSH2 0x31D DUP4 DUP6 PUSH2 0x918 JUMP JUMPDEST PUSH1 0x40 MLOAD PUSH1 0x1 PUSH1 0x1 PUSH1 0xA0 SHL SUB DUP6 AND DUP2 MSTORE DUP6 SWAP1 DUP8 SWAP1 PUSH32 0xCE0457FE73731F824CC272376169235128C118B49D344817417C6D108D155E82 SWAP1 PUSH1 0x20 ADD PUSH1 0x40 MLOAD DUP1 SWAP2 SUB SWAP1 LOG3 POP POP SWAP4 SWAP3 POP POP POP JUMP JUMPDEST PUSH1 0x0 DUP3 DUP2 MSTORE PUSH1 0x20 DUP2 SWAP1 MSTORE PUSH1 0x40 SWAP1 KECCAK256 SLOAD DUP3 SWAP1 PUSH1 0x1 PUSH1 0x1 PUSH1 0xA0 SHL SUB AND CALLER DUP2 EQ DUP1 PUSH2 0x3A7 JUMPI POP PUSH1 0x0 DUP3 DUP2 MSTORE PUSH1 0x1 PUSH1 0x20 SWAP1 DUP2 MSTORE PUSH1 0x40 DUP1 DUP4 KECCAK256 CALLER DUP5 MSTORE SWAP1 SWAP2 MSTORE SWAP1 KECCAK256 SLOAD PUSH1 0xFF AND JUMPDEST PUSH2 0x3C3 JUMPI PUSH1 0x40 MLOAD PUSH3 0x461BCD PUSH1 0xE5 SHL DUP2 MSTORE PUSH1 0x4 ADD PUSH2 0x2DE SWAP1 PUSH2 0xB00 JUMP JUMPDEST PUSH1 0x0 DUP5 DUP2 MSTORE PUSH1 0x20 DUP2 DUP2 MSTORE PUSH1 0x40 SWAP2 DUP3 SWAP1 KECCAK256 PUSH1 0x1 ADD DUP1 SLOAD PUSH8 0xFFFFFFFFFFFFFFFF PUSH1 0xA0 SHL NOT AND PUSH1 0x1 PUSH1 0xA0 SHL PUSH8 0xFFFFFFFFFFFFFFFF DUP9 AND SWAP1 DUP2 MUL SWAP2 SWAP1 SWAP2 OR SWAP1 SWAP2 SSTORE SWAP2 MLOAD SWAP2 DUP3 MSTORE DUP6 SWAP2 PUSH32 0x1D4F9BBFC9CAB89D66E1A1562F2233CCBF1308CB4F63DE2EAD5787ADDDB8FA68 SWAP2 ADD JUMPDEST PUSH1 0x40 MLOAD DUP1 SWAP2 SUB SWAP1 LOG2 POP POP POP POP JUMP JUMPDEST PUSH1 0x0 DUP3 DUP2 MSTORE PUSH1 0x20 DUP2 SWAP1 MSTORE PUSH1 0x40 SWAP1 KECCAK256 SLOAD DUP3 SWAP1 PUSH1 0x1 PUSH1 0x1 PUSH1 0xA0 SHL SUB AND CALLER DUP2 EQ DUP1 PUSH2 0x47A JUMPI POP PUSH1 0x0 DUP3 DUP2 MSTORE PUSH1 0x1 PUSH1 0x20 SWAP1 DUP2 MSTORE PUSH1 0x40 DUP1 DUP4 KECCAK256 CALLER DUP5 MSTORE SWAP1 SWAP2 MSTORE SWAP1 KECCAK256 SLOAD PUSH1 0xFF AND JUMPDEST PUSH2 0x496 JUMPI PUSH1 0x40 MLOAD PUSH3 0x461BCD PUSH1 0xE5 SHL DUP2 MSTORE PUSH1 0x4 ADD PUSH2 0x2DE SWAP1 PUSH2 0xB00 JUMP JUMPDEST PUSH1 0x0 DUP5 DUP2 MSTORE PUSH1 0x20 DUP2 DUP2 MSTORE PUSH1 0x40 SWAP2 DUP3 SWAP1 KECCAK256 PUSH1 0x1 ADD DUP1 SLOAD PUSH1 0x1 PUSH1 0x1 PUSH1 0xA0 SHL SUB NOT AND PUSH1 0x1 PUSH1 0x1 PUSH1 0xA0 SHL SUB DUP8 AND SWAP1 DUP2 OR SWAP1 SWAP2 SSTORE SWAP2 MLOAD SWAP2 DUP3 MSTORE DUP6 SWAP2 PUSH32 0x335721B01866DC23FBEE8B6B2C7B1E14D6F05C28CD35A2C934239F94095602A0 SWAP2 ADD PUSH2 0x42B JUMP JUMPDEST PUSH1 0x0 DUP3 DUP2 MSTORE PUSH1 0x20 DUP2 SWAP1 MSTORE PUSH1 0x40 SWAP1 KECCAK256 SLOAD DUP3 SWAP1 PUSH1 0x1 PUSH1 0x1 PUSH1 0xA0 SHL SUB AND CALLER DUP2 EQ DUP1 PUSH2 0x535 JUMPI POP PUSH1 0x0 DUP3 DUP2 MSTORE PUSH1 0x1 PUSH1 0x20 SWAP1 DUP2 MSTORE PUSH1 0x40 DUP1 DUP4 KECCAK256 CALLER DUP5 MSTORE SWAP1 SWAP2 MSTORE SWAP1 KECCAK256 SLOAD PUSH1 0xFF AND JUMPDEST PUSH2 0x551 JUMPI PUSH1 0x40 MLOAD PUSH3 0x461BCD PUSH1 0xE5 SHL DUP2 MSTORE PUSH1 0x4 ADD PUSH2 0x2DE SWAP1 PUSH2 0xB00 JUMP JUMPDEST PUSH2 0x55B DUP5 DUP5 PUSH2 0x918 JUMP JUMPDEST PUSH1 0x40 MLOAD PUSH1 0x1 PUSH1 0x1 PUSH1 0xA0 SHL SUB DUP5 AND DUP2 MSTORE DUP5 SWAP1 PUSH32 0xD4735D920B0F87494915F556DD9B54C8F309026070CAEA5C737245152564D266 SWAP1 PUSH1 0x20 ADD PUSH2 0x42B JUMP JUMPDEST PUSH1 0x0 DUP6 DUP2 MSTORE PUSH1 0x20 DUP2 SWAP1 MSTORE PUSH1 0x40 DUP2 KECCAK256 SLOAD DUP7 SWAP1 PUSH1 0x1 PUSH1 0x1 PUSH1 0xA0 SHL SUB AND CALLER DUP2 EQ DUP1 PUSH2 0x5D7 JUMPI POP PUSH1 0x0 DUP3 DUP2 MSTORE PUSH1 0x1 PUSH1 0x20 SWAP1 DUP2 MSTORE PUSH1 0x40 DUP1 DUP4 KECCAK256 CALLER DUP5 MSTORE SWAP1 SWAP2 MSTORE SWAP1 KECCAK256 SLOAD PUSH1 0xFF AND JUMPDEST PUSH2 0x5F3 JUMPI PUSH1 0x40 MLOAD PUSH3 0x461BCD PUSH1 0xE5 SHL DUP2 MSTORE PUSH1 0x4 ADD PUSH2 0x2DE SWAP1 PUSH2 0xB00 JUMP JUMPDEST PUSH1 0x40 DUP1 MLOAD PUSH1 0x20 DUP2 ADD DUP11 SWAP1 MSTORE SWAP1 DUP2 ADD DUP9 SWAP1 MSTORE PUSH1 0x60 ADD PUSH1 0x40 MLOAD PUSH1 0x20 DUP2 DUP4 SUB SUB DUP2 MSTORE SWAP1 PUSH1 0x40 MSTORE DUP1 MLOAD SWAP1 PUSH1 0x20 ADD KECCAK256 SWAP3 POP PUSH2 0x629 DUP4 DUP8 PUSH2 0x918 JUMP JUMPDEST PUSH1 0x0 DUP4 DUP2 MSTORE PUSH1 0x20 DUP2 DUP2 MSTORE PUSH1 0x40 SWAP2 DUP3 SWAP1 KECCAK256 PUSH1 0x1 ADD DUP1 SLOAD PUSH1 0x1 PUSH1 0x1 PUSH1 0xA0 SHL SUB DUP10 DUP2 AND PUSH1 0x1 PUSH1 0x1 PUSH1 0xE0 SHL SUB NOT SWAP1 SWAP3 AND SWAP2 SWAP1 SWAP2 OR PUSH1 0x1 PUSH1 0xA0 SHL PUSH8 0xFFFFFFFFFFFFFFFF DUP11 AND MUL OR SWAP1 SWAP2 SSTORE SWAP2 MLOAD SWAP2 DUP9 AND DUP3 MSTORE DUP9 SWAP2 DUP11 SWAP2 PUSH32 0xCE0457FE73731F824CC272376169235128C118B49D344817417C6D108D155E82 SWAP2 ADD PUSH1 0x40 MLOAD DUP1 SWAP2 SUB SWAP1 LOG3 PUSH1 0x40 MLOAD PUSH1 0x1 PUSH1 0x1 PUSH1 0xA0 SHL SUB DUP7 AND DUP2 MSTORE DUP4 SWAP1 PUSH32 0x335721B01866DC23FBEE8B6B2C7B1E14D6F05C28CD35A2C934239F94095602A0 SWAP1 PUSH1 0x20 ADD PUSH1 0x40 MLOAD DUP1 SWAP2 SUB SWAP1 LOG2 PUSH1 0x40 MLOAD PUSH8 0xFFFFFFFFFFFFFFFF DUP6 AND DUP2 MSTORE DUP4 SWAP1 PUSH32 0x1D4F9BBFC9CAB89D66E1A1562F2233CCBF1308CB4F63DE2EAD5787ADDDB8FA68 SWAP1 PUSH1 0x20 ADD PUSH1 0x40 MLOAD DUP1 SWAP2 SUB SWAP1 LOG2 POP POP SWAP6 SWAP5 POP POP POP POP POP JUMP JUMPDEST PUSH1 0x0 DUP4 DUP2 MSTORE PUSH1 0x20 DUP2 SWAP1 MSTORE PUSH1 0x40 SWAP1 KECCAK256 SLOAD PUSH1 0x1 PUSH1 0x1 PUSH1 0xA0 SHL SUB AND CALLER EQ PUSH2 0x78B JUMPI PUSH1 0x40 MLOAD PUSH3 0x461BCD PUSH1 0xE5 SHL DUP2 MSTORE PUSH1 0x20 PUSH1 0x4 DUP3 ADD MSTORE PUSH1 0x16 PUSH1 0x24 DUP3 ADD MSTORE PUSH22 0x22AA272932B3B4B9BA393C9D103737BA1037BBB732B9 PUSH1 0x51 SHL PUSH1 0x44 DUP3 ADD MSTORE PUSH1 0x64 ADD PUSH2 0x2DE JUMP JUMPDEST PUSH1 0x0 DUP4 DUP2 MSTORE PUSH1 0x1 PUSH1 0x20 SWAP1 DUP2 MSTORE PUSH1 0x40 DUP1 DUP4 KECCAK256 PUSH1 0x1 PUSH1 0x1 PUSH1 0xA0 SHL SUB DUP7 AND DUP1 DUP6 MSTORE SWAP1 DUP4 MSTORE SWAP3 DUP2 SWAP1 KECCAK256 DUP1 SLOAD PUSH1 0xFF NOT AND DUP6 ISZERO ISZERO SWAP1 DUP2 OR SWAP1 SWAP2 SSTORE SWAP1 MLOAD SWAP1 DUP2 MSTORE CALLER SWAP2 PUSH32 0x17307EAB39AB6107E8899845AD3D59BD9653F200F220920489CA2B5937696C31 SWAP2 ADD PUSH1 0x40 MLOAD DUP1 SWAP2 SUB SWAP1 LOG3 POP POP POP JUMP JUMPDEST PUSH1 0x0 DUP5 DUP2 MSTORE PUSH1 0x20 DUP2 SWAP1 MSTORE PUSH1 0x40 SWAP1 KECCAK256 SLOAD DUP5 SWAP1 PUSH1 0x1 PUSH1 0x1 PUSH1 0xA0 SHL SUB AND CALLER DUP2 EQ DUP1 PUSH2 0x837 JUMPI POP PUSH1 0x0 DUP3 DUP2 MSTORE PUSH1 0x1 PUSH1 0x20 SWAP1 DUP2 MSTORE PUSH1 0x40 DUP1 DUP4 KECCAK256 CALLER DUP5 MSTORE SWAP1 SWAP2 MSTORE SWAP1 KECCAK256 SLOAD PUSH1 0xFF AND JUMPDEST PUSH2 0x853 JUMPI PUSH1 0x40 MLOAD PUSH3 0x461BCD PUSH1 0xE5 SHL DUP2 MSTORE PUSH1 0x4 ADD PUSH2 0x2DE SWAP1 PUSH2 0xB00 JUMP JUMPDEST PUSH2 0x85D DUP7 DUP7 PUSH2 0x918 JUMP JUMPDEST PUSH1 0x0 DUP7 DUP2 MSTORE PUSH1 0x20 DUP2 DUP2 MSTORE PUSH1 0x40 SWAP2 DUP3 SWAP1 KECCAK256 PUSH1 0x1 ADD DUP1 SLOAD PUSH1 0x1 PUSH1 0x1 PUSH1 0xA0 SHL SUB DUP9 AND PUSH1 0x1 PUSH1 0x1 PUSH1 0xE0 SHL SUB NOT SWAP1 SWAP2 AND DUP2 OR PUSH1 0x1 PUSH1 0xA0 SHL PUSH8 0xFFFFFFFFFFFFFFFF DUP10 AND MUL OR SWAP1 SWAP2 SSTORE SWAP2 MLOAD SWAP2 DUP3 MSTORE DUP8 SWAP2 PUSH32 0x335721B01866DC23FBEE8B6B2C7B1E14D6F05C28CD35A2C934239F94095602A0 SWAP2 ADD PUSH1 0x40 MLOAD DUP1 SWAP2 SUB SWAP1 LOG2 PUSH1 0x40 MLOAD PUSH8 0xFFFFFFFFFFFFFFFF DUP5 AND DUP2 MSTORE DUP7 SWAP1 PUSH32 0x1D4F9BBFC9CAB89D66E1A1562F2233CCBF1308CB4F63DE2EAD5787ADDDB8FA68 SWAP1 PUSH1 0x20 ADD PUSH1 0x40 MLOAD DUP1 SWAP2 SUB SWAP1 LOG2 POP POP POP POP POP POP JUMP JUMPDEST PUSH1 0x0 SWAP2 DUP3 MSTORE PUSH1 0x20 DUP3 SWAP1 MSTORE PUSH1 0x40 SWAP1 SWAP2 KECCAK256 DUP1 SLOAD PUSH1 0x1 PUSH1 0x1 PUSH1 0xA0 SHL SUB NOT AND PUSH1 0x1 PUSH1 0x1 PUSH1 0xA0 SHL SUB SWAP1 SWAP3 AND SWAP2 SWAP1 SWAP2 OR SWAP1 SSTORE JUMP JUMPDEST PUSH1 0x0 PUSH1 0x20 DUP3 DUP5 SUB SLT ISZERO PUSH2 0x958 JUMPI PUSH1 0x0 DUP1 REVERT JUMPDEST POP CALLDATALOAD SWAP2 SWAP1 POP JUMP JUMPDEST DUP1 CALLDATALOAD PUSH1 0x1 PUSH1 0x1 PUSH1 0xA0 SHL SUB DUP2 AND DUP2 EQ PUSH2 0x976 JUMPI PUSH1 0x0 DUP1 REVERT JUMPDEST SWAP2 SWAP1 POP JUMP JUMPDEST PUSH1 0x0 DUP1 PUSH1 0x0 PUSH1 0x60 DUP5 DUP7 SUB SLT ISZERO PUSH2 0x990 JUMPI PUSH1 0x0 DUP1 REVERT JUMPDEST DUP4 CALLDATALOAD SWAP3 POP PUSH1 0x20 DUP5 ADD CALLDATALOAD SWAP2 POP PUSH2 0x9A7 PUSH1 0x40 DUP6 ADD PUSH2 0x95F JUMP JUMPDEST SWAP1 POP SWAP3 POP SWAP3 POP SWAP3 JUMP JUMPDEST DUP1 CALLDATALOAD PUSH8 0xFFFFFFFFFFFFFFFF DUP2 AND DUP2 EQ PUSH2 0x976 JUMPI PUSH1 0x0 DUP1 REVERT JUMPDEST PUSH1 0x0 DUP1 PUSH1 0x40 DUP4 DUP6 SUB SLT ISZERO PUSH2 0x9DB JUMPI PUSH1 0x0 DUP1 REVERT JUMPDEST DUP3 CALLDATALOAD SWAP2 POP PUSH2 0x9EB PUSH1 0x20 DUP5 ADD PUSH2 0x9B0 JUMP JUMPDEST SWAP1 POP SWAP3 POP SWAP3 SWAP1 POP JUMP JUMPDEST PUSH1 0x0 DUP1 PUSH1 0x40 DUP4 DUP6 SUB SLT ISZERO PUSH2 0xA07 JUMPI PUSH1 0x0 DUP1 REVERT JUMPDEST DUP3 CALLDATALOAD SWAP2 POP PUSH2 0x9EB PUSH1 0x20 DUP5 ADD PUSH2 0x95F JUMP JUMPDEST PUSH1 0x0 DUP1 PUSH1 0x0 DUP1 PUSH1 0x0 PUSH1 0xA0 DUP7 DUP9 SUB SLT ISZERO PUSH2 0xA2F JUMPI PUSH1 0x0 DUP1 REVERT JUMPDEST DUP6 CALLDATALOAD SWAP5 POP PUSH1 0x20 DUP7 ADD CALLDATALOAD SWAP4 POP PUSH2 0xA46 PUSH1 0x40 DUP8 ADD PUSH2 0x95F JUMP JUMPDEST SWAP3 POP PUSH2 0xA54 PUSH1 0x60 DUP8 ADD PUSH2 0x95F JUMP JUMPDEST SWAP2 POP PUSH2 0xA62 PUSH1 0x80 DUP8 ADD PUSH2 0x9B0 JUMP JUMPDEST SWAP1 POP SWAP3 SWAP6 POP SWAP3 SWAP6 SWAP1 SWAP4 POP JUMP JUMPDEST PUSH1 0x0 DUP1 PUSH1 0x0 PUSH1 0x60 DUP5 DUP7 SUB SLT ISZERO PUSH2 0xA83 JUMPI PUSH1 0x0 DUP1 REVERT JUMPDEST DUP4 CALLDATALOAD SWAP3 POP PUSH2 0xA93 PUSH1 0x20 DUP6 ADD PUSH2 0x95F JUMP JUMPDEST SWAP2 POP PUSH1 0x40 DUP5 ADD CALLDATALOAD DUP1 ISZERO ISZERO DUP2 EQ PUSH2 0xAA8 JUMPI PUSH1 0x0 DUP1 REVERT JUMPDEST DUP1 SWAP2 POP POP SWAP3 POP SWAP3 POP SWAP3 JUMP JUMPDEST PUSH1 0x0 DUP1 PUSH1 0x0 DUP1 PUSH1 0x80 DUP6 DUP8 SUB SLT ISZERO PUSH2 0xAC9 JUMPI PUSH1 0x0 DUP1 REVERT JUMPDEST DUP5 CALLDATALOAD SWAP4 POP PUSH2 0xAD9 PUSH1 0x20 DUP7 ADD PUSH2 0x95F JUMP JUMPDEST SWAP3 POP PUSH2 0xAE7 PUSH1 0x40 DUP7 ADD PUSH2 0x95F JUMP JUMPDEST SWAP2 POP PUSH2 0xAF5 PUSH1 0x60 DUP7 ADD PUSH2 0x9B0 JUMP JUMPDEST SWAP1 POP SWAP3 SWAP6 SWAP2 SWAP5 POP SWAP3 POP JUMP JUMPDEST PUSH1 0x20 DUP1 DUP3 MSTORE PUSH1 0x1B SWAP1 DUP3 ADD MSTORE PUSH32 0x45544E52656769737472793A206E6F7420617574686F72697365640000000000 PUSH1 0x40 DUP3 ADD MSTORE PUSH1 0x60 ADD SWAP1 JUMP INVALID LOG2 PUSH5 0x6970667358 0x22 SLT KECCAK256 COINBASE DIFFICULTY SELFDESTRUCT 0xFC DUP2 0xE4 0xEC 0xB6 0xB2 0xD9 0xC9 0xB8 CALLDATASIZE CALLDATASIZE 0xAE SWAP14 LOG1 0xB1 PUSH17 0xA8EB47709C8810792B67B73A264736F6C PUSH4 0x43000814 STOP CALLER "
		},
		"gasEstimates": {
			"creation": {
				"codeDepositCost": "585000",
				"executionCost": "24872",
				"totalCost": "609872"
			},
			"external": {
				"isApprovedForAll(bytes32,address)": "2697",
				"owner(bytes32)": "2492",
				"recordExists(bytes32)": "2581",
				"resolver(bytes32)": "2476",
				"setApprovalForAll(bytes32,address,bool)": "28876",
				"setOwner(bytes32,address)": "30655",
				"setRecord(bytes32,address,address,uint64)": "infinite",
				"setResolver(bytes32,address)": "30721",
				"setSubnodeOwner(bytes32,bytes32,address)": "31306",
				"setSubnodeRecord(bytes32,bytes32,address,address,uint64)": "infinite",
				"setTTL(bytes32,uint64)": "30659",
				"ttl(bytes32)": "2568"
			},
			"internal": {
				"_setOwner(bytes32,address)": "24353"
			}
		},
		"methodIdentifiers": {
			"isApprovedForAll(bytes32,address)": "b0698628",
			"owner(bytes32)": "02571be3",
			"recordExists(bytes32)": "f79fe538",
			"resolver(bytes32)": "0178b8bf",
			"setApprovalForAll(bytes32,address,bool)": "bc053e73",
			"setOwner(bytes32,address)": "5b0fc9c3",
			"setRecord(bytes32,address,address,uint64)": "cf408823",
			"setResolver(bytes32,address)": "1896f70a",
			"setSubnodeOwner(bytes32,bytes32,address)": "06ab5923",
			"setSubnodeRecord(bytes32,bytes32,address,address,uint64)": "5ef2c7f0",
			"setTTL(bytes32,uint64)": "14ab9038",
			"ttl(bytes32)": "16a25cbd"
		}
	},
	"abi": [
		{
			"inputs": [],
			"stateMutability": "nonpayable",
			"type": "constructor"
		},
		{
			"anonymous": false,
			"inputs": [
				{
					"indexed": true,
					"internalType": "address",
					"name": "owner",
					"type": "address"
				},
				{
					"indexed": true,
					"internalType": "address",
					"name": "operator",
					"type": "address"
				},
				{
					"indexed": false,
					"internalType": "bool",
					"name": "approved",
					"type": "bool"
				}
			],
			"name": "ApprovalForAll",
			"type": "event"
		},
		{
			"anonymous": false,
			"inputs": [
				{
					"indexed": true,
					"internalType": "bytes32",
					"name": "node",
					"type": "bytes32"
				},
				{
					"indexed": true,
					"internalType": "bytes32",
					"name": "label",
					"type": "bytes32"
				},
				{
					"indexed": false,
					"internalType": "address",
					"name": "owner",
					"type": "address"
				}
			],
			"name": "NewOwner",
			"type": "event"
		},
		{
			"anonymous": false,
			"inputs": [
				{
					"indexed": true,
					"internalType": "bytes32",
					"name": "node",
					"type": "bytes32"
				},
				{
					"indexed": false,
					"internalType": "address",
					"name": "resolver",
					"type": "address"
				}
			],
			"name": "NewResolver",
			"type": "event"
		},
		{
			"anonymous": false,
			"inputs": [
				{
					"indexed": true,
					"internalType": "bytes32",
					"name": "node",
					"type": "bytes32"
				},
				{
					"indexed": false,
					"internalType": "uint64",
					"name": "ttl",
					"type": "uint64"
				}
			],
			"name": "NewTTL",
			"type": "event"
		},
		{
			"anonymous": false,
			"inputs": [
				{
					"indexed": true,
					"internalType": "bytes32",
					"name": "node",
					"type": "bytes32"
				},
				{
					"indexed": false,
					"internalType": "address",
					"name": "owner",
					"type": "address"
				}
			],
			"name": "Transfer",
			"type": "event"
		},
		{
			"inputs": [
				{
					"internalType": "bytes32",
					"name": "node",
					"type": "bytes32"
				},
				{
					"internalType": "address",
					"name": "operator",
					"type": "address"
				}
			],
			"name": "isApprovedForAll",
			"outputs": [
				{
					"internalType": "bool",
					"name": "",
					"type": "bool"
				}
			],
			"stateMutability": "view",
			"type": "function"
		},
		{
			"inputs": [
				{
					"internalType": "bytes32",
					"name": "node",
					"type": "bytes32"
				}
			],
			"name": "owner",
			"outputs": [
				{
					"internalType": "address",
					"name": "",
					"type": "address"
				}
			],
			"stateMutability": "view",
			"type": "function"
		},
		{
			"inputs": [
				{
					"internalType": "bytes32",
					"name": "node",
					"type": "bytes32"
				}
			],
			"name": "recordExists",
			"outputs": [
				{
					"internalType": "bool",
					"name": "",
					"type": "bool"
				}
			],
			"stateMutability": "view",
			"type": "function"
		},
		{
			"inputs": [
				{
					"internalType": "bytes32",
					"name": "node",
					"type": "bytes32"
				}
			],
			"name": "resolver",
			"outputs": [
				{
					"internalType": "address",
					"name": "",
					"type": "address"
				}
			],
			"stateMutability": "view",
			"type": "function"
		},
		{
			"inputs": [
				{
					"internalType": "bytes32",
					"name": "node",
					"type": "bytes32"
				},
				{
					"internalType": "address",
					"name": "operator",
					"type": "address"
				},
				{
					"internalType": "bool",
					"name": "approved",
					"type": "bool"
				}
			],
			"name": "setApprovalForAll",
			"outputs": [],
			"stateMutability": "nonpayable",
			"type": "function"
		},
		{
			"inputs": [
				{
					"internalType": "bytes32",
					"name": "node",
					"type": "bytes32"
				},
				{
					"internalType": "address",
					"name": "owner_",
					"type": "address"
				}
			],
			"name": "setOwner",
			"outputs": [],
			"stateMutability": "nonpayable",
			"type": "function"
		},
		{
			"inputs": [
				{
					"internalType": "bytes32",
					"name": "node",
					"type": "bytes32"
				},
				{
					"internalType": "address",
					"name": "owner_",
					"type": "address"
				},
				{
					"internalType": "address",
					"name": "resolver_",
					"type": "address"
				},
				{
					"internalType": "uint64",
					"name": "ttl_",
					"type": "uint64"
				}
			],
			"name": "setRecord",
			"outputs": [],
			"stateMutability": "nonpayable",
			"type": "function"
		},
		{
			"inputs": [
				{
					"internalType": "bytes32",
					"name": "node",
					"type": "bytes32"
				},
				{
					"internalType": "address",
					"name": "resolver_",
					"type": "address"
				}
			],
			"name": "setResolver",
			"outputs": [],
			"stateMutability": "nonpayable",
			"type": "function"
		},
		{
			"inputs": [
				{
					"internalType": "bytes32",
					"name": "node",
					"type": "bytes32"
				},
				{
					"internalType": "bytes32",
					"name": "label",
					"type": "bytes32"
				},
				{
					"internalType": "address",
					"name": "owner_",
					"type": "address"
				}
			],
			"name": "setSubnodeOwner",
			"outputs": [
				{
					"internalType": "bytes32",
					"name": "subnode",
					"type": "bytes32"
				}
			],
			"stateMutability": "nonpayable",
			"type": "function"
		},
		{
			"inputs": [
				{
					"internalType": "bytes32",
					"name": "node",
					"type": "bytes32"
				},
				{
					"internalType": "bytes32",
					"name": "label",
					"type": "bytes32"
				},
				{
					"internalType": "address",
					"name": "owner_",
					"type": "address"
				},
				{
					"internalType": "address",
					"name": "resolver_",
					"type": "address"
				},
				{
					"internalType": "uint64",
					"name": "ttl_",
					"type": "uint64"
				}
			],
			"name": "setSubnodeRecord",
			"outputs": [
				{
					"internalType": "bytes32",
					"name": "subnode",
					"type": "bytes32"
				}
			],
			"stateMutability": "nonpayable",
			"type": "function"
		},
		{
			"inputs": [
				{
					"internalType": "bytes32",
					"name": "node",
					"type": "bytes32"
				},
				{
					"internalType": "uint64",
					"name": "ttl_",
					"type": "uint64"
				}
			],
			"name": "setTTL",
			"outputs": [],
			"stateMutability": "nonpayable",
			"type": "function"
		},
		{
			"inputs": [
				{
					"internalType": "bytes32",
					"name": "node",
					"type": "bytes32"
				}
			],
			"name": "ttl",
			"outputs": [
				{
					"internalType": "uint64",
					"name": "",
					"type": "uint64"
				}
			],
			"stateMutability": "view",
			"type": "function"
		}
	]
}