{
	"data": {
		"bytecode": {
			"linkReferences": {},
			"object": "60a06040523480156200001157600080fd5b50604051620036ac380380620036ac83398101604081905262000034916200012c565b33806200005c57604051631e4fbdf760e01b8152600060048201526024015b60405180910390fd5b6200006781620000dc565b50600180556001600160a01b038116620000ac5760405162461bcd60e51b81526020600482015260056024820152640434f5245360dc1b604482015260640162000053565b6001600160a01b031660805243600b55336000908152600260205260409020805460ff191660011790556200015e565b600080546001600160a01b038381166001600160a01b0319831681178455604051919092169283917f8be0079c531659141344cd1fd0a4f28419497f9722a3daafe3b4186f6b6457e09190a35050565b6000602082840312156200013f57600080fd5b81516001600160a01b03811681146200015757600080fd5b9392505050565b6080516134fa620001b2600039600081816105f50152818161072601528181610a2a01528181610f4a01528181611740015281816117ce01528181611f420152818161215e015261283101526134fa6000f3fe608060405234801561001057600080fd5b50600436106102895760003560e01c8063704802751161015c578063ad9e180c116100ce578063e9fad8ee11610087578063e9fad8ee146105e8578063f2f4eb26146105f0578063f2fde38b14610617578063f413496a1461062a578063f9b5b6641461063d578063fa0c7f3d1461065057600080fd5b8063ad9e180c14610594578063b13270d51461059d578063b2fa49bf146105b0578063d6316991146105c3578063d64b84b5146105d6578063dfd456aa146105df57600080fd5b80638da5cb5b116101205780638da5cb5b1461053257806391596e1e14610543578063955541f114610556578063a1a89efe14610579578063a9f8d18114610582578063aa6bb09a1461058b57600080fd5b806370480275146104b9578063715018a6146104cc57806374958e35146104d457806377aa93ab146104dd5780638ae39cac1461052957600080fd5b80633908766411610200578063591c6f25116101b9578063591c6f251461042d5780635d2ed556146104365780636088e93a14610440578063639f89941461045357806363d38c3b146104665780636f77926b1461046f57600080fd5b806339087664146103b357806343add2e6146103c65780634ccc76ae146104005780634e71d92d146104085780634ff0da481461041057806358f3d6d01461042357600080fd5b80631785f53c116102525780631785f53c1461031357806324d7806c1461032657806328662551146103595780632b6838b31461036c5780632d60a36d1461037457806331c2bb511461038557600080fd5b80628cc2621461028e578063083c6323146102b45780630ab9f75f146102bd5780631171bda9146102c6578063150b7a02146102db575b600080fd5b6102a161029c366004612f4a565b610663565b6040519081526020015b60405180910390f35b6102a1600d5481565b6102a160115481565b6102d96102d4366004612f65565b6106d7565b005b6102fa6102e9366004612fea565b630a85bd0160e11b95945050505050565b6040516001600160e01b031990911681526020016102ab565b6102d9610321366004612f4a565b6107e3565b610349610334366004612f4a565b60026020526000908152604090205460ff1681565b60405190151581526020016102ab565b6102d9610367366004613059565b610888565b6102a1600481565b6102a169021e19e0c9bab240000081565b61034961039336600461307b565b600460209081526000928352604080842090915290825290205460ff1681565b6102d96103c13660046130b3565b610bae565b6103f26103d4366004612f4a565b60036020526000908152604090205460ff8082169161010090041682565b6040516102ab929190613120565b6102a1610c69565b6102d9610c80565b6102d961041e366004613154565b610d61565b6102a162603d8081565b6102a1600f5481565b6102a1624f1a0081565b6102d961044e36600461307b565b610fbe565b6102d961046136600461316d565b611222565b6102a1600e5481565b61048261047d366004612f4a565b61135a565b6040805197885260208801969096529486019390935260608501919091526080840152151560a083015260c082015260e0016102ab565b6102d96104c7366004612f4a565b6113bc565b6102d96114a8565b6102a160105481565b6105116104eb36600461307b565b60076020908152600092835260408084209091529082529020546001600160a01b031681565b6040516001600160a01b0390911681526020016102ab565b6102a1600c5481565b6000546001600160a01b0316610511565b6102d9610551366004613154565b6114ba565b610349610564366004613154565b60056020526000908152604090205460ff1681565b6102a160125481565b6102a1600b5481565b6102a1600a5481565b6102a160135481565b6102d96105ab36600461307b565b61184d565b6103496105be36600461307b565b611b28565b6102d96105d13660046131af565b611bf0565b6102a160095481565b6102a160085481565b6102d9611d34565b6105117f000000000000000000000000000000000000000000000000000000000000000081565b6102d9610625366004612f4a565b612341565b610349610638366004613248565b61237c565b6102d961064b36600461328a565b6123b6565b6102d961065e3660046132c6565b61252b565b6001600160a01b038116600090815260066020526040812081610684612600565b9050600069d3c21bcecceda10000008284600101546106a39190613311565b6106ad9190613328565b905082600201548184600301546106c4919061334a565b6106ce919061335d565b95945050505050565b3360009081526002602052604090205460ff16806106ff57506000546001600160a01b031633145b6107245760405162461bcd60e51b815260040161071b90613370565b60405180910390fd5b7f00000000000000000000000000000000000000000000000000000000000000006001600160a01b0316836001600160a01b03160361078e5760405162461bcd60e51b815260040161071b90602080825260049082015263434f524560e01b604082015260600190565b6001600160a01b0382166107ca5760405162461bcd60e51b81526020600482015260036024820152620544f360ec1b604482015260640161071b565b6107de6001600160a01b038416838361268b565b505050565b6107eb6126ea565b6001600160a01b03811660009081526002602052604090205460ff1661083f5760405162461bcd60e51b81526020600482015260096024820152682727aa2fa0a226a4a760b91b604482015260640161071b565b6001600160a01b038116600081815260026020526040808220805460ff19169055517fa3b62bc36326052d97ea62d63c3d60308ed4c3ea8ac079dd8499f1e9c4f80c0f9190a250565b3360009081526002602052604090205460ff16806108b057506000546001600160a01b031633145b6108cc5760405162461bcd60e51b815260040161071b90613370565b6108d4612717565b60006108de612600565b600a556108e9610c69565b600b556001600160a01b03811615610999576001600160a01b0381166000908152600660205260408120600a54600182015491929169d3c21bcecceda10000009161093391613311565b61093d9190613328565b905081600201548161094f919061335d565b826003016000828254610962919061334a565b9091555050600a54600183015469d3c21bcecceda10000009161098491613311565b61098e9190613328565b826002018190555050505b60008311806109aa57506000600e54115b6109de5760405162461bcd60e51b81526020600482015260056024820152644e4f52455760d81b604482015260640161071b565b60008211610a175760405162461bcd60e51b815260040161071b906020808252600490820152630445552360e41b604082015260600190565b8215610a6a57610a526001600160a01b037f000000000000000000000000000000000000000000000000000000000000000016333086612741565b82600f6000828254610a64919061334a565b90915550505b6000600d54431015610a9457600c5443600d54610a87919061335d565b610a919190613311565b90505b600081600e5486610aa5919061334a565b610aaf919061334a565b905060008111610ae95760405162461bcd60e51b815260206004820152600560248201526409c9ea686960db1b604482015260640161071b565b610af38482613328565b600c819055610b2d5760405162461bcd60e51b815260040161071b906020808252600490820152630525042360e41b604082015260600190565b6000600e5543600b819055610b4390859061334a565b600d819055600e54600c5460408051898152602081019390935282018790526060820152608081019190915233907f6bed4a021812b8a263610260560ff7c218c042029458224275fe81c573f4cc039060a00160405180910390a2505050610baa60018055565b5050565b3360009081526002602052604090205460ff1680610bd657506000546001600160a01b031633145b610bf25760405162461bcd60e51b815260040161071b90613370565b60008383604051610c04929190613393565b604080519182900382206000818152600560205291909120805460ff191685151517905591507f36363b339b00adcc7a4533e32d4cc7ca00ee5fc3569c6925927302ff1dc5e9a590610c5b908690869086906133a3565b60405180910390a150505050565b6000600d544310610c7b5750600d5490565b504390565b610c88612717565b33610c91612600565b600a55610c9c610c69565b600b556001600160a01b03811615610d4c576001600160a01b0381166000908152600660205260408120600a54600182015491929169d3c21bcecceda100000091610ce691613311565b610cf09190613328565b9050816002015481610d02919061335d565b826003016000828254610d15919061334a565b9091555050600a54600183015469d3c21bcecceda100000091610d3791613311565b610d419190613328565b826002018190555050505b610d553361276f565b50610d5f60018055565b565b610d69612717565b33610d72612600565b600a55610d7d610c69565b600b556001600160a01b03811615610e2d576001600160a01b0381166000908152600660205260408120600a54600182015491929169d3c21bcecceda100000091610dc791613311565b610dd19190613328565b9050816002015481610de3919061335d565b826003016000828254610df6919061334a565b9091555050600a54600183015469d3c21bcecceda100000091610e1891613311565b610e229190613328565b826002018190555050505b60008211610e665760405162461bcd60e51b815260040161071b906020808252600490820152630414d54360e41b604082015260600190565b336000908152600660205260409020600581015460011115610eb35760405162461bcd60e51b81526020600482015260066024820152654e465452455160d01b604482015260640161071b565b805469021e19e0c9bab240000090610ecc90859061334a565b1115610f045760405162461bcd60e51b81526020600482015260076024820152664d4158434f524560c81b604482015260640161071b565b426004820155805483908290600090610f1e90849061334a565b925050819055508260086000828254610f37919061334a565b90915550610f7290506001600160a01b037f000000000000000000000000000000000000000000000000000000000000000016333086612741565b610f7b336128cf565b60405183815233907fab4795c0dfe38375b777fbe077bd9c6877c2ddaf9e3acfb83d5e5277a40322ed9060200160405180910390a25050610fbb60018055565b50565b610fc6612717565b33610fcf612600565b600a55610fda610c69565b600b556001600160a01b0381161561108a576001600160a01b0381166000908152600660205260408120600a54600182015491929169d3c21bcecceda10000009161102491613311565b61102e9190613328565b9050816002015481611040919061335d565b826003016000828254611053919061334a565b9091555050600a54600183015469d3c21bcecceda10000009161107591613311565b61107f9190613328565b826002018190555050505b3360008181526006602090815260408083206001600160a01b0388811685526007845282852088865290935292205491929116146110f35760405162461bcd60e51b81526020600482015260066024820152651393d513919560d21b604482015260640161071b565b8054156111385760058101546001106111385760405162461bcd60e51b815260206004820152600760248201526612d1515413919560ca1b604482015260640161071b565b6111438185856129c4565b6001600160a01b0384166000908152600760209081526040808320868452909152902080546001600160a01b031916905561117d336128cf565b604051632142170760e11b81526001600160a01b038516906342842e0e906111ad903090339088906004016133db565b600060405180830381600087803b1580156111c757600080fd5b505af11580156111db573d6000803e3d6000fd5b50506040518592506001600160a01b038716915033907fbbde41973f9ce4890f7ad9762c23d8191f261fd643bdf13ed8bbc10549b49fcb90600090a45050610baa60018055565b3360009081526002602052604090205460ff168061124a57506000546001600160a01b031633145b6112665760405162461bcd60e51b815260040161071b90613370565b6001600160a01b03831661128c5760405162461bcd60e51b815260040161071b906133ff565b604051806040016040528083151581526020018260018111156112b1576112b161310a565b90526001600160a01b03841660009081526003602090815260409091208251815490151560ff19821681178355928401519192839161ff001990911661ffff199091161761010083600181111561130a5761130a61310a565b0217905550905050826001600160a01b03167fc97a41867696f26be26c3fad9209e751411c759d0d344dc7ebd1a164ffecacc2838360405161134d929190613120565b60405180910390a2505050565b6001600160a01b0381166000908152600660205260408120805460058201546001830154600484015492949193909291908190819061139889610663565b93506113a385612b45565b92506113ae87612b66565b915050919395979092949650565b6113c46126ea565b6001600160a01b0381166114035760405162461bcd60e51b815260040161071b906020808252600490820152635a45524f60e01b604082015260600190565b6001600160a01b03811660009081526002602052604090205460ff161561145c5760405162461bcd60e51b815260206004820152600d60248201526c20a62922a0a22cafa0a226a4a760991b604482015260640161071b565b6001600160a01b038116600081815260026020526040808220805460ff19166001179055517f44d6d25963f097ad14f29f06854a01f575648a1ef82f30e562ccd3889717e3399190a250565b6114b06126ea565b610d5f6000612bb4565b6114c2612717565b336114cb612600565b600a556114d6610c69565b600b556001600160a01b03811615611586576001600160a01b0381166000908152600660205260408120600a54600182015491929169d3c21bcecceda10000009161152091613311565b61152a9190613328565b905081600201548161153c919061335d565b82600301600082825461154f919061334a565b9091555050600a54600183015469d3c21bcecceda10000009161157191613311565b61157b9190613328565b826002018190555050505b336000908152600660205260409020826115cb5760405162461bcd60e51b815260040161071b906020808252600490820152630414d54360e41b604082015260600190565b80548311156116045760405162461bcd60e51b81526020600482015260056024820152645354414b4560d81b604482015260640161071b565b6005810154600111156116425760405162461bcd60e51b81526020600482015260066024820152654e465452455160d01b604482015260640161071b565b61164b3361276f565b8281600001600082825461165f919061335d565b925050819055508260086000828254611678919061335d565b909155505060048101548390600090819061169290612b45565b156117a75760006127106116a86105dc89613311565b6116b29190613328565b905060036116c1600283613311565b6116cb9190613328565b92506116d7838261335d565b91506116e3818861335d565b935082601260008282546116f7919061334a565b925050819055508160136000828254611710919061334a565b909155505082156117245761172483612c04565b81156117a557604051630852cd8d60e31b8152600481018390527f00000000000000000000000000000000000000000000000000000000000000006001600160a01b0316906342966c6890602401600060405180830381600087803b15801561178c57600080fd5b505af11580156117a0573d6000803e3d6000fd5b505050505b505b83546000036117b857600060048501555b6117c1336128cf565b6117f56001600160a01b037f000000000000000000000000000000000000000000000000000000000000000016338561268b565b60408051878152602081018590529081018390526060810182905233907fed51a34abf73431aee998f69ff67cbc5bae47a2768cc3e2efaf79e7ba0b65f159060800160405180910390a25050505050610fbb60018055565b611855612717565b3361185e612600565b600a55611869610c69565b600b556001600160a01b03811615611919576001600160a01b0381166000908152600660205260408120600a54600182015491929169d3c21bcecceda1000000916118b391613311565b6118bd9190613328565b90508160020154816118cf919061335d565b8260030160008282546118e2919061334a565b9091555050600a54600183015469d3c21bcecceda10000009161190491613311565b61190e9190613328565b826002018190555050505b6119238383611b28565b6119585760405162461bcd60e51b815260206004820152600660248201526510905113919560d21b604482015260640161071b565b33600090815260066020526040902060058101546004116119a45760405162461bcd60e51b815260206004820152600660248201526513505613919560d21b604482015260640161071b565b6001600160a01b0384811660009081526007602090815260408083208784529091529020541615611a005760405162461bcd60e51b815260206004820152600660248201526511155413919560d21b604482015260640161071b565b604051632142170760e11b81526001600160a01b038516906342842e0e90611a30903390309088906004016133db565b600060405180830381600087803b158015611a4a57600080fd5b505af1158015611a5e573d6000803e3d6000fd5b505050506001600160a01b03848116600081815260076020908152604080832088845282528083208054336001600160a01b03199182168117909255825180840190935294825281830189815260058801805460018181018355918752949095209251600290940290920180549095169290951691909117835551910155611ae5906128cf565b60405183906001600160a01b0386169033907f45a0b747ada8575b65125b2144e0de1ff692ff4510bb94a2f9695fcaf1d2bdf390600090a45050610baa60018055565b6001600160a01b03821660009081526003602090815260408083208151808301909252805460ff8082161515845285948401916101009004166001811115611b7257611b7261310a565b6001811115611b8357611b8361310a565b9052508051909150611b99576000915050611bea565b600081602001516001811115611bb157611bb161310a565b03611bc0576001915050611bea565b50506001600160a01b038216600090815260046020908152604080832084845290915290205460ff165b92915050565b3360009081526002602052604090205460ff1680611c1857506000546001600160a01b031633145b611c345760405162461bcd60e51b815260040161071b90613370565b6001600160a01b038416611c5a5760405162461bcd60e51b815260040161071b906133ff565b60005b82811015611d2d576001600160a01b03851660009081526004602052604081208391868685818110611c9157611c9161341d565b90506020020135815260200190815260200160002060006101000a81548160ff021916908315150217905550838382818110611ccf57611ccf61341d565b90506020020135856001600160a01b03167f03929b99f1d41b1602615acbac6af6c29ae6687db3d6586d252bf82074486e3184604051611d13911515815260200190565b60405180910390a380611d2581613433565b915050611c5d565b5050505050565b611d3c612717565b33611d45612600565b600a55611d50610c69565b600b556001600160a01b03811615611e00576001600160a01b0381166000908152600660205260408120600a54600182015491929169d3c21bcecceda100000091611d9a91613311565b611da49190613328565b9050816002015481611db6919061335d565b826003016000828254611dc9919061334a565b9091555050600a54600183015469d3c21bcecceda100000091611deb91613311565b611df59190613328565b826002018190555050505b3360009081526006602052604090208054151580611e215750600581015415155b611e555760405162461bcd60e51b81526020600482015260056024820152644e4f504f5360d81b604482015260640161071b565b611e5e3361276f565b8054806000808215611fa957600080865560088054869290611e8190849061335d565b90915550506004850154611e9490612b45565b15611fa9576000612710611eaa6105dc87613311565b611eb49190613328565b90506003611ec3600283613311565b611ecd9190613328565b9250611ed9838261335d565b9150611ee5818661335d565b93508260126000828254611ef9919061334a565b925050819055508160136000828254611f12919061334a565b90915550508215611f2657611f2683612c04565b8115611fa757604051630852cd8d60e31b8152600481018390527f00000000000000000000000000000000000000000000000000000000000000006001600160a01b0316906342966c6890602401600060405180830381600087803b158015611f8e57600080fd5b505af1158015611fa2573d6000803e3d6000fd5b505050505b505b600585015460008167ffffffffffffffff811115611fc957611fc961344c565b60405190808252806020026020018201604052801561200e57816020015b6040805180820190915260008082526020820152815260200190600190039081611fe75790505b50905060005b8281101561212c578760050181815481106120315761203161341d565b60009182526020918290206040805180820190915260029092020180546001600160a01b03168252600101549181019190915282518390839081106120785761207861341d565b602002602001018190525060006007600084848151811061209b5761209b61341d565b6020026020010151600001516001600160a01b03166001600160a01b0316815260200190815260200160002060008484815181106120db576120db61341d565b602002602001015160200151815260200190815260200160002060006101000a8154816001600160a01b0302191690836001600160a01b03160217905550808061212490613433565b915050612014565b5061213b600588016000612ee8565b6000600488015561214b336128cf565b8415612185576121856001600160a01b037f000000000000000000000000000000000000000000000000000000000000000016338761268b565b60005b81518110156122ba578181815181106121a3576121a361341d565b6020026020010151600001516001600160a01b03166342842e0e30338585815181106121d1576121d161341d565b6020026020010151602001516040518463ffffffff1660e01b81526004016121fb939291906133db565b600060405180830381600087803b15801561221557600080fd5b505af1158015612229573d6000803e3d6000fd5b5050505081818151811061223f5761223f61341d565b60200260200101516020015182828151811061225d5761225d61341d565b6020026020010151600001516001600160a01b0316336001600160a01b03167fbbde41973f9ce4890f7ad9762c23d8191f261fd643bdf13ed8bbc10549b49fcb60405160405180910390a4806122b281613433565b915050612188565b5060408051878152602081018790529081018590526060810184905233907fed51a34abf73431aee998f69ff67cbc5bae47a2768cc3e2efaf79e7ba0b65f159060800160405180910390a260405133907faa5cfc974bd759f818e3e18a4afc9d79daaa0722158497792100a1fddd13e19390600090a25050505050505050610d5f60018055565b6123496126ea565b6001600160a01b03811661237357604051631e4fbdf760e01b81526000600482015260240161071b565b610fbb81612bb4565b6000600560008484604051612392929190613393565b604080519182900390912082526020820192909252016000205460ff169392505050565b3360009081526002602052604090205460ff16806123de57506000546001600160a01b031633145b6123fa5760405162461bcd60e51b815260040161071b90613370565b612402612717565b6001600160a01b0383166124285760405162461bcd60e51b815260040161071b906133ff565b6001600160a01b0381166124645760405162461bcd60e51b81526020600482015260036024820152620544f360ec1b604482015260640161071b565b6001600160a01b03838116600090815260076020908152604080832086845290915290205416156124c05760405162461bcd60e51b815260206004820152600660248201526514d51052d15160d21b604482015260640161071b565b604051632142170760e11b81526001600160a01b038416906342842e0e906124f0903090859087906004016133db565b600060405180830381600087803b15801561250a57600080fd5b505af115801561251e573d6000803e3d6000fd5b505050506107de60018055565b3360009081526002602052604090205460ff168061255357506000546001600160a01b031633145b61256f5760405162461bcd60e51b815260040161071b90613370565b6001600160a01b0383166125955760405162461bcd60e51b815260040161071b906133ff565b6001600160a01b0383166000818152600460209081526040808320868452825291829020805460ff191685151590811790915591519182528492917f03929b99f1d41b1602615acbac6af6c29ae6687db3d6586d252bf82074486e31910160405180910390a3505050565b60006009546000036126135750600a5490565b600061261d610c69565b9050600b548111612630575050600a5490565b6000600b5482612640919061335d565b90506000600c54826126529190613311565b60095490915061266c69d3c21bcecceda100000083613311565b6126769190613328565b600a54612683919061334a565b935050505090565b6040516001600160a01b038381166024830152604482018390526107de91859182169063a9059cbb906064015b604051602081830303815290604052915060e01b6020820180516001600160e01b038381831617835250505050612d4e565b6000546001600160a01b03163314610d5f5760405163118cdaa760e01b815233600482015260240161071b565b60026001540361273a57604051633ee5aeb560e01b815260040160405180910390fd5b6002600155565b61276984856001600160a01b03166323b872dd8686866040516024016126b8939291906133db565b50505050565b6001600160a01b03811660009081526006602052604081206003810154909181900361279a57505050565b600060038301819055600483015482906127b390612b45565b15612806576127106127c761138885613311565b6127d19190613328565b91506127dd828461335d565b905081156128065781601160008282546127f7919061334a565b90915550612806905082612c04565b801561285857806010600082825461281e919061334a565b9091555061285890506001600160a01b037f000000000000000000000000000000000000000000000000000000000000000016868361268b565b69d3c21bcecceda1000000600a5485600101546128759190613311565b61287f9190613328565b600285015560408051828152602081018490526001600160a01b038716917fd6f2c8500df5b44f11e9e48b91ff9f1b9d81bc496d55570c2b1b75bf65243f51910160405180910390a25050505050565b6001600160a01b038116600090815260066020526040812060018101548154919290911580159061290557506005830154600111155b156129355760058301546127109061291c90612b66565b84546129289190613311565b6129329190613328565b90505b8181111561296357612947828261335d565b60096000828254612958919061334a565b9091555061298c9050565b8082111561298c57612975818361335d565b60096000828254612986919061335d565b90915550505b60018301819055600a5469d3c21bcecceda1000000906129ac9083613311565b6129b69190613328565b836002018190555050505050565b600583015460005b81811015612b1357836001600160a01b03168560050182815481106129f3576129f361341d565b60009182526020909120600290910201546001600160a01b0316148015612a3f575082856005018281548110612a2b57612a2b61341d565b906000526020600020906002020160010154145b15612b015760058501612a5360018461335d565b81548110612a6357612a6361341d565b9060005260206000209060020201856005018281548110612a8657612a8661341d565b60009182526020909120825460029092020180546001600160a01b0319166001600160a01b0390921691909117815560019182015491015560058501805480612ad157612ad1613462565b60008281526020812060026000199093019283020180546001600160a01b03191681556001015590555050505050565b80612b0b81613433565b9150506129cc565b5060405162461bcd60e51b81526020600482015260066024820152651393d7d3919560d21b604482015260640161071b565b60008115801590611bea5750612b5e624f1a008361334a565b421092915050565b600081600103612b795750612710919050565b81600203612b8a5750612af8919050565b81600303612b9b5750612ee0919050565b81600403612bac57506132c8919050565b506000919050565b600080546001600160a01b038381166001600160a01b0319831681178455604051919092169283917f8be0079c531659141344cd1fd0a4f28419497f9722a3daafe3b4186f6b6457e09190a35050565b80600003612c0f5750565b600d5443101580612c205750600c54155b15612c785780600e6000828254612c37919061334a565b909155505060408051828152600160208201527fb83b89c23226baf08ab339fff4525164d413e7d9f816d2e208b4f37a8b11d9a5910160405180910390a150565b600043600d54612c88919061335d565b905080600003612ce65781600e6000828254612ca4919061334a565b909155505060408051838152600160208201527fb83b89c23226baf08ab339fff4525164d413e7d9f816d2e208b4f37a8b11d9a5910160405180910390a15050565b6000600c5482612cf69190613311565b905081612d03848361334a565b612d0d9190613328565b600c5560408051848152600060208201527fb83b89c23226baf08ab339fff4525164d413e7d9f816d2e208b4f37a8b11d9a5910160405180910390a1505050565b6000612d636001600160a01b03841683612db1565b90508051600014158015612d88575080806020019051810190612d869190613478565b155b156107de57604051635274afe760e01b81526001600160a01b038416600482015260240161071b565b6060612dbf83836000612dc6565b9392505050565b606081471015612deb5760405163cd78605960e01b815230600482015260240161071b565b600080856001600160a01b03168486604051612e079190613495565b60006040518083038185875af1925050503d8060008114612e44576040519150601f19603f3d011682016040523d82523d6000602084013e612e49565b606091505b5091509150612e59868383612e63565b9695505050505050565b606082612e7857612e7382612ebf565b612dbf565b8151158015612e8f57506001600160a01b0384163b155b15612eb857604051639996b31560e01b81526001600160a01b038516600482015260240161071b565b5080612dbf565b805115612ecf5780518082602001fd5b604051630a12f52160e11b815260040160405180910390fd5b5080546000825560020290600052602060002090810190610fbb91905b80821115612f2a5780546001600160a01b031916815560006001820155600201612f05565b5090565b80356001600160a01b0381168114612f4557600080fd5b919050565b600060208284031215612f5c57600080fd5b612dbf82612f2e565b600080600060608486031215612f7a57600080fd5b612f8384612f2e565b9250612f9160208501612f2e565b9150604084013590509250925092565b60008083601f840112612fb357600080fd5b50813567ffffffffffffffff811115612fcb57600080fd5b602083019150836020828501011115612fe357600080fd5b9250929050565b60008060008060006080868803121561300257600080fd5b61300b86612f2e565b945061301960208701612f2e565b935060408601359250606086013567ffffffffffffffff81111561303c57600080fd5b61304888828901612fa1565b969995985093965092949392505050565b6000806040838503121561306c57600080fd5b50508035926020909101359150565b6000806040838503121561308e57600080fd5b61309783612f2e565b946020939093013593505050565b8015158114610fbb57600080fd5b6000806000604084860312156130c857600080fd5b833567ffffffffffffffff8111156130df57600080fd5b6130eb86828701612fa1565b90945092505060208401356130ff816130a5565b809150509250925092565b634e487b7160e01b600052602160045260246000fd5b8215158152604081016002831061314757634e487b7160e01b600052602160045260246000fd5b8260208301529392505050565b60006020828403121561316657600080fd5b5035919050565b60008060006060848603121561318257600080fd5b61318b84612f2e565b9250602084013561319b816130a5565b91506040840135600281106130ff57600080fd5b600080600080606085870312156131c557600080fd5b6131ce85612f2e565b9350602085013567ffffffffffffffff808211156131eb57600080fd5b818701915087601f8301126131ff57600080fd5b81358181111561320e57600080fd5b8860208260051b850101111561322357600080fd5b602083019550809450505050604085013561323d816130a5565b939692955090935050565b6000806020838503121561325b57600080fd5b823567ffffffffffffffff81111561327257600080fd5b61327e85828601612fa1565b90969095509350505050565b60008060006060848603121561329f57600080fd5b6132a884612f2e565b9250602084013591506132bd60408501612f2e565b90509250925092565b6000806000606084860312156132db57600080fd5b6132e484612f2e565b92506020840135915060408401356130ff816130a5565b634e487b7160e01b600052601160045260246000fd5b8082028115828204841417611bea57611bea6132fb565b60008261334557634e487b7160e01b600052601260045260246000fd5b500490565b80820180821115611bea57611bea6132fb565b81810381811115611bea57611bea6132fb565b6020808252600990820152682737ba1030b236b4b760b91b604082015260600190565b8183823760009101908152919050565b6040815282604082015282846060830137600060608483018101919091529115156020820152601f909201601f191690910101919050565b6001600160a01b039384168152919092166020820152604081019190915260600190565b6020808252600490820152630434f4c360e41b604082015260600190565b634e487b7160e01b600052603260045260246000fd5b600060018201613445576134456132fb565b5060010190565b634e487b7160e01b600052604160045260246000fd5b634e487b7160e01b600052603160045260246000fd5b60006020828403121561348a57600080fd5b8151612dbf816130a5565b6000825160005b818110156134b6576020818601810151858301520161349c565b50600092019182525091905056fea264697066735822122041e9eb4128715be0a973f540a210995a6af23bab88a0877a936957b8b9818c2564736f6c63430008140033",
			"opcodes": "PUSH1 0xA0 PUSH1 0x40 MSTORE CALLVALUE DUP1 ISZERO PUSH3 0x11 JUMPI PUSH1 0x0 DUP1 REVERT JUMPDEST POP PUSH1 0x40 MLOAD PUSH3 0x36AC CODESIZE SUB DUP1 PUSH3 0x36AC DUP4 CODECOPY DUP2 ADD PUSH1 0x40 DUP2 SWAP1 MSTORE PUSH3 0x34 SWAP2 PUSH3 0x12C JUMP JUMPDEST CALLER DUP1 PUSH3 0x5C JUMPI PUSH1 0x40 MLOAD PUSH4 0x1E4FBDF7 PUSH1 0xE0 SHL DUP2 MSTORE PUSH1 0x0 PUSH1 0x4 DUP3 ADD MSTORE PUSH1 0x24 ADD JUMPDEST PUSH1 0x40 MLOAD DUP1 SWAP2 SUB SWAP1 REVERT JUMPDEST PUSH3 0x67 DUP2 PUSH3 0xDC JUMP JUMPDEST POP PUSH1 0x1 DUP1 SSTORE PUSH1 0x1 PUSH1 0x1 PUSH1 0xA0 SHL SUB DUP2 AND PUSH3 0xAC JUMPI PUSH1 0x40 MLOAD PUSH3 0x461BCD PUSH1 0xE5 SHL DUP2 MSTORE PUSH1 0x20 PUSH1 0x4 DUP3 ADD MSTORE PUSH1 0x5 PUSH1 0x24 DUP3 ADD MSTORE PUSH5 0x434F52453 PUSH1 0xDC SHL PUSH1 0x44 DUP3 ADD MSTORE PUSH1 0x64 ADD PUSH3 0x53 JUMP JUMPDEST PUSH1 0x1 PUSH1 0x1 PUSH1 0xA0 SHL SUB AND PUSH1 0x80 MSTORE NUMBER PUSH1 0xB SSTORE CALLER PUSH1 0x0 SWAP1 DUP2 MSTORE PUSH1 0x2 PUSH1 0x20 MSTORE PUSH1 0x40 SWAP1 KECCAK256 DUP1 SLOAD PUSH1 0xFF NOT AND PUSH1 0x1 OR SWAP1 SSTORE PUSH3 0x15E JUMP JUMPDEST PUSH1 0x0 DUP1 SLOAD PUSH1 0x1 PUSH1 0x1 PUSH1 0xA0 SHL SUB DUP4 DUP2 AND PUSH1 0x1 PUSH1 0x1 PUSH1 0xA0 SHL SUB NOT DUP4 AND DUP2 OR DUP5 SSTORE PUSH1 0x40 MLOAD SWAP2 SWAP1 SWAP3 AND SWAP3 DUP4 SWAP2 PUSH32 0x8BE0079C531659141344CD1FD0A4F28419497F9722A3DAAFE3B4186F6B6457E0 SWAP2 SWAP1 LOG3 POP POP JUMP JUMPDEST PUSH1 0x0 PUSH1 0x20 DUP3 DUP5 SUB SLT ISZERO PUSH3 0x13F JUMPI PUSH1 0x0 DUP1 REVERT JUMPDEST DUP2 MLOAD PUSH1 0x1 PUSH1 0x1 PUSH1 0xA0 SHL SUB DUP2 AND DUP2 EQ PUSH3 0x157 JUMPI PUSH1 0x0 DUP1 REVERT JUMPDEST SWAP4 SWAP3 POP POP POP JUMP JUMPDEST PUSH1 0x80 MLOAD PUSH2 0x34FA PUSH3 0x1B2 PUSH1 0x0 CODECOPY PUSH1 0x0 DUP2 DUP2 PUSH2 0x5F5 ADD MSTORE DUP2 DUP2 PUSH2 0x726 ADD MSTORE DUP2 DUP2 PUSH2 0xA2A ADD MSTORE DUP2 DUP2 PUSH2 0xF4A ADD MSTORE DUP2 DUP2 PUSH2 0x1740 ADD MSTORE DUP2 DUP2 PUSH2 0x17CE ADD MSTORE DUP2 DUP2 PUSH2 0x1F42 ADD MSTORE DUP2 DUP2 PUSH2 0x215E ADD MSTORE PUSH2 0x2831 ADD MSTORE PUSH2 0x34FA PUSH1 0x0 RETURN INVALID PUSH1 0x80 PUSH1 0x40 MSTORE CALLVALUE DUP1 ISZERO PUSH2 0x10 JUMPI PUSH1 0x0 DUP1 REVERT JUMPDEST POP PUSH1 0x4 CALLDATASIZE LT PUSH2 0x289 JUMPI PUSH1 0x0 CALLDATALOAD PUSH1 0xE0 SHR DUP1 PUSH4 0x70480275 GT PUSH2 0x15C JUMPI DUP1 PUSH4 0xAD9E180C GT PUSH2 0xCE JUMPI DUP1 PUSH4 0xE9FAD8EE GT PUSH2 0x87 JUMPI DUP1 PUSH4 0xE9FAD8EE EQ PUSH2 0x5E8 JUMPI DUP1 PUSH4 0xF2F4EB26 EQ PUSH2 0x5F0 JUMPI DUP1 PUSH4 0xF2FDE38B EQ PUSH2 0x617 JUMPI DUP1 PUSH4 0xF413496A EQ PUSH2 0x62A JUMPI DUP1 PUSH4 0xF9B5B664 EQ PUSH2 0x63D JUMPI DUP1 PUSH4 0xFA0C7F3D EQ PUSH2 0x650 JUMPI PUSH1 0x0 DUP1 REVERT JUMPDEST DUP1 PUSH4 0xAD9E180C EQ PUSH2 0x594 JUMPI DUP1 PUSH4 0xB13270D5 EQ PUSH2 0x59D JUMPI DUP1 PUSH4 0xB2FA49BF EQ PUSH2 0x5B0 JUMPI DUP1 PUSH4 0xD6316991 EQ PUSH2 0x5C3 JUMPI DUP1 PUSH4 0xD64B84B5 EQ PUSH2 0x5D6 JUMPI DUP1 PUSH4 0xDFD456AA EQ PUSH2 0x5DF JUMPI PUSH1 0x0 DUP1 REVERT JUMPDEST DUP1 PUSH4 0x8DA5CB5B GT PUSH2 0x120 JUMPI DUP1 PUSH4 0x8DA5CB5B EQ PUSH2 0x532 JUMPI DUP1 PUSH4 0x91596E1E EQ PUSH2 0x543 JUMPI DUP1 PUSH4 0x955541F1 EQ PUSH2 0x556 JUMPI DUP1 PUSH4 0xA1A89EFE EQ PUSH2 0x579 JUMPI DUP1 PUSH4 0xA9F8D181 EQ PUSH2 0x582 JUMPI DUP1 PUSH4 0xAA6BB09A EQ PUSH2 0x58B JUMPI PUSH1 0x0 DUP1 REVERT JUMPDEST DUP1 PUSH4 0x70480275 EQ PUSH2 0x4B9 JUMPI DUP1 PUSH4 0x715018A6 EQ PUSH2 0x4CC JUMPI DUP1 PUSH4 0x74958E35 EQ PUSH2 0x4D4 JUMPI DUP1 PUSH4 0x77AA93AB EQ PUSH2 0x4DD JUMPI DUP1 PUSH4 0x8AE39CAC EQ PUSH2 0x529 JUMPI PUSH1 0x0 DUP1 REVERT JUMPDEST DUP1 PUSH4 0x39087664 GT PUSH2 0x200 JUMPI DUP1 PUSH4 0x591C6F25 GT PUSH2 0x1B9 JUMPI DUP1 PUSH4 0x591C6F25 EQ PUSH2 0x42D JUMPI DUP1 PUSH4 0x5D2ED556 EQ PUSH2 0x436 JUMPI DUP1 PUSH4 0x6088E93A EQ PUSH2 0x440 JUMPI DUP1 PUSH4 0x639F8994 EQ PUSH2 0x453 JUMPI DUP1 PUSH4 0x63D38C3B EQ PUSH2 0x466 JUMPI DUP1 PUSH4 0x6F77926B EQ PUSH2 0x46F JUMPI PUSH1 0x0 DUP1 REVERT JUMPDEST DUP1 PUSH4 0x39087664 EQ PUSH2 0x3B3 JUMPI DUP1 PUSH4 0x43ADD2E6 EQ PUSH2 0x3C6 JUMPI DUP1 PUSH4 0x4CCC76AE EQ PUSH2 0x400 JUMPI DUP1 PUSH4 0x4E71D92D EQ PUSH2 0x408 JUMPI DUP1 PUSH4 0x4FF0DA48 EQ PUSH2 0x410 JUMPI DUP1 PUSH4 0x58F3D6D0 EQ PUSH2 0x423 JUMPI PUSH1 0x0 DUP1 REVERT JUMPDEST DUP1 PUSH4 0x1785F53C GT PUSH2 0x252 JUMPI DUP1 PUSH4 0x1785F53C EQ PUSH2 0x313 JUMPI DUP1 PUSH4 0x24D7806C EQ PUSH2 0x326 JUMPI DUP1 PUSH4 0x28662551 EQ PUSH2 0x359 JUMPI DUP1 PUSH4 0x2B6838B3 EQ PUSH2 0x36C JUMPI DUP1 PUSH4 0x2D60A36D EQ PUSH2 0x374 JUMPI DUP1 PUSH4 0x31C2BB51 EQ PUSH2 0x385 JUMPI PUSH1 0x0 DUP1 REVERT JUMPDEST DUP1 PUSH3 0x8CC262 EQ PUSH2 0x28E JUMPI DUP1 PUSH4 0x83C6323 EQ PUSH2 0x2B4 JUMPI DUP1 PUSH4 0xAB9F75F EQ PUSH2 0x2BD JUMPI DUP1 PUSH4 0x1171BDA9 EQ PUSH2 0x2C6 JUMPI DUP1 PUSH4 0x150B7A02 EQ PUSH2 0x2DB JUMPI JUMPDEST PUSH1 0x0 DUP1 REVERT JUMPDEST PUSH2 0x2A1 PUSH2 0x29C CALLDATASIZE PUSH1 0x4 PUSH2 0x2F4A JUMP JUMPDEST PUSH2 0x663 JUMP JUMPDEST PUSH1 0x40 MLOAD SWAP1 DUP2 MSTORE PUSH1 0x20 ADD JUMPDEST PUSH1 0x40 MLOAD DUP1 SWAP2 SUB SWAP1 RETURN JUMPDEST PUSH2 0x2A1 PUSH1 0xD SLOAD DUP2 JUMP JUMPDEST PUSH2 0x2A1 PUSH1 0x11 SLOAD DUP2 JUMP JUMPDEST PUSH2 0x2D9 PUSH2 0x2D4 CALLDATASIZE PUSH1 0x4 PUSH2 0x2F65 JUMP JUMPDEST PUSH2 0x6D7 JUMP JUMPDEST STOP JUMPDEST PUSH2 0x2FA PUSH2 0x2E9 CALLDATASIZE PUSH1 0x4 PUSH2 0x2FEA JUMP JUMPDEST PUSH4 0xA85BD01 PUSH1 0xE1 SHL SWAP6 SWAP5 POP POP POP POP POP JUMP JUMPDEST PUSH1 0x40 MLOAD PUSH1 0x1 PUSH1 0x1 PUSH1 0xE0 SHL SUB NOT SWAP1 SWAP2 AND DUP2 MSTORE PUSH1 0x20 ADD PUSH2 0x2AB JUMP JUMPDEST PUSH2 0x2D9 PUSH2 0x321 CALLDATASIZE PUSH1 0x4 PUSH2 0x2F4A JUMP JUMPDEST PUSH2 0x7E3 JUMP JUMPDEST PUSH2 0x349 PUSH2 0x334 CALLDATASIZE PUSH1 0x4 PUSH2 0x2F4A JUMP JUMPDEST PUSH1 0x2 PUSH1 0x20 MSTORE PUSH1 0x0 SWAP1 DUP2 MSTORE PUSH1 0x40 SWAP1 KECCAK256 SLOAD PUSH1 0xFF AND DUP2 JUMP JUMPDEST PUSH1 0x40 MLOAD SWAP1 ISZERO ISZERO DUP2 MSTORE PUSH1 0x20 ADD PUSH2 0x2AB JUMP JUMPDEST PUSH2 0x2D9 PUSH2 0x367 CALLDATASIZE PUSH1 0x4 PUSH2 0x3059 JUMP JUMPDEST PUSH2 0x888 JUMP JUMPDEST PUSH2 0x2A1 PUSH1 0x4 DUP2 JUMP JUMPDEST PUSH2 0x2A1 PUSH10 0x21E19E0C9BAB2400000 DUP2 JUMP JUMPDEST PUSH2 0x349 PUSH2 0x393 CALLDATASIZE PUSH1 0x4 PUSH2 0x307B JUMP JUMPDEST PUSH1 0x4 PUSH1 0x20 SWAP1 DUP2 MSTORE PUSH1 0x0 SWAP3 DUP4 MSTORE PUSH1 0x40 DUP1 DUP5 KECCAK256 SWAP1 SWAP2 MSTORE SWAP1 DUP3 MSTORE SWAP1 KECCAK256 SLOAD PUSH1 0xFF AND DUP2 JUMP JUMPDEST PUSH2 0x2D9 PUSH2 0x3C1 CALLDATASIZE PUSH1 0x4 PUSH2 0x30B3 JUMP JUMPDEST PUSH2 0xBAE JUMP JUMPDEST PUSH2 0x3F2 PUSH2 0x3D4 CALLDATASIZE PUSH1 0x4 PUSH2 0x2F4A JUMP JUMPDEST PUSH1 0x3 PUSH1 0x20 MSTORE PUSH1 0x0 SWAP1 DUP2 MSTORE PUSH1 0x40 SWAP1 KECCAK256 SLOAD PUSH1 0xFF DUP1 DUP3 AND SWAP2 PUSH2 0x100 SWAP1 DIV AND DUP3 JUMP JUMPDEST PUSH1 0x40 MLOAD PUSH2 0x2AB SWAP3 SWAP2 SWAP1 PUSH2 0x3120 JUMP JUMPDEST PUSH2 0x2A1 PUSH2 0xC69 JUMP JUMPDEST PUSH2 0x2D9 PUSH2 0xC80 JUMP JUMPDEST PUSH2 0x2D9 PUSH2 0x41E CALLDATASIZE PUSH1 0x4 PUSH2 0x3154 JUMP JUMPDEST PUSH2 0xD61 JUMP JUMPDEST PUSH2 0x2A1 PUSH3 0x603D80 DUP2 JUMP JUMPDEST PUSH2 0x2A1 PUSH1 0xF SLOAD DUP2 JUMP JUMPDEST PUSH2 0x2A1 PUSH3 0x4F1A00 DUP2 JUMP JUMPDEST PUSH2 0x2D9 PUSH2 0x44E CALLDATASIZE PUSH1 0x4 PUSH2 0x307B JUMP JUMPDEST PUSH2 0xFBE JUMP JUMPDEST PUSH2 0x2D9 PUSH2 0x461 CALLDATASIZE PUSH1 0x4 PUSH2 0x316D JUMP JUMPDEST PUSH2 0x1222 JUMP JUMPDEST PUSH2 0x2A1 PUSH1 0xE SLOAD DUP2 JUMP JUMPDEST PUSH2 0x482 PUSH2 0x47D CALLDATASIZE PUSH1 0x4 PUSH2 0x2F4A JUMP JUMPDEST PUSH2 0x135A JUMP JUMPDEST PUSH1 0x40 DUP1 MLOAD SWAP8 DUP9 MSTORE PUSH1 0x20 DUP9 ADD SWAP7 SWAP1 SWAP7 MSTORE SWAP5 DUP7 ADD SWAP4 SWAP1 SWAP4 MSTORE PUSH1 0x60 DUP6 ADD SWAP2 SWAP1 SWAP2 MSTORE PUSH1 0x80 DUP5 ADD MSTORE ISZERO ISZERO PUSH1 0xA0 DUP4 ADD MSTORE PUSH1 0xC0 DUP3 ADD MSTORE PUSH1 0xE0 ADD PUSH2 0x2AB JUMP JUMPDEST PUSH2 0x2D9 PUSH2 0x4C7 CALLDATASIZE PUSH1 0x4 PUSH2 0x2F4A JUMP JUMPDEST PUSH2 0x13BC JUMP JUMPDEST PUSH2 0x2D9 PUSH2 0x14A8 JUMP JUMPDEST PUSH2 0x2A1 PUSH1 0x10 SLOAD DUP2 JUMP JUMPDEST PUSH2 0x511 PUSH2 0x4EB CALLDATASIZE PUSH1 0x4 PUSH2 0x307B JUMP JUMPDEST PUSH1 0x7 PUSH1 0x20 SWAP1 DUP2 MSTORE PUSH1 0x0 SWAP3 DUP4 MSTORE PUSH1 0x40 DUP1 DUP5 KECCAK256 SWAP1 SWAP2 MSTORE SWAP1 DUP3 MSTORE SWAP1 KECCAK256 SLOAD PUSH1 0x1 PUSH1 0x1 PUSH1 0xA0 SHL SUB AND DUP2 JUMP JUMPDEST PUSH1 0x40 MLOAD PUSH1 0x1 PUSH1 0x1 PUSH1 0xA0 SHL SUB SWAP1 SWAP2 AND DUP2 MSTORE PUSH1 0x20 ADD PUSH2 0x2AB JUMP JUMPDEST PUSH2 0x2A1 PUSH1 0xC SLOAD DUP2 JUMP JUMPDEST PUSH1 0x0 SLOAD PUSH1 0x1 PUSH1 0x1 PUSH1 0xA0 SHL SUB AND PUSH2 0x511 JUMP JUMPDEST PUSH2 0x2D9 PUSH2 0x551 CALLDATASIZE PUSH1 0x4 PUSH2 0x3154 JUMP JUMPDEST PUSH2 0x14BA JUMP JUMPDEST PUSH2 0x349 PUSH2 0x564 CALLDATASIZE PUSH1 0x4 PUSH2 0x3154 JUMP JUMPDEST PUSH1 0x5 PUSH1 0x20 MSTORE PUSH1 0x0 SWAP1 DUP2 MSTORE PUSH1 0x40 SWAP1 KECCAK256 SLOAD PUSH1 0xFF AND DUP2 JUMP JUMPDEST PUSH2 0x2A1 PUSH1 0x12 SLOAD DUP2 JUMP JUMPDEST PUSH2 0x2A1 PUSH1 0xB SLOAD DUP2 JUMP JUMPDEST PUSH2 0x2A1 PUSH1 0xA SLOAD DUP2 JUMP JUMPDEST PUSH2 0x2A1 PUSH1 0x13 SLOAD DUP2 JUMP JUMPDEST PUSH2 0x2D9 PUSH2 0x5AB CALLDATASIZE PUSH1 0x4 PUSH2 0x307B JUMP JUMPDEST PUSH2 0x184D JUMP JUMPDEST PUSH2 0x349 PUSH2 0x5BE CALLDATASIZE PUSH1 0x4 PUSH2 0x307B JUMP JUMPDEST PUSH2 0x1B28 JUMP JUMPDEST PUSH2 0x2D9 PUSH2 0x5D1 CALLDATASIZE PUSH1 0x4 PUSH2 0x31AF JUMP JUMPDEST PUSH2 0x1BF0 JUMP JUMPDEST PUSH2 0x2A1 PUSH1 0x9 SLOAD DUP2 JUMP JUMPDEST PUSH2 0x2A1 PUSH1 0x8 SLOAD DUP2 JUMP JUMPDEST PUSH2 0x2D9 PUSH2 0x1D34 JUMP JUMPDEST PUSH2 0x511 PUSH32 0x0 DUP2 JUMP JUMPDEST PUSH2 0x2D9 PUSH2 0x625 CALLDATASIZE PUSH1 0x4 PUSH2 0x2F4A JUMP JUMPDEST PUSH2 0x2341 JUMP JUMPDEST PUSH2 0x349 PUSH2 0x638 CALLDATASIZE PUSH1 0x4 PUSH2 0x3248 JUMP JUMPDEST PUSH2 0x237C JUMP JUMPDEST PUSH2 0x2D9 PUSH2 0x64B CALLDATASIZE PUSH1 0x4 PUSH2 0x328A JUMP JUMPDEST PUSH2 0x23B6 JUMP JUMPDEST PUSH2 0x2D9 PUSH2 0x65E CALLDATASIZE PUSH1 0x4 PUSH2 0x32C6 JUMP JUMPDEST PUSH2 0x252B JUMP JUMPDEST PUSH1 0x1 PUSH1 0x1 PUSH1 0xA0 SHL SUB DUP2 AND PUSH1 0x0 SWAP1 DUP2 MSTORE PUSH1 0x6 PUSH1 0x20 MSTORE PUSH1 0x40 DUP2 KECCAK256 DUP2 PUSH2 0x684 PUSH2 0x2600 JUMP JUMPDEST SWAP1 POP PUSH1 0x0 PUSH10 0xD3C21BCECCEDA1000000 DUP3 DUP5 PUSH1 0x1 ADD SLOAD PUSH2 0x6A3 SWAP2 SWAP1 PUSH2 0x3311 JUMP JUMPDEST PUSH2 0x6AD SWAP2 SWAP1 PUSH2 0x3328 JUMP JUMPDEST SWAP1 POP DUP3 PUSH1 0x2 ADD SLOAD DUP2 DUP5 PUSH1 0x3 ADD SLOAD PUSH2 0x6C4 SWAP2 SWAP1 PUSH2 0x334A JUMP JUMPDEST PUSH2 0x6CE SWAP2 SWAP1 PUSH2 0x335D JUMP JUMPDEST SWAP6 SWAP5 POP POP POP POP POP JUMP JUMPDEST CALLER PUSH1 0x0 SWAP1 DUP2 MSTORE PUSH1 0x2 PUSH1 0x20 MSTORE PUSH1 0x40 SWAP1 KECCAK256 SLOAD PUSH1 0xFF AND DUP1 PUSH2 0x6FF JUMPI POP PUSH1 0x0 SLOAD PUSH1 0x1 PUSH1 0x1 PUSH1 0xA0 SHL SUB AND CALLER EQ JUMPDEST PUSH2 0x724 JUMPI PUSH1 0x40 MLOAD PUSH3 0x461BCD PUSH1 0xE5 SHL DUP2 MSTORE PUSH1 0x4 ADD PUSH2 0x71B SWAP1 PUSH2 0x3370 JUMP JUMPDEST PUSH1 0x40 MLOAD DUP1 SWAP2 SUB SWAP1 REVERT JUMPDEST PUSH32 0x0 PUSH1 0x1 PUSH1 0x1 PUSH1 0xA0 SHL SUB AND DUP4 PUSH1 0x1 PUSH1 0x1 PUSH1 0xA0 SHL SUB AND SUB PUSH2 0x78E JUMPI PUSH1 0x40 MLOAD PUSH3 0x461BCD PUSH1 0xE5 SHL DUP2 MSTORE PUSH1 0x4 ADD PUSH2 0x71B SWAP1 PUSH1 0x20 DUP1 DUP3 MSTORE PUSH1 0x4 SWAP1 DUP3 ADD MSTORE PUSH4 0x434F5245 PUSH1 0xE0 SHL PUSH1 0x40 DUP3 ADD MSTORE PUSH1 0x60 ADD SWAP1 JUMP JUMPDEST PUSH1 0x1 PUSH1 0x1 PUSH1 0xA0 SHL SUB DUP3 AND PUSH2 0x7CA JUMPI PUSH1 0x40 MLOAD PUSH3 0x461BCD PUSH1 0xE5 SHL DUP2 MSTORE PUSH1 0x20 PUSH1 0x4 DUP3 ADD MSTORE PUSH1 0x3 PUSH1 0x24 DUP3 ADD MSTORE PUSH3 0x544F3 PUSH1 0xEC SHL PUSH1 0x44 DUP3 ADD MSTORE PUSH1 0x64 ADD PUSH2 0x71B JUMP JUMPDEST PUSH2 0x7DE PUSH1 0x1 PUSH1 0x1 PUSH1 0xA0 SHL SUB DUP5 AND DUP4 DUP4 PUSH2 0x268B JUMP JUMPDEST POP POP POP JUMP JUMPDEST PUSH2 0x7EB PUSH2 0x26EA JUMP JUMPDEST PUSH1 0x1 PUSH1 0x1 PUSH1 0xA0 SHL SUB DUP2 AND PUSH1 0x0 SWAP1 DUP2 MSTORE PUSH1 0x2 PUSH1 0x20 MSTORE PUSH1 0x40 SWAP1 KECCAK256 SLOAD PUSH1 0xFF AND PUSH2 0x83F JUMPI PUSH1 0x40 MLOAD PUSH3 0x461BCD PUSH1 0xE5 SHL DUP2 MSTORE PUSH1 0x20 PUSH1 0x4 DUP3 ADD MSTORE PUSH1 0x9 PUSH1 0x24 DUP3 ADD MSTORE PUSH9 0x2727AA2FA0A226A4A7 PUSH1 0xB9 SHL PUSH1 0x44 DUP3 ADD MSTORE PUSH1 0x64 ADD PUSH2 0x71B JUMP JUMPDEST PUSH1 0x1 PUSH1 0x1 PUSH1 0xA0 SHL SUB DUP2 AND PUSH1 0x0 DUP2 DUP2 MSTORE PUSH1 0x2 PUSH1 0x20 MSTORE PUSH1 0x40 DUP1 DUP3 KECCAK256 DUP1 SLOAD PUSH1 0xFF NOT AND SWAP1 SSTORE MLOAD PUSH32 0xA3B62BC36326052D97EA62D63C3D60308ED4C3EA8AC079DD8499F1E9C4F80C0F SWAP2 SWAP1 LOG2 POP JUMP JUMPDEST CALLER PUSH1 0x0 SWAP1 DUP2 MSTORE PUSH1 0x2 PUSH1 0x20 MSTORE PUSH1 0x40 SWAP1 KECCAK256 SLOAD PUSH1 0xFF AND DUP1 PUSH2 0x8B0 JUMPI POP PUSH1 0x0 SLOAD PUSH1 0x1 PUSH1 0x1 PUSH1 0xA0 SHL SUB AND CALLER EQ JUMPDEST PUSH2 0x8CC JUMPI PUSH1 0x40 MLOAD PUSH3 0x461BCD PUSH1 0xE5 SHL DUP2 MSTORE PUSH1 0x4 ADD PUSH2 0x71B SWAP1 PUSH2 0x3370 JUMP JUMPDEST PUSH2 0x8D4 PUSH2 0x2717 JUMP JUMPDEST PUSH1 0x0 PUSH2 0x8DE PUSH2 0x2600 JUMP JUMPDEST PUSH1 0xA SSTORE PUSH2 0x8E9 PUSH2 0xC69 JUMP JUMPDEST PUSH1 0xB SSTORE PUSH1 0x1 PUSH1 0x1 PUSH1 0xA0 SHL SUB DUP2 AND ISZERO PUSH2 0x999 JUMPI PUSH1 0x1 PUSH1 0x1 PUSH1 0xA0 SHL SUB DUP2 AND PUSH1 0x0 SWAP1 DUP2 MSTORE PUSH1 0x6 PUSH1 0x20 MSTORE PUSH1 0x40 DUP2 KECCAK256 PUSH1 0xA SLOAD PUSH1 0x1 DUP3 ADD SLOAD SWAP2 SWAP3 SWAP2 PUSH10 0xD3C21BCECCEDA1000000 SWAP2 PUSH2 0x933 SWAP2 PUSH2 0x3311 JUMP JUMPDEST PUSH2 0x93D SWAP2 SWAP1 PUSH2 0x3328 JUMP JUMPDEST SWAP1 POP DUP2 PUSH1 0x2 ADD SLOAD DUP2 PUSH2 0x94F SWAP2 SWAP1 PUSH2 0x335D JUMP JUMPDEST DUP3 PUSH1 0x3 ADD PUSH1 0x0 DUP3 DUP3 SLOAD PUSH2 0x962 SWAP2 SWAP1 PUSH2 0x334A JUMP JUMPDEST SWAP1 SWAP2 SSTORE POP POP PUSH1 0xA SLOAD PUSH1 0x1 DUP4 ADD SLOAD PUSH10 0xD3C21BCECCEDA1000000 SWAP2 PUSH2 0x984 SWAP2 PUSH2 0x3311 JUMP JUMPDEST PUSH2 0x98E SWAP2 SWAP1 PUSH2 0x3328 JUMP JUMPDEST DUP3 PUSH1 0x2 ADD DUP2 SWAP1 SSTORE POP POP POP JUMPDEST PUSH1 0x0 DUP4 GT DUP1 PUSH2 0x9AA JUMPI POP PUSH1 0x0 PUSH1 0xE SLOAD GT JUMPDEST PUSH2 0x9DE JUMPI PUSH1 0x40 MLOAD PUSH3 0x461BCD PUSH1 0xE5 SHL DUP2 MSTORE PUSH1 0x20 PUSH1 0x4 DUP3 ADD MSTORE PUSH1 0x5 PUSH1 0x24 DUP3 ADD MSTORE PUSH5 0x4E4F524557 PUSH1 0xD8 SHL PUSH1 0x44 DUP3 ADD MSTORE PUSH1 0x64 ADD PUSH2 0x71B JUMP JUMPDEST PUSH1 0x0 DUP3 GT PUSH2 0xA17 JUMPI PUSH1 0x40 MLOAD PUSH3 0x461BCD PUSH1 0xE5 SHL DUP2 MSTORE PUSH1 0x4 ADD PUSH2 0x71B SWAP1 PUSH1 0x20 DUP1 DUP3 MSTORE PUSH1 0x4 SWAP1 DUP3 ADD MSTORE PUSH4 0x4455523 PUSH1 0xE4 SHL PUSH1 0x40 DUP3 ADD MSTORE PUSH1 0x60 ADD SWAP1 JUMP JUMPDEST DUP3 ISZERO PUSH2 0xA6A JUMPI PUSH2 0xA52 PUSH1 0x1 PUSH1 0x1 PUSH1 0xA0 SHL SUB PUSH32 0x0 AND CALLER ADDRESS DUP7 PUSH2 0x2741 JUMP JUMPDEST DUP3 PUSH1 0xF PUSH1 0x0 DUP3 DUP3 SLOAD PUSH2 0xA64 SWAP2 SWAP1 PUSH2 0x334A JUMP JUMPDEST SWAP1 SWAP2 SSTORE POP POP JUMPDEST PUSH1 0x0 PUSH1 0xD SLOAD NUMBER LT ISZERO PUSH2 0xA94 JUMPI PUSH1 0xC SLOAD NUMBER PUSH1 0xD SLOAD PUSH2 0xA87 SWAP2 SWAP1 PUSH2 0x335D JUMP JUMPDEST PUSH2 0xA91 SWAP2 SWAP1 PUSH2 0x3311 JUMP JUMPDEST SWAP1 POP JUMPDEST PUSH1 0x0 DUP2 PUSH1 0xE SLOAD DUP7 PUSH2 0xAA5 SWAP2 SWAP1 PUSH2 0x334A JUMP JUMPDEST PUSH2 0xAAF SWAP2 SWAP1 PUSH2 0x334A JUMP JUMPDEST SWAP1 POP PUSH1 0x0 DUP2 GT PUSH2 0xAE9 JUMPI PUSH1 0x40 MLOAD PUSH3 0x461BCD PUSH1 0xE5 SHL DUP2 MSTORE PUSH1 0x20 PUSH1 0x4 DUP3 ADD MSTORE PUSH1 0x5 PUSH1 0x24 DUP3 ADD MSTORE PUSH5 0x9C9EA6869 PUSH1 0xDB SHL PUSH1 0x44 DUP3 ADD MSTORE PUSH1 0x64 ADD PUSH2 0x71B JUMP JUMPDEST PUSH2 0xAF3 DUP5 DUP3 PUSH2 0x3328 JUMP JUMPDEST PUSH1 0xC DUP2 SWAP1 SSTORE PUSH2 0xB2D JUMPI PUSH1 0x40 MLOAD PUSH3 0x461BCD PUSH1 0xE5 SHL DUP2 MSTORE PUSH1 0x4 ADD PUSH2 0x71B SWAP1 PUSH1 0x20 DUP1 DUP3 MSTORE PUSH1 0x4 SWAP1 DUP3 ADD MSTORE PUSH4 0x5250423 PUSH1 0xE4 SHL PUSH1 0x40 DUP3 ADD MSTORE PUSH1 0x60 ADD SWAP1 JUMP JUMPDEST PUSH1 0x0 PUSH1 0xE SSTORE NUMBER PUSH1 0xB DUP2 SWAP1 SSTORE PUSH2 0xB43 SWAP1 DUP6 SWAP1 PUSH2 0x334A JUMP JUMPDEST PUSH1 0xD DUP2 SWAP1 SSTORE PUSH1 0xE SLOAD PUSH1 0xC SLOAD PUSH1 0x40 DUP1 MLOAD DUP10 DUP2 MSTORE PUSH1 0x20 DUP2 ADD SWAP4 SWAP1 SWAP4 MSTORE DUP3 ADD DUP8 SWAP1 MSTORE PUSH1 0x60 DUP3 ADD MSTORE PUSH1 0x80 DUP2 ADD SWAP2 SWAP1 SWAP2 MSTORE CALLER SWAP1 PUSH32 0x6BED4A021812B8A263610260560FF7C218C042029458224275FE81C573F4CC03 SWAP1 PUSH1 0xA0 ADD PUSH1 0x40 MLOAD DUP1 SWAP2 SUB SWAP1 LOG2 POP POP POP PUSH2 0xBAA PUSH1 0x1 DUP1 SSTORE JUMP JUMPDEST POP POP JUMP JUMPDEST CALLER PUSH1 0x0 SWAP1 DUP2 MSTORE PUSH1 0x2 PUSH1 0x20 MSTORE PUSH1 0x40 SWAP1 KECCAK256 SLOAD PUSH1 0xFF AND DUP1 PUSH2 0xBD6 JUMPI POP PUSH1 0x0 SLOAD PUSH1 0x1 PUSH1 0x1 PUSH1 0xA0 SHL SUB AND CALLER EQ JUMPDEST PUSH2 0xBF2 JUMPI PUSH1 0x40 MLOAD PUSH3 0x461BCD PUSH1 0xE5 SHL DUP2 MSTORE PUSH1 0x4 ADD PUSH2 0x71B SWAP1 PUSH2 0x3370 JUMP JUMPDEST PUSH1 0x0 DUP4 DUP4 PUSH1 0x40 MLOAD PUSH2 0xC04 SWAP3 SWAP2 SWAP1 PUSH2 0x3393 JUMP JUMPDEST PUSH1 0x40 DUP1 MLOAD SWAP2 DUP3 SWAP1 SUB DUP3 KECCAK256 PUSH1 0x0 DUP2 DUP2 MSTORE PUSH1 0x5 PUSH1 0x20 MSTORE SWAP2 SWAP1 SWAP2 KECCAK256 DUP1 SLOAD PUSH1 0xFF NOT AND DUP6 ISZERO ISZERO OR SWAP1 SSTORE SWAP2 POP PUSH32 0x36363B339B00ADCC7A4533E32D4CC7CA00EE5FC3569C6925927302FF1DC5E9A5 SWAP1 PUSH2 0xC5B SWAP1 DUP7 SWAP1 DUP7 SWAP1 DUP7 SWAP1 PUSH2 0x33A3 JUMP JUMPDEST PUSH1 0x40 MLOAD DUP1 SWAP2 SUB SWAP1 LOG1 POP POP POP POP JUMP JUMPDEST PUSH1 0x0 PUSH1 0xD SLOAD NUMBER LT PUSH2 0xC7B JUMPI POP PUSH1 0xD SLOAD SWAP1 JUMP JUMPDEST POP NUMBER SWAP1 JUMP JUMPDEST PUSH2 0xC88 PUSH2 0x2717 JUMP JUMPDEST CALLER PUSH2 0xC91 PUSH2 0x2600 JUMP JUMPDEST PUSH1 0xA SSTORE PUSH2 0xC9C PUSH2 0xC69 JUMP JUMPDEST PUSH1 0xB SSTORE PUSH1 0x1 PUSH1 0x1 PUSH1 0xA0 SHL SUB DUP2 AND ISZERO PUSH2 0xD4C JUMPI PUSH1 0x1 PUSH1 0x1 PUSH1 0xA0 SHL SUB DUP2 AND PUSH1 0x0 SWAP1 DUP2 MSTORE PUSH1 0x6 PUSH1 0x20 MSTORE PUSH1 0x40 DUP2 KECCAK256 PUSH1 0xA SLOAD PUSH1 0x1 DUP3 ADD SLOAD SWAP2 SWAP3 SWAP2 PUSH10 0xD3C21BCECCEDA1000000 SWAP2 PUSH2 0xCE6 SWAP2 PUSH2 0x3311 JUMP JUMPDEST PUSH2 0xCF0 SWAP2 SWAP1 PUSH2 0x3328 JUMP JUMPDEST SWAP1 POP DUP2 PUSH1 0x2 ADD SLOAD DUP2 PUSH2 0xD02 SWAP2 SWAP1 PUSH2 0x335D JUMP JUMPDEST DUP3 PUSH1 0x3 ADD PUSH1 0x0 DUP3 DUP3 SLOAD PUSH2 0xD15 SWAP2 SWAP1 PUSH2 0x334A JUMP JUMPDEST SWAP1 SWAP2 SSTORE POP POP PUSH1 0xA SLOAD PUSH1 0x1 DUP4 ADD SLOAD PUSH10 0xD3C21BCECCEDA1000000 SWAP2 PUSH2 0xD37 SWAP2 PUSH2 0x3311 JUMP JUMPDEST PUSH2 0xD41 SWAP2 SWAP1 PUSH2 0x3328 JUMP JUMPDEST DUP3 PUSH1 0x2 ADD DUP2 SWAP1 SSTORE POP POP POP JUMPDEST PUSH2 0xD55 CALLER PUSH2 0x276F JUMP JUMPDEST POP PUSH2 0xD5F PUSH1 0x1 DUP1 SSTORE JUMP JUMPDEST JUMP JUMPDEST PUSH2 0xD69 PUSH2 0x2717 JUMP JUMPDEST CALLER PUSH2 0xD72 PUSH2 0x2600 JUMP JUMPDEST PUSH1 0xA SSTORE PUSH2 0xD7D PUSH2 0xC69 JUMP JUMPDEST PUSH1 0xB SSTORE PUSH1 0x1 PUSH1 0x1 PUSH1 0xA0 SHL SUB DUP2 AND ISZERO PUSH2 0xE2D JUMPI PUSH1 0x1 PUSH1 0x1 PUSH1 0xA0 SHL SUB DUP2 AND PUSH1 0x0 SWAP1 DUP2 MSTORE PUSH1 0x6 PUSH1 0x20 MSTORE PUSH1 0x40 DUP2 KECCAK256 PUSH1 0xA SLOAD PUSH1 0x1 DUP3 ADD SLOAD SWAP2 SWAP3 SWAP2 PUSH10 0xD3C21BCECCEDA1000000 SWAP2 PUSH2 0xDC7 SWAP2 PUSH2 0x3311 JUMP JUMPDEST PUSH2 0xDD1 SWAP2 SWAP1 PUSH2 0x3328 JUMP JUMPDEST SWAP1 POP DUP2 PUSH1 0x2 ADD SLOAD DUP2 PUSH2 0xDE3 SWAP2 SWAP1 PUSH2 0x335D JUMP JUMPDEST DUP3 PUSH1 0x3 ADD PUSH1 0x0 DUP3 DUP3 SLOAD PUSH2 0xDF6 SWAP2 SWAP1 PUSH2 0x334A JUMP JUMPDEST SWAP1 SWAP2 SSTORE POP POP PUSH1 0xA SLOAD PUSH1 0x1 DUP4 ADD SLOAD PUSH10 0xD3C21BCECCEDA1000000 SWAP2 PUSH2 0xE18 SWAP2 PUSH2 0x3311 JUMP JUMPDEST PUSH2 0xE22 SWAP2 SWAP1 PUSH2 0x3328 JUMP JUMPDEST DUP3 PUSH1 0x2 ADD DUP2 SWAP1 SSTORE POP POP POP JUMPDEST PUSH1 0x0 DUP3 GT PUSH2 0xE66 JUMPI PUSH1 0x40 MLOAD PUSH3 0x461BCD PUSH1 0xE5 SHL DUP2 MSTORE PUSH1 0x4 ADD PUSH2 0x71B SWAP1 PUSH1 0x20 DUP1 DUP3 MSTORE PUSH1 0x4 SWAP1 DUP3 ADD MSTORE PUSH4 0x414D543 PUSH1 0xE4 SHL PUSH1 0x40 DUP3 ADD MSTORE PUSH1 0x60 ADD SWAP1 JUMP JUMPDEST CALLER PUSH1 0x0 SWAP1 DUP2 MSTORE PUSH1 0x6 PUSH1 0x20 MSTORE PUSH1 0x40 SWAP1 KECCAK256 PUSH1 0x5 DUP2 ADD SLOAD PUSH1 0x1 GT ISZERO PUSH2 0xEB3 JUMPI PUSH1 0x40 MLOAD PUSH3 0x461BCD PUSH1 0xE5 SHL DUP2 MSTORE PUSH1 0x20 PUSH1 0x4 DUP3 ADD MSTORE PUSH1 0x6 PUSH1 0x24 DUP3 ADD MSTORE PUSH6 0x4E4654524551 PUSH1 0xD0 SHL PUSH1 0x44 DUP3 ADD MSTORE PUSH1 0x64 ADD PUSH2 0x71B JUMP JUMPDEST DUP1 SLOAD PUSH10 0x21E19E0C9BAB2400000 SWAP1 PUSH2 0xECC SWAP1 DUP6 SWAP1 PUSH2 0x334A JUMP JUMPDEST GT ISZERO PUSH2 0xF04 JUMPI PUSH1 0x40 MLOAD PUSH3 0x461BCD PUSH1 0xE5 SHL DUP2 MSTORE PUSH1 0x20 PUSH1 0x4 DUP3 ADD MSTORE PUSH1 0x7 PUSH1 0x24 DUP3 ADD MSTORE PUSH7 0x4D4158434F5245 PUSH1 0xC8 SHL PUSH1 0x44 DUP3 ADD MSTORE PUSH1 0x64 ADD PUSH2 0x71B JUMP JUMPDEST TIMESTAMP PUSH1 0x4 DUP3 ADD SSTORE DUP1 SLOAD DUP4 SWAP1 DUP3 SWAP1 PUSH1 0x0 SWAP1 PUSH2 0xF1E SWAP1 DUP5 SWAP1 PUSH2 0x334A JUMP JUMPDEST SWAP3 POP POP DUP2 SWAP1 SSTORE POP DUP3 PUSH1 0x8 PUSH1 0x0 DUP3 DUP3 SLOAD PUSH2 0xF37 SWAP2 SWAP1 PUSH2 0x334A JUMP JUMPDEST SWAP1 SWAP2 SSTORE POP PUSH2 0xF72 SWAP1 POP PUSH1 0x1 PUSH1 0x1 PUSH1 0xA0 SHL SUB PUSH32 0x0 AND CALLER ADDRESS DUP7 PUSH2 0x2741 JUMP JUMPDEST PUSH2 0xF7B CALLER PUSH2 0x28CF JUMP JUMPDEST PUSH1 0x40 MLOAD DUP4 DUP2 MSTORE CALLER SWAP1 PUSH32 0xAB4795C0DFE38375B777FBE077BD9C6877C2DDAF9E3ACFB83D5E5277A40322ED SWAP1 PUSH1 0x20 ADD PUSH1 0x40 MLOAD DUP1 SWAP2 SUB SWAP1 LOG2 POP POP PUSH2 0xFBB PUSH1 0x1 DUP1 SSTORE JUMP JUMPDEST POP JUMP JUMPDEST PUSH2 0xFC6 PUSH2 0x2717 JUMP JUMPDEST CALLER PUSH2 0xFCF PUSH2 0x2600 JUMP JUMPDEST PUSH1 0xA SSTORE PUSH2 0xFDA PUSH2 0xC69 JUMP JUMPDEST PUSH1 0xB SSTORE PUSH1 0x1 PUSH1 0x1 PUSH1 0xA0 SHL SUB DUP2 AND ISZERO PUSH2 0x108A JUMPI PUSH1 0x1 PUSH1 0x1 PUSH1 0xA0 SHL SUB DUP2 AND PUSH1 0x0 SWAP1 DUP2 MSTORE PUSH1 0x6 PUSH1 0x20 MSTORE PUSH1 0x40 DUP2 KECCAK256 PUSH1 0xA SLOAD PUSH1 0x1 DUP3 ADD SLOAD SWAP2 SWAP3 SWAP2 PUSH10 0xD3C21BCECCEDA1000000 SWAP2 PUSH2 0x1024 SWAP2 PUSH2 0x3311 JUMP JUMPDEST PUSH2 0x102E SWAP2 SWAP1 PUSH2 0x3328 JUMP JUMPDEST SWAP1 POP DUP2 PUSH1 0x2 ADD SLOAD DUP2 PUSH2 0x1040 SWAP2 SWAP1 PUSH2 0x335D JUMP JUMPDEST DUP3 PUSH1 0x3 ADD PUSH1 0x0 DUP3 DUP3 SLOAD PUSH2 0x1053 SWAP2 SWAP1 PUSH2 0x334A JUMP JUMPDEST SWAP1 SWAP2 SSTORE POP POP PUSH1 0xA SLOAD PUSH1 0x1 DUP4 ADD SLOAD PUSH10 0xD3C21BCECCEDA1000000 SWAP2 PUSH2 0x1075 SWAP2 PUSH2 0x3311 JUMP JUMPDEST PUSH2 0x107F SWAP2 SWAP1 PUSH2 0x3328 JUMP JUMPDEST DUP3 PUSH1 0x2 ADD DUP2 SWAP1 SSTORE POP POP POP JUMPDEST CALLER PUSH1 0x0 DUP2 DUP2 MSTORE PUSH1 0x6 PUSH1 0x20 SWAP1 DUP2 MSTORE PUSH1 0x40 DUP1 DUP4 KECCAK256 PUSH1 0x1 PUSH1 0x1 PUSH1 0xA0 SHL SUB DUP9 DUP2 AND DUP6 MSTORE PUSH1 0x7 DUP5 MSTORE DUP3 DUP6 KECCAK256 DUP9 DUP7 MSTORE SWAP1 SWAP4 MSTORE SWAP3 KECCAK256 SLOAD SWAP2 SWAP3 SWAP2 AND EQ PUSH2 0x10F3 JUMPI PUSH1 0x40 MLOAD PUSH3 0x461BCD PUSH1 0xE5 SHL DUP2 MSTORE PUSH1 0x20 PUSH1 0x4 DUP3 ADD MSTORE PUSH1 0x6 PUSH1 0x24 DUP3 ADD MSTORE PUSH6 0x1393D5139195 PUSH1 0xD2 SHL PUSH1 0x44 DUP3 ADD MSTORE PUSH1 0x64 ADD PUSH2 0x71B JUMP JUMPDEST DUP1 SLOAD ISZERO PUSH2 0x1138 JUMPI PUSH1 0x5 DUP2 ADD SLOAD PUSH1 0x1 LT PUSH2 0x1138 JUMPI PUSH1 0x40 MLOAD PUSH3 0x461BCD PUSH1 0xE5 SHL DUP2 MSTORE PUSH1 0x20 PUSH1 0x4 DUP3 ADD MSTORE PUSH1 0x7 PUSH1 0x24 DUP3 ADD MSTORE PUSH7 0x12D15154139195 PUSH1 0xCA SHL PUSH1 0x44 DUP3 ADD MSTORE PUSH1 0x64 ADD PUSH2 0x71B JUMP JUMPDEST PUSH2 0x1143 DUP2 DUP6 DUP6 PUSH2 0x29C4 JUMP JUMPDEST PUSH1 0x1 PUSH1 0x1 PUSH1 0xA0 SHL SUB DUP5 AND PUSH1 0x0 SWAP1 DUP2 MSTORE PUSH1 0x7 PUSH1 0x20 SWAP1 DUP2 MSTORE PUSH1 0x40 DUP1 DUP4 KECCAK256 DUP7 DUP5 MSTORE SWAP1 SWAP2 MSTORE SWAP1 KECCAK256 DUP1 SLOAD PUSH1 0x1 PUSH1 0x1 PUSH1 0xA0 SHL SUB NOT AND SWAP1 SSTORE PUSH2 0x117D CALLER PUSH2 0x28CF JUMP JUMPDEST PUSH1 0x40 MLOAD PUSH4 0x21421707 PUSH1 0xE1 SHL DUP2 MSTORE PUSH1 0x1 PUSH1 0x1 PUSH1 0xA0 SHL SUB DUP6 AND SWAP1 PUSH4 0x42842E0E SWAP1 PUSH2 0x11AD SWAP1 ADDRESS SWAP1 CALLER SWAP1 DUP9 SWAP1 PUSH1 0x4 ADD PUSH2 0x33DB JUMP JUMPDEST PUSH1 0x0 PUSH1 0x40 MLOAD DUP1 DUP4 SUB DUP2 PUSH1 0x0 DUP8 DUP1 EXTCODESIZE ISZERO DUP1 ISZERO PUSH2 0x11C7 JUMPI PUSH1 0x0 DUP1 REVERT JUMPDEST POP GAS CALL ISZERO DUP1 ISZERO PUSH2 0x11DB JUMPI RETURNDATASIZE PUSH1 0x0 DUP1 RETURNDATACOPY RETURNDATASIZE PUSH1 0x0 REVERT JUMPDEST POP POP PUSH1 0x40 MLOAD DUP6 SWAP3 POP PUSH1 0x1 PUSH1 0x1 PUSH1 0xA0 SHL SUB DUP8 AND SWAP2 POP CALLER SWAP1 PUSH32 0xBBDE41973F9CE4890F7AD9762C23D8191F261FD643BDF13ED8BBC10549B49FCB SWAP1 PUSH1 0x0 SWAP1 LOG4 POP POP PUSH2 0xBAA PUSH1 0x1 DUP1 SSTORE JUMP JUMPDEST CALLER PUSH1 0x0 SWAP1 DUP2 MSTORE PUSH1 0x2 PUSH1 0x20 MSTORE PUSH1 0x40 SWAP1 KECCAK256 SLOAD PUSH1 0xFF AND DUP1 PUSH2 0x124A JUMPI POP PUSH1 0x0 SLOAD PUSH1 0x1 PUSH1 0x1 PUSH1 0xA0 SHL SUB AND CALLER EQ JUMPDEST PUSH2 0x1266 JUMPI PUSH1 0x40 MLOAD PUSH3 0x461BCD PUSH1 0xE5 SHL DUP2 MSTORE PUSH1 0x4 ADD PUSH2 0x71B SWAP1 PUSH2 0x3370 JUMP JUMPDEST PUSH1 0x1 PUSH1 0x1 PUSH1 0xA0 SHL SUB DUP4 AND PUSH2 0x128C JUMPI PUSH1 0x40 MLOAD PUSH3 0x461BCD PUSH1 0xE5 SHL DUP2 MSTORE PUSH1 0x4 ADD PUSH2 0x71B SWAP1 PUSH2 0x33FF JUMP JUMPDEST PUSH1 0x40 MLOAD DUP1 PUSH1 0x40 ADD PUSH1 0x40 MSTORE DUP1 DUP4 ISZERO ISZERO DUP2 MSTORE PUSH1 0x20 ADD DUP3 PUSH1 0x1 DUP2 GT ISZERO PUSH2 0x12B1 JUMPI PUSH2 0x12B1 PUSH2 0x310A JUMP JUMPDEST SWAP1 MSTORE PUSH1 0x1 PUSH1 0x1 PUSH1 0xA0 SHL SUB DUP5 AND PUSH1 0x0 SWAP1 DUP2 MSTORE PUSH1 0x3 PUSH1 0x20 SWAP1 DUP2 MSTORE PUSH1 0x40 SWAP1 SWAP2 KECCAK256 DUP3 MLOAD DUP2 SLOAD SWAP1 ISZERO ISZERO PUSH1 0xFF NOT DUP3 AND DUP2 OR DUP4 SSTORE SWAP3 DUP5 ADD MLOAD SWAP2 SWAP3 DUP4 SWAP2 PUSH2 0xFF00 NOT SWAP1 SWAP2 AND PUSH2 0xFFFF NOT SWAP1 SWAP2 AND OR PUSH2 0x100 DUP4 PUSH1 0x1 DUP2 GT ISZERO PUSH2 0x130A JUMPI PUSH2 0x130A PUSH2 0x310A JUMP JUMPDEST MUL OR SWAP1 SSTORE POP SWAP1 POP POP DUP3 PUSH1 0x1 PUSH1 0x1 PUSH1 0xA0 SHL SUB AND PUSH32 0xC97A41867696F26BE26C3FAD9209E751411C759D0D344DC7EBD1A164FFECACC2 DUP4 DUP4 PUSH1 0x40 MLOAD PUSH2 0x134D SWAP3 SWAP2 SWAP1 PUSH2 0x3120 JUMP JUMPDEST PUSH1 0x40 MLOAD DUP1 SWAP2 SUB SWAP1 LOG2 POP POP POP JUMP JUMPDEST PUSH1 0x1 PUSH1 0x1 PUSH1 0xA0 SHL SUB DUP2 AND PUSH1 0x0 SWAP1 DUP2 MSTORE PUSH1 0x6 PUSH1 0x20 MSTORE PUSH1 0x40 DUP2 KECCAK256 DUP1 SLOAD PUSH1 0x5 DUP3 ADD SLOAD PUSH1 0x1 DUP4 ADD SLOAD PUSH1 0x4 DUP5 ADD SLOAD SWAP3 SWAP5 SWAP2 SWAP4 SWAP1 SWAP3 SWAP2 SWAP1 DUP2 SWAP1 DUP2 SWAP1 PUSH2 0x1398 DUP10 PUSH2 0x663 JUMP JUMPDEST SWAP4 POP PUSH2 0x13A3 DUP6 PUSH2 0x2B45 JUMP JUMPDEST SWAP3 POP PUSH2 0x13AE DUP8 PUSH2 0x2B66 JUMP JUMPDEST SWAP2 POP POP SWAP2 SWAP4 SWAP6 SWAP8 SWAP1 SWAP3 SWAP5 SWAP7 POP JUMP JUMPDEST PUSH2 0x13C4 PUSH2 0x26EA JUMP JUMPDEST PUSH1 0x1 PUSH1 0x1 PUSH1 0xA0 SHL SUB DUP2 AND PUSH2 0x1403 JUMPI PUSH1 0x40 MLOAD PUSH3 0x461BCD PUSH1 0xE5 SHL DUP2 MSTORE PUSH1 0x4 ADD PUSH2 0x71B SWAP1 PUSH1 0x20 DUP1 DUP3 MSTORE PUSH1 0x4 SWAP1 DUP3 ADD MSTORE PUSH4 0x5A45524F PUSH1 0xE0 SHL PUSH1 0x40 DUP3 ADD MSTORE PUSH1 0x60 ADD SWAP1 JUMP JUMPDEST PUSH1 0x1 PUSH1 0x1 PUSH1 0xA0 SHL SUB DUP2 AND PUSH1 0x0 SWAP1 DUP2 MSTORE PUSH1 0x2 PUSH1 0x20 MSTORE PUSH1 0x40 SWAP1 KECCAK256 SLOAD PUSH1 0xFF AND ISZERO PUSH2 0x145C JUMPI PUSH1 0x40 MLOAD PUSH3 0x461BCD PUSH1 0xE5 SHL DUP2 MSTORE PUSH1 0x20 PUSH1 0x4 DUP3 ADD MSTORE PUSH1 0xD PUSH1 0x24 DUP3 ADD MSTORE PUSH13 0x20A62922A0A22CAFA0A226A4A7 PUSH1 0x99 SHL PUSH1 0x44 DUP3 ADD MSTORE PUSH1 0x64 ADD PUSH2 0x71B JUMP JUMPDEST PUSH1 0x1 PUSH1 0x1 PUSH1 0xA0 SHL SUB DUP2 AND PUSH1 0x0 DUP2 DUP2 MSTORE PUSH1 0x2 PUSH1 0x20 MSTORE PUSH1 0x40 DUP1 DUP3 KECCAK256 DUP1 SLOAD PUSH1 0xFF NOT AND PUSH1 0x1 OR SWAP1 SSTORE MLOAD PUSH32 0x44D6D25963F097AD14F29F06854A01F575648A1EF82F30E562CCD3889717E339 SWAP2 SWAP1 LOG2 POP JUMP JUMPDEST PUSH2 0x14B0 PUSH2 0x26EA JUMP JUMPDEST PUSH2 0xD5F PUSH1 0x0 PUSH2 0x2BB4 JUMP JUMPDEST PUSH2 0x14C2 PUSH2 0x2717 JUMP JUMPDEST CALLER PUSH2 0x14CB PUSH2 0x2600 JUMP JUMPDEST PUSH1 0xA SSTORE PUSH2 0x14D6 PUSH2 0xC69 JUMP JUMPDEST PUSH1 0xB SSTORE PUSH1 0x1 PUSH1 0x1 PUSH1 0xA0 SHL SUB DUP2 AND ISZERO PUSH2 0x1586 JUMPI PUSH1 0x1 PUSH1 0x1 PUSH1 0xA0 SHL SUB DUP2 AND PUSH1 0x0 SWAP1 DUP2 MSTORE PUSH1 0x6 PUSH1 0x20 MSTORE PUSH1 0x40 DUP2 KECCAK256 PUSH1 0xA SLOAD PUSH1 0x1 DUP3 ADD SLOAD SWAP2 SWAP3 SWAP2 PUSH10 0xD3C21BCECCEDA1000000 SWAP2 PUSH2 0x1520 SWAP2 PUSH2 0x3311 JUMP JUMPDEST PUSH2 0x152A SWAP2 SWAP1 PUSH2 0x3328 JUMP JUMPDEST SWAP1 POP DUP2 PUSH1 0x2 ADD SLOAD DUP2 PUSH2 0x153C SWAP2 SWAP1 PUSH2 0x335D JUMP JUMPDEST DUP3 PUSH1 0x3 ADD PUSH1 0x0 DUP3 DUP3 SLOAD PUSH2 0x154F SWAP2 SWAP1 PUSH2 0x334A JUMP JUMPDEST SWAP1 SWAP2 SSTORE POP POP PUSH1 0xA SLOAD PUSH1 0x1 DUP4 ADD SLOAD PUSH10 0xD3C21BCECCEDA1000000 SWAP2 PUSH2 0x1571 SWAP2 PUSH2 0x3311 JUMP JUMPDEST PUSH2 0x157B SWAP2 SWAP1 PUSH2 0x3328 JUMP JUMPDEST DUP3 PUSH1 0x2 ADD DUP2 SWAP1 SSTORE POP POP POP JUMPDEST CALLER PUSH1 0x0 SWAP1 DUP2 MSTORE PUSH1 0x6 PUSH1 0x20 MSTORE PUSH1 0x40 SWAP1 KECCAK256 DUP3 PUSH2 0x15CB JUMPI PUSH1 0x40 MLOAD PUSH3 0x461BCD PUSH1 0xE5 SHL DUP2 MSTORE PUSH1 0x4 ADD PUSH2 0x71B SWAP1 PUSH1 0x20 DUP1 DUP3 MSTORE PUSH1 0x4 SWAP1 DUP3 ADD MSTORE PUSH4 0x414D543 PUSH1 0xE4 SHL PUSH1 0x40 DUP3 ADD MSTORE PUSH1 0x60 ADD SWAP1 JUMP JUMPDEST DUP1 SLOAD DUP4 GT ISZERO PUSH2 0x1604 JUMPI PUSH1 0x40 MLOAD PUSH3 0x461BCD PUSH1 0xE5 SHL DUP2 MSTORE PUSH1 0x20 PUSH1 0x4 DUP3 ADD MSTORE PUSH1 0x5 PUSH1 0x24 DUP3 ADD MSTORE PUSH5 0x5354414B45 PUSH1 0xD8 SHL PUSH1 0x44 DUP3 ADD MSTORE PUSH1 0x64 ADD PUSH2 0x71B JUMP JUMPDEST PUSH1 0x5 DUP2 ADD SLOAD PUSH1 0x1 GT ISZERO PUSH2 0x1642 JUMPI PUSH1 0x40 MLOAD PUSH3 0x461BCD PUSH1 0xE5 SHL DUP2 MSTORE PUSH1 0x20 PUSH1 0x4 DUP3 ADD MSTORE PUSH1 0x6 PUSH1 0x24 DUP3 ADD MSTORE PUSH6 0x4E4654524551 PUSH1 0xD0 SHL PUSH1 0x44 DUP3 ADD MSTORE PUSH1 0x64 ADD PUSH2 0x71B JUMP JUMPDEST PUSH2 0x164B CALLER PUSH2 0x276F JUMP JUMPDEST DUP3 DUP2 PUSH1 0x0 ADD PUSH1 0x0 DUP3 DUP3 SLOAD PUSH2 0x165F SWAP2 SWAP1 PUSH2 0x335D JUMP JUMPDEST SWAP3 POP POP DUP2 SWAP1 SSTORE POP DUP3 PUSH1 0x8 PUSH1 0x0 DUP3 DUP3 SLOAD PUSH2 0x1678 SWAP2 SWAP1 PUSH2 0x335D JUMP JUMPDEST SWAP1 SWAP2 SSTORE POP POP PUSH1 0x4 DUP2 ADD SLOAD DUP4 SWAP1 PUSH1 0x0 SWAP1 DUP2 SWAP1 PUSH2 0x1692 SWAP1 PUSH2 0x2B45 JUMP JUMPDEST ISZERO PUSH2 0x17A7 JUMPI PUSH1 0x0 PUSH2 0x2710 PUSH2 0x16A8 PUSH2 0x5DC DUP10 PUSH2 0x3311 JUMP JUMPDEST PUSH2 0x16B2 SWAP2 SWAP1 PUSH2 0x3328 JUMP JUMPDEST SWAP1 POP PUSH1 0x3 PUSH2 0x16C1 PUSH1 0x2 DUP4 PUSH2 0x3311 JUMP JUMPDEST PUSH2 0x16CB SWAP2 SWAP1 PUSH2 0x3328 JUMP JUMPDEST SWAP3 POP PUSH2 0x16D7 DUP4 DUP3 PUSH2 0x335D JUMP JUMPDEST SWAP2 POP PUSH2 0x16E3 DUP2 DUP9 PUSH2 0x335D JUMP JUMPDEST SWAP4 POP DUP3 PUSH1 0x12 PUSH1 0x0 DUP3 DUP3 SLOAD PUSH2 0x16F7 SWAP2 SWAP1 PUSH2 0x334A JUMP JUMPDEST SWAP3 POP POP DUP2 SWAP1 SSTORE POP DUP2 PUSH1 0x13 PUSH1 0x0 DUP3 DUP3 SLOAD PUSH2 0x1710 SWAP2 SWAP1 PUSH2 0x334A JUMP JUMPDEST SWAP1 SWAP2 SSTORE POP POP DUP3 ISZERO PUSH2 0x1724 JUMPI PUSH2 0x1724 DUP4 PUSH2 0x2C04 JUMP JUMPDEST DUP2 ISZERO PUSH2 0x17A5 JUMPI PUSH1 0x40 MLOAD PUSH4 0x852CD8D PUSH1 0xE3 SHL DUP2 MSTORE PUSH1 0x4 DUP2 ADD DUP4 SWAP1 MSTORE PUSH32 0x0 PUSH1 0x1 PUSH1 0x1 PUSH1 0xA0 SHL SUB AND SWAP1 PUSH4 0x42966C68 SWAP1 PUSH1 0x24 ADD PUSH1 0x0 PUSH1 0x40 MLOAD DUP1 DUP4 SUB DUP2 PUSH1 0x0 DUP8 DUP1 EXTCODESIZE ISZERO DUP1 ISZERO PUSH2 0x178C JUMPI PUSH1 0x0 DUP1 REVERT JUMPDEST POP GAS CALL ISZERO DUP1 ISZERO PUSH2 0x17A0 JUMPI RETURNDATASIZE PUSH1 0x0 DUP1 RETURNDATACOPY RETURNDATASIZE PUSH1 0x0 REVERT JUMPDEST POP POP POP POP JUMPDEST POP JUMPDEST DUP4 SLOAD PUSH1 0x0 SUB PUSH2 0x17B8 JUMPI PUSH1 0x0 PUSH1 0x4 DUP6 ADD SSTORE JUMPDEST PUSH2 0x17C1 CALLER PUSH2 0x28CF JUMP JUMPDEST PUSH2 0x17F5 PUSH1 0x1 PUSH1 0x1 PUSH1 0xA0 SHL SUB PUSH32 0x0 AND CALLER DUP6 PUSH2 0x268B JUMP JUMPDEST PUSH1 0x40 DUP1 MLOAD DUP8 DUP2 MSTORE PUSH1 0x20 DUP2 ADD DUP6 SWAP1 MSTORE SWAP1 DUP2 ADD DUP4 SWAP1 MSTORE PUSH1 0x60 DUP2 ADD DUP3 SWAP1 MSTORE CALLER SWAP1 PUSH32 0xED51A34ABF73431AEE998F69FF67CBC5BAE47A2768CC3E2EFAF79E7BA0B65F15 SWAP1 PUSH1 0x80 ADD PUSH1 0x40 MLOAD DUP1 SWAP2 SUB SWAP1 LOG2 POP POP POP POP POP PUSH2 0xFBB PUSH1 0x1 DUP1 SSTORE JUMP JUMPDEST PUSH2 0x1855 PUSH2 0x2717 JUMP JUMPDEST CALLER PUSH2 0x185E PUSH2 0x2600 JUMP JUMPDEST PUSH1 0xA SSTORE PUSH2 0x1869 PUSH2 0xC69 JUMP JUMPDEST PUSH1 0xB SSTORE PUSH1 0x1 PUSH1 0x1 PUSH1 0xA0 SHL SUB DUP2 AND ISZERO PUSH2 0x1919 JUMPI PUSH1 0x1 PUSH1 0x1 PUSH1 0xA0 SHL SUB DUP2 AND PUSH1 0x0 SWAP1 DUP2 MSTORE PUSH1 0x6 PUSH1 0x20 MSTORE PUSH1 0x40 DUP2 KECCAK256 PUSH1 0xA SLOAD PUSH1 0x1 DUP3 ADD SLOAD SWAP2 SWAP3 SWAP2 PUSH10 0xD3C21BCECCEDA1000000 SWAP2 PUSH2 0x18B3 SWAP2 PUSH2 0x3311 JUMP JUMPDEST PUSH2 0x18BD SWAP2 SWAP1 PUSH2 0x3328 JUMP JUMPDEST SWAP1 POP DUP2 PUSH1 0x2 ADD SLOAD DUP2 PUSH2 0x18CF SWAP2 SWAP1 PUSH2 0x335D JUMP JUMPDEST DUP3 PUSH1 0x3 ADD PUSH1 0x0 DUP3 DUP3 SLOAD PUSH2 0x18E2 SWAP2 SWAP1 PUSH2 0x334A JUMP JUMPDEST SWAP1 SWAP2 SSTORE POP POP PUSH1 0xA SLOAD PUSH1 0x1 DUP4 ADD SLOAD PUSH10 0xD3C21BCECCEDA1000000 SWAP2 PUSH2 0x1904 SWAP2 PUSH2 0x3311 JUMP JUMPDEST PUSH2 0x190E SWAP2 SWAP1 PUSH2 0x3328 JUMP JUMPDEST DUP3 PUSH1 0x2 ADD DUP2 SWAP1 SSTORE POP POP POP JUMPDEST PUSH2 0x1923 DUP4 DUP4 PUSH2 0x1B28 JUMP JUMPDEST PUSH2 0x1958 JUMPI PUSH1 0x40 MLOAD PUSH3 0x461BCD PUSH1 0xE5 SHL DUP2 MSTORE PUSH1 0x20 PUSH1 0x4 DUP3 ADD MSTORE PUSH1 0x6 PUSH1 0x24 DUP3 ADD MSTORE PUSH6 0x109051139195 PUSH1 0xD2 SHL PUSH1 0x44 DUP3 ADD MSTORE PUSH1 0x64 ADD PUSH2 0x71B JUMP JUMPDEST CALLER PUSH1 0x0 SWAP1 DUP2 MSTORE PUSH1 0x6 PUSH1 0x20 MSTORE PUSH1 0x40 SWAP1 KECCAK256 PUSH1 0x5 DUP2 ADD SLOAD PUSH1 0x4 GT PUSH2 0x19A4 JUMPI PUSH1 0x40 MLOAD PUSH3 0x461BCD PUSH1 0xE5 SHL DUP2 MSTORE PUSH1 0x20 PUSH1 0x4 DUP3 ADD MSTORE PUSH1 0x6 PUSH1 0x24 DUP3 ADD MSTORE PUSH6 0x135056139195 PUSH1 0xD2 SHL PUSH1 0x44 DUP3 ADD MSTORE PUSH1 0x64 ADD PUSH2 0x71B JUMP JUMPDEST PUSH1 0x1 PUSH1 0x1 PUSH1 0xA0 SHL SUB DUP5 DUP2 AND PUSH1 0x0 SWAP1 DUP2 MSTORE PUSH1 0x7 PUSH1 0x20 SWAP1 DUP2 MSTORE PUSH1 0x40 DUP1 DUP4 KECCAK256 DUP8 DUP5 MSTORE SWAP1 SWAP2 MSTORE SWAP1 KECCAK256 SLOAD AND ISZERO PUSH2 0x1A00 JUMPI PUSH1 0x40 MLOAD PUSH3 0x461BCD PUSH1 0xE5 SHL DUP2 MSTORE PUSH1 0x20 PUSH1 0x4 DUP3 ADD MSTORE PUSH1 0x6 PUSH1 0x24 DUP3 ADD MSTORE PUSH6 0x111554139195 PUSH1 0xD2 SHL PUSH1 0x44 DUP3 ADD MSTORE PUSH1 0x64 ADD PUSH2 0x71B JUMP JUMPDEST PUSH1 0x40 MLOAD PUSH4 0x21421707 PUSH1 0xE1 SHL DUP2 MSTORE PUSH1 0x1 PUSH1 0x1 PUSH1 0xA0 SHL SUB DUP6 AND SWAP1 PUSH4 0x42842E0E SWAP1 PUSH2 0x1A30 SWAP1 CALLER SWAP1 ADDRESS SWAP1 DUP9 SWAP1 PUSH1 0x4 ADD PUSH2 0x33DB JUMP JUMPDEST PUSH1 0x0 PUSH1 0x40 MLOAD DUP1 DUP4 SUB DUP2 PUSH1 0x0 DUP8 DUP1 EXTCODESIZE ISZERO DUP1 ISZERO PUSH2 0x1A4A JUMPI PUSH1 0x0 DUP1 REVERT JUMPDEST POP GAS CALL ISZERO DUP1 ISZERO PUSH2 0x1A5E JUMPI RETURNDATASIZE PUSH1 0x0 DUP1 RETURNDATACOPY RETURNDATASIZE PUSH1 0x0 REVERT JUMPDEST POP POP POP POP PUSH1 0x1 PUSH1 0x1 PUSH1 0xA0 SHL SUB DUP5 DUP2 AND PUSH1 0x0 DUP2 DUP2 MSTORE PUSH1 0x7 PUSH1 0x20 SWAP1 DUP2 MSTORE PUSH1 0x40 DUP1 DUP4 KECCAK256 DUP9 DUP5 MSTORE DUP3 MSTORE DUP1 DUP4 KECCAK256 DUP1 SLOAD CALLER PUSH1 0x1 PUSH1 0x1 PUSH1 0xA0 SHL SUB NOT SWAP2 DUP3 AND DUP2 OR SWAP1 SWAP3 SSTORE DUP3 MLOAD DUP1 DUP5 ADD SWAP1 SWAP4 MSTORE SWAP5 DUP3 MSTORE DUP2 DUP4 ADD DUP10 DUP2 MSTORE PUSH1 0x5 DUP9 ADD DUP1 SLOAD PUSH1 0x1 DUP2 DUP2 ADD DUP4 SSTORE SWAP2 DUP8 MSTORE SWAP5 SWAP1 SWAP6 KECCAK256 SWAP3 MLOAD PUSH1 0x2 SWAP1 SWAP5 MUL SWAP1 SWAP3 ADD DUP1 SLOAD SWAP1 SWAP6 AND SWAP3 SWAP1 SWAP6 AND SWAP2 SWAP1 SWAP2 OR DUP4 SSTORE MLOAD SWAP2 ADD SSTORE PUSH2 0x1AE5 SWAP1 PUSH2 0x28CF JUMP JUMPDEST PUSH1 0x40 MLOAD DUP4 SWAP1 PUSH1 0x1 PUSH1 0x1 PUSH1 0xA0 SHL SUB DUP7 AND SWAP1 CALLER SWAP1 PUSH32 0x45A0B747ADA8575B65125B2144E0DE1FF692FF4510BB94A2F9695FCAF1D2BDF3 SWAP1 PUSH1 0x0 SWAP1 LOG4 POP POP PUSH2 0xBAA PUSH1 0x1 DUP1 SSTORE JUMP JUMPDEST PUSH1 0x1 PUSH1 0x1 PUSH1 0xA0 SHL SUB DUP3 AND PUSH1 0x0 SWAP1 DUP2 MSTORE PUSH1 0x3 PUSH1 0x20 SWAP1 DUP2 MSTORE PUSH1 0x40 DUP1 DUP4 KECCAK256 DUP2 MLOAD DUP1 DUP4 ADD SWAP1 SWAP3 MSTORE DUP1 SLOAD PUSH1 0xFF DUP1 DUP3 AND ISZERO ISZERO DUP5 MSTORE DUP6 SWAP5 DUP5 ADD SWAP2 PUSH2 0x100 SWAP1 DIV AND PUSH1 0x1 DUP2 GT ISZERO PUSH2 0x1B72 JUMPI PUSH2 0x1B72 PUSH2 0x310A JUMP JUMPDEST PUSH1 0x1 DUP2 GT ISZERO PUSH2 0x1B83 JUMPI PUSH2 0x1B83 PUSH2 0x310A JUMP JUMPDEST SWAP1 MSTORE POP DUP1 MLOAD SWAP1 SWAP2 POP PUSH2 0x1B99 JUMPI PUSH1 0x0 SWAP2 POP POP PUSH2 0x1BEA JUMP JUMPDEST PUSH1 0x0 DUP2 PUSH1 0x20 ADD MLOAD PUSH1 0x1 DUP2 GT ISZERO PUSH2 0x1BB1 JUMPI PUSH2 0x1BB1 PUSH2 0x310A JUMP JUMPDEST SUB PUSH2 0x1BC0 JUMPI PUSH1 0x1 SWAP2 POP POP PUSH2 0x1BEA JUMP JUMPDEST POP POP PUSH1 0x1 PUSH1 0x1 PUSH1 0xA0 SHL SUB DUP3 AND PUSH1 0x0 SWAP1 DUP2 MSTORE PUSH1 0x4 PUSH1 0x20 SWAP1 DUP2 MSTORE PUSH1 0x40 DUP1 DUP4 KECCAK256 DUP5 DUP5 MSTORE SWAP1 SWAP2 MSTORE SWAP1 KECCAK256 SLOAD PUSH1 0xFF AND JUMPDEST SWAP3 SWAP2 POP POP JUMP JUMPDEST CALLER PUSH1 0x0 SWAP1 DUP2 MSTORE PUSH1 0x2 PUSH1 0x20 MSTORE PUSH1 0x40 SWAP1 KECCAK256 SLOAD PUSH1 0xFF AND DUP1 PUSH2 0x1C18 JUMPI POP PUSH1 0x0 SLOAD PUSH1 0x1 PUSH1 0x1 PUSH1 0xA0 SHL SUB AND CALLER EQ JUMPDEST PUSH2 0x1C34 JUMPI PUSH1 0x40 MLOAD PUSH3 0x461BCD PUSH1 0xE5 SHL DUP2 MSTORE PUSH1 0x4 ADD PUSH2 0x71B SWAP1 PUSH2 0x3370 JUMP JUMPDEST PUSH1 0x1 PUSH1 0x1 PUSH1 0xA0 SHL SUB DUP5 AND PUSH2 0x1C5A JUMPI PUSH1 0x40 MLOAD PUSH3 0x461BCD PUSH1 0xE5 SHL DUP2 MSTORE PUSH1 0x4 ADD PUSH2 0x71B SWAP1 PUSH2 0x33FF JUMP JUMPDEST PUSH1 0x0 JUMPDEST DUP3 DUP2 LT ISZERO PUSH2 0x1D2D JUMPI PUSH1 0x1 PUSH1 0x1 PUSH1 0xA0 SHL SUB DUP6 AND PUSH1 0x0 SWAP1 DUP2 MSTORE PUSH1 0x4 PUSH1 0x20 MSTORE PUSH1 0x40 DUP2 KECCAK256 DUP4 SWAP2 DUP7 DUP7 DUP6 DUP2 DUP2 LT PUSH2 0x1C91 JUMPI PUSH2 0x1C91 PUSH2 0x341D JUMP JUMPDEST SWAP1 POP PUSH1 0x20 MUL ADD CALLDATALOAD DUP2 MSTORE PUSH1 0x20 ADD SWAP1 DUP2 MSTORE PUSH1 0x20 ADD PUSH1 0x0 KECCAK256 PUSH1 0x0 PUSH2 0x100 EXP DUP2 SLOAD DUP2 PUSH1 0xFF MUL NOT AND SWAP1 DUP4 ISZERO ISZERO MUL OR SWAP1 SSTORE POP DUP4 DUP4 DUP3 DUP2 DUP2 LT PUSH2 0x1CCF JUMPI PUSH2 0x1CCF PUSH2 0x341D JUMP JUMPDEST SWAP1 POP PUSH1 0x20 MUL ADD CALLDATALOAD DUP6 PUSH1 0x1 PUSH1 0x1 PUSH1 0xA0 SHL SUB AND PUSH32 0x3929B99F1D41B1602615ACBAC6AF6C29AE6687DB3D6586D252BF82074486E31 DUP5 PUSH1 0x40 MLOAD PUSH2 0x1D13 SWAP2 ISZERO ISZERO DUP2 MSTORE PUSH1 0x20 ADD SWAP1 JUMP JUMPDEST PUSH1 0x40 MLOAD DUP1 SWAP2 SUB SWAP1 LOG3 DUP1 PUSH2 0x1D25 DUP2 PUSH2 0x3433 JUMP JUMPDEST SWAP2 POP POP PUSH2 0x1C5D JUMP JUMPDEST POP POP POP POP POP JUMP JUMPDEST PUSH2 0x1D3C PUSH2 0x2717 JUMP JUMPDEST CALLER PUSH2 0x1D45 PUSH2 0x2600 JUMP JUMPDEST PUSH1 0xA SSTORE PUSH2 0x1D50 PUSH2 0xC69 JUMP JUMPDEST PUSH1 0xB SSTORE PUSH1 0x1 PUSH1 0x1 PUSH1 0xA0 SHL SUB DUP2 AND ISZERO PUSH2 0x1E00 JUMPI PUSH1 0x1 PUSH1 0x1 PUSH1 0xA0 SHL SUB DUP2 AND PUSH1 0x0 SWAP1 DUP2 MSTORE PUSH1 0x6 PUSH1 0x20 MSTORE PUSH1 0x40 DUP2 KECCAK256 PUSH1 0xA SLOAD PUSH1 0x1 DUP3 ADD SLOAD SWAP2 SWAP3 SWAP2 PUSH10 0xD3C21BCECCEDA1000000 SWAP2 PUSH2 0x1D9A SWAP2 PUSH2 0x3311 JUMP JUMPDEST PUSH2 0x1DA4 SWAP2 SWAP1 PUSH2 0x3328 JUMP JUMPDEST SWAP1 POP DUP2 PUSH1 0x2 ADD SLOAD DUP2 PUSH2 0x1DB6 SWAP2 SWAP1 PUSH2 0x335D JUMP JUMPDEST DUP3 PUSH1 0x3 ADD PUSH1 0x0 DUP3 DUP3 SLOAD PUSH2 0x1DC9 SWAP2 SWAP1 PUSH2 0x334A JUMP JUMPDEST SWAP1 SWAP2 SSTORE POP POP PUSH1 0xA SLOAD PUSH1 0x1 DUP4 ADD SLOAD PUSH10 0xD3C21BCECCEDA1000000 SWAP2 PUSH2 0x1DEB SWAP2 PUSH2 0x3311 JUMP JUMPDEST PUSH2 0x1DF5 SWAP2 SWAP1 PUSH2 0x3328 JUMP JUMPDEST DUP3 PUSH1 0x2 ADD DUP2 SWAP1 SSTORE POP POP POP JUMPDEST CALLER PUSH1 0x0 SWAP1 DUP2 MSTORE PUSH1 0x6 PUSH1 0x20 MSTORE PUSH1 0x40 SWAP1 KECCAK256 DUP1 SLOAD ISZERO ISZERO DUP1 PUSH2 0x1E21 JUMPI POP PUSH1 0x5 DUP2 ADD SLOAD ISZERO ISZERO JUMPDEST PUSH2 0x1E55 JUMPI PUSH1 0x40 MLOAD PUSH3 0x461BCD PUSH1 0xE5 SHL DUP2 MSTORE PUSH1 0x20 PUSH1 0x4 DUP3 ADD MSTORE PUSH1 0x5 PUSH1 0x24 DUP3 ADD MSTORE PUSH5 0x4E4F504F53 PUSH1 0xD8 SHL PUSH1 0x44 DUP3 ADD MSTORE PUSH1 0x64 ADD PUSH2 0x71B JUMP JUMPDEST PUSH2 0x1E5E CALLER PUSH2 0x276F JUMP JUMPDEST DUP1 SLOAD DUP1 PUSH1 0x0 DUP1 DUP3 ISZERO PUSH2 0x1FA9 JUMPI PUSH1 0x0 DUP1 DUP7 SSTORE PUSH1 0x8 DUP1 SLOAD DUP7 SWAP3 SWAP1 PUSH2 0x1E81 SWAP1 DUP5 SWAP1 PUSH2 0x335D JUMP JUMPDEST SWAP1 SWAP2 SSTORE POP POP PUSH1 0x4 DUP6 ADD SLOAD PUSH2 0x1E94 SWAP1 PUSH2 0x2B45 JUMP JUMPDEST ISZERO PUSH2 0x1FA9 JUMPI PUSH1 0x0 PUSH2 0x2710 PUSH2 0x1EAA PUSH2 0x5DC DUP8 PUSH2 0x3311 JUMP JUMPDEST PUSH2 0x1EB4 SWAP2 SWAP1 PUSH2 0x3328 JUMP JUMPDEST SWAP1 POP PUSH1 0x3 PUSH2 0x1EC3 PUSH1 0x2 DUP4 PUSH2 0x3311 JUMP JUMPDEST PUSH2 0x1ECD SWAP2 SWAP1 PUSH2 0x3328 JUMP JUMPDEST SWAP3 POP PUSH2 0x1ED9 DUP4 DUP3 PUSH2 0x335D JUMP JUMPDEST SWAP2 POP PUSH2 0x1EE5 DUP2 DUP7 PUSH2 0x335D JUMP JUMPDEST SWAP4 POP DUP3 PUSH1 0x12 PUSH1 0x0 DUP3 DUP3 SLOAD PUSH2 0x1EF9 SWAP2 SWAP1 PUSH2 0x334A JUMP JUMPDEST SWAP3 POP POP DUP2 SWAP1 SSTORE POP DUP2 PUSH1 0x13 PUSH1 0x0 DUP3 DUP3 SLOAD PUSH2 0x1F12 SWAP2 SWAP1 PUSH2 0x334A JUMP JUMPDEST SWAP1 SWAP2 SSTORE POP POP DUP3 ISZERO PUSH2 0x1F26 JUMPI PUSH2 0x1F26 DUP4 PUSH2 0x2C04 JUMP JUMPDEST DUP2 ISZERO PUSH2 0x1FA7 JUMPI PUSH1 0x40 MLOAD PUSH4 0x852CD8D PUSH1 0xE3 SHL DUP2 MSTORE PUSH1 0x4 DUP2 ADD DUP4 SWAP1 MSTORE PUSH32 0x0 PUSH1 0x1 PUSH1 0x1 PUSH1 0xA0 SHL SUB AND SWAP1 PUSH4 0x42966C68 SWAP1 PUSH1 0x24 ADD PUSH1 0x0 PUSH1 0x40 MLOAD DUP1 DUP4 SUB DUP2 PUSH1 0x0 DUP8 DUP1 EXTCODESIZE ISZERO DUP1 ISZERO PUSH2 0x1F8E JUMPI PUSH1 0x0 DUP1 REVERT JUMPDEST POP GAS CALL ISZERO DUP1 ISZERO PUSH2 0x1FA2 JUMPI RETURNDATASIZE PUSH1 0x0 DUP1 RETURNDATACOPY RETURNDATASIZE PUSH1 0x0 REVERT JUMPDEST POP POP POP POP JUMPDEST POP JUMPDEST PUSH1 0x5 DUP6 ADD SLOAD PUSH1 0x0 DUP2 PUSH8 0xFFFFFFFFFFFFFFFF DUP2 GT ISZERO PUSH2 0x1FC9 JUMPI PUSH2 0x1FC9 PUSH2 0x344C JUMP JUMPDEST PUSH1 0x40 MLOAD SWAP1 DUP1 DUP3 MSTORE DUP1 PUSH1 0x20 MUL PUSH1 0x20 ADD DUP3 ADD PUSH1 0x40 MSTORE DUP1 ISZERO PUSH2 0x200E JUMPI DUP2 PUSH1 0x20 ADD JUMPDEST PUSH1 0x40 DUP1 MLOAD DUP1 DUP3 ADD SWAP1 SWAP2 MSTORE PUSH1 0x0 DUP1 DUP3 MSTORE PUSH1 0x20 DUP3 ADD MSTORE DUP2 MSTORE PUSH1 0x20 ADD SWAP1 PUSH1 0x1 SWAP1 SUB SWAP1 DUP2 PUSH2 0x1FE7 JUMPI SWAP1 POP JUMPDEST POP SWAP1 POP PUSH1 0x0 JUMPDEST DUP3 DUP2 LT ISZERO PUSH2 0x212C JUMPI DUP8 PUSH1 0x5 ADD DUP2 DUP2 SLOAD DUP2 LT PUSH2 0x2031 JUMPI PUSH2 0x2031 PUSH2 0x341D JUMP JUMPDEST PUSH1 0x0 SWAP2 DUP3 MSTORE PUSH1 0x20 SWAP2 DUP3 SWAP1 KECCAK256 PUSH1 0x40 DUP1 MLOAD DUP1 DUP3 ADD SWAP1 SWAP2 MSTORE PUSH1 0x2 SWAP1 SWAP3 MUL ADD DUP1 SLOAD PUSH1 0x1 PUSH1 0x1 PUSH1 0xA0 SHL SUB AND DUP3 MSTORE PUSH1 0x1 ADD SLOAD SWAP2 DUP2 ADD SWAP2 SWAP1 SWAP2 MSTORE DUP3 MLOAD DUP4 SWAP1 DUP4 SWAP1 DUP2 LT PUSH2 0x2078 JUMPI PUSH2 0x2078 PUSH2 0x341D JUMP JUMPDEST PUSH1 0x20 MUL PUSH1 0x20 ADD ADD DUP2 SWAP1 MSTORE POP PUSH1 0x0 PUSH1 0x7 PUSH1 0x0 DUP5 DUP5 DUP2 MLOAD DUP2 LT PUSH2 0x209B JUMPI PUSH2 0x209B PUSH2 0x341D JUMP JUMPDEST PUSH1 0x20 MUL PUSH1 0x20 ADD ADD MLOAD PUSH1 0x0 ADD MLOAD PUSH1 0x1 PUSH1 0x1 PUSH1 0xA0 SHL SUB AND PUSH1 0x1 PUSH1 0x1 PUSH1 0xA0 SHL SUB AND DUP2 MSTORE PUSH1 0x20 ADD SWAP1 DUP2 MSTORE PUSH1 0x20 ADD PUSH1 0x0 KECCAK256 PUSH1 0x0 DUP5 DUP5 DUP2 MLOAD DUP2 LT PUSH2 0x20DB JUMPI PUSH2 0x20DB PUSH2 0x341D JUMP JUMPDEST PUSH1 0x20 MUL PUSH1 0x20 ADD ADD MLOAD PUSH1 0x20 ADD MLOAD DUP2 MSTORE PUSH1 0x20 ADD SWAP1 DUP2 MSTORE PUSH1 0x20 ADD PUSH1 0x0 KECCAK256 PUSH1 0x0 PUSH2 0x100 EXP DUP2 SLOAD DUP2 PUSH1 0x1 PUSH1 0x1 PUSH1 0xA0 SHL SUB MUL NOT AND SWAP1 DUP4 PUSH1 0x1 PUSH1 0x1 PUSH1 0xA0 SHL SUB AND MUL OR SWAP1 SSTORE POP DUP1 DUP1 PUSH2 0x2124 SWAP1 PUSH2 0x3433 JUMP JUMPDEST SWAP2 POP POP PUSH2 0x2014 JUMP JUMPDEST POP PUSH2 0x213B PUSH1 0x5 DUP9 ADD PUSH1 0x0 PUSH2 0x2EE8 JUMP JUMPDEST PUSH1 0x0 PUSH1 0x4 DUP9 ADD SSTORE PUSH2 0x214B CALLER PUSH2 0x28CF JUMP JUMPDEST DUP5 ISZERO PUSH2 0x2185 JUMPI PUSH2 0x2185 PUSH1 0x1 PUSH1 0x1 PUSH1 0xA0 SHL SUB PUSH32 0x0 AND CALLER DUP8 PUSH2 0x268B JUMP JUMPDEST PUSH1 0x0 JUMPDEST DUP2 MLOAD DUP2 LT ISZERO PUSH2 0x22BA JUMPI DUP2 DUP2 DUP2 MLOAD DUP2 LT PUSH2 0x21A3 JUMPI PUSH2 0x21A3 PUSH2 0x341D JUMP JUMPDEST PUSH1 0x20 MUL PUSH1 0x20 ADD ADD MLOAD PUSH1 0x0 ADD MLOAD PUSH1 0x1 PUSH1 0x1 PUSH1 0xA0 SHL SUB AND PUSH4 0x42842E0E ADDRESS CALLER DUP6 DUP6 DUP2 MLOAD DUP2 LT PUSH2 0x21D1 JUMPI PUSH2 0x21D1 PUSH2 0x341D JUMP JUMPDEST PUSH1 0x20 MUL PUSH1 0x20 ADD ADD MLOAD PUSH1 0x20 ADD MLOAD PUSH1 0x40 MLOAD DUP5 PUSH4 0xFFFFFFFF AND PUSH1 0xE0 SHL DUP2 MSTORE PUSH1 0x4 ADD PUSH2 0x21FB SWAP4 SWAP3 SWAP2 SWAP1 PUSH2 0x33DB JUMP JUMPDEST PUSH1 0x0 PUSH1 0x40 MLOAD DUP1 DUP4 SUB DUP2 PUSH1 0x0 DUP8 DUP1 EXTCODESIZE ISZERO DUP1 ISZERO PUSH2 0x2215 JUMPI PUSH1 0x0 DUP1 REVERT JUMPDEST POP GAS CALL ISZERO DUP1 ISZERO PUSH2 0x2229 JUMPI RETURNDATASIZE PUSH1 0x0 DUP1 RETURNDATACOPY RETURNDATASIZE PUSH1 0x0 REVERT JUMPDEST POP POP POP POP DUP2 DUP2 DUP2 MLOAD DUP2 LT PUSH2 0x223F JUMPI PUSH2 0x223F PUSH2 0x341D JUMP JUMPDEST PUSH1 0x20 MUL PUSH1 0x20 ADD ADD MLOAD PUSH1 0x20 ADD MLOAD DUP3 DUP3 DUP2 MLOAD DUP2 LT PUSH2 0x225D JUMPI PUSH2 0x225D PUSH2 0x341D JUMP JUMPDEST PUSH1 0x20 MUL PUSH1 0x20 ADD ADD MLOAD PUSH1 0x0 ADD MLOAD PUSH1 0x1 PUSH1 0x1 PUSH1 0xA0 SHL SUB AND CALLER PUSH1 0x1 PUSH1 0x1 PUSH1 0xA0 SHL SUB AND PUSH32 0xBBDE41973F9CE4890F7AD9762C23D8191F261FD643BDF13ED8BBC10549B49FCB PUSH1 0x40 MLOAD PUSH1 0x40 MLOAD DUP1 SWAP2 SUB SWAP1 LOG4 DUP1 PUSH2 0x22B2 DUP2 PUSH2 0x3433 JUMP JUMPDEST SWAP2 POP POP PUSH2 0x2188 JUMP JUMPDEST POP PUSH1 0x40 DUP1 MLOAD DUP8 DUP2 MSTORE PUSH1 0x20 DUP2 ADD DUP8 SWAP1 MSTORE SWAP1 DUP2 ADD DUP6 SWAP1 MSTORE PUSH1 0x60 DUP2 ADD DUP5 SWAP1 MSTORE CALLER SWAP1 PUSH32 0xED51A34ABF73431AEE998F69FF67CBC5BAE47A2768CC3E2EFAF79E7BA0B65F15 SWAP1 PUSH1 0x80 ADD PUSH1 0x40 MLOAD DUP1 SWAP2 SUB SWAP1 LOG2 PUSH1 0x40 MLOAD CALLER SWAP1 PUSH32 0xAA5CFC974BD759F818E3E18A4AFC9D79DAAA0722158497792100A1FDDD13E193 SWAP1 PUSH1 0x0 SWAP1 LOG2 POP POP POP POP POP POP POP POP PUSH2 0xD5F PUSH1 0x1 DUP1 SSTORE JUMP JUMPDEST PUSH2 0x2349 PUSH2 0x26EA JUMP JUMPDEST PUSH1 0x1 PUSH1 0x1 PUSH1 0xA0 SHL SUB DUP2 AND PUSH2 0x2373 JUMPI PUSH1 0x40 MLOAD PUSH4 0x1E4FBDF7 PUSH1 0xE0 SHL DUP2 MSTORE PUSH1 0x0 PUSH1 0x4 DUP3 ADD MSTORE PUSH1 0x24 ADD PUSH2 0x71B JUMP JUMPDEST PUSH2 0xFBB DUP2 PUSH2 0x2BB4 JUMP JUMPDEST PUSH1 0x0 PUSH1 0x5 PUSH1 0x0 DUP5 DUP5 PUSH1 0x40 MLOAD PUSH2 0x2392 SWAP3 SWAP2 SWAP1 PUSH2 0x3393 JUMP JUMPDEST PUSH1 0x40 DUP1 MLOAD SWAP2 DUP3 SWAP1 SUB SWAP1 SWAP2 KECCAK256 DUP3 MSTORE PUSH1 0x20 DUP3 ADD SWAP3 SWAP1 SWAP3 MSTORE ADD PUSH1 0x0 KECCAK256 SLOAD PUSH1 0xFF AND SWAP4 SWAP3 POP POP POP JUMP JUMPDEST CALLER PUSH1 0x0 SWAP1 DUP2 MSTORE PUSH1 0x2 PUSH1 0x20 MSTORE PUSH1 0x40 SWAP1 KECCAK256 SLOAD PUSH1 0xFF AND DUP1 PUSH2 0x23DE JUMPI POP PUSH1 0x0 SLOAD PUSH1 0x1 PUSH1 0x1 PUSH1 0xA0 SHL SUB AND CALLER EQ JUMPDEST PUSH2 0x23FA JUMPI PUSH1 0x40 MLOAD PUSH3 0x461BCD PUSH1 0xE5 SHL DUP2 MSTORE PUSH1 0x4 ADD PUSH2 0x71B SWAP1 PUSH2 0x3370 JUMP JUMPDEST PUSH2 0x2402 PUSH2 0x2717 JUMP JUMPDEST PUSH1 0x1 PUSH1 0x1 PUSH1 0xA0 SHL SUB DUP4 AND PUSH2 0x2428 JUMPI PUSH1 0x40 MLOAD PUSH3 0x461BCD PUSH1 0xE5 SHL DUP2 MSTORE PUSH1 0x4 ADD PUSH2 0x71B SWAP1 PUSH2 0x33FF JUMP JUMPDEST PUSH1 0x1 PUSH1 0x1 PUSH1 0xA0 SHL SUB DUP2 AND PUSH2 0x2464 JUMPI PUSH1 0x40 MLOAD PUSH3 0x461BCD PUSH1 0xE5 SHL DUP2 MSTORE PUSH1 0x20 PUSH1 0x4 DUP3 ADD MSTORE PUSH1 0x3 PUSH1 0x24 DUP3 ADD MSTORE PUSH3 0x544F3 PUSH1 0xEC SHL PUSH1 0x44 DUP3 ADD MSTORE PUSH1 0x64 ADD PUSH2 0x71B JUMP JUMPDEST PUSH1 0x1 PUSH1 0x1 PUSH1 0xA0 SHL SUB DUP4 DUP2 AND PUSH1 0x0 SWAP1 DUP2 MSTORE PUSH1 0x7 PUSH1 0x20 SWAP1 DUP2 MSTORE PUSH1 0x40 DUP1 DUP4 KECCAK256 DUP7 DUP5 MSTORE SWAP1 SWAP2 MSTORE SWAP1 KECCAK256 SLOAD AND ISZERO PUSH2 0x24C0 JUMPI PUSH1 0x40 MLOAD PUSH3 0x461BCD PUSH1 0xE5 SHL DUP2 MSTORE PUSH1 0x20 PUSH1 0x4 DUP3 ADD MSTORE PUSH1 0x6 PUSH1 0x24 DUP3 ADD MSTORE PUSH6 0x14D51052D151 PUSH1 0xD2 SHL PUSH1 0x44 DUP3 ADD MSTORE PUSH1 0x64 ADD PUSH2 0x71B JUMP JUMPDEST PUSH1 0x40 MLOAD PUSH4 0x21421707 PUSH1 0xE1 SHL DUP2 MSTORE PUSH1 0x1 PUSH1 0x1 PUSH1 0xA0 SHL SUB DUP5 AND SWAP1 PUSH4 0x42842E0E SWAP1 PUSH2 0x24F0 SWAP1 ADDRESS SWAP1 DUP6 SWAP1 DUP8 SWAP1 PUSH1 0x4 ADD PUSH2 0x33DB JUMP JUMPDEST PUSH1 0x0 PUSH1 0x40 MLOAD DUP1 DUP4 SUB DUP2 PUSH1 0x0 DUP8 DUP1 EXTCODESIZE ISZERO DUP1 ISZERO PUSH2 0x250A JUMPI PUSH1 0x0 DUP1 REVERT JUMPDEST POP GAS CALL ISZERO DUP1 ISZERO PUSH2 0x251E JUMPI RETURNDATASIZE PUSH1 0x0 DUP1 RETURNDATACOPY RETURNDATASIZE PUSH1 0x0 REVERT JUMPDEST POP POP POP POP PUSH2 0x7DE PUSH1 0x1 DUP1 SSTORE JUMP JUMPDEST CALLER PUSH1 0x0 SWAP1 DUP2 MSTORE PUSH1 0x2 PUSH1 0x20 MSTORE PUSH1 0x40 SWAP1 KECCAK256 SLOAD PUSH1 0xFF AND DUP1 PUSH2 0x2553 JUMPI POP PUSH1 0x0 SLOAD PUSH1 0x1 PUSH1 0x1 PUSH1 0xA0 SHL SUB AND CALLER EQ JUMPDEST PUSH2 0x256F JUMPI PUSH1 0x40 MLOAD PUSH3 0x461BCD PUSH1 0xE5 SHL DUP2 MSTORE PUSH1 0x4 ADD PUSH2 0x71B SWAP1 PUSH2 0x3370 JUMP JUMPDEST PUSH1 0x1 PUSH1 0x1 PUSH1 0xA0 SHL SUB DUP4 AND PUSH2 0x2595 JUMPI PUSH1 0x40 MLOAD PUSH3 0x461BCD PUSH1 0xE5 SHL DUP2 MSTORE PUSH1 0x4 ADD PUSH2 0x71B SWAP1 PUSH2 0x33FF JUMP JUMPDEST PUSH1 0x1 PUSH1 0x1 PUSH1 0xA0 SHL SUB DUP4 AND PUSH1 0x0 DUP2 DUP2 MSTORE PUSH1 0x4 PUSH1 0x20 SWAP1 DUP2 MSTORE PUSH1 0x40 DUP1 DUP4 KECCAK256 DUP7 DUP5 MSTORE DUP3 MSTORE SWAP2 DUP3 SWAP1 KECCAK256 DUP1 SLOAD PUSH1 0xFF NOT AND DUP6 ISZERO ISZERO SWAP1 DUP2 OR SWAP1 SWAP2 SSTORE SWAP2 MLOAD SWAP2 DUP3 MSTORE DUP5 SWAP3 SWAP2 PUSH32 0x3929B99F1D41B1602615ACBAC6AF6C29AE6687DB3D6586D252BF82074486E31 SWAP2 ADD PUSH1 0x40 MLOAD DUP1 SWAP2 SUB SWAP1 LOG3 POP POP POP JUMP JUMPDEST PUSH1 0x0 PUSH1 0x9 SLOAD PUSH1 0x0 SUB PUSH2 0x2613 JUMPI POP PUSH1 0xA SLOAD SWAP1 JUMP JUMPDEST PUSH1 0x0 PUSH2 0x261D PUSH2 0xC69 JUMP JUMPDEST SWAP1 POP PUSH1 0xB SLOAD DUP2 GT PUSH2 0x2630 JUMPI POP POP PUSH1 0xA SLOAD SWAP1 JUMP JUMPDEST PUSH1 0x0 PUSH1 0xB SLOAD DUP3 PUSH2 0x2640 SWAP2 SWAP1 PUSH2 0x335D JUMP JUMPDEST SWAP1 POP PUSH1 0x0 PUSH1 0xC SLOAD DUP3 PUSH2 0x2652 SWAP2 SWAP1 PUSH2 0x3311 JUMP JUMPDEST PUSH1 0x9 SLOAD SWAP1 SWAP2 POP PUSH2 0x266C PUSH10 0xD3C21BCECCEDA1000000 DUP4 PUSH2 0x3311 JUMP JUMPDEST PUSH2 0x2676 SWAP2 SWAP1 PUSH2 0x3328 JUMP JUMPDEST PUSH1 0xA SLOAD PUSH2 0x2683 SWAP2 SWAP1 PUSH2 0x334A JUMP JUMPDEST SWAP4 POP POP POP POP SWAP1 JUMP JUMPDEST PUSH1 0x40 MLOAD PUSH1 0x1 PUSH1 0x1 PUSH1 0xA0 SHL SUB DUP4 DUP2 AND PUSH1 0x24 DUP4 ADD MSTORE PUSH1 0x44 DUP3 ADD DUP4 SWAP1 MSTORE PUSH2 0x7DE SWAP2 DUP6 SWAP2 DUP3 AND SWAP1 PUSH4 0xA9059CBB SWAP1 PUSH1 0x64 ADD JUMPDEST PUSH1 0x40 MLOAD PUSH1 0x20 DUP2 DUP4 SUB SUB DUP2 MSTORE SWAP1 PUSH1 0x40 MSTORE SWAP2 POP PUSH1 0xE0 SHL PUSH1 0x20 DUP3 ADD DUP1 MLOAD PUSH1 0x1 PUSH1 0x1 PUSH1 0xE0 SHL SUB DUP4 DUP2 DUP4 AND OR DUP4 MSTORE POP POP POP POP PUSH2 0x2D4E JUMP JUMPDEST PUSH1 0x0 SLOAD PUSH1 0x1 PUSH1 0x1 PUSH1 0xA0 SHL SUB AND CALLER EQ PUSH2 0xD5F JUMPI PUSH1 0x40 MLOAD PUSH4 0x118CDAA7 PUSH1 0xE0 SHL DUP2 MSTORE CALLER PUSH1 0x4 DUP3 ADD MSTORE PUSH1 0x24 ADD PUSH2 0x71B JUMP JUMPDEST PUSH1 0x2 PUSH1 0x1 SLOAD SUB PUSH2 0x273A JUMPI PUSH1 0x40 MLOAD PUSH4 0x3EE5AEB5 PUSH1 0xE0 SHL DUP2 MSTORE PUSH1 0x4 ADD PUSH1 0x40 MLOAD DUP1 SWAP2 SUB SWAP1 REVERT JUMPDEST PUSH1 0x2 PUSH1 0x1 SSTORE JUMP JUMPDEST PUSH2 0x2769 DUP5 DUP6 PUSH1 0x1 PUSH1 0x1 PUSH1 0xA0 SHL SUB AND PUSH4 0x23B872DD DUP7 DUP7 DUP7 PUSH1 0x40 MLOAD PUSH1 0x24 ADD PUSH2 0x26B8 SWAP4 SWAP3 SWAP2 SWAP1 PUSH2 0x33DB JUMP JUMPDEST POP POP POP POP JUMP JUMPDEST PUSH1 0x1 PUSH1 0x1 PUSH1 0xA0 SHL SUB DUP2 AND PUSH1 0x0 SWAP1 DUP2 MSTORE PUSH1 0x6 PUSH1 0x20 MSTORE PUSH1 0x40 DUP2 KECCAK256 PUSH1 0x3 DUP2 ADD SLOAD SWAP1 SWAP2 DUP2 SWAP1 SUB PUSH2 0x279A JUMPI POP POP POP JUMP JUMPDEST PUSH1 0x0 PUSH1 0x3 DUP4 ADD DUP2 SWAP1 SSTORE PUSH1 0x4 DUP4 ADD SLOAD DUP3 SWAP1 PUSH2 0x27B3 SWAP1 PUSH2 0x2B45 JUMP JUMPDEST ISZERO PUSH2 0x2806 JUMPI PUSH2 0x2710 PUSH2 0x27C7 PUSH2 0x1388 DUP6 PUSH2 0x3311 JUMP JUMPDEST PUSH2 0x27D1 SWAP2 SWAP1 PUSH2 0x3328 JUMP JUMPDEST SWAP2 POP PUSH2 0x27DD DUP3 DUP5 PUSH2 0x335D JUMP JUMPDEST SWAP1 POP DUP2 ISZERO PUSH2 0x2806 JUMPI DUP2 PUSH1 0x11 PUSH1 0x0 DUP3 DUP3 SLOAD PUSH2 0x27F7 SWAP2 SWAP1 PUSH2 0x334A JUMP JUMPDEST SWAP1 SWAP2 SSTORE POP PUSH2 0x2806 SWAP1 POP DUP3 PUSH2 0x2C04 JUMP JUMPDEST DUP1 ISZERO PUSH2 0x2858 JUMPI DUP1 PUSH1 0x10 PUSH1 0x0 DUP3 DUP3 SLOAD PUSH2 0x281E SWAP2 SWAP1 PUSH2 0x334A JUMP JUMPDEST SWAP1 SWAP2 SSTORE POP PUSH2 0x2858 SWAP1 POP PUSH1 0x1 PUSH1 0x1 PUSH1 0xA0 SHL SUB PUSH32 0x0 AND DUP7 DUP4 PUSH2 0x268B JUMP JUMPDEST PUSH10 0xD3C21BCECCEDA1000000 PUSH1 0xA SLOAD DUP6 PUSH1 0x1 ADD SLOAD PUSH2 0x2875 SWAP2 SWAP1 PUSH2 0x3311 JUMP JUMPDEST PUSH2 0x287F SWAP2 SWAP1 PUSH2 0x3328 JUMP JUMPDEST PUSH1 0x2 DUP6 ADD SSTORE PUSH1 0x40 DUP1 MLOAD DUP3 DUP2 MSTORE PUSH1 0x20 DUP2 ADD DUP5 SWAP1 MSTORE PUSH1 0x1 PUSH1 0x1 PUSH1 0xA0 SHL SUB DUP8 AND SWAP2 PUSH32 0xD6F2C8500DF5B44F11E9E48B91FF9F1B9D81BC496D55570C2B1B75BF65243F51 SWAP2 ADD PUSH1 0x40 MLOAD DUP1 SWAP2 SUB SWAP1 LOG2 POP POP POP POP POP JUMP JUMPDEST PUSH1 0x1 PUSH1 0x1 PUSH1 0xA0 SHL SUB DUP2 AND PUSH1 0x0 SWAP1 DUP2 MSTORE PUSH1 0x6 PUSH1 0x20 MSTORE PUSH1 0x40 DUP2 KECCAK256 PUSH1 0x1 DUP2 ADD SLOAD DUP2 SLOAD SWAP2 SWAP3 SWAP1 SWAP2 ISZERO DUP1 ISZERO SWAP1 PUSH2 0x2905 JUMPI POP PUSH1 0x5 DUP4 ADD SLOAD PUSH1 0x1 GT ISZERO JUMPDEST ISZERO PUSH2 0x2935 JUMPI PUSH1 0x5 DUP4 ADD SLOAD PUSH2 0x2710 SWAP1 PUSH2 0x291C SWAP1 PUSH2 0x2B66 JUMP JUMPDEST DUP5 SLOAD PUSH2 0x2928 SWAP2 SWAP1 PUSH2 0x3311 JUMP JUMPDEST PUSH2 0x2932 SWAP2 SWAP1 PUSH2 0x3328 JUMP JUMPDEST SWAP1 POP JUMPDEST DUP2 DUP2 GT ISZERO PUSH2 0x2963 JUMPI PUSH2 0x2947 DUP3 DUP3 PUSH2 0x335D JUMP JUMPDEST PUSH1 0x9 PUSH1 0x0 DUP3 DUP3 SLOAD PUSH2 0x2958 SWAP2 SWAP1 PUSH2 0x334A JUMP JUMPDEST SWAP1 SWAP2 SSTORE POP PUSH2 0x298C SWAP1 POP JUMP JUMPDEST DUP1 DUP3 GT ISZERO PUSH2 0x298C JUMPI PUSH2 0x2975 DUP2 DUP4 PUSH2 0x335D JUMP JUMPDEST PUSH1 0x9 PUSH1 0x0 DUP3 DUP3 SLOAD PUSH2 0x2986 SWAP2 SWAP1 PUSH2 0x335D JUMP JUMPDEST SWAP1 SWAP2 SSTORE POP POP JUMPDEST PUSH1 0x1 DUP4 ADD DUP2 SWAP1 SSTORE PUSH1 0xA SLOAD PUSH10 0xD3C21BCECCEDA1000000 SWAP1 PUSH2 0x29AC SWAP1 DUP4 PUSH2 0x3311 JUMP JUMPDEST PUSH2 0x29B6 SWAP2 SWAP1 PUSH2 0x3328 JUMP JUMPDEST DUP4 PUSH1 0x2 ADD DUP2 SWAP1 SSTORE POP POP POP POP POP JUMP JUMPDEST PUSH1 0x5 DUP4 ADD SLOAD PUSH1 0x0 JUMPDEST DUP2 DUP2 LT ISZERO PUSH2 0x2B13 JUMPI DUP4 PUSH1 0x1 PUSH1 0x1 PUSH1 0xA0 SHL SUB AND DUP6 PUSH1 0x5 ADD DUP3 DUP2 SLOAD DUP2 LT PUSH2 0x29F3 JUMPI PUSH2 0x29F3 PUSH2 0x341D JUMP JUMPDEST PUSH1 0x0 SWAP2 DUP3 MSTORE PUSH1 0x20 SWAP1 SWAP2 KECCAK256 PUSH1 0x2 SWAP1 SWAP2 MUL ADD SLOAD PUSH1 0x1 PUSH1 0x1 PUSH1 0xA0 SHL SUB AND EQ DUP1 ISZERO PUSH2 0x2A3F JUMPI POP DUP3 DUP6 PUSH1 0x5 ADD DUP3 DUP2 SLOAD DUP2 LT PUSH2 0x2A2B JUMPI PUSH2 0x2A2B PUSH2 0x341D JUMP JUMPDEST SWAP1 PUSH1 0x0 MSTORE PUSH1 0x20 PUSH1 0x0 KECCAK256 SWAP1 PUSH1 0x2 MUL ADD PUSH1 0x1 ADD SLOAD EQ JUMPDEST ISZERO PUSH2 0x2B01 JUMPI PUSH1 0x5 DUP6 ADD PUSH2 0x2A53 PUSH1 0x1 DUP5 PUSH2 0x335D JUMP JUMPDEST DUP2 SLOAD DUP2 LT PUSH2 0x2A63 JUMPI PUSH2 0x2A63 PUSH2 0x341D JUMP JUMPDEST SWAP1 PUSH1 0x0 MSTORE PUSH1 0x20 PUSH1 0x0 KECCAK256 SWAP1 PUSH1 0x2 MUL ADD DUP6 PUSH1 0x5 ADD DUP3 DUP2 SLOAD DUP2 LT PUSH2 0x2A86 JUMPI PUSH2 0x2A86 PUSH2 0x341D JUMP JUMPDEST PUSH1 0x0 SWAP2 DUP3 MSTORE PUSH1 0x20 SWAP1 SWAP2 KECCAK256 DUP3 SLOAD PUSH1 0x2 SWAP1 SWAP3 MUL ADD DUP1 SLOAD PUSH1 0x1 PUSH1 0x1 PUSH1 0xA0 SHL SUB NOT AND PUSH1 0x1 PUSH1 0x1 PUSH1 0xA0 SHL SUB SWAP1 SWAP3 AND SWAP2 SWAP1 SWAP2 OR DUP2 SSTORE PUSH1 0x1 SWAP2 DUP3 ADD SLOAD SWAP2 ADD SSTORE PUSH1 0x5 DUP6 ADD DUP1 SLOAD DUP1 PUSH2 0x2AD1 JUMPI PUSH2 0x2AD1 PUSH2 0x3462 JUMP JUMPDEST PUSH1 0x0 DUP3 DUP2 MSTORE PUSH1 0x20 DUP2 KECCAK256 PUSH1 0x2 PUSH1 0x0 NOT SWAP1 SWAP4 ADD SWAP3 DUP4 MUL ADD DUP1 SLOAD PUSH1 0x1 PUSH1 0x1 PUSH1 0xA0 SHL SUB NOT AND DUP2 SSTORE PUSH1 0x1 ADD SSTORE SWAP1 SSTORE POP POP POP POP POP JUMP JUMPDEST DUP1 PUSH2 0x2B0B DUP2 PUSH2 0x3433 JUMP JUMPDEST SWAP2 POP POP PUSH2 0x29CC JUMP JUMPDEST POP PUSH1 0x40 MLOAD PUSH3 0x461BCD PUSH1 0xE5 SHL DUP2 MSTORE PUSH1 0x20 PUSH1 0x4 DUP3 ADD MSTORE PUSH1 0x6 PUSH1 0x24 DUP3 ADD MSTORE PUSH6 0x1393D7D39195 PUSH1 0xD2 SHL PUSH1 0x44 DUP3 ADD MSTORE PUSH1 0x64 ADD PUSH2 0x71B JUMP JUMPDEST PUSH1 0x0 DUP2 ISZERO DUP1 ISZERO SWAP1 PUSH2 0x1BEA JUMPI POP PUSH2 0x2B5E PUSH3 0x4F1A00 DUP4 PUSH2 0x334A JUMP JUMPDEST TIMESTAMP LT SWAP3 SWAP2 POP POP JUMP JUMPDEST PUSH1 0x0 DUP2 PUSH1 0x1 SUB PUSH2 0x2B79 JUMPI POP PUSH2 0x2710 SWAP2 SWAP1 POP JUMP JUMPDEST DUP2 PUSH1 0x2 SUB PUSH2 0x2B8A JUMPI POP PUSH2 0x2AF8 SWAP2 SWAP1 POP JUMP JUMPDEST DUP2 PUSH1 0x3 SUB PUSH2 0x2B9B JUMPI POP PUSH2 0x2EE0 SWAP2 SWAP1 POP JUMP JUMPDEST DUP2 PUSH1 0x4 SUB PUSH2 0x2BAC JUMPI POP PUSH2 0x32C8 SWAP2 SWAP1 POP JUMP JUMPDEST POP PUSH1 0x0 SWAP2 SWAP1 POP JUMP JUMPDEST PUSH1 0x0 DUP1 SLOAD PUSH1 0x1 PUSH1 0x1 PUSH1 0xA0 SHL SUB DUP4 DUP2 AND PUSH1 0x1 PUSH1 0x1 PUSH1 0xA0 SHL SUB NOT DUP4 AND DUP2 OR DUP5 SSTORE PUSH1 0x40 MLOAD SWAP2 SWAP1 SWAP3 AND SWAP3 DUP4 SWAP2 PUSH32 0x8BE0079C531659141344CD1FD0A4F28419497F9722A3DAAFE3B4186F6B6457E0 SWAP2 SWAP1 LOG3 POP POP JUMP JUMPDEST DUP1 PUSH1 0x0 SUB PUSH2 0x2C0F JUMPI POP JUMP JUMPDEST PUSH1 0xD SLOAD NUMBER LT ISZERO DUP1 PUSH2 0x2C20 JUMPI POP PUSH1 0xC SLOAD ISZERO JUMPDEST ISZERO PUSH2 0x2C78 JUMPI DUP1 PUSH1 0xE PUSH1 0x0 DUP3 DUP3 SLOAD PUSH2 0x2C37 SWAP2 SWAP1 PUSH2 0x334A JUMP JUMPDEST SWAP1 SWAP2 SSTORE POP POP PUSH1 0x40 DUP1 MLOAD DUP3 DUP2 MSTORE PUSH1 0x1 PUSH1 0x20 DUP3 ADD MSTORE PUSH32 0xB83B89C23226BAF08AB339FFF4525164D413E7D9F816D2E208B4F37A8B11D9A5 SWAP2 ADD PUSH1 0x40 MLOAD DUP1 SWAP2 SUB SWAP1 LOG1 POP JUMP JUMPDEST PUSH1 0x0 NUMBER PUSH1 0xD SLOAD PUSH2 0x2C88 SWAP2 SWAP1 PUSH2 0x335D JUMP JUMPDEST SWAP1 POP DUP1 PUSH1 0x0 SUB PUSH2 0x2CE6 JUMPI DUP2 PUSH1 0xE PUSH1 0x0 DUP3 DUP3 SLOAD PUSH2 0x2CA4 SWAP2 SWAP1 PUSH2 0x334A JUMP JUMPDEST SWAP1 SWAP2 SSTORE POP POP PUSH1 0x40 DUP1 MLOAD DUP4 DUP2 MSTORE PUSH1 0x1 PUSH1 0x20 DUP3 ADD MSTORE PUSH32 0xB83B89C23226BAF08AB339FFF4525164D413E7D9F816D2E208B4F37A8B11D9A5 SWAP2 ADD PUSH1 0x40 MLOAD DUP1 SWAP2 SUB SWAP1 LOG1 POP POP JUMP JUMPDEST PUSH1 0x0 PUSH1 0xC SLOAD DUP3 PUSH2 0x2CF6 SWAP2 SWAP1 PUSH2 0x3311 JUMP JUMPDEST SWAP1 POP DUP2 PUSH2 0x2D03 DUP5 DUP4 PUSH2 0x334A JUMP JUMPDEST PUSH2 0x2D0D SWAP2 SWAP1 PUSH2 0x3328 JUMP JUMPDEST PUSH1 0xC SSTORE PUSH1 0x40 DUP1 MLOAD DUP5 DUP2 MSTORE PUSH1 0x0 PUSH1 0x20 DUP3 ADD MSTORE PUSH32 0xB83B89C23226BAF08AB339FFF4525164D413E7D9F816D2E208B4F37A8B11D9A5 SWAP2 ADD PUSH1 0x40 MLOAD DUP1 SWAP2 SUB SWAP1 LOG1 POP POP POP JUMP JUMPDEST PUSH1 0x0 PUSH2 0x2D63 PUSH1 0x1 PUSH1 0x1 PUSH1 0xA0 SHL SUB DUP5 AND DUP4 PUSH2 0x2DB1 JUMP JUMPDEST SWAP1 POP DUP1 MLOAD PUSH1 0x0 EQ ISZERO DUP1 ISZERO PUSH2 0x2D88 JUMPI POP DUP1 DUP1 PUSH1 0x20 ADD SWAP1 MLOAD DUP2 ADD SWAP1 PUSH2 0x2D86 SWAP2 SWAP1 PUSH2 0x3478 JUMP JUMPDEST ISZERO JUMPDEST ISZERO PUSH2 0x7DE JUMPI PUSH1 0x40 MLOAD PUSH4 0x5274AFE7 PUSH1 0xE0 SHL DUP2 MSTORE PUSH1 0x1 PUSH1 0x1 PUSH1 0xA0 SHL SUB DUP5 AND PUSH1 0x4 DUP3 ADD MSTORE PUSH1 0x24 ADD PUSH2 0x71B JUMP JUMPDEST PUSH1 0x60 PUSH2 0x2DBF DUP4 DUP4 PUSH1 0x0 PUSH2 0x2DC6 JUMP JUMPDEST SWAP4 SWAP3 POP POP POP JUMP JUMPDEST PUSH1 0x60 DUP2 SELFBALANCE LT ISZERO PUSH2 0x2DEB JUMPI PUSH1 0x40 MLOAD PUSH4 0xCD786059 PUSH1 0xE0 SHL DUP2 MSTORE ADDRESS PUSH1 0x4 DUP3 ADD MSTORE PUSH1 0x24 ADD PUSH2 0x71B JUMP JUMPDEST PUSH1 0x0 DUP1 DUP6 PUSH1 0x1 PUSH1 0x1 PUSH1 0xA0 SHL SUB AND DUP5 DUP7 PUSH1 0x40 MLOAD PUSH2 0x2E07 SWAP2 SWAP1 PUSH2 0x3495 JUMP JUMPDEST PUSH1 0x0 PUSH1 0x40 MLOAD DUP1 DUP4 SUB DUP2 DUP6 DUP8 GAS CALL SWAP3 POP POP POP RETURNDATASIZE DUP1 PUSH1 0x0 DUP2 EQ PUSH2 0x2E44 JUMPI PUSH1 0x40 MLOAD SWAP2 POP PUSH1 0x1F NOT PUSH1 0x3F RETURNDATASIZE ADD AND DUP3 ADD PUSH1 0x40 MSTORE RETURNDATASIZE DUP3 MSTORE RETURNDATASIZE PUSH1 0x0 PUSH1 0x20 DUP5 ADD RETURNDATACOPY PUSH2 0x2E49 JUMP JUMPDEST PUSH1 0x60 SWAP2 POP JUMPDEST POP SWAP2 POP SWAP2 POP PUSH2 0x2E59 DUP7 DUP4 DUP4 PUSH2 0x2E63 JUMP JUMPDEST SWAP7 SWAP6 POP POP POP POP POP POP JUMP JUMPDEST PUSH1 0x60 DUP3 PUSH2 0x2E78 JUMPI PUSH2 0x2E73 DUP3 PUSH2 0x2EBF JUMP JUMPDEST PUSH2 0x2DBF JUMP JUMPDEST DUP2 MLOAD ISZERO DUP1 ISZERO PUSH2 0x2E8F JUMPI POP PUSH1 0x1 PUSH1 0x1 PUSH1 0xA0 SHL SUB DUP5 AND EXTCODESIZE ISZERO JUMPDEST ISZERO PUSH2 0x2EB8 JUMPI PUSH1 0x40 MLOAD PUSH4 0x9996B315 PUSH1 0xE0 SHL DUP2 MSTORE PUSH1 0x1 PUSH1 0x1 PUSH1 0xA0 SHL SUB DUP6 AND PUSH1 0x4 DUP3 ADD MSTORE PUSH1 0x24 ADD PUSH2 0x71B JUMP JUMPDEST POP DUP1 PUSH2 0x2DBF JUMP JUMPDEST DUP1 MLOAD ISZERO PUSH2 0x2ECF JUMPI DUP1 MLOAD DUP1 DUP3 PUSH1 0x20 ADD REVERT JUMPDEST PUSH1 0x40 MLOAD PUSH4 0xA12F521 PUSH1 0xE1 SHL DUP2 MSTORE PUSH1 0x4 ADD PUSH1 0x40 MLOAD DUP1 SWAP2 SUB SWAP1 REVERT JUMPDEST POP DUP1 SLOAD PUSH1 0x0 DUP3 SSTORE PUSH1 0x2 MUL SWAP1 PUSH1 0x0 MSTORE PUSH1 0x20 PUSH1 0x0 KECCAK256 SWAP1 DUP2 ADD SWAP1 PUSH2 0xFBB SWAP2 SWAP1 JUMPDEST DUP1 DUP3 GT ISZERO PUSH2 0x2F2A JUMPI DUP1 SLOAD PUSH1 0x1 PUSH1 0x1 PUSH1 0xA0 SHL SUB NOT AND DUP2 SSTORE PUSH1 0x0 PUSH1 0x1 DUP3 ADD SSTORE PUSH1 0x2 ADD PUSH2 0x2F05 JUMP JUMPDEST POP SWAP1 JUMP JUMPDEST DUP1 CALLDATALOAD PUSH1 0x1 PUSH1 0x1 PUSH1 0xA0 SHL SUB DUP2 AND DUP2 EQ PUSH2 0x2F45 JUMPI PUSH1 0x0 DUP1 REVERT JUMPDEST SWAP2 SWAP1 POP JUMP JUMPDEST PUSH1 0x0 PUSH1 0x20 DUP3 DUP5 SUB SLT ISZERO PUSH2 0x2F5C JUMPI PUSH1 0x0 DUP1 REVERT JUMPDEST PUSH2 0x2DBF DUP3 PUSH2 0x2F2E JUMP JUMPDEST PUSH1 0x0 DUP1 PUSH1 0x0 PUSH1 0x60 DUP5 DUP7 SUB SLT ISZERO PUSH2 0x2F7A JUMPI PUSH1 0x0 DUP1 REVERT JUMPDEST PUSH2 0x2F83 DUP5 PUSH2 0x2F2E JUMP JUMPDEST SWAP3 POP PUSH2 0x2F91 PUSH1 0x20 DUP6 ADD PUSH2 0x2F2E JUMP JUMPDEST SWAP2 POP PUSH1 0x40 DUP5 ADD CALLDATALOAD SWAP1 POP SWAP3 POP SWAP3 POP SWAP3 JUMP JUMPDEST PUSH1 0x0 DUP1 DUP4 PUSH1 0x1F DUP5 ADD SLT PUSH2 0x2FB3 JUMPI PUSH1 0x0 DUP1 REVERT JUMPDEST POP DUP2 CALLDATALOAD PUSH8 0xFFFFFFFFFFFFFFFF DUP2 GT ISZERO PUSH2 0x2FCB JUMPI PUSH1 0x0 DUP1 REVERT JUMPDEST PUSH1 0x20 DUP4 ADD SWAP2 POP DUP4 PUSH1 0x20 DUP3 DUP6 ADD ADD GT ISZERO PUSH2 0x2FE3 JUMPI PUSH1 0x0 DUP1 REVERT JUMPDEST SWAP3 POP SWAP3 SWAP1 POP JUMP JUMPDEST PUSH1 0x0 DUP1 PUSH1 0x0 DUP1 PUSH1 0x0 PUSH1 0x80 DUP7 DUP9 SUB SLT ISZERO PUSH2 0x3002 JUMPI PUSH1 0x0 DUP1 REVERT JUMPDEST PUSH2 0x300B DUP7 PUSH2 0x2F2E JUMP JUMPDEST SWAP5 POP PUSH2 0x3019 PUSH1 0x20 DUP8 ADD PUSH2 0x2F2E JUMP JUMPDEST SWAP4 POP PUSH1 0x40 DUP7 ADD CALLDATALOAD SWAP3 POP PUSH1 0x60 DUP7 ADD CALLDATALOAD PUSH8 0xFFFFFFFFFFFFFFFF DUP2 GT ISZERO PUSH2 0x303C JUMPI PUSH1 0x0 DUP1 REVERT JUMPDEST PUSH2 0x3048 DUP9 DUP3 DUP10 ADD PUSH2 0x2FA1 JUMP JUMPDEST SWAP7 SWAP10 SWAP6 SWAP9 POP SWAP4 SWAP7 POP SWAP3 SWAP5 SWAP4 SWAP3 POP POP POP JUMP JUMPDEST PUSH1 0x0 DUP1 PUSH1 0x40 DUP4 DUP6 SUB SLT ISZERO PUSH2 0x306C JUMPI PUSH1 0x0 DUP1 REVERT JUMPDEST POP POP DUP1 CALLDATALOAD SWAP3 PUSH1 0x20 SWAP1 SWAP2 ADD CALLDATALOAD SWAP2 POP JUMP JUMPDEST PUSH1 0x0 DUP1 PUSH1 0x40 DUP4 DUP6 SUB SLT ISZERO PUSH2 0x308E JUMPI PUSH1 0x0 DUP1 REVERT JUMPDEST PUSH2 0x3097 DUP4 PUSH2 0x2F2E JUMP JUMPDEST SWAP5 PUSH1 0x20 SWAP4 SWAP1 SWAP4 ADD CALLDATALOAD SWAP4 POP POP POP JUMP JUMPDEST DUP1 ISZERO ISZERO DUP2 EQ PUSH2 0xFBB JUMPI PUSH1 0x0 DUP1 REVERT JUMPDEST PUSH1 0x0 DUP1 PUSH1 0x0 PUSH1 0x40 DUP5 DUP7 SUB SLT ISZERO PUSH2 0x30C8 JUMPI PUSH1 0x0 DUP1 REVERT JUMPDEST DUP4 CALLDATALOAD PUSH8 0xFFFFFFFFFFFFFFFF DUP2 GT ISZERO PUSH2 0x30DF JUMPI PUSH1 0x0 DUP1 REVERT JUMPDEST PUSH2 0x30EB DUP7 DUP3 DUP8 ADD PUSH2 0x2FA1 JUMP JUMPDEST SWAP1 SWAP5 POP SWAP3 POP POP PUSH1 0x20 DUP5 ADD CALLDATALOAD PUSH2 0x30FF DUP2 PUSH2 0x30A5 JUMP JUMPDEST DUP1 SWAP2 POP POP SWAP3 POP SWAP3 POP SWAP3 JUMP JUMPDEST PUSH4 0x4E487B71 PUSH1 0xE0 SHL PUSH1 0x0 MSTORE PUSH1 0x21 PUSH1 0x4 MSTORE PUSH1 0x24 PUSH1 0x0 REVERT JUMPDEST DUP3 ISZERO ISZERO DUP2 MSTORE PUSH1 0x40 DUP2 ADD PUSH1 0x2 DUP4 LT PUSH2 0x3147 JUMPI PUSH4 0x4E487B71 PUSH1 0xE0 SHL PUSH1 0x0 MSTORE PUSH1 0x21 PUSH1 0x4 MSTORE PUSH1 0x24 PUSH1 0x0 REVERT JUMPDEST DUP3 PUSH1 0x20 DUP4 ADD MSTORE SWAP4 SWAP3 POP POP POP JUMP JUMPDEST PUSH1 0x0 PUSH1 0x20 DUP3 DUP5 SUB SLT ISZERO PUSH2 0x3166 JUMPI PUSH1 0x0 DUP1 REVERT JUMPDEST POP CALLDATALOAD SWAP2 SWAP1 POP JUMP JUMPDEST PUSH1 0x0 DUP1 PUSH1 0x0 PUSH1 0x60 DUP5 DUP7 SUB SLT ISZERO PUSH2 0x3182 JUMPI PUSH1 0x0 DUP1 REVERT JUMPDEST PUSH2 0x318B DUP5 PUSH2 0x2F2E JUMP JUMPDEST SWAP3 POP PUSH1 0x20 DUP5 ADD CALLDATALOAD PUSH2 0x319B DUP2 PUSH2 0x30A5 JUMP JUMPDEST SWAP2 POP PUSH1 0x40 DUP5 ADD CALLDATALOAD PUSH1 0x2 DUP2 LT PUSH2 0x30FF JUMPI PUSH1 0x0 DUP1 REVERT JUMPDEST PUSH1 0x0 DUP1 PUSH1 0x0 DUP1 PUSH1 0x60 DUP6 DUP8 SUB SLT ISZERO PUSH2 0x31C5 JUMPI PUSH1 0x0 DUP1 REVERT JUMPDEST PUSH2 0x31CE DUP6 PUSH2 0x2F2E JUMP JUMPDEST SWAP4 POP PUSH1 0x20 DUP6 ADD CALLDATALOAD PUSH8 0xFFFFFFFFFFFFFFFF DUP1 DUP3 GT ISZERO PUSH2 0x31EB JUMPI PUSH1 0x0 DUP1 REVERT JUMPDEST DUP2 DUP8 ADD SWAP2 POP DUP8 PUSH1 0x1F DUP4 ADD SLT PUSH2 0x31FF JUMPI PUSH1 0x0 DUP1 REVERT JUMPDEST DUP2 CALLDATALOAD DUP2 DUP2 GT ISZERO PUSH2 0x320E JUMPI PUSH1 0x0 DUP1 REVERT JUMPDEST DUP9 PUSH1 0x20 DUP3 PUSH1 0x5 SHL DUP6 ADD ADD GT ISZERO PUSH2 0x3223 JUMPI PUSH1 0x0 DUP1 REVERT JUMPDEST PUSH1 0x20 DUP4 ADD SWAP6 POP DUP1 SWAP5 POP POP POP POP PUSH1 0x40 DUP6 ADD CALLDATALOAD PUSH2 0x323D DUP2 PUSH2 0x30A5 JUMP JUMPDEST SWAP4 SWAP7 SWAP3 SWAP6 POP SWAP1 SWAP4 POP POP JUMP JUMPDEST PUSH1 0x0 DUP1 PUSH1 0x20 DUP4 DUP6 SUB SLT ISZERO PUSH2 0x325B JUMPI PUSH1 0x0 DUP1 REVERT JUMPDEST DUP3 CALLDATALOAD PUSH8 0xFFFFFFFFFFFFFFFF DUP2 GT ISZERO PUSH2 0x3272 JUMPI PUSH1 0x0 DUP1 REVERT JUMPDEST PUSH2 0x327E DUP6 DUP3 DUP7 ADD PUSH2 0x2FA1 JUMP JUMPDEST SWAP1 SWAP7 SWAP1 SWAP6 POP SWAP4 POP POP POP POP JUMP JUMPDEST PUSH1 0x0 DUP1 PUSH1 0x0 PUSH1 0x60 DUP5 DUP7 SUB SLT ISZERO PUSH2 0x329F JUMPI PUSH1 0x0 DUP1 REVERT JUMPDEST PUSH2 0x32A8 DUP5 PUSH2 0x2F2E JUMP JUMPDEST SWAP3 POP PUSH1 0x20 DUP5 ADD CALLDATALOAD SWAP2 POP PUSH2 0x32BD PUSH1 0x40 DUP6 ADD PUSH2 0x2F2E JUMP JUMPDEST SWAP1 POP SWAP3 POP SWAP3 POP SWAP3 JUMP JUMPDEST PUSH1 0x0 DUP1 PUSH1 0x0 PUSH1 0x60 DUP5 DUP7 SUB SLT ISZERO PUSH2 0x32DB JUMPI PUSH1 0x0 DUP1 REVERT JUMPDEST PUSH2 0x32E4 DUP5 PUSH2 0x2F2E JUMP JUMPDEST SWAP3 POP PUSH1 0x20 DUP5 ADD CALLDATALOAD SWAP2 POP PUSH1 0x40 DUP5 ADD CALLDATALOAD PUSH2 0x30FF DUP2 PUSH2 0x30A5 JUMP JUMPDEST PUSH4 0x4E487B71 PUSH1 0xE0 SHL PUSH1 0x0 MSTORE PUSH1 0x11 PUSH1 0x4 MSTORE PUSH1 0x24 PUSH1 0x0 REVERT JUMPDEST DUP1 DUP3 MUL DUP2 ISZERO DUP3 DUP3 DIV DUP5 EQ OR PUSH2 0x1BEA JUMPI PUSH2 0x1BEA PUSH2 0x32FB JUMP JUMPDEST PUSH1 0x0 DUP3 PUSH2 0x3345 JUMPI PUSH4 0x4E487B71 PUSH1 0xE0 SHL PUSH1 0x0 MSTORE PUSH1 0x12 PUSH1 0x4 MSTORE PUSH1 0x24 PUSH1 0x0 REVERT JUMPDEST POP DIV SWAP1 JUMP JUMPDEST DUP1 DUP3 ADD DUP1 DUP3 GT ISZERO PUSH2 0x1BEA JUMPI PUSH2 0x1BEA PUSH2 0x32FB JUMP JUMPDEST DUP2 DUP2 SUB DUP2 DUP2 GT ISZERO PUSH2 0x1BEA JUMPI PUSH2 0x1BEA PUSH2 0x32FB JUMP JUMPDEST PUSH1 0x20 DUP1 DUP3 MSTORE PUSH1 0x9 SWAP1 DUP3 ADD MSTORE PUSH9 0x2737BA1030B236B4B7 PUSH1 0xB9 SHL PUSH1 0x40 DUP3 ADD MSTORE PUSH1 0x60 ADD SWAP1 JUMP JUMPDEST DUP2 DUP4 DUP3 CALLDATACOPY PUSH1 0x0 SWAP2 ADD SWAP1 DUP2 MSTORE SWAP2 SWAP1 POP JUMP JUMPDEST PUSH1 0x40 DUP2 MSTORE DUP3 PUSH1 0x40 DUP3 ADD MSTORE DUP3 DUP5 PUSH1 0x60 DUP4 ADD CALLDATACOPY PUSH1 0x0 PUSH1 0x60 DUP5 DUP4 ADD DUP2 ADD SWAP2 SWAP1 SWAP2 MSTORE SWAP2 ISZERO ISZERO PUSH1 0x20 DUP3 ADD MSTORE PUSH1 0x1F SWAP1 SWAP3 ADD PUSH1 0x1F NOT AND SWAP1 SWAP2 ADD ADD SWAP2 SWAP1 POP JUMP JUMPDEST PUSH1 0x1 PUSH1 0x1 PUSH1 0xA0 SHL SUB SWAP4 DUP5 AND DUP2 MSTORE SWAP2 SWAP1 SWAP3 AND PUSH1 0x20 DUP3 ADD MSTORE PUSH1 0x40 DUP2 ADD SWAP2 SWAP1 SWAP2 MSTORE PUSH1 0x60 ADD SWAP1 JUMP JUMPDEST PUSH1 0x20 DUP1 DUP3 MSTORE PUSH1 0x4 SWAP1 DUP3 ADD MSTORE PUSH4 0x434F4C3 PUSH1 0xE4 SHL PUSH1 0x40 DUP3 ADD MSTORE PUSH1 0x60 ADD SWAP1 JUMP JUMPDEST PUSH4 0x4E487B71 PUSH1 0xE0 SHL PUSH1 0x0 MSTORE PUSH1 0x32 PUSH1 0x4 MSTORE PUSH1 0x24 PUSH1 0x0 REVERT JUMPDEST PUSH1 0x0 PUSH1 0x1 DUP3 ADD PUSH2 0x3445 JUMPI PUSH2 0x3445 PUSH2 0x32FB JUMP JUMPDEST POP PUSH1 0x1 ADD SWAP1 JUMP JUMPDEST PUSH4 0x4E487B71 PUSH1 0xE0 SHL PUSH1 0x0 MSTORE PUSH1 0x41 PUSH1 0x4 MSTORE PUSH1 0x24 PUSH1 0x0 REVERT JUMPDEST PUSH4 0x4E487B71 PUSH1 0xE0 SHL PUSH1 0x0 MSTORE PUSH1 0x31 PUSH1 0x4 MSTORE PUSH1 0x24 PUSH1 0x0 REVERT JUMPDEST PUSH1 0x0 PUSH1 0x20 DUP3 DUP5 SUB SLT ISZERO PUSH2 0x348A JUMPI PUSH1 0x0 DUP1 REVERT JUMPDEST DUP2 MLOAD PUSH2 0x2DBF DUP2 PUSH2 0x30A5 JUMP JUMPDEST PUSH1 0x0 DUP3 MLOAD PUSH1 0x0 JUMPDEST DUP2 DUP2 LT ISZERO PUSH2 0x34B6 JUMPI PUSH1 0x20 DUP2 DUP7 ADD DUP2 ADD MLOAD DUP6 DUP4 ADD MSTORE ADD PUSH2 0x349C JUMP JUMPDEST POP PUSH1 0x0 SWAP3 ADD SWAP2 DUP3 MSTORE POP SWAP2 SWAP1 POP JUMP INVALID LOG2 PUSH5 0x6970667358 0x22 SLT KECCAK256 COINBASE 0xE9 0xEB COINBASE 0x28 PUSH18 0x5BE0A973F540A210995A6AF23BAB88A0877A SWAP4 PUSH10 0x57B8B9818C2564736F6C PUSH4 0x43000814 STOP CALLER "
		},
		"gasEstimates": {
			"creation": {
				"codeDepositCost": "2712400",
				"executionCost": "infinite",
				"totalCost": "infinite"
			},
			"external": {
				"BLOCKS_PER_YEAR_ESTIMATE()": "340",
				"MAX_CORE_STAKE()": "318",
				"MAX_NFTS_PER_USER()": "296",
				"MIN_STAKE_TIME()": "251",
				"accRewardPerWeight()": "2439",
				"addAdmin(address)": "30213",
				"approvedTokenId(address,uint256)": "2780",
				"batchSetApprovedTokenIds(address,uint256[],bool)": "infinite",
				"claim()": "infinite",
				"collections(address)": "2699",
				"configureCollection(address,bool,uint8)": "53362",
				"core()": "infinite",
				"earned(address)": "infinite",
				"endBlock()": "2353",
				"exit()": "infinite",
				"fundRewards(uint256,uint256)": "infinite",
				"getUser(address)": "infinite",
				"isAdmin(address)": "2599",
				"isBackgroundWhitelisted(string)": "infinite",
				"isNFTEligible(address,uint256)": "5189",
				"lastRewardBlock()": "2417",
				"lastRewardBlockApplicable()": "4512",
				"nftStaker(address,uint256)": "2763",
				"onERC721Received(address,address,uint256,bytes)": "infinite",
				"owner()": "2376",
				"queuedRewards()": "2417",
				"recoverERC20(address,address,uint256)": "infinite",
				"removeAdmin(address)": "30169",
				"renounceOwnership()": "infinite",
				"rescueUnstakedNFT(address,uint256,address)": "infinite",
				"rewardPerBlock()": "2418",
				"setApprovedTokenId(address,uint256,bool)": "31156",
				"setWhitelistedBackground(string,bool)": "infinite",
				"stakeCore(uint256)": "infinite",
				"stakeNFT(address,uint256)": "infinite",
				"totalCoreBurned()": "2329",
				"totalCorePenaltyToPool()": "2395",
				"totalCoreStaked()": "2439",
				"totalRewardWeight()": "2417",
				"totalRewardsFunded()": "2329",
				"totalRewardsPaid()": "2374",
				"totalRewardsSlashedToPool()": "2375",
				"transferOwnership(address)": "28421",
				"whitelistedBackgroundHash(bytes32)": "2539",
				"withdrawCore(uint256)": "infinite",
				"withdrawNFT(address,uint256)": "infinite"
			},
			"internal": {
				"_addPenaltyToRewards(uint256)": "infinite",
				"_boostForNFTCount(uint256)": "117",
				"_claim(address)": "infinite",
				"_currentAccRewardPerWeight()": "infinite",
				"_isEarly(uint256)": "140",
				"_refreshUserWeight(address)": "18844",
				"_removeUserNFT(struct PlanetZephyrosCoreNftStaking.UserInfo storage pointer,address,uint256)": "infinite"
			}
		},
		"methodIdentifiers": {
			"BLOCKS_PER_YEAR_ESTIMATE()": "58f3d6d0",
			"MAX_CORE_STAKE()": "2d60a36d",
			"MAX_NFTS_PER_USER()": "2b6838b3",
			"MIN_STAKE_TIME()": "5d2ed556",
			"accRewardPerWeight()": "aa6bb09a",
			"addAdmin(address)": "70480275",
			"approvedTokenId(address,uint256)": "31c2bb51",
			"batchSetApprovedTokenIds(address,uint256[],bool)": "d6316991",
			"claim()": "4e71d92d",
			"collections(address)": "43add2e6",
			"configureCollection(address,bool,uint8)": "639f8994",
			"core()": "f2f4eb26",
			"earned(address)": "008cc262",
			"endBlock()": "083c6323",
			"exit()": "e9fad8ee",
			"fundRewards(uint256,uint256)": "28662551",
			"getUser(address)": "6f77926b",
			"isAdmin(address)": "24d7806c",
			"isBackgroundWhitelisted(string)": "f413496a",
			"isNFTEligible(address,uint256)": "b2fa49bf",
			"lastRewardBlock()": "a9f8d181",
			"lastRewardBlockApplicable()": "4ccc76ae",
			"nftStaker(address,uint256)": "77aa93ab",
			"onERC721Received(address,address,uint256,bytes)": "150b7a02",
			"owner()": "8da5cb5b",
			"queuedRewards()": "63d38c3b",
			"recoverERC20(address,address,uint256)": "1171bda9",
			"removeAdmin(address)": "1785f53c",
			"renounceOwnership()": "715018a6",
			"rescueUnstakedNFT(address,uint256,address)": "f9b5b664",
			"rewardPerBlock()": "8ae39cac",
			"setApprovedTokenId(address,uint256,bool)": "fa0c7f3d",
			"setWhitelistedBackground(string,bool)": "39087664",
			"stakeCore(uint256)": "4ff0da48",
			"stakeNFT(address,uint256)": "b13270d5",
			"totalCoreBurned()": "ad9e180c",
			"totalCorePenaltyToPool()": "a1a89efe",
			"totalCoreStaked()": "dfd456aa",
			"totalRewardWeight()": "d64b84b5",
			"totalRewardsFunded()": "591c6f25",
			"totalRewardsPaid()": "74958e35",
			"totalRewardsSlashedToPool()": "0ab9f75f",
			"transferOwnership(address)": "f2fde38b",
			"whitelistedBackgroundHash(bytes32)": "955541f1",
			"withdrawCore(uint256)": "91596e1e",
			"withdrawNFT(address,uint256)": "6088e93a"
		}
	},
	"abi": [
		{
			"inputs": [
				{
					"internalType": "address",
					"name": "coreToken",
					"type": "address"
				}
			],
			"stateMutability": "nonpayable",
			"type": "constructor"
		},
		{
			"inputs": [
				{
					"internalType": "address",
					"name": "target",
					"type": "address"
				}
			],
			"name": "AddressEmptyCode",
			"type": "error"
		},
		{
			"inputs": [
				{
					"internalType": "address",
					"name": "account",
					"type": "address"
				}
			],
			"name": "AddressInsufficientBalance",
			"type": "error"
		},
		{
			"inputs": [],
			"name": "FailedInnerCall",
			"type": "error"
		},
		{
			"inputs": [
				{
					"internalType": "address",
					"name": "owner",
					"type": "address"
				}
			],
			"name": "OwnableInvalidOwner",
			"type": "error"
		},
		{
			"inputs": [
				{
					"internalType": "address",
					"name": "account",
					"type": "address"
				}
			],
			"name": "OwnableUnauthorizedAccount",
			"type": "error"
		},
		{
			"inputs": [],
			"name": "ReentrancyGuardReentrantCall",
			"type": "error"
		},
		{
			"inputs": [
				{
					"internalType": "address",
					"name": "token",
					"type": "address"
				}
			],
			"name": "SafeERC20FailedOperation",
			"type": "error"
		},
		{
			"anonymous": false,
			"inputs": [
				{
					"indexed": true,
					"internalType": "address",
					"name": "admin",
					"type": "address"
				}
			],
			"name": "AdminAdded",
			"type": "event"
		},
		{
			"anonymous": false,
			"inputs": [
				{
					"indexed": true,
					"internalType": "address",
					"name": "admin",
					"type": "address"
				}
			],
			"name": "AdminRemoved",
			"type": "event"
		},
		{
			"anonymous": false,
			"inputs": [
				{
					"indexed": false,
					"internalType": "string",
					"name": "background",
					"type": "string"
				},
				{
					"indexed": false,
					"internalType": "bool",
					"name": "allowed",
					"type": "bool"
				}
			],
			"name": "BackgroundWhitelistSet",
			"type": "event"
		},
		{
			"anonymous": false,
			"inputs": [
				{
					"indexed": true,
					"internalType": "address",
					"name": "collection",
					"type": "address"
				},
				{
					"indexed": false,
					"internalType": "bool",
					"name": "whitelisted",
					"type": "bool"
				},
				{
					"indexed": false,
					"internalType": "enum PlanetZephyrosCoreNftStaking.EligibilityMode",
					"name": "mode",
					"type": "uint8"
				}
			],
			"name": "CollectionConfigured",
			"type": "event"
		},
		{
			"anonymous": false,
			"inputs": [
				{
					"indexed": true,
					"internalType": "address",
					"name": "user",
					"type": "address"
				},
				{
					"indexed": false,
					"internalType": "uint256",
					"name": "amount",
					"type": "uint256"
				}
			],
			"name": "CoreStaked",
			"type": "event"
		},
		{
			"anonymous": false,
			"inputs": [
				{
					"indexed": true,
					"internalType": "address",
					"name": "user",
					"type": "address"
				},
				{
					"indexed": false,
					"internalType": "uint256",
					"name": "requestedAmount",
					"type": "uint256"
				},
				{
					"indexed": false,
					"internalType": "uint256",
					"name": "returnedAmount",
					"type": "uint256"
				},
				{
					"indexed": false,
					"internalType": "uint256",
					"name": "penaltyToPool",
					"type": "uint256"
				},
				{
					"indexed": false,
					"internalType": "uint256",
					"name": "penaltyBurned",
					"type": "uint256"
				}
			],
			"name": "CoreWithdrawn",
			"type": "event"
		},
		{
			"anonymous": false,
			"inputs": [
				{
					"indexed": true,
					"internalType": "address",
					"name": "user",
					"type": "address"
				}
			],
			"name": "Exited",
			"type": "event"
		},
		{
			"anonymous": false,
			"inputs": [
				{
					"indexed": true,
					"internalType": "address",
					"name": "user",
					"type": "address"
				},
				{
					"indexed": true,
					"internalType": "address",
					"name": "collection",
					"type": "address"
				},
				{
					"indexed": true,
					"internalType": "uint256",
					"name": "tokenId",
					"type": "uint256"
				}
			],
			"name": "NFTStaked",
			"type": "event"
		},
		{
			"anonymous": false,
			"inputs": [
				{
					"indexed": true,
					"internalType": "address",
					"name": "user",
					"type": "address"
				},
				{
					"indexed": true,
					"internalType": "address",
					"name": "collection",
					"type": "address"
				},
				{
					"indexed": true,
					"internalType": "uint256",
					"name": "tokenId",
					"type": "uint256"
				}
			],
			"name": "NFTWithdrawn",
			"type": "event"
		},
		{
			"anonymous": false,
			"inputs": [
				{
					"indexed": true,
					"internalType": "address",
					"name": "previousOwner",
					"type": "address"
				},
				{
					"indexed": true,
					"internalType": "address",
					"name": "newOwner",
					"type": "address"
				}
			],
			"name": "OwnershipTransferred",
			"type": "event"
		},
		{
			"anonymous": false,
			"inputs": [
				{
					"indexed": false,
					"internalType": "uint256",
					"name": "amount",
					"type": "uint256"
				},
				{
					"indexed": false,
					"internalType": "bool",
					"name": "queued",
					"type": "bool"
				}
			],
			"name": "PenaltyAddedToRewards",
			"type": "event"
		},
		{
			"anonymous": false,
			"inputs": [
				{
					"indexed": true,
					"internalType": "address",
					"name": "user",
					"type": "address"
				},
				{
					"indexed": false,
					"internalType": "uint256",
					"name": "paidAmount",
					"type": "uint256"
				},
				{
					"indexed": false,
					"internalType": "uint256",
					"name": "slashedAmount",
					"type": "uint256"
				}
			],
			"name": "RewardPaid",
			"type": "event"
		},
		{
			"anonymous": false,
			"inputs": [
				{
					"indexed": true,
					"internalType": "address",
					"name": "funder",
					"type": "address"
				},
				{
					"indexed": false,
					"internalType": "uint256",
					"name": "amount",
					"type": "uint256"
				},
				{
					"indexed": false,
					"internalType": "uint256",
					"name": "queuedRewardsUsed",
					"type": "uint256"
				},
				{
					"indexed": false,
					"internalType": "uint256",
					"name": "durationBlocks",
					"type": "uint256"
				},
				{
					"indexed": false,
					"internalType": "uint256",
					"name": "rewardPerBlock",
					"type": "uint256"
				},
				{
					"indexed": false,
					"internalType": "uint256",
					"name": "endBlock",
					"type": "uint256"
				}
			],
			"name": "RewardsFunded",
			"type": "event"
		},
		{
			"anonymous": false,
			"inputs": [
				{
					"indexed": true,
					"internalType": "address",
					"name": "collection",
					"type": "address"
				},
				{
					"indexed": true,
					"internalType": "uint256",
					"name": "tokenId",
					"type": "uint256"
				},
				{
					"indexed": false,
					"internalType": "bool",
					"name": "eligible",
					"type": "bool"
				}
			],
			"name": "TokenEligibilitySet",
			"type": "event"
		},
		{
			"inputs": [],
			"name": "BLOCKS_PER_YEAR_ESTIMATE",
			"outputs": [
				{
					"internalType": "uint256",
					"name": "",
					"type": "uint256"
				}
			],
			"stateMutability": "view",
			"type": "function"
		},
		{
			"inputs": [],
			"name": "MAX_CORE_STAKE",
			"outputs": [
				{
					"internalType": "uint256",
					"name": "",
					"type": "uint256"
				}
			],
			"stateMutability": "view",
			"type": "function"
		},
		{
			"inputs": [],
			"name": "MAX_NFTS_PER_USER",
			"outputs": [
				{
					"internalType": "uint256",
					"name": "",
					"type": "uint256"
				}
			],
			"stateMutability": "view",
			"type": "function"
		},
		{
			"inputs": [],
			"name": "MIN_STAKE_TIME",
			"outputs": [
				{
					"internalType": "uint256",
					"name": "",
					"type": "uint256"
				}
			],
			"stateMutability": "view",
			"type": "function"
		},
		{
			"inputs": [],
			"name": "accRewardPerWeight",
			"outputs": [
				{
					"internalType": "uint256",
					"name": "",
					"type": "uint256"
				}
			],
			"stateMutability": "view",
			"type": "function"
		},
		{
			"inputs": [
				{
					"internalType": "address",
					"name": "newAdmin",
					"type": "address"
				}
			],
			"name": "addAdmin",
			"outputs": [],
			"stateMutability": "nonpayable",
			"type": "function"
		},
		{
			"inputs": [
				{
					"internalType": "address",
					"name": "",
					"type": "address"
				},
				{
					"internalType": "uint256",
					"name": "",
					"type": "uint256"
				}
			],
			"name": "approvedTokenId",
			"outputs": [
				{
					"internalType": "bool",
					"name": "",
					"type": "bool"
				}
			],
			"stateMutability": "view",
			"type": "function"
		},
		{
			"inputs": [
				{
					"internalType": "address",
					"name": "collection",
					"type": "address"
				},
				{
					"internalType": "uint256[]",
					"name": "tokenIds",
					"type": "uint256[]"
				},
				{
					"internalType": "bool",
					"name": "eligible",
					"type": "bool"
				}
			],
			"name": "batchSetApprovedTokenIds",
			"outputs": [],
			"stateMutability": "nonpayable",
			"type": "function"
		},
		{
			"inputs": [],
			"name": "claim",
			"outputs": [],
			"stateMutability": "nonpayable",
			"type": "function"
		},
		{
			"inputs": [
				{
					"internalType": "address",
					"name": "",
					"type": "address"
				}
			],
			"name": "collections",
			"outputs": [
				{
					"internalType": "bool",
					"name": "whitelisted",
					"type": "bool"
				},
				{
					"internalType": "enum PlanetZephyrosCoreNftStaking.EligibilityMode",
					"name": "mode",
					"type": "uint8"
				}
			],
			"stateMutability": "view",
			"type": "function"
		},
		{
			"inputs": [
				{
					"internalType": "address",
					"name": "collection",
					"type": "address"
				},
				{
					"internalType": "bool",
					"name": "whitelisted",
					"type": "bool"
				},
				{
					"internalType": "enum PlanetZephyrosCoreNftStaking.EligibilityMode",
					"name": "mode",
					"type": "uint8"
				}
			],
			"name": "configureCollection",
			"outputs": [],
			"stateMutability": "nonpayable",
			"type": "function"
		},
		{
			"inputs": [],
			"name": "core",
			"outputs": [
				{
					"internalType": "contract ICoreToken",
					"name": "",
					"type": "address"
				}
			],
			"stateMutability": "view",
			"type": "function"
		},
		{
			"inputs": [
				{
					"internalType": "address",
					"name": "account",
					"type": "address"
				}
			],
			"name": "earned",
			"outputs": [
				{
					"internalType": "uint256",
					"name": "",
					"type": "uint256"
				}
			],
			"stateMutability": "view",
			"type": "function"
		},
		{
			"inputs": [],
			"name": "endBlock",
			"outputs": [
				{
					"internalType": "uint256",
					"name": "",
					"type": "uint256"
				}
			],
			"stateMutability": "view",
			"type": "function"
		},
		{
			"inputs": [],
			"name": "exit",
			"outputs": [],
			"stateMutability": "nonpayable",
			"type": "function"
		},
		{
			"inputs": [
				{
					"internalType": "uint256",
					"name": "amount",
					"type": "uint256"
				},
				{
					"internalType": "uint256",
					"name": "durationBlocks",
					"type": "uint256"
				}
			],
			"name": "fundRewards",
			"outputs": [],
			"stateMutability": "nonpayable",
			"type": "function"
		},
		{
			"inputs": [
				{
					"internalType": "address",
					"name": "account",
					"type": "address"
				}
			],
			"name": "getUser",
			"outputs": [
				{
					"internalType": "uint256",
					"name": "coreStaked",
					"type": "uint256"
				},
				{
					"internalType": "uint256",
					"name": "nftCount",
					"type": "uint256"
				},
				{
					"internalType": "uint256",
					"name": "rewardWeight",
					"type": "uint256"
				},
				{
					"internalType": "uint256",
					"name": "entryTime",
					"type": "uint256"
				},
				{
					"internalType": "uint256",
					"name": "pendingRewards",
					"type": "uint256"
				},
				{
					"internalType": "bool",
					"name": "currentlyEarly",
					"type": "bool"
				},
				{
					"internalType": "uint256",
					"name": "boostBps",
					"type": "uint256"
				}
			],
			"stateMutability": "view",
			"type": "function"
		},
		{
			"inputs": [
				{
					"internalType": "address",
					"name": "",
					"type": "address"
				}
			],
			"name": "isAdmin",
			"outputs": [
				{
					"internalType": "bool",
					"name": "",
					"type": "bool"
				}
			],
			"stateMutability": "view",
			"type": "function"
		},
		{
			"inputs": [
				{
					"internalType": "string",
					"name": "background",
					"type": "string"
				}
			],
			"name": "isBackgroundWhitelisted",
			"outputs": [
				{
					"internalType": "bool",
					"name": "",
					"type": "bool"
				}
			],
			"stateMutability": "view",
			"type": "function"
		},
		{
			"inputs": [
				{
					"internalType": "address",
					"name": "collection",
					"type": "address"
				},
				{
					"internalType": "uint256",
					"name": "tokenId",
					"type": "uint256"
				}
			],
			"name": "isNFTEligible",
			"outputs": [
				{
					"internalType": "bool",
					"name": "",
					"type": "bool"
				}
			],
			"stateMutability": "view",
			"type": "function"
		},
		{
			"inputs": [],
			"name": "lastRewardBlock",
			"outputs": [
				{
					"internalType": "uint256",
					"name": "",
					"type": "uint256"
				}
			],
			"stateMutability": "view",
			"type": "function"
		},
		{
			"inputs": [],
			"name": "lastRewardBlockApplicable",
			"outputs": [
				{
					"internalType": "uint256",
					"name": "",
					"type": "uint256"
				}
			],
			"stateMutability": "view",
			"type": "function"
		},
		{
			"inputs": [
				{
					"internalType": "address",
					"name": "",
					"type": "address"
				},
				{
					"internalType": "uint256",
					"name": "",
					"type": "uint256"
				}
			],
			"name": "nftStaker",
			"outputs": [
				{
					"internalType": "address",
					"name": "",
					"type": "address"
				}
			],
			"stateMutability": "view",
			"type": "function"
		},
		{
			"inputs": [
				{
					"internalType": "address",
					"name": "",
					"type": "address"
				},
				{
					"internalType": "address",
					"name": "",
					"type": "address"
				},
				{
					"internalType": "uint256",
					"name": "",
					"type": "uint256"
				},
				{
					"internalType": "bytes",
					"name": "",
					"type": "bytes"
				}
			],
			"name": "onERC721Received",
			"outputs": [
				{
					"internalType": "bytes4",
					"name": "",
					"type": "bytes4"
				}
			],
			"stateMutability": "pure",
			"type": "function"
		},
		{
			"inputs": [],
			"name": "owner",
			"outputs": [
				{
					"internalType": "address",
					"name": "",
					"type": "address"
				}
			],
			"stateMutability": "view",
			"type": "function"
		},
		{
			"inputs": [],
			"name": "queuedRewards",
			"outputs": [
				{
					"internalType": "uint256",
					"name": "",
					"type": "uint256"
				}
			],
			"stateMutability": "view",
			"type": "function"
		},
		{
			"inputs": [
				{
					"internalType": "address",
					"name": "token",
					"type": "address"
				},
				{
					"internalType": "address",
					"name": "to",
					"type": "address"
				},
				{
					"internalType": "uint256",
					"name": "amount",
					"type": "uint256"
				}
			],
			"name": "recoverERC20",
			"outputs": [],
			"stateMutability": "nonpayable",
			"type": "function"
		},
		{
			"inputs": [
				{
					"internalType": "address",
					"name": "admin",
					"type": "address"
				}
			],
			"name": "removeAdmin",
			"outputs": [],
			"stateMutability": "nonpayable",
			"type": "function"
		},
		{
			"inputs": [],
			"name": "renounceOwnership",
			"outputs": [],
			"stateMutability": "nonpayable",
			"type": "function"
		},
		{
			"inputs": [
				{
					"internalType": "address",
					"name": "collection",
					"type": "address"
				},
				{
					"internalType": "uint256",
					"name": "tokenId",
					"type": "uint256"
				},
				{
					"internalType": "address",
					"name": "to",
					"type": "address"
				}
			],
			"name": "rescueUnstakedNFT",
			"outputs": [],
			"stateMutability": "nonpayable",
			"type": "function"
		},
		{
			"inputs": [],
			"name": "rewardPerBlock",
			"outputs": [
				{
					"internalType": "uint256",
					"name": "",
					"type": "uint256"
				}
			],
			"stateMutability": "view",
			"type": "function"
		},
		{
			"inputs": [
				{
					"internalType": "address",
					"name": "collection",
					"type": "address"
				},
				{
					"internalType": "uint256",
					"name": "tokenId",
					"type": "uint256"
				},
				{
					"internalType": "bool",
					"name": "eligible",
					"type": "bool"
				}
			],
			"name": "setApprovedTokenId",
			"outputs": [],
			"stateMutability": "nonpayable",
			"type": "function"
		},
		{
			"inputs": [
				{
					"internalType": "string",
					"name": "background",
					"type": "string"
				},
				{
					"internalType": "bool",
					"name": "allowed",
					"type": "bool"
				}
			],
			"name": "setWhitelistedBackground",
			"outputs": [],
			"stateMutability": "nonpayable",
			"type": "function"
		},
		{
			"inputs": [
				{
					"internalType": "uint256",
					"name": "amount",
					"type": "uint256"
				}
			],
			"name": "stakeCore",
			"outputs": [],
			"stateMutability": "nonpayable",
			"type": "function"
		},
		{
			"inputs": [
				{
					"internalType": "address",
					"name": "collection",
					"type": "address"
				},
				{
					"internalType": "uint256",
					"name": "tokenId",
					"type": "uint256"
				}
			],
			"name": "stakeNFT",
			"outputs": [],
			"stateMutability": "nonpayable",
			"type": "function"
		},
		{
			"inputs": [],
			"name": "totalCoreBurned",
			"outputs": [
				{
					"internalType": "uint256",
					"name": "",
					"type": "uint256"
				}
			],
			"stateMutability": "view",
			"type": "function"
		},
		{
			"inputs": [],
			"name": "totalCorePenaltyToPool",
			"outputs": [
				{
					"internalType": "uint256",
					"name": "",
					"type": "uint256"
				}
			],
			"stateMutability": "view",
			"type": "function"
		},
		{
			"inputs": [],
			"name": "totalCoreStaked",
			"outputs": [
				{
					"internalType": "uint256",
					"name": "",
					"type": "uint256"
				}
			],
			"stateMutability": "view",
			"type": "function"
		},
		{
			"inputs": [],
			"name": "totalRewardWeight",
			"outputs": [
				{
					"internalType": "uint256",
					"name": "",
					"type": "uint256"
				}
			],
			"stateMutability": "view",
			"type": "function"
		},
		{
			"inputs": [],
			"name": "totalRewardsFunded",
			"outputs": [
				{
					"internalType": "uint256",
					"name": "",
					"type": "uint256"
				}
			],
			"stateMutability": "view",
			"type": "function"
		},
		{
			"inputs": [],
			"name": "totalRewardsPaid",
			"outputs": [
				{
					"internalType": "uint256",
					"name": "",
					"type": "uint256"
				}
			],
			"stateMutability": "view",
			"type": "function"
		},
		{
			"inputs": [],
			"name": "totalRewardsSlashedToPool",
			"outputs": [
				{
					"internalType": "uint256",
					"name": "",
					"type": "uint256"
				}
			],
			"stateMutability": "view",
			"type": "function"
		},
		{
			"inputs": [
				{
					"internalType": "address",
					"name": "newOwner",
					"type": "address"
				}
			],
			"name": "transferOwnership",
			"outputs": [],
			"stateMutability": "nonpayable",
			"type": "function"
		},
		{
			"inputs": [
				{
					"internalType": "bytes32",
					"name": "",
					"type": "bytes32"
				}
			],
			"name": "whitelistedBackgroundHash",
			"outputs": [
				{
					"internalType": "bool",
					"name": "",
					"type": "bool"
				}
			],
			"stateMutability": "view",
			"type": "function"
		},
		{
			"inputs": [
				{
					"internalType": "uint256",
					"name": "amount",
					"type": "uint256"
				}
			],
			"name": "withdrawCore",
			"outputs": [],
			"stateMutability": "nonpayable",
			"type": "function"
		},
		{
			"inputs": [
				{
					"internalType": "address",
					"name": "collection",
					"type": "address"
				},
				{
					"internalType": "uint256",
					"name": "tokenId",
					"type": "uint256"
				}
			],
			"name": "withdrawNFT",
			"outputs": [],
			"stateMutability": "nonpayable",
			"type": "function"
		}
	]
}