{
	"data": {
		"bytecode": {
			"linkReferences": {},
			"object": "60a06040523480156200001157600080fd5b5060405162006098380380620060988339818101604052810190620000379190620002a8565b33600073ffffffffffffffffffffffffffffffffffffffff168173ffffffffffffffffffffffffffffffffffffffff1603620000ad5760006040517f1e4fbdf7000000000000000000000000000000000000000000000000000000008152600401620000a49190620002eb565b60405180910390fd5b620000be816200017a60201b60201c565b5060018081905550600073ffffffffffffffffffffffffffffffffffffffff168173ffffffffffffffffffffffffffffffffffffffff160362000138576040517f08c379a00000000000000000000000000000000000000000000000000000000081526004016200012f9062000369565b60405180910390fd5b8073ffffffffffffffffffffffffffffffffffffffff1660808173ffffffffffffffffffffffffffffffffffffffff168152505043600a81905550506200038b565b60008060009054906101000a900473ffffffffffffffffffffffffffffffffffffffff169050816000806101000a81548173ffffffffffffffffffffffffffffffffffffffff021916908373ffffffffffffffffffffffffffffffffffffffff1602179055508173ffffffffffffffffffffffffffffffffffffffff168173ffffffffffffffffffffffffffffffffffffffff167f8be0079c531659141344cd1fd0a4f28419497f9722a3daafe3b4186f6b6457e060405160405180910390a35050565b600080fd5b600073ffffffffffffffffffffffffffffffffffffffff82169050919050565b6000620002708262000243565b9050919050565b620002828162000263565b81146200028e57600080fd5b50565b600081519050620002a28162000277565b92915050565b600060208284031215620002c157620002c06200023e565b5b6000620002d18482850162000291565b91505092915050565b620002e58162000263565b82525050565b6000602082019050620003026000830184620002da565b92915050565b600082825260208201905092915050565b7f434f524530000000000000000000000000000000000000000000000000000000600082015250565b60006200035160058362000308565b91506200035e8262000319565b602082019050919050565b60006020820190508181036000830152620003848162000342565b9050919050565b608051615cb9620003df60003960008181610b2501528181610e35015281816114fb0152818161226b0152818161231e01528181612f5001528181613206015281816134520152613c450152615cb96000f3fe608060405234801561001057600080fd5b50600436106102d55760003560e01c806374958e3511610182578063b1050a24116100e9578063dfd456aa116100a2578063f2fde38b1161007c578063f2fde38b146108d5578063f413496a146108f1578063f9b5b66414610921578063fa0c7f3d1461093d576102d5565b8063dfd456aa1461088f578063e9fad8ee146108ad578063f2f4eb26146108b7576102d5565b8063b1050a24146107ba578063b13270d5146107eb578063b2fa49bf14610807578063d086358014610837578063d631699114610855578063d64b84b514610871576102d5565b806391596e1e1161013b57806391596e1e146106f6578063955541f114610712578063a1a89efe14610742578063a9f8d18114610760578063aa6bb09a1461077e578063ad9e180c1461079c576102d5565b806374958e351461061c57806377aa93ab1461063a5780637eef71991461066a57806384ff01091461069c5780638ae39cac146106ba5780638da5cb5b146106d8576102d5565b80634ccc76ae116102415780635d2ed556116101fa578063639f8994116101d4578063639f8994146105a257806363d38c3b146105be5780636f77926b146105dc578063715018a614610612576102d5565b80635d2ed5561461054a5780635ddfd989146105685780636088e93a14610586576102d5565b80634ccc76ae1461049a5780634e71d92d146104b85780634ff0da48146104c257806352de4ee5146104de57806358f3d6d01461050e578063591c6f251461052c576102d5565b8063286625511161029357806328662551146103c55780632b6838b3146103e15780632d60a36d146103ff57806331c2bb511461041d578063390876641461044d57806343add2e614610469576102d5565b80628cc262146102da57806305d1aebb1461030a578063083c63231461033d5780630ab9f75f1461035b5780631171bda914610379578063150b7a0214610395575b600080fd5b6102f460048036038101906102ef919061464f565b610959565b6040516103019190614695565b60405180910390f35b610324600480360381019061031f91906146dc565b6109fb565b604051610334949392919061471c565b60405180910390f35b610345610b0f565b6040516103529190614695565b60405180910390f35b610363610b15565b6040516103709190614695565b60405180910390f35b610393600480360381019061038e9190614761565b610b1b565b005b6103af60048036038101906103aa9190614819565b610c50565b6040516103bc91906148dc565b60405180910390f35b6103df60048036038101906103da91906148f7565b610c65565b005b6103e9611005565b6040516103f69190614695565b60405180910390f35b61040761100a565b6040516104149190614695565b60405180910390f35b610437600480360381019061043291906146dc565b611018565b6040516104449190614952565b60405180910390f35b610467600480360381019061046291906149ef565b611047565b005b610483600480360381019061047e919061464f565b6110d7565b604051610491929190614ac6565b60405180910390f35b6104a2611115565b6040516104af9190614695565b60405180910390f35b6104c061112f565b005b6104dc60048036038101906104d79190614aef565b611266565b005b6104f860048036038101906104f3919061464f565b6115a4565b6040516105059190614c18565b60405180910390f35b6105166116a5565b6040516105239190614695565b60405180910390f35b6105346116ac565b6040516105419190614695565b60405180910390f35b6105526116b2565b60405161055f9190614695565b60405180910390f35b6105706116b9565b60405161057d9190614695565b60405180910390f35b6105a0600480360381019061059b91906146dc565b6116ed565b005b6105bc60048036038101906105b79190614c5f565b611b05565b005b6105c6611c8c565b6040516105d39190614695565b60405180910390f35b6105f660048036038101906105f1919061464f565b611c92565b6040516106099796959493929190614cb2565b60405180910390f35b61061a611de0565b005b610624611df4565b6040516106319190614695565b60405180910390f35b610654600480360381019061064f91906146dc565b611dfa565b6040516106619190614d30565b60405180910390f35b610684600480360381019061067f919061464f565b611e3c565b60405161069393929190614d4b565b60405180910390f35b6106a4611ecf565b6040516106b19190614695565b60405180910390f35b6106c2611f04565b6040516106cf9190614695565b60405180910390f35b6106e0611f0a565b6040516106ed9190614d30565b60405180910390f35b610710600480360381019061070b9190614aef565b611f33565b005b61072c60048036038101906107279190614db8565b6123c6565b6040516107399190614952565b60405180910390f35b61074a6123e6565b6040516107579190614695565b60405180910390f35b6107686123ec565b6040516107759190614695565b60405180910390f35b6107866123f2565b6040516107939190614695565b60405180910390f35b6107a46123f8565b6040516107b19190614695565b60405180910390f35b6107d460048036038101906107cf919061464f565b6123fe565b6040516107e2929190614de5565b60405180910390f35b610805600480360381019061080091906146dc565b612490565b005b610821600480360381019061081c91906146dc565b612983565b60405161082e9190614952565b60405180910390f35b61083f612add565b60405161084c9190614695565b60405180910390f35b61086f600480360381019061086a9190614e64565b612b05565b005b610879612c87565b6040516108869190614695565b60405180910390f35b610897612c8d565b6040516108a49190614695565b60405180910390f35b6108b5612c93565b005b6108bf613450565b6040516108cc9190614f37565b60405180910390f35b6108ef60048036038101906108ea919061464f565b613474565b005b61090b60048036038101906109069190614f52565b6134fa565b6040516109189190614952565b60405180910390f35b61093b60048036038101906109369190614f9f565b61353c565b005b61095760048036038101906109529190614ff2565b613785565b005b600080600560008473ffffffffffffffffffffffffffffffffffffffff1673ffffffffffffffffffffffffffffffffffffffff168152602001908152602001600020905060006109a76138b8565b9050600069d3c21bcecceda10000008284600101546109c69190615074565b6109d091906150e5565b905082600201548184600301546109e79190615116565b6109f1919061514a565b9350505050919050565b6000806000806000600560008873ffffffffffffffffffffffffffffffffffffffff1673ffffffffffffffffffffffffffffffffffffffff16815260200190815260200160002090508060000154861115610a8b576040517f08c379a0000000000000000000000000000000000000000000000000000000008152600401610a82906151db565b60405180910390fd5b610a98816004015461394a565b610ab057600080600088945094509450945050610b06565b6127106105dc87610ac19190615074565b610acb91906150e5565b94506003600286610adc9190615074565b610ae691906150e5565b93508385610af4919061514a565b92508486610b02919061514a565b9150505b92959194509250565b600c5481565b60105481565b610b23613970565b7f000000000000000000000000000000000000000000000000000000000000000073ffffffffffffffffffffffffffffffffffffffff168373ffffffffffffffffffffffffffffffffffffffff1603610bb1576040517f08c379a0000000000000000000000000000000000000000000000000000000008152600401610ba890615247565b60405180910390fd5b600073ffffffffffffffffffffffffffffffffffffffff168273ffffffffffffffffffffffffffffffffffffffff1603610c20576040517f08c379a0000000000000000000000000000000000000000000000000000000008152600401610c17906152b3565b60405180910390fd5b610c4b82828573ffffffffffffffffffffffffffffffffffffffff166139f79092919063ffffffff16565b505050565b600063150b7a0260e01b905095945050505050565b610c6d613970565b610c75613a76565b6000610c7f6138b8565b600981905550610c8d611115565b600a81905550600073ffffffffffffffffffffffffffffffffffffffff168173ffffffffffffffffffffffffffffffffffffffff1614610d91576000600560008373ffffffffffffffffffffffffffffffffffffffff1673ffffffffffffffffffffffffffffffffffffffff1681526020019081526020016000209050600069d3c21bcecceda10000006009548360010154610d299190615074565b610d3391906150e5565b9050816002015481610d45919061514a565b826003016000828254610d589190615116565b9250508190555069d3c21bcecceda10000006009548360010154610d7c9190615074565b610d8691906150e5565b826002018190555050505b6000831180610da257506000600d54115b610de1576040517f08c379a0000000000000000000000000000000000000000000000000000000008152600401610dd89061531f565b60405180910390fd5b60008211610e24576040517f08c379a0000000000000000000000000000000000000000000000000000000008152600401610e1b9061538b565b60405180910390fd5b6000831115610e9457610e7a3330857f000000000000000000000000000000000000000000000000000000000000000073ffffffffffffffffffffffffffffffffffffffff16613abc909392919063ffffffff16565b82600e6000828254610e8c9190615116565b925050819055505b6000600c54431015610ebe57600b5443600c54610eb1919061514a565b610ebb9190615074565b90505b6000600d5490506000828287610ed49190615116565b610ede9190615116565b905060008111610f23576040517f08c379a0000000000000000000000000000000000000000000000000000000008152600401610f1a906153f7565b60405180910390fd5b8481610f2f91906150e5565b600b819055506000600b5411610f7a576040517f08c379a0000000000000000000000000000000000000000000000000000000008152600401610f7190615463565b60405180910390fd5b6000600d8190555043600a819055508443610f959190615116565b600c819055503373ffffffffffffffffffffffffffffffffffffffff167f6bed4a021812b8a263610260560ff7c218c042029458224275fe81c573f4cc03878488600b54600c54604051610fed959493929190615483565b60405180910390a250505050611001613b3e565b5050565b600481565b69021e19e0c9bab240000081565b60036020528160005260406000206020528060005260406000206000915091509054906101000a900460ff1681565b61104f613970565b60008383604051611061929190615515565b60405180910390209050816004600083815260200190815260200160002060006101000a81548160ff0219169083151502179055507f36363b339b00adcc7a4533e32d4cc7ca00ee5fc3569c6925927302ff1dc5e9a58484846040516110c99392919061556c565b60405180910390a150505050565b60026020528060005260406000206000915090508060000160009054906101000a900460ff16908060000160019054906101000a900460ff16905082565b6000600c54431061112857600c5461112a565b435b905090565b611137613a76565b336111406138b8565b60098190555061114e611115565b600a81905550600073ffffffffffffffffffffffffffffffffffffffff168173ffffffffffffffffffffffffffffffffffffffff1614611252576000600560008373ffffffffffffffffffffffffffffffffffffffff1673ffffffffffffffffffffffffffffffffffffffff1681526020019081526020016000209050600069d3c21bcecceda100000060095483600101546111ea9190615074565b6111f491906150e5565b9050816002015481611206919061514a565b8260030160008282546112199190615116565b9250508190555069d3c21bcecceda1000000600954836001015461123d9190615074565b61124791906150e5565b826002018190555050505b61125b33613b47565b50611264613b3e565b565b61126e613a76565b336112776138b8565b600981905550611285611115565b600a81905550600073ffffffffffffffffffffffffffffffffffffffff168173ffffffffffffffffffffffffffffffffffffffff1614611389576000600560008373ffffffffffffffffffffffffffffffffffffffff1673ffffffffffffffffffffffffffffffffffffffff1681526020019081526020016000209050600069d3c21bcecceda100000060095483600101546113219190615074565b61132b91906150e5565b905081600201548161133d919061514a565b8260030160008282546113509190615116565b9250508190555069d3c21bcecceda100000060095483600101546113749190615074565b61137e91906150e5565b826002018190555050505b600082116113cc576040517f08c379a00000000000000000000000000000000000000000000000000000000081526004016113c3906155ea565b60405180910390fd5b6000600560003373ffffffffffffffffffffffffffffffffffffffff1673ffffffffffffffffffffffffffffffffffffffff168152602001908152602001600020905060018160050180549050101561145a576040517f08c379a000000000000000000000000000000000000000000000000000000000815260040161145190615656565b60405180910390fd5b69021e19e0c9bab24000008382600001546114759190615116565b11156114b6576040517f08c379a00000000000000000000000000000000000000000000000000000000081526004016114ad906156c2565b60405180910390fd5b428160040181905550828160000160008282546114d39190615116565b9250508190555082600760008282546114ec9190615116565b925050819055506115403330857f000000000000000000000000000000000000000000000000000000000000000073ffffffffffffffffffffffffffffffffffffffff16613abc909392919063ffffffff16565b61154933613d11565b3373ffffffffffffffffffffffffffffffffffffffff167fab4795c0dfe38375b777fbe077bd9c6877c2ddaf9e3acfb83d5e5277a40322ed8460405161158f9190614695565b60405180910390a250506115a1613b3e565b50565b6060600560008373ffffffffffffffffffffffffffffffffffffffff1673ffffffffffffffffffffffffffffffffffffffff168152602001908152602001600020600501805480602002602001604051908101604052809291908181526020016000905b8282101561169a57838290600052602060002090600202016040518060400160405290816000820160009054906101000a900473ffffffffffffffffffffffffffffffffffffffff1673ffffffffffffffffffffffffffffffffffffffff1673ffffffffffffffffffffffffffffffffffffffff16815260200160018201548152505081526020019060010190611608565b505050509050919050565b62603d8081565b600e5481565b624f1a0081565b6000600c5443106116cd57600090506116ea565b600543600c546116dd919061514a565b6116e79190615074565b90505b90565b6116f5613a76565b336116fe6138b8565b60098190555061170c611115565b600a81905550600073ffffffffffffffffffffffffffffffffffffffff168173ffffffffffffffffffffffffffffffffffffffff1614611810576000600560008373ffffffffffffffffffffffffffffffffffffffff1673ffffffffffffffffffffffffffffffffffffffff1681526020019081526020016000209050600069d3c21bcecceda100000060095483600101546117a89190615074565b6117b291906150e5565b90508160020154816117c4919061514a565b8260030160008282546117d79190615116565b9250508190555069d3c21bcecceda100000060095483600101546117fb9190615074565b61180591906150e5565b826002018190555050505b6000600560003373ffffffffffffffffffffffffffffffffffffffff1673ffffffffffffffffffffffffffffffffffffffff16815260200190815260200160002090503373ffffffffffffffffffffffffffffffffffffffff16600660008673ffffffffffffffffffffffffffffffffffffffff1673ffffffffffffffffffffffffffffffffffffffff168152602001908152602001600020600085815260200190815260200160002060009054906101000a900473ffffffffffffffffffffffffffffffffffffffff1673ffffffffffffffffffffffffffffffffffffffff1614611931576040517f08c379a00000000000000000000000000000000000000000000000000000000081526004016119289061572e565b60405180910390fd5b600081600001541115611989576001816005018054905011611988576040517f08c379a000000000000000000000000000000000000000000000000000000000815260040161197f9061579a565b60405180910390fd5b5b611994818585613e47565b6000600660008673ffffffffffffffffffffffffffffffffffffffff1673ffffffffffffffffffffffffffffffffffffffff168152602001908152602001600020600085815260200190815260200160002060006101000a81548173ffffffffffffffffffffffffffffffffffffffff021916908373ffffffffffffffffffffffffffffffffffffffff160217905550611a2d33613d11565b8373ffffffffffffffffffffffffffffffffffffffff166342842e0e3033866040518463ffffffff1660e01b8152600401611a6a939291906157ba565b600060405180830381600087803b158015611a8457600080fd5b505af1158015611a98573d6000803e3d6000fd5b50505050828473ffffffffffffffffffffffffffffffffffffffff163373ffffffffffffffffffffffffffffffffffffffff167fbbde41973f9ce4890f7ad9762c23d8191f261fd643bdf13ed8bbc10549b49fcb60405160405180910390a45050611b01613b3e565b5050565b611b0d613970565b600073ffffffffffffffffffffffffffffffffffffffff168373ffffffffffffffffffffffffffffffffffffffff1603611b7c576040517f08c379a0000000000000000000000000000000000000000000000000000000008152600401611b739061583d565b60405180910390fd5b60405180604001604052808315158152602001826001811115611ba257611ba1614a4f565b5b815250600260008573ffffffffffffffffffffffffffffffffffffffff1673ffffffffffffffffffffffffffffffffffffffff16815260200190815260200160002060008201518160000160006101000a81548160ff02191690831515021790555060208201518160000160016101000a81548160ff02191690836001811115611c2f57611c2e614a4f565b5b02179055509050508273ffffffffffffffffffffffffffffffffffffffff167fc97a41867696f26be26c3fad9209e751411c759d0d344dc7ebd1a164ffecacc28383604051611c7f929190614ac6565b60405180910390a2505050565b600d5481565b6000806000806000806000600560008973ffffffffffffffffffffffffffffffffffffffff1673ffffffffffffffffffffffffffffffffffffffff168152602001908152602001600020600001549650600560008973ffffffffffffffffffffffffffffffffffffffff1673ffffffffffffffffffffffffffffffffffffffff168152602001908152602001600020600501805490509550600560008973ffffffffffffffffffffffffffffffffffffffff1673ffffffffffffffffffffffffffffffffffffffff168152602001908152602001600020600101549450600560008973ffffffffffffffffffffffffffffffffffffffff1673ffffffffffffffffffffffffffffffffffffffff168152602001908152602001600020600401549350611dbd88610959565b9250611dc88461394a565b9150611dd386614084565b9050919395979092949650565b611de8613970565b611df260006140d8565b565b600f5481565b60066020528160005260406000206020528060005260406000206000915091509054906101000a900473ffffffffffffffffffffffffffffffffffffffff1681565b6000806000611e4a84610959565b9250611e97600560008673ffffffffffffffffffffffffffffffffffffffff1673ffffffffffffffffffffffffffffffffffffffff1681526020019081526020016000206004015461394a565b15611eba5761271061138884611ead9190615074565b611eb791906150e5565b91505b8183611ec6919061514a565b90509193909250565b6000600c544310611ee35760009050611f01565b600b5443600c54611ef4919061514a565b611efe9190615074565b90505b90565b600b5481565b60008060009054906101000a900473ffffffffffffffffffffffffffffffffffffffff16905090565b611f3b613a76565b33611f446138b8565b600981905550611f52611115565b600a81905550600073ffffffffffffffffffffffffffffffffffffffff168173ffffffffffffffffffffffffffffffffffffffff1614612056576000600560008373ffffffffffffffffffffffffffffffffffffffff1673ffffffffffffffffffffffffffffffffffffffff1681526020019081526020016000209050600069d3c21bcecceda10000006009548360010154611fee9190615074565b611ff891906150e5565b905081600201548161200a919061514a565b82600301600082825461201d9190615116565b9250508190555069d3c21bcecceda100000060095483600101546120419190615074565b61204b91906150e5565b826002018190555050505b6000600560003373ffffffffffffffffffffffffffffffffffffffff1673ffffffffffffffffffffffffffffffffffffffff1681526020019081526020016000209050600083116120dc576040517f08c379a00000000000000000000000000000000000000000000000000000000081526004016120d3906155ea565b60405180910390fd5b8060000154831115612123576040517f08c379a000000000000000000000000000000000000000000000000000000000815260040161211a906151db565b60405180910390fd5b60018160050180549050101561216e576040517f08c379a000000000000000000000000000000000000000000000000000000000815260040161216590615656565b60405180910390fd5b61217733613b47565b8281600001600082825461218b919061514a565b9250508190555082600760008282546121a4919061514a565b9250508190555060008390506000806121c0846004015461394a565b156122f75760006127106105dc886121d89190615074565b6121e291906150e5565b905060036002826121f39190615074565b6121fd91906150e5565b9250828161220b919061514a565b91508087612219919061514a565b9350826011600082825461222d9190615116565b9250508190555081601260008282546122469190615116565b9250508190555060008311156122605761225f8361419c565b5b60008211156122f5577f000000000000000000000000000000000000000000000000000000000000000073ffffffffffffffffffffffffffffffffffffffff166342966c68836040518263ffffffff1660e01b81526004016122c29190614695565b600060405180830381600087803b1580156122dc57600080fd5b505af11580156122f0573d6000803e3d6000fd5b505050505b505b600084600001540361230e57600084600401819055505b61231733613d11565b61236233847f000000000000000000000000000000000000000000000000000000000000000073ffffffffffffffffffffffffffffffffffffffff166139f79092919063ffffffff16565b3373ffffffffffffffffffffffffffffffffffffffff167fed51a34abf73431aee998f69ff67cbc5bae47a2768cc3e2efaf79e7ba0b65f15878585856040516123ae949392919061471c565b60405180910390a250505050506123c3613b3e565b50565b60046020528060005260406000206000915054906101000a900460ff1681565b60115481565b600a5481565b60095481565b60125481565b600080600560008473ffffffffffffffffffffffffffffffffffffffff1673ffffffffffffffffffffffffffffffffffffffff168152602001908152602001600020600201549150600560008473ffffffffffffffffffffffffffffffffffffffff1673ffffffffffffffffffffffffffffffffffffffff168152602001908152602001600020600301549050915091565b612498613a76565b336124a16138b8565b6009819055506124af611115565b600a81905550600073ffffffffffffffffffffffffffffffffffffffff168173ffffffffffffffffffffffffffffffffffffffff16146125b3576000600560008373ffffffffffffffffffffffffffffffffffffffff1673ffffffffffffffffffffffffffffffffffffffff1681526020019081526020016000209050600069d3c21bcecceda1000000600954836001015461254b9190615074565b61255591906150e5565b9050816002015481612567919061514a565b82600301600082825461257a9190615116565b9250508190555069d3c21bcecceda1000000600954836001015461259e9190615074565b6125a891906150e5565b826002018190555050505b6125bd8383612983565b6125fc576040517f08c379a00000000000000000000000000000000000000000000000000000000081526004016125f3906158a9565b60405180910390fd5b6000600560003373ffffffffffffffffffffffffffffffffffffffff1673ffffffffffffffffffffffffffffffffffffffff16815260200190815260200160002090506004816005018054905010612689576040517f08c379a000000000000000000000000000000000000000000000000000000000815260040161268090615915565b60405180910390fd5b600073ffffffffffffffffffffffffffffffffffffffff16600660008673ffffffffffffffffffffffffffffffffffffffff1673ffffffffffffffffffffffffffffffffffffffff168152602001908152602001600020600085815260200190815260200160002060009054906101000a900473ffffffffffffffffffffffffffffffffffffffff1673ffffffffffffffffffffffffffffffffffffffff1614612768576040517f08c379a000000000000000000000000000000000000000000000000000000000815260040161275f90615981565b60405180910390fd5b8373ffffffffffffffffffffffffffffffffffffffff166342842e0e3330866040518463ffffffff1660e01b81526004016127a5939291906157ba565b600060405180830381600087803b1580156127bf57600080fd5b505af11580156127d3573d6000803e3d6000fd5b5050505033600660008673ffffffffffffffffffffffffffffffffffffffff1673ffffffffffffffffffffffffffffffffffffffff168152602001908152602001600020600085815260200190815260200160002060006101000a81548173ffffffffffffffffffffffffffffffffffffffff021916908373ffffffffffffffffffffffffffffffffffffffff1602179055508060050160405180604001604052808673ffffffffffffffffffffffffffffffffffffffff16815260200185815250908060018154018082558091505060019003906000526020600020906002020160009091909190915060008201518160000160006101000a81548173ffffffffffffffffffffffffffffffffffffffff021916908373ffffffffffffffffffffffffffffffffffffffff16021790555060208201518160010155505061291a33613d11565b828473ffffffffffffffffffffffffffffffffffffffff163373ffffffffffffffffffffffffffffffffffffffff167f45a0b747ada8575b65125b2144e0de1ff692ff4510bb94a2f9695fcaf1d2bdf360405160405180910390a4505061297f613b3e565b5050565b600080600260008573ffffffffffffffffffffffffffffffffffffffff1673ffffffffffffffffffffffffffffffffffffffff1681526020019081526020016000206040518060400160405290816000820160009054906101000a900460ff161515151581526020016000820160019054906101000a900460ff166001811115612a1057612a0f614a4f565b5b6001811115612a2257612a21614a4f565b5b8152505090508060000151612a3b576000915050612ad7565b60006001811115612a4f57612a4e614a4f565b5b81602001516001811115612a6657612a65614a4f565b5b03612a75576001915050612ad7565b600360008573ffffffffffffffffffffffffffffffffffffffff1673ffffffffffffffffffffffffffffffffffffffff168152602001908152602001600020600084815260200190815260200160002060009054906101000a900460ff169150505b92915050565b6000600c544310612af15760009050612b02565b43600c54612aff919061514a565b90505b90565b612b0d613970565b600073ffffffffffffffffffffffffffffffffffffffff168473ffffffffffffffffffffffffffffffffffffffff1603612b7c576040517f08c379a0000000000000000000000000000000000000000000000000000000008152600401612b739061583d565b60405180910390fd5b60005b83839050811015612c805781600360008773ffffffffffffffffffffffffffffffffffffffff1673ffffffffffffffffffffffffffffffffffffffff1681526020019081526020016000206000868685818110612bdf57612bde6159a1565b5b90506020020135815260200190815260200160002060006101000a81548160ff021916908315150217905550838382818110612c1e57612c1d6159a1565b5b905060200201358573ffffffffffffffffffffffffffffffffffffffff167f03929b99f1d41b1602615acbac6af6c29ae6687db3d6586d252bf82074486e3184604051612c6b9190614952565b60405180910390a38080600101915050612b7f565b5050505050565b60085481565b60075481565b612c9b613a76565b33612ca46138b8565b600981905550612cb2611115565b600a81905550600073ffffffffffffffffffffffffffffffffffffffff168173ffffffffffffffffffffffffffffffffffffffff1614612db6576000600560008373ffffffffffffffffffffffffffffffffffffffff1673ffffffffffffffffffffffffffffffffffffffff1681526020019081526020016000209050600069d3c21bcecceda10000006009548360010154612d4e9190615074565b612d5891906150e5565b9050816002015481612d6a919061514a565b826003016000828254612d7d9190615116565b9250508190555069d3c21bcecceda10000006009548360010154612da19190615074565b612dab91906150e5565b826002018190555050505b6000600560003373ffffffffffffffffffffffffffffffffffffffff1673ffffffffffffffffffffffffffffffffffffffff1681526020019081526020016000209050600081600001541180612e13575060008160050180549050115b612e52576040517f08c379a0000000000000000000000000000000000000000000000000000000008152600401612e4990615a1c565b60405180910390fd5b612e5b33613b47565b60008160000154905060008190506000806000841115612fdd57600085600001819055508360076000828254612e91919061514a565b92505081905550612ea5856004015461394a565b15612fdc5760006127106105dc86612ebd9190615074565b612ec791906150e5565b90506003600282612ed89190615074565b612ee291906150e5565b92508281612ef0919061514a565b91508085612efe919061514a565b93508260116000828254612f129190615116565b925050819055508160126000828254612f2b9190615116565b925050819055506000831115612f4557612f448361419c565b5b6000821115612fda577f000000000000000000000000000000000000000000000000000000000000000073ffffffffffffffffffffffffffffffffffffffff166342966c68836040518263ffffffff1660e01b8152600401612fa79190614695565b600060405180830381600087803b158015612fc157600080fd5b505af1158015612fd5573d6000803e3d6000fd5b505050505b505b5b60008560050180549050905060008167ffffffffffffffff81111561300557613004615a3c565b5b60405190808252806020026020018201604052801561303e57816020015b61302b61454d565b8152602001906001900390816130235790505b50905060005b828110156131d257876005018181548110613062576130616159a1565b5b90600052602060002090600202016040518060400160405290816000820160009054906101000a900473ffffffffffffffffffffffffffffffffffffffff1673ffffffffffffffffffffffffffffffffffffffff1673ffffffffffffffffffffffffffffffffffffffff1681526020016001820154815250508282815181106130ee576130ed6159a1565b5b6020026020010181905250600060066000848481518110613112576131116159a1565b5b60200260200101516000015173ffffffffffffffffffffffffffffffffffffffff1673ffffffffffffffffffffffffffffffffffffffff168152602001908152602001600020600084848151811061316d5761316c6159a1565b5b602002602001015160200151815260200190815260200160002060006101000a81548173ffffffffffffffffffffffffffffffffffffffff021916908373ffffffffffffffffffffffffffffffffffffffff1602179055508080600101915050613044565b508660050160006131e3919061457d565b600087600401819055506131f633613d11565b600085111561324b5761324a33867f000000000000000000000000000000000000000000000000000000000000000073ffffffffffffffffffffffffffffffffffffffff166139f79092919063ffffffff16565b5b60005b81518110156133a65781818151811061326a576132696159a1565b5b60200260200101516000015173ffffffffffffffffffffffffffffffffffffffff166342842e0e30338585815181106132a6576132a56159a1565b5b6020026020010151602001516040518463ffffffff1660e01b81526004016132d0939291906157ba565b600060405180830381600087803b1580156132ea57600080fd5b505af11580156132fe573d6000803e3d6000fd5b50505050818181518110613315576133146159a1565b5b602002602001015160200151828281518110613334576133336159a1565b5b60200260200101516000015173ffffffffffffffffffffffffffffffffffffffff163373ffffffffffffffffffffffffffffffffffffffff167fbbde41973f9ce4890f7ad9762c23d8191f261fd643bdf13ed8bbc10549b49fcb60405160405180910390a4808060010191505061324e565b503373ffffffffffffffffffffffffffffffffffffffff167fed51a34abf73431aee998f69ff67cbc5bae47a2768cc3e2efaf79e7ba0b65f15878787876040516133f3949392919061471c565b60405180910390a23373ffffffffffffffffffffffffffffffffffffffff167faa5cfc974bd759f818e3e18a4afc9d79daaa0722158497792100a1fddd13e19360405160405180910390a2505050505050505061344e613b3e565b565b7f000000000000000000000000000000000000000000000000000000000000000081565b61347c613970565b600073ffffffffffffffffffffffffffffffffffffffff168173ffffffffffffffffffffffffffffffffffffffff16036134ee5760006040517f1e4fbdf70000000000000000000000000000000000000000000000000000000081526004016134e59190614d30565b60405180910390fd5b6134f7816140d8565b50565b6000600460008484604051613510929190615515565b6040518091039020815260200190815260200160002060009054906101000a900460ff16905092915050565b613544613970565b61354c613a76565b600073ffffffffffffffffffffffffffffffffffffffff168373ffffffffffffffffffffffffffffffffffffffff16036135bb576040517f08c379a00000000000000000000000000000000000000000000000000000000081526004016135b29061583d565b60405180910390fd5b600073ffffffffffffffffffffffffffffffffffffffff168173ffffffffffffffffffffffffffffffffffffffff160361362a576040517f08c379a0000000000000000000000000000000000000000000000000000000008152600401613621906152b3565b60405180910390fd5b600073ffffffffffffffffffffffffffffffffffffffff16600660008573ffffffffffffffffffffffffffffffffffffffff1673ffffffffffffffffffffffffffffffffffffffff168152602001908152602001600020600084815260200190815260200160002060009054906101000a900473ffffffffffffffffffffffffffffffffffffffff1673ffffffffffffffffffffffffffffffffffffffff1614613709576040517f08c379a000000000000000000000000000000000000000000000000000000000815260040161370090615ab7565b60405180910390fd5b8273ffffffffffffffffffffffffffffffffffffffff166342842e0e3083856040518463ffffffff1660e01b8152600401613746939291906157ba565b600060405180830381600087803b15801561376057600080fd5b505af1158015613774573d6000803e3d6000fd5b50505050613780613b3e565b505050565b61378d613970565b600073ffffffffffffffffffffffffffffffffffffffff168373ffffffffffffffffffffffffffffffffffffffff16036137fc576040517f08c379a00000000000000000000000000000000000000000000000000000000081526004016137f39061583d565b60405180910390fd5b80600360008573ffffffffffffffffffffffffffffffffffffffff1673ffffffffffffffffffffffffffffffffffffffff168152602001908152602001600020600084815260200190815260200160002060006101000a81548160ff021916908315150217905550818373ffffffffffffffffffffffffffffffffffffffff167f03929b99f1d41b1602615acbac6af6c29ae6687db3d6586d252bf82074486e31836040516138ab9190614952565b60405180910390a3505050565b600080600854036138cd576009549050613947565b60006138d7611115565b9050600a5481116138ed57600954915050613947565b6000600a54826138fd919061514a565b90506000600b548261390f9190615074565b905060085469d3c21bcecceda10000008261392a9190615074565b61393491906150e5565b6009546139419190615116565b93505050505b90565b60008082141580156139695750624f1a00826139669190615116565b42105b9050919050565b6139786142f7565b73ffffffffffffffffffffffffffffffffffffffff16613996611f0a565b73ffffffffffffffffffffffffffffffffffffffff16146139f5576139b96142f7565b6040517f118cdaa70000000000000000000000000000000000000000000000000000000081526004016139ec9190614d30565b60405180910390fd5b565b613a71838473ffffffffffffffffffffffffffffffffffffffff1663a9059cbb8585604051602401613a2a929190615ad7565b604051602081830303815290604052915060e01b6020820180517bffffffffffffffffffffffffffffffffffffffffffffffffffffffff83818316178352505050506142ff565b505050565b600260015403613ab2576040517f3ee5aeb500000000000000000000000000000000000000000000000000000000815260040160405180910390fd5b6002600181905550565b613b38848573ffffffffffffffffffffffffffffffffffffffff166323b872dd868686604051602401613af1939291906157ba565b604051602081830303815290604052915060e01b6020820180517bffffffffffffffffffffffffffffffffffffffffffffffffffffffff83818316178352505050506142ff565b50505050565b60018081905550565b6000600560008373ffffffffffffffffffffffffffffffffffffffff1673ffffffffffffffffffffffffffffffffffffffff168152602001908152602001600020905060008160030154905060008103613ba2575050613d0e565b60008260030181905550600080829050613bbf846004015461394a565b15613c1c5761271061138884613bd59190615074565b613bdf91906150e5565b91508183613bed919061514a565b90506000821115613c1b578160106000828254613c0a9190615116565b92505081905550613c1a8261419c565b5b5b6000811115613c8a5780600f6000828254613c379190615116565b92505081905550613c8985827f000000000000000000000000000000000000000000000000000000000000000073ffffffffffffffffffffffffffffffffffffffff166139f79092919063ffffffff16565b5b69d3c21bcecceda10000006009548560010154613ca79190615074565b613cb191906150e5565b84600201819055508473ffffffffffffffffffffffffffffffffffffffff167fd6f2c8500df5b44f11e9e48b91ff9f1b9d81bc496d55570c2b1b75bf65243f518284604051613d01929190614de5565b60405180910390a2505050505b50565b6000600560008373ffffffffffffffffffffffffffffffffffffffff1673ffffffffffffffffffffffffffffffffffffffff16815260200190815260200160002090506000816001015490506000808360000154118015613d7a57506001836005018054905010155b15613dae57612710613d928460050180549050614084565b8460000154613da19190615074565b613dab91906150e5565b90505b81811115613ddf578181613dc2919061514a565b60086000828254613dd39190615116565b92505081905550613e0d565b80821115613e0c578082613df3919061514a565b60086000828254613e04919061514a565b925050819055505b5b80836001018190555069d3c21bcecceda100000060095482613e2f9190615074565b613e3991906150e5565b836002018190555050505050565b60008360050180549050905060005b81811015614043578373ffffffffffffffffffffffffffffffffffffffff16856005018281548110613e8b57613e8a6159a1565b5b906000526020600020906002020160000160009054906101000a900473ffffffffffffffffffffffffffffffffffffffff1673ffffffffffffffffffffffffffffffffffffffff16148015613f06575082856005018281548110613ef257613ef16159a1565b5b906000526020600020906002020160010154145b156140365784600501600183613f1c919061514a565b81548110613f2d57613f2c6159a1565b5b9060005260206000209060020201856005018281548110613f5157613f506159a1565b5b90600052602060002090600202016000820160009054906101000a900473ffffffffffffffffffffffffffffffffffffffff168160000160006101000a81548173ffffffffffffffffffffffffffffffffffffffff021916908373ffffffffffffffffffffffffffffffffffffffff1602179055506001820154816001015590505084600501805480613fe757613fe6615b00565b5b6001900381819060005260206000209060020201600080820160006101000a81549073ffffffffffffffffffffffffffffffffffffffff0219169055600182016000905550509055505061407f565b8080600101915050613e56565b506040517f08c379a000000000000000000000000000000000000000000000000000000000815260040161407690615b7b565b60405180910390fd5b505050565b6000600182036140985761271090506140d3565b600282036140aa57612af890506140d3565b600382036140bc57612ee090506140d3565b600482036140ce576132c890506140d3565b600090505b919050565b60008060009054906101000a900473ffffffffffffffffffffffffffffffffffffffff169050816000806101000a81548173ffffffffffffffffffffffffffffffffffffffff021916908373ffffffffffffffffffffffffffffffffffffffff1602179055508173ffffffffffffffffffffffffffffffffffffffff168173ffffffffffffffffffffffffffffffffffffffff167f8be0079c531659141344cd1fd0a4f28419497f9722a3daafe3b4186f6b6457e060405160405180910390a35050565b60008103156142f457600c54431015806141b857506000600b54145b156142155780600d60008282546141cf9190615116565b925050819055507fb83b89c23226baf08ab339fff4525164d413e7d9f816d2e208b4f37a8b11d9a5816001604051614208929190615b9b565b60405180910390a16142f4565b600043600c54614225919061514a565b9050600081036142885781600d60008282546142419190615116565b925050819055507fb83b89c23226baf08ab339fff4525164d413e7d9f816d2e208b4f37a8b11d9a582600160405161427a929190615b9b565b60405180910390a1506142f4565b6000600b54826142989190615074565b90508183826142a79190615116565b6142b191906150e5565b600b819055507fb83b89c23226baf08ab339fff4525164d413e7d9f816d2e208b4f37a8b11d9a58360006040516142e9929190615b9b565b60405180910390a150505b50565b600033905090565b600061432a828473ffffffffffffffffffffffffffffffffffffffff1661439690919063ffffffff16565b9050600081511415801561434f57508080602001905181019061434d9190615bd9565b155b1561439157826040517f5274afe70000000000000000000000000000000000000000000000000000000081526004016143889190614d30565b60405180910390fd5b505050565b60606143a4838360006143ac565b905092915050565b6060814710156143f357306040517fcd7860590000000000000000000000000000000000000000000000000000000081526004016143ea9190614d30565b60405180910390fd5b6000808573ffffffffffffffffffffffffffffffffffffffff16848660405161441c9190615c6c565b60006040518083038185875af1925050503d8060008114614459576040519150601f19603f3d011682016040523d82523d6000602084013e61445e565b606091505b509150915061446e868383614479565b925050509392505050565b60608261448e5761448982614508565b614500565b600082511480156144b6575060008473ffffffffffffffffffffffffffffffffffffffff163b145b156144f857836040517f9996b3150000000000000000000000000000000000000000000000000000000081526004016144ef9190614d30565b60405180910390fd5b819050614501565b5b9392505050565b60008151111561451b5780518082602001fd5b6040517f1425ea4200000000000000000000000000000000000000000000000000000000815260040160405180910390fd5b6040518060400160405280600073ffffffffffffffffffffffffffffffffffffffff168152602001600081525090565b508054600082556002029060005260206000209081019061459e91906145a1565b50565b5b808211156145e357600080820160006101000a81549073ffffffffffffffffffffffffffffffffffffffff02191690556001820160009055506002016145a2565b5090565b600080fd5b600080fd5b600073ffffffffffffffffffffffffffffffffffffffff82169050919050565b600061461c826145f1565b9050919050565b61462c81614611565b811461463757600080fd5b50565b60008135905061464981614623565b92915050565b600060208284031215614665576146646145e7565b5b60006146738482850161463a565b91505092915050565b6000819050919050565b61468f8161467c565b82525050565b60006020820190506146aa6000830184614686565b92915050565b6146b98161467c565b81146146c457600080fd5b50565b6000813590506146d6816146b0565b92915050565b600080604083850312156146f3576146f26145e7565b5b60006147018582860161463a565b9250506020614712858286016146c7565b9150509250929050565b60006080820190506147316000830187614686565b61473e6020830186614686565b61474b6040830185614686565b6147586060830184614686565b95945050505050565b60008060006060848603121561477a576147796145e7565b5b60006147888682870161463a565b93505060206147998682870161463a565b92505060406147aa868287016146c7565b9150509250925092565b600080fd5b600080fd5b600080fd5b60008083601f8401126147d9576147d86147b4565b5b8235905067ffffffffffffffff8111156147f6576147f56147b9565b5b602083019150836001820283011115614812576148116147be565b5b9250929050565b600080600080600060808688031215614835576148346145e7565b5b60006148438882890161463a565b95505060206148548882890161463a565b9450506040614865888289016146c7565b935050606086013567ffffffffffffffff811115614886576148856145ec565b5b614892888289016147c3565b92509250509295509295909350565b60007fffffffff0000000000000000000000000000000000000000000000000000000082169050919050565b6148d6816148a1565b82525050565b60006020820190506148f160008301846148cd565b92915050565b6000806040838503121561490e5761490d6145e7565b5b600061491c858286016146c7565b925050602061492d858286016146c7565b9150509250929050565b60008115159050919050565b61494c81614937565b82525050565b60006020820190506149676000830184614943565b92915050565b60008083601f840112614983576149826147b4565b5b8235905067ffffffffffffffff8111156149a05761499f6147b9565b5b6020830191508360018202830111156149bc576149bb6147be565b5b9250929050565b6149cc81614937565b81146149d757600080fd5b50565b6000813590506149e9816149c3565b92915050565b600080600060408486031215614a0857614a076145e7565b5b600084013567ffffffffffffffff811115614a2657614a256145ec565b5b614a328682870161496d565b93509350506020614a45868287016149da565b9150509250925092565b7f4e487b7100000000000000000000000000000000000000000000000000000000600052602160045260246000fd5b60028110614a8f57614a8e614a4f565b5b50565b6000819050614aa082614a7e565b919050565b6000614ab082614a92565b9050919050565b614ac081614aa5565b82525050565b6000604082019050614adb6000830185614943565b614ae86020830184614ab7565b9392505050565b600060208284031215614b0557614b046145e7565b5b6000614b13848285016146c7565b91505092915050565b600081519050919050565b600082825260208201905092915050565b6000819050602082019050919050565b614b5181614611565b82525050565b614b608161467c565b82525050565b604082016000820151614b7c6000850182614b48565b506020820151614b8f6020850182614b57565b50505050565b6000614ba18383614b66565b60408301905092915050565b6000602082019050919050565b6000614bc582614b1c565b614bcf8185614b27565b9350614bda83614b38565b8060005b83811015614c0b578151614bf28882614b95565b9750614bfd83614bad565b925050600181019050614bde565b5085935050505092915050565b60006020820190508181036000830152614c328184614bba565b905092915050565b60028110614c4757600080fd5b50565b600081359050614c5981614c3a565b92915050565b600080600060608486031215614c7857614c776145e7565b5b6000614c868682870161463a565b9350506020614c97868287016149da565b9250506040614ca886828701614c4a565b9150509250925092565b600060e082019050614cc7600083018a614686565b614cd46020830189614686565b614ce16040830188614686565b614cee6060830187614686565b614cfb6080830186614686565b614d0860a0830185614943565b614d1560c0830184614686565b98975050505050505050565b614d2a81614611565b82525050565b6000602082019050614d456000830184614d21565b92915050565b6000606082019050614d606000830186614686565b614d6d6020830185614686565b614d7a6040830184614686565b949350505050565b6000819050919050565b614d9581614d82565b8114614da057600080fd5b50565b600081359050614db281614d8c565b92915050565b600060208284031215614dce57614dcd6145e7565b5b6000614ddc84828501614da3565b91505092915050565b6000604082019050614dfa6000830185614686565b614e076020830184614686565b9392505050565b60008083601f840112614e2457614e236147b4565b5b8235905067ffffffffffffffff811115614e4157614e406147b9565b5b602083019150836020820283011115614e5d57614e5c6147be565b5b9250929050565b60008060008060608587031215614e7e57614e7d6145e7565b5b6000614e8c8782880161463a565b945050602085013567ffffffffffffffff811115614ead57614eac6145ec565b5b614eb987828801614e0e565b93509350506040614ecc878288016149da565b91505092959194509250565b6000819050919050565b6000614efd614ef8614ef3846145f1565b614ed8565b6145f1565b9050919050565b6000614f0f82614ee2565b9050919050565b6000614f2182614f04565b9050919050565b614f3181614f16565b82525050565b6000602082019050614f4c6000830184614f28565b92915050565b60008060208385031215614f6957614f686145e7565b5b600083013567ffffffffffffffff811115614f8757614f866145ec565b5b614f938582860161496d565b92509250509250929050565b600080600060608486031215614fb857614fb76145e7565b5b6000614fc68682870161463a565b9350506020614fd7868287016146c7565b9250506040614fe88682870161463a565b9150509250925092565b60008060006060848603121561500b5761500a6145e7565b5b60006150198682870161463a565b935050602061502a868287016146c7565b925050604061503b868287016149da565b9150509250925092565b7f4e487b7100000000000000000000000000000000000000000000000000000000600052601160045260246000fd5b600061507f8261467c565b915061508a8361467c565b92508282026150988161467c565b915082820484148315176150af576150ae615045565b5b5092915050565b7f4e487b7100000000000000000000000000000000000000000000000000000000600052601260045260246000fd5b60006150f08261467c565b91506150fb8361467c565b92508261510b5761510a6150b6565b5b828204905092915050565b60006151218261467c565b915061512c8361467c565b925082820190508082111561514457615143615045565b5b92915050565b60006151558261467c565b91506151608361467c565b925082820390508181111561517857615177615045565b5b92915050565b600082825260208201905092915050565b7f5354414b45000000000000000000000000000000000000000000000000000000600082015250565b60006151c560058361517e565b91506151d08261518f565b602082019050919050565b600060208201905081810360008301526151f4816151b8565b9050919050565b7f434f524500000000000000000000000000000000000000000000000000000000600082015250565b600061523160048361517e565b915061523c826151fb565b602082019050919050565b6000602082019050818103600083015261526081615224565b9050919050565b7f544f300000000000000000000000000000000000000000000000000000000000600082015250565b600061529d60038361517e565b91506152a882615267565b602082019050919050565b600060208201905081810360008301526152cc81615290565b9050919050565b7f4e4f524557000000000000000000000000000000000000000000000000000000600082015250565b600061530960058361517e565b9150615314826152d3565b602082019050919050565b60006020820190508181036000830152615338816152fc565b9050919050565b7f4455523000000000000000000000000000000000000000000000000000000000600082015250565b600061537560048361517e565b91506153808261533f565b602082019050919050565b600060208201905081810360008301526153a481615368565b9050919050565b7f4e4f534348000000000000000000000000000000000000000000000000000000600082015250565b60006153e160058361517e565b91506153ec826153ab565b602082019050919050565b60006020820190508181036000830152615410816153d4565b9050919050565b7f5250423000000000000000000000000000000000000000000000000000000000600082015250565b600061544d60048361517e565b915061545882615417565b602082019050919050565b6000602082019050818103600083015261547c81615440565b9050919050565b600060a0820190506154986000830188614686565b6154a56020830187614686565b6154b26040830186614686565b6154bf6060830185614686565b6154cc6080830184614686565b9695505050505050565b600081905092915050565b82818337600083830152505050565b60006154fc83856154d6565b93506155098385846154e1565b82840190509392505050565b60006155228284866154f0565b91508190509392505050565b6000601f19601f8301169050919050565b600061554b838561517e565b93506155588385846154e1565b6155618361552e565b840190509392505050565b6000604082019050818103600083015261558781858761553f565b90506155966020830184614943565b949350505050565b7f414d543000000000000000000000000000000000000000000000000000000000600082015250565b60006155d460048361517e565b91506155df8261559e565b602082019050919050565b60006020820190508181036000830152615603816155c7565b9050919050565b7f4e46545245510000000000000000000000000000000000000000000000000000600082015250565b600061564060068361517e565b915061564b8261560a565b602082019050919050565b6000602082019050818103600083015261566f81615633565b9050919050565b7f4d4158434f524500000000000000000000000000000000000000000000000000600082015250565b60006156ac60078361517e565b91506156b782615676565b602082019050919050565b600060208201905081810360008301526156db8161569f565b9050919050565b7f4e4f544e46540000000000000000000000000000000000000000000000000000600082015250565b600061571860068361517e565b9150615723826156e2565b602082019050919050565b600060208201905081810360008301526157478161570b565b9050919050565b7f4b4545504e465400000000000000000000000000000000000000000000000000600082015250565b600061578460078361517e565b915061578f8261574e565b602082019050919050565b600060208201905081810360008301526157b381615777565b9050919050565b60006060820190506157cf6000830186614d21565b6157dc6020830185614d21565b6157e96040830184614686565b949350505050565b7f434f4c3000000000000000000000000000000000000000000000000000000000600082015250565b600061582760048361517e565b9150615832826157f1565b602082019050919050565b600060208201905081810360008301526158568161581a565b9050919050565b7f4241444e46540000000000000000000000000000000000000000000000000000600082015250565b600061589360068361517e565b915061589e8261585d565b602082019050919050565b600060208201905081810360008301526158c281615886565b9050919050565b7f4d41584e46540000000000000000000000000000000000000000000000000000600082015250565b60006158ff60068361517e565b915061590a826158c9565b602082019050919050565b6000602082019050818103600083015261592e816158f2565b9050919050565b7f4455504e46540000000000000000000000000000000000000000000000000000600082015250565b600061596b60068361517e565b915061597682615935565b602082019050919050565b6000602082019050818103600083015261599a8161595e565b9050919050565b7f4e487b7100000000000000000000000000000000000000000000000000000000600052603260045260246000fd5b7f4e4f504f53000000000000000000000000000000000000000000000000000000600082015250565b6000615a0660058361517e565b9150615a11826159d0565b602082019050919050565b60006020820190508181036000830152615a35816159f9565b9050919050565b7f4e487b7100000000000000000000000000000000000000000000000000000000600052604160045260246000fd5b7f5354414b45440000000000000000000000000000000000000000000000000000600082015250565b6000615aa160068361517e565b9150615aac82615a6b565b602082019050919050565b60006020820190508181036000830152615ad081615a94565b9050919050565b6000604082019050615aec6000830185614d21565b615af96020830184614686565b9392505050565b7f4e487b7100000000000000000000000000000000000000000000000000000000600052603160045260246000fd5b7f4e4f5f4e46540000000000000000000000000000000000000000000000000000600082015250565b6000615b6560068361517e565b9150615b7082615b2f565b602082019050919050565b60006020820190508181036000830152615b9481615b58565b9050919050565b6000604082019050615bb06000830185614686565b615bbd6020830184614943565b9392505050565b600081519050615bd3816149c3565b92915050565b600060208284031215615bef57615bee6145e7565b5b6000615bfd84828501615bc4565b91505092915050565b600081519050919050565b60005b83811015615c2f578082015181840152602081019050615c14565b60008484015250505050565b6000615c4682615c06565b615c5081856154d6565b9350615c60818560208601615c11565b80840191505092915050565b6000615c788284615c3b565b91508190509291505056fea26469706673582212207cac57a7448c4b07a2de427ef70059bab1fb6ed49400c72cc29ffe3ff12e3be164736f6c63430008180033",
			"opcodes": "PUSH1 0xA0 PUSH1 0x40 MSTORE CALLVALUE DUP1 ISZERO PUSH3 0x11 JUMPI PUSH1 0x0 DUP1 REVERT JUMPDEST POP PUSH1 0x40 MLOAD PUSH3 0x6098 CODESIZE SUB DUP1 PUSH3 0x6098 DUP4 CODECOPY DUP2 DUP2 ADD PUSH1 0x40 MSTORE DUP2 ADD SWAP1 PUSH3 0x37 SWAP2 SWAP1 PUSH3 0x2A8 JUMP JUMPDEST CALLER PUSH1 0x0 PUSH20 0xFFFFFFFFFFFFFFFFFFFFFFFFFFFFFFFFFFFFFFFF AND DUP2 PUSH20 0xFFFFFFFFFFFFFFFFFFFFFFFFFFFFFFFFFFFFFFFF AND SUB PUSH3 0xAD JUMPI PUSH1 0x0 PUSH1 0x40 MLOAD PUSH32 0x1E4FBDF700000000000000000000000000000000000000000000000000000000 DUP2 MSTORE PUSH1 0x4 ADD PUSH3 0xA4 SWAP2 SWAP1 PUSH3 0x2EB JUMP JUMPDEST PUSH1 0x40 MLOAD DUP1 SWAP2 SUB SWAP1 REVERT JUMPDEST PUSH3 0xBE DUP2 PUSH3 0x17A PUSH1 0x20 SHL PUSH1 0x20 SHR JUMP JUMPDEST POP PUSH1 0x1 DUP1 DUP2 SWAP1 SSTORE POP PUSH1 0x0 PUSH20 0xFFFFFFFFFFFFFFFFFFFFFFFFFFFFFFFFFFFFFFFF AND DUP2 PUSH20 0xFFFFFFFFFFFFFFFFFFFFFFFFFFFFFFFFFFFFFFFF AND SUB PUSH3 0x138 JUMPI PUSH1 0x40 MLOAD PUSH32 0x8C379A000000000000000000000000000000000000000000000000000000000 DUP2 MSTORE PUSH1 0x4 ADD PUSH3 0x12F SWAP1 PUSH3 0x369 JUMP JUMPDEST PUSH1 0x40 MLOAD DUP1 SWAP2 SUB SWAP1 REVERT JUMPDEST DUP1 PUSH20 0xFFFFFFFFFFFFFFFFFFFFFFFFFFFFFFFFFFFFFFFF AND PUSH1 0x80 DUP2 PUSH20 0xFFFFFFFFFFFFFFFFFFFFFFFFFFFFFFFFFFFFFFFF AND DUP2 MSTORE POP POP NUMBER PUSH1 0xA DUP2 SWAP1 SSTORE POP POP PUSH3 0x38B JUMP JUMPDEST PUSH1 0x0 DUP1 PUSH1 0x0 SWAP1 SLOAD SWAP1 PUSH2 0x100 EXP SWAP1 DIV PUSH20 0xFFFFFFFFFFFFFFFFFFFFFFFFFFFFFFFFFFFFFFFF AND SWAP1 POP DUP2 PUSH1 0x0 DUP1 PUSH2 0x100 EXP DUP2 SLOAD DUP2 PUSH20 0xFFFFFFFFFFFFFFFFFFFFFFFFFFFFFFFFFFFFFFFF MUL NOT AND SWAP1 DUP4 PUSH20 0xFFFFFFFFFFFFFFFFFFFFFFFFFFFFFFFFFFFFFFFF AND MUL OR SWAP1 SSTORE POP DUP2 PUSH20 0xFFFFFFFFFFFFFFFFFFFFFFFFFFFFFFFFFFFFFFFF AND DUP2 PUSH20 0xFFFFFFFFFFFFFFFFFFFFFFFFFFFFFFFFFFFFFFFF AND PUSH32 0x8BE0079C531659141344CD1FD0A4F28419497F9722A3DAAFE3B4186F6B6457E0 PUSH1 0x40 MLOAD PUSH1 0x40 MLOAD DUP1 SWAP2 SUB SWAP1 LOG3 POP POP JUMP JUMPDEST PUSH1 0x0 DUP1 REVERT JUMPDEST PUSH1 0x0 PUSH20 0xFFFFFFFFFFFFFFFFFFFFFFFFFFFFFFFFFFFFFFFF DUP3 AND SWAP1 POP SWAP2 SWAP1 POP JUMP JUMPDEST PUSH1 0x0 PUSH3 0x270 DUP3 PUSH3 0x243 JUMP JUMPDEST SWAP1 POP SWAP2 SWAP1 POP JUMP JUMPDEST PUSH3 0x282 DUP2 PUSH3 0x263 JUMP JUMPDEST DUP2 EQ PUSH3 0x28E JUMPI PUSH1 0x0 DUP1 REVERT JUMPDEST POP JUMP JUMPDEST PUSH1 0x0 DUP2 MLOAD SWAP1 POP PUSH3 0x2A2 DUP2 PUSH3 0x277 JUMP JUMPDEST SWAP3 SWAP2 POP POP JUMP JUMPDEST PUSH1 0x0 PUSH1 0x20 DUP3 DUP5 SUB SLT ISZERO PUSH3 0x2C1 JUMPI PUSH3 0x2C0 PUSH3 0x23E JUMP JUMPDEST JUMPDEST PUSH1 0x0 PUSH3 0x2D1 DUP5 DUP3 DUP6 ADD PUSH3 0x291 JUMP JUMPDEST SWAP2 POP POP SWAP3 SWAP2 POP POP JUMP JUMPDEST PUSH3 0x2E5 DUP2 PUSH3 0x263 JUMP JUMPDEST DUP3 MSTORE POP POP JUMP JUMPDEST PUSH1 0x0 PUSH1 0x20 DUP3 ADD SWAP1 POP PUSH3 0x302 PUSH1 0x0 DUP4 ADD DUP5 PUSH3 0x2DA JUMP JUMPDEST SWAP3 SWAP2 POP POP JUMP JUMPDEST PUSH1 0x0 DUP3 DUP3 MSTORE PUSH1 0x20 DUP3 ADD SWAP1 POP SWAP3 SWAP2 POP POP JUMP JUMPDEST PUSH32 0x434F524530000000000000000000000000000000000000000000000000000000 PUSH1 0x0 DUP3 ADD MSTORE POP JUMP JUMPDEST PUSH1 0x0 PUSH3 0x351 PUSH1 0x5 DUP4 PUSH3 0x308 JUMP JUMPDEST SWAP2 POP PUSH3 0x35E DUP3 PUSH3 0x319 JUMP JUMPDEST PUSH1 0x20 DUP3 ADD SWAP1 POP SWAP2 SWAP1 POP JUMP JUMPDEST PUSH1 0x0 PUSH1 0x20 DUP3 ADD SWAP1 POP DUP2 DUP2 SUB PUSH1 0x0 DUP4 ADD MSTORE PUSH3 0x384 DUP2 PUSH3 0x342 JUMP JUMPDEST SWAP1 POP SWAP2 SWAP1 POP JUMP JUMPDEST PUSH1 0x80 MLOAD PUSH2 0x5CB9 PUSH3 0x3DF PUSH1 0x0 CODECOPY PUSH1 0x0 DUP2 DUP2 PUSH2 0xB25 ADD MSTORE DUP2 DUP2 PUSH2 0xE35 ADD MSTORE DUP2 DUP2 PUSH2 0x14FB ADD MSTORE DUP2 DUP2 PUSH2 0x226B ADD MSTORE DUP2 DUP2 PUSH2 0x231E ADD MSTORE DUP2 DUP2 PUSH2 0x2F50 ADD MSTORE DUP2 DUP2 PUSH2 0x3206 ADD MSTORE DUP2 DUP2 PUSH2 0x3452 ADD MSTORE PUSH2 0x3C45 ADD MSTORE PUSH2 0x5CB9 PUSH1 0x0 RETURN INVALID PUSH1 0x80 PUSH1 0x40 MSTORE CALLVALUE DUP1 ISZERO PUSH2 0x10 JUMPI PUSH1 0x0 DUP1 REVERT JUMPDEST POP PUSH1 0x4 CALLDATASIZE LT PUSH2 0x2D5 JUMPI PUSH1 0x0 CALLDATALOAD PUSH1 0xE0 SHR DUP1 PUSH4 0x74958E35 GT PUSH2 0x182 JUMPI DUP1 PUSH4 0xB1050A24 GT PUSH2 0xE9 JUMPI DUP1 PUSH4 0xDFD456AA GT PUSH2 0xA2 JUMPI DUP1 PUSH4 0xF2FDE38B GT PUSH2 0x7C JUMPI DUP1 PUSH4 0xF2FDE38B EQ PUSH2 0x8D5 JUMPI DUP1 PUSH4 0xF413496A EQ PUSH2 0x8F1 JUMPI DUP1 PUSH4 0xF9B5B664 EQ PUSH2 0x921 JUMPI DUP1 PUSH4 0xFA0C7F3D EQ PUSH2 0x93D JUMPI PUSH2 0x2D5 JUMP JUMPDEST DUP1 PUSH4 0xDFD456AA EQ PUSH2 0x88F JUMPI DUP1 PUSH4 0xE9FAD8EE EQ PUSH2 0x8AD JUMPI DUP1 PUSH4 0xF2F4EB26 EQ PUSH2 0x8B7 JUMPI PUSH2 0x2D5 JUMP JUMPDEST DUP1 PUSH4 0xB1050A24 EQ PUSH2 0x7BA JUMPI DUP1 PUSH4 0xB13270D5 EQ PUSH2 0x7EB JUMPI DUP1 PUSH4 0xB2FA49BF EQ PUSH2 0x807 JUMPI DUP1 PUSH4 0xD0863580 EQ PUSH2 0x837 JUMPI DUP1 PUSH4 0xD6316991 EQ PUSH2 0x855 JUMPI DUP1 PUSH4 0xD64B84B5 EQ PUSH2 0x871 JUMPI PUSH2 0x2D5 JUMP JUMPDEST DUP1 PUSH4 0x91596E1E GT PUSH2 0x13B JUMPI DUP1 PUSH4 0x91596E1E EQ PUSH2 0x6F6 JUMPI DUP1 PUSH4 0x955541F1 EQ PUSH2 0x712 JUMPI DUP1 PUSH4 0xA1A89EFE EQ PUSH2 0x742 JUMPI DUP1 PUSH4 0xA9F8D181 EQ PUSH2 0x760 JUMPI DUP1 PUSH4 0xAA6BB09A EQ PUSH2 0x77E JUMPI DUP1 PUSH4 0xAD9E180C EQ PUSH2 0x79C JUMPI PUSH2 0x2D5 JUMP JUMPDEST DUP1 PUSH4 0x74958E35 EQ PUSH2 0x61C JUMPI DUP1 PUSH4 0x77AA93AB EQ PUSH2 0x63A JUMPI DUP1 PUSH4 0x7EEF7199 EQ PUSH2 0x66A JUMPI DUP1 PUSH4 0x84FF0109 EQ PUSH2 0x69C JUMPI DUP1 PUSH4 0x8AE39CAC EQ PUSH2 0x6BA JUMPI DUP1 PUSH4 0x8DA5CB5B EQ PUSH2 0x6D8 JUMPI PUSH2 0x2D5 JUMP JUMPDEST DUP1 PUSH4 0x4CCC76AE GT PUSH2 0x241 JUMPI DUP1 PUSH4 0x5D2ED556 GT PUSH2 0x1FA JUMPI DUP1 PUSH4 0x639F8994 GT PUSH2 0x1D4 JUMPI DUP1 PUSH4 0x639F8994 EQ PUSH2 0x5A2 JUMPI DUP1 PUSH4 0x63D38C3B EQ PUSH2 0x5BE JUMPI DUP1 PUSH4 0x6F77926B EQ PUSH2 0x5DC JUMPI DUP1 PUSH4 0x715018A6 EQ PUSH2 0x612 JUMPI PUSH2 0x2D5 JUMP JUMPDEST DUP1 PUSH4 0x5D2ED556 EQ PUSH2 0x54A JUMPI DUP1 PUSH4 0x5DDFD989 EQ PUSH2 0x568 JUMPI DUP1 PUSH4 0x6088E93A EQ PUSH2 0x586 JUMPI PUSH2 0x2D5 JUMP JUMPDEST DUP1 PUSH4 0x4CCC76AE EQ PUSH2 0x49A JUMPI DUP1 PUSH4 0x4E71D92D EQ PUSH2 0x4B8 JUMPI DUP1 PUSH4 0x4FF0DA48 EQ PUSH2 0x4C2 JUMPI DUP1 PUSH4 0x52DE4EE5 EQ PUSH2 0x4DE JUMPI DUP1 PUSH4 0x58F3D6D0 EQ PUSH2 0x50E JUMPI DUP1 PUSH4 0x591C6F25 EQ PUSH2 0x52C JUMPI PUSH2 0x2D5 JUMP JUMPDEST DUP1 PUSH4 0x28662551 GT PUSH2 0x293 JUMPI DUP1 PUSH4 0x28662551 EQ PUSH2 0x3C5 JUMPI DUP1 PUSH4 0x2B6838B3 EQ PUSH2 0x3E1 JUMPI DUP1 PUSH4 0x2D60A36D EQ PUSH2 0x3FF JUMPI DUP1 PUSH4 0x31C2BB51 EQ PUSH2 0x41D JUMPI DUP1 PUSH4 0x39087664 EQ PUSH2 0x44D JUMPI DUP1 PUSH4 0x43ADD2E6 EQ PUSH2 0x469 JUMPI PUSH2 0x2D5 JUMP JUMPDEST DUP1 PUSH3 0x8CC262 EQ PUSH2 0x2DA JUMPI DUP1 PUSH4 0x5D1AEBB EQ PUSH2 0x30A JUMPI DUP1 PUSH4 0x83C6323 EQ PUSH2 0x33D JUMPI DUP1 PUSH4 0xAB9F75F EQ PUSH2 0x35B JUMPI DUP1 PUSH4 0x1171BDA9 EQ PUSH2 0x379 JUMPI DUP1 PUSH4 0x150B7A02 EQ PUSH2 0x395 JUMPI JUMPDEST PUSH1 0x0 DUP1 REVERT JUMPDEST PUSH2 0x2F4 PUSH1 0x4 DUP1 CALLDATASIZE SUB DUP2 ADD SWAP1 PUSH2 0x2EF SWAP2 SWAP1 PUSH2 0x464F JUMP JUMPDEST PUSH2 0x959 JUMP JUMPDEST PUSH1 0x40 MLOAD PUSH2 0x301 SWAP2 SWAP1 PUSH2 0x4695 JUMP JUMPDEST PUSH1 0x40 MLOAD DUP1 SWAP2 SUB SWAP1 RETURN JUMPDEST PUSH2 0x324 PUSH1 0x4 DUP1 CALLDATASIZE SUB DUP2 ADD SWAP1 PUSH2 0x31F SWAP2 SWAP1 PUSH2 0x46DC JUMP JUMPDEST PUSH2 0x9FB JUMP JUMPDEST PUSH1 0x40 MLOAD PUSH2 0x334 SWAP5 SWAP4 SWAP3 SWAP2 SWAP1 PUSH2 0x471C JUMP JUMPDEST PUSH1 0x40 MLOAD DUP1 SWAP2 SUB SWAP1 RETURN JUMPDEST PUSH2 0x345 PUSH2 0xB0F JUMP JUMPDEST PUSH1 0x40 MLOAD PUSH2 0x352 SWAP2 SWAP1 PUSH2 0x4695 JUMP JUMPDEST PUSH1 0x40 MLOAD DUP1 SWAP2 SUB SWAP1 RETURN JUMPDEST PUSH2 0x363 PUSH2 0xB15 JUMP JUMPDEST PUSH1 0x40 MLOAD PUSH2 0x370 SWAP2 SWAP1 PUSH2 0x4695 JUMP JUMPDEST PUSH1 0x40 MLOAD DUP1 SWAP2 SUB SWAP1 RETURN JUMPDEST PUSH2 0x393 PUSH1 0x4 DUP1 CALLDATASIZE SUB DUP2 ADD SWAP1 PUSH2 0x38E SWAP2 SWAP1 PUSH2 0x4761 JUMP JUMPDEST PUSH2 0xB1B JUMP JUMPDEST STOP JUMPDEST PUSH2 0x3AF PUSH1 0x4 DUP1 CALLDATASIZE SUB DUP2 ADD SWAP1 PUSH2 0x3AA SWAP2 SWAP1 PUSH2 0x4819 JUMP JUMPDEST PUSH2 0xC50 JUMP JUMPDEST PUSH1 0x40 MLOAD PUSH2 0x3BC SWAP2 SWAP1 PUSH2 0x48DC JUMP JUMPDEST PUSH1 0x40 MLOAD DUP1 SWAP2 SUB SWAP1 RETURN JUMPDEST PUSH2 0x3DF PUSH1 0x4 DUP1 CALLDATASIZE SUB DUP2 ADD SWAP1 PUSH2 0x3DA SWAP2 SWAP1 PUSH2 0x48F7 JUMP JUMPDEST PUSH2 0xC65 JUMP JUMPDEST STOP JUMPDEST PUSH2 0x3E9 PUSH2 0x1005 JUMP JUMPDEST PUSH1 0x40 MLOAD PUSH2 0x3F6 SWAP2 SWAP1 PUSH2 0x4695 JUMP JUMPDEST PUSH1 0x40 MLOAD DUP1 SWAP2 SUB SWAP1 RETURN JUMPDEST PUSH2 0x407 PUSH2 0x100A JUMP JUMPDEST PUSH1 0x40 MLOAD PUSH2 0x414 SWAP2 SWAP1 PUSH2 0x4695 JUMP JUMPDEST PUSH1 0x40 MLOAD DUP1 SWAP2 SUB SWAP1 RETURN JUMPDEST PUSH2 0x437 PUSH1 0x4 DUP1 CALLDATASIZE SUB DUP2 ADD SWAP1 PUSH2 0x432 SWAP2 SWAP1 PUSH2 0x46DC JUMP JUMPDEST PUSH2 0x1018 JUMP JUMPDEST PUSH1 0x40 MLOAD PUSH2 0x444 SWAP2 SWAP1 PUSH2 0x4952 JUMP JUMPDEST PUSH1 0x40 MLOAD DUP1 SWAP2 SUB SWAP1 RETURN JUMPDEST PUSH2 0x467 PUSH1 0x4 DUP1 CALLDATASIZE SUB DUP2 ADD SWAP1 PUSH2 0x462 SWAP2 SWAP1 PUSH2 0x49EF JUMP JUMPDEST PUSH2 0x1047 JUMP JUMPDEST STOP JUMPDEST PUSH2 0x483 PUSH1 0x4 DUP1 CALLDATASIZE SUB DUP2 ADD SWAP1 PUSH2 0x47E SWAP2 SWAP1 PUSH2 0x464F JUMP JUMPDEST PUSH2 0x10D7 JUMP JUMPDEST PUSH1 0x40 MLOAD PUSH2 0x491 SWAP3 SWAP2 SWAP1 PUSH2 0x4AC6 JUMP JUMPDEST PUSH1 0x40 MLOAD DUP1 SWAP2 SUB SWAP1 RETURN JUMPDEST PUSH2 0x4A2 PUSH2 0x1115 JUMP JUMPDEST PUSH1 0x40 MLOAD PUSH2 0x4AF SWAP2 SWAP1 PUSH2 0x4695 JUMP JUMPDEST PUSH1 0x40 MLOAD DUP1 SWAP2 SUB SWAP1 RETURN JUMPDEST PUSH2 0x4C0 PUSH2 0x112F JUMP JUMPDEST STOP JUMPDEST PUSH2 0x4DC PUSH1 0x4 DUP1 CALLDATASIZE SUB DUP2 ADD SWAP1 PUSH2 0x4D7 SWAP2 SWAP1 PUSH2 0x4AEF JUMP JUMPDEST PUSH2 0x1266 JUMP JUMPDEST STOP JUMPDEST PUSH2 0x4F8 PUSH1 0x4 DUP1 CALLDATASIZE SUB DUP2 ADD SWAP1 PUSH2 0x4F3 SWAP2 SWAP1 PUSH2 0x464F JUMP JUMPDEST PUSH2 0x15A4 JUMP JUMPDEST PUSH1 0x40 MLOAD PUSH2 0x505 SWAP2 SWAP1 PUSH2 0x4C18 JUMP JUMPDEST PUSH1 0x40 MLOAD DUP1 SWAP2 SUB SWAP1 RETURN JUMPDEST PUSH2 0x516 PUSH2 0x16A5 JUMP JUMPDEST PUSH1 0x40 MLOAD PUSH2 0x523 SWAP2 SWAP1 PUSH2 0x4695 JUMP JUMPDEST PUSH1 0x40 MLOAD DUP1 SWAP2 SUB SWAP1 RETURN JUMPDEST PUSH2 0x534 PUSH2 0x16AC JUMP JUMPDEST PUSH1 0x40 MLOAD PUSH2 0x541 SWAP2 SWAP1 PUSH2 0x4695 JUMP JUMPDEST PUSH1 0x40 MLOAD DUP1 SWAP2 SUB SWAP1 RETURN JUMPDEST PUSH2 0x552 PUSH2 0x16B2 JUMP JUMPDEST PUSH1 0x40 MLOAD PUSH2 0x55F SWAP2 SWAP1 PUSH2 0x4695 JUMP JUMPDEST PUSH1 0x40 MLOAD DUP1 SWAP2 SUB SWAP1 RETURN JUMPDEST PUSH2 0x570 PUSH2 0x16B9 JUMP JUMPDEST PUSH1 0x40 MLOAD PUSH2 0x57D SWAP2 SWAP1 PUSH2 0x4695 JUMP JUMPDEST PUSH1 0x40 MLOAD DUP1 SWAP2 SUB SWAP1 RETURN JUMPDEST PUSH2 0x5A0 PUSH1 0x4 DUP1 CALLDATASIZE SUB DUP2 ADD SWAP1 PUSH2 0x59B SWAP2 SWAP1 PUSH2 0x46DC JUMP JUMPDEST PUSH2 0x16ED JUMP JUMPDEST STOP JUMPDEST PUSH2 0x5BC PUSH1 0x4 DUP1 CALLDATASIZE SUB DUP2 ADD SWAP1 PUSH2 0x5B7 SWAP2 SWAP1 PUSH2 0x4C5F JUMP JUMPDEST PUSH2 0x1B05 JUMP JUMPDEST STOP JUMPDEST PUSH2 0x5C6 PUSH2 0x1C8C JUMP JUMPDEST PUSH1 0x40 MLOAD PUSH2 0x5D3 SWAP2 SWAP1 PUSH2 0x4695 JUMP JUMPDEST PUSH1 0x40 MLOAD DUP1 SWAP2 SUB SWAP1 RETURN JUMPDEST PUSH2 0x5F6 PUSH1 0x4 DUP1 CALLDATASIZE SUB DUP2 ADD SWAP1 PUSH2 0x5F1 SWAP2 SWAP1 PUSH2 0x464F JUMP JUMPDEST PUSH2 0x1C92 JUMP JUMPDEST PUSH1 0x40 MLOAD PUSH2 0x609 SWAP8 SWAP7 SWAP6 SWAP5 SWAP4 SWAP3 SWAP2 SWAP1 PUSH2 0x4CB2 JUMP JUMPDEST PUSH1 0x40 MLOAD DUP1 SWAP2 SUB SWAP1 RETURN JUMPDEST PUSH2 0x61A PUSH2 0x1DE0 JUMP JUMPDEST STOP JUMPDEST PUSH2 0x624 PUSH2 0x1DF4 JUMP JUMPDEST PUSH1 0x40 MLOAD PUSH2 0x631 SWAP2 SWAP1 PUSH2 0x4695 JUMP JUMPDEST PUSH1 0x40 MLOAD DUP1 SWAP2 SUB SWAP1 RETURN JUMPDEST PUSH2 0x654 PUSH1 0x4 DUP1 CALLDATASIZE SUB DUP2 ADD SWAP1 PUSH2 0x64F SWAP2 SWAP1 PUSH2 0x46DC JUMP JUMPDEST PUSH2 0x1DFA JUMP JUMPDEST PUSH1 0x40 MLOAD PUSH2 0x661 SWAP2 SWAP1 PUSH2 0x4D30 JUMP JUMPDEST PUSH1 0x40 MLOAD DUP1 SWAP2 SUB SWAP1 RETURN JUMPDEST PUSH2 0x684 PUSH1 0x4 DUP1 CALLDATASIZE SUB DUP2 ADD SWAP1 PUSH2 0x67F SWAP2 SWAP1 PUSH2 0x464F JUMP JUMPDEST PUSH2 0x1E3C JUMP JUMPDEST PUSH1 0x40 MLOAD PUSH2 0x693 SWAP4 SWAP3 SWAP2 SWAP1 PUSH2 0x4D4B JUMP JUMPDEST PUSH1 0x40 MLOAD DUP1 SWAP2 SUB SWAP1 RETURN JUMPDEST PUSH2 0x6A4 PUSH2 0x1ECF JUMP JUMPDEST PUSH1 0x40 MLOAD PUSH2 0x6B1 SWAP2 SWAP1 PUSH2 0x4695 JUMP JUMPDEST PUSH1 0x40 MLOAD DUP1 SWAP2 SUB SWAP1 RETURN JUMPDEST PUSH2 0x6C2 PUSH2 0x1F04 JUMP JUMPDEST PUSH1 0x40 MLOAD PUSH2 0x6CF SWAP2 SWAP1 PUSH2 0x4695 JUMP JUMPDEST PUSH1 0x40 MLOAD DUP1 SWAP2 SUB SWAP1 RETURN JUMPDEST PUSH2 0x6E0 PUSH2 0x1F0A JUMP JUMPDEST PUSH1 0x40 MLOAD PUSH2 0x6ED SWAP2 SWAP1 PUSH2 0x4D30 JUMP JUMPDEST PUSH1 0x40 MLOAD DUP1 SWAP2 SUB SWAP1 RETURN JUMPDEST PUSH2 0x710 PUSH1 0x4 DUP1 CALLDATASIZE SUB DUP2 ADD SWAP1 PUSH2 0x70B SWAP2 SWAP1 PUSH2 0x4AEF JUMP JUMPDEST PUSH2 0x1F33 JUMP JUMPDEST STOP JUMPDEST PUSH2 0x72C PUSH1 0x4 DUP1 CALLDATASIZE SUB DUP2 ADD SWAP1 PUSH2 0x727 SWAP2 SWAP1 PUSH2 0x4DB8 JUMP JUMPDEST PUSH2 0x23C6 JUMP JUMPDEST PUSH1 0x40 MLOAD PUSH2 0x739 SWAP2 SWAP1 PUSH2 0x4952 JUMP JUMPDEST PUSH1 0x40 MLOAD DUP1 SWAP2 SUB SWAP1 RETURN JUMPDEST PUSH2 0x74A PUSH2 0x23E6 JUMP JUMPDEST PUSH1 0x40 MLOAD PUSH2 0x757 SWAP2 SWAP1 PUSH2 0x4695 JUMP JUMPDEST PUSH1 0x40 MLOAD DUP1 SWAP2 SUB SWAP1 RETURN JUMPDEST PUSH2 0x768 PUSH2 0x23EC JUMP JUMPDEST PUSH1 0x40 MLOAD PUSH2 0x775 SWAP2 SWAP1 PUSH2 0x4695 JUMP JUMPDEST PUSH1 0x40 MLOAD DUP1 SWAP2 SUB SWAP1 RETURN JUMPDEST PUSH2 0x786 PUSH2 0x23F2 JUMP JUMPDEST PUSH1 0x40 MLOAD PUSH2 0x793 SWAP2 SWAP1 PUSH2 0x4695 JUMP JUMPDEST PUSH1 0x40 MLOAD DUP1 SWAP2 SUB SWAP1 RETURN JUMPDEST PUSH2 0x7A4 PUSH2 0x23F8 JUMP JUMPDEST PUSH1 0x40 MLOAD PUSH2 0x7B1 SWAP2 SWAP1 PUSH2 0x4695 JUMP JUMPDEST PUSH1 0x40 MLOAD DUP1 SWAP2 SUB SWAP1 RETURN JUMPDEST PUSH2 0x7D4 PUSH1 0x4 DUP1 CALLDATASIZE SUB DUP2 ADD SWAP1 PUSH2 0x7CF SWAP2 SWAP1 PUSH2 0x464F JUMP JUMPDEST PUSH2 0x23FE JUMP JUMPDEST PUSH1 0x40 MLOAD PUSH2 0x7E2 SWAP3 SWAP2 SWAP1 PUSH2 0x4DE5 JUMP JUMPDEST PUSH1 0x40 MLOAD DUP1 SWAP2 SUB SWAP1 RETURN JUMPDEST PUSH2 0x805 PUSH1 0x4 DUP1 CALLDATASIZE SUB DUP2 ADD SWAP1 PUSH2 0x800 SWAP2 SWAP1 PUSH2 0x46DC JUMP JUMPDEST PUSH2 0x2490 JUMP JUMPDEST STOP JUMPDEST PUSH2 0x821 PUSH1 0x4 DUP1 CALLDATASIZE SUB DUP2 ADD SWAP1 PUSH2 0x81C SWAP2 SWAP1 PUSH2 0x46DC JUMP JUMPDEST PUSH2 0x2983 JUMP JUMPDEST PUSH1 0x40 MLOAD PUSH2 0x82E SWAP2 SWAP1 PUSH2 0x4952 JUMP JUMPDEST PUSH1 0x40 MLOAD DUP1 SWAP2 SUB SWAP1 RETURN JUMPDEST PUSH2 0x83F PUSH2 0x2ADD JUMP JUMPDEST PUSH1 0x40 MLOAD PUSH2 0x84C SWAP2 SWAP1 PUSH2 0x4695 JUMP JUMPDEST PUSH1 0x40 MLOAD DUP1 SWAP2 SUB SWAP1 RETURN JUMPDEST PUSH2 0x86F PUSH1 0x4 DUP1 CALLDATASIZE SUB DUP2 ADD SWAP1 PUSH2 0x86A SWAP2 SWAP1 PUSH2 0x4E64 JUMP JUMPDEST PUSH2 0x2B05 JUMP JUMPDEST STOP JUMPDEST PUSH2 0x879 PUSH2 0x2C87 JUMP JUMPDEST PUSH1 0x40 MLOAD PUSH2 0x886 SWAP2 SWAP1 PUSH2 0x4695 JUMP JUMPDEST PUSH1 0x40 MLOAD DUP1 SWAP2 SUB SWAP1 RETURN JUMPDEST PUSH2 0x897 PUSH2 0x2C8D JUMP JUMPDEST PUSH1 0x40 MLOAD PUSH2 0x8A4 SWAP2 SWAP1 PUSH2 0x4695 JUMP JUMPDEST PUSH1 0x40 MLOAD DUP1 SWAP2 SUB SWAP1 RETURN JUMPDEST PUSH2 0x8B5 PUSH2 0x2C93 JUMP JUMPDEST STOP JUMPDEST PUSH2 0x8BF PUSH2 0x3450 JUMP JUMPDEST PUSH1 0x40 MLOAD PUSH2 0x8CC SWAP2 SWAP1 PUSH2 0x4F37 JUMP JUMPDEST PUSH1 0x40 MLOAD DUP1 SWAP2 SUB SWAP1 RETURN JUMPDEST PUSH2 0x8EF PUSH1 0x4 DUP1 CALLDATASIZE SUB DUP2 ADD SWAP1 PUSH2 0x8EA SWAP2 SWAP1 PUSH2 0x464F JUMP JUMPDEST PUSH2 0x3474 JUMP JUMPDEST STOP JUMPDEST PUSH2 0x90B PUSH1 0x4 DUP1 CALLDATASIZE SUB DUP2 ADD SWAP1 PUSH2 0x906 SWAP2 SWAP1 PUSH2 0x4F52 JUMP JUMPDEST PUSH2 0x34FA JUMP JUMPDEST PUSH1 0x40 MLOAD PUSH2 0x918 SWAP2 SWAP1 PUSH2 0x4952 JUMP JUMPDEST PUSH1 0x40 MLOAD DUP1 SWAP2 SUB SWAP1 RETURN JUMPDEST PUSH2 0x93B PUSH1 0x4 DUP1 CALLDATASIZE SUB DUP2 ADD SWAP1 PUSH2 0x936 SWAP2 SWAP1 PUSH2 0x4F9F JUMP JUMPDEST PUSH2 0x353C JUMP JUMPDEST STOP JUMPDEST PUSH2 0x957 PUSH1 0x4 DUP1 CALLDATASIZE SUB DUP2 ADD SWAP1 PUSH2 0x952 SWAP2 SWAP1 PUSH2 0x4FF2 JUMP JUMPDEST PUSH2 0x3785 JUMP JUMPDEST STOP JUMPDEST PUSH1 0x0 DUP1 PUSH1 0x5 PUSH1 0x0 DUP5 PUSH20 0xFFFFFFFFFFFFFFFFFFFFFFFFFFFFFFFFFFFFFFFF AND PUSH20 0xFFFFFFFFFFFFFFFFFFFFFFFFFFFFFFFFFFFFFFFF AND DUP2 MSTORE PUSH1 0x20 ADD SWAP1 DUP2 MSTORE PUSH1 0x20 ADD PUSH1 0x0 KECCAK256 SWAP1 POP PUSH1 0x0 PUSH2 0x9A7 PUSH2 0x38B8 JUMP JUMPDEST SWAP1 POP PUSH1 0x0 PUSH10 0xD3C21BCECCEDA1000000 DUP3 DUP5 PUSH1 0x1 ADD SLOAD PUSH2 0x9C6 SWAP2 SWAP1 PUSH2 0x5074 JUMP JUMPDEST PUSH2 0x9D0 SWAP2 SWAP1 PUSH2 0x50E5 JUMP JUMPDEST SWAP1 POP DUP3 PUSH1 0x2 ADD SLOAD DUP2 DUP5 PUSH1 0x3 ADD SLOAD PUSH2 0x9E7 SWAP2 SWAP1 PUSH2 0x5116 JUMP JUMPDEST PUSH2 0x9F1 SWAP2 SWAP1 PUSH2 0x514A JUMP JUMPDEST SWAP4 POP POP POP POP SWAP2 SWAP1 POP JUMP JUMPDEST PUSH1 0x0 DUP1 PUSH1 0x0 DUP1 PUSH1 0x0 PUSH1 0x5 PUSH1 0x0 DUP9 PUSH20 0xFFFFFFFFFFFFFFFFFFFFFFFFFFFFFFFFFFFFFFFF AND PUSH20 0xFFFFFFFFFFFFFFFFFFFFFFFFFFFFFFFFFFFFFFFF AND DUP2 MSTORE PUSH1 0x20 ADD SWAP1 DUP2 MSTORE PUSH1 0x20 ADD PUSH1 0x0 KECCAK256 SWAP1 POP DUP1 PUSH1 0x0 ADD SLOAD DUP7 GT ISZERO PUSH2 0xA8B JUMPI PUSH1 0x40 MLOAD PUSH32 0x8C379A000000000000000000000000000000000000000000000000000000000 DUP2 MSTORE PUSH1 0x4 ADD PUSH2 0xA82 SWAP1 PUSH2 0x51DB JUMP JUMPDEST PUSH1 0x40 MLOAD DUP1 SWAP2 SUB SWAP1 REVERT JUMPDEST PUSH2 0xA98 DUP2 PUSH1 0x4 ADD SLOAD PUSH2 0x394A JUMP JUMPDEST PUSH2 0xAB0 JUMPI PUSH1 0x0 DUP1 PUSH1 0x0 DUP9 SWAP5 POP SWAP5 POP SWAP5 POP SWAP5 POP POP PUSH2 0xB06 JUMP JUMPDEST PUSH2 0x2710 PUSH2 0x5DC DUP8 PUSH2 0xAC1 SWAP2 SWAP1 PUSH2 0x5074 JUMP JUMPDEST PUSH2 0xACB SWAP2 SWAP1 PUSH2 0x50E5 JUMP JUMPDEST SWAP5 POP PUSH1 0x3 PUSH1 0x2 DUP7 PUSH2 0xADC SWAP2 SWAP1 PUSH2 0x5074 JUMP JUMPDEST PUSH2 0xAE6 SWAP2 SWAP1 PUSH2 0x50E5 JUMP JUMPDEST SWAP4 POP DUP4 DUP6 PUSH2 0xAF4 SWAP2 SWAP1 PUSH2 0x514A JUMP JUMPDEST SWAP3 POP DUP5 DUP7 PUSH2 0xB02 SWAP2 SWAP1 PUSH2 0x514A JUMP JUMPDEST SWAP2 POP POP JUMPDEST SWAP3 SWAP6 SWAP2 SWAP5 POP SWAP3 POP JUMP JUMPDEST PUSH1 0xC SLOAD DUP2 JUMP JUMPDEST PUSH1 0x10 SLOAD DUP2 JUMP JUMPDEST PUSH2 0xB23 PUSH2 0x3970 JUMP JUMPDEST PUSH32 0x0 PUSH20 0xFFFFFFFFFFFFFFFFFFFFFFFFFFFFFFFFFFFFFFFF AND DUP4 PUSH20 0xFFFFFFFFFFFFFFFFFFFFFFFFFFFFFFFFFFFFFFFF AND SUB PUSH2 0xBB1 JUMPI PUSH1 0x40 MLOAD PUSH32 0x8C379A000000000000000000000000000000000000000000000000000000000 DUP2 MSTORE PUSH1 0x4 ADD PUSH2 0xBA8 SWAP1 PUSH2 0x5247 JUMP JUMPDEST PUSH1 0x40 MLOAD DUP1 SWAP2 SUB SWAP1 REVERT JUMPDEST PUSH1 0x0 PUSH20 0xFFFFFFFFFFFFFFFFFFFFFFFFFFFFFFFFFFFFFFFF AND DUP3 PUSH20 0xFFFFFFFFFFFFFFFFFFFFFFFFFFFFFFFFFFFFFFFF AND SUB PUSH2 0xC20 JUMPI PUSH1 0x40 MLOAD PUSH32 0x8C379A000000000000000000000000000000000000000000000000000000000 DUP2 MSTORE PUSH1 0x4 ADD PUSH2 0xC17 SWAP1 PUSH2 0x52B3 JUMP JUMPDEST PUSH1 0x40 MLOAD DUP1 SWAP2 SUB SWAP1 REVERT JUMPDEST PUSH2 0xC4B DUP3 DUP3 DUP6 PUSH20 0xFFFFFFFFFFFFFFFFFFFFFFFFFFFFFFFFFFFFFFFF AND PUSH2 0x39F7 SWAP1 SWAP3 SWAP2 SWAP1 PUSH4 0xFFFFFFFF AND JUMP JUMPDEST POP POP POP JUMP JUMPDEST PUSH1 0x0 PUSH4 0x150B7A02 PUSH1 0xE0 SHL SWAP1 POP SWAP6 SWAP5 POP POP POP POP POP JUMP JUMPDEST PUSH2 0xC6D PUSH2 0x3970 JUMP JUMPDEST PUSH2 0xC75 PUSH2 0x3A76 JUMP JUMPDEST PUSH1 0x0 PUSH2 0xC7F PUSH2 0x38B8 JUMP JUMPDEST PUSH1 0x9 DUP2 SWAP1 SSTORE POP PUSH2 0xC8D PUSH2 0x1115 JUMP JUMPDEST PUSH1 0xA DUP2 SWAP1 SSTORE POP PUSH1 0x0 PUSH20 0xFFFFFFFFFFFFFFFFFFFFFFFFFFFFFFFFFFFFFFFF AND DUP2 PUSH20 0xFFFFFFFFFFFFFFFFFFFFFFFFFFFFFFFFFFFFFFFF AND EQ PUSH2 0xD91 JUMPI PUSH1 0x0 PUSH1 0x5 PUSH1 0x0 DUP4 PUSH20 0xFFFFFFFFFFFFFFFFFFFFFFFFFFFFFFFFFFFFFFFF AND PUSH20 0xFFFFFFFFFFFFFFFFFFFFFFFFFFFFFFFFFFFFFFFF AND DUP2 MSTORE PUSH1 0x20 ADD SWAP1 DUP2 MSTORE PUSH1 0x20 ADD PUSH1 0x0 KECCAK256 SWAP1 POP PUSH1 0x0 PUSH10 0xD3C21BCECCEDA1000000 PUSH1 0x9 SLOAD DUP4 PUSH1 0x1 ADD SLOAD PUSH2 0xD29 SWAP2 SWAP1 PUSH2 0x5074 JUMP JUMPDEST PUSH2 0xD33 SWAP2 SWAP1 PUSH2 0x50E5 JUMP JUMPDEST SWAP1 POP DUP2 PUSH1 0x2 ADD SLOAD DUP2 PUSH2 0xD45 SWAP2 SWAP1 PUSH2 0x514A JUMP JUMPDEST DUP3 PUSH1 0x3 ADD PUSH1 0x0 DUP3 DUP3 SLOAD PUSH2 0xD58 SWAP2 SWAP1 PUSH2 0x5116 JUMP JUMPDEST SWAP3 POP POP DUP2 SWAP1 SSTORE POP PUSH10 0xD3C21BCECCEDA1000000 PUSH1 0x9 SLOAD DUP4 PUSH1 0x1 ADD SLOAD PUSH2 0xD7C SWAP2 SWAP1 PUSH2 0x5074 JUMP JUMPDEST PUSH2 0xD86 SWAP2 SWAP1 PUSH2 0x50E5 JUMP JUMPDEST DUP3 PUSH1 0x2 ADD DUP2 SWAP1 SSTORE POP POP POP JUMPDEST PUSH1 0x0 DUP4 GT DUP1 PUSH2 0xDA2 JUMPI POP PUSH1 0x0 PUSH1 0xD SLOAD GT JUMPDEST PUSH2 0xDE1 JUMPI PUSH1 0x40 MLOAD PUSH32 0x8C379A000000000000000000000000000000000000000000000000000000000 DUP2 MSTORE PUSH1 0x4 ADD PUSH2 0xDD8 SWAP1 PUSH2 0x531F JUMP JUMPDEST PUSH1 0x40 MLOAD DUP1 SWAP2 SUB SWAP1 REVERT JUMPDEST PUSH1 0x0 DUP3 GT PUSH2 0xE24 JUMPI PUSH1 0x40 MLOAD PUSH32 0x8C379A000000000000000000000000000000000000000000000000000000000 DUP2 MSTORE PUSH1 0x4 ADD PUSH2 0xE1B SWAP1 PUSH2 0x538B JUMP JUMPDEST PUSH1 0x40 MLOAD DUP1 SWAP2 SUB SWAP1 REVERT JUMPDEST PUSH1 0x0 DUP4 GT ISZERO PUSH2 0xE94 JUMPI PUSH2 0xE7A CALLER ADDRESS DUP6 PUSH32 0x0 PUSH20 0xFFFFFFFFFFFFFFFFFFFFFFFFFFFFFFFFFFFFFFFF AND PUSH2 0x3ABC SWAP1 SWAP4 SWAP3 SWAP2 SWAP1 PUSH4 0xFFFFFFFF AND JUMP JUMPDEST DUP3 PUSH1 0xE PUSH1 0x0 DUP3 DUP3 SLOAD PUSH2 0xE8C SWAP2 SWAP1 PUSH2 0x5116 JUMP JUMPDEST SWAP3 POP POP DUP2 SWAP1 SSTORE POP JUMPDEST PUSH1 0x0 PUSH1 0xC SLOAD NUMBER LT ISZERO PUSH2 0xEBE JUMPI PUSH1 0xB SLOAD NUMBER PUSH1 0xC SLOAD PUSH2 0xEB1 SWAP2 SWAP1 PUSH2 0x514A JUMP JUMPDEST PUSH2 0xEBB SWAP2 SWAP1 PUSH2 0x5074 JUMP JUMPDEST SWAP1 POP JUMPDEST PUSH1 0x0 PUSH1 0xD SLOAD SWAP1 POP PUSH1 0x0 DUP3 DUP3 DUP8 PUSH2 0xED4 SWAP2 SWAP1 PUSH2 0x5116 JUMP JUMPDEST PUSH2 0xEDE SWAP2 SWAP1 PUSH2 0x5116 JUMP JUMPDEST SWAP1 POP PUSH1 0x0 DUP2 GT PUSH2 0xF23 JUMPI PUSH1 0x40 MLOAD PUSH32 0x8C379A000000000000000000000000000000000000000000000000000000000 DUP2 MSTORE PUSH1 0x4 ADD PUSH2 0xF1A SWAP1 PUSH2 0x53F7 JUMP JUMPDEST PUSH1 0x40 MLOAD DUP1 SWAP2 SUB SWAP1 REVERT JUMPDEST DUP5 DUP2 PUSH2 0xF2F SWAP2 SWAP1 PUSH2 0x50E5 JUMP JUMPDEST PUSH1 0xB DUP2 SWAP1 SSTORE POP PUSH1 0x0 PUSH1 0xB SLOAD GT PUSH2 0xF7A JUMPI PUSH1 0x40 MLOAD PUSH32 0x8C379A000000000000000000000000000000000000000000000000000000000 DUP2 MSTORE PUSH1 0x4 ADD PUSH2 0xF71 SWAP1 PUSH2 0x5463 JUMP JUMPDEST PUSH1 0x40 MLOAD DUP1 SWAP2 SUB SWAP1 REVERT JUMPDEST PUSH1 0x0 PUSH1 0xD DUP2 SWAP1 SSTORE POP NUMBER PUSH1 0xA DUP2 SWAP1 SSTORE POP DUP5 NUMBER PUSH2 0xF95 SWAP2 SWAP1 PUSH2 0x5116 JUMP JUMPDEST PUSH1 0xC DUP2 SWAP1 SSTORE POP CALLER PUSH20 0xFFFFFFFFFFFFFFFFFFFFFFFFFFFFFFFFFFFFFFFF AND PUSH32 0x6BED4A021812B8A263610260560FF7C218C042029458224275FE81C573F4CC03 DUP8 DUP5 DUP9 PUSH1 0xB SLOAD PUSH1 0xC SLOAD PUSH1 0x40 MLOAD PUSH2 0xFED SWAP6 SWAP5 SWAP4 SWAP3 SWAP2 SWAP1 PUSH2 0x5483 JUMP JUMPDEST PUSH1 0x40 MLOAD DUP1 SWAP2 SUB SWAP1 LOG2 POP POP POP POP PUSH2 0x1001 PUSH2 0x3B3E JUMP JUMPDEST POP POP JUMP JUMPDEST PUSH1 0x4 DUP2 JUMP JUMPDEST PUSH10 0x21E19E0C9BAB2400000 DUP2 JUMP JUMPDEST PUSH1 0x3 PUSH1 0x20 MSTORE DUP2 PUSH1 0x0 MSTORE PUSH1 0x40 PUSH1 0x0 KECCAK256 PUSH1 0x20 MSTORE DUP1 PUSH1 0x0 MSTORE PUSH1 0x40 PUSH1 0x0 KECCAK256 PUSH1 0x0 SWAP2 POP SWAP2 POP SWAP1 SLOAD SWAP1 PUSH2 0x100 EXP SWAP1 DIV PUSH1 0xFF AND DUP2 JUMP JUMPDEST PUSH2 0x104F PUSH2 0x3970 JUMP JUMPDEST PUSH1 0x0 DUP4 DUP4 PUSH1 0x40 MLOAD PUSH2 0x1061 SWAP3 SWAP2 SWAP1 PUSH2 0x5515 JUMP JUMPDEST PUSH1 0x40 MLOAD DUP1 SWAP2 SUB SWAP1 KECCAK256 SWAP1 POP DUP2 PUSH1 0x4 PUSH1 0x0 DUP4 DUP2 MSTORE PUSH1 0x20 ADD SWAP1 DUP2 MSTORE PUSH1 0x20 ADD PUSH1 0x0 KECCAK256 PUSH1 0x0 PUSH2 0x100 EXP DUP2 SLOAD DUP2 PUSH1 0xFF MUL NOT AND SWAP1 DUP4 ISZERO ISZERO MUL OR SWAP1 SSTORE POP PUSH32 0x36363B339B00ADCC7A4533E32D4CC7CA00EE5FC3569C6925927302FF1DC5E9A5 DUP5 DUP5 DUP5 PUSH1 0x40 MLOAD PUSH2 0x10C9 SWAP4 SWAP3 SWAP2 SWAP1 PUSH2 0x556C JUMP JUMPDEST PUSH1 0x40 MLOAD DUP1 SWAP2 SUB SWAP1 LOG1 POP POP POP POP JUMP JUMPDEST PUSH1 0x2 PUSH1 0x20 MSTORE DUP1 PUSH1 0x0 MSTORE PUSH1 0x40 PUSH1 0x0 KECCAK256 PUSH1 0x0 SWAP2 POP SWAP1 POP DUP1 PUSH1 0x0 ADD PUSH1 0x0 SWAP1 SLOAD SWAP1 PUSH2 0x100 EXP SWAP1 DIV PUSH1 0xFF AND SWAP1 DUP1 PUSH1 0x0 ADD PUSH1 0x1 SWAP1 SLOAD SWAP1 PUSH2 0x100 EXP SWAP1 DIV PUSH1 0xFF AND SWAP1 POP DUP3 JUMP JUMPDEST PUSH1 0x0 PUSH1 0xC SLOAD NUMBER LT PUSH2 0x1128 JUMPI PUSH1 0xC SLOAD PUSH2 0x112A JUMP JUMPDEST NUMBER JUMPDEST SWAP1 POP SWAP1 JUMP JUMPDEST PUSH2 0x1137 PUSH2 0x3A76 JUMP JUMPDEST CALLER PUSH2 0x1140 PUSH2 0x38B8 JUMP JUMPDEST PUSH1 0x9 DUP2 SWAP1 SSTORE POP PUSH2 0x114E PUSH2 0x1115 JUMP JUMPDEST PUSH1 0xA DUP2 SWAP1 SSTORE POP PUSH1 0x0 PUSH20 0xFFFFFFFFFFFFFFFFFFFFFFFFFFFFFFFFFFFFFFFF AND DUP2 PUSH20 0xFFFFFFFFFFFFFFFFFFFFFFFFFFFFFFFFFFFFFFFF AND EQ PUSH2 0x1252 JUMPI PUSH1 0x0 PUSH1 0x5 PUSH1 0x0 DUP4 PUSH20 0xFFFFFFFFFFFFFFFFFFFFFFFFFFFFFFFFFFFFFFFF AND PUSH20 0xFFFFFFFFFFFFFFFFFFFFFFFFFFFFFFFFFFFFFFFF AND DUP2 MSTORE PUSH1 0x20 ADD SWAP1 DUP2 MSTORE PUSH1 0x20 ADD PUSH1 0x0 KECCAK256 SWAP1 POP PUSH1 0x0 PUSH10 0xD3C21BCECCEDA1000000 PUSH1 0x9 SLOAD DUP4 PUSH1 0x1 ADD SLOAD PUSH2 0x11EA SWAP2 SWAP1 PUSH2 0x5074 JUMP JUMPDEST PUSH2 0x11F4 SWAP2 SWAP1 PUSH2 0x50E5 JUMP JUMPDEST SWAP1 POP DUP2 PUSH1 0x2 ADD SLOAD DUP2 PUSH2 0x1206 SWAP2 SWAP1 PUSH2 0x514A JUMP JUMPDEST DUP3 PUSH1 0x3 ADD PUSH1 0x0 DUP3 DUP3 SLOAD PUSH2 0x1219 SWAP2 SWAP1 PUSH2 0x5116 JUMP JUMPDEST SWAP3 POP POP DUP2 SWAP1 SSTORE POP PUSH10 0xD3C21BCECCEDA1000000 PUSH1 0x9 SLOAD DUP4 PUSH1 0x1 ADD SLOAD PUSH2 0x123D SWAP2 SWAP1 PUSH2 0x5074 JUMP JUMPDEST PUSH2 0x1247 SWAP2 SWAP1 PUSH2 0x50E5 JUMP JUMPDEST DUP3 PUSH1 0x2 ADD DUP2 SWAP1 SSTORE POP POP POP JUMPDEST PUSH2 0x125B CALLER PUSH2 0x3B47 JUMP JUMPDEST POP PUSH2 0x1264 PUSH2 0x3B3E JUMP JUMPDEST JUMP JUMPDEST PUSH2 0x126E PUSH2 0x3A76 JUMP JUMPDEST CALLER PUSH2 0x1277 PUSH2 0x38B8 JUMP JUMPDEST PUSH1 0x9 DUP2 SWAP1 SSTORE POP PUSH2 0x1285 PUSH2 0x1115 JUMP JUMPDEST PUSH1 0xA DUP2 SWAP1 SSTORE POP PUSH1 0x0 PUSH20 0xFFFFFFFFFFFFFFFFFFFFFFFFFFFFFFFFFFFFFFFF AND DUP2 PUSH20 0xFFFFFFFFFFFFFFFFFFFFFFFFFFFFFFFFFFFFFFFF AND EQ PUSH2 0x1389 JUMPI PUSH1 0x0 PUSH1 0x5 PUSH1 0x0 DUP4 PUSH20 0xFFFFFFFFFFFFFFFFFFFFFFFFFFFFFFFFFFFFFFFF AND PUSH20 0xFFFFFFFFFFFFFFFFFFFFFFFFFFFFFFFFFFFFFFFF AND DUP2 MSTORE PUSH1 0x20 ADD SWAP1 DUP2 MSTORE PUSH1 0x20 ADD PUSH1 0x0 KECCAK256 SWAP1 POP PUSH1 0x0 PUSH10 0xD3C21BCECCEDA1000000 PUSH1 0x9 SLOAD DUP4 PUSH1 0x1 ADD SLOAD PUSH2 0x1321 SWAP2 SWAP1 PUSH2 0x5074 JUMP JUMPDEST PUSH2 0x132B SWAP2 SWAP1 PUSH2 0x50E5 JUMP JUMPDEST SWAP1 POP DUP2 PUSH1 0x2 ADD SLOAD DUP2 PUSH2 0x133D SWAP2 SWAP1 PUSH2 0x514A JUMP JUMPDEST DUP3 PUSH1 0x3 ADD PUSH1 0x0 DUP3 DUP3 SLOAD PUSH2 0x1350 SWAP2 SWAP1 PUSH2 0x5116 JUMP JUMPDEST SWAP3 POP POP DUP2 SWAP1 SSTORE POP PUSH10 0xD3C21BCECCEDA1000000 PUSH1 0x9 SLOAD DUP4 PUSH1 0x1 ADD SLOAD PUSH2 0x1374 SWAP2 SWAP1 PUSH2 0x5074 JUMP JUMPDEST PUSH2 0x137E SWAP2 SWAP1 PUSH2 0x50E5 JUMP JUMPDEST DUP3 PUSH1 0x2 ADD DUP2 SWAP1 SSTORE POP POP POP JUMPDEST PUSH1 0x0 DUP3 GT PUSH2 0x13CC JUMPI PUSH1 0x40 MLOAD PUSH32 0x8C379A000000000000000000000000000000000000000000000000000000000 DUP2 MSTORE PUSH1 0x4 ADD PUSH2 0x13C3 SWAP1 PUSH2 0x55EA JUMP JUMPDEST PUSH1 0x40 MLOAD DUP1 SWAP2 SUB SWAP1 REVERT JUMPDEST PUSH1 0x0 PUSH1 0x5 PUSH1 0x0 CALLER PUSH20 0xFFFFFFFFFFFFFFFFFFFFFFFFFFFFFFFFFFFFFFFF AND PUSH20 0xFFFFFFFFFFFFFFFFFFFFFFFFFFFFFFFFFFFFFFFF AND DUP2 MSTORE PUSH1 0x20 ADD SWAP1 DUP2 MSTORE PUSH1 0x20 ADD PUSH1 0x0 KECCAK256 SWAP1 POP PUSH1 0x1 DUP2 PUSH1 0x5 ADD DUP1 SLOAD SWAP1 POP LT ISZERO PUSH2 0x145A JUMPI PUSH1 0x40 MLOAD PUSH32 0x8C379A000000000000000000000000000000000000000000000000000000000 DUP2 MSTORE PUSH1 0x4 ADD PUSH2 0x1451 SWAP1 PUSH2 0x5656 JUMP JUMPDEST PUSH1 0x40 MLOAD DUP1 SWAP2 SUB SWAP1 REVERT JUMPDEST PUSH10 0x21E19E0C9BAB2400000 DUP4 DUP3 PUSH1 0x0 ADD SLOAD PUSH2 0x1475 SWAP2 SWAP1 PUSH2 0x5116 JUMP JUMPDEST GT ISZERO PUSH2 0x14B6 JUMPI PUSH1 0x40 MLOAD PUSH32 0x8C379A000000000000000000000000000000000000000000000000000000000 DUP2 MSTORE PUSH1 0x4 ADD PUSH2 0x14AD SWAP1 PUSH2 0x56C2 JUMP JUMPDEST PUSH1 0x40 MLOAD DUP1 SWAP2 SUB SWAP1 REVERT JUMPDEST TIMESTAMP DUP2 PUSH1 0x4 ADD DUP2 SWAP1 SSTORE POP DUP3 DUP2 PUSH1 0x0 ADD PUSH1 0x0 DUP3 DUP3 SLOAD PUSH2 0x14D3 SWAP2 SWAP1 PUSH2 0x5116 JUMP JUMPDEST SWAP3 POP POP DUP2 SWAP1 SSTORE POP DUP3 PUSH1 0x7 PUSH1 0x0 DUP3 DUP3 SLOAD PUSH2 0x14EC SWAP2 SWAP1 PUSH2 0x5116 JUMP JUMPDEST SWAP3 POP POP DUP2 SWAP1 SSTORE POP PUSH2 0x1540 CALLER ADDRESS DUP6 PUSH32 0x0 PUSH20 0xFFFFFFFFFFFFFFFFFFFFFFFFFFFFFFFFFFFFFFFF AND PUSH2 0x3ABC SWAP1 SWAP4 SWAP3 SWAP2 SWAP1 PUSH4 0xFFFFFFFF AND JUMP JUMPDEST PUSH2 0x1549 CALLER PUSH2 0x3D11 JUMP JUMPDEST CALLER PUSH20 0xFFFFFFFFFFFFFFFFFFFFFFFFFFFFFFFFFFFFFFFF AND PUSH32 0xAB4795C0DFE38375B777FBE077BD9C6877C2DDAF9E3ACFB83D5E5277A40322ED DUP5 PUSH1 0x40 MLOAD PUSH2 0x158F SWAP2 SWAP1 PUSH2 0x4695 JUMP JUMPDEST PUSH1 0x40 MLOAD DUP1 SWAP2 SUB SWAP1 LOG2 POP POP PUSH2 0x15A1 PUSH2 0x3B3E JUMP JUMPDEST POP JUMP JUMPDEST PUSH1 0x60 PUSH1 0x5 PUSH1 0x0 DUP4 PUSH20 0xFFFFFFFFFFFFFFFFFFFFFFFFFFFFFFFFFFFFFFFF AND PUSH20 0xFFFFFFFFFFFFFFFFFFFFFFFFFFFFFFFFFFFFFFFF AND DUP2 MSTORE PUSH1 0x20 ADD SWAP1 DUP2 MSTORE PUSH1 0x20 ADD PUSH1 0x0 KECCAK256 PUSH1 0x5 ADD DUP1 SLOAD DUP1 PUSH1 0x20 MUL PUSH1 0x20 ADD PUSH1 0x40 MLOAD SWAP1 DUP2 ADD PUSH1 0x40 MSTORE DUP1 SWAP3 SWAP2 SWAP1 DUP2 DUP2 MSTORE PUSH1 0x20 ADD PUSH1 0x0 SWAP1 JUMPDEST DUP3 DUP3 LT ISZERO PUSH2 0x169A JUMPI DUP4 DUP3 SWAP1 PUSH1 0x0 MSTORE PUSH1 0x20 PUSH1 0x0 KECCAK256 SWAP1 PUSH1 0x2 MUL ADD PUSH1 0x40 MLOAD DUP1 PUSH1 0x40 ADD PUSH1 0x40 MSTORE SWAP1 DUP2 PUSH1 0x0 DUP3 ADD PUSH1 0x0 SWAP1 SLOAD SWAP1 PUSH2 0x100 EXP SWAP1 DIV PUSH20 0xFFFFFFFFFFFFFFFFFFFFFFFFFFFFFFFFFFFFFFFF AND PUSH20 0xFFFFFFFFFFFFFFFFFFFFFFFFFFFFFFFFFFFFFFFF AND PUSH20 0xFFFFFFFFFFFFFFFFFFFFFFFFFFFFFFFFFFFFFFFF AND DUP2 MSTORE PUSH1 0x20 ADD PUSH1 0x1 DUP3 ADD SLOAD DUP2 MSTORE POP POP DUP2 MSTORE PUSH1 0x20 ADD SWAP1 PUSH1 0x1 ADD SWAP1 PUSH2 0x1608 JUMP JUMPDEST POP POP POP POP SWAP1 POP SWAP2 SWAP1 POP JUMP JUMPDEST PUSH3 0x603D80 DUP2 JUMP JUMPDEST PUSH1 0xE SLOAD DUP2 JUMP JUMPDEST PUSH3 0x4F1A00 DUP2 JUMP JUMPDEST PUSH1 0x0 PUSH1 0xC SLOAD NUMBER LT PUSH2 0x16CD JUMPI PUSH1 0x0 SWAP1 POP PUSH2 0x16EA JUMP JUMPDEST PUSH1 0x5 NUMBER PUSH1 0xC SLOAD PUSH2 0x16DD SWAP2 SWAP1 PUSH2 0x514A JUMP JUMPDEST PUSH2 0x16E7 SWAP2 SWAP1 PUSH2 0x5074 JUMP JUMPDEST SWAP1 POP JUMPDEST SWAP1 JUMP JUMPDEST PUSH2 0x16F5 PUSH2 0x3A76 JUMP JUMPDEST CALLER PUSH2 0x16FE PUSH2 0x38B8 JUMP JUMPDEST PUSH1 0x9 DUP2 SWAP1 SSTORE POP PUSH2 0x170C PUSH2 0x1115 JUMP JUMPDEST PUSH1 0xA DUP2 SWAP1 SSTORE POP PUSH1 0x0 PUSH20 0xFFFFFFFFFFFFFFFFFFFFFFFFFFFFFFFFFFFFFFFF AND DUP2 PUSH20 0xFFFFFFFFFFFFFFFFFFFFFFFFFFFFFFFFFFFFFFFF AND EQ PUSH2 0x1810 JUMPI PUSH1 0x0 PUSH1 0x5 PUSH1 0x0 DUP4 PUSH20 0xFFFFFFFFFFFFFFFFFFFFFFFFFFFFFFFFFFFFFFFF AND PUSH20 0xFFFFFFFFFFFFFFFFFFFFFFFFFFFFFFFFFFFFFFFF AND DUP2 MSTORE PUSH1 0x20 ADD SWAP1 DUP2 MSTORE PUSH1 0x20 ADD PUSH1 0x0 KECCAK256 SWAP1 POP PUSH1 0x0 PUSH10 0xD3C21BCECCEDA1000000 PUSH1 0x9 SLOAD DUP4 PUSH1 0x1 ADD SLOAD PUSH2 0x17A8 SWAP2 SWAP1 PUSH2 0x5074 JUMP JUMPDEST PUSH2 0x17B2 SWAP2 SWAP1 PUSH2 0x50E5 JUMP JUMPDEST SWAP1 POP DUP2 PUSH1 0x2 ADD SLOAD DUP2 PUSH2 0x17C4 SWAP2 SWAP1 PUSH2 0x514A JUMP JUMPDEST DUP3 PUSH1 0x3 ADD PUSH1 0x0 DUP3 DUP3 SLOAD PUSH2 0x17D7 SWAP2 SWAP1 PUSH2 0x5116 JUMP JUMPDEST SWAP3 POP POP DUP2 SWAP1 SSTORE POP PUSH10 0xD3C21BCECCEDA1000000 PUSH1 0x9 SLOAD DUP4 PUSH1 0x1 ADD SLOAD PUSH2 0x17FB SWAP2 SWAP1 PUSH2 0x5074 JUMP JUMPDEST PUSH2 0x1805 SWAP2 SWAP1 PUSH2 0x50E5 JUMP JUMPDEST DUP3 PUSH1 0x2 ADD DUP2 SWAP1 SSTORE POP POP POP JUMPDEST PUSH1 0x0 PUSH1 0x5 PUSH1 0x0 CALLER PUSH20 0xFFFFFFFFFFFFFFFFFFFFFFFFFFFFFFFFFFFFFFFF AND PUSH20 0xFFFFFFFFFFFFFFFFFFFFFFFFFFFFFFFFFFFFFFFF AND DUP2 MSTORE PUSH1 0x20 ADD SWAP1 DUP2 MSTORE PUSH1 0x20 ADD PUSH1 0x0 KECCAK256 SWAP1 POP CALLER PUSH20 0xFFFFFFFFFFFFFFFFFFFFFFFFFFFFFFFFFFFFFFFF AND PUSH1 0x6 PUSH1 0x0 DUP7 PUSH20 0xFFFFFFFFFFFFFFFFFFFFFFFFFFFFFFFFFFFFFFFF AND PUSH20 0xFFFFFFFFFFFFFFFFFFFFFFFFFFFFFFFFFFFFFFFF AND DUP2 MSTORE PUSH1 0x20 ADD SWAP1 DUP2 MSTORE PUSH1 0x20 ADD PUSH1 0x0 KECCAK256 PUSH1 0x0 DUP6 DUP2 MSTORE PUSH1 0x20 ADD SWAP1 DUP2 MSTORE PUSH1 0x20 ADD PUSH1 0x0 KECCAK256 PUSH1 0x0 SWAP1 SLOAD SWAP1 PUSH2 0x100 EXP SWAP1 DIV PUSH20 0xFFFFFFFFFFFFFFFFFFFFFFFFFFFFFFFFFFFFFFFF AND PUSH20 0xFFFFFFFFFFFFFFFFFFFFFFFFFFFFFFFFFFFFFFFF AND EQ PUSH2 0x1931 JUMPI PUSH1 0x40 MLOAD PUSH32 0x8C379A000000000000000000000000000000000000000000000000000000000 DUP2 MSTORE PUSH1 0x4 ADD PUSH2 0x1928 SWAP1 PUSH2 0x572E JUMP JUMPDEST PUSH1 0x40 MLOAD DUP1 SWAP2 SUB SWAP1 REVERT JUMPDEST PUSH1 0x0 DUP2 PUSH1 0x0 ADD SLOAD GT ISZERO PUSH2 0x1989 JUMPI PUSH1 0x1 DUP2 PUSH1 0x5 ADD DUP1 SLOAD SWAP1 POP GT PUSH2 0x1988 JUMPI PUSH1 0x40 MLOAD PUSH32 0x8C379A000000000000000000000000000000000000000000000000000000000 DUP2 MSTORE PUSH1 0x4 ADD PUSH2 0x197F SWAP1 PUSH2 0x579A JUMP JUMPDEST PUSH1 0x40 MLOAD DUP1 SWAP2 SUB SWAP1 REVERT JUMPDEST JUMPDEST PUSH2 0x1994 DUP2 DUP6 DUP6 PUSH2 0x3E47 JUMP JUMPDEST PUSH1 0x0 PUSH1 0x6 PUSH1 0x0 DUP7 PUSH20 0xFFFFFFFFFFFFFFFFFFFFFFFFFFFFFFFFFFFFFFFF AND PUSH20 0xFFFFFFFFFFFFFFFFFFFFFFFFFFFFFFFFFFFFFFFF AND DUP2 MSTORE PUSH1 0x20 ADD SWAP1 DUP2 MSTORE PUSH1 0x20 ADD PUSH1 0x0 KECCAK256 PUSH1 0x0 DUP6 DUP2 MSTORE PUSH1 0x20 ADD SWAP1 DUP2 MSTORE PUSH1 0x20 ADD PUSH1 0x0 KECCAK256 PUSH1 0x0 PUSH2 0x100 EXP DUP2 SLOAD DUP2 PUSH20 0xFFFFFFFFFFFFFFFFFFFFFFFFFFFFFFFFFFFFFFFF MUL NOT AND SWAP1 DUP4 PUSH20 0xFFFFFFFFFFFFFFFFFFFFFFFFFFFFFFFFFFFFFFFF AND MUL OR SWAP1 SSTORE POP PUSH2 0x1A2D CALLER PUSH2 0x3D11 JUMP JUMPDEST DUP4 PUSH20 0xFFFFFFFFFFFFFFFFFFFFFFFFFFFFFFFFFFFFFFFF AND PUSH4 0x42842E0E ADDRESS CALLER DUP7 PUSH1 0x40 MLOAD DUP5 PUSH4 0xFFFFFFFF AND PUSH1 0xE0 SHL DUP2 MSTORE PUSH1 0x4 ADD PUSH2 0x1A6A SWAP4 SWAP3 SWAP2 SWAP1 PUSH2 0x57BA JUMP JUMPDEST PUSH1 0x0 PUSH1 0x40 MLOAD DUP1 DUP4 SUB DUP2 PUSH1 0x0 DUP8 DUP1 EXTCODESIZE ISZERO DUP1 ISZERO PUSH2 0x1A84 JUMPI PUSH1 0x0 DUP1 REVERT JUMPDEST POP GAS CALL ISZERO DUP1 ISZERO PUSH2 0x1A98 JUMPI RETURNDATASIZE PUSH1 0x0 DUP1 RETURNDATACOPY RETURNDATASIZE PUSH1 0x0 REVERT JUMPDEST POP POP POP POP DUP3 DUP5 PUSH20 0xFFFFFFFFFFFFFFFFFFFFFFFFFFFFFFFFFFFFFFFF AND CALLER PUSH20 0xFFFFFFFFFFFFFFFFFFFFFFFFFFFFFFFFFFFFFFFF AND PUSH32 0xBBDE41973F9CE4890F7AD9762C23D8191F261FD643BDF13ED8BBC10549B49FCB PUSH1 0x40 MLOAD PUSH1 0x40 MLOAD DUP1 SWAP2 SUB SWAP1 LOG4 POP POP PUSH2 0x1B01 PUSH2 0x3B3E JUMP JUMPDEST POP POP JUMP JUMPDEST PUSH2 0x1B0D PUSH2 0x3970 JUMP JUMPDEST PUSH1 0x0 PUSH20 0xFFFFFFFFFFFFFFFFFFFFFFFFFFFFFFFFFFFFFFFF AND DUP4 PUSH20 0xFFFFFFFFFFFFFFFFFFFFFFFFFFFFFFFFFFFFFFFF AND SUB PUSH2 0x1B7C JUMPI PUSH1 0x40 MLOAD PUSH32 0x8C379A000000000000000000000000000000000000000000000000000000000 DUP2 MSTORE PUSH1 0x4 ADD PUSH2 0x1B73 SWAP1 PUSH2 0x583D JUMP JUMPDEST PUSH1 0x40 MLOAD DUP1 SWAP2 SUB SWAP1 REVERT JUMPDEST PUSH1 0x40 MLOAD DUP1 PUSH1 0x40 ADD PUSH1 0x40 MSTORE DUP1 DUP4 ISZERO ISZERO DUP2 MSTORE PUSH1 0x20 ADD DUP3 PUSH1 0x1 DUP2 GT ISZERO PUSH2 0x1BA2 JUMPI PUSH2 0x1BA1 PUSH2 0x4A4F JUMP JUMPDEST JUMPDEST DUP2 MSTORE POP PUSH1 0x2 PUSH1 0x0 DUP6 PUSH20 0xFFFFFFFFFFFFFFFFFFFFFFFFFFFFFFFFFFFFFFFF AND PUSH20 0xFFFFFFFFFFFFFFFFFFFFFFFFFFFFFFFFFFFFFFFF AND DUP2 MSTORE PUSH1 0x20 ADD SWAP1 DUP2 MSTORE PUSH1 0x20 ADD PUSH1 0x0 KECCAK256 PUSH1 0x0 DUP3 ADD MLOAD DUP2 PUSH1 0x0 ADD PUSH1 0x0 PUSH2 0x100 EXP DUP2 SLOAD DUP2 PUSH1 0xFF MUL NOT AND SWAP1 DUP4 ISZERO ISZERO MUL OR SWAP1 SSTORE POP PUSH1 0x20 DUP3 ADD MLOAD DUP2 PUSH1 0x0 ADD PUSH1 0x1 PUSH2 0x100 EXP DUP2 SLOAD DUP2 PUSH1 0xFF MUL NOT AND SWAP1 DUP4 PUSH1 0x1 DUP2 GT ISZERO PUSH2 0x1C2F JUMPI PUSH2 0x1C2E PUSH2 0x4A4F JUMP JUMPDEST JUMPDEST MUL OR SWAP1 SSTORE POP SWAP1 POP POP DUP3 PUSH20 0xFFFFFFFFFFFFFFFFFFFFFFFFFFFFFFFFFFFFFFFF AND PUSH32 0xC97A41867696F26BE26C3FAD9209E751411C759D0D344DC7EBD1A164FFECACC2 DUP4 DUP4 PUSH1 0x40 MLOAD PUSH2 0x1C7F SWAP3 SWAP2 SWAP1 PUSH2 0x4AC6 JUMP JUMPDEST PUSH1 0x40 MLOAD DUP1 SWAP2 SUB SWAP1 LOG2 POP POP POP JUMP JUMPDEST PUSH1 0xD SLOAD DUP2 JUMP JUMPDEST PUSH1 0x0 DUP1 PUSH1 0x0 DUP1 PUSH1 0x0 DUP1 PUSH1 0x0 PUSH1 0x5 PUSH1 0x0 DUP10 PUSH20 0xFFFFFFFFFFFFFFFFFFFFFFFFFFFFFFFFFFFFFFFF AND PUSH20 0xFFFFFFFFFFFFFFFFFFFFFFFFFFFFFFFFFFFFFFFF AND DUP2 MSTORE PUSH1 0x20 ADD SWAP1 DUP2 MSTORE PUSH1 0x20 ADD PUSH1 0x0 KECCAK256 PUSH1 0x0 ADD SLOAD SWAP7 POP PUSH1 0x5 PUSH1 0x0 DUP10 PUSH20 0xFFFFFFFFFFFFFFFFFFFFFFFFFFFFFFFFFFFFFFFF AND PUSH20 0xFFFFFFFFFFFFFFFFFFFFFFFFFFFFFFFFFFFFFFFF AND DUP2 MSTORE PUSH1 0x20 ADD SWAP1 DUP2 MSTORE PUSH1 0x20 ADD PUSH1 0x0 KECCAK256 PUSH1 0x5 ADD DUP1 SLOAD SWAP1 POP SWAP6 POP PUSH1 0x5 PUSH1 0x0 DUP10 PUSH20 0xFFFFFFFFFFFFFFFFFFFFFFFFFFFFFFFFFFFFFFFF AND PUSH20 0xFFFFFFFFFFFFFFFFFFFFFFFFFFFFFFFFFFFFFFFF AND DUP2 MSTORE PUSH1 0x20 ADD SWAP1 DUP2 MSTORE PUSH1 0x20 ADD PUSH1 0x0 KECCAK256 PUSH1 0x1 ADD SLOAD SWAP5 POP PUSH1 0x5 PUSH1 0x0 DUP10 PUSH20 0xFFFFFFFFFFFFFFFFFFFFFFFFFFFFFFFFFFFFFFFF AND PUSH20 0xFFFFFFFFFFFFFFFFFFFFFFFFFFFFFFFFFFFFFFFF AND DUP2 MSTORE PUSH1 0x20 ADD SWAP1 DUP2 MSTORE PUSH1 0x20 ADD PUSH1 0x0 KECCAK256 PUSH1 0x4 ADD SLOAD SWAP4 POP PUSH2 0x1DBD DUP9 PUSH2 0x959 JUMP JUMPDEST SWAP3 POP PUSH2 0x1DC8 DUP5 PUSH2 0x394A JUMP JUMPDEST SWAP2 POP PUSH2 0x1DD3 DUP7 PUSH2 0x4084 JUMP JUMPDEST SWAP1 POP SWAP2 SWAP4 SWAP6 SWAP8 SWAP1 SWAP3 SWAP5 SWAP7 POP JUMP JUMPDEST PUSH2 0x1DE8 PUSH2 0x3970 JUMP JUMPDEST PUSH2 0x1DF2 PUSH1 0x0 PUSH2 0x40D8 JUMP JUMPDEST JUMP JUMPDEST PUSH1 0xF SLOAD DUP2 JUMP JUMPDEST PUSH1 0x6 PUSH1 0x20 MSTORE DUP2 PUSH1 0x0 MSTORE PUSH1 0x40 PUSH1 0x0 KECCAK256 PUSH1 0x20 MSTORE DUP1 PUSH1 0x0 MSTORE PUSH1 0x40 PUSH1 0x0 KECCAK256 PUSH1 0x0 SWAP2 POP SWAP2 POP SWAP1 SLOAD SWAP1 PUSH2 0x100 EXP SWAP1 DIV PUSH20 0xFFFFFFFFFFFFFFFFFFFFFFFFFFFFFFFFFFFFFFFF AND DUP2 JUMP JUMPDEST PUSH1 0x0 DUP1 PUSH1 0x0 PUSH2 0x1E4A DUP5 PUSH2 0x959 JUMP JUMPDEST SWAP3 POP PUSH2 0x1E97 PUSH1 0x5 PUSH1 0x0 DUP7 PUSH20 0xFFFFFFFFFFFFFFFFFFFFFFFFFFFFFFFFFFFFFFFF AND PUSH20 0xFFFFFFFFFFFFFFFFFFFFFFFFFFFFFFFFFFFFFFFF AND DUP2 MSTORE PUSH1 0x20 ADD SWAP1 DUP2 MSTORE PUSH1 0x20 ADD PUSH1 0x0 KECCAK256 PUSH1 0x4 ADD SLOAD PUSH2 0x394A JUMP JUMPDEST ISZERO PUSH2 0x1EBA JUMPI PUSH2 0x2710 PUSH2 0x1388 DUP5 PUSH2 0x1EAD SWAP2 SWAP1 PUSH2 0x5074 JUMP JUMPDEST PUSH2 0x1EB7 SWAP2 SWAP1 PUSH2 0x50E5 JUMP JUMPDEST SWAP2 POP JUMPDEST DUP2 DUP4 PUSH2 0x1EC6 SWAP2 SWAP1 PUSH2 0x514A JUMP JUMPDEST SWAP1 POP SWAP2 SWAP4 SWAP1 SWAP3 POP JUMP JUMPDEST PUSH1 0x0 PUSH1 0xC SLOAD NUMBER LT PUSH2 0x1EE3 JUMPI PUSH1 0x0 SWAP1 POP PUSH2 0x1F01 JUMP JUMPDEST PUSH1 0xB SLOAD NUMBER PUSH1 0xC SLOAD PUSH2 0x1EF4 SWAP2 SWAP1 PUSH2 0x514A JUMP JUMPDEST PUSH2 0x1EFE SWAP2 SWAP1 PUSH2 0x5074 JUMP JUMPDEST SWAP1 POP JUMPDEST SWAP1 JUMP JUMPDEST PUSH1 0xB SLOAD DUP2 JUMP JUMPDEST PUSH1 0x0 DUP1 PUSH1 0x0 SWAP1 SLOAD SWAP1 PUSH2 0x100 EXP SWAP1 DIV PUSH20 0xFFFFFFFFFFFFFFFFFFFFFFFFFFFFFFFFFFFFFFFF AND SWAP1 POP SWAP1 JUMP JUMPDEST PUSH2 0x1F3B PUSH2 0x3A76 JUMP JUMPDEST CALLER PUSH2 0x1F44 PUSH2 0x38B8 JUMP JUMPDEST PUSH1 0x9 DUP2 SWAP1 SSTORE POP PUSH2 0x1F52 PUSH2 0x1115 JUMP JUMPDEST PUSH1 0xA DUP2 SWAP1 SSTORE POP PUSH1 0x0 PUSH20 0xFFFFFFFFFFFFFFFFFFFFFFFFFFFFFFFFFFFFFFFF AND DUP2 PUSH20 0xFFFFFFFFFFFFFFFFFFFFFFFFFFFFFFFFFFFFFFFF AND EQ PUSH2 0x2056 JUMPI PUSH1 0x0 PUSH1 0x5 PUSH1 0x0 DUP4 PUSH20 0xFFFFFFFFFFFFFFFFFFFFFFFFFFFFFFFFFFFFFFFF AND PUSH20 0xFFFFFFFFFFFFFFFFFFFFFFFFFFFFFFFFFFFFFFFF AND DUP2 MSTORE PUSH1 0x20 ADD SWAP1 DUP2 MSTORE PUSH1 0x20 ADD PUSH1 0x0 KECCAK256 SWAP1 POP PUSH1 0x0 PUSH10 0xD3C21BCECCEDA1000000 PUSH1 0x9 SLOAD DUP4 PUSH1 0x1 ADD SLOAD PUSH2 0x1FEE SWAP2 SWAP1 PUSH2 0x5074 JUMP JUMPDEST PUSH2 0x1FF8 SWAP2 SWAP1 PUSH2 0x50E5 JUMP JUMPDEST SWAP1 POP DUP2 PUSH1 0x2 ADD SLOAD DUP2 PUSH2 0x200A SWAP2 SWAP1 PUSH2 0x514A JUMP JUMPDEST DUP3 PUSH1 0x3 ADD PUSH1 0x0 DUP3 DUP3 SLOAD PUSH2 0x201D SWAP2 SWAP1 PUSH2 0x5116 JUMP JUMPDEST SWAP3 POP POP DUP2 SWAP1 SSTORE POP PUSH10 0xD3C21BCECCEDA1000000 PUSH1 0x9 SLOAD DUP4 PUSH1 0x1 ADD SLOAD PUSH2 0x2041 SWAP2 SWAP1 PUSH2 0x5074 JUMP JUMPDEST PUSH2 0x204B SWAP2 SWAP1 PUSH2 0x50E5 JUMP JUMPDEST DUP3 PUSH1 0x2 ADD DUP2 SWAP1 SSTORE POP POP POP JUMPDEST PUSH1 0x0 PUSH1 0x5 PUSH1 0x0 CALLER PUSH20 0xFFFFFFFFFFFFFFFFFFFFFFFFFFFFFFFFFFFFFFFF AND PUSH20 0xFFFFFFFFFFFFFFFFFFFFFFFFFFFFFFFFFFFFFFFF AND DUP2 MSTORE PUSH1 0x20 ADD SWAP1 DUP2 MSTORE PUSH1 0x20 ADD PUSH1 0x0 KECCAK256 SWAP1 POP PUSH1 0x0 DUP4 GT PUSH2 0x20DC JUMPI PUSH1 0x40 MLOAD PUSH32 0x8C379A000000000000000000000000000000000000000000000000000000000 DUP2 MSTORE PUSH1 0x4 ADD PUSH2 0x20D3 SWAP1 PUSH2 0x55EA JUMP JUMPDEST PUSH1 0x40 MLOAD DUP1 SWAP2 SUB SWAP1 REVERT JUMPDEST DUP1 PUSH1 0x0 ADD SLOAD DUP4 GT ISZERO PUSH2 0x2123 JUMPI PUSH1 0x40 MLOAD PUSH32 0x8C379A000000000000000000000000000000000000000000000000000000000 DUP2 MSTORE PUSH1 0x4 ADD PUSH2 0x211A SWAP1 PUSH2 0x51DB JUMP JUMPDEST PUSH1 0x40 MLOAD DUP1 SWAP2 SUB SWAP1 REVERT JUMPDEST PUSH1 0x1 DUP2 PUSH1 0x5 ADD DUP1 SLOAD SWAP1 POP LT ISZERO PUSH2 0x216E JUMPI PUSH1 0x40 MLOAD PUSH32 0x8C379A000000000000000000000000000000000000000000000000000000000 DUP2 MSTORE PUSH1 0x4 ADD PUSH2 0x2165 SWAP1 PUSH2 0x5656 JUMP JUMPDEST PUSH1 0x40 MLOAD DUP1 SWAP2 SUB SWAP1 REVERT JUMPDEST PUSH2 0x2177 CALLER PUSH2 0x3B47 JUMP JUMPDEST DUP3 DUP2 PUSH1 0x0 ADD PUSH1 0x0 DUP3 DUP3 SLOAD PUSH2 0x218B SWAP2 SWAP1 PUSH2 0x514A JUMP JUMPDEST SWAP3 POP POP DUP2 SWAP1 SSTORE POP DUP3 PUSH1 0x7 PUSH1 0x0 DUP3 DUP3 SLOAD PUSH2 0x21A4 SWAP2 SWAP1 PUSH2 0x514A JUMP JUMPDEST SWAP3 POP POP DUP2 SWAP1 SSTORE POP PUSH1 0x0 DUP4 SWAP1 POP PUSH1 0x0 DUP1 PUSH2 0x21C0 DUP5 PUSH1 0x4 ADD SLOAD PUSH2 0x394A JUMP JUMPDEST ISZERO PUSH2 0x22F7 JUMPI PUSH1 0x0 PUSH2 0x2710 PUSH2 0x5DC DUP9 PUSH2 0x21D8 SWAP2 SWAP1 PUSH2 0x5074 JUMP JUMPDEST PUSH2 0x21E2 SWAP2 SWAP1 PUSH2 0x50E5 JUMP JUMPDEST SWAP1 POP PUSH1 0x3 PUSH1 0x2 DUP3 PUSH2 0x21F3 SWAP2 SWAP1 PUSH2 0x5074 JUMP JUMPDEST PUSH2 0x21FD SWAP2 SWAP1 PUSH2 0x50E5 JUMP JUMPDEST SWAP3 POP DUP3 DUP2 PUSH2 0x220B SWAP2 SWAP1 PUSH2 0x514A JUMP JUMPDEST SWAP2 POP DUP1 DUP8 PUSH2 0x2219 SWAP2 SWAP1 PUSH2 0x514A JUMP JUMPDEST SWAP4 POP DUP3 PUSH1 0x11 PUSH1 0x0 DUP3 DUP3 SLOAD PUSH2 0x222D SWAP2 SWAP1 PUSH2 0x5116 JUMP JUMPDEST SWAP3 POP POP DUP2 SWAP1 SSTORE POP DUP2 PUSH1 0x12 PUSH1 0x0 DUP3 DUP3 SLOAD PUSH2 0x2246 SWAP2 SWAP1 PUSH2 0x5116 JUMP JUMPDEST SWAP3 POP POP DUP2 SWAP1 SSTORE POP PUSH1 0x0 DUP4 GT ISZERO PUSH2 0x2260 JUMPI PUSH2 0x225F DUP4 PUSH2 0x419C JUMP JUMPDEST JUMPDEST PUSH1 0x0 DUP3 GT ISZERO PUSH2 0x22F5 JUMPI PUSH32 0x0 PUSH20 0xFFFFFFFFFFFFFFFFFFFFFFFFFFFFFFFFFFFFFFFF AND PUSH4 0x42966C68 DUP4 PUSH1 0x40 MLOAD DUP3 PUSH4 0xFFFFFFFF AND PUSH1 0xE0 SHL DUP2 MSTORE PUSH1 0x4 ADD PUSH2 0x22C2 SWAP2 SWAP1 PUSH2 0x4695 JUMP JUMPDEST PUSH1 0x0 PUSH1 0x40 MLOAD DUP1 DUP4 SUB DUP2 PUSH1 0x0 DUP8 DUP1 EXTCODESIZE ISZERO DUP1 ISZERO PUSH2 0x22DC JUMPI PUSH1 0x0 DUP1 REVERT JUMPDEST POP GAS CALL ISZERO DUP1 ISZERO PUSH2 0x22F0 JUMPI RETURNDATASIZE PUSH1 0x0 DUP1 RETURNDATACOPY RETURNDATASIZE PUSH1 0x0 REVERT JUMPDEST POP POP POP POP JUMPDEST POP JUMPDEST PUSH1 0x0 DUP5 PUSH1 0x0 ADD SLOAD SUB PUSH2 0x230E JUMPI PUSH1 0x0 DUP5 PUSH1 0x4 ADD DUP2 SWAP1 SSTORE POP JUMPDEST PUSH2 0x2317 CALLER PUSH2 0x3D11 JUMP JUMPDEST PUSH2 0x2362 CALLER DUP5 PUSH32 0x0 PUSH20 0xFFFFFFFFFFFFFFFFFFFFFFFFFFFFFFFFFFFFFFFF AND PUSH2 0x39F7 SWAP1 SWAP3 SWAP2 SWAP1 PUSH4 0xFFFFFFFF AND JUMP JUMPDEST CALLER PUSH20 0xFFFFFFFFFFFFFFFFFFFFFFFFFFFFFFFFFFFFFFFF AND PUSH32 0xED51A34ABF73431AEE998F69FF67CBC5BAE47A2768CC3E2EFAF79E7BA0B65F15 DUP8 DUP6 DUP6 DUP6 PUSH1 0x40 MLOAD PUSH2 0x23AE SWAP5 SWAP4 SWAP3 SWAP2 SWAP1 PUSH2 0x471C JUMP JUMPDEST PUSH1 0x40 MLOAD DUP1 SWAP2 SUB SWAP1 LOG2 POP POP POP POP POP PUSH2 0x23C3 PUSH2 0x3B3E JUMP JUMPDEST POP JUMP JUMPDEST PUSH1 0x4 PUSH1 0x20 MSTORE DUP1 PUSH1 0x0 MSTORE PUSH1 0x40 PUSH1 0x0 KECCAK256 PUSH1 0x0 SWAP2 POP SLOAD SWAP1 PUSH2 0x100 EXP SWAP1 DIV PUSH1 0xFF AND DUP2 JUMP JUMPDEST PUSH1 0x11 SLOAD DUP2 JUMP JUMPDEST PUSH1 0xA SLOAD DUP2 JUMP JUMPDEST PUSH1 0x9 SLOAD DUP2 JUMP JUMPDEST PUSH1 0x12 SLOAD DUP2 JUMP JUMPDEST PUSH1 0x0 DUP1 PUSH1 0x5 PUSH1 0x0 DUP5 PUSH20 0xFFFFFFFFFFFFFFFFFFFFFFFFFFFFFFFFFFFFFFFF AND PUSH20 0xFFFFFFFFFFFFFFFFFFFFFFFFFFFFFFFFFFFFFFFF AND DUP2 MSTORE PUSH1 0x20 ADD SWAP1 DUP2 MSTORE PUSH1 0x20 ADD PUSH1 0x0 KECCAK256 PUSH1 0x2 ADD SLOAD SWAP2 POP PUSH1 0x5 PUSH1 0x0 DUP5 PUSH20 0xFFFFFFFFFFFFFFFFFFFFFFFFFFFFFFFFFFFFFFFF AND PUSH20 0xFFFFFFFFFFFFFFFFFFFFFFFFFFFFFFFFFFFFFFFF AND DUP2 MSTORE PUSH1 0x20 ADD SWAP1 DUP2 MSTORE PUSH1 0x20 ADD PUSH1 0x0 KECCAK256 PUSH1 0x3 ADD SLOAD SWAP1 POP SWAP2 POP SWAP2 JUMP JUMPDEST PUSH2 0x2498 PUSH2 0x3A76 JUMP JUMPDEST CALLER PUSH2 0x24A1 PUSH2 0x38B8 JUMP JUMPDEST PUSH1 0x9 DUP2 SWAP1 SSTORE POP PUSH2 0x24AF PUSH2 0x1115 JUMP JUMPDEST PUSH1 0xA DUP2 SWAP1 SSTORE POP PUSH1 0x0 PUSH20 0xFFFFFFFFFFFFFFFFFFFFFFFFFFFFFFFFFFFFFFFF AND DUP2 PUSH20 0xFFFFFFFFFFFFFFFFFFFFFFFFFFFFFFFFFFFFFFFF AND EQ PUSH2 0x25B3 JUMPI PUSH1 0x0 PUSH1 0x5 PUSH1 0x0 DUP4 PUSH20 0xFFFFFFFFFFFFFFFFFFFFFFFFFFFFFFFFFFFFFFFF AND PUSH20 0xFFFFFFFFFFFFFFFFFFFFFFFFFFFFFFFFFFFFFFFF AND DUP2 MSTORE PUSH1 0x20 ADD SWAP1 DUP2 MSTORE PUSH1 0x20 ADD PUSH1 0x0 KECCAK256 SWAP1 POP PUSH1 0x0 PUSH10 0xD3C21BCECCEDA1000000 PUSH1 0x9 SLOAD DUP4 PUSH1 0x1 ADD SLOAD PUSH2 0x254B SWAP2 SWAP1 PUSH2 0x5074 JUMP JUMPDEST PUSH2 0x2555 SWAP2 SWAP1 PUSH2 0x50E5 JUMP JUMPDEST SWAP1 POP DUP2 PUSH1 0x2 ADD SLOAD DUP2 PUSH2 0x2567 SWAP2 SWAP1 PUSH2 0x514A JUMP JUMPDEST DUP3 PUSH1 0x3 ADD PUSH1 0x0 DUP3 DUP3 SLOAD PUSH2 0x257A SWAP2 SWAP1 PUSH2 0x5116 JUMP JUMPDEST SWAP3 POP POP DUP2 SWAP1 SSTORE POP PUSH10 0xD3C21BCECCEDA1000000 PUSH1 0x9 SLOAD DUP4 PUSH1 0x1 ADD SLOAD PUSH2 0x259E SWAP2 SWAP1 PUSH2 0x5074 JUMP JUMPDEST PUSH2 0x25A8 SWAP2 SWAP1 PUSH2 0x50E5 JUMP JUMPDEST DUP3 PUSH1 0x2 ADD DUP2 SWAP1 SSTORE POP POP POP JUMPDEST PUSH2 0x25BD DUP4 DUP4 PUSH2 0x2983 JUMP JUMPDEST PUSH2 0x25FC JUMPI PUSH1 0x40 MLOAD PUSH32 0x8C379A000000000000000000000000000000000000000000000000000000000 DUP2 MSTORE PUSH1 0x4 ADD PUSH2 0x25F3 SWAP1 PUSH2 0x58A9 JUMP JUMPDEST PUSH1 0x40 MLOAD DUP1 SWAP2 SUB SWAP1 REVERT JUMPDEST PUSH1 0x0 PUSH1 0x5 PUSH1 0x0 CALLER PUSH20 0xFFFFFFFFFFFFFFFFFFFFFFFFFFFFFFFFFFFFFFFF AND PUSH20 0xFFFFFFFFFFFFFFFFFFFFFFFFFFFFFFFFFFFFFFFF AND DUP2 MSTORE PUSH1 0x20 ADD SWAP1 DUP2 MSTORE PUSH1 0x20 ADD PUSH1 0x0 KECCAK256 SWAP1 POP PUSH1 0x4 DUP2 PUSH1 0x5 ADD DUP1 SLOAD SWAP1 POP LT PUSH2 0x2689 JUMPI PUSH1 0x40 MLOAD PUSH32 0x8C379A000000000000000000000000000000000000000000000000000000000 DUP2 MSTORE PUSH1 0x4 ADD PUSH2 0x2680 SWAP1 PUSH2 0x5915 JUMP JUMPDEST PUSH1 0x40 MLOAD DUP1 SWAP2 SUB SWAP1 REVERT JUMPDEST PUSH1 0x0 PUSH20 0xFFFFFFFFFFFFFFFFFFFFFFFFFFFFFFFFFFFFFFFF AND PUSH1 0x6 PUSH1 0x0 DUP7 PUSH20 0xFFFFFFFFFFFFFFFFFFFFFFFFFFFFFFFFFFFFFFFF AND PUSH20 0xFFFFFFFFFFFFFFFFFFFFFFFFFFFFFFFFFFFFFFFF AND DUP2 MSTORE PUSH1 0x20 ADD SWAP1 DUP2 MSTORE PUSH1 0x20 ADD PUSH1 0x0 KECCAK256 PUSH1 0x0 DUP6 DUP2 MSTORE PUSH1 0x20 ADD SWAP1 DUP2 MSTORE PUSH1 0x20 ADD PUSH1 0x0 KECCAK256 PUSH1 0x0 SWAP1 SLOAD SWAP1 PUSH2 0x100 EXP SWAP1 DIV PUSH20 0xFFFFFFFFFFFFFFFFFFFFFFFFFFFFFFFFFFFFFFFF AND PUSH20 0xFFFFFFFFFFFFFFFFFFFFFFFFFFFFFFFFFFFFFFFF AND EQ PUSH2 0x2768 JUMPI PUSH1 0x40 MLOAD PUSH32 0x8C379A000000000000000000000000000000000000000000000000000000000 DUP2 MSTORE PUSH1 0x4 ADD PUSH2 0x275F SWAP1 PUSH2 0x5981 JUMP JUMPDEST PUSH1 0x40 MLOAD DUP1 SWAP2 SUB SWAP1 REVERT JUMPDEST DUP4 PUSH20 0xFFFFFFFFFFFFFFFFFFFFFFFFFFFFFFFFFFFFFFFF AND PUSH4 0x42842E0E CALLER ADDRESS DUP7 PUSH1 0x40 MLOAD DUP5 PUSH4 0xFFFFFFFF AND PUSH1 0xE0 SHL DUP2 MSTORE PUSH1 0x4 ADD PUSH2 0x27A5 SWAP4 SWAP3 SWAP2 SWAP1 PUSH2 0x57BA JUMP JUMPDEST PUSH1 0x0 PUSH1 0x40 MLOAD DUP1 DUP4 SUB DUP2 PUSH1 0x0 DUP8 DUP1 EXTCODESIZE ISZERO DUP1 ISZERO PUSH2 0x27BF JUMPI PUSH1 0x0 DUP1 REVERT JUMPDEST POP GAS CALL ISZERO DUP1 ISZERO PUSH2 0x27D3 JUMPI RETURNDATASIZE PUSH1 0x0 DUP1 RETURNDATACOPY RETURNDATASIZE PUSH1 0x0 REVERT JUMPDEST POP POP POP POP CALLER PUSH1 0x6 PUSH1 0x0 DUP7 PUSH20 0xFFFFFFFFFFFFFFFFFFFFFFFFFFFFFFFFFFFFFFFF AND PUSH20 0xFFFFFFFFFFFFFFFFFFFFFFFFFFFFFFFFFFFFFFFF AND DUP2 MSTORE PUSH1 0x20 ADD SWAP1 DUP2 MSTORE PUSH1 0x20 ADD PUSH1 0x0 KECCAK256 PUSH1 0x0 DUP6 DUP2 MSTORE PUSH1 0x20 ADD SWAP1 DUP2 MSTORE PUSH1 0x20 ADD PUSH1 0x0 KECCAK256 PUSH1 0x0 PUSH2 0x100 EXP DUP2 SLOAD DUP2 PUSH20 0xFFFFFFFFFFFFFFFFFFFFFFFFFFFFFFFFFFFFFFFF MUL NOT AND SWAP1 DUP4 PUSH20 0xFFFFFFFFFFFFFFFFFFFFFFFFFFFFFFFFFFFFFFFF AND MUL OR SWAP1 SSTORE POP DUP1 PUSH1 0x5 ADD PUSH1 0x40 MLOAD DUP1 PUSH1 0x40 ADD PUSH1 0x40 MSTORE DUP1 DUP7 PUSH20 0xFFFFFFFFFFFFFFFFFFFFFFFFFFFFFFFFFFFFFFFF AND DUP2 MSTORE PUSH1 0x20 ADD DUP6 DUP2 MSTORE POP SWAP1 DUP1 PUSH1 0x1 DUP2 SLOAD ADD DUP1 DUP3 SSTORE DUP1 SWAP2 POP POP PUSH1 0x1 SWAP1 SUB SWAP1 PUSH1 0x0 MSTORE PUSH1 0x20 PUSH1 0x0 KECCAK256 SWAP1 PUSH1 0x2 MUL ADD PUSH1 0x0 SWAP1 SWAP2 SWAP1 SWAP2 SWAP1 SWAP2 POP PUSH1 0x0 DUP3 ADD MLOAD DUP2 PUSH1 0x0 ADD PUSH1 0x0 PUSH2 0x100 EXP DUP2 SLOAD DUP2 PUSH20 0xFFFFFFFFFFFFFFFFFFFFFFFFFFFFFFFFFFFFFFFF MUL NOT AND SWAP1 DUP4 PUSH20 0xFFFFFFFFFFFFFFFFFFFFFFFFFFFFFFFFFFFFFFFF AND MUL OR SWAP1 SSTORE POP PUSH1 0x20 DUP3 ADD MLOAD DUP2 PUSH1 0x1 ADD SSTORE POP POP PUSH2 0x291A CALLER PUSH2 0x3D11 JUMP JUMPDEST DUP3 DUP5 PUSH20 0xFFFFFFFFFFFFFFFFFFFFFFFFFFFFFFFFFFFFFFFF AND CALLER PUSH20 0xFFFFFFFFFFFFFFFFFFFFFFFFFFFFFFFFFFFFFFFF AND PUSH32 0x45A0B747ADA8575B65125B2144E0DE1FF692FF4510BB94A2F9695FCAF1D2BDF3 PUSH1 0x40 MLOAD PUSH1 0x40 MLOAD DUP1 SWAP2 SUB SWAP1 LOG4 POP POP PUSH2 0x297F PUSH2 0x3B3E JUMP JUMPDEST POP POP JUMP JUMPDEST PUSH1 0x0 DUP1 PUSH1 0x2 PUSH1 0x0 DUP6 PUSH20 0xFFFFFFFFFFFFFFFFFFFFFFFFFFFFFFFFFFFFFFFF AND PUSH20 0xFFFFFFFFFFFFFFFFFFFFFFFFFFFFFFFFFFFFFFFF AND DUP2 MSTORE PUSH1 0x20 ADD SWAP1 DUP2 MSTORE PUSH1 0x20 ADD PUSH1 0x0 KECCAK256 PUSH1 0x40 MLOAD DUP1 PUSH1 0x40 ADD PUSH1 0x40 MSTORE SWAP1 DUP2 PUSH1 0x0 DUP3 ADD PUSH1 0x0 SWAP1 SLOAD SWAP1 PUSH2 0x100 EXP SWAP1 DIV PUSH1 0xFF AND ISZERO ISZERO ISZERO ISZERO DUP2 MSTORE PUSH1 0x20 ADD PUSH1 0x0 DUP3 ADD PUSH1 0x1 SWAP1 SLOAD SWAP1 PUSH2 0x100 EXP SWAP1 DIV PUSH1 0xFF AND PUSH1 0x1 DUP2 GT ISZERO PUSH2 0x2A10 JUMPI PUSH2 0x2A0F PUSH2 0x4A4F JUMP JUMPDEST JUMPDEST PUSH1 0x1 DUP2 GT ISZERO PUSH2 0x2A22 JUMPI PUSH2 0x2A21 PUSH2 0x4A4F JUMP JUMPDEST JUMPDEST DUP2 MSTORE POP POP SWAP1 POP DUP1 PUSH1 0x0 ADD MLOAD PUSH2 0x2A3B JUMPI PUSH1 0x0 SWAP2 POP POP PUSH2 0x2AD7 JUMP JUMPDEST PUSH1 0x0 PUSH1 0x1 DUP2 GT ISZERO PUSH2 0x2A4F JUMPI PUSH2 0x2A4E PUSH2 0x4A4F JUMP JUMPDEST JUMPDEST DUP2 PUSH1 0x20 ADD MLOAD PUSH1 0x1 DUP2 GT ISZERO PUSH2 0x2A66 JUMPI PUSH2 0x2A65 PUSH2 0x4A4F JUMP JUMPDEST JUMPDEST SUB PUSH2 0x2A75 JUMPI PUSH1 0x1 SWAP2 POP POP PUSH2 0x2AD7 JUMP JUMPDEST PUSH1 0x3 PUSH1 0x0 DUP6 PUSH20 0xFFFFFFFFFFFFFFFFFFFFFFFFFFFFFFFFFFFFFFFF AND PUSH20 0xFFFFFFFFFFFFFFFFFFFFFFFFFFFFFFFFFFFFFFFF AND DUP2 MSTORE PUSH1 0x20 ADD SWAP1 DUP2 MSTORE PUSH1 0x20 ADD PUSH1 0x0 KECCAK256 PUSH1 0x0 DUP5 DUP2 MSTORE PUSH1 0x20 ADD SWAP1 DUP2 MSTORE PUSH1 0x20 ADD PUSH1 0x0 KECCAK256 PUSH1 0x0 SWAP1 SLOAD SWAP1 PUSH2 0x100 EXP SWAP1 DIV PUSH1 0xFF AND SWAP2 POP POP JUMPDEST SWAP3 SWAP2 POP POP JUMP JUMPDEST PUSH1 0x0 PUSH1 0xC SLOAD NUMBER LT PUSH2 0x2AF1 JUMPI PUSH1 0x0 SWAP1 POP PUSH2 0x2B02 JUMP JUMPDEST NUMBER PUSH1 0xC SLOAD PUSH2 0x2AFF SWAP2 SWAP1 PUSH2 0x514A JUMP JUMPDEST SWAP1 POP JUMPDEST SWAP1 JUMP JUMPDEST PUSH2 0x2B0D PUSH2 0x3970 JUMP JUMPDEST PUSH1 0x0 PUSH20 0xFFFFFFFFFFFFFFFFFFFFFFFFFFFFFFFFFFFFFFFF AND DUP5 PUSH20 0xFFFFFFFFFFFFFFFFFFFFFFFFFFFFFFFFFFFFFFFF AND SUB PUSH2 0x2B7C JUMPI PUSH1 0x40 MLOAD PUSH32 0x8C379A000000000000000000000000000000000000000000000000000000000 DUP2 MSTORE PUSH1 0x4 ADD PUSH2 0x2B73 SWAP1 PUSH2 0x583D JUMP JUMPDEST PUSH1 0x40 MLOAD DUP1 SWAP2 SUB SWAP1 REVERT JUMPDEST PUSH1 0x0 JUMPDEST DUP4 DUP4 SWAP1 POP DUP2 LT ISZERO PUSH2 0x2C80 JUMPI DUP2 PUSH1 0x3 PUSH1 0x0 DUP8 PUSH20 0xFFFFFFFFFFFFFFFFFFFFFFFFFFFFFFFFFFFFFFFF AND PUSH20 0xFFFFFFFFFFFFFFFFFFFFFFFFFFFFFFFFFFFFFFFF AND DUP2 MSTORE PUSH1 0x20 ADD SWAP1 DUP2 MSTORE PUSH1 0x20 ADD PUSH1 0x0 KECCAK256 PUSH1 0x0 DUP7 DUP7 DUP6 DUP2 DUP2 LT PUSH2 0x2BDF JUMPI PUSH2 0x2BDE PUSH2 0x59A1 JUMP JUMPDEST JUMPDEST SWAP1 POP PUSH1 0x20 MUL ADD CALLDATALOAD DUP2 MSTORE PUSH1 0x20 ADD SWAP1 DUP2 MSTORE PUSH1 0x20 ADD PUSH1 0x0 KECCAK256 PUSH1 0x0 PUSH2 0x100 EXP DUP2 SLOAD DUP2 PUSH1 0xFF MUL NOT AND SWAP1 DUP4 ISZERO ISZERO MUL OR SWAP1 SSTORE POP DUP4 DUP4 DUP3 DUP2 DUP2 LT PUSH2 0x2C1E JUMPI PUSH2 0x2C1D PUSH2 0x59A1 JUMP JUMPDEST JUMPDEST SWAP1 POP PUSH1 0x20 MUL ADD CALLDATALOAD DUP6 PUSH20 0xFFFFFFFFFFFFFFFFFFFFFFFFFFFFFFFFFFFFFFFF AND PUSH32 0x3929B99F1D41B1602615ACBAC6AF6C29AE6687DB3D6586D252BF82074486E31 DUP5 PUSH1 0x40 MLOAD PUSH2 0x2C6B SWAP2 SWAP1 PUSH2 0x4952 JUMP JUMPDEST PUSH1 0x40 MLOAD DUP1 SWAP2 SUB SWAP1 LOG3 DUP1 DUP1 PUSH1 0x1 ADD SWAP2 POP POP PUSH2 0x2B7F JUMP JUMPDEST POP POP POP POP POP JUMP JUMPDEST PUSH1 0x8 SLOAD DUP2 JUMP JUMPDEST PUSH1 0x7 SLOAD DUP2 JUMP JUMPDEST PUSH2 0x2C9B PUSH2 0x3A76 JUMP JUMPDEST CALLER PUSH2 0x2CA4 PUSH2 0x38B8 JUMP JUMPDEST PUSH1 0x9 DUP2 SWAP1 SSTORE POP PUSH2 0x2CB2 PUSH2 0x1115 JUMP JUMPDEST PUSH1 0xA DUP2 SWAP1 SSTORE POP PUSH1 0x0 PUSH20 0xFFFFFFFFFFFFFFFFFFFFFFFFFFFFFFFFFFFFFFFF AND DUP2 PUSH20 0xFFFFFFFFFFFFFFFFFFFFFFFFFFFFFFFFFFFFFFFF AND EQ PUSH2 0x2DB6 JUMPI PUSH1 0x0 PUSH1 0x5 PUSH1 0x0 DUP4 PUSH20 0xFFFFFFFFFFFFFFFFFFFFFFFFFFFFFFFFFFFFFFFF AND PUSH20 0xFFFFFFFFFFFFFFFFFFFFFFFFFFFFFFFFFFFFFFFF AND DUP2 MSTORE PUSH1 0x20 ADD SWAP1 DUP2 MSTORE PUSH1 0x20 ADD PUSH1 0x0 KECCAK256 SWAP1 POP PUSH1 0x0 PUSH10 0xD3C21BCECCEDA1000000 PUSH1 0x9 SLOAD DUP4 PUSH1 0x1 ADD SLOAD PUSH2 0x2D4E SWAP2 SWAP1 PUSH2 0x5074 JUMP JUMPDEST PUSH2 0x2D58 SWAP2 SWAP1 PUSH2 0x50E5 JUMP JUMPDEST SWAP1 POP DUP2 PUSH1 0x2 ADD SLOAD DUP2 PUSH2 0x2D6A SWAP2 SWAP1 PUSH2 0x514A JUMP JUMPDEST DUP3 PUSH1 0x3 ADD PUSH1 0x0 DUP3 DUP3 SLOAD PUSH2 0x2D7D SWAP2 SWAP1 PUSH2 0x5116 JUMP JUMPDEST SWAP3 POP POP DUP2 SWAP1 SSTORE POP PUSH10 0xD3C21BCECCEDA1000000 PUSH1 0x9 SLOAD DUP4 PUSH1 0x1 ADD SLOAD PUSH2 0x2DA1 SWAP2 SWAP1 PUSH2 0x5074 JUMP JUMPDEST PUSH2 0x2DAB SWAP2 SWAP1 PUSH2 0x50E5 JUMP JUMPDEST DUP3 PUSH1 0x2 ADD DUP2 SWAP1 SSTORE POP POP POP JUMPDEST PUSH1 0x0 PUSH1 0x5 PUSH1 0x0 CALLER PUSH20 0xFFFFFFFFFFFFFFFFFFFFFFFFFFFFFFFFFFFFFFFF AND PUSH20 0xFFFFFFFFFFFFFFFFFFFFFFFFFFFFFFFFFFFFFFFF AND DUP2 MSTORE PUSH1 0x20 ADD SWAP1 DUP2 MSTORE PUSH1 0x20 ADD PUSH1 0x0 KECCAK256 SWAP1 POP PUSH1 0x0 DUP2 PUSH1 0x0 ADD SLOAD GT DUP1 PUSH2 0x2E13 JUMPI POP PUSH1 0x0 DUP2 PUSH1 0x5 ADD DUP1 SLOAD SWAP1 POP GT JUMPDEST PUSH2 0x2E52 JUMPI PUSH1 0x40 MLOAD PUSH32 0x8C379A000000000000000000000000000000000000000000000000000000000 DUP2 MSTORE PUSH1 0x4 ADD PUSH2 0x2E49 SWAP1 PUSH2 0x5A1C JUMP JUMPDEST PUSH1 0x40 MLOAD DUP1 SWAP2 SUB SWAP1 REVERT JUMPDEST PUSH2 0x2E5B CALLER PUSH2 0x3B47 JUMP JUMPDEST PUSH1 0x0 DUP2 PUSH1 0x0 ADD SLOAD SWAP1 POP PUSH1 0x0 DUP2 SWAP1 POP PUSH1 0x0 DUP1 PUSH1 0x0 DUP5 GT ISZERO PUSH2 0x2FDD JUMPI PUSH1 0x0 DUP6 PUSH1 0x0 ADD DUP2 SWAP1 SSTORE POP DUP4 PUSH1 0x7 PUSH1 0x0 DUP3 DUP3 SLOAD PUSH2 0x2E91 SWAP2 SWAP1 PUSH2 0x514A JUMP JUMPDEST SWAP3 POP POP DUP2 SWAP1 SSTORE POP PUSH2 0x2EA5 DUP6 PUSH1 0x4 ADD SLOAD PUSH2 0x394A JUMP JUMPDEST ISZERO PUSH2 0x2FDC JUMPI PUSH1 0x0 PUSH2 0x2710 PUSH2 0x5DC DUP7 PUSH2 0x2EBD SWAP2 SWAP1 PUSH2 0x5074 JUMP JUMPDEST PUSH2 0x2EC7 SWAP2 SWAP1 PUSH2 0x50E5 JUMP JUMPDEST SWAP1 POP PUSH1 0x3 PUSH1 0x2 DUP3 PUSH2 0x2ED8 SWAP2 SWAP1 PUSH2 0x5074 JUMP JUMPDEST PUSH2 0x2EE2 SWAP2 SWAP1 PUSH2 0x50E5 JUMP JUMPDEST SWAP3 POP DUP3 DUP2 PUSH2 0x2EF0 SWAP2 SWAP1 PUSH2 0x514A JUMP JUMPDEST SWAP2 POP DUP1 DUP6 PUSH2 0x2EFE SWAP2 SWAP1 PUSH2 0x514A JUMP JUMPDEST SWAP4 POP DUP3 PUSH1 0x11 PUSH1 0x0 DUP3 DUP3 SLOAD PUSH2 0x2F12 SWAP2 SWAP1 PUSH2 0x5116 JUMP JUMPDEST SWAP3 POP POP DUP2 SWAP1 SSTORE POP DUP2 PUSH1 0x12 PUSH1 0x0 DUP3 DUP3 SLOAD PUSH2 0x2F2B SWAP2 SWAP1 PUSH2 0x5116 JUMP JUMPDEST SWAP3 POP POP DUP2 SWAP1 SSTORE POP PUSH1 0x0 DUP4 GT ISZERO PUSH2 0x2F45 JUMPI PUSH2 0x2F44 DUP4 PUSH2 0x419C JUMP JUMPDEST JUMPDEST PUSH1 0x0 DUP3 GT ISZERO PUSH2 0x2FDA JUMPI PUSH32 0x0 PUSH20 0xFFFFFFFFFFFFFFFFFFFFFFFFFFFFFFFFFFFFFFFF AND PUSH4 0x42966C68 DUP4 PUSH1 0x40 MLOAD DUP3 PUSH4 0xFFFFFFFF AND PUSH1 0xE0 SHL DUP2 MSTORE PUSH1 0x4 ADD PUSH2 0x2FA7 SWAP2 SWAP1 PUSH2 0x4695 JUMP JUMPDEST PUSH1 0x0 PUSH1 0x40 MLOAD DUP1 DUP4 SUB DUP2 PUSH1 0x0 DUP8 DUP1 EXTCODESIZE ISZERO DUP1 ISZERO PUSH2 0x2FC1 JUMPI PUSH1 0x0 DUP1 REVERT JUMPDEST POP GAS CALL ISZERO DUP1 ISZERO PUSH2 0x2FD5 JUMPI RETURNDATASIZE PUSH1 0x0 DUP1 RETURNDATACOPY RETURNDATASIZE PUSH1 0x0 REVERT JUMPDEST POP POP POP POP JUMPDEST POP JUMPDEST JUMPDEST PUSH1 0x0 DUP6 PUSH1 0x5 ADD DUP1 SLOAD SWAP1 POP SWAP1 POP PUSH1 0x0 DUP2 PUSH8 0xFFFFFFFFFFFFFFFF DUP2 GT ISZERO PUSH2 0x3005 JUMPI PUSH2 0x3004 PUSH2 0x5A3C JUMP JUMPDEST JUMPDEST PUSH1 0x40 MLOAD SWAP1 DUP1 DUP3 MSTORE DUP1 PUSH1 0x20 MUL PUSH1 0x20 ADD DUP3 ADD PUSH1 0x40 MSTORE DUP1 ISZERO PUSH2 0x303E JUMPI DUP2 PUSH1 0x20 ADD JUMPDEST PUSH2 0x302B PUSH2 0x454D JUMP JUMPDEST DUP2 MSTORE PUSH1 0x20 ADD SWAP1 PUSH1 0x1 SWAP1 SUB SWAP1 DUP2 PUSH2 0x3023 JUMPI SWAP1 POP JUMPDEST POP SWAP1 POP PUSH1 0x0 JUMPDEST DUP3 DUP2 LT ISZERO PUSH2 0x31D2 JUMPI DUP8 PUSH1 0x5 ADD DUP2 DUP2 SLOAD DUP2 LT PUSH2 0x3062 JUMPI PUSH2 0x3061 PUSH2 0x59A1 JUMP JUMPDEST JUMPDEST SWAP1 PUSH1 0x0 MSTORE PUSH1 0x20 PUSH1 0x0 KECCAK256 SWAP1 PUSH1 0x2 MUL ADD PUSH1 0x40 MLOAD DUP1 PUSH1 0x40 ADD PUSH1 0x40 MSTORE SWAP1 DUP2 PUSH1 0x0 DUP3 ADD PUSH1 0x0 SWAP1 SLOAD SWAP1 PUSH2 0x100 EXP SWAP1 DIV PUSH20 0xFFFFFFFFFFFFFFFFFFFFFFFFFFFFFFFFFFFFFFFF AND PUSH20 0xFFFFFFFFFFFFFFFFFFFFFFFFFFFFFFFFFFFFFFFF AND PUSH20 0xFFFFFFFFFFFFFFFFFFFFFFFFFFFFFFFFFFFFFFFF AND DUP2 MSTORE PUSH1 0x20 ADD PUSH1 0x1 DUP3 ADD SLOAD DUP2 MSTORE POP POP DUP3 DUP3 DUP2 MLOAD DUP2 LT PUSH2 0x30EE JUMPI PUSH2 0x30ED PUSH2 0x59A1 JUMP JUMPDEST JUMPDEST PUSH1 0x20 MUL PUSH1 0x20 ADD ADD DUP2 SWAP1 MSTORE POP PUSH1 0x0 PUSH1 0x6 PUSH1 0x0 DUP5 DUP5 DUP2 MLOAD DUP2 LT PUSH2 0x3112 JUMPI PUSH2 0x3111 PUSH2 0x59A1 JUMP JUMPDEST JUMPDEST PUSH1 0x20 MUL PUSH1 0x20 ADD ADD MLOAD PUSH1 0x0 ADD MLOAD PUSH20 0xFFFFFFFFFFFFFFFFFFFFFFFFFFFFFFFFFFFFFFFF AND PUSH20 0xFFFFFFFFFFFFFFFFFFFFFFFFFFFFFFFFFFFFFFFF AND DUP2 MSTORE PUSH1 0x20 ADD SWAP1 DUP2 MSTORE PUSH1 0x20 ADD PUSH1 0x0 KECCAK256 PUSH1 0x0 DUP5 DUP5 DUP2 MLOAD DUP2 LT PUSH2 0x316D JUMPI PUSH2 0x316C PUSH2 0x59A1 JUMP JUMPDEST JUMPDEST PUSH1 0x20 MUL PUSH1 0x20 ADD ADD MLOAD PUSH1 0x20 ADD MLOAD DUP2 MSTORE PUSH1 0x20 ADD SWAP1 DUP2 MSTORE PUSH1 0x20 ADD PUSH1 0x0 KECCAK256 PUSH1 0x0 PUSH2 0x100 EXP DUP2 SLOAD DUP2 PUSH20 0xFFFFFFFFFFFFFFFFFFFFFFFFFFFFFFFFFFFFFFFF MUL NOT AND SWAP1 DUP4 PUSH20 0xFFFFFFFFFFFFFFFFFFFFFFFFFFFFFFFFFFFFFFFF AND MUL OR SWAP1 SSTORE POP DUP1 DUP1 PUSH1 0x1 ADD SWAP2 POP POP PUSH2 0x3044 JUMP JUMPDEST POP DUP7 PUSH1 0x5 ADD PUSH1 0x0 PUSH2 0x31E3 SWAP2 SWAP1 PUSH2 0x457D JUMP JUMPDEST PUSH1 0x0 DUP8 PUSH1 0x4 ADD DUP2 SWAP1 SSTORE POP PUSH2 0x31F6 CALLER PUSH2 0x3D11 JUMP JUMPDEST PUSH1 0x0 DUP6 GT ISZERO PUSH2 0x324B JUMPI PUSH2 0x324A CALLER DUP7 PUSH32 0x0 PUSH20 0xFFFFFFFFFFFFFFFFFFFFFFFFFFFFFFFFFFFFFFFF AND PUSH2 0x39F7 SWAP1 SWAP3 SWAP2 SWAP1 PUSH4 0xFFFFFFFF AND JUMP JUMPDEST JUMPDEST PUSH1 0x0 JUMPDEST DUP2 MLOAD DUP2 LT ISZERO PUSH2 0x33A6 JUMPI DUP2 DUP2 DUP2 MLOAD DUP2 LT PUSH2 0x326A JUMPI PUSH2 0x3269 PUSH2 0x59A1 JUMP JUMPDEST JUMPDEST PUSH1 0x20 MUL PUSH1 0x20 ADD ADD MLOAD PUSH1 0x0 ADD MLOAD PUSH20 0xFFFFFFFFFFFFFFFFFFFFFFFFFFFFFFFFFFFFFFFF AND PUSH4 0x42842E0E ADDRESS CALLER DUP6 DUP6 DUP2 MLOAD DUP2 LT PUSH2 0x32A6 JUMPI PUSH2 0x32A5 PUSH2 0x59A1 JUMP JUMPDEST JUMPDEST PUSH1 0x20 MUL PUSH1 0x20 ADD ADD MLOAD PUSH1 0x20 ADD MLOAD PUSH1 0x40 MLOAD DUP5 PUSH4 0xFFFFFFFF AND PUSH1 0xE0 SHL DUP2 MSTORE PUSH1 0x4 ADD PUSH2 0x32D0 SWAP4 SWAP3 SWAP2 SWAP1 PUSH2 0x57BA JUMP JUMPDEST PUSH1 0x0 PUSH1 0x40 MLOAD DUP1 DUP4 SUB DUP2 PUSH1 0x0 DUP8 DUP1 EXTCODESIZE ISZERO DUP1 ISZERO PUSH2 0x32EA JUMPI PUSH1 0x0 DUP1 REVERT JUMPDEST POP GAS CALL ISZERO DUP1 ISZERO PUSH2 0x32FE JUMPI RETURNDATASIZE PUSH1 0x0 DUP1 RETURNDATACOPY RETURNDATASIZE PUSH1 0x0 REVERT JUMPDEST POP POP POP POP DUP2 DUP2 DUP2 MLOAD DUP2 LT PUSH2 0x3315 JUMPI PUSH2 0x3314 PUSH2 0x59A1 JUMP JUMPDEST JUMPDEST PUSH1 0x20 MUL PUSH1 0x20 ADD ADD MLOAD PUSH1 0x20 ADD MLOAD DUP3 DUP3 DUP2 MLOAD DUP2 LT PUSH2 0x3334 JUMPI PUSH2 0x3333 PUSH2 0x59A1 JUMP JUMPDEST JUMPDEST PUSH1 0x20 MUL PUSH1 0x20 ADD ADD MLOAD PUSH1 0x0 ADD MLOAD PUSH20 0xFFFFFFFFFFFFFFFFFFFFFFFFFFFFFFFFFFFFFFFF AND CALLER PUSH20 0xFFFFFFFFFFFFFFFFFFFFFFFFFFFFFFFFFFFFFFFF AND PUSH32 0xBBDE41973F9CE4890F7AD9762C23D8191F261FD643BDF13ED8BBC10549B49FCB PUSH1 0x40 MLOAD PUSH1 0x40 MLOAD DUP1 SWAP2 SUB SWAP1 LOG4 DUP1 DUP1 PUSH1 0x1 ADD SWAP2 POP POP PUSH2 0x324E JUMP JUMPDEST POP CALLER PUSH20 0xFFFFFFFFFFFFFFFFFFFFFFFFFFFFFFFFFFFFFFFF AND PUSH32 0xED51A34ABF73431AEE998F69FF67CBC5BAE47A2768CC3E2EFAF79E7BA0B65F15 DUP8 DUP8 DUP8 DUP8 PUSH1 0x40 MLOAD PUSH2 0x33F3 SWAP5 SWAP4 SWAP3 SWAP2 SWAP1 PUSH2 0x471C JUMP JUMPDEST PUSH1 0x40 MLOAD DUP1 SWAP2 SUB SWAP1 LOG2 CALLER PUSH20 0xFFFFFFFFFFFFFFFFFFFFFFFFFFFFFFFFFFFFFFFF AND PUSH32 0xAA5CFC974BD759F818E3E18A4AFC9D79DAAA0722158497792100A1FDDD13E193 PUSH1 0x40 MLOAD PUSH1 0x40 MLOAD DUP1 SWAP2 SUB SWAP1 LOG2 POP POP POP POP POP POP POP POP PUSH2 0x344E PUSH2 0x3B3E JUMP JUMPDEST JUMP JUMPDEST PUSH32 0x0 DUP2 JUMP JUMPDEST PUSH2 0x347C PUSH2 0x3970 JUMP JUMPDEST PUSH1 0x0 PUSH20 0xFFFFFFFFFFFFFFFFFFFFFFFFFFFFFFFFFFFFFFFF AND DUP2 PUSH20 0xFFFFFFFFFFFFFFFFFFFFFFFFFFFFFFFFFFFFFFFF AND SUB PUSH2 0x34EE JUMPI PUSH1 0x0 PUSH1 0x40 MLOAD PUSH32 0x1E4FBDF700000000000000000000000000000000000000000000000000000000 DUP2 MSTORE PUSH1 0x4 ADD PUSH2 0x34E5 SWAP2 SWAP1 PUSH2 0x4D30 JUMP JUMPDEST PUSH1 0x40 MLOAD DUP1 SWAP2 SUB SWAP1 REVERT JUMPDEST PUSH2 0x34F7 DUP2 PUSH2 0x40D8 JUMP JUMPDEST POP JUMP JUMPDEST PUSH1 0x0 PUSH1 0x4 PUSH1 0x0 DUP5 DUP5 PUSH1 0x40 MLOAD PUSH2 0x3510 SWAP3 SWAP2 SWAP1 PUSH2 0x5515 JUMP JUMPDEST PUSH1 0x40 MLOAD DUP1 SWAP2 SUB SWAP1 KECCAK256 DUP2 MSTORE PUSH1 0x20 ADD SWAP1 DUP2 MSTORE PUSH1 0x20 ADD PUSH1 0x0 KECCAK256 PUSH1 0x0 SWAP1 SLOAD SWAP1 PUSH2 0x100 EXP SWAP1 DIV PUSH1 0xFF AND SWAP1 POP SWAP3 SWAP2 POP POP JUMP JUMPDEST PUSH2 0x3544 PUSH2 0x3970 JUMP JUMPDEST PUSH2 0x354C PUSH2 0x3A76 JUMP JUMPDEST PUSH1 0x0 PUSH20 0xFFFFFFFFFFFFFFFFFFFFFFFFFFFFFFFFFFFFFFFF AND DUP4 PUSH20 0xFFFFFFFFFFFFFFFFFFFFFFFFFFFFFFFFFFFFFFFF AND SUB PUSH2 0x35BB JUMPI PUSH1 0x40 MLOAD PUSH32 0x8C379A000000000000000000000000000000000000000000000000000000000 DUP2 MSTORE PUSH1 0x4 ADD PUSH2 0x35B2 SWAP1 PUSH2 0x583D JUMP JUMPDEST PUSH1 0x40 MLOAD DUP1 SWAP2 SUB SWAP1 REVERT JUMPDEST PUSH1 0x0 PUSH20 0xFFFFFFFFFFFFFFFFFFFFFFFFFFFFFFFFFFFFFFFF AND DUP2 PUSH20 0xFFFFFFFFFFFFFFFFFFFFFFFFFFFFFFFFFFFFFFFF AND SUB PUSH2 0x362A JUMPI PUSH1 0x40 MLOAD PUSH32 0x8C379A000000000000000000000000000000000000000000000000000000000 DUP2 MSTORE PUSH1 0x4 ADD PUSH2 0x3621 SWAP1 PUSH2 0x52B3 JUMP JUMPDEST PUSH1 0x40 MLOAD DUP1 SWAP2 SUB SWAP1 REVERT JUMPDEST PUSH1 0x0 PUSH20 0xFFFFFFFFFFFFFFFFFFFFFFFFFFFFFFFFFFFFFFFF AND PUSH1 0x6 PUSH1 0x0 DUP6 PUSH20 0xFFFFFFFFFFFFFFFFFFFFFFFFFFFFFFFFFFFFFFFF AND PUSH20 0xFFFFFFFFFFFFFFFFFFFFFFFFFFFFFFFFFFFFFFFF AND DUP2 MSTORE PUSH1 0x20 ADD SWAP1 DUP2 MSTORE PUSH1 0x20 ADD PUSH1 0x0 KECCAK256 PUSH1 0x0 DUP5 DUP2 MSTORE PUSH1 0x20 ADD SWAP1 DUP2 MSTORE PUSH1 0x20 ADD PUSH1 0x0 KECCAK256 PUSH1 0x0 SWAP1 SLOAD SWAP1 PUSH2 0x100 EXP SWAP1 DIV PUSH20 0xFFFFFFFFFFFFFFFFFFFFFFFFFFFFFFFFFFFFFFFF AND PUSH20 0xFFFFFFFFFFFFFFFFFFFFFFFFFFFFFFFFFFFFFFFF AND EQ PUSH2 0x3709 JUMPI PUSH1 0x40 MLOAD PUSH32 0x8C379A000000000000000000000000000000000000000000000000000000000 DUP2 MSTORE PUSH1 0x4 ADD PUSH2 0x3700 SWAP1 PUSH2 0x5AB7 JUMP JUMPDEST PUSH1 0x40 MLOAD DUP1 SWAP2 SUB SWAP1 REVERT JUMPDEST DUP3 PUSH20 0xFFFFFFFFFFFFFFFFFFFFFFFFFFFFFFFFFFFFFFFF AND PUSH4 0x42842E0E ADDRESS DUP4 DUP6 PUSH1 0x40 MLOAD DUP5 PUSH4 0xFFFFFFFF AND PUSH1 0xE0 SHL DUP2 MSTORE PUSH1 0x4 ADD PUSH2 0x3746 SWAP4 SWAP3 SWAP2 SWAP1 PUSH2 0x57BA JUMP JUMPDEST PUSH1 0x0 PUSH1 0x40 MLOAD DUP1 DUP4 SUB DUP2 PUSH1 0x0 DUP8 DUP1 EXTCODESIZE ISZERO DUP1 ISZERO PUSH2 0x3760 JUMPI PUSH1 0x0 DUP1 REVERT JUMPDEST POP GAS CALL ISZERO DUP1 ISZERO PUSH2 0x3774 JUMPI RETURNDATASIZE PUSH1 0x0 DUP1 RETURNDATACOPY RETURNDATASIZE PUSH1 0x0 REVERT JUMPDEST POP POP POP POP PUSH2 0x3780 PUSH2 0x3B3E JUMP JUMPDEST POP POP POP JUMP JUMPDEST PUSH2 0x378D PUSH2 0x3970 JUMP JUMPDEST PUSH1 0x0 PUSH20 0xFFFFFFFFFFFFFFFFFFFFFFFFFFFFFFFFFFFFFFFF AND DUP4 PUSH20 0xFFFFFFFFFFFFFFFFFFFFFFFFFFFFFFFFFFFFFFFF AND SUB PUSH2 0x37FC JUMPI PUSH1 0x40 MLOAD PUSH32 0x8C379A000000000000000000000000000000000000000000000000000000000 DUP2 MSTORE PUSH1 0x4 ADD PUSH2 0x37F3 SWAP1 PUSH2 0x583D JUMP JUMPDEST PUSH1 0x40 MLOAD DUP1 SWAP2 SUB SWAP1 REVERT JUMPDEST DUP1 PUSH1 0x3 PUSH1 0x0 DUP6 PUSH20 0xFFFFFFFFFFFFFFFFFFFFFFFFFFFFFFFFFFFFFFFF AND PUSH20 0xFFFFFFFFFFFFFFFFFFFFFFFFFFFFFFFFFFFFFFFF AND DUP2 MSTORE PUSH1 0x20 ADD SWAP1 DUP2 MSTORE PUSH1 0x20 ADD PUSH1 0x0 KECCAK256 PUSH1 0x0 DUP5 DUP2 MSTORE PUSH1 0x20 ADD SWAP1 DUP2 MSTORE PUSH1 0x20 ADD PUSH1 0x0 KECCAK256 PUSH1 0x0 PUSH2 0x100 EXP DUP2 SLOAD DUP2 PUSH1 0xFF MUL NOT AND SWAP1 DUP4 ISZERO ISZERO MUL OR SWAP1 SSTORE POP DUP2 DUP4 PUSH20 0xFFFFFFFFFFFFFFFFFFFFFFFFFFFFFFFFFFFFFFFF AND PUSH32 0x3929B99F1D41B1602615ACBAC6AF6C29AE6687DB3D6586D252BF82074486E31 DUP4 PUSH1 0x40 MLOAD PUSH2 0x38AB SWAP2 SWAP1 PUSH2 0x4952 JUMP JUMPDEST PUSH1 0x40 MLOAD DUP1 SWAP2 SUB SWAP1 LOG3 POP POP POP JUMP JUMPDEST PUSH1 0x0 DUP1 PUSH1 0x8 SLOAD SUB PUSH2 0x38CD JUMPI PUSH1 0x9 SLOAD SWAP1 POP PUSH2 0x3947 JUMP JUMPDEST PUSH1 0x0 PUSH2 0x38D7 PUSH2 0x1115 JUMP JUMPDEST SWAP1 POP PUSH1 0xA SLOAD DUP2 GT PUSH2 0x38ED JUMPI PUSH1 0x9 SLOAD SWAP2 POP POP PUSH2 0x3947 JUMP JUMPDEST PUSH1 0x0 PUSH1 0xA SLOAD DUP3 PUSH2 0x38FD SWAP2 SWAP1 PUSH2 0x514A JUMP JUMPDEST SWAP1 POP PUSH1 0x0 PUSH1 0xB SLOAD DUP3 PUSH2 0x390F SWAP2 SWAP1 PUSH2 0x5074 JUMP JUMPDEST SWAP1 POP PUSH1 0x8 SLOAD PUSH10 0xD3C21BCECCEDA1000000 DUP3 PUSH2 0x392A SWAP2 SWAP1 PUSH2 0x5074 JUMP JUMPDEST PUSH2 0x3934 SWAP2 SWAP1 PUSH2 0x50E5 JUMP JUMPDEST PUSH1 0x9 SLOAD PUSH2 0x3941 SWAP2 SWAP1 PUSH2 0x5116 JUMP JUMPDEST SWAP4 POP POP POP POP JUMPDEST SWAP1 JUMP JUMPDEST PUSH1 0x0 DUP1 DUP3 EQ ISZERO DUP1 ISZERO PUSH2 0x3969 JUMPI POP PUSH3 0x4F1A00 DUP3 PUSH2 0x3966 SWAP2 SWAP1 PUSH2 0x5116 JUMP JUMPDEST TIMESTAMP LT JUMPDEST SWAP1 POP SWAP2 SWAP1 POP JUMP JUMPDEST PUSH2 0x3978 PUSH2 0x42F7 JUMP JUMPDEST PUSH20 0xFFFFFFFFFFFFFFFFFFFFFFFFFFFFFFFFFFFFFFFF AND PUSH2 0x3996 PUSH2 0x1F0A JUMP JUMPDEST PUSH20 0xFFFFFFFFFFFFFFFFFFFFFFFFFFFFFFFFFFFFFFFF AND EQ PUSH2 0x39F5 JUMPI PUSH2 0x39B9 PUSH2 0x42F7 JUMP JUMPDEST PUSH1 0x40 MLOAD PUSH32 0x118CDAA700000000000000000000000000000000000000000000000000000000 DUP2 MSTORE PUSH1 0x4 ADD PUSH2 0x39EC SWAP2 SWAP1 PUSH2 0x4D30 JUMP JUMPDEST PUSH1 0x40 MLOAD DUP1 SWAP2 SUB SWAP1 REVERT JUMPDEST JUMP JUMPDEST PUSH2 0x3A71 DUP4 DUP5 PUSH20 0xFFFFFFFFFFFFFFFFFFFFFFFFFFFFFFFFFFFFFFFF AND PUSH4 0xA9059CBB DUP6 DUP6 PUSH1 0x40 MLOAD PUSH1 0x24 ADD PUSH2 0x3A2A SWAP3 SWAP2 SWAP1 PUSH2 0x5AD7 JUMP JUMPDEST PUSH1 0x40 MLOAD PUSH1 0x20 DUP2 DUP4 SUB SUB DUP2 MSTORE SWAP1 PUSH1 0x40 MSTORE SWAP2 POP PUSH1 0xE0 SHL PUSH1 0x20 DUP3 ADD DUP1 MLOAD PUSH28 0xFFFFFFFFFFFFFFFFFFFFFFFFFFFFFFFFFFFFFFFFFFFFFFFFFFFFFFFF DUP4 DUP2 DUP4 AND OR DUP4 MSTORE POP POP POP POP PUSH2 0x42FF JUMP JUMPDEST POP POP POP JUMP JUMPDEST PUSH1 0x2 PUSH1 0x1 SLOAD SUB PUSH2 0x3AB2 JUMPI PUSH1 0x40 MLOAD PUSH32 0x3EE5AEB500000000000000000000000000000000000000000000000000000000 DUP2 MSTORE PUSH1 0x4 ADD PUSH1 0x40 MLOAD DUP1 SWAP2 SUB SWAP1 REVERT JUMPDEST PUSH1 0x2 PUSH1 0x1 DUP2 SWAP1 SSTORE POP JUMP JUMPDEST PUSH2 0x3B38 DUP5 DUP6 PUSH20 0xFFFFFFFFFFFFFFFFFFFFFFFFFFFFFFFFFFFFFFFF AND PUSH4 0x23B872DD DUP7 DUP7 DUP7 PUSH1 0x40 MLOAD PUSH1 0x24 ADD PUSH2 0x3AF1 SWAP4 SWAP3 SWAP2 SWAP1 PUSH2 0x57BA JUMP JUMPDEST PUSH1 0x40 MLOAD PUSH1 0x20 DUP2 DUP4 SUB SUB DUP2 MSTORE SWAP1 PUSH1 0x40 MSTORE SWAP2 POP PUSH1 0xE0 SHL PUSH1 0x20 DUP3 ADD DUP1 MLOAD PUSH28 0xFFFFFFFFFFFFFFFFFFFFFFFFFFFFFFFFFFFFFFFFFFFFFFFFFFFFFFFF DUP4 DUP2 DUP4 AND OR DUP4 MSTORE POP POP POP POP PUSH2 0x42FF JUMP JUMPDEST POP POP POP POP JUMP JUMPDEST PUSH1 0x1 DUP1 DUP2 SWAP1 SSTORE POP JUMP JUMPDEST PUSH1 0x0 PUSH1 0x5 PUSH1 0x0 DUP4 PUSH20 0xFFFFFFFFFFFFFFFFFFFFFFFFFFFFFFFFFFFFFFFF AND PUSH20 0xFFFFFFFFFFFFFFFFFFFFFFFFFFFFFFFFFFFFFFFF AND DUP2 MSTORE PUSH1 0x20 ADD SWAP1 DUP2 MSTORE PUSH1 0x20 ADD PUSH1 0x0 KECCAK256 SWAP1 POP PUSH1 0x0 DUP2 PUSH1 0x3 ADD SLOAD SWAP1 POP PUSH1 0x0 DUP2 SUB PUSH2 0x3BA2 JUMPI POP POP PUSH2 0x3D0E JUMP JUMPDEST PUSH1 0x0 DUP3 PUSH1 0x3 ADD DUP2 SWAP1 SSTORE POP PUSH1 0x0 DUP1 DUP3 SWAP1 POP PUSH2 0x3BBF DUP5 PUSH1 0x4 ADD SLOAD PUSH2 0x394A JUMP JUMPDEST ISZERO PUSH2 0x3C1C JUMPI PUSH2 0x2710 PUSH2 0x1388 DUP5 PUSH2 0x3BD5 SWAP2 SWAP1 PUSH2 0x5074 JUMP JUMPDEST PUSH2 0x3BDF SWAP2 SWAP1 PUSH2 0x50E5 JUMP JUMPDEST SWAP2 POP DUP2 DUP4 PUSH2 0x3BED SWAP2 SWAP1 PUSH2 0x514A JUMP JUMPDEST SWAP1 POP PUSH1 0x0 DUP3 GT ISZERO PUSH2 0x3C1B JUMPI DUP2 PUSH1 0x10 PUSH1 0x0 DUP3 DUP3 SLOAD PUSH2 0x3C0A SWAP2 SWAP1 PUSH2 0x5116 JUMP JUMPDEST SWAP3 POP POP DUP2 SWAP1 SSTORE POP PUSH2 0x3C1A DUP3 PUSH2 0x419C JUMP JUMPDEST JUMPDEST JUMPDEST PUSH1 0x0 DUP2 GT ISZERO PUSH2 0x3C8A JUMPI DUP1 PUSH1 0xF PUSH1 0x0 DUP3 DUP3 SLOAD PUSH2 0x3C37 SWAP2 SWAP1 PUSH2 0x5116 JUMP JUMPDEST SWAP3 POP POP DUP2 SWAP1 SSTORE POP PUSH2 0x3C89 DUP6 DUP3 PUSH32 0x0 PUSH20 0xFFFFFFFFFFFFFFFFFFFFFFFFFFFFFFFFFFFFFFFF AND PUSH2 0x39F7 SWAP1 SWAP3 SWAP2 SWAP1 PUSH4 0xFFFFFFFF AND JUMP JUMPDEST JUMPDEST PUSH10 0xD3C21BCECCEDA1000000 PUSH1 0x9 SLOAD DUP6 PUSH1 0x1 ADD SLOAD PUSH2 0x3CA7 SWAP2 SWAP1 PUSH2 0x5074 JUMP JUMPDEST PUSH2 0x3CB1 SWAP2 SWAP1 PUSH2 0x50E5 JUMP JUMPDEST DUP5 PUSH1 0x2 ADD DUP2 SWAP1 SSTORE POP DUP5 PUSH20 0xFFFFFFFFFFFFFFFFFFFFFFFFFFFFFFFFFFFFFFFF AND PUSH32 0xD6F2C8500DF5B44F11E9E48B91FF9F1B9D81BC496D55570C2B1B75BF65243F51 DUP3 DUP5 PUSH1 0x40 MLOAD PUSH2 0x3D01 SWAP3 SWAP2 SWAP1 PUSH2 0x4DE5 JUMP JUMPDEST PUSH1 0x40 MLOAD DUP1 SWAP2 SUB SWAP1 LOG2 POP POP POP POP JUMPDEST POP JUMP JUMPDEST PUSH1 0x0 PUSH1 0x5 PUSH1 0x0 DUP4 PUSH20 0xFFFFFFFFFFFFFFFFFFFFFFFFFFFFFFFFFFFFFFFF AND PUSH20 0xFFFFFFFFFFFFFFFFFFFFFFFFFFFFFFFFFFFFFFFF AND DUP2 MSTORE PUSH1 0x20 ADD SWAP1 DUP2 MSTORE PUSH1 0x20 ADD PUSH1 0x0 KECCAK256 SWAP1 POP PUSH1 0x0 DUP2 PUSH1 0x1 ADD SLOAD SWAP1 POP PUSH1 0x0 DUP1 DUP4 PUSH1 0x0 ADD SLOAD GT DUP1 ISZERO PUSH2 0x3D7A JUMPI POP PUSH1 0x1 DUP4 PUSH1 0x5 ADD DUP1 SLOAD SWAP1 POP LT ISZERO JUMPDEST ISZERO PUSH2 0x3DAE JUMPI PUSH2 0x2710 PUSH2 0x3D92 DUP5 PUSH1 0x5 ADD DUP1 SLOAD SWAP1 POP PUSH2 0x4084 JUMP JUMPDEST DUP5 PUSH1 0x0 ADD SLOAD PUSH2 0x3DA1 SWAP2 SWAP1 PUSH2 0x5074 JUMP JUMPDEST PUSH2 0x3DAB SWAP2 SWAP1 PUSH2 0x50E5 JUMP JUMPDEST SWAP1 POP JUMPDEST DUP2 DUP2 GT ISZERO PUSH2 0x3DDF JUMPI DUP2 DUP2 PUSH2 0x3DC2 SWAP2 SWAP1 PUSH2 0x514A JUMP JUMPDEST PUSH1 0x8 PUSH1 0x0 DUP3 DUP3 SLOAD PUSH2 0x3DD3 SWAP2 SWAP1 PUSH2 0x5116 JUMP JUMPDEST SWAP3 POP POP DUP2 SWAP1 SSTORE POP PUSH2 0x3E0D JUMP JUMPDEST DUP1 DUP3 GT ISZERO PUSH2 0x3E0C JUMPI DUP1 DUP3 PUSH2 0x3DF3 SWAP2 SWAP1 PUSH2 0x514A JUMP JUMPDEST PUSH1 0x8 PUSH1 0x0 DUP3 DUP3 SLOAD PUSH2 0x3E04 SWAP2 SWAP1 PUSH2 0x514A JUMP JUMPDEST SWAP3 POP POP DUP2 SWAP1 SSTORE POP JUMPDEST JUMPDEST DUP1 DUP4 PUSH1 0x1 ADD DUP2 SWAP1 SSTORE POP PUSH10 0xD3C21BCECCEDA1000000 PUSH1 0x9 SLOAD DUP3 PUSH2 0x3E2F SWAP2 SWAP1 PUSH2 0x5074 JUMP JUMPDEST PUSH2 0x3E39 SWAP2 SWAP1 PUSH2 0x50E5 JUMP JUMPDEST DUP4 PUSH1 0x2 ADD DUP2 SWAP1 SSTORE POP POP POP POP POP JUMP JUMPDEST PUSH1 0x0 DUP4 PUSH1 0x5 ADD DUP1 SLOAD SWAP1 POP SWAP1 POP PUSH1 0x0 JUMPDEST DUP2 DUP2 LT ISZERO PUSH2 0x4043 JUMPI DUP4 PUSH20 0xFFFFFFFFFFFFFFFFFFFFFFFFFFFFFFFFFFFFFFFF AND DUP6 PUSH1 0x5 ADD DUP3 DUP2 SLOAD DUP2 LT PUSH2 0x3E8B JUMPI PUSH2 0x3E8A PUSH2 0x59A1 JUMP JUMPDEST JUMPDEST SWAP1 PUSH1 0x0 MSTORE PUSH1 0x20 PUSH1 0x0 KECCAK256 SWAP1 PUSH1 0x2 MUL ADD PUSH1 0x0 ADD PUSH1 0x0 SWAP1 SLOAD SWAP1 PUSH2 0x100 EXP SWAP1 DIV PUSH20 0xFFFFFFFFFFFFFFFFFFFFFFFFFFFFFFFFFFFFFFFF AND PUSH20 0xFFFFFFFFFFFFFFFFFFFFFFFFFFFFFFFFFFFFFFFF AND EQ DUP1 ISZERO PUSH2 0x3F06 JUMPI POP DUP3 DUP6 PUSH1 0x5 ADD DUP3 DUP2 SLOAD DUP2 LT PUSH2 0x3EF2 JUMPI PUSH2 0x3EF1 PUSH2 0x59A1 JUMP JUMPDEST JUMPDEST SWAP1 PUSH1 0x0 MSTORE PUSH1 0x20 PUSH1 0x0 KECCAK256 SWAP1 PUSH1 0x2 MUL ADD PUSH1 0x1 ADD SLOAD EQ JUMPDEST ISZERO PUSH2 0x4036 JUMPI DUP5 PUSH1 0x5 ADD PUSH1 0x1 DUP4 PUSH2 0x3F1C SWAP2 SWAP1 PUSH2 0x514A JUMP JUMPDEST DUP2 SLOAD DUP2 LT PUSH2 0x3F2D JUMPI PUSH2 0x3F2C PUSH2 0x59A1 JUMP JUMPDEST JUMPDEST SWAP1 PUSH1 0x0 MSTORE PUSH1 0x20 PUSH1 0x0 KECCAK256 SWAP1 PUSH1 0x2 MUL ADD DUP6 PUSH1 0x5 ADD DUP3 DUP2 SLOAD DUP2 LT PUSH2 0x3F51 JUMPI PUSH2 0x3F50 PUSH2 0x59A1 JUMP JUMPDEST JUMPDEST SWAP1 PUSH1 0x0 MSTORE PUSH1 0x20 PUSH1 0x0 KECCAK256 SWAP1 PUSH1 0x2 MUL ADD PUSH1 0x0 DUP3 ADD PUSH1 0x0 SWAP1 SLOAD SWAP1 PUSH2 0x100 EXP SWAP1 DIV PUSH20 0xFFFFFFFFFFFFFFFFFFFFFFFFFFFFFFFFFFFFFFFF AND DUP2 PUSH1 0x0 ADD PUSH1 0x0 PUSH2 0x100 EXP DUP2 SLOAD DUP2 PUSH20 0xFFFFFFFFFFFFFFFFFFFFFFFFFFFFFFFFFFFFFFFF MUL NOT AND SWAP1 DUP4 PUSH20 0xFFFFFFFFFFFFFFFFFFFFFFFFFFFFFFFFFFFFFFFF AND MUL OR SWAP1 SSTORE POP PUSH1 0x1 DUP3 ADD SLOAD DUP2 PUSH1 0x1 ADD SSTORE SWAP1 POP POP DUP5 PUSH1 0x5 ADD DUP1 SLOAD DUP1 PUSH2 0x3FE7 JUMPI PUSH2 0x3FE6 PUSH2 0x5B00 JUMP JUMPDEST JUMPDEST PUSH1 0x1 SWAP1 SUB DUP2 DUP2 SWAP1 PUSH1 0x0 MSTORE PUSH1 0x20 PUSH1 0x0 KECCAK256 SWAP1 PUSH1 0x2 MUL ADD PUSH1 0x0 DUP1 DUP3 ADD PUSH1 0x0 PUSH2 0x100 EXP DUP2 SLOAD SWAP1 PUSH20 0xFFFFFFFFFFFFFFFFFFFFFFFFFFFFFFFFFFFFFFFF MUL NOT AND SWAP1 SSTORE PUSH1 0x1 DUP3 ADD PUSH1 0x0 SWAP1 SSTORE POP POP SWAP1 SSTORE POP POP PUSH2 0x407F JUMP JUMPDEST DUP1 DUP1 PUSH1 0x1 ADD SWAP2 POP POP PUSH2 0x3E56 JUMP JUMPDEST POP PUSH1 0x40 MLOAD PUSH32 0x8C379A000000000000000000000000000000000000000000000000000000000 DUP2 MSTORE PUSH1 0x4 ADD PUSH2 0x4076 SWAP1 PUSH2 0x5B7B JUMP JUMPDEST PUSH1 0x40 MLOAD DUP1 SWAP2 SUB SWAP1 REVERT JUMPDEST POP POP POP JUMP JUMPDEST PUSH1 0x0 PUSH1 0x1 DUP3 SUB PUSH2 0x4098 JUMPI PUSH2 0x2710 SWAP1 POP PUSH2 0x40D3 JUMP JUMPDEST PUSH1 0x2 DUP3 SUB PUSH2 0x40AA JUMPI PUSH2 0x2AF8 SWAP1 POP PUSH2 0x40D3 JUMP JUMPDEST PUSH1 0x3 DUP3 SUB PUSH2 0x40BC JUMPI PUSH2 0x2EE0 SWAP1 POP PUSH2 0x40D3 JUMP JUMPDEST PUSH1 0x4 DUP3 SUB PUSH2 0x40CE JUMPI PUSH2 0x32C8 SWAP1 POP PUSH2 0x40D3 JUMP JUMPDEST PUSH1 0x0 SWAP1 POP JUMPDEST SWAP2 SWAP1 POP JUMP JUMPDEST PUSH1 0x0 DUP1 PUSH1 0x0 SWAP1 SLOAD SWAP1 PUSH2 0x100 EXP SWAP1 DIV PUSH20 0xFFFFFFFFFFFFFFFFFFFFFFFFFFFFFFFFFFFFFFFF AND SWAP1 POP DUP2 PUSH1 0x0 DUP1 PUSH2 0x100 EXP DUP2 SLOAD DUP2 PUSH20 0xFFFFFFFFFFFFFFFFFFFFFFFFFFFFFFFFFFFFFFFF MUL NOT AND SWAP1 DUP4 PUSH20 0xFFFFFFFFFFFFFFFFFFFFFFFFFFFFFFFFFFFFFFFF AND MUL OR SWAP1 SSTORE POP DUP2 PUSH20 0xFFFFFFFFFFFFFFFFFFFFFFFFFFFFFFFFFFFFFFFF AND DUP2 PUSH20 0xFFFFFFFFFFFFFFFFFFFFFFFFFFFFFFFFFFFFFFFF AND PUSH32 0x8BE0079C531659141344CD1FD0A4F28419497F9722A3DAAFE3B4186F6B6457E0 PUSH1 0x40 MLOAD PUSH1 0x40 MLOAD DUP1 SWAP2 SUB SWAP1 LOG3 POP POP JUMP JUMPDEST PUSH1 0x0 DUP2 SUB ISZERO PUSH2 0x42F4 JUMPI PUSH1 0xC SLOAD NUMBER LT ISZERO DUP1 PUSH2 0x41B8 JUMPI POP PUSH1 0x0 PUSH1 0xB SLOAD EQ JUMPDEST ISZERO PUSH2 0x4215 JUMPI DUP1 PUSH1 0xD PUSH1 0x0 DUP3 DUP3 SLOAD PUSH2 0x41CF SWAP2 SWAP1 PUSH2 0x5116 JUMP JUMPDEST SWAP3 POP POP DUP2 SWAP1 SSTORE POP PUSH32 0xB83B89C23226BAF08AB339FFF4525164D413E7D9F816D2E208B4F37A8B11D9A5 DUP2 PUSH1 0x1 PUSH1 0x40 MLOAD PUSH2 0x4208 SWAP3 SWAP2 SWAP1 PUSH2 0x5B9B JUMP JUMPDEST PUSH1 0x40 MLOAD DUP1 SWAP2 SUB SWAP1 LOG1 PUSH2 0x42F4 JUMP JUMPDEST PUSH1 0x0 NUMBER PUSH1 0xC SLOAD PUSH2 0x4225 SWAP2 SWAP1 PUSH2 0x514A JUMP JUMPDEST SWAP1 POP PUSH1 0x0 DUP2 SUB PUSH2 0x4288 JUMPI DUP2 PUSH1 0xD PUSH1 0x0 DUP3 DUP3 SLOAD PUSH2 0x4241 SWAP2 SWAP1 PUSH2 0x5116 JUMP JUMPDEST SWAP3 POP POP DUP2 SWAP1 SSTORE POP PUSH32 0xB83B89C23226BAF08AB339FFF4525164D413E7D9F816D2E208B4F37A8B11D9A5 DUP3 PUSH1 0x1 PUSH1 0x40 MLOAD PUSH2 0x427A SWAP3 SWAP2 SWAP1 PUSH2 0x5B9B JUMP JUMPDEST PUSH1 0x40 MLOAD DUP1 SWAP2 SUB SWAP1 LOG1 POP PUSH2 0x42F4 JUMP JUMPDEST PUSH1 0x0 PUSH1 0xB SLOAD DUP3 PUSH2 0x4298 SWAP2 SWAP1 PUSH2 0x5074 JUMP JUMPDEST SWAP1 POP DUP2 DUP4 DUP3 PUSH2 0x42A7 SWAP2 SWAP1 PUSH2 0x5116 JUMP JUMPDEST PUSH2 0x42B1 SWAP2 SWAP1 PUSH2 0x50E5 JUMP JUMPDEST PUSH1 0xB DUP2 SWAP1 SSTORE POP PUSH32 0xB83B89C23226BAF08AB339FFF4525164D413E7D9F816D2E208B4F37A8B11D9A5 DUP4 PUSH1 0x0 PUSH1 0x40 MLOAD PUSH2 0x42E9 SWAP3 SWAP2 SWAP1 PUSH2 0x5B9B JUMP JUMPDEST PUSH1 0x40 MLOAD DUP1 SWAP2 SUB SWAP1 LOG1 POP POP JUMPDEST POP JUMP JUMPDEST PUSH1 0x0 CALLER SWAP1 POP SWAP1 JUMP JUMPDEST PUSH1 0x0 PUSH2 0x432A DUP3 DUP5 PUSH20 0xFFFFFFFFFFFFFFFFFFFFFFFFFFFFFFFFFFFFFFFF AND PUSH2 0x4396 SWAP1 SWAP2 SWAP1 PUSH4 0xFFFFFFFF AND JUMP JUMPDEST SWAP1 POP PUSH1 0x0 DUP2 MLOAD EQ ISZERO DUP1 ISZERO PUSH2 0x434F JUMPI POP DUP1 DUP1 PUSH1 0x20 ADD SWAP1 MLOAD DUP2 ADD SWAP1 PUSH2 0x434D SWAP2 SWAP1 PUSH2 0x5BD9 JUMP JUMPDEST ISZERO JUMPDEST ISZERO PUSH2 0x4391 JUMPI DUP3 PUSH1 0x40 MLOAD PUSH32 0x5274AFE700000000000000000000000000000000000000000000000000000000 DUP2 MSTORE PUSH1 0x4 ADD PUSH2 0x4388 SWAP2 SWAP1 PUSH2 0x4D30 JUMP JUMPDEST PUSH1 0x40 MLOAD DUP1 SWAP2 SUB SWAP1 REVERT JUMPDEST POP POP POP JUMP JUMPDEST PUSH1 0x60 PUSH2 0x43A4 DUP4 DUP4 PUSH1 0x0 PUSH2 0x43AC JUMP JUMPDEST SWAP1 POP SWAP3 SWAP2 POP POP JUMP JUMPDEST PUSH1 0x60 DUP2 SELFBALANCE LT ISZERO PUSH2 0x43F3 JUMPI ADDRESS PUSH1 0x40 MLOAD PUSH32 0xCD78605900000000000000000000000000000000000000000000000000000000 DUP2 MSTORE PUSH1 0x4 ADD PUSH2 0x43EA SWAP2 SWAP1 PUSH2 0x4D30 JUMP JUMPDEST PUSH1 0x40 MLOAD DUP1 SWAP2 SUB SWAP1 REVERT JUMPDEST PUSH1 0x0 DUP1 DUP6 PUSH20 0xFFFFFFFFFFFFFFFFFFFFFFFFFFFFFFFFFFFFFFFF AND DUP5 DUP7 PUSH1 0x40 MLOAD PUSH2 0x441C SWAP2 SWAP1 PUSH2 0x5C6C JUMP JUMPDEST PUSH1 0x0 PUSH1 0x40 MLOAD DUP1 DUP4 SUB DUP2 DUP6 DUP8 GAS CALL SWAP3 POP POP POP RETURNDATASIZE DUP1 PUSH1 0x0 DUP2 EQ PUSH2 0x4459 JUMPI PUSH1 0x40 MLOAD SWAP2 POP PUSH1 0x1F NOT PUSH1 0x3F RETURNDATASIZE ADD AND DUP3 ADD PUSH1 0x40 MSTORE RETURNDATASIZE DUP3 MSTORE RETURNDATASIZE PUSH1 0x0 PUSH1 0x20 DUP5 ADD RETURNDATACOPY PUSH2 0x445E JUMP JUMPDEST PUSH1 0x60 SWAP2 POP JUMPDEST POP SWAP2 POP SWAP2 POP PUSH2 0x446E DUP7 DUP4 DUP4 PUSH2 0x4479 JUMP JUMPDEST SWAP3 POP POP POP SWAP4 SWAP3 POP POP POP JUMP JUMPDEST PUSH1 0x60 DUP3 PUSH2 0x448E JUMPI PUSH2 0x4489 DUP3 PUSH2 0x4508 JUMP JUMPDEST PUSH2 0x4500 JUMP JUMPDEST PUSH1 0x0 DUP3 MLOAD EQ DUP1 ISZERO PUSH2 0x44B6 JUMPI POP PUSH1 0x0 DUP5 PUSH20 0xFFFFFFFFFFFFFFFFFFFFFFFFFFFFFFFFFFFFFFFF AND EXTCODESIZE EQ JUMPDEST ISZERO PUSH2 0x44F8 JUMPI DUP4 PUSH1 0x40 MLOAD PUSH32 0x9996B31500000000000000000000000000000000000000000000000000000000 DUP2 MSTORE PUSH1 0x4 ADD PUSH2 0x44EF SWAP2 SWAP1 PUSH2 0x4D30 JUMP JUMPDEST PUSH1 0x40 MLOAD DUP1 SWAP2 SUB SWAP1 REVERT JUMPDEST DUP2 SWAP1 POP PUSH2 0x4501 JUMP JUMPDEST JUMPDEST SWAP4 SWAP3 POP POP POP JUMP JUMPDEST PUSH1 0x0 DUP2 MLOAD GT ISZERO PUSH2 0x451B JUMPI DUP1 MLOAD DUP1 DUP3 PUSH1 0x20 ADD REVERT JUMPDEST PUSH1 0x40 MLOAD PUSH32 0x1425EA4200000000000000000000000000000000000000000000000000000000 DUP2 MSTORE PUSH1 0x4 ADD PUSH1 0x40 MLOAD DUP1 SWAP2 SUB SWAP1 REVERT JUMPDEST PUSH1 0x40 MLOAD DUP1 PUSH1 0x40 ADD PUSH1 0x40 MSTORE DUP1 PUSH1 0x0 PUSH20 0xFFFFFFFFFFFFFFFFFFFFFFFFFFFFFFFFFFFFFFFF AND DUP2 MSTORE PUSH1 0x20 ADD PUSH1 0x0 DUP2 MSTORE POP SWAP1 JUMP JUMPDEST POP DUP1 SLOAD PUSH1 0x0 DUP3 SSTORE PUSH1 0x2 MUL SWAP1 PUSH1 0x0 MSTORE PUSH1 0x20 PUSH1 0x0 KECCAK256 SWAP1 DUP2 ADD SWAP1 PUSH2 0x459E SWAP2 SWAP1 PUSH2 0x45A1 JUMP JUMPDEST POP JUMP JUMPDEST JUMPDEST DUP1 DUP3 GT ISZERO PUSH2 0x45E3 JUMPI PUSH1 0x0 DUP1 DUP3 ADD PUSH1 0x0 PUSH2 0x100 EXP DUP2 SLOAD SWAP1 PUSH20 0xFFFFFFFFFFFFFFFFFFFFFFFFFFFFFFFFFFFFFFFF MUL NOT AND SWAP1 SSTORE PUSH1 0x1 DUP3 ADD PUSH1 0x0 SWAP1 SSTORE POP PUSH1 0x2 ADD PUSH2 0x45A2 JUMP JUMPDEST POP SWAP1 JUMP JUMPDEST PUSH1 0x0 DUP1 REVERT JUMPDEST PUSH1 0x0 DUP1 REVERT JUMPDEST PUSH1 0x0 PUSH20 0xFFFFFFFFFFFFFFFFFFFFFFFFFFFFFFFFFFFFFFFF DUP3 AND SWAP1 POP SWAP2 SWAP1 POP JUMP JUMPDEST PUSH1 0x0 PUSH2 0x461C DUP3 PUSH2 0x45F1 JUMP JUMPDEST SWAP1 POP SWAP2 SWAP1 POP JUMP JUMPDEST PUSH2 0x462C DUP2 PUSH2 0x4611 JUMP JUMPDEST DUP2 EQ PUSH2 0x4637 JUMPI PUSH1 0x0 DUP1 REVERT JUMPDEST POP JUMP JUMPDEST PUSH1 0x0 DUP2 CALLDATALOAD SWAP1 POP PUSH2 0x4649 DUP2 PUSH2 0x4623 JUMP JUMPDEST SWAP3 SWAP2 POP POP JUMP JUMPDEST PUSH1 0x0 PUSH1 0x20 DUP3 DUP5 SUB SLT ISZERO PUSH2 0x4665 JUMPI PUSH2 0x4664 PUSH2 0x45E7 JUMP JUMPDEST JUMPDEST PUSH1 0x0 PUSH2 0x4673 DUP5 DUP3 DUP6 ADD PUSH2 0x463A JUMP JUMPDEST SWAP2 POP POP SWAP3 SWAP2 POP POP JUMP JUMPDEST PUSH1 0x0 DUP2 SWAP1 POP SWAP2 SWAP1 POP JUMP JUMPDEST PUSH2 0x468F DUP2 PUSH2 0x467C JUMP JUMPDEST DUP3 MSTORE POP POP JUMP JUMPDEST PUSH1 0x0 PUSH1 0x20 DUP3 ADD SWAP1 POP PUSH2 0x46AA PUSH1 0x0 DUP4 ADD DUP5 PUSH2 0x4686 JUMP JUMPDEST SWAP3 SWAP2 POP POP JUMP JUMPDEST PUSH2 0x46B9 DUP2 PUSH2 0x467C JUMP JUMPDEST DUP2 EQ PUSH2 0x46C4 JUMPI PUSH1 0x0 DUP1 REVERT JUMPDEST POP JUMP JUMPDEST PUSH1 0x0 DUP2 CALLDATALOAD SWAP1 POP PUSH2 0x46D6 DUP2 PUSH2 0x46B0 JUMP JUMPDEST SWAP3 SWAP2 POP POP JUMP JUMPDEST PUSH1 0x0 DUP1 PUSH1 0x40 DUP4 DUP6 SUB SLT ISZERO PUSH2 0x46F3 JUMPI PUSH2 0x46F2 PUSH2 0x45E7 JUMP JUMPDEST JUMPDEST PUSH1 0x0 PUSH2 0x4701 DUP6 DUP3 DUP7 ADD PUSH2 0x463A JUMP JUMPDEST SWAP3 POP POP PUSH1 0x20 PUSH2 0x4712 DUP6 DUP3 DUP7 ADD PUSH2 0x46C7 JUMP JUMPDEST SWAP2 POP POP SWAP3 POP SWAP3 SWAP1 POP JUMP JUMPDEST PUSH1 0x0 PUSH1 0x80 DUP3 ADD SWAP1 POP PUSH2 0x4731 PUSH1 0x0 DUP4 ADD DUP8 PUSH2 0x4686 JUMP JUMPDEST PUSH2 0x473E PUSH1 0x20 DUP4 ADD DUP7 PUSH2 0x4686 JUMP JUMPDEST PUSH2 0x474B PUSH1 0x40 DUP4 ADD DUP6 PUSH2 0x4686 JUMP JUMPDEST PUSH2 0x4758 PUSH1 0x60 DUP4 ADD DUP5 PUSH2 0x4686 JUMP JUMPDEST SWAP6 SWAP5 POP POP POP POP POP JUMP JUMPDEST PUSH1 0x0 DUP1 PUSH1 0x0 PUSH1 0x60 DUP5 DUP7 SUB SLT ISZERO PUSH2 0x477A JUMPI PUSH2 0x4779 PUSH2 0x45E7 JUMP JUMPDEST JUMPDEST PUSH1 0x0 PUSH2 0x4788 DUP7 DUP3 DUP8 ADD PUSH2 0x463A JUMP JUMPDEST SWAP4 POP POP PUSH1 0x20 PUSH2 0x4799 DUP7 DUP3 DUP8 ADD PUSH2 0x463A JUMP JUMPDEST SWAP3 POP POP PUSH1 0x40 PUSH2 0x47AA DUP7 DUP3 DUP8 ADD PUSH2 0x46C7 JUMP JUMPDEST SWAP2 POP POP SWAP3 POP SWAP3 POP SWAP3 JUMP JUMPDEST PUSH1 0x0 DUP1 REVERT JUMPDEST PUSH1 0x0 DUP1 REVERT JUMPDEST PUSH1 0x0 DUP1 REVERT JUMPDEST PUSH1 0x0 DUP1 DUP4 PUSH1 0x1F DUP5 ADD SLT PUSH2 0x47D9 JUMPI PUSH2 0x47D8 PUSH2 0x47B4 JUMP JUMPDEST JUMPDEST DUP3 CALLDATALOAD SWAP1 POP PUSH8 0xFFFFFFFFFFFFFFFF DUP2 GT ISZERO PUSH2 0x47F6 JUMPI PUSH2 0x47F5 PUSH2 0x47B9 JUMP JUMPDEST JUMPDEST PUSH1 0x20 DUP4 ADD SWAP2 POP DUP4 PUSH1 0x1 DUP3 MUL DUP4 ADD GT ISZERO PUSH2 0x4812 JUMPI PUSH2 0x4811 PUSH2 0x47BE JUMP JUMPDEST JUMPDEST SWAP3 POP SWAP3 SWAP1 POP JUMP JUMPDEST PUSH1 0x0 DUP1 PUSH1 0x0 DUP1 PUSH1 0x0 PUSH1 0x80 DUP7 DUP9 SUB SLT ISZERO PUSH2 0x4835 JUMPI PUSH2 0x4834 PUSH2 0x45E7 JUMP JUMPDEST JUMPDEST PUSH1 0x0 PUSH2 0x4843 DUP9 DUP3 DUP10 ADD PUSH2 0x463A JUMP JUMPDEST SWAP6 POP POP PUSH1 0x20 PUSH2 0x4854 DUP9 DUP3 DUP10 ADD PUSH2 0x463A JUMP JUMPDEST SWAP5 POP POP PUSH1 0x40 PUSH2 0x4865 DUP9 DUP3 DUP10 ADD PUSH2 0x46C7 JUMP JUMPDEST SWAP4 POP POP PUSH1 0x60 DUP7 ADD CALLDATALOAD PUSH8 0xFFFFFFFFFFFFFFFF DUP2 GT ISZERO PUSH2 0x4886 JUMPI PUSH2 0x4885 PUSH2 0x45EC JUMP JUMPDEST JUMPDEST PUSH2 0x4892 DUP9 DUP3 DUP10 ADD PUSH2 0x47C3 JUMP JUMPDEST SWAP3 POP SWAP3 POP POP SWAP3 SWAP6 POP SWAP3 SWAP6 SWAP1 SWAP4 POP JUMP JUMPDEST PUSH1 0x0 PUSH32 0xFFFFFFFF00000000000000000000000000000000000000000000000000000000 DUP3 AND SWAP1 POP SWAP2 SWAP1 POP JUMP JUMPDEST PUSH2 0x48D6 DUP2 PUSH2 0x48A1 JUMP JUMPDEST DUP3 MSTORE POP POP JUMP JUMPDEST PUSH1 0x0 PUSH1 0x20 DUP3 ADD SWAP1 POP PUSH2 0x48F1 PUSH1 0x0 DUP4 ADD DUP5 PUSH2 0x48CD JUMP JUMPDEST SWAP3 SWAP2 POP POP JUMP JUMPDEST PUSH1 0x0 DUP1 PUSH1 0x40 DUP4 DUP6 SUB SLT ISZERO PUSH2 0x490E JUMPI PUSH2 0x490D PUSH2 0x45E7 JUMP JUMPDEST JUMPDEST PUSH1 0x0 PUSH2 0x491C DUP6 DUP3 DUP7 ADD PUSH2 0x46C7 JUMP JUMPDEST SWAP3 POP POP PUSH1 0x20 PUSH2 0x492D DUP6 DUP3 DUP7 ADD PUSH2 0x46C7 JUMP JUMPDEST SWAP2 POP POP SWAP3 POP SWAP3 SWAP1 POP JUMP JUMPDEST PUSH1 0x0 DUP2 ISZERO ISZERO SWAP1 POP SWAP2 SWAP1 POP JUMP JUMPDEST PUSH2 0x494C DUP2 PUSH2 0x4937 JUMP JUMPDEST DUP3 MSTORE POP POP JUMP JUMPDEST PUSH1 0x0 PUSH1 0x20 DUP3 ADD SWAP1 POP PUSH2 0x4967 PUSH1 0x0 DUP4 ADD DUP5 PUSH2 0x4943 JUMP JUMPDEST SWAP3 SWAP2 POP POP JUMP JUMPDEST PUSH1 0x0 DUP1 DUP4 PUSH1 0x1F DUP5 ADD SLT PUSH2 0x4983 JUMPI PUSH2 0x4982 PUSH2 0x47B4 JUMP JUMPDEST JUMPDEST DUP3 CALLDATALOAD SWAP1 POP PUSH8 0xFFFFFFFFFFFFFFFF DUP2 GT ISZERO PUSH2 0x49A0 JUMPI PUSH2 0x499F PUSH2 0x47B9 JUMP JUMPDEST JUMPDEST PUSH1 0x20 DUP4 ADD SWAP2 POP DUP4 PUSH1 0x1 DUP3 MUL DUP4 ADD GT ISZERO PUSH2 0x49BC JUMPI PUSH2 0x49BB PUSH2 0x47BE JUMP JUMPDEST JUMPDEST SWAP3 POP SWAP3 SWAP1 POP JUMP JUMPDEST PUSH2 0x49CC DUP2 PUSH2 0x4937 JUMP JUMPDEST DUP2 EQ PUSH2 0x49D7 JUMPI PUSH1 0x0 DUP1 REVERT JUMPDEST POP JUMP JUMPDEST PUSH1 0x0 DUP2 CALLDATALOAD SWAP1 POP PUSH2 0x49E9 DUP2 PUSH2 0x49C3 JUMP JUMPDEST SWAP3 SWAP2 POP POP JUMP JUMPDEST PUSH1 0x0 DUP1 PUSH1 0x0 PUSH1 0x40 DUP5 DUP7 SUB SLT ISZERO PUSH2 0x4A08 JUMPI PUSH2 0x4A07 PUSH2 0x45E7 JUMP JUMPDEST JUMPDEST PUSH1 0x0 DUP5 ADD CALLDATALOAD PUSH8 0xFFFFFFFFFFFFFFFF DUP2 GT ISZERO PUSH2 0x4A26 JUMPI PUSH2 0x4A25 PUSH2 0x45EC JUMP JUMPDEST JUMPDEST PUSH2 0x4A32 DUP7 DUP3 DUP8 ADD PUSH2 0x496D JUMP JUMPDEST SWAP4 POP SWAP4 POP POP PUSH1 0x20 PUSH2 0x4A45 DUP7 DUP3 DUP8 ADD PUSH2 0x49DA JUMP JUMPDEST SWAP2 POP POP SWAP3 POP SWAP3 POP SWAP3 JUMP JUMPDEST PUSH32 0x4E487B7100000000000000000000000000000000000000000000000000000000 PUSH1 0x0 MSTORE PUSH1 0x21 PUSH1 0x4 MSTORE PUSH1 0x24 PUSH1 0x0 REVERT JUMPDEST PUSH1 0x2 DUP2 LT PUSH2 0x4A8F JUMPI PUSH2 0x4A8E PUSH2 0x4A4F JUMP JUMPDEST JUMPDEST POP JUMP JUMPDEST PUSH1 0x0 DUP2 SWAP1 POP PUSH2 0x4AA0 DUP3 PUSH2 0x4A7E JUMP JUMPDEST SWAP2 SWAP1 POP JUMP JUMPDEST PUSH1 0x0 PUSH2 0x4AB0 DUP3 PUSH2 0x4A92 JUMP JUMPDEST SWAP1 POP SWAP2 SWAP1 POP JUMP JUMPDEST PUSH2 0x4AC0 DUP2 PUSH2 0x4AA5 JUMP JUMPDEST DUP3 MSTORE POP POP JUMP JUMPDEST PUSH1 0x0 PUSH1 0x40 DUP3 ADD SWAP1 POP PUSH2 0x4ADB PUSH1 0x0 DUP4 ADD DUP6 PUSH2 0x4943 JUMP JUMPDEST PUSH2 0x4AE8 PUSH1 0x20 DUP4 ADD DUP5 PUSH2 0x4AB7 JUMP JUMPDEST SWAP4 SWAP3 POP POP POP JUMP JUMPDEST PUSH1 0x0 PUSH1 0x20 DUP3 DUP5 SUB SLT ISZERO PUSH2 0x4B05 JUMPI PUSH2 0x4B04 PUSH2 0x45E7 JUMP JUMPDEST JUMPDEST PUSH1 0x0 PUSH2 0x4B13 DUP5 DUP3 DUP6 ADD PUSH2 0x46C7 JUMP JUMPDEST SWAP2 POP POP SWAP3 SWAP2 POP POP JUMP JUMPDEST PUSH1 0x0 DUP2 MLOAD SWAP1 POP SWAP2 SWAP1 POP JUMP JUMPDEST PUSH1 0x0 DUP3 DUP3 MSTORE PUSH1 0x20 DUP3 ADD SWAP1 POP SWAP3 SWAP2 POP POP JUMP JUMPDEST PUSH1 0x0 DUP2 SWAP1 POP PUSH1 0x20 DUP3 ADD SWAP1 POP SWAP2 SWAP1 POP JUMP JUMPDEST PUSH2 0x4B51 DUP2 PUSH2 0x4611 JUMP JUMPDEST DUP3 MSTORE POP POP JUMP JUMPDEST PUSH2 0x4B60 DUP2 PUSH2 0x467C JUMP JUMPDEST DUP3 MSTORE POP POP JUMP JUMPDEST PUSH1 0x40 DUP3 ADD PUSH1 0x0 DUP3 ADD MLOAD PUSH2 0x4B7C PUSH1 0x0 DUP6 ADD DUP3 PUSH2 0x4B48 JUMP JUMPDEST POP PUSH1 0x20 DUP3 ADD MLOAD PUSH2 0x4B8F PUSH1 0x20 DUP6 ADD DUP3 PUSH2 0x4B57 JUMP JUMPDEST POP POP POP POP JUMP JUMPDEST PUSH1 0x0 PUSH2 0x4BA1 DUP4 DUP4 PUSH2 0x4B66 JUMP JUMPDEST PUSH1 0x40 DUP4 ADD SWAP1 POP SWAP3 SWAP2 POP POP JUMP JUMPDEST PUSH1 0x0 PUSH1 0x20 DUP3 ADD SWAP1 POP SWAP2 SWAP1 POP JUMP JUMPDEST PUSH1 0x0 PUSH2 0x4BC5 DUP3 PUSH2 0x4B1C JUMP JUMPDEST PUSH2 0x4BCF DUP2 DUP6 PUSH2 0x4B27 JUMP JUMPDEST SWAP4 POP PUSH2 0x4BDA DUP4 PUSH2 0x4B38 JUMP JUMPDEST DUP1 PUSH1 0x0 JUMPDEST DUP4 DUP2 LT ISZERO PUSH2 0x4C0B JUMPI DUP2 MLOAD PUSH2 0x4BF2 DUP9 DUP3 PUSH2 0x4B95 JUMP JUMPDEST SWAP8 POP PUSH2 0x4BFD DUP4 PUSH2 0x4BAD JUMP JUMPDEST SWAP3 POP POP PUSH1 0x1 DUP2 ADD SWAP1 POP PUSH2 0x4BDE JUMP JUMPDEST POP DUP6 SWAP4 POP POP POP POP SWAP3 SWAP2 POP POP JUMP JUMPDEST PUSH1 0x0 PUSH1 0x20 DUP3 ADD SWAP1 POP DUP2 DUP2 SUB PUSH1 0x0 DUP4 ADD MSTORE PUSH2 0x4C32 DUP2 DUP5 PUSH2 0x4BBA JUMP JUMPDEST SWAP1 POP SWAP3 SWAP2 POP POP JUMP JUMPDEST PUSH1 0x2 DUP2 LT PUSH2 0x4C47 JUMPI PUSH1 0x0 DUP1 REVERT JUMPDEST POP JUMP JUMPDEST PUSH1 0x0 DUP2 CALLDATALOAD SWAP1 POP PUSH2 0x4C59 DUP2 PUSH2 0x4C3A JUMP JUMPDEST SWAP3 SWAP2 POP POP JUMP JUMPDEST PUSH1 0x0 DUP1 PUSH1 0x0 PUSH1 0x60 DUP5 DUP7 SUB SLT ISZERO PUSH2 0x4C78 JUMPI PUSH2 0x4C77 PUSH2 0x45E7 JUMP JUMPDEST JUMPDEST PUSH1 0x0 PUSH2 0x4C86 DUP7 DUP3 DUP8 ADD PUSH2 0x463A JUMP JUMPDEST SWAP4 POP POP PUSH1 0x20 PUSH2 0x4C97 DUP7 DUP3 DUP8 ADD PUSH2 0x49DA JUMP JUMPDEST SWAP3 POP POP PUSH1 0x40 PUSH2 0x4CA8 DUP7 DUP3 DUP8 ADD PUSH2 0x4C4A JUMP JUMPDEST SWAP2 POP POP SWAP3 POP SWAP3 POP SWAP3 JUMP JUMPDEST PUSH1 0x0 PUSH1 0xE0 DUP3 ADD SWAP1 POP PUSH2 0x4CC7 PUSH1 0x0 DUP4 ADD DUP11 PUSH2 0x4686 JUMP JUMPDEST PUSH2 0x4CD4 PUSH1 0x20 DUP4 ADD DUP10 PUSH2 0x4686 JUMP JUMPDEST PUSH2 0x4CE1 PUSH1 0x40 DUP4 ADD DUP9 PUSH2 0x4686 JUMP JUMPDEST PUSH2 0x4CEE PUSH1 0x60 DUP4 ADD DUP8 PUSH2 0x4686 JUMP JUMPDEST PUSH2 0x4CFB PUSH1 0x80 DUP4 ADD DUP7 PUSH2 0x4686 JUMP JUMPDEST PUSH2 0x4D08 PUSH1 0xA0 DUP4 ADD DUP6 PUSH2 0x4943 JUMP JUMPDEST PUSH2 0x4D15 PUSH1 0xC0 DUP4 ADD DUP5 PUSH2 0x4686 JUMP JUMPDEST SWAP9 SWAP8 POP POP POP POP POP POP POP POP JUMP JUMPDEST PUSH2 0x4D2A DUP2 PUSH2 0x4611 JUMP JUMPDEST DUP3 MSTORE POP POP JUMP JUMPDEST PUSH1 0x0 PUSH1 0x20 DUP3 ADD SWAP1 POP PUSH2 0x4D45 PUSH1 0x0 DUP4 ADD DUP5 PUSH2 0x4D21 JUMP JUMPDEST SWAP3 SWAP2 POP POP JUMP JUMPDEST PUSH1 0x0 PUSH1 0x60 DUP3 ADD SWAP1 POP PUSH2 0x4D60 PUSH1 0x0 DUP4 ADD DUP7 PUSH2 0x4686 JUMP JUMPDEST PUSH2 0x4D6D PUSH1 0x20 DUP4 ADD DUP6 PUSH2 0x4686 JUMP JUMPDEST PUSH2 0x4D7A PUSH1 0x40 DUP4 ADD DUP5 PUSH2 0x4686 JUMP JUMPDEST SWAP5 SWAP4 POP POP POP POP JUMP JUMPDEST PUSH1 0x0 DUP2 SWAP1 POP SWAP2 SWAP1 POP JUMP JUMPDEST PUSH2 0x4D95 DUP2 PUSH2 0x4D82 JUMP JUMPDEST DUP2 EQ PUSH2 0x4DA0 JUMPI PUSH1 0x0 DUP1 REVERT JUMPDEST POP JUMP JUMPDEST PUSH1 0x0 DUP2 CALLDATALOAD SWAP1 POP PUSH2 0x4DB2 DUP2 PUSH2 0x4D8C JUMP JUMPDEST SWAP3 SWAP2 POP POP JUMP JUMPDEST PUSH1 0x0 PUSH1 0x20 DUP3 DUP5 SUB SLT ISZERO PUSH2 0x4DCE JUMPI PUSH2 0x4DCD PUSH2 0x45E7 JUMP JUMPDEST JUMPDEST PUSH1 0x0 PUSH2 0x4DDC DUP5 DUP3 DUP6 ADD PUSH2 0x4DA3 JUMP JUMPDEST SWAP2 POP POP SWAP3 SWAP2 POP POP JUMP JUMPDEST PUSH1 0x0 PUSH1 0x40 DUP3 ADD SWAP1 POP PUSH2 0x4DFA PUSH1 0x0 DUP4 ADD DUP6 PUSH2 0x4686 JUMP JUMPDEST PUSH2 0x4E07 PUSH1 0x20 DUP4 ADD DUP5 PUSH2 0x4686 JUMP JUMPDEST SWAP4 SWAP3 POP POP POP JUMP JUMPDEST PUSH1 0x0 DUP1 DUP4 PUSH1 0x1F DUP5 ADD SLT PUSH2 0x4E24 JUMPI PUSH2 0x4E23 PUSH2 0x47B4 JUMP JUMPDEST JUMPDEST DUP3 CALLDATALOAD SWAP1 POP PUSH8 0xFFFFFFFFFFFFFFFF DUP2 GT ISZERO PUSH2 0x4E41 JUMPI PUSH2 0x4E40 PUSH2 0x47B9 JUMP JUMPDEST JUMPDEST PUSH1 0x20 DUP4 ADD SWAP2 POP DUP4 PUSH1 0x20 DUP3 MUL DUP4 ADD GT ISZERO PUSH2 0x4E5D JUMPI PUSH2 0x4E5C PUSH2 0x47BE JUMP JUMPDEST JUMPDEST SWAP3 POP SWAP3 SWAP1 POP JUMP JUMPDEST PUSH1 0x0 DUP1 PUSH1 0x0 DUP1 PUSH1 0x60 DUP6 DUP8 SUB SLT ISZERO PUSH2 0x4E7E JUMPI PUSH2 0x4E7D PUSH2 0x45E7 JUMP JUMPDEST JUMPDEST PUSH1 0x0 PUSH2 0x4E8C DUP8 DUP3 DUP9 ADD PUSH2 0x463A JUMP JUMPDEST SWAP5 POP POP PUSH1 0x20 DUP6 ADD CALLDATALOAD PUSH8 0xFFFFFFFFFFFFFFFF DUP2 GT ISZERO PUSH2 0x4EAD JUMPI PUSH2 0x4EAC PUSH2 0x45EC JUMP JUMPDEST JUMPDEST PUSH2 0x4EB9 DUP8 DUP3 DUP9 ADD PUSH2 0x4E0E JUMP JUMPDEST SWAP4 POP SWAP4 POP POP PUSH1 0x40 PUSH2 0x4ECC DUP8 DUP3 DUP9 ADD PUSH2 0x49DA JUMP JUMPDEST SWAP2 POP POP SWAP3 SWAP6 SWAP2 SWAP5 POP SWAP3 POP JUMP JUMPDEST PUSH1 0x0 DUP2 SWAP1 POP SWAP2 SWAP1 POP JUMP JUMPDEST PUSH1 0x0 PUSH2 0x4EFD PUSH2 0x4EF8 PUSH2 0x4EF3 DUP5 PUSH2 0x45F1 JUMP JUMPDEST PUSH2 0x4ED8 JUMP JUMPDEST PUSH2 0x45F1 JUMP JUMPDEST SWAP1 POP SWAP2 SWAP1 POP JUMP JUMPDEST PUSH1 0x0 PUSH2 0x4F0F DUP3 PUSH2 0x4EE2 JUMP JUMPDEST SWAP1 POP SWAP2 SWAP1 POP JUMP JUMPDEST PUSH1 0x0 PUSH2 0x4F21 DUP3 PUSH2 0x4F04 JUMP JUMPDEST SWAP1 POP SWAP2 SWAP1 POP JUMP JUMPDEST PUSH2 0x4F31 DUP2 PUSH2 0x4F16 JUMP JUMPDEST DUP3 MSTORE POP POP JUMP JUMPDEST PUSH1 0x0 PUSH1 0x20 DUP3 ADD SWAP1 POP PUSH2 0x4F4C PUSH1 0x0 DUP4 ADD DUP5 PUSH2 0x4F28 JUMP JUMPDEST SWAP3 SWAP2 POP POP JUMP JUMPDEST PUSH1 0x0 DUP1 PUSH1 0x20 DUP4 DUP6 SUB SLT ISZERO PUSH2 0x4F69 JUMPI PUSH2 0x4F68 PUSH2 0x45E7 JUMP JUMPDEST JUMPDEST PUSH1 0x0 DUP4 ADD CALLDATALOAD PUSH8 0xFFFFFFFFFFFFFFFF DUP2 GT ISZERO PUSH2 0x4F87 JUMPI PUSH2 0x4F86 PUSH2 0x45EC JUMP JUMPDEST JUMPDEST PUSH2 0x4F93 DUP6 DUP3 DUP7 ADD PUSH2 0x496D JUMP JUMPDEST SWAP3 POP SWAP3 POP POP SWAP3 POP SWAP3 SWAP1 POP JUMP JUMPDEST PUSH1 0x0 DUP1 PUSH1 0x0 PUSH1 0x60 DUP5 DUP7 SUB SLT ISZERO PUSH2 0x4FB8 JUMPI PUSH2 0x4FB7 PUSH2 0x45E7 JUMP JUMPDEST JUMPDEST PUSH1 0x0 PUSH2 0x4FC6 DUP7 DUP3 DUP8 ADD PUSH2 0x463A JUMP JUMPDEST SWAP4 POP POP PUSH1 0x20 PUSH2 0x4FD7 DUP7 DUP3 DUP8 ADD PUSH2 0x46C7 JUMP JUMPDEST SWAP3 POP POP PUSH1 0x40 PUSH2 0x4FE8 DUP7 DUP3 DUP8 ADD PUSH2 0x463A JUMP JUMPDEST SWAP2 POP POP SWAP3 POP SWAP3 POP SWAP3 JUMP JUMPDEST PUSH1 0x0 DUP1 PUSH1 0x0 PUSH1 0x60 DUP5 DUP7 SUB SLT ISZERO PUSH2 0x500B JUMPI PUSH2 0x500A PUSH2 0x45E7 JUMP JUMPDEST JUMPDEST PUSH1 0x0 PUSH2 0x5019 DUP7 DUP3 DUP8 ADD PUSH2 0x463A JUMP JUMPDEST SWAP4 POP POP PUSH1 0x20 PUSH2 0x502A DUP7 DUP3 DUP8 ADD PUSH2 0x46C7 JUMP JUMPDEST SWAP3 POP POP PUSH1 0x40 PUSH2 0x503B DUP7 DUP3 DUP8 ADD PUSH2 0x49DA JUMP JUMPDEST SWAP2 POP POP SWAP3 POP SWAP3 POP SWAP3 JUMP JUMPDEST PUSH32 0x4E487B7100000000000000000000000000000000000000000000000000000000 PUSH1 0x0 MSTORE PUSH1 0x11 PUSH1 0x4 MSTORE PUSH1 0x24 PUSH1 0x0 REVERT JUMPDEST PUSH1 0x0 PUSH2 0x507F DUP3 PUSH2 0x467C JUMP JUMPDEST SWAP2 POP PUSH2 0x508A DUP4 PUSH2 0x467C JUMP JUMPDEST SWAP3 POP DUP3 DUP3 MUL PUSH2 0x5098 DUP2 PUSH2 0x467C JUMP JUMPDEST SWAP2 POP DUP3 DUP3 DIV DUP5 EQ DUP4 ISZERO OR PUSH2 0x50AF JUMPI PUSH2 0x50AE PUSH2 0x5045 JUMP JUMPDEST JUMPDEST POP SWAP3 SWAP2 POP POP JUMP JUMPDEST PUSH32 0x4E487B7100000000000000000000000000000000000000000000000000000000 PUSH1 0x0 MSTORE PUSH1 0x12 PUSH1 0x4 MSTORE PUSH1 0x24 PUSH1 0x0 REVERT JUMPDEST PUSH1 0x0 PUSH2 0x50F0 DUP3 PUSH2 0x467C JUMP JUMPDEST SWAP2 POP PUSH2 0x50FB DUP4 PUSH2 0x467C JUMP JUMPDEST SWAP3 POP DUP3 PUSH2 0x510B JUMPI PUSH2 0x510A PUSH2 0x50B6 JUMP JUMPDEST JUMPDEST DUP3 DUP3 DIV SWAP1 POP SWAP3 SWAP2 POP POP JUMP JUMPDEST PUSH1 0x0 PUSH2 0x5121 DUP3 PUSH2 0x467C JUMP JUMPDEST SWAP2 POP PUSH2 0x512C DUP4 PUSH2 0x467C JUMP JUMPDEST SWAP3 POP DUP3 DUP3 ADD SWAP1 POP DUP1 DUP3 GT ISZERO PUSH2 0x5144 JUMPI PUSH2 0x5143 PUSH2 0x5045 JUMP JUMPDEST JUMPDEST SWAP3 SWAP2 POP POP JUMP JUMPDEST PUSH1 0x0 PUSH2 0x5155 DUP3 PUSH2 0x467C JUMP JUMPDEST SWAP2 POP PUSH2 0x5160 DUP4 PUSH2 0x467C JUMP JUMPDEST SWAP3 POP DUP3 DUP3 SUB SWAP1 POP DUP2 DUP2 GT ISZERO PUSH2 0x5178 JUMPI PUSH2 0x5177 PUSH2 0x5045 JUMP JUMPDEST JUMPDEST SWAP3 SWAP2 POP POP JUMP JUMPDEST PUSH1 0x0 DUP3 DUP3 MSTORE PUSH1 0x20 DUP3 ADD SWAP1 POP SWAP3 SWAP2 POP POP JUMP JUMPDEST PUSH32 0x5354414B45000000000000000000000000000000000000000000000000000000 PUSH1 0x0 DUP3 ADD MSTORE POP JUMP JUMPDEST PUSH1 0x0 PUSH2 0x51C5 PUSH1 0x5 DUP4 PUSH2 0x517E JUMP JUMPDEST SWAP2 POP PUSH2 0x51D0 DUP3 PUSH2 0x518F JUMP JUMPDEST PUSH1 0x20 DUP3 ADD SWAP1 POP SWAP2 SWAP1 POP JUMP JUMPDEST PUSH1 0x0 PUSH1 0x20 DUP3 ADD SWAP1 POP DUP2 DUP2 SUB PUSH1 0x0 DUP4 ADD MSTORE PUSH2 0x51F4 DUP2 PUSH2 0x51B8 JUMP JUMPDEST SWAP1 POP SWAP2 SWAP1 POP JUMP JUMPDEST PUSH32 0x434F524500000000000000000000000000000000000000000000000000000000 PUSH1 0x0 DUP3 ADD MSTORE POP JUMP JUMPDEST PUSH1 0x0 PUSH2 0x5231 PUSH1 0x4 DUP4 PUSH2 0x517E JUMP JUMPDEST SWAP2 POP PUSH2 0x523C DUP3 PUSH2 0x51FB JUMP JUMPDEST PUSH1 0x20 DUP3 ADD SWAP1 POP SWAP2 SWAP1 POP JUMP JUMPDEST PUSH1 0x0 PUSH1 0x20 DUP3 ADD SWAP1 POP DUP2 DUP2 SUB PUSH1 0x0 DUP4 ADD MSTORE PUSH2 0x5260 DUP2 PUSH2 0x5224 JUMP JUMPDEST SWAP1 POP SWAP2 SWAP1 POP JUMP JUMPDEST PUSH32 0x544F300000000000000000000000000000000000000000000000000000000000 PUSH1 0x0 DUP3 ADD MSTORE POP JUMP JUMPDEST PUSH1 0x0 PUSH2 0x529D PUSH1 0x3 DUP4 PUSH2 0x517E JUMP JUMPDEST SWAP2 POP PUSH2 0x52A8 DUP3 PUSH2 0x5267 JUMP JUMPDEST PUSH1 0x20 DUP3 ADD SWAP1 POP SWAP2 SWAP1 POP JUMP JUMPDEST PUSH1 0x0 PUSH1 0x20 DUP3 ADD SWAP1 POP DUP2 DUP2 SUB PUSH1 0x0 DUP4 ADD MSTORE PUSH2 0x52CC DUP2 PUSH2 0x5290 JUMP JUMPDEST SWAP1 POP SWAP2 SWAP1 POP JUMP JUMPDEST PUSH32 0x4E4F524557000000000000000000000000000000000000000000000000000000 PUSH1 0x0 DUP3 ADD MSTORE POP JUMP JUMPDEST PUSH1 0x0 PUSH2 0x5309 PUSH1 0x5 DUP4 PUSH2 0x517E JUMP JUMPDEST SWAP2 POP PUSH2 0x5314 DUP3 PUSH2 0x52D3 JUMP JUMPDEST PUSH1 0x20 DUP3 ADD SWAP1 POP SWAP2 SWAP1 POP JUMP JUMPDEST PUSH1 0x0 PUSH1 0x20 DUP3 ADD SWAP1 POP DUP2 DUP2 SUB PUSH1 0x0 DUP4 ADD MSTORE PUSH2 0x5338 DUP2 PUSH2 0x52FC JUMP JUMPDEST SWAP1 POP SWAP2 SWAP1 POP JUMP JUMPDEST PUSH32 0x4455523000000000000000000000000000000000000000000000000000000000 PUSH1 0x0 DUP3 ADD MSTORE POP JUMP JUMPDEST PUSH1 0x0 PUSH2 0x5375 PUSH1 0x4 DUP4 PUSH2 0x517E JUMP JUMPDEST SWAP2 POP PUSH2 0x5380 DUP3 PUSH2 0x533F JUMP JUMPDEST PUSH1 0x20 DUP3 ADD SWAP1 POP SWAP2 SWAP1 POP JUMP JUMPDEST PUSH1 0x0 PUSH1 0x20 DUP3 ADD SWAP1 POP DUP2 DUP2 SUB PUSH1 0x0 DUP4 ADD MSTORE PUSH2 0x53A4 DUP2 PUSH2 0x5368 JUMP JUMPDEST SWAP1 POP SWAP2 SWAP1 POP JUMP JUMPDEST PUSH32 0x4E4F534348000000000000000000000000000000000000000000000000000000 PUSH1 0x0 DUP3 ADD MSTORE POP JUMP JUMPDEST PUSH1 0x0 PUSH2 0x53E1 PUSH1 0x5 DUP4 PUSH2 0x517E JUMP JUMPDEST SWAP2 POP PUSH2 0x53EC DUP3 PUSH2 0x53AB JUMP JUMPDEST PUSH1 0x20 DUP3 ADD SWAP1 POP SWAP2 SWAP1 POP JUMP JUMPDEST PUSH1 0x0 PUSH1 0x20 DUP3 ADD SWAP1 POP DUP2 DUP2 SUB PUSH1 0x0 DUP4 ADD MSTORE PUSH2 0x5410 DUP2 PUSH2 0x53D4 JUMP JUMPDEST SWAP1 POP SWAP2 SWAP1 POP JUMP JUMPDEST PUSH32 0x5250423000000000000000000000000000000000000000000000000000000000 PUSH1 0x0 DUP3 ADD MSTORE POP JUMP JUMPDEST PUSH1 0x0 PUSH2 0x544D PUSH1 0x4 DUP4 PUSH2 0x517E JUMP JUMPDEST SWAP2 POP PUSH2 0x5458 DUP3 PUSH2 0x5417 JUMP JUMPDEST PUSH1 0x20 DUP3 ADD SWAP1 POP SWAP2 SWAP1 POP JUMP JUMPDEST PUSH1 0x0 PUSH1 0x20 DUP3 ADD SWAP1 POP DUP2 DUP2 SUB PUSH1 0x0 DUP4 ADD MSTORE PUSH2 0x547C DUP2 PUSH2 0x5440 JUMP JUMPDEST SWAP1 POP SWAP2 SWAP1 POP JUMP JUMPDEST PUSH1 0x0 PUSH1 0xA0 DUP3 ADD SWAP1 POP PUSH2 0x5498 PUSH1 0x0 DUP4 ADD DUP9 PUSH2 0x4686 JUMP JUMPDEST PUSH2 0x54A5 PUSH1 0x20 DUP4 ADD DUP8 PUSH2 0x4686 JUMP JUMPDEST PUSH2 0x54B2 PUSH1 0x40 DUP4 ADD DUP7 PUSH2 0x4686 JUMP JUMPDEST PUSH2 0x54BF PUSH1 0x60 DUP4 ADD DUP6 PUSH2 0x4686 JUMP JUMPDEST PUSH2 0x54CC PUSH1 0x80 DUP4 ADD DUP5 PUSH2 0x4686 JUMP JUMPDEST SWAP7 SWAP6 POP POP POP POP POP POP JUMP JUMPDEST PUSH1 0x0 DUP2 SWAP1 POP SWAP3 SWAP2 POP POP JUMP JUMPDEST DUP3 DUP2 DUP4 CALLDATACOPY PUSH1 0x0 DUP4 DUP4 ADD MSTORE POP POP POP JUMP JUMPDEST PUSH1 0x0 PUSH2 0x54FC DUP4 DUP6 PUSH2 0x54D6 JUMP JUMPDEST SWAP4 POP PUSH2 0x5509 DUP4 DUP6 DUP5 PUSH2 0x54E1 JUMP JUMPDEST DUP3 DUP5 ADD SWAP1 POP SWAP4 SWAP3 POP POP POP JUMP JUMPDEST PUSH1 0x0 PUSH2 0x5522 DUP3 DUP5 DUP7 PUSH2 0x54F0 JUMP JUMPDEST SWAP2 POP DUP2 SWAP1 POP SWAP4 SWAP3 POP POP POP JUMP JUMPDEST PUSH1 0x0 PUSH1 0x1F NOT PUSH1 0x1F DUP4 ADD AND SWAP1 POP SWAP2 SWAP1 POP JUMP JUMPDEST PUSH1 0x0 PUSH2 0x554B DUP4 DUP6 PUSH2 0x517E JUMP JUMPDEST SWAP4 POP PUSH2 0x5558 DUP4 DUP6 DUP5 PUSH2 0x54E1 JUMP JUMPDEST PUSH2 0x5561 DUP4 PUSH2 0x552E JUMP JUMPDEST DUP5 ADD SWAP1 POP SWAP4 SWAP3 POP POP POP JUMP JUMPDEST PUSH1 0x0 PUSH1 0x40 DUP3 ADD SWAP1 POP DUP2 DUP2 SUB PUSH1 0x0 DUP4 ADD MSTORE PUSH2 0x5587 DUP2 DUP6 DUP8 PUSH2 0x553F JUMP JUMPDEST SWAP1 POP PUSH2 0x5596 PUSH1 0x20 DUP4 ADD DUP5 PUSH2 0x4943 JUMP JUMPDEST SWAP5 SWAP4 POP POP POP POP JUMP JUMPDEST PUSH32 0x414D543000000000000000000000000000000000000000000000000000000000 PUSH1 0x0 DUP3 ADD MSTORE POP JUMP JUMPDEST PUSH1 0x0 PUSH2 0x55D4 PUSH1 0x4 DUP4 PUSH2 0x517E JUMP JUMPDEST SWAP2 POP PUSH2 0x55DF DUP3 PUSH2 0x559E JUMP JUMPDEST PUSH1 0x20 DUP3 ADD SWAP1 POP SWAP2 SWAP1 POP JUMP JUMPDEST PUSH1 0x0 PUSH1 0x20 DUP3 ADD SWAP1 POP DUP2 DUP2 SUB PUSH1 0x0 DUP4 ADD MSTORE PUSH2 0x5603 DUP2 PUSH2 0x55C7 JUMP JUMPDEST SWAP1 POP SWAP2 SWAP1 POP JUMP JUMPDEST PUSH32 0x4E46545245510000000000000000000000000000000000000000000000000000 PUSH1 0x0 DUP3 ADD MSTORE POP JUMP JUMPDEST PUSH1 0x0 PUSH2 0x5640 PUSH1 0x6 DUP4 PUSH2 0x517E JUMP JUMPDEST SWAP2 POP PUSH2 0x564B DUP3 PUSH2 0x560A JUMP JUMPDEST PUSH1 0x20 DUP3 ADD SWAP1 POP SWAP2 SWAP1 POP JUMP JUMPDEST PUSH1 0x0 PUSH1 0x20 DUP3 ADD SWAP1 POP DUP2 DUP2 SUB PUSH1 0x0 DUP4 ADD MSTORE PUSH2 0x566F DUP2 PUSH2 0x5633 JUMP JUMPDEST SWAP1 POP SWAP2 SWAP1 POP JUMP JUMPDEST PUSH32 0x4D4158434F524500000000000000000000000000000000000000000000000000 PUSH1 0x0 DUP3 ADD MSTORE POP JUMP JUMPDEST PUSH1 0x0 PUSH2 0x56AC PUSH1 0x7 DUP4 PUSH2 0x517E JUMP JUMPDEST SWAP2 POP PUSH2 0x56B7 DUP3 PUSH2 0x5676 JUMP JUMPDEST PUSH1 0x20 DUP3 ADD SWAP1 POP SWAP2 SWAP1 POP JUMP JUMPDEST PUSH1 0x0 PUSH1 0x20 DUP3 ADD SWAP1 POP DUP2 DUP2 SUB PUSH1 0x0 DUP4 ADD MSTORE PUSH2 0x56DB DUP2 PUSH2 0x569F JUMP JUMPDEST SWAP1 POP SWAP2 SWAP1 POP JUMP JUMPDEST PUSH32 0x4E4F544E46540000000000000000000000000000000000000000000000000000 PUSH1 0x0 DUP3 ADD MSTORE POP JUMP JUMPDEST PUSH1 0x0 PUSH2 0x5718 PUSH1 0x6 DUP4 PUSH2 0x517E JUMP JUMPDEST SWAP2 POP PUSH2 0x5723 DUP3 PUSH2 0x56E2 JUMP JUMPDEST PUSH1 0x20 DUP3 ADD SWAP1 POP SWAP2 SWAP1 POP JUMP JUMPDEST PUSH1 0x0 PUSH1 0x20 DUP3 ADD SWAP1 POP DUP2 DUP2 SUB PUSH1 0x0 DUP4 ADD MSTORE PUSH2 0x5747 DUP2 PUSH2 0x570B JUMP JUMPDEST SWAP1 POP SWAP2 SWAP1 POP JUMP JUMPDEST PUSH32 0x4B4545504E465400000000000000000000000000000000000000000000000000 PUSH1 0x0 DUP3 ADD MSTORE POP JUMP JUMPDEST PUSH1 0x0 PUSH2 0x5784 PUSH1 0x7 DUP4 PUSH2 0x517E JUMP JUMPDEST SWAP2 POP PUSH2 0x578F DUP3 PUSH2 0x574E JUMP JUMPDEST PUSH1 0x20 DUP3 ADD SWAP1 POP SWAP2 SWAP1 POP JUMP JUMPDEST PUSH1 0x0 PUSH1 0x20 DUP3 ADD SWAP1 POP DUP2 DUP2 SUB PUSH1 0x0 DUP4 ADD MSTORE PUSH2 0x57B3 DUP2 PUSH2 0x5777 JUMP JUMPDEST SWAP1 POP SWAP2 SWAP1 POP JUMP JUMPDEST PUSH1 0x0 PUSH1 0x60 DUP3 ADD SWAP1 POP PUSH2 0x57CF PUSH1 0x0 DUP4 ADD DUP7 PUSH2 0x4D21 JUMP JUMPDEST PUSH2 0x57DC PUSH1 0x20 DUP4 ADD DUP6 PUSH2 0x4D21 JUMP JUMPDEST PUSH2 0x57E9 PUSH1 0x40 DUP4 ADD DUP5 PUSH2 0x4686 JUMP JUMPDEST SWAP5 SWAP4 POP POP POP POP JUMP JUMPDEST PUSH32 0x434F4C3000000000000000000000000000000000000000000000000000000000 PUSH1 0x0 DUP3 ADD MSTORE POP JUMP JUMPDEST PUSH1 0x0 PUSH2 0x5827 PUSH1 0x4 DUP4 PUSH2 0x517E JUMP JUMPDEST SWAP2 POP PUSH2 0x5832 DUP3 PUSH2 0x57F1 JUMP JUMPDEST PUSH1 0x20 DUP3 ADD SWAP1 POP SWAP2 SWAP1 POP JUMP JUMPDEST PUSH1 0x0 PUSH1 0x20 DUP3 ADD SWAP1 POP DUP2 DUP2 SUB PUSH1 0x0 DUP4 ADD MSTORE PUSH2 0x5856 DUP2 PUSH2 0x581A JUMP JUMPDEST SWAP1 POP SWAP2 SWAP1 POP JUMP JUMPDEST PUSH32 0x4241444E46540000000000000000000000000000000000000000000000000000 PUSH1 0x0 DUP3 ADD MSTORE POP JUMP JUMPDEST PUSH1 0x0 PUSH2 0x5893 PUSH1 0x6 DUP4 PUSH2 0x517E JUMP JUMPDEST SWAP2 POP PUSH2 0x589E DUP3 PUSH2 0x585D JUMP JUMPDEST PUSH1 0x20 DUP3 ADD SWAP1 POP SWAP2 SWAP1 POP JUMP JUMPDEST PUSH1 0x0 PUSH1 0x20 DUP3 ADD SWAP1 POP DUP2 DUP2 SUB PUSH1 0x0 DUP4 ADD MSTORE PUSH2 0x58C2 DUP2 PUSH2 0x5886 JUMP JUMPDEST SWAP1 POP SWAP2 SWAP1 POP JUMP JUMPDEST PUSH32 0x4D41584E46540000000000000000000000000000000000000000000000000000 PUSH1 0x0 DUP3 ADD MSTORE POP JUMP JUMPDEST PUSH1 0x0 PUSH2 0x58FF PUSH1 0x6 DUP4 PUSH2 0x517E JUMP JUMPDEST SWAP2 POP PUSH2 0x590A DUP3 PUSH2 0x58C9 JUMP JUMPDEST PUSH1 0x20 DUP3 ADD SWAP1 POP SWAP2 SWAP1 POP JUMP JUMPDEST PUSH1 0x0 PUSH1 0x20 DUP3 ADD SWAP1 POP DUP2 DUP2 SUB PUSH1 0x0 DUP4 ADD MSTORE PUSH2 0x592E DUP2 PUSH2 0x58F2 JUMP JUMPDEST SWAP1 POP SWAP2 SWAP1 POP JUMP JUMPDEST PUSH32 0x4455504E46540000000000000000000000000000000000000000000000000000 PUSH1 0x0 DUP3 ADD MSTORE POP JUMP JUMPDEST PUSH1 0x0 PUSH2 0x596B PUSH1 0x6 DUP4 PUSH2 0x517E JUMP JUMPDEST SWAP2 POP PUSH2 0x5976 DUP3 PUSH2 0x5935 JUMP JUMPDEST PUSH1 0x20 DUP3 ADD SWAP1 POP SWAP2 SWAP1 POP JUMP JUMPDEST PUSH1 0x0 PUSH1 0x20 DUP3 ADD SWAP1 POP DUP2 DUP2 SUB PUSH1 0x0 DUP4 ADD MSTORE PUSH2 0x599A DUP2 PUSH2 0x595E JUMP JUMPDEST SWAP1 POP SWAP2 SWAP1 POP JUMP JUMPDEST PUSH32 0x4E487B7100000000000000000000000000000000000000000000000000000000 PUSH1 0x0 MSTORE PUSH1 0x32 PUSH1 0x4 MSTORE PUSH1 0x24 PUSH1 0x0 REVERT JUMPDEST PUSH32 0x4E4F504F53000000000000000000000000000000000000000000000000000000 PUSH1 0x0 DUP3 ADD MSTORE POP JUMP JUMPDEST PUSH1 0x0 PUSH2 0x5A06 PUSH1 0x5 DUP4 PUSH2 0x517E JUMP JUMPDEST SWAP2 POP PUSH2 0x5A11 DUP3 PUSH2 0x59D0 JUMP JUMPDEST PUSH1 0x20 DUP3 ADD SWAP1 POP SWAP2 SWAP1 POP JUMP JUMPDEST PUSH1 0x0 PUSH1 0x20 DUP3 ADD SWAP1 POP DUP2 DUP2 SUB PUSH1 0x0 DUP4 ADD MSTORE PUSH2 0x5A35 DUP2 PUSH2 0x59F9 JUMP JUMPDEST SWAP1 POP SWAP2 SWAP1 POP JUMP JUMPDEST PUSH32 0x4E487B7100000000000000000000000000000000000000000000000000000000 PUSH1 0x0 MSTORE PUSH1 0x41 PUSH1 0x4 MSTORE PUSH1 0x24 PUSH1 0x0 REVERT JUMPDEST PUSH32 0x5354414B45440000000000000000000000000000000000000000000000000000 PUSH1 0x0 DUP3 ADD MSTORE POP JUMP JUMPDEST PUSH1 0x0 PUSH2 0x5AA1 PUSH1 0x6 DUP4 PUSH2 0x517E JUMP JUMPDEST SWAP2 POP PUSH2 0x5AAC DUP3 PUSH2 0x5A6B JUMP JUMPDEST PUSH1 0x20 DUP3 ADD SWAP1 POP SWAP2 SWAP1 POP JUMP JUMPDEST PUSH1 0x0 PUSH1 0x20 DUP3 ADD SWAP1 POP DUP2 DUP2 SUB PUSH1 0x0 DUP4 ADD MSTORE PUSH2 0x5AD0 DUP2 PUSH2 0x5A94 JUMP JUMPDEST SWAP1 POP SWAP2 SWAP1 POP JUMP JUMPDEST PUSH1 0x0 PUSH1 0x40 DUP3 ADD SWAP1 POP PUSH2 0x5AEC PUSH1 0x0 DUP4 ADD DUP6 PUSH2 0x4D21 JUMP JUMPDEST PUSH2 0x5AF9 PUSH1 0x20 DUP4 ADD DUP5 PUSH2 0x4686 JUMP JUMPDEST SWAP4 SWAP3 POP POP POP JUMP JUMPDEST PUSH32 0x4E487B7100000000000000000000000000000000000000000000000000000000 PUSH1 0x0 MSTORE PUSH1 0x31 PUSH1 0x4 MSTORE PUSH1 0x24 PUSH1 0x0 REVERT JUMPDEST PUSH32 0x4E4F5F4E46540000000000000000000000000000000000000000000000000000 PUSH1 0x0 DUP3 ADD MSTORE POP JUMP JUMPDEST PUSH1 0x0 PUSH2 0x5B65 PUSH1 0x6 DUP4 PUSH2 0x517E JUMP JUMPDEST SWAP2 POP PUSH2 0x5B70 DUP3 PUSH2 0x5B2F JUMP JUMPDEST PUSH1 0x20 DUP3 ADD SWAP1 POP SWAP2 SWAP1 POP JUMP JUMPDEST PUSH1 0x0 PUSH1 0x20 DUP3 ADD SWAP1 POP DUP2 DUP2 SUB PUSH1 0x0 DUP4 ADD MSTORE PUSH2 0x5B94 DUP2 PUSH2 0x5B58 JUMP JUMPDEST SWAP1 POP SWAP2 SWAP1 POP JUMP JUMPDEST PUSH1 0x0 PUSH1 0x40 DUP3 ADD SWAP1 POP PUSH2 0x5BB0 PUSH1 0x0 DUP4 ADD DUP6 PUSH2 0x4686 JUMP JUMPDEST PUSH2 0x5BBD PUSH1 0x20 DUP4 ADD DUP5 PUSH2 0x4943 JUMP JUMPDEST SWAP4 SWAP3 POP POP POP JUMP JUMPDEST PUSH1 0x0 DUP2 MLOAD SWAP1 POP PUSH2 0x5BD3 DUP2 PUSH2 0x49C3 JUMP JUMPDEST SWAP3 SWAP2 POP POP JUMP JUMPDEST PUSH1 0x0 PUSH1 0x20 DUP3 DUP5 SUB SLT ISZERO PUSH2 0x5BEF JUMPI PUSH2 0x5BEE PUSH2 0x45E7 JUMP JUMPDEST JUMPDEST PUSH1 0x0 PUSH2 0x5BFD DUP5 DUP3 DUP6 ADD PUSH2 0x5BC4 JUMP JUMPDEST SWAP2 POP POP SWAP3 SWAP2 POP POP JUMP JUMPDEST PUSH1 0x0 DUP2 MLOAD SWAP1 POP SWAP2 SWAP1 POP JUMP JUMPDEST PUSH1 0x0 JUMPDEST DUP4 DUP2 LT ISZERO PUSH2 0x5C2F JUMPI DUP1 DUP3 ADD MLOAD DUP2 DUP5 ADD MSTORE PUSH1 0x20 DUP2 ADD SWAP1 POP PUSH2 0x5C14 JUMP JUMPDEST PUSH1 0x0 DUP5 DUP5 ADD MSTORE POP POP POP POP JUMP JUMPDEST PUSH1 0x0 PUSH2 0x5C46 DUP3 PUSH2 0x5C06 JUMP JUMPDEST PUSH2 0x5C50 DUP2 DUP6 PUSH2 0x54D6 JUMP JUMPDEST SWAP4 POP PUSH2 0x5C60 DUP2 DUP6 PUSH1 0x20 DUP7 ADD PUSH2 0x5C11 JUMP JUMPDEST DUP1 DUP5 ADD SWAP2 POP POP SWAP3 SWAP2 POP POP JUMP JUMPDEST PUSH1 0x0 PUSH2 0x5C78 DUP3 DUP5 PUSH2 0x5C3B JUMP JUMPDEST SWAP2 POP DUP2 SWAP1 POP SWAP3 SWAP2 POP POP JUMP INVALID LOG2 PUSH5 0x6970667358 0x22 SLT KECCAK256 PUSH29 0xAC57A7448C4B07A2DE427EF70059BAB1FB6ED49400C72CC29FFE3FF12E EXTCODESIZE 0xE1 PUSH5 0x736F6C6343 STOP ADDMOD XOR STOP CALLER "
		},
		"gasEstimates": {
			"creation": {
				"codeDepositCost": "4747400",
				"executionCost": "infinite",
				"totalCost": "infinite"
			},
			"external": {
				"BLOCKS_PER_YEAR_ESTIMATE()": "463",
				"MAX_CORE_STAKE()": "419",
				"MAX_NFTS_PER_USER()": "397",
				"MIN_STAKE_TIME()": "397",
				"accRewardPerWeight()": "2562",
				"approvedTokenId(address,uint256)": "3199",
				"batchSetApprovedTokenIds(address,uint256[],bool)": "infinite",
				"blocksRemaining()": "infinite",
				"claim()": "infinite",
				"collections(address)": "5419",
				"configureCollection(address,bool,uint8)": "infinite",
				"core()": "infinite",
				"earned(address)": "infinite",
				"endBlock()": "2520",
				"estimatedSecondsRemaining()": "infinite",
				"exit()": "infinite",
				"fundRewards(uint256,uint256)": "infinite",
				"getUser(address)": "infinite",
				"getUserAccounting(address)": "infinite",
				"getUserNFTs(address)": "infinite",
				"isBackgroundWhitelisted(string)": "infinite",
				"isNFTEligible(address,uint256)": "7896",
				"lastRewardBlock()": "2540",
				"lastRewardBlockApplicable()": "4616",
				"nftStaker(address,uint256)": "infinite",
				"onERC721Received(address,address,uint256,bytes)": "infinite",
				"owner()": "2678",
				"pendingEarlyCorePenalty(address,uint256)": "infinite",
				"pendingEarlyRewardSlash(address)": "infinite",
				"queuedRewards()": "2518",
				"recoverERC20(address,address,uint256)": "infinite",
				"renounceOwnership()": "infinite",
				"rescueUnstakedNFT(address,uint256,address)": "infinite",
				"rewardPerBlock()": "2563",
				"rewardsRemainingBySchedule()": "infinite",
				"setApprovedTokenId(address,uint256,bool)": "infinite",
				"setWhitelistedBackground(string,bool)": "infinite",
				"stakeCore(uint256)": "infinite",
				"stakeNFT(address,uint256)": "infinite",
				"totalCoreBurned()": "2584",
				"totalCorePenaltyToPool()": "2518",
				"totalCoreStaked()": "2496",
				"totalRewardWeight()": "2584",
				"totalRewardsFunded()": "2585",
				"totalRewardsPaid()": "2475",
				"totalRewardsSlashedToPool()": "2542",
				"transferOwnership(address)": "infinite",
				"whitelistedBackgroundHash(bytes32)": "2863",
				"withdrawCore(uint256)": "infinite",
				"withdrawNFT(address,uint256)": "infinite"
			},
			"internal": {
				"_addPenaltyToRewards(uint256)": "infinite",
				"_boostForNFTCount(uint256)": "131",
				"_claim(address)": "infinite",
				"_currentAccRewardPerWeight()": "infinite",
				"_isEarly(uint256)": "infinite",
				"_refreshUserWeight(address)": "infinite",
				"_removeUserNFT(struct PlanetZephyrosCoreNftStaking.UserInfo storage pointer,address,uint256)": "infinite"
			}
		},
		"methodIdentifiers": {
			"BLOCKS_PER_YEAR_ESTIMATE()": "58f3d6d0",
			"MAX_CORE_STAKE()": "2d60a36d",
			"MAX_NFTS_PER_USER()": "2b6838b3",
			"MIN_STAKE_TIME()": "5d2ed556",
			"accRewardPerWeight()": "aa6bb09a",
			"approvedTokenId(address,uint256)": "31c2bb51",
			"batchSetApprovedTokenIds(address,uint256[],bool)": "d6316991",
			"blocksRemaining()": "d0863580",
			"claim()": "4e71d92d",
			"collections(address)": "43add2e6",
			"configureCollection(address,bool,uint8)": "639f8994",
			"core()": "f2f4eb26",
			"earned(address)": "008cc262",
			"endBlock()": "083c6323",
			"estimatedSecondsRemaining()": "5ddfd989",
			"exit()": "e9fad8ee",
			"fundRewards(uint256,uint256)": "28662551",
			"getUser(address)": "6f77926b",
			"getUserAccounting(address)": "b1050a24",
			"getUserNFTs(address)": "52de4ee5",
			"isBackgroundWhitelisted(string)": "f413496a",
			"isNFTEligible(address,uint256)": "b2fa49bf",
			"lastRewardBlock()": "a9f8d181",
			"lastRewardBlockApplicable()": "4ccc76ae",
			"nftStaker(address,uint256)": "77aa93ab",
			"onERC721Received(address,address,uint256,bytes)": "150b7a02",
			"owner()": "8da5cb5b",
			"pendingEarlyCorePenalty(address,uint256)": "05d1aebb",
			"pendingEarlyRewardSlash(address)": "7eef7199",
			"queuedRewards()": "63d38c3b",
			"recoverERC20(address,address,uint256)": "1171bda9",
			"renounceOwnership()": "715018a6",
			"rescueUnstakedNFT(address,uint256,address)": "f9b5b664",
			"rewardPerBlock()": "8ae39cac",
			"rewardsRemainingBySchedule()": "84ff0109",
			"setApprovedTokenId(address,uint256,bool)": "fa0c7f3d",
			"setWhitelistedBackground(string,bool)": "39087664",
			"stakeCore(uint256)": "4ff0da48",
			"stakeNFT(address,uint256)": "b13270d5",
			"totalCoreBurned()": "ad9e180c",
			"totalCorePenaltyToPool()": "a1a89efe",
			"totalCoreStaked()": "dfd456aa",
			"totalRewardWeight()": "d64b84b5",
			"totalRewardsFunded()": "591c6f25",
			"totalRewardsPaid()": "74958e35",
			"totalRewardsSlashedToPool()": "0ab9f75f",
			"transferOwnership(address)": "f2fde38b",
			"whitelistedBackgroundHash(bytes32)": "955541f1",
			"withdrawCore(uint256)": "91596e1e",
			"withdrawNFT(address,uint256)": "6088e93a"
		}
	},
	"abi": [
		{
			"inputs": [
				{
					"internalType": "address",
					"name": "coreToken",
					"type": "address"
				}
			],
			"stateMutability": "nonpayable",
			"type": "constructor"
		},
		{
			"inputs": [
				{
					"internalType": "address",
					"name": "target",
					"type": "address"
				}
			],
			"name": "AddressEmptyCode",
			"type": "error"
		},
		{
			"inputs": [
				{
					"internalType": "address",
					"name": "account",
					"type": "address"
				}
			],
			"name": "AddressInsufficientBalance",
			"type": "error"
		},
		{
			"inputs": [],
			"name": "FailedInnerCall",
			"type": "error"
		},
		{
			"inputs": [
				{
					"internalType": "address",
					"name": "owner",
					"type": "address"
				}
			],
			"name": "OwnableInvalidOwner",
			"type": "error"
		},
		{
			"inputs": [
				{
					"internalType": "address",
					"name": "account",
					"type": "address"
				}
			],
			"name": "OwnableUnauthorizedAccount",
			"type": "error"
		},
		{
			"inputs": [],
			"name": "ReentrancyGuardReentrantCall",
			"type": "error"
		},
		{
			"inputs": [
				{
					"internalType": "address",
					"name": "token",
					"type": "address"
				}
			],
			"name": "SafeERC20FailedOperation",
			"type": "error"
		},
		{
			"anonymous": false,
			"inputs": [
				{
					"indexed": false,
					"internalType": "string",
					"name": "background",
					"type": "string"
				},
				{
					"indexed": false,
					"internalType": "bool",
					"name": "allowed",
					"type": "bool"
				}
			],
			"name": "BackgroundWhitelistSet",
			"type": "event"
		},
		{
			"anonymous": false,
			"inputs": [
				{
					"indexed": true,
					"internalType": "address",
					"name": "collection",
					"type": "address"
				},
				{
					"indexed": false,
					"internalType": "bool",
					"name": "whitelisted",
					"type": "bool"
				},
				{
					"indexed": false,
					"internalType": "enum PlanetZephyrosCoreNftStaking.EligibilityMode",
					"name": "mode",
					"type": "uint8"
				}
			],
			"name": "CollectionConfigured",
			"type": "event"
		},
		{
			"anonymous": false,
			"inputs": [
				{
					"indexed": true,
					"internalType": "address",
					"name": "user",
					"type": "address"
				},
				{
					"indexed": false,
					"internalType": "uint256",
					"name": "amount",
					"type": "uint256"
				}
			],
			"name": "CoreStaked",
			"type": "event"
		},
		{
			"anonymous": false,
			"inputs": [
				{
					"indexed": true,
					"internalType": "address",
					"name": "user",
					"type": "address"
				},
				{
					"indexed": false,
					"internalType": "uint256",
					"name": "requestedAmount",
					"type": "uint256"
				},
				{
					"indexed": false,
					"internalType": "uint256",
					"name": "returnedAmount",
					"type": "uint256"
				},
				{
					"indexed": false,
					"internalType": "uint256",
					"name": "penaltyToPool",
					"type": "uint256"
				},
				{
					"indexed": false,
					"internalType": "uint256",
					"name": "penaltyBurned",
					"type": "uint256"
				}
			],
			"name": "CoreWithdrawn",
			"type": "event"
		},
		{
			"anonymous": false,
			"inputs": [
				{
					"indexed": true,
					"internalType": "address",
					"name": "user",
					"type": "address"
				}
			],
			"name": "Exited",
			"type": "event"
		},
		{
			"anonymous": false,
			"inputs": [
				{
					"indexed": true,
					"internalType": "address",
					"name": "user",
					"type": "address"
				},
				{
					"indexed": true,
					"internalType": "address",
					"name": "collection",
					"type": "address"
				},
				{
					"indexed": true,
					"internalType": "uint256",
					"name": "tokenId",
					"type": "uint256"
				}
			],
			"name": "NFTStaked",
			"type": "event"
		},
		{
			"anonymous": false,
			"inputs": [
				{
					"indexed": true,
					"internalType": "address",
					"name": "user",
					"type": "address"
				},
				{
					"indexed": true,
					"internalType": "address",
					"name": "collection",
					"type": "address"
				},
				{
					"indexed": true,
					"internalType": "uint256",
					"name": "tokenId",
					"type": "uint256"
				}
			],
			"name": "NFTWithdrawn",
			"type": "event"
		},
		{
			"anonymous": false,
			"inputs": [
				{
					"indexed": true,
					"internalType": "address",
					"name": "previousOwner",
					"type": "address"
				},
				{
					"indexed": true,
					"internalType": "address",
					"name": "newOwner",
					"type": "address"
				}
			],
			"name": "OwnershipTransferred",
			"type": "event"
		},
		{
			"anonymous": false,
			"inputs": [
				{
					"indexed": false,
					"internalType": "uint256",
					"name": "amount",
					"type": "uint256"
				},
				{
					"indexed": false,
					"internalType": "bool",
					"name": "queued",
					"type": "bool"
				}
			],
			"name": "PenaltyAddedToRewards",
			"type": "event"
		},
		{
			"anonymous": false,
			"inputs": [
				{
					"indexed": true,
					"internalType": "address",
					"name": "user",
					"type": "address"
				},
				{
					"indexed": false,
					"internalType": "uint256",
					"name": "paidAmount",
					"type": "uint256"
				},
				{
					"indexed": false,
					"internalType": "uint256",
					"name": "slashedAmount",
					"type": "uint256"
				}
			],
			"name": "RewardPaid",
			"type": "event"
		},
		{
			"anonymous": false,
			"inputs": [
				{
					"indexed": true,
					"internalType": "address",
					"name": "funder",
					"type": "address"
				},
				{
					"indexed": false,
					"internalType": "uint256",
					"name": "amount",
					"type": "uint256"
				},
				{
					"indexed": false,
					"internalType": "uint256",
					"name": "queuedRewardsUsed",
					"type": "uint256"
				},
				{
					"indexed": false,
					"internalType": "uint256",
					"name": "durationBlocks",
					"type": "uint256"
				},
				{
					"indexed": false,
					"internalType": "uint256",
					"name": "rewardPerBlock",
					"type": "uint256"
				},
				{
					"indexed": false,
					"internalType": "uint256",
					"name": "endBlock",
					"type": "uint256"
				}
			],
			"name": "RewardsFunded",
			"type": "event"
		},
		{
			"anonymous": false,
			"inputs": [
				{
					"indexed": true,
					"internalType": "address",
					"name": "collection",
					"type": "address"
				},
				{
					"indexed": true,
					"internalType": "uint256",
					"name": "tokenId",
					"type": "uint256"
				},
				{
					"indexed": false,
					"internalType": "bool",
					"name": "eligible",
					"type": "bool"
				}
			],
			"name": "TokenEligibilitySet",
			"type": "event"
		},
		{
			"inputs": [],
			"name": "BLOCKS_PER_YEAR_ESTIMATE",
			"outputs": [
				{
					"internalType": "uint256",
					"name": "",
					"type": "uint256"
				}
			],
			"stateMutability": "view",
			"type": "function"
		},
		{
			"inputs": [],
			"name": "MAX_CORE_STAKE",
			"outputs": [
				{
					"internalType": "uint256",
					"name": "",
					"type": "uint256"
				}
			],
			"stateMutability": "view",
			"type": "function"
		},
		{
			"inputs": [],
			"name": "MAX_NFTS_PER_USER",
			"outputs": [
				{
					"internalType": "uint256",
					"name": "",
					"type": "uint256"
				}
			],
			"stateMutability": "view",
			"type": "function"
		},
		{
			"inputs": [],
			"name": "MIN_STAKE_TIME",
			"outputs": [
				{
					"internalType": "uint256",
					"name": "",
					"type": "uint256"
				}
			],
			"stateMutability": "view",
			"type": "function"
		},
		{
			"inputs": [],
			"name": "accRewardPerWeight",
			"outputs": [
				{
					"internalType": "uint256",
					"name": "",
					"type": "uint256"
				}
			],
			"stateMutability": "view",
			"type": "function"
		},
		{
			"inputs": [
				{
					"internalType": "address",
					"name": "",
					"type": "address"
				},
				{
					"internalType": "uint256",
					"name": "",
					"type": "uint256"
				}
			],
			"name": "approvedTokenId",
			"outputs": [
				{
					"internalType": "bool",
					"name": "",
					"type": "bool"
				}
			],
			"stateMutability": "view",
			"type": "function"
		},
		{
			"inputs": [
				{
					"internalType": "address",
					"name": "collection",
					"type": "address"
				},
				{
					"internalType": "uint256[]",
					"name": "tokenIds",
					"type": "uint256[]"
				},
				{
					"internalType": "bool",
					"name": "eligible",
					"type": "bool"
				}
			],
			"name": "batchSetApprovedTokenIds",
			"outputs": [],
			"stateMutability": "nonpayable",
			"type": "function"
		},
		{
			"inputs": [],
			"name": "blocksRemaining",
			"outputs": [
				{
					"internalType": "uint256",
					"name": "",
					"type": "uint256"
				}
			],
			"stateMutability": "view",
			"type": "function"
		},
		{
			"inputs": [],
			"name": "claim",
			"outputs": [],
			"stateMutability": "nonpayable",
			"type": "function"
		},
		{
			"inputs": [
				{
					"internalType": "address",
					"name": "",
					"type": "address"
				}
			],
			"name": "collections",
			"outputs": [
				{
					"internalType": "bool",
					"name": "whitelisted",
					"type": "bool"
				},
				{
					"internalType": "enum PlanetZephyrosCoreNftStaking.EligibilityMode",
					"name": "mode",
					"type": "uint8"
				}
			],
			"stateMutability": "view",
			"type": "function"
		},
		{
			"inputs": [
				{
					"internalType": "address",
					"name": "collection",
					"type": "address"
				},
				{
					"internalType": "bool",
					"name": "whitelisted",
					"type": "bool"
				},
				{
					"internalType": "enum PlanetZephyrosCoreNftStaking.EligibilityMode",
					"name": "mode",
					"type": "uint8"
				}
			],
			"name": "configureCollection",
			"outputs": [],
			"stateMutability": "nonpayable",
			"type": "function"
		},
		{
			"inputs": [],
			"name": "core",
			"outputs": [
				{
					"internalType": "contract ICoreToken",
					"name": "",
					"type": "address"
				}
			],
			"stateMutability": "view",
			"type": "function"
		},
		{
			"inputs": [
				{
					"internalType": "address",
					"name": "account",
					"type": "address"
				}
			],
			"name": "earned",
			"outputs": [
				{
					"internalType": "uint256",
					"name": "",
					"type": "uint256"
				}
			],
			"stateMutability": "view",
			"type": "function"
		},
		{
			"inputs": [],
			"name": "endBlock",
			"outputs": [
				{
					"internalType": "uint256",
					"name": "",
					"type": "uint256"
				}
			],
			"stateMutability": "view",
			"type": "function"
		},
		{
			"inputs": [],
			"name": "estimatedSecondsRemaining",
			"outputs": [
				{
					"internalType": "uint256",
					"name": "",
					"type": "uint256"
				}
			],
			"stateMutability": "view",
			"type": "function"
		},
		{
			"inputs": [],
			"name": "exit",
			"outputs": [],
			"stateMutability": "nonpayable",
			"type": "function"
		},
		{
			"inputs": [
				{
					"internalType": "uint256",
					"name": "amount",
					"type": "uint256"
				},
				{
					"internalType": "uint256",
					"name": "durationBlocks",
					"type": "uint256"
				}
			],
			"name": "fundRewards",
			"outputs": [],
			"stateMutability": "nonpayable",
			"type": "function"
		},
		{
			"inputs": [
				{
					"internalType": "address",
					"name": "account",
					"type": "address"
				}
			],
			"name": "getUser",
			"outputs": [
				{
					"internalType": "uint256",
					"name": "coreStaked",
					"type": "uint256"
				},
				{
					"internalType": "uint256",
					"name": "nftCount",
					"type": "uint256"
				},
				{
					"internalType": "uint256",
					"name": "rewardWeight",
					"type": "uint256"
				},
				{
					"internalType": "uint256",
					"name": "entryTime",
					"type": "uint256"
				},
				{
					"internalType": "uint256",
					"name": "pendingRewards",
					"type": "uint256"
				},
				{
					"internalType": "bool",
					"name": "currentlyEarly",
					"type": "bool"
				},
				{
					"internalType": "uint256",
					"name": "boostBps",
					"type": "uint256"
				}
			],
			"stateMutability": "view",
			"type": "function"
		},
		{
			"inputs": [
				{
					"internalType": "address",
					"name": "account",
					"type": "address"
				}
			],
			"name": "getUserAccounting",
			"outputs": [
				{
					"internalType": "uint256",
					"name": "rewardDebt",
					"type": "uint256"
				},
				{
					"internalType": "uint256",
					"name": "unclaimedRewards",
					"type": "uint256"
				}
			],
			"stateMutability": "view",
			"type": "function"
		},
		{
			"inputs": [
				{
					"internalType": "address",
					"name": "account",
					"type": "address"
				}
			],
			"name": "getUserNFTs",
			"outputs": [
				{
					"components": [
						{
							"internalType": "address",
							"name": "collection",
							"type": "address"
						},
						{
							"internalType": "uint256",
							"name": "tokenId",
							"type": "uint256"
						}
					],
					"internalType": "struct PlanetZephyrosCoreNftStaking.StakedNFT[]",
					"name": "",
					"type": "tuple[]"
				}
			],
			"stateMutability": "view",
			"type": "function"
		},
		{
			"inputs": [
				{
					"internalType": "string",
					"name": "background",
					"type": "string"
				}
			],
			"name": "isBackgroundWhitelisted",
			"outputs": [
				{
					"internalType": "bool",
					"name": "",
					"type": "bool"
				}
			],
			"stateMutability": "view",
			"type": "function"
		},
		{
			"inputs": [
				{
					"internalType": "address",
					"name": "collection",
					"type": "address"
				},
				{
					"internalType": "uint256",
					"name": "tokenId",
					"type": "uint256"
				}
			],
			"name": "isNFTEligible",
			"outputs": [
				{
					"internalType": "bool",
					"name": "",
					"type": "bool"
				}
			],
			"stateMutability": "view",
			"type": "function"
		},
		{
			"inputs": [],
			"name": "lastRewardBlock",
			"outputs": [
				{
					"internalType": "uint256",
					"name": "",
					"type": "uint256"
				}
			],
			"stateMutability": "view",
			"type": "function"
		},
		{
			"inputs": [],
			"name": "lastRewardBlockApplicable",
			"outputs": [
				{
					"internalType": "uint256",
					"name": "",
					"type": "uint256"
				}
			],
			"stateMutability": "view",
			"type": "function"
		},
		{
			"inputs": [
				{
					"internalType": "address",
					"name": "",
					"type": "address"
				},
				{
					"internalType": "uint256",
					"name": "",
					"type": "uint256"
				}
			],
			"name": "nftStaker",
			"outputs": [
				{
					"internalType": "address",
					"name": "",
					"type": "address"
				}
			],
			"stateMutability": "view",
			"type": "function"
		},
		{
			"inputs": [
				{
					"internalType": "address",
					"name": "",
					"type": "address"
				},
				{
					"internalType": "address",
					"name": "",
					"type": "address"
				},
				{
					"internalType": "uint256",
					"name": "",
					"type": "uint256"
				},
				{
					"internalType": "bytes",
					"name": "",
					"type": "bytes"
				}
			],
			"name": "onERC721Received",
			"outputs": [
				{
					"internalType": "bytes4",
					"name": "",
					"type": "bytes4"
				}
			],
			"stateMutability": "pure",
			"type": "function"
		},
		{
			"inputs": [],
			"name": "owner",
			"outputs": [
				{
					"internalType": "address",
					"name": "",
					"type": "address"
				}
			],
			"stateMutability": "view",
			"type": "function"
		},
		{
			"inputs": [
				{
					"internalType": "address",
					"name": "account",
					"type": "address"
				},
				{
					"internalType": "uint256",
					"name": "withdrawAmount",
					"type": "uint256"
				}
			],
			"name": "pendingEarlyCorePenalty",
			"outputs": [
				{
					"internalType": "uint256",
					"name": "totalPenalty",
					"type": "uint256"
				},
				{
					"internalType": "uint256",
					"name": "penaltyToPool",
					"type": "uint256"
				},
				{
					"internalType": "uint256",
					"name": "penaltyBurned",
					"type": "uint256"
				},
				{
					"internalType": "uint256",
					"name": "returnedAmount",
					"type": "uint256"
				}
			],
			"stateMutability": "view",
			"type": "function"
		},
		{
			"inputs": [
				{
					"internalType": "address",
					"name": "account",
					"type": "address"
				}
			],
			"name": "pendingEarlyRewardSlash",
			"outputs": [
				{
					"internalType": "uint256",
					"name": "rewardBeforeSlash",
					"type": "uint256"
				},
				{
					"internalType": "uint256",
					"name": "slashAmount",
					"type": "uint256"
				},
				{
					"internalType": "uint256",
					"name": "rewardAfterSlash",
					"type": "uint256"
				}
			],
			"stateMutability": "view",
			"type": "function"
		},
		{
			"inputs": [],
			"name": "queuedRewards",
			"outputs": [
				{
					"internalType": "uint256",
					"name": "",
					"type": "uint256"
				}
			],
			"stateMutability": "view",
			"type": "function"
		},
		{
			"inputs": [
				{
					"internalType": "address",
					"name": "token",
					"type": "address"
				},
				{
					"internalType": "address",
					"name": "to",
					"type": "address"
				},
				{
					"internalType": "uint256",
					"name": "amount",
					"type": "uint256"
				}
			],
			"name": "recoverERC20",
			"outputs": [],
			"stateMutability": "nonpayable",
			"type": "function"
		},
		{
			"inputs": [],
			"name": "renounceOwnership",
			"outputs": [],
			"stateMutability": "nonpayable",
			"type": "function"
		},
		{
			"inputs": [
				{
					"internalType": "address",
					"name": "collection",
					"type": "address"
				},
				{
					"internalType": "uint256",
					"name": "tokenId",
					"type": "uint256"
				},
				{
					"internalType": "address",
					"name": "to",
					"type": "address"
				}
			],
			"name": "rescueUnstakedNFT",
			"outputs": [],
			"stateMutability": "nonpayable",
			"type": "function"
		},
		{
			"inputs": [],
			"name": "rewardPerBlock",
			"outputs": [
				{
					"internalType": "uint256",
					"name": "",
					"type": "uint256"
				}
			],
			"stateMutability": "view",
			"type": "function"
		},
		{
			"inputs": [],
			"name": "rewardsRemainingBySchedule",
			"outputs": [
				{
					"internalType": "uint256",
					"name": "",
					"type": "uint256"
				}
			],
			"stateMutability": "view",
			"type": "function"
		},
		{
			"inputs": [
				{
					"internalType": "address",
					"name": "collection",
					"type": "address"
				},
				{
					"internalType": "uint256",
					"name": "tokenId",
					"type": "uint256"
				},
				{
					"internalType": "bool",
					"name": "eligible",
					"type": "bool"
				}
			],
			"name": "setApprovedTokenId",
			"outputs": [],
			"stateMutability": "nonpayable",
			"type": "function"
		},
		{
			"inputs": [
				{
					"internalType": "string",
					"name": "background",
					"type": "string"
				},
				{
					"internalType": "bool",
					"name": "allowed",
					"type": "bool"
				}
			],
			"name": "setWhitelistedBackground",
			"outputs": [],
			"stateMutability": "nonpayable",
			"type": "function"
		},
		{
			"inputs": [
				{
					"internalType": "uint256",
					"name": "amount",
					"type": "uint256"
				}
			],
			"name": "stakeCore",
			"outputs": [],
			"stateMutability": "nonpayable",
			"type": "function"
		},
		{
			"inputs": [
				{
					"internalType": "address",
					"name": "collection",
					"type": "address"
				},
				{
					"internalType": "uint256",
					"name": "tokenId",
					"type": "uint256"
				}
			],
			"name": "stakeNFT",
			"outputs": [],
			"stateMutability": "nonpayable",
			"type": "function"
		},
		{
			"inputs": [],
			"name": "totalCoreBurned",
			"outputs": [
				{
					"internalType": "uint256",
					"name": "",
					"type": "uint256"
				}
			],
			"stateMutability": "view",
			"type": "function"
		},
		{
			"inputs": [],
			"name": "totalCorePenaltyToPool",
			"outputs": [
				{
					"internalType": "uint256",
					"name": "",
					"type": "uint256"
				}
			],
			"stateMutability": "view",
			"type": "function"
		},
		{
			"inputs": [],
			"name": "totalCoreStaked",
			"outputs": [
				{
					"internalType": "uint256",
					"name": "",
					"type": "uint256"
				}
			],
			"stateMutability": "view",
			"type": "function"
		},
		{
			"inputs": [],
			"name": "totalRewardWeight",
			"outputs": [
				{
					"internalType": "uint256",
					"name": "",
					"type": "uint256"
				}
			],
			"stateMutability": "view",
			"type": "function"
		},
		{
			"inputs": [],
			"name": "totalRewardsFunded",
			"outputs": [
				{
					"internalType": "uint256",
					"name": "",
					"type": "uint256"
				}
			],
			"stateMutability": "view",
			"type": "function"
		},
		{
			"inputs": [],
			"name": "totalRewardsPaid",
			"outputs": [
				{
					"internalType": "uint256",
					"name": "",
					"type": "uint256"
				}
			],
			"stateMutability": "view",
			"type": "function"
		},
		{
			"inputs": [],
			"name": "totalRewardsSlashedToPool",
			"outputs": [
				{
					"internalType": "uint256",
					"name": "",
					"type": "uint256"
				}
			],
			"stateMutability": "view",
			"type": "function"
		},
		{
			"inputs": [
				{
					"internalType": "address",
					"name": "newOwner",
					"type": "address"
				}
			],
			"name": "transferOwnership",
			"outputs": [],
			"stateMutability": "nonpayable",
			"type": "function"
		},
		{
			"inputs": [
				{
					"internalType": "bytes32",
					"name": "",
					"type": "bytes32"
				}
			],
			"name": "whitelistedBackgroundHash",
			"outputs": [
				{
					"internalType": "bool",
					"name": "",
					"type": "bool"
				}
			],
			"stateMutability": "view",
			"type": "function"
		},
		{
			"inputs": [
				{
					"internalType": "uint256",
					"name": "amount",
					"type": "uint256"
				}
			],
			"name": "withdrawCore",
			"outputs": [],
			"stateMutability": "nonpayable",
			"type": "function"
		},
		{
			"inputs": [
				{
					"internalType": "address",
					"name": "collection",
					"type": "address"
				},
				{
					"internalType": "uint256",
					"name": "tokenId",
					"type": "uint256"
				}
			],
			"name": "withdrawNFT",
			"outputs": [],
			"stateMutability": "nonpayable",
			"type": "function"
		}
	]
}