{
	"data": {
		"bytecode": {
			"linkReferences": {},
			"object": "61018060405261dead73ffffffffffffffffffffffffffffffffffffffff166101009073ffffffffffffffffffffffffffffffffffffffff16815250600073ffffffffffffffffffffffffffffffffffffffff166101209073ffffffffffffffffffffffffffffffffffffffff16815250610bb862ffffff166101609062ffffff168152503480156200009157600080fd5b5060405162003afe38038062003afe8339818101604052810190620000b79190620004db565b826001620000da620000ce6200033360201b60201c565b6200035e60201b60201c565b60000181905550600073ffffffffffffffffffffffffffffffffffffffff168173ffffffffffffffffffffffffffffffffffffffff1603620001565760006040517f1e4fbdf70000000000000000000000000000000000000000000000000000000081526004016200014d9190620005b5565b60405180910390fd5b62000167816200036860201b60201c565b5087600160006101000a81548173ffffffffffffffffffffffffffffffffffffffff021916908373ffffffffffffffffffffffffffffffffffffffff16021790555086600260006101000a81548173ffffffffffffffffffffffffffffffffffffffff021916908373ffffffffffffffffffffffffffffffffffffffff1602179055508573ffffffffffffffffffffffffffffffffffffffff1660a08173ffffffffffffffffffffffffffffffffffffffff16815250508473ffffffffffffffffffffffffffffffffffffffff1660c08173ffffffffffffffffffffffffffffffffffffffff16815250508373ffffffffffffffffffffffffffffffffffffffff1660e08173ffffffffffffffffffffffffffffffffffffffff16815250508173ffffffffffffffffffffffffffffffffffffffff1660808173ffffffffffffffffffffffffffffffffffffffff16815250506001600760006101000a81548160ff0219169083151502179055506001600760016101000a81548160ff0219169083151502179055508073ffffffffffffffffffffffffffffffffffffffff166101408173ffffffffffffffffffffffffffffffffffffffff16815250505050505050505050620005d2565b60007f9b779b17422d0df92223018b32b4d1fa46e071723d6817e2486d003becc55f0060001b905090565b6000819050919050565b60008060009054906101000a900473ffffffffffffffffffffffffffffffffffffffff169050816000806101000a81548173ffffffffffffffffffffffffffffffffffffffff021916908373ffffffffffffffffffffffffffffffffffffffff1602179055508173ffffffffffffffffffffffffffffffffffffffff168173ffffffffffffffffffffffffffffffffffffffff167f8be0079c531659141344cd1fd0a4f28419497f9722a3daafe3b4186f6b6457e060405160405180910390a35050565b600080fd5b600073ffffffffffffffffffffffffffffffffffffffff82169050919050565b60006200045e8262000431565b9050919050565b620004708162000451565b81146200047c57600080fd5b50565b600081519050620004908162000465565b92915050565b6000620004a38262000431565b9050919050565b620004b58162000496565b8114620004c157600080fd5b50565b600081519050620004d581620004aa565b92915050565b600080600080600080600080610100898b031215620004ff57620004fe6200042c565b5b60006200050f8b828c016200047f565b9850506020620005228b828c016200047f565b9750506040620005358b828c016200047f565b9650506060620005488b828c016200047f565b95505060806200055b8b828c016200047f565b94505060a06200056e8b828c016200047f565b93505060c0620005818b828c01620004c4565b92505060e0620005948b828c016200047f565b9150509295985092959890939650565b620005af8162000451565b82525050565b6000602082019050620005cc6000830184620005a4565b92915050565b60805160a05160c05160e0516101005161012051610140516101605161344f620006af6000396000611a29015260008181611059015261179f01526000818161174e0152611ef1015260008181610b900152611a910152600081816101a701528181610206015281816106a90152818161072d01528181610c5a015281816111c2015281816114120152818161186b0152818161193801528181611a0801528181611c250152611de90152600081816109710152611c940152600081816109950152611a4a015260008181610c3601526114ab015261344f6000f3fe6080604052600436106101a05760003560e01c8063715018a6116100ec578063b37fd1901161008a578063dc05a30911610064578063dc05a3091461061c578063dc1a4d9e14610633578063f2fde38b1461064a578063fccc28131461067357610204565b8063b37fd190146105b1578063ba779ed5146105da578063c36554ce1461060557610204565b80638465093e116100c65780638465093e146105095780638da5cb5b14610532578063a0558c3f1461055d578063b2b22d5f1461058657610204565b8063715018a61461049c5780637499aff4146104b35780637581aa60146104de57610204565b80633f0c188f1161015957806357d1fdcd1161013357806357d1fdcd1461040657806362ab05e71461041d57806366650b7b146104485780636cdf0e401461047357610204565b80633f0c188f146103735780634e6fd6c4146103b05780635301fa6f146103db57610204565b80630c2b72e9146102635780630efd09731461028e578063138b7338146102b9578063210009cf146102f65780632b7459b91461031f5780633d65de441461034857610204565b36610204577f000000000000000000000000000000000000000000000000000000000000000073ffffffffffffffffffffffffffffffffffffffff163373ffffffffffffffffffffffffffffffffffffffff1614610202576102013461069e565b5b005b7f000000000000000000000000000000000000000000000000000000000000000073ffffffffffffffffffffffffffffffffffffffff163373ffffffffffffffffffffffffffffffffffffffff1614610261576102603461069e565b5b005b34801561026f57600080fd5b5061027861096f565b604051610285919061226c565b60405180910390f35b34801561029a57600080fd5b506102a3610993565b6040516102b0919061226c565b60405180910390f35b3480156102c557600080fd5b506102e060048036038101906102db91906122c7565b6109b7565b6040516102ed919061230f565b60405180910390f35b34801561030257600080fd5b5061031d600480360381019061031891906122c7565b610a0d565b005b34801561032b57600080fd5b5061034660048036038101906103419190612356565b610b33565b005b34801561035457600080fd5b5061035d610b68565b60405161036a919061239c565b60405180910390f35b34801561037f57600080fd5b5061039a600480360381019061039591906122c7565b610b6e565b6040516103a7919061230f565b60405180910390f35b3480156103bc57600080fd5b506103c5610b8e565b6040516103d2919061226c565b60405180910390f35b3480156103e757600080fd5b506103f0610bb2565b6040516103fd919061239c565b60405180910390f35b34801561041257600080fd5b5061041b610bb8565b005b34801561042957600080fd5b50610432610c34565b60405161043f91906123d8565b60405180910390f35b34801561045457600080fd5b5061045d610c58565b60405161046a919061226c565b60405180910390f35b34801561047f57600080fd5b5061049a60048036038101906104959190612356565b610c7c565b005b3480156104a857600080fd5b506104b1610cb1565b005b3480156104bf57600080fd5b506104c8610cc5565b6040516104d5919061239c565b60405180910390f35b3480156104ea57600080fd5b506104f3610ccb565b604051610500919061230f565b60405180910390f35b34801561051557600080fd5b50610530600480360381019061052b91906122c7565b610cde565b005b34801561053e57600080fd5b50610547610e74565b604051610554919061226c565b60405180910390f35b34801561056957600080fd5b50610584600480360381019061057f919061244b565b610e9d565b005b34801561059257600080fd5b5061059b611057565b6040516105a8919061226c565b60405180910390f35b3480156105bd57600080fd5b506105d860048036038101906105d3919061248b565b61107b565b005b3480156105e657600080fd5b506105ef6113d3565b6040516105fc919061230f565b60405180910390f35b34801561061157600080fd5b5061061a6113e6565b005b34801561062857600080fd5b5061063161158a565b005b34801561063f57600080fd5b5061064861165f565b005b34801561065657600080fd5b50610671600480360381019061066c91906122c7565b6116c6565b005b34801561067f57600080fd5b5061068861174c565b604051610695919061226c565b60405180910390f35b6000811115610729577f000000000000000000000000000000000000000000000000000000000000000073ffffffffffffffffffffffffffffffffffffffff1663d0e30db0826040518263ffffffff1660e01b81526004016000604051808303818588803b15801561070f57600080fd5b505af1158015610723573d6000803e3d6000fd5b50505050505b60007f000000000000000000000000000000000000000000000000000000000000000073ffffffffffffffffffffffffffffffffffffffff166370a08231306040518263ffffffff1660e01b8152600401610784919061226c565b602060405180830381865afa1580156107a1573d6000803e3d6000fd5b505050506040513d601f19601f820116820180604052508101906107c591906124f3565b905060006006546004546005546107dc919061254f565b6107e6919061254f565b90508082101561082b576040517f08c379a0000000000000000000000000000000000000000000000000000000008152600401610822906125e0565b60405180910390fd5b600081836108399190612600565b9050600081111561096957600060646028836108559190612634565b61085f91906126a5565b905060006064600a846108729190612634565b61087c91906126a5565b9050600081838561088d9190612600565b6108979190612600565b905082600560008282546108ab919061254f565b9250508190555081600460008282546108c4919061254f565b9250508190555080600660008282546108dd919061254f565b925050819055507f4816db49bfc91a0172699baedf430e5d308b8034f966fb25681b27c17bcd3a478484848460405161091994939291906126d6565b60405180910390a1610929611770565b600760009054906101000a900460ff16156109475761094661192b565b5b600760019054906101000a900460ff161561096557610964611bca565b5b5050505b50505050565b7f000000000000000000000000000000000000000000000000000000000000000081565b7f000000000000000000000000000000000000000000000000000000000000000081565b6000600360008373ffffffffffffffffffffffffffffffffffffffff1673ffffffffffffffffffffffffffffffffffffffff16815260200190815260200160002060009054906101000a900460ff169050919050565b610a15612006565b600360008273ffffffffffffffffffffffffffffffffffffffff1673ffffffffffffffffffffffffffffffffffffffff16815260200190815260200160002060009054906101000a900460ff16610aa1576040517f08c379a0000000000000000000000000000000000000000000000000000000008152600401610a9890612767565b60405180910390fd5b6000600360008373ffffffffffffffffffffffffffffffffffffffff1673ffffffffffffffffffffffffffffffffffffffff16815260200190815260200160002060006101000a81548160ff0219169083151502179055507fd9ea38e99b87231f31b9da68de3c78d56418e10e2e64d338c9f438ab75681ebc81604051610b28919061226c565b60405180910390a150565b610b3b612006565b610b4361208d565b80600760006101000a81548160ff021916908315150217905550610b656120b0565b50565b60045481565b60036020528060005260406000206000915054906101000a900460ff1681565b7f000000000000000000000000000000000000000000000000000000000000000081565b60065481565b610bc0612006565b610bc861208d565b60006004541180610bdb57506000600554115b610c1a576040517f08c379a0000000000000000000000000000000000000000000000000000000008152600401610c11906127d3565b60405180910390fd5b610c2261192b565b610c2a611bca565b610c326120b0565b565b7f000000000000000000000000000000000000000000000000000000000000000081565b7f000000000000000000000000000000000000000000000000000000000000000081565b610c84612006565b610c8c61208d565b80600760016101000a81548160ff021916908315150217905550610cae6120b0565b50565b610cb9612006565b610cc360006120cb565b565b60055481565b600760019054906101000a900460ff1681565b610ce6612006565b600073ffffffffffffffffffffffffffffffffffffffff168173ffffffffffffffffffffffffffffffffffffffff1603610d55576040517f08c379a0000000000000000000000000000000000000000000000000000000008152600401610d4c9061283f565b60405180910390fd5b600360008273ffffffffffffffffffffffffffffffffffffffff1673ffffffffffffffffffffffffffffffffffffffff16815260200190815260200160002060009054906101000a900460ff1615610de2576040517f08c379a0000000000000000000000000000000000000000000000000000000008152600401610dd9906128ab565b60405180910390fd5b6001600360008373ffffffffffffffffffffffffffffffffffffffff1673ffffffffffffffffffffffffffffffffffffffff16815260200190815260200160002060006101000a81548160ff0219169083151502179055507f797c25843e35d46f4254028734c97d60f3f93aaccc1dd994dd6b90683fdb248681604051610e69919061226c565b60405180910390a150565b60008060009054906101000a900473ffffffffffffffffffffffffffffffffffffffff16905090565b610ea5612006565b610ead61208d565b600073ffffffffffffffffffffffffffffffffffffffff168173ffffffffffffffffffffffffffffffffffffffff1603610f1c576040517f08c379a0000000000000000000000000000000000000000000000000000000008152600401610f1390612917565b60405180910390fd5b600047905080831115610f64576040517f08c379a0000000000000000000000000000000000000000000000000000000008152600401610f5b90612983565b60405180910390fd5b60008273ffffffffffffffffffffffffffffffffffffffff1684604051610f8a906129d4565b60006040518083038185875af1925050503d8060008114610fc7576040519150601f19603f3d011682016040523d82523d6000602084013e610fcc565b606091505b5050905080611010576040517f08c379a000000000000000000000000000000000000000000000000000000000815260040161100790612a35565b60405180910390fd5b7fcd7fef3a642dcf99ce1004b2a15d31e91398f01974500b64eab8fc50fef2d3b18484604051611041929190612ab4565b60405180910390a150506110536120b0565b5050565b7f000000000000000000000000000000000000000000000000000000000000000081565b611083612006565b61108b61208d565b600073ffffffffffffffffffffffffffffffffffffffff168173ffffffffffffffffffffffffffffffffffffffff16036110fa576040517f08c379a00000000000000000000000000000000000000000000000000000000081526004016110f190612917565b60405180910390fd5b600083905060008173ffffffffffffffffffffffffffffffffffffffff166370a08231306040518263ffffffff1660e01b815260040161113a919061226c565b602060405180830381865afa158015611157573d6000803e3d6000fd5b505050506040513d601f19601f8201168201806040525081019061117b91906124f3565b9050808411156111c0576040517f08c379a00000000000000000000000000000000000000000000000000000000081526004016111b790612b29565b60405180910390fd5b7f000000000000000000000000000000000000000000000000000000000000000073ffffffffffffffffffffffffffffffffffffffff168573ffffffffffffffffffffffffffffffffffffffff16036112c6576000600654600454600554611228919061254f565b611232919061254f565b9050808211611276576040517f08c379a000000000000000000000000000000000000000000000000000000000815260040161126d90612b95565b60405180910390fd5b80826112829190612600565b8511156112c4576040517f08c379a00000000000000000000000000000000000000000000000000000000081526004016112bb90612c01565b60405180910390fd5b505b60008273ffffffffffffffffffffffffffffffffffffffff1663a9059cbb85876040518363ffffffff1660e01b8152600401611303929190612c21565b6020604051808303816000875af1158015611322573d6000803e3d6000fd5b505050506040513d601f19601f820116820180604052508101906113469190612c5f565b905080611388576040517f08c379a000000000000000000000000000000000000000000000000000000000815260040161137f90612cd8565b60405180910390fd5b7ffb475a842bad10d3800b61bd1a92e716051afba979b124b583bd99a2d1d7bfd58686866040516113bb93929190612cf8565b60405180910390a15050506113ce6120b0565b505050565b600760009054906101000a900460ff1681565b6113ee612006565b6113f661208d565b611400600061069e565b60006005549050600081111561149c577f000000000000000000000000000000000000000000000000000000000000000073ffffffffffffffffffffffffffffffffffffffff16632e1a7d4d826040518263ffffffff1660e01b8152600401611469919061239c565b600060405180830381600087803b15801561148357600080fd5b505af1158015611497573d6000803e3d6000fd5b505050505b6000600554111561157f5760007f000000000000000000000000000000000000000000000000000000000000000073ffffffffffffffffffffffffffffffffffffffff166005546040516114ef906129d4565b60006040518083038185875af1925050503d806000811461152c576040519150601f19603f3d011682016040523d82523d6000602084013e611531565b606091505b5050905080611575576040517f08c379a000000000000000000000000000000000000000000000000000000000815260040161156c90612d7b565b60405180910390fd5b6000600581905550505b506115886120b0565b565b611592610e74565b73ffffffffffffffffffffffffffffffffffffffff163373ffffffffffffffffffffffffffffffffffffffff1614806116145750600360003373ffffffffffffffffffffffffffffffffffffffff1673ffffffffffffffffffffffffffffffffffffffff16815260200190815260200160002060009054906101000a900460ff165b611653576040517f08c379a000000000000000000000000000000000000000000000000000000000815260040161164a90612e0d565b60405180910390fd5b61165d600061069e565b565b611667612006565b61166f61208d565b6000600554116116b4576040517f08c379a00000000000000000000000000000000000000000000000000000000081526004016116ab90612e79565b60405180910390fd5b6116bc611bca565b6116c46120b0565b565b6116ce612006565b600073ffffffffffffffffffffffffffffffffffffffff168173ffffffffffffffffffffffffffffffffffffffff16036117405760006040517f1e4fbdf7000000000000000000000000000000000000000000000000000000008152600401611737919061226c565b60405180910390fd5b611749816120cb565b50565b7f000000000000000000000000000000000000000000000000000000000000000081565b60006006540315611929576000600960065461178c91906126a5565b90506000600190505b6009811161191e577f000000000000000000000000000000000000000000000000000000000000000073ffffffffffffffffffffffffffffffffffffffff16636352211e826040518263ffffffff1660e01b81526004016117f6919061239c565b602060405180830381865afa92505050801561183057506040513d601f19601f8201168201806040525081019061182d9190612eae565b60015b1561190b57600073ffffffffffffffffffffffffffffffffffffffff168173ffffffffffffffffffffffffffffffffffffffff1614611909577f000000000000000000000000000000000000000000000000000000000000000073ffffffffffffffffffffffffffffffffffffffff1663a9059cbb82856040518363ffffffff1660e01b81526004016118c4929190612c21565b6020604051808303816000875af11580156118e3573d6000803e3d6000fd5b505050506040513d601f19601f820116820180604052508101906119079190612c5f565b505b505b808061191690612edb565b915050611795565b506000600681905550505b565b60006004541115611bc8577f000000000000000000000000000000000000000000000000000000000000000073ffffffffffffffffffffffffffffffffffffffff1663095ea7b3600160009054906101000a900473ffffffffffffffffffffffffffffffffffffffff166004546040518363ffffffff1660e01b81526004016119b5929190612c21565b6020604051808303816000875af11580156119d4573d6000803e3d6000fd5b505050506040513d601f19601f820116820180604052508101906119f89190612c5f565b50600060405180608001604052807f00000000000000000000000000000000000000000000000000000000000000007f00000000000000000000000000000000000000000000000000000000000000007f0000000000000000000000000000000000000000000000000000000000000000604051602001611a7b93929190612fb0565b60405160208183030381529060405281526020017f000000000000000000000000000000000000000000000000000000000000000073ffffffffffffffffffffffffffffffffffffffff1681526020016004548152602001600081525090506000600160009054906101000a900473ffffffffffffffffffffffffffffffffffffffff1673ffffffffffffffffffffffffffffffffffffffff1663b858183f836040518263ffffffff1660e01b8152600401611b3791906130fe565b6020604051808303816000875af1158015611b56573d6000803e3d6000fd5b505050506040513d601f19601f82011682018060405250810190611b7a91906124f3565b905060006004819055506000811115611bc5577f9f7c0331cae72869b1e69d00e6dbfceb0e02266830e12339f841d334bc61412781604051611bbc919061239c565b60405180910390a15b50505b565b60006005541115612004576000600267ffffffffffffffff811115611bf257611bf1613120565b5b604051908082528060200260200182016040528015611c205781602001602082028036833780820191505090505b5090507f000000000000000000000000000000000000000000000000000000000000000081600081518110611c5857611c5761314f565b5b602002602001019073ffffffffffffffffffffffffffffffffffffffff16908173ffffffffffffffffffffffffffffffffffffffff16815250507f000000000000000000000000000000000000000000000000000000000000000081600181518110611cc757611cc661314f565b5b602002602001019073ffffffffffffffffffffffffffffffffffffffff16908173ffffffffffffffffffffffffffffffffffffffff16815250506000600260009054906101000a900473ffffffffffffffffffffffffffffffffffffffff1673ffffffffffffffffffffffffffffffffffffffff1663d06ca61f600554846040518363ffffffff1660e01b8152600401611d6292919061322d565b600060405180830381865afa158015611d7f573d6000803e3d6000fd5b505050506040513d6000823e3d601f19601f82011682018060405250810190611da89190613376565b9050600081600181518110611dc057611dbf61314f565b5b6020026020010151905060006064605083611ddb9190612634565b611de591906126a5565b90507f000000000000000000000000000000000000000000000000000000000000000073ffffffffffffffffffffffffffffffffffffffff1663095ea7b3600260009054906101000a900473ffffffffffffffffffffffffffffffffffffffff166005546040518363ffffffff1660e01b8152600401611e66929190612c21565b6020604051808303816000875af1158015611e85573d6000803e3d6000fd5b505050506040513d601f19601f82011682018060405250810190611ea99190612c5f565b506000600260009054906101000a900473ffffffffffffffffffffffffffffffffffffffff1673ffffffffffffffffffffffffffffffffffffffff166338ed173960055484887f000000000000000000000000000000000000000000000000000000000000000061012c42611f1e919061254f565b6040518663ffffffff1660e01b8152600401611f3e9594939291906133bf565b6000604051808303816000875af1158015611f5d573d6000803e3d6000fd5b505050506040513d6000823e3d601f19601f82011682018060405250810190611f869190613376565b905060008160018351611f999190612600565b81518110611faa57611fa961314f565b5b6020026020010151905060006005819055506000811115611ffd577fcb42363dcc1840222268fe43eebc976f3e311a14761e5396eb394ebdac90a58281604051611ff4919061239c565b60405180910390a15b5050505050505b565b61200e61218f565b73ffffffffffffffffffffffffffffffffffffffff1661202c610e74565b73ffffffffffffffffffffffffffffffffffffffff161461208b5761204f61218f565b6040517f118cdaa7000000000000000000000000000000000000000000000000000000008152600401612082919061226c565b60405180910390fd5b565b612095612197565b60026120a76120a26121d8565b612203565b60000181905550565b60016120c26120bd6121d8565b612203565b60000181905550565b60008060009054906101000a900473ffffffffffffffffffffffffffffffffffffffff169050816000806101000a81548173ffffffffffffffffffffffffffffffffffffffff021916908373ffffffffffffffffffffffffffffffffffffffff1602179055508173ffffffffffffffffffffffffffffffffffffffff168173ffffffffffffffffffffffffffffffffffffffff167f8be0079c531659141344cd1fd0a4f28419497f9722a3daafe3b4186f6b6457e060405160405180910390a35050565b600033905090565b61219f61220d565b156121d6576040517f3ee5aeb500000000000000000000000000000000000000000000000000000000815260040160405180910390fd5b565b60007f9b779b17422d0df92223018b32b4d1fa46e071723d6817e2486d003becc55f0060001b905090565b6000819050919050565b6000600261222161221c6121d8565b612203565b6000015414905090565b600073ffffffffffffffffffffffffffffffffffffffff82169050919050565b60006122568261222b565b9050919050565b6122668161224b565b82525050565b6000602082019050612281600083018461225d565b92915050565b6000604051905090565b600080fd5b600080fd5b6122a48161224b565b81146122af57600080fd5b50565b6000813590506122c18161229b565b92915050565b6000602082840312156122dd576122dc612291565b5b60006122eb848285016122b2565b91505092915050565b60008115159050919050565b612309816122f4565b82525050565b60006020820190506123246000830184612300565b92915050565b612333816122f4565b811461233e57600080fd5b50565b6000813590506123508161232a565b92915050565b60006020828403121561236c5761236b612291565b5b600061237a84828501612341565b91505092915050565b6000819050919050565b61239681612383565b82525050565b60006020820190506123b1600083018461238d565b92915050565b60006123c28261222b565b9050919050565b6123d2816123b7565b82525050565b60006020820190506123ed60008301846123c9565b92915050565b6123fc81612383565b811461240757600080fd5b50565b600081359050612419816123f3565b92915050565b612428816123b7565b811461243357600080fd5b50565b6000813590506124458161241f565b92915050565b6000806040838503121561246257612461612291565b5b60006124708582860161240a565b925050602061248185828601612436565b9150509250929050565b6000806000606084860312156124a4576124a3612291565b5b60006124b2868287016122b2565b93505060206124c38682870161240a565b92505060406124d4868287016122b2565b9150509250925092565b6000815190506124ed816123f3565b92915050565b60006020828403121561250957612508612291565b5b6000612517848285016124de565b91505092915050565b7f4e487b7100000000000000000000000000000000000000000000000000000000600052601160045260246000fd5b600061255a82612383565b915061256583612383565b925082820190508082111561257d5761257c612520565b5b92915050565b600082825260208201905092915050565b7f42616c616e6365206572726f7200000000000000000000000000000000000000600082015250565b60006125ca600d83612583565b91506125d582612594565b602082019050919050565b600060208201905081810360008301526125f9816125bd565b9050919050565b600061260b82612383565b915061261683612383565b925082820390508181111561262e5761262d612520565b5b92915050565b600061263f82612383565b915061264a83612383565b925082820261265881612383565b9150828204841483151761266f5761266e612520565b5b5092915050565b7f4e487b7100000000000000000000000000000000000000000000000000000000600052601260045260246000fd5b60006126b082612383565b91506126bb83612383565b9250826126cb576126ca612676565b5b828204905092915050565b60006080820190506126eb600083018761238d565b6126f8602083018661238d565b612705604083018561238d565b612712606083018461238d565b95945050505050565b7f4e6f742077686974656c69737465640000000000000000000000000000000000600082015250565b6000612751600f83612583565b915061275c8261271b565b602082019050919050565b6000602082019050818103600083015261278081612744565b9050919050565b7f4e6f2062616c616e63657320746f206275726e00000000000000000000000000600082015250565b60006127bd601383612583565b91506127c882612787565b602082019050919050565b600060208201905081810360008301526127ec816127b0565b9050919050565b7f496e76616c6964204e465420636f6e7472616374206164647265737300000000600082015250565b6000612829601c83612583565b9150612834826127f3565b602082019050919050565b600060208201905081810360008301526128588161281c565b9050919050565b7f416c72656164792077686974656c697374656400000000000000000000000000600082015250565b6000612895601383612583565b91506128a08261285f565b602082019050919050565b600060208201905081810360008301526128c481612888565b9050919050565b7f496e76616c696420726563697069656e74000000000000000000000000000000600082015250565b6000612901601183612583565b915061290c826128cb565b602082019050919050565b60006020820190508181036000830152612930816128f4565b9050919050565b7f4e6f7420656e6f75676820455448000000000000000000000000000000000000600082015250565b600061296d600e83612583565b915061297882612937565b602082019050919050565b6000602082019050818103600083015261299c81612960565b9050919050565b600081905092915050565b50565b60006129be6000836129a3565b91506129c9826129ae565b600082019050919050565b60006129df826129b1565b9150819050919050565b7f455448207472616e73666572206661696c656400000000000000000000000000600082015250565b6000612a1f601383612583565b9150612a2a826129e9565b602082019050919050565b60006020820190508181036000830152612a4e81612a12565b9050919050565b6000819050919050565b6000612a7a612a75612a708461222b565b612a55565b61222b565b9050919050565b6000612a8c82612a5f565b9050919050565b6000612a9e82612a81565b9050919050565b612aae81612a93565b82525050565b6000604082019050612ac9600083018561238d565b612ad66020830184612aa5565b9392505050565b7f4e6f7420656e6f75676820746f6b656e2062616c616e63650000000000000000600082015250565b6000612b13601883612583565b9150612b1e82612add565b602082019050919050565b60006020820190508181036000830152612b4281612b06565b9050919050565b7f4e6f20657863657373205745544e20746f207265736375650000000000000000600082015250565b6000612b7f601883612583565b9150612b8a82612b49565b602082019050919050565b60006020820190508181036000830152612bae81612b72565b9050919050565b7f416d6f756e74206578636565647320657863657373205745544e000000000000600082015250565b6000612beb601a83612583565b9150612bf682612bb5565b602082019050919050565b60006020820190508181036000830152612c1a81612bde565b9050919050565b6000604082019050612c36600083018561225d565b612c43602083018461238d565b9392505050565b600081519050612c598161232a565b92915050565b600060208284031215612c7557612c74612291565b5b6000612c8384828501612c4a565b91505092915050565b7f546f6b656e207472616e73666572206661696c65640000000000000000000000600082015250565b6000612cc2601583612583565b9150612ccd82612c8c565b602082019050919050565b60006020820190508181036000830152612cf181612cb5565b9050919050565b6000606082019050612d0d600083018661225d565b612d1a602083018561238d565b612d27604083018461225d565b949350505050565b7f436f72652077616c6c6574207472616e73666572206661696c65640000000000600082015250565b6000612d65601b83612583565b9150612d7082612d2f565b602082019050919050565b60006020820190508181036000830152612d9481612d58565b9050919050565b7f556e617574686f72697a65643a204f6e6c79206f776e6572206f72207768697460008201527f656c6973746564204e4654000000000000000000000000000000000000000000602082015250565b6000612df7602b83612583565b9150612e0282612d9b565b604082019050919050565b60006020820190508181036000830152612e2681612dea565b9050919050565b7f4e6f20636f72652062616c616e636520746f206275726e000000000000000000600082015250565b6000612e63601783612583565b9150612e6e82612e2d565b602082019050919050565b60006020820190508181036000830152612e9281612e56565b9050919050565b600081519050612ea88161229b565b92915050565b600060208284031215612ec457612ec3612291565b5b6000612ed284828501612e99565b91505092915050565b6000612ee682612383565b91507fffffffffffffffffffffffffffffffffffffffffffffffffffffffffffffffff8203612f1857612f17612520565b5b600182019050919050565b60008160601b9050919050565b6000612f3b82612f23565b9050919050565b6000612f4d82612f30565b9050919050565b612f65612f608261224b565b612f42565b82525050565b600062ffffff82169050919050565b60008160e81b9050919050565b6000612f9282612f7a565b9050919050565b612faa612fa582612f6b565b612f87565b82525050565b6000612fbc8286612f54565b601482019150612fcc8285612f99565b600382019150612fdc8284612f54565b601482019150819050949350505050565b600081519050919050565b600082825260208201905092915050565b60005b8381101561302757808201518184015260208101905061300c565b60008484015250505050565b6000601f19601f8301169050919050565b600061304f82612fed565b6130598185612ff8565b9350613069818560208601613009565b61307281613033565b840191505092915050565b6130868161224b565b82525050565b61309581612383565b82525050565b600060808301600083015184820360008601526130b88282613044565b91505060208301516130cd602086018261307d565b5060408301516130e0604086018261308c565b5060608301516130f3606086018261308c565b508091505092915050565b60006020820190508181036000830152613118818461309b565b905092915050565b7f4e487b7100000000000000000000000000000000000000000000000000000000600052604160045260246000fd5b7f4e487b7100000000000000000000000000000000000000000000000000000000600052603260045260246000fd5b600081519050919050565b600082825260208201905092915050565b6000819050602082019050919050565b60006131b6838361307d565b60208301905092915050565b6000602082019050919050565b60006131da8261317e565b6131e48185613189565b93506131ef8361319a565b8060005b8381101561322057815161320788826131aa565b9750613212836131c2565b9250506001810190506131f3565b5085935050505092915050565b6000604082019050613242600083018561238d565b818103602083015261325481846131cf565b90509392505050565b600080fd5b61326b82613033565b810181811067ffffffffffffffff8211171561328a57613289613120565b5b80604052505050565b600061329d612287565b90506132a98282613262565b919050565b600067ffffffffffffffff8211156132c9576132c8613120565b5b602082029050602081019050919050565b600080fd5b60006132f26132ed846132ae565b613293565b90508083825260208201905060208402830185811115613315576133146132da565b5b835b8181101561333e578061332a88826124de565b845260208401935050602081019050613317565b5050509392505050565b600082601f83011261335d5761335c61325d565b5b815161336d8482602086016132df565b91505092915050565b60006020828403121561338c5761338b612291565b5b600082015167ffffffffffffffff8111156133aa576133a9612296565b5b6133b684828501613348565b91505092915050565b600060a0820190506133d4600083018861238d565b6133e1602083018761238d565b81810360408301526133f381866131cf565b9050613402606083018561225d565b61340f608083018461238d565b969550505050505056fea26469706673582212206dc1c77a882b886d0d27e2d4dec928f0f33d3a14519756e1c0396759c17ce86464736f6c63430008140033",
			"opcodes": "PUSH2 0x180 PUSH1 0x40 MSTORE PUSH2 0xDEAD PUSH20 0xFFFFFFFFFFFFFFFFFFFFFFFFFFFFFFFFFFFFFFFF AND PUSH2 0x100 SWAP1 PUSH20 0xFFFFFFFFFFFFFFFFFFFFFFFFFFFFFFFFFFFFFFFF AND DUP2 MSTORE POP PUSH1 0x0 PUSH20 0xFFFFFFFFFFFFFFFFFFFFFFFFFFFFFFFFFFFFFFFF AND PUSH2 0x120 SWAP1 PUSH20 0xFFFFFFFFFFFFFFFFFFFFFFFFFFFFFFFFFFFFFFFF AND DUP2 MSTORE POP PUSH2 0xBB8 PUSH3 0xFFFFFF AND PUSH2 0x160 SWAP1 PUSH3 0xFFFFFF AND DUP2 MSTORE POP CALLVALUE DUP1 ISZERO PUSH3 0x91 JUMPI PUSH1 0x0 DUP1 REVERT JUMPDEST POP PUSH1 0x40 MLOAD PUSH3 0x3AFE CODESIZE SUB DUP1 PUSH3 0x3AFE DUP4 CODECOPY DUP2 DUP2 ADD PUSH1 0x40 MSTORE DUP2 ADD SWAP1 PUSH3 0xB7 SWAP2 SWAP1 PUSH3 0x4DB JUMP JUMPDEST DUP3 PUSH1 0x1 PUSH3 0xDA PUSH3 0xCE PUSH3 0x333 PUSH1 0x20 SHL PUSH1 0x20 SHR JUMP JUMPDEST PUSH3 0x35E PUSH1 0x20 SHL PUSH1 0x20 SHR JUMP JUMPDEST PUSH1 0x0 ADD DUP2 SWAP1 SSTORE POP PUSH1 0x0 PUSH20 0xFFFFFFFFFFFFFFFFFFFFFFFFFFFFFFFFFFFFFFFF AND DUP2 PUSH20 0xFFFFFFFFFFFFFFFFFFFFFFFFFFFFFFFFFFFFFFFF AND SUB PUSH3 0x156 JUMPI PUSH1 0x0 PUSH1 0x40 MLOAD PUSH32 0x1E4FBDF700000000000000000000000000000000000000000000000000000000 DUP2 MSTORE PUSH1 0x4 ADD PUSH3 0x14D SWAP2 SWAP1 PUSH3 0x5B5 JUMP JUMPDEST PUSH1 0x40 MLOAD DUP1 SWAP2 SUB SWAP1 REVERT JUMPDEST PUSH3 0x167 DUP2 PUSH3 0x368 PUSH1 0x20 SHL PUSH1 0x20 SHR JUMP JUMPDEST POP DUP8 PUSH1 0x1 PUSH1 0x0 PUSH2 0x100 EXP DUP2 SLOAD DUP2 PUSH20 0xFFFFFFFFFFFFFFFFFFFFFFFFFFFFFFFFFFFFFFFF MUL NOT AND SWAP1 DUP4 PUSH20 0xFFFFFFFFFFFFFFFFFFFFFFFFFFFFFFFFFFFFFFFF AND MUL OR SWAP1 SSTORE POP DUP7 PUSH1 0x2 PUSH1 0x0 PUSH2 0x100 EXP DUP2 SLOAD DUP2 PUSH20 0xFFFFFFFFFFFFFFFFFFFFFFFFFFFFFFFFFFFFFFFF MUL NOT AND SWAP1 DUP4 PUSH20 0xFFFFFFFFFFFFFFFFFFFFFFFFFFFFFFFFFFFFFFFF AND MUL OR SWAP1 SSTORE POP DUP6 PUSH20 0xFFFFFFFFFFFFFFFFFFFFFFFFFFFFFFFFFFFFFFFF AND PUSH1 0xA0 DUP2 PUSH20 0xFFFFFFFFFFFFFFFFFFFFFFFFFFFFFFFFFFFFFFFF AND DUP2 MSTORE POP POP DUP5 PUSH20 0xFFFFFFFFFFFFFFFFFFFFFFFFFFFFFFFFFFFFFFFF AND PUSH1 0xC0 DUP2 PUSH20 0xFFFFFFFFFFFFFFFFFFFFFFFFFFFFFFFFFFFFFFFF AND DUP2 MSTORE POP POP DUP4 PUSH20 0xFFFFFFFFFFFFFFFFFFFFFFFFFFFFFFFFFFFFFFFF AND PUSH1 0xE0 DUP2 PUSH20 0xFFFFFFFFFFFFFFFFFFFFFFFFFFFFFFFFFFFFFFFF AND DUP2 MSTORE POP POP DUP2 PUSH20 0xFFFFFFFFFFFFFFFFFFFFFFFFFFFFFFFFFFFFFFFF AND PUSH1 0x80 DUP2 PUSH20 0xFFFFFFFFFFFFFFFFFFFFFFFFFFFFFFFFFFFFFFFF AND DUP2 MSTORE POP POP PUSH1 0x1 PUSH1 0x7 PUSH1 0x0 PUSH2 0x100 EXP DUP2 SLOAD DUP2 PUSH1 0xFF MUL NOT AND SWAP1 DUP4 ISZERO ISZERO MUL OR SWAP1 SSTORE POP PUSH1 0x1 PUSH1 0x7 PUSH1 0x1 PUSH2 0x100 EXP DUP2 SLOAD DUP2 PUSH1 0xFF MUL NOT AND SWAP1 DUP4 ISZERO ISZERO MUL OR SWAP1 SSTORE POP DUP1 PUSH20 0xFFFFFFFFFFFFFFFFFFFFFFFFFFFFFFFFFFFFFFFF AND PUSH2 0x140 DUP2 PUSH20 0xFFFFFFFFFFFFFFFFFFFFFFFFFFFFFFFFFFFFFFFF AND DUP2 MSTORE POP POP POP POP POP POP POP POP POP POP PUSH3 0x5D2 JUMP JUMPDEST PUSH1 0x0 PUSH32 0x9B779B17422D0DF92223018B32B4D1FA46E071723D6817E2486D003BECC55F00 PUSH1 0x0 SHL SWAP1 POP SWAP1 JUMP JUMPDEST PUSH1 0x0 DUP2 SWAP1 POP SWAP2 SWAP1 POP JUMP JUMPDEST PUSH1 0x0 DUP1 PUSH1 0x0 SWAP1 SLOAD SWAP1 PUSH2 0x100 EXP SWAP1 DIV PUSH20 0xFFFFFFFFFFFFFFFFFFFFFFFFFFFFFFFFFFFFFFFF AND SWAP1 POP DUP2 PUSH1 0x0 DUP1 PUSH2 0x100 EXP DUP2 SLOAD DUP2 PUSH20 0xFFFFFFFFFFFFFFFFFFFFFFFFFFFFFFFFFFFFFFFF MUL NOT AND SWAP1 DUP4 PUSH20 0xFFFFFFFFFFFFFFFFFFFFFFFFFFFFFFFFFFFFFFFF AND MUL OR SWAP1 SSTORE POP DUP2 PUSH20 0xFFFFFFFFFFFFFFFFFFFFFFFFFFFFFFFFFFFFFFFF AND DUP2 PUSH20 0xFFFFFFFFFFFFFFFFFFFFFFFFFFFFFFFFFFFFFFFF AND PUSH32 0x8BE0079C531659141344CD1FD0A4F28419497F9722A3DAAFE3B4186F6B6457E0 PUSH1 0x40 MLOAD PUSH1 0x40 MLOAD DUP1 SWAP2 SUB SWAP1 LOG3 POP POP JUMP JUMPDEST PUSH1 0x0 DUP1 REVERT JUMPDEST PUSH1 0x0 PUSH20 0xFFFFFFFFFFFFFFFFFFFFFFFFFFFFFFFFFFFFFFFF DUP3 AND SWAP1 POP SWAP2 SWAP1 POP JUMP JUMPDEST PUSH1 0x0 PUSH3 0x45E DUP3 PUSH3 0x431 JUMP JUMPDEST SWAP1 POP SWAP2 SWAP1 POP JUMP JUMPDEST PUSH3 0x470 DUP2 PUSH3 0x451 JUMP JUMPDEST DUP2 EQ PUSH3 0x47C JUMPI PUSH1 0x0 DUP1 REVERT JUMPDEST POP JUMP JUMPDEST PUSH1 0x0 DUP2 MLOAD SWAP1 POP PUSH3 0x490 DUP2 PUSH3 0x465 JUMP JUMPDEST SWAP3 SWAP2 POP POP JUMP JUMPDEST PUSH1 0x0 PUSH3 0x4A3 DUP3 PUSH3 0x431 JUMP JUMPDEST SWAP1 POP SWAP2 SWAP1 POP JUMP JUMPDEST PUSH3 0x4B5 DUP2 PUSH3 0x496 JUMP JUMPDEST DUP2 EQ PUSH3 0x4C1 JUMPI PUSH1 0x0 DUP1 REVERT JUMPDEST POP JUMP JUMPDEST PUSH1 0x0 DUP2 MLOAD SWAP1 POP PUSH3 0x4D5 DUP2 PUSH3 0x4AA JUMP JUMPDEST SWAP3 SWAP2 POP POP JUMP JUMPDEST PUSH1 0x0 DUP1 PUSH1 0x0 DUP1 PUSH1 0x0 DUP1 PUSH1 0x0 DUP1 PUSH2 0x100 DUP10 DUP12 SUB SLT ISZERO PUSH3 0x4FF JUMPI PUSH3 0x4FE PUSH3 0x42C JUMP JUMPDEST JUMPDEST PUSH1 0x0 PUSH3 0x50F DUP12 DUP3 DUP13 ADD PUSH3 0x47F JUMP JUMPDEST SWAP9 POP POP PUSH1 0x20 PUSH3 0x522 DUP12 DUP3 DUP13 ADD PUSH3 0x47F JUMP JUMPDEST SWAP8 POP POP PUSH1 0x40 PUSH3 0x535 DUP12 DUP3 DUP13 ADD PUSH3 0x47F JUMP JUMPDEST SWAP7 POP POP PUSH1 0x60 PUSH3 0x548 DUP12 DUP3 DUP13 ADD PUSH3 0x47F JUMP JUMPDEST SWAP6 POP POP PUSH1 0x80 PUSH3 0x55B DUP12 DUP3 DUP13 ADD PUSH3 0x47F JUMP JUMPDEST SWAP5 POP POP PUSH1 0xA0 PUSH3 0x56E DUP12 DUP3 DUP13 ADD PUSH3 0x47F JUMP JUMPDEST SWAP4 POP POP PUSH1 0xC0 PUSH3 0x581 DUP12 DUP3 DUP13 ADD PUSH3 0x4C4 JUMP JUMPDEST SWAP3 POP POP PUSH1 0xE0 PUSH3 0x594 DUP12 DUP3 DUP13 ADD PUSH3 0x47F JUMP JUMPDEST SWAP2 POP POP SWAP3 SWAP6 SWAP9 POP SWAP3 SWAP6 SWAP9 SWAP1 SWAP4 SWAP7 POP JUMP JUMPDEST PUSH3 0x5AF DUP2 PUSH3 0x451 JUMP JUMPDEST DUP3 MSTORE POP POP JUMP JUMPDEST PUSH1 0x0 PUSH1 0x20 DUP3 ADD SWAP1 POP PUSH3 0x5CC PUSH1 0x0 DUP4 ADD DUP5 PUSH3 0x5A4 JUMP JUMPDEST SWAP3 SWAP2 POP POP JUMP JUMPDEST PUSH1 0x80 MLOAD PUSH1 0xA0 MLOAD PUSH1 0xC0 MLOAD PUSH1 0xE0 MLOAD PUSH2 0x100 MLOAD PUSH2 0x120 MLOAD PUSH2 0x140 MLOAD PUSH2 0x160 MLOAD PUSH2 0x344F PUSH3 0x6AF PUSH1 0x0 CODECOPY PUSH1 0x0 PUSH2 0x1A29 ADD MSTORE PUSH1 0x0 DUP2 DUP2 PUSH2 0x1059 ADD MSTORE PUSH2 0x179F ADD MSTORE PUSH1 0x0 DUP2 DUP2 PUSH2 0x174E ADD MSTORE PUSH2 0x1EF1 ADD MSTORE PUSH1 0x0 DUP2 DUP2 PUSH2 0xB90 ADD MSTORE PUSH2 0x1A91 ADD MSTORE PUSH1 0x0 DUP2 DUP2 PUSH2 0x1A7 ADD MSTORE DUP2 DUP2 PUSH2 0x206 ADD MSTORE DUP2 DUP2 PUSH2 0x6A9 ADD MSTORE DUP2 DUP2 PUSH2 0x72D ADD MSTORE DUP2 DUP2 PUSH2 0xC5A ADD MSTORE DUP2 DUP2 PUSH2 0x11C2 ADD MSTORE DUP2 DUP2 PUSH2 0x1412 ADD MSTORE DUP2 DUP2 PUSH2 0x186B ADD MSTORE DUP2 DUP2 PUSH2 0x1938 ADD MSTORE DUP2 DUP2 PUSH2 0x1A08 ADD MSTORE DUP2 DUP2 PUSH2 0x1C25 ADD MSTORE PUSH2 0x1DE9 ADD MSTORE PUSH1 0x0 DUP2 DUP2 PUSH2 0x971 ADD MSTORE PUSH2 0x1C94 ADD MSTORE PUSH1 0x0 DUP2 DUP2 PUSH2 0x995 ADD MSTORE PUSH2 0x1A4A ADD MSTORE PUSH1 0x0 DUP2 DUP2 PUSH2 0xC36 ADD MSTORE PUSH2 0x14AB ADD MSTORE PUSH2 0x344F PUSH1 0x0 RETURN INVALID PUSH1 0x80 PUSH1 0x40 MSTORE PUSH1 0x4 CALLDATASIZE LT PUSH2 0x1A0 JUMPI PUSH1 0x0 CALLDATALOAD PUSH1 0xE0 SHR DUP1 PUSH4 0x715018A6 GT PUSH2 0xEC JUMPI DUP1 PUSH4 0xB37FD190 GT PUSH2 0x8A JUMPI DUP1 PUSH4 0xDC05A309 GT PUSH2 0x64 JUMPI DUP1 PUSH4 0xDC05A309 EQ PUSH2 0x61C JUMPI DUP1 PUSH4 0xDC1A4D9E EQ PUSH2 0x633 JUMPI DUP1 PUSH4 0xF2FDE38B EQ PUSH2 0x64A JUMPI DUP1 PUSH4 0xFCCC2813 EQ PUSH2 0x673 JUMPI PUSH2 0x204 JUMP JUMPDEST DUP1 PUSH4 0xB37FD190 EQ PUSH2 0x5B1 JUMPI DUP1 PUSH4 0xBA779ED5 EQ PUSH2 0x5DA JUMPI DUP1 PUSH4 0xC36554CE EQ PUSH2 0x605 JUMPI PUSH2 0x204 JUMP JUMPDEST DUP1 PUSH4 0x8465093E GT PUSH2 0xC6 JUMPI DUP1 PUSH4 0x8465093E EQ PUSH2 0x509 JUMPI DUP1 PUSH4 0x8DA5CB5B EQ PUSH2 0x532 JUMPI DUP1 PUSH4 0xA0558C3F EQ PUSH2 0x55D JUMPI DUP1 PUSH4 0xB2B22D5F EQ PUSH2 0x586 JUMPI PUSH2 0x204 JUMP JUMPDEST DUP1 PUSH4 0x715018A6 EQ PUSH2 0x49C JUMPI DUP1 PUSH4 0x7499AFF4 EQ PUSH2 0x4B3 JUMPI DUP1 PUSH4 0x7581AA60 EQ PUSH2 0x4DE JUMPI PUSH2 0x204 JUMP JUMPDEST DUP1 PUSH4 0x3F0C188F GT PUSH2 0x159 JUMPI DUP1 PUSH4 0x57D1FDCD GT PUSH2 0x133 JUMPI DUP1 PUSH4 0x57D1FDCD EQ PUSH2 0x406 JUMPI DUP1 PUSH4 0x62AB05E7 EQ PUSH2 0x41D JUMPI DUP1 PUSH4 0x66650B7B EQ PUSH2 0x448 JUMPI DUP1 PUSH4 0x6CDF0E40 EQ PUSH2 0x473 JUMPI PUSH2 0x204 JUMP JUMPDEST DUP1 PUSH4 0x3F0C188F EQ PUSH2 0x373 JUMPI DUP1 PUSH4 0x4E6FD6C4 EQ PUSH2 0x3B0 JUMPI DUP1 PUSH4 0x5301FA6F EQ PUSH2 0x3DB JUMPI PUSH2 0x204 JUMP JUMPDEST DUP1 PUSH4 0xC2B72E9 EQ PUSH2 0x263 JUMPI DUP1 PUSH4 0xEFD0973 EQ PUSH2 0x28E JUMPI DUP1 PUSH4 0x138B7338 EQ PUSH2 0x2B9 JUMPI DUP1 PUSH4 0x210009CF EQ PUSH2 0x2F6 JUMPI DUP1 PUSH4 0x2B7459B9 EQ PUSH2 0x31F JUMPI DUP1 PUSH4 0x3D65DE44 EQ PUSH2 0x348 JUMPI PUSH2 0x204 JUMP JUMPDEST CALLDATASIZE PUSH2 0x204 JUMPI PUSH32 0x0 PUSH20 0xFFFFFFFFFFFFFFFFFFFFFFFFFFFFFFFFFFFFFFFF AND CALLER PUSH20 0xFFFFFFFFFFFFFFFFFFFFFFFFFFFFFFFFFFFFFFFF AND EQ PUSH2 0x202 JUMPI PUSH2 0x201 CALLVALUE PUSH2 0x69E JUMP JUMPDEST JUMPDEST STOP JUMPDEST PUSH32 0x0 PUSH20 0xFFFFFFFFFFFFFFFFFFFFFFFFFFFFFFFFFFFFFFFF AND CALLER PUSH20 0xFFFFFFFFFFFFFFFFFFFFFFFFFFFFFFFFFFFFFFFF AND EQ PUSH2 0x261 JUMPI PUSH2 0x260 CALLVALUE PUSH2 0x69E JUMP JUMPDEST JUMPDEST STOP JUMPDEST CALLVALUE DUP1 ISZERO PUSH2 0x26F JUMPI PUSH1 0x0 DUP1 REVERT JUMPDEST POP PUSH2 0x278 PUSH2 0x96F JUMP JUMPDEST PUSH1 0x40 MLOAD PUSH2 0x285 SWAP2 SWAP1 PUSH2 0x226C JUMP JUMPDEST PUSH1 0x40 MLOAD DUP1 SWAP2 SUB SWAP1 RETURN JUMPDEST CALLVALUE DUP1 ISZERO PUSH2 0x29A JUMPI PUSH1 0x0 DUP1 REVERT JUMPDEST POP PUSH2 0x2A3 PUSH2 0x993 JUMP JUMPDEST PUSH1 0x40 MLOAD PUSH2 0x2B0 SWAP2 SWAP1 PUSH2 0x226C JUMP JUMPDEST PUSH1 0x40 MLOAD DUP1 SWAP2 SUB SWAP1 RETURN JUMPDEST CALLVALUE DUP1 ISZERO PUSH2 0x2C5 JUMPI PUSH1 0x0 DUP1 REVERT JUMPDEST POP PUSH2 0x2E0 PUSH1 0x4 DUP1 CALLDATASIZE SUB DUP2 ADD SWAP1 PUSH2 0x2DB SWAP2 SWAP1 PUSH2 0x22C7 JUMP JUMPDEST PUSH2 0x9B7 JUMP JUMPDEST PUSH1 0x40 MLOAD PUSH2 0x2ED SWAP2 SWAP1 PUSH2 0x230F JUMP JUMPDEST PUSH1 0x40 MLOAD DUP1 SWAP2 SUB SWAP1 RETURN JUMPDEST CALLVALUE DUP1 ISZERO PUSH2 0x302 JUMPI PUSH1 0x0 DUP1 REVERT JUMPDEST POP PUSH2 0x31D PUSH1 0x4 DUP1 CALLDATASIZE SUB DUP2 ADD SWAP1 PUSH2 0x318 SWAP2 SWAP1 PUSH2 0x22C7 JUMP JUMPDEST PUSH2 0xA0D JUMP JUMPDEST STOP JUMPDEST CALLVALUE DUP1 ISZERO PUSH2 0x32B JUMPI PUSH1 0x0 DUP1 REVERT JUMPDEST POP PUSH2 0x346 PUSH1 0x4 DUP1 CALLDATASIZE SUB DUP2 ADD SWAP1 PUSH2 0x341 SWAP2 SWAP1 PUSH2 0x2356 JUMP JUMPDEST PUSH2 0xB33 JUMP JUMPDEST STOP JUMPDEST CALLVALUE DUP1 ISZERO PUSH2 0x354 JUMPI PUSH1 0x0 DUP1 REVERT JUMPDEST POP PUSH2 0x35D PUSH2 0xB68 JUMP JUMPDEST PUSH1 0x40 MLOAD PUSH2 0x36A SWAP2 SWAP1 PUSH2 0x239C JUMP JUMPDEST PUSH1 0x40 MLOAD DUP1 SWAP2 SUB SWAP1 RETURN JUMPDEST CALLVALUE DUP1 ISZERO PUSH2 0x37F JUMPI PUSH1 0x0 DUP1 REVERT JUMPDEST POP PUSH2 0x39A PUSH1 0x4 DUP1 CALLDATASIZE SUB DUP2 ADD SWAP1 PUSH2 0x395 SWAP2 SWAP1 PUSH2 0x22C7 JUMP JUMPDEST PUSH2 0xB6E JUMP JUMPDEST PUSH1 0x40 MLOAD PUSH2 0x3A7 SWAP2 SWAP1 PUSH2 0x230F JUMP JUMPDEST PUSH1 0x40 MLOAD DUP1 SWAP2 SUB SWAP1 RETURN JUMPDEST CALLVALUE DUP1 ISZERO PUSH2 0x3BC JUMPI PUSH1 0x0 DUP1 REVERT JUMPDEST POP PUSH2 0x3C5 PUSH2 0xB8E JUMP JUMPDEST PUSH1 0x40 MLOAD PUSH2 0x3D2 SWAP2 SWAP1 PUSH2 0x226C JUMP JUMPDEST PUSH1 0x40 MLOAD DUP1 SWAP2 SUB SWAP1 RETURN JUMPDEST CALLVALUE DUP1 ISZERO PUSH2 0x3E7 JUMPI PUSH1 0x0 DUP1 REVERT JUMPDEST POP PUSH2 0x3F0 PUSH2 0xBB2 JUMP JUMPDEST PUSH1 0x40 MLOAD PUSH2 0x3FD SWAP2 SWAP1 PUSH2 0x239C JUMP JUMPDEST PUSH1 0x40 MLOAD DUP1 SWAP2 SUB SWAP1 RETURN JUMPDEST CALLVALUE DUP1 ISZERO PUSH2 0x412 JUMPI PUSH1 0x0 DUP1 REVERT JUMPDEST POP PUSH2 0x41B PUSH2 0xBB8 JUMP JUMPDEST STOP JUMPDEST CALLVALUE DUP1 ISZERO PUSH2 0x429 JUMPI PUSH1 0x0 DUP1 REVERT JUMPDEST POP PUSH2 0x432 PUSH2 0xC34 JUMP JUMPDEST PUSH1 0x40 MLOAD PUSH2 0x43F SWAP2 SWAP1 PUSH2 0x23D8 JUMP JUMPDEST PUSH1 0x40 MLOAD DUP1 SWAP2 SUB SWAP1 RETURN JUMPDEST CALLVALUE DUP1 ISZERO PUSH2 0x454 JUMPI PUSH1 0x0 DUP1 REVERT JUMPDEST POP PUSH2 0x45D PUSH2 0xC58 JUMP JUMPDEST PUSH1 0x40 MLOAD PUSH2 0x46A SWAP2 SWAP1 PUSH2 0x226C JUMP JUMPDEST PUSH1 0x40 MLOAD DUP1 SWAP2 SUB SWAP1 RETURN JUMPDEST CALLVALUE DUP1 ISZERO PUSH2 0x47F JUMPI PUSH1 0x0 DUP1 REVERT JUMPDEST POP PUSH2 0x49A PUSH1 0x4 DUP1 CALLDATASIZE SUB DUP2 ADD SWAP1 PUSH2 0x495 SWAP2 SWAP1 PUSH2 0x2356 JUMP JUMPDEST PUSH2 0xC7C JUMP JUMPDEST STOP JUMPDEST CALLVALUE DUP1 ISZERO PUSH2 0x4A8 JUMPI PUSH1 0x0 DUP1 REVERT JUMPDEST POP PUSH2 0x4B1 PUSH2 0xCB1 JUMP JUMPDEST STOP JUMPDEST CALLVALUE DUP1 ISZERO PUSH2 0x4BF JUMPI PUSH1 0x0 DUP1 REVERT JUMPDEST POP PUSH2 0x4C8 PUSH2 0xCC5 JUMP JUMPDEST PUSH1 0x40 MLOAD PUSH2 0x4D5 SWAP2 SWAP1 PUSH2 0x239C JUMP JUMPDEST PUSH1 0x40 MLOAD DUP1 SWAP2 SUB SWAP1 RETURN JUMPDEST CALLVALUE DUP1 ISZERO PUSH2 0x4EA JUMPI PUSH1 0x0 DUP1 REVERT JUMPDEST POP PUSH2 0x4F3 PUSH2 0xCCB JUMP JUMPDEST PUSH1 0x40 MLOAD PUSH2 0x500 SWAP2 SWAP1 PUSH2 0x230F JUMP JUMPDEST PUSH1 0x40 MLOAD DUP1 SWAP2 SUB SWAP1 RETURN JUMPDEST CALLVALUE DUP1 ISZERO PUSH2 0x515 JUMPI PUSH1 0x0 DUP1 REVERT JUMPDEST POP PUSH2 0x530 PUSH1 0x4 DUP1 CALLDATASIZE SUB DUP2 ADD SWAP1 PUSH2 0x52B SWAP2 SWAP1 PUSH2 0x22C7 JUMP JUMPDEST PUSH2 0xCDE JUMP JUMPDEST STOP JUMPDEST CALLVALUE DUP1 ISZERO PUSH2 0x53E JUMPI PUSH1 0x0 DUP1 REVERT JUMPDEST POP PUSH2 0x547 PUSH2 0xE74 JUMP JUMPDEST PUSH1 0x40 MLOAD PUSH2 0x554 SWAP2 SWAP1 PUSH2 0x226C JUMP JUMPDEST PUSH1 0x40 MLOAD DUP1 SWAP2 SUB SWAP1 RETURN JUMPDEST CALLVALUE DUP1 ISZERO PUSH2 0x569 JUMPI PUSH1 0x0 DUP1 REVERT JUMPDEST POP PUSH2 0x584 PUSH1 0x4 DUP1 CALLDATASIZE SUB DUP2 ADD SWAP1 PUSH2 0x57F SWAP2 SWAP1 PUSH2 0x244B JUMP JUMPDEST PUSH2 0xE9D JUMP JUMPDEST STOP JUMPDEST CALLVALUE DUP1 ISZERO PUSH2 0x592 JUMPI PUSH1 0x0 DUP1 REVERT JUMPDEST POP PUSH2 0x59B PUSH2 0x1057 JUMP JUMPDEST PUSH1 0x40 MLOAD PUSH2 0x5A8 SWAP2 SWAP1 PUSH2 0x226C JUMP JUMPDEST PUSH1 0x40 MLOAD DUP1 SWAP2 SUB SWAP1 RETURN JUMPDEST CALLVALUE DUP1 ISZERO PUSH2 0x5BD JUMPI PUSH1 0x0 DUP1 REVERT JUMPDEST POP PUSH2 0x5D8 PUSH1 0x4 DUP1 CALLDATASIZE SUB DUP2 ADD SWAP1 PUSH2 0x5D3 SWAP2 SWAP1 PUSH2 0x248B JUMP JUMPDEST PUSH2 0x107B JUMP JUMPDEST STOP JUMPDEST CALLVALUE DUP1 ISZERO PUSH2 0x5E6 JUMPI PUSH1 0x0 DUP1 REVERT JUMPDEST POP PUSH2 0x5EF PUSH2 0x13D3 JUMP JUMPDEST PUSH1 0x40 MLOAD PUSH2 0x5FC SWAP2 SWAP1 PUSH2 0x230F JUMP JUMPDEST PUSH1 0x40 MLOAD DUP1 SWAP2 SUB SWAP1 RETURN JUMPDEST CALLVALUE DUP1 ISZERO PUSH2 0x611 JUMPI PUSH1 0x0 DUP1 REVERT JUMPDEST POP PUSH2 0x61A PUSH2 0x13E6 JUMP JUMPDEST STOP JUMPDEST CALLVALUE DUP1 ISZERO PUSH2 0x628 JUMPI PUSH1 0x0 DUP1 REVERT JUMPDEST POP PUSH2 0x631 PUSH2 0x158A JUMP JUMPDEST STOP JUMPDEST CALLVALUE DUP1 ISZERO PUSH2 0x63F JUMPI PUSH1 0x0 DUP1 REVERT JUMPDEST POP PUSH2 0x648 PUSH2 0x165F JUMP JUMPDEST STOP JUMPDEST CALLVALUE DUP1 ISZERO PUSH2 0x656 JUMPI PUSH1 0x0 DUP1 REVERT JUMPDEST POP PUSH2 0x671 PUSH1 0x4 DUP1 CALLDATASIZE SUB DUP2 ADD SWAP1 PUSH2 0x66C SWAP2 SWAP1 PUSH2 0x22C7 JUMP JUMPDEST PUSH2 0x16C6 JUMP JUMPDEST STOP JUMPDEST CALLVALUE DUP1 ISZERO PUSH2 0x67F JUMPI PUSH1 0x0 DUP1 REVERT JUMPDEST POP PUSH2 0x688 PUSH2 0x174C JUMP JUMPDEST PUSH1 0x40 MLOAD PUSH2 0x695 SWAP2 SWAP1 PUSH2 0x226C JUMP JUMPDEST PUSH1 0x40 MLOAD DUP1 SWAP2 SUB SWAP1 RETURN JUMPDEST PUSH1 0x0 DUP2 GT ISZERO PUSH2 0x729 JUMPI PUSH32 0x0 PUSH20 0xFFFFFFFFFFFFFFFFFFFFFFFFFFFFFFFFFFFFFFFF AND PUSH4 0xD0E30DB0 DUP3 PUSH1 0x40 MLOAD DUP3 PUSH4 0xFFFFFFFF AND PUSH1 0xE0 SHL DUP2 MSTORE PUSH1 0x4 ADD PUSH1 0x0 PUSH1 0x40 MLOAD DUP1 DUP4 SUB DUP2 DUP6 DUP9 DUP1 EXTCODESIZE ISZERO DUP1 ISZERO PUSH2 0x70F JUMPI PUSH1 0x0 DUP1 REVERT JUMPDEST POP GAS CALL ISZERO DUP1 ISZERO PUSH2 0x723 JUMPI RETURNDATASIZE PUSH1 0x0 DUP1 RETURNDATACOPY RETURNDATASIZE PUSH1 0x0 REVERT JUMPDEST POP POP POP POP POP JUMPDEST PUSH1 0x0 PUSH32 0x0 PUSH20 0xFFFFFFFFFFFFFFFFFFFFFFFFFFFFFFFFFFFFFFFF AND PUSH4 0x70A08231 ADDRESS PUSH1 0x40 MLOAD DUP3 PUSH4 0xFFFFFFFF AND PUSH1 0xE0 SHL DUP2 MSTORE PUSH1 0x4 ADD PUSH2 0x784 SWAP2 SWAP1 PUSH2 0x226C JUMP JUMPDEST PUSH1 0x20 PUSH1 0x40 MLOAD DUP1 DUP4 SUB DUP2 DUP7 GAS STATICCALL ISZERO DUP1 ISZERO PUSH2 0x7A1 JUMPI RETURNDATASIZE PUSH1 0x0 DUP1 RETURNDATACOPY RETURNDATASIZE PUSH1 0x0 REVERT JUMPDEST POP POP POP POP PUSH1 0x40 MLOAD RETURNDATASIZE PUSH1 0x1F NOT PUSH1 0x1F DUP3 ADD AND DUP3 ADD DUP1 PUSH1 0x40 MSTORE POP DUP2 ADD SWAP1 PUSH2 0x7C5 SWAP2 SWAP1 PUSH2 0x24F3 JUMP JUMPDEST SWAP1 POP PUSH1 0x0 PUSH1 0x6 SLOAD PUSH1 0x4 SLOAD PUSH1 0x5 SLOAD PUSH2 0x7DC SWAP2 SWAP1 PUSH2 0x254F JUMP JUMPDEST PUSH2 0x7E6 SWAP2 SWAP1 PUSH2 0x254F JUMP JUMPDEST SWAP1 POP DUP1 DUP3 LT ISZERO PUSH2 0x82B JUMPI PUSH1 0x40 MLOAD PUSH32 0x8C379A000000000000000000000000000000000000000000000000000000000 DUP2 MSTORE PUSH1 0x4 ADD PUSH2 0x822 SWAP1 PUSH2 0x25E0 JUMP JUMPDEST PUSH1 0x40 MLOAD DUP1 SWAP2 SUB SWAP1 REVERT JUMPDEST PUSH1 0x0 DUP2 DUP4 PUSH2 0x839 SWAP2 SWAP1 PUSH2 0x2600 JUMP JUMPDEST SWAP1 POP PUSH1 0x0 DUP2 GT ISZERO PUSH2 0x969 JUMPI PUSH1 0x0 PUSH1 0x64 PUSH1 0x28 DUP4 PUSH2 0x855 SWAP2 SWAP1 PUSH2 0x2634 JUMP JUMPDEST PUSH2 0x85F SWAP2 SWAP1 PUSH2 0x26A5 JUMP JUMPDEST SWAP1 POP PUSH1 0x0 PUSH1 0x64 PUSH1 0xA DUP5 PUSH2 0x872 SWAP2 SWAP1 PUSH2 0x2634 JUMP JUMPDEST PUSH2 0x87C SWAP2 SWAP1 PUSH2 0x26A5 JUMP JUMPDEST SWAP1 POP PUSH1 0x0 DUP2 DUP4 DUP6 PUSH2 0x88D SWAP2 SWAP1 PUSH2 0x2600 JUMP JUMPDEST PUSH2 0x897 SWAP2 SWAP1 PUSH2 0x2600 JUMP JUMPDEST SWAP1 POP DUP3 PUSH1 0x5 PUSH1 0x0 DUP3 DUP3 SLOAD PUSH2 0x8AB SWAP2 SWAP1 PUSH2 0x254F JUMP JUMPDEST SWAP3 POP POP DUP2 SWAP1 SSTORE POP DUP2 PUSH1 0x4 PUSH1 0x0 DUP3 DUP3 SLOAD PUSH2 0x8C4 SWAP2 SWAP1 PUSH2 0x254F JUMP JUMPDEST SWAP3 POP POP DUP2 SWAP1 SSTORE POP DUP1 PUSH1 0x6 PUSH1 0x0 DUP3 DUP3 SLOAD PUSH2 0x8DD SWAP2 SWAP1 PUSH2 0x254F JUMP JUMPDEST SWAP3 POP POP DUP2 SWAP1 SSTORE POP PUSH32 0x4816DB49BFC91A0172699BAEDF430E5D308B8034F966FB25681B27C17BCD3A47 DUP5 DUP5 DUP5 DUP5 PUSH1 0x40 MLOAD PUSH2 0x919 SWAP5 SWAP4 SWAP3 SWAP2 SWAP1 PUSH2 0x26D6 JUMP JUMPDEST PUSH1 0x40 MLOAD DUP1 SWAP2 SUB SWAP1 LOG1 PUSH2 0x929 PUSH2 0x1770 JUMP JUMPDEST PUSH1 0x7 PUSH1 0x0 SWAP1 SLOAD SWAP1 PUSH2 0x100 EXP SWAP1 DIV PUSH1 0xFF AND ISZERO PUSH2 0x947 JUMPI PUSH2 0x946 PUSH2 0x192B JUMP JUMPDEST JUMPDEST PUSH1 0x7 PUSH1 0x1 SWAP1 SLOAD SWAP1 PUSH2 0x100 EXP SWAP1 DIV PUSH1 0xFF AND ISZERO PUSH2 0x965 JUMPI PUSH2 0x964 PUSH2 0x1BCA JUMP JUMPDEST JUMPDEST POP POP POP JUMPDEST POP POP POP POP JUMP JUMPDEST PUSH32 0x0 DUP2 JUMP JUMPDEST PUSH32 0x0 DUP2 JUMP JUMPDEST PUSH1 0x0 PUSH1 0x3 PUSH1 0x0 DUP4 PUSH20 0xFFFFFFFFFFFFFFFFFFFFFFFFFFFFFFFFFFFFFFFF AND PUSH20 0xFFFFFFFFFFFFFFFFFFFFFFFFFFFFFFFFFFFFFFFF AND DUP2 MSTORE PUSH1 0x20 ADD SWAP1 DUP2 MSTORE PUSH1 0x20 ADD PUSH1 0x0 KECCAK256 PUSH1 0x0 SWAP1 SLOAD SWAP1 PUSH2 0x100 EXP SWAP1 DIV PUSH1 0xFF AND SWAP1 POP SWAP2 SWAP1 POP JUMP JUMPDEST PUSH2 0xA15 PUSH2 0x2006 JUMP JUMPDEST PUSH1 0x3 PUSH1 0x0 DUP3 PUSH20 0xFFFFFFFFFFFFFFFFFFFFFFFFFFFFFFFFFFFFFFFF AND PUSH20 0xFFFFFFFFFFFFFFFFFFFFFFFFFFFFFFFFFFFFFFFF AND DUP2 MSTORE PUSH1 0x20 ADD SWAP1 DUP2 MSTORE PUSH1 0x20 ADD PUSH1 0x0 KECCAK256 PUSH1 0x0 SWAP1 SLOAD SWAP1 PUSH2 0x100 EXP SWAP1 DIV PUSH1 0xFF AND PUSH2 0xAA1 JUMPI PUSH1 0x40 MLOAD PUSH32 0x8C379A000000000000000000000000000000000000000000000000000000000 DUP2 MSTORE PUSH1 0x4 ADD PUSH2 0xA98 SWAP1 PUSH2 0x2767 JUMP JUMPDEST PUSH1 0x40 MLOAD DUP1 SWAP2 SUB SWAP1 REVERT JUMPDEST PUSH1 0x0 PUSH1 0x3 PUSH1 0x0 DUP4 PUSH20 0xFFFFFFFFFFFFFFFFFFFFFFFFFFFFFFFFFFFFFFFF AND PUSH20 0xFFFFFFFFFFFFFFFFFFFFFFFFFFFFFFFFFFFFFFFF AND DUP2 MSTORE PUSH1 0x20 ADD SWAP1 DUP2 MSTORE PUSH1 0x20 ADD PUSH1 0x0 KECCAK256 PUSH1 0x0 PUSH2 0x100 EXP DUP2 SLOAD DUP2 PUSH1 0xFF MUL NOT AND SWAP1 DUP4 ISZERO ISZERO MUL OR SWAP1 SSTORE POP PUSH32 0xD9EA38E99B87231F31B9DA68DE3C78D56418E10E2E64D338C9F438AB75681EBC DUP2 PUSH1 0x40 MLOAD PUSH2 0xB28 SWAP2 SWAP1 PUSH2 0x226C JUMP JUMPDEST PUSH1 0x40 MLOAD DUP1 SWAP2 SUB SWAP1 LOG1 POP JUMP JUMPDEST PUSH2 0xB3B PUSH2 0x2006 JUMP JUMPDEST PUSH2 0xB43 PUSH2 0x208D JUMP JUMPDEST DUP1 PUSH1 0x7 PUSH1 0x0 PUSH2 0x100 EXP DUP2 SLOAD DUP2 PUSH1 0xFF MUL NOT AND SWAP1 DUP4 ISZERO ISZERO MUL OR SWAP1 SSTORE POP PUSH2 0xB65 PUSH2 0x20B0 JUMP JUMPDEST POP JUMP JUMPDEST PUSH1 0x4 SLOAD DUP2 JUMP JUMPDEST PUSH1 0x3 PUSH1 0x20 MSTORE DUP1 PUSH1 0x0 MSTORE PUSH1 0x40 PUSH1 0x0 KECCAK256 PUSH1 0x0 SWAP2 POP SLOAD SWAP1 PUSH2 0x100 EXP SWAP1 DIV PUSH1 0xFF AND DUP2 JUMP JUMPDEST PUSH32 0x0 DUP2 JUMP JUMPDEST PUSH1 0x6 SLOAD DUP2 JUMP JUMPDEST PUSH2 0xBC0 PUSH2 0x2006 JUMP JUMPDEST PUSH2 0xBC8 PUSH2 0x208D JUMP JUMPDEST PUSH1 0x0 PUSH1 0x4 SLOAD GT DUP1 PUSH2 0xBDB JUMPI POP PUSH1 0x0 PUSH1 0x5 SLOAD GT JUMPDEST PUSH2 0xC1A JUMPI PUSH1 0x40 MLOAD PUSH32 0x8C379A000000000000000000000000000000000000000000000000000000000 DUP2 MSTORE PUSH1 0x4 ADD PUSH2 0xC11 SWAP1 PUSH2 0x27D3 JUMP JUMPDEST PUSH1 0x40 MLOAD DUP1 SWAP2 SUB SWAP1 REVERT JUMPDEST PUSH2 0xC22 PUSH2 0x192B JUMP JUMPDEST PUSH2 0xC2A PUSH2 0x1BCA JUMP JUMPDEST PUSH2 0xC32 PUSH2 0x20B0 JUMP JUMPDEST JUMP JUMPDEST PUSH32 0x0 DUP2 JUMP JUMPDEST PUSH32 0x0 DUP2 JUMP JUMPDEST PUSH2 0xC84 PUSH2 0x2006 JUMP JUMPDEST PUSH2 0xC8C PUSH2 0x208D JUMP JUMPDEST DUP1 PUSH1 0x7 PUSH1 0x1 PUSH2 0x100 EXP DUP2 SLOAD DUP2 PUSH1 0xFF MUL NOT AND SWAP1 DUP4 ISZERO ISZERO MUL OR SWAP1 SSTORE POP PUSH2 0xCAE PUSH2 0x20B0 JUMP JUMPDEST POP JUMP JUMPDEST PUSH2 0xCB9 PUSH2 0x2006 JUMP JUMPDEST PUSH2 0xCC3 PUSH1 0x0 PUSH2 0x20CB JUMP JUMPDEST JUMP JUMPDEST PUSH1 0x5 SLOAD DUP2 JUMP JUMPDEST PUSH1 0x7 PUSH1 0x1 SWAP1 SLOAD SWAP1 PUSH2 0x100 EXP SWAP1 DIV PUSH1 0xFF AND DUP2 JUMP JUMPDEST PUSH2 0xCE6 PUSH2 0x2006 JUMP JUMPDEST PUSH1 0x0 PUSH20 0xFFFFFFFFFFFFFFFFFFFFFFFFFFFFFFFFFFFFFFFF AND DUP2 PUSH20 0xFFFFFFFFFFFFFFFFFFFFFFFFFFFFFFFFFFFFFFFF AND SUB PUSH2 0xD55 JUMPI PUSH1 0x40 MLOAD PUSH32 0x8C379A000000000000000000000000000000000000000000000000000000000 DUP2 MSTORE PUSH1 0x4 ADD PUSH2 0xD4C SWAP1 PUSH2 0x283F JUMP JUMPDEST PUSH1 0x40 MLOAD DUP1 SWAP2 SUB SWAP1 REVERT JUMPDEST PUSH1 0x3 PUSH1 0x0 DUP3 PUSH20 0xFFFFFFFFFFFFFFFFFFFFFFFFFFFFFFFFFFFFFFFF AND PUSH20 0xFFFFFFFFFFFFFFFFFFFFFFFFFFFFFFFFFFFFFFFF AND DUP2 MSTORE PUSH1 0x20 ADD SWAP1 DUP2 MSTORE PUSH1 0x20 ADD PUSH1 0x0 KECCAK256 PUSH1 0x0 SWAP1 SLOAD SWAP1 PUSH2 0x100 EXP SWAP1 DIV PUSH1 0xFF AND ISZERO PUSH2 0xDE2 JUMPI PUSH1 0x40 MLOAD PUSH32 0x8C379A000000000000000000000000000000000000000000000000000000000 DUP2 MSTORE PUSH1 0x4 ADD PUSH2 0xDD9 SWAP1 PUSH2 0x28AB JUMP JUMPDEST PUSH1 0x40 MLOAD DUP1 SWAP2 SUB SWAP1 REVERT JUMPDEST PUSH1 0x1 PUSH1 0x3 PUSH1 0x0 DUP4 PUSH20 0xFFFFFFFFFFFFFFFFFFFFFFFFFFFFFFFFFFFFFFFF AND PUSH20 0xFFFFFFFFFFFFFFFFFFFFFFFFFFFFFFFFFFFFFFFF AND DUP2 MSTORE PUSH1 0x20 ADD SWAP1 DUP2 MSTORE PUSH1 0x20 ADD PUSH1 0x0 KECCAK256 PUSH1 0x0 PUSH2 0x100 EXP DUP2 SLOAD DUP2 PUSH1 0xFF MUL NOT AND SWAP1 DUP4 ISZERO ISZERO MUL OR SWAP1 SSTORE POP PUSH32 0x797C25843E35D46F4254028734C97D60F3F93AACCC1DD994DD6B90683FDB2486 DUP2 PUSH1 0x40 MLOAD PUSH2 0xE69 SWAP2 SWAP1 PUSH2 0x226C JUMP JUMPDEST PUSH1 0x40 MLOAD DUP1 SWAP2 SUB SWAP1 LOG1 POP JUMP JUMPDEST PUSH1 0x0 DUP1 PUSH1 0x0 SWAP1 SLOAD SWAP1 PUSH2 0x100 EXP SWAP1 DIV PUSH20 0xFFFFFFFFFFFFFFFFFFFFFFFFFFFFFFFFFFFFFFFF AND SWAP1 POP SWAP1 JUMP JUMPDEST PUSH2 0xEA5 PUSH2 0x2006 JUMP JUMPDEST PUSH2 0xEAD PUSH2 0x208D JUMP JUMPDEST PUSH1 0x0 PUSH20 0xFFFFFFFFFFFFFFFFFFFFFFFFFFFFFFFFFFFFFFFF AND DUP2 PUSH20 0xFFFFFFFFFFFFFFFFFFFFFFFFFFFFFFFFFFFFFFFF AND SUB PUSH2 0xF1C JUMPI PUSH1 0x40 MLOAD PUSH32 0x8C379A000000000000000000000000000000000000000000000000000000000 DUP2 MSTORE PUSH1 0x4 ADD PUSH2 0xF13 SWAP1 PUSH2 0x2917 JUMP JUMPDEST PUSH1 0x40 MLOAD DUP1 SWAP2 SUB SWAP1 REVERT JUMPDEST PUSH1 0x0 SELFBALANCE SWAP1 POP DUP1 DUP4 GT ISZERO PUSH2 0xF64 JUMPI PUSH1 0x40 MLOAD PUSH32 0x8C379A000000000000000000000000000000000000000000000000000000000 DUP2 MSTORE PUSH1 0x4 ADD PUSH2 0xF5B SWAP1 PUSH2 0x2983 JUMP JUMPDEST PUSH1 0x40 MLOAD DUP1 SWAP2 SUB SWAP1 REVERT JUMPDEST PUSH1 0x0 DUP3 PUSH20 0xFFFFFFFFFFFFFFFFFFFFFFFFFFFFFFFFFFFFFFFF AND DUP5 PUSH1 0x40 MLOAD PUSH2 0xF8A SWAP1 PUSH2 0x29D4 JUMP JUMPDEST PUSH1 0x0 PUSH1 0x40 MLOAD DUP1 DUP4 SUB DUP2 DUP6 DUP8 GAS CALL SWAP3 POP POP POP RETURNDATASIZE DUP1 PUSH1 0x0 DUP2 EQ PUSH2 0xFC7 JUMPI PUSH1 0x40 MLOAD SWAP2 POP PUSH1 0x1F NOT PUSH1 0x3F RETURNDATASIZE ADD AND DUP3 ADD PUSH1 0x40 MSTORE RETURNDATASIZE DUP3 MSTORE RETURNDATASIZE PUSH1 0x0 PUSH1 0x20 DUP5 ADD RETURNDATACOPY PUSH2 0xFCC JUMP JUMPDEST PUSH1 0x60 SWAP2 POP JUMPDEST POP POP SWAP1 POP DUP1 PUSH2 0x1010 JUMPI PUSH1 0x40 MLOAD PUSH32 0x8C379A000000000000000000000000000000000000000000000000000000000 DUP2 MSTORE PUSH1 0x4 ADD PUSH2 0x1007 SWAP1 PUSH2 0x2A35 JUMP JUMPDEST PUSH1 0x40 MLOAD DUP1 SWAP2 SUB SWAP1 REVERT JUMPDEST PUSH32 0xCD7FEF3A642DCF99CE1004B2A15D31E91398F01974500B64EAB8FC50FEF2D3B1 DUP5 DUP5 PUSH1 0x40 MLOAD PUSH2 0x1041 SWAP3 SWAP2 SWAP1 PUSH2 0x2AB4 JUMP JUMPDEST PUSH1 0x40 MLOAD DUP1 SWAP2 SUB SWAP1 LOG1 POP POP PUSH2 0x1053 PUSH2 0x20B0 JUMP JUMPDEST POP POP JUMP JUMPDEST PUSH32 0x0 DUP2 JUMP JUMPDEST PUSH2 0x1083 PUSH2 0x2006 JUMP JUMPDEST PUSH2 0x108B PUSH2 0x208D JUMP JUMPDEST PUSH1 0x0 PUSH20 0xFFFFFFFFFFFFFFFFFFFFFFFFFFFFFFFFFFFFFFFF AND DUP2 PUSH20 0xFFFFFFFFFFFFFFFFFFFFFFFFFFFFFFFFFFFFFFFF AND SUB PUSH2 0x10FA JUMPI PUSH1 0x40 MLOAD PUSH32 0x8C379A000000000000000000000000000000000000000000000000000000000 DUP2 MSTORE PUSH1 0x4 ADD PUSH2 0x10F1 SWAP1 PUSH2 0x2917 JUMP JUMPDEST PUSH1 0x40 MLOAD DUP1 SWAP2 SUB SWAP1 REVERT JUMPDEST PUSH1 0x0 DUP4 SWAP1 POP PUSH1 0x0 DUP2 PUSH20 0xFFFFFFFFFFFFFFFFFFFFFFFFFFFFFFFFFFFFFFFF AND PUSH4 0x70A08231 ADDRESS PUSH1 0x40 MLOAD DUP3 PUSH4 0xFFFFFFFF AND PUSH1 0xE0 SHL DUP2 MSTORE PUSH1 0x4 ADD PUSH2 0x113A SWAP2 SWAP1 PUSH2 0x226C JUMP JUMPDEST PUSH1 0x20 PUSH1 0x40 MLOAD DUP1 DUP4 SUB DUP2 DUP7 GAS STATICCALL ISZERO DUP1 ISZERO PUSH2 0x1157 JUMPI RETURNDATASIZE PUSH1 0x0 DUP1 RETURNDATACOPY RETURNDATASIZE PUSH1 0x0 REVERT JUMPDEST POP POP POP POP PUSH1 0x40 MLOAD RETURNDATASIZE PUSH1 0x1F NOT PUSH1 0x1F DUP3 ADD AND DUP3 ADD DUP1 PUSH1 0x40 MSTORE POP DUP2 ADD SWAP1 PUSH2 0x117B SWAP2 SWAP1 PUSH2 0x24F3 JUMP JUMPDEST SWAP1 POP DUP1 DUP5 GT ISZERO PUSH2 0x11C0 JUMPI PUSH1 0x40 MLOAD PUSH32 0x8C379A000000000000000000000000000000000000000000000000000000000 DUP2 MSTORE PUSH1 0x4 ADD PUSH2 0x11B7 SWAP1 PUSH2 0x2B29 JUMP JUMPDEST PUSH1 0x40 MLOAD DUP1 SWAP2 SUB SWAP1 REVERT JUMPDEST PUSH32 0x0 PUSH20 0xFFFFFFFFFFFFFFFFFFFFFFFFFFFFFFFFFFFFFFFF AND DUP6 PUSH20 0xFFFFFFFFFFFFFFFFFFFFFFFFFFFFFFFFFFFFFFFF AND SUB PUSH2 0x12C6 JUMPI PUSH1 0x0 PUSH1 0x6 SLOAD PUSH1 0x4 SLOAD PUSH1 0x5 SLOAD PUSH2 0x1228 SWAP2 SWAP1 PUSH2 0x254F JUMP JUMPDEST PUSH2 0x1232 SWAP2 SWAP1 PUSH2 0x254F JUMP JUMPDEST SWAP1 POP DUP1 DUP3 GT PUSH2 0x1276 JUMPI PUSH1 0x40 MLOAD PUSH32 0x8C379A000000000000000000000000000000000000000000000000000000000 DUP2 MSTORE PUSH1 0x4 ADD PUSH2 0x126D SWAP1 PUSH2 0x2B95 JUMP JUMPDEST PUSH1 0x40 MLOAD DUP1 SWAP2 SUB SWAP1 REVERT JUMPDEST DUP1 DUP3 PUSH2 0x1282 SWAP2 SWAP1 PUSH2 0x2600 JUMP JUMPDEST DUP6 GT ISZERO PUSH2 0x12C4 JUMPI PUSH1 0x40 MLOAD PUSH32 0x8C379A000000000000000000000000000000000000000000000000000000000 DUP2 MSTORE PUSH1 0x4 ADD PUSH2 0x12BB SWAP1 PUSH2 0x2C01 JUMP JUMPDEST PUSH1 0x40 MLOAD DUP1 SWAP2 SUB SWAP1 REVERT JUMPDEST POP JUMPDEST PUSH1 0x0 DUP3 PUSH20 0xFFFFFFFFFFFFFFFFFFFFFFFFFFFFFFFFFFFFFFFF AND PUSH4 0xA9059CBB DUP6 DUP8 PUSH1 0x40 MLOAD DUP4 PUSH4 0xFFFFFFFF AND PUSH1 0xE0 SHL DUP2 MSTORE PUSH1 0x4 ADD PUSH2 0x1303 SWAP3 SWAP2 SWAP1 PUSH2 0x2C21 JUMP JUMPDEST PUSH1 0x20 PUSH1 0x40 MLOAD DUP1 DUP4 SUB DUP2 PUSH1 0x0 DUP8 GAS CALL ISZERO DUP1 ISZERO PUSH2 0x1322 JUMPI RETURNDATASIZE PUSH1 0x0 DUP1 RETURNDATACOPY RETURNDATASIZE PUSH1 0x0 REVERT JUMPDEST POP POP POP POP PUSH1 0x40 MLOAD RETURNDATASIZE PUSH1 0x1F NOT PUSH1 0x1F DUP3 ADD AND DUP3 ADD DUP1 PUSH1 0x40 MSTORE POP DUP2 ADD SWAP1 PUSH2 0x1346 SWAP2 SWAP1 PUSH2 0x2C5F JUMP JUMPDEST SWAP1 POP DUP1 PUSH2 0x1388 JUMPI PUSH1 0x40 MLOAD PUSH32 0x8C379A000000000000000000000000000000000000000000000000000000000 DUP2 MSTORE PUSH1 0x4 ADD PUSH2 0x137F SWAP1 PUSH2 0x2CD8 JUMP JUMPDEST PUSH1 0x40 MLOAD DUP1 SWAP2 SUB SWAP1 REVERT JUMPDEST PUSH32 0xFB475A842BAD10D3800B61BD1A92E716051AFBA979B124B583BD99A2D1D7BFD5 DUP7 DUP7 DUP7 PUSH1 0x40 MLOAD PUSH2 0x13BB SWAP4 SWAP3 SWAP2 SWAP1 PUSH2 0x2CF8 JUMP JUMPDEST PUSH1 0x40 MLOAD DUP1 SWAP2 SUB SWAP1 LOG1 POP POP POP PUSH2 0x13CE PUSH2 0x20B0 JUMP JUMPDEST POP POP POP JUMP JUMPDEST PUSH1 0x7 PUSH1 0x0 SWAP1 SLOAD SWAP1 PUSH2 0x100 EXP SWAP1 DIV PUSH1 0xFF AND DUP2 JUMP JUMPDEST PUSH2 0x13EE PUSH2 0x2006 JUMP JUMPDEST PUSH2 0x13F6 PUSH2 0x208D JUMP JUMPDEST PUSH2 0x1400 PUSH1 0x0 PUSH2 0x69E JUMP JUMPDEST PUSH1 0x0 PUSH1 0x5 SLOAD SWAP1 POP PUSH1 0x0 DUP2 GT ISZERO PUSH2 0x149C JUMPI PUSH32 0x0 PUSH20 0xFFFFFFFFFFFFFFFFFFFFFFFFFFFFFFFFFFFFFFFF AND PUSH4 0x2E1A7D4D DUP3 PUSH1 0x40 MLOAD DUP3 PUSH4 0xFFFFFFFF AND PUSH1 0xE0 SHL DUP2 MSTORE PUSH1 0x4 ADD PUSH2 0x1469 SWAP2 SWAP1 PUSH2 0x239C JUMP JUMPDEST PUSH1 0x0 PUSH1 0x40 MLOAD DUP1 DUP4 SUB DUP2 PUSH1 0x0 DUP8 DUP1 EXTCODESIZE ISZERO DUP1 ISZERO PUSH2 0x1483 JUMPI PUSH1 0x0 DUP1 REVERT JUMPDEST POP GAS CALL ISZERO DUP1 ISZERO PUSH2 0x1497 JUMPI RETURNDATASIZE PUSH1 0x0 DUP1 RETURNDATACOPY RETURNDATASIZE PUSH1 0x0 REVERT JUMPDEST POP POP POP POP JUMPDEST PUSH1 0x0 PUSH1 0x5 SLOAD GT ISZERO PUSH2 0x157F JUMPI PUSH1 0x0 PUSH32 0x0 PUSH20 0xFFFFFFFFFFFFFFFFFFFFFFFFFFFFFFFFFFFFFFFF AND PUSH1 0x5 SLOAD PUSH1 0x40 MLOAD PUSH2 0x14EF SWAP1 PUSH2 0x29D4 JUMP JUMPDEST PUSH1 0x0 PUSH1 0x40 MLOAD DUP1 DUP4 SUB DUP2 DUP6 DUP8 GAS CALL SWAP3 POP POP POP RETURNDATASIZE DUP1 PUSH1 0x0 DUP2 EQ PUSH2 0x152C JUMPI PUSH1 0x40 MLOAD SWAP2 POP PUSH1 0x1F NOT PUSH1 0x3F RETURNDATASIZE ADD AND DUP3 ADD PUSH1 0x40 MSTORE RETURNDATASIZE DUP3 MSTORE RETURNDATASIZE PUSH1 0x0 PUSH1 0x20 DUP5 ADD RETURNDATACOPY PUSH2 0x1531 JUMP JUMPDEST PUSH1 0x60 SWAP2 POP JUMPDEST POP POP SWAP1 POP DUP1 PUSH2 0x1575 JUMPI PUSH1 0x40 MLOAD PUSH32 0x8C379A000000000000000000000000000000000000000000000000000000000 DUP2 MSTORE PUSH1 0x4 ADD PUSH2 0x156C SWAP1 PUSH2 0x2D7B JUMP JUMPDEST PUSH1 0x40 MLOAD DUP1 SWAP2 SUB SWAP1 REVERT JUMPDEST PUSH1 0x0 PUSH1 0x5 DUP2 SWAP1 SSTORE POP POP JUMPDEST POP PUSH2 0x1588 PUSH2 0x20B0 JUMP JUMPDEST JUMP JUMPDEST PUSH2 0x1592 PUSH2 0xE74 JUMP JUMPDEST PUSH20 0xFFFFFFFFFFFFFFFFFFFFFFFFFFFFFFFFFFFFFFFF AND CALLER PUSH20 0xFFFFFFFFFFFFFFFFFFFFFFFFFFFFFFFFFFFFFFFF AND EQ DUP1 PUSH2 0x1614 JUMPI POP PUSH1 0x3 PUSH1 0x0 CALLER PUSH20 0xFFFFFFFFFFFFFFFFFFFFFFFFFFFFFFFFFFFFFFFF AND PUSH20 0xFFFFFFFFFFFFFFFFFFFFFFFFFFFFFFFFFFFFFFFF AND DUP2 MSTORE PUSH1 0x20 ADD SWAP1 DUP2 MSTORE PUSH1 0x20 ADD PUSH1 0x0 KECCAK256 PUSH1 0x0 SWAP1 SLOAD SWAP1 PUSH2 0x100 EXP SWAP1 DIV PUSH1 0xFF AND JUMPDEST PUSH2 0x1653 JUMPI PUSH1 0x40 MLOAD PUSH32 0x8C379A000000000000000000000000000000000000000000000000000000000 DUP2 MSTORE PUSH1 0x4 ADD PUSH2 0x164A SWAP1 PUSH2 0x2E0D JUMP JUMPDEST PUSH1 0x40 MLOAD DUP1 SWAP2 SUB SWAP1 REVERT JUMPDEST PUSH2 0x165D PUSH1 0x0 PUSH2 0x69E JUMP JUMPDEST JUMP JUMPDEST PUSH2 0x1667 PUSH2 0x2006 JUMP JUMPDEST PUSH2 0x166F PUSH2 0x208D JUMP JUMPDEST PUSH1 0x0 PUSH1 0x5 SLOAD GT PUSH2 0x16B4 JUMPI PUSH1 0x40 MLOAD PUSH32 0x8C379A000000000000000000000000000000000000000000000000000000000 DUP2 MSTORE PUSH1 0x4 ADD PUSH2 0x16AB SWAP1 PUSH2 0x2E79 JUMP JUMPDEST PUSH1 0x40 MLOAD DUP1 SWAP2 SUB SWAP1 REVERT JUMPDEST PUSH2 0x16BC PUSH2 0x1BCA JUMP JUMPDEST PUSH2 0x16C4 PUSH2 0x20B0 JUMP JUMPDEST JUMP JUMPDEST PUSH2 0x16CE PUSH2 0x2006 JUMP JUMPDEST PUSH1 0x0 PUSH20 0xFFFFFFFFFFFFFFFFFFFFFFFFFFFFFFFFFFFFFFFF AND DUP2 PUSH20 0xFFFFFFFFFFFFFFFFFFFFFFFFFFFFFFFFFFFFFFFF AND SUB PUSH2 0x1740 JUMPI PUSH1 0x0 PUSH1 0x40 MLOAD PUSH32 0x1E4FBDF700000000000000000000000000000000000000000000000000000000 DUP2 MSTORE PUSH1 0x4 ADD PUSH2 0x1737 SWAP2 SWAP1 PUSH2 0x226C JUMP JUMPDEST PUSH1 0x40 MLOAD DUP1 SWAP2 SUB SWAP1 REVERT JUMPDEST PUSH2 0x1749 DUP2 PUSH2 0x20CB JUMP JUMPDEST POP JUMP JUMPDEST PUSH32 0x0 DUP2 JUMP JUMPDEST PUSH1 0x0 PUSH1 0x6 SLOAD SUB ISZERO PUSH2 0x1929 JUMPI PUSH1 0x0 PUSH1 0x9 PUSH1 0x6 SLOAD PUSH2 0x178C SWAP2 SWAP1 PUSH2 0x26A5 JUMP JUMPDEST SWAP1 POP PUSH1 0x0 PUSH1 0x1 SWAP1 POP JUMPDEST PUSH1 0x9 DUP2 GT PUSH2 0x191E JUMPI PUSH32 0x0 PUSH20 0xFFFFFFFFFFFFFFFFFFFFFFFFFFFFFFFFFFFFFFFF AND PUSH4 0x6352211E DUP3 PUSH1 0x40 MLOAD DUP3 PUSH4 0xFFFFFFFF AND PUSH1 0xE0 SHL DUP2 MSTORE PUSH1 0x4 ADD PUSH2 0x17F6 SWAP2 SWAP1 PUSH2 0x239C JUMP JUMPDEST PUSH1 0x20 PUSH1 0x40 MLOAD DUP1 DUP4 SUB DUP2 DUP7 GAS STATICCALL SWAP3 POP POP POP DUP1 ISZERO PUSH2 0x1830 JUMPI POP PUSH1 0x40 MLOAD RETURNDATASIZE PUSH1 0x1F NOT PUSH1 0x1F DUP3 ADD AND DUP3 ADD DUP1 PUSH1 0x40 MSTORE POP DUP2 ADD SWAP1 PUSH2 0x182D SWAP2 SWAP1 PUSH2 0x2EAE JUMP JUMPDEST PUSH1 0x1 JUMPDEST ISZERO PUSH2 0x190B JUMPI PUSH1 0x0 PUSH20 0xFFFFFFFFFFFFFFFFFFFFFFFFFFFFFFFFFFFFFFFF AND DUP2 PUSH20 0xFFFFFFFFFFFFFFFFFFFFFFFFFFFFFFFFFFFFFFFF AND EQ PUSH2 0x1909 JUMPI PUSH32 0x0 PUSH20 0xFFFFFFFFFFFFFFFFFFFFFFFFFFFFFFFFFFFFFFFF AND PUSH4 0xA9059CBB DUP3 DUP6 PUSH1 0x40 MLOAD DUP4 PUSH4 0xFFFFFFFF AND PUSH1 0xE0 SHL DUP2 MSTORE PUSH1 0x4 ADD PUSH2 0x18C4 SWAP3 SWAP2 SWAP1 PUSH2 0x2C21 JUMP JUMPDEST PUSH1 0x20 PUSH1 0x40 MLOAD DUP1 DUP4 SUB DUP2 PUSH1 0x0 DUP8 GAS CALL ISZERO DUP1 ISZERO PUSH2 0x18E3 JUMPI RETURNDATASIZE PUSH1 0x0 DUP1 RETURNDATACOPY RETURNDATASIZE PUSH1 0x0 REVERT JUMPDEST POP POP POP POP PUSH1 0x40 MLOAD RETURNDATASIZE PUSH1 0x1F NOT PUSH1 0x1F DUP3 ADD AND DUP3 ADD DUP1 PUSH1 0x40 MSTORE POP DUP2 ADD SWAP1 PUSH2 0x1907 SWAP2 SWAP1 PUSH2 0x2C5F JUMP JUMPDEST POP JUMPDEST POP JUMPDEST DUP1 DUP1 PUSH2 0x1916 SWAP1 PUSH2 0x2EDB JUMP JUMPDEST SWAP2 POP POP PUSH2 0x1795 JUMP JUMPDEST POP PUSH1 0x0 PUSH1 0x6 DUP2 SWAP1 SSTORE POP POP JUMPDEST JUMP JUMPDEST PUSH1 0x0 PUSH1 0x4 SLOAD GT ISZERO PUSH2 0x1BC8 JUMPI PUSH32 0x0 PUSH20 0xFFFFFFFFFFFFFFFFFFFFFFFFFFFFFFFFFFFFFFFF AND PUSH4 0x95EA7B3 PUSH1 0x1 PUSH1 0x0 SWAP1 SLOAD SWAP1 PUSH2 0x100 EXP SWAP1 DIV PUSH20 0xFFFFFFFFFFFFFFFFFFFFFFFFFFFFFFFFFFFFFFFF AND PUSH1 0x4 SLOAD PUSH1 0x40 MLOAD DUP4 PUSH4 0xFFFFFFFF AND PUSH1 0xE0 SHL DUP2 MSTORE PUSH1 0x4 ADD PUSH2 0x19B5 SWAP3 SWAP2 SWAP1 PUSH2 0x2C21 JUMP JUMPDEST PUSH1 0x20 PUSH1 0x40 MLOAD DUP1 DUP4 SUB DUP2 PUSH1 0x0 DUP8 GAS CALL ISZERO DUP1 ISZERO PUSH2 0x19D4 JUMPI RETURNDATASIZE PUSH1 0x0 DUP1 RETURNDATACOPY RETURNDATASIZE PUSH1 0x0 REVERT JUMPDEST POP POP POP POP PUSH1 0x40 MLOAD RETURNDATASIZE PUSH1 0x1F NOT PUSH1 0x1F DUP3 ADD AND DUP3 ADD DUP1 PUSH1 0x40 MSTORE POP DUP2 ADD SWAP1 PUSH2 0x19F8 SWAP2 SWAP1 PUSH2 0x2C5F JUMP JUMPDEST POP PUSH1 0x0 PUSH1 0x40 MLOAD DUP1 PUSH1 0x80 ADD PUSH1 0x40 MSTORE DUP1 PUSH32 0x0 PUSH32 0x0 PUSH32 0x0 PUSH1 0x40 MLOAD PUSH1 0x20 ADD PUSH2 0x1A7B SWAP4 SWAP3 SWAP2 SWAP1 PUSH2 0x2FB0 JUMP JUMPDEST PUSH1 0x40 MLOAD PUSH1 0x20 DUP2 DUP4 SUB SUB DUP2 MSTORE SWAP1 PUSH1 0x40 MSTORE DUP2 MSTORE PUSH1 0x20 ADD PUSH32 0x0 PUSH20 0xFFFFFFFFFFFFFFFFFFFFFFFFFFFFFFFFFFFFFFFF AND DUP2 MSTORE PUSH1 0x20 ADD PUSH1 0x4 SLOAD DUP2 MSTORE PUSH1 0x20 ADD PUSH1 0x0 DUP2 MSTORE POP SWAP1 POP PUSH1 0x0 PUSH1 0x1 PUSH1 0x0 SWAP1 SLOAD SWAP1 PUSH2 0x100 EXP SWAP1 DIV PUSH20 0xFFFFFFFFFFFFFFFFFFFFFFFFFFFFFFFFFFFFFFFF AND PUSH20 0xFFFFFFFFFFFFFFFFFFFFFFFFFFFFFFFFFFFFFFFF AND PUSH4 0xB858183F DUP4 PUSH1 0x40 MLOAD DUP3 PUSH4 0xFFFFFFFF AND PUSH1 0xE0 SHL DUP2 MSTORE PUSH1 0x4 ADD PUSH2 0x1B37 SWAP2 SWAP1 PUSH2 0x30FE JUMP JUMPDEST PUSH1 0x20 PUSH1 0x40 MLOAD DUP1 DUP4 SUB DUP2 PUSH1 0x0 DUP8 GAS CALL ISZERO DUP1 ISZERO PUSH2 0x1B56 JUMPI RETURNDATASIZE PUSH1 0x0 DUP1 RETURNDATACOPY RETURNDATASIZE PUSH1 0x0 REVERT JUMPDEST POP POP POP POP PUSH1 0x40 MLOAD RETURNDATASIZE PUSH1 0x1F NOT PUSH1 0x1F DUP3 ADD AND DUP3 ADD DUP1 PUSH1 0x40 MSTORE POP DUP2 ADD SWAP1 PUSH2 0x1B7A SWAP2 SWAP1 PUSH2 0x24F3 JUMP JUMPDEST SWAP1 POP PUSH1 0x0 PUSH1 0x4 DUP2 SWAP1 SSTORE POP PUSH1 0x0 DUP2 GT ISZERO PUSH2 0x1BC5 JUMPI PUSH32 0x9F7C0331CAE72869B1E69D00E6DBFCEB0E02266830E12339F841D334BC614127 DUP2 PUSH1 0x40 MLOAD PUSH2 0x1BBC SWAP2 SWAP1 PUSH2 0x239C JUMP JUMPDEST PUSH1 0x40 MLOAD DUP1 SWAP2 SUB SWAP1 LOG1 JUMPDEST POP POP JUMPDEST JUMP JUMPDEST PUSH1 0x0 PUSH1 0x5 SLOAD GT ISZERO PUSH2 0x2004 JUMPI PUSH1 0x0 PUSH1 0x2 PUSH8 0xFFFFFFFFFFFFFFFF DUP2 GT ISZERO PUSH2 0x1BF2 JUMPI PUSH2 0x1BF1 PUSH2 0x3120 JUMP JUMPDEST JUMPDEST PUSH1 0x40 MLOAD SWAP1 DUP1 DUP3 MSTORE DUP1 PUSH1 0x20 MUL PUSH1 0x20 ADD DUP3 ADD PUSH1 0x40 MSTORE DUP1 ISZERO PUSH2 0x1C20 JUMPI DUP2 PUSH1 0x20 ADD PUSH1 0x20 DUP3 MUL DUP1 CALLDATASIZE DUP4 CALLDATACOPY DUP1 DUP3 ADD SWAP2 POP POP SWAP1 POP JUMPDEST POP SWAP1 POP PUSH32 0x0 DUP2 PUSH1 0x0 DUP2 MLOAD DUP2 LT PUSH2 0x1C58 JUMPI PUSH2 0x1C57 PUSH2 0x314F JUMP JUMPDEST JUMPDEST PUSH1 0x20 MUL PUSH1 0x20 ADD ADD SWAP1 PUSH20 0xFFFFFFFFFFFFFFFFFFFFFFFFFFFFFFFFFFFFFFFF AND SWAP1 DUP2 PUSH20 0xFFFFFFFFFFFFFFFFFFFFFFFFFFFFFFFFFFFFFFFF AND DUP2 MSTORE POP POP PUSH32 0x0 DUP2 PUSH1 0x1 DUP2 MLOAD DUP2 LT PUSH2 0x1CC7 JUMPI PUSH2 0x1CC6 PUSH2 0x314F JUMP JUMPDEST JUMPDEST PUSH1 0x20 MUL PUSH1 0x20 ADD ADD SWAP1 PUSH20 0xFFFFFFFFFFFFFFFFFFFFFFFFFFFFFFFFFFFFFFFF AND SWAP1 DUP2 PUSH20 0xFFFFFFFFFFFFFFFFFFFFFFFFFFFFFFFFFFFFFFFF AND DUP2 MSTORE POP POP PUSH1 0x0 PUSH1 0x2 PUSH1 0x0 SWAP1 SLOAD SWAP1 PUSH2 0x100 EXP SWAP1 DIV PUSH20 0xFFFFFFFFFFFFFFFFFFFFFFFFFFFFFFFFFFFFFFFF AND PUSH20 0xFFFFFFFFFFFFFFFFFFFFFFFFFFFFFFFFFFFFFFFF AND PUSH4 0xD06CA61F PUSH1 0x5 SLOAD DUP5 PUSH1 0x40 MLOAD DUP4 PUSH4 0xFFFFFFFF AND PUSH1 0xE0 SHL DUP2 MSTORE PUSH1 0x4 ADD PUSH2 0x1D62 SWAP3 SWAP2 SWAP1 PUSH2 0x322D JUMP JUMPDEST PUSH1 0x0 PUSH1 0x40 MLOAD DUP1 DUP4 SUB DUP2 DUP7 GAS STATICCALL ISZERO DUP1 ISZERO PUSH2 0x1D7F JUMPI RETURNDATASIZE PUSH1 0x0 DUP1 RETURNDATACOPY RETURNDATASIZE PUSH1 0x0 REVERT JUMPDEST POP POP POP POP PUSH1 0x40 MLOAD RETURNDATASIZE PUSH1 0x0 DUP3 RETURNDATACOPY RETURNDATASIZE PUSH1 0x1F NOT PUSH1 0x1F DUP3 ADD AND DUP3 ADD DUP1 PUSH1 0x40 MSTORE POP DUP2 ADD SWAP1 PUSH2 0x1DA8 SWAP2 SWAP1 PUSH2 0x3376 JUMP JUMPDEST SWAP1 POP PUSH1 0x0 DUP2 PUSH1 0x1 DUP2 MLOAD DUP2 LT PUSH2 0x1DC0 JUMPI PUSH2 0x1DBF PUSH2 0x314F JUMP JUMPDEST JUMPDEST PUSH1 0x20 MUL PUSH1 0x20 ADD ADD MLOAD SWAP1 POP PUSH1 0x0 PUSH1 0x64 PUSH1 0x50 DUP4 PUSH2 0x1DDB SWAP2 SWAP1 PUSH2 0x2634 JUMP JUMPDEST PUSH2 0x1DE5 SWAP2 SWAP1 PUSH2 0x26A5 JUMP JUMPDEST SWAP1 POP PUSH32 0x0 PUSH20 0xFFFFFFFFFFFFFFFFFFFFFFFFFFFFFFFFFFFFFFFF AND PUSH4 0x95EA7B3 PUSH1 0x2 PUSH1 0x0 SWAP1 SLOAD SWAP1 PUSH2 0x100 EXP SWAP1 DIV PUSH20 0xFFFFFFFFFFFFFFFFFFFFFFFFFFFFFFFFFFFFFFFF AND PUSH1 0x5 SLOAD PUSH1 0x40 MLOAD DUP4 PUSH4 0xFFFFFFFF AND PUSH1 0xE0 SHL DUP2 MSTORE PUSH1 0x4 ADD PUSH2 0x1E66 SWAP3 SWAP2 SWAP1 PUSH2 0x2C21 JUMP JUMPDEST PUSH1 0x20 PUSH1 0x40 MLOAD DUP1 DUP4 SUB DUP2 PUSH1 0x0 DUP8 GAS CALL ISZERO DUP1 ISZERO PUSH2 0x1E85 JUMPI RETURNDATASIZE PUSH1 0x0 DUP1 RETURNDATACOPY RETURNDATASIZE PUSH1 0x0 REVERT JUMPDEST POP POP POP POP PUSH1 0x40 MLOAD RETURNDATASIZE PUSH1 0x1F NOT PUSH1 0x1F DUP3 ADD AND DUP3 ADD DUP1 PUSH1 0x40 MSTORE POP DUP2 ADD SWAP1 PUSH2 0x1EA9 SWAP2 SWAP1 PUSH2 0x2C5F JUMP JUMPDEST POP PUSH1 0x0 PUSH1 0x2 PUSH1 0x0 SWAP1 SLOAD SWAP1 PUSH2 0x100 EXP SWAP1 DIV PUSH20 0xFFFFFFFFFFFFFFFFFFFFFFFFFFFFFFFFFFFFFFFF AND PUSH20 0xFFFFFFFFFFFFFFFFFFFFFFFFFFFFFFFFFFFFFFFF AND PUSH4 0x38ED1739 PUSH1 0x5 SLOAD DUP5 DUP9 PUSH32 0x0 PUSH2 0x12C TIMESTAMP PUSH2 0x1F1E SWAP2 SWAP1 PUSH2 0x254F JUMP JUMPDEST PUSH1 0x40 MLOAD DUP7 PUSH4 0xFFFFFFFF AND PUSH1 0xE0 SHL DUP2 MSTORE PUSH1 0x4 ADD PUSH2 0x1F3E SWAP6 SWAP5 SWAP4 SWAP3 SWAP2 SWAP1 PUSH2 0x33BF JUMP JUMPDEST PUSH1 0x0 PUSH1 0x40 MLOAD DUP1 DUP4 SUB DUP2 PUSH1 0x0 DUP8 GAS CALL ISZERO DUP1 ISZERO PUSH2 0x1F5D JUMPI RETURNDATASIZE PUSH1 0x0 DUP1 RETURNDATACOPY RETURNDATASIZE PUSH1 0x0 REVERT JUMPDEST POP POP POP POP PUSH1 0x40 MLOAD RETURNDATASIZE PUSH1 0x0 DUP3 RETURNDATACOPY RETURNDATASIZE PUSH1 0x1F NOT PUSH1 0x1F DUP3 ADD AND DUP3 ADD DUP1 PUSH1 0x40 MSTORE POP DUP2 ADD SWAP1 PUSH2 0x1F86 SWAP2 SWAP1 PUSH2 0x3376 JUMP JUMPDEST SWAP1 POP PUSH1 0x0 DUP2 PUSH1 0x1 DUP4 MLOAD PUSH2 0x1F99 SWAP2 SWAP1 PUSH2 0x2600 JUMP JUMPDEST DUP2 MLOAD DUP2 LT PUSH2 0x1FAA JUMPI PUSH2 0x1FA9 PUSH2 0x314F JUMP JUMPDEST JUMPDEST PUSH1 0x20 MUL PUSH1 0x20 ADD ADD MLOAD SWAP1 POP PUSH1 0x0 PUSH1 0x5 DUP2 SWAP1 SSTORE POP PUSH1 0x0 DUP2 GT ISZERO PUSH2 0x1FFD JUMPI PUSH32 0xCB42363DCC1840222268FE43EEBC976F3E311A14761E5396EB394EBDAC90A582 DUP2 PUSH1 0x40 MLOAD PUSH2 0x1FF4 SWAP2 SWAP1 PUSH2 0x239C JUMP JUMPDEST PUSH1 0x40 MLOAD DUP1 SWAP2 SUB SWAP1 LOG1 JUMPDEST POP POP POP POP POP POP JUMPDEST JUMP JUMPDEST PUSH2 0x200E PUSH2 0x218F JUMP JUMPDEST PUSH20 0xFFFFFFFFFFFFFFFFFFFFFFFFFFFFFFFFFFFFFFFF AND PUSH2 0x202C PUSH2 0xE74 JUMP JUMPDEST PUSH20 0xFFFFFFFFFFFFFFFFFFFFFFFFFFFFFFFFFFFFFFFF AND EQ PUSH2 0x208B JUMPI PUSH2 0x204F PUSH2 0x218F JUMP JUMPDEST PUSH1 0x40 MLOAD PUSH32 0x118CDAA700000000000000000000000000000000000000000000000000000000 DUP2 MSTORE PUSH1 0x4 ADD PUSH2 0x2082 SWAP2 SWAP1 PUSH2 0x226C JUMP JUMPDEST PUSH1 0x40 MLOAD DUP1 SWAP2 SUB SWAP1 REVERT JUMPDEST JUMP JUMPDEST PUSH2 0x2095 PUSH2 0x2197 JUMP JUMPDEST PUSH1 0x2 PUSH2 0x20A7 PUSH2 0x20A2 PUSH2 0x21D8 JUMP JUMPDEST PUSH2 0x2203 JUMP JUMPDEST PUSH1 0x0 ADD DUP2 SWAP1 SSTORE POP JUMP JUMPDEST PUSH1 0x1 PUSH2 0x20C2 PUSH2 0x20BD PUSH2 0x21D8 JUMP JUMPDEST PUSH2 0x2203 JUMP JUMPDEST PUSH1 0x0 ADD DUP2 SWAP1 SSTORE POP JUMP JUMPDEST PUSH1 0x0 DUP1 PUSH1 0x0 SWAP1 SLOAD SWAP1 PUSH2 0x100 EXP SWAP1 DIV PUSH20 0xFFFFFFFFFFFFFFFFFFFFFFFFFFFFFFFFFFFFFFFF AND SWAP1 POP DUP2 PUSH1 0x0 DUP1 PUSH2 0x100 EXP DUP2 SLOAD DUP2 PUSH20 0xFFFFFFFFFFFFFFFFFFFFFFFFFFFFFFFFFFFFFFFF MUL NOT AND SWAP1 DUP4 PUSH20 0xFFFFFFFFFFFFFFFFFFFFFFFFFFFFFFFFFFFFFFFF AND MUL OR SWAP1 SSTORE POP DUP2 PUSH20 0xFFFFFFFFFFFFFFFFFFFFFFFFFFFFFFFFFFFFFFFF AND DUP2 PUSH20 0xFFFFFFFFFFFFFFFFFFFFFFFFFFFFFFFFFFFFFFFF AND PUSH32 0x8BE0079C531659141344CD1FD0A4F28419497F9722A3DAAFE3B4186F6B6457E0 PUSH1 0x40 MLOAD PUSH1 0x40 MLOAD DUP1 SWAP2 SUB SWAP1 LOG3 POP POP JUMP JUMPDEST PUSH1 0x0 CALLER SWAP1 POP SWAP1 JUMP JUMPDEST PUSH2 0x219F PUSH2 0x220D JUMP JUMPDEST ISZERO PUSH2 0x21D6 JUMPI PUSH1 0x40 MLOAD PUSH32 0x3EE5AEB500000000000000000000000000000000000000000000000000000000 DUP2 MSTORE PUSH1 0x4 ADD PUSH1 0x40 MLOAD DUP1 SWAP2 SUB SWAP1 REVERT JUMPDEST JUMP JUMPDEST PUSH1 0x0 PUSH32 0x9B779B17422D0DF92223018B32B4D1FA46E071723D6817E2486D003BECC55F00 PUSH1 0x0 SHL SWAP1 POP SWAP1 JUMP JUMPDEST PUSH1 0x0 DUP2 SWAP1 POP SWAP2 SWAP1 POP JUMP JUMPDEST PUSH1 0x0 PUSH1 0x2 PUSH2 0x2221 PUSH2 0x221C PUSH2 0x21D8 JUMP JUMPDEST PUSH2 0x2203 JUMP JUMPDEST PUSH1 0x0 ADD SLOAD EQ SWAP1 POP SWAP1 JUMP JUMPDEST PUSH1 0x0 PUSH20 0xFFFFFFFFFFFFFFFFFFFFFFFFFFFFFFFFFFFFFFFF DUP3 AND SWAP1 POP SWAP2 SWAP1 POP JUMP JUMPDEST PUSH1 0x0 PUSH2 0x2256 DUP3 PUSH2 0x222B JUMP JUMPDEST SWAP1 POP SWAP2 SWAP1 POP JUMP JUMPDEST PUSH2 0x2266 DUP2 PUSH2 0x224B JUMP JUMPDEST DUP3 MSTORE POP POP JUMP JUMPDEST PUSH1 0x0 PUSH1 0x20 DUP3 ADD SWAP1 POP PUSH2 0x2281 PUSH1 0x0 DUP4 ADD DUP5 PUSH2 0x225D JUMP JUMPDEST SWAP3 SWAP2 POP POP JUMP JUMPDEST PUSH1 0x0 PUSH1 0x40 MLOAD SWAP1 POP SWAP1 JUMP JUMPDEST PUSH1 0x0 DUP1 REVERT JUMPDEST PUSH1 0x0 DUP1 REVERT JUMPDEST PUSH2 0x22A4 DUP2 PUSH2 0x224B JUMP JUMPDEST DUP2 EQ PUSH2 0x22AF JUMPI PUSH1 0x0 DUP1 REVERT JUMPDEST POP JUMP JUMPDEST PUSH1 0x0 DUP2 CALLDATALOAD SWAP1 POP PUSH2 0x22C1 DUP2 PUSH2 0x229B JUMP JUMPDEST SWAP3 SWAP2 POP POP JUMP JUMPDEST PUSH1 0x0 PUSH1 0x20 DUP3 DUP5 SUB SLT ISZERO PUSH2 0x22DD JUMPI PUSH2 0x22DC PUSH2 0x2291 JUMP JUMPDEST JUMPDEST PUSH1 0x0 PUSH2 0x22EB DUP5 DUP3 DUP6 ADD PUSH2 0x22B2 JUMP JUMPDEST SWAP2 POP POP SWAP3 SWAP2 POP POP JUMP JUMPDEST PUSH1 0x0 DUP2 ISZERO ISZERO SWAP1 POP SWAP2 SWAP1 POP JUMP JUMPDEST PUSH2 0x2309 DUP2 PUSH2 0x22F4 JUMP JUMPDEST DUP3 MSTORE POP POP JUMP JUMPDEST PUSH1 0x0 PUSH1 0x20 DUP3 ADD SWAP1 POP PUSH2 0x2324 PUSH1 0x0 DUP4 ADD DUP5 PUSH2 0x2300 JUMP JUMPDEST SWAP3 SWAP2 POP POP JUMP JUMPDEST PUSH2 0x2333 DUP2 PUSH2 0x22F4 JUMP JUMPDEST DUP2 EQ PUSH2 0x233E JUMPI PUSH1 0x0 DUP1 REVERT JUMPDEST POP JUMP JUMPDEST PUSH1 0x0 DUP2 CALLDATALOAD SWAP1 POP PUSH2 0x2350 DUP2 PUSH2 0x232A JUMP JUMPDEST SWAP3 SWAP2 POP POP JUMP JUMPDEST PUSH1 0x0 PUSH1 0x20 DUP3 DUP5 SUB SLT ISZERO PUSH2 0x236C JUMPI PUSH2 0x236B PUSH2 0x2291 JUMP JUMPDEST JUMPDEST PUSH1 0x0 PUSH2 0x237A DUP5 DUP3 DUP6 ADD PUSH2 0x2341 JUMP JUMPDEST SWAP2 POP POP SWAP3 SWAP2 POP POP JUMP JUMPDEST PUSH1 0x0 DUP2 SWAP1 POP SWAP2 SWAP1 POP JUMP JUMPDEST PUSH2 0x2396 DUP2 PUSH2 0x2383 JUMP JUMPDEST DUP3 MSTORE POP POP JUMP JUMPDEST PUSH1 0x0 PUSH1 0x20 DUP3 ADD SWAP1 POP PUSH2 0x23B1 PUSH1 0x0 DUP4 ADD DUP5 PUSH2 0x238D JUMP JUMPDEST SWAP3 SWAP2 POP POP JUMP JUMPDEST PUSH1 0x0 PUSH2 0x23C2 DUP3 PUSH2 0x222B JUMP JUMPDEST SWAP1 POP SWAP2 SWAP1 POP JUMP JUMPDEST PUSH2 0x23D2 DUP2 PUSH2 0x23B7 JUMP JUMPDEST DUP3 MSTORE POP POP JUMP JUMPDEST PUSH1 0x0 PUSH1 0x20 DUP3 ADD SWAP1 POP PUSH2 0x23ED PUSH1 0x0 DUP4 ADD DUP5 PUSH2 0x23C9 JUMP JUMPDEST SWAP3 SWAP2 POP POP JUMP JUMPDEST PUSH2 0x23FC DUP2 PUSH2 0x2383 JUMP JUMPDEST DUP2 EQ PUSH2 0x2407 JUMPI PUSH1 0x0 DUP1 REVERT JUMPDEST POP JUMP JUMPDEST PUSH1 0x0 DUP2 CALLDATALOAD SWAP1 POP PUSH2 0x2419 DUP2 PUSH2 0x23F3 JUMP JUMPDEST SWAP3 SWAP2 POP POP JUMP JUMPDEST PUSH2 0x2428 DUP2 PUSH2 0x23B7 JUMP JUMPDEST DUP2 EQ PUSH2 0x2433 JUMPI PUSH1 0x0 DUP1 REVERT JUMPDEST POP JUMP JUMPDEST PUSH1 0x0 DUP2 CALLDATALOAD SWAP1 POP PUSH2 0x2445 DUP2 PUSH2 0x241F JUMP JUMPDEST SWAP3 SWAP2 POP POP JUMP JUMPDEST PUSH1 0x0 DUP1 PUSH1 0x40 DUP4 DUP6 SUB SLT ISZERO PUSH2 0x2462 JUMPI PUSH2 0x2461 PUSH2 0x2291 JUMP JUMPDEST JUMPDEST PUSH1 0x0 PUSH2 0x2470 DUP6 DUP3 DUP7 ADD PUSH2 0x240A JUMP JUMPDEST SWAP3 POP POP PUSH1 0x20 PUSH2 0x2481 DUP6 DUP3 DUP7 ADD PUSH2 0x2436 JUMP JUMPDEST SWAP2 POP POP SWAP3 POP SWAP3 SWAP1 POP JUMP JUMPDEST PUSH1 0x0 DUP1 PUSH1 0x0 PUSH1 0x60 DUP5 DUP7 SUB SLT ISZERO PUSH2 0x24A4 JUMPI PUSH2 0x24A3 PUSH2 0x2291 JUMP JUMPDEST JUMPDEST PUSH1 0x0 PUSH2 0x24B2 DUP7 DUP3 DUP8 ADD PUSH2 0x22B2 JUMP JUMPDEST SWAP4 POP POP PUSH1 0x20 PUSH2 0x24C3 DUP7 DUP3 DUP8 ADD PUSH2 0x240A JUMP JUMPDEST SWAP3 POP POP PUSH1 0x40 PUSH2 0x24D4 DUP7 DUP3 DUP8 ADD PUSH2 0x22B2 JUMP JUMPDEST SWAP2 POP POP SWAP3 POP SWAP3 POP SWAP3 JUMP JUMPDEST PUSH1 0x0 DUP2 MLOAD SWAP1 POP PUSH2 0x24ED DUP2 PUSH2 0x23F3 JUMP JUMPDEST SWAP3 SWAP2 POP POP JUMP JUMPDEST PUSH1 0x0 PUSH1 0x20 DUP3 DUP5 SUB SLT ISZERO PUSH2 0x2509 JUMPI PUSH2 0x2508 PUSH2 0x2291 JUMP JUMPDEST JUMPDEST PUSH1 0x0 PUSH2 0x2517 DUP5 DUP3 DUP6 ADD PUSH2 0x24DE JUMP JUMPDEST SWAP2 POP POP SWAP3 SWAP2 POP POP JUMP JUMPDEST PUSH32 0x4E487B7100000000000000000000000000000000000000000000000000000000 PUSH1 0x0 MSTORE PUSH1 0x11 PUSH1 0x4 MSTORE PUSH1 0x24 PUSH1 0x0 REVERT JUMPDEST PUSH1 0x0 PUSH2 0x255A DUP3 PUSH2 0x2383 JUMP JUMPDEST SWAP2 POP PUSH2 0x2565 DUP4 PUSH2 0x2383 JUMP JUMPDEST SWAP3 POP DUP3 DUP3 ADD SWAP1 POP DUP1 DUP3 GT ISZERO PUSH2 0x257D JUMPI PUSH2 0x257C PUSH2 0x2520 JUMP JUMPDEST JUMPDEST SWAP3 SWAP2 POP POP JUMP JUMPDEST PUSH1 0x0 DUP3 DUP3 MSTORE PUSH1 0x20 DUP3 ADD SWAP1 POP SWAP3 SWAP2 POP POP JUMP JUMPDEST PUSH32 0x42616C616E6365206572726F7200000000000000000000000000000000000000 PUSH1 0x0 DUP3 ADD MSTORE POP JUMP JUMPDEST PUSH1 0x0 PUSH2 0x25CA PUSH1 0xD DUP4 PUSH2 0x2583 JUMP JUMPDEST SWAP2 POP PUSH2 0x25D5 DUP3 PUSH2 0x2594 JUMP JUMPDEST PUSH1 0x20 DUP3 ADD SWAP1 POP SWAP2 SWAP1 POP JUMP JUMPDEST PUSH1 0x0 PUSH1 0x20 DUP3 ADD SWAP1 POP DUP2 DUP2 SUB PUSH1 0x0 DUP4 ADD MSTORE PUSH2 0x25F9 DUP2 PUSH2 0x25BD JUMP JUMPDEST SWAP1 POP SWAP2 SWAP1 POP JUMP JUMPDEST PUSH1 0x0 PUSH2 0x260B DUP3 PUSH2 0x2383 JUMP JUMPDEST SWAP2 POP PUSH2 0x2616 DUP4 PUSH2 0x2383 JUMP JUMPDEST SWAP3 POP DUP3 DUP3 SUB SWAP1 POP DUP2 DUP2 GT ISZERO PUSH2 0x262E JUMPI PUSH2 0x262D PUSH2 0x2520 JUMP JUMPDEST JUMPDEST SWAP3 SWAP2 POP POP JUMP JUMPDEST PUSH1 0x0 PUSH2 0x263F DUP3 PUSH2 0x2383 JUMP JUMPDEST SWAP2 POP PUSH2 0x264A DUP4 PUSH2 0x2383 JUMP JUMPDEST SWAP3 POP DUP3 DUP3 MUL PUSH2 0x2658 DUP2 PUSH2 0x2383 JUMP JUMPDEST SWAP2 POP DUP3 DUP3 DIV DUP5 EQ DUP4 ISZERO OR PUSH2 0x266F JUMPI PUSH2 0x266E PUSH2 0x2520 JUMP JUMPDEST JUMPDEST POP SWAP3 SWAP2 POP POP JUMP JUMPDEST PUSH32 0x4E487B7100000000000000000000000000000000000000000000000000000000 PUSH1 0x0 MSTORE PUSH1 0x12 PUSH1 0x4 MSTORE PUSH1 0x24 PUSH1 0x0 REVERT JUMPDEST PUSH1 0x0 PUSH2 0x26B0 DUP3 PUSH2 0x2383 JUMP JUMPDEST SWAP2 POP PUSH2 0x26BB DUP4 PUSH2 0x2383 JUMP JUMPDEST SWAP3 POP DUP3 PUSH2 0x26CB JUMPI PUSH2 0x26CA PUSH2 0x2676 JUMP JUMPDEST JUMPDEST DUP3 DUP3 DIV SWAP1 POP SWAP3 SWAP2 POP POP JUMP JUMPDEST PUSH1 0x0 PUSH1 0x80 DUP3 ADD SWAP1 POP PUSH2 0x26EB PUSH1 0x0 DUP4 ADD DUP8 PUSH2 0x238D JUMP JUMPDEST PUSH2 0x26F8 PUSH1 0x20 DUP4 ADD DUP7 PUSH2 0x238D JUMP JUMPDEST PUSH2 0x2705 PUSH1 0x40 DUP4 ADD DUP6 PUSH2 0x238D JUMP JUMPDEST PUSH2 0x2712 PUSH1 0x60 DUP4 ADD DUP5 PUSH2 0x238D JUMP JUMPDEST SWAP6 SWAP5 POP POP POP POP POP JUMP JUMPDEST PUSH32 0x4E6F742077686974656C69737465640000000000000000000000000000000000 PUSH1 0x0 DUP3 ADD MSTORE POP JUMP JUMPDEST PUSH1 0x0 PUSH2 0x2751 PUSH1 0xF DUP4 PUSH2 0x2583 JUMP JUMPDEST SWAP2 POP PUSH2 0x275C DUP3 PUSH2 0x271B JUMP JUMPDEST PUSH1 0x20 DUP3 ADD SWAP1 POP SWAP2 SWAP1 POP JUMP JUMPDEST PUSH1 0x0 PUSH1 0x20 DUP3 ADD SWAP1 POP DUP2 DUP2 SUB PUSH1 0x0 DUP4 ADD MSTORE PUSH2 0x2780 DUP2 PUSH2 0x2744 JUMP JUMPDEST SWAP1 POP SWAP2 SWAP1 POP JUMP JUMPDEST PUSH32 0x4E6F2062616C616E63657320746F206275726E00000000000000000000000000 PUSH1 0x0 DUP3 ADD MSTORE POP JUMP JUMPDEST PUSH1 0x0 PUSH2 0x27BD PUSH1 0x13 DUP4 PUSH2 0x2583 JUMP JUMPDEST SWAP2 POP PUSH2 0x27C8 DUP3 PUSH2 0x2787 JUMP JUMPDEST PUSH1 0x20 DUP3 ADD SWAP1 POP SWAP2 SWAP1 POP JUMP JUMPDEST PUSH1 0x0 PUSH1 0x20 DUP3 ADD SWAP1 POP DUP2 DUP2 SUB PUSH1 0x0 DUP4 ADD MSTORE PUSH2 0x27EC DUP2 PUSH2 0x27B0 JUMP JUMPDEST SWAP1 POP SWAP2 SWAP1 POP JUMP JUMPDEST PUSH32 0x496E76616C6964204E465420636F6E7472616374206164647265737300000000 PUSH1 0x0 DUP3 ADD MSTORE POP JUMP JUMPDEST PUSH1 0x0 PUSH2 0x2829 PUSH1 0x1C DUP4 PUSH2 0x2583 JUMP JUMPDEST SWAP2 POP PUSH2 0x2834 DUP3 PUSH2 0x27F3 JUMP JUMPDEST PUSH1 0x20 DUP3 ADD SWAP1 POP SWAP2 SWAP1 POP JUMP JUMPDEST PUSH1 0x0 PUSH1 0x20 DUP3 ADD SWAP1 POP DUP2 DUP2 SUB PUSH1 0x0 DUP4 ADD MSTORE PUSH2 0x2858 DUP2 PUSH2 0x281C JUMP JUMPDEST SWAP1 POP SWAP2 SWAP1 POP JUMP JUMPDEST PUSH32 0x416C72656164792077686974656C697374656400000000000000000000000000 PUSH1 0x0 DUP3 ADD MSTORE POP JUMP JUMPDEST PUSH1 0x0 PUSH2 0x2895 PUSH1 0x13 DUP4 PUSH2 0x2583 JUMP JUMPDEST SWAP2 POP PUSH2 0x28A0 DUP3 PUSH2 0x285F JUMP JUMPDEST PUSH1 0x20 DUP3 ADD SWAP1 POP SWAP2 SWAP1 POP JUMP JUMPDEST PUSH1 0x0 PUSH1 0x20 DUP3 ADD SWAP1 POP DUP2 DUP2 SUB PUSH1 0x0 DUP4 ADD MSTORE PUSH2 0x28C4 DUP2 PUSH2 0x2888 JUMP JUMPDEST SWAP1 POP SWAP2 SWAP1 POP JUMP JUMPDEST PUSH32 0x496E76616C696420726563697069656E74000000000000000000000000000000 PUSH1 0x0 DUP3 ADD MSTORE POP JUMP JUMPDEST PUSH1 0x0 PUSH2 0x2901 PUSH1 0x11 DUP4 PUSH2 0x2583 JUMP JUMPDEST SWAP2 POP PUSH2 0x290C DUP3 PUSH2 0x28CB JUMP JUMPDEST PUSH1 0x20 DUP3 ADD SWAP1 POP SWAP2 SWAP1 POP JUMP JUMPDEST PUSH1 0x0 PUSH1 0x20 DUP3 ADD SWAP1 POP DUP2 DUP2 SUB PUSH1 0x0 DUP4 ADD MSTORE PUSH2 0x2930 DUP2 PUSH2 0x28F4 JUMP JUMPDEST SWAP1 POP SWAP2 SWAP1 POP JUMP JUMPDEST PUSH32 0x4E6F7420656E6F75676820455448000000000000000000000000000000000000 PUSH1 0x0 DUP3 ADD MSTORE POP JUMP JUMPDEST PUSH1 0x0 PUSH2 0x296D PUSH1 0xE DUP4 PUSH2 0x2583 JUMP JUMPDEST SWAP2 POP PUSH2 0x2978 DUP3 PUSH2 0x2937 JUMP JUMPDEST PUSH1 0x20 DUP3 ADD SWAP1 POP SWAP2 SWAP1 POP JUMP JUMPDEST PUSH1 0x0 PUSH1 0x20 DUP3 ADD SWAP1 POP DUP2 DUP2 SUB PUSH1 0x0 DUP4 ADD MSTORE PUSH2 0x299C DUP2 PUSH2 0x2960 JUMP JUMPDEST SWAP1 POP SWAP2 SWAP1 POP JUMP JUMPDEST PUSH1 0x0 DUP2 SWAP1 POP SWAP3 SWAP2 POP POP JUMP JUMPDEST POP JUMP JUMPDEST PUSH1 0x0 PUSH2 0x29BE PUSH1 0x0 DUP4 PUSH2 0x29A3 JUMP JUMPDEST SWAP2 POP PUSH2 0x29C9 DUP3 PUSH2 0x29AE JUMP JUMPDEST PUSH1 0x0 DUP3 ADD SWAP1 POP SWAP2 SWAP1 POP JUMP JUMPDEST PUSH1 0x0 PUSH2 0x29DF DUP3 PUSH2 0x29B1 JUMP JUMPDEST SWAP2 POP DUP2 SWAP1 POP SWAP2 SWAP1 POP JUMP JUMPDEST PUSH32 0x455448207472616E73666572206661696C656400000000000000000000000000 PUSH1 0x0 DUP3 ADD MSTORE POP JUMP JUMPDEST PUSH1 0x0 PUSH2 0x2A1F PUSH1 0x13 DUP4 PUSH2 0x2583 JUMP JUMPDEST SWAP2 POP PUSH2 0x2A2A DUP3 PUSH2 0x29E9 JUMP JUMPDEST PUSH1 0x20 DUP3 ADD SWAP1 POP SWAP2 SWAP1 POP JUMP JUMPDEST PUSH1 0x0 PUSH1 0x20 DUP3 ADD SWAP1 POP DUP2 DUP2 SUB PUSH1 0x0 DUP4 ADD MSTORE PUSH2 0x2A4E DUP2 PUSH2 0x2A12 JUMP JUMPDEST SWAP1 POP SWAP2 SWAP1 POP JUMP JUMPDEST PUSH1 0x0 DUP2 SWAP1 POP SWAP2 SWAP1 POP JUMP JUMPDEST PUSH1 0x0 PUSH2 0x2A7A PUSH2 0x2A75 PUSH2 0x2A70 DUP5 PUSH2 0x222B JUMP JUMPDEST PUSH2 0x2A55 JUMP JUMPDEST PUSH2 0x222B JUMP JUMPDEST SWAP1 POP SWAP2 SWAP1 POP JUMP JUMPDEST PUSH1 0x0 PUSH2 0x2A8C DUP3 PUSH2 0x2A5F JUMP JUMPDEST SWAP1 POP SWAP2 SWAP1 POP JUMP JUMPDEST PUSH1 0x0 PUSH2 0x2A9E DUP3 PUSH2 0x2A81 JUMP JUMPDEST SWAP1 POP SWAP2 SWAP1 POP JUMP JUMPDEST PUSH2 0x2AAE DUP2 PUSH2 0x2A93 JUMP JUMPDEST DUP3 MSTORE POP POP JUMP JUMPDEST PUSH1 0x0 PUSH1 0x40 DUP3 ADD SWAP1 POP PUSH2 0x2AC9 PUSH1 0x0 DUP4 ADD DUP6 PUSH2 0x238D JUMP JUMPDEST PUSH2 0x2AD6 PUSH1 0x20 DUP4 ADD DUP5 PUSH2 0x2AA5 JUMP JUMPDEST SWAP4 SWAP3 POP POP POP JUMP JUMPDEST PUSH32 0x4E6F7420656E6F75676820746F6B656E2062616C616E63650000000000000000 PUSH1 0x0 DUP3 ADD MSTORE POP JUMP JUMPDEST PUSH1 0x0 PUSH2 0x2B13 PUSH1 0x18 DUP4 PUSH2 0x2583 JUMP JUMPDEST SWAP2 POP PUSH2 0x2B1E DUP3 PUSH2 0x2ADD JUMP JUMPDEST PUSH1 0x20 DUP3 ADD SWAP1 POP SWAP2 SWAP1 POP JUMP JUMPDEST PUSH1 0x0 PUSH1 0x20 DUP3 ADD SWAP1 POP DUP2 DUP2 SUB PUSH1 0x0 DUP4 ADD MSTORE PUSH2 0x2B42 DUP2 PUSH2 0x2B06 JUMP JUMPDEST SWAP1 POP SWAP2 SWAP1 POP JUMP JUMPDEST PUSH32 0x4E6F20657863657373205745544E20746F207265736375650000000000000000 PUSH1 0x0 DUP3 ADD MSTORE POP JUMP JUMPDEST PUSH1 0x0 PUSH2 0x2B7F PUSH1 0x18 DUP4 PUSH2 0x2583 JUMP JUMPDEST SWAP2 POP PUSH2 0x2B8A DUP3 PUSH2 0x2B49 JUMP JUMPDEST PUSH1 0x20 DUP3 ADD SWAP1 POP SWAP2 SWAP1 POP JUMP JUMPDEST PUSH1 0x0 PUSH1 0x20 DUP3 ADD SWAP1 POP DUP2 DUP2 SUB PUSH1 0x0 DUP4 ADD MSTORE PUSH2 0x2BAE DUP2 PUSH2 0x2B72 JUMP JUMPDEST SWAP1 POP SWAP2 SWAP1 POP JUMP JUMPDEST PUSH32 0x416D6F756E74206578636565647320657863657373205745544E000000000000 PUSH1 0x0 DUP3 ADD MSTORE POP JUMP JUMPDEST PUSH1 0x0 PUSH2 0x2BEB PUSH1 0x1A DUP4 PUSH2 0x2583 JUMP JUMPDEST SWAP2 POP PUSH2 0x2BF6 DUP3 PUSH2 0x2BB5 JUMP JUMPDEST PUSH1 0x20 DUP3 ADD SWAP1 POP SWAP2 SWAP1 POP JUMP JUMPDEST PUSH1 0x0 PUSH1 0x20 DUP3 ADD SWAP1 POP DUP2 DUP2 SUB PUSH1 0x0 DUP4 ADD MSTORE PUSH2 0x2C1A DUP2 PUSH2 0x2BDE JUMP JUMPDEST SWAP1 POP SWAP2 SWAP1 POP JUMP JUMPDEST PUSH1 0x0 PUSH1 0x40 DUP3 ADD SWAP1 POP PUSH2 0x2C36 PUSH1 0x0 DUP4 ADD DUP6 PUSH2 0x225D JUMP JUMPDEST PUSH2 0x2C43 PUSH1 0x20 DUP4 ADD DUP5 PUSH2 0x238D JUMP JUMPDEST SWAP4 SWAP3 POP POP POP JUMP JUMPDEST PUSH1 0x0 DUP2 MLOAD SWAP1 POP PUSH2 0x2C59 DUP2 PUSH2 0x232A JUMP JUMPDEST SWAP3 SWAP2 POP POP JUMP JUMPDEST PUSH1 0x0 PUSH1 0x20 DUP3 DUP5 SUB SLT ISZERO PUSH2 0x2C75 JUMPI PUSH2 0x2C74 PUSH2 0x2291 JUMP JUMPDEST JUMPDEST PUSH1 0x0 PUSH2 0x2C83 DUP5 DUP3 DUP6 ADD PUSH2 0x2C4A JUMP JUMPDEST SWAP2 POP POP SWAP3 SWAP2 POP POP JUMP JUMPDEST PUSH32 0x546F6B656E207472616E73666572206661696C65640000000000000000000000 PUSH1 0x0 DUP3 ADD MSTORE POP JUMP JUMPDEST PUSH1 0x0 PUSH2 0x2CC2 PUSH1 0x15 DUP4 PUSH2 0x2583 JUMP JUMPDEST SWAP2 POP PUSH2 0x2CCD DUP3 PUSH2 0x2C8C JUMP JUMPDEST PUSH1 0x20 DUP3 ADD SWAP1 POP SWAP2 SWAP1 POP JUMP JUMPDEST PUSH1 0x0 PUSH1 0x20 DUP3 ADD SWAP1 POP DUP2 DUP2 SUB PUSH1 0x0 DUP4 ADD MSTORE PUSH2 0x2CF1 DUP2 PUSH2 0x2CB5 JUMP JUMPDEST SWAP1 POP SWAP2 SWAP1 POP JUMP JUMPDEST PUSH1 0x0 PUSH1 0x60 DUP3 ADD SWAP1 POP PUSH2 0x2D0D PUSH1 0x0 DUP4 ADD DUP7 PUSH2 0x225D JUMP JUMPDEST PUSH2 0x2D1A PUSH1 0x20 DUP4 ADD DUP6 PUSH2 0x238D JUMP JUMPDEST PUSH2 0x2D27 PUSH1 0x40 DUP4 ADD DUP5 PUSH2 0x225D JUMP JUMPDEST SWAP5 SWAP4 POP POP POP POP JUMP JUMPDEST PUSH32 0x436F72652077616C6C6574207472616E73666572206661696C65640000000000 PUSH1 0x0 DUP3 ADD MSTORE POP JUMP JUMPDEST PUSH1 0x0 PUSH2 0x2D65 PUSH1 0x1B DUP4 PUSH2 0x2583 JUMP JUMPDEST SWAP2 POP PUSH2 0x2D70 DUP3 PUSH2 0x2D2F JUMP JUMPDEST PUSH1 0x20 DUP3 ADD SWAP1 POP SWAP2 SWAP1 POP JUMP JUMPDEST PUSH1 0x0 PUSH1 0x20 DUP3 ADD SWAP1 POP DUP2 DUP2 SUB PUSH1 0x0 DUP4 ADD MSTORE PUSH2 0x2D94 DUP2 PUSH2 0x2D58 JUMP JUMPDEST SWAP1 POP SWAP2 SWAP1 POP JUMP JUMPDEST PUSH32 0x556E617574686F72697A65643A204F6E6C79206F776E6572206F722077686974 PUSH1 0x0 DUP3 ADD MSTORE PUSH32 0x656C6973746564204E4654000000000000000000000000000000000000000000 PUSH1 0x20 DUP3 ADD MSTORE POP JUMP JUMPDEST PUSH1 0x0 PUSH2 0x2DF7 PUSH1 0x2B DUP4 PUSH2 0x2583 JUMP JUMPDEST SWAP2 POP PUSH2 0x2E02 DUP3 PUSH2 0x2D9B JUMP JUMPDEST PUSH1 0x40 DUP3 ADD SWAP1 POP SWAP2 SWAP1 POP JUMP JUMPDEST PUSH1 0x0 PUSH1 0x20 DUP3 ADD SWAP1 POP DUP2 DUP2 SUB PUSH1 0x0 DUP4 ADD MSTORE PUSH2 0x2E26 DUP2 PUSH2 0x2DEA JUMP JUMPDEST SWAP1 POP SWAP2 SWAP1 POP JUMP JUMPDEST PUSH32 0x4E6F20636F72652062616C616E636520746F206275726E000000000000000000 PUSH1 0x0 DUP3 ADD MSTORE POP JUMP JUMPDEST PUSH1 0x0 PUSH2 0x2E63 PUSH1 0x17 DUP4 PUSH2 0x2583 JUMP JUMPDEST SWAP2 POP PUSH2 0x2E6E DUP3 PUSH2 0x2E2D JUMP JUMPDEST PUSH1 0x20 DUP3 ADD SWAP1 POP SWAP2 SWAP1 POP JUMP JUMPDEST PUSH1 0x0 PUSH1 0x20 DUP3 ADD SWAP1 POP DUP2 DUP2 SUB PUSH1 0x0 DUP4 ADD MSTORE PUSH2 0x2E92 DUP2 PUSH2 0x2E56 JUMP JUMPDEST SWAP1 POP SWAP2 SWAP1 POP JUMP JUMPDEST PUSH1 0x0 DUP2 MLOAD SWAP1 POP PUSH2 0x2EA8 DUP2 PUSH2 0x229B JUMP JUMPDEST SWAP3 SWAP2 POP POP JUMP JUMPDEST PUSH1 0x0 PUSH1 0x20 DUP3 DUP5 SUB SLT ISZERO PUSH2 0x2EC4 JUMPI PUSH2 0x2EC3 PUSH2 0x2291 JUMP JUMPDEST JUMPDEST PUSH1 0x0 PUSH2 0x2ED2 DUP5 DUP3 DUP6 ADD PUSH2 0x2E99 JUMP JUMPDEST SWAP2 POP POP SWAP3 SWAP2 POP POP JUMP JUMPDEST PUSH1 0x0 PUSH2 0x2EE6 DUP3 PUSH2 0x2383 JUMP JUMPDEST SWAP2 POP PUSH32 0xFFFFFFFFFFFFFFFFFFFFFFFFFFFFFFFFFFFFFFFFFFFFFFFFFFFFFFFFFFFFFFFF DUP3 SUB PUSH2 0x2F18 JUMPI PUSH2 0x2F17 PUSH2 0x2520 JUMP JUMPDEST JUMPDEST PUSH1 0x1 DUP3 ADD SWAP1 POP SWAP2 SWAP1 POP JUMP JUMPDEST PUSH1 0x0 DUP2 PUSH1 0x60 SHL SWAP1 POP SWAP2 SWAP1 POP JUMP JUMPDEST PUSH1 0x0 PUSH2 0x2F3B DUP3 PUSH2 0x2F23 JUMP JUMPDEST SWAP1 POP SWAP2 SWAP1 POP JUMP JUMPDEST PUSH1 0x0 PUSH2 0x2F4D DUP3 PUSH2 0x2F30 JUMP JUMPDEST SWAP1 POP SWAP2 SWAP1 POP JUMP JUMPDEST PUSH2 0x2F65 PUSH2 0x2F60 DUP3 PUSH2 0x224B JUMP JUMPDEST PUSH2 0x2F42 JUMP JUMPDEST DUP3 MSTORE POP POP JUMP JUMPDEST PUSH1 0x0 PUSH3 0xFFFFFF DUP3 AND SWAP1 POP SWAP2 SWAP1 POP JUMP JUMPDEST PUSH1 0x0 DUP2 PUSH1 0xE8 SHL SWAP1 POP SWAP2 SWAP1 POP JUMP JUMPDEST PUSH1 0x0 PUSH2 0x2F92 DUP3 PUSH2 0x2F7A JUMP JUMPDEST SWAP1 POP SWAP2 SWAP1 POP JUMP JUMPDEST PUSH2 0x2FAA PUSH2 0x2FA5 DUP3 PUSH2 0x2F6B JUMP JUMPDEST PUSH2 0x2F87 JUMP JUMPDEST DUP3 MSTORE POP POP JUMP JUMPDEST PUSH1 0x0 PUSH2 0x2FBC DUP3 DUP7 PUSH2 0x2F54 JUMP JUMPDEST PUSH1 0x14 DUP3 ADD SWAP2 POP PUSH2 0x2FCC DUP3 DUP6 PUSH2 0x2F99 JUMP JUMPDEST PUSH1 0x3 DUP3 ADD SWAP2 POP PUSH2 0x2FDC DUP3 DUP5 PUSH2 0x2F54 JUMP JUMPDEST PUSH1 0x14 DUP3 ADD SWAP2 POP DUP2 SWAP1 POP SWAP5 SWAP4 POP POP POP POP JUMP JUMPDEST PUSH1 0x0 DUP2 MLOAD SWAP1 POP SWAP2 SWAP1 POP JUMP JUMPDEST PUSH1 0x0 DUP3 DUP3 MSTORE PUSH1 0x20 DUP3 ADD SWAP1 POP SWAP3 SWAP2 POP POP JUMP JUMPDEST PUSH1 0x0 JUMPDEST DUP4 DUP2 LT ISZERO PUSH2 0x3027 JUMPI DUP1 DUP3 ADD MLOAD DUP2 DUP5 ADD MSTORE PUSH1 0x20 DUP2 ADD SWAP1 POP PUSH2 0x300C JUMP JUMPDEST PUSH1 0x0 DUP5 DUP5 ADD MSTORE POP POP POP POP JUMP JUMPDEST PUSH1 0x0 PUSH1 0x1F NOT PUSH1 0x1F DUP4 ADD AND SWAP1 POP SWAP2 SWAP1 POP JUMP JUMPDEST PUSH1 0x0 PUSH2 0x304F DUP3 PUSH2 0x2FED JUMP JUMPDEST PUSH2 0x3059 DUP2 DUP6 PUSH2 0x2FF8 JUMP JUMPDEST SWAP4 POP PUSH2 0x3069 DUP2 DUP6 PUSH1 0x20 DUP7 ADD PUSH2 0x3009 JUMP JUMPDEST PUSH2 0x3072 DUP2 PUSH2 0x3033 JUMP JUMPDEST DUP5 ADD SWAP2 POP POP SWAP3 SWAP2 POP POP JUMP JUMPDEST PUSH2 0x3086 DUP2 PUSH2 0x224B JUMP JUMPDEST DUP3 MSTORE POP POP JUMP JUMPDEST PUSH2 0x3095 DUP2 PUSH2 0x2383 JUMP JUMPDEST DUP3 MSTORE POP POP JUMP JUMPDEST PUSH1 0x0 PUSH1 0x80 DUP4 ADD PUSH1 0x0 DUP4 ADD MLOAD DUP5 DUP3 SUB PUSH1 0x0 DUP7 ADD MSTORE PUSH2 0x30B8 DUP3 DUP3 PUSH2 0x3044 JUMP JUMPDEST SWAP2 POP POP PUSH1 0x20 DUP4 ADD MLOAD PUSH2 0x30CD PUSH1 0x20 DUP7 ADD DUP3 PUSH2 0x307D JUMP JUMPDEST POP PUSH1 0x40 DUP4 ADD MLOAD PUSH2 0x30E0 PUSH1 0x40 DUP7 ADD DUP3 PUSH2 0x308C JUMP JUMPDEST POP PUSH1 0x60 DUP4 ADD MLOAD PUSH2 0x30F3 PUSH1 0x60 DUP7 ADD DUP3 PUSH2 0x308C JUMP JUMPDEST POP DUP1 SWAP2 POP POP SWAP3 SWAP2 POP POP JUMP JUMPDEST PUSH1 0x0 PUSH1 0x20 DUP3 ADD SWAP1 POP DUP2 DUP2 SUB PUSH1 0x0 DUP4 ADD MSTORE PUSH2 0x3118 DUP2 DUP5 PUSH2 0x309B JUMP JUMPDEST SWAP1 POP SWAP3 SWAP2 POP POP JUMP JUMPDEST PUSH32 0x4E487B7100000000000000000000000000000000000000000000000000000000 PUSH1 0x0 MSTORE PUSH1 0x41 PUSH1 0x4 MSTORE PUSH1 0x24 PUSH1 0x0 REVERT JUMPDEST PUSH32 0x4E487B7100000000000000000000000000000000000000000000000000000000 PUSH1 0x0 MSTORE PUSH1 0x32 PUSH1 0x4 MSTORE PUSH1 0x24 PUSH1 0x0 REVERT JUMPDEST PUSH1 0x0 DUP2 MLOAD SWAP1 POP SWAP2 SWAP1 POP JUMP JUMPDEST PUSH1 0x0 DUP3 DUP3 MSTORE PUSH1 0x20 DUP3 ADD SWAP1 POP SWAP3 SWAP2 POP POP JUMP JUMPDEST PUSH1 0x0 DUP2 SWAP1 POP PUSH1 0x20 DUP3 ADD SWAP1 POP SWAP2 SWAP1 POP JUMP JUMPDEST PUSH1 0x0 PUSH2 0x31B6 DUP4 DUP4 PUSH2 0x307D JUMP JUMPDEST PUSH1 0x20 DUP4 ADD SWAP1 POP SWAP3 SWAP2 POP POP JUMP JUMPDEST PUSH1 0x0 PUSH1 0x20 DUP3 ADD SWAP1 POP SWAP2 SWAP1 POP JUMP JUMPDEST PUSH1 0x0 PUSH2 0x31DA DUP3 PUSH2 0x317E JUMP JUMPDEST PUSH2 0x31E4 DUP2 DUP6 PUSH2 0x3189 JUMP JUMPDEST SWAP4 POP PUSH2 0x31EF DUP4 PUSH2 0x319A JUMP JUMPDEST DUP1 PUSH1 0x0 JUMPDEST DUP4 DUP2 LT ISZERO PUSH2 0x3220 JUMPI DUP2 MLOAD PUSH2 0x3207 DUP9 DUP3 PUSH2 0x31AA JUMP JUMPDEST SWAP8 POP PUSH2 0x3212 DUP4 PUSH2 0x31C2 JUMP JUMPDEST SWAP3 POP POP PUSH1 0x1 DUP2 ADD SWAP1 POP PUSH2 0x31F3 JUMP JUMPDEST POP DUP6 SWAP4 POP POP POP POP SWAP3 SWAP2 POP POP JUMP JUMPDEST PUSH1 0x0 PUSH1 0x40 DUP3 ADD SWAP1 POP PUSH2 0x3242 PUSH1 0x0 DUP4 ADD DUP6 PUSH2 0x238D JUMP JUMPDEST DUP2 DUP2 SUB PUSH1 0x20 DUP4 ADD MSTORE PUSH2 0x3254 DUP2 DUP5 PUSH2 0x31CF JUMP JUMPDEST SWAP1 POP SWAP4 SWAP3 POP POP POP JUMP JUMPDEST PUSH1 0x0 DUP1 REVERT JUMPDEST PUSH2 0x326B DUP3 PUSH2 0x3033 JUMP JUMPDEST DUP2 ADD DUP2 DUP2 LT PUSH8 0xFFFFFFFFFFFFFFFF DUP3 GT OR ISZERO PUSH2 0x328A JUMPI PUSH2 0x3289 PUSH2 0x3120 JUMP JUMPDEST JUMPDEST DUP1 PUSH1 0x40 MSTORE POP POP POP JUMP JUMPDEST PUSH1 0x0 PUSH2 0x329D PUSH2 0x2287 JUMP JUMPDEST SWAP1 POP PUSH2 0x32A9 DUP3 DUP3 PUSH2 0x3262 JUMP JUMPDEST SWAP2 SWAP1 POP JUMP JUMPDEST PUSH1 0x0 PUSH8 0xFFFFFFFFFFFFFFFF DUP3 GT ISZERO PUSH2 0x32C9 JUMPI PUSH2 0x32C8 PUSH2 0x3120 JUMP JUMPDEST JUMPDEST PUSH1 0x20 DUP3 MUL SWAP1 POP PUSH1 0x20 DUP2 ADD SWAP1 POP SWAP2 SWAP1 POP JUMP JUMPDEST PUSH1 0x0 DUP1 REVERT JUMPDEST PUSH1 0x0 PUSH2 0x32F2 PUSH2 0x32ED DUP5 PUSH2 0x32AE JUMP JUMPDEST PUSH2 0x3293 JUMP JUMPDEST SWAP1 POP DUP1 DUP4 DUP3 MSTORE PUSH1 0x20 DUP3 ADD SWAP1 POP PUSH1 0x20 DUP5 MUL DUP4 ADD DUP6 DUP2 GT ISZERO PUSH2 0x3315 JUMPI PUSH2 0x3314 PUSH2 0x32DA JUMP JUMPDEST JUMPDEST DUP4 JUMPDEST DUP2 DUP2 LT ISZERO PUSH2 0x333E JUMPI DUP1 PUSH2 0x332A DUP9 DUP3 PUSH2 0x24DE JUMP JUMPDEST DUP5 MSTORE PUSH1 0x20 DUP5 ADD SWAP4 POP POP PUSH1 0x20 DUP2 ADD SWAP1 POP PUSH2 0x3317 JUMP JUMPDEST POP POP POP SWAP4 SWAP3 POP POP POP JUMP JUMPDEST PUSH1 0x0 DUP3 PUSH1 0x1F DUP4 ADD SLT PUSH2 0x335D JUMPI PUSH2 0x335C PUSH2 0x325D JUMP JUMPDEST JUMPDEST DUP2 MLOAD PUSH2 0x336D DUP5 DUP3 PUSH1 0x20 DUP7 ADD PUSH2 0x32DF JUMP JUMPDEST SWAP2 POP POP SWAP3 SWAP2 POP POP JUMP JUMPDEST PUSH1 0x0 PUSH1 0x20 DUP3 DUP5 SUB SLT ISZERO PUSH2 0x338C JUMPI PUSH2 0x338B PUSH2 0x2291 JUMP JUMPDEST JUMPDEST PUSH1 0x0 DUP3 ADD MLOAD PUSH8 0xFFFFFFFFFFFFFFFF DUP2 GT ISZERO PUSH2 0x33AA JUMPI PUSH2 0x33A9 PUSH2 0x2296 JUMP JUMPDEST JUMPDEST PUSH2 0x33B6 DUP5 DUP3 DUP6 ADD PUSH2 0x3348 JUMP JUMPDEST SWAP2 POP POP SWAP3 SWAP2 POP POP JUMP JUMPDEST PUSH1 0x0 PUSH1 0xA0 DUP3 ADD SWAP1 POP PUSH2 0x33D4 PUSH1 0x0 DUP4 ADD DUP9 PUSH2 0x238D JUMP JUMPDEST PUSH2 0x33E1 PUSH1 0x20 DUP4 ADD DUP8 PUSH2 0x238D JUMP JUMPDEST DUP2 DUP2 SUB PUSH1 0x40 DUP4 ADD MSTORE PUSH2 0x33F3 DUP2 DUP7 PUSH2 0x31CF JUMP JUMPDEST SWAP1 POP PUSH2 0x3402 PUSH1 0x60 DUP4 ADD DUP6 PUSH2 0x225D JUMP JUMPDEST PUSH2 0x340F PUSH1 0x80 DUP4 ADD DUP5 PUSH2 0x238D JUMP JUMPDEST SWAP7 SWAP6 POP POP POP POP POP POP JUMP INVALID LOG2 PUSH5 0x6970667358 0x22 SLT KECCAK256 PUSH14 0xC1C77A882B886D0D27E2D4DEC928 CREATE RETURN RETURNDATASIZE GASPRICE EQ MLOAD SWAP8 JUMP 0xE1 0xC0 CODECOPY PUSH8 0x59C17CE86464736F PUSH13 0x63430008140033000000000000 "
		},
		"gasEstimates": {
			"creation": {
				"codeDepositCost": "2678200",
				"executionCost": "infinite",
				"totalCost": "infinite"
			},
			"external": {
				"": "infinite",
				"BURN_ADDRESS()": "infinite",
				"DEAD_ADDRESS()": "infinite",
				"WETN()": "infinite",
				"addWhitelistedNFT(address)": "infinite",
				"autoBuyAndBurn()": "2538",
				"autoBuyAndBurnCore()": "2611",
				"club()": "infinite",
				"clubBalance()": "2563",
				"coreBalance()": "2497",
				"coreToken()": "infinite",
				"coreWallet()": "infinite",
				"erevosNFT()": "infinite",
				"isWhitelistedNFT(address)": "2951",
				"manualBuyAndBurn()": "infinite",
				"manualBuyAndBurnCore()": "infinite",
				"nftBalance()": "2519",
				"owner()": "2589",
				"processIncomingTokens()": "infinite",
				"removeWhitelistedNFT(address)": "infinite",
				"renounceOwnership()": "infinite",
				"rescueETH(uint256,address)": "infinite",
				"rescueTokens(address,uint256,address)": "infinite",
				"setAutoBuyAndBurn(bool)": "infinite",
				"setAutoBuyAndBurnCore(bool)": "infinite",
				"transferOwnership(address)": "infinite",
				"whitelistedNFTs(address)": "2891",
				"withdrawCore()": "infinite"
			},
			"internal": {
				"_buyAndBurn()": "infinite",
				"_buyAndBurnCore()": "infinite",
				"_distributeToNFTs()": "infinite",
				"_processIncomingFee(uint256)": "infinite"
			}
		},
		"methodIdentifiers": {
			"BURN_ADDRESS()": "fccc2813",
			"DEAD_ADDRESS()": "4e6fd6c4",
			"WETN()": "66650b7b",
			"addWhitelistedNFT(address)": "8465093e",
			"autoBuyAndBurn()": "ba779ed5",
			"autoBuyAndBurnCore()": "7581aa60",
			"club()": "0efd0973",
			"clubBalance()": "3d65de44",
			"coreBalance()": "7499aff4",
			"coreToken()": "0c2b72e9",
			"coreWallet()": "62ab05e7",
			"erevosNFT()": "b2b22d5f",
			"isWhitelistedNFT(address)": "138b7338",
			"manualBuyAndBurn()": "57d1fdcd",
			"manualBuyAndBurnCore()": "dc1a4d9e",
			"nftBalance()": "5301fa6f",
			"owner()": "8da5cb5b",
			"processIncomingTokens()": "dc05a309",
			"removeWhitelistedNFT(address)": "210009cf",
			"renounceOwnership()": "715018a6",
			"rescueETH(uint256,address)": "a0558c3f",
			"rescueTokens(address,uint256,address)": "b37fd190",
			"setAutoBuyAndBurn(bool)": "2b7459b9",
			"setAutoBuyAndBurnCore(bool)": "6cdf0e40",
			"transferOwnership(address)": "f2fde38b",
			"whitelistedNFTs(address)": "3f0c188f",
			"withdrawCore()": "c36554ce"
		}
	},
	"abi": [
		{
			"inputs": [
				{
					"internalType": "address",
					"name": "v3RouterAddr",
					"type": "address"
				},
				{
					"internalType": "address",
					"name": "v2RouterAddr",
					"type": "address"
				},
				{
					"internalType": "address",
					"name": "_club",
					"type": "address"
				},
				{
					"internalType": "address",
					"name": "_coreToken",
					"type": "address"
				},
				{
					"internalType": "address",
					"name": "_wetn",
					"type": "address"
				},
				{
					"internalType": "address",
					"name": "_owner",
					"type": "address"
				},
				{
					"internalType": "address payable",
					"name": "_coreWallet",
					"type": "address"
				},
				{
					"internalType": "address",
					"name": "_erevosNFT",
					"type": "address"
				}
			],
			"stateMutability": "nonpayable",
			"type": "constructor"
		},
		{
			"inputs": [
				{
					"internalType": "address",
					"name": "owner",
					"type": "address"
				}
			],
			"name": "OwnableInvalidOwner",
			"type": "error"
		},
		{
			"inputs": [
				{
					"internalType": "address",
					"name": "account",
					"type": "address"
				}
			],
			"name": "OwnableUnauthorizedAccount",
			"type": "error"
		},
		{
			"inputs": [],
			"name": "ReentrancyGuardReentrantCall",
			"type": "error"
		},
		{
			"anonymous": false,
			"inputs": [
				{
					"indexed": false,
					"internalType": "uint256",
					"name": "clubBurned",
					"type": "uint256"
				}
			],
			"name": "ClubBuyAndBurn",
			"type": "event"
		},
		{
			"anonymous": false,
			"inputs": [
				{
					"indexed": false,
					"internalType": "uint256",
					"name": "coreBurned",
					"type": "uint256"
				}
			],
			"name": "CoreBuyAndBurn",
			"type": "event"
		},
		{
			"anonymous": false,
			"inputs": [
				{
					"indexed": false,
					"internalType": "uint256",
					"name": "amount",
					"type": "uint256"
				},
				{
					"indexed": false,
					"internalType": "address",
					"name": "to",
					"type": "address"
				}
			],
			"name": "ETHRescued",
			"type": "event"
		},
		{
			"anonymous": false,
			"inputs": [
				{
					"indexed": false,
					"internalType": "uint256",
					"name": "amountIn",
					"type": "uint256"
				},
				{
					"indexed": false,
					"internalType": "uint256",
					"name": "coreShare",
					"type": "uint256"
				},
				{
					"indexed": false,
					"internalType": "uint256",
					"name": "clubShare",
					"type": "uint256"
				},
				{
					"indexed": false,
					"internalType": "uint256",
					"name": "nftShare",
					"type": "uint256"
				}
			],
			"name": "FeeProcessed",
			"type": "event"
		},
		{
			"anonymous": false,
			"inputs": [
				{
					"indexed": false,
					"internalType": "address",
					"name": "nftContract",
					"type": "address"
				}
			],
			"name": "NFTUnwhitelisted",
			"type": "event"
		},
		{
			"anonymous": false,
			"inputs": [
				{
					"indexed": false,
					"internalType": "address",
					"name": "nftContract",
					"type": "address"
				}
			],
			"name": "NFTWhitelisted",
			"type": "event"
		},
		{
			"anonymous": false,
			"inputs": [
				{
					"indexed": true,
					"internalType": "address",
					"name": "previousOwner",
					"type": "address"
				},
				{
					"indexed": true,
					"internalType": "address",
					"name": "newOwner",
					"type": "address"
				}
			],
			"name": "OwnershipTransferred",
			"type": "event"
		},
		{
			"anonymous": false,
			"inputs": [
				{
					"indexed": false,
					"internalType": "address",
					"name": "token",
					"type": "address"
				},
				{
					"indexed": false,
					"internalType": "uint256",
					"name": "amount",
					"type": "uint256"
				},
				{
					"indexed": false,
					"internalType": "address",
					"name": "to",
					"type": "address"
				}
			],
			"name": "TokensRescued",
			"type": "event"
		},
		{
			"stateMutability": "payable",
			"type": "fallback"
		},
		{
			"inputs": [],
			"name": "BURN_ADDRESS",
			"outputs": [
				{
					"internalType": "address",
					"name": "",
					"type": "address"
				}
			],
			"stateMutability": "view",
			"type": "function"
		},
		{
			"inputs": [],
			"name": "DEAD_ADDRESS",
			"outputs": [
				{
					"internalType": "address",
					"name": "",
					"type": "address"
				}
			],
			"stateMutability": "view",
			"type": "function"
		},
		{
			"inputs": [],
			"name": "WETN",
			"outputs": [
				{
					"internalType": "address",
					"name": "",
					"type": "address"
				}
			],
			"stateMutability": "view",
			"type": "function"
		},
		{
			"inputs": [
				{
					"internalType": "address",
					"name": "nftContract",
					"type": "address"
				}
			],
			"name": "addWhitelistedNFT",
			"outputs": [],
			"stateMutability": "nonpayable",
			"type": "function"
		},
		{
			"inputs": [],
			"name": "autoBuyAndBurn",
			"outputs": [
				{
					"internalType": "bool",
					"name": "",
					"type": "bool"
				}
			],
			"stateMutability": "view",
			"type": "function"
		},
		{
			"inputs": [],
			"name": "autoBuyAndBurnCore",
			"outputs": [
				{
					"internalType": "bool",
					"name": "",
					"type": "bool"
				}
			],
			"stateMutability": "view",
			"type": "function"
		},
		{
			"inputs": [],
			"name": "club",
			"outputs": [
				{
					"internalType": "address",
					"name": "",
					"type": "address"
				}
			],
			"stateMutability": "view",
			"type": "function"
		},
		{
			"inputs": [],
			"name": "clubBalance",
			"outputs": [
				{
					"internalType": "uint256",
					"name": "",
					"type": "uint256"
				}
			],
			"stateMutability": "view",
			"type": "function"
		},
		{
			"inputs": [],
			"name": "coreBalance",
			"outputs": [
				{
					"internalType": "uint256",
					"name": "",
					"type": "uint256"
				}
			],
			"stateMutability": "view",
			"type": "function"
		},
		{
			"inputs": [],
			"name": "coreToken",
			"outputs": [
				{
					"internalType": "address",
					"name": "",
					"type": "address"
				}
			],
			"stateMutability": "view",
			"type": "function"
		},
		{
			"inputs": [],
			"name": "coreWallet",
			"outputs": [
				{
					"internalType": "address payable",
					"name": "",
					"type": "address"
				}
			],
			"stateMutability": "view",
			"type": "function"
		},
		{
			"inputs": [],
			"name": "erevosNFT",
			"outputs": [
				{
					"internalType": "address",
					"name": "",
					"type": "address"
				}
			],
			"stateMutability": "view",
			"type": "function"
		},
		{
			"inputs": [
				{
					"internalType": "address",
					"name": "nftContract",
					"type": "address"
				}
			],
			"name": "isWhitelistedNFT",
			"outputs": [
				{
					"internalType": "bool",
					"name": "",
					"type": "bool"
				}
			],
			"stateMutability": "view",
			"type": "function"
		},
		{
			"inputs": [],
			"name": "manualBuyAndBurn",
			"outputs": [],
			"stateMutability": "nonpayable",
			"type": "function"
		},
		{
			"inputs": [],
			"name": "manualBuyAndBurnCore",
			"outputs": [],
			"stateMutability": "nonpayable",
			"type": "function"
		},
		{
			"inputs": [],
			"name": "nftBalance",
			"outputs": [
				{
					"internalType": "uint256",
					"name": "",
					"type": "uint256"
				}
			],
			"stateMutability": "view",
			"type": "function"
		},
		{
			"inputs": [],
			"name": "owner",
			"outputs": [
				{
					"internalType": "address",
					"name": "",
					"type": "address"
				}
			],
			"stateMutability": "view",
			"type": "function"
		},
		{
			"inputs": [],
			"name": "processIncomingTokens",
			"outputs": [],
			"stateMutability": "nonpayable",
			"type": "function"
		},
		{
			"inputs": [
				{
					"internalType": "address",
					"name": "nftContract",
					"type": "address"
				}
			],
			"name": "removeWhitelistedNFT",
			"outputs": [],
			"stateMutability": "nonpayable",
			"type": "function"
		},
		{
			"inputs": [],
			"name": "renounceOwnership",
			"outputs": [],
			"stateMutability": "nonpayable",
			"type": "function"
		},
		{
			"inputs": [
				{
					"internalType": "uint256",
					"name": "amount",
					"type": "uint256"
				},
				{
					"internalType": "address payable",
					"name": "to",
					"type": "address"
				}
			],
			"name": "rescueETH",
			"outputs": [],
			"stateMutability": "nonpayable",
			"type": "function"
		},
		{
			"inputs": [
				{
					"internalType": "address",
					"name": "token",
					"type": "address"
				},
				{
					"internalType": "uint256",
					"name": "amount",
					"type": "uint256"
				},
				{
					"internalType": "address",
					"name": "to",
					"type": "address"
				}
			],
			"name": "rescueTokens",
			"outputs": [],
			"stateMutability": "nonpayable",
			"type": "function"
		},
		{
			"inputs": [
				{
					"internalType": "bool",
					"name": "_autoBuyAndBurn",
					"type": "bool"
				}
			],
			"name": "setAutoBuyAndBurn",
			"outputs": [],
			"stateMutability": "nonpayable",
			"type": "function"
		},
		{
			"inputs": [
				{
					"internalType": "bool",
					"name": "_autoBuyAndBurnCore",
					"type": "bool"
				}
			],
			"name": "setAutoBuyAndBurnCore",
			"outputs": [],
			"stateMutability": "nonpayable",
			"type": "function"
		},
		{
			"inputs": [
				{
					"internalType": "address",
					"name": "newOwner",
					"type": "address"
				}
			],
			"name": "transferOwnership",
			"outputs": [],
			"stateMutability": "nonpayable",
			"type": "function"
		},
		{
			"inputs": [
				{
					"internalType": "address",
					"name": "",
					"type": "address"
				}
			],
			"name": "whitelistedNFTs",
			"outputs": [
				{
					"internalType": "bool",
					"name": "",
					"type": "bool"
				}
			],
			"stateMutability": "view",
			"type": "function"
		},
		{
			"inputs": [],
			"name": "withdrawCore",
			"outputs": [],
			"stateMutability": "nonpayable",
			"type": "function"
		},
		{
			"stateMutability": "payable",
			"type": "receive"
		}
	]
}